{
	"data": {
		"bytecode": {
			"linkReferences": {},
			"object": "608060405234801561001057600080fd5b5060008054600160a060020a03191633179055610402806100326000396000f30060806040526004361061008d5763ffffffff7c010000000000000000000000000000000000000000000000000000000060003504166323a3ad72811461009257806343923258146100bb5780638da5cb5b146100e257806392afc33a1461011357806395a8c58d1461013e578063975347b814610179578063985989d2146101a0578063be46b94c146101b5575b600080fd5b34801561009e57600080fd5b506100b9600160a060020a036004351660ff602435166101ca565b005b3480156100c757600080fd5b506100b9600160a060020a036004351660ff602435166101f0565b3480156100ee57600080fd5b506100f7610282565b60408051600160a060020a039092168252519081900360200190f35b34801561011f57600080fd5b50610128610291565b6040805160ff9092168252519081900360200190f35b34801561014a57600080fd5b50610165600160a060020a036004351660ff60243516610296565b604080519115158252519081900360200190f35b34801561018557600080fd5b506100b9600160a060020a036004351660ff602435166102bf565b3480156101ac57600080fd5b50610128610351565b3480156101c157600080fd5b50610128610356565b60ff811660009081526001602052604090206101ec908363ffffffff61035b16565b5050565b600054600160a060020a031633148061020f575061020f336001610296565b151561021a57600080fd5b60ff8116600090815260016020526040902061023c908363ffffffff61037016565b6040805160ff831681529051600160a060020a038416917f0ed8a6a6a166243876472f7a8610b62c1a76c67911642d39ff34ead38105534f919081900360200190a25050565b600054600160a060020a031681565b600281565b60ff811660009081526001602052604081206102b8908463ffffffff61039516565b9392505050565b600054600160a060020a03163314806102de57506102de336001610296565b15156102e957600080fd5b60ff8116600090815260016020526040902061030b908363ffffffff6103b416565b6040805160ff831681529051600160a060020a038416917f3824b64a1e23d936b458f4e31445c664d2bc9c14e842407917cbc100b0236a2f919081900360200190a25050565b600381565b600181565b6103658282610395565b15156101ec57600080fd5b600160a060020a0316600090815260209190915260409020805460ff19166001179055565b600160a060020a03166000908152602091909152604090205460ff1690565b600160a060020a0316600090815260209190915260409020805460ff191690555600a165627a7a7230582019e26ef1e79a19a6c12914fb4e57c0eebaebc1aad27df8e7451f2ce0d7bddb630029",
			"opcodes": "PUSH1 0x80 PUSH1 0x40 MSTORE CALLVALUE DUP1 ISZERO PUSH2 0x10 JUMPI PUSH1 0x0 DUP1 REVERT JUMPDEST POP PUSH1 0x0 DUP1 SLOAD PUSH1 0x1 PUSH1 0xA0 PUSH1 0x2 EXP SUB NOT AND CALLER OR SWAP1 SSTORE PUSH2 0x402 DUP1 PUSH2 0x32 PUSH1 0x0 CODECOPY PUSH1 0x0 RETURN STOP PUSH1 0x80 PUSH1 0x40 MSTORE PUSH1 0x4 CALLDATASIZE LT PUSH2 0x8D JUMPI PUSH4 0xFFFFFFFF PUSH29 0x100000000000000000000000000000000000000000000000000000000 PUSH1 0x0 CALLDATALOAD DIV AND PUSH4 0x23A3AD72 DUP2 EQ PUSH2 0x92 JUMPI DUP1 PUSH4 0x43923258 EQ PUSH2 0xBB JUMPI DUP1 PUSH4 0x8DA5CB5B EQ PUSH2 0xE2 JUMPI DUP1 PUSH4 0x92AFC33A EQ PUSH2 0x113 JUMPI DUP1 PUSH4 0x95A8C58D EQ PUSH2 0x13E JUMPI DUP1 PUSH4 0x975347B8 EQ PUSH2 0x179 JUMPI DUP1 PUSH4 0x985989D2 EQ PUSH2 0x1A0 JUMPI DUP1 PUSH4 0xBE46B94C EQ PUSH2 0x1B5 JUMPI JUMPDEST PUSH1 0x0 DUP1 REVERT JUMPDEST CALLVALUE DUP1 ISZERO PUSH2 0x9E JUMPI PUSH1 0x0 DUP1 REVERT JUMPDEST POP PUSH2 0xB9 PUSH1 0x1 PUSH1 0xA0 PUSH1 0x2 EXP SUB PUSH1 0x4 CALLDATALOAD AND PUSH1 0xFF PUSH1 0x24 CALLDATALOAD AND PUSH2 0x1CA JUMP JUMPDEST STOP JUMPDEST CALLVALUE DUP1 ISZERO PUSH2 0xC7 JUMPI PUSH1 0x0 DUP1 REVERT JUMPDEST POP PUSH2 0xB9 PUSH1 0x1 PUSH1 0xA0 PUSH1 0x2 EXP SUB PUSH1 0x4 CALLDATALOAD AND PUSH1 0xFF PUSH1 0x24 CALLDATALOAD AND PUSH2 0x1F0 JUMP JUMPDEST CALLVALUE DUP1 ISZERO PUSH2 0xEE JUMPI PUSH1 0x0 DUP1 REVERT JUMPDEST POP PUSH2 0xF7 PUSH2 0x282 JUMP JUMPDEST PUSH1 0x40 DUP1 MLOAD PUSH1 0x1 PUSH1 0xA0 PUSH1 0x2 EXP SUB SWAP1 SWAP3 AND DUP3 MSTORE MLOAD SWAP1 DUP2 SWAP1 SUB PUSH1 0x20 ADD SWAP1 RETURN JUMPDEST CALLVALUE DUP1 ISZERO PUSH2 0x11F JUMPI PUSH1 0x0 DUP1 REVERT JUMPDEST POP PUSH2 0x128 PUSH2 0x291 JUMP JUMPDEST PUSH1 0x40 DUP1 MLOAD PUSH1 0xFF SWAP1 SWAP3 AND DUP3 MSTORE MLOAD SWAP1 DUP2 SWAP1 SUB PUSH1 0x20 ADD SWAP1 RETURN JUMPDEST CALLVALUE DUP1 ISZERO PUSH2 0x14A JUMPI PUSH1 0x0 DUP1 REVERT JUMPDEST POP PUSH2 0x165 PUSH1 0x1 PUSH1 0xA0 PUSH1 0x2 EXP SUB PUSH1 0x4 CALLDATALOAD AND PUSH1 0xFF PUSH1 0x24 CALLDATALOAD AND PUSH2 0x296 JUMP JUMPDEST PUSH1 0x40 DUP1 MLOAD SWAP2 ISZERO ISZERO DUP3 MSTORE MLOAD SWAP1 DUP2 SWAP1 SUB PUSH1 0x20 ADD SWAP1 RETURN JUMPDEST CALLVALUE DUP1 ISZERO PUSH2 0x185 JUMPI PUSH1 0x0 DUP1 REVERT JUMPDEST POP PUSH2 0xB9 PUSH1 0x1 PUSH1 0xA0 PUSH1 0x2 EXP SUB PUSH1 0x4 CALLDATALOAD AND PUSH1 0xFF PUSH1 0x24 CALLDATALOAD AND PUSH2 0x2BF JUMP JUMPDEST CALLVALUE DUP1 ISZERO PUSH2 0x1AC JUMPI PUSH1 0x0 DUP1 REVERT JUMPDEST POP PUSH2 0x128 PUSH2 0x351 JUMP JUMPDEST CALLVALUE DUP1 ISZERO PUSH2 0x1C1 JUMPI PUSH1 0x0 DUP1 REVERT JUMPDEST POP PUSH2 0x128 PUSH2 0x356 JUMP JUMPDEST PUSH1 0xFF DUP2 AND PUSH1 0x0 SWAP1 DUP2 MSTORE PUSH1 0x1 PUSH1 0x20 MSTORE PUSH1 0x40 SWAP1 KECCAK256 PUSH2 0x1EC SWAP1 DUP4 PUSH4 0xFFFFFFFF PUSH2 0x35B AND JUMP JUMPDEST POP POP JUMP JUMPDEST PUSH1 0x0 SLOAD PUSH1 0x1 PUSH1 0xA0 PUSH1 0x2 EXP SUB AND CALLER EQ DUP1 PUSH2 0x20F JUMPI POP PUSH2 0x20F CALLER PUSH1 0x1 PUSH2 0x296 JUMP JUMPDEST ISZERO ISZERO PUSH2 0x21A JUMPI PUSH1 0x0 DUP1 REVERT JUMPDEST PUSH1 0xFF DUP2 AND PUSH1 0x0 SWAP1 DUP2 MSTORE PUSH1 0x1 PUSH1 0x20 MSTORE PUSH1 0x40 SWAP1 KECCAK256 PUSH2 0x23C SWAP1 DUP4 PUSH4 0xFFFFFFFF PUSH2 0x370 AND JUMP JUMPDEST PUSH1 0x40 DUP1 MLOAD PUSH1 0xFF DUP4 AND DUP2 MSTORE SWAP1 MLOAD PUSH1 0x1 PUSH1 0xA0 PUSH1 0x2 EXP SUB DUP5 AND SWAP2 PUSH32 0xED8A6A6A166243876472F7A8610B62C1A76C67911642D39FF34EAD38105534F SWAP2 SWAP1 DUP2 SWAP1 SUB PUSH1 0x20 ADD SWAP1 LOG2 POP POP JUMP JUMPDEST PUSH1 0x0 SLOAD PUSH1 0x1 PUSH1 0xA0 PUSH1 0x2 EXP SUB AND DUP2 JUMP JUMPDEST PUSH1 0x2 DUP2 JUMP JUMPDEST PUSH1 0xFF DUP2 AND PUSH1 0x0 SWAP1 DUP2 MSTORE PUSH1 0x1 PUSH1 0x20 MSTORE PUSH1 0x40 DUP2 KECCAK256 PUSH2 0x2B8 SWAP1 DUP5 PUSH4 0xFFFFFFFF PUSH2 0x395 AND JUMP JUMPDEST SWAP4 SWAP3 POP POP POP JUMP JUMPDEST PUSH1 0x0 SLOAD PUSH1 0x1 PUSH1 0xA0 PUSH1 0x2 EXP SUB AND CALLER EQ DUP1 PUSH2 0x2DE JUMPI POP PUSH2 0x2DE CALLER PUSH1 0x1 PUSH2 0x296 JUMP JUMPDEST ISZERO ISZERO PUSH2 0x2E9 JUMPI PUSH1 0x0 DUP1 REVERT JUMPDEST PUSH1 0xFF DUP2 AND PUSH1 0x0 SWAP1 DUP2 MSTORE PUSH1 0x1 PUSH1 0x20 MSTORE PUSH1 0x40 SWAP1 KECCAK256 PUSH2 0x30B SWAP1 DUP4 PUSH4 0xFFFFFFFF PUSH2 0x3B4 AND JUMP JUMPDEST PUSH1 0x40 DUP1 MLOAD PUSH1 0xFF DUP4 AND DUP2 MSTORE SWAP1 MLOAD PUSH1 0x1 PUSH1 0xA0 PUSH1 0x2 EXP SUB DUP5 AND SWAP2 PUSH32 0x3824B64A1E23D936B458F4E31445C664D2BC9C14E842407917CBC100B0236A2F SWAP2 SWAP1 DUP2 SWAP1 SUB PUSH1 0x20 ADD SWAP1 LOG2 POP POP JUMP JUMPDEST PUSH1 0x3 DUP2 JUMP JUMPDEST PUSH1 0x1 DUP2 JUMP JUMPDEST PUSH2 0x365 DUP3 DUP3 PUSH2 0x395 JUMP JUMPDEST ISZERO ISZERO PUSH2 0x1EC JUMPI PUSH1 0x0 DUP1 REVERT JUMPDEST PUSH1 0x1 PUSH1 0xA0 PUSH1 0x2 EXP SUB AND PUSH1 0x0 SWAP1 DUP2 MSTORE PUSH1 0x20 SWAP2 SWAP1 SWAP2 MSTORE PUSH1 0x40 SWAP1 KECCAK256 DUP1 SLOAD PUSH1 0xFF NOT AND PUSH1 0x1 OR SWAP1 SSTORE JUMP JUMPDEST PUSH1 0x1 PUSH1 0xA0 PUSH1 0x2 EXP SUB AND PUSH1 0x0 SWAP1 DUP2 MSTORE PUSH1 0x20 SWAP2 SWAP1 SWAP2 MSTORE PUSH1 0x40 SWAP1 KECCAK256 SLOAD PUSH1 0xFF AND SWAP1 JUMP JUMPDEST PUSH1 0x1 PUSH1 0xA0 PUSH1 0x2 EXP SUB AND PUSH1 0x0 SWAP1 DUP2 MSTORE PUSH1 0x20 SWAP2 SWAP1 SWAP2 MSTORE PUSH1 0x40 SWAP1 KECCAK256 DUP1 SLOAD PUSH1 0xFF NOT AND SWAP1 SSTORE JUMP STOP LOG1 PUSH6 0x627A7A723058 KECCAK256 NOT 0xe2 PUSH15 0xF1E79A19A6C12914FB4E57C0EEBAEB 0xc1 0xaa 0xd2 PUSH30 0xF8E7451F2CE0D7BDDB630029000000000000000000000000000000000000 "
		},
		"gasEstimates": {
			"creation": {
				"codeDepositCost": "205200",
				"executionCost": "20543",
				"totalCost": "225743"
			},
			"external": {
				"ROLE_KNOWN_ORIGIN()": "347",
				"ROLE_MINTER()": "259",
				"ROLE_UNDER_MINTER()": "325",
				"addAddressToAccessControl(address,uint8)": "infinite",
				"checkRole(address,uint8)": "infinite",
				"hasRole(address,uint8)": "infinite",
				"owner()": "581",
				"removeAddressFromAccessControl(address,uint8)": "infinite"
			}
		},
		"methodIdentifiers": {
			"ROLE_KNOWN_ORIGIN()": "be46b94c",
			"ROLE_MINTER()": "92afc33a",
			"ROLE_UNDER_MINTER()": "985989d2",
			"addAddressToAccessControl(address,uint8)": "43923258",
			"checkRole(address,uint8)": "23a3ad72",
			"hasRole(address,uint8)": "95a8c58d",
			"owner()": "8da5cb5b",
			"removeAddressFromAccessControl(address,uint8)": "975347b8"
		}
	},
	"abi": [
		{
			"constant": true,
			"inputs": [
				{
					"name": "_operator",
					"type": "address"
				},
				{
					"name": "_role",
					"type": "uint8"
				}
			],
			"name": "checkRole",
			"outputs": [],
			"payable": false,
			"stateMutability": "view",
			"type": "function"
		},
		{
			"constant": false,
			"inputs": [
				{
					"name": "_operator",
					"type": "address"
				},
				{
					"name": "_role",
					"type": "uint8"
				}
			],
			"name": "addAddressToAccessControl",
			"outputs": [],
			"payable": false,
			"stateMutability": "nonpayable",
			"type": "function"
		},
		{
			"constant": true,
			"inputs": [],
			"name": "owner",
			"outputs": [
				{
					"name": "",
					"type": "address"
				}
			],
			"payable": false,
			"stateMutability": "view",
			"type": "function"
		},
		{
			"constant": true,
			"inputs": [],
			"name": "ROLE_MINTER",
			"outputs": [
				{
					"name": "",
					"type": "uint8"
				}
			],
			"payable": false,
			"stateMutability": "view",
			"type": "function"
		},
		{
			"constant": true,
			"inputs": [
				{
					"name": "_operator",
					"type": "address"
				},
				{
					"name": "_role",
					"type": "uint8"
				}
			],
			"name": "hasRole",
			"outputs": [
				{
					"name": "",
					"type": "bool"
				}
			],
			"payable": false,
			"stateMutability": "view",
			"type": "function"
		},
		{
			"constant": false,
			"inputs": [
				{
					"name": "_operator",
					"type": "address"
				},
				{
					"name": "_role",
					"type": "uint8"
				}
			],
			"name": "removeAddressFromAccessControl",
			"outputs": [],
			"payable": false,
			"stateMutability": "nonpayable",
			"type": "function"
		},
		{
			"constant": true,
			"inputs": [],
			"name": "ROLE_UNDER_MINTER",
			"outputs": [
				{
					"name": "",
					"type": "uint8"
				}
			],
			"payable": false,
			"stateMutability": "view",
			"type": "function"
		},
		{
			"constant": true,
			"inputs": [],
			"name": "ROLE_KNOWN_ORIGIN",
			"outputs": [
				{
					"name": "",
					"type": "uint8"
				}
			],
			"payable": false,
			"stateMutability": "view",
			"type": "function"
		},
		{
			"inputs": [],
			"payable": false,
			"stateMutability": "nonpayable",
			"type": "constructor"
		},
		{
			"anonymous": false,
			"inputs": [
				{
					"indexed": true,
					"name": "operator",
					"type": "address"
				},
				{
					"indexed": false,
					"name": "role",
					"type": "uint8"
				}
			],
			"name": "RoleAdded",
			"type": "event"
		},
		{
			"anonymous": false,
			"inputs": [
				{
					"indexed": true,
					"name": "operator",
					"type": "address"
				},
				{
					"indexed": false,
					"name": "role",
					"type": "uint8"
				}
			],
			"name": "RoleRemoved",
			"type": "event"
		}
	]
}