{
	"data": {
		"bytecode": {
			"linkReferences": {},
			"object": "600e805460a060020a60ff021916905560c0604052601c60808190527f68747470733a2f2f697066732e696e667572612e696f2f697066732f0000000060a09081526200005091600f91906200029f565b50604080518082018252601781527f4b6e6f776e4f726967696e4469676974616c41737365740000000000000000006020808301919091528251808401909352600483527f4b4f4441000000000000000000000000000000000000000000000000000000009083015290620000ee7f01ffc9a70000000000000000000000000000000000000000000000000000000064010000000062000232810204565b620001227f80ac58cd0000000000000000000000000000000000000000000000000000000064010000000062000232810204565b620001567f4f558e790000000000000000000000000000000000000000000000000000000064010000000062000232810204565b81516200016b9060059060208501906200029f565b508051620001819060069060208401906200029f565b50620001b67f780e9d630000000000000000000000000000000000000000000000000000000064010000000062000232810204565b620001ea7f5b5e139f0000000000000000000000000000000000000000000000000000000064010000000062000232810204565b5050600c805433600160a060020a03199182168117909255600e8054909116909117905534156200021a57600080fd5b60148054600160a060020a0319163317905562000344565b7fffffffff0000000000000000000000000000000000000000000000000000000080821614156200026257600080fd5b7fffffffff00000000000000000000000000000000000000000000000000000000166000908152602081905260409020805460ff19166001179055565b828054600181600116156101000203166002900490600052602060002090601f016020900481019282601f10620002e257805160ff191683800117855562000312565b8280016001018555821562000312579182015b8281111562000312578251825591602001919060010190620002f5565b506200032092915062000324565b5090565b6200034191905b808211156200032057600081556001016200032b565b90565b614ffb80620003546000396000f3006080604052600436106103dc5763ffffffff7c010000000000000000000000000000000000000000000000000000000060003504166301ffc9a781146103eb57806304bb1e3d1461042157806306fdde0314610440578063081812fc146104ca578063095ea7b3146104fe5780631534738014610522578063162094c41461054c57806318160ddd14610570578063187d88031461058557806319fa8f50146105a6578063213d6771146105d85780632295ee5b146105f057806323a3ad721461061057806323b872dd146106375780632bbd84e8146106615780632f745c5914610676578063328a2c2d1461069a57806332fd8478146106b5578063385df389146106f05780633f4ba83a1461070857806340c10f191461071d57806342842e0e1461074157806342966c681461076b57806342c7ea5f14610783578063439232581461079857806343bf63e8146107bf5780634e99b800146107d75780634f558e79146107ec5780634f6ccce7146108045780635091f8811461081c578063593af56a146108375780635a3f26721461084f5780635c975abb146108c05780636352211e146108d5578063652edd41146108ed5780636641179e1461091e5780636a0286921461093f5780636e93dbdc1461095757806370a082311461096c578063715018a61461098d57806371c847b2146109a257806375dcb70a14610a965780637a85c02a14610aba5780637d55758f14610ad25780637eb9f04a14610af6578063824eec3b14610b115780638456cb5914610b29578063891407c014610b3e5780638bbb594a14610b555780638da5cb5b14610bda57806392afc33a14610bef57806395a8c58d14610c1a57806395d89b4114610c41578063975347b814610c5657806397e851f614610c7d578063985989d214610ca45780639cd7745714610cb95780639f727c2714610d45578063a22cb46514610d5a578063abf3260f14610d80578063ac3c995214610d95578063ae8a869014610df8578063afa7a25f14610e84578063b4b5b48f14610ea8578063b6f4df3414610f61578063b88d4fde14610f79578063b8f6c21914610fe8578063bbd1e1fc14611000578063bc02844c14611018578063bdcdc0bc14611030578063be46b94c1461104b578063c2b2fb5e14611060578063c87b56dd14611078578063d4f3d6b814611090578063de56a245146110ab578063e6232ba1146110e4578063e65d19ca146110ff578063e7b8d97714611184578063e985e9c51461119c578063efef39a1146111c3578063f1ff3d4b146111ce578063f2fde38b146111e3578063f3993d1114611204578063f8b4ab7a1461126f578063fee7e35d1461128a575b3480156103e857600080fd5b50005b3480156103f757600080fd5b5061040d600160e060020a0319600435166112a2565b604080519115158252519081900360200190f35b34801561042d57600080fd5b5061043e60043560243515156112c1565b005b34801561044c57600080fd5b50610455611363565b6040805160208082528351818301528351919283929083019185019080838360005b8381101561048f578181015183820152602001610477565b50505050905090810190601f1680156104bc5780820380516001836020036101000a031916815260200191505b509250505060405180910390f35b3480156104d657600080fd5b506104e26004356113fa565b60408051600160a060020a039092168252519081900360200190f35b34801561050a57600080fd5b5061043e600160a060020a0360043516602435611415565b34801561052e57600080fd5b5061053a6004356114be565b60408051918252519081900360200190f35b34801561055857600080fd5b5061043e6004803590602480359081019101356114df565b34801561057c57600080fd5b5061053a6115a9565b34801561059157600080fd5b5061043e600160a060020a03600435166115af565b3480156105b257600080fd5b506105bb61165b565b60408051600160e060020a03199092168252519081900360200190f35b3480156105e457600080fd5b5061053a60043561167f565b3480156105fc57600080fd5b5061043e6004803560248101910135611694565b34801561061c57600080fd5b5061043e600160a060020a036004351660ff60243516611726565b34801561064357600080fd5b5061043e600160a060020a036004358116906024351660443561174c565b34801561066d57600080fd5b5061053a6117ef565b34801561068257600080fd5b5061053a600160a060020a03600435166024356117f5565b3480156106a657600080fd5b5061043e600435602435611843565b3480156106c157600080fd5b506106cd6004356118d7565b60408051600160a060020a03909316835260208301919091528051918290030190f35b3480156106fc57600080fd5b506104556004356118fe565b34801561071457600080fd5b5061043e611a34565b34801561072957600080fd5b5061053a600160a060020a0360043516602435611aac565b34801561074d57600080fd5b5061043e600160a060020a0360043581169060243516604435611c95565b34801561077757600080fd5b5061043e600435611cb1565b34801561078f57600080fd5b5061053a611d42565b3480156107a457600080fd5b5061043e600160a060020a036004351660ff60243516611d48565b3480156107cb57600080fd5b5061053a600435611dda565b3480156107e357600080fd5b50610455611def565b3480156107f857600080fd5b5061040d600435611e7d565b34801561081057600080fd5b5061053a600435611e9a565b34801561082857600080fd5b5061043e600435602435611ecf565b34801561084357600080fd5b5061053a600435611f63565b34801561085b57600080fd5b50610870600160a060020a0360043516611f78565b60408051602080825283518183015283519192839290830191858101910280838360005b838110156108ac578181015183820152602001610894565b505050509050019250505060405180910390f35b3480156108cc57600080fd5b5061040d611fe4565b3480156108e157600080fd5b506104e2600435611ff4565b3480156108f957600080fd5b50610905600435612018565b6040805192835260208301919091528051918290030190f35b34801561092a57600080fd5b50610870600160a060020a0360043516612035565b34801561094b57600080fd5b5061053a60043561209f565b34801561096357600080fd5b506104e26120b4565b34801561097857600080fd5b5061053a600160a060020a03600435166120c3565b34801561099957600080fd5b5061043e6120f6565b3480156109ae57600080fd5b506109ba600435612157565b604051808c600019166000191681526020018b81526020018a815260200189815260200188600160a060020a0316600160a060020a031681526020018781526020018681526020018060200185815260200184815260200183151515158152602001828103825286818151815260200191508051906020019080838360005b83811015610a51578181015183820152602001610a39565b50505050905090810190601f168015610a7e5780820380516001836020036101000a031916815260200191505b509c5050505050505050505050505060405180910390f35b348015610aa257600080fd5b5061043e600480359060248035908101910135612352565b348015610ac657600080fd5b506108706004356123f3565b348015610ade57600080fd5b5061053a600160a060020a0360043516602435612453565b348015610b0257600080fd5b5061043e600435602435612610565b348015610b1d57600080fd5b5061053a6004356126a4565b348015610b3557600080fd5b5061043e6126b6565b61053a600160a060020a0360043516602435612733565b348015610b6157600080fd5b5060408051602060046101043581810135601f810184900484028501840190955284845261040d94823594602480359560443595606435956084359560a435600160a060020a03169560c4359560e43595369594610124949201919081908401838280828437509497505093359450612afc9350505050565b348015610be657600080fd5b506104e2612b4c565b348015610bfb57600080fd5b50610c04612b5b565b6040805160ff9092168252519081900360200190f35b348015610c2657600080fd5b5061040d600160a060020a036004351660ff60243516612b60565b348015610c4d57600080fd5b50610455612b89565b348015610c6257600080fd5b5061043e600160a060020a036004351660ff60243516612bea565b348015610c8957600080fd5b5061043e600435602435600160a060020a0360443516612c7c565b348015610cb057600080fd5b50610c04612e7f565b348015610cc557600080fd5b5060408051602060046101043581810135601f810184900484028501840190955284845261040d94823594602480359560443595606435956084359560a435600160a060020a03169560c4359560e4359536959461012494920191908190840183828082843750949750508435955050506020909201359150612e849050565b348015610d5157600080fd5b5061043e612ee2565b348015610d6657600080fd5b5061043e600160a060020a03600435166024351515612f36565b348015610d8c57600080fd5b5061053a612fba565b348015610da157600080fd5b5060408051602060046024803582810135848102808701860190975280865261043e968435600160a060020a031696369660449591949091019291829185019084908082843750949750612fc09650505050505050565b348015610e0457600080fd5b5060408051602060046101043581810135601f810184900484028501840190955284845261040d94823594602480359560443595606435956084359560a435600160a060020a03169560c4359560e43595369594610124949201919081908401838280828437509497505084359550505060209092013591506130159050565b348015610e9057600080fd5b5061043e600435600160a060020a0360243516613056565b348015610eb457600080fd5b50610ec0600435613186565b604080518681526020808201879052918101859052600160a060020a038316608082015260a06060820181815285519183019190915284519192909160c084019186019080838360005b83811015610f22578181015183820152602001610f0a565b50505050905090810190601f168015610f4f5780820380516001836020036101000a031916815260200191505b50965050505050505060405180910390f35b348015610f6d57600080fd5b5061053a600435613248565b348015610f8557600080fd5b50604080516020601f60643560048181013592830184900484028501840190955281845261043e94600160a060020a03813581169560248035909216956044359536956084940191819084018382808284375094975061325d9650505050505050565b348015610ff457600080fd5b5061090560043561327f565b34801561100c57600080fd5b5061040d6004356132a3565b34801561102457600080fd5b5061053a6004356132bb565b34801561103c57600080fd5b5061043e6004356024356132e2565b34801561105757600080fd5b50610c0461345a565b34801561106c57600080fd5b5061040d60043561345f565b34801561108457600080fd5b50610455600435613487565b34801561109c57600080fd5b5061043e6004356024356135e2565b3480156110b757600080fd5b506110c36004356136f0565b60408051928352600160a060020a0390911660208301528051918290030190f35b3480156110f057600080fd5b5061043e600435602435613716565b34801561110b57600080fd5b5060408051602060046101043581810135601f810184900484028501840190955284845261040d94823594602480359560443595606435956084359560a435600160a060020a03169560c4359560e435953695946101249492019190819084018382808284375094975050933594506137aa9350505050565b34801561119057600080fd5b506108706004356137eb565b3480156111a857600080fd5b5061040d600160a060020a036004358116906024351661384b565b61053a600435613879565b3480156111da57600080fd5b5061053a613885565b3480156111ef57600080fd5b5061043e600160a060020a036004351661388b565b34801561121057600080fd5b50604080516020600460443581810135838102808601850190965280855261043e958335600160a060020a0390811696602480359092169636969560649592949301928291850190849080828437509497506138ab9650505050505050565b34801561127b57600080fd5b5061043e6004356024356138e1565b34801561129657600080fd5b50610455600435613a22565b600160e060020a03191660009081526020819052604090205460ff1690565b600c54600160a060020a03163314806112e057506112e0336001612b60565b15156112eb57600080fd5b60008281526016602052604081205483911061133f576040805160e560020a62461bcd0281526020600482015260166024820152600080516020614fb0833981519152604482015290519081900360640190fd5b50600091825260166020526040909120600901805460ff1916911515919091179055565b60058054604080516020601f60026000196101006001881615020190951694909404938401819004810282018101909252828152606093909290918301828280156113ef5780601f106113c4576101008083540402835291602001916113ef565b820191906000526020600020905b8154815290600101906020018083116113d257829003601f168201915b505050505090505b90565b600090815260026020526040902054600160a060020a031690565b600061142082611ff4565b9050600160a060020a03838116908216141561143b57600080fd5b33600160a060020a03821614806114575750611457813361384b565b151561146257600080fd5b6000828152600260205260408082208054600160a060020a031916600160a060020a0387811691821790925591518593918516917f8c5be1e5ebec7d5bd14f71427d1e84f3dd0314c0f7b2291e5b200ac8c7c3b92591a4505050565b6000818152601760205260408120546114d681611dda565b91505b50919050565b600c54600160a060020a03163314806114fe57506114fe336001612b60565b151561150957600080fd5b8261151381611e7d565b1515611569576040805160e560020a62461bcd02815260206004820152601760248201527f546f6b656e20494420646f6573206e6f74206578697374000000000000000000604482015290519081900360640190fd5b6115a38484848080601f01602080910402602001604051908101604052809392919081815260200183838082843750613b1d945050505050565b50505050565b60095490565b600c54600160a060020a03163314806115ce57506115ce336001612b60565b15156115d957600080fd5b600160a060020a0381161515611639576040805160e560020a62461bcd02815260206004820152600f60248201527f496e76616c696420616464726573730000000000000000000000000000000000604482015290519081900360640190fd5b60148054600160a060020a031916600160a060020a0392909216919091179055565b7f01ffc9a70000000000000000000000000000000000000000000000000000000081565b60009081526016602052604090206001015490565b600c54600160a060020a03163314806116b357506116b3336001612b60565b15156116be57600080fd5b801515611715576040805160e560020a62461bcd02815260206004820152601060248201527f426173652055524920696e76616c696400000000000000000000000000000000604482015290519081900360640190fd5b611721600f8383614e45565b505050565b60ff81166000908152600d60205260409020611748908363ffffffff613b5016565b5050565b6117563382613b65565b151561176157600080fd5b600160a060020a038316151561177657600080fd5b600160a060020a038216151561178b57600080fd5b6117958382613bc4565b61179f8382613c26565b6117a98282613d2d565b8082600160a060020a031684600160a060020a03167fddf252ad1be2c89b69c2b068fc378daa952ba7f163c4a11628f55a4df523b3ef60405160405180910390a4505050565b60115481565b6000611800836120c3565b821061180b57600080fd5b600160a060020a038316600090815260076020526040902080548390811061182f57fe5b906000526020600020015490505b92915050565b600c54600160a060020a03163314806118625750611862336001612b60565b151561186d57600080fd5b6000828152601660205260408120548391106118c1576040805160e560020a62461bcd0281526020600482015260166024820152600080516020614fb0833981519152604482015290519081900360640190fd5b5060009182526016602052604090912060030155565b60009081526016602052604090206005810154600690910154600160a060020a0390911691565b600081815260166020908152604091829020600f80548451601f6002600019610100600186161502019093169290920491820185900485028101850190955280855260609492936114d69392919083018282801561199d5780601f106119725761010080835404028352916020019161199d565b820191906000526020600020905b81548152906001019060200180831161198057829003601f168201915b5050505060088401805460408051602060026001851615610100026000190190941693909304601f8101849004840282018401909252818152935090830182828015611a2a5780601f106119ff57610100808354040283529160200191611a2a565b820191906000526020600020905b815481529060010190602001808311611a0d57829003601f168201915b5050505050613d76565b600e54600160a060020a03163314611a4b57600080fd5b600e5460a060020a900460ff161515611a6357600080fd5b600e805474ff0000000000000000000000000000000000000000191690556040517f7805862f689e2f13df9f062ff482ad3ad112aca9e0847911ed832e158c525b3390600090a1565b600c546000908190600160a060020a0316331480611ad05750611ad0336001612b60565b80611ae15750611ae1336002612b60565b1515611aec57600080fd5b600083815260166020526040812054849110611b40576040805160e560020a62461bcd0281526020600482015260166024820152600080516020614fb0833981519152604482015290519081900360640190fd5b6000848152601660205260409020600b810154600a90910154859111611bd6576040805160e560020a62461bcd02815260206004820152602160248201527f4e6f206d6f72652065646974696f6e73206c65667420746f207075726368617360448201527f6500000000000000000000000000000000000000000000000000000000000000606482015290519081900360840190fd5b611bdf85613dab565b6000868152601660209081526040918290206008018054835160026001831615610100026000190190921691909104601f8101849004840282018401909452838152939650611c8b938a9388938b939190830182828015611c815780601f10611c5657610100808354040283529160200191611c81565b820191906000526020600020905b815481529060010190602001808311611c6457829003601f168201915b5050505050613de7565b5090949350505050565b611721838383602060405190810160405280600081525061325d565b600c5460009081908190600160a060020a0316331480611cd75750611cd7336001612b60565b1515611ce257600080fd5b611cf4611cee85611ff4565b85613e94565b50505060008181526017602090815260408083208054908490558084526018835281842085855260199093529220548154829082908110611d3157fe5b600091825260208220015550505050565b60135481565b600c54600160a060020a0316331480611d675750611d67336001612b60565b1515611d7257600080fd5b60ff81166000908152600d60205260409020611d94908363ffffffff613f8e16565b6040805160ff831681529051600160a060020a038416917f0ed8a6a6a166243876472f7a8610b62c1a76c67911642d39ff34ead38105534f919081900360200190a25050565b60009081526016602052604090206007015490565b600f805460408051602060026001851615610100026000190190941693909304601f81018490048402820184019092528181529291830182828015611e755780601f10611e4a57610100808354040283529160200191611e75565b820191906000526020600020905b815481529060010190602001808311611e5857829003601f168201915b505050505081565b600090815260016020526040902054600160a060020a0316151590565b6000611ea46115a9565b8210611eaf57600080fd5b6009805483908110611ebd57fe5b90600052602060002001549050919050565b600c54600160a060020a0316331480611eee5750611eee336001612b60565b1515611ef957600080fd5b600082815260166020526040812054839110611f4d576040805160e560020a62461bcd0281526020600482015260166024820152600080516020614fb0833981519152604482015290519081900360640190fd5b5060009182526016602052604090912060060155565b60009081526016602052604090206002015490565b600160a060020a038116600090815260076020908152604091829020805483518184028101840190945280845260609392830182828015611fd857602002820191906000526020600020905b815481526020019060010190808311611fc4575b50505050509050919050565b600e5460a060020a900460ff1681565b600081815260016020526040812054600160a060020a031680151561183d57600080fd5b600090815260166020526040902060038101546004909101549091565b600160a060020a0381166000908152601a6020908152604091829020805483518184028101840190945280845260609392830182828015611fd85760200282019190600052602060002090815481526020019060010190808311611fc45750505050509050919050565b6000908152601660205260409020600b015490565b601454600160a060020a031681565b6000600160a060020a03821615156120da57600080fd5b50600160a060020a031660009081526003602052604090205490565b600e54600160a060020a0316331461210d57600080fd5b600e54604051600160a060020a03909116907ff8df31144d9c2f0f6b59d69b8b98abd5459d07f2742c4df920b25aae33c6482090600090a2600e8054600160a060020a0319169055565b600080600080600080600060606000806000808c600060166000838152602001908152602001600020600001541115156121c9576040805160e560020a62461bcd0281526020600482015260166024820152600080516020614fb0833981519152604482015290519081900360640190fd5b601660008f8152602001908152602001600020915081600101548260020154836003015484600401548560050160009054906101000a9004600160a060020a03168660060154876007015461230f600f8054600181600116156101000203166002900480601f0160208091040260200160405190810160405280929190818152602001828054600181600116156101000203166002900480156122ad5780601f10612282576101008083540402835291602001916122ad565b820191906000526020600020905b81548152906001019060200180831161229057829003601f168201915b5050505060088c01805460408051602060026001851615610100026000190190941693909304601f8101849004840282018401909252818152935090830182828015611a2a5780601f106119ff57610100808354040283529160200191611a2a565b89600a01548a600b01548b60090160009054906101000a900460ff169c509c509c509c509c509c509c509c509c509c509c50505091939597999b90929496989a50565b600c54600160a060020a03163314806123715750612371336001612b60565b151561237c57600080fd5b6000838152601660205260408120548491106123d0576040805160e560020a62461bcd0281526020600482015260166024820152600080516020614fb0833981519152604482015290519081900360640190fd5b60008481526016602052604090206123ec906008018484614e45565b5050505050565b600081815260186020908152604091829020805483518184028101840190945280845260609392830182828015611fd85760200282019190600052602060002090815481526020019060010190808311611fc45750505050509050919050565b600c546000908190600160a060020a03163314806124775750612477336001612b60565b806124885750612488336003612b60565b151561249357600080fd5b6000838152601660205260408120548491106124e7576040805160e560020a62461bcd0281526020600482015260166024820152600080516020614fb0833981519152604482015290519081900360640190fd5b6124f084613fb3565b6000858152601660205260409020600b015490925061251690859063ffffffff61403e16565b821115612593576040805160e560020a62461bcd02815260206004820152602e60248201527f52656163686564206d617820746f6b656e49642c2063616e6e6f7420756e646560448201527f72206d696e7420616e796d6f7265000000000000000000000000000000000000606482015290519081900360840190fd5b60008481526016602090815260409182902060080180548351601f6002600019610100600186161502019093169290920491820184900484028101840190945280845261260893899387938a939091830182828015611c815780601f10611c5657610100808354040283529160200191611c81565b509392505050565b600c54600160a060020a031633148061262f575061262f336001612b60565b151561263a57600080fd5b60008281526016602052604081205483911061268e576040805160e560020a62461bcd0281526020600482015260166024820152600080516020614fb0833981519152604482015290519081900360640190fd5b5060009182526016602052604090912060070155565b60009081526017602052604090205490565b600e54600160a060020a031633146126cd57600080fd5b600e5460a060020a900460ff16156126e457600080fd5b600e805474ff0000000000000000000000000000000000000000191660a060020a1790556040517f6985a02210a168e66602d3235cb6db0e70f92b3ba4d376a33c0f3d9434bff62590600090a1565b600e546000908190819060a060020a900460ff161561275157600080fd5b6000848152601660205260408120548591106127a5576040805160e560020a62461bcd0281526020600482015260166024820152600080516020614fb0833981519152604482015290519081900360640190fd5b600085815260166020526040902060090154859060ff161515612812576040805160e560020a62461bcd02815260206004820152601260248201527f45646974696f6e206e6f74206163746976650000000000000000000000000000604482015290519081900360640190fd5b6000868152601660205260409020600b810154600a909101548791116128a8576040805160e560020a62461bcd02815260206004820152602160248201527f4e6f206d6f72652065646974696f6e73206c65667420746f207075726368617360448201527f6500000000000000000000000000000000000000000000000000000000000000606482015290519081900360840190fd5b6000878152601660205260409020600301548790421015612913576040805160e560020a62461bcd02815260206004820152601960248201527f45646974696f6e206e6f7420617661696c61626c652079657400000000000000604482015290519081900360640190fd5b60008181526016602052604090206004015442111561297c576040805160e560020a62461bcd02815260206004820152601b60248201527f45646974696f6e206e6f206c6f6e67657220617661696c61626c650000000000604482015290519081900360640190fd5b60008881526016602052604090206007810154909650341015612a0f576040805160e560020a62461bcd02815260206004820152602b60248201527f56616c7565206d7573742062652067726561746572207468616e20707269636560448201527f206f662065646974696f6e000000000000000000000000000000000000000000606482015290519081900360840190fd5b612a1888613dab565b600887018054604080516020601f60026000196101006001881615020190951694909404938401819004810282018101909252828152939850612a81938d938a938e93830182828015611c815780601f10611c5657610100808354040283529160200191611c81565b612aac8887600701548860050160009054906101000a9004600160a060020a0316896006015461404b565b88600160a060020a031688867f145e2ff612f82ecb64f13b28a0e2825f8fd3dba6d6fbbdec265aa58800014c3d346040518082815260200191505060405180910390a45092979650505050505050565b600c54600090600160a060020a0316331480612b1e5750612b1e336001612b60565b1515612b2957600080fd5b612b3d8b8b8b8b8b8b8b8b8b8b600161419f565b9b9a5050505050505050505050565b600e54600160a060020a031681565b600281565b60ff81166000908152600d60205260408120612b82908463ffffffff6146f916565b9392505050565b60068054604080516020601f60026000196101006001881615020190951694909404938401819004810282018101909252828152606093909290918301828280156113ef5780601f106113c4576101008083540402835291602001916113ef565b600c54600160a060020a0316331480612c095750612c09336001612b60565b1515612c1457600080fd5b60ff81166000908152600d60205260409020612c36908363ffffffff61471816565b6040805160ff831681529051600160a060020a038416917f3824b64a1e23d936b458f4e31445c664d2bc9c14e842407917cbc100b0236a2f919081900360200190a25050565b600c546000908190600160a060020a0316331480612ca05750612ca0336001612b60565b1515612cab57600080fd5b600085815260166020526040812054869110612cff576040805160e560020a62461bcd0281526020600482015260166024820152600080516020614fb0833981519152604482015290519081900360640190fd5b600086815260166020526040812060068101549094509250851115612da457600160a060020a0384161515612da4576040805160e560020a62461bcd02815260206004820152603560248201527f53657474696e6720612072617465206d757374206265206163636f6d70616e6960448201527f656420627920612076616c696420616464726573730000000000000000000000606482015290519081900360840190fd5b6064612db6838763ffffffff61403e16565b1115612e32576040805160e560020a62461bcd02815260206004820152602560248201527f43616e742073657420636f6d6d697373696f6e2067726561746572207468616e60448201527f2031303025000000000000000000000000000000000000000000000000000000606482015290519081900360840190fd5b5050604080518082018252938452600160a060020a03928316602080860191825260009687526015905294209251835550915160019091018054600160a060020a03191691909216179055565b600381565b600c54600090600160a060020a0316331480612ea65750612ea6336001612b60565b1515612eb157600080fd5b612ec58c8c8c8c8c8c8c8c8c8b600061419f565b50612ed08c846138e1565b5060019b9a5050505050505050505050565b600e54600160a060020a03163314612ef957600080fd5b600e54604051600160a060020a0390911690303180156108fc02916000818181858888f19350505050158015612f33573d6000803e3d6000fd5b50565b600160a060020a038216331415612f4c57600080fd5b336000818152600460209081526040808320600160a060020a03871680855290835292819020805460ff1916861515908117909155815190815290519293927f17307eab39ab6107e8899845ad3d59bd9653f200f220920489ca2b5937696c31929181900390910190a35050565b60105481565b60005b81518110156117215761300d612fef8383815181101515612fe057fe5b90602001906020020151611ff4565b848484815181101515612ffe57fe5b90602001906020020151611c95565b600101612fc3565b600c54600090600160a060020a03163314806130375750613037336001612b60565b151561304257600080fd5b612ec58c8c8c8c8c8c8c8c8c8b600161419f565b600c54600090819081908190600160a060020a031633148061307e575061307e336001612b60565b151561308957600080fd5b6000868152601660205260408120548791106130dd576040805160e560020a62461bcd0281526020600482015260166024820152600080516020614fb0833981519152604482015290519081900360640190fd5b6000878152601660209081526040808320601b8352818420546005820154600160a060020a03168552601a90935292208054929750909550935083908590811061312357fe5b60009182526020808320909101829055600160a060020a03909716808252601a88526040808320805460018101825590845289842081018b9055998352601b909852969020969096555050506005018054600160a060020a031916909117905550565b6000806000606060008060008761319c81611e7d565b15156131f2576040805160e560020a62461bcd02815260206004820152601760248201527f546f6b656e20494420646f6573206e6f74206578697374000000000000000000604482015290519081900360640190fd5b600089815260176020908152604080832054808452601690925290912060028101546001820154929550909350849161322a8c613487565b6132338d611ff4565b939d929c50909a509850909650945050505050565b6000908152601660205260409020600a015490565b61326884848461174c565b6132748484848461473a565b15156115a357600080fd5b600081815260176020526040812054819061329981612018565b9250925050915091565b60009081526016602052604090206009015460ff1690565b6000818152601660205260408120600a810154600b8201546114d69163ffffffff6148a716565b600c546000908190600160a060020a03163314806133065750613306336001612b60565b151561331157600080fd5b600084815260166020526040812054859110613365576040805160e560020a62461bcd0281526020600482015260166024820152600080516020614fb0833981519152604482015290519081900360640190fd5b6000858152601660205260409020600a81015490935084101561341e576040805160e560020a62461bcd02815260206004820152604560248201527f556e61626c6520746f2072656475636520617661696c61626c6520616d6f756e60448201527f7420746f207468652062656c6f7720746865206e756d62657220746f74616c5360648201527f7570706c79000000000000000000000000000000000000000000000000000000608482015290519081900360a40190fd5b600b8301805490859055601354909250613450908590613444908563ffffffff6148a716565b9063ffffffff61403e16565b6013555050505050565b600181565b60008082151561347257600091506114d9565b50506000818152601660205260409020541490565b60608161349381611e7d565b15156134e9576040805160e560020a62461bcd02815260206004820152601760248201527f546f6b656e20494420646f6573206e6f74206578697374000000000000000000604482015290519081900360640190fd5b600f8054604080516020601f600260001961010060018816150201909516949094049384018190048102820181019092528281526114d693909290918301828280156135765780601f1061354b57610100808354040283529160200191613576565b820191906000526020600020905b81548152906001019060200180831161355957829003601f168201915b5050506000878152600b60209081526040918290208054835160026001831615610100026000190190921691909104601f810184900484028201840190945283815294509250830182828015611a2a5780601f106119ff57610100808354040283529160200191611a2a565b600c54600090819081908190600160a060020a031633148061360a575061360a336001612b60565b151561361557600080fd5b600086815260166020526040812054879110613669576040805160e560020a62461bcd0281526020600482015260166024820152600080516020614fb0833981519152604482015290519081900360640190fd5b600087815260166020908152604080832060028101548452601c83528184208b8552601d909352922054815492975090955093508490849081106136a957fe5b60009182526020808320909101829055878252601c81526040808320805460018101825590845282842081018b9055998352601d9091529020969096555050506002015550565b600090815260156020526040902080546001909101549091600160a060020a0390911690565b600c54600160a060020a03163314806137355750613735336001612b60565b151561374057600080fd5b600082815260166020526040812054839110613794576040805160e560020a62461bcd0281526020600482015260166024820152600080516020614fb0833981519152604482015290519081900360640190fd5b5060009182526016602052604090912060040155565b600c54600090600160a060020a03163314806137cc57506137cc336001612b60565b15156137d757600080fd5b612b3d8b8b8b8b8b8b8b8b8b8b600061419f565b6000818152601c6020908152604091829020805483518184028101840190945280845260609392830182828015611fd85760200282019190600052602060002090815481526020019060010190808311611fc45750505050509050919050565b600160a060020a03918216600090815260046020908152604080832093909416825291909152205460ff1690565b600061183d3383612733565b60125481565b600e54600160a060020a031633146138a257600080fd5b612f33816148b9565b60005b81518110156115a3576138d9848484848151811015156138ca57fe5b9060200190602002015161174c565b6001016138ae565b600c54600160a060020a03163314806139005750613900336001612b60565b151561390b57600080fd5b60008281526016602052604081205483911061395f576040805160e560020a62461bcd0281526020600482015260166024820152600080516020614fb0833981519152604482015290519081900360640190fd5b81613969846123f3565b511115613a0c576040805160e560020a62461bcd02815260206004820152604c60248201527f43616e206e6f74206c6f77657220746f74616c537570706c7920746f2062656c60448201527f6f7720746865206e756d626572206f6620746f6b656e7320616c72656164792060648201527f696e206578697374656e63650000000000000000000000000000000000000000608482015290519081900360a40190fd5b50600091825260166020526040909120600a0155565b600f805460408051602060026001851615610100026000190190941693909304601f810184900484028201840190925281815260609361183d9391929091830182828015613ab15780601f10613a8657610100808354040283529160200191613ab1565b820191906000526020600020905b815481529060010190602001808311613a9457829003601f168201915b5050506000868152600b60209081526040918290208054835160026001831615610100026000190190921691909104601f810184900484028201840190945283815294509250830182828015611a2a5780601f106119ff57610100808354040283529160200191611a2a565b613b2682611e7d565b1515613b3157600080fd5b6000828152600b60209081526040909120825161172192840190614ec3565b613b5a82826146f9565b151561174857600080fd5b600080613b7183611ff4565b905080600160a060020a031684600160a060020a03161480613bac575083600160a060020a0316613ba1846113fa565b600160a060020a0316145b80613bbc5750613bbc818561384b565b949350505050565b81600160a060020a0316613bd782611ff4565b600160a060020a031614613bea57600080fd5b600081815260026020526040902054600160a060020a0316156117485760009081526002602052604090208054600160a060020a031916905550565b6000806000613c35858561492a565b600084815260086020908152604080832054600160a060020a0389168452600790925290912054909350613c7090600163ffffffff6148a716565b600160a060020a038616600090815260076020526040902080549193509083908110613c9857fe5b90600052602060002001549050806007600087600160a060020a0316600160a060020a0316815260200190815260200160002084815481101515613cd857fe5b6000918252602080832090910192909255600160a060020a0387168152600790915260409020805490613d0f906000198301614f31565b50600093845260086020526040808520859055908452909220555050565b6000613d3983836149b3565b50600160a060020a039091166000908152600760209081526040808320805460018101825590845282842081018590559383526008909152902055565b604080516020818101835260008083528351808301855281815284519283019094528152606092612b82928692869290614a36565b6000818152601660205260408120600a810154613dcf90600163ffffffff61403e16565b600a820181905581546114d69163ffffffff61403e16565b6000613df38585614c97565b613dfd8483613b1d565b506000838152601760209081526040808320859055848352601882528083208054600180820183559185528385208101889055878552601990935292208190556012549091613e52919063ffffffff61403e16565b601255604051600160a060020a03861690849086907f259eb7b480b3d449f506927269e4665c83c69e4cd797143eaa8f84632dc7a02b90600090a45050505050565b6000806000613ea38585614ce6565b6000848152600b60205260409020546002600019610100600184161502019091160415613ee1576000848152600b60205260408120613ee191614f55565b6000848152600a6020526040902054600954909350613f0790600163ffffffff6148a716565b9150600982815481101515613f1857fe5b9060005260206000200154905080600984815481101515613f3557fe5b60009182526020822001919091556009805484908110613f5157fe5b6000918252602090912001556009805490613f70906000198301614f31565b506000938452600a6020526040808520859055908452909220555050565b600160a060020a0316600090815260209190915260409020805460ff19166001179055565b600081815260166020526040812080548290613fd690600163ffffffff61403e16565b90505b613fe281611e7d565b15613fff57613ff881600163ffffffff61403e16565b9050613fd9565b600a82015482546140159163ffffffff61403e16565b811115612b8257600a82015461403290600163ffffffff61403e16565b600a8301559392505050565b8181018281101561183d57fe5b60008080806140718561406589606463ffffffff614d3616565b9063ffffffff614d4b16565b935060008411156140b457604051600160a060020a0387169085156108fc029086906000818181858888f193505050501580156140b2573d6000803e3d6000fd5b505b6000888152601560205260408120805490945011156141235782546140e49061406589606463ffffffff614d3616565b6001840154604051919350600160a060020a03169083156108fc029084906000818181858888f19350505050158015614121573d6000803e3d6000fd5b505b61414382614137348763ffffffff6148a716565b9063ffffffff6148a716565b601454604051919250600160a060020a03169082156108fc029083906000818181858888f1935050505015801561417e573d6000803e3d6000fd5b50601154614192903463ffffffff61403e16565b6011555050505050505050565b6000808c15156141f9576040805160e560020a62461bcd02815260206004820152601b60248201527f45646974696f6e206e756d626572206e6f742070726f76696465640000000000604482015290519081900360640190fd5b6010548d11614278576040805160e560020a62461bcd02815260206004820152603360248201527f45646974696f6e206e756d626572206d7573742062652067726561746572207460448201527f68616e2070726576696f75736c79207573656400000000000000000000000000606482015290519081900360840190fd5b6010546000818152601660205260409020600b01548e9161429e9163ffffffff61403e16565b1061433f576040805160e560020a62461bcd02815260206004820152604860248201527f45646974696f6e206e756d626572206d7573742062652067726561746572207460448201527f68616e2070726576696f75736c79207573656420706c757320746f74616c206160648201527f7661696c61626c65000000000000000000000000000000000000000000000000608482015290519081900360a40190fd5b8a1515614396576040805160e560020a62461bcd02815260206004820152601960248201527f45646974696f6e2074797065206e6f742070726f766964656400000000000000604482015290519081900360640190fd5b845115156143ee576040805160e560020a62461bcd02815260206004820152601460248201527f546f6b656e20555249206973206d697373696e67000000000000000000000000604482015290519081900360640190fd5b600160a060020a038816151561444e576040805160e560020a62461bcd02815260206004820152601b60248201527f417274697374206163636f756e74206e6f742070726f76696465640000000000604482015290519081900360640190fd5b60648711158015614460575060008710155b15156144dc576040805160e560020a62461bcd02815260206004820152603b60248201527f41727469737420636f6d6d697373696f6e2063616e6e6f74206265206772656160448201527f746572207468616e20313030206f72206c657373207468616e20300000000000606482015290519081900360840190fd5b60008d81526016602052604090205415614540576040805160e560020a62461bcd02815260206004820152601c60248201527f45646974696f6e20616c726561647920696e206578697374656e636500000000604482015290519081900360640190fd5b5087801515614550575063ffffffff5b610180604051908101604052808e81526020018d6000191681526020018c81526020018b815260200182815260200189600160a060020a0316815260200188815260200187815260200186815260200184151581526020016000815260200185815250601660008f8152602001908152602001600020600082015181600001556020820151816001019060001916905560408201518160020155606082015181600301556080820151816004015560a08201518160050160006101000a815481600160a060020a030219169083600160a060020a0316021790555060c0820151816006015560e0820151816007015561010082015181600801908051906020019061465c929190614ec3565b5061012082015160098201805460ff1916911515919091179055610140820151600a82015561016090910151600b9091015560135461469b908561403e565b6013556146a8888e614d74565b6146b28b8e614db0565b6040518b908d908f907ff702f09ce66e1a7f60e909cfb5b6400ce4967f4fd691158bd96066cb89c5c07890600090a450505060109990995550600198975050505050505050565b600160a060020a03166000908152602091909152604090205460ff1690565b600160a060020a0316600090815260209190915260409020805460ff19169055565b60008061474f85600160a060020a0316614de2565b151561475e576001915061489e565b6040517f150b7a020000000000000000000000000000000000000000000000000000000081523360048201818152600160a060020a03898116602485015260448401889052608060648501908152875160848601528751918a169463150b7a0294938c938b938b93909160a490910190602085019080838360005b838110156147f15781810151838201526020016147d9565b50505050905090810190601f16801561481e5780820380516001836020036101000a031916815260200191505b5095505050505050602060405180830381600087803b15801561484057600080fd5b505af1158015614854573d6000803e3d6000fd5b505050506040513d602081101561486a57600080fd5b5051600160e060020a031981167f150b7a020000000000000000000000000000000000000000000000000000000014925090505b50949350505050565b6000828211156148b357fe5b50900390565b600160a060020a03811615156148ce57600080fd5b600e54604051600160a060020a038084169216907f8be0079c531659141344cd1fd0a4f28419497f9722a3daafe3b4186f6b6457e090600090a3600e8054600160a060020a031916600160a060020a0392909216919091179055565b81600160a060020a031661493d82611ff4565b600160a060020a03161461495057600080fd5b600160a060020a03821660009081526003602052604090205461497a90600163ffffffff6148a716565b600160a060020a039092166000908152600360209081526040808320949094559181526001909152208054600160a060020a0319169055565b600081815260016020526040902054600160a060020a0316156149d557600080fd5b60008181526001602081815260408084208054600160a060020a031916600160a060020a0388169081179091558452600390915290912054614a169161403e565b600160a060020a0390921660009081526003602052604090209190915550565b6060806060806060806060806000808e98508d97508c96508b95508a94508451865188518a518c51010101016040519080825280601f01601f191660200182016040528015614a8f578160200160208202803883390190505b50935083925060009150600090505b8851811015614afc578881815181101515614ab557fe5b90602001015160f860020a900460f860020a028383806001019450815181101515614adc57fe5b906020010190600160f860020a031916908160001a905350600101614a9e565b5060005b8751811015614b5e578781815181101515614b1757fe5b90602001015160f860020a900460f860020a028383806001019450815181101515614b3e57fe5b906020010190600160f860020a031916908160001a905350600101614b00565b5060005b8651811015614bc0578681815181101515614b7957fe5b90602001015160f860020a900460f860020a028383806001019450815181101515614ba057fe5b906020010190600160f860020a031916908160001a905350600101614b62565b5060005b8551811015614c22578581815181101515614bdb57fe5b90602001015160f860020a900460f860020a028383806001019450815181101515614c0257fe5b906020010190600160f860020a031916908160001a905350600101614bc4565b5060005b8451811015614c84578481815181101515614c3d57fe5b90602001015160f860020a900460f860020a028383806001019450815181101515614c6457fe5b906020010190600160f860020a031916908160001a905350600101614c26565b50909d9c50505050505050505050505050565b614ca18282614dea565b600980546000838152600a60205260408120829055600182018355919091527f6e1540171b6c0c960b71a7020d9f60077f6af931a8bbf590da0223dacf75c7af015550565b614cf08282613bc4565b614cfa8282613c26565b6040518190600090600160a060020a038516907fddf252ad1be2c89b69c2b068fc378daa952ba7f163c4a11628f55a4df523b3ef908390a45050565b60008183811515614d4357fe5b049392505050565b6000821515614d5c5750600061183d565b50818102818382811515614d6c57fe5b041461183d57fe5b600160a060020a039091166000908152601a6020908152604080832080546001810182559084528284208101859055938352601b909152902055565b6000918252601c6020908152604080842080546001810182559085528285208101849055928452601d90915290912055565b6000903b1190565b600160a060020a0382161515614dff57600080fd5b614e098282613d2d565b6040518190600160a060020a038416906000907fddf252ad1be2c89b69c2b068fc378daa952ba7f163c4a11628f55a4df523b3ef908290a45050565b828054600181600116156101000203166002900490600052602060002090601f016020900481019282601f10614e865782800160ff19823516178555614eb3565b82800160010185558215614eb3579182015b82811115614eb3578235825591602001919060010190614e98565b50614ebf929150614f95565b5090565b828054600181600116156101000203166002900490600052602060002090601f016020900481019282601f10614f0457805160ff1916838001178555614eb3565b82800160010185558215614eb3579182015b82811115614eb3578251825591602001919060010190614f16565b81548183558181111561172157600083815260209020611721918101908301614f95565b50805460018160011615610100020316600290046000825580601f10614f7b5750612f33565b601f016020900490600052602060002090810190612f3391905b6113f791905b80821115614ebf5760008155600101614f9b560045646974696f6e206e756d62657220696e76616c696400000000000000000000a165627a7a723058206088d904b10811a56c6550020c569f9766aa92fd00afa85b5de882e4cdb465ce0029",
			"opcodes": "PUSH1 0xE DUP1 SLOAD PUSH1 0xA0 PUSH1 0x2 EXP PUSH1 0xFF MUL NOT AND SWAP1 SSTORE PUSH1 0xC0 PUSH1 0x40 MSTORE PUSH1 0x1C PUSH1 0x80 DUP2 SWAP1 MSTORE PUSH32 0x68747470733A2F2F697066732E696E667572612E696F2F697066732F00000000 PUSH1 0xA0 SWAP1 DUP2 MSTORE PUSH3 0x50 SWAP2 PUSH1 0xF SWAP2 SWAP1 PUSH3 0x29F JUMP JUMPDEST POP PUSH1 0x40 DUP1 MLOAD DUP1 DUP3 ADD DUP3 MSTORE PUSH1 0x17 DUP2 MSTORE PUSH32 0x4B6E6F776E4F726967696E4469676974616C4173736574000000000000000000 PUSH1 0x20 DUP1 DUP4 ADD SWAP2 SWAP1 SWAP2 MSTORE DUP3 MLOAD DUP1 DUP5 ADD SWAP1 SWAP4 MSTORE PUSH1 0x4 DUP4 MSTORE PUSH32 0x4B4F444100000000000000000000000000000000000000000000000000000000 SWAP1 DUP4 ADD MSTORE SWAP1 PUSH3 0xEE PUSH32 0x1FFC9A700000000000000000000000000000000000000000000000000000000 PUSH5 0x100000000 PUSH3 0x232 DUP2 MUL DIV JUMP JUMPDEST PUSH3 0x122 PUSH32 0x80AC58CD00000000000000000000000000000000000000000000000000000000 PUSH5 0x100000000 PUSH3 0x232 DUP2 MUL DIV JUMP JUMPDEST PUSH3 0x156 PUSH32 0x4F558E7900000000000000000000000000000000000000000000000000000000 PUSH5 0x100000000 PUSH3 0x232 DUP2 MUL DIV JUMP JUMPDEST DUP2 MLOAD PUSH3 0x16B SWAP1 PUSH1 0x5 SWAP1 PUSH1 0x20 DUP6 ADD SWAP1 PUSH3 0x29F JUMP JUMPDEST POP DUP1 MLOAD PUSH3 0x181 SWAP1 PUSH1 0x6 SWAP1 PUSH1 0x20 DUP5 ADD SWAP1 PUSH3 0x29F JUMP JUMPDEST POP PUSH3 0x1B6 PUSH32 0x780E9D6300000000000000000000000000000000000000000000000000000000 PUSH5 0x100000000 PUSH3 0x232 DUP2 MUL DIV JUMP JUMPDEST PUSH3 0x1EA PUSH32 0x5B5E139F00000000000000000000000000000000000000000000000000000000 PUSH5 0x100000000 PUSH3 0x232 DUP2 MUL DIV JUMP JUMPDEST POP POP PUSH1 0xC DUP1 SLOAD CALLER PUSH1 0x1 PUSH1 0xA0 PUSH1 0x2 EXP SUB NOT SWAP2 DUP3 AND DUP2 OR SWAP1 SWAP3 SSTORE PUSH1 0xE DUP1 SLOAD SWAP1 SWAP2 AND SWAP1 SWAP2 OR SWAP1 SSTORE CALLVALUE ISZERO PUSH3 0x21A JUMPI PUSH1 0x0 DUP1 REVERT JUMPDEST PUSH1 0x14 DUP1 SLOAD PUSH1 0x1 PUSH1 0xA0 PUSH1 0x2 EXP SUB NOT AND CALLER OR SWAP1 SSTORE PUSH3 0x344 JUMP JUMPDEST PUSH32 0xFFFFFFFF00000000000000000000000000000000000000000000000000000000 DUP1 DUP3 AND EQ ISZERO PUSH3 0x262 JUMPI PUSH1 0x0 DUP1 REVERT JUMPDEST PUSH32 0xFFFFFFFF00000000000000000000000000000000000000000000000000000000 AND PUSH1 0x0 SWAP1 DUP2 MSTORE PUSH1 0x20 DUP2 SWAP1 MSTORE PUSH1 0x40 SWAP1 KECCAK256 DUP1 SLOAD PUSH1 0xFF NOT AND PUSH1 0x1 OR SWAP1 SSTORE JUMP JUMPDEST DUP3 DUP1 SLOAD PUSH1 0x1 DUP2 PUSH1 0x1 AND ISZERO PUSH2 0x100 MUL SUB AND PUSH1 0x2 SWAP1 DIV SWAP1 PUSH1 0x0 MSTORE PUSH1 0x20 PUSH1 0x0 KECCAK256 SWAP1 PUSH1 0x1F ADD PUSH1 0x20 SWAP1 DIV DUP2 ADD SWAP3 DUP3 PUSH1 0x1F LT PUSH3 0x2E2 JUMPI DUP1 MLOAD PUSH1 0xFF NOT AND DUP4 DUP1 ADD OR DUP6 SSTORE PUSH3 0x312 JUMP JUMPDEST DUP3 DUP1 ADD PUSH1 0x1 ADD DUP6 SSTORE DUP3 ISZERO PUSH3 0x312 JUMPI SWAP2 DUP3 ADD JUMPDEST DUP3 DUP2 GT ISZERO PUSH3 0x312 JUMPI DUP3 MLOAD DUP3 SSTORE SWAP2 PUSH1 0x20 ADD SWAP2 SWAP1 PUSH1 0x1 ADD SWAP1 PUSH3 0x2F5 JUMP JUMPDEST POP PUSH3 0x320 SWAP3 SWAP2 POP PUSH3 0x324 JUMP JUMPDEST POP SWAP1 JUMP JUMPDEST PUSH3 0x341 SWAP2 SWAP1 JUMPDEST DUP1 DUP3 GT ISZERO PUSH3 0x320 JUMPI PUSH1 0x0 DUP2 SSTORE PUSH1 0x1 ADD PUSH3 0x32B JUMP JUMPDEST SWAP1 JUMP JUMPDEST PUSH2 0x4FFB DUP1 PUSH3 0x354 PUSH1 0x0 CODECOPY PUSH1 0x0 RETURN STOP PUSH1 0x80 PUSH1 0x40 MSTORE PUSH1 0x4 CALLDATASIZE LT PUSH2 0x3DC JUMPI PUSH4 0xFFFFFFFF PUSH29 0x100000000000000000000000000000000000000000000000000000000 PUSH1 0x0 CALLDATALOAD DIV AND PUSH4 0x1FFC9A7 DUP2 EQ PUSH2 0x3EB JUMPI DUP1 PUSH4 0x4BB1E3D EQ PUSH2 0x421 JUMPI DUP1 PUSH4 0x6FDDE03 EQ PUSH2 0x440 JUMPI DUP1 PUSH4 0x81812FC EQ PUSH2 0x4CA JUMPI DUP1 PUSH4 0x95EA7B3 EQ PUSH2 0x4FE JUMPI DUP1 PUSH4 0x15347380 EQ PUSH2 0x522 JUMPI DUP1 PUSH4 0x162094C4 EQ PUSH2 0x54C JUMPI DUP1 PUSH4 0x18160DDD EQ PUSH2 0x570 JUMPI DUP1 PUSH4 0x187D8803 EQ PUSH2 0x585 JUMPI DUP1 PUSH4 0x19FA8F50 EQ PUSH2 0x5A6 JUMPI DUP1 PUSH4 0x213D6771 EQ PUSH2 0x5D8 JUMPI DUP1 PUSH4 0x2295EE5B EQ PUSH2 0x5F0 JUMPI DUP1 PUSH4 0x23A3AD72 EQ PUSH2 0x610 JUMPI DUP1 PUSH4 0x23B872DD EQ PUSH2 0x637 JUMPI DUP1 PUSH4 0x2BBD84E8 EQ PUSH2 0x661 JUMPI DUP1 PUSH4 0x2F745C59 EQ PUSH2 0x676 JUMPI DUP1 PUSH4 0x328A2C2D EQ PUSH2 0x69A JUMPI DUP1 PUSH4 0x32FD8478 EQ PUSH2 0x6B5 JUMPI DUP1 PUSH4 0x385DF389 EQ PUSH2 0x6F0 JUMPI DUP1 PUSH4 0x3F4BA83A EQ PUSH2 0x708 JUMPI DUP1 PUSH4 0x40C10F19 EQ PUSH2 0x71D JUMPI DUP1 PUSH4 0x42842E0E EQ PUSH2 0x741 JUMPI DUP1 PUSH4 0x42966C68 EQ PUSH2 0x76B JUMPI DUP1 PUSH4 0x42C7EA5F EQ PUSH2 0x783 JUMPI DUP1 PUSH4 0x43923258 EQ PUSH2 0x798 JUMPI DUP1 PUSH4 0x43BF63E8 EQ PUSH2 0x7BF JUMPI DUP1 PUSH4 0x4E99B800 EQ PUSH2 0x7D7 JUMPI DUP1 PUSH4 0x4F558E79 EQ PUSH2 0x7EC JUMPI DUP1 PUSH4 0x4F6CCCE7 EQ PUSH2 0x804 JUMPI DUP1 PUSH4 0x5091F881 EQ PUSH2 0x81C JUMPI DUP1 PUSH4 0x593AF56A EQ PUSH2 0x837 JUMPI DUP1 PUSH4 0x5A3F2672 EQ PUSH2 0x84F JUMPI DUP1 PUSH4 0x5C975ABB EQ PUSH2 0x8C0 JUMPI DUP1 PUSH4 0x6352211E EQ PUSH2 0x8D5 JUMPI DUP1 PUSH4 0x652EDD41 EQ PUSH2 0x8ED JUMPI DUP1 PUSH4 0x6641179E EQ PUSH2 0x91E JUMPI DUP1 PUSH4 0x6A028692 EQ PUSH2 0x93F JUMPI DUP1 PUSH4 0x6E93DBDC EQ PUSH2 0x957 JUMPI DUP1 PUSH4 0x70A08231 EQ PUSH2 0x96C JUMPI DUP1 PUSH4 0x715018A6 EQ PUSH2 0x98D JUMPI DUP1 PUSH4 0x71C847B2 EQ PUSH2 0x9A2 JUMPI DUP1 PUSH4 0x75DCB70A EQ PUSH2 0xA96 JUMPI DUP1 PUSH4 0x7A85C02A EQ PUSH2 0xABA JUMPI DUP1 PUSH4 0x7D55758F EQ PUSH2 0xAD2 JUMPI DUP1 PUSH4 0x7EB9F04A EQ PUSH2 0xAF6 JUMPI DUP1 PUSH4 0x824EEC3B EQ PUSH2 0xB11 JUMPI DUP1 PUSH4 0x8456CB59 EQ PUSH2 0xB29 JUMPI DUP1 PUSH4 0x891407C0 EQ PUSH2 0xB3E JUMPI DUP1 PUSH4 0x8BBB594A EQ PUSH2 0xB55 JUMPI DUP1 PUSH4 0x8DA5CB5B EQ PUSH2 0xBDA JUMPI DUP1 PUSH4 0x92AFC33A EQ PUSH2 0xBEF JUMPI DUP1 PUSH4 0x95A8C58D EQ PUSH2 0xC1A JUMPI DUP1 PUSH4 0x95D89B41 EQ PUSH2 0xC41 JUMPI DUP1 PUSH4 0x975347B8 EQ PUSH2 0xC56 JUMPI DUP1 PUSH4 0x97E851F6 EQ PUSH2 0xC7D JUMPI DUP1 PUSH4 0x985989D2 EQ PUSH2 0xCA4 JUMPI DUP1 PUSH4 0x9CD77457 EQ PUSH2 0xCB9 JUMPI DUP1 PUSH4 0x9F727C27 EQ PUSH2 0xD45 JUMPI DUP1 PUSH4 0xA22CB465 EQ PUSH2 0xD5A JUMPI DUP1 PUSH4 0xABF3260F EQ PUSH2 0xD80 JUMPI DUP1 PUSH4 0xAC3C9952 EQ PUSH2 0xD95 JUMPI DUP1 PUSH4 0xAE8A8690 EQ PUSH2 0xDF8 JUMPI DUP1 PUSH4 0xAFA7A25F EQ PUSH2 0xE84 JUMPI DUP1 PUSH4 0xB4B5B48F EQ PUSH2 0xEA8 JUMPI DUP1 PUSH4 0xB6F4DF34 EQ PUSH2 0xF61 JUMPI DUP1 PUSH4 0xB88D4FDE EQ PUSH2 0xF79 JUMPI DUP1 PUSH4 0xB8F6C219 EQ PUSH2 0xFE8 JUMPI DUP1 PUSH4 0xBBD1E1FC EQ PUSH2 0x1000 JUMPI DUP1 PUSH4 0xBC02844C EQ PUSH2 0x1018 JUMPI DUP1 PUSH4 0xBDCDC0BC EQ PUSH2 0x1030 JUMPI DUP1 PUSH4 0xBE46B94C EQ PUSH2 0x104B JUMPI DUP1 PUSH4 0xC2B2FB5E EQ PUSH2 0x1060 JUMPI DUP1 PUSH4 0xC87B56DD EQ PUSH2 0x1078 JUMPI DUP1 PUSH4 0xD4F3D6B8 EQ PUSH2 0x1090 JUMPI DUP1 PUSH4 0xDE56A245 EQ PUSH2 0x10AB JUMPI DUP1 PUSH4 0xE6232BA1 EQ PUSH2 0x10E4 JUMPI DUP1 PUSH4 0xE65D19CA EQ PUSH2 0x10FF JUMPI DUP1 PUSH4 0xE7B8D977 EQ PUSH2 0x1184 JUMPI DUP1 PUSH4 0xE985E9C5 EQ PUSH2 0x119C JUMPI DUP1 PUSH4 0xEFEF39A1 EQ PUSH2 0x11C3 JUMPI DUP1 PUSH4 0xF1FF3D4B EQ PUSH2 0x11CE JUMPI DUP1 PUSH4 0xF2FDE38B EQ PUSH2 0x11E3 JUMPI DUP1 PUSH4 0xF3993D11 EQ PUSH2 0x1204 JUMPI DUP1 PUSH4 0xF8B4AB7A EQ PUSH2 0x126F JUMPI DUP1 PUSH4 0xFEE7E35D EQ PUSH2 0x128A JUMPI JUMPDEST CALLVALUE DUP1 ISZERO PUSH2 0x3E8 JUMPI PUSH1 0x0 DUP1 REVERT JUMPDEST POP STOP JUMPDEST CALLVALUE DUP1 ISZERO PUSH2 0x3F7 JUMPI PUSH1 0x0 DUP1 REVERT JUMPDEST POP PUSH2 0x40D PUSH1 0x1 PUSH1 0xE0 PUSH1 0x2 EXP SUB NOT PUSH1 0x4 CALLDATALOAD AND PUSH2 0x12A2 JUMP JUMPDEST PUSH1 0x40 DUP1 MLOAD SWAP2 ISZERO ISZERO DUP3 MSTORE MLOAD SWAP1 DUP2 SWAP1 SUB PUSH1 0x20 ADD SWAP1 RETURN JUMPDEST CALLVALUE DUP1 ISZERO PUSH2 0x42D JUMPI PUSH1 0x0 DUP1 REVERT JUMPDEST POP PUSH2 0x43E PUSH1 0x4 CALLDATALOAD PUSH1 0x24 CALLDATALOAD ISZERO ISZERO PUSH2 0x12C1 JUMP JUMPDEST STOP JUMPDEST CALLVALUE DUP1 ISZERO PUSH2 0x44C JUMPI PUSH1 0x0 DUP1 REVERT JUMPDEST POP PUSH2 0x455 PUSH2 0x1363 JUMP JUMPDEST PUSH1 0x40 DUP1 MLOAD PUSH1 0x20 DUP1 DUP3 MSTORE DUP4 MLOAD DUP2 DUP4 ADD MSTORE DUP4 MLOAD SWAP2 SWAP3 DUP4 SWAP3 SWAP1 DUP4 ADD SWAP2 DUP6 ADD SWAP1 DUP1 DUP4 DUP4 PUSH1 0x0 JUMPDEST DUP4 DUP2 LT ISZERO PUSH2 0x48F JUMPI DUP2 DUP2 ADD MLOAD DUP4 DUP3 ADD MSTORE PUSH1 0x20 ADD PUSH2 0x477 JUMP JUMPDEST POP POP POP POP SWAP1 POP SWAP1 DUP2 ADD SWAP1 PUSH1 0x1F AND DUP1 ISZERO PUSH2 0x4BC JUMPI DUP1 DUP3 SUB DUP1 MLOAD PUSH1 0x1 DUP4 PUSH1 0x20 SUB PUSH2 0x100 EXP SUB NOT AND DUP2 MSTORE PUSH1 0x20 ADD SWAP2 POP JUMPDEST POP SWAP3 POP POP POP PUSH1 0x40 MLOAD DUP1 SWAP2 SUB SWAP1 RETURN JUMPDEST CALLVALUE DUP1 ISZERO PUSH2 0x4D6 JUMPI PUSH1 0x0 DUP1 REVERT JUMPDEST POP PUSH2 0x4E2 PUSH1 0x4 CALLDATALOAD PUSH2 0x13FA JUMP JUMPDEST PUSH1 0x40 DUP1 MLOAD PUSH1 0x1 PUSH1 0xA0 PUSH1 0x2 EXP SUB SWAP1 SWAP3 AND DUP3 MSTORE MLOAD SWAP1 DUP2 SWAP1 SUB PUSH1 0x20 ADD SWAP1 RETURN JUMPDEST CALLVALUE DUP1 ISZERO PUSH2 0x50A JUMPI PUSH1 0x0 DUP1 REVERT JUMPDEST POP PUSH2 0x43E PUSH1 0x1 PUSH1 0xA0 PUSH1 0x2 EXP SUB PUSH1 0x4 CALLDATALOAD AND PUSH1 0x24 CALLDATALOAD PUSH2 0x1415 JUMP JUMPDEST CALLVALUE DUP1 ISZERO PUSH2 0x52E JUMPI PUSH1 0x0 DUP1 REVERT JUMPDEST POP PUSH2 0x53A PUSH1 0x4 CALLDATALOAD PUSH2 0x14BE JUMP JUMPDEST PUSH1 0x40 DUP1 MLOAD SWAP2 DUP3 MSTORE MLOAD SWAP1 DUP2 SWAP1 SUB PUSH1 0x20 ADD SWAP1 RETURN JUMPDEST CALLVALUE DUP1 ISZERO PUSH2 0x558 JUMPI PUSH1 0x0 DUP1 REVERT JUMPDEST POP PUSH2 0x43E PUSH1 0x4 DUP1 CALLDATALOAD SWAP1 PUSH1 0x24 DUP1 CALLDATALOAD SWAP1 DUP2 ADD SWAP2 ADD CALLDATALOAD PUSH2 0x14DF JUMP JUMPDEST CALLVALUE DUP1 ISZERO PUSH2 0x57C JUMPI PUSH1 0x0 DUP1 REVERT JUMPDEST POP PUSH2 0x53A PUSH2 0x15A9 JUMP JUMPDEST CALLVALUE DUP1 ISZERO PUSH2 0x591 JUMPI PUSH1 0x0 DUP1 REVERT JUMPDEST POP PUSH2 0x43E PUSH1 0x1 PUSH1 0xA0 PUSH1 0x2 EXP SUB PUSH1 0x4 CALLDATALOAD AND PUSH2 0x15AF JUMP JUMPDEST CALLVALUE DUP1 ISZERO PUSH2 0x5B2 JUMPI PUSH1 0x0 DUP1 REVERT JUMPDEST POP PUSH2 0x5BB PUSH2 0x165B JUMP JUMPDEST PUSH1 0x40 DUP1 MLOAD PUSH1 0x1 PUSH1 0xE0 PUSH1 0x2 EXP SUB NOT SWAP1 SWAP3 AND DUP3 MSTORE MLOAD SWAP1 DUP2 SWAP1 SUB PUSH1 0x20 ADD SWAP1 RETURN JUMPDEST CALLVALUE DUP1 ISZERO PUSH2 0x5E4 JUMPI PUSH1 0x0 DUP1 REVERT JUMPDEST POP PUSH2 0x53A PUSH1 0x4 CALLDATALOAD PUSH2 0x167F JUMP JUMPDEST CALLVALUE DUP1 ISZERO PUSH2 0x5FC JUMPI PUSH1 0x0 DUP1 REVERT JUMPDEST POP PUSH2 0x43E PUSH1 0x4 DUP1 CALLDATALOAD PUSH1 0x24 DUP2 ADD SWAP2 ADD CALLDATALOAD PUSH2 0x1694 JUMP JUMPDEST CALLVALUE DUP1 ISZERO PUSH2 0x61C JUMPI PUSH1 0x0 DUP1 REVERT JUMPDEST POP PUSH2 0x43E PUSH1 0x1 PUSH1 0xA0 PUSH1 0x2 EXP SUB PUSH1 0x4 CALLDATALOAD AND PUSH1 0xFF PUSH1 0x24 CALLDATALOAD AND PUSH2 0x1726 JUMP JUMPDEST CALLVALUE DUP1 ISZERO PUSH2 0x643 JUMPI PUSH1 0x0 DUP1 REVERT JUMPDEST POP PUSH2 0x43E PUSH1 0x1 PUSH1 0xA0 PUSH1 0x2 EXP SUB PUSH1 0x4 CALLDATALOAD DUP2 AND SWAP1 PUSH1 0x24 CALLDATALOAD AND PUSH1 0x44 CALLDATALOAD PUSH2 0x174C JUMP JUMPDEST CALLVALUE DUP1 ISZERO PUSH2 0x66D JUMPI PUSH1 0x0 DUP1 REVERT JUMPDEST POP PUSH2 0x53A PUSH2 0x17EF JUMP JUMPDEST CALLVALUE DUP1 ISZERO PUSH2 0x682 JUMPI PUSH1 0x0 DUP1 REVERT JUMPDEST POP PUSH2 0x53A PUSH1 0x1 PUSH1 0xA0 PUSH1 0x2 EXP SUB PUSH1 0x4 CALLDATALOAD AND PUSH1 0x24 CALLDATALOAD PUSH2 0x17F5 JUMP JUMPDEST CALLVALUE DUP1 ISZERO PUSH2 0x6A6 JUMPI PUSH1 0x0 DUP1 REVERT JUMPDEST POP PUSH2 0x43E PUSH1 0x4 CALLDATALOAD PUSH1 0x24 CALLDATALOAD PUSH2 0x1843 JUMP JUMPDEST CALLVALUE DUP1 ISZERO PUSH2 0x6C1 JUMPI PUSH1 0x0 DUP1 REVERT JUMPDEST POP PUSH2 0x6CD PUSH1 0x4 CALLDATALOAD PUSH2 0x18D7 JUMP JUMPDEST PUSH1 0x40 DUP1 MLOAD PUSH1 0x1 PUSH1 0xA0 PUSH1 0x2 EXP SUB SWAP1 SWAP4 AND DUP4 MSTORE PUSH1 0x20 DUP4 ADD SWAP2 SWAP1 SWAP2 MSTORE DUP1 MLOAD SWAP2 DUP3 SWAP1 SUB ADD SWAP1 RETURN JUMPDEST CALLVALUE DUP1 ISZERO PUSH2 0x6FC JUMPI PUSH1 0x0 DUP1 REVERT JUMPDEST POP PUSH2 0x455 PUSH1 0x4 CALLDATALOAD PUSH2 0x18FE JUMP JUMPDEST CALLVALUE DUP1 ISZERO PUSH2 0x714 JUMPI PUSH1 0x0 DUP1 REVERT JUMPDEST POP PUSH2 0x43E PUSH2 0x1A34 JUMP JUMPDEST CALLVALUE DUP1 ISZERO PUSH2 0x729 JUMPI PUSH1 0x0 DUP1 REVERT JUMPDEST POP PUSH2 0x53A PUSH1 0x1 PUSH1 0xA0 PUSH1 0x2 EXP SUB PUSH1 0x4 CALLDATALOAD AND PUSH1 0x24 CALLDATALOAD PUSH2 0x1AAC JUMP JUMPDEST CALLVALUE DUP1 ISZERO PUSH2 0x74D JUMPI PUSH1 0x0 DUP1 REVERT JUMPDEST POP PUSH2 0x43E PUSH1 0x1 PUSH1 0xA0 PUSH1 0x2 EXP SUB PUSH1 0x4 CALLDATALOAD DUP2 AND SWAP1 PUSH1 0x24 CALLDATALOAD AND PUSH1 0x44 CALLDATALOAD PUSH2 0x1C95 JUMP JUMPDEST CALLVALUE DUP1 ISZERO PUSH2 0x777 JUMPI PUSH1 0x0 DUP1 REVERT JUMPDEST POP PUSH2 0x43E PUSH1 0x4 CALLDATALOAD PUSH2 0x1CB1 JUMP JUMPDEST CALLVALUE DUP1 ISZERO PUSH2 0x78F JUMPI PUSH1 0x0 DUP1 REVERT JUMPDEST POP PUSH2 0x53A PUSH2 0x1D42 JUMP JUMPDEST CALLVALUE DUP1 ISZERO PUSH2 0x7A4 JUMPI PUSH1 0x0 DUP1 REVERT JUMPDEST POP PUSH2 0x43E PUSH1 0x1 PUSH1 0xA0 PUSH1 0x2 EXP SUB PUSH1 0x4 CALLDATALOAD AND PUSH1 0xFF PUSH1 0x24 CALLDATALOAD AND PUSH2 0x1D48 JUMP JUMPDEST CALLVALUE DUP1 ISZERO PUSH2 0x7CB JUMPI PUSH1 0x0 DUP1 REVERT JUMPDEST POP PUSH2 0x53A PUSH1 0x4 CALLDATALOAD PUSH2 0x1DDA JUMP JUMPDEST CALLVALUE DUP1 ISZERO PUSH2 0x7E3 JUMPI PUSH1 0x0 DUP1 REVERT JUMPDEST POP PUSH2 0x455 PUSH2 0x1DEF JUMP JUMPDEST CALLVALUE DUP1 ISZERO PUSH2 0x7F8 JUMPI PUSH1 0x0 DUP1 REVERT JUMPDEST POP PUSH2 0x40D PUSH1 0x4 CALLDATALOAD PUSH2 0x1E7D JUMP JUMPDEST CALLVALUE DUP1 ISZERO PUSH2 0x810 JUMPI PUSH1 0x0 DUP1 REVERT JUMPDEST POP PUSH2 0x53A PUSH1 0x4 CALLDATALOAD PUSH2 0x1E9A JUMP JUMPDEST CALLVALUE DUP1 ISZERO PUSH2 0x828 JUMPI PUSH1 0x0 DUP1 REVERT JUMPDEST POP PUSH2 0x43E PUSH1 0x4 CALLDATALOAD PUSH1 0x24 CALLDATALOAD PUSH2 0x1ECF JUMP JUMPDEST CALLVALUE DUP1 ISZERO PUSH2 0x843 JUMPI PUSH1 0x0 DUP1 REVERT JUMPDEST POP PUSH2 0x53A PUSH1 0x4 CALLDATALOAD PUSH2 0x1F63 JUMP JUMPDEST CALLVALUE DUP1 ISZERO PUSH2 0x85B JUMPI PUSH1 0x0 DUP1 REVERT JUMPDEST POP PUSH2 0x870 PUSH1 0x1 PUSH1 0xA0 PUSH1 0x2 EXP SUB PUSH1 0x4 CALLDATALOAD AND PUSH2 0x1F78 JUMP JUMPDEST PUSH1 0x40 DUP1 MLOAD PUSH1 0x20 DUP1 DUP3 MSTORE DUP4 MLOAD DUP2 DUP4 ADD MSTORE DUP4 MLOAD SWAP2 SWAP3 DUP4 SWAP3 SWAP1 DUP4 ADD SWAP2 DUP6 DUP2 ADD SWAP2 MUL DUP1 DUP4 DUP4 PUSH1 0x0 JUMPDEST DUP4 DUP2 LT ISZERO PUSH2 0x8AC JUMPI DUP2 DUP2 ADD MLOAD DUP4 DUP3 ADD MSTORE PUSH1 0x20 ADD PUSH2 0x894 JUMP JUMPDEST POP POP POP POP SWAP1 POP ADD SWAP3 POP POP POP PUSH1 0x40 MLOAD DUP1 SWAP2 SUB SWAP1 RETURN JUMPDEST CALLVALUE DUP1 ISZERO PUSH2 0x8CC JUMPI PUSH1 0x0 DUP1 REVERT JUMPDEST POP PUSH2 0x40D PUSH2 0x1FE4 JUMP JUMPDEST CALLVALUE DUP1 ISZERO PUSH2 0x8E1 JUMPI PUSH1 0x0 DUP1 REVERT JUMPDEST POP PUSH2 0x4E2 PUSH1 0x4 CALLDATALOAD PUSH2 0x1FF4 JUMP JUMPDEST CALLVALUE DUP1 ISZERO PUSH2 0x8F9 JUMPI PUSH1 0x0 DUP1 REVERT JUMPDEST POP PUSH2 0x905 PUSH1 0x4 CALLDATALOAD PUSH2 0x2018 JUMP JUMPDEST PUSH1 0x40 DUP1 MLOAD SWAP3 DUP4 MSTORE PUSH1 0x20 DUP4 ADD SWAP2 SWAP1 SWAP2 MSTORE DUP1 MLOAD SWAP2 DUP3 SWAP1 SUB ADD SWAP1 RETURN JUMPDEST CALLVALUE DUP1 ISZERO PUSH2 0x92A JUMPI PUSH1 0x0 DUP1 REVERT JUMPDEST POP PUSH2 0x870 PUSH1 0x1 PUSH1 0xA0 PUSH1 0x2 EXP SUB PUSH1 0x4 CALLDATALOAD AND PUSH2 0x2035 JUMP JUMPDEST CALLVALUE DUP1 ISZERO PUSH2 0x94B JUMPI PUSH1 0x0 DUP1 REVERT JUMPDEST POP PUSH2 0x53A PUSH1 0x4 CALLDATALOAD PUSH2 0x209F JUMP JUMPDEST CALLVALUE DUP1 ISZERO PUSH2 0x963 JUMPI PUSH1 0x0 DUP1 REVERT JUMPDEST POP PUSH2 0x4E2 PUSH2 0x20B4 JUMP JUMPDEST CALLVALUE DUP1 ISZERO PUSH2 0x978 JUMPI PUSH1 0x0 DUP1 REVERT JUMPDEST POP PUSH2 0x53A PUSH1 0x1 PUSH1 0xA0 PUSH1 0x2 EXP SUB PUSH1 0x4 CALLDATALOAD AND PUSH2 0x20C3 JUMP JUMPDEST CALLVALUE DUP1 ISZERO PUSH2 0x999 JUMPI PUSH1 0x0 DUP1 REVERT JUMPDEST POP PUSH2 0x43E PUSH2 0x20F6 JUMP JUMPDEST CALLVALUE DUP1 ISZERO PUSH2 0x9AE JUMPI PUSH1 0x0 DUP1 REVERT JUMPDEST POP PUSH2 0x9BA PUSH1 0x4 CALLDATALOAD PUSH2 0x2157 JUMP JUMPDEST PUSH1 0x40 MLOAD DUP1 DUP13 PUSH1 0x0 NOT AND PUSH1 0x0 NOT AND DUP2 MSTORE PUSH1 0x20 ADD DUP12 DUP2 MSTORE PUSH1 0x20 ADD DUP11 DUP2 MSTORE PUSH1 0x20 ADD DUP10 DUP2 MSTORE PUSH1 0x20 ADD DUP9 PUSH1 0x1 PUSH1 0xA0 PUSH1 0x2 EXP SUB AND PUSH1 0x1 PUSH1 0xA0 PUSH1 0x2 EXP SUB AND DUP2 MSTORE PUSH1 0x20 ADD DUP8 DUP2 MSTORE PUSH1 0x20 ADD DUP7 DUP2 MSTORE PUSH1 0x20 ADD DUP1 PUSH1 0x20 ADD DUP6 DUP2 MSTORE PUSH1 0x20 ADD DUP5 DUP2 MSTORE PUSH1 0x20 ADD DUP4 ISZERO ISZERO ISZERO ISZERO DUP2 MSTORE PUSH1 0x20 ADD DUP3 DUP2 SUB DUP3 MSTORE DUP7 DUP2 DUP2 MLOAD DUP2 MSTORE PUSH1 0x20 ADD SWAP2 POP DUP1 MLOAD SWAP1 PUSH1 0x20 ADD SWAP1 DUP1 DUP4 DUP4 PUSH1 0x0 JUMPDEST DUP4 DUP2 LT ISZERO PUSH2 0xA51 JUMPI DUP2 DUP2 ADD MLOAD DUP4 DUP3 ADD MSTORE PUSH1 0x20 ADD PUSH2 0xA39 JUMP JUMPDEST POP POP POP POP SWAP1 POP SWAP1 DUP2 ADD SWAP1 PUSH1 0x1F AND DUP1 ISZERO PUSH2 0xA7E JUMPI DUP1 DUP3 SUB DUP1 MLOAD PUSH1 0x1 DUP4 PUSH1 0x20 SUB PUSH2 0x100 EXP SUB NOT AND DUP2 MSTORE PUSH1 0x20 ADD SWAP2 POP JUMPDEST POP SWAP13 POP POP POP POP POP POP POP POP POP POP POP POP POP PUSH1 0x40 MLOAD DUP1 SWAP2 SUB SWAP1 RETURN JUMPDEST CALLVALUE DUP1 ISZERO PUSH2 0xAA2 JUMPI PUSH1 0x0 DUP1 REVERT JUMPDEST POP PUSH2 0x43E PUSH1 0x4 DUP1 CALLDATALOAD SWAP1 PUSH1 0x24 DUP1 CALLDATALOAD SWAP1 DUP2 ADD SWAP2 ADD CALLDATALOAD PUSH2 0x2352 JUMP JUMPDEST CALLVALUE DUP1 ISZERO PUSH2 0xAC6 JUMPI PUSH1 0x0 DUP1 REVERT JUMPDEST POP PUSH2 0x870 PUSH1 0x4 CALLDATALOAD PUSH2 0x23F3 JUMP JUMPDEST CALLVALUE DUP1 ISZERO PUSH2 0xADE JUMPI PUSH1 0x0 DUP1 REVERT JUMPDEST POP PUSH2 0x53A PUSH1 0x1 PUSH1 0xA0 PUSH1 0x2 EXP SUB PUSH1 0x4 CALLDATALOAD AND PUSH1 0x24 CALLDATALOAD PUSH2 0x2453 JUMP JUMPDEST CALLVALUE DUP1 ISZERO PUSH2 0xB02 JUMPI PUSH1 0x0 DUP1 REVERT JUMPDEST POP PUSH2 0x43E PUSH1 0x4 CALLDATALOAD PUSH1 0x24 CALLDATALOAD PUSH2 0x2610 JUMP JUMPDEST CALLVALUE DUP1 ISZERO PUSH2 0xB1D JUMPI PUSH1 0x0 DUP1 REVERT JUMPDEST POP PUSH2 0x53A PUSH1 0x4 CALLDATALOAD PUSH2 0x26A4 JUMP JUMPDEST CALLVALUE DUP1 ISZERO PUSH2 0xB35 JUMPI PUSH1 0x0 DUP1 REVERT JUMPDEST POP PUSH2 0x43E PUSH2 0x26B6 JUMP JUMPDEST PUSH2 0x53A PUSH1 0x1 PUSH1 0xA0 PUSH1 0x2 EXP SUB PUSH1 0x4 CALLDATALOAD AND PUSH1 0x24 CALLDATALOAD PUSH2 0x2733 JUMP JUMPDEST CALLVALUE DUP1 ISZERO PUSH2 0xB61 JUMPI PUSH1 0x0 DUP1 REVERT JUMPDEST POP PUSH1 0x40 DUP1 MLOAD PUSH1 0x20 PUSH1 0x4 PUSH2 0x104 CALLDATALOAD DUP2 DUP2 ADD CALLDATALOAD PUSH1 0x1F DUP2 ADD DUP5 SWAP1 DIV DUP5 MUL DUP6 ADD DUP5 ADD SWAP1 SWAP6 MSTORE DUP5 DUP5 MSTORE PUSH2 0x40D SWAP5 DUP3 CALLDATALOAD SWAP5 PUSH1 0x24 DUP1 CALLDATALOAD SWAP6 PUSH1 0x44 CALLDATALOAD SWAP6 PUSH1 0x64 CALLDATALOAD SWAP6 PUSH1 0x84 CALLDATALOAD SWAP6 PUSH1 0xA4 CALLDATALOAD PUSH1 0x1 PUSH1 0xA0 PUSH1 0x2 EXP SUB AND SWAP6 PUSH1 0xC4 CALLDATALOAD SWAP6 PUSH1 0xE4 CALLDATALOAD SWAP6 CALLDATASIZE SWAP6 SWAP5 PUSH2 0x124 SWAP5 SWAP3 ADD SWAP2 SWAP1 DUP2 SWAP1 DUP5 ADD DUP4 DUP3 DUP1 DUP3 DUP5 CALLDATACOPY POP SWAP5 SWAP8 POP POP SWAP4 CALLDATALOAD SWAP5 POP PUSH2 0x2AFC SWAP4 POP POP POP POP JUMP JUMPDEST CALLVALUE DUP1 ISZERO PUSH2 0xBE6 JUMPI PUSH1 0x0 DUP1 REVERT JUMPDEST POP PUSH2 0x4E2 PUSH2 0x2B4C JUMP JUMPDEST CALLVALUE DUP1 ISZERO PUSH2 0xBFB JUMPI PUSH1 0x0 DUP1 REVERT JUMPDEST POP PUSH2 0xC04 PUSH2 0x2B5B JUMP JUMPDEST PUSH1 0x40 DUP1 MLOAD PUSH1 0xFF SWAP1 SWAP3 AND DUP3 MSTORE MLOAD SWAP1 DUP2 SWAP1 SUB PUSH1 0x20 ADD SWAP1 RETURN JUMPDEST CALLVALUE DUP1 ISZERO PUSH2 0xC26 JUMPI PUSH1 0x0 DUP1 REVERT JUMPDEST POP PUSH2 0x40D PUSH1 0x1 PUSH1 0xA0 PUSH1 0x2 EXP SUB PUSH1 0x4 CALLDATALOAD AND PUSH1 0xFF PUSH1 0x24 CALLDATALOAD AND PUSH2 0x2B60 JUMP JUMPDEST CALLVALUE DUP1 ISZERO PUSH2 0xC4D JUMPI PUSH1 0x0 DUP1 REVERT JUMPDEST POP PUSH2 0x455 PUSH2 0x2B89 JUMP JUMPDEST CALLVALUE DUP1 ISZERO PUSH2 0xC62 JUMPI PUSH1 0x0 DUP1 REVERT JUMPDEST POP PUSH2 0x43E PUSH1 0x1 PUSH1 0xA0 PUSH1 0x2 EXP SUB PUSH1 0x4 CALLDATALOAD AND PUSH1 0xFF PUSH1 0x24 CALLDATALOAD AND PUSH2 0x2BEA JUMP JUMPDEST CALLVALUE DUP1 ISZERO PUSH2 0xC89 JUMPI PUSH1 0x0 DUP1 REVERT JUMPDEST POP PUSH2 0x43E PUSH1 0x4 CALLDATALOAD PUSH1 0x24 CALLDATALOAD PUSH1 0x1 PUSH1 0xA0 PUSH1 0x2 EXP SUB PUSH1 0x44 CALLDATALOAD AND PUSH2 0x2C7C JUMP JUMPDEST CALLVALUE DUP1 ISZERO PUSH2 0xCB0 JUMPI PUSH1 0x0 DUP1 REVERT JUMPDEST POP PUSH2 0xC04 PUSH2 0x2E7F JUMP JUMPDEST CALLVALUE DUP1 ISZERO PUSH2 0xCC5 JUMPI PUSH1 0x0 DUP1 REVERT JUMPDEST POP PUSH1 0x40 DUP1 MLOAD PUSH1 0x20 PUSH1 0x4 PUSH2 0x104 CALLDATALOAD DUP2 DUP2 ADD CALLDATALOAD PUSH1 0x1F DUP2 ADD DUP5 SWAP1 DIV DUP5 MUL DUP6 ADD DUP5 ADD SWAP1 SWAP6 MSTORE DUP5 DUP5 MSTORE PUSH2 0x40D SWAP5 DUP3 CALLDATALOAD SWAP5 PUSH1 0x24 DUP1 CALLDATALOAD SWAP6 PUSH1 0x44 CALLDATALOAD SWAP6 PUSH1 0x64 CALLDATALOAD SWAP6 PUSH1 0x84 CALLDATALOAD SWAP6 PUSH1 0xA4 CALLDATALOAD PUSH1 0x1 PUSH1 0xA0 PUSH1 0x2 EXP SUB AND SWAP6 PUSH1 0xC4 CALLDATALOAD SWAP6 PUSH1 0xE4 CALLDATALOAD SWAP6 CALLDATASIZE SWAP6 SWAP5 PUSH2 0x124 SWAP5 SWAP3 ADD SWAP2 SWAP1 DUP2 SWAP1 DUP5 ADD DUP4 DUP3 DUP1 DUP3 DUP5 CALLDATACOPY POP SWAP5 SWAP8 POP POP DUP5 CALLDATALOAD SWAP6 POP POP POP PUSH1 0x20 SWAP1 SWAP3 ADD CALLDATALOAD SWAP2 POP PUSH2 0x2E84 SWAP1 POP JUMP JUMPDEST CALLVALUE DUP1 ISZERO PUSH2 0xD51 JUMPI PUSH1 0x0 DUP1 REVERT JUMPDEST POP PUSH2 0x43E PUSH2 0x2EE2 JUMP JUMPDEST CALLVALUE DUP1 ISZERO PUSH2 0xD66 JUMPI PUSH1 0x0 DUP1 REVERT JUMPDEST POP PUSH2 0x43E PUSH1 0x1 PUSH1 0xA0 PUSH1 0x2 EXP SUB PUSH1 0x4 CALLDATALOAD AND PUSH1 0x24 CALLDATALOAD ISZERO ISZERO PUSH2 0x2F36 JUMP JUMPDEST CALLVALUE DUP1 ISZERO PUSH2 0xD8C JUMPI PUSH1 0x0 DUP1 REVERT JUMPDEST POP PUSH2 0x53A PUSH2 0x2FBA JUMP JUMPDEST CALLVALUE DUP1 ISZERO PUSH2 0xDA1 JUMPI PUSH1 0x0 DUP1 REVERT JUMPDEST POP PUSH1 0x40 DUP1 MLOAD PUSH1 0x20 PUSH1 0x4 PUSH1 0x24 DUP1 CALLDATALOAD DUP3 DUP2 ADD CALLDATALOAD DUP5 DUP2 MUL DUP1 DUP8 ADD DUP7 ADD SWAP1 SWAP8 MSTORE DUP1 DUP7 MSTORE PUSH2 0x43E SWAP7 DUP5 CALLDATALOAD PUSH1 0x1 PUSH1 0xA0 PUSH1 0x2 EXP SUB AND SWAP7 CALLDATASIZE SWAP7 PUSH1 0x44 SWAP6 SWAP2 SWAP5 SWAP1 SWAP2 ADD SWAP3 SWAP2 DUP3 SWAP2 DUP6 ADD SWAP1 DUP5 SWAP1 DUP1 DUP3 DUP5 CALLDATACOPY POP SWAP5 SWAP8 POP PUSH2 0x2FC0 SWAP7 POP POP POP POP POP POP POP JUMP JUMPDEST CALLVALUE DUP1 ISZERO PUSH2 0xE04 JUMPI PUSH1 0x0 DUP1 REVERT JUMPDEST POP PUSH1 0x40 DUP1 MLOAD PUSH1 0x20 PUSH1 0x4 PUSH2 0x104 CALLDATALOAD DUP2 DUP2 ADD CALLDATALOAD PUSH1 0x1F DUP2 ADD DUP5 SWAP1 DIV DUP5 MUL DUP6 ADD DUP5 ADD SWAP1 SWAP6 MSTORE DUP5 DUP5 MSTORE PUSH2 0x40D SWAP5 DUP3 CALLDATALOAD SWAP5 PUSH1 0x24 DUP1 CALLDATALOAD SWAP6 PUSH1 0x44 CALLDATALOAD SWAP6 PUSH1 0x64 CALLDATALOAD SWAP6 PUSH1 0x84 CALLDATALOAD SWAP6 PUSH1 0xA4 CALLDATALOAD PUSH1 0x1 PUSH1 0xA0 PUSH1 0x2 EXP SUB AND SWAP6 PUSH1 0xC4 CALLDATALOAD SWAP6 PUSH1 0xE4 CALLDATALOAD SWAP6 CALLDATASIZE SWAP6 SWAP5 PUSH2 0x124 SWAP5 SWAP3 ADD SWAP2 SWAP1 DUP2 SWAP1 DUP5 ADD DUP4 DUP3 DUP1 DUP3 DUP5 CALLDATACOPY POP SWAP5 SWAP8 POP POP DUP5 CALLDATALOAD SWAP6 POP POP POP PUSH1 0x20 SWAP1 SWAP3 ADD CALLDATALOAD SWAP2 POP PUSH2 0x3015 SWAP1 POP JUMP JUMPDEST CALLVALUE DUP1 ISZERO PUSH2 0xE90 JUMPI PUSH1 0x0 DUP1 REVERT JUMPDEST POP PUSH2 0x43E PUSH1 0x4 CALLDATALOAD PUSH1 0x1 PUSH1 0xA0 PUSH1 0x2 EXP SUB PUSH1 0x24 CALLDATALOAD AND PUSH2 0x3056 JUMP JUMPDEST CALLVALUE DUP1 ISZERO PUSH2 0xEB4 JUMPI PUSH1 0x0 DUP1 REVERT JUMPDEST POP PUSH2 0xEC0 PUSH1 0x4 CALLDATALOAD PUSH2 0x3186 JUMP JUMPDEST PUSH1 0x40 DUP1 MLOAD DUP7 DUP2 MSTORE PUSH1 0x20 DUP1 DUP3 ADD DUP8 SWAP1 MSTORE SWAP2 DUP2 ADD DUP6 SWAP1 MSTORE PUSH1 0x1 PUSH1 0xA0 PUSH1 0x2 EXP SUB DUP4 AND PUSH1 0x80 DUP3 ADD MSTORE PUSH1 0xA0 PUSH1 0x60 DUP3 ADD DUP2 DUP2 MSTORE DUP6 MLOAD SWAP2 DUP4 ADD SWAP2 SWAP1 SWAP2 MSTORE DUP5 MLOAD SWAP2 SWAP3 SWAP1 SWAP2 PUSH1 0xC0 DUP5 ADD SWAP2 DUP7 ADD SWAP1 DUP1 DUP4 DUP4 PUSH1 0x0 JUMPDEST DUP4 DUP2 LT ISZERO PUSH2 0xF22 JUMPI DUP2 DUP2 ADD MLOAD DUP4 DUP3 ADD MSTORE PUSH1 0x20 ADD PUSH2 0xF0A JUMP JUMPDEST POP POP POP POP SWAP1 POP SWAP1 DUP2 ADD SWAP1 PUSH1 0x1F AND DUP1 ISZERO PUSH2 0xF4F JUMPI DUP1 DUP3 SUB DUP1 MLOAD PUSH1 0x1 DUP4 PUSH1 0x20 SUB PUSH2 0x100 EXP SUB NOT AND DUP2 MSTORE PUSH1 0x20 ADD SWAP2 POP JUMPDEST POP SWAP7 POP POP POP POP POP POP POP PUSH1 0x40 MLOAD DUP1 SWAP2 SUB SWAP1 RETURN JUMPDEST CALLVALUE DUP1 ISZERO PUSH2 0xF6D JUMPI PUSH1 0x0 DUP1 REVERT JUMPDEST POP PUSH2 0x53A PUSH1 0x4 CALLDATALOAD PUSH2 0x3248 JUMP JUMPDEST CALLVALUE DUP1 ISZERO PUSH2 0xF85 JUMPI PUSH1 0x0 DUP1 REVERT JUMPDEST POP PUSH1 0x40 DUP1 MLOAD PUSH1 0x20 PUSH1 0x1F PUSH1 0x64 CALLDATALOAD PUSH1 0x4 DUP2 DUP2 ADD CALLDATALOAD SWAP3 DUP4 ADD DUP5 SWAP1 DIV DUP5 MUL DUP6 ADD DUP5 ADD SWAP1 SWAP6 MSTORE DUP2 DUP5 MSTORE PUSH2 0x43E SWAP5 PUSH1 0x1 PUSH1 0xA0 PUSH1 0x2 EXP SUB DUP2 CALLDATALOAD DUP2 AND SWAP6 PUSH1 0x24 DUP1 CALLDATALOAD SWAP1 SWAP3 AND SWAP6 PUSH1 0x44 CALLDATALOAD SWAP6 CALLDATASIZE SWAP6 PUSH1 0x84 SWAP5 ADD SWAP2 DUP2 SWAP1 DUP5 ADD DUP4 DUP3 DUP1 DUP3 DUP5 CALLDATACOPY POP SWAP5 SWAP8 POP PUSH2 0x325D SWAP7 POP POP POP POP POP POP POP JUMP JUMPDEST CALLVALUE DUP1 ISZERO PUSH2 0xFF4 JUMPI PUSH1 0x0 DUP1 REVERT JUMPDEST POP PUSH2 0x905 PUSH1 0x4 CALLDATALOAD PUSH2 0x327F JUMP JUMPDEST CALLVALUE DUP1 ISZERO PUSH2 0x100C JUMPI PUSH1 0x0 DUP1 REVERT JUMPDEST POP PUSH2 0x40D PUSH1 0x4 CALLDATALOAD PUSH2 0x32A3 JUMP JUMPDEST CALLVALUE DUP1 ISZERO PUSH2 0x1024 JUMPI PUSH1 0x0 DUP1 REVERT JUMPDEST POP PUSH2 0x53A PUSH1 0x4 CALLDATALOAD PUSH2 0x32BB JUMP JUMPDEST CALLVALUE DUP1 ISZERO PUSH2 0x103C JUMPI PUSH1 0x0 DUP1 REVERT JUMPDEST POP PUSH2 0x43E PUSH1 0x4 CALLDATALOAD PUSH1 0x24 CALLDATALOAD PUSH2 0x32E2 JUMP JUMPDEST CALLVALUE DUP1 ISZERO PUSH2 0x1057 JUMPI PUSH1 0x0 DUP1 REVERT JUMPDEST POP PUSH2 0xC04 PUSH2 0x345A JUMP JUMPDEST CALLVALUE DUP1 ISZERO PUSH2 0x106C JUMPI PUSH1 0x0 DUP1 REVERT JUMPDEST POP PUSH2 0x40D PUSH1 0x4 CALLDATALOAD PUSH2 0x345F JUMP JUMPDEST CALLVALUE DUP1 ISZERO PUSH2 0x1084 JUMPI PUSH1 0x0 DUP1 REVERT JUMPDEST POP PUSH2 0x455 PUSH1 0x4 CALLDATALOAD PUSH2 0x3487 JUMP JUMPDEST CALLVALUE DUP1 ISZERO PUSH2 0x109C JUMPI PUSH1 0x0 DUP1 REVERT JUMPDEST POP PUSH2 0x43E PUSH1 0x4 CALLDATALOAD PUSH1 0x24 CALLDATALOAD PUSH2 0x35E2 JUMP JUMPDEST CALLVALUE DUP1 ISZERO PUSH2 0x10B7 JUMPI PUSH1 0x0 DUP1 REVERT JUMPDEST POP PUSH2 0x10C3 PUSH1 0x4 CALLDATALOAD PUSH2 0x36F0 JUMP JUMPDEST PUSH1 0x40 DUP1 MLOAD SWAP3 DUP4 MSTORE PUSH1 0x1 PUSH1 0xA0 PUSH1 0x2 EXP SUB SWAP1 SWAP2 AND PUSH1 0x20 DUP4 ADD MSTORE DUP1 MLOAD SWAP2 DUP3 SWAP1 SUB ADD SWAP1 RETURN JUMPDEST CALLVALUE DUP1 ISZERO PUSH2 0x10F0 JUMPI PUSH1 0x0 DUP1 REVERT JUMPDEST POP PUSH2 0x43E PUSH1 0x4 CALLDATALOAD PUSH1 0x24 CALLDATALOAD PUSH2 0x3716 JUMP JUMPDEST CALLVALUE DUP1 ISZERO PUSH2 0x110B JUMPI PUSH1 0x0 DUP1 REVERT JUMPDEST POP PUSH1 0x40 DUP1 MLOAD PUSH1 0x20 PUSH1 0x4 PUSH2 0x104 CALLDATALOAD DUP2 DUP2 ADD CALLDATALOAD PUSH1 0x1F DUP2 ADD DUP5 SWAP1 DIV DUP5 MUL DUP6 ADD DUP5 ADD SWAP1 SWAP6 MSTORE DUP5 DUP5 MSTORE PUSH2 0x40D SWAP5 DUP3 CALLDATALOAD SWAP5 PUSH1 0x24 DUP1 CALLDATALOAD SWAP6 PUSH1 0x44 CALLDATALOAD SWAP6 PUSH1 0x64 CALLDATALOAD SWAP6 PUSH1 0x84 CALLDATALOAD SWAP6 PUSH1 0xA4 CALLDATALOAD PUSH1 0x1 PUSH1 0xA0 PUSH1 0x2 EXP SUB AND SWAP6 PUSH1 0xC4 CALLDATALOAD SWAP6 PUSH1 0xE4 CALLDATALOAD SWAP6 CALLDATASIZE SWAP6 SWAP5 PUSH2 0x124 SWAP5 SWAP3 ADD SWAP2 SWAP1 DUP2 SWAP1 DUP5 ADD DUP4 DUP3 DUP1 DUP3 DUP5 CALLDATACOPY POP SWAP5 SWAP8 POP POP SWAP4 CALLDATALOAD SWAP5 POP PUSH2 0x37AA SWAP4 POP POP POP POP JUMP JUMPDEST CALLVALUE DUP1 ISZERO PUSH2 0x1190 JUMPI PUSH1 0x0 DUP1 REVERT JUMPDEST POP PUSH2 0x870 PUSH1 0x4 CALLDATALOAD PUSH2 0x37EB JUMP JUMPDEST CALLVALUE DUP1 ISZERO PUSH2 0x11A8 JUMPI PUSH1 0x0 DUP1 REVERT JUMPDEST POP PUSH2 0x40D PUSH1 0x1 PUSH1 0xA0 PUSH1 0x2 EXP SUB PUSH1 0x4 CALLDATALOAD DUP2 AND SWAP1 PUSH1 0x24 CALLDATALOAD AND PUSH2 0x384B JUMP JUMPDEST PUSH2 0x53A PUSH1 0x4 CALLDATALOAD PUSH2 0x3879 JUMP JUMPDEST CALLVALUE DUP1 ISZERO PUSH2 0x11DA JUMPI PUSH1 0x0 DUP1 REVERT JUMPDEST POP PUSH2 0x53A PUSH2 0x3885 JUMP JUMPDEST CALLVALUE DUP1 ISZERO PUSH2 0x11EF JUMPI PUSH1 0x0 DUP1 REVERT JUMPDEST POP PUSH2 0x43E PUSH1 0x1 PUSH1 0xA0 PUSH1 0x2 EXP SUB PUSH1 0x4 CALLDATALOAD AND PUSH2 0x388B JUMP JUMPDEST CALLVALUE DUP1 ISZERO PUSH2 0x1210 JUMPI PUSH1 0x0 DUP1 REVERT JUMPDEST POP PUSH1 0x40 DUP1 MLOAD PUSH1 0x20 PUSH1 0x4 PUSH1 0x44 CALLDATALOAD DUP2 DUP2 ADD CALLDATALOAD DUP4 DUP2 MUL DUP1 DUP7 ADD DUP6 ADD SWAP1 SWAP7 MSTORE DUP1 DUP6 MSTORE PUSH2 0x43E SWAP6 DUP4 CALLDATALOAD PUSH1 0x1 PUSH1 0xA0 PUSH1 0x2 EXP SUB SWAP1 DUP2 AND SWAP7 PUSH1 0x24 DUP1 CALLDATALOAD SWAP1 SWAP3 AND SWAP7 CALLDATASIZE SWAP7 SWAP6 PUSH1 0x64 SWAP6 SWAP3 SWAP5 SWAP4 ADD SWAP3 DUP3 SWAP2 DUP6 ADD SWAP1 DUP5 SWAP1 DUP1 DUP3 DUP5 CALLDATACOPY POP SWAP5 SWAP8 POP PUSH2 0x38AB SWAP7 POP POP POP POP POP POP POP JUMP JUMPDEST CALLVALUE DUP1 ISZERO PUSH2 0x127B JUMPI PUSH1 0x0 DUP1 REVERT JUMPDEST POP PUSH2 0x43E PUSH1 0x4 CALLDATALOAD PUSH1 0x24 CALLDATALOAD PUSH2 0x38E1 JUMP JUMPDEST CALLVALUE DUP1 ISZERO PUSH2 0x1296 JUMPI PUSH1 0x0 DUP1 REVERT JUMPDEST POP PUSH2 0x455 PUSH1 0x4 CALLDATALOAD PUSH2 0x3A22 JUMP JUMPDEST PUSH1 0x1 PUSH1 0xE0 PUSH1 0x2 EXP SUB NOT AND PUSH1 0x0 SWAP1 DUP2 MSTORE PUSH1 0x20 DUP2 SWAP1 MSTORE PUSH1 0x40 SWAP1 KECCAK256 SLOAD PUSH1 0xFF AND SWAP1 JUMP JUMPDEST PUSH1 0xC SLOAD PUSH1 0x1 PUSH1 0xA0 PUSH1 0x2 EXP SUB AND CALLER EQ DUP1 PUSH2 0x12E0 JUMPI POP PUSH2 0x12E0 CALLER PUSH1 0x1 PUSH2 0x2B60 JUMP JUMPDEST ISZERO ISZERO PUSH2 0x12EB JUMPI PUSH1 0x0 DUP1 REVERT JUMPDEST PUSH1 0x0 DUP3 DUP2 MSTORE PUSH1 0x16 PUSH1 0x20 MSTORE PUSH1 0x40 DUP2 KECCAK256 SLOAD DUP4 SWAP2 LT PUSH2 0x133F JUMPI PUSH1 0x40 DUP1 MLOAD PUSH1 0xE5 PUSH1 0x2 EXP PUSH3 0x461BCD MUL DUP2 MSTORE PUSH1 0x20 PUSH1 0x4 DUP3 ADD MSTORE PUSH1 0x16 PUSH1 0x24 DUP3 ADD MSTORE PUSH1 0x0 DUP1 MLOAD PUSH1 0x20 PUSH2 0x4FB0 DUP4 CODECOPY DUP2 MLOAD SWAP2 MSTORE PUSH1 0x44 DUP3 ADD MSTORE SWAP1 MLOAD SWAP1 DUP2 SWAP1 SUB PUSH1 0x64 ADD SWAP1 REVERT JUMPDEST POP PUSH1 0x0 SWAP2 DUP3 MSTORE PUSH1 0x16 PUSH1 0x20 MSTORE PUSH1 0x40 SWAP1 SWAP2 KECCAK256 PUSH1 0x9 ADD DUP1 SLOAD PUSH1 0xFF NOT AND SWAP2 ISZERO ISZERO SWAP2 SWAP1 SWAP2 OR SWAP1 SSTORE JUMP JUMPDEST PUSH1 0x5 DUP1 SLOAD PUSH1 0x40 DUP1 MLOAD PUSH1 0x20 PUSH1 0x1F PUSH1 0x2 PUSH1 0x0 NOT PUSH2 0x100 PUSH1 0x1 DUP9 AND ISZERO MUL ADD SWAP1 SWAP6 AND SWAP5 SWAP1 SWAP5 DIV SWAP4 DUP5 ADD DUP2 SWAP1 DIV DUP2 MUL DUP3 ADD DUP2 ADD SWAP1 SWAP3 MSTORE DUP3 DUP2 MSTORE PUSH1 0x60 SWAP4 SWAP1 SWAP3 SWAP1 SWAP2 DUP4 ADD DUP3 DUP3 DUP1 ISZERO PUSH2 0x13EF JUMPI DUP1 PUSH1 0x1F LT PUSH2 0x13C4 JUMPI PUSH2 0x100 DUP1 DUP4 SLOAD DIV MUL DUP4 MSTORE SWAP2 PUSH1 0x20 ADD SWAP2 PUSH2 0x13EF JUMP JUMPDEST DUP3 ADD SWAP2 SWAP1 PUSH1 0x0 MSTORE PUSH1 0x20 PUSH1 0x0 KECCAK256 SWAP1 JUMPDEST DUP2 SLOAD DUP2 MSTORE SWAP1 PUSH1 0x1 ADD SWAP1 PUSH1 0x20 ADD DUP1 DUP4 GT PUSH2 0x13D2 JUMPI DUP3 SWAP1 SUB PUSH1 0x1F AND DUP3 ADD SWAP2 JUMPDEST POP POP POP POP POP SWAP1 POP JUMPDEST SWAP1 JUMP JUMPDEST PUSH1 0x0 SWAP1 DUP2 MSTORE PUSH1 0x2 PUSH1 0x20 MSTORE PUSH1 0x40 SWAP1 KECCAK256 SLOAD PUSH1 0x1 PUSH1 0xA0 PUSH1 0x2 EXP SUB AND SWAP1 JUMP JUMPDEST PUSH1 0x0 PUSH2 0x1420 DUP3 PUSH2 0x1FF4 JUMP JUMPDEST SWAP1 POP PUSH1 0x1 PUSH1 0xA0 PUSH1 0x2 EXP SUB DUP4 DUP2 AND SWAP1 DUP3 AND EQ ISZERO PUSH2 0x143B JUMPI PUSH1 0x0 DUP1 REVERT JUMPDEST CALLER PUSH1 0x1 PUSH1 0xA0 PUSH1 0x2 EXP SUB DUP3 AND EQ DUP1 PUSH2 0x1457 JUMPI POP PUSH2 0x1457 DUP2 CALLER PUSH2 0x384B JUMP JUMPDEST ISZERO ISZERO PUSH2 0x1462 JUMPI PUSH1 0x0 DUP1 REVERT JUMPDEST PUSH1 0x0 DUP3 DUP2 MSTORE PUSH1 0x2 PUSH1 0x20 MSTORE PUSH1 0x40 DUP1 DUP3 KECCAK256 DUP1 SLOAD PUSH1 0x1 PUSH1 0xA0 PUSH1 0x2 EXP SUB NOT AND PUSH1 0x1 PUSH1 0xA0 PUSH1 0x2 EXP SUB DUP8 DUP2 AND SWAP2 DUP3 OR SWAP1 SWAP3 SSTORE SWAP2 MLOAD DUP6 SWAP4 SWAP2 DUP6 AND SWAP2 PUSH32 0x8C5BE1E5EBEC7D5BD14F71427D1E84F3DD0314C0F7B2291E5B200AC8C7C3B925 SWAP2 LOG4 POP POP POP JUMP JUMPDEST PUSH1 0x0 DUP2 DUP2 MSTORE PUSH1 0x17 PUSH1 0x20 MSTORE PUSH1 0x40 DUP2 KECCAK256 SLOAD PUSH2 0x14D6 DUP2 PUSH2 0x1DDA JUMP JUMPDEST SWAP2 POP JUMPDEST POP SWAP2 SWAP1 POP JUMP JUMPDEST PUSH1 0xC SLOAD PUSH1 0x1 PUSH1 0xA0 PUSH1 0x2 EXP SUB AND CALLER EQ DUP1 PUSH2 0x14FE JUMPI POP PUSH2 0x14FE CALLER PUSH1 0x1 PUSH2 0x2B60 JUMP JUMPDEST ISZERO ISZERO PUSH2 0x1509 JUMPI PUSH1 0x0 DUP1 REVERT JUMPDEST DUP3 PUSH2 0x1513 DUP2 PUSH2 0x1E7D JUMP JUMPDEST ISZERO ISZERO PUSH2 0x1569 JUMPI PUSH1 0x40 DUP1 MLOAD PUSH1 0xE5 PUSH1 0x2 EXP PUSH3 0x461BCD MUL DUP2 MSTORE PUSH1 0x20 PUSH1 0x4 DUP3 ADD MSTORE PUSH1 0x17 PUSH1 0x24 DUP3 ADD MSTORE PUSH32 0x546F6B656E20494420646F6573206E6F74206578697374000000000000000000 PUSH1 0x44 DUP3 ADD MSTORE SWAP1 MLOAD SWAP1 DUP2 SWAP1 SUB PUSH1 0x64 ADD SWAP1 REVERT JUMPDEST PUSH2 0x15A3 DUP5 DUP5 DUP5 DUP1 DUP1 PUSH1 0x1F ADD PUSH1 0x20 DUP1 SWAP2 DIV MUL PUSH1 0x20 ADD PUSH1 0x40 MLOAD SWAP1 DUP2 ADD PUSH1 0x40 MSTORE DUP1 SWAP4 SWAP3 SWAP2 SWAP1 DUP2 DUP2 MSTORE PUSH1 0x20 ADD DUP4 DUP4 DUP1 DUP3 DUP5 CALLDATACOPY POP PUSH2 0x3B1D SWAP5 POP POP POP POP POP JUMP JUMPDEST POP POP POP POP JUMP JUMPDEST PUSH1 0x9 SLOAD SWAP1 JUMP JUMPDEST PUSH1 0xC SLOAD PUSH1 0x1 PUSH1 0xA0 PUSH1 0x2 EXP SUB AND CALLER EQ DUP1 PUSH2 0x15CE JUMPI POP PUSH2 0x15CE CALLER PUSH1 0x1 PUSH2 0x2B60 JUMP JUMPDEST ISZERO ISZERO PUSH2 0x15D9 JUMPI PUSH1 0x0 DUP1 REVERT JUMPDEST PUSH1 0x1 PUSH1 0xA0 PUSH1 0x2 EXP SUB DUP2 AND ISZERO ISZERO PUSH2 0x1639 JUMPI PUSH1 0x40 DUP1 MLOAD PUSH1 0xE5 PUSH1 0x2 EXP PUSH3 0x461BCD MUL DUP2 MSTORE PUSH1 0x20 PUSH1 0x4 DUP3 ADD MSTORE PUSH1 0xF PUSH1 0x24 DUP3 ADD MSTORE PUSH32 0x496E76616C696420616464726573730000000000000000000000000000000000 PUSH1 0x44 DUP3 ADD MSTORE SWAP1 MLOAD SWAP1 DUP2 SWAP1 SUB PUSH1 0x64 ADD SWAP1 REVERT JUMPDEST PUSH1 0x14 DUP1 SLOAD PUSH1 0x1 PUSH1 0xA0 PUSH1 0x2 EXP SUB NOT AND PUSH1 0x1 PUSH1 0xA0 PUSH1 0x2 EXP SUB SWAP3 SWAP1 SWAP3 AND SWAP2 SWAP1 SWAP2 OR SWAP1 SSTORE JUMP JUMPDEST PUSH32 0x1FFC9A700000000000000000000000000000000000000000000000000000000 DUP2 JUMP JUMPDEST PUSH1 0x0 SWAP1 DUP2 MSTORE PUSH1 0x16 PUSH1 0x20 MSTORE PUSH1 0x40 SWAP1 KECCAK256 PUSH1 0x1 ADD SLOAD SWAP1 JUMP JUMPDEST PUSH1 0xC SLOAD PUSH1 0x1 PUSH1 0xA0 PUSH1 0x2 EXP SUB AND CALLER EQ DUP1 PUSH2 0x16B3 JUMPI POP PUSH2 0x16B3 CALLER PUSH1 0x1 PUSH2 0x2B60 JUMP JUMPDEST ISZERO ISZERO PUSH2 0x16BE JUMPI PUSH1 0x0 DUP1 REVERT JUMPDEST DUP1 ISZERO ISZERO PUSH2 0x1715 JUMPI PUSH1 0x40 DUP1 MLOAD PUSH1 0xE5 PUSH1 0x2 EXP PUSH3 0x461BCD MUL DUP2 MSTORE PUSH1 0x20 PUSH1 0x4 DUP3 ADD MSTORE PUSH1 0x10 PUSH1 0x24 DUP3 ADD MSTORE PUSH32 0x426173652055524920696E76616C696400000000000000000000000000000000 PUSH1 0x44 DUP3 ADD MSTORE SWAP1 MLOAD SWAP1 DUP2 SWAP1 SUB PUSH1 0x64 ADD SWAP1 REVERT JUMPDEST PUSH2 0x1721 PUSH1 0xF DUP4 DUP4 PUSH2 0x4E45 JUMP JUMPDEST POP POP POP JUMP JUMPDEST PUSH1 0xFF DUP2 AND PUSH1 0x0 SWAP1 DUP2 MSTORE PUSH1 0xD PUSH1 0x20 MSTORE PUSH1 0x40 SWAP1 KECCAK256 PUSH2 0x1748 SWAP1 DUP4 PUSH4 0xFFFFFFFF PUSH2 0x3B50 AND JUMP JUMPDEST POP POP JUMP JUMPDEST PUSH2 0x1756 CALLER DUP3 PUSH2 0x3B65 JUMP JUMPDEST ISZERO ISZERO PUSH2 0x1761 JUMPI PUSH1 0x0 DUP1 REVERT JUMPDEST PUSH1 0x1 PUSH1 0xA0 PUSH1 0x2 EXP SUB DUP4 AND ISZERO ISZERO PUSH2 0x1776 JUMPI PUSH1 0x0 DUP1 REVERT JUMPDEST PUSH1 0x1 PUSH1 0xA0 PUSH1 0x2 EXP SUB DUP3 AND ISZERO ISZERO PUSH2 0x178B JUMPI PUSH1 0x0 DUP1 REVERT JUMPDEST PUSH2 0x1795 DUP4 DUP3 PUSH2 0x3BC4 JUMP JUMPDEST PUSH2 0x179F DUP4 DUP3 PUSH2 0x3C26 JUMP JUMPDEST PUSH2 0x17A9 DUP3 DUP3 PUSH2 0x3D2D JUMP JUMPDEST DUP1 DUP3 PUSH1 0x1 PUSH1 0xA0 PUSH1 0x2 EXP SUB AND DUP5 PUSH1 0x1 PUSH1 0xA0 PUSH1 0x2 EXP SUB AND PUSH32 0xDDF252AD1BE2C89B69C2B068FC378DAA952BA7F163C4A11628F55A4DF523B3EF PUSH1 0x40 MLOAD PUSH1 0x40 MLOAD DUP1 SWAP2 SUB SWAP1 LOG4 POP POP POP JUMP JUMPDEST PUSH1 0x11 SLOAD DUP2 JUMP JUMPDEST PUSH1 0x0 PUSH2 0x1800 DUP4 PUSH2 0x20C3 JUMP JUMPDEST DUP3 LT PUSH2 0x180B JUMPI PUSH1 0x0 DUP1 REVERT JUMPDEST PUSH1 0x1 PUSH1 0xA0 PUSH1 0x2 EXP SUB DUP4 AND PUSH1 0x0 SWAP1 DUP2 MSTORE PUSH1 0x7 PUSH1 0x20 MSTORE PUSH1 0x40 SWAP1 KECCAK256 DUP1 SLOAD DUP4 SWAP1 DUP2 LT PUSH2 0x182F JUMPI INVALID JUMPDEST SWAP1 PUSH1 0x0 MSTORE PUSH1 0x20 PUSH1 0x0 KECCAK256 ADD SLOAD SWAP1 POP JUMPDEST SWAP3 SWAP2 POP POP JUMP JUMPDEST PUSH1 0xC SLOAD PUSH1 0x1 PUSH1 0xA0 PUSH1 0x2 EXP SUB AND CALLER EQ DUP1 PUSH2 0x1862 JUMPI POP PUSH2 0x1862 CALLER PUSH1 0x1 PUSH2 0x2B60 JUMP JUMPDEST ISZERO ISZERO PUSH2 0x186D JUMPI PUSH1 0x0 DUP1 REVERT JUMPDEST PUSH1 0x0 DUP3 DUP2 MSTORE PUSH1 0x16 PUSH1 0x20 MSTORE PUSH1 0x40 DUP2 KECCAK256 SLOAD DUP4 SWAP2 LT PUSH2 0x18C1 JUMPI PUSH1 0x40 DUP1 MLOAD PUSH1 0xE5 PUSH1 0x2 EXP PUSH3 0x461BCD MUL DUP2 MSTORE PUSH1 0x20 PUSH1 0x4 DUP3 ADD MSTORE PUSH1 0x16 PUSH1 0x24 DUP3 ADD MSTORE PUSH1 0x0 DUP1 MLOAD PUSH1 0x20 PUSH2 0x4FB0 DUP4 CODECOPY DUP2 MLOAD SWAP2 MSTORE PUSH1 0x44 DUP3 ADD MSTORE SWAP1 MLOAD SWAP1 DUP2 SWAP1 SUB PUSH1 0x64 ADD SWAP1 REVERT JUMPDEST POP PUSH1 0x0 SWAP2 DUP3 MSTORE PUSH1 0x16 PUSH1 0x20 MSTORE PUSH1 0x40 SWAP1 SWAP2 KECCAK256 PUSH1 0x3 ADD SSTORE JUMP JUMPDEST PUSH1 0x0 SWAP1 DUP2 MSTORE PUSH1 0x16 PUSH1 0x20 MSTORE PUSH1 0x40 SWAP1 KECCAK256 PUSH1 0x5 DUP2 ADD SLOAD PUSH1 0x6 SWAP1 SWAP2 ADD SLOAD PUSH1 0x1 PUSH1 0xA0 PUSH1 0x2 EXP SUB SWAP1 SWAP2 AND SWAP2 JUMP JUMPDEST PUSH1 0x0 DUP2 DUP2 MSTORE PUSH1 0x16 PUSH1 0x20 SWAP1 DUP2 MSTORE PUSH1 0x40 SWAP2 DUP3 SWAP1 KECCAK256 PUSH1 0xF DUP1 SLOAD DUP5 MLOAD PUSH1 0x1F PUSH1 0x2 PUSH1 0x0 NOT PUSH2 0x100 PUSH1 0x1 DUP7 AND ISZERO MUL ADD SWAP1 SWAP4 AND SWAP3 SWAP1 SWAP3 DIV SWAP2 DUP3 ADD DUP6 SWAP1 DIV DUP6 MUL DUP2 ADD DUP6 ADD SWAP1 SWAP6 MSTORE DUP1 DUP6 MSTORE PUSH1 0x60 SWAP5 SWAP3 SWAP4 PUSH2 0x14D6 SWAP4 SWAP3 SWAP2 SWAP1 DUP4 ADD DUP3 DUP3 DUP1 ISZERO PUSH2 0x199D JUMPI DUP1 PUSH1 0x1F LT PUSH2 0x1972 JUMPI PUSH2 0x100 DUP1 DUP4 SLOAD DIV MUL DUP4 MSTORE SWAP2 PUSH1 0x20 ADD SWAP2 PUSH2 0x199D JUMP JUMPDEST DUP3 ADD SWAP2 SWAP1 PUSH1 0x0 MSTORE PUSH1 0x20 PUSH1 0x0 KECCAK256 SWAP1 JUMPDEST DUP2 SLOAD DUP2 MSTORE SWAP1 PUSH1 0x1 ADD SWAP1 PUSH1 0x20 ADD DUP1 DUP4 GT PUSH2 0x1980 JUMPI DUP3 SWAP1 SUB PUSH1 0x1F AND DUP3 ADD SWAP2 JUMPDEST POP POP POP POP PUSH1 0x8 DUP5 ADD DUP1 SLOAD PUSH1 0x40 DUP1 MLOAD PUSH1 0x20 PUSH1 0x2 PUSH1 0x1 DUP6 AND ISZERO PUSH2 0x100 MUL PUSH1 0x0 NOT ADD SWAP1 SWAP5 AND SWAP4 SWAP1 SWAP4 DIV PUSH1 0x1F DUP2 ADD DUP5 SWAP1 DIV DUP5 MUL DUP3 ADD DUP5 ADD SWAP1 SWAP3 MSTORE DUP2 DUP2 MSTORE SWAP4 POP SWAP1 DUP4 ADD DUP3 DUP3 DUP1 ISZERO PUSH2 0x1A2A JUMPI DUP1 PUSH1 0x1F LT PUSH2 0x19FF JUMPI PUSH2 0x100 DUP1 DUP4 SLOAD DIV MUL DUP4 MSTORE SWAP2 PUSH1 0x20 ADD SWAP2 PUSH2 0x1A2A JUMP JUMPDEST DUP3 ADD SWAP2 SWAP1 PUSH1 0x0 MSTORE PUSH1 0x20 PUSH1 0x0 KECCAK256 SWAP1 JUMPDEST DUP2 SLOAD DUP2 MSTORE SWAP1 PUSH1 0x1 ADD SWAP1 PUSH1 0x20 ADD DUP1 DUP4 GT PUSH2 0x1A0D JUMPI DUP3 SWAP1 SUB PUSH1 0x1F AND DUP3 ADD SWAP2 JUMPDEST POP POP POP POP POP PUSH2 0x3D76 JUMP JUMPDEST PUSH1 0xE SLOAD PUSH1 0x1 PUSH1 0xA0 PUSH1 0x2 EXP SUB AND CALLER EQ PUSH2 0x1A4B JUMPI PUSH1 0x0 DUP1 REVERT JUMPDEST PUSH1 0xE SLOAD PUSH1 0xA0 PUSH1 0x2 EXP SWAP1 DIV PUSH1 0xFF AND ISZERO ISZERO PUSH2 0x1A63 JUMPI PUSH1 0x0 DUP1 REVERT JUMPDEST PUSH1 0xE DUP1 SLOAD PUSH21 0xFF0000000000000000000000000000000000000000 NOT AND SWAP1 SSTORE PUSH1 0x40 MLOAD PUSH32 0x7805862F689E2F13DF9F062FF482AD3AD112ACA9E0847911ED832E158C525B33 SWAP1 PUSH1 0x0 SWAP1 LOG1 JUMP JUMPDEST PUSH1 0xC SLOAD PUSH1 0x0 SWAP1 DUP2 SWAP1 PUSH1 0x1 PUSH1 0xA0 PUSH1 0x2 EXP SUB AND CALLER EQ DUP1 PUSH2 0x1AD0 JUMPI POP PUSH2 0x1AD0 CALLER PUSH1 0x1 PUSH2 0x2B60 JUMP JUMPDEST DUP1 PUSH2 0x1AE1 JUMPI POP PUSH2 0x1AE1 CALLER PUSH1 0x2 PUSH2 0x2B60 JUMP JUMPDEST ISZERO ISZERO PUSH2 0x1AEC JUMPI PUSH1 0x0 DUP1 REVERT JUMPDEST PUSH1 0x0 DUP4 DUP2 MSTORE PUSH1 0x16 PUSH1 0x20 MSTORE PUSH1 0x40 DUP2 KECCAK256 SLOAD DUP5 SWAP2 LT PUSH2 0x1B40 JUMPI PUSH1 0x40 DUP1 MLOAD PUSH1 0xE5 PUSH1 0x2 EXP PUSH3 0x461BCD MUL DUP2 MSTORE PUSH1 0x20 PUSH1 0x4 DUP3 ADD MSTORE PUSH1 0x16 PUSH1 0x24 DUP3 ADD MSTORE PUSH1 0x0 DUP1 MLOAD PUSH1 0x20 PUSH2 0x4FB0 DUP4 CODECOPY DUP2 MLOAD SWAP2 MSTORE PUSH1 0x44 DUP3 ADD MSTORE SWAP1 MLOAD SWAP1 DUP2 SWAP1 SUB PUSH1 0x64 ADD SWAP1 REVERT JUMPDEST PUSH1 0x0 DUP5 DUP2 MSTORE PUSH1 0x16 PUSH1 0x20 MSTORE PUSH1 0x40 SWAP1 KECCAK256 PUSH1 0xB DUP2 ADD SLOAD PUSH1 0xA SWAP1 SWAP2 ADD SLOAD DUP6 SWAP2 GT PUSH2 0x1BD6 JUMPI PUSH1 0x40 DUP1 MLOAD PUSH1 0xE5 PUSH1 0x2 EXP PUSH3 0x461BCD MUL DUP2 MSTORE PUSH1 0x20 PUSH1 0x4 DUP3 ADD MSTORE PUSH1 0x21 PUSH1 0x24 DUP3 ADD MSTORE PUSH32 0x4E6F206D6F72652065646974696F6E73206C65667420746F2070757263686173 PUSH1 0x44 DUP3 ADD MSTORE PUSH32 0x6500000000000000000000000000000000000000000000000000000000000000 PUSH1 0x64 DUP3 ADD MSTORE SWAP1 MLOAD SWAP1 DUP2 SWAP1 SUB PUSH1 0x84 ADD SWAP1 REVERT JUMPDEST PUSH2 0x1BDF DUP6 PUSH2 0x3DAB JUMP JUMPDEST PUSH1 0x0 DUP7 DUP2 MSTORE PUSH1 0x16 PUSH1 0x20 SWAP1 DUP2 MSTORE PUSH1 0x40 SWAP2 DUP3 SWAP1 KECCAK256 PUSH1 0x8 ADD DUP1 SLOAD DUP4 MLOAD PUSH1 0x2 PUSH1 0x1 DUP4 AND ISZERO PUSH2 0x100 MUL PUSH1 0x0 NOT ADD SWAP1 SWAP3 AND SWAP2 SWAP1 SWAP2 DIV PUSH1 0x1F DUP2 ADD DUP5 SWAP1 DIV DUP5 MUL DUP3 ADD DUP5 ADD SWAP1 SWAP5 MSTORE DUP4 DUP2 MSTORE SWAP4 SWAP7 POP PUSH2 0x1C8B SWAP4 DUP11 SWAP4 DUP9 SWAP4 DUP12 SWAP4 SWAP2 SWAP1 DUP4 ADD DUP3 DUP3 DUP1 ISZERO PUSH2 0x1C81 JUMPI DUP1 PUSH1 0x1F LT PUSH2 0x1C56 JUMPI PUSH2 0x100 DUP1 DUP4 SLOAD DIV MUL DUP4 MSTORE SWAP2 PUSH1 0x20 ADD SWAP2 PUSH2 0x1C81 JUMP JUMPDEST DUP3 ADD SWAP2 SWAP1 PUSH1 0x0 MSTORE PUSH1 0x20 PUSH1 0x0 KECCAK256 SWAP1 JUMPDEST DUP2 SLOAD DUP2 MSTORE SWAP1 PUSH1 0x1 ADD SWAP1 PUSH1 0x20 ADD DUP1 DUP4 GT PUSH2 0x1C64 JUMPI DUP3 SWAP1 SUB PUSH1 0x1F AND DUP3 ADD SWAP2 JUMPDEST POP POP POP POP POP PUSH2 0x3DE7 JUMP JUMPDEST POP SWAP1 SWAP5 SWAP4 POP POP POP POP JUMP JUMPDEST PUSH2 0x1721 DUP4 DUP4 DUP4 PUSH1 0x20 PUSH1 0x40 MLOAD SWAP1 DUP2 ADD PUSH1 0x40 MSTORE DUP1 PUSH1 0x0 DUP2 MSTORE POP PUSH2 0x325D JUMP JUMPDEST PUSH1 0xC SLOAD PUSH1 0x0 SWAP1 DUP2 SWAP1 DUP2 SWAP1 PUSH1 0x1 PUSH1 0xA0 PUSH1 0x2 EXP SUB AND CALLER EQ DUP1 PUSH2 0x1CD7 JUMPI POP PUSH2 0x1CD7 CALLER PUSH1 0x1 PUSH2 0x2B60 JUMP JUMPDEST ISZERO ISZERO PUSH2 0x1CE2 JUMPI PUSH1 0x0 DUP1 REVERT JUMPDEST PUSH2 0x1CF4 PUSH2 0x1CEE DUP6 PUSH2 0x1FF4 JUMP JUMPDEST DUP6 PUSH2 0x3E94 JUMP JUMPDEST POP POP POP PUSH1 0x0 DUP2 DUP2 MSTORE PUSH1 0x17 PUSH1 0x20 SWAP1 DUP2 MSTORE PUSH1 0x40 DUP1 DUP4 KECCAK256 DUP1 SLOAD SWAP1 DUP5 SWAP1 SSTORE DUP1 DUP5 MSTORE PUSH1 0x18 DUP4 MSTORE DUP2 DUP5 KECCAK256 DUP6 DUP6 MSTORE PUSH1 0x19 SWAP1 SWAP4 MSTORE SWAP3 KECCAK256 SLOAD DUP2 SLOAD DUP3 SWAP1 DUP3 SWAP1 DUP2 LT PUSH2 0x1D31 JUMPI INVALID JUMPDEST PUSH1 0x0 SWAP2 DUP3 MSTORE PUSH1 0x20 DUP3 KECCAK256 ADD SSTORE POP POP POP POP JUMP JUMPDEST PUSH1 0x13 SLOAD DUP2 JUMP JUMPDEST PUSH1 0xC SLOAD PUSH1 0x1 PUSH1 0xA0 PUSH1 0x2 EXP SUB AND CALLER EQ DUP1 PUSH2 0x1D67 JUMPI POP PUSH2 0x1D67 CALLER PUSH1 0x1 PUSH2 0x2B60 JUMP JUMPDEST ISZERO ISZERO PUSH2 0x1D72 JUMPI PUSH1 0x0 DUP1 REVERT JUMPDEST PUSH1 0xFF DUP2 AND PUSH1 0x0 SWAP1 DUP2 MSTORE PUSH1 0xD PUSH1 0x20 MSTORE PUSH1 0x40 SWAP1 KECCAK256 PUSH2 0x1D94 SWAP1 DUP4 PUSH4 0xFFFFFFFF PUSH2 0x3F8E AND JUMP JUMPDEST PUSH1 0x40 DUP1 MLOAD PUSH1 0xFF DUP4 AND DUP2 MSTORE SWAP1 MLOAD PUSH1 0x1 PUSH1 0xA0 PUSH1 0x2 EXP SUB DUP5 AND SWAP2 PUSH32 0xED8A6A6A166243876472F7A8610B62C1A76C67911642D39FF34EAD38105534F SWAP2 SWAP1 DUP2 SWAP1 SUB PUSH1 0x20 ADD SWAP1 LOG2 POP POP JUMP JUMPDEST PUSH1 0x0 SWAP1 DUP2 MSTORE PUSH1 0x16 PUSH1 0x20 MSTORE PUSH1 0x40 SWAP1 KECCAK256 PUSH1 0x7 ADD SLOAD SWAP1 JUMP JUMPDEST PUSH1 0xF DUP1 SLOAD PUSH1 0x40 DUP1 MLOAD PUSH1 0x20 PUSH1 0x2 PUSH1 0x1 DUP6 AND ISZERO PUSH2 0x100 MUL PUSH1 0x0 NOT ADD SWAP1 SWAP5 AND SWAP4 SWAP1 SWAP4 DIV PUSH1 0x1F DUP2 ADD DUP5 SWAP1 DIV DUP5 MUL DUP3 ADD DUP5 ADD SWAP1 SWAP3 MSTORE DUP2 DUP2 MSTORE SWAP3 SWAP2 DUP4 ADD DUP3 DUP3 DUP1 ISZERO PUSH2 0x1E75 JUMPI DUP1 PUSH1 0x1F LT PUSH2 0x1E4A JUMPI PUSH2 0x100 DUP1 DUP4 SLOAD DIV MUL DUP4 MSTORE SWAP2 PUSH1 0x20 ADD SWAP2 PUSH2 0x1E75 JUMP JUMPDEST DUP3 ADD SWAP2 SWAP1 PUSH1 0x0 MSTORE PUSH1 0x20 PUSH1 0x0 KECCAK256 SWAP1 JUMPDEST DUP2 SLOAD DUP2 MSTORE SWAP1 PUSH1 0x1 ADD SWAP1 PUSH1 0x20 ADD DUP1 DUP4 GT PUSH2 0x1E58 JUMPI DUP3 SWAP1 SUB PUSH1 0x1F AND DUP3 ADD SWAP2 JUMPDEST POP POP POP POP POP DUP2 JUMP JUMPDEST PUSH1 0x0 SWAP1 DUP2 MSTORE PUSH1 0x1 PUSH1 0x20 MSTORE PUSH1 0x40 SWAP1 KECCAK256 SLOAD PUSH1 0x1 PUSH1 0xA0 PUSH1 0x2 EXP SUB AND ISZERO ISZERO SWAP1 JUMP JUMPDEST PUSH1 0x0 PUSH2 0x1EA4 PUSH2 0x15A9 JUMP JUMPDEST DUP3 LT PUSH2 0x1EAF JUMPI PUSH1 0x0 DUP1 REVERT JUMPDEST PUSH1 0x9 DUP1 SLOAD DUP4 SWAP1 DUP2 LT PUSH2 0x1EBD JUMPI INVALID JUMPDEST SWAP1 PUSH1 0x0 MSTORE PUSH1 0x20 PUSH1 0x0 KECCAK256 ADD SLOAD SWAP1 POP SWAP2 SWAP1 POP JUMP JUMPDEST PUSH1 0xC SLOAD PUSH1 0x1 PUSH1 0xA0 PUSH1 0x2 EXP SUB AND CALLER EQ DUP1 PUSH2 0x1EEE JUMPI POP PUSH2 0x1EEE CALLER PUSH1 0x1 PUSH2 0x2B60 JUMP JUMPDEST ISZERO ISZERO PUSH2 0x1EF9 JUMPI PUSH1 0x0 DUP1 REVERT JUMPDEST PUSH1 0x0 DUP3 DUP2 MSTORE PUSH1 0x16 PUSH1 0x20 MSTORE PUSH1 0x40 DUP2 KECCAK256 SLOAD DUP4 SWAP2 LT PUSH2 0x1F4D JUMPI PUSH1 0x40 DUP1 MLOAD PUSH1 0xE5 PUSH1 0x2 EXP PUSH3 0x461BCD MUL DUP2 MSTORE PUSH1 0x20 PUSH1 0x4 DUP3 ADD MSTORE PUSH1 0x16 PUSH1 0x24 DUP3 ADD MSTORE PUSH1 0x0 DUP1 MLOAD PUSH1 0x20 PUSH2 0x4FB0 DUP4 CODECOPY DUP2 MLOAD SWAP2 MSTORE PUSH1 0x44 DUP3 ADD MSTORE SWAP1 MLOAD SWAP1 DUP2 SWAP1 SUB PUSH1 0x64 ADD SWAP1 REVERT JUMPDEST POP PUSH1 0x0 SWAP2 DUP3 MSTORE PUSH1 0x16 PUSH1 0x20 MSTORE PUSH1 0x40 SWAP1 SWAP2 KECCAK256 PUSH1 0x6 ADD SSTORE JUMP JUMPDEST PUSH1 0x0 SWAP1 DUP2 MSTORE PUSH1 0x16 PUSH1 0x20 MSTORE PUSH1 0x40 SWAP1 KECCAK256 PUSH1 0x2 ADD SLOAD SWAP1 JUMP JUMPDEST PUSH1 0x1 PUSH1 0xA0 PUSH1 0x2 EXP SUB DUP2 AND PUSH1 0x0 SWAP1 DUP2 MSTORE PUSH1 0x7 PUSH1 0x20 SWAP1 DUP2 MSTORE PUSH1 0x40 SWAP2 DUP3 SWAP1 KECCAK256 DUP1 SLOAD DUP4 MLOAD DUP2 DUP5 MUL DUP2 ADD DUP5 ADD SWAP1 SWAP5 MSTORE DUP1 DUP5 MSTORE PUSH1 0x60 SWAP4 SWAP3 DUP4 ADD DUP3 DUP3 DUP1 ISZERO PUSH2 0x1FD8 JUMPI PUSH1 0x20 MUL DUP3 ADD SWAP2 SWAP1 PUSH1 0x0 MSTORE PUSH1 0x20 PUSH1 0x0 KECCAK256 SWAP1 JUMPDEST DUP2 SLOAD DUP2 MSTORE PUSH1 0x20 ADD SWAP1 PUSH1 0x1 ADD SWAP1 DUP1 DUP4 GT PUSH2 0x1FC4 JUMPI JUMPDEST POP POP POP POP POP SWAP1 POP SWAP2 SWAP1 POP JUMP JUMPDEST PUSH1 0xE SLOAD PUSH1 0xA0 PUSH1 0x2 EXP SWAP1 DIV PUSH1 0xFF AND DUP2 JUMP JUMPDEST PUSH1 0x0 DUP2 DUP2 MSTORE PUSH1 0x1 PUSH1 0x20 MSTORE PUSH1 0x40 DUP2 KECCAK256 SLOAD PUSH1 0x1 PUSH1 0xA0 PUSH1 0x2 EXP SUB AND DUP1 ISZERO ISZERO PUSH2 0x183D JUMPI PUSH1 0x0 DUP1 REVERT JUMPDEST PUSH1 0x0 SWAP1 DUP2 MSTORE PUSH1 0x16 PUSH1 0x20 MSTORE PUSH1 0x40 SWAP1 KECCAK256 PUSH1 0x3 DUP2 ADD SLOAD PUSH1 0x4 SWAP1 SWAP2 ADD SLOAD SWAP1 SWAP2 JUMP JUMPDEST PUSH1 0x1 PUSH1 0xA0 PUSH1 0x2 EXP SUB DUP2 AND PUSH1 0x0 SWAP1 DUP2 MSTORE PUSH1 0x1A PUSH1 0x20 SWAP1 DUP2 MSTORE PUSH1 0x40 SWAP2 DUP3 SWAP1 KECCAK256 DUP1 SLOAD DUP4 MLOAD DUP2 DUP5 MUL DUP2 ADD DUP5 ADD SWAP1 SWAP5 MSTORE DUP1 DUP5 MSTORE PUSH1 0x60 SWAP4 SWAP3 DUP4 ADD DUP3 DUP3 DUP1 ISZERO PUSH2 0x1FD8 JUMPI PUSH1 0x20 MUL DUP3 ADD SWAP2 SWAP1 PUSH1 0x0 MSTORE PUSH1 0x20 PUSH1 0x0 KECCAK256 SWAP1 DUP2 SLOAD DUP2 MSTORE PUSH1 0x20 ADD SWAP1 PUSH1 0x1 ADD SWAP1 DUP1 DUP4 GT PUSH2 0x1FC4 JUMPI POP POP POP POP POP SWAP1 POP SWAP2 SWAP1 POP JUMP JUMPDEST PUSH1 0x0 SWAP1 DUP2 MSTORE PUSH1 0x16 PUSH1 0x20 MSTORE PUSH1 0x40 SWAP1 KECCAK256 PUSH1 0xB ADD SLOAD SWAP1 JUMP JUMPDEST PUSH1 0x14 SLOAD PUSH1 0x1 PUSH1 0xA0 PUSH1 0x2 EXP SUB AND DUP2 JUMP JUMPDEST PUSH1 0x0 PUSH1 0x1 PUSH1 0xA0 PUSH1 0x2 EXP SUB DUP3 AND ISZERO ISZERO PUSH2 0x20DA JUMPI PUSH1 0x0 DUP1 REVERT JUMPDEST POP PUSH1 0x1 PUSH1 0xA0 PUSH1 0x2 EXP SUB AND PUSH1 0x0 SWAP1 DUP2 MSTORE PUSH1 0x3 PUSH1 0x20 MSTORE PUSH1 0x40 SWAP1 KECCAK256 SLOAD SWAP1 JUMP JUMPDEST PUSH1 0xE SLOAD PUSH1 0x1 PUSH1 0xA0 PUSH1 0x2 EXP SUB AND CALLER EQ PUSH2 0x210D JUMPI PUSH1 0x0 DUP1 REVERT JUMPDEST PUSH1 0xE SLOAD PUSH1 0x40 MLOAD PUSH1 0x1 PUSH1 0xA0 PUSH1 0x2 EXP SUB SWAP1 SWAP2 AND SWAP1 PUSH32 0xF8DF31144D9C2F0F6B59D69B8B98ABD5459D07F2742C4DF920B25AAE33C64820 SWAP1 PUSH1 0x0 SWAP1 LOG2 PUSH1 0xE DUP1 SLOAD PUSH1 0x1 PUSH1 0xA0 PUSH1 0x2 EXP SUB NOT AND SWAP1 SSTORE JUMP JUMPDEST PUSH1 0x0 DUP1 PUSH1 0x0 DUP1 PUSH1 0x0 DUP1 PUSH1 0x0 PUSH1 0x60 PUSH1 0x0 DUP1 PUSH1 0x0 DUP1 DUP13 PUSH1 0x0 PUSH1 0x16 PUSH1 0x0 DUP4 DUP2 MSTORE PUSH1 0x20 ADD SWAP1 DUP2 MSTORE PUSH1 0x20 ADD PUSH1 0x0 KECCAK256 PUSH1 0x0 ADD SLOAD GT ISZERO ISZERO PUSH2 0x21C9 JUMPI PUSH1 0x40 DUP1 MLOAD PUSH1 0xE5 PUSH1 0x2 EXP PUSH3 0x461BCD MUL DUP2 MSTORE PUSH1 0x20 PUSH1 0x4 DUP3 ADD MSTORE PUSH1 0x16 PUSH1 0x24 DUP3 ADD MSTORE PUSH1 0x0 DUP1 MLOAD PUSH1 0x20 PUSH2 0x4FB0 DUP4 CODECOPY DUP2 MLOAD SWAP2 MSTORE PUSH1 0x44 DUP3 ADD MSTORE SWAP1 MLOAD SWAP1 DUP2 SWAP1 SUB PUSH1 0x64 ADD SWAP1 REVERT JUMPDEST PUSH1 0x16 PUSH1 0x0 DUP16 DUP2 MSTORE PUSH1 0x20 ADD SWAP1 DUP2 MSTORE PUSH1 0x20 ADD PUSH1 0x0 KECCAK256 SWAP2 POP DUP2 PUSH1 0x1 ADD SLOAD DUP3 PUSH1 0x2 ADD SLOAD DUP4 PUSH1 0x3 ADD SLOAD DUP5 PUSH1 0x4 ADD SLOAD DUP6 PUSH1 0x5 ADD PUSH1 0x0 SWAP1 SLOAD SWAP1 PUSH2 0x100 EXP SWAP1 DIV PUSH1 0x1 PUSH1 0xA0 PUSH1 0x2 EXP SUB AND DUP7 PUSH1 0x6 ADD SLOAD DUP8 PUSH1 0x7 ADD SLOAD PUSH2 0x230F PUSH1 0xF DUP1 SLOAD PUSH1 0x1 DUP2 PUSH1 0x1 AND ISZERO PUSH2 0x100 MUL SUB AND PUSH1 0x2 SWAP1 DIV DUP1 PUSH1 0x1F ADD PUSH1 0x20 DUP1 SWAP2 DIV MUL PUSH1 0x20 ADD PUSH1 0x40 MLOAD SWAP1 DUP2 ADD PUSH1 0x40 MSTORE DUP1 SWAP3 SWAP2 SWAP1 DUP2 DUP2 MSTORE PUSH1 0x20 ADD DUP3 DUP1 SLOAD PUSH1 0x1 DUP2 PUSH1 0x1 AND ISZERO PUSH2 0x100 MUL SUB AND PUSH1 0x2 SWAP1 DIV DUP1 ISZERO PUSH2 0x22AD JUMPI DUP1 PUSH1 0x1F LT PUSH2 0x2282 JUMPI PUSH2 0x100 DUP1 DUP4 SLOAD DIV MUL DUP4 MSTORE SWAP2 PUSH1 0x20 ADD SWAP2 PUSH2 0x22AD JUMP JUMPDEST DUP3 ADD SWAP2 SWAP1 PUSH1 0x0 MSTORE PUSH1 0x20 PUSH1 0x0 KECCAK256 SWAP1 JUMPDEST DUP2 SLOAD DUP2 MSTORE SWAP1 PUSH1 0x1 ADD SWAP1 PUSH1 0x20 ADD DUP1 DUP4 GT PUSH2 0x2290 JUMPI DUP3 SWAP1 SUB PUSH1 0x1F AND DUP3 ADD SWAP2 JUMPDEST POP POP POP POP PUSH1 0x8 DUP13 ADD DUP1 SLOAD PUSH1 0x40 DUP1 MLOAD PUSH1 0x20 PUSH1 0x2 PUSH1 0x1 DUP6 AND ISZERO PUSH2 0x100 MUL PUSH1 0x0 NOT ADD SWAP1 SWAP5 AND SWAP4 SWAP1 SWAP4 DIV PUSH1 0x1F DUP2 ADD DUP5 SWAP1 DIV DUP5 MUL DUP3 ADD DUP5 ADD SWAP1 SWAP3 MSTORE DUP2 DUP2 MSTORE SWAP4 POP SWAP1 DUP4 ADD DUP3 DUP3 DUP1 ISZERO PUSH2 0x1A2A JUMPI DUP1 PUSH1 0x1F LT PUSH2 0x19FF JUMPI PUSH2 0x100 DUP1 DUP4 SLOAD DIV MUL DUP4 MSTORE SWAP2 PUSH1 0x20 ADD SWAP2 PUSH2 0x1A2A JUMP JUMPDEST DUP10 PUSH1 0xA ADD SLOAD DUP11 PUSH1 0xB ADD SLOAD DUP12 PUSH1 0x9 ADD PUSH1 0x0 SWAP1 SLOAD SWAP1 PUSH2 0x100 EXP SWAP1 DIV PUSH1 0xFF AND SWAP13 POP SWAP13 POP SWAP13 POP SWAP13 POP SWAP13 POP SWAP13 POP SWAP13 POP SWAP13 POP SWAP13 POP SWAP13 POP SWAP13 POP POP POP SWAP2 SWAP4 SWAP6 SWAP8 SWAP10 SWAP12 SWAP1 SWAP3 SWAP5 SWAP7 SWAP9 SWAP11 POP JUMP JUMPDEST PUSH1 0xC SLOAD PUSH1 0x1 PUSH1 0xA0 PUSH1 0x2 EXP SUB AND CALLER EQ DUP1 PUSH2 0x2371 JUMPI POP PUSH2 0x2371 CALLER PUSH1 0x1 PUSH2 0x2B60 JUMP JUMPDEST ISZERO ISZERO PUSH2 0x237C JUMPI PUSH1 0x0 DUP1 REVERT JUMPDEST PUSH1 0x0 DUP4 DUP2 MSTORE PUSH1 0x16 PUSH1 0x20 MSTORE PUSH1 0x40 DUP2 KECCAK256 SLOAD DUP5 SWAP2 LT PUSH2 0x23D0 JUMPI PUSH1 0x40 DUP1 MLOAD PUSH1 0xE5 PUSH1 0x2 EXP PUSH3 0x461BCD MUL DUP2 MSTORE PUSH1 0x20 PUSH1 0x4 DUP3 ADD MSTORE PUSH1 0x16 PUSH1 0x24 DUP3 ADD MSTORE PUSH1 0x0 DUP1 MLOAD PUSH1 0x20 PUSH2 0x4FB0 DUP4 CODECOPY DUP2 MLOAD SWAP2 MSTORE PUSH1 0x44 DUP3 ADD MSTORE SWAP1 MLOAD SWAP1 DUP2 SWAP1 SUB PUSH1 0x64 ADD SWAP1 REVERT JUMPDEST PUSH1 0x0 DUP5 DUP2 MSTORE PUSH1 0x16 PUSH1 0x20 MSTORE PUSH1 0x40 SWAP1 KECCAK256 PUSH2 0x23EC SWAP1 PUSH1 0x8 ADD DUP5 DUP5 PUSH2 0x4E45 JUMP JUMPDEST POP POP POP POP POP JUMP JUMPDEST PUSH1 0x0 DUP2 DUP2 MSTORE PUSH1 0x18 PUSH1 0x20 SWAP1 DUP2 MSTORE PUSH1 0x40 SWAP2 DUP3 SWAP1 KECCAK256 DUP1 SLOAD DUP4 MLOAD DUP2 DUP5 MUL DUP2 ADD DUP5 ADD SWAP1 SWAP5 MSTORE DUP1 DUP5 MSTORE PUSH1 0x60 SWAP4 SWAP3 DUP4 ADD DUP3 DUP3 DUP1 ISZERO PUSH2 0x1FD8 JUMPI PUSH1 0x20 MUL DUP3 ADD SWAP2 SWAP1 PUSH1 0x0 MSTORE PUSH1 0x20 PUSH1 0x0 KECCAK256 SWAP1 DUP2 SLOAD DUP2 MSTORE PUSH1 0x20 ADD SWAP1 PUSH1 0x1 ADD SWAP1 DUP1 DUP4 GT PUSH2 0x1FC4 JUMPI POP POP POP POP POP SWAP1 POP SWAP2 SWAP1 POP JUMP JUMPDEST PUSH1 0xC SLOAD PUSH1 0x0 SWAP1 DUP2 SWAP1 PUSH1 0x1 PUSH1 0xA0 PUSH1 0x2 EXP SUB AND CALLER EQ DUP1 PUSH2 0x2477 JUMPI POP PUSH2 0x2477 CALLER PUSH1 0x1 PUSH2 0x2B60 JUMP JUMPDEST DUP1 PUSH2 0x2488 JUMPI POP PUSH2 0x2488 CALLER PUSH1 0x3 PUSH2 0x2B60 JUMP JUMPDEST ISZERO ISZERO PUSH2 0x2493 JUMPI PUSH1 0x0 DUP1 REVERT JUMPDEST PUSH1 0x0 DUP4 DUP2 MSTORE PUSH1 0x16 PUSH1 0x20 MSTORE PUSH1 0x40 DUP2 KECCAK256 SLOAD DUP5 SWAP2 LT PUSH2 0x24E7 JUMPI PUSH1 0x40 DUP1 MLOAD PUSH1 0xE5 PUSH1 0x2 EXP PUSH3 0x461BCD MUL DUP2 MSTORE PUSH1 0x20 PUSH1 0x4 DUP3 ADD MSTORE PUSH1 0x16 PUSH1 0x24 DUP3 ADD MSTORE PUSH1 0x0 DUP1 MLOAD PUSH1 0x20 PUSH2 0x4FB0 DUP4 CODECOPY DUP2 MLOAD SWAP2 MSTORE PUSH1 0x44 DUP3 ADD MSTORE SWAP1 MLOAD SWAP1 DUP2 SWAP1 SUB PUSH1 0x64 ADD SWAP1 REVERT JUMPDEST PUSH2 0x24F0 DUP5 PUSH2 0x3FB3 JUMP JUMPDEST PUSH1 0x0 DUP6 DUP2 MSTORE PUSH1 0x16 PUSH1 0x20 MSTORE PUSH1 0x40 SWAP1 KECCAK256 PUSH1 0xB ADD SLOAD SWAP1 SWAP3 POP PUSH2 0x2516 SWAP1 DUP6 SWAP1 PUSH4 0xFFFFFFFF PUSH2 0x403E AND JUMP JUMPDEST DUP3 GT ISZERO PUSH2 0x2593 JUMPI PUSH1 0x40 DUP1 MLOAD PUSH1 0xE5 PUSH1 0x2 EXP PUSH3 0x461BCD MUL DUP2 MSTORE PUSH1 0x20 PUSH1 0x4 DUP3 ADD MSTORE PUSH1 0x2E PUSH1 0x24 DUP3 ADD MSTORE PUSH32 0x52656163686564206D617820746F6B656E49642C2063616E6E6F7420756E6465 PUSH1 0x44 DUP3 ADD MSTORE PUSH32 0x72206D696E7420616E796D6F7265000000000000000000000000000000000000 PUSH1 0x64 DUP3 ADD MSTORE SWAP1 MLOAD SWAP1 DUP2 SWAP1 SUB PUSH1 0x84 ADD SWAP1 REVERT JUMPDEST PUSH1 0x0 DUP5 DUP2 MSTORE PUSH1 0x16 PUSH1 0x20 SWAP1 DUP2 MSTORE PUSH1 0x40 SWAP2 DUP3 SWAP1 KECCAK256 PUSH1 0x8 ADD DUP1 SLOAD DUP4 MLOAD PUSH1 0x1F PUSH1 0x2 PUSH1 0x0 NOT PUSH2 0x100 PUSH1 0x1 DUP7 AND ISZERO MUL ADD SWAP1 SWAP4 AND SWAP3 SWAP1 SWAP3 DIV SWAP2 DUP3 ADD DUP5 SWAP1 DIV DUP5 MUL DUP2 ADD DUP5 ADD SWAP1 SWAP5 MSTORE DUP1 DUP5 MSTORE PUSH2 0x2608 SWAP4 DUP10 SWAP4 DUP8 SWAP4 DUP11 SWAP4 SWAP1 SWAP2 DUP4 ADD DUP3 DUP3 DUP1 ISZERO PUSH2 0x1C81 JUMPI DUP1 PUSH1 0x1F LT PUSH2 0x1C56 JUMPI PUSH2 0x100 DUP1 DUP4 SLOAD DIV MUL DUP4 MSTORE SWAP2 PUSH1 0x20 ADD SWAP2 PUSH2 0x1C81 JUMP JUMPDEST POP SWAP4 SWAP3 POP POP POP JUMP JUMPDEST PUSH1 0xC SLOAD PUSH1 0x1 PUSH1 0xA0 PUSH1 0x2 EXP SUB AND CALLER EQ DUP1 PUSH2 0x262F JUMPI POP PUSH2 0x262F CALLER PUSH1 0x1 PUSH2 0x2B60 JUMP JUMPDEST ISZERO ISZERO PUSH2 0x263A JUMPI PUSH1 0x0 DUP1 REVERT JUMPDEST PUSH1 0x0 DUP3 DUP2 MSTORE PUSH1 0x16 PUSH1 0x20 MSTORE PUSH1 0x40 DUP2 KECCAK256 SLOAD DUP4 SWAP2 LT PUSH2 0x268E JUMPI PUSH1 0x40 DUP1 MLOAD PUSH1 0xE5 PUSH1 0x2 EXP PUSH3 0x461BCD MUL DUP2 MSTORE PUSH1 0x20 PUSH1 0x4 DUP3 ADD MSTORE PUSH1 0x16 PUSH1 0x24 DUP3 ADD MSTORE PUSH1 0x0 DUP1 MLOAD PUSH1 0x20 PUSH2 0x4FB0 DUP4 CODECOPY DUP2 MLOAD SWAP2 MSTORE PUSH1 0x44 DUP3 ADD MSTORE SWAP1 MLOAD SWAP1 DUP2 SWAP1 SUB PUSH1 0x64 ADD SWAP1 REVERT JUMPDEST POP PUSH1 0x0 SWAP2 DUP3 MSTORE PUSH1 0x16 PUSH1 0x20 MSTORE PUSH1 0x40 SWAP1 SWAP2 KECCAK256 PUSH1 0x7 ADD SSTORE JUMP JUMPDEST PUSH1 0x0 SWAP1 DUP2 MSTORE PUSH1 0x17 PUSH1 0x20 MSTORE PUSH1 0x40 SWAP1 KECCAK256 SLOAD SWAP1 JUMP JUMPDEST PUSH1 0xE SLOAD PUSH1 0x1 PUSH1 0xA0 PUSH1 0x2 EXP SUB AND CALLER EQ PUSH2 0x26CD JUMPI PUSH1 0x0 DUP1 REVERT JUMPDEST PUSH1 0xE SLOAD PUSH1 0xA0 PUSH1 0x2 EXP SWAP1 DIV PUSH1 0xFF AND ISZERO PUSH2 0x26E4 JUMPI PUSH1 0x0 DUP1 REVERT JUMPDEST PUSH1 0xE DUP1 SLOAD PUSH21 0xFF0000000000000000000000000000000000000000 NOT AND PUSH1 0xA0 PUSH1 0x2 EXP OR SWAP1 SSTORE PUSH1 0x40 MLOAD PUSH32 0x6985A02210A168E66602D3235CB6DB0E70F92B3BA4D376A33C0F3D9434BFF625 SWAP1 PUSH1 0x0 SWAP1 LOG1 JUMP JUMPDEST PUSH1 0xE SLOAD PUSH1 0x0 SWAP1 DUP2 SWAP1 DUP2 SWAP1 PUSH1 0xA0 PUSH1 0x2 EXP SWAP1 DIV PUSH1 0xFF AND ISZERO PUSH2 0x2751 JUMPI PUSH1 0x0 DUP1 REVERT JUMPDEST PUSH1 0x0 DUP5 DUP2 MSTORE PUSH1 0x16 PUSH1 0x20 MSTORE PUSH1 0x40 DUP2 KECCAK256 SLOAD DUP6 SWAP2 LT PUSH2 0x27A5 JUMPI PUSH1 0x40 DUP1 MLOAD PUSH1 0xE5 PUSH1 0x2 EXP PUSH3 0x461BCD MUL DUP2 MSTORE PUSH1 0x20 PUSH1 0x4 DUP3 ADD MSTORE PUSH1 0x16 PUSH1 0x24 DUP3 ADD MSTORE PUSH1 0x0 DUP1 MLOAD PUSH1 0x20 PUSH2 0x4FB0 DUP4 CODECOPY DUP2 MLOAD SWAP2 MSTORE PUSH1 0x44 DUP3 ADD MSTORE SWAP1 MLOAD SWAP1 DUP2 SWAP1 SUB PUSH1 0x64 ADD SWAP1 REVERT JUMPDEST PUSH1 0x0 DUP6 DUP2 MSTORE PUSH1 0x16 PUSH1 0x20 MSTORE PUSH1 0x40 SWAP1 KECCAK256 PUSH1 0x9 ADD SLOAD DUP6 SWAP1 PUSH1 0xFF AND ISZERO ISZERO PUSH2 0x2812 JUMPI PUSH1 0x40 DUP1 MLOAD PUSH1 0xE5 PUSH1 0x2 EXP PUSH3 0x461BCD MUL DUP2 MSTORE PUSH1 0x20 PUSH1 0x4 DUP3 ADD MSTORE PUSH1 0x12 PUSH1 0x24 DUP3 ADD MSTORE PUSH32 0x45646974696F6E206E6F74206163746976650000000000000000000000000000 PUSH1 0x44 DUP3 ADD MSTORE SWAP1 MLOAD SWAP1 DUP2 SWAP1 SUB PUSH1 0x64 ADD SWAP1 REVERT JUMPDEST PUSH1 0x0 DUP7 DUP2 MSTORE PUSH1 0x16 PUSH1 0x20 MSTORE PUSH1 0x40 SWAP1 KECCAK256 PUSH1 0xB DUP2 ADD SLOAD PUSH1 0xA SWAP1 SWAP2 ADD SLOAD DUP8 SWAP2 GT PUSH2 0x28A8 JUMPI PUSH1 0x40 DUP1 MLOAD PUSH1 0xE5 PUSH1 0x2 EXP PUSH3 0x461BCD MUL DUP2 MSTORE PUSH1 0x20 PUSH1 0x4 DUP3 ADD MSTORE PUSH1 0x21 PUSH1 0x24 DUP3 ADD MSTORE PUSH32 0x4E6F206D6F72652065646974696F6E73206C65667420746F2070757263686173 PUSH1 0x44 DUP3 ADD MSTORE PUSH32 0x6500000000000000000000000000000000000000000000000000000000000000 PUSH1 0x64 DUP3 ADD MSTORE SWAP1 MLOAD SWAP1 DUP2 SWAP1 SUB PUSH1 0x84 ADD SWAP1 REVERT JUMPDEST PUSH1 0x0 DUP8 DUP2 MSTORE PUSH1 0x16 PUSH1 0x20 MSTORE PUSH1 0x40 SWAP1 KECCAK256 PUSH1 0x3 ADD SLOAD DUP8 SWAP1 TIMESTAMP LT ISZERO PUSH2 0x2913 JUMPI PUSH1 0x40 DUP1 MLOAD PUSH1 0xE5 PUSH1 0x2 EXP PUSH3 0x461BCD MUL DUP2 MSTORE PUSH1 0x20 PUSH1 0x4 DUP3 ADD MSTORE PUSH1 0x19 PUSH1 0x24 DUP3 ADD MSTORE PUSH32 0x45646974696F6E206E6F7420617661696C61626C652079657400000000000000 PUSH1 0x44 DUP3 ADD MSTORE SWAP1 MLOAD SWAP1 DUP2 SWAP1 SUB PUSH1 0x64 ADD SWAP1 REVERT JUMPDEST PUSH1 0x0 DUP2 DUP2 MSTORE PUSH1 0x16 PUSH1 0x20 MSTORE PUSH1 0x40 SWAP1 KECCAK256 PUSH1 0x4 ADD SLOAD TIMESTAMP GT ISZERO PUSH2 0x297C JUMPI PUSH1 0x40 DUP1 MLOAD PUSH1 0xE5 PUSH1 0x2 EXP PUSH3 0x461BCD MUL DUP2 MSTORE PUSH1 0x20 PUSH1 0x4 DUP3 ADD MSTORE PUSH1 0x1B PUSH1 0x24 DUP3 ADD MSTORE PUSH32 0x45646974696F6E206E6F206C6F6E67657220617661696C61626C650000000000 PUSH1 0x44 DUP3 ADD MSTORE SWAP1 MLOAD SWAP1 DUP2 SWAP1 SUB PUSH1 0x64 ADD SWAP1 REVERT JUMPDEST PUSH1 0x0 DUP9 DUP2 MSTORE PUSH1 0x16 PUSH1 0x20 MSTORE PUSH1 0x40 SWAP1 KECCAK256 PUSH1 0x7 DUP2 ADD SLOAD SWAP1 SWAP7 POP CALLVALUE LT ISZERO PUSH2 0x2A0F JUMPI PUSH1 0x40 DUP1 MLOAD PUSH1 0xE5 PUSH1 0x2 EXP PUSH3 0x461BCD MUL DUP2 MSTORE PUSH1 0x20 PUSH1 0x4 DUP3 ADD MSTORE PUSH1 0x2B PUSH1 0x24 DUP3 ADD MSTORE PUSH32 0x56616C7565206D7573742062652067726561746572207468616E207072696365 PUSH1 0x44 DUP3 ADD MSTORE PUSH32 0x206F662065646974696F6E000000000000000000000000000000000000000000 PUSH1 0x64 DUP3 ADD MSTORE SWAP1 MLOAD SWAP1 DUP2 SWAP1 SUB PUSH1 0x84 ADD SWAP1 REVERT JUMPDEST PUSH2 0x2A18 DUP9 PUSH2 0x3DAB JUMP JUMPDEST PUSH1 0x8 DUP8 ADD DUP1 SLOAD PUSH1 0x40 DUP1 MLOAD PUSH1 0x20 PUSH1 0x1F PUSH1 0x2 PUSH1 0x0 NOT PUSH2 0x100 PUSH1 0x1 DUP9 AND ISZERO MUL ADD SWAP1 SWAP6 AND SWAP5 SWAP1 SWAP5 DIV SWAP4 DUP5 ADD DUP2 SWAP1 DIV DUP2 MUL DUP3 ADD DUP2 ADD SWAP1 SWAP3 MSTORE DUP3 DUP2 MSTORE SWAP4 SWAP9 POP PUSH2 0x2A81 SWAP4 DUP14 SWAP4 DUP11 SWAP4 DUP15 SWAP4 DUP4 ADD DUP3 DUP3 DUP1 ISZERO PUSH2 0x1C81 JUMPI DUP1 PUSH1 0x1F LT PUSH2 0x1C56 JUMPI PUSH2 0x100 DUP1 DUP4 SLOAD DIV MUL DUP4 MSTORE SWAP2 PUSH1 0x20 ADD SWAP2 PUSH2 0x1C81 JUMP JUMPDEST PUSH2 0x2AAC DUP9 DUP8 PUSH1 0x7 ADD SLOAD DUP9 PUSH1 0x5 ADD PUSH1 0x0 SWAP1 SLOAD SWAP1 PUSH2 0x100 EXP SWAP1 DIV PUSH1 0x1 PUSH1 0xA0 PUSH1 0x2 EXP SUB AND DUP10 PUSH1 0x6 ADD SLOAD PUSH2 0x404B JUMP JUMPDEST DUP9 PUSH1 0x1 PUSH1 0xA0 PUSH1 0x2 EXP SUB AND DUP9 DUP7 PUSH32 0x145E2FF612F82ECB64F13B28A0E2825F8FD3DBA6D6FBBDEC265AA58800014C3D CALLVALUE PUSH1 0x40 MLOAD DUP1 DUP3 DUP2 MSTORE PUSH1 0x20 ADD SWAP2 POP POP PUSH1 0x40 MLOAD DUP1 SWAP2 SUB SWAP1 LOG4 POP SWAP3 SWAP8 SWAP7 POP POP POP POP POP POP POP JUMP JUMPDEST PUSH1 0xC SLOAD PUSH1 0x0 SWAP1 PUSH1 0x1 PUSH1 0xA0 PUSH1 0x2 EXP SUB AND CALLER EQ DUP1 PUSH2 0x2B1E JUMPI POP PUSH2 0x2B1E CALLER PUSH1 0x1 PUSH2 0x2B60 JUMP JUMPDEST ISZERO ISZERO PUSH2 0x2B29 JUMPI PUSH1 0x0 DUP1 REVERT JUMPDEST PUSH2 0x2B3D DUP12 DUP12 DUP12 DUP12 DUP12 DUP12 DUP12 DUP12 DUP12 DUP12 PUSH1 0x1 PUSH2 0x419F JUMP JUMPDEST SWAP12 SWAP11 POP POP POP POP POP POP POP POP POP POP POP JUMP JUMPDEST PUSH1 0xE SLOAD PUSH1 0x1 PUSH1 0xA0 PUSH1 0x2 EXP SUB AND DUP2 JUMP JUMPDEST PUSH1 0x2 DUP2 JUMP JUMPDEST PUSH1 0xFF DUP2 AND PUSH1 0x0 SWAP1 DUP2 MSTORE PUSH1 0xD PUSH1 0x20 MSTORE PUSH1 0x40 DUP2 KECCAK256 PUSH2 0x2B82 SWAP1 DUP5 PUSH4 0xFFFFFFFF PUSH2 0x46F9 AND JUMP JUMPDEST SWAP4 SWAP3 POP POP POP JUMP JUMPDEST PUSH1 0x6 DUP1 SLOAD PUSH1 0x40 DUP1 MLOAD PUSH1 0x20 PUSH1 0x1F PUSH1 0x2 PUSH1 0x0 NOT PUSH2 0x100 PUSH1 0x1 DUP9 AND ISZERO MUL ADD SWAP1 SWAP6 AND SWAP5 SWAP1 SWAP5 DIV SWAP4 DUP5 ADD DUP2 SWAP1 DIV DUP2 MUL DUP3 ADD DUP2 ADD SWAP1 SWAP3 MSTORE DUP3 DUP2 MSTORE PUSH1 0x60 SWAP4 SWAP1 SWAP3 SWAP1 SWAP2 DUP4 ADD DUP3 DUP3 DUP1 ISZERO PUSH2 0x13EF JUMPI DUP1 PUSH1 0x1F LT PUSH2 0x13C4 JUMPI PUSH2 0x100 DUP1 DUP4 SLOAD DIV MUL DUP4 MSTORE SWAP2 PUSH1 0x20 ADD SWAP2 PUSH2 0x13EF JUMP JUMPDEST PUSH1 0xC SLOAD PUSH1 0x1 PUSH1 0xA0 PUSH1 0x2 EXP SUB AND CALLER EQ DUP1 PUSH2 0x2C09 JUMPI POP PUSH2 0x2C09 CALLER PUSH1 0x1 PUSH2 0x2B60 JUMP JUMPDEST ISZERO ISZERO PUSH2 0x2C14 JUMPI PUSH1 0x0 DUP1 REVERT JUMPDEST PUSH1 0xFF DUP2 AND PUSH1 0x0 SWAP1 DUP2 MSTORE PUSH1 0xD PUSH1 0x20 MSTORE PUSH1 0x40 SWAP1 KECCAK256 PUSH2 0x2C36 SWAP1 DUP4 PUSH4 0xFFFFFFFF PUSH2 0x4718 AND JUMP JUMPDEST PUSH1 0x40 DUP1 MLOAD PUSH1 0xFF DUP4 AND DUP2 MSTORE SWAP1 MLOAD PUSH1 0x1 PUSH1 0xA0 PUSH1 0x2 EXP SUB DUP5 AND SWAP2 PUSH32 0x3824B64A1E23D936B458F4E31445C664D2BC9C14E842407917CBC100B0236A2F SWAP2 SWAP1 DUP2 SWAP1 SUB PUSH1 0x20 ADD SWAP1 LOG2 POP POP JUMP JUMPDEST PUSH1 0xC SLOAD PUSH1 0x0 SWAP1 DUP2 SWAP1 PUSH1 0x1 PUSH1 0xA0 PUSH1 0x2 EXP SUB AND CALLER EQ DUP1 PUSH2 0x2CA0 JUMPI POP PUSH2 0x2CA0 CALLER PUSH1 0x1 PUSH2 0x2B60 JUMP JUMPDEST ISZERO ISZERO PUSH2 0x2CAB JUMPI PUSH1 0x0 DUP1 REVERT JUMPDEST PUSH1 0x0 DUP6 DUP2 MSTORE PUSH1 0x16 PUSH1 0x20 MSTORE PUSH1 0x40 DUP2 KECCAK256 SLOAD DUP7 SWAP2 LT PUSH2 0x2CFF JUMPI PUSH1 0x40 DUP1 MLOAD PUSH1 0xE5 PUSH1 0x2 EXP PUSH3 0x461BCD MUL DUP2 MSTORE PUSH1 0x20 PUSH1 0x4 DUP3 ADD MSTORE PUSH1 0x16 PUSH1 0x24 DUP3 ADD MSTORE PUSH1 0x0 DUP1 MLOAD PUSH1 0x20 PUSH2 0x4FB0 DUP4 CODECOPY DUP2 MLOAD SWAP2 MSTORE PUSH1 0x44 DUP3 ADD MSTORE SWAP1 MLOAD SWAP1 DUP2 SWAP1 SUB PUSH1 0x64 ADD SWAP1 REVERT JUMPDEST PUSH1 0x0 DUP7 DUP2 MSTORE PUSH1 0x16 PUSH1 0x20 MSTORE PUSH1 0x40 DUP2 KECCAK256 PUSH1 0x6 DUP2 ADD SLOAD SWAP1 SWAP5 POP SWAP3 POP DUP6 GT ISZERO PUSH2 0x2DA4 JUMPI PUSH1 0x1 PUSH1 0xA0 PUSH1 0x2 EXP SUB DUP5 AND ISZERO ISZERO PUSH2 0x2DA4 JUMPI PUSH1 0x40 DUP1 MLOAD PUSH1 0xE5 PUSH1 0x2 EXP PUSH3 0x461BCD MUL DUP2 MSTORE PUSH1 0x20 PUSH1 0x4 DUP3 ADD MSTORE PUSH1 0x35 PUSH1 0x24 DUP3 ADD MSTORE PUSH32 0x53657474696E6720612072617465206D757374206265206163636F6D70616E69 PUSH1 0x44 DUP3 ADD MSTORE PUSH32 0x656420627920612076616C696420616464726573730000000000000000000000 PUSH1 0x64 DUP3 ADD MSTORE SWAP1 MLOAD SWAP1 DUP2 SWAP1 SUB PUSH1 0x84 ADD SWAP1 REVERT JUMPDEST PUSH1 0x64 PUSH2 0x2DB6 DUP4 DUP8 PUSH4 0xFFFFFFFF PUSH2 0x403E AND JUMP JUMPDEST GT ISZERO PUSH2 0x2E32 JUMPI PUSH1 0x40 DUP1 MLOAD PUSH1 0xE5 PUSH1 0x2 EXP PUSH3 0x461BCD MUL DUP2 MSTORE PUSH1 0x20 PUSH1 0x4 DUP3 ADD MSTORE PUSH1 0x25 PUSH1 0x24 DUP3 ADD MSTORE PUSH32 0x43616E742073657420636F6D6D697373696F6E2067726561746572207468616E PUSH1 0x44 DUP3 ADD MSTORE PUSH32 0x2031303025000000000000000000000000000000000000000000000000000000 PUSH1 0x64 DUP3 ADD MSTORE SWAP1 MLOAD SWAP1 DUP2 SWAP1 SUB PUSH1 0x84 ADD SWAP1 REVERT JUMPDEST POP POP PUSH1 0x40 DUP1 MLOAD DUP1 DUP3 ADD DUP3 MSTORE SWAP4 DUP5 MSTORE PUSH1 0x1 PUSH1 0xA0 PUSH1 0x2 EXP SUB SWAP3 DUP4 AND PUSH1 0x20 DUP1 DUP7 ADD SWAP2 DUP3 MSTORE PUSH1 0x0 SWAP7 DUP8 MSTORE PUSH1 0x15 SWAP1 MSTORE SWAP5 KECCAK256 SWAP3 MLOAD DUP4 SSTORE POP SWAP2 MLOAD PUSH1 0x1 SWAP1 SWAP2 ADD DUP1 SLOAD PUSH1 0x1 PUSH1 0xA0 PUSH1 0x2 EXP SUB NOT AND SWAP2 SWAP1 SWAP3 AND OR SWAP1 SSTORE JUMP JUMPDEST PUSH1 0x3 DUP2 JUMP JUMPDEST PUSH1 0xC SLOAD PUSH1 0x0 SWAP1 PUSH1 0x1 PUSH1 0xA0 PUSH1 0x2 EXP SUB AND CALLER EQ DUP1 PUSH2 0x2EA6 JUMPI POP PUSH2 0x2EA6 CALLER PUSH1 0x1 PUSH2 0x2B60 JUMP JUMPDEST ISZERO ISZERO PUSH2 0x2EB1 JUMPI PUSH1 0x0 DUP1 REVERT JUMPDEST PUSH2 0x2EC5 DUP13 DUP13 DUP13 DUP13 DUP13 DUP13 DUP13 DUP13 DUP13 DUP12 PUSH1 0x0 PUSH2 0x419F JUMP JUMPDEST POP PUSH2 0x2ED0 DUP13 DUP5 PUSH2 0x38E1 JUMP JUMPDEST POP PUSH1 0x1 SWAP12 SWAP11 POP POP POP POP POP POP POP POP POP POP POP JUMP JUMPDEST PUSH1 0xE SLOAD PUSH1 0x1 PUSH1 0xA0 PUSH1 0x2 EXP SUB AND CALLER EQ PUSH2 0x2EF9 JUMPI PUSH1 0x0 DUP1 REVERT JUMPDEST PUSH1 0xE SLOAD PUSH1 0x40 MLOAD PUSH1 0x1 PUSH1 0xA0 PUSH1 0x2 EXP SUB SWAP1 SWAP2 AND SWAP1 ADDRESS BALANCE DUP1 ISZERO PUSH2 0x8FC MUL SWAP2 PUSH1 0x0 DUP2 DUP2 DUP2 DUP6 DUP9 DUP9 CALL SWAP4 POP POP POP POP ISZERO DUP1 ISZERO PUSH2 0x2F33 JUMPI RETURNDATASIZE PUSH1 0x0 DUP1 RETURNDATACOPY RETURNDATASIZE PUSH1 0x0 REVERT JUMPDEST POP JUMP JUMPDEST PUSH1 0x1 PUSH1 0xA0 PUSH1 0x2 EXP SUB DUP3 AND CALLER EQ ISZERO PUSH2 0x2F4C JUMPI PUSH1 0x0 DUP1 REVERT JUMPDEST CALLER PUSH1 0x0 DUP2 DUP2 MSTORE PUSH1 0x4 PUSH1 0x20 SWAP1 DUP2 MSTORE PUSH1 0x40 DUP1 DUP4 KECCAK256 PUSH1 0x1 PUSH1 0xA0 PUSH1 0x2 EXP SUB DUP8 AND DUP1 DUP6 MSTORE SWAP1 DUP4 MSTORE SWAP3 DUP2 SWAP1 KECCAK256 DUP1 SLOAD PUSH1 0xFF NOT AND DUP7 ISZERO ISZERO SWAP1 DUP2 OR SWAP1 SWAP2 SSTORE DUP2 MLOAD SWAP1 DUP2 MSTORE SWAP1 MLOAD SWAP3 SWAP4 SWAP3 PUSH32 0x17307EAB39AB6107E8899845AD3D59BD9653F200F220920489CA2B5937696C31 SWAP3 SWAP2 DUP2 SWAP1 SUB SWAP1 SWAP2 ADD SWAP1 LOG3 POP POP JUMP JUMPDEST PUSH1 0x10 SLOAD DUP2 JUMP JUMPDEST PUSH1 0x0 JUMPDEST DUP2 MLOAD DUP2 LT ISZERO PUSH2 0x1721 JUMPI PUSH2 0x300D PUSH2 0x2FEF DUP4 DUP4 DUP2 MLOAD DUP2 LT ISZERO ISZERO PUSH2 0x2FE0 JUMPI INVALID JUMPDEST SWAP1 PUSH1 0x20 ADD SWAP1 PUSH1 0x20 MUL ADD MLOAD PUSH2 0x1FF4 JUMP JUMPDEST DUP5 DUP5 DUP5 DUP2 MLOAD DUP2 LT ISZERO ISZERO PUSH2 0x2FFE JUMPI INVALID JUMPDEST SWAP1 PUSH1 0x20 ADD SWAP1 PUSH1 0x20 MUL ADD MLOAD PUSH2 0x1C95 JUMP JUMPDEST PUSH1 0x1 ADD PUSH2 0x2FC3 JUMP JUMPDEST PUSH1 0xC SLOAD PUSH1 0x0 SWAP1 PUSH1 0x1 PUSH1 0xA0 PUSH1 0x2 EXP SUB AND CALLER EQ DUP1 PUSH2 0x3037 JUMPI POP PUSH2 0x3037 CALLER PUSH1 0x1 PUSH2 0x2B60 JUMP JUMPDEST ISZERO ISZERO PUSH2 0x3042 JUMPI PUSH1 0x0 DUP1 REVERT JUMPDEST PUSH2 0x2EC5 DUP13 DUP13 DUP13 DUP13 DUP13 DUP13 DUP13 DUP13 DUP13 DUP12 PUSH1 0x1 PUSH2 0x419F JUMP JUMPDEST PUSH1 0xC SLOAD PUSH1 0x0 SWAP1 DUP2 SWAP1 DUP2 SWAP1 DUP2 SWAP1 PUSH1 0x1 PUSH1 0xA0 PUSH1 0x2 EXP SUB AND CALLER EQ DUP1 PUSH2 0x307E JUMPI POP PUSH2 0x307E CALLER PUSH1 0x1 PUSH2 0x2B60 JUMP JUMPDEST ISZERO ISZERO PUSH2 0x3089 JUMPI PUSH1 0x0 DUP1 REVERT JUMPDEST PUSH1 0x0 DUP7 DUP2 MSTORE PUSH1 0x16 PUSH1 0x20 MSTORE PUSH1 0x40 DUP2 KECCAK256 SLOAD DUP8 SWAP2 LT PUSH2 0x30DD JUMPI PUSH1 0x40 DUP1 MLOAD PUSH1 0xE5 PUSH1 0x2 EXP PUSH3 0x461BCD MUL DUP2 MSTORE PUSH1 0x20 PUSH1 0x4 DUP3 ADD MSTORE PUSH1 0x16 PUSH1 0x24 DUP3 ADD MSTORE PUSH1 0x0 DUP1 MLOAD PUSH1 0x20 PUSH2 0x4FB0 DUP4 CODECOPY DUP2 MLOAD SWAP2 MSTORE PUSH1 0x44 DUP3 ADD MSTORE SWAP1 MLOAD SWAP1 DUP2 SWAP1 SUB PUSH1 0x64 ADD SWAP1 REVERT JUMPDEST PUSH1 0x0 DUP8 DUP2 MSTORE PUSH1 0x16 PUSH1 0x20 SWAP1 DUP2 MSTORE PUSH1 0x40 DUP1 DUP4 KECCAK256 PUSH1 0x1B DUP4 MSTORE DUP2 DUP5 KECCAK256 SLOAD PUSH1 0x5 DUP3 ADD SLOAD PUSH1 0x1 PUSH1 0xA0 PUSH1 0x2 EXP SUB AND DUP6 MSTORE PUSH1 0x1A SWAP1 SWAP4 MSTORE SWAP3 KECCAK256 DUP1 SLOAD SWAP3 SWAP8 POP SWAP1 SWAP6 POP SWAP4 POP DUP4 SWAP1 DUP6 SWAP1 DUP2 LT PUSH2 0x3123 JUMPI INVALID JUMPDEST PUSH1 0x0 SWAP2 DUP3 MSTORE PUSH1 0x20 DUP1 DUP4 KECCAK256 SWAP1 SWAP2 ADD DUP3 SWAP1 SSTORE PUSH1 0x1 PUSH1 0xA0 PUSH1 0x2 EXP SUB SWAP1 SWAP8 AND DUP1 DUP3 MSTORE PUSH1 0x1A DUP9 MSTORE PUSH1 0x40 DUP1 DUP4 KECCAK256 DUP1 SLOAD PUSH1 0x1 DUP2 ADD DUP3 SSTORE SWAP1 DUP5 MSTORE DUP10 DUP5 KECCAK256 DUP2 ADD DUP12 SWAP1 SSTORE SWAP10 DUP4 MSTORE PUSH1 0x1B SWAP1 SWAP9 MSTORE SWAP7 SWAP1 KECCAK256 SWAP7 SWAP1 SWAP7 SSTORE POP POP POP PUSH1 0x5 ADD DUP1 SLOAD PUSH1 0x1 PUSH1 0xA0 PUSH1 0x2 EXP SUB NOT AND SWAP1 SWAP2 OR SWAP1 SSTORE POP JUMP JUMPDEST PUSH1 0x0 DUP1 PUSH1 0x0 PUSH1 0x60 PUSH1 0x0 DUP1 PUSH1 0x0 DUP8 PUSH2 0x319C DUP2 PUSH2 0x1E7D JUMP JUMPDEST ISZERO ISZERO PUSH2 0x31F2 JUMPI PUSH1 0x40 DUP1 MLOAD PUSH1 0xE5 PUSH1 0x2 EXP PUSH3 0x461BCD MUL DUP2 MSTORE PUSH1 0x20 PUSH1 0x4 DUP3 ADD MSTORE PUSH1 0x17 PUSH1 0x24 DUP3 ADD MSTORE PUSH32 0x546F6B656E20494420646F6573206E6F74206578697374000000000000000000 PUSH1 0x44 DUP3 ADD MSTORE SWAP1 MLOAD SWAP1 DUP2 SWAP1 SUB PUSH1 0x64 ADD SWAP1 REVERT JUMPDEST PUSH1 0x0 DUP10 DUP2 MSTORE PUSH1 0x17 PUSH1 0x20 SWAP1 DUP2 MSTORE PUSH1 0x40 DUP1 DUP4 KECCAK256 SLOAD DUP1 DUP5 MSTORE PUSH1 0x16 SWAP1 SWAP3 MSTORE SWAP1 SWAP2 KECCAK256 PUSH1 0x2 DUP2 ADD SLOAD PUSH1 0x1 DUP3 ADD SLOAD SWAP3 SWAP6 POP SWAP1 SWAP4 POP DUP5 SWAP2 PUSH2 0x322A DUP13 PUSH2 0x3487 JUMP JUMPDEST PUSH2 0x3233 DUP14 PUSH2 0x1FF4 JUMP JUMPDEST SWAP4 SWAP14 SWAP3 SWAP13 POP SWAP1 SWAP11 POP SWAP9 POP SWAP1 SWAP7 POP SWAP5 POP POP POP POP POP JUMP JUMPDEST PUSH1 0x0 SWAP1 DUP2 MSTORE PUSH1 0x16 PUSH1 0x20 MSTORE PUSH1 0x40 SWAP1 KECCAK256 PUSH1 0xA ADD SLOAD SWAP1 JUMP JUMPDEST PUSH2 0x3268 DUP5 DUP5 DUP5 PUSH2 0x174C JUMP JUMPDEST PUSH2 0x3274 DUP5 DUP5 DUP5 DUP5 PUSH2 0x473A JUMP JUMPDEST ISZERO ISZERO PUSH2 0x15A3 JUMPI PUSH1 0x0 DUP1 REVERT JUMPDEST PUSH1 0x0 DUP2 DUP2 MSTORE PUSH1 0x17 PUSH1 0x20 MSTORE PUSH1 0x40 DUP2 KECCAK256 SLOAD DUP2 SWAP1 PUSH2 0x3299 DUP2 PUSH2 0x2018 JUMP JUMPDEST SWAP3 POP SWAP3 POP POP SWAP2 POP SWAP2 JUMP JUMPDEST PUSH1 0x0 SWAP1 DUP2 MSTORE PUSH1 0x16 PUSH1 0x20 MSTORE PUSH1 0x40 SWAP1 KECCAK256 PUSH1 0x9 ADD SLOAD PUSH1 0xFF AND SWAP1 JUMP JUMPDEST PUSH1 0x0 DUP2 DUP2 MSTORE PUSH1 0x16 PUSH1 0x20 MSTORE PUSH1 0x40 DUP2 KECCAK256 PUSH1 0xA DUP2 ADD SLOAD PUSH1 0xB DUP3 ADD SLOAD PUSH2 0x14D6 SWAP2 PUSH4 0xFFFFFFFF PUSH2 0x48A7 AND JUMP JUMPDEST PUSH1 0xC SLOAD PUSH1 0x0 SWAP1 DUP2 SWAP1 PUSH1 0x1 PUSH1 0xA0 PUSH1 0x2 EXP SUB AND CALLER EQ DUP1 PUSH2 0x3306 JUMPI POP PUSH2 0x3306 CALLER PUSH1 0x1 PUSH2 0x2B60 JUMP JUMPDEST ISZERO ISZERO PUSH2 0x3311 JUMPI PUSH1 0x0 DUP1 REVERT JUMPDEST PUSH1 0x0 DUP5 DUP2 MSTORE PUSH1 0x16 PUSH1 0x20 MSTORE PUSH1 0x40 DUP2 KECCAK256 SLOAD DUP6 SWAP2 LT PUSH2 0x3365 JUMPI PUSH1 0x40 DUP1 MLOAD PUSH1 0xE5 PUSH1 0x2 EXP PUSH3 0x461BCD MUL DUP2 MSTORE PUSH1 0x20 PUSH1 0x4 DUP3 ADD MSTORE PUSH1 0x16 PUSH1 0x24 DUP3 ADD MSTORE PUSH1 0x0 DUP1 MLOAD PUSH1 0x20 PUSH2 0x4FB0 DUP4 CODECOPY DUP2 MLOAD SWAP2 MSTORE PUSH1 0x44 DUP3 ADD MSTORE SWAP1 MLOAD SWAP1 DUP2 SWAP1 SUB PUSH1 0x64 ADD SWAP1 REVERT JUMPDEST PUSH1 0x0 DUP6 DUP2 MSTORE PUSH1 0x16 PUSH1 0x20 MSTORE PUSH1 0x40 SWAP1 KECCAK256 PUSH1 0xA DUP2 ADD SLOAD SWAP1 SWAP4 POP DUP5 LT ISZERO PUSH2 0x341E JUMPI PUSH1 0x40 DUP1 MLOAD PUSH1 0xE5 PUSH1 0x2 EXP PUSH3 0x461BCD MUL DUP2 MSTORE PUSH1 0x20 PUSH1 0x4 DUP3 ADD MSTORE PUSH1 0x45 PUSH1 0x24 DUP3 ADD MSTORE PUSH32 0x556E61626C6520746F2072656475636520617661696C61626C6520616D6F756E PUSH1 0x44 DUP3 ADD MSTORE PUSH32 0x7420746F207468652062656C6F7720746865206E756D62657220746F74616C53 PUSH1 0x64 DUP3 ADD MSTORE PUSH32 0x7570706C79000000000000000000000000000000000000000000000000000000 PUSH1 0x84 DUP3 ADD MSTORE SWAP1 MLOAD SWAP1 DUP2 SWAP1 SUB PUSH1 0xA4 ADD SWAP1 REVERT JUMPDEST PUSH1 0xB DUP4 ADD DUP1 SLOAD SWAP1 DUP6 SWAP1 SSTORE PUSH1 0x13 SLOAD SWAP1 SWAP3 POP PUSH2 0x3450 SWAP1 DUP6 SWAP1 PUSH2 0x3444 SWAP1 DUP6 PUSH4 0xFFFFFFFF PUSH2 0x48A7 AND JUMP JUMPDEST SWAP1 PUSH4 0xFFFFFFFF PUSH2 0x403E AND JUMP JUMPDEST PUSH1 0x13 SSTORE POP POP POP POP POP JUMP JUMPDEST PUSH1 0x1 DUP2 JUMP JUMPDEST PUSH1 0x0 DUP1 DUP3 ISZERO ISZERO PUSH2 0x3472 JUMPI PUSH1 0x0 SWAP2 POP PUSH2 0x14D9 JUMP JUMPDEST POP POP PUSH1 0x0 DUP2 DUP2 MSTORE PUSH1 0x16 PUSH1 0x20 MSTORE PUSH1 0x40 SWAP1 KECCAK256 SLOAD EQ SWAP1 JUMP JUMPDEST PUSH1 0x60 DUP2 PUSH2 0x3493 DUP2 PUSH2 0x1E7D JUMP JUMPDEST ISZERO ISZERO PUSH2 0x34E9 JUMPI PUSH1 0x40 DUP1 MLOAD PUSH1 0xE5 PUSH1 0x2 EXP PUSH3 0x461BCD MUL DUP2 MSTORE PUSH1 0x20 PUSH1 0x4 DUP3 ADD MSTORE PUSH1 0x17 PUSH1 0x24 DUP3 ADD MSTORE PUSH32 0x546F6B656E20494420646F6573206E6F74206578697374000000000000000000 PUSH1 0x44 DUP3 ADD MSTORE SWAP1 MLOAD SWAP1 DUP2 SWAP1 SUB PUSH1 0x64 ADD SWAP1 REVERT JUMPDEST PUSH1 0xF DUP1 SLOAD PUSH1 0x40 DUP1 MLOAD PUSH1 0x20 PUSH1 0x1F PUSH1 0x2 PUSH1 0x0 NOT PUSH2 0x100 PUSH1 0x1 DUP9 AND ISZERO MUL ADD SWAP1 SWAP6 AND SWAP5 SWAP1 SWAP5 DIV SWAP4 DUP5 ADD DUP2 SWAP1 DIV DUP2 MUL DUP3 ADD DUP2 ADD SWAP1 SWAP3 MSTORE DUP3 DUP2 MSTORE PUSH2 0x14D6 SWAP4 SWAP1 SWAP3 SWAP1 SWAP2 DUP4 ADD DUP3 DUP3 DUP1 ISZERO PUSH2 0x3576 JUMPI DUP1 PUSH1 0x1F LT PUSH2 0x354B JUMPI PUSH2 0x100 DUP1 DUP4 SLOAD DIV MUL DUP4 MSTORE SWAP2 PUSH1 0x20 ADD SWAP2 PUSH2 0x3576 JUMP JUMPDEST DUP3 ADD SWAP2 SWAP1 PUSH1 0x0 MSTORE PUSH1 0x20 PUSH1 0x0 KECCAK256 SWAP1 JUMPDEST DUP2 SLOAD DUP2 MSTORE SWAP1 PUSH1 0x1 ADD SWAP1 PUSH1 0x20 ADD DUP1 DUP4 GT PUSH2 0x3559 JUMPI DUP3 SWAP1 SUB PUSH1 0x1F AND DUP3 ADD SWAP2 JUMPDEST POP POP POP PUSH1 0x0 DUP8 DUP2 MSTORE PUSH1 0xB PUSH1 0x20 SWAP1 DUP2 MSTORE PUSH1 0x40 SWAP2 DUP3 SWAP1 KECCAK256 DUP1 SLOAD DUP4 MLOAD PUSH1 0x2 PUSH1 0x1 DUP4 AND ISZERO PUSH2 0x100 MUL PUSH1 0x0 NOT ADD SWAP1 SWAP3 AND SWAP2 SWAP1 SWAP2 DIV PUSH1 0x1F DUP2 ADD DUP5 SWAP1 DIV DUP5 MUL DUP3 ADD DUP5 ADD SWAP1 SWAP5 MSTORE DUP4 DUP2 MSTORE SWAP5 POP SWAP3 POP DUP4 ADD DUP3 DUP3 DUP1 ISZERO PUSH2 0x1A2A JUMPI DUP1 PUSH1 0x1F LT PUSH2 0x19FF JUMPI PUSH2 0x100 DUP1 DUP4 SLOAD DIV MUL DUP4 MSTORE SWAP2 PUSH1 0x20 ADD SWAP2 PUSH2 0x1A2A JUMP JUMPDEST PUSH1 0xC SLOAD PUSH1 0x0 SWAP1 DUP2 SWAP1 DUP2 SWAP1 DUP2 SWAP1 PUSH1 0x1 PUSH1 0xA0 PUSH1 0x2 EXP SUB AND CALLER EQ DUP1 PUSH2 0x360A JUMPI POP PUSH2 0x360A CALLER PUSH1 0x1 PUSH2 0x2B60 JUMP JUMPDEST ISZERO ISZERO PUSH2 0x3615 JUMPI PUSH1 0x0 DUP1 REVERT JUMPDEST PUSH1 0x0 DUP7 DUP2 MSTORE PUSH1 0x16 PUSH1 0x20 MSTORE PUSH1 0x40 DUP2 KECCAK256 SLOAD DUP8 SWAP2 LT PUSH2 0x3669 JUMPI PUSH1 0x40 DUP1 MLOAD PUSH1 0xE5 PUSH1 0x2 EXP PUSH3 0x461BCD MUL DUP2 MSTORE PUSH1 0x20 PUSH1 0x4 DUP3 ADD MSTORE PUSH1 0x16 PUSH1 0x24 DUP3 ADD MSTORE PUSH1 0x0 DUP1 MLOAD PUSH1 0x20 PUSH2 0x4FB0 DUP4 CODECOPY DUP2 MLOAD SWAP2 MSTORE PUSH1 0x44 DUP3 ADD MSTORE SWAP1 MLOAD SWAP1 DUP2 SWAP1 SUB PUSH1 0x64 ADD SWAP1 REVERT JUMPDEST PUSH1 0x0 DUP8 DUP2 MSTORE PUSH1 0x16 PUSH1 0x20 SWAP1 DUP2 MSTORE PUSH1 0x40 DUP1 DUP4 KECCAK256 PUSH1 0x2 DUP2 ADD SLOAD DUP5 MSTORE PUSH1 0x1C DUP4 MSTORE DUP2 DUP5 KECCAK256 DUP12 DUP6 MSTORE PUSH1 0x1D SWAP1 SWAP4 MSTORE SWAP3 KECCAK256 SLOAD DUP2 SLOAD SWAP3 SWAP8 POP SWAP1 SWAP6 POP SWAP4 POP DUP5 SWAP1 DUP5 SWAP1 DUP2 LT PUSH2 0x36A9 JUMPI INVALID JUMPDEST PUSH1 0x0 SWAP2 DUP3 MSTORE PUSH1 0x20 DUP1 DUP4 KECCAK256 SWAP1 SWAP2 ADD DUP3 SWAP1 SSTORE DUP8 DUP3 MSTORE PUSH1 0x1C DUP2 MSTORE PUSH1 0x40 DUP1 DUP4 KECCAK256 DUP1 SLOAD PUSH1 0x1 DUP2 ADD DUP3 SSTORE SWAP1 DUP5 MSTORE DUP3 DUP5 KECCAK256 DUP2 ADD DUP12 SWAP1 SSTORE SWAP10 DUP4 MSTORE PUSH1 0x1D SWAP1 SWAP2 MSTORE SWAP1 KECCAK256 SWAP7 SWAP1 SWAP7 SSTORE POP POP POP PUSH1 0x2 ADD SSTORE POP JUMP JUMPDEST PUSH1 0x0 SWAP1 DUP2 MSTORE PUSH1 0x15 PUSH1 0x20 MSTORE PUSH1 0x40 SWAP1 KECCAK256 DUP1 SLOAD PUSH1 0x1 SWAP1 SWAP2 ADD SLOAD SWAP1 SWAP2 PUSH1 0x1 PUSH1 0xA0 PUSH1 0x2 EXP SUB SWAP1 SWAP2 AND SWAP1 JUMP JUMPDEST PUSH1 0xC SLOAD PUSH1 0x1 PUSH1 0xA0 PUSH1 0x2 EXP SUB AND CALLER EQ DUP1 PUSH2 0x3735 JUMPI POP PUSH2 0x3735 CALLER PUSH1 0x1 PUSH2 0x2B60 JUMP JUMPDEST ISZERO ISZERO PUSH2 0x3740 JUMPI PUSH1 0x0 DUP1 REVERT JUMPDEST PUSH1 0x0 DUP3 DUP2 MSTORE PUSH1 0x16 PUSH1 0x20 MSTORE PUSH1 0x40 DUP2 KECCAK256 SLOAD DUP4 SWAP2 LT PUSH2 0x3794 JUMPI PUSH1 0x40 DUP1 MLOAD PUSH1 0xE5 PUSH1 0x2 EXP PUSH3 0x461BCD MUL DUP2 MSTORE PUSH1 0x20 PUSH1 0x4 DUP3 ADD MSTORE PUSH1 0x16 PUSH1 0x24 DUP3 ADD MSTORE PUSH1 0x0 DUP1 MLOAD PUSH1 0x20 PUSH2 0x4FB0 DUP4 CODECOPY DUP2 MLOAD SWAP2 MSTORE PUSH1 0x44 DUP3 ADD MSTORE SWAP1 MLOAD SWAP1 DUP2 SWAP1 SUB PUSH1 0x64 ADD SWAP1 REVERT JUMPDEST POP PUSH1 0x0 SWAP2 DUP3 MSTORE PUSH1 0x16 PUSH1 0x20 MSTORE PUSH1 0x40 SWAP1 SWAP2 KECCAK256 PUSH1 0x4 ADD SSTORE JUMP JUMPDEST PUSH1 0xC SLOAD PUSH1 0x0 SWAP1 PUSH1 0x1 PUSH1 0xA0 PUSH1 0x2 EXP SUB AND CALLER EQ DUP1 PUSH2 0x37CC JUMPI POP PUSH2 0x37CC CALLER PUSH1 0x1 PUSH2 0x2B60 JUMP JUMPDEST ISZERO ISZERO PUSH2 0x37D7 JUMPI PUSH1 0x0 DUP1 REVERT JUMPDEST PUSH2 0x2B3D DUP12 DUP12 DUP12 DUP12 DUP12 DUP12 DUP12 DUP12 DUP12 DUP12 PUSH1 0x0 PUSH2 0x419F JUMP JUMPDEST PUSH1 0x0 DUP2 DUP2 MSTORE PUSH1 0x1C PUSH1 0x20 SWAP1 DUP2 MSTORE PUSH1 0x40 SWAP2 DUP3 SWAP1 KECCAK256 DUP1 SLOAD DUP4 MLOAD DUP2 DUP5 MUL DUP2 ADD DUP5 ADD SWAP1 SWAP5 MSTORE DUP1 DUP5 MSTORE PUSH1 0x60 SWAP4 SWAP3 DUP4 ADD DUP3 DUP3 DUP1 ISZERO PUSH2 0x1FD8 JUMPI PUSH1 0x20 MUL DUP3 ADD SWAP2 SWAP1 PUSH1 0x0 MSTORE PUSH1 0x20 PUSH1 0x0 KECCAK256 SWAP1 DUP2 SLOAD DUP2 MSTORE PUSH1 0x20 ADD SWAP1 PUSH1 0x1 ADD SWAP1 DUP1 DUP4 GT PUSH2 0x1FC4 JUMPI POP POP POP POP POP SWAP1 POP SWAP2 SWAP1 POP JUMP JUMPDEST PUSH1 0x1 PUSH1 0xA0 PUSH1 0x2 EXP SUB SWAP2 DUP3 AND PUSH1 0x0 SWAP1 DUP2 MSTORE PUSH1 0x4 PUSH1 0x20 SWAP1 DUP2 MSTORE PUSH1 0x40 DUP1 DUP4 KECCAK256 SWAP4 SWAP1 SWAP5 AND DUP3 MSTORE SWAP2 SWAP1 SWAP2 MSTORE KECCAK256 SLOAD PUSH1 0xFF AND SWAP1 JUMP JUMPDEST PUSH1 0x0 PUSH2 0x183D CALLER DUP4 PUSH2 0x2733 JUMP JUMPDEST PUSH1 0x12 SLOAD DUP2 JUMP JUMPDEST PUSH1 0xE SLOAD PUSH1 0x1 PUSH1 0xA0 PUSH1 0x2 EXP SUB AND CALLER EQ PUSH2 0x38A2 JUMPI PUSH1 0x0 DUP1 REVERT JUMPDEST PUSH2 0x2F33 DUP2 PUSH2 0x48B9 JUMP JUMPDEST PUSH1 0x0 JUMPDEST DUP2 MLOAD DUP2 LT ISZERO PUSH2 0x15A3 JUMPI PUSH2 0x38D9 DUP5 DUP5 DUP5 DUP5 DUP2 MLOAD DUP2 LT ISZERO ISZERO PUSH2 0x38CA JUMPI INVALID JUMPDEST SWAP1 PUSH1 0x20 ADD SWAP1 PUSH1 0x20 MUL ADD MLOAD PUSH2 0x174C JUMP JUMPDEST PUSH1 0x1 ADD PUSH2 0x38AE JUMP JUMPDEST PUSH1 0xC SLOAD PUSH1 0x1 PUSH1 0xA0 PUSH1 0x2 EXP SUB AND CALLER EQ DUP1 PUSH2 0x3900 JUMPI POP PUSH2 0x3900 CALLER PUSH1 0x1 PUSH2 0x2B60 JUMP JUMPDEST ISZERO ISZERO PUSH2 0x390B JUMPI PUSH1 0x0 DUP1 REVERT JUMPDEST PUSH1 0x0 DUP3 DUP2 MSTORE PUSH1 0x16 PUSH1 0x20 MSTORE PUSH1 0x40 DUP2 KECCAK256 SLOAD DUP4 SWAP2 LT PUSH2 0x395F JUMPI PUSH1 0x40 DUP1 MLOAD PUSH1 0xE5 PUSH1 0x2 EXP PUSH3 0x461BCD MUL DUP2 MSTORE PUSH1 0x20 PUSH1 0x4 DUP3 ADD MSTORE PUSH1 0x16 PUSH1 0x24 DUP3 ADD MSTORE PUSH1 0x0 DUP1 MLOAD PUSH1 0x20 PUSH2 0x4FB0 DUP4 CODECOPY DUP2 MLOAD SWAP2 MSTORE PUSH1 0x44 DUP3 ADD MSTORE SWAP1 MLOAD SWAP1 DUP2 SWAP1 SUB PUSH1 0x64 ADD SWAP1 REVERT JUMPDEST DUP2 PUSH2 0x3969 DUP5 PUSH2 0x23F3 JUMP JUMPDEST MLOAD GT ISZERO PUSH2 0x3A0C JUMPI PUSH1 0x40 DUP1 MLOAD PUSH1 0xE5 PUSH1 0x2 EXP PUSH3 0x461BCD MUL DUP2 MSTORE PUSH1 0x20 PUSH1 0x4 DUP3 ADD MSTORE PUSH1 0x4C PUSH1 0x24 DUP3 ADD MSTORE PUSH32 0x43616E206E6F74206C6F77657220746F74616C537570706C7920746F2062656C PUSH1 0x44 DUP3 ADD MSTORE PUSH32 0x6F7720746865206E756D626572206F6620746F6B656E7320616C726561647920 PUSH1 0x64 DUP3 ADD MSTORE PUSH32 0x696E206578697374656E63650000000000000000000000000000000000000000 PUSH1 0x84 DUP3 ADD MSTORE SWAP1 MLOAD SWAP1 DUP2 SWAP1 SUB PUSH1 0xA4 ADD SWAP1 REVERT JUMPDEST POP PUSH1 0x0 SWAP2 DUP3 MSTORE PUSH1 0x16 PUSH1 0x20 MSTORE PUSH1 0x40 SWAP1 SWAP2 KECCAK256 PUSH1 0xA ADD SSTORE JUMP JUMPDEST PUSH1 0xF DUP1 SLOAD PUSH1 0x40 DUP1 MLOAD PUSH1 0x20 PUSH1 0x2 PUSH1 0x1 DUP6 AND ISZERO PUSH2 0x100 MUL PUSH1 0x0 NOT ADD SWAP1 SWAP5 AND SWAP4 SWAP1 SWAP4 DIV PUSH1 0x1F DUP2 ADD DUP5 SWAP1 DIV DUP5 MUL DUP3 ADD DUP5 ADD SWAP1 SWAP3 MSTORE DUP2 DUP2 MSTORE PUSH1 0x60 SWAP4 PUSH2 0x183D SWAP4 SWAP2 SWAP3 SWAP1 SWAP2 DUP4 ADD DUP3 DUP3 DUP1 ISZERO PUSH2 0x3AB1 JUMPI DUP1 PUSH1 0x1F LT PUSH2 0x3A86 JUMPI PUSH2 0x100 DUP1 DUP4 SLOAD DIV MUL DUP4 MSTORE SWAP2 PUSH1 0x20 ADD SWAP2 PUSH2 0x3AB1 JUMP JUMPDEST DUP3 ADD SWAP2 SWAP1 PUSH1 0x0 MSTORE PUSH1 0x20 PUSH1 0x0 KECCAK256 SWAP1 JUMPDEST DUP2 SLOAD DUP2 MSTORE SWAP1 PUSH1 0x1 ADD SWAP1 PUSH1 0x20 ADD DUP1 DUP4 GT PUSH2 0x3A94 JUMPI DUP3 SWAP1 SUB PUSH1 0x1F AND DUP3 ADD SWAP2 JUMPDEST POP POP POP PUSH1 0x0 DUP7 DUP2 MSTORE PUSH1 0xB PUSH1 0x20 SWAP1 DUP2 MSTORE PUSH1 0x40 SWAP2 DUP3 SWAP1 KECCAK256 DUP1 SLOAD DUP4 MLOAD PUSH1 0x2 PUSH1 0x1 DUP4 AND ISZERO PUSH2 0x100 MUL PUSH1 0x0 NOT ADD SWAP1 SWAP3 AND SWAP2 SWAP1 SWAP2 DIV PUSH1 0x1F DUP2 ADD DUP5 SWAP1 DIV DUP5 MUL DUP3 ADD DUP5 ADD SWAP1 SWAP5 MSTORE DUP4 DUP2 MSTORE SWAP5 POP SWAP3 POP DUP4 ADD DUP3 DUP3 DUP1 ISZERO PUSH2 0x1A2A JUMPI DUP1 PUSH1 0x1F LT PUSH2 0x19FF JUMPI PUSH2 0x100 DUP1 DUP4 SLOAD DIV MUL DUP4 MSTORE SWAP2 PUSH1 0x20 ADD SWAP2 PUSH2 0x1A2A JUMP JUMPDEST PUSH2 0x3B26 DUP3 PUSH2 0x1E7D JUMP JUMPDEST ISZERO ISZERO PUSH2 0x3B31 JUMPI PUSH1 0x0 DUP1 REVERT JUMPDEST PUSH1 0x0 DUP3 DUP2 MSTORE PUSH1 0xB PUSH1 0x20 SWAP1 DUP2 MSTORE PUSH1 0x40 SWAP1 SWAP2 KECCAK256 DUP3 MLOAD PUSH2 0x1721 SWAP3 DUP5 ADD SWAP1 PUSH2 0x4EC3 JUMP JUMPDEST PUSH2 0x3B5A DUP3 DUP3 PUSH2 0x46F9 JUMP JUMPDEST ISZERO ISZERO PUSH2 0x1748 JUMPI PUSH1 0x0 DUP1 REVERT JUMPDEST PUSH1 0x0 DUP1 PUSH2 0x3B71 DUP4 PUSH2 0x1FF4 JUMP JUMPDEST SWAP1 POP DUP1 PUSH1 0x1 PUSH1 0xA0 PUSH1 0x2 EXP SUB AND DUP5 PUSH1 0x1 PUSH1 0xA0 PUSH1 0x2 EXP SUB AND EQ DUP1 PUSH2 0x3BAC JUMPI POP DUP4 PUSH1 0x1 PUSH1 0xA0 PUSH1 0x2 EXP SUB AND PUSH2 0x3BA1 DUP5 PUSH2 0x13FA JUMP JUMPDEST PUSH1 0x1 PUSH1 0xA0 PUSH1 0x2 EXP SUB AND EQ JUMPDEST DUP1 PUSH2 0x3BBC JUMPI POP PUSH2 0x3BBC DUP2 DUP6 PUSH2 0x384B JUMP JUMPDEST SWAP5 SWAP4 POP POP POP POP JUMP JUMPDEST DUP2 PUSH1 0x1 PUSH1 0xA0 PUSH1 0x2 EXP SUB AND PUSH2 0x3BD7 DUP3 PUSH2 0x1FF4 JUMP JUMPDEST PUSH1 0x1 PUSH1 0xA0 PUSH1 0x2 EXP SUB AND EQ PUSH2 0x3BEA JUMPI PUSH1 0x0 DUP1 REVERT JUMPDEST PUSH1 0x0 DUP2 DUP2 MSTORE PUSH1 0x2 PUSH1 0x20 MSTORE PUSH1 0x40 SWAP1 KECCAK256 SLOAD PUSH1 0x1 PUSH1 0xA0 PUSH1 0x2 EXP SUB AND ISZERO PUSH2 0x1748 JUMPI PUSH1 0x0 SWAP1 DUP2 MSTORE PUSH1 0x2 PUSH1 0x20 MSTORE PUSH1 0x40 SWAP1 KECCAK256 DUP1 SLOAD PUSH1 0x1 PUSH1 0xA0 PUSH1 0x2 EXP SUB NOT AND SWAP1 SSTORE POP JUMP JUMPDEST PUSH1 0x0 DUP1 PUSH1 0x0 PUSH2 0x3C35 DUP6 DUP6 PUSH2 0x492A JUMP JUMPDEST PUSH1 0x0 DUP5 DUP2 MSTORE PUSH1 0x8 PUSH1 0x20 SWAP1 DUP2 MSTORE PUSH1 0x40 DUP1 DUP4 KECCAK256 SLOAD PUSH1 0x1 PUSH1 0xA0 PUSH1 0x2 EXP SUB DUP10 AND DUP5 MSTORE PUSH1 0x7 SWAP1 SWAP3 MSTORE SWAP1 SWAP2 KECCAK256 SLOAD SWAP1 SWAP4 POP PUSH2 0x3C70 SWAP1 PUSH1 0x1 PUSH4 0xFFFFFFFF PUSH2 0x48A7 AND JUMP JUMPDEST PUSH1 0x1 PUSH1 0xA0 PUSH1 0x2 EXP SUB DUP7 AND PUSH1 0x0 SWAP1 DUP2 MSTORE PUSH1 0x7 PUSH1 0x20 MSTORE PUSH1 0x40 SWAP1 KECCAK256 DUP1 SLOAD SWAP2 SWAP4 POP SWAP1 DUP4 SWAP1 DUP2 LT PUSH2 0x3C98 JUMPI INVALID JUMPDEST SWAP1 PUSH1 0x0 MSTORE PUSH1 0x20 PUSH1 0x0 KECCAK256 ADD SLOAD SWAP1 POP DUP1 PUSH1 0x7 PUSH1 0x0 DUP8 PUSH1 0x1 PUSH1 0xA0 PUSH1 0x2 EXP SUB AND PUSH1 0x1 PUSH1 0xA0 PUSH1 0x2 EXP SUB AND DUP2 MSTORE PUSH1 0x20 ADD SWAP1 DUP2 MSTORE PUSH1 0x20 ADD PUSH1 0x0 KECCAK256 DUP5 DUP2 SLOAD DUP2 LT ISZERO ISZERO PUSH2 0x3CD8 JUMPI INVALID JUMPDEST PUSH1 0x0 SWAP2 DUP3 MSTORE PUSH1 0x20 DUP1 DUP4 KECCAK256 SWAP1 SWAP2 ADD SWAP3 SWAP1 SWAP3 SSTORE PUSH1 0x1 PUSH1 0xA0 PUSH1 0x2 EXP SUB DUP8 AND DUP2 MSTORE PUSH1 0x7 SWAP1 SWAP2 MSTORE PUSH1 0x40 SWAP1 KECCAK256 DUP1 SLOAD SWAP1 PUSH2 0x3D0F SWAP1 PUSH1 0x0 NOT DUP4 ADD PUSH2 0x4F31 JUMP JUMPDEST POP PUSH1 0x0 SWAP4 DUP5 MSTORE PUSH1 0x8 PUSH1 0x20 MSTORE PUSH1 0x40 DUP1 DUP6 KECCAK256 DUP6 SWAP1 SSTORE SWAP1 DUP5 MSTORE SWAP1 SWAP3 KECCAK256 SSTORE POP POP JUMP JUMPDEST PUSH1 0x0 PUSH2 0x3D39 DUP4 DUP4 PUSH2 0x49B3 JUMP JUMPDEST POP PUSH1 0x1 PUSH1 0xA0 PUSH1 0x2 EXP SUB SWAP1 SWAP2 AND PUSH1 0x0 SWAP1 DUP2 MSTORE PUSH1 0x7 PUSH1 0x20 SWAP1 DUP2 MSTORE PUSH1 0x40 DUP1 DUP4 KECCAK256 DUP1 SLOAD PUSH1 0x1 DUP2 ADD DUP3 SSTORE SWAP1 DUP5 MSTORE DUP3 DUP5 KECCAK256 DUP2 ADD DUP6 SWAP1 SSTORE SWAP4 DUP4 MSTORE PUSH1 0x8 SWAP1 SWAP2 MSTORE SWAP1 KECCAK256 SSTORE JUMP JUMPDEST PUSH1 0x40 DUP1 MLOAD PUSH1 0x20 DUP2 DUP2 ADD DUP4 MSTORE PUSH1 0x0 DUP1 DUP4 MSTORE DUP4 MLOAD DUP1 DUP4 ADD DUP6 MSTORE DUP2 DUP2 MSTORE DUP5 MLOAD SWAP3 DUP4 ADD SWAP1 SWAP5 MSTORE DUP2 MSTORE PUSH1 0x60 SWAP3 PUSH2 0x2B82 SWAP3 DUP7 SWAP3 DUP7 SWAP3 SWAP1 PUSH2 0x4A36 JUMP JUMPDEST PUSH1 0x0 DUP2 DUP2 MSTORE PUSH1 0x16 PUSH1 0x20 MSTORE PUSH1 0x40 DUP2 KECCAK256 PUSH1 0xA DUP2 ADD SLOAD PUSH2 0x3DCF SWAP1 PUSH1 0x1 PUSH4 0xFFFFFFFF PUSH2 0x403E AND JUMP JUMPDEST PUSH1 0xA DUP3 ADD DUP2 SWAP1 SSTORE DUP2 SLOAD PUSH2 0x14D6 SWAP2 PUSH4 0xFFFFFFFF PUSH2 0x403E AND JUMP JUMPDEST PUSH1 0x0 PUSH2 0x3DF3 DUP6 DUP6 PUSH2 0x4C97 JUMP JUMPDEST PUSH2 0x3DFD DUP5 DUP4 PUSH2 0x3B1D JUMP JUMPDEST POP PUSH1 0x0 DUP4 DUP2 MSTORE PUSH1 0x17 PUSH1 0x20 SWAP1 DUP2 MSTORE PUSH1 0x40 DUP1 DUP4 KECCAK256 DUP6 SWAP1 SSTORE DUP5 DUP4 MSTORE PUSH1 0x18 DUP3 MSTORE DUP1 DUP4 KECCAK256 DUP1 SLOAD PUSH1 0x1 DUP1 DUP3 ADD DUP4 SSTORE SWAP2 DUP6 MSTORE DUP4 DUP6 KECCAK256 DUP2 ADD DUP9 SWAP1 SSTORE DUP8 DUP6 MSTORE PUSH1 0x19 SWAP1 SWAP4 MSTORE SWAP3 KECCAK256 DUP2 SWAP1 SSTORE PUSH1 0x12 SLOAD SWAP1 SWAP2 PUSH2 0x3E52 SWAP2 SWAP1 PUSH4 0xFFFFFFFF PUSH2 0x403E AND JUMP JUMPDEST PUSH1 0x12 SSTORE PUSH1 0x40 MLOAD PUSH1 0x1 PUSH1 0xA0 PUSH1 0x2 EXP SUB DUP7 AND SWAP1 DUP5 SWAP1 DUP7 SWAP1 PUSH32 0x259EB7B480B3D449F506927269E4665C83C69E4CD797143EAA8F84632DC7A02B SWAP1 PUSH1 0x0 SWAP1 LOG4 POP POP POP POP POP JUMP JUMPDEST PUSH1 0x0 DUP1 PUSH1 0x0 PUSH2 0x3EA3 DUP6 DUP6 PUSH2 0x4CE6 JUMP JUMPDEST PUSH1 0x0 DUP5 DUP2 MSTORE PUSH1 0xB PUSH1 0x20 MSTORE PUSH1 0x40 SWAP1 KECCAK256 SLOAD PUSH1 0x2 PUSH1 0x0 NOT PUSH2 0x100 PUSH1 0x1 DUP5 AND ISZERO MUL ADD SWAP1 SWAP2 AND DIV ISZERO PUSH2 0x3EE1 JUMPI PUSH1 0x0 DUP5 DUP2 MSTORE PUSH1 0xB PUSH1 0x20 MSTORE PUSH1 0x40 DUP2 KECCAK256 PUSH2 0x3EE1 SWAP2 PUSH2 0x4F55 JUMP JUMPDEST PUSH1 0x0 DUP5 DUP2 MSTORE PUSH1 0xA PUSH1 0x20 MSTORE PUSH1 0x40 SWAP1 KECCAK256 SLOAD PUSH1 0x9 SLOAD SWAP1 SWAP4 POP PUSH2 0x3F07 SWAP1 PUSH1 0x1 PUSH4 0xFFFFFFFF PUSH2 0x48A7 AND JUMP JUMPDEST SWAP2 POP PUSH1 0x9 DUP3 DUP2 SLOAD DUP2 LT ISZERO ISZERO PUSH2 0x3F18 JUMPI INVALID JUMPDEST SWAP1 PUSH1 0x0 MSTORE PUSH1 0x20 PUSH1 0x0 KECCAK256 ADD SLOAD SWAP1 POP DUP1 PUSH1 0x9 DUP5 DUP2 SLOAD DUP2 LT ISZERO ISZERO PUSH2 0x3F35 JUMPI INVALID JUMPDEST PUSH1 0x0 SWAP2 DUP3 MSTORE PUSH1 0x20 DUP3 KECCAK256 ADD SWAP2 SWAP1 SWAP2 SSTORE PUSH1 0x9 DUP1 SLOAD DUP5 SWAP1 DUP2 LT PUSH2 0x3F51 JUMPI INVALID JUMPDEST PUSH1 0x0 SWAP2 DUP3 MSTORE PUSH1 0x20 SWAP1 SWAP2 KECCAK256 ADD SSTORE PUSH1 0x9 DUP1 SLOAD SWAP1 PUSH2 0x3F70 SWAP1 PUSH1 0x0 NOT DUP4 ADD PUSH2 0x4F31 JUMP JUMPDEST POP PUSH1 0x0 SWAP4 DUP5 MSTORE PUSH1 0xA PUSH1 0x20 MSTORE PUSH1 0x40 DUP1 DUP6 KECCAK256 DUP6 SWAP1 SSTORE SWAP1 DUP5 MSTORE SWAP1 SWAP3 KECCAK256 SSTORE POP POP JUMP JUMPDEST PUSH1 0x1 PUSH1 0xA0 PUSH1 0x2 EXP SUB AND PUSH1 0x0 SWAP1 DUP2 MSTORE PUSH1 0x20 SWAP2 SWAP1 SWAP2 MSTORE PUSH1 0x40 SWAP1 KECCAK256 DUP1 SLOAD PUSH1 0xFF NOT AND PUSH1 0x1 OR SWAP1 SSTORE JUMP JUMPDEST PUSH1 0x0 DUP2 DUP2 MSTORE PUSH1 0x16 PUSH1 0x20 MSTORE PUSH1 0x40 DUP2 KECCAK256 DUP1 SLOAD DUP3 SWAP1 PUSH2 0x3FD6 SWAP1 PUSH1 0x1 PUSH4 0xFFFFFFFF PUSH2 0x403E AND JUMP JUMPDEST SWAP1 POP JUMPDEST PUSH2 0x3FE2 DUP2 PUSH2 0x1E7D JUMP JUMPDEST ISZERO PUSH2 0x3FFF JUMPI PUSH2 0x3FF8 DUP2 PUSH1 0x1 PUSH4 0xFFFFFFFF PUSH2 0x403E AND JUMP JUMPDEST SWAP1 POP PUSH2 0x3FD9 JUMP JUMPDEST PUSH1 0xA DUP3 ADD SLOAD DUP3 SLOAD PUSH2 0x4015 SWAP2 PUSH4 0xFFFFFFFF PUSH2 0x403E AND JUMP JUMPDEST DUP2 GT ISZERO PUSH2 0x2B82 JUMPI PUSH1 0xA DUP3 ADD SLOAD PUSH2 0x4032 SWAP1 PUSH1 0x1 PUSH4 0xFFFFFFFF PUSH2 0x403E AND JUMP JUMPDEST PUSH1 0xA DUP4 ADD SSTORE SWAP4 SWAP3 POP POP POP JUMP JUMPDEST DUP2 DUP2 ADD DUP3 DUP2 LT ISZERO PUSH2 0x183D JUMPI INVALID JUMPDEST PUSH1 0x0 DUP1 DUP1 DUP1 PUSH2 0x4071 DUP6 PUSH2 0x4065 DUP10 PUSH1 0x64 PUSH4 0xFFFFFFFF PUSH2 0x4D36 AND JUMP JUMPDEST SWAP1 PUSH4 0xFFFFFFFF PUSH2 0x4D4B AND JUMP JUMPDEST SWAP4 POP PUSH1 0x0 DUP5 GT ISZERO PUSH2 0x40B4 JUMPI PUSH1 0x40 MLOAD PUSH1 0x1 PUSH1 0xA0 PUSH1 0x2 EXP SUB DUP8 AND SWAP1 DUP6 ISZERO PUSH2 0x8FC MUL SWAP1 DUP7 SWAP1 PUSH1 0x0 DUP2 DUP2 DUP2 DUP6 DUP9 DUP9 CALL SWAP4 POP POP POP POP ISZERO DUP1 ISZERO PUSH2 0x40B2 JUMPI RETURNDATASIZE PUSH1 0x0 DUP1 RETURNDATACOPY RETURNDATASIZE PUSH1 0x0 REVERT JUMPDEST POP JUMPDEST PUSH1 0x0 DUP9 DUP2 MSTORE PUSH1 0x15 PUSH1 0x20 MSTORE PUSH1 0x40 DUP2 KECCAK256 DUP1 SLOAD SWAP1 SWAP5 POP GT ISZERO PUSH2 0x4123 JUMPI DUP3 SLOAD PUSH2 0x40E4 SWAP1 PUSH2 0x4065 DUP10 PUSH1 0x64 PUSH4 0xFFFFFFFF PUSH2 0x4D36 AND JUMP JUMPDEST PUSH1 0x1 DUP5 ADD SLOAD PUSH1 0x40 MLOAD SWAP2 SWAP4 POP PUSH1 0x1 PUSH1 0xA0 PUSH1 0x2 EXP SUB AND SWAP1 DUP4 ISZERO PUSH2 0x8FC MUL SWAP1 DUP5 SWAP1 PUSH1 0x0 DUP2 DUP2 DUP2 DUP6 DUP9 DUP9 CALL SWAP4 POP POP POP POP ISZERO DUP1 ISZERO PUSH2 0x4121 JUMPI RETURNDATASIZE PUSH1 0x0 DUP1 RETURNDATACOPY RETURNDATASIZE PUSH1 0x0 REVERT JUMPDEST POP JUMPDEST PUSH2 0x4143 DUP3 PUSH2 0x4137 CALLVALUE DUP8 PUSH4 0xFFFFFFFF PUSH2 0x48A7 AND JUMP JUMPDEST SWAP1 PUSH4 0xFFFFFFFF PUSH2 0x48A7 AND JUMP JUMPDEST PUSH1 0x14 SLOAD PUSH1 0x40 MLOAD SWAP2 SWAP3 POP PUSH1 0x1 PUSH1 0xA0 PUSH1 0x2 EXP SUB AND SWAP1 DUP3 ISZERO PUSH2 0x8FC MUL SWAP1 DUP4 SWAP1 PUSH1 0x0 DUP2 DUP2 DUP2 DUP6 DUP9 DUP9 CALL SWAP4 POP POP POP POP ISZERO DUP1 ISZERO PUSH2 0x417E JUMPI RETURNDATASIZE PUSH1 0x0 DUP1 RETURNDATACOPY RETURNDATASIZE PUSH1 0x0 REVERT JUMPDEST POP PUSH1 0x11 SLOAD PUSH2 0x4192 SWAP1 CALLVALUE PUSH4 0xFFFFFFFF PUSH2 0x403E AND JUMP JUMPDEST PUSH1 0x11 SSTORE POP POP POP POP POP POP POP POP JUMP JUMPDEST PUSH1 0x0 DUP1 DUP13 ISZERO ISZERO PUSH2 0x41F9 JUMPI PUSH1 0x40 DUP1 MLOAD PUSH1 0xE5 PUSH1 0x2 EXP PUSH3 0x461BCD MUL DUP2 MSTORE PUSH1 0x20 PUSH1 0x4 DUP3 ADD MSTORE PUSH1 0x1B PUSH1 0x24 DUP3 ADD MSTORE PUSH32 0x45646974696F6E206E756D626572206E6F742070726F76696465640000000000 PUSH1 0x44 DUP3 ADD MSTORE SWAP1 MLOAD SWAP1 DUP2 SWAP1 SUB PUSH1 0x64 ADD SWAP1 REVERT JUMPDEST PUSH1 0x10 SLOAD DUP14 GT PUSH2 0x4278 JUMPI PUSH1 0x40 DUP1 MLOAD PUSH1 0xE5 PUSH1 0x2 EXP PUSH3 0x461BCD MUL DUP2 MSTORE PUSH1 0x20 PUSH1 0x4 DUP3 ADD MSTORE PUSH1 0x33 PUSH1 0x24 DUP3 ADD MSTORE PUSH32 0x45646974696F6E206E756D626572206D75737420626520677265617465722074 PUSH1 0x44 DUP3 ADD MSTORE PUSH32 0x68616E2070726576696F75736C79207573656400000000000000000000000000 PUSH1 0x64 DUP3 ADD MSTORE SWAP1 MLOAD SWAP1 DUP2 SWAP1 SUB PUSH1 0x84 ADD SWAP1 REVERT JUMPDEST PUSH1 0x10 SLOAD PUSH1 0x0 DUP2 DUP2 MSTORE PUSH1 0x16 PUSH1 0x20 MSTORE PUSH1 0x40 SWAP1 KECCAK256 PUSH1 0xB ADD SLOAD DUP15 SWAP2 PUSH2 0x429E SWAP2 PUSH4 0xFFFFFFFF PUSH2 0x403E AND JUMP JUMPDEST LT PUSH2 0x433F JUMPI PUSH1 0x40 DUP1 MLOAD PUSH1 0xE5 PUSH1 0x2 EXP PUSH3 0x461BCD MUL DUP2 MSTORE PUSH1 0x20 PUSH1 0x4 DUP3 ADD MSTORE PUSH1 0x48 PUSH1 0x24 DUP3 ADD MSTORE PUSH32 0x45646974696F6E206E756D626572206D75737420626520677265617465722074 PUSH1 0x44 DUP3 ADD MSTORE PUSH32 0x68616E2070726576696F75736C79207573656420706C757320746F74616C2061 PUSH1 0x64 DUP3 ADD MSTORE PUSH32 0x7661696C61626C65000000000000000000000000000000000000000000000000 PUSH1 0x84 DUP3 ADD MSTORE SWAP1 MLOAD SWAP1 DUP2 SWAP1 SUB PUSH1 0xA4 ADD SWAP1 REVERT JUMPDEST DUP11 ISZERO ISZERO PUSH2 0x4396 JUMPI PUSH1 0x40 DUP1 MLOAD PUSH1 0xE5 PUSH1 0x2 EXP PUSH3 0x461BCD MUL DUP2 MSTORE PUSH1 0x20 PUSH1 0x4 DUP3 ADD MSTORE PUSH1 0x19 PUSH1 0x24 DUP3 ADD MSTORE PUSH32 0x45646974696F6E2074797065206E6F742070726F766964656400000000000000 PUSH1 0x44 DUP3 ADD MSTORE SWAP1 MLOAD SWAP1 DUP2 SWAP1 SUB PUSH1 0x64 ADD SWAP1 REVERT JUMPDEST DUP5 MLOAD ISZERO ISZERO PUSH2 0x43EE JUMPI PUSH1 0x40 DUP1 MLOAD PUSH1 0xE5 PUSH1 0x2 EXP PUSH3 0x461BCD MUL DUP2 MSTORE PUSH1 0x20 PUSH1 0x4 DUP3 ADD MSTORE PUSH1 0x14 PUSH1 0x24 DUP3 ADD MSTORE PUSH32 0x546F6B656E20555249206973206D697373696E67000000000000000000000000 PUSH1 0x44 DUP3 ADD MSTORE SWAP1 MLOAD SWAP1 DUP2 SWAP1 SUB PUSH1 0x64 ADD SWAP1 REVERT JUMPDEST PUSH1 0x1 PUSH1 0xA0 PUSH1 0x2 EXP SUB DUP9 AND ISZERO ISZERO PUSH2 0x444E JUMPI PUSH1 0x40 DUP1 MLOAD PUSH1 0xE5 PUSH1 0x2 EXP PUSH3 0x461BCD MUL DUP2 MSTORE PUSH1 0x20 PUSH1 0x4 DUP3 ADD MSTORE PUSH1 0x1B PUSH1 0x24 DUP3 ADD MSTORE PUSH32 0x417274697374206163636F756E74206E6F742070726F76696465640000000000 PUSH1 0x44 DUP3 ADD MSTORE SWAP1 MLOAD SWAP1 DUP2 SWAP1 SUB PUSH1 0x64 ADD SWAP1 REVERT JUMPDEST PUSH1 0x64 DUP8 GT ISZERO DUP1 ISZERO PUSH2 0x4460 JUMPI POP PUSH1 0x0 DUP8 LT ISZERO JUMPDEST ISZERO ISZERO PUSH2 0x44DC JUMPI PUSH1 0x40 DUP1 MLOAD PUSH1 0xE5 PUSH1 0x2 EXP PUSH3 0x461BCD MUL DUP2 MSTORE PUSH1 0x20 PUSH1 0x4 DUP3 ADD MSTORE PUSH1 0x3B PUSH1 0x24 DUP3 ADD MSTORE PUSH32 0x41727469737420636F6D6D697373696F6E2063616E6E6F742062652067726561 PUSH1 0x44 DUP3 ADD MSTORE PUSH32 0x746572207468616E20313030206F72206C657373207468616E20300000000000 PUSH1 0x64 DUP3 ADD MSTORE SWAP1 MLOAD SWAP1 DUP2 SWAP1 SUB PUSH1 0x84 ADD SWAP1 REVERT JUMPDEST PUSH1 0x0 DUP14 DUP2 MSTORE PUSH1 0x16 PUSH1 0x20 MSTORE PUSH1 0x40 SWAP1 KECCAK256 SLOAD ISZERO PUSH2 0x4540 JUMPI PUSH1 0x40 DUP1 MLOAD PUSH1 0xE5 PUSH1 0x2 EXP PUSH3 0x461BCD MUL DUP2 MSTORE PUSH1 0x20 PUSH1 0x4 DUP3 ADD MSTORE PUSH1 0x1C PUSH1 0x24 DUP3 ADD MSTORE PUSH32 0x45646974696F6E20616C726561647920696E206578697374656E636500000000 PUSH1 0x44 DUP3 ADD MSTORE SWAP1 MLOAD SWAP1 DUP2 SWAP1 SUB PUSH1 0x64 ADD SWAP1 REVERT JUMPDEST POP DUP8 DUP1 ISZERO ISZERO PUSH2 0x4550 JUMPI POP PUSH4 0xFFFFFFFF JUMPDEST PUSH2 0x180 PUSH1 0x40 MLOAD SWAP1 DUP2 ADD PUSH1 0x40 MSTORE DUP1 DUP15 DUP2 MSTORE PUSH1 0x20 ADD DUP14 PUSH1 0x0 NOT AND DUP2 MSTORE PUSH1 0x20 ADD DUP13 DUP2 MSTORE PUSH1 0x20 ADD DUP12 DUP2 MSTORE PUSH1 0x20 ADD DUP3 DUP2 MSTORE PUSH1 0x20 ADD DUP10 PUSH1 0x1 PUSH1 0xA0 PUSH1 0x2 EXP SUB AND DUP2 MSTORE PUSH1 0x20 ADD DUP9 DUP2 MSTORE PUSH1 0x20 ADD DUP8 DUP2 MSTORE PUSH1 0x20 ADD DUP7 DUP2 MSTORE PUSH1 0x20 ADD DUP5 ISZERO ISZERO DUP2 MSTORE PUSH1 0x20 ADD PUSH1 0x0 DUP2 MSTORE PUSH1 0x20 ADD DUP6 DUP2 MSTORE POP PUSH1 0x16 PUSH1 0x0 DUP16 DUP2 MSTORE PUSH1 0x20 ADD SWAP1 DUP2 MSTORE PUSH1 0x20 ADD PUSH1 0x0 KECCAK256 PUSH1 0x0 DUP3 ADD MLOAD DUP2 PUSH1 0x0 ADD SSTORE PUSH1 0x20 DUP3 ADD MLOAD DUP2 PUSH1 0x1 ADD SWAP1 PUSH1 0x0 NOT AND SWAP1 SSTORE PUSH1 0x40 DUP3 ADD MLOAD DUP2 PUSH1 0x2 ADD SSTORE PUSH1 0x60 DUP3 ADD MLOAD DUP2 PUSH1 0x3 ADD SSTORE PUSH1 0x80 DUP3 ADD MLOAD DUP2 PUSH1 0x4 ADD SSTORE PUSH1 0xA0 DUP3 ADD MLOAD DUP2 PUSH1 0x5 ADD PUSH1 0x0 PUSH2 0x100 EXP DUP2 SLOAD DUP2 PUSH1 0x1 PUSH1 0xA0 PUSH1 0x2 EXP SUB MUL NOT AND SWAP1 DUP4 PUSH1 0x1 PUSH1 0xA0 PUSH1 0x2 EXP SUB AND MUL OR SWAP1 SSTORE POP PUSH1 0xC0 DUP3 ADD MLOAD DUP2 PUSH1 0x6 ADD SSTORE PUSH1 0xE0 DUP3 ADD MLOAD DUP2 PUSH1 0x7 ADD SSTORE PUSH2 0x100 DUP3 ADD MLOAD DUP2 PUSH1 0x8 ADD SWAP1 DUP1 MLOAD SWAP1 PUSH1 0x20 ADD SWAP1 PUSH2 0x465C SWAP3 SWAP2 SWAP1 PUSH2 0x4EC3 JUMP JUMPDEST POP PUSH2 0x120 DUP3 ADD MLOAD PUSH1 0x9 DUP3 ADD DUP1 SLOAD PUSH1 0xFF NOT AND SWAP2 ISZERO ISZERO SWAP2 SWAP1 SWAP2 OR SWAP1 SSTORE PUSH2 0x140 DUP3 ADD MLOAD PUSH1 0xA DUP3 ADD SSTORE PUSH2 0x160 SWAP1 SWAP2 ADD MLOAD PUSH1 0xB SWAP1 SWAP2 ADD SSTORE PUSH1 0x13 SLOAD PUSH2 0x469B SWAP1 DUP6 PUSH2 0x403E JUMP JUMPDEST PUSH1 0x13 SSTORE PUSH2 0x46A8 DUP9 DUP15 PUSH2 0x4D74 JUMP JUMPDEST PUSH2 0x46B2 DUP12 DUP15 PUSH2 0x4DB0 JUMP JUMPDEST PUSH1 0x40 MLOAD DUP12 SWAP1 DUP14 SWAP1 DUP16 SWAP1 PUSH32 0xF702F09CE66E1A7F60E909CFB5B6400CE4967F4FD691158BD96066CB89C5C078 SWAP1 PUSH1 0x0 SWAP1 LOG4 POP POP POP PUSH1 0x10 SWAP10 SWAP1 SWAP10 SSTORE POP PUSH1 0x1 SWAP9 SWAP8 POP POP POP POP POP POP POP POP JUMP JUMPDEST PUSH1 0x1 PUSH1 0xA0 PUSH1 0x2 EXP SUB AND PUSH1 0x0 SWAP1 DUP2 MSTORE PUSH1 0x20 SWAP2 SWAP1 SWAP2 MSTORE PUSH1 0x40 SWAP1 KECCAK256 SLOAD PUSH1 0xFF AND SWAP1 JUMP JUMPDEST PUSH1 0x1 PUSH1 0xA0 PUSH1 0x2 EXP SUB AND PUSH1 0x0 SWAP1 DUP2 MSTORE PUSH1 0x20 SWAP2 SWAP1 SWAP2 MSTORE PUSH1 0x40 SWAP1 KECCAK256 DUP1 SLOAD PUSH1 0xFF NOT AND SWAP1 SSTORE JUMP JUMPDEST PUSH1 0x0 DUP1 PUSH2 0x474F DUP6 PUSH1 0x1 PUSH1 0xA0 PUSH1 0x2 EXP SUB AND PUSH2 0x4DE2 JUMP JUMPDEST ISZERO ISZERO PUSH2 0x475E JUMPI PUSH1 0x1 SWAP2 POP PUSH2 0x489E JUMP JUMPDEST PUSH1 0x40 MLOAD PUSH32 0x150B7A0200000000000000000000000000000000000000000000000000000000 DUP2 MSTORE CALLER PUSH1 0x4 DUP3 ADD DUP2 DUP2 MSTORE PUSH1 0x1 PUSH1 0xA0 PUSH1 0x2 EXP SUB DUP10 DUP2 AND PUSH1 0x24 DUP6 ADD MSTORE PUSH1 0x44 DUP5 ADD DUP9 SWAP1 MSTORE PUSH1 0x80 PUSH1 0x64 DUP6 ADD SWAP1 DUP2 MSTORE DUP8 MLOAD PUSH1 0x84 DUP7 ADD MSTORE DUP8 MLOAD SWAP2 DUP11 AND SWAP5 PUSH4 0x150B7A02 SWAP5 SWAP4 DUP13 SWAP4 DUP12 SWAP4 DUP12 SWAP4 SWAP1 SWAP2 PUSH1 0xA4 SWAP1 SWAP2 ADD SWAP1 PUSH1 0x20 DUP6 ADD SWAP1 DUP1 DUP4 DUP4 PUSH1 0x0 JUMPDEST DUP4 DUP2 LT ISZERO PUSH2 0x47F1 JUMPI DUP2 DUP2 ADD MLOAD DUP4 DUP3 ADD MSTORE PUSH1 0x20 ADD PUSH2 0x47D9 JUMP JUMPDEST POP POP POP POP SWAP1 POP SWAP1 DUP2 ADD SWAP1 PUSH1 0x1F AND DUP1 ISZERO PUSH2 0x481E JUMPI DUP1 DUP3 SUB DUP1 MLOAD PUSH1 0x1 DUP4 PUSH1 0x20 SUB PUSH2 0x100 EXP SUB NOT AND DUP2 MSTORE PUSH1 0x20 ADD SWAP2 POP JUMPDEST POP SWAP6 POP POP POP POP POP POP PUSH1 0x20 PUSH1 0x40 MLOAD DUP1 DUP4 SUB DUP2 PUSH1 0x0 DUP8 DUP1 EXTCODESIZE ISZERO DUP1 ISZERO PUSH2 0x4840 JUMPI PUSH1 0x0 DUP1 REVERT JUMPDEST POP GAS CALL ISZERO DUP1 ISZERO PUSH2 0x4854 JUMPI RETURNDATASIZE PUSH1 0x0 DUP1 RETURNDATACOPY RETURNDATASIZE PUSH1 0x0 REVERT JUMPDEST POP POP POP POP PUSH1 0x40 MLOAD RETURNDATASIZE PUSH1 0x20 DUP2 LT ISZERO PUSH2 0x486A JUMPI PUSH1 0x0 DUP1 REVERT JUMPDEST POP MLOAD PUSH1 0x1 PUSH1 0xE0 PUSH1 0x2 EXP SUB NOT DUP2 AND PUSH32 0x150B7A0200000000000000000000000000000000000000000000000000000000 EQ SWAP3 POP SWAP1 POP JUMPDEST POP SWAP5 SWAP4 POP POP POP POP JUMP JUMPDEST PUSH1 0x0 DUP3 DUP3 GT ISZERO PUSH2 0x48B3 JUMPI INVALID JUMPDEST POP SWAP1 SUB SWAP1 JUMP JUMPDEST PUSH1 0x1 PUSH1 0xA0 PUSH1 0x2 EXP SUB DUP2 AND ISZERO ISZERO PUSH2 0x48CE JUMPI PUSH1 0x0 DUP1 REVERT JUMPDEST PUSH1 0xE SLOAD PUSH1 0x40 MLOAD PUSH1 0x1 PUSH1 0xA0 PUSH1 0x2 EXP SUB DUP1 DUP5 AND SWAP3 AND SWAP1 PUSH32 0x8BE0079C531659141344CD1FD0A4F28419497F9722A3DAAFE3B4186F6B6457E0 SWAP1 PUSH1 0x0 SWAP1 LOG3 PUSH1 0xE DUP1 SLOAD PUSH1 0x1 PUSH1 0xA0 PUSH1 0x2 EXP SUB NOT AND PUSH1 0x1 PUSH1 0xA0 PUSH1 0x2 EXP SUB SWAP3 SWAP1 SWAP3 AND SWAP2 SWAP1 SWAP2 OR SWAP1 SSTORE JUMP JUMPDEST DUP2 PUSH1 0x1 PUSH1 0xA0 PUSH1 0x2 EXP SUB AND PUSH2 0x493D DUP3 PUSH2 0x1FF4 JUMP JUMPDEST PUSH1 0x1 PUSH1 0xA0 PUSH1 0x2 EXP SUB AND EQ PUSH2 0x4950 JUMPI PUSH1 0x0 DUP1 REVERT JUMPDEST PUSH1 0x1 PUSH1 0xA0 PUSH1 0x2 EXP SUB DUP3 AND PUSH1 0x0 SWAP1 DUP2 MSTORE PUSH1 0x3 PUSH1 0x20 MSTORE PUSH1 0x40 SWAP1 KECCAK256 SLOAD PUSH2 0x497A SWAP1 PUSH1 0x1 PUSH4 0xFFFFFFFF PUSH2 0x48A7 AND JUMP JUMPDEST PUSH1 0x1 PUSH1 0xA0 PUSH1 0x2 EXP SUB SWAP1 SWAP3 AND PUSH1 0x0 SWAP1 DUP2 MSTORE PUSH1 0x3 PUSH1 0x20 SWAP1 DUP2 MSTORE PUSH1 0x40 DUP1 DUP4 KECCAK256 SWAP5 SWAP1 SWAP5 SSTORE SWAP2 DUP2 MSTORE PUSH1 0x1 SWAP1 SWAP2 MSTORE KECCAK256 DUP1 SLOAD PUSH1 0x1 PUSH1 0xA0 PUSH1 0x2 EXP SUB NOT AND SWAP1 SSTORE JUMP JUMPDEST PUSH1 0x0 DUP2 DUP2 MSTORE PUSH1 0x1 PUSH1 0x20 MSTORE PUSH1 0x40 SWAP1 KECCAK256 SLOAD PUSH1 0x1 PUSH1 0xA0 PUSH1 0x2 EXP SUB AND ISZERO PUSH2 0x49D5 JUMPI PUSH1 0x0 DUP1 REVERT JUMPDEST PUSH1 0x0 DUP2 DUP2 MSTORE PUSH1 0x1 PUSH1 0x20 DUP2 DUP2 MSTORE PUSH1 0x40 DUP1 DUP5 KECCAK256 DUP1 SLOAD PUSH1 0x1 PUSH1 0xA0 PUSH1 0x2 EXP SUB NOT AND PUSH1 0x1 PUSH1 0xA0 PUSH1 0x2 EXP SUB DUP9 AND SWAP1 DUP2 OR SWAP1 SWAP2 SSTORE DUP5 MSTORE PUSH1 0x3 SWAP1 SWAP2 MSTORE SWAP1 SWAP2 KECCAK256 SLOAD PUSH2 0x4A16 SWAP2 PUSH2 0x403E JUMP JUMPDEST PUSH1 0x1 PUSH1 0xA0 PUSH1 0x2 EXP SUB SWAP1 SWAP3 AND PUSH1 0x0 SWAP1 DUP2 MSTORE PUSH1 0x3 PUSH1 0x20 MSTORE PUSH1 0x40 SWAP1 KECCAK256 SWAP2 SWAP1 SWAP2 SSTORE POP JUMP JUMPDEST PUSH1 0x60 DUP1 PUSH1 0x60 DUP1 PUSH1 0x60 DUP1 PUSH1 0x60 DUP1 PUSH1 0x0 DUP1 DUP15 SWAP9 POP DUP14 SWAP8 POP DUP13 SWAP7 POP DUP12 SWAP6 POP DUP11 SWAP5 POP DUP5 MLOAD DUP7 MLOAD DUP9 MLOAD DUP11 MLOAD DUP13 MLOAD ADD ADD ADD ADD PUSH1 0x40 MLOAD SWAP1 DUP1 DUP3 MSTORE DUP1 PUSH1 0x1F ADD PUSH1 0x1F NOT AND PUSH1 0x20 ADD DUP3 ADD PUSH1 0x40 MSTORE DUP1 ISZERO PUSH2 0x4A8F JUMPI DUP2 PUSH1 0x20 ADD PUSH1 0x20 DUP3 MUL DUP1 CODESIZE DUP4 CODECOPY ADD SWAP1 POP JUMPDEST POP SWAP4 POP DUP4 SWAP3 POP PUSH1 0x0 SWAP2 POP PUSH1 0x0 SWAP1 POP JUMPDEST DUP9 MLOAD DUP2 LT ISZERO PUSH2 0x4AFC JUMPI DUP9 DUP2 DUP2 MLOAD DUP2 LT ISZERO ISZERO PUSH2 0x4AB5 JUMPI INVALID JUMPDEST SWAP1 PUSH1 0x20 ADD ADD MLOAD PUSH1 0xF8 PUSH1 0x2 EXP SWAP1 DIV PUSH1 0xF8 PUSH1 0x2 EXP MUL DUP4 DUP4 DUP1 PUSH1 0x1 ADD SWAP5 POP DUP2 MLOAD DUP2 LT ISZERO ISZERO PUSH2 0x4ADC JUMPI INVALID JUMPDEST SWAP1 PUSH1 0x20 ADD ADD SWAP1 PUSH1 0x1 PUSH1 0xF8 PUSH1 0x2 EXP SUB NOT AND SWAP1 DUP2 PUSH1 0x0 BYTE SWAP1 MSTORE8 POP PUSH1 0x1 ADD PUSH2 0x4A9E JUMP JUMPDEST POP PUSH1 0x0 JUMPDEST DUP8 MLOAD DUP2 LT ISZERO PUSH2 0x4B5E JUMPI DUP8 DUP2 DUP2 MLOAD DUP2 LT ISZERO ISZERO PUSH2 0x4B17 JUMPI INVALID JUMPDEST SWAP1 PUSH1 0x20 ADD ADD MLOAD PUSH1 0xF8 PUSH1 0x2 EXP SWAP1 DIV PUSH1 0xF8 PUSH1 0x2 EXP MUL DUP4 DUP4 DUP1 PUSH1 0x1 ADD SWAP5 POP DUP2 MLOAD DUP2 LT ISZERO ISZERO PUSH2 0x4B3E JUMPI INVALID JUMPDEST SWAP1 PUSH1 0x20 ADD ADD SWAP1 PUSH1 0x1 PUSH1 0xF8 PUSH1 0x2 EXP SUB NOT AND SWAP1 DUP2 PUSH1 0x0 BYTE SWAP1 MSTORE8 POP PUSH1 0x1 ADD PUSH2 0x4B00 JUMP JUMPDEST POP PUSH1 0x0 JUMPDEST DUP7 MLOAD DUP2 LT ISZERO PUSH2 0x4BC0 JUMPI DUP7 DUP2 DUP2 MLOAD DUP2 LT ISZERO ISZERO PUSH2 0x4B79 JUMPI INVALID JUMPDEST SWAP1 PUSH1 0x20 ADD ADD MLOAD PUSH1 0xF8 PUSH1 0x2 EXP SWAP1 DIV PUSH1 0xF8 PUSH1 0x2 EXP MUL DUP4 DUP4 DUP1 PUSH1 0x1 ADD SWAP5 POP DUP2 MLOAD DUP2 LT ISZERO ISZERO PUSH2 0x4BA0 JUMPI INVALID JUMPDEST SWAP1 PUSH1 0x20 ADD ADD SWAP1 PUSH1 0x1 PUSH1 0xF8 PUSH1 0x2 EXP SUB NOT AND SWAP1 DUP2 PUSH1 0x0 BYTE SWAP1 MSTORE8 POP PUSH1 0x1 ADD PUSH2 0x4B62 JUMP JUMPDEST POP PUSH1 0x0 JUMPDEST DUP6 MLOAD DUP2 LT ISZERO PUSH2 0x4C22 JUMPI DUP6 DUP2 DUP2 MLOAD DUP2 LT ISZERO ISZERO PUSH2 0x4BDB JUMPI INVALID JUMPDEST SWAP1 PUSH1 0x20 ADD ADD MLOAD PUSH1 0xF8 PUSH1 0x2 EXP SWAP1 DIV PUSH1 0xF8 PUSH1 0x2 EXP MUL DUP4 DUP4 DUP1 PUSH1 0x1 ADD SWAP5 POP DUP2 MLOAD DUP2 LT ISZERO ISZERO PUSH2 0x4C02 JUMPI INVALID JUMPDEST SWAP1 PUSH1 0x20 ADD ADD SWAP1 PUSH1 0x1 PUSH1 0xF8 PUSH1 0x2 EXP SUB NOT AND SWAP1 DUP2 PUSH1 0x0 BYTE SWAP1 MSTORE8 POP PUSH1 0x1 ADD PUSH2 0x4BC4 JUMP JUMPDEST POP PUSH1 0x0 JUMPDEST DUP5 MLOAD DUP2 LT ISZERO PUSH2 0x4C84 JUMPI DUP5 DUP2 DUP2 MLOAD DUP2 LT ISZERO ISZERO PUSH2 0x4C3D JUMPI INVALID JUMPDEST SWAP1 PUSH1 0x20 ADD ADD MLOAD PUSH1 0xF8 PUSH1 0x2 EXP SWAP1 DIV PUSH1 0xF8 PUSH1 0x2 EXP MUL DUP4 DUP4 DUP1 PUSH1 0x1 ADD SWAP5 POP DUP2 MLOAD DUP2 LT ISZERO ISZERO PUSH2 0x4C64 JUMPI INVALID JUMPDEST SWAP1 PUSH1 0x20 ADD ADD SWAP1 PUSH1 0x1 PUSH1 0xF8 PUSH1 0x2 EXP SUB NOT AND SWAP1 DUP2 PUSH1 0x0 BYTE SWAP1 MSTORE8 POP PUSH1 0x1 ADD PUSH2 0x4C26 JUMP JUMPDEST POP SWAP1 SWAP14 SWAP13 POP POP POP POP POP POP POP POP POP POP POP POP POP JUMP JUMPDEST PUSH2 0x4CA1 DUP3 DUP3 PUSH2 0x4DEA JUMP JUMPDEST PUSH1 0x9 DUP1 SLOAD PUSH1 0x0 DUP4 DUP2 MSTORE PUSH1 0xA PUSH1 0x20 MSTORE PUSH1 0x40 DUP2 KECCAK256 DUP3 SWAP1 SSTORE PUSH1 0x1 DUP3 ADD DUP4 SSTORE SWAP2 SWAP1 SWAP2 MSTORE PUSH32 0x6E1540171B6C0C960B71A7020D9F60077F6AF931A8BBF590DA0223DACF75C7AF ADD SSTORE POP JUMP JUMPDEST PUSH2 0x4CF0 DUP3 DUP3 PUSH2 0x3BC4 JUMP JUMPDEST PUSH2 0x4CFA DUP3 DUP3 PUSH2 0x3C26 JUMP JUMPDEST PUSH1 0x40 MLOAD DUP2 SWAP1 PUSH1 0x0 SWAP1 PUSH1 0x1 PUSH1 0xA0 PUSH1 0x2 EXP SUB DUP6 AND SWAP1 PUSH32 0xDDF252AD1BE2C89B69C2B068FC378DAA952BA7F163C4A11628F55A4DF523B3EF SWAP1 DUP4 SWAP1 LOG4 POP POP JUMP JUMPDEST PUSH1 0x0 DUP2 DUP4 DUP2 ISZERO ISZERO PUSH2 0x4D43 JUMPI INVALID JUMPDEST DIV SWAP4 SWAP3 POP POP POP JUMP JUMPDEST PUSH1 0x0 DUP3 ISZERO ISZERO PUSH2 0x4D5C JUMPI POP PUSH1 0x0 PUSH2 0x183D JUMP JUMPDEST POP DUP2 DUP2 MUL DUP2 DUP4 DUP3 DUP2 ISZERO ISZERO PUSH2 0x4D6C JUMPI INVALID JUMPDEST DIV EQ PUSH2 0x183D JUMPI INVALID JUMPDEST PUSH1 0x1 PUSH1 0xA0 PUSH1 0x2 EXP SUB SWAP1 SWAP2 AND PUSH1 0x0 SWAP1 DUP2 MSTORE PUSH1 0x1A PUSH1 0x20 SWAP1 DUP2 MSTORE PUSH1 0x40 DUP1 DUP4 KECCAK256 DUP1 SLOAD PUSH1 0x1 DUP2 ADD DUP3 SSTORE SWAP1 DUP5 MSTORE DUP3 DUP5 KECCAK256 DUP2 ADD DUP6 SWAP1 SSTORE SWAP4 DUP4 MSTORE PUSH1 0x1B SWAP1 SWAP2 MSTORE SWAP1 KECCAK256 SSTORE JUMP JUMPDEST PUSH1 0x0 SWAP2 DUP3 MSTORE PUSH1 0x1C PUSH1 0x20 SWAP1 DUP2 MSTORE PUSH1 0x40 DUP1 DUP5 KECCAK256 DUP1 SLOAD PUSH1 0x1 DUP2 ADD DUP3 SSTORE SWAP1 DUP6 MSTORE DUP3 DUP6 KECCAK256 DUP2 ADD DUP5 SWAP1 SSTORE SWAP3 DUP5 MSTORE PUSH1 0x1D SWAP1 SWAP2 MSTORE SWAP1 SWAP2 KECCAK256 SSTORE JUMP JUMPDEST PUSH1 0x0 SWAP1 EXTCODESIZE GT SWAP1 JUMP JUMPDEST PUSH1 0x1 PUSH1 0xA0 PUSH1 0x2 EXP SUB DUP3 AND ISZERO ISZERO PUSH2 0x4DFF JUMPI PUSH1 0x0 DUP1 REVERT JUMPDEST PUSH2 0x4E09 DUP3 DUP3 PUSH2 0x3D2D JUMP JUMPDEST PUSH1 0x40 MLOAD DUP2 SWAP1 PUSH1 0x1 PUSH1 0xA0 PUSH1 0x2 EXP SUB DUP5 AND SWAP1 PUSH1 0x0 SWAP1 PUSH32 0xDDF252AD1BE2C89B69C2B068FC378DAA952BA7F163C4A11628F55A4DF523B3EF SWAP1 DUP3 SWAP1 LOG4 POP POP JUMP JUMPDEST DUP3 DUP1 SLOAD PUSH1 0x1 DUP2 PUSH1 0x1 AND ISZERO PUSH2 0x100 MUL SUB AND PUSH1 0x2 SWAP1 DIV SWAP1 PUSH1 0x0 MSTORE PUSH1 0x20 PUSH1 0x0 KECCAK256 SWAP1 PUSH1 0x1F ADD PUSH1 0x20 SWAP1 DIV DUP2 ADD SWAP3 DUP3 PUSH1 0x1F LT PUSH2 0x4E86 JUMPI DUP3 DUP1 ADD PUSH1 0xFF NOT DUP3 CALLDATALOAD AND OR DUP6 SSTORE PUSH2 0x4EB3 JUMP JUMPDEST DUP3 DUP1 ADD PUSH1 0x1 ADD DUP6 SSTORE DUP3 ISZERO PUSH2 0x4EB3 JUMPI SWAP2 DUP3 ADD JUMPDEST DUP3 DUP2 GT ISZERO PUSH2 0x4EB3 JUMPI DUP3 CALLDATALOAD DUP3 SSTORE SWAP2 PUSH1 0x20 ADD SWAP2 SWAP1 PUSH1 0x1 ADD SWAP1 PUSH2 0x4E98 JUMP JUMPDEST POP PUSH2 0x4EBF SWAP3 SWAP2 POP PUSH2 0x4F95 JUMP JUMPDEST POP SWAP1 JUMP JUMPDEST DUP3 DUP1 SLOAD PUSH1 0x1 DUP2 PUSH1 0x1 AND ISZERO PUSH2 0x100 MUL SUB AND PUSH1 0x2 SWAP1 DIV SWAP1 PUSH1 0x0 MSTORE PUSH1 0x20 PUSH1 0x0 KECCAK256 SWAP1 PUSH1 0x1F ADD PUSH1 0x20 SWAP1 DIV DUP2 ADD SWAP3 DUP3 PUSH1 0x1F LT PUSH2 0x4F04 JUMPI DUP1 MLOAD PUSH1 0xFF NOT AND DUP4 DUP1 ADD OR DUP6 SSTORE PUSH2 0x4EB3 JUMP JUMPDEST DUP3 DUP1 ADD PUSH1 0x1 ADD DUP6 SSTORE DUP3 ISZERO PUSH2 0x4EB3 JUMPI SWAP2 DUP3 ADD JUMPDEST DUP3 DUP2 GT ISZERO PUSH2 0x4EB3 JUMPI DUP3 MLOAD DUP3 SSTORE SWAP2 PUSH1 0x20 ADD SWAP2 SWAP1 PUSH1 0x1 ADD SWAP1 PUSH2 0x4F16 JUMP JUMPDEST DUP2 SLOAD DUP2 DUP4 SSTORE DUP2 DUP2 GT ISZERO PUSH2 0x1721 JUMPI PUSH1 0x0 DUP4 DUP2 MSTORE PUSH1 0x20 SWAP1 KECCAK256 PUSH2 0x1721 SWAP2 DUP2 ADD SWAP1 DUP4 ADD PUSH2 0x4F95 JUMP JUMPDEST POP DUP1 SLOAD PUSH1 0x1 DUP2 PUSH1 0x1 AND ISZERO PUSH2 0x100 MUL SUB AND PUSH1 0x2 SWAP1 DIV PUSH1 0x0 DUP3 SSTORE DUP1 PUSH1 0x1F LT PUSH2 0x4F7B JUMPI POP PUSH2 0x2F33 JUMP JUMPDEST PUSH1 0x1F ADD PUSH1 0x20 SWAP1 DIV SWAP1 PUSH1 0x0 MSTORE PUSH1 0x20 PUSH1 0x0 KECCAK256 SWAP1 DUP2 ADD SWAP1 PUSH2 0x2F33 SWAP2 SWAP1 JUMPDEST PUSH2 0x13F7 SWAP2 SWAP1 JUMPDEST DUP1 DUP3 GT ISZERO PUSH2 0x4EBF JUMPI PUSH1 0x0 DUP2 SSTORE PUSH1 0x1 ADD PUSH2 0x4F9B JUMP STOP GASLIMIT PUSH5 0x6974696F6E KECCAK256 PUSH15 0x756D62657220696E76616C69640000 STOP STOP STOP STOP STOP STOP STOP STOP LOG1 PUSH6 0x627A7A723058 KECCAK256 PUSH1 0x88 0xd9 DIV 0xb1 ADDMOD GT 0xa5 PUSH13 0x6550020C569F9766AA92FD00AF 0xa8 JUMPDEST 0x5d 0xe8 DUP3 0xe4 0xcd 0xb4 PUSH6 0xCE0029000000 "
		},
		"gasEstimates": {
			"creation": {
				"codeDepositCost": "4095000",
				"executionCost": "infinite",
				"totalCost": "infinite"
			},
			"external": {
				"": "1957",
				"InterfaceId_ERC165()": "463",
				"ROLE_KNOWN_ORIGIN()": "1733",
				"ROLE_MINTER()": "1293",
				"ROLE_UNDER_MINTER()": "1403",
				"addAddressToAccessControl(address,uint8)": "infinite",
				"approve(address,uint256)": "23777",
				"artistCommission(uint256)": "1234",
				"artistsEditions(address)": "infinite",
				"balanceOf(address)": "1545",
				"batchTransfer(address,uint256[])": "infinite",
				"batchTransferFrom(address,address,uint256[])": "infinite",
				"burn(uint256)": "infinite",
				"checkRole(address,uint8)": "infinite",
				"createActiveEdition(uint256,bytes32,uint256,uint256,uint256,address,uint256,uint256,string,uint256)": "infinite",
				"createActivePreMintedEdition(uint256,bytes32,uint256,uint256,uint256,address,uint256,uint256,string,uint256,uint256)": "infinite",
				"createInactiveEdition(uint256,bytes32,uint256,uint256,uint256,address,uint256,uint256,string,uint256)": "infinite",
				"createInactivePreMintedEdition(uint256,bytes32,uint256,uint256,uint256,address,uint256,uint256,string,uint256,uint256)": "infinite",
				"detailsOfEdition(uint256)": "infinite",
				"editionActive(uint256)": "1948",
				"editionData(uint256)": "682",
				"editionExists(uint256)": "2060",
				"editionOfTokenId(uint256)": "1446",
				"editionOptionalCommission(uint256)": "2482",
				"editionType(uint256)": "1122",
				"editionsOfType(uint256)": "infinite",
				"exists(uint256)": "1137",
				"getApproved(uint256)": "675",
				"hasRole(address,uint8)": "infinite",
				"highestEditionNumber()": "1682",
				"isApprovedForAll(address,address)": "2436",
				"koCommissionAccount()": "1351",
				"mint(address,uint256)": "infinite",
				"name()": "infinite",
				"owner()": "1615",
				"ownerOf(uint256)": "1365",
				"pause()": "22794",
				"paused()": "1174",
				"priceInWeiEdition(uint256)": "1012",
				"priceInWeiToken(uint256)": "884",
				"purchase(uint256)": "infinite",
				"purchaseDatesEdition(uint256)": "1452",
				"purchaseDatesToken(uint256)": "2478",
				"purchaseTo(address,uint256)": "infinite",
				"reclaimEther()": "infinite",
				"removeAddressFromAccessControl(address,uint8)": "infinite",
				"renounceOwnership()": "23002",
				"safeTransferFrom(address,address,uint256)": "infinite",
				"safeTransferFrom(address,address,uint256,bytes)": "infinite",
				"setApprovalForAll(address,bool)": "23888",
				"setTokenURI(uint256,string)": "infinite",
				"supportsInterface(bytes4)": "627",
				"symbol()": "infinite",
				"tokenBaseURI()": "infinite",
				"tokenByIndex(uint256)": "1552",
				"tokenData(uint256)": "infinite",
				"tokenOfOwnerByIndex(address,uint256)": "1741",
				"tokenURI(uint256)": "infinite",
				"tokenURIEdition(uint256)": "infinite",
				"tokenURISafe(uint256)": "infinite",
				"tokensOf(address)": "infinite",
				"tokensOfEdition(uint256)": "infinite",
				"totalAvailableEdition(uint256)": "1254",
				"totalNumberAvailable()": "890",
				"totalNumberMinted()": "2144",
				"totalPurchaseValueInWei()": "692",
				"totalRemaining(uint256)": "infinite",
				"totalSupply()": "538",
				"totalSupplyEdition(uint256)": "1870",
				"transferFrom(address,address,uint256)": "infinite",
				"transferOwnership(address)": "24611",
				"underMint(address,uint256)": "infinite",
				"unpause()": "22134",
				"updateActive(uint256,bool)": "infinite",
				"updateArtistCommission(uint256,uint256)": "infinite",
				"updateArtistsAccount(uint256,address)": "infinite",
				"updateEditionTokenURI(uint256,string)": "infinite",
				"updateEditionType(uint256,uint256)": "infinite",
				"updateEndDate(uint256,uint256)": "infinite",
				"updateKoCommissionAccount(address)": "infinite",
				"updateOptionalCommission(uint256,uint256,address)": "infinite",
				"updatePriceInWei(uint256,uint256)": "infinite",
				"updateStartDate(uint256,uint256)": "infinite",
				"updateTokenBaseURI(string)": "infinite",
				"updateTotalAvailable(uint256,uint256)": "infinite",
				"updateTotalSupply(uint256,uint256)": "infinite"
			},
			"internal": {
				"_createEdition(uint256,bytes32,uint256,uint256,uint256,address,uint256,uint256,string memory,uint256,bool)": "infinite",
				"_handleFunds(uint256,uint256,address,uint256)": "infinite",
				"_mintToken(address,uint256,uint256,string memory)": "infinite",
				"_nextTokenId(uint256)": "infinite",
				"_underMintNextTokenId(uint256)": "infinite",
				"_updateArtistLookupData(address,uint256)": "60518",
				"_updateEditionTypeLookupData(uint256,uint256)": "60440"
			}
		},
		"methodIdentifiers": {
			"InterfaceId_ERC165()": "19fa8f50",
			"ROLE_KNOWN_ORIGIN()": "be46b94c",
			"ROLE_MINTER()": "92afc33a",
			"ROLE_UNDER_MINTER()": "985989d2",
			"addAddressToAccessControl(address,uint8)": "43923258",
			"approve(address,uint256)": "095ea7b3",
			"artistCommission(uint256)": "32fd8478",
			"artistsEditions(address)": "6641179e",
			"balanceOf(address)": "70a08231",
			"batchTransfer(address,uint256[])": "ac3c9952",
			"batchTransferFrom(address,address,uint256[])": "f3993d11",
			"burn(uint256)": "42966c68",
			"checkRole(address,uint8)": "23a3ad72",
			"createActiveEdition(uint256,bytes32,uint256,uint256,uint256,address,uint256,uint256,string,uint256)": "8bbb594a",
			"createActivePreMintedEdition(uint256,bytes32,uint256,uint256,uint256,address,uint256,uint256,string,uint256,uint256)": "ae8a8690",
			"createInactiveEdition(uint256,bytes32,uint256,uint256,uint256,address,uint256,uint256,string,uint256)": "e65d19ca",
			"createInactivePreMintedEdition(uint256,bytes32,uint256,uint256,uint256,address,uint256,uint256,string,uint256,uint256)": "9cd77457",
			"detailsOfEdition(uint256)": "71c847b2",
			"editionActive(uint256)": "bbd1e1fc",
			"editionData(uint256)": "213d6771",
			"editionExists(uint256)": "c2b2fb5e",
			"editionOfTokenId(uint256)": "824eec3b",
			"editionOptionalCommission(uint256)": "de56a245",
			"editionType(uint256)": "593af56a",
			"editionsOfType(uint256)": "e7b8d977",
			"exists(uint256)": "4f558e79",
			"getApproved(uint256)": "081812fc",
			"hasRole(address,uint8)": "95a8c58d",
			"highestEditionNumber()": "abf3260f",
			"isApprovedForAll(address,address)": "e985e9c5",
			"koCommissionAccount()": "6e93dbdc",
			"mint(address,uint256)": "40c10f19",
			"name()": "06fdde03",
			"owner()": "8da5cb5b",
			"ownerOf(uint256)": "6352211e",
			"pause()": "8456cb59",
			"paused()": "5c975abb",
			"priceInWeiEdition(uint256)": "43bf63e8",
			"priceInWeiToken(uint256)": "15347380",
			"purchase(uint256)": "efef39a1",
			"purchaseDatesEdition(uint256)": "652edd41",
			"purchaseDatesToken(uint256)": "b8f6c219",
			"purchaseTo(address,uint256)": "891407c0",
			"reclaimEther()": "9f727c27",
			"removeAddressFromAccessControl(address,uint8)": "975347b8",
			"renounceOwnership()": "715018a6",
			"safeTransferFrom(address,address,uint256)": "42842e0e",
			"safeTransferFrom(address,address,uint256,bytes)": "b88d4fde",
			"setApprovalForAll(address,bool)": "a22cb465",
			"setTokenURI(uint256,string)": "162094c4",
			"supportsInterface(bytes4)": "01ffc9a7",
			"symbol()": "95d89b41",
			"tokenBaseURI()": "4e99b800",
			"tokenByIndex(uint256)": "4f6ccce7",
			"tokenData(uint256)": "b4b5b48f",
			"tokenOfOwnerByIndex(address,uint256)": "2f745c59",
			"tokenURI(uint256)": "c87b56dd",
			"tokenURIEdition(uint256)": "385df389",
			"tokenURISafe(uint256)": "fee7e35d",
			"tokensOf(address)": "5a3f2672",
			"tokensOfEdition(uint256)": "7a85c02a",
			"totalAvailableEdition(uint256)": "6a028692",
			"totalNumberAvailable()": "42c7ea5f",
			"totalNumberMinted()": "f1ff3d4b",
			"totalPurchaseValueInWei()": "2bbd84e8",
			"totalRemaining(uint256)": "bc02844c",
			"totalSupply()": "18160ddd",
			"totalSupplyEdition(uint256)": "b6f4df34",
			"transferFrom(address,address,uint256)": "23b872dd",
			"transferOwnership(address)": "f2fde38b",
			"underMint(address,uint256)": "7d55758f",
			"unpause()": "3f4ba83a",
			"updateActive(uint256,bool)": "04bb1e3d",
			"updateArtistCommission(uint256,uint256)": "5091f881",
			"updateArtistsAccount(uint256,address)": "afa7a25f",
			"updateEditionTokenURI(uint256,string)": "75dcb70a",
			"updateEditionType(uint256,uint256)": "d4f3d6b8",
			"updateEndDate(uint256,uint256)": "e6232ba1",
			"updateKoCommissionAccount(address)": "187d8803",
			"updateOptionalCommission(uint256,uint256,address)": "97e851f6",
			"updatePriceInWei(uint256,uint256)": "7eb9f04a",
			"updateStartDate(uint256,uint256)": "328a2c2d",
			"updateTokenBaseURI(string)": "2295ee5b",
			"updateTotalAvailable(uint256,uint256)": "bdcdc0bc",
			"updateTotalSupply(uint256,uint256)": "f8b4ab7a"
		}
	},
	"abi": [
		{
			"constant": true,
			"inputs": [
				{
					"name": "_interfaceId",
					"type": "bytes4"
				}
			],
			"name": "supportsInterface",
			"outputs": [
				{
					"name": "",
					"type": "bool"
				}
			],
			"payable": false,
			"stateMutability": "view",
			"type": "function"
		},
		{
			"constant": false,
			"inputs": [
				{
					"name": "_editionNumber",
					"type": "uint256"
				},
				{
					"name": "_active",
					"type": "bool"
				}
			],
			"name": "updateActive",
			"outputs": [],
			"payable": false,
			"stateMutability": "nonpayable",
			"type": "function"
		},
		{
			"constant": true,
			"inputs": [],
			"name": "name",
			"outputs": [
				{
					"name": "",
					"type": "string"
				}
			],
			"payable": false,
			"stateMutability": "view",
			"type": "function"
		},
		{
			"constant": true,
			"inputs": [
				{
					"name": "_tokenId",
					"type": "uint256"
				}
			],
			"name": "getApproved",
			"outputs": [
				{
					"name": "",
					"type": "address"
				}
			],
			"payable": false,
			"stateMutability": "view",
			"type": "function"
		},
		{
			"constant": false,
			"inputs": [
				{
					"name": "_to",
					"type": "address"
				},
				{
					"name": "_tokenId",
					"type": "uint256"
				}
			],
			"name": "approve",
			"outputs": [],
			"payable": false,
			"stateMutability": "nonpayable",
			"type": "function"
		},
		{
			"constant": true,
			"inputs": [
				{
					"name": "_tokenId",
					"type": "uint256"
				}
			],
			"name": "priceInWeiToken",
			"outputs": [
				{
					"name": "_priceInWei",
					"type": "uint256"
				}
			],
			"payable": false,
			"stateMutability": "view",
			"type": "function"
		},
		{
			"constant": false,
			"inputs": [
				{
					"name": "_tokenId",
					"type": "uint256"
				},
				{
					"name": "_uri",
					"type": "string"
				}
			],
			"name": "setTokenURI",
			"outputs": [],
			"payable": false,
			"stateMutability": "nonpayable",
			"type": "function"
		},
		{
			"constant": true,
			"inputs": [],
			"name": "totalSupply",
			"outputs": [
				{
					"name": "",
					"type": "uint256"
				}
			],
			"payable": false,
			"stateMutability": "view",
			"type": "function"
		},
		{
			"constant": false,
			"inputs": [
				{
					"name": "_koCommissionAccount",
					"type": "address"
				}
			],
			"name": "updateKoCommissionAccount",
			"outputs": [],
			"payable": false,
			"stateMutability": "nonpayable",
			"type": "function"
		},
		{
			"constant": true,
			"inputs": [],
			"name": "InterfaceId_ERC165",
			"outputs": [
				{
					"name": "",
					"type": "bytes4"
				}
			],
			"payable": false,
			"stateMutability": "view",
			"type": "function"
		},
		{
			"constant": true,
			"inputs": [
				{
					"name": "_editionNumber",
					"type": "uint256"
				}
			],
			"name": "editionData",
			"outputs": [
				{
					"name": "",
					"type": "bytes32"
				}
			],
			"payable": false,
			"stateMutability": "view",
			"type": "function"
		},
		{
			"constant": false,
			"inputs": [
				{
					"name": "_newBaseURI",
					"type": "string"
				}
			],
			"name": "updateTokenBaseURI",
			"outputs": [],
			"payable": false,
			"stateMutability": "nonpayable",
			"type": "function"
		},
		{
			"constant": true,
			"inputs": [
				{
					"name": "_operator",
					"type": "address"
				},
				{
					"name": "_role",
					"type": "uint8"
				}
			],
			"name": "checkRole",
			"outputs": [],
			"payable": false,
			"stateMutability": "view",
			"type": "function"
		},
		{
			"constant": false,
			"inputs": [
				{
					"name": "_from",
					"type": "address"
				},
				{
					"name": "_to",
					"type": "address"
				},
				{
					"name": "_tokenId",
					"type": "uint256"
				}
			],
			"name": "transferFrom",
			"outputs": [],
			"payable": false,
			"stateMutability": "nonpayable",
			"type": "function"
		},
		{
			"constant": true,
			"inputs": [],
			"name": "totalPurchaseValueInWei",
			"outputs": [
				{
					"name": "",
					"type": "uint256"
				}
			],
			"payable": false,
			"stateMutability": "view",
			"type": "function"
		},
		{
			"constant": true,
			"inputs": [
				{
					"name": "_owner",
					"type": "address"
				},
				{
					"name": "_index",
					"type": "uint256"
				}
			],
			"name": "tokenOfOwnerByIndex",
			"outputs": [
				{
					"name": "",
					"type": "uint256"
				}
			],
			"payable": false,
			"stateMutability": "view",
			"type": "function"
		},
		{
			"constant": false,
			"inputs": [
				{
					"name": "_editionNumber",
					"type": "uint256"
				},
				{
					"name": "_startDate",
					"type": "uint256"
				}
			],
			"name": "updateStartDate",
			"outputs": [],
			"payable": false,
			"stateMutability": "nonpayable",
			"type": "function"
		},
		{
			"constant": true,
			"inputs": [
				{
					"name": "_editionNumber",
					"type": "uint256"
				}
			],
			"name": "artistCommission",
			"outputs": [
				{
					"name": "_artistAccount",
					"type": "address"
				},
				{
					"name": "_artistCommission",
					"type": "uint256"
				}
			],
			"payable": false,
			"stateMutability": "view",
			"type": "function"
		},
		{
			"constant": true,
			"inputs": [
				{
					"name": "_editionNumber",
					"type": "uint256"
				}
			],
			"name": "tokenURIEdition",
			"outputs": [
				{
					"name": "",
					"type": "string"
				}
			],
			"payable": false,
			"stateMutability": "view",
			"type": "function"
		},
		{
			"constant": false,
			"inputs": [],
			"name": "unpause",
			"outputs": [],
			"payable": false,
			"stateMutability": "nonpayable",
			"type": "function"
		},
		{
			"constant": false,
			"inputs": [
				{
					"name": "_to",
					"type": "address"
				},
				{
					"name": "_editionNumber",
					"type": "uint256"
				}
			],
			"name": "mint",
			"outputs": [
				{
					"name": "",
					"type": "uint256"
				}
			],
			"payable": false,
			"stateMutability": "nonpayable",
			"type": "function"
		},
		{
			"constant": false,
			"inputs": [
				{
					"name": "_from",
					"type": "address"
				},
				{
					"name": "_to",
					"type": "address"
				},
				{
					"name": "_tokenId",
					"type": "uint256"
				}
			],
			"name": "safeTransferFrom",
			"outputs": [],
			"payable": false,
			"stateMutability": "nonpayable",
			"type": "function"
		},
		{
			"constant": false,
			"inputs": [
				{
					"name": "_tokenId",
					"type": "uint256"
				}
			],
			"name": "burn",
			"outputs": [],
			"payable": false,
			"stateMutability": "nonpayable",
			"type": "function"
		},
		{
			"constant": true,
			"inputs": [],
			"name": "totalNumberAvailable",
			"outputs": [
				{
					"name": "",
					"type": "uint256"
				}
			],
			"payable": false,
			"stateMutability": "view",
			"type": "function"
		},
		{
			"constant": false,
			"inputs": [
				{
					"name": "_operator",
					"type": "address"
				},
				{
					"name": "_role",
					"type": "uint8"
				}
			],
			"name": "addAddressToAccessControl",
			"outputs": [],
			"payable": false,
			"stateMutability": "nonpayable",
			"type": "function"
		},
		{
			"constant": true,
			"inputs": [
				{
					"name": "_editionNumber",
					"type": "uint256"
				}
			],
			"name": "priceInWeiEdition",
			"outputs": [
				{
					"name": "_priceInWei",
					"type": "uint256"
				}
			],
			"payable": false,
			"stateMutability": "view",
			"type": "function"
		},
		{
			"constant": true,
			"inputs": [],
			"name": "tokenBaseURI",
			"outputs": [
				{
					"name": "",
					"type": "string"
				}
			],
			"payable": false,
			"stateMutability": "view",
			"type": "function"
		},
		{
			"constant": true,
			"inputs": [
				{
					"name": "_tokenId",
					"type": "uint256"
				}
			],
			"name": "exists",
			"outputs": [
				{
					"name": "",
					"type": "bool"
				}
			],
			"payable": false,
			"stateMutability": "view",
			"type": "function"
		},
		{
			"constant": true,
			"inputs": [
				{
					"name": "_index",
					"type": "uint256"
				}
			],
			"name": "tokenByIndex",
			"outputs": [
				{
					"name": "",
					"type": "uint256"
				}
			],
			"payable": false,
			"stateMutability": "view",
			"type": "function"
		},
		{
			"constant": false,
			"inputs": [
				{
					"name": "_editionNumber",
					"type": "uint256"
				},
				{
					"name": "_rate",
					"type": "uint256"
				}
			],
			"name": "updateArtistCommission",
			"outputs": [],
			"payable": false,
			"stateMutability": "nonpayable",
			"type": "function"
		},
		{
			"constant": true,
			"inputs": [
				{
					"name": "_editionNumber",
					"type": "uint256"
				}
			],
			"name": "editionType",
			"outputs": [
				{
					"name": "",
					"type": "uint256"
				}
			],
			"payable": false,
			"stateMutability": "view",
			"type": "function"
		},
		{
			"constant": true,
			"inputs": [
				{
					"name": "_owner",
					"type": "address"
				}
			],
			"name": "tokensOf",
			"outputs": [
				{
					"name": "_tokenIds",
					"type": "uint256[]"
				}
			],
			"payable": false,
			"stateMutability": "view",
			"type": "function"
		},
		{
			"constant": true,
			"inputs": [],
			"name": "paused",
			"outputs": [
				{
					"name": "",
					"type": "bool"
				}
			],
			"payable": false,
			"stateMutability": "view",
			"type": "function"
		},
		{
			"constant": true,
			"inputs": [
				{
					"name": "_tokenId",
					"type": "uint256"
				}
			],
			"name": "ownerOf",
			"outputs": [
				{
					"name": "",
					"type": "address"
				}
			],
			"payable": false,
			"stateMutability": "view",
			"type": "function"
		},
		{
			"constant": true,
			"inputs": [
				{
					"name": "_editionNumber",
					"type": "uint256"
				}
			],
			"name": "purchaseDatesEdition",
			"outputs": [
				{
					"name": "_startDate",
					"type": "uint256"
				},
				{
					"name": "_endDate",
					"type": "uint256"
				}
			],
			"payable": false,
			"stateMutability": "view",
			"type": "function"
		},
		{
			"constant": true,
			"inputs": [
				{
					"name": "_artistsAccount",
					"type": "address"
				}
			],
			"name": "artistsEditions",
			"outputs": [
				{
					"name": "_editionNumbers",
					"type": "uint256[]"
				}
			],
			"payable": false,
			"stateMutability": "view",
			"type": "function"
		},
		{
			"constant": true,
			"inputs": [
				{
					"name": "_editionNumber",
					"type": "uint256"
				}
			],
			"name": "totalAvailableEdition",
			"outputs": [
				{
					"name": "",
					"type": "uint256"
				}
			],
			"payable": false,
			"stateMutability": "view",
			"type": "function"
		},
		{
			"constant": true,
			"inputs": [],
			"name": "koCommissionAccount",
			"outputs": [
				{
					"name": "",
					"type": "address"
				}
			],
			"payable": false,
			"stateMutability": "view",
			"type": "function"
		},
		{
			"constant": true,
			"inputs": [
				{
					"name": "_owner",
					"type": "address"
				}
			],
			"name": "balanceOf",
			"outputs": [
				{
					"name": "",
					"type": "uint256"
				}
			],
			"payable": false,
			"stateMutability": "view",
			"type": "function"
		},
		{
			"constant": false,
			"inputs": [],
			"name": "renounceOwnership",
			"outputs": [],
			"payable": false,
			"stateMutability": "nonpayable",
			"type": "function"
		},
		{
			"constant": true,
			"inputs": [
				{
					"name": "editionNumber",
					"type": "uint256"
				}
			],
			"name": "detailsOfEdition",
			"outputs": [
				{
					"name": "_editionData",
					"type": "bytes32"
				},
				{
					"name": "_editionType",
					"type": "uint256"
				},
				{
					"name": "_startDate",
					"type": "uint256"
				},
				{
					"name": "_endDate",
					"type": "uint256"
				},
				{
					"name": "_artistAccount",
					"type": "address"
				},
				{
					"name": "_artistCommission",
					"type": "uint256"
				},
				{
					"name": "_priceInWei",
					"type": "uint256"
				},
				{
					"name": "_tokenURI",
					"type": "string"
				},
				{
					"name": "_totalSupply",
					"type": "uint256"
				},
				{
					"name": "_totalAvailable",
					"type": "uint256"
				},
				{
					"name": "_active",
					"type": "bool"
				}
			],
			"payable": false,
			"stateMutability": "view",
			"type": "function"
		},
		{
			"constant": false,
			"inputs": [
				{
					"name": "_editionNumber",
					"type": "uint256"
				},
				{
					"name": "_uri",
					"type": "string"
				}
			],
			"name": "updateEditionTokenURI",
			"outputs": [],
			"payable": false,
			"stateMutability": "nonpayable",
			"type": "function"
		},
		{
			"constant": true,
			"inputs": [
				{
					"name": "_editionNumber",
					"type": "uint256"
				}
			],
			"name": "tokensOfEdition",
			"outputs": [
				{
					"name": "_tokenIds",
					"type": "uint256[]"
				}
			],
			"payable": false,
			"stateMutability": "view",
			"type": "function"
		},
		{
			"constant": false,
			"inputs": [
				{
					"name": "_to",
					"type": "address"
				},
				{
					"name": "_editionNumber",
					"type": "uint256"
				}
			],
			"name": "underMint",
			"outputs": [
				{
					"name": "",
					"type": "uint256"
				}
			],
			"payable": false,
			"stateMutability": "nonpayable",
			"type": "function"
		},
		{
			"constant": false,
			"inputs": [
				{
					"name": "_editionNumber",
					"type": "uint256"
				},
				{
					"name": "_priceInWei",
					"type": "uint256"
				}
			],
			"name": "updatePriceInWei",
			"outputs": [],
			"payable": false,
			"stateMutability": "nonpayable",
			"type": "function"
		},
		{
			"constant": true,
			"inputs": [
				{
					"name": "_tokenId",
					"type": "uint256"
				}
			],
			"name": "editionOfTokenId",
			"outputs": [
				{
					"name": "_editionNumber",
					"type": "uint256"
				}
			],
			"payable": false,
			"stateMutability": "view",
			"type": "function"
		},
		{
			"constant": false,
			"inputs": [],
			"name": "pause",
			"outputs": [],
			"payable": false,
			"stateMutability": "nonpayable",
			"type": "function"
		},
		{
			"constant": false,
			"inputs": [
				{
					"name": "_to",
					"type": "address"
				},
				{
					"name": "_editionNumber",
					"type": "uint256"
				}
			],
			"name": "purchaseTo",
			"outputs": [
				{
					"name": "",
					"type": "uint256"
				}
			],
			"payable": true,
			"stateMutability": "payable",
			"type": "function"
		},
		{
			"constant": false,
			"inputs": [
				{
					"name": "_editionNumber",
					"type": "uint256"
				},
				{
					"name": "_editionData",
					"type": "bytes32"
				},
				{
					"name": "_editionType",
					"type": "uint256"
				},
				{
					"name": "_startDate",
					"type": "uint256"
				},
				{
					"name": "_endDate",
					"type": "uint256"
				},
				{
					"name": "_artistAccount",
					"type": "address"
				},
				{
					"name": "_artistCommission",
					"type": "uint256"
				},
				{
					"name": "_priceInWei",
					"type": "uint256"
				},
				{
					"name": "_tokenURI",
					"type": "string"
				},
				{
					"name": "_totalAvailable",
					"type": "uint256"
				}
			],
			"name": "createActiveEdition",
			"outputs": [
				{
					"name": "",
					"type": "bool"
				}
			],
			"payable": false,
			"stateMutability": "nonpayable",
			"type": "function"
		},
		{
			"constant": true,
			"inputs": [],
			"name": "owner",
			"outputs": [
				{
					"name": "",
					"type": "address"
				}
			],
			"payable": false,
			"stateMutability": "view",
			"type": "function"
		},
		{
			"constant": true,
			"inputs": [],
			"name": "ROLE_MINTER",
			"outputs": [
				{
					"name": "",
					"type": "uint8"
				}
			],
			"payable": false,
			"stateMutability": "view",
			"type": "function"
		},
		{
			"constant": true,
			"inputs": [
				{
					"name": "_operator",
					"type": "address"
				},
				{
					"name": "_role",
					"type": "uint8"
				}
			],
			"name": "hasRole",
			"outputs": [
				{
					"name": "",
					"type": "bool"
				}
			],
			"payable": false,
			"stateMutability": "view",
			"type": "function"
		},
		{
			"constant": true,
			"inputs": [],
			"name": "symbol",
			"outputs": [
				{
					"name": "",
					"type": "string"
				}
			],
			"payable": false,
			"stateMutability": "view",
			"type": "function"
		},
		{
			"constant": false,
			"inputs": [
				{
					"name": "_operator",
					"type": "address"
				},
				{
					"name": "_role",
					"type": "uint8"
				}
			],
			"name": "removeAddressFromAccessControl",
			"outputs": [],
			"payable": false,
			"stateMutability": "nonpayable",
			"type": "function"
		},
		{
			"constant": false,
			"inputs": [
				{
					"name": "_editionNumber",
					"type": "uint256"
				},
				{
					"name": "_rate",
					"type": "uint256"
				},
				{
					"name": "_recipient",
					"type": "address"
				}
			],
			"name": "updateOptionalCommission",
			"outputs": [],
			"payable": false,
			"stateMutability": "nonpayable",
			"type": "function"
		},
		{
			"constant": true,
			"inputs": [],
			"name": "ROLE_UNDER_MINTER",
			"outputs": [
				{
					"name": "",
					"type": "uint8"
				}
			],
			"payable": false,
			"stateMutability": "view",
			"type": "function"
		},
		{
			"constant": false,
			"inputs": [
				{
					"name": "_editionNumber",
					"type": "uint256"
				},
				{
					"name": "_editionData",
					"type": "bytes32"
				},
				{
					"name": "_editionType",
					"type": "uint256"
				},
				{
					"name": "_startDate",
					"type": "uint256"
				},
				{
					"name": "_endDate",
					"type": "uint256"
				},
				{
					"name": "_artistAccount",
					"type": "address"
				},
				{
					"name": "_artistCommission",
					"type": "uint256"
				},
				{
					"name": "_priceInWei",
					"type": "uint256"
				},
				{
					"name": "_tokenURI",
					"type": "string"
				},
				{
					"name": "_totalSupply",
					"type": "uint256"
				},
				{
					"name": "_totalAvailable",
					"type": "uint256"
				}
			],
			"name": "createInactivePreMintedEdition",
			"outputs": [
				{
					"name": "",
					"type": "bool"
				}
			],
			"payable": false,
			"stateMutability": "nonpayable",
			"type": "function"
		},
		{
			"constant": false,
			"inputs": [],
			"name": "reclaimEther",
			"outputs": [],
			"payable": false,
			"stateMutability": "nonpayable",
			"type": "function"
		},
		{
			"constant": false,
			"inputs": [
				{
					"name": "_to",
					"type": "address"
				},
				{
					"name": "_approved",
					"type": "bool"
				}
			],
			"name": "setApprovalForAll",
			"outputs": [],
			"payable": false,
			"stateMutability": "nonpayable",
			"type": "function"
		},
		{
			"constant": true,
			"inputs": [],
			"name": "highestEditionNumber",
			"outputs": [
				{
					"name": "",
					"type": "uint256"
				}
			],
			"payable": false,
			"stateMutability": "view",
			"type": "function"
		},
		{
			"constant": false,
			"inputs": [
				{
					"name": "_to",
					"type": "address"
				},
				{
					"name": "_tokenIds",
					"type": "uint256[]"
				}
			],
			"name": "batchTransfer",
			"outputs": [],
			"payable": false,
			"stateMutability": "nonpayable",
			"type": "function"
		},
		{
			"constant": false,
			"inputs": [
				{
					"name": "_editionNumber",
					"type": "uint256"
				},
				{
					"name": "_editionData",
					"type": "bytes32"
				},
				{
					"name": "_editionType",
					"type": "uint256"
				},
				{
					"name": "_startDate",
					"type": "uint256"
				},
				{
					"name": "_endDate",
					"type": "uint256"
				},
				{
					"name": "_artistAccount",
					"type": "address"
				},
				{
					"name": "_artistCommission",
					"type": "uint256"
				},
				{
					"name": "_priceInWei",
					"type": "uint256"
				},
				{
					"name": "_tokenURI",
					"type": "string"
				},
				{
					"name": "_totalSupply",
					"type": "uint256"
				},
				{
					"name": "_totalAvailable",
					"type": "uint256"
				}
			],
			"name": "createActivePreMintedEdition",
			"outputs": [
				{
					"name": "",
					"type": "bool"
				}
			],
			"payable": false,
			"stateMutability": "nonpayable",
			"type": "function"
		},
		{
			"constant": false,
			"inputs": [
				{
					"name": "_editionNumber",
					"type": "uint256"
				},
				{
					"name": "_artistAccount",
					"type": "address"
				}
			],
			"name": "updateArtistsAccount",
			"outputs": [],
			"payable": false,
			"stateMutability": "nonpayable",
			"type": "function"
		},
		{
			"constant": true,
			"inputs": [
				{
					"name": "_tokenId",
					"type": "uint256"
				}
			],
			"name": "tokenData",
			"outputs": [
				{
					"name": "_editionNumber",
					"type": "uint256"
				},
				{
					"name": "_editionType",
					"type": "uint256"
				},
				{
					"name": "_editionData",
					"type": "bytes32"
				},
				{
					"name": "_tokenURI",
					"type": "string"
				},
				{
					"name": "_owner",
					"type": "address"
				}
			],
			"payable": false,
			"stateMutability": "view",
			"type": "function"
		},
		{
			"constant": true,
			"inputs": [
				{
					"name": "_editionNumber",
					"type": "uint256"
				}
			],
			"name": "totalSupplyEdition",
			"outputs": [
				{
					"name": "",
					"type": "uint256"
				}
			],
			"payable": false,
			"stateMutability": "view",
			"type": "function"
		},
		{
			"constant": false,
			"inputs": [
				{
					"name": "_from",
					"type": "address"
				},
				{
					"name": "_to",
					"type": "address"
				},
				{
					"name": "_tokenId",
					"type": "uint256"
				},
				{
					"name": "_data",
					"type": "bytes"
				}
			],
			"name": "safeTransferFrom",
			"outputs": [],
			"payable": false,
			"stateMutability": "nonpayable",
			"type": "function"
		},
		{
			"constant": true,
			"inputs": [
				{
					"name": "_tokenId",
					"type": "uint256"
				}
			],
			"name": "purchaseDatesToken",
			"outputs": [
				{
					"name": "_startDate",
					"type": "uint256"
				},
				{
					"name": "_endDate",
					"type": "uint256"
				}
			],
			"payable": false,
			"stateMutability": "view",
			"type": "function"
		},
		{
			"constant": true,
			"inputs": [
				{
					"name": "_editionNumber",
					"type": "uint256"
				}
			],
			"name": "editionActive",
			"outputs": [
				{
					"name": "",
					"type": "bool"
				}
			],
			"payable": false,
			"stateMutability": "view",
			"type": "function"
		},
		{
			"constant": true,
			"inputs": [
				{
					"name": "_editionNumber",
					"type": "uint256"
				}
			],
			"name": "totalRemaining",
			"outputs": [
				{
					"name": "",
					"type": "uint256"
				}
			],
			"payable": false,
			"stateMutability": "view",
			"type": "function"
		},
		{
			"constant": false,
			"inputs": [
				{
					"name": "_editionNumber",
					"type": "uint256"
				},
				{
					"name": "_totalAvailable",
					"type": "uint256"
				}
			],
			"name": "updateTotalAvailable",
			"outputs": [],
			"payable": false,
			"stateMutability": "nonpayable",
			"type": "function"
		},
		{
			"constant": true,
			"inputs": [],
			"name": "ROLE_KNOWN_ORIGIN",
			"outputs": [
				{
					"name": "",
					"type": "uint8"
				}
			],
			"payable": false,
			"stateMutability": "view",
			"type": "function"
		},
		{
			"constant": true,
			"inputs": [
				{
					"name": "_editionNumber",
					"type": "uint256"
				}
			],
			"name": "editionExists",
			"outputs": [
				{
					"name": "",
					"type": "bool"
				}
			],
			"payable": false,
			"stateMutability": "view",
			"type": "function"
		},
		{
			"constant": true,
			"inputs": [
				{
					"name": "_tokenId",
					"type": "uint256"
				}
			],
			"name": "tokenURI",
			"outputs": [
				{
					"name": "",
					"type": "string"
				}
			],
			"payable": false,
			"stateMutability": "view",
			"type": "function"
		},
		{
			"constant": false,
			"inputs": [
				{
					"name": "_editionNumber",
					"type": "uint256"
				},
				{
					"name": "_editionType",
					"type": "uint256"
				}
			],
			"name": "updateEditionType",
			"outputs": [],
			"payable": false,
			"stateMutability": "nonpayable",
			"type": "function"
		},
		{
			"constant": true,
			"inputs": [
				{
					"name": "_editionNumber",
					"type": "uint256"
				}
			],
			"name": "editionOptionalCommission",
			"outputs": [
				{
					"name": "_rate",
					"type": "uint256"
				},
				{
					"name": "_recipient",
					"type": "address"
				}
			],
			"payable": false,
			"stateMutability": "view",
			"type": "function"
		},
		{
			"constant": false,
			"inputs": [
				{
					"name": "_editionNumber",
					"type": "uint256"
				},
				{
					"name": "_endDate",
					"type": "uint256"
				}
			],
			"name": "updateEndDate",
			"outputs": [],
			"payable": false,
			"stateMutability": "nonpayable",
			"type": "function"
		},
		{
			"constant": false,
			"inputs": [
				{
					"name": "_editionNumber",
					"type": "uint256"
				},
				{
					"name": "_editionData",
					"type": "bytes32"
				},
				{
					"name": "_editionType",
					"type": "uint256"
				},
				{
					"name": "_startDate",
					"type": "uint256"
				},
				{
					"name": "_endDate",
					"type": "uint256"
				},
				{
					"name": "_artistAccount",
					"type": "address"
				},
				{
					"name": "_artistCommission",
					"type": "uint256"
				},
				{
					"name": "_priceInWei",
					"type": "uint256"
				},
				{
					"name": "_tokenURI",
					"type": "string"
				},
				{
					"name": "_totalAvailable",
					"type": "uint256"
				}
			],
			"name": "createInactiveEdition",
			"outputs": [
				{
					"name": "",
					"type": "bool"
				}
			],
			"payable": false,
			"stateMutability": "nonpayable",
			"type": "function"
		},
		{
			"constant": true,
			"inputs": [
				{
					"name": "_type",
					"type": "uint256"
				}
			],
			"name": "editionsOfType",
			"outputs": [
				{
					"name": "_editionNumbers",
					"type": "uint256[]"
				}
			],
			"payable": false,
			"stateMutability": "view",
			"type": "function"
		},
		{
			"constant": true,
			"inputs": [
				{
					"name": "_owner",
					"type": "address"
				},
				{
					"name": "_operator",
					"type": "address"
				}
			],
			"name": "isApprovedForAll",
			"outputs": [
				{
					"name": "",
					"type": "bool"
				}
			],
			"payable": false,
			"stateMutability": "view",
			"type": "function"
		},
		{
			"constant": false,
			"inputs": [
				{
					"name": "_editionNumber",
					"type": "uint256"
				}
			],
			"name": "purchase",
			"outputs": [
				{
					"name": "",
					"type": "uint256"
				}
			],
			"payable": true,
			"stateMutability": "payable",
			"type": "function"
		},
		{
			"constant": true,
			"inputs": [],
			"name": "totalNumberMinted",
			"outputs": [
				{
					"name": "",
					"type": "uint256"
				}
			],
			"payable": false,
			"stateMutability": "view",
			"type": "function"
		},
		{
			"constant": false,
			"inputs": [
				{
					"name": "_newOwner",
					"type": "address"
				}
			],
			"name": "transferOwnership",
			"outputs": [],
			"payable": false,
			"stateMutability": "nonpayable",
			"type": "function"
		},
		{
			"constant": false,
			"inputs": [
				{
					"name": "_from",
					"type": "address"
				},
				{
					"name": "_to",
					"type": "address"
				},
				{
					"name": "_tokenIds",
					"type": "uint256[]"
				}
			],
			"name": "batchTransferFrom",
			"outputs": [],
			"payable": false,
			"stateMutability": "nonpayable",
			"type": "function"
		},
		{
			"constant": false,
			"inputs": [
				{
					"name": "_editionNumber",
					"type": "uint256"
				},
				{
					"name": "_totalSupply",
					"type": "uint256"
				}
			],
			"name": "updateTotalSupply",
			"outputs": [],
			"payable": false,
			"stateMutability": "nonpayable",
			"type": "function"
		},
		{
			"constant": true,
			"inputs": [
				{
					"name": "_tokenId",
					"type": "uint256"
				}
			],
			"name": "tokenURISafe",
			"outputs": [
				{
					"name": "",
					"type": "string"
				}
			],
			"payable": false,
			"stateMutability": "view",
			"type": "function"
		},
		{
			"inputs": [],
			"payable": true,
			"stateMutability": "payable",
			"type": "constructor"
		},
		{
			"payable": false,
			"stateMutability": "nonpayable",
			"type": "fallback"
		},
		{
			"anonymous": false,
			"inputs": [
				{
					"indexed": true,
					"name": "_tokenId",
					"type": "uint256"
				},
				{
					"indexed": true,
					"name": "_editionNumber",
					"type": "uint256"
				},
				{
					"indexed": true,
					"name": "_buyer",
					"type": "address"
				},
				{
					"indexed": false,
					"name": "_priceInWei",
					"type": "uint256"
				}
			],
			"name": "Purchase",
			"type": "event"
		},
		{
			"anonymous": false,
			"inputs": [
				{
					"indexed": true,
					"name": "_tokenId",
					"type": "uint256"
				},
				{
					"indexed": true,
					"name": "_editionNumber",
					"type": "uint256"
				},
				{
					"indexed": true,
					"name": "_buyer",
					"type": "address"
				}
			],
			"name": "Minted",
			"type": "event"
		},
		{
			"anonymous": false,
			"inputs": [
				{
					"indexed": true,
					"name": "_editionNumber",
					"type": "uint256"
				},
				{
					"indexed": true,
					"name": "_editionData",
					"type": "bytes32"
				},
				{
					"indexed": true,
					"name": "_editionType",
					"type": "uint256"
				}
			],
			"name": "EditionCreated",
			"type": "event"
		},
		{
			"anonymous": false,
			"inputs": [],
			"name": "Pause",
			"type": "event"
		},
		{
			"anonymous": false,
			"inputs": [],
			"name": "Unpause",
			"type": "event"
		},
		{
			"anonymous": false,
			"inputs": [
				{
					"indexed": true,
					"name": "previousOwner",
					"type": "address"
				}
			],
			"name": "OwnershipRenounced",
			"type": "event"
		},
		{
			"anonymous": false,
			"inputs": [
				{
					"indexed": true,
					"name": "previousOwner",
					"type": "address"
				},
				{
					"indexed": true,
					"name": "newOwner",
					"type": "address"
				}
			],
			"name": "OwnershipTransferred",
			"type": "event"
		},
		{
			"anonymous": false,
			"inputs": [
				{
					"indexed": true,
					"name": "operator",
					"type": "address"
				},
				{
					"indexed": false,
					"name": "role",
					"type": "uint8"
				}
			],
			"name": "RoleAdded",
			"type": "event"
		},
		{
			"anonymous": false,
			"inputs": [
				{
					"indexed": true,
					"name": "operator",
					"type": "address"
				},
				{
					"indexed": false,
					"name": "role",
					"type": "uint8"
				}
			],
			"name": "RoleRemoved",
			"type": "event"
		},
		{
			"anonymous": false,
			"inputs": [
				{
					"indexed": true,
					"name": "_from",
					"type": "address"
				},
				{
					"indexed": true,
					"name": "_to",
					"type": "address"
				},
				{
					"indexed": true,
					"name": "_tokenId",
					"type": "uint256"
				}
			],
			"name": "Transfer",
			"type": "event"
		},
		{
			"anonymous": false,
			"inputs": [
				{
					"indexed": true,
					"name": "_owner",
					"type": "address"
				},
				{
					"indexed": true,
					"name": "_approved",
					"type": "address"
				},
				{
					"indexed": true,
					"name": "_tokenId",
					"type": "uint256"
				}
			],
			"name": "Approval",
			"type": "event"
		},
		{
			"anonymous": false,
			"inputs": [
				{
					"indexed": true,
					"name": "_owner",
					"type": "address"
				},
				{
					"indexed": true,
					"name": "_operator",
					"type": "address"
				},
				{
					"indexed": false,
					"name": "_approved",
					"type": "bool"
				}
			],
			"name": "ApprovalForAll",
			"type": "event"
		}
	]
}