{
	"data": {
		"bytecode": {
			"linkReferences": {},
			"object": "608060405234801561001057600080fd5b506100437f01ffc9a700000000000000000000000000000000000000000000000000000000640100000000610048810204565b6100b4565b7fffffffff00000000000000000000000000000000000000000000000000000000808216141561007757600080fd5b7fffffffff00000000000000000000000000000000000000000000000000000000166000908152602081905260409020805460ff19166001179055565b610166806100c36000396000f30060806040526004361061004b5763ffffffff7c010000000000000000000000000000000000000000000000000000000060003504166301ffc9a7811461005057806319fa8f501461009b575b600080fd5b34801561005c57600080fd5b506100877bffffffffffffffffffffffffffffffffffffffffffffffffffffffff19600435166100e2565b604080519115158252519081900360200190f35b3480156100a757600080fd5b506100b0610116565b604080517bffffffffffffffffffffffffffffffffffffffffffffffffffffffff199092168252519081900360200190f35b7bffffffffffffffffffffffffffffffffffffffffffffffffffffffff191660009081526020819052604090205460ff1690565b7f01ffc9a700000000000000000000000000000000000000000000000000000000815600a165627a7a723058209beeef8f0b88bd895287885a5d1b5845c25d06050eb48027a5ca2f0470b940170029",
			"opcodes": "PUSH1 0x80 PUSH1 0x40 MSTORE CALLVALUE DUP1 ISZERO PUSH2 0x10 JUMPI PUSH1 0x0 DUP1 REVERT JUMPDEST POP PUSH2 0x43 PUSH32 0x1FFC9A700000000000000000000000000000000000000000000000000000000 PUSH5 0x100000000 PUSH2 0x48 DUP2 MUL DIV JUMP JUMPDEST PUSH2 0xB4 JUMP JUMPDEST PUSH32 0xFFFFFFFF00000000000000000000000000000000000000000000000000000000 DUP1 DUP3 AND EQ ISZERO PUSH2 0x77 JUMPI PUSH1 0x0 DUP1 REVERT JUMPDEST PUSH32 0xFFFFFFFF00000000000000000000000000000000000000000000000000000000 AND PUSH1 0x0 SWAP1 DUP2 MSTORE PUSH1 0x20 DUP2 SWAP1 MSTORE PUSH1 0x40 SWAP1 KECCAK256 DUP1 SLOAD PUSH1 0xFF NOT AND PUSH1 0x1 OR SWAP1 SSTORE JUMP JUMPDEST PUSH2 0x166 DUP1 PUSH2 0xC3 PUSH1 0x0 CODECOPY PUSH1 0x0 RETURN STOP PUSH1 0x80 PUSH1 0x40 MSTORE PUSH1 0x4 CALLDATASIZE LT PUSH2 0x4B JUMPI PUSH4 0xFFFFFFFF PUSH29 0x100000000000000000000000000000000000000000000000000000000 PUSH1 0x0 CALLDATALOAD DIV AND PUSH4 0x1FFC9A7 DUP2 EQ PUSH2 0x50 JUMPI DUP1 PUSH4 0x19FA8F50 EQ PUSH2 0x9B JUMPI JUMPDEST PUSH1 0x0 DUP1 REVERT JUMPDEST CALLVALUE DUP1 ISZERO PUSH2 0x5C JUMPI PUSH1 0x0 DUP1 REVERT JUMPDEST POP PUSH2 0x87 PUSH28 0xFFFFFFFFFFFFFFFFFFFFFFFFFFFFFFFFFFFFFFFFFFFFFFFFFFFFFFFF NOT PUSH1 0x4 CALLDATALOAD AND PUSH2 0xE2 JUMP JUMPDEST PUSH1 0x40 DUP1 MLOAD SWAP2 ISZERO ISZERO DUP3 MSTORE MLOAD SWAP1 DUP2 SWAP1 SUB PUSH1 0x20 ADD SWAP1 RETURN JUMPDEST CALLVALUE DUP1 ISZERO PUSH2 0xA7 JUMPI PUSH1 0x0 DUP1 REVERT JUMPDEST POP PUSH2 0xB0 PUSH2 0x116 JUMP JUMPDEST PUSH1 0x40 DUP1 MLOAD PUSH28 0xFFFFFFFFFFFFFFFFFFFFFFFFFFFFFFFFFFFFFFFFFFFFFFFFFFFFFFFF NOT SWAP1 SWAP3 AND DUP3 MSTORE MLOAD SWAP1 DUP2 SWAP1 SUB PUSH1 0x20 ADD SWAP1 RETURN JUMPDEST PUSH28 0xFFFFFFFFFFFFFFFFFFFFFFFFFFFFFFFFFFFFFFFFFFFFFFFFFFFFFFFF NOT AND PUSH1 0x0 SWAP1 DUP2 MSTORE PUSH1 0x20 DUP2 SWAP1 MSTORE PUSH1 0x40 SWAP1 KECCAK256 SLOAD PUSH1 0xFF AND SWAP1 JUMP JUMPDEST PUSH32 0x1FFC9A700000000000000000000000000000000000000000000000000000000 DUP2 JUMP STOP LOG1 PUSH6 0x627A7A723058 KECCAK256 SWAP12 0xee 0xef DUP16 SIGNEXTEND DUP9 0xbd DUP10 MSTORE DUP8 DUP9 GAS 0x5d SHL PC GASLIMIT 0xc2 0x5d MOD SDIV 0xe 0xb4 DUP1 0x27 0xa5 0xca 0x2f DIV PUSH17 0xB940170029000000000000000000000000 "
		},
		"gasEstimates": {
			"creation": {
				"codeDepositCost": "71600",
				"executionCost": "infinite",
				"totalCost": "infinite"
			},
			"external": {
				"InterfaceId_ERC165()": "218",
				"supportsInterface(bytes4)": "489"
			},
			"internal": {
				"_registerInterface(bytes4)": "infinite"
			}
		},
		"methodIdentifiers": {
			"InterfaceId_ERC165()": "19fa8f50",
			"supportsInterface(bytes4)": "01ffc9a7"
		}
	},
	"abi": [
		{
			"constant": true,
			"inputs": [
				{
					"name": "_interfaceId",
					"type": "bytes4"
				}
			],
			"name": "supportsInterface",
			"outputs": [
				{
					"name": "",
					"type": "bool"
				}
			],
			"payable": false,
			"stateMutability": "view",
			"type": "function"
		},
		{
			"constant": true,
			"inputs": [],
			"name": "InterfaceId_ERC165",
			"outputs": [
				{
					"name": "",
					"type": "bytes4"
				}
			],
			"payable": false,
			"stateMutability": "view",
			"type": "function"
		},
		{
			"inputs": [],
			"payable": false,
			"stateMutability": "nonpayable",
			"type": "constructor"
		}
	]
}