{
	"contracts/openzeppelin/MyToken.sol": {
		"Faucet": {
			"abi": [
				{
					"inputs": [
						{
							"internalType": "address",
							"name": "_tokenContractAddress",
							"type": "address"
						},
						{
							"internalType": "uint256",
							"name": "_amountEachTime",
							"type": "uint256"
						}
					],
					"stateMutability": "nonpayable",
					"type": "constructor"
				},
				{
					"inputs": [],
					"name": "amountEachTime",
					"outputs": [
						{
							"internalType": "uint256",
							"name": "",
							"type": "uint256"
						}
					],
					"stateMutability": "view",
					"type": "function"
				},
				{
					"inputs": [],
					"name": "owner",
					"outputs": [
						{
							"internalType": "address",
							"name": "",
							"type": "address"
						}
					],
					"stateMutability": "view",
					"type": "function"
				},
				{
					"inputs": [
						{
							"internalType": "address",
							"name": "",
							"type": "address"
						}
					],
					"name": "recvedRecord",
					"outputs": [
						{
							"internalType": "uint256",
							"name": "",
							"type": "uint256"
						}
					],
					"stateMutability": "view",
					"type": "function"
				},
				{
					"inputs": [
						{
							"internalType": "uint256",
							"name": "_amountEachTime",
							"type": "uint256"
						}
					],
					"name": "setAmountEachTime",
					"outputs": [],
					"stateMutability": "nonpayable",
					"type": "function"
				},
				{
					"inputs": [],
					"name": "tokenContract",
					"outputs": [
						{
							"internalType": "contract IERC20",
							"name": "",
							"type": "address"
						}
					],
					"stateMutability": "view",
					"type": "function"
				},
				{
					"inputs": [],
					"name": "withdrow",
					"outputs": [],
					"stateMutability": "nonpayable",
					"type": "function"
				}
			],
			"devdoc": {
				"kind": "dev",
				"methods": {},
				"version": 1
			},
			"evm": {
				"assembly": "    /* \"contracts/openzeppelin/MyToken.sol\":4402:5607  contract Faucet {... */\n  mstore(0x40, 0x80)\n    /* \"contracts/openzeppelin/MyToken.sol\":4624:4824  constructor(address _tokenContractAddress, uint256 _amountEachTime) {... */\n  callvalue\n  dup1\n  iszero\n  tag_1\n  jumpi\n  0x00\n  dup1\n  revert\ntag_1:\n  pop\n  mload(0x40)\n  sub(codesize, bytecodeSize)\n  dup1\n  bytecodeSize\n  dup4\n  codecopy\n  dup2\n  add\n  0x40\n  dup2\n  swap1\n  mstore\n  tag_2\n  swap2\n  tag_3\n  jump\t// in\ntag_2:\n    /* \"contracts/openzeppelin/MyToken.sol\":4702:4715  tokenContract */\n  0x00\n    /* \"contracts/openzeppelin/MyToken.sol\":4702:4747  tokenContract = IERC20(_tokenContractAddress) */\n  dup1\n  sload\n  sub(shl(0xa0, 0x01), 0x01)\n  swap1\n  swap4\n  and\n  not(sub(shl(0xa0, 0x01), 0x01))\n  swap4\n  dup5\n  and\n  or\n  swap1\n  sstore\n    /* \"contracts/openzeppelin/MyToken.sol\":4757:4771  amountEachTime */\n  0x02\n    /* \"contracts/openzeppelin/MyToken.sol\":4757:4789  amountEachTime = _amountEachTime */\n  sstore\n    /* \"contracts/openzeppelin/MyToken.sol\":4799:4804  owner */\n  0x03\n    /* \"contracts/openzeppelin/MyToken.sol\":4799:4817  owner = msg.sender */\n  dup1\n  sload\n  swap1\n  swap2\n  and\n    /* \"contracts/openzeppelin/MyToken.sol\":4807:4817  msg.sender */\n  caller\n    /* \"contracts/openzeppelin/MyToken.sol\":4799:4817  owner = msg.sender */\n  or\n  swap1\n  sstore\n    /* \"contracts/openzeppelin/MyToken.sol\":4402:5607  contract Faucet {... */\n  jump(tag_7)\n    /* \"#utility.yul\":14:365   */\ntag_3:\n    /* \"#utility.yul\":93:99   */\n  0x00\n    /* \"#utility.yul\":101:107   */\n  dup1\n    /* \"#utility.yul\":154:156   */\n  0x40\n    /* \"#utility.yul\":142:151   */\n  dup4\n    /* \"#utility.yul\":133:140   */\n  dup6\n    /* \"#utility.yul\":129:152   */\n  sub\n    /* \"#utility.yul\":125:157   */\n  slt\n    /* \"#utility.yul\":122:174   */\n  iszero\n  tag_9\n  jumpi\n    /* \"#utility.yul\":170:171   */\n  0x00\n    /* \"#utility.yul\":167:168   */\n  dup1\n    /* \"#utility.yul\":160:172   */\n  revert\n    /* \"#utility.yul\":122:174   */\ntag_9:\n    /* \"#utility.yul\":196:212   */\n  dup3\n  mload\n  sub(shl(0xa0, 0x01), 0x01)\n    /* \"#utility.yul\":241:272   */\n  dup2\n  and\n    /* \"#utility.yul\":231:273   */\n  dup2\n  eq\n    /* \"#utility.yul\":221:291   */\n  tag_10\n  jumpi\n    /* \"#utility.yul\":287:288   */\n  0x00\n    /* \"#utility.yul\":284:285   */\n  dup1\n    /* \"#utility.yul\":277:289   */\n  revert\n    /* \"#utility.yul\":221:291   */\ntag_10:\n    /* \"#utility.yul\":355:357   */\n  0x20\n    /* \"#utility.yul\":340:358   */\n  swap4\n  swap1\n  swap4\n  add\n    /* \"#utility.yul\":334:359   */\n  mload\n    /* \"#utility.yul\":310:315   */\n  swap3\n  swap5\n    /* \"#utility.yul\":334:359   */\n  swap3\n  swap4\n  pop\n  pop\n  pop\n    /* \"#utility.yul\":14:365   */\n  jump\t// out\ntag_7:\n    /* \"contracts/openzeppelin/MyToken.sol\":4402:5607  contract Faucet {... */\n  dataSize(sub_0)\n  dup1\n  dataOffset(sub_0)\n  0x00\n  codecopy\n  0x00\n  return\nstop\n\nsub_0: assembly {\n        /* \"contracts/openzeppelin/MyToken.sol\":4402:5607  contract Faucet {... */\n      mstore(0x40, 0x80)\n      callvalue\n      dup1\n      iszero\n      tag_1\n      jumpi\n      0x00\n      dup1\n      revert\n    tag_1:\n      pop\n      jumpi(tag_2, lt(calldatasize, 0x04))\n      shr(0xe0, calldataload(0x00))\n      dup1\n      0x3b874521\n      eq\n      tag_3\n      jumpi\n      dup1\n      0x55a373d6\n      eq\n      tag_4\n      jumpi\n      dup1\n      0x5e9e23b4\n      eq\n      tag_5\n      jumpi\n      dup1\n      0x74fc37ce\n      eq\n      tag_6\n      jumpi\n      dup1\n      0x8da5cb5b\n      eq\n      tag_7\n      jumpi\n      dup1\n      0xd56272bd\n      eq\n      tag_8\n      jumpi\n    tag_2:\n      0x00\n      dup1\n      revert\n        /* \"contracts/openzeppelin/MyToken.sol\":4893:5415  function withdrow() external {... */\n    tag_3:\n      tag_9\n      tag_10\n      jump\t// in\n    tag_9:\n      stop\n        /* \"contracts/openzeppelin/MyToken.sol\":4424:4451  IERC20 public tokenContract */\n    tag_4:\n      sload(0x00)\n      tag_11\n      swap1\n      sub(shl(0xa0, 0x01), 0x01)\n      and\n      dup2\n      jump\n    tag_11:\n      mload(0x40)\n      sub(shl(0xa0, 0x01), 0x01)\n        /* \"#utility.yul\":192:224   */\n      swap1\n      swap2\n      and\n        /* \"#utility.yul\":174:225   */\n      dup2\n      mstore\n        /* \"#utility.yul\":162:164   */\n      0x20\n        /* \"#utility.yul\":147:165   */\n      add\n        /* \"contracts/openzeppelin/MyToken.sol\":4424:4451  IERC20 public tokenContract */\n    tag_13:\n      mload(0x40)\n      dup1\n      swap2\n      sub\n      swap1\n      return\n        /* \"contracts/openzeppelin/MyToken.sol\":5421:5605  function setAmountEachTime(uint256 _amountEachTime) public {... */\n    tag_5:\n      tag_9\n      tag_16\n      calldatasize\n      0x04\n      tag_17\n      jump\t// in\n    tag_16:\n      tag_18\n      jump\t// in\n        /* \"contracts/openzeppelin/MyToken.sol\":4473:4520  mapping(address => uint256) public recvedRecord */\n    tag_6:\n      tag_19\n      tag_20\n      calldatasize\n      0x04\n      tag_21\n      jump\t// in\n    tag_20:\n      mstore(0x20, 0x01)\n      0x00\n      swap1\n      dup2\n      mstore\n      0x40\n      swap1\n      keccak256\n      sload\n      dup2\n      jump\n    tag_19:\n      mload(0x40)\n        /* \"#utility.yul\":858:883   */\n      swap1\n      dup2\n      mstore\n        /* \"#utility.yul\":846:848   */\n      0x20\n        /* \"#utility.yul\":831:849   */\n      add\n        /* \"contracts/openzeppelin/MyToken.sol\":4473:4520  mapping(address => uint256) public recvedRecord */\n      tag_13\n        /* \"#utility.yul\":712:889   */\n      jump\n        /* \"contracts/openzeppelin/MyToken.sol\":4597:4617  address public owner */\n    tag_7:\n      sload(0x03)\n      tag_11\n      swap1\n      sub(shl(0xa0, 0x01), 0x01)\n      and\n      dup2\n      jump\n        /* \"contracts/openzeppelin/MyToken.sol\":4541:4570  uint256 public amountEachTime */\n    tag_8:\n      tag_19\n      sload(0x02)\n      dup2\n      jump\n        /* \"contracts/openzeppelin/MyToken.sol\":4893:5415  function withdrow() external {... */\n    tag_10:\n        /* \"contracts/openzeppelin/MyToken.sol\":4949:4959  msg.sender */\n      caller\n        /* \"contracts/openzeppelin/MyToken.sol\":4963:4964  0 */\n      0x00\n        /* \"contracts/openzeppelin/MyToken.sol\":4936:4960  recvedRecord[msg.sender] */\n      swap1\n      dup2\n      mstore\n        /* \"contracts/openzeppelin/MyToken.sol\":4936:4948  recvedRecord */\n      0x01\n        /* \"contracts/openzeppelin/MyToken.sol\":4936:4960  recvedRecord[msg.sender] */\n      0x20\n      mstore\n      0x40\n      swap1\n      keccak256\n      sload\n        /* \"contracts/openzeppelin/MyToken.sol\":4936:4964  recvedRecord[msg.sender] > 0 */\n      iszero\n        /* \"contracts/openzeppelin/MyToken.sol\":4932:5151  if (recvedRecord[msg.sender] > 0) {... */\n      tag_36\n      jumpi\n        /* \"contracts/openzeppelin/MyToken.sol\":5036:5046  msg.sender */\n      caller\n        /* \"contracts/openzeppelin/MyToken.sol\":5023:5047  recvedRecord[msg.sender] */\n      0x00\n      swap1\n      dup2\n      mstore\n        /* \"contracts/openzeppelin/MyToken.sol\":5023:5035  recvedRecord */\n      0x01\n        /* \"contracts/openzeppelin/MyToken.sol\":5023:5047  recvedRecord[msg.sender] */\n      0x20\n      mstore\n      0x40\n      swap1\n      keccak256\n      sload\n        /* \"contracts/openzeppelin/MyToken.sol\":5051:5059  24 hours */\n      0x015180\n      swap1\n        /* \"contracts/openzeppelin/MyToken.sol\":5005:5047  block.timestamp - recvedRecord[msg.sender] */\n      tag_34\n      swap1\n        /* \"contracts/openzeppelin/MyToken.sol\":5005:5020  block.timestamp */\n      timestamp\n        /* \"contracts/openzeppelin/MyToken.sol\":5005:5047  block.timestamp - recvedRecord[msg.sender] */\n      tag_35\n      jump\t// in\n    tag_34:\n        /* \"contracts/openzeppelin/MyToken.sol\":5005:5059  block.timestamp - recvedRecord[msg.sender] >= 24 hours */\n      lt\n      iszero\n        /* \"contracts/openzeppelin/MyToken.sol\":4980:5140  require(... */\n      tag_36\n      jumpi\n      mload(0x40)\n      shl(0xe5, 0x461bcd)\n      dup2\n      mstore\n        /* \"#utility.yul\":1534:1536   */\n      0x20\n        /* \"contracts/openzeppelin/MyToken.sol\":4980:5140  require(... */\n      0x04\n      dup3\n      add\n        /* \"#utility.yul\":1516:1537   */\n      mstore\n        /* \"#utility.yul\":1573:1575   */\n      0x2f\n        /* \"#utility.yul\":1553:1571   */\n      0x24\n      dup3\n      add\n        /* \"#utility.yul\":1546:1576   */\n      mstore\n        /* \"#utility.yul\":1612:1646   */\n      0x596f752063616e206f6e6c79207265717565737420746f6b656e73206f6e6365\n        /* \"#utility.yul\":1592:1610   */\n      0x44\n      dup3\n      add\n        /* \"#utility.yul\":1585:1647   */\n      mstore\n      shl(0x88, 0x20657665727920323420686f757273)\n        /* \"#utility.yul\":1663:1681   */\n      0x64\n      dup3\n      add\n        /* \"#utility.yul\":1656:1701   */\n      mstore\n        /* \"#utility.yul\":1718:1737   */\n      0x84\n      add\n        /* \"contracts/openzeppelin/MyToken.sol\":4980:5140  require(... */\n    tag_37:\n      mload(0x40)\n      dup1\n      swap2\n      sub\n      swap1\n      revert\n    tag_36:\n        /* \"contracts/openzeppelin/MyToken.sol\":5223:5237  amountEachTime */\n      sload(0x02)\n        /* \"contracts/openzeppelin/MyToken.sol\":5181:5194  tokenContract */\n      sload(0x00)\n        /* \"contracts/openzeppelin/MyToken.sol\":5181:5219  tokenContract.balanceOf(address(this)) */\n      mload(0x40)\n      shl(0xe0, 0x70a08231)\n      dup2\n      mstore\n        /* \"contracts/openzeppelin/MyToken.sol\":5213:5217  this */\n      address\n        /* \"contracts/openzeppelin/MyToken.sol\":5181:5219  tokenContract.balanceOf(address(this)) */\n      0x04\n      dup3\n      add\n        /* \"#utility.yul\":174:225   */\n      mstore\n      sub(shl(0xa0, 0x01), 0x01)\n        /* \"contracts/openzeppelin/MyToken.sol\":5181:5194  tokenContract */\n      swap1\n      swap2\n      and\n      swap1\n        /* \"contracts/openzeppelin/MyToken.sol\":5181:5204  tokenContract.balanceOf */\n      0x70a08231\n      swap1\n        /* \"#utility.yul\":147:165   */\n      0x24\n      add\n        /* \"contracts/openzeppelin/MyToken.sol\":5181:5219  tokenContract.balanceOf(address(this)) */\n      0x20\n      mload(0x40)\n      dup1\n      dup4\n      sub\n      dup2\n      dup7\n      gas\n      staticcall\n      iszero\n      dup1\n      iszero\n      tag_41\n      jumpi\n      returndatasize\n      0x00\n      dup1\n      returndatacopy\n      revert(0x00, returndatasize)\n    tag_41:\n      pop\n      pop\n      pop\n      pop\n      mload(0x40)\n      returndatasize\n      not(0x1f)\n      0x1f\n      dup3\n      add\n      and\n      dup3\n      add\n      dup1\n      0x40\n      mstore\n      pop\n      dup2\n      add\n      swap1\n      tag_42\n      swap2\n      swap1\n      tag_43\n      jump\t// in\n    tag_42:\n        /* \"contracts/openzeppelin/MyToken.sol\":5181:5237  tokenContract.balanceOf(address(this)) >= amountEachTime */\n      lt\n      iszero\n        /* \"contracts/openzeppelin/MyToken.sol\":5160:5296  require(... */\n      tag_44\n      jumpi\n      mload(0x40)\n      shl(0xe5, 0x461bcd)\n      dup2\n      mstore\n        /* \"#utility.yul\":2139:2141   */\n      0x20\n        /* \"contracts/openzeppelin/MyToken.sol\":5160:5296  require(... */\n      0x04\n      dup3\n      add\n        /* \"#utility.yul\":2121:2142   */\n      mstore\n        /* \"#utility.yul\":2178:2180   */\n      0x21\n        /* \"#utility.yul\":2158:2176   */\n      0x24\n      dup3\n      add\n        /* \"#utility.yul\":2151:2181   */\n      mstore\n        /* \"#utility.yul\":2217:2251   */\n      0x4e6f7420656e6f75676820746f6b656e7320696e2074686520636f6e74726163\n        /* \"#utility.yul\":2197:2215   */\n      0x44\n      dup3\n      add\n        /* \"#utility.yul\":2190:2252   */\n      mstore\n      shl(0xfa, 0x1d)\n        /* \"#utility.yul\":2268:2286   */\n      0x64\n      dup3\n      add\n        /* \"#utility.yul\":2261:2292   */\n      mstore\n        /* \"#utility.yul\":2309:2328   */\n      0x84\n      add\n        /* \"contracts/openzeppelin/MyToken.sol\":5160:5296  require(... */\n      tag_37\n        /* \"#utility.yul\":1937:2334   */\n      jump\n        /* \"contracts/openzeppelin/MyToken.sol\":5160:5296  require(... */\n    tag_44:\n        /* \"contracts/openzeppelin/MyToken.sol\":5319:5329  msg.sender */\n      caller\n        /* \"contracts/openzeppelin/MyToken.sol\":5306:5330  recvedRecord[msg.sender] */\n      0x00\n      dup2\n      dup2\n      mstore\n        /* \"contracts/openzeppelin/MyToken.sol\":5306:5318  recvedRecord */\n      0x01\n        /* \"contracts/openzeppelin/MyToken.sol\":5306:5330  recvedRecord[msg.sender] */\n      0x20\n      mstore\n      0x40\n      dup1\n      dup3\n      keccak256\n        /* \"contracts/openzeppelin/MyToken.sol\":5333:5348  block.timestamp */\n      timestamp\n        /* \"contracts/openzeppelin/MyToken.sol\":5306:5348  recvedRecord[msg.sender] = block.timestamp */\n      swap1\n      sstore\n        /* \"contracts/openzeppelin/MyToken.sol\":5358:5371  tokenContract */\n      swap1\n      sload\n        /* \"contracts/openzeppelin/MyToken.sol\":5393:5407  amountEachTime */\n      sload(0x02)\n        /* \"contracts/openzeppelin/MyToken.sol\":5358:5408  tokenContract.transfer(msg.sender, amountEachTime) */\n      swap2\n      mload\n      shl(0xe0, 0xa9059cbb)\n      dup2\n      mstore\n      0x04\n      dup2\n      add\n        /* \"#utility.yul\":2513:2564   */\n      swap4\n      swap1\n      swap4\n      mstore\n        /* \"#utility.yul\":2580:2598   */\n      0x24\n      dup4\n      add\n        /* \"#utility.yul\":2573:2607   */\n      swap2\n      swap1\n      swap2\n      mstore\n      sub(shl(0xa0, 0x01), 0x01)\n        /* \"contracts/openzeppelin/MyToken.sol\":5358:5371  tokenContract */\n      and\n      swap1\n        /* \"contracts/openzeppelin/MyToken.sol\":5358:5380  tokenContract.transfer */\n      0xa9059cbb\n      swap1\n        /* \"#utility.yul\":2486:2504   */\n      0x44\n      add\n        /* \"contracts/openzeppelin/MyToken.sol\":5358:5408  tokenContract.transfer(msg.sender, amountEachTime) */\n      0x20\n      mload(0x40)\n      dup1\n      dup4\n      sub\n      dup2\n      0x00\n      dup8\n      gas\n      call\n      iszero\n      dup1\n      iszero\n      tag_50\n      jumpi\n      returndatasize\n      0x00\n      dup1\n      returndatacopy\n      revert(0x00, returndatasize)\n    tag_50:\n      pop\n      pop\n      pop\n      pop\n      mload(0x40)\n      returndatasize\n      not(0x1f)\n      0x1f\n      dup3\n      add\n      and\n      dup3\n      add\n      dup1\n      0x40\n      mstore\n      pop\n      dup2\n      add\n      swap1\n      tag_51\n      swap2\n      swap1\n      tag_52\n      jump\t// in\n    tag_51:\n      pop\n        /* \"contracts/openzeppelin/MyToken.sol\":4893:5415  function withdrow() external {... */\n      jump\t// out\n        /* \"contracts/openzeppelin/MyToken.sol\":5421:5605  function setAmountEachTime(uint256 _amountEachTime) public {... */\n    tag_18:\n        /* \"contracts/openzeppelin/MyToken.sol\":5498:5503  owner */\n      and(sub(shl(0xa0, 0x01), 0x01), sload(0x03))\n        /* \"contracts/openzeppelin/MyToken.sol\":5507:5517  msg.sender */\n      caller\n        /* \"contracts/openzeppelin/MyToken.sol\":5498:5517  owner == msg.sender */\n      eq\n        /* \"contracts/openzeppelin/MyToken.sol\":5490:5556  require(owner == msg.sender, \"Only the owner can set this amount\") */\n      tag_54\n      jumpi\n      mload(0x40)\n      shl(0xe5, 0x461bcd)\n      dup2\n      mstore\n        /* \"#utility.yul\":3102:3104   */\n      0x20\n        /* \"contracts/openzeppelin/MyToken.sol\":5490:5556  require(owner == msg.sender, \"Only the owner can set this amount\") */\n      0x04\n      dup3\n      add\n        /* \"#utility.yul\":3084:3105   */\n      mstore\n        /* \"#utility.yul\":3141:3143   */\n      0x22\n        /* \"#utility.yul\":3121:3139   */\n      0x24\n      dup3\n      add\n        /* \"#utility.yul\":3114:3144   */\n      mstore\n        /* \"#utility.yul\":3180:3214   */\n      0x4f6e6c7920746865206f776e65722063616e20736574207468697320616d6f75\n        /* \"#utility.yul\":3160:3178   */\n      0x44\n      dup3\n      add\n        /* \"#utility.yul\":3153:3215   */\n      mstore\n      shl(0xf2, 0x1b9d)\n        /* \"#utility.yul\":3231:3249   */\n      0x64\n      dup3\n      add\n        /* \"#utility.yul\":3224:3256   */\n      mstore\n        /* \"#utility.yul\":3273:3292   */\n      0x84\n      add\n        /* \"contracts/openzeppelin/MyToken.sol\":5490:5556  require(owner == msg.sender, \"Only the owner can set this amount\") */\n      tag_37\n        /* \"#utility.yul\":2900:3298   */\n      jump\n        /* \"contracts/openzeppelin/MyToken.sol\":5490:5556  require(owner == msg.sender, \"Only the owner can set this amount\") */\n    tag_54:\n        /* \"contracts/openzeppelin/MyToken.sol\":5566:5580  amountEachTime */\n      0x02\n        /* \"contracts/openzeppelin/MyToken.sol\":5566:5598  amountEachTime = _amountEachTime */\n      sstore\n        /* \"contracts/openzeppelin/MyToken.sol\":5421:5605  function setAmountEachTime(uint256 _amountEachTime) public {... */\n      jump\t// out\n        /* \"#utility.yul\":236:416   */\n    tag_17:\n        /* \"#utility.yul\":295:301   */\n      0x00\n        /* \"#utility.yul\":348:350   */\n      0x20\n        /* \"#utility.yul\":336:345   */\n      dup3\n        /* \"#utility.yul\":327:334   */\n      dup5\n        /* \"#utility.yul\":323:346   */\n      sub\n        /* \"#utility.yul\":319:351   */\n      slt\n        /* \"#utility.yul\":316:368   */\n      iszero\n      tag_60\n      jumpi\n        /* \"#utility.yul\":364:365   */\n      0x00\n        /* \"#utility.yul\":361:362   */\n      dup1\n        /* \"#utility.yul\":354:366   */\n      revert\n        /* \"#utility.yul\":316:368   */\n    tag_60:\n      pop\n        /* \"#utility.yul\":387:410   */\n      calldataload\n      swap2\n        /* \"#utility.yul\":236:416   */\n      swap1\n      pop\n      jump\t// out\n        /* \"#utility.yul\":421:707   */\n    tag_21:\n        /* \"#utility.yul\":480:486   */\n      0x00\n        /* \"#utility.yul\":533:535   */\n      0x20\n        /* \"#utility.yul\":521:530   */\n      dup3\n        /* \"#utility.yul\":512:519   */\n      dup5\n        /* \"#utility.yul\":508:531   */\n      sub\n        /* \"#utility.yul\":504:536   */\n      slt\n        /* \"#utility.yul\":501:553   */\n      iszero\n      tag_62\n      jumpi\n        /* \"#utility.yul\":549:550   */\n      0x00\n        /* \"#utility.yul\":546:547   */\n      dup1\n        /* \"#utility.yul\":539:551   */\n      revert\n        /* \"#utility.yul\":501:553   */\n    tag_62:\n        /* \"#utility.yul\":575:598   */\n      dup2\n      calldataload\n      sub(shl(0xa0, 0x01), 0x01)\n        /* \"#utility.yul\":627:658   */\n      dup2\n      and\n        /* \"#utility.yul\":617:659   */\n      dup2\n      eq\n        /* \"#utility.yul\":607:677   */\n      tag_63\n      jumpi\n        /* \"#utility.yul\":673:674   */\n      0x00\n        /* \"#utility.yul\":670:671   */\n      dup1\n        /* \"#utility.yul\":663:675   */\n      revert\n        /* \"#utility.yul\":607:677   */\n    tag_63:\n        /* \"#utility.yul\":696:701   */\n      swap4\n        /* \"#utility.yul\":421:707   */\n      swap3\n      pop\n      pop\n      pop\n      jump\t// out\n        /* \"#utility.yul\":1102:1327   */\n    tag_35:\n        /* \"#utility.yul\":1169:1178   */\n      dup2\n      dup2\n      sub\n        /* \"#utility.yul\":1190:1201   */\n      dup2\n      dup2\n      gt\n        /* \"#utility.yul\":1187:1321   */\n      iszero\n      tag_67\n      jumpi\n        /* \"#utility.yul\":1243:1253   */\n      0x4e487b71\n        /* \"#utility.yul\":1238:1241   */\n      0xe0\n        /* \"#utility.yul\":1234:1254   */\n      shl\n        /* \"#utility.yul\":1231:1232   */\n      0x00\n        /* \"#utility.yul\":1224:1255   */\n      mstore\n        /* \"#utility.yul\":1278:1282   */\n      0x11\n        /* \"#utility.yul\":1275:1276   */\n      0x04\n        /* \"#utility.yul\":1268:1283   */\n      mstore\n        /* \"#utility.yul\":1306:1310   */\n      0x24\n        /* \"#utility.yul\":1303:1304   */\n      0x00\n        /* \"#utility.yul\":1296:1311   */\n      revert\n        /* \"#utility.yul\":1187:1321   */\n    tag_67:\n        /* \"#utility.yul\":1102:1327   */\n      swap3\n      swap2\n      pop\n      pop\n      jump\t// out\n        /* \"#utility.yul\":1748:1932   */\n    tag_43:\n        /* \"#utility.yul\":1818:1824   */\n      0x00\n        /* \"#utility.yul\":1871:1873   */\n      0x20\n        /* \"#utility.yul\":1859:1868   */\n      dup3\n        /* \"#utility.yul\":1850:1857   */\n      dup5\n        /* \"#utility.yul\":1846:1869   */\n      sub\n        /* \"#utility.yul\":1842:1874   */\n      slt\n        /* \"#utility.yul\":1839:1891   */\n      iszero\n      tag_70\n      jumpi\n        /* \"#utility.yul\":1887:1888   */\n      0x00\n        /* \"#utility.yul\":1884:1885   */\n      dup1\n        /* \"#utility.yul\":1877:1889   */\n      revert\n        /* \"#utility.yul\":1839:1891   */\n    tag_70:\n      pop\n        /* \"#utility.yul\":1910:1926   */\n      mload\n      swap2\n        /* \"#utility.yul\":1748:1932   */\n      swap1\n      pop\n      jump\t// out\n        /* \"#utility.yul\":2618:2895   */\n    tag_52:\n        /* \"#utility.yul\":2685:2691   */\n      0x00\n        /* \"#utility.yul\":2738:2740   */\n      0x20\n        /* \"#utility.yul\":2726:2735   */\n      dup3\n        /* \"#utility.yul\":2717:2724   */\n      dup5\n        /* \"#utility.yul\":2713:2736   */\n      sub\n        /* \"#utility.yul\":2709:2741   */\n      slt\n        /* \"#utility.yul\":2706:2758   */\n      iszero\n      tag_74\n      jumpi\n        /* \"#utility.yul\":2754:2755   */\n      0x00\n        /* \"#utility.yul\":2751:2752   */\n      dup1\n        /* \"#utility.yul\":2744:2756   */\n      revert\n        /* \"#utility.yul\":2706:2758   */\n    tag_74:\n        /* \"#utility.yul\":2786:2795   */\n      dup2\n        /* \"#utility.yul\":2780:2796   */\n      mload\n        /* \"#utility.yul\":2839:2844   */\n      dup1\n        /* \"#utility.yul\":2832:2845   */\n      iszero\n        /* \"#utility.yul\":2825:2846   */\n      iszero\n        /* \"#utility.yul\":2818:2823   */\n      dup2\n        /* \"#utility.yul\":2815:2847   */\n      eq\n        /* \"#utility.yul\":2805:2865   */\n      tag_63\n      jumpi\n        /* \"#utility.yul\":2861:2862   */\n      0x00\n        /* \"#utility.yul\":2858:2859   */\n      dup1\n        /* \"#utility.yul\":2851:2863   */\n      revert\n\n    auxdata: 0xa26469706673582212200efd5417ac43ce9dd1cefd613deeff1025b4033271b169d62f7555fa51408f5964736f6c634300081a0033\n}\n",
				"bytecode": {
					"linkReferences": {},
					"object": "6080604052348015600e575f80fd5b506040516104be3803806104be833981016040819052602b91605a565b5f80546001600160a01b039093166001600160a01b03199384161790556002556003805490911633179055608f565b5f8060408385031215606a575f80fd5b82516001600160a01b0381168114607f575f80fd5b6020939093015192949293505050565b6104228061009c5f395ff3fe608060405234801561000f575f80fd5b5060043610610060575f3560e01c80633b8745211461006457806355a373d61461006e5780635e9e23b41461009d57806374fc37ce146100b05780638da5cb5b146100dd578063d56272bd146100f0575b5f80fd5b61006c6100f9565b005b5f54610080906001600160a01b031681565b6040516001600160a01b0390911681526020015b60405180910390f35b61006c6100ab36600461034d565b6102e3565b6100cf6100be366004610364565b60016020525f908152604090205481565b604051908152602001610094565b600354610080906001600160a01b031681565b6100cf60025481565b335f908152600160205260409020541561019657335f90815260016020526040902054620151809061012b9042610391565b10156101965760405162461bcd60e51b815260206004820152602f60248201527f596f752063616e206f6e6c79207265717565737420746f6b656e73206f6e636560448201526e20657665727920323420686f75727360881b60648201526084015b60405180910390fd5b6002545f546040516370a0823160e01b81523060048201526001600160a01b03909116906370a0823190602401602060405180830381865afa1580156101de573d5f803e3d5ffd5b505050506040513d601f19601f8201168201806040525081019061020291906103b6565b101561025a5760405162461bcd60e51b815260206004820152602160248201527f4e6f7420656e6f75676820746f6b656e7320696e2074686520636f6e747261636044820152601d60fa1b606482015260840161018d565b335f818152600160205260408082204290559054600254915163a9059cbb60e01b8152600481019390935260248301919091526001600160a01b03169063a9059cbb906044016020604051808303815f875af11580156102bc573d5f803e3d5ffd5b505050506040513d601f19601f820116820180604052508101906102e091906103cd565b50565b6003546001600160a01b031633146103485760405162461bcd60e51b815260206004820152602260248201527f4f6e6c7920746865206f776e65722063616e20736574207468697320616d6f756044820152611b9d60f21b606482015260840161018d565b600255565b5f6020828403121561035d575f80fd5b5035919050565b5f60208284031215610374575f80fd5b81356001600160a01b038116811461038a575f80fd5b9392505050565b818103818111156103b057634e487b7160e01b5f52601160045260245ffd5b92915050565b5f602082840312156103c6575f80fd5b5051919050565b5f602082840312156103dd575f80fd5b8151801515811461038a575f80fdfea26469706673582212200efd5417ac43ce9dd1cefd613deeff1025b4033271b169d62f7555fa51408f5964736f6c634300081a0033",
					"opcodes": "PUSH1 0x80 PUSH1 0x40 MSTORE CALLVALUE DUP1 ISZERO PUSH1 0xE JUMPI PUSH0 DUP1 REVERT JUMPDEST POP PUSH1 0x40 MLOAD PUSH2 0x4BE CODESIZE SUB DUP1 PUSH2 0x4BE DUP4 CODECOPY DUP2 ADD PUSH1 0x40 DUP2 SWAP1 MSTORE PUSH1 0x2B SWAP2 PUSH1 0x5A JUMP JUMPDEST PUSH0 DUP1 SLOAD PUSH1 0x1 PUSH1 0x1 PUSH1 0xA0 SHL SUB SWAP1 SWAP4 AND PUSH1 0x1 PUSH1 0x1 PUSH1 0xA0 SHL SUB NOT SWAP4 DUP5 AND OR SWAP1 SSTORE PUSH1 0x2 SSTORE PUSH1 0x3 DUP1 SLOAD SWAP1 SWAP2 AND CALLER OR SWAP1 SSTORE PUSH1 0x8F JUMP JUMPDEST PUSH0 DUP1 PUSH1 0x40 DUP4 DUP6 SUB SLT ISZERO PUSH1 0x6A JUMPI PUSH0 DUP1 REVERT JUMPDEST DUP3 MLOAD PUSH1 0x1 PUSH1 0x1 PUSH1 0xA0 SHL SUB DUP2 AND DUP2 EQ PUSH1 0x7F JUMPI PUSH0 DUP1 REVERT JUMPDEST PUSH1 0x20 SWAP4 SWAP1 SWAP4 ADD MLOAD SWAP3 SWAP5 SWAP3 SWAP4 POP POP POP JUMP JUMPDEST PUSH2 0x422 DUP1 PUSH2 0x9C PUSH0 CODECOPY PUSH0 RETURN INVALID PUSH1 0x80 PUSH1 0x40 MSTORE CALLVALUE DUP1 ISZERO PUSH2 0xF JUMPI PUSH0 DUP1 REVERT JUMPDEST POP PUSH1 0x4 CALLDATASIZE LT PUSH2 0x60 JUMPI PUSH0 CALLDATALOAD PUSH1 0xE0 SHR DUP1 PUSH4 0x3B874521 EQ PUSH2 0x64 JUMPI DUP1 PUSH4 0x55A373D6 EQ PUSH2 0x6E JUMPI DUP1 PUSH4 0x5E9E23B4 EQ PUSH2 0x9D JUMPI DUP1 PUSH4 0x74FC37CE EQ PUSH2 0xB0 JUMPI DUP1 PUSH4 0x8DA5CB5B EQ PUSH2 0xDD JUMPI DUP1 PUSH4 0xD56272BD EQ PUSH2 0xF0 JUMPI JUMPDEST PUSH0 DUP1 REVERT JUMPDEST PUSH2 0x6C PUSH2 0xF9 JUMP JUMPDEST STOP JUMPDEST PUSH0 SLOAD PUSH2 0x80 SWAP1 PUSH1 0x1 PUSH1 0x1 PUSH1 0xA0 SHL SUB AND DUP2 JUMP JUMPDEST PUSH1 0x40 MLOAD PUSH1 0x1 PUSH1 0x1 PUSH1 0xA0 SHL SUB SWAP1 SWAP2 AND DUP2 MSTORE PUSH1 0x20 ADD JUMPDEST PUSH1 0x40 MLOAD DUP1 SWAP2 SUB SWAP1 RETURN JUMPDEST PUSH2 0x6C PUSH2 0xAB CALLDATASIZE PUSH1 0x4 PUSH2 0x34D JUMP JUMPDEST PUSH2 0x2E3 JUMP JUMPDEST PUSH2 0xCF PUSH2 0xBE CALLDATASIZE PUSH1 0x4 PUSH2 0x364 JUMP JUMPDEST PUSH1 0x1 PUSH1 0x20 MSTORE PUSH0 SWAP1 DUP2 MSTORE PUSH1 0x40 SWAP1 KECCAK256 SLOAD DUP2 JUMP JUMPDEST PUSH1 0x40 MLOAD SWAP1 DUP2 MSTORE PUSH1 0x20 ADD PUSH2 0x94 JUMP JUMPDEST PUSH1 0x3 SLOAD PUSH2 0x80 SWAP1 PUSH1 0x1 PUSH1 0x1 PUSH1 0xA0 SHL SUB AND DUP2 JUMP JUMPDEST PUSH2 0xCF PUSH1 0x2 SLOAD DUP2 JUMP JUMPDEST CALLER PUSH0 SWAP1 DUP2 MSTORE PUSH1 0x1 PUSH1 0x20 MSTORE PUSH1 0x40 SWAP1 KECCAK256 SLOAD ISZERO PUSH2 0x196 JUMPI CALLER PUSH0 SWAP1 DUP2 MSTORE PUSH1 0x1 PUSH1 0x20 MSTORE PUSH1 0x40 SWAP1 KECCAK256 SLOAD PUSH3 0x15180 SWAP1 PUSH2 0x12B SWAP1 TIMESTAMP PUSH2 0x391 JUMP JUMPDEST LT ISZERO PUSH2 0x196 JUMPI PUSH1 0x40 MLOAD PUSH3 0x461BCD PUSH1 0xE5 SHL DUP2 MSTORE PUSH1 0x20 PUSH1 0x4 DUP3 ADD MSTORE PUSH1 0x2F PUSH1 0x24 DUP3 ADD MSTORE PUSH32 0x596F752063616E206F6E6C79207265717565737420746F6B656E73206F6E6365 PUSH1 0x44 DUP3 ADD MSTORE PUSH15 0x20657665727920323420686F757273 PUSH1 0x88 SHL PUSH1 0x64 DUP3 ADD MSTORE PUSH1 0x84 ADD JUMPDEST PUSH1 0x40 MLOAD DUP1 SWAP2 SUB SWAP1 REVERT JUMPDEST PUSH1 0x2 SLOAD PUSH0 SLOAD PUSH1 0x40 MLOAD PUSH4 0x70A08231 PUSH1 0xE0 SHL DUP2 MSTORE ADDRESS PUSH1 0x4 DUP3 ADD MSTORE PUSH1 0x1 PUSH1 0x1 PUSH1 0xA0 SHL SUB SWAP1 SWAP2 AND SWAP1 PUSH4 0x70A08231 SWAP1 PUSH1 0x24 ADD PUSH1 0x20 PUSH1 0x40 MLOAD DUP1 DUP4 SUB DUP2 DUP7 GAS STATICCALL ISZERO DUP1 ISZERO PUSH2 0x1DE JUMPI RETURNDATASIZE PUSH0 DUP1 RETURNDATACOPY RETURNDATASIZE PUSH0 REVERT JUMPDEST POP POP POP POP PUSH1 0x40 MLOAD RETURNDATASIZE PUSH1 0x1F NOT PUSH1 0x1F DUP3 ADD AND DUP3 ADD DUP1 PUSH1 0x40 MSTORE POP DUP2 ADD SWAP1 PUSH2 0x202 SWAP2 SWAP1 PUSH2 0x3B6 JUMP JUMPDEST LT ISZERO PUSH2 0x25A JUMPI PUSH1 0x40 MLOAD PUSH3 0x461BCD PUSH1 0xE5 SHL DUP2 MSTORE PUSH1 0x20 PUSH1 0x4 DUP3 ADD MSTORE PUSH1 0x21 PUSH1 0x24 DUP3 ADD MSTORE PUSH32 0x4E6F7420656E6F75676820746F6B656E7320696E2074686520636F6E74726163 PUSH1 0x44 DUP3 ADD MSTORE PUSH1 0x1D PUSH1 0xFA SHL PUSH1 0x64 DUP3 ADD MSTORE PUSH1 0x84 ADD PUSH2 0x18D JUMP JUMPDEST CALLER PUSH0 DUP2 DUP2 MSTORE PUSH1 0x1 PUSH1 0x20 MSTORE PUSH1 0x40 DUP1 DUP3 KECCAK256 TIMESTAMP SWAP1 SSTORE SWAP1 SLOAD PUSH1 0x2 SLOAD SWAP2 MLOAD PUSH4 0xA9059CBB PUSH1 0xE0 SHL DUP2 MSTORE PUSH1 0x4 DUP2 ADD SWAP4 SWAP1 SWAP4 MSTORE PUSH1 0x24 DUP4 ADD SWAP2 SWAP1 SWAP2 MSTORE PUSH1 0x1 PUSH1 0x1 PUSH1 0xA0 SHL SUB AND SWAP1 PUSH4 0xA9059CBB SWAP1 PUSH1 0x44 ADD PUSH1 0x20 PUSH1 0x40 MLOAD DUP1 DUP4 SUB DUP2 PUSH0 DUP8 GAS CALL ISZERO DUP1 ISZERO PUSH2 0x2BC JUMPI RETURNDATASIZE PUSH0 DUP1 RETURNDATACOPY RETURNDATASIZE PUSH0 REVERT JUMPDEST POP POP POP POP PUSH1 0x40 MLOAD RETURNDATASIZE PUSH1 0x1F NOT PUSH1 0x1F DUP3 ADD AND DUP3 ADD DUP1 PUSH1 0x40 MSTORE POP DUP2 ADD SWAP1 PUSH2 0x2E0 SWAP2 SWAP1 PUSH2 0x3CD JUMP JUMPDEST POP JUMP JUMPDEST PUSH1 0x3 SLOAD PUSH1 0x1 PUSH1 0x1 PUSH1 0xA0 SHL SUB AND CALLER EQ PUSH2 0x348 JUMPI PUSH1 0x40 MLOAD PUSH3 0x461BCD PUSH1 0xE5 SHL DUP2 MSTORE PUSH1 0x20 PUSH1 0x4 DUP3 ADD MSTORE PUSH1 0x22 PUSH1 0x24 DUP3 ADD MSTORE PUSH32 0x4F6E6C7920746865206F776E65722063616E20736574207468697320616D6F75 PUSH1 0x44 DUP3 ADD MSTORE PUSH2 0x1B9D PUSH1 0xF2 SHL PUSH1 0x64 DUP3 ADD MSTORE PUSH1 0x84 ADD PUSH2 0x18D JUMP JUMPDEST PUSH1 0x2 SSTORE JUMP JUMPDEST PUSH0 PUSH1 0x20 DUP3 DUP5 SUB SLT ISZERO PUSH2 0x35D JUMPI PUSH0 DUP1 REVERT JUMPDEST POP CALLDATALOAD SWAP2 SWAP1 POP JUMP JUMPDEST PUSH0 PUSH1 0x20 DUP3 DUP5 SUB SLT ISZERO PUSH2 0x374 JUMPI PUSH0 DUP1 REVERT JUMPDEST DUP2 CALLDATALOAD PUSH1 0x1 PUSH1 0x1 PUSH1 0xA0 SHL SUB DUP2 AND DUP2 EQ PUSH2 0x38A JUMPI PUSH0 DUP1 REVERT JUMPDEST SWAP4 SWAP3 POP POP POP JUMP JUMPDEST DUP2 DUP2 SUB DUP2 DUP2 GT ISZERO PUSH2 0x3B0 JUMPI PUSH4 0x4E487B71 PUSH1 0xE0 SHL PUSH0 MSTORE PUSH1 0x11 PUSH1 0x4 MSTORE PUSH1 0x24 PUSH0 REVERT JUMPDEST SWAP3 SWAP2 POP POP JUMP JUMPDEST PUSH0 PUSH1 0x20 DUP3 DUP5 SUB SLT ISZERO PUSH2 0x3C6 JUMPI PUSH0 DUP1 REVERT JUMPDEST POP MLOAD SWAP2 SWAP1 POP JUMP JUMPDEST PUSH0 PUSH1 0x20 DUP3 DUP5 SUB SLT ISZERO PUSH2 0x3DD JUMPI PUSH0 DUP1 REVERT JUMPDEST DUP2 MLOAD DUP1 ISZERO ISZERO DUP2 EQ PUSH2 0x38A JUMPI PUSH0 DUP1 REVERT INVALID LOG2 PUSH5 0x6970667358 0x22 SLT KECCAK256 0xE REVERT SLOAD OR 0xAC NUMBER 0xCE SWAP14 0xD1 0xCE REVERT PUSH2 0x3DEE SELFDESTRUCT LT 0x25 0xB4 SUB ORIGIN PUSH18 0xB169D62F7555FA51408F5964736F6C634300 ADDMOD BYTE STOP CALLER "
				},
				"gasEstimates": {
					"creation": {
						"codeDepositCost": "211600",
						"executionCost": "infinite",
						"totalCost": "infinite"
					},
					"external": {
						"amountEachTime()": "2382",
						"owner()": "2391",
						"recvedRecord(address)": "2525",
						"setAmountEachTime(uint256)": "24484",
						"tokenContract()": "2324",
						"withdrow()": "infinite"
					}
				},
				"methodIdentifiers": {
					"amountEachTime()": "d56272bd",
					"owner()": "8da5cb5b",
					"recvedRecord(address)": "74fc37ce",
					"setAmountEachTime(uint256)": "5e9e23b4",
					"tokenContract()": "55a373d6",
					"withdrow()": "3b874521"
				}
			},
			"storageLayout": {
				"storage": [
					{
						"astId": 491,
						"contract": "contracts/openzeppelin/MyToken.sol:Faucet",
						"label": "tokenContract",
						"offset": 0,
						"slot": "0",
						"type": "t_contract(IERC20)190"
					},
					{
						"astId": 495,
						"contract": "contracts/openzeppelin/MyToken.sol:Faucet",
						"label": "recvedRecord",
						"offset": 0,
						"slot": "1",
						"type": "t_mapping(t_address,t_uint256)"
					},
					{
						"astId": 497,
						"contract": "contracts/openzeppelin/MyToken.sol:Faucet",
						"label": "amountEachTime",
						"offset": 0,
						"slot": "2",
						"type": "t_uint256"
					},
					{
						"astId": 499,
						"contract": "contracts/openzeppelin/MyToken.sol:Faucet",
						"label": "owner",
						"offset": 0,
						"slot": "3",
						"type": "t_address"
					}
				],
				"types": {
					"t_address": {
						"encoding": "inplace",
						"label": "address",
						"numberOfBytes": "20"
					},
					"t_contract(IERC20)190": {
						"encoding": "inplace",
						"label": "contract IERC20",
						"numberOfBytes": "20"
					},
					"t_mapping(t_address,t_uint256)": {
						"encoding": "mapping",
						"key": "t_address",
						"label": "mapping(address => uint256)",
						"numberOfBytes": "32",
						"value": "t_uint256"
					},
					"t_uint256": {
						"encoding": "inplace",
						"label": "uint256",
						"numberOfBytes": "32"
					}
				}
			},
			"userdoc": {
				"kind": "user",
				"methods": {},
				"version": 1
			}
		}
	}
}