{
	"contracts/openzeppelin/MyNFT.sol": {
		"MyNFT": {
			"abi": [
				{
					"inputs": [
						{
							"internalType": "string",
							"name": "initName",
							"type": "string"
						},
						{
							"internalType": "string",
							"name": "initSymbol",
							"type": "string"
						},
						{
							"internalType": "string",
							"name": "baseURI",
							"type": "string"
						}
					],
					"stateMutability": "nonpayable",
					"type": "constructor"
				},
				{
					"anonymous": false,
					"inputs": [
						{
							"indexed": true,
							"internalType": "address",
							"name": "owner",
							"type": "address"
						},
						{
							"indexed": true,
							"internalType": "address",
							"name": "approved",
							"type": "address"
						},
						{
							"indexed": true,
							"internalType": "uint256",
							"name": "tokenId",
							"type": "uint256"
						}
					],
					"name": "Approval",
					"type": "event"
				},
				{
					"anonymous": false,
					"inputs": [
						{
							"indexed": true,
							"internalType": "address",
							"name": "owner",
							"type": "address"
						},
						{
							"indexed": true,
							"internalType": "address",
							"name": "operator",
							"type": "address"
						},
						{
							"indexed": false,
							"internalType": "bool",
							"name": "approved",
							"type": "bool"
						}
					],
					"name": "ApprovalForAll",
					"type": "event"
				},
				{
					"anonymous": false,
					"inputs": [
						{
							"indexed": true,
							"internalType": "address",
							"name": "from",
							"type": "address"
						},
						{
							"indexed": true,
							"internalType": "address",
							"name": "to",
							"type": "address"
						},
						{
							"indexed": true,
							"internalType": "uint256",
							"name": "tokenId",
							"type": "uint256"
						}
					],
					"name": "Transfer",
					"type": "event"
				},
				{
					"inputs": [
						{
							"internalType": "address",
							"name": "to",
							"type": "address"
						},
						{
							"internalType": "uint256",
							"name": "tokenId",
							"type": "uint256"
						}
					],
					"name": "approve",
					"outputs": [],
					"stateMutability": "nonpayable",
					"type": "function"
				},
				{
					"inputs": [
						{
							"internalType": "address",
							"name": "_owner",
							"type": "address"
						}
					],
					"name": "balanceOf",
					"outputs": [
						{
							"internalType": "uint256",
							"name": "",
							"type": "uint256"
						}
					],
					"stateMutability": "view",
					"type": "function"
				},
				{
					"inputs": [
						{
							"internalType": "address",
							"name": "",
							"type": "address"
						}
					],
					"name": "balances",
					"outputs": [
						{
							"internalType": "uint256",
							"name": "",
							"type": "uint256"
						}
					],
					"stateMutability": "view",
					"type": "function"
				},
				{
					"inputs": [
						{
							"internalType": "uint256",
							"name": "tokenId",
							"type": "uint256"
						}
					],
					"name": "burn",
					"outputs": [],
					"stateMutability": "nonpayable",
					"type": "function"
				},
				{
					"inputs": [
						{
							"internalType": "uint256",
							"name": "tokenId",
							"type": "uint256"
						}
					],
					"name": "getApproved",
					"outputs": [
						{
							"internalType": "address",
							"name": "",
							"type": "address"
						}
					],
					"stateMutability": "view",
					"type": "function"
				},
				{
					"inputs": [
						{
							"internalType": "address",
							"name": "_owner",
							"type": "address"
						},
						{
							"internalType": "address",
							"name": "operator",
							"type": "address"
						}
					],
					"name": "isApprovedForAll",
					"outputs": [
						{
							"internalType": "bool",
							"name": "",
							"type": "bool"
						}
					],
					"stateMutability": "view",
					"type": "function"
				},
				{
					"inputs": [
						{
							"internalType": "address",
							"name": "to",
							"type": "address"
						},
						{
							"internalType": "string",
							"name": "_tokenURI",
							"type": "string"
						}
					],
					"name": "mint",
					"outputs": [
						{
							"internalType": "uint256",
							"name": "",
							"type": "uint256"
						}
					],
					"stateMutability": "nonpayable",
					"type": "function"
				},
				{
					"inputs": [],
					"name": "name",
					"outputs": [
						{
							"internalType": "string",
							"name": "",
							"type": "string"
						}
					],
					"stateMutability": "view",
					"type": "function"
				},
				{
					"inputs": [
						{
							"internalType": "address",
							"name": "",
							"type": "address"
						},
						{
							"internalType": "address",
							"name": "",
							"type": "address"
						}
					],
					"name": "operatorApprovals",
					"outputs": [
						{
							"internalType": "bool",
							"name": "",
							"type": "bool"
						}
					],
					"stateMutability": "view",
					"type": "function"
				},
				{
					"inputs": [],
					"name": "owner",
					"outputs": [
						{
							"internalType": "address",
							"name": "",
							"type": "address"
						}
					],
					"stateMutability": "view",
					"type": "function"
				},
				{
					"inputs": [
						{
							"internalType": "uint256",
							"name": "tokenId",
							"type": "uint256"
						}
					],
					"name": "ownerOf",
					"outputs": [
						{
							"internalType": "address",
							"name": "",
							"type": "address"
						}
					],
					"stateMutability": "view",
					"type": "function"
				},
				{
					"inputs": [
						{
							"internalType": "uint256",
							"name": "",
							"type": "uint256"
						}
					],
					"name": "owners",
					"outputs": [
						{
							"internalType": "address",
							"name": "",
							"type": "address"
						}
					],
					"stateMutability": "view",
					"type": "function"
				},
				{
					"inputs": [
						{
							"internalType": "address",
							"name": "to",
							"type": "address"
						},
						{
							"internalType": "string",
							"name": "_tokenURI",
							"type": "string"
						}
					],
					"name": "safeMint",
					"outputs": [
						{
							"internalType": "uint256",
							"name": "",
							"type": "uint256"
						}
					],
					"stateMutability": "nonpayable",
					"type": "function"
				},
				{
					"inputs": [
						{
							"internalType": "address",
							"name": "to",
							"type": "address"
						},
						{
							"internalType": "string",
							"name": "_tokenURI",
							"type": "string"
						},
						{
							"internalType": "bytes",
							"name": "data",
							"type": "bytes"
						}
					],
					"name": "safeMint",
					"outputs": [
						{
							"internalType": "uint256",
							"name": "",
							"type": "uint256"
						}
					],
					"stateMutability": "nonpayable",
					"type": "function"
				},
				{
					"inputs": [
						{
							"internalType": "address",
							"name": "from",
							"type": "address"
						},
						{
							"internalType": "address",
							"name": "to",
							"type": "address"
						},
						{
							"internalType": "uint256",
							"name": "tokenId",
							"type": "uint256"
						}
					],
					"name": "safeTransferFrom",
					"outputs": [],
					"stateMutability": "nonpayable",
					"type": "function"
				},
				{
					"inputs": [
						{
							"internalType": "address",
							"name": "from",
							"type": "address"
						},
						{
							"internalType": "address",
							"name": "to",
							"type": "address"
						},
						{
							"internalType": "uint256",
							"name": "tokenId",
							"type": "uint256"
						},
						{
							"internalType": "bytes",
							"name": "data",
							"type": "bytes"
						}
					],
					"name": "safeTransferFrom",
					"outputs": [],
					"stateMutability": "nonpayable",
					"type": "function"
				},
				{
					"inputs": [
						{
							"internalType": "address",
							"name": "operator",
							"type": "address"
						},
						{
							"internalType": "bool",
							"name": "approved",
							"type": "bool"
						}
					],
					"name": "setApprovalForAll",
					"outputs": [],
					"stateMutability": "nonpayable",
					"type": "function"
				},
				{
					"inputs": [
						{
							"internalType": "string",
							"name": "baseURI",
							"type": "string"
						}
					],
					"name": "setBaseURI",
					"outputs": [],
					"stateMutability": "nonpayable",
					"type": "function"
				},
				{
					"inputs": [
						{
							"internalType": "bytes4",
							"name": "interfaceId",
							"type": "bytes4"
						}
					],
					"name": "supportsInterface",
					"outputs": [
						{
							"internalType": "bool",
							"name": "",
							"type": "bool"
						}
					],
					"stateMutability": "pure",
					"type": "function"
				},
				{
					"inputs": [],
					"name": "symbol",
					"outputs": [
						{
							"internalType": "string",
							"name": "",
							"type": "string"
						}
					],
					"stateMutability": "view",
					"type": "function"
				},
				{
					"inputs": [
						{
							"internalType": "uint256",
							"name": "",
							"type": "uint256"
						}
					],
					"name": "tokenApprovals",
					"outputs": [
						{
							"internalType": "address",
							"name": "",
							"type": "address"
						}
					],
					"stateMutability": "view",
					"type": "function"
				},
				{
					"inputs": [
						{
							"internalType": "uint256",
							"name": "tokenId",
							"type": "uint256"
						}
					],
					"name": "tokenURI",
					"outputs": [
						{
							"internalType": "string",
							"name": "",
							"type": "string"
						}
					],
					"stateMutability": "view",
					"type": "function"
				},
				{
					"inputs": [],
					"name": "totalSupply",
					"outputs": [
						{
							"internalType": "uint256",
							"name": "",
							"type": "uint256"
						}
					],
					"stateMutability": "view",
					"type": "function"
				},
				{
					"inputs": [
						{
							"internalType": "address",
							"name": "from",
							"type": "address"
						},
						{
							"internalType": "address",
							"name": "to",
							"type": "address"
						},
						{
							"internalType": "uint256",
							"name": "tokenId",
							"type": "uint256"
						}
					],
					"name": "transferFrom",
					"outputs": [],
					"stateMutability": "nonpayable",
					"type": "function"
				}
			],
			"devdoc": {
				"author": "zhanghony",
				"events": {
					"Approval(address,address,uint256)": {
						"details": "Emitted when `owner` enables `approved` to manage the `tokenId` token."
					},
					"ApprovalForAll(address,address,bool)": {
						"details": "Emitted when `owner` enables or disables (`approved`) `operator` to manage all of its assets."
					},
					"Transfer(address,address,uint256)": {
						"details": "Emitted when `tokenId` token is transferred from `from` to `to`."
					}
				},
				"kind": "dev",
				"methods": {
					"approve(address,uint256)": {
						"details": "Gives permission to `to` to transfer `tokenId` token to another account. The approval is cleared when the token is transferred. Only a single account can be approved at a time, so approving the zero address clears previous approvals. Requirements: - The caller must own the token or be an approved operator. - `tokenId` must exist. Emits an {Approval} event."
					},
					"getApproved(uint256)": {
						"details": "Returns the account approved for `tokenId` token. Requirements: - `tokenId` must exist."
					},
					"name()": {
						"details": "Returns the token collection name."
					},
					"ownerOf(uint256)": {
						"details": "Returns the owner of the `tokenId` token. Requirements: - `tokenId` must exist."
					},
					"safeTransferFrom(address,address,uint256)": {
						"details": "Safely transfers `tokenId` token from `from` to `to`, checking first that contract recipients are aware of the ERC721 protocol to prevent tokens from being forever locked. Requirements: - `from` cannot be the zero address. - `to` cannot be the zero address. - `tokenId` token must exist and be owned by `from`. - If the caller is not `from`, it must have been allowed to move this token by either {approve} or {setApprovalForAll}. - If `to` refers to a smart contract, it must implement {IERC721Receiver-onERC721Received}, which is called upon a safe transfer. Emits a {Transfer} event."
					},
					"safeTransferFrom(address,address,uint256,bytes)": {
						"details": "Safely transfers `tokenId` token from `from` to `to`. Requirements: - `from` cannot be the zero address. - `to` cannot be the zero address. - `tokenId` token must exist and be owned by `from`. - If the caller is not `from`, it must be approved to move this token by either {approve} or {setApprovalForAll}. - If `to` refers to a smart contract, it must implement {IERC721Receiver-onERC721Received}, which is called upon a safe transfer. Emits a {Transfer} event."
					},
					"setApprovalForAll(address,bool)": {
						"details": "Approve or remove `operator` as an operator for the caller. Operators can call {transferFrom} or {safeTransferFrom} for any token owned by the caller. Requirements: - The `operator` cannot be the caller. Emits an {ApprovalForAll} event."
					},
					"supportsInterface(bytes4)": {
						"details": "Returns true if this contract implements the interface defined by `interfaceId`. See the corresponding https://eips.ethereum.org/EIPS/eip-165#how-interfaces-are-identified[EIP section] to learn more about how these ids are created. This function call must use less than 30 000 gas."
					},
					"symbol()": {
						"details": "Returns the token collection symbol."
					},
					"tokenURI(uint256)": {
						"details": "Returns the Uniform Resource Identifier (URI) for `tokenId` token."
					},
					"transferFrom(address,address,uint256)": {
						"details": "Transfers `tokenId` token from `from` to `to`. WARNING: Note that the caller is responsible to confirm that the recipient is capable of receiving ERC721 or else they may be permanently lost. Usage of {safeTransferFrom} prevents loss, though the caller must understand this adds an external call which potentially creates a reentrancy vulnerability. Requirements: - `from` cannot be the zero address. - `to` cannot be the zero address. - `tokenId` token must be owned by `from`. - If the caller is not `from`, it must be approved to move this token by either {approve} or {setApprovalForAll}. Emits a {Transfer} event."
					}
				},
				"title": "NFT",
				"version": 1
			},
			"evm": {
				"assembly": "    /* \"contracts/openzeppelin/MyNFT.sol\":388:13107  contract MyNFT is IERC165,IERC721, IERC721Metadata {... */\n  mstore(0x40, 0x80)\n    /* \"contracts/openzeppelin/MyNFT.sol\":1172:1173  0 */\n  0x00\n    /* \"contracts/openzeppelin/MyNFT.sol\":1143:1173  uint256 public totalSupply = 0 */\n  0x09\n  sstore\n    /* \"contracts/openzeppelin/MyNFT.sol\":1243:1477  constructor(... */\n  callvalue\n  dup1\n  iszero\n  tag_1\n  jumpi\n  0x00\n  dup1\n  revert\ntag_1:\n  pop\n  mload(0x40)\n  sub(codesize, bytecodeSize)\n  dup1\n  bytecodeSize\n  dup4\n  codecopy\n  dup2\n  add\n  0x40\n  dup2\n  swap1\n  mstore\n  tag_2\n  swap2\n  tag_3\n  jump\t// in\ntag_2:\n    /* \"contracts/openzeppelin/MyNFT.sol\":1368:1373  owner */\n  0x04\n    /* \"contracts/openzeppelin/MyNFT.sol\":1368:1386  owner = msg.sender */\n  dup1\n  sload\n  not(sub(shl(0xa0, 0x01), 0x01))\n  and\n    /* \"contracts/openzeppelin/MyNFT.sol\":1376:1386  msg.sender */\n  caller\n    /* \"contracts/openzeppelin/MyNFT.sol\":1368:1386  owner = msg.sender */\n  or\n  swap1\n  sstore\n    /* \"contracts/openzeppelin/MyNFT.sol\":1396:1401  _name */\n  0x05\n    /* \"contracts/openzeppelin/MyNFT.sol\":1396:1412  _name = initName */\n  tag_6\n    /* \"contracts/openzeppelin/MyNFT.sol\":1404:1412  initName */\n  dup5\n    /* \"contracts/openzeppelin/MyNFT.sol\":1396:1401  _name */\n  dup3\n    /* \"contracts/openzeppelin/MyNFT.sol\":1396:1412  _name = initName */\n  tag_7\n  jump\t// in\ntag_6:\n  pop\n    /* \"contracts/openzeppelin/MyNFT.sol\":1422:1429  _symbol */\n  0x06\n    /* \"contracts/openzeppelin/MyNFT.sol\":1422:1442  _symbol = initSymbol */\n  tag_8\n    /* \"contracts/openzeppelin/MyNFT.sol\":1432:1442  initSymbol */\n  dup4\n    /* \"contracts/openzeppelin/MyNFT.sol\":1422:1429  _symbol */\n  dup3\n    /* \"contracts/openzeppelin/MyNFT.sol\":1422:1442  _symbol = initSymbol */\n  tag_7\n  jump\t// in\ntag_8:\n  pop\n    /* \"contracts/openzeppelin/MyNFT.sol\":1452:1460  _baseURI */\n  0x07\n    /* \"contracts/openzeppelin/MyNFT.sol\":1452:1470  _baseURI = baseURI */\n  tag_9\n    /* \"contracts/openzeppelin/MyNFT.sol\":1463:1470  baseURI */\n  dup3\n    /* \"contracts/openzeppelin/MyNFT.sol\":1452:1460  _baseURI */\n  dup3\n    /* \"contracts/openzeppelin/MyNFT.sol\":1452:1470  _baseURI = baseURI */\n  tag_7\n  jump\t// in\ntag_9:\n  pop\n    /* \"contracts/openzeppelin/MyNFT.sol\":1243:1477  constructor(... */\n  pop\n  pop\n  pop\n    /* \"contracts/openzeppelin/MyNFT.sol\":388:13107  contract MyNFT is IERC165,IERC721, IERC721Metadata {... */\n  jump(tag_17)\n    /* \"#utility.yul\":14:141   */\ntag_11:\n    /* \"#utility.yul\":75:85   */\n  0x4e487b71\n    /* \"#utility.yul\":70:73   */\n  0xe0\n    /* \"#utility.yul\":66:86   */\n  shl\n    /* \"#utility.yul\":63:64   */\n  0x00\n    /* \"#utility.yul\":56:87   */\n  mstore\n    /* \"#utility.yul\":106:110   */\n  0x41\n    /* \"#utility.yul\":103:104   */\n  0x04\n    /* \"#utility.yul\":96:111   */\n  mstore\n    /* \"#utility.yul\":130:134   */\n  0x24\n    /* \"#utility.yul\":127:128   */\n  0x00\n    /* \"#utility.yul\":120:135   */\n  revert\n    /* \"#utility.yul\":146:869   */\ntag_12:\n    /* \"#utility.yul\":200:205   */\n  0x00\n    /* \"#utility.yul\":253:256   */\n  dup3\n    /* \"#utility.yul\":246:250   */\n  0x1f\n    /* \"#utility.yul\":238:244   */\n  dup4\n    /* \"#utility.yul\":234:251   */\n  add\n    /* \"#utility.yul\":230:257   */\n  slt\n    /* \"#utility.yul\":220:275   */\n  tag_20\n  jumpi\n    /* \"#utility.yul\":271:272   */\n  0x00\n    /* \"#utility.yul\":268:269   */\n  dup1\n    /* \"#utility.yul\":261:273   */\n  revert\n    /* \"#utility.yul\":220:275   */\ntag_20:\n    /* \"#utility.yul\":298:311   */\n  dup2\n  mload\n  sub(shl(0x40, 0x01), 0x01)\n    /* \"#utility.yul\":323:353   */\n  dup2\n  gt\n    /* \"#utility.yul\":320:376   */\n  iszero\n  tag_22\n  jumpi\n    /* \"#utility.yul\":356:374   */\n  tag_22\n  tag_11\n  jump\t// in\ntag_22:\n    /* \"#utility.yul\":405:407   */\n  0x40\n    /* \"#utility.yul\":399:408   */\n  mload\n    /* \"#utility.yul\":497:499   */\n  0x1f\n    /* \"#utility.yul\":459:476   */\n  dup3\n  add\n  not(0x1f)\n    /* \"#utility.yul\":455:486   */\n  swap1\n  dup2\n  and\n    /* \"#utility.yul\":488:490   */\n  0x3f\n    /* \"#utility.yul\":451:491   */\n  add\n    /* \"#utility.yul\":447:501   */\n  and\n    /* \"#utility.yul\":435:502   */\n  dup2\n  add\n  sub(shl(0x40, 0x01), 0x01)\n    /* \"#utility.yul\":517:551   */\n  dup2\n  gt\n    /* \"#utility.yul\":553:575   */\n  dup3\n  dup3\n  lt\n    /* \"#utility.yul\":514:576   */\n  or\n    /* \"#utility.yul\":511:599   */\n  iszero\n  tag_24\n  jumpi\n    /* \"#utility.yul\":579:597   */\n  tag_24\n  tag_11\n  jump\t// in\ntag_24:\n    /* \"#utility.yul\":615:617   */\n  0x40\n    /* \"#utility.yul\":608:630   */\n  mstore\n    /* \"#utility.yul\":639:661   */\n  dup2\n  dup2\n  mstore\n    /* \"#utility.yul\":680:699   */\n  dup4\n  dup3\n  add\n    /* \"#utility.yul\":701:705   */\n  0x20\n    /* \"#utility.yul\":676:706   */\n  add\n    /* \"#utility.yul\":673:712   */\n  dup6\n  lt\n    /* \"#utility.yul\":670:729   */\n  iszero\n  tag_25\n  jumpi\n    /* \"#utility.yul\":725:726   */\n  0x00\n    /* \"#utility.yul\":722:723   */\n  dup1\n    /* \"#utility.yul\":715:727   */\n  revert\n    /* \"#utility.yul\":670:729   */\ntag_25:\n    /* \"#utility.yul\":782:788   */\n  dup2\n    /* \"#utility.yul\":775:779   */\n  0x20\n    /* \"#utility.yul\":767:773   */\n  dup6\n    /* \"#utility.yul\":763:780   */\n  add\n    /* \"#utility.yul\":756:760   */\n  0x20\n    /* \"#utility.yul\":748:754   */\n  dup4\n    /* \"#utility.yul\":744:761   */\n  add\n    /* \"#utility.yul\":738:789   */\n  mcopy\n    /* \"#utility.yul\":837:838   */\n  0x00\n    /* \"#utility.yul\":809:828   */\n  swap2\n  dup2\n  add\n    /* \"#utility.yul\":830:834   */\n  0x20\n    /* \"#utility.yul\":805:835   */\n  add\n    /* \"#utility.yul\":798:839   */\n  swap2\n  swap1\n  swap2\n  mstore\n    /* \"#utility.yul\":813:819   */\n  swap4\n    /* \"#utility.yul\":146:869   */\n  swap3\n  pop\n  pop\n  pop\n  jump\t// out\n    /* \"#utility.yul\":874:1651   */\ntag_3:\n    /* \"#utility.yul\":992:998   */\n  0x00\n    /* \"#utility.yul\":1000:1006   */\n  dup1\n    /* \"#utility.yul\":1008:1014   */\n  0x00\n    /* \"#utility.yul\":1061:1063   */\n  0x60\n    /* \"#utility.yul\":1049:1058   */\n  dup5\n    /* \"#utility.yul\":1040:1047   */\n  dup7\n    /* \"#utility.yul\":1036:1059   */\n  sub\n    /* \"#utility.yul\":1032:1064   */\n  slt\n    /* \"#utility.yul\":1029:1081   */\n  iszero\n  tag_27\n  jumpi\n    /* \"#utility.yul\":1077:1078   */\n  0x00\n    /* \"#utility.yul\":1074:1075   */\n  dup1\n    /* \"#utility.yul\":1067:1079   */\n  revert\n    /* \"#utility.yul\":1029:1081   */\ntag_27:\n    /* \"#utility.yul\":1104:1120   */\n  dup4\n  mload\n  sub(shl(0x40, 0x01), 0x01)\n    /* \"#utility.yul\":1132:1162   */\n  dup2\n  gt\n    /* \"#utility.yul\":1129:1179   */\n  iszero\n  tag_28\n  jumpi\n    /* \"#utility.yul\":1175:1176   */\n  0x00\n    /* \"#utility.yul\":1172:1173   */\n  dup1\n    /* \"#utility.yul\":1165:1177   */\n  revert\n    /* \"#utility.yul\":1129:1179   */\ntag_28:\n    /* \"#utility.yul\":1198:1259   */\n  tag_29\n    /* \"#utility.yul\":1251:1258   */\n  dup7\n    /* \"#utility.yul\":1242:1248   */\n  dup3\n    /* \"#utility.yul\":1231:1240   */\n  dup8\n    /* \"#utility.yul\":1227:1249   */\n  add\n    /* \"#utility.yul\":1198:1259   */\n  tag_12\n  jump\t// in\ntag_29:\n    /* \"#utility.yul\":1305:1307   */\n  0x20\n    /* \"#utility.yul\":1290:1308   */\n  dup7\n  add\n    /* \"#utility.yul\":1284:1309   */\n  mload\n    /* \"#utility.yul\":1188:1259   */\n  swap1\n  swap5\n  pop\n    /* \"#utility.yul\":1284:1309   */\n  swap1\n  pop\n  sub(shl(0x40, 0x01), 0x01)\n    /* \"#utility.yul\":1321:1353   */\n  dup2\n  gt\n    /* \"#utility.yul\":1318:1370   */\n  iszero\n  tag_30\n  jumpi\n    /* \"#utility.yul\":1366:1367   */\n  0x00\n    /* \"#utility.yul\":1363:1364   */\n  dup1\n    /* \"#utility.yul\":1356:1368   */\n  revert\n    /* \"#utility.yul\":1318:1370   */\ntag_30:\n    /* \"#utility.yul\":1389:1452   */\n  tag_31\n    /* \"#utility.yul\":1444:1451   */\n  dup7\n    /* \"#utility.yul\":1433:1441   */\n  dup3\n    /* \"#utility.yul\":1422:1431   */\n  dup8\n    /* \"#utility.yul\":1418:1442   */\n  add\n    /* \"#utility.yul\":1389:1452   */\n  tag_12\n  jump\t// in\ntag_31:\n    /* \"#utility.yul\":1498:1500   */\n  0x40\n    /* \"#utility.yul\":1483:1501   */\n  dup7\n  add\n    /* \"#utility.yul\":1477:1502   */\n  mload\n    /* \"#utility.yul\":1379:1452   */\n  swap1\n  swap4\n  pop\n    /* \"#utility.yul\":1477:1502   */\n  swap1\n  pop\n  sub(shl(0x40, 0x01), 0x01)\n    /* \"#utility.yul\":1514:1546   */\n  dup2\n  gt\n    /* \"#utility.yul\":1511:1563   */\n  iszero\n  tag_32\n  jumpi\n    /* \"#utility.yul\":1559:1560   */\n  0x00\n    /* \"#utility.yul\":1556:1557   */\n  dup1\n    /* \"#utility.yul\":1549:1561   */\n  revert\n    /* \"#utility.yul\":1511:1563   */\ntag_32:\n    /* \"#utility.yul\":1582:1645   */\n  tag_33\n    /* \"#utility.yul\":1637:1644   */\n  dup7\n    /* \"#utility.yul\":1626:1634   */\n  dup3\n    /* \"#utility.yul\":1615:1624   */\n  dup8\n    /* \"#utility.yul\":1611:1635   */\n  add\n    /* \"#utility.yul\":1582:1645   */\n  tag_12\n  jump\t// in\ntag_33:\n    /* \"#utility.yul\":1572:1645   */\n  swap2\n  pop\n  pop\n    /* \"#utility.yul\":874:1651   */\n  swap3\n  pop\n  swap3\n  pop\n  swap3\n  jump\t// out\n    /* \"#utility.yul\":1656:2036   */\ntag_13:\n    /* \"#utility.yul\":1735:1736   */\n  0x01\n    /* \"#utility.yul\":1731:1743   */\n  dup2\n  dup2\n  shr\n  swap1\n    /* \"#utility.yul\":1778:1790   */\n  dup3\n  and\n  dup1\n    /* \"#utility.yul\":1799:1860   */\n  tag_35\n  jumpi\n    /* \"#utility.yul\":1853:1857   */\n  0x7f\n    /* \"#utility.yul\":1845:1851   */\n  dup3\n    /* \"#utility.yul\":1841:1858   */\n  and\n    /* \"#utility.yul\":1831:1858   */\n  swap2\n  pop\n    /* \"#utility.yul\":1799:1860   */\ntag_35:\n    /* \"#utility.yul\":1906:1908   */\n  0x20\n    /* \"#utility.yul\":1898:1904   */\n  dup3\n    /* \"#utility.yul\":1895:1909   */\n  lt\n    /* \"#utility.yul\":1875:1893   */\n  dup2\n    /* \"#utility.yul\":1872:1910   */\n  sub\n    /* \"#utility.yul\":1869:2030   */\n  tag_36\n  jumpi\n    /* \"#utility.yul\":1952:1962   */\n  0x4e487b71\n    /* \"#utility.yul\":1947:1950   */\n  0xe0\n    /* \"#utility.yul\":1943:1963   */\n  shl\n    /* \"#utility.yul\":1940:1941   */\n  0x00\n    /* \"#utility.yul\":1933:1964   */\n  mstore\n    /* \"#utility.yul\":1987:1991   */\n  0x22\n    /* \"#utility.yul\":1984:1985   */\n  0x04\n    /* \"#utility.yul\":1977:1992   */\n  mstore\n    /* \"#utility.yul\":2015:2019   */\n  0x24\n    /* \"#utility.yul\":2012:2013   */\n  0x00\n    /* \"#utility.yul\":2005:2020   */\n  revert\n    /* \"#utility.yul\":1869:2030   */\ntag_36:\n  pop\n    /* \"#utility.yul\":1656:2036   */\n  swap2\n  swap1\n  pop\n  jump\t// out\n    /* \"#utility.yul\":2167:2685   */\ntag_15:\n    /* \"#utility.yul\":2269:2271   */\n  0x1f\n    /* \"#utility.yul\":2264:2267   */\n  dup3\n    /* \"#utility.yul\":2261:2272   */\n  gt\n    /* \"#utility.yul\":2258:2679   */\n  iszero\n  tag_39\n  jumpi\n    /* \"#utility.yul\":2305:2310   */\n  dup1\n    /* \"#utility.yul\":2302:2303   */\n  0x00\n    /* \"#utility.yul\":2295:2311   */\n  mstore\n    /* \"#utility.yul\":2349:2353   */\n  0x20\n    /* \"#utility.yul\":2346:2347   */\n  0x00\n    /* \"#utility.yul\":2336:2354   */\n  keccak256\n    /* \"#utility.yul\":2419:2421   */\n  0x1f\n    /* \"#utility.yul\":2407:2417   */\n  dup5\n    /* \"#utility.yul\":2403:2422   */\n  add\n    /* \"#utility.yul\":2400:2401   */\n  0x05\n    /* \"#utility.yul\":2396:2423   */\n  shr\n    /* \"#utility.yul\":2390:2394   */\n  dup2\n    /* \"#utility.yul\":2386:2424   */\n  add\n    /* \"#utility.yul\":2455:2459   */\n  0x20\n    /* \"#utility.yul\":2443:2453   */\n  dup6\n    /* \"#utility.yul\":2440:2460   */\n  lt\n    /* \"#utility.yul\":2437:2484   */\n  iszero\n  tag_40\n  jumpi\n  pop\n    /* \"#utility.yul\":2478:2482   */\n  dup1\n    /* \"#utility.yul\":2437:2484   */\ntag_40:\n    /* \"#utility.yul\":2533:2535   */\n  0x1f\n    /* \"#utility.yul\":2528:2531   */\n  dup5\n    /* \"#utility.yul\":2524:2536   */\n  add\n    /* \"#utility.yul\":2521:2522   */\n  0x05\n    /* \"#utility.yul\":2517:2537   */\n  shr\n    /* \"#utility.yul\":2511:2515   */\n  dup3\n    /* \"#utility.yul\":2507:2538   */\n  add\n    /* \"#utility.yul\":2497:2538   */\n  swap2\n  pop\n    /* \"#utility.yul\":2588:2669   */\ntag_41:\n    /* \"#utility.yul\":2606:2608   */\n  dup2\n    /* \"#utility.yul\":2599:2604   */\n  dup2\n    /* \"#utility.yul\":2596:2609   */\n  lt\n    /* \"#utility.yul\":2588:2669   */\n  iszero\n  tag_43\n  jumpi\n    /* \"#utility.yul\":2665:2666   */\n  0x00\n    /* \"#utility.yul\":2651:2667   */\n  dup2\n  sstore\n    /* \"#utility.yul\":2632:2633   */\n  0x01\n    /* \"#utility.yul\":2621:2634   */\n  add\n    /* \"#utility.yul\":2588:2669   */\n  jump(tag_41)\ntag_43:\n    /* \"#utility.yul\":2592:2595   */\n  pop\n  pop\n    /* \"#utility.yul\":2258:2679   */\ntag_39:\n    /* \"#utility.yul\":2167:2685   */\n  pop\n  pop\n  pop\n  jump\t// out\n    /* \"#utility.yul\":2861:4160   */\ntag_7:\n    /* \"#utility.yul\":2981:2991   */\n  dup2\n  mload\n  sub(shl(0x40, 0x01), 0x01)\n    /* \"#utility.yul\":3003:3033   */\n  dup2\n  gt\n    /* \"#utility.yul\":3000:3056   */\n  iszero\n  tag_47\n  jumpi\n    /* \"#utility.yul\":3036:3054   */\n  tag_47\n  tag_11\n  jump\t// in\ntag_47:\n    /* \"#utility.yul\":3065:3162   */\n  tag_48\n    /* \"#utility.yul\":3155:3161   */\n  dup2\n    /* \"#utility.yul\":3115:3153   */\n  tag_49\n    /* \"#utility.yul\":3147:3151   */\n  dup5\n    /* \"#utility.yul\":3141:3152   */\n  sload\n    /* \"#utility.yul\":3115:3153   */\n  tag_13\n  jump\t// in\ntag_49:\n    /* \"#utility.yul\":3109:3113   */\n  dup5\n    /* \"#utility.yul\":3065:3162   */\n  tag_15\n  jump\t// in\ntag_48:\n    /* \"#utility.yul\":3211:3215   */\n  0x20\n    /* \"#utility.yul\":3242:3244   */\n  0x1f\n    /* \"#utility.yul\":3231:3245   */\n  dup3\n  gt\n    /* \"#utility.yul\":3259:3260   */\n  0x01\n    /* \"#utility.yul\":3254:3903   */\n  dup2\n  eq\n  tag_51\n  jumpi\n    /* \"#utility.yul\":3947:3948   */\n  0x00\n    /* \"#utility.yul\":3964:3970   */\n  dup4\n    /* \"#utility.yul\":3961:4050   */\n  iszero\n  tag_52\n  jumpi\n  pop\n    /* \"#utility.yul\":4016:4035   */\n  dup5\n  dup3\n  add\n    /* \"#utility.yul\":4010:4036   */\n  mload\n    /* \"#utility.yul\":3961:4050   */\ntag_52:\n  not(0x00)\n    /* \"#utility.yul\":2818:2819   */\n  0x03\n    /* \"#utility.yul\":2814:2825   */\n  dup6\n  swap1\n  shl\n    /* \"#utility.yul\":2810:2834   */\n  shr\n    /* \"#utility.yul\":2806:2835   */\n  not\n    /* \"#utility.yul\":2796:2836   */\n  and\n    /* \"#utility.yul\":2842:2843   */\n  0x01\n    /* \"#utility.yul\":2838:2849   */\n  dup5\n  swap1\n  shl\n    /* \"#utility.yul\":2793:2850   */\n  or\n    /* \"#utility.yul\":4063:4144   */\n  dup5\n  sstore\n    /* \"#utility.yul\":3224:4154   */\n  jump(tag_43)\n    /* \"#utility.yul\":3254:3903   */\ntag_51:\n    /* \"#utility.yul\":2114:2115   */\n  0x00\n    /* \"#utility.yul\":2107:2121   */\n  dup5\n  dup2\n  mstore\n    /* \"#utility.yul\":2151:2155   */\n  0x20\n    /* \"#utility.yul\":2138:2156   */\n  dup2\n  keccak256\n  not(0x1f)\n    /* \"#utility.yul\":3290:3310   */\n  dup6\n  and\n  swap2\n    /* \"#utility.yul\":3408:3630   */\ntag_55:\n    /* \"#utility.yul\":3422:3429   */\n  dup3\n    /* \"#utility.yul\":3419:3420   */\n  dup2\n    /* \"#utility.yul\":3416:3430   */\n  lt\n    /* \"#utility.yul\":3408:3630   */\n  iszero\n  tag_57\n  jumpi\n    /* \"#utility.yul\":3504:3523   */\n  dup8\n  dup6\n  add\n    /* \"#utility.yul\":3498:3524   */\n  mload\n    /* \"#utility.yul\":3483:3525   */\n  dup3\n  sstore\n    /* \"#utility.yul\":3611:3615   */\n  0x20\n    /* \"#utility.yul\":3596:3616   */\n  swap5\n  dup6\n  add\n  swap5\n    /* \"#utility.yul\":3564:3565   */\n  0x01\n    /* \"#utility.yul\":3552:3566   */\n  swap1\n  swap3\n  add\n  swap2\n    /* \"#utility.yul\":3438:3450   */\n  add\n    /* \"#utility.yul\":3408:3630   */\n  jump(tag_55)\ntag_57:\n    /* \"#utility.yul\":3412:3415   */\n  pop\n    /* \"#utility.yul\":3658:3664   */\n  dup5\n    /* \"#utility.yul\":3649:3656   */\n  dup3\n    /* \"#utility.yul\":3646:3665   */\n  lt\n    /* \"#utility.yul\":3643:3844   */\n  iszero\n  tag_58\n  jumpi\n    /* \"#utility.yul\":3719:3738   */\n  dup7\n  dup5\n  add\n    /* \"#utility.yul\":3713:3739   */\n  mload\n  not(0x00)\n    /* \"#utility.yul\":3802:3803   */\n  0x03\n    /* \"#utility.yul\":3798:3812   */\n  dup8\n  swap1\n  shl\n    /* \"#utility.yul\":3814:3817   */\n  0xf8\n    /* \"#utility.yul\":3794:3818   */\n  and\n    /* \"#utility.yul\":3790:3827   */\n  shr\n    /* \"#utility.yul\":3786:3828   */\n  not\n    /* \"#utility.yul\":3771:3829   */\n  and\n    /* \"#utility.yul\":3756:3830   */\n  dup2\n  sstore\n    /* \"#utility.yul\":3643:3844   */\ntag_58:\n  pop\n  pop\n  pop\n  pop\n    /* \"#utility.yul\":3890:3891   */\n  0x01\n    /* \"#utility.yul\":3874:3888   */\n  swap1\n  dup2\n  shl\n    /* \"#utility.yul\":3870:3892   */\n  add\n    /* \"#utility.yul\":3857:3893   */\n  swap1\n  sstore\n  pop\n    /* \"#utility.yul\":2861:4160   */\n  jump\t// out\ntag_17:\n    /* \"contracts/openzeppelin/MyNFT.sol\":388:13107  contract MyNFT is IERC165,IERC721, IERC721Metadata {... */\n  dataSize(sub_0)\n  dup1\n  dataOffset(sub_0)\n  0x00\n  codecopy\n  0x00\n  return\nstop\n\nsub_0: assembly {\n        /* \"contracts/openzeppelin/MyNFT.sol\":388:13107  contract MyNFT is IERC165,IERC721, IERC721Metadata {... */\n      mstore(0x40, 0x80)\n      callvalue\n      dup1\n      iszero\n      tag_1\n      jumpi\n      0x00\n      dup1\n      revert\n    tag_1:\n      pop\n      jumpi(tag_2, lt(calldatasize, 0x04))\n      shr(0xe0, calldataload(0x00))\n      dup1\n      0x6352211e\n      gt\n      tag_27\n      jumpi\n      dup1\n      0xb88d4fde\n      gt\n      tag_28\n      jumpi\n      dup1\n      0xb88d4fde\n      eq\n      tag_21\n      jumpi\n      dup1\n      0xc87b56dd\n      eq\n      tag_22\n      jumpi\n      dup1\n      0xd0def521\n      eq\n      tag_23\n      jumpi\n      dup1\n      0xd204c45e\n      eq\n      tag_24\n      jumpi\n      dup1\n      0xe985e9c5\n      eq\n      tag_25\n      jumpi\n      dup1\n      0xf6dda936\n      eq\n      tag_26\n      jumpi\n      0x00\n      dup1\n      revert\n    tag_28:\n      dup1\n      0x6352211e\n      eq\n      tag_15\n      jumpi\n      dup1\n      0x70a08231\n      eq\n      tag_16\n      jumpi\n      dup1\n      0x8da5cb5b\n      eq\n      tag_17\n      jumpi\n      dup1\n      0x95d89b41\n      eq\n      tag_18\n      jumpi\n      dup1\n      0xa22cb465\n      eq\n      tag_19\n      jumpi\n      dup1\n      0xacdeb5b9\n      eq\n      tag_20\n      jumpi\n      0x00\n      dup1\n      revert\n    tag_27:\n      dup1\n      0x18160ddd\n      gt\n      tag_29\n      jumpi\n      dup1\n      0x18160ddd\n      eq\n      tag_9\n      jumpi\n      dup1\n      0x23b872dd\n      eq\n      tag_10\n      jumpi\n      dup1\n      0x27e235e3\n      eq\n      tag_11\n      jumpi\n      dup1\n      0x42842e0e\n      eq\n      tag_12\n      jumpi\n      dup1\n      0x42966c68\n      eq\n      tag_13\n      jumpi\n      dup1\n      0x55f804b3\n      eq\n      tag_14\n      jumpi\n      0x00\n      dup1\n      revert\n    tag_29:\n      dup1\n      0x01ffc9a7\n      eq\n      tag_3\n      jumpi\n      dup1\n      0x025e7c27\n      eq\n      tag_4\n      jumpi\n      dup1\n      0x06fdde03\n      eq\n      tag_5\n      jumpi\n      dup1\n      0x081812fc\n      eq\n      tag_6\n      jumpi\n      dup1\n      0x095ea7b3\n      eq\n      tag_7\n      jumpi\n      dup1\n      0x0d95e054\n      eq\n      tag_8\n      jumpi\n    tag_2:\n      0x00\n      dup1\n      revert\n        /* \"contracts/openzeppelin/MyNFT.sol\":1530:1845  function supportsInterface(bytes4 interfaceId)... */\n    tag_3:\n      tag_30\n      tag_31\n      calldatasize\n      0x04\n      tag_32\n      jump\t// in\n    tag_31:\n      tag_33\n      jump\t// in\n    tag_30:\n      mload(0x40)\n        /* \"#utility.yul\":565:579   */\n      swap1\n      iszero\n        /* \"#utility.yul\":558:580   */\n      iszero\n        /* \"#utility.yul\":540:581   */\n      dup2\n      mstore\n        /* \"#utility.yul\":528:530   */\n      0x20\n        /* \"#utility.yul\":513:531   */\n      add\n        /* \"contracts/openzeppelin/MyNFT.sol\":1530:1845  function supportsInterface(bytes4 interfaceId)... */\n    tag_34:\n      mload(0x40)\n      dup1\n      swap2\n      sub\n      swap1\n      return\n        /* \"contracts/openzeppelin/MyNFT.sol\":534:575  mapping(uint256 => address) public owners */\n    tag_4:\n      tag_36\n      tag_37\n      calldatasize\n      0x04\n      tag_38\n      jump\t// in\n    tag_37:\n      mstore(0x20, 0x01)\n      0x00\n      swap1\n      dup2\n      mstore\n      0x40\n      swap1\n      keccak256\n      sload\n      sub(shl(0xa0, 0x01), 0x01)\n      and\n      dup2\n      jump\n    tag_36:\n      mload(0x40)\n      sub(shl(0xa0, 0x01), 0x01)\n        /* \"#utility.yul\":987:1019   */\n      swap1\n      swap2\n      and\n        /* \"#utility.yul\":969:1020   */\n      dup2\n      mstore\n        /* \"#utility.yul\":957:959   */\n      0x20\n        /* \"#utility.yul\":942:960   */\n      add\n        /* \"contracts/openzeppelin/MyNFT.sol\":534:575  mapping(uint256 => address) public owners */\n      tag_34\n        /* \"#utility.yul\":823:1026   */\n      jump\n        /* \"contracts/openzeppelin/MyNFT.sol\":1876:1966  function name() public view override returns (string memory) {... */\n    tag_5:\n      tag_42\n      tag_43\n      jump\t// in\n    tag_42:\n      mload(0x40)\n      tag_34\n      swap2\n      swap1\n      tag_45\n      jump\t// in\n        /* \"contracts/openzeppelin/MyNFT.sol\":5045:5436  function getApproved(uint256 tokenId)... */\n    tag_6:\n      tag_36\n      tag_47\n      calldatasize\n      0x04\n      tag_38\n      jump\t// in\n    tag_47:\n      tag_48\n      jump\t// in\n        /* \"contracts/openzeppelin/MyNFT.sol\":3782:5002  function approve(address to, uint256 tokenId) public override {... */\n    tag_7:\n      tag_50\n      tag_51\n      calldatasize\n      0x04\n      tag_52\n      jump\t// in\n    tag_51:\n      tag_53\n      jump\t// in\n    tag_50:\n      stop\n        /* \"contracts/openzeppelin/MyNFT.sol\":713:782  mapping(address => mapping(address => bool)) public operatorApprovals */\n    tag_8:\n      tag_30\n      tag_55\n      calldatasize\n      0x04\n      tag_56\n      jump\t// in\n    tag_55:\n      0x03\n      0x20\n      swap1\n      dup2\n      mstore\n      0x00\n      swap3\n      dup4\n      mstore\n      0x40\n      dup1\n      dup5\n      keccak256\n      swap1\n      swap2\n      mstore\n      swap1\n      dup3\n      mstore\n      swap1\n      keccak256\n      sload\n      0xff\n      and\n      dup2\n      jump\n        /* \"contracts/openzeppelin/MyNFT.sol\":1143:1173  uint256 public totalSupply = 0 */\n    tag_9:\n      tag_59\n      sload(0x09)\n      dup2\n      jump\n    tag_59:\n      mload(0x40)\n        /* \"#utility.yul\":2444:2469   */\n      swap1\n      dup2\n      mstore\n        /* \"#utility.yul\":2432:2434   */\n      0x20\n        /* \"#utility.yul\":2417:2435   */\n      add\n        /* \"contracts/openzeppelin/MyNFT.sol\":1143:1173  uint256 public totalSupply = 0 */\n      tag_34\n        /* \"#utility.yul\":2298:2475   */\n      jump\n        /* \"contracts/openzeppelin/MyNFT.sol\":6656:6812  function transferFrom(... */\n    tag_10:\n      tag_50\n      tag_64\n      calldatasize\n      0x04\n      tag_65\n      jump\t// in\n    tag_64:\n      tag_66\n      jump\t// in\n        /* \"contracts/openzeppelin/MyNFT.sol\":445:488  mapping(address => uint256) public balances */\n    tag_11:\n      tag_59\n      tag_68\n      calldatasize\n      0x04\n      tag_69\n      jump\t// in\n    tag_68:\n      0x00\n      0x20\n      dup2\n      swap1\n      mstore\n      swap1\n      dup2\n      mstore\n      0x40\n      swap1\n      keccak256\n      sload\n      dup2\n      jump\n        /* \"contracts/openzeppelin/MyNFT.sol\":9886:10088  function safeTransferFrom(... */\n    tag_12:\n      tag_50\n      tag_73\n      calldatasize\n      0x04\n      tag_65\n      jump\t// in\n    tag_73:\n      tag_74\n      jump\t// in\n        /* \"contracts/openzeppelin/MyNFT.sol\":12666:12932  function burn(uint256 tokenId) public {... */\n    tag_13:\n      tag_50\n      tag_76\n      calldatasize\n      0x04\n      tag_38\n      jump\t// in\n    tag_76:\n      tag_77\n      jump\t// in\n        /* \"contracts/openzeppelin/MyNFT.sol\":2137:2290  function setBaseURI(string memory baseURI) public {... */\n    tag_14:\n      tag_50\n      tag_79\n      calldatasize\n      0x04\n      tag_80\n      jump\t// in\n    tag_79:\n      tag_81\n      jump\t// in\n        /* \"contracts/openzeppelin/MyNFT.sol\":3271:3385  function ownerOf(uint256 tokenId) public view override returns (address) {... */\n    tag_15:\n      tag_36\n      tag_83\n      calldatasize\n      0x04\n      tag_38\n      jump\t// in\n    tag_83:\n      tag_84\n      jump\t// in\n        /* \"contracts/openzeppelin/MyNFT.sol\":2953:3228  function balanceOf(address _owner) public view override returns (uint256) {... */\n    tag_16:\n      tag_59\n      tag_87\n      calldatasize\n      0x04\n      tag_69\n      jump\t// in\n    tag_87:\n      tag_88\n      jump\t// in\n        /* \"contracts/openzeppelin/MyNFT.sol\":865:885  address public owner */\n    tag_17:\n      sload(0x04)\n      tag_36\n      swap1\n      sub(shl(0xa0, 0x01), 0x01)\n      and\n      dup2\n      jump\n        /* \"contracts/openzeppelin/MyNFT.sol\":1997:2091  function symbol() public view override returns (string memory) {... */\n    tag_18:\n      tag_42\n      tag_94\n      jump\t// in\n        /* \"contracts/openzeppelin/MyNFT.sol\":5475:6034  function setApprovalForAll(address operator, bool approved)... */\n    tag_19:\n      tag_50\n      tag_97\n      calldatasize\n      0x04\n      tag_98\n      jump\t// in\n    tag_97:\n      tag_99\n      jump\t// in\n        /* \"contracts/openzeppelin/MyNFT.sol\":617:666  mapping(uint256 => address) public tokenApprovals */\n    tag_20:\n      tag_36\n      tag_101\n      calldatasize\n      0x04\n      tag_38\n      jump\t// in\n    tag_101:\n      mstore(0x20, 0x02)\n      0x00\n      swap1\n      dup2\n      mstore\n      0x40\n      swap1\n      keccak256\n      sload\n      sub(shl(0xa0, 0x01), 0x01)\n      and\n      dup2\n      jump\n        /* \"contracts/openzeppelin/MyNFT.sol\":10135:10334  function safeTransferFrom(... */\n    tag_21:\n      tag_50\n      tag_105\n      calldatasize\n      0x04\n      tag_106\n      jump\t// in\n    tag_105:\n      tag_107\n      jump\t// in\n        /* \"contracts/openzeppelin/MyNFT.sol\":2330:2740  function tokenURI(uint256 tokenId)... */\n    tag_22:\n      tag_42\n      tag_109\n      calldatasize\n      0x04\n      tag_38\n      jump\t// in\n    tag_109:\n      tag_110\n      jump\t// in\n        /* \"contracts/openzeppelin/MyNFT.sol\":10804:10966  function mint(address to, string memory _tokenURI)... */\n    tag_23:\n      tag_59\n      tag_113\n      calldatasize\n      0x04\n      tag_114\n      jump\t// in\n    tag_113:\n      tag_115\n      jump\t// in\n        /* \"contracts/openzeppelin/MyNFT.sol\":11013:11167  function safeMint(address to, string calldata _tokenURI)... */\n    tag_24:\n      tag_59\n      tag_118\n      calldatasize\n      0x04\n      tag_119\n      jump\t// in\n    tag_118:\n      tag_120\n      jump\t// in\n        /* \"contracts/openzeppelin/MyNFT.sol\":6115:6632  function isApprovedForAll(address _owner, address operator)... */\n    tag_25:\n      tag_30\n      tag_123\n      calldatasize\n      0x04\n      tag_56\n      jump\t// in\n    tag_123:\n      tag_124\n      jump\t// in\n        /* \"contracts/openzeppelin/MyNFT.sol\":11214:11401  function safeMint(... */\n    tag_26:\n      tag_59\n      tag_127\n      calldatasize\n      0x04\n      tag_128\n      jump\t// in\n    tag_127:\n      tag_129\n      jump\t// in\n        /* \"contracts/openzeppelin/MyNFT.sol\":1530:1845  function supportsInterface(bytes4 interfaceId)... */\n    tag_33:\n        /* \"contracts/openzeppelin/MyNFT.sol\":1639:1643  bool */\n      0x00\n      not(sub(shl(0xe0, 0x01), 0x01))\n        /* \"contracts/openzeppelin/MyNFT.sol\":1678:1718  interfaceId == type(IERC721).interfaceId */\n      dup3\n      and\n      shl(0xe0, 0x80ac58cd)\n      eq\n      dup1\n        /* \"contracts/openzeppelin/MyNFT.sol\":1678:1782  interfaceId == type(IERC721).interfaceId ||... */\n      tag_132\n      jumpi\n      pop\n      not(sub(shl(0xe0, 0x01), 0x01))\n        /* \"contracts/openzeppelin/MyNFT.sol\":1734:1782  interfaceId == type(IERC721Metadata).interfaceId */\n      dup3\n      and\n      shl(0xe0, 0x5b5e139f)\n      eq\n        /* \"contracts/openzeppelin/MyNFT.sol\":1678:1782  interfaceId == type(IERC721).interfaceId ||... */\n    tag_132:\n        /* \"contracts/openzeppelin/MyNFT.sol\":1678:1838  interfaceId == type(IERC721).interfaceId ||... */\n      dup1\n      tag_133\n      jumpi\n      pop\n      not(sub(shl(0xe0, 0x01), 0x01))\n        /* \"contracts/openzeppelin/MyNFT.sol\":1798:1838  interfaceId == type(IERC165).interfaceId */\n      dup3\n      and\n      shl(0xe0, 0x01ffc9a7)\n      eq\n        /* \"contracts/openzeppelin/MyNFT.sol\":1678:1838  interfaceId == type(IERC721).interfaceId ||... */\n    tag_133:\n        /* \"contracts/openzeppelin/MyNFT.sol\":1659:1838  return... */\n      swap3\n        /* \"contracts/openzeppelin/MyNFT.sol\":1530:1845  function supportsInterface(bytes4 interfaceId)... */\n      swap2\n      pop\n      pop\n      jump\t// out\n        /* \"contracts/openzeppelin/MyNFT.sol\":1876:1966  function name() public view override returns (string memory) {... */\n    tag_43:\n        /* \"contracts/openzeppelin/MyNFT.sol\":1922:1935  string memory */\n      0x60\n        /* \"contracts/openzeppelin/MyNFT.sol\":1954:1959  _name */\n      0x05\n        /* \"contracts/openzeppelin/MyNFT.sol\":1947:1959  return _name */\n      dup1\n      sload\n      tag_135\n      swap1\n      tag_136\n      jump\t// in\n    tag_135:\n      dup1\n      0x1f\n      add\n      0x20\n      dup1\n      swap2\n      div\n      mul\n      0x20\n      add\n      mload(0x40)\n      swap1\n      dup2\n      add\n      0x40\n      mstore\n      dup1\n      swap3\n      swap2\n      swap1\n      dup2\n      dup2\n      mstore\n      0x20\n      add\n      dup3\n      dup1\n      sload\n      tag_137\n      swap1\n      tag_136\n      jump\t// in\n    tag_137:\n      dup1\n      iszero\n      tag_138\n      jumpi\n      dup1\n      0x1f\n      lt\n      tag_139\n      jumpi\n      0x0100\n      dup1\n      dup4\n      sload\n      div\n      mul\n      dup4\n      mstore\n      swap2\n      0x20\n      add\n      swap2\n      jump(tag_138)\n    tag_139:\n      dup3\n      add\n      swap2\n      swap1\n      0x00\n      mstore\n      keccak256(0x00, 0x20)\n      swap1\n    tag_140:\n      dup2\n      sload\n      dup2\n      mstore\n      swap1\n      0x01\n      add\n      swap1\n      0x20\n      add\n      dup1\n      dup4\n      gt\n      tag_140\n      jumpi\n      dup3\n      swap1\n      sub\n      0x1f\n      and\n      dup3\n      add\n      swap2\n    tag_138:\n      pop\n      pop\n      pop\n      pop\n      pop\n      swap1\n      pop\n        /* \"contracts/openzeppelin/MyNFT.sol\":1876:1966  function name() public view override returns (string memory) {... */\n      swap1\n      jump\t// out\n        /* \"contracts/openzeppelin/MyNFT.sol\":5045:5436  function getApproved(uint256 tokenId)... */\n    tag_48:\n        /* \"contracts/openzeppelin/MyNFT.sol\":5145:5152  address */\n      0x00\n        /* \"contracts/openzeppelin/MyNFT.sol\":5189:5204  owners[tokenId] */\n      dup2\n      dup2\n      mstore\n        /* \"contracts/openzeppelin/MyNFT.sol\":5189:5195  owners */\n      0x01\n        /* \"contracts/openzeppelin/MyNFT.sol\":5189:5204  owners[tokenId] */\n      0x20\n      mstore\n      0x40\n      dup2\n      keccak256\n      sload\n      sub(shl(0xa0, 0x01), 0x01)\n      and\n      dup1\n        /* \"contracts/openzeppelin/MyNFT.sol\":5274:5389  require(... */\n      tag_142\n      jumpi\n      mload(0x40)\n      shl(0xe5, 0x461bcd)\n      dup2\n      mstore\n        /* \"#utility.yul\":7890:7892   */\n      0x20\n        /* \"contracts/openzeppelin/MyNFT.sol\":5274:5389  require(... */\n      0x04\n      dup3\n      add\n        /* \"#utility.yul\":7872:7893   */\n      mstore\n        /* \"#utility.yul\":7929:7931   */\n      0x2c\n        /* \"#utility.yul\":7909:7927   */\n      0x24\n      dup3\n      add\n        /* \"#utility.yul\":7902:7932   */\n      mstore\n        /* \"#utility.yul\":7968:8002   */\n      0x4552433732313a20617070726f76656420717565727920666f72206e6f6e6578\n        /* \"#utility.yul\":7948:7966   */\n      0x44\n      dup3\n      add\n        /* \"#utility.yul\":7941:8003   */\n      mstore\n      shl(0xa1, 0x34b9ba32b73a103a37b5b2b7)\n        /* \"#utility.yul\":8019:8037   */\n      0x64\n      dup3\n      add\n        /* \"#utility.yul\":8012:8054   */\n      mstore\n        /* \"#utility.yul\":8071:8090   */\n      0x84\n      add\n        /* \"contracts/openzeppelin/MyNFT.sol\":5274:5389  require(... */\n    tag_143:\n      mload(0x40)\n      dup1\n      swap2\n      sub\n      swap1\n      revert\n    tag_142:\n      pop\n      pop\n        /* \"contracts/openzeppelin/MyNFT.sol\":5406:5429  tokenApprovals[tokenId] */\n      0x00\n      swap1\n      dup2\n      mstore\n        /* \"contracts/openzeppelin/MyNFT.sol\":5406:5420  tokenApprovals */\n      0x02\n        /* \"contracts/openzeppelin/MyNFT.sol\":5406:5429  tokenApprovals[tokenId] */\n      0x20\n      mstore\n      0x40\n      swap1\n      keccak256\n      sload\n      sub(shl(0xa0, 0x01), 0x01)\n      and\n      swap1\n        /* \"contracts/openzeppelin/MyNFT.sol\":5045:5436  function getApproved(uint256 tokenId)... */\n      jump\t// out\n        /* \"contracts/openzeppelin/MyNFT.sol\":3782:5002  function approve(address to, uint256 tokenId) public override {... */\n    tag_53:\n        /* \"contracts/openzeppelin/MyNFT.sol\":3854:3872  address tokenOwner */\n      0x00\n        /* \"contracts/openzeppelin/MyNFT.sol\":3875:3890  owners[tokenId] */\n      dup2\n      dup2\n      mstore\n        /* \"contracts/openzeppelin/MyNFT.sol\":3875:3881  owners */\n      0x01\n        /* \"contracts/openzeppelin/MyNFT.sol\":3875:3890  owners[tokenId] */\n      0x20\n      mstore\n      0x40\n      swap1\n      keccak256\n      sload\n      sub(shl(0xa0, 0x01), 0x01)\n      and\n        /* \"contracts/openzeppelin/MyNFT.sol\":4041:4051  msg.sender */\n      caller\n        /* \"contracts/openzeppelin/MyNFT.sol\":4041:4065  msg.sender == tokenOwner */\n      dup2\n      eq\n      dup1\n        /* \"contracts/openzeppelin/MyNFT.sol\":4041:4125  msg.sender == tokenOwner ||... */\n      tag_147\n      jumpi\n      pop\n        /* \"contracts/openzeppelin/MyNFT.sol\":4085:4125  isApprovedForAll(tokenOwner, msg.sender) */\n      tag_147\n        /* \"contracts/openzeppelin/MyNFT.sol\":4102:4112  tokenOwner */\n      dup2\n        /* \"contracts/openzeppelin/MyNFT.sol\":4114:4124  msg.sender */\n      caller\n        /* \"contracts/openzeppelin/MyNFT.sol\":4085:4101  isApprovedForAll */\n      tag_124\n        /* \"contracts/openzeppelin/MyNFT.sol\":4085:4125  isApprovedForAll(tokenOwner, msg.sender) */\n      jump\t// in\n    tag_147:\n        /* \"contracts/openzeppelin/MyNFT.sol\":4020:4207  require(... */\n      tag_148\n      jumpi\n      mload(0x40)\n      shl(0xe5, 0x461bcd)\n      dup2\n      mstore\n      0x04\n      add\n      tag_143\n      swap1\n      tag_150\n      jump\t// in\n    tag_148:\n      sub(shl(0xa0, 0x01), 0x01)\n        /* \"contracts/openzeppelin/MyNFT.sol\":4292:4316  tokenOwner == msg.sender */\n      dup2\n      and\n        /* \"contracts/openzeppelin/MyNFT.sol\":4306:4316  msg.sender */\n      caller\n        /* \"contracts/openzeppelin/MyNFT.sol\":4292:4316  tokenOwner == msg.sender */\n      eq\n        /* \"contracts/openzeppelin/MyNFT.sol\":4271:4398  require(... */\n      tag_151\n      jumpi\n      mload(0x40)\n      shl(0xe5, 0x461bcd)\n      dup2\n      mstore\n      0x04\n      add\n      tag_143\n      swap1\n      tag_150\n      jump\t// in\n    tag_151:\n      sub(shl(0xa0, 0x01), 0x01)\n        /* \"contracts/openzeppelin/MyNFT.sol\":4453:4469  to != address(0) */\n      dup4\n      and\n        /* \"contracts/openzeppelin/MyNFT.sol\":4445:4509  require(to != address(0), \"ERC721: approve to the zero address\") */\n      tag_153\n      jumpi\n      mload(0x40)\n      shl(0xe5, 0x461bcd)\n      dup2\n      mstore\n      0x04\n      add\n      tag_143\n      swap1\n      tag_155\n      jump\t// in\n    tag_153:\n        /* \"contracts/openzeppelin/MyNFT.sol\":4598:4600  to */\n      dup3\n      sub(shl(0xa0, 0x01), 0x01)\n        /* \"contracts/openzeppelin/MyNFT.sol\":4584:4600  tokenOwner != to */\n      and\n        /* \"contracts/openzeppelin/MyNFT.sol\":4584:4594  tokenOwner */\n      dup2\n      sub(shl(0xa0, 0x01), 0x01)\n        /* \"contracts/openzeppelin/MyNFT.sol\":4584:4600  tokenOwner != to */\n      and\n      sub\n        /* \"contracts/openzeppelin/MyNFT.sol\":4576:4630  require(tokenOwner != to, \"ERC721: approve to caller\") */\n      tag_156\n      jumpi\n      mload(0x40)\n      shl(0xe5, 0x461bcd)\n      dup2\n      mstore\n        /* \"#utility.yul\":9132:9134   */\n      0x20\n        /* \"contracts/openzeppelin/MyNFT.sol\":4576:4630  require(tokenOwner != to, \"ERC721: approve to caller\") */\n      0x04\n      dup3\n      add\n        /* \"#utility.yul\":9114:9135   */\n      mstore\n        /* \"#utility.yul\":9171:9173   */\n      0x19\n        /* \"#utility.yul\":9151:9169   */\n      0x24\n      dup3\n      add\n        /* \"#utility.yul\":9144:9174   */\n      mstore\n      shl(0x39, 0x22a9219b99189d1030b8383937bb32903a379031b0b63632b9)\n        /* \"#utility.yul\":9190:9208   */\n      0x44\n      dup3\n      add\n        /* \"#utility.yul\":9183:9238   */\n      mstore\n        /* \"#utility.yul\":9255:9273   */\n      0x64\n      add\n        /* \"contracts/openzeppelin/MyNFT.sol\":4576:4630  require(tokenOwner != to, \"ERC721: approve to caller\") */\n      tag_143\n        /* \"#utility.yul\":8930:9279   */\n      jump\n        /* \"contracts/openzeppelin/MyNFT.sol\":4576:4630  require(tokenOwner != to, \"ERC721: approve to caller\") */\n    tag_156:\n        /* \"contracts/openzeppelin/MyNFT.sol\":4724:4756  isApprovedForAll(tokenOwner, to) */\n      tag_159\n        /* \"contracts/openzeppelin/MyNFT.sol\":4741:4751  tokenOwner */\n      dup2\n        /* \"contracts/openzeppelin/MyNFT.sol\":4753:4755  to */\n      dup5\n        /* \"contracts/openzeppelin/MyNFT.sol\":4724:4740  isApprovedForAll */\n      tag_124\n        /* \"contracts/openzeppelin/MyNFT.sol\":4724:4756  isApprovedForAll(tokenOwner, to) */\n      jump\t// in\n    tag_159:\n        /* \"contracts/openzeppelin/MyNFT.sol\":4723:4756  !isApprovedForAll(tokenOwner, to) */\n      iszero\n        /* \"contracts/openzeppelin/MyNFT.sol\":4702:4838  require(... */\n      tag_160\n      jumpi\n      mload(0x40)\n      shl(0xe5, 0x461bcd)\n      dup2\n      mstore\n      0x04\n      add\n      tag_143\n      swap1\n      tag_150\n      jump\t// in\n    tag_160:\n        /* \"contracts/openzeppelin/MyNFT.sol\":4889:4912  tokenApprovals[tokenId] */\n      0x00\n      dup3\n      dup2\n      mstore\n        /* \"contracts/openzeppelin/MyNFT.sol\":4889:4903  tokenApprovals */\n      0x02\n        /* \"contracts/openzeppelin/MyNFT.sol\":4889:4912  tokenApprovals[tokenId] */\n      0x20\n      mstore\n      0x40\n      dup1\n      dup3\n      keccak256\n        /* \"contracts/openzeppelin/MyNFT.sol\":4889:4917  tokenApprovals[tokenId] = to */\n      dup1\n      sload\n      not(sub(shl(0xa0, 0x01), 0x01))\n      and\n      sub(shl(0xa0, 0x01), 0x01)\n      dup8\n      dup2\n      and\n      swap2\n      dup3\n      or\n      swap1\n      swap3\n      sstore\n        /* \"contracts/openzeppelin/MyNFT.sol\":4962:4995  Approval(tokenOwner, to, tokenId) */\n      swap2\n      mload\n        /* \"contracts/openzeppelin/MyNFT.sol\":4889:4912  tokenApprovals[tokenId] */\n      dup6\n      swap4\n        /* \"contracts/openzeppelin/MyNFT.sol\":4962:4995  Approval(tokenOwner, to, tokenId) */\n      swap2\n      dup6\n      and\n      swap2\n      0x8c5be1e5ebec7d5bd14f71427d1e84f3dd0314c0f7b2291e5b200ac8c7c3b925\n      swap2\n      log4\n        /* \"contracts/openzeppelin/MyNFT.sol\":3844:5002  {... */\n      pop\n        /* \"contracts/openzeppelin/MyNFT.sol\":3782:5002  function approve(address to, uint256 tokenId) public override {... */\n      pop\n      pop\n      jump\t// out\n        /* \"contracts/openzeppelin/MyNFT.sol\":6656:6812  function transferFrom(... */\n    tag_66:\n        /* \"contracts/openzeppelin/MyNFT.sol\":6777:6805  _transfer(from, to, tokenId) */\n      tag_163\n        /* \"contracts/openzeppelin/MyNFT.sol\":6787:6791  from */\n      dup4\n        /* \"contracts/openzeppelin/MyNFT.sol\":6793:6795  to */\n      dup4\n        /* \"contracts/openzeppelin/MyNFT.sol\":6797:6804  tokenId */\n      dup4\n        /* \"contracts/openzeppelin/MyNFT.sol\":6777:6786  _transfer */\n      tag_164\n        /* \"contracts/openzeppelin/MyNFT.sol\":6777:6805  _transfer(from, to, tokenId) */\n      jump\t// in\n    tag_163:\n        /* \"contracts/openzeppelin/MyNFT.sol\":6656:6812  function transferFrom(... */\n      pop\n      pop\n      pop\n      jump\t// out\n        /* \"contracts/openzeppelin/MyNFT.sol\":9886:10088  function safeTransferFrom(... */\n    tag_74:\n        /* \"contracts/openzeppelin/MyNFT.sol\":10045:10081  _safeTransfer(from, to, tokenId, \"\") */\n      tag_163\n        /* \"contracts/openzeppelin/MyNFT.sol\":10059:10063  from */\n      dup4\n        /* \"contracts/openzeppelin/MyNFT.sol\":10065:10067  to */\n      dup4\n        /* \"contracts/openzeppelin/MyNFT.sol\":10069:10076  tokenId */\n      dup4\n        /* \"contracts/openzeppelin/MyNFT.sol\":10045:10081  _safeTransfer(from, to, tokenId, \"\") */\n      mload(0x40)\n      dup1\n      0x20\n      add\n      0x40\n      mstore\n      dup1\n      0x00\n      dup2\n      mstore\n      pop\n        /* \"contracts/openzeppelin/MyNFT.sol\":10045:10058  _safeTransfer */\n      tag_167\n        /* \"contracts/openzeppelin/MyNFT.sol\":10045:10081  _safeTransfer(from, to, tokenId, \"\") */\n      jump\t// in\n        /* \"contracts/openzeppelin/MyNFT.sol\":12666:12932  function burn(uint256 tokenId) public {... */\n    tag_77:\n        /* \"contracts/openzeppelin/MyNFT.sol\":12799:12816  _ownerOf(tokenId) */\n      tag_169\n        /* \"contracts/openzeppelin/MyNFT.sol\":12808:12815  tokenId */\n      dup2\n        /* \"contracts/openzeppelin/MyNFT.sol\":12799:12807  _ownerOf */\n      tag_170\n        /* \"contracts/openzeppelin/MyNFT.sol\":12799:12816  _ownerOf(tokenId) */\n      jump\t// in\n    tag_169:\n      sub(shl(0xa0, 0x01), 0x01)\n        /* \"contracts/openzeppelin/MyNFT.sol\":12785:12816  msg.sender == _ownerOf(tokenId) */\n      and\n        /* \"contracts/openzeppelin/MyNFT.sol\":12785:12795  msg.sender */\n      caller\n      sub(shl(0xa0, 0x01), 0x01)\n        /* \"contracts/openzeppelin/MyNFT.sol\":12785:12816  msg.sender == _ownerOf(tokenId) */\n      and\n      eq\n        /* \"contracts/openzeppelin/MyNFT.sol\":12764:12873  require(... */\n      tag_171\n      jumpi\n      mload(0x40)\n      shl(0xe5, 0x461bcd)\n      dup2\n      mstore\n        /* \"#utility.yul\":9486:9488   */\n      0x20\n        /* \"contracts/openzeppelin/MyNFT.sol\":12764:12873  require(... */\n      0x04\n      dup3\n      add\n        /* \"#utility.yul\":9468:9489   */\n      mstore\n        /* \"#utility.yul\":9525:9527   */\n      0x1f\n        /* \"#utility.yul\":9505:9523   */\n      0x24\n      dup3\n      add\n        /* \"#utility.yul\":9498:9528   */\n      mstore\n        /* \"#utility.yul\":9564:9597   */\n      0x4552433732313a2063616c6c6572206973206e6f7420746865206f776e657200\n        /* \"#utility.yul\":9544:9562   */\n      0x44\n      dup3\n      add\n        /* \"#utility.yul\":9537:9598   */\n      mstore\n        /* \"#utility.yul\":9615:9633   */\n      0x64\n      add\n        /* \"contracts/openzeppelin/MyNFT.sol\":12764:12873  require(... */\n      tag_143\n        /* \"#utility.yul\":9284:9639   */\n      jump\n        /* \"contracts/openzeppelin/MyNFT.sol\":12764:12873  require(... */\n    tag_171:\n        /* \"contracts/openzeppelin/MyNFT.sol\":12911:12925  _burn(tokenId) */\n      tag_174\n        /* \"contracts/openzeppelin/MyNFT.sol\":12917:12924  tokenId */\n      dup2\n        /* \"contracts/openzeppelin/MyNFT.sol\":12911:12916  _burn */\n      tag_175\n        /* \"contracts/openzeppelin/MyNFT.sol\":12911:12925  _burn(tokenId) */\n      jump\t// in\n    tag_174:\n        /* \"contracts/openzeppelin/MyNFT.sol\":12666:12932  function burn(uint256 tokenId) public {... */\n      pop\n      jump\t// out\n        /* \"contracts/openzeppelin/MyNFT.sol\":2137:2290  function setBaseURI(string memory baseURI) public {... */\n    tag_81:\n        /* \"contracts/openzeppelin/MyNFT.sol\":2219:2224  owner */\n      and(sub(shl(0xa0, 0x01), 0x01), sload(0x04))\n        /* \"contracts/openzeppelin/MyNFT.sol\":2205:2215  msg.sender */\n      caller\n        /* \"contracts/openzeppelin/MyNFT.sol\":2205:2224  msg.sender == owner */\n      eq\n        /* \"contracts/openzeppelin/MyNFT.sol\":2197:2255  require(msg.sender == owner, \"only owner can set baseURI\") */\n      tag_177\n      jumpi\n      mload(0x40)\n      shl(0xe5, 0x461bcd)\n      dup2\n      mstore\n        /* \"#utility.yul\":9846:9848   */\n      0x20\n        /* \"contracts/openzeppelin/MyNFT.sol\":2197:2255  require(msg.sender == owner, \"only owner can set baseURI\") */\n      0x04\n      dup3\n      add\n        /* \"#utility.yul\":9828:9849   */\n      mstore\n        /* \"#utility.yul\":9885:9887   */\n      0x1a\n        /* \"#utility.yul\":9865:9883   */\n      0x24\n      dup3\n      add\n        /* \"#utility.yul\":9858:9888   */\n      mstore\n        /* \"#utility.yul\":9924:9952   */\n      0x6f6e6c79206f776e65722063616e207365742062617365555249000000000000\n        /* \"#utility.yul\":9904:9922   */\n      0x44\n      dup3\n      add\n        /* \"#utility.yul\":9897:9953   */\n      mstore\n        /* \"#utility.yul\":9970:9988   */\n      0x64\n      add\n        /* \"contracts/openzeppelin/MyNFT.sol\":2197:2255  require(msg.sender == owner, \"only owner can set baseURI\") */\n      tag_143\n        /* \"#utility.yul\":9644:9994   */\n      jump\n        /* \"contracts/openzeppelin/MyNFT.sol\":2197:2255  require(msg.sender == owner, \"only owner can set baseURI\") */\n    tag_177:\n        /* \"contracts/openzeppelin/MyNFT.sol\":2265:2273  _baseURI */\n      0x07\n        /* \"contracts/openzeppelin/MyNFT.sol\":2265:2283  _baseURI = baseURI */\n      tag_180\n        /* \"contracts/openzeppelin/MyNFT.sol\":2276:2283  baseURI */\n      dup3\n        /* \"contracts/openzeppelin/MyNFT.sol\":2265:2273  _baseURI */\n      dup3\n        /* \"contracts/openzeppelin/MyNFT.sol\":2265:2283  _baseURI = baseURI */\n      tag_181\n      jump\t// in\n    tag_180:\n      pop\n        /* \"contracts/openzeppelin/MyNFT.sol\":2137:2290  function setBaseURI(string memory baseURI) public {... */\n      pop\n      jump\t// out\n        /* \"contracts/openzeppelin/MyNFT.sol\":3271:3385  function ownerOf(uint256 tokenId) public view override returns (address) {... */\n    tag_84:\n        /* \"contracts/openzeppelin/MyNFT.sol\":3335:3342  address */\n      0x00\n        /* \"contracts/openzeppelin/MyNFT.sol\":3361:3378  _ownerOf(tokenId) */\n      tag_133\n        /* \"contracts/openzeppelin/MyNFT.sol\":3370:3377  tokenId */\n      dup3\n        /* \"contracts/openzeppelin/MyNFT.sol\":3361:3369  _ownerOf */\n      tag_170\n        /* \"contracts/openzeppelin/MyNFT.sol\":3361:3378  _ownerOf(tokenId) */\n      jump\t// in\n        /* \"contracts/openzeppelin/MyNFT.sol\":2953:3228  function balanceOf(address _owner) public view override returns (uint256) {... */\n    tag_88:\n        /* \"contracts/openzeppelin/MyNFT.sol\":3018:3025  uint256 */\n      0x00\n      sub(shl(0xa0, 0x01), 0x01)\n        /* \"contracts/openzeppelin/MyNFT.sol\":3100:3120  _owner != address(0) */\n      dup3\n      and\n        /* \"contracts/openzeppelin/MyNFT.sol\":3079:3188  require(... */\n      tag_185\n      jumpi\n      mload(0x40)\n      shl(0xe5, 0x461bcd)\n      dup2\n      mstore\n        /* \"#utility.yul\":12325:12327   */\n      0x20\n        /* \"contracts/openzeppelin/MyNFT.sol\":3079:3188  require(... */\n      0x04\n      dup3\n      add\n        /* \"#utility.yul\":12307:12328   */\n      mstore\n        /* \"#utility.yul\":12364:12366   */\n      0x2a\n        /* \"#utility.yul\":12344:12362   */\n      0x24\n      dup3\n      add\n        /* \"#utility.yul\":12337:12367   */\n      mstore\n        /* \"#utility.yul\":12403:12437   */\n      0x4552433732313a2062616c616e636520717565727920666f7220746865207a65\n        /* \"#utility.yul\":12383:12401   */\n      0x44\n      dup3\n      add\n        /* \"#utility.yul\":12376:12438   */\n      mstore\n      shl(0xb0, 0x726f2061646472657373)\n        /* \"#utility.yul\":12454:12472   */\n      0x64\n      dup3\n      add\n        /* \"#utility.yul\":12447:12487   */\n      mstore\n        /* \"#utility.yul\":12504:12523   */\n      0x84\n      add\n        /* \"contracts/openzeppelin/MyNFT.sol\":3079:3188  require(... */\n      tag_143\n        /* \"#utility.yul\":12123:12529   */\n      jump\n        /* \"contracts/openzeppelin/MyNFT.sol\":3079:3188  require(... */\n    tag_185:\n      pop\n      sub(shl(0xa0, 0x01), 0x01)\n        /* \"contracts/openzeppelin/MyNFT.sol\":3205:3221  balances[_owner] */\n      and\n        /* \"contracts/openzeppelin/MyNFT.sol\":3205:3213  balances */\n      0x00\n        /* \"contracts/openzeppelin/MyNFT.sol\":3205:3221  balances[_owner] */\n      swap1\n      dup2\n      mstore\n      0x20\n      dup2\n      swap1\n      mstore\n      0x40\n      swap1\n      keccak256\n      sload\n      swap1\n        /* \"contracts/openzeppelin/MyNFT.sol\":2953:3228  function balanceOf(address _owner) public view override returns (uint256) {... */\n      jump\t// out\n        /* \"contracts/openzeppelin/MyNFT.sol\":1997:2091  function symbol() public view override returns (string memory) {... */\n    tag_94:\n        /* \"contracts/openzeppelin/MyNFT.sol\":2045:2058  string memory */\n      0x60\n        /* \"contracts/openzeppelin/MyNFT.sol\":2077:2084  _symbol */\n      0x06\n        /* \"contracts/openzeppelin/MyNFT.sol\":2070:2084  return _symbol */\n      dup1\n      sload\n      tag_135\n      swap1\n      tag_136\n      jump\t// in\n        /* \"contracts/openzeppelin/MyNFT.sol\":5475:6034  function setApprovalForAll(address operator, bool approved)... */\n    tag_99:\n      sub(shl(0xa0, 0x01), 0x01)\n        /* \"contracts/openzeppelin/MyNFT.sol\":5629:5651  operator != address(0) */\n      dup3\n      and\n        /* \"contracts/openzeppelin/MyNFT.sol\":5621:5691  require(operator != address(0), \"ERC721: approve to the zero address\") */\n      tag_195\n      jumpi\n      mload(0x40)\n      shl(0xe5, 0x461bcd)\n      dup2\n      mstore\n      0x04\n      add\n      tag_143\n      swap1\n      tag_155\n      jump\t// in\n    tag_195:\n        /* \"contracts/openzeppelin/MyNFT.sol\":5778:5788  msg.sender */\n      caller\n      sub(shl(0xa0, 0x01), 0x01)\n        /* \"contracts/openzeppelin/MyNFT.sol\":5766:5788  operator != msg.sender */\n      dup4\n      and\n      sub\n        /* \"contracts/openzeppelin/MyNFT.sol\":5758:5818  require(operator != msg.sender, \"ERC721: approve to caller\") */\n      tag_197\n      jumpi\n      mload(0x40)\n      shl(0xe5, 0x461bcd)\n      dup2\n      mstore\n        /* \"#utility.yul\":9132:9134   */\n      0x20\n        /* \"contracts/openzeppelin/MyNFT.sol\":5758:5818  require(operator != msg.sender, \"ERC721: approve to caller\") */\n      0x04\n      dup3\n      add\n        /* \"#utility.yul\":9114:9135   */\n      mstore\n        /* \"#utility.yul\":9171:9173   */\n      0x19\n        /* \"#utility.yul\":9151:9169   */\n      0x24\n      dup3\n      add\n        /* \"#utility.yul\":9144:9174   */\n      mstore\n      shl(0x39, 0x22a9219b99189d1030b8383937bb32903a379031b0b63632b9)\n        /* \"#utility.yul\":9190:9208   */\n      0x44\n      dup3\n      add\n        /* \"#utility.yul\":9183:9238   */\n      mstore\n        /* \"#utility.yul\":9255:9273   */\n      0x64\n      add\n        /* \"contracts/openzeppelin/MyNFT.sol\":5758:5818  require(operator != msg.sender, \"ERC721: approve to caller\") */\n      tag_143\n        /* \"#utility.yul\":8930:9279   */\n      jump\n        /* \"contracts/openzeppelin/MyNFT.sol\":5758:5818  require(operator != msg.sender, \"ERC721: approve to caller\") */\n    tag_197:\n        /* \"contracts/openzeppelin/MyNFT.sol\":5893:5903  msg.sender */\n      caller\n        /* \"contracts/openzeppelin/MyNFT.sol\":5875:5904  operatorApprovals[msg.sender] */\n      0x00\n      dup2\n      dup2\n      mstore\n        /* \"contracts/openzeppelin/MyNFT.sol\":5875:5892  operatorApprovals */\n      0x03\n        /* \"contracts/openzeppelin/MyNFT.sol\":5875:5904  operatorApprovals[msg.sender] */\n      0x20\n      swap1\n      dup2\n      mstore\n      0x40\n      dup1\n      dup4\n      keccak256\n      sub(shl(0xa0, 0x01), 0x01)\n        /* \"contracts/openzeppelin/MyNFT.sol\":5875:5914  operatorApprovals[msg.sender][operator] */\n      dup8\n      and\n      dup1\n      dup6\n      mstore\n      swap1\n      dup4\n      mstore\n      swap3\n      dup2\n      swap1\n      keccak256\n        /* \"contracts/openzeppelin/MyNFT.sol\":5875:5925  operatorApprovals[msg.sender][operator] = approved */\n      dup1\n      sload\n      not(0xff)\n      and\n      dup7\n      iszero\n      iszero\n      swap1\n      dup2\n      or\n      swap1\n      swap2\n      sstore\n        /* \"contracts/openzeppelin/MyNFT.sol\":5981:6027  ApprovalForAll(msg.sender, operator, approved) */\n      swap1\n      mload\n        /* \"#utility.yul\":540:581   */\n      swap1\n      dup2\n      mstore\n        /* \"contracts/openzeppelin/MyNFT.sol\":5875:5914  operatorApprovals[msg.sender][operator] */\n      swap2\n      swap3\n        /* \"contracts/openzeppelin/MyNFT.sol\":5893:5903  msg.sender */\n      swap2\n        /* \"contracts/openzeppelin/MyNFT.sol\":5981:6027  ApprovalForAll(msg.sender, operator, approved) */\n      0x17307eab39ab6107e8899845ad3d59bd9653f200f220920489ca2b5937696c31\n      swap2\n        /* \"#utility.yul\":513:531   */\n      add\n        /* \"contracts/openzeppelin/MyNFT.sol\":5981:6027  ApprovalForAll(msg.sender, operator, approved) */\n      mload(0x40)\n      dup1\n      swap2\n      sub\n      swap1\n      log3\n        /* \"contracts/openzeppelin/MyNFT.sol\":5475:6034  function setApprovalForAll(address operator, bool approved)... */\n      pop\n      pop\n      jump\t// out\n        /* \"contracts/openzeppelin/MyNFT.sol\":10135:10334  function safeTransferFrom(... */\n    tag_107:\n        /* \"contracts/openzeppelin/MyNFT.sol\":10289:10327  _safeTransfer(from, to, tokenId, data) */\n      tag_201\n        /* \"contracts/openzeppelin/MyNFT.sol\":10303:10307  from */\n      dup6\n        /* \"contracts/openzeppelin/MyNFT.sol\":10309:10311  to */\n      dup6\n        /* \"contracts/openzeppelin/MyNFT.sol\":10313:10320  tokenId */\n      dup6\n        /* \"contracts/openzeppelin/MyNFT.sol\":10322:10326  data */\n      dup6\n      dup6\n        /* \"contracts/openzeppelin/MyNFT.sol\":10289:10327  _safeTransfer(from, to, tokenId, data) */\n      dup1\n      dup1\n      0x1f\n      add\n      0x20\n      dup1\n      swap2\n      div\n      mul\n      0x20\n      add\n      mload(0x40)\n      swap1\n      dup2\n      add\n      0x40\n      mstore\n      dup1\n      swap4\n      swap3\n      swap2\n      swap1\n      dup2\n      dup2\n      mstore\n      0x20\n      add\n      dup4\n      dup4\n      dup1\n      dup3\n      dup5\n      calldatacopy\n      0x00\n      swap3\n      add\n      swap2\n      swap1\n      swap2\n      mstore\n      pop\n        /* \"contracts/openzeppelin/MyNFT.sol\":10289:10302  _safeTransfer */\n      tag_167\n      swap3\n      pop\n      pop\n      pop\n        /* \"contracts/openzeppelin/MyNFT.sol\":10289:10327  _safeTransfer(from, to, tokenId, data) */\n      jump\t// in\n    tag_201:\n        /* \"contracts/openzeppelin/MyNFT.sol\":10135:10334  function safeTransferFrom(... */\n      pop\n      pop\n      pop\n      pop\n      pop\n      jump\t// out\n        /* \"contracts/openzeppelin/MyNFT.sol\":2330:2740  function tokenURI(uint256 tokenId)... */\n    tag_110:\n        /* \"contracts/openzeppelin/MyNFT.sol\":2848:2852  bool */\n      0x00\n        /* \"contracts/openzeppelin/MyNFT.sol\":2871:2886  owners[tokenId] */\n      dup2\n      dup2\n      mstore\n        /* \"contracts/openzeppelin/MyNFT.sol\":2871:2877  owners */\n      0x01\n        /* \"contracts/openzeppelin/MyNFT.sol\":2871:2886  owners[tokenId] */\n      0x20\n      mstore\n      0x40\n      swap1\n      keccak256\n      sload\n        /* \"contracts/openzeppelin/MyNFT.sol\":2443:2456  string memory */\n      0x60\n      swap1\n      sub(shl(0xa0, 0x01), 0x01)\n        /* \"contracts/openzeppelin/MyNFT.sol\":2871:2886  owners[tokenId] */\n      and\n        /* \"contracts/openzeppelin/MyNFT.sol\":2472:2582  require(... */\n      tag_205\n      jumpi\n      mload(0x40)\n      shl(0xe5, 0x461bcd)\n      dup2\n      mstore\n        /* \"#utility.yul\":12736:12738   */\n      0x20\n        /* \"contracts/openzeppelin/MyNFT.sol\":2472:2582  require(... */\n      0x04\n      dup3\n      add\n        /* \"#utility.yul\":12718:12739   */\n      mstore\n        /* \"#utility.yul\":12775:12777   */\n      0x2f\n        /* \"#utility.yul\":12755:12773   */\n      0x24\n      dup3\n      add\n        /* \"#utility.yul\":12748:12778   */\n      mstore\n        /* \"#utility.yul\":12814:12848   */\n      0x4552433732314d657461646174613a2055524920717565727920666f72206e6f\n        /* \"#utility.yul\":12794:12812   */\n      0x44\n      dup3\n      add\n        /* \"#utility.yul\":12787:12849   */\n      mstore\n      shl(0x89, 0x3732bc34b9ba32b73a103a37b5b2b7)\n        /* \"#utility.yul\":12865:12883   */\n      0x64\n      dup3\n      add\n        /* \"#utility.yul\":12858:12903   */\n      mstore\n        /* \"#utility.yul\":12920:12939   */\n      0x84\n      add\n        /* \"contracts/openzeppelin/MyNFT.sol\":2472:2582  require(... */\n      tag_143\n        /* \"#utility.yul\":12534:12945   */\n      jump\n        /* \"contracts/openzeppelin/MyNFT.sol\":2472:2582  require(... */\n    tag_205:\n        /* \"contracts/openzeppelin/MyNFT.sol\":2637:2638  0 */\n      0x00\n        /* \"contracts/openzeppelin/MyNFT.sol\":2618:2626  _baseURI */\n      0x07\n        /* \"contracts/openzeppelin/MyNFT.sol\":2612:2634  bytes(_baseURI).length */\n      dup1\n      sload\n      tag_208\n      swap1\n      tag_136\n      jump\t// in\n    tag_208:\n      swap1\n      pop\n        /* \"contracts/openzeppelin/MyNFT.sol\":2612:2638  bytes(_baseURI).length > 0 */\n      gt\n        /* \"contracts/openzeppelin/MyNFT.sol\":2612:2733  bytes(_baseURI).length > 0... */\n      tag_209\n      jumpi\n      mload(0x40)\n      dup1\n      0x20\n      add\n      0x40\n      mstore\n      dup1\n      0x00\n      dup2\n      mstore\n      pop\n      jump(tag_133)\n    tag_209:\n        /* \"contracts/openzeppelin/MyNFT.sol\":2681:2689  _baseURI */\n      0x07\n        /* \"contracts/openzeppelin/MyNFT.sol\":2691:2701  _tokenURIs */\n      0x08\n        /* \"contracts/openzeppelin/MyNFT.sol\":2691:2710  _tokenURIs[tokenId] */\n      0x00\n        /* \"contracts/openzeppelin/MyNFT.sol\":2702:2709  tokenId */\n      dup5\n        /* \"contracts/openzeppelin/MyNFT.sol\":2691:2710  _tokenURIs[tokenId] */\n      dup2\n      mstore\n      0x20\n      add\n      swap1\n      dup2\n      mstore\n      0x20\n      add\n      0x00\n      keccak256\n        /* \"contracts/openzeppelin/MyNFT.sol\":2664:2711  abi.encodePacked(_baseURI, _tokenURIs[tokenId]) */\n      add(0x20, mload(0x40))\n      tag_211\n      swap3\n      swap2\n      swap1\n      tag_212\n      jump\t// in\n    tag_211:\n      mload(0x40)\n      0x20\n      dup2\n      dup4\n      sub\n      sub\n      dup2\n      mstore\n      swap1\n      0x40\n      mstore\n        /* \"contracts/openzeppelin/MyNFT.sol\":2593:2733  return... */\n      swap3\n        /* \"contracts/openzeppelin/MyNFT.sol\":2330:2740  function tokenURI(uint256 tokenId)... */\n      swap2\n      pop\n      pop\n      jump\t// out\n        /* \"contracts/openzeppelin/MyNFT.sol\":10804:10966  function mint(address to, string memory _tokenURI)... */\n    tag_115:\n        /* \"contracts/openzeppelin/MyNFT.sol\":10887:10894  uint256 */\n      0x00\n        /* \"contracts/openzeppelin/MyNFT.sol\":10939:10959  _mint(to, _tokenURI) */\n      tag_214\n        /* \"contracts/openzeppelin/MyNFT.sol\":10945:10947  to */\n      dup4\n        /* \"contracts/openzeppelin/MyNFT.sol\":10949:10958  _tokenURI */\n      dup4\n        /* \"contracts/openzeppelin/MyNFT.sol\":10939:10944  _mint */\n      tag_215\n        /* \"contracts/openzeppelin/MyNFT.sol\":10939:10959  _mint(to, _tokenURI) */\n      jump\t// in\n    tag_214:\n        /* \"contracts/openzeppelin/MyNFT.sol\":10932:10959  return _mint(to, _tokenURI) */\n      swap4\n        /* \"contracts/openzeppelin/MyNFT.sol\":10804:10966  function mint(address to, string memory _tokenURI)... */\n      swap3\n      pop\n      pop\n      pop\n      jump\t// out\n        /* \"contracts/openzeppelin/MyNFT.sol\":11013:11167  function safeMint(address to, string calldata _tokenURI)... */\n    tag_120:\n        /* \"contracts/openzeppelin/MyNFT.sol\":11102:11109  uint256 */\n      0x00\n        /* \"contracts/openzeppelin/MyNFT.sol\":11132:11160  _safeMint(to, _tokenURI, \"\") */\n      tag_217\n        /* \"contracts/openzeppelin/MyNFT.sol\":11142:11144  to */\n      dup5\n        /* \"contracts/openzeppelin/MyNFT.sol\":11146:11155  _tokenURI */\n      dup5\n      dup5\n        /* \"contracts/openzeppelin/MyNFT.sol\":11132:11160  _safeMint(to, _tokenURI, \"\") */\n      dup1\n      dup1\n      0x1f\n      add\n      0x20\n      dup1\n      swap2\n      div\n      mul\n      0x20\n      add\n      mload(0x40)\n      swap1\n      dup2\n      add\n      0x40\n      mstore\n      dup1\n      swap4\n      swap3\n      swap2\n      swap1\n      dup2\n      dup2\n      mstore\n      0x20\n      add\n      dup4\n      dup4\n      dup1\n      dup3\n      dup5\n      calldatacopy\n      0x00\n      swap3\n      add\n      dup3\n      swap1\n      mstore\n      pop\n      0x40\n      dup1\n      mload\n      0x20\n      dup2\n      add\n      swap1\n      swap2\n      mstore\n      swap1\n      dup2\n      mstore\n      swap3\n      pop\n        /* \"contracts/openzeppelin/MyNFT.sol\":11132:11141  _safeMint */\n      tag_218\n      swap2\n      pop\n      pop\n        /* \"contracts/openzeppelin/MyNFT.sol\":11132:11160  _safeMint(to, _tokenURI, \"\") */\n      jump\t// in\n    tag_217:\n        /* \"contracts/openzeppelin/MyNFT.sol\":11125:11160  return _safeMint(to, _tokenURI, \"\") */\n      swap5\n        /* \"contracts/openzeppelin/MyNFT.sol\":11013:11167  function safeMint(address to, string calldata _tokenURI)... */\n      swap4\n      pop\n      pop\n      pop\n      pop\n      jump\t// out\n        /* \"contracts/openzeppelin/MyNFT.sol\":6115:6632  function isApprovedForAll(address _owner, address operator)... */\n    tag_124:\n        /* \"contracts/openzeppelin/MyNFT.sol\":6237:6241  bool */\n      0x00\n      sub(shl(0xa0, 0x01), 0x01)\n        /* \"contracts/openzeppelin/MyNFT.sol\":6320:6340  _owner != address(0) */\n      dup4\n      and\n        /* \"contracts/openzeppelin/MyNFT.sol\":6299:6410  require(... */\n      tag_220\n      jumpi\n      mload(0x40)\n      shl(0xe5, 0x461bcd)\n      dup2\n      mstore\n      0x04\n      add\n      tag_143\n      swap1\n      tag_222\n      jump\t// in\n    tag_220:\n      sub(shl(0xa0, 0x01), 0x01)\n        /* \"contracts/openzeppelin/MyNFT.sol\":6481:6503  operator != address(0) */\n      dup3\n      and\n        /* \"contracts/openzeppelin/MyNFT.sol\":6460:6573  require(... */\n      tag_223\n      jumpi\n      mload(0x40)\n      shl(0xe5, 0x461bcd)\n      dup2\n      mstore\n      0x04\n      add\n      tag_143\n      swap1\n      tag_222\n      jump\t// in\n    tag_223:\n      pop\n      sub(shl(0xa0, 0x01), 0x01)\n        /* \"contracts/openzeppelin/MyNFT.sol\":6590:6615  operatorApprovals[_owner] */\n      swap2\n      dup3\n      and\n      0x00\n      swap1\n      dup2\n      mstore\n        /* \"contracts/openzeppelin/MyNFT.sol\":6590:6607  operatorApprovals */\n      0x03\n        /* \"contracts/openzeppelin/MyNFT.sol\":6590:6615  operatorApprovals[_owner] */\n      0x20\n      swap1\n      dup2\n      mstore\n      0x40\n      dup1\n      dup4\n      keccak256\n        /* \"contracts/openzeppelin/MyNFT.sol\":6590:6625  operatorApprovals[_owner][operator] */\n      swap4\n      swap1\n      swap5\n      and\n      dup3\n      mstore\n      swap2\n      swap1\n      swap2\n      mstore\n      keccak256\n      sload\n      0xff\n      and\n      swap1\n        /* \"contracts/openzeppelin/MyNFT.sol\":6115:6632  function isApprovedForAll(address _owner, address operator)... */\n      jump\t// out\n        /* \"contracts/openzeppelin/MyNFT.sol\":11214:11401  function safeMint(... */\n    tag_129:\n        /* \"contracts/openzeppelin/MyNFT.sol\":11338:11345  uint256 */\n      0x00\n        /* \"contracts/openzeppelin/MyNFT.sol\":11364:11394  _safeMint(to, _tokenURI, data) */\n      tag_226\n        /* \"contracts/openzeppelin/MyNFT.sol\":11374:11376  to */\n      dup7\n        /* \"contracts/openzeppelin/MyNFT.sol\":11378:11387  _tokenURI */\n      dup7\n      dup7\n        /* \"contracts/openzeppelin/MyNFT.sol\":11364:11394  _safeMint(to, _tokenURI, data) */\n      dup1\n      dup1\n      0x1f\n      add\n      0x20\n      dup1\n      swap2\n      div\n      mul\n      0x20\n      add\n      mload(0x40)\n      swap1\n      dup2\n      add\n      0x40\n      mstore\n      dup1\n      swap4\n      swap3\n      swap2\n      swap1\n      dup2\n      dup2\n      mstore\n      0x20\n      add\n      dup4\n      dup4\n      dup1\n      dup3\n      dup5\n      calldatacopy\n      0x00\n      swap3\n      add\n      swap2\n      swap1\n      swap2\n      mstore\n      pop\n      pop\n      0x40\n      dup1\n      mload\n      0x20\n      0x1f\n      dup11\n      add\n      dup2\n      swap1\n      div\n      dup2\n      mul\n      dup3\n      add\n      dup2\n      add\n      swap1\n      swap3\n      mstore\n      dup9\n      dup2\n      mstore\n      swap3\n      pop\n        /* \"contracts/openzeppelin/MyNFT.sol\":11389:11393  data */\n      dup9\n      swap2\n      pop\n      dup8\n      swap1\n      dup2\n      swap1\n        /* \"contracts/openzeppelin/MyNFT.sol\":11364:11394  _safeMint(to, _tokenURI, data) */\n      dup5\n      add\n        /* \"contracts/openzeppelin/MyNFT.sol\":11389:11393  data */\n      dup4\n      dup3\n      dup1\n      dup3\n        /* \"contracts/openzeppelin/MyNFT.sol\":11364:11394  _safeMint(to, _tokenURI, data) */\n      dup5\n      calldatacopy\n      0x00\n      swap3\n      add\n      swap2\n      swap1\n      swap2\n      mstore\n      pop\n        /* \"contracts/openzeppelin/MyNFT.sol\":11364:11373  _safeMint */\n      tag_218\n      swap3\n      pop\n      pop\n      pop\n        /* \"contracts/openzeppelin/MyNFT.sol\":11364:11394  _safeMint(to, _tokenURI, data) */\n      jump\t// in\n    tag_226:\n        /* \"contracts/openzeppelin/MyNFT.sol\":11357:11394  return _safeMint(to, _tokenURI, data) */\n      swap7\n        /* \"contracts/openzeppelin/MyNFT.sol\":11214:11401  function safeMint(... */\n      swap6\n      pop\n      pop\n      pop\n      pop\n      pop\n      pop\n      jump\t// out\n        /* \"contracts/openzeppelin/MyNFT.sol\":6836:7989  function _transfer(... */\n    tag_164:\n        /* \"contracts/openzeppelin/MyNFT.sol\":6947:6965  address tokenOwner */\n      0x00\n        /* \"contracts/openzeppelin/MyNFT.sol\":6968:6983  owners[tokenId] */\n      dup2\n      dup2\n      mstore\n        /* \"contracts/openzeppelin/MyNFT.sol\":6968:6974  owners */\n      0x01\n        /* \"contracts/openzeppelin/MyNFT.sol\":6968:6983  owners[tokenId] */\n      0x20\n      mstore\n      0x40\n      swap1\n      keccak256\n      sload\n      sub(shl(0xa0, 0x01), 0x01)\n      swap1\n      dup2\n      and\n      swap1\n        /* \"contracts/openzeppelin/MyNFT.sol\":7072:7090  tokenOwner == from */\n      dup5\n      and\n      dup2\n      eq\n        /* \"contracts/openzeppelin/MyNFT.sol\":7051:7157  require(... */\n      tag_228\n      jumpi\n      mload(0x40)\n      shl(0xe5, 0x461bcd)\n      dup2\n      mstore\n        /* \"#utility.yul\":14529:14531   */\n      0x20\n        /* \"contracts/openzeppelin/MyNFT.sol\":7051:7157  require(... */\n      0x04\n      dup3\n      add\n        /* \"#utility.yul\":14511:14532   */\n      mstore\n        /* \"#utility.yul\":14568:14570   */\n      0x29\n        /* \"#utility.yul\":14548:14566   */\n      0x24\n      dup3\n      add\n        /* \"#utility.yul\":14541:14571   */\n      mstore\n        /* \"#utility.yul\":14607:14641   */\n      0x4552433732313a207472616e73666572206f6620746f6b656e20746861742069\n        /* \"#utility.yul\":14587:14605   */\n      0x44\n      dup3\n      add\n        /* \"#utility.yul\":14580:14642   */\n      mstore\n      shl(0xb9, 0x39903737ba1037bbb7)\n        /* \"#utility.yul\":14658:14676   */\n      0x64\n      dup3\n      add\n        /* \"#utility.yul\":14651:14690   */\n      mstore\n        /* \"#utility.yul\":14707:14726   */\n      0x84\n      add\n        /* \"contracts/openzeppelin/MyNFT.sol\":7051:7157  require(... */\n      tag_143\n        /* \"#utility.yul\":14327:14732   */\n      jump\n        /* \"contracts/openzeppelin/MyNFT.sol\":7051:7157  require(... */\n    tag_228:\n      sub(shl(0xa0, 0x01), 0x01)\n        /* \"contracts/openzeppelin/MyNFT.sol\":7215:7231  to != address(0) */\n      dup4\n      and\n        /* \"contracts/openzeppelin/MyNFT.sol\":7207:7272  require(to != address(0), \"ERC721: transfer to the zero address\") */\n      tag_231\n      jumpi\n      mload(0x40)\n      shl(0xe5, 0x461bcd)\n      dup2\n      mstore\n        /* \"#utility.yul\":14939:14941   */\n      0x20\n        /* \"contracts/openzeppelin/MyNFT.sol\":7207:7272  require(to != address(0), \"ERC721: transfer to the zero address\") */\n      0x04\n      dup3\n      add\n        /* \"#utility.yul\":14921:14942   */\n      mstore\n        /* \"#utility.yul\":14978:14980   */\n      0x24\n        /* \"#utility.yul\":14958:14976   */\n      dup1\n      dup3\n      add\n        /* \"#utility.yul\":14951:14981   */\n      mstore\n        /* \"#utility.yul\":15017:15051   */\n      0x4552433732313a207472616e7366657220746f20746865207a65726f20616464\n        /* \"#utility.yul\":14997:15015   */\n      0x44\n      dup3\n      add\n        /* \"#utility.yul\":14990:15052   */\n      mstore\n      shl(0xe0, 0x72657373)\n        /* \"#utility.yul\":15068:15086   */\n      0x64\n      dup3\n      add\n        /* \"#utility.yul\":15061:15095   */\n      mstore\n        /* \"#utility.yul\":15112:15131   */\n      0x84\n      add\n        /* \"contracts/openzeppelin/MyNFT.sol\":7207:7272  require(to != address(0), \"ERC721: transfer to the zero address\") */\n      tag_143\n        /* \"#utility.yul\":14737:15137   */\n      jump\n        /* \"contracts/openzeppelin/MyNFT.sol\":7207:7272  require(to != address(0), \"ERC721: transfer to the zero address\") */\n    tag_231:\n      sub(shl(0xa0, 0x01), 0x01)\n        /* \"contracts/openzeppelin/MyNFT.sol\":7478:7502  tokenOwner == msg.sender */\n      dup2\n      and\n        /* \"contracts/openzeppelin/MyNFT.sol\":7492:7502  msg.sender */\n      caller\n        /* \"contracts/openzeppelin/MyNFT.sol\":7478:7502  tokenOwner == msg.sender */\n      eq\n      dup1\n        /* \"contracts/openzeppelin/MyNFT.sol\":7478:7562  tokenOwner == msg.sender ||... */\n      tag_235\n      jumpi\n      pop\n        /* \"contracts/openzeppelin/MyNFT.sol\":7522:7562  isApprovedForAll(tokenOwner, msg.sender) */\n      tag_235\n        /* \"contracts/openzeppelin/MyNFT.sol\":7539:7549  tokenOwner */\n      dup2\n        /* \"contracts/openzeppelin/MyNFT.sol\":7551:7561  msg.sender */\n      caller\n        /* \"contracts/openzeppelin/MyNFT.sol\":7522:7538  isApprovedForAll */\n      tag_124\n        /* \"contracts/openzeppelin/MyNFT.sol\":7522:7562  isApprovedForAll(tokenOwner, msg.sender) */\n      jump\t// in\n    tag_235:\n        /* \"contracts/openzeppelin/MyNFT.sol\":7478:7619  tokenOwner == msg.sender ||... */\n      dup1\n      tag_236\n      jumpi\n      pop\n        /* \"contracts/openzeppelin/MyNFT.sol\":7582:7605  tokenApprovals[tokenId] */\n      0x00\n      dup3\n      dup2\n      mstore\n        /* \"contracts/openzeppelin/MyNFT.sol\":7582:7596  tokenApprovals */\n      0x02\n        /* \"contracts/openzeppelin/MyNFT.sol\":7582:7605  tokenApprovals[tokenId] */\n      0x20\n      mstore\n      0x40\n      swap1\n      keccak256\n      sload\n      sub(shl(0xa0, 0x01), 0x01)\n      and\n        /* \"contracts/openzeppelin/MyNFT.sol\":7609:7619  msg.sender */\n      caller\n        /* \"contracts/openzeppelin/MyNFT.sol\":7582:7619  tokenApprovals[tokenId] == msg.sender */\n      eq\n        /* \"contracts/openzeppelin/MyNFT.sol\":7478:7619  tokenOwner == msg.sender ||... */\n    tag_236:\n        /* \"contracts/openzeppelin/MyNFT.sol\":7457:7702  require(... */\n      tag_237\n      jumpi\n      mload(0x40)\n      shl(0xe5, 0x461bcd)\n      dup2\n      mstore\n        /* \"#utility.yul\":15344:15346   */\n      0x20\n        /* \"contracts/openzeppelin/MyNFT.sol\":7457:7702  require(... */\n      0x04\n      dup3\n      add\n        /* \"#utility.yul\":15326:15347   */\n      mstore\n        /* \"#utility.yul\":15383:15385   */\n      0x39\n        /* \"#utility.yul\":15363:15381   */\n      0x24\n      dup3\n      add\n        /* \"#utility.yul\":15356:15386   */\n      mstore\n        /* \"#utility.yul\":15422:15456   */\n      0x4552433732313a207472616e736665722063616c6c6572206973206e6f74206f\n        /* \"#utility.yul\":15402:15420   */\n      0x44\n      dup3\n      add\n        /* \"#utility.yul\":15395:15457   */\n      mstore\n        /* \"#utility.yul\":15493:15520   */\n      0x776e6572206e6f7220617070726f76656420666f7220616c6c00000000000000\n        /* \"#utility.yul\":15473:15491   */\n      0x64\n      dup3\n      add\n        /* \"#utility.yul\":15466:15521   */\n      mstore\n        /* \"#utility.yul\":15538:15557   */\n      0x84\n      add\n        /* \"contracts/openzeppelin/MyNFT.sol\":7457:7702  require(... */\n      tag_143\n        /* \"#utility.yul\":15142:15563   */\n      jump\n        /* \"contracts/openzeppelin/MyNFT.sol\":7457:7702  require(... */\n    tag_237:\n        /* \"contracts/openzeppelin/MyNFT.sol\":7741:7764  _clearApproval(tokenId) */\n      tag_240\n        /* \"contracts/openzeppelin/MyNFT.sol\":7756:7763  tokenId */\n      dup3\n        /* \"contracts/openzeppelin/MyNFT.sol\":7741:7755  _clearApproval */\n      tag_241\n        /* \"contracts/openzeppelin/MyNFT.sol\":7741:7764  _clearApproval(tokenId) */\n      jump\t// in\n    tag_240:\n        /* \"contracts/openzeppelin/MyNFT.sol\":7818:7849  _removeTokenFrom(from, tokenId) */\n      tag_242\n        /* \"contracts/openzeppelin/MyNFT.sol\":7835:7839  from */\n      dup5\n        /* \"contracts/openzeppelin/MyNFT.sol\":7841:7848  tokenId */\n      dup4\n        /* \"contracts/openzeppelin/MyNFT.sol\":7818:7834  _removeTokenFrom */\n      tag_243\n        /* \"contracts/openzeppelin/MyNFT.sol\":7818:7849  _removeTokenFrom(from, tokenId) */\n      jump\t// in\n    tag_242:\n        /* \"contracts/openzeppelin/MyNFT.sol\":7881:7905  _addTokenTo(to, tokenId) */\n      tag_244\n        /* \"contracts/openzeppelin/MyNFT.sol\":7893:7895  to */\n      dup4\n        /* \"contracts/openzeppelin/MyNFT.sol\":7897:7904  tokenId */\n      dup4\n        /* \"contracts/openzeppelin/MyNFT.sol\":7881:7892  _addTokenTo */\n      tag_245\n        /* \"contracts/openzeppelin/MyNFT.sol\":7881:7905  _addTokenTo(to, tokenId) */\n      jump\t// in\n    tag_244:\n        /* \"contracts/openzeppelin/MyNFT.sol\":7974:7981  tokenId */\n      dup2\n        /* \"contracts/openzeppelin/MyNFT.sol\":7970:7972  to */\n      dup4\n      sub(shl(0xa0, 0x01), 0x01)\n        /* \"contracts/openzeppelin/MyNFT.sol\":7955:7982  Transfer(from, to, tokenId) */\n      and\n        /* \"contracts/openzeppelin/MyNFT.sol\":7964:7968  from */\n      dup6\n      sub(shl(0xa0, 0x01), 0x01)\n        /* \"contracts/openzeppelin/MyNFT.sol\":7955:7982  Transfer(from, to, tokenId) */\n      and\n      0xddf252ad1be2c89b69c2b068fc378daa952ba7f163c4a11628f55a4df523b3ef\n      mload(0x40)\n      mload(0x40)\n      dup1\n      swap2\n      sub\n      swap1\n      log4\n        /* \"contracts/openzeppelin/MyNFT.sol\":6937:7989  {... */\n      pop\n        /* \"contracts/openzeppelin/MyNFT.sol\":6836:7989  function _transfer(... */\n      pop\n      pop\n      pop\n      jump\t// out\n        /* \"contracts/openzeppelin/MyNFT.sol\":10384:10780  function _safeTransfer(... */\n    tag_167:\n        /* \"contracts/openzeppelin/MyNFT.sol\":10554:10582  _transfer(from, to, tokenId) */\n      tag_247\n        /* \"contracts/openzeppelin/MyNFT.sol\":10564:10568  from */\n      dup5\n        /* \"contracts/openzeppelin/MyNFT.sol\":10570:10572  to */\n      dup5\n        /* \"contracts/openzeppelin/MyNFT.sol\":10574:10581  tokenId */\n      dup5\n        /* \"contracts/openzeppelin/MyNFT.sol\":10554:10563  _transfer */\n      tag_164\n        /* \"contracts/openzeppelin/MyNFT.sol\":10554:10582  _transfer(from, to, tokenId) */\n      jump\t// in\n    tag_247:\n        /* \"contracts/openzeppelin/MyNFT.sol\":10659:10697  _checkOnERC721Received(from, to, data) */\n      tag_248\n        /* \"contracts/openzeppelin/MyNFT.sol\":10682:10686  from */\n      dup5\n        /* \"contracts/openzeppelin/MyNFT.sol\":10688:10690  to */\n      dup5\n        /* \"contracts/openzeppelin/MyNFT.sol\":10692:10696  data */\n      dup4\n        /* \"contracts/openzeppelin/MyNFT.sol\":10659:10681  _checkOnERC721Received */\n      tag_249\n        /* \"contracts/openzeppelin/MyNFT.sol\":10659:10697  _checkOnERC721Received(from, to, data) */\n      jump\t// in\n    tag_248:\n        /* \"contracts/openzeppelin/MyNFT.sol\":10638:10773  require(... */\n      tag_250\n      jumpi\n      mload(0x40)\n      shl(0xe5, 0x461bcd)\n      dup2\n      mstore\n      0x04\n      add\n      tag_143\n      swap1\n      tag_252\n      jump\t// in\n    tag_250:\n        /* \"contracts/openzeppelin/MyNFT.sol\":10384:10780  function _safeTransfer(... */\n      pop\n      pop\n      pop\n      pop\n      jump\t// out\n        /* \"contracts/openzeppelin/MyNFT.sol\":3441:3752  function _ownerOf(uint256 tokenId) internal view returns (address) {... */\n    tag_170:\n        /* \"contracts/openzeppelin/MyNFT.sol\":3499:3506  address */\n      0x00\n        /* \"contracts/openzeppelin/MyNFT.sol\":3539:3554  owners[tokenId] */\n      dup2\n      dup2\n      mstore\n        /* \"contracts/openzeppelin/MyNFT.sol\":3539:3545  owners */\n      0x01\n        /* \"contracts/openzeppelin/MyNFT.sol\":3539:3554  owners[tokenId] */\n      0x20\n      mstore\n      0x40\n      dup2\n      keccak256\n      sload\n      sub(shl(0xa0, 0x01), 0x01)\n      and\n      dup1\n        /* \"contracts/openzeppelin/MyNFT.sol\":3606:3718  require(... */\n      tag_133\n      jumpi\n      mload(0x40)\n      shl(0xe5, 0x461bcd)\n      dup2\n      mstore\n        /* \"#utility.yul\":16189:16191   */\n      0x20\n        /* \"contracts/openzeppelin/MyNFT.sol\":3606:3718  require(... */\n      0x04\n      dup3\n      add\n        /* \"#utility.yul\":16171:16192   */\n      mstore\n        /* \"#utility.yul\":16228:16230   */\n      0x29\n        /* \"#utility.yul\":16208:16226   */\n      0x24\n      dup3\n      add\n        /* \"#utility.yul\":16201:16231   */\n      mstore\n        /* \"#utility.yul\":16267:16301   */\n      0x4552433732313a206f776e657220717565727920666f72206e6f6e6578697374\n        /* \"#utility.yul\":16247:16265   */\n      0x44\n      dup3\n      add\n        /* \"#utility.yul\":16240:16302   */\n      mstore\n      shl(0xb9, 0x32b73a103a37b5b2b7)\n        /* \"#utility.yul\":16318:16336   */\n      0x64\n      dup3\n      add\n        /* \"#utility.yul\":16311:16350   */\n      mstore\n        /* \"#utility.yul\":16367:16386   */\n      0x84\n      add\n        /* \"contracts/openzeppelin/MyNFT.sol\":3606:3718  require(... */\n      tag_143\n        /* \"#utility.yul\":15987:16392   */\n      jump\n        /* \"contracts/openzeppelin/MyNFT.sol\":12970:13105  function _burn(uint256 tokenId) internal {... */\n    tag_175:\n        /* \"contracts/openzeppelin/MyNFT.sol\":13049:13098  _transfer(_ownerOf(tokenId), address(0), tokenId) */\n      tag_174\n        /* \"contracts/openzeppelin/MyNFT.sol\":13059:13076  _ownerOf(tokenId) */\n      tag_259\n        /* \"contracts/openzeppelin/MyNFT.sol\":13068:13075  tokenId */\n      dup3\n        /* \"contracts/openzeppelin/MyNFT.sol\":13059:13067  _ownerOf */\n      tag_170\n        /* \"contracts/openzeppelin/MyNFT.sol\":13059:13076  _ownerOf(tokenId) */\n      jump\t// in\n    tag_259:\n        /* \"contracts/openzeppelin/MyNFT.sol\":13086:13087  0 */\n      0x00\n        /* \"contracts/openzeppelin/MyNFT.sol\":13090:13097  tokenId */\n      dup4\n        /* \"contracts/openzeppelin/MyNFT.sol\":13049:13058  _transfer */\n      tag_164\n        /* \"contracts/openzeppelin/MyNFT.sol\":13049:13098  _transfer(_ownerOf(tokenId), address(0), tokenId) */\n      jump\t// in\n        /* \"contracts/openzeppelin/MyNFT.sol\":11439:12003  function _mint(address to, string memory _tokenURI)... */\n    tag_215:\n        /* \"contracts/openzeppelin/MyNFT.sol\":11525:11532  uint256 */\n      0x00\n      sub(shl(0xa0, 0x01), 0x01)\n        /* \"contracts/openzeppelin/MyNFT.sol\":11596:11612  to != address(0) */\n      dup4\n      and\n        /* \"contracts/openzeppelin/MyNFT.sol\":11588:11649  require(to != address(0), \"ERC721: mint to the zero address\") */\n      tag_262\n      jumpi\n      mload(0x40)\n      shl(0xe5, 0x461bcd)\n      dup2\n      mstore\n        /* \"#utility.yul\":16599:16601   */\n      0x20\n        /* \"contracts/openzeppelin/MyNFT.sol\":11588:11649  require(to != address(0), \"ERC721: mint to the zero address\") */\n      0x04\n      dup3\n      add\n        /* \"#utility.yul\":16581:16602   */\n      dup2\n      swap1\n      mstore\n        /* \"#utility.yul\":16618:16636   */\n      0x24\n      dup3\n      add\n        /* \"#utility.yul\":16611:16641   */\n      mstore\n        /* \"#utility.yul\":16677:16711   */\n      0x4552433732313a206d696e7420746f20746865207a65726f2061646472657373\n        /* \"#utility.yul\":16657:16675   */\n      0x44\n      dup3\n      add\n        /* \"#utility.yul\":16650:16712   */\n      mstore\n        /* \"#utility.yul\":16729:16747   */\n      0x64\n      add\n        /* \"contracts/openzeppelin/MyNFT.sol\":11588:11649  require(to != address(0), \"ERC721: mint to the zero address\") */\n      tag_143\n        /* \"#utility.yul\":16397:16753   */\n      jump\n        /* \"contracts/openzeppelin/MyNFT.sol\":11588:11649  require(to != address(0), \"ERC721: mint to the zero address\") */\n    tag_262:\n        /* \"contracts/openzeppelin/MyNFT.sol\":11706:11707  1 */\n      0x01\n        /* \"contracts/openzeppelin/MyNFT.sol\":11691:11702  totalSupply */\n      0x09\n      0x00\n        /* \"contracts/openzeppelin/MyNFT.sol\":11691:11707  totalSupply += 1 */\n      dup3\n      dup3\n      sload\n      tag_265\n      swap2\n      swap1\n      tag_266\n      jump\t// in\n    tag_265:\n      swap3\n      pop\n      pop\n      dup2\n      swap1\n      sstore\n      pop\n        /* \"contracts/openzeppelin/MyNFT.sol\":11746:11774  _addTokenTo(to, totalSupply) */\n      tag_267\n        /* \"contracts/openzeppelin/MyNFT.sol\":11758:11760  to */\n      dup4\n        /* \"contracts/openzeppelin/MyNFT.sol\":11762:11773  totalSupply */\n      sload(0x09)\n        /* \"contracts/openzeppelin/MyNFT.sol\":11746:11757  _addTokenTo */\n      tag_245\n        /* \"contracts/openzeppelin/MyNFT.sol\":11746:11774  _addTokenTo(to, totalSupply) */\n      jump\t// in\n    tag_267:\n        /* \"contracts/openzeppelin/MyNFT.sol\":11849:11860  totalSupply */\n      sload(0x09)\n        /* \"contracts/openzeppelin/MyNFT.sol\":11824:11861  Transfer(address(0), to, totalSupply) */\n      mload(0x40)\n      sub(shl(0xa0, 0x01), 0x01)\n      dup6\n      and\n      swap1\n        /* \"contracts/openzeppelin/MyNFT.sol\":11841:11842  0 */\n      0x00\n      swap1\n        /* \"contracts/openzeppelin/MyNFT.sol\":11824:11861  Transfer(address(0), to, totalSupply) */\n      0xddf252ad1be2c89b69c2b068fc378daa952ba7f163c4a11628f55a4df523b3ef\n      swap1\n        /* \"contracts/openzeppelin/MyNFT.sol\":11841:11842  0 */\n      dup3\n      swap1\n        /* \"contracts/openzeppelin/MyNFT.sol\":11824:11861  Transfer(address(0), to, totalSupply) */\n      log4\n        /* \"contracts/openzeppelin/MyNFT.sol\":11900:11936  _setTokenURI(totalSupply, _tokenURI) */\n      tag_268\n        /* \"contracts/openzeppelin/MyNFT.sol\":11913:11924  totalSupply */\n      sload(0x09)\n        /* \"contracts/openzeppelin/MyNFT.sol\":11926:11935  _tokenURI */\n      dup4\n        /* \"contracts/openzeppelin/MyNFT.sol\":11900:11912  _setTokenURI */\n      tag_269\n        /* \"contracts/openzeppelin/MyNFT.sol\":11900:11936  _setTokenURI(totalSupply, _tokenURI) */\n      jump\t// in\n    tag_268:\n      pop\n        /* \"contracts/openzeppelin/MyNFT.sol\":11985:11996  totalSupply */\n      sload(0x09)\n        /* \"contracts/openzeppelin/MyNFT.sol\":11439:12003  function _mint(address to, string memory _tokenURI)... */\n      swap3\n      swap2\n      pop\n      pop\n      jump\t// out\n        /* \"contracts/openzeppelin/MyNFT.sol\":12239:12642  function _safeMint(... */\n    tag_218:\n        /* \"contracts/openzeppelin/MyNFT.sol\":12363:12370  uint256 */\n      0x00\n        /* \"contracts/openzeppelin/MyNFT.sol\":12449:12494  _checkOnERC721Received(address(0), to, _data) */\n      tag_271\n        /* \"contracts/openzeppelin/MyNFT.sol\":12480:12481  0 */\n      0x00\n        /* \"contracts/openzeppelin/MyNFT.sol\":12484:12486  to */\n      dup6\n        /* \"contracts/openzeppelin/MyNFT.sol\":12488:12493  _data */\n      dup5\n        /* \"contracts/openzeppelin/MyNFT.sol\":12449:12471  _checkOnERC721Received */\n      tag_249\n        /* \"contracts/openzeppelin/MyNFT.sol\":12449:12494  _checkOnERC721Received(address(0), to, _data) */\n      jump\t// in\n    tag_271:\n        /* \"contracts/openzeppelin/MyNFT.sol\":12428:12570  require(... */\n      tag_272\n      jumpi\n      mload(0x40)\n      shl(0xe5, 0x461bcd)\n      dup2\n      mstore\n      0x04\n      add\n      tag_143\n      swap1\n      tag_252\n      jump\t// in\n    tag_272:\n        /* \"contracts/openzeppelin/MyNFT.sol\":12615:12635  _mint(to, _tokenURI) */\n      tag_217\n        /* \"contracts/openzeppelin/MyNFT.sol\":12621:12623  to */\n      dup5\n        /* \"contracts/openzeppelin/MyNFT.sol\":12625:12634  _tokenURI */\n      dup5\n        /* \"contracts/openzeppelin/MyNFT.sol\":12615:12620  _mint */\n      tag_215\n        /* \"contracts/openzeppelin/MyNFT.sol\":12615:12635  _mint(to, _tokenURI) */\n      jump\t// in\n        /* \"contracts/openzeppelin/MyNFT.sol\":8020:8213  function _clearApproval(uint256 tokenId) internal {... */\n    tag_241:\n        /* \"contracts/openzeppelin/MyNFT.sol\":8148:8149  0 */\n      0x00\n        /* \"contracts/openzeppelin/MyNFT.sol\":8113:8136  tokenApprovals[tokenId] */\n      dup2\n      dup2\n      mstore\n        /* \"contracts/openzeppelin/MyNFT.sol\":8113:8127  tokenApprovals */\n      0x02\n        /* \"contracts/openzeppelin/MyNFT.sol\":8113:8136  tokenApprovals[tokenId] */\n      0x20\n      mstore\n      0x40\n      swap1\n      keccak256\n      sload\n      sub(shl(0xa0, 0x01), 0x01)\n      and\n        /* \"contracts/openzeppelin/MyNFT.sol\":8113:8150  tokenApprovals[tokenId] != address(0) */\n      iszero\n        /* \"contracts/openzeppelin/MyNFT.sol\":8109:8207  if (tokenApprovals[tokenId] != address(0)) {... */\n      tag_174\n      jumpi\n        /* \"contracts/openzeppelin/MyNFT.sol\":8173:8196  tokenApprovals[tokenId] */\n      0x00\n      swap1\n      dup2\n      mstore\n        /* \"contracts/openzeppelin/MyNFT.sol\":8173:8187  tokenApprovals */\n      0x02\n        /* \"contracts/openzeppelin/MyNFT.sol\":8173:8196  tokenApprovals[tokenId] */\n      0x20\n      mstore\n      0x40\n      swap1\n      keccak256\n        /* \"contracts/openzeppelin/MyNFT.sol\":8166:8196  delete tokenApprovals[tokenId] */\n      dup1\n      sload\n      not(sub(shl(0xa0, 0x01), 0x01))\n      and\n      swap1\n      sstore\n        /* \"contracts/openzeppelin/MyNFT.sol\":8020:8213  function _clearApproval(uint256 tokenId) internal {... */\n      jump\t// out\n        /* \"contracts/openzeppelin/MyNFT.sol\":8259:8494  function _removeTokenFrom(address from, uint256 tokenId) internal {... */\n    tag_243:\n      sub(shl(0xa0, 0x01), 0x01)\n        /* \"contracts/openzeppelin/MyNFT.sol\":8379:8393  balances[from] */\n      dup3\n      and\n        /* \"contracts/openzeppelin/MyNFT.sol\":8379:8387  balances */\n      0x00\n        /* \"contracts/openzeppelin/MyNFT.sol\":8379:8393  balances[from] */\n      swap1\n      dup2\n      mstore\n      0x20\n      dup2\n      swap1\n      mstore\n      0x40\n      dup2\n      keccak256\n        /* \"contracts/openzeppelin/MyNFT.sol\":8379:8398  balances[from] -= 1 */\n      dup1\n      sload\n        /* \"contracts/openzeppelin/MyNFT.sol\":8397:8398  1 */\n      0x01\n      swap3\n        /* \"contracts/openzeppelin/MyNFT.sol\":8379:8387  balances */\n      swap1\n        /* \"contracts/openzeppelin/MyNFT.sol\":8379:8398  balances[from] -= 1 */\n      tag_278\n      swap1\n        /* \"contracts/openzeppelin/MyNFT.sol\":8397:8398  1 */\n      dup5\n      swap1\n        /* \"contracts/openzeppelin/MyNFT.sol\":8379:8398  balances[from] -= 1 */\n      tag_279\n      jump\t// in\n    tag_278:\n      swap1\n      swap2\n      sstore\n      pop\n      pop\n        /* \"contracts/openzeppelin/MyNFT.sol\":8472:8487  owners[tokenId] */\n      0x00\n      swap1\n      dup2\n      mstore\n        /* \"contracts/openzeppelin/MyNFT.sol\":8472:8478  owners */\n      0x01\n        /* \"contracts/openzeppelin/MyNFT.sol\":8472:8487  owners[tokenId] */\n      0x20\n      mstore\n      0x40\n      swap1\n      keccak256\n        /* \"contracts/openzeppelin/MyNFT.sol\":8465:8487  delete owners[tokenId] */\n      dup1\n      sload\n      not(sub(shl(0xa0, 0x01), 0x01))\n      and\n      swap1\n      sstore\n      pop\n        /* \"contracts/openzeppelin/MyNFT.sol\":8259:8494  function _removeTokenFrom(address from, uint256 tokenId) internal {... */\n      jump\t// out\n        /* \"contracts/openzeppelin/MyNFT.sol\":8518:8743  function _addTokenTo(address to, uint256 tokenId) internal {... */\n    tag_245:\n      sub(shl(0xa0, 0x01), 0x01)\n        /* \"contracts/openzeppelin/MyNFT.sol\":8631:8643  balances[to] */\n      dup3\n      and\n        /* \"contracts/openzeppelin/MyNFT.sol\":8631:8639  balances */\n      0x00\n        /* \"contracts/openzeppelin/MyNFT.sol\":8631:8643  balances[to] */\n      swap1\n      dup2\n      mstore\n      0x20\n      dup2\n      swap1\n      mstore\n      0x40\n      dup2\n      keccak256\n        /* \"contracts/openzeppelin/MyNFT.sol\":8631:8648  balances[to] += 1 */\n      dup1\n      sload\n        /* \"contracts/openzeppelin/MyNFT.sol\":8647:8648  1 */\n      0x01\n      swap3\n        /* \"contracts/openzeppelin/MyNFT.sol\":8631:8639  balances */\n      swap1\n        /* \"contracts/openzeppelin/MyNFT.sol\":8631:8648  balances[to] += 1 */\n      tag_281\n      swap1\n        /* \"contracts/openzeppelin/MyNFT.sol\":8647:8648  1 */\n      dup5\n      swap1\n        /* \"contracts/openzeppelin/MyNFT.sol\":8631:8648  balances[to] += 1 */\n      tag_266\n      jump\t// in\n    tag_281:\n      swap1\n      swap2\n      sstore\n      pop\n      pop\n        /* \"contracts/openzeppelin/MyNFT.sol\":8716:8731  owners[tokenId] */\n      0x00\n      swap1\n      dup2\n      mstore\n        /* \"contracts/openzeppelin/MyNFT.sol\":8716:8722  owners */\n      0x01\n        /* \"contracts/openzeppelin/MyNFT.sol\":8716:8731  owners[tokenId] */\n      0x20\n      mstore\n      0x40\n      swap1\n      keccak256\n        /* \"contracts/openzeppelin/MyNFT.sol\":8716:8736  owners[tokenId] = to */\n      dup1\n      sload\n      not(sub(shl(0xa0, 0x01), 0x01))\n      and\n      sub(shl(0xa0, 0x01), 0x01)\n      swap3\n      swap1\n      swap3\n      and\n      swap2\n      swap1\n      swap2\n      or\n      swap1\n      sstore\n        /* \"contracts/openzeppelin/MyNFT.sol\":8518:8743  function _addTokenTo(address to, uint256 tokenId) internal {... */\n      jump\t// out\n        /* \"contracts/openzeppelin/MyNFT.sol\":8791:9839  function _checkOnERC721Received(... */\n    tag_249:\n        /* \"contracts/openzeppelin/MyNFT.sol\":8917:8921  bool */\n      0x00\n        /* \"contracts/openzeppelin/MyNFT.sol\":9000:9002  to */\n      dup3\n      sub(shl(0xa0, 0x01), 0x01)\n        /* \"contracts/openzeppelin/MyNFT.sol\":9000:9014  to.code.length */\n      and\n      extcodesize\n        /* \"contracts/openzeppelin/MyNFT.sol\":9018:9019  0 */\n      0x00\n        /* \"contracts/openzeppelin/MyNFT.sol\":9000:9019  to.code.length == 0 */\n      sub\n        /* \"contracts/openzeppelin/MyNFT.sol\":8996:9057  if (to.code.length == 0) {... */\n      tag_283\n      jumpi\n      pop\n        /* \"contracts/openzeppelin/MyNFT.sol\":9042:9046  true */\n      0x01\n        /* \"contracts/openzeppelin/MyNFT.sol\":9035:9046  return true */\n      jump(tag_214)\n        /* \"contracts/openzeppelin/MyNFT.sol\":8996:9057  if (to.code.length == 0) {... */\n    tag_283:\n        /* \"contracts/openzeppelin/MyNFT.sol\":9243:9254  totalSupply */\n      sload(0x09)\n        /* \"contracts/openzeppelin/MyNFT.sol\":9139:9291  IERC721Receiver(to).onERC721Received(... */\n      mload(0x40)\n      shl(0xe1, 0x0a85bd01)\n      dup2\n      mstore\n      sub(shl(0xa0, 0x01), 0x01)\n        /* \"contracts/openzeppelin/MyNFT.sol\":9139:9175  IERC721Receiver(to).onERC721Received */\n      dup6\n      and\n      swap2\n      0x150b7a02\n      swap2\n        /* \"contracts/openzeppelin/MyNFT.sol\":9139:9291  IERC721Receiver(to).onERC721Received(... */\n      tag_284\n      swap2\n        /* \"contracts/openzeppelin/MyNFT.sol\":9193:9203  msg.sender */\n      caller\n      swap2\n        /* \"contracts/openzeppelin/MyNFT.sol\":9221:9225  from */\n      dup10\n      swap2\n        /* \"contracts/openzeppelin/MyNFT.sol\":9243:9254  totalSupply */\n      swap1\n        /* \"contracts/openzeppelin/MyNFT.sol\":9272:9277  _data */\n      dup9\n      swap1\n        /* \"contracts/openzeppelin/MyNFT.sol\":9139:9291  IERC721Receiver(to).onERC721Received(... */\n      0x04\n      add\n      tag_285\n      jump\t// in\n    tag_284:\n      0x20\n      mload(0x40)\n      dup1\n      dup4\n      sub\n      dup2\n      0x00\n      dup8\n      gas\n      call\n      swap3\n      pop\n      pop\n      pop\n      dup1\n      iszero\n      tag_286\n      jumpi\n      pop\n      0x40\n      dup1\n      mload\n      0x1f\n      returndatasize\n      swap1\n      dup2\n      add\n      not(0x1f)\n      and\n      dup3\n      add\n      swap1\n      swap3\n      mstore\n      tag_287\n      swap2\n      dup2\n      add\n      swap1\n      tag_288\n      jump\t// in\n    tag_287:\n      0x01\n    tag_286:\n        /* \"contracts/openzeppelin/MyNFT.sol\":9123:9833  try... */\n      tag_289\n      jumpi\n      returndatasize\n      dup1\n      dup1\n      iszero\n      tag_294\n      jumpi\n      mload(0x40)\n      swap2\n      pop\n      and(add(returndatasize, 0x3f), not(0x1f))\n      dup3\n      add\n      0x40\n      mstore\n      returndatasize\n      dup3\n      mstore\n      returndatasize\n      0x00\n      0x20\n      dup5\n      add\n      returndatacopy\n      jump(tag_293)\n    tag_294:\n      0x60\n      swap2\n      pop\n    tag_293:\n      pop\n        /* \"contracts/openzeppelin/MyNFT.sol\":9585:9591  reason */\n      dup1\n        /* \"contracts/openzeppelin/MyNFT.sol\":9585:9598  reason.length */\n      mload\n        /* \"contracts/openzeppelin/MyNFT.sol\":9602:9603  0 */\n      0x00\n        /* \"contracts/openzeppelin/MyNFT.sol\":9585:9603  reason.length == 0 */\n      sub\n        /* \"contracts/openzeppelin/MyNFT.sol\":9581:9823  if (reason.length == 0) {... */\n      tag_295\n      jumpi\n        /* \"contracts/openzeppelin/MyNFT.sol\":9623:9683  revert(\"ERC721: transfer to non ERC721Receiver implementer\") */\n      mload(0x40)\n      shl(0xe5, 0x461bcd)\n      dup2\n      mstore\n      0x04\n      add\n      tag_143\n      swap1\n      tag_252\n      jump\t// in\n        /* \"contracts/openzeppelin/MyNFT.sol\":9581:9823  if (reason.length == 0) {... */\n    tag_295:\n        /* \"contracts/openzeppelin/MyNFT.sol\":9783:9789  reason */\n      dup1\n        /* \"contracts/openzeppelin/MyNFT.sol\":9777:9790  mload(reason) */\n      mload\n        /* \"contracts/openzeppelin/MyNFT.sol\":9768:9774  reason */\n      dup2\n        /* \"contracts/openzeppelin/MyNFT.sol\":9764:9766  32 */\n      0x20\n        /* \"contracts/openzeppelin/MyNFT.sol\":9760:9775  add(32, reason) */\n      add\n        /* \"contracts/openzeppelin/MyNFT.sol\":9753:9791  revert(add(32, reason), mload(reason)) */\n      revert\n        /* \"contracts/openzeppelin/MyNFT.sol\":9123:9833  try... */\n    tag_289:\n      not(sub(shl(0xe0, 0x01), 0x01))\n        /* \"contracts/openzeppelin/MyNFT.sol\":9417:9472  retval == IERC721Receiver(to).onERC721Received.selector */\n      and\n      shl(0xe1, 0x0a85bd01)\n      eq\n      swap1\n      pop\n        /* \"contracts/openzeppelin/MyNFT.sol\":9410:9472  return retval == IERC721Receiver(to).onERC721Received.selector */\n      jump(tag_214)\n        /* \"contracts/openzeppelin/MyNFT.sol\":12046:12195  function _setTokenURI(uint256 tokenId, string memory _tokenURI) internal {... */\n    tag_269:\n        /* \"contracts/openzeppelin/MyNFT.sol\":12157:12176  _tokenURIs[tokenId] */\n      0x00\n      dup3\n      dup2\n      mstore\n        /* \"contracts/openzeppelin/MyNFT.sol\":12157:12167  _tokenURIs */\n      0x08\n        /* \"contracts/openzeppelin/MyNFT.sol\":12157:12176  _tokenURIs[tokenId] */\n      0x20\n      mstore\n      0x40\n      swap1\n      keccak256\n        /* \"contracts/openzeppelin/MyNFT.sol\":12157:12188  _tokenURIs[tokenId] = _tokenURI */\n      tag_163\n        /* \"contracts/openzeppelin/MyNFT.sol\":12179:12188  _tokenURI */\n      dup3\n        /* \"contracts/openzeppelin/MyNFT.sol\":12157:12176  _tokenURIs[tokenId] */\n      dup3\n        /* \"contracts/openzeppelin/MyNFT.sol\":12157:12188  _tokenURIs[tokenId] = _tokenURI */\n      tag_181\n      jump\t// in\n        /* \"#utility.yul\":14:145   */\n    tag_301:\n      not(sub(shl(0xe0, 0x01), 0x01))\n        /* \"#utility.yul\":88:120   */\n      dup2\n      and\n        /* \"#utility.yul\":78:121   */\n      dup2\n      eq\n        /* \"#utility.yul\":68:139   */\n      tag_174\n      jumpi\n        /* \"#utility.yul\":135:136   */\n      0x00\n        /* \"#utility.yul\":132:133   */\n      dup1\n        /* \"#utility.yul\":125:137   */\n      revert\n        /* \"#utility.yul\":150:395   */\n    tag_32:\n        /* \"#utility.yul\":208:214   */\n      0x00\n        /* \"#utility.yul\":261:263   */\n      0x20\n        /* \"#utility.yul\":249:258   */\n      dup3\n        /* \"#utility.yul\":240:247   */\n      dup5\n        /* \"#utility.yul\":236:259   */\n      sub\n        /* \"#utility.yul\":232:264   */\n      slt\n        /* \"#utility.yul\":229:281   */\n      iszero\n      tag_316\n      jumpi\n        /* \"#utility.yul\":277:278   */\n      0x00\n        /* \"#utility.yul\":274:275   */\n      dup1\n        /* \"#utility.yul\":267:279   */\n      revert\n        /* \"#utility.yul\":229:281   */\n    tag_316:\n        /* \"#utility.yul\":316:325   */\n      dup2\n        /* \"#utility.yul\":303:326   */\n      calldataload\n        /* \"#utility.yul\":335:365   */\n      tag_214\n        /* \"#utility.yul\":359:364   */\n      dup2\n        /* \"#utility.yul\":335:365   */\n      tag_301\n      jump\t// in\n        /* \"#utility.yul\":592:818   */\n    tag_38:\n        /* \"#utility.yul\":651:657   */\n      0x00\n        /* \"#utility.yul\":704:706   */\n      0x20\n        /* \"#utility.yul\":692:701   */\n      dup3\n        /* \"#utility.yul\":683:690   */\n      dup5\n        /* \"#utility.yul\":679:702   */\n      sub\n        /* \"#utility.yul\":675:707   */\n      slt\n        /* \"#utility.yul\":672:724   */\n      iszero\n      tag_320\n      jumpi\n        /* \"#utility.yul\":720:721   */\n      0x00\n        /* \"#utility.yul\":717:718   */\n      dup1\n        /* \"#utility.yul\":710:722   */\n      revert\n        /* \"#utility.yul\":672:724   */\n    tag_320:\n      pop\n        /* \"#utility.yul\":765:788   */\n      calldataload\n      swap2\n        /* \"#utility.yul\":592:818   */\n      swap1\n      pop\n      jump\t// out\n        /* \"#utility.yul\":1031:1320   */\n    tag_302:\n        /* \"#utility.yul\":1073:1076   */\n      0x00\n        /* \"#utility.yul\":1111:1116   */\n      dup2\n        /* \"#utility.yul\":1105:1117   */\n      mload\n        /* \"#utility.yul\":1138:1144   */\n      dup1\n        /* \"#utility.yul\":1133:1136   */\n      dup5\n        /* \"#utility.yul\":1126:1145   */\n      mstore\n        /* \"#utility.yul\":1194:1200   */\n      dup1\n        /* \"#utility.yul\":1187:1191   */\n      0x20\n        /* \"#utility.yul\":1180:1185   */\n      dup5\n        /* \"#utility.yul\":1176:1192   */\n      add\n        /* \"#utility.yul\":1169:1173   */\n      0x20\n        /* \"#utility.yul\":1164:1167   */\n      dup7\n        /* \"#utility.yul\":1160:1174   */\n      add\n        /* \"#utility.yul\":1154:1201   */\n      mcopy\n        /* \"#utility.yul\":1246:1247   */\n      0x00\n        /* \"#utility.yul\":1239:1243   */\n      0x20\n        /* \"#utility.yul\":1230:1236   */\n      dup3\n        /* \"#utility.yul\":1225:1228   */\n      dup7\n        /* \"#utility.yul\":1221:1237   */\n      add\n        /* \"#utility.yul\":1217:1244   */\n      add\n        /* \"#utility.yul\":1210:1248   */\n      mstore\n        /* \"#utility.yul\":1309:1313   */\n      0x20\n        /* \"#utility.yul\":1302:1304   */\n      0x1f\n        /* \"#utility.yul\":1298:1305   */\n      not\n        /* \"#utility.yul\":1293:1295   */\n      0x1f\n        /* \"#utility.yul\":1285:1291   */\n      dup4\n        /* \"#utility.yul\":1281:1296   */\n      add\n        /* \"#utility.yul\":1277:1306   */\n      and\n        /* \"#utility.yul\":1272:1275   */\n      dup6\n        /* \"#utility.yul\":1268:1307   */\n      add\n        /* \"#utility.yul\":1264:1314   */\n      add\n        /* \"#utility.yul\":1257:1314   */\n      swap2\n      pop\n      pop\n        /* \"#utility.yul\":1031:1320   */\n      swap3\n      swap2\n      pop\n      pop\n      jump\t// out\n        /* \"#utility.yul\":1325:1545   */\n    tag_45:\n        /* \"#utility.yul\":1474:1476   */\n      0x20\n        /* \"#utility.yul\":1463:1472   */\n      dup2\n        /* \"#utility.yul\":1456:1477   */\n      mstore\n        /* \"#utility.yul\":1437:1441   */\n      0x00\n        /* \"#utility.yul\":1494:1539   */\n      tag_214\n        /* \"#utility.yul\":1535:1537   */\n      0x20\n        /* \"#utility.yul\":1524:1533   */\n      dup4\n        /* \"#utility.yul\":1520:1538   */\n      add\n        /* \"#utility.yul\":1512:1518   */\n      dup5\n        /* \"#utility.yul\":1494:1539   */\n      tag_302\n      jump\t// in\n        /* \"#utility.yul\":1550:1723   */\n    tag_303:\n        /* \"#utility.yul\":1618:1638   */\n      dup1\n      calldataload\n      sub(shl(0xa0, 0x01), 0x01)\n        /* \"#utility.yul\":1667:1698   */\n      dup2\n      and\n        /* \"#utility.yul\":1657:1699   */\n      dup2\n      eq\n        /* \"#utility.yul\":1647:1717   */\n      tag_326\n      jumpi\n        /* \"#utility.yul\":1713:1714   */\n      0x00\n        /* \"#utility.yul\":1710:1711   */\n      dup1\n        /* \"#utility.yul\":1703:1715   */\n      revert\n        /* \"#utility.yul\":1647:1717   */\n    tag_326:\n        /* \"#utility.yul\":1550:1723   */\n      swap2\n      swap1\n      pop\n      jump\t// out\n        /* \"#utility.yul\":1728:2028   */\n    tag_52:\n        /* \"#utility.yul\":1796:1802   */\n      0x00\n        /* \"#utility.yul\":1804:1810   */\n      dup1\n        /* \"#utility.yul\":1857:1859   */\n      0x40\n        /* \"#utility.yul\":1845:1854   */\n      dup4\n        /* \"#utility.yul\":1836:1843   */\n      dup6\n        /* \"#utility.yul\":1832:1855   */\n      sub\n        /* \"#utility.yul\":1828:1860   */\n      slt\n        /* \"#utility.yul\":1825:1877   */\n      iszero\n      tag_328\n      jumpi\n        /* \"#utility.yul\":1873:1874   */\n      0x00\n        /* \"#utility.yul\":1870:1871   */\n      dup1\n        /* \"#utility.yul\":1863:1875   */\n      revert\n        /* \"#utility.yul\":1825:1877   */\n    tag_328:\n        /* \"#utility.yul\":1896:1925   */\n      tag_329\n        /* \"#utility.yul\":1915:1924   */\n      dup4\n        /* \"#utility.yul\":1896:1925   */\n      tag_303\n      jump\t// in\n    tag_329:\n        /* \"#utility.yul\":1886:1925   */\n      swap5\n        /* \"#utility.yul\":1994:1996   */\n      0x20\n        /* \"#utility.yul\":1979:1997   */\n      swap4\n      swap1\n      swap4\n      add\n        /* \"#utility.yul\":1966:1998   */\n      calldataload\n      swap4\n      pop\n      pop\n      pop\n        /* \"#utility.yul\":1728:2028   */\n      jump\t// out\n        /* \"#utility.yul\":2033:2293   */\n    tag_56:\n        /* \"#utility.yul\":2101:2107   */\n      0x00\n        /* \"#utility.yul\":2109:2115   */\n      dup1\n        /* \"#utility.yul\":2162:2164   */\n      0x40\n        /* \"#utility.yul\":2150:2159   */\n      dup4\n        /* \"#utility.yul\":2141:2148   */\n      dup6\n        /* \"#utility.yul\":2137:2160   */\n      sub\n        /* \"#utility.yul\":2133:2165   */\n      slt\n        /* \"#utility.yul\":2130:2182   */\n      iszero\n      tag_331\n      jumpi\n        /* \"#utility.yul\":2178:2179   */\n      0x00\n        /* \"#utility.yul\":2175:2176   */\n      dup1\n        /* \"#utility.yul\":2168:2180   */\n      revert\n        /* \"#utility.yul\":2130:2182   */\n    tag_331:\n        /* \"#utility.yul\":2201:2230   */\n      tag_332\n        /* \"#utility.yul\":2220:2229   */\n      dup4\n        /* \"#utility.yul\":2201:2230   */\n      tag_303\n      jump\t// in\n    tag_332:\n        /* \"#utility.yul\":2191:2230   */\n      swap2\n      pop\n        /* \"#utility.yul\":2249:2287   */\n      tag_333\n        /* \"#utility.yul\":2283:2285   */\n      0x20\n        /* \"#utility.yul\":2272:2281   */\n      dup5\n        /* \"#utility.yul\":2268:2286   */\n      add\n        /* \"#utility.yul\":2249:2287   */\n      tag_303\n      jump\t// in\n    tag_333:\n        /* \"#utility.yul\":2239:2287   */\n      swap1\n      pop\n        /* \"#utility.yul\":2033:2293   */\n      swap3\n      pop\n      swap3\n      swap1\n      pop\n      jump\t// out\n        /* \"#utility.yul\":2480:2854   */\n    tag_65:\n        /* \"#utility.yul\":2557:2563   */\n      0x00\n        /* \"#utility.yul\":2565:2571   */\n      dup1\n        /* \"#utility.yul\":2573:2579   */\n      0x00\n        /* \"#utility.yul\":2626:2628   */\n      0x60\n        /* \"#utility.yul\":2614:2623   */\n      dup5\n        /* \"#utility.yul\":2605:2612   */\n      dup7\n        /* \"#utility.yul\":2601:2624   */\n      sub\n        /* \"#utility.yul\":2597:2629   */\n      slt\n        /* \"#utility.yul\":2594:2646   */\n      iszero\n      tag_336\n      jumpi\n        /* \"#utility.yul\":2642:2643   */\n      0x00\n        /* \"#utility.yul\":2639:2640   */\n      dup1\n        /* \"#utility.yul\":2632:2644   */\n      revert\n        /* \"#utility.yul\":2594:2646   */\n    tag_336:\n        /* \"#utility.yul\":2665:2694   */\n      tag_337\n        /* \"#utility.yul\":2684:2693   */\n      dup5\n        /* \"#utility.yul\":2665:2694   */\n      tag_303\n      jump\t// in\n    tag_337:\n        /* \"#utility.yul\":2655:2694   */\n      swap3\n      pop\n        /* \"#utility.yul\":2713:2751   */\n      tag_338\n        /* \"#utility.yul\":2747:2749   */\n      0x20\n        /* \"#utility.yul\":2736:2745   */\n      dup6\n        /* \"#utility.yul\":2732:2750   */\n      add\n        /* \"#utility.yul\":2713:2751   */\n      tag_303\n      jump\t// in\n    tag_338:\n        /* \"#utility.yul\":2480:2854   */\n      swap3\n      swap6\n        /* \"#utility.yul\":2703:2751   */\n      swap3\n      swap5\n      pop\n      pop\n      pop\n        /* \"#utility.yul\":2820:2822   */\n      0x40\n        /* \"#utility.yul\":2805:2823   */\n      swap2\n      swap1\n      swap2\n      add\n        /* \"#utility.yul\":2792:2824   */\n      calldataload\n      swap1\n        /* \"#utility.yul\":2480:2854   */\n      jump\t// out\n        /* \"#utility.yul\":2859:3045   */\n    tag_69:\n        /* \"#utility.yul\":2918:2924   */\n      0x00\n        /* \"#utility.yul\":2971:2973   */\n      0x20\n        /* \"#utility.yul\":2959:2968   */\n      dup3\n        /* \"#utility.yul\":2950:2957   */\n      dup5\n        /* \"#utility.yul\":2946:2969   */\n      sub\n        /* \"#utility.yul\":2942:2974   */\n      slt\n        /* \"#utility.yul\":2939:2991   */\n      iszero\n      tag_340\n      jumpi\n        /* \"#utility.yul\":2987:2988   */\n      0x00\n        /* \"#utility.yul\":2984:2985   */\n      dup1\n        /* \"#utility.yul\":2977:2989   */\n      revert\n        /* \"#utility.yul\":2939:2991   */\n    tag_340:\n        /* \"#utility.yul\":3010:3039   */\n      tag_214\n        /* \"#utility.yul\":3029:3038   */\n      dup3\n        /* \"#utility.yul\":3010:3039   */\n      tag_303\n      jump\t// in\n        /* \"#utility.yul\":3050:3177   */\n    tag_304:\n        /* \"#utility.yul\":3111:3121   */\n      0x4e487b71\n        /* \"#utility.yul\":3106:3109   */\n      0xe0\n        /* \"#utility.yul\":3102:3122   */\n      shl\n        /* \"#utility.yul\":3099:3100   */\n      0x00\n        /* \"#utility.yul\":3092:3123   */\n      mstore\n        /* \"#utility.yul\":3142:3146   */\n      0x41\n        /* \"#utility.yul\":3139:3140   */\n      0x04\n        /* \"#utility.yul\":3132:3147   */\n      mstore\n        /* \"#utility.yul\":3166:3170   */\n      0x24\n        /* \"#utility.yul\":3163:3164   */\n      0x00\n        /* \"#utility.yul\":3156:3171   */\n      revert\n        /* \"#utility.yul\":3182:3908   */\n    tag_305:\n        /* \"#utility.yul\":3225:3230   */\n      0x00\n        /* \"#utility.yul\":3278:3281   */\n      dup3\n        /* \"#utility.yul\":3271:3275   */\n      0x1f\n        /* \"#utility.yul\":3263:3269   */\n      dup4\n        /* \"#utility.yul\":3259:3276   */\n      add\n        /* \"#utility.yul\":3255:3282   */\n      slt\n        /* \"#utility.yul\":3245:3300   */\n      tag_344\n      jumpi\n        /* \"#utility.yul\":3296:3297   */\n      0x00\n        /* \"#utility.yul\":3293:3294   */\n      dup1\n        /* \"#utility.yul\":3286:3298   */\n      revert\n        /* \"#utility.yul\":3245:3300   */\n    tag_344:\n        /* \"#utility.yul\":3336:3342   */\n      dup2\n        /* \"#utility.yul\":3323:3343   */\n      calldataload\n        /* \"#utility.yul\":3366:3384   */\n      0xffffffffffffffff\n        /* \"#utility.yul\":3358:3364   */\n      dup2\n        /* \"#utility.yul\":3355:3385   */\n      gt\n        /* \"#utility.yul\":3352:3408   */\n      iszero\n      tag_346\n      jumpi\n        /* \"#utility.yul\":3388:3406   */\n      tag_346\n      tag_304\n      jump\t// in\n    tag_346:\n        /* \"#utility.yul\":3437:3439   */\n      0x40\n        /* \"#utility.yul\":3431:3440   */\n      mload\n        /* \"#utility.yul\":3529:3531   */\n      0x1f\n        /* \"#utility.yul\":3491:3508   */\n      dup3\n      add\n      not(0x1f)\n        /* \"#utility.yul\":3487:3518   */\n      swap1\n      dup2\n      and\n        /* \"#utility.yul\":3520:3522   */\n      0x3f\n        /* \"#utility.yul\":3483:3523   */\n      add\n        /* \"#utility.yul\":3479:3533   */\n      and\n        /* \"#utility.yul\":3467:3534   */\n      dup2\n      add\n        /* \"#utility.yul\":3564:3582   */\n      0xffffffffffffffff\n        /* \"#utility.yul\":3549:3583   */\n      dup2\n      gt\n        /* \"#utility.yul\":3585:3607   */\n      dup3\n      dup3\n      lt\n        /* \"#utility.yul\":3546:3608   */\n      or\n        /* \"#utility.yul\":3543:3631   */\n      iszero\n      tag_348\n      jumpi\n        /* \"#utility.yul\":3611:3629   */\n      tag_348\n      tag_304\n      jump\t// in\n    tag_348:\n        /* \"#utility.yul\":3647:3649   */\n      0x40\n        /* \"#utility.yul\":3640:3662   */\n      mstore\n        /* \"#utility.yul\":3671:3693   */\n      dup2\n      dup2\n      mstore\n        /* \"#utility.yul\":3712:3731   */\n      dup4\n      dup3\n      add\n        /* \"#utility.yul\":3733:3737   */\n      0x20\n        /* \"#utility.yul\":3708:3738   */\n      add\n        /* \"#utility.yul\":3705:3744   */\n      dup6\n      lt\n        /* \"#utility.yul\":3702:3761   */\n      iszero\n      tag_349\n      jumpi\n        /* \"#utility.yul\":3757:3758   */\n      0x00\n        /* \"#utility.yul\":3754:3755   */\n      dup1\n        /* \"#utility.yul\":3747:3759   */\n      revert\n        /* \"#utility.yul\":3702:3761   */\n    tag_349:\n        /* \"#utility.yul\":3821:3827   */\n      dup2\n        /* \"#utility.yul\":3814:3818   */\n      0x20\n        /* \"#utility.yul\":3806:3812   */\n      dup6\n        /* \"#utility.yul\":3802:3819   */\n      add\n        /* \"#utility.yul\":3795:3799   */\n      0x20\n        /* \"#utility.yul\":3787:3793   */\n      dup4\n        /* \"#utility.yul\":3783:3800   */\n      add\n        /* \"#utility.yul\":3770:3828   */\n      calldatacopy\n        /* \"#utility.yul\":3876:3877   */\n      0x00\n        /* \"#utility.yul\":3848:3867   */\n      swap2\n      dup2\n      add\n        /* \"#utility.yul\":3869:3873   */\n      0x20\n        /* \"#utility.yul\":3844:3874   */\n      add\n        /* \"#utility.yul\":3837:3878   */\n      swap2\n      swap1\n      swap2\n      mstore\n        /* \"#utility.yul\":3852:3858   */\n      swap4\n        /* \"#utility.yul\":3182:3908   */\n      swap3\n      pop\n      pop\n      pop\n      jump\t// out\n        /* \"#utility.yul\":3913:4235   */\n    tag_80:\n        /* \"#utility.yul\":3982:3988   */\n      0x00\n        /* \"#utility.yul\":4035:4037   */\n      0x20\n        /* \"#utility.yul\":4023:4032   */\n      dup3\n        /* \"#utility.yul\":4014:4021   */\n      dup5\n        /* \"#utility.yul\":4010:4033   */\n      sub\n        /* \"#utility.yul\":4006:4038   */\n      slt\n        /* \"#utility.yul\":4003:4055   */\n      iszero\n      tag_351\n      jumpi\n        /* \"#utility.yul\":4051:4052   */\n      0x00\n        /* \"#utility.yul\":4048:4049   */\n      dup1\n        /* \"#utility.yul\":4041:4053   */\n      revert\n        /* \"#utility.yul\":4003:4055   */\n    tag_351:\n        /* \"#utility.yul\":4091:4100   */\n      dup2\n        /* \"#utility.yul\":4078:4101   */\n      calldataload\n        /* \"#utility.yul\":4124:4142   */\n      0xffffffffffffffff\n        /* \"#utility.yul\":4116:4122   */\n      dup2\n        /* \"#utility.yul\":4113:4143   */\n      gt\n        /* \"#utility.yul\":4110:4160   */\n      iszero\n      tag_352\n      jumpi\n        /* \"#utility.yul\":4156:4157   */\n      0x00\n        /* \"#utility.yul\":4153:4154   */\n      dup1\n        /* \"#utility.yul\":4146:4158   */\n      revert\n        /* \"#utility.yul\":4110:4160   */\n    tag_352:\n        /* \"#utility.yul\":4179:4229   */\n      tag_217\n        /* \"#utility.yul\":4221:4228   */\n      dup5\n        /* \"#utility.yul\":4212:4218   */\n      dup3\n        /* \"#utility.yul\":4201:4210   */\n      dup6\n        /* \"#utility.yul\":4197:4219   */\n      add\n        /* \"#utility.yul\":4179:4229   */\n      tag_305\n      jump\t// in\n        /* \"#utility.yul\":4240:4587   */\n    tag_98:\n        /* \"#utility.yul\":4305:4311   */\n      0x00\n        /* \"#utility.yul\":4313:4319   */\n      dup1\n        /* \"#utility.yul\":4366:4368   */\n      0x40\n        /* \"#utility.yul\":4354:4363   */\n      dup4\n        /* \"#utility.yul\":4345:4352   */\n      dup6\n        /* \"#utility.yul\":4341:4364   */\n      sub\n        /* \"#utility.yul\":4337:4369   */\n      slt\n        /* \"#utility.yul\":4334:4386   */\n      iszero\n      tag_355\n      jumpi\n        /* \"#utility.yul\":4382:4383   */\n      0x00\n        /* \"#utility.yul\":4379:4380   */\n      dup1\n        /* \"#utility.yul\":4372:4384   */\n      revert\n        /* \"#utility.yul\":4334:4386   */\n    tag_355:\n        /* \"#utility.yul\":4405:4434   */\n      tag_356\n        /* \"#utility.yul\":4424:4433   */\n      dup4\n        /* \"#utility.yul\":4405:4434   */\n      tag_303\n      jump\t// in\n    tag_356:\n        /* \"#utility.yul\":4395:4434   */\n      swap2\n      pop\n        /* \"#utility.yul\":4484:4486   */\n      0x20\n        /* \"#utility.yul\":4473:4482   */\n      dup4\n        /* \"#utility.yul\":4469:4487   */\n      add\n        /* \"#utility.yul\":4456:4488   */\n      calldataload\n        /* \"#utility.yul\":4531:4536   */\n      dup1\n        /* \"#utility.yul\":4524:4537   */\n      iszero\n        /* \"#utility.yul\":4517:4538   */\n      iszero\n        /* \"#utility.yul\":4510:4515   */\n      dup2\n        /* \"#utility.yul\":4507:4539   */\n      eq\n        /* \"#utility.yul\":4497:4557   */\n      tag_357\n      jumpi\n        /* \"#utility.yul\":4553:4554   */\n      0x00\n        /* \"#utility.yul\":4550:4551   */\n      dup1\n        /* \"#utility.yul\":4543:4555   */\n      revert\n        /* \"#utility.yul\":4497:4557   */\n    tag_357:\n        /* \"#utility.yul\":4576:4581   */\n      dup1\n        /* \"#utility.yul\":4566:4581   */\n      swap2\n      pop\n      pop\n        /* \"#utility.yul\":4240:4587   */\n      swap3\n      pop\n      swap3\n      swap1\n      pop\n      jump\t// out\n        /* \"#utility.yul\":4592:4939   */\n    tag_306:\n        /* \"#utility.yul\":4643:4651   */\n      0x00\n        /* \"#utility.yul\":4653:4659   */\n      dup1\n        /* \"#utility.yul\":4707:4710   */\n      dup4\n        /* \"#utility.yul\":4700:4704   */\n      0x1f\n        /* \"#utility.yul\":4692:4698   */\n      dup5\n        /* \"#utility.yul\":4688:4705   */\n      add\n        /* \"#utility.yul\":4684:4711   */\n      slt\n        /* \"#utility.yul\":4674:4729   */\n      tag_359\n      jumpi\n        /* \"#utility.yul\":4725:4726   */\n      0x00\n        /* \"#utility.yul\":4722:4723   */\n      dup1\n        /* \"#utility.yul\":4715:4727   */\n      revert\n        /* \"#utility.yul\":4674:4729   */\n    tag_359:\n      pop\n        /* \"#utility.yul\":4748:4768   */\n      dup2\n      calldataload\n        /* \"#utility.yul\":4791:4809   */\n      0xffffffffffffffff\n        /* \"#utility.yul\":4780:4810   */\n      dup2\n      gt\n        /* \"#utility.yul\":4777:4827   */\n      iszero\n      tag_360\n      jumpi\n        /* \"#utility.yul\":4823:4824   */\n      0x00\n        /* \"#utility.yul\":4820:4821   */\n      dup1\n        /* \"#utility.yul\":4813:4825   */\n      revert\n        /* \"#utility.yul\":4777:4827   */\n    tag_360:\n        /* \"#utility.yul\":4860:4864   */\n      0x20\n        /* \"#utility.yul\":4852:4858   */\n      dup4\n        /* \"#utility.yul\":4848:4865   */\n      add\n        /* \"#utility.yul\":4836:4865   */\n      swap2\n      pop\n        /* \"#utility.yul\":4912:4915   */\n      dup4\n        /* \"#utility.yul\":4905:4909   */\n      0x20\n        /* \"#utility.yul\":4896:4902   */\n      dup3\n        /* \"#utility.yul\":4888:4894   */\n      dup6\n        /* \"#utility.yul\":4884:4903   */\n      add\n        /* \"#utility.yul\":4880:4910   */\n      add\n        /* \"#utility.yul\":4877:4916   */\n      gt\n        /* \"#utility.yul\":4874:4933   */\n      iszero\n      tag_361\n      jumpi\n        /* \"#utility.yul\":4929:4930   */\n      0x00\n        /* \"#utility.yul\":4926:4927   */\n      dup1\n        /* \"#utility.yul\":4919:4931   */\n      revert\n        /* \"#utility.yul\":4874:4933   */\n    tag_361:\n        /* \"#utility.yul\":4592:4939   */\n      swap3\n      pop\n      swap3\n      swap1\n      pop\n      jump\t// out\n        /* \"#utility.yul\":4944:5616   */\n    tag_106:\n        /* \"#utility.yul\":5041:5047   */\n      0x00\n        /* \"#utility.yul\":5049:5055   */\n      dup1\n        /* \"#utility.yul\":5057:5063   */\n      0x00\n        /* \"#utility.yul\":5065:5071   */\n      dup1\n        /* \"#utility.yul\":5073:5079   */\n      0x00\n        /* \"#utility.yul\":5126:5129   */\n      0x80\n        /* \"#utility.yul\":5114:5123   */\n      dup7\n        /* \"#utility.yul\":5105:5112   */\n      dup9\n        /* \"#utility.yul\":5101:5124   */\n      sub\n        /* \"#utility.yul\":5097:5130   */\n      slt\n        /* \"#utility.yul\":5094:5147   */\n      iszero\n      tag_363\n      jumpi\n        /* \"#utility.yul\":5143:5144   */\n      0x00\n        /* \"#utility.yul\":5140:5141   */\n      dup1\n        /* \"#utility.yul\":5133:5145   */\n      revert\n        /* \"#utility.yul\":5094:5147   */\n    tag_363:\n        /* \"#utility.yul\":5166:5195   */\n      tag_364\n        /* \"#utility.yul\":5185:5194   */\n      dup7\n        /* \"#utility.yul\":5166:5195   */\n      tag_303\n      jump\t// in\n    tag_364:\n        /* \"#utility.yul\":5156:5195   */\n      swap5\n      pop\n        /* \"#utility.yul\":5214:5252   */\n      tag_365\n        /* \"#utility.yul\":5248:5250   */\n      0x20\n        /* \"#utility.yul\":5237:5246   */\n      dup8\n        /* \"#utility.yul\":5233:5251   */\n      add\n        /* \"#utility.yul\":5214:5252   */\n      tag_303\n      jump\t// in\n    tag_365:\n        /* \"#utility.yul\":5204:5252   */\n      swap4\n      pop\n        /* \"#utility.yul\":5321:5323   */\n      0x40\n        /* \"#utility.yul\":5306:5324   */\n      dup7\n      add\n        /* \"#utility.yul\":5293:5325   */\n      calldataload\n      swap3\n      pop\n        /* \"#utility.yul\":5400:5402   */\n      0x60\n        /* \"#utility.yul\":5385:5403   */\n      dup7\n      add\n        /* \"#utility.yul\":5372:5404   */\n      calldataload\n        /* \"#utility.yul\":5427:5445   */\n      0xffffffffffffffff\n        /* \"#utility.yul\":5416:5446   */\n      dup2\n      gt\n        /* \"#utility.yul\":5413:5463   */\n      iszero\n      tag_366\n      jumpi\n        /* \"#utility.yul\":5459:5460   */\n      0x00\n        /* \"#utility.yul\":5456:5457   */\n      dup1\n        /* \"#utility.yul\":5449:5461   */\n      revert\n        /* \"#utility.yul\":5413:5463   */\n    tag_366:\n        /* \"#utility.yul\":5498:5556   */\n      tag_367\n        /* \"#utility.yul\":5548:5555   */\n      dup9\n        /* \"#utility.yul\":5539:5545   */\n      dup3\n        /* \"#utility.yul\":5528:5537   */\n      dup10\n        /* \"#utility.yul\":5524:5546   */\n      add\n        /* \"#utility.yul\":5498:5556   */\n      tag_306\n      jump\t// in\n    tag_367:\n        /* \"#utility.yul\":4944:5616   */\n      swap7\n      swap10\n      swap6\n      swap9\n      pop\n      swap4\n      swap7\n      pop\n        /* \"#utility.yul\":5575:5583   */\n      swap3\n      swap5\n        /* \"#utility.yul\":5472:5556   */\n      swap4\n        /* \"#utility.yul\":4944:5616   */\n      swap3\n      pop\n      pop\n      pop\n      jump\t// out\n        /* \"#utility.yul\":5621:6017   */\n    tag_114:\n        /* \"#utility.yul\":5699:5705   */\n      0x00\n        /* \"#utility.yul\":5707:5713   */\n      dup1\n        /* \"#utility.yul\":5760:5762   */\n      0x40\n        /* \"#utility.yul\":5748:5757   */\n      dup4\n        /* \"#utility.yul\":5739:5746   */\n      dup6\n        /* \"#utility.yul\":5735:5758   */\n      sub\n        /* \"#utility.yul\":5731:5763   */\n      slt\n        /* \"#utility.yul\":5728:5780   */\n      iszero\n      tag_369\n      jumpi\n        /* \"#utility.yul\":5776:5777   */\n      0x00\n        /* \"#utility.yul\":5773:5774   */\n      dup1\n        /* \"#utility.yul\":5766:5778   */\n      revert\n        /* \"#utility.yul\":5728:5780   */\n    tag_369:\n        /* \"#utility.yul\":5799:5828   */\n      tag_370\n        /* \"#utility.yul\":5818:5827   */\n      dup4\n        /* \"#utility.yul\":5799:5828   */\n      tag_303\n      jump\t// in\n    tag_370:\n        /* \"#utility.yul\":5789:5828   */\n      swap2\n      pop\n        /* \"#utility.yul\":5879:5881   */\n      0x20\n        /* \"#utility.yul\":5868:5877   */\n      dup4\n        /* \"#utility.yul\":5864:5882   */\n      add\n        /* \"#utility.yul\":5851:5883   */\n      calldataload\n        /* \"#utility.yul\":5906:5924   */\n      0xffffffffffffffff\n        /* \"#utility.yul\":5898:5904   */\n      dup2\n        /* \"#utility.yul\":5895:5925   */\n      gt\n        /* \"#utility.yul\":5892:5942   */\n      iszero\n      tag_371\n      jumpi\n        /* \"#utility.yul\":5938:5939   */\n      0x00\n        /* \"#utility.yul\":5935:5936   */\n      dup1\n        /* \"#utility.yul\":5928:5940   */\n      revert\n        /* \"#utility.yul\":5892:5942   */\n    tag_371:\n        /* \"#utility.yul\":5961:6011   */\n      tag_372\n        /* \"#utility.yul\":6003:6010   */\n      dup6\n        /* \"#utility.yul\":5994:6000   */\n      dup3\n        /* \"#utility.yul\":5983:5992   */\n      dup7\n        /* \"#utility.yul\":5979:6001   */\n      add\n        /* \"#utility.yul\":5961:6011   */\n      tag_305\n      jump\t// in\n    tag_372:\n        /* \"#utility.yul\":5951:6011   */\n      swap2\n      pop\n      pop\n        /* \"#utility.yul\":5621:6017   */\n      swap3\n      pop\n      swap3\n      swap1\n      pop\n      jump\t// out\n        /* \"#utility.yul\":6022:6506   */\n    tag_119:\n        /* \"#utility.yul\":6102:6108   */\n      0x00\n        /* \"#utility.yul\":6110:6116   */\n      dup1\n        /* \"#utility.yul\":6118:6124   */\n      0x00\n        /* \"#utility.yul\":6171:6173   */\n      0x40\n        /* \"#utility.yul\":6159:6168   */\n      dup5\n        /* \"#utility.yul\":6150:6157   */\n      dup7\n        /* \"#utility.yul\":6146:6169   */\n      sub\n        /* \"#utility.yul\":6142:6174   */\n      slt\n        /* \"#utility.yul\":6139:6191   */\n      iszero\n      tag_374\n      jumpi\n        /* \"#utility.yul\":6187:6188   */\n      0x00\n        /* \"#utility.yul\":6184:6185   */\n      dup1\n        /* \"#utility.yul\":6177:6189   */\n      revert\n        /* \"#utility.yul\":6139:6191   */\n    tag_374:\n        /* \"#utility.yul\":6210:6239   */\n      tag_375\n        /* \"#utility.yul\":6229:6238   */\n      dup5\n        /* \"#utility.yul\":6210:6239   */\n      tag_303\n      jump\t// in\n    tag_375:\n        /* \"#utility.yul\":6200:6239   */\n      swap3\n      pop\n        /* \"#utility.yul\":6290:6292   */\n      0x20\n        /* \"#utility.yul\":6279:6288   */\n      dup5\n        /* \"#utility.yul\":6275:6293   */\n      add\n        /* \"#utility.yul\":6262:6294   */\n      calldataload\n        /* \"#utility.yul\":6317:6335   */\n      0xffffffffffffffff\n        /* \"#utility.yul\":6309:6315   */\n      dup2\n        /* \"#utility.yul\":6306:6336   */\n      gt\n        /* \"#utility.yul\":6303:6353   */\n      iszero\n      tag_376\n      jumpi\n        /* \"#utility.yul\":6349:6350   */\n      0x00\n        /* \"#utility.yul\":6346:6347   */\n      dup1\n        /* \"#utility.yul\":6339:6351   */\n      revert\n        /* \"#utility.yul\":6303:6353   */\n    tag_376:\n        /* \"#utility.yul\":6388:6446   */\n      tag_377\n        /* \"#utility.yul\":6438:6445   */\n      dup7\n        /* \"#utility.yul\":6429:6435   */\n      dup3\n        /* \"#utility.yul\":6418:6427   */\n      dup8\n        /* \"#utility.yul\":6414:6436   */\n      add\n        /* \"#utility.yul\":6388:6446   */\n      tag_306\n      jump\t// in\n    tag_377:\n        /* \"#utility.yul\":6022:6506   */\n      swap5\n      swap8\n        /* \"#utility.yul\":6465:6473   */\n      swap1\n      swap7\n      pop\n        /* \"#utility.yul\":6362:6446   */\n      swap4\n      swap5\n      pop\n      pop\n      pop\n      pop\n        /* \"#utility.yul\":6022:6506   */\n      jump\t// out\n        /* \"#utility.yul\":6511:7298   */\n    tag_128:\n        /* \"#utility.yul\":6611:6617   */\n      0x00\n        /* \"#utility.yul\":6619:6625   */\n      dup1\n        /* \"#utility.yul\":6627:6633   */\n      0x00\n        /* \"#utility.yul\":6635:6641   */\n      dup1\n        /* \"#utility.yul\":6643:6649   */\n      0x00\n        /* \"#utility.yul\":6696:6698   */\n      0x60\n        /* \"#utility.yul\":6684:6693   */\n      dup7\n        /* \"#utility.yul\":6675:6682   */\n      dup9\n        /* \"#utility.yul\":6671:6694   */\n      sub\n        /* \"#utility.yul\":6667:6699   */\n      slt\n        /* \"#utility.yul\":6664:6716   */\n      iszero\n      tag_379\n      jumpi\n        /* \"#utility.yul\":6712:6713   */\n      0x00\n        /* \"#utility.yul\":6709:6710   */\n      dup1\n        /* \"#utility.yul\":6702:6714   */\n      revert\n        /* \"#utility.yul\":6664:6716   */\n    tag_379:\n        /* \"#utility.yul\":6735:6764   */\n      tag_380\n        /* \"#utility.yul\":6754:6763   */\n      dup7\n        /* \"#utility.yul\":6735:6764   */\n      tag_303\n      jump\t// in\n    tag_380:\n        /* \"#utility.yul\":6725:6764   */\n      swap5\n      pop\n        /* \"#utility.yul\":6815:6817   */\n      0x20\n        /* \"#utility.yul\":6804:6813   */\n      dup7\n        /* \"#utility.yul\":6800:6818   */\n      add\n        /* \"#utility.yul\":6787:6819   */\n      calldataload\n        /* \"#utility.yul\":6842:6860   */\n      0xffffffffffffffff\n        /* \"#utility.yul\":6834:6840   */\n      dup2\n        /* \"#utility.yul\":6831:6861   */\n      gt\n        /* \"#utility.yul\":6828:6878   */\n      iszero\n      tag_381\n      jumpi\n        /* \"#utility.yul\":6874:6875   */\n      0x00\n        /* \"#utility.yul\":6871:6872   */\n      dup1\n        /* \"#utility.yul\":6864:6876   */\n      revert\n        /* \"#utility.yul\":6828:6878   */\n    tag_381:\n        /* \"#utility.yul\":6913:6971   */\n      tag_382\n        /* \"#utility.yul\":6963:6970   */\n      dup9\n        /* \"#utility.yul\":6954:6960   */\n      dup3\n        /* \"#utility.yul\":6943:6952   */\n      dup10\n        /* \"#utility.yul\":6939:6961   */\n      add\n        /* \"#utility.yul\":6913:6971   */\n      tag_306\n      jump\t// in\n    tag_382:\n        /* \"#utility.yul\":6990:6998   */\n      swap1\n      swap6\n      pop\n        /* \"#utility.yul\":6887:6971   */\n      swap4\n      pop\n      pop\n        /* \"#utility.yul\":7078:7080   */\n      0x40\n        /* \"#utility.yul\":7063:7081   */\n      dup7\n      add\n        /* \"#utility.yul\":7050:7082   */\n      calldataload\n        /* \"#utility.yul\":7107:7125   */\n      0xffffffffffffffff\n        /* \"#utility.yul\":7094:7126   */\n      dup2\n      gt\n        /* \"#utility.yul\":7091:7143   */\n      iszero\n      tag_366\n      jumpi\n        /* \"#utility.yul\":7139:7140   */\n      0x00\n        /* \"#utility.yul\":7136:7137   */\n      dup1\n        /* \"#utility.yul\":7129:7141   */\n      revert\n        /* \"#utility.yul\":7303:7683   */\n    tag_136:\n        /* \"#utility.yul\":7382:7383   */\n      0x01\n        /* \"#utility.yul\":7378:7390   */\n      dup2\n      dup2\n      shr\n      swap1\n        /* \"#utility.yul\":7425:7437   */\n      dup3\n      and\n      dup1\n        /* \"#utility.yul\":7446:7507   */\n      tag_386\n      jumpi\n        /* \"#utility.yul\":7500:7504   */\n      0x7f\n        /* \"#utility.yul\":7492:7498   */\n      dup3\n        /* \"#utility.yul\":7488:7505   */\n      and\n        /* \"#utility.yul\":7478:7505   */\n      swap2\n      pop\n        /* \"#utility.yul\":7446:7507   */\n    tag_386:\n        /* \"#utility.yul\":7553:7555   */\n      0x20\n        /* \"#utility.yul\":7545:7551   */\n      dup3\n        /* \"#utility.yul\":7542:7556   */\n      lt\n        /* \"#utility.yul\":7522:7540   */\n      dup2\n        /* \"#utility.yul\":7519:7557   */\n      sub\n        /* \"#utility.yul\":7516:7677   */\n      tag_387\n      jumpi\n        /* \"#utility.yul\":7599:7609   */\n      0x4e487b71\n        /* \"#utility.yul\":7594:7597   */\n      0xe0\n        /* \"#utility.yul\":7590:7610   */\n      shl\n        /* \"#utility.yul\":7587:7588   */\n      0x00\n        /* \"#utility.yul\":7580:7611   */\n      mstore\n        /* \"#utility.yul\":7634:7638   */\n      0x22\n        /* \"#utility.yul\":7631:7632   */\n      0x04\n        /* \"#utility.yul\":7624:7639   */\n      mstore\n        /* \"#utility.yul\":7662:7666   */\n      0x24\n        /* \"#utility.yul\":7659:7660   */\n      0x00\n        /* \"#utility.yul\":7652:7667   */\n      revert\n        /* \"#utility.yul\":7516:7677   */\n    tag_387:\n      pop\n        /* \"#utility.yul\":7303:7683   */\n      swap2\n      swap1\n      pop\n      jump\t// out\n        /* \"#utility.yul\":8101:8521   */\n    tag_150:\n        /* \"#utility.yul\":8303:8305   */\n      0x20\n        /* \"#utility.yul\":8285:8306   */\n      dup1\n      dup3\n      mstore\n        /* \"#utility.yul\":8342:8344   */\n      0x38\n        /* \"#utility.yul\":8322:8340   */\n      swap1\n      dup3\n      add\n        /* \"#utility.yul\":8315:8345   */\n      mstore\n        /* \"#utility.yul\":8381:8415   */\n      0x4552433732313a20617070726f76652063616c6c6572206973206e6f74206f77\n        /* \"#utility.yul\":8376:8378   */\n      0x40\n        /* \"#utility.yul\":8361:8379   */\n      dup3\n      add\n        /* \"#utility.yul\":8354:8416   */\n      mstore\n        /* \"#utility.yul\":8452:8478   */\n      0x6e6572206e6f7220617070726f76656420666f7220616c6c0000000000000000\n        /* \"#utility.yul\":8447:8449   */\n      0x60\n        /* \"#utility.yul\":8432:8450   */\n      dup3\n      add\n        /* \"#utility.yul\":8425:8479   */\n      mstore\n        /* \"#utility.yul\":8511:8514   */\n      0x80\n        /* \"#utility.yul\":8496:8515   */\n      add\n      swap1\n        /* \"#utility.yul\":8101:8521   */\n      jump\t// out\n        /* \"#utility.yul\":8526:8925   */\n    tag_155:\n        /* \"#utility.yul\":8728:8730   */\n      0x20\n        /* \"#utility.yul\":8710:8731   */\n      dup1\n      dup3\n      mstore\n        /* \"#utility.yul\":8767:8769   */\n      0x23\n        /* \"#utility.yul\":8747:8765   */\n      swap1\n      dup3\n      add\n        /* \"#utility.yul\":8740:8770   */\n      mstore\n        /* \"#utility.yul\":8806:8840   */\n      0x4552433732313a20617070726f766520746f20746865207a65726f2061646472\n        /* \"#utility.yul\":8801:8803   */\n      0x40\n        /* \"#utility.yul\":8786:8804   */\n      dup3\n      add\n        /* \"#utility.yul\":8779:8841   */\n      mstore\n      shl(0xe8, 0x657373)\n        /* \"#utility.yul\":8872:8874   */\n      0x60\n        /* \"#utility.yul\":8857:8875   */\n      dup3\n      add\n        /* \"#utility.yul\":8850:8883   */\n      mstore\n        /* \"#utility.yul\":8915:8918   */\n      0x80\n        /* \"#utility.yul\":8900:8919   */\n      add\n      swap1\n        /* \"#utility.yul\":8526:8925   */\n      jump\t// out\n        /* \"#utility.yul\":10125:10643   */\n    tag_308:\n        /* \"#utility.yul\":10227:10229   */\n      0x1f\n        /* \"#utility.yul\":10222:10225   */\n      dup3\n        /* \"#utility.yul\":10219:10230   */\n      gt\n        /* \"#utility.yul\":10216:10637   */\n      iszero\n      tag_163\n      jumpi\n        /* \"#utility.yul\":10263:10268   */\n      dup1\n        /* \"#utility.yul\":10260:10261   */\n      0x00\n        /* \"#utility.yul\":10253:10269   */\n      mstore\n        /* \"#utility.yul\":10307:10311   */\n      0x20\n        /* \"#utility.yul\":10304:10305   */\n      0x00\n        /* \"#utility.yul\":10294:10312   */\n      keccak256\n        /* \"#utility.yul\":10377:10379   */\n      0x1f\n        /* \"#utility.yul\":10365:10375   */\n      dup5\n        /* \"#utility.yul\":10361:10380   */\n      add\n        /* \"#utility.yul\":10358:10359   */\n      0x05\n        /* \"#utility.yul\":10354:10381   */\n      shr\n        /* \"#utility.yul\":10348:10352   */\n      dup2\n        /* \"#utility.yul\":10344:10382   */\n      add\n        /* \"#utility.yul\":10413:10417   */\n      0x20\n        /* \"#utility.yul\":10401:10411   */\n      dup6\n        /* \"#utility.yul\":10398:10418   */\n      lt\n        /* \"#utility.yul\":10395:10442   */\n      iszero\n      tag_397\n      jumpi\n      pop\n        /* \"#utility.yul\":10436:10440   */\n      dup1\n        /* \"#utility.yul\":10395:10442   */\n    tag_397:\n        /* \"#utility.yul\":10491:10493   */\n      0x1f\n        /* \"#utility.yul\":10486:10489   */\n      dup5\n        /* \"#utility.yul\":10482:10494   */\n      add\n        /* \"#utility.yul\":10479:10480   */\n      0x05\n        /* \"#utility.yul\":10475:10495   */\n      shr\n        /* \"#utility.yul\":10469:10473   */\n      dup3\n        /* \"#utility.yul\":10465:10496   */\n      add\n        /* \"#utility.yul\":10455:10496   */\n      swap2\n      pop\n        /* \"#utility.yul\":10546:10627   */\n    tag_398:\n        /* \"#utility.yul\":10564:10566   */\n      dup2\n        /* \"#utility.yul\":10557:10562   */\n      dup2\n        /* \"#utility.yul\":10554:10567   */\n      lt\n        /* \"#utility.yul\":10546:10627   */\n      iszero\n      tag_201\n      jumpi\n        /* \"#utility.yul\":10623:10624   */\n      0x00\n        /* \"#utility.yul\":10609:10625   */\n      dup2\n      sstore\n        /* \"#utility.yul\":10590:10591   */\n      0x01\n        /* \"#utility.yul\":10579:10592   */\n      add\n        /* \"#utility.yul\":10546:10627   */\n      jump(tag_398)\n        /* \"#utility.yul\":10819:12118   */\n    tag_181:\n        /* \"#utility.yul\":10945:10948   */\n      dup2\n        /* \"#utility.yul\":10939:10949   */\n      mload\n        /* \"#utility.yul\":10972:10990   */\n      0xffffffffffffffff\n        /* \"#utility.yul\":10964:10970   */\n      dup2\n        /* \"#utility.yul\":10961:10991   */\n      gt\n        /* \"#utility.yul\":10958:11014   */\n      iszero\n      tag_404\n      jumpi\n        /* \"#utility.yul\":10994:11012   */\n      tag_404\n      tag_304\n      jump\t// in\n    tag_404:\n        /* \"#utility.yul\":11023:11120   */\n      tag_405\n        /* \"#utility.yul\":11113:11119   */\n      dup2\n        /* \"#utility.yul\":11073:11111   */\n      tag_406\n        /* \"#utility.yul\":11105:11109   */\n      dup5\n        /* \"#utility.yul\":11099:11110   */\n      sload\n        /* \"#utility.yul\":11073:11111   */\n      tag_136\n      jump\t// in\n    tag_406:\n        /* \"#utility.yul\":11067:11071   */\n      dup5\n        /* \"#utility.yul\":11023:11120   */\n      tag_308\n      jump\t// in\n    tag_405:\n        /* \"#utility.yul\":11169:11173   */\n      0x20\n        /* \"#utility.yul\":11200:11202   */\n      0x1f\n        /* \"#utility.yul\":11189:11203   */\n      dup3\n      gt\n        /* \"#utility.yul\":11217:11218   */\n      0x01\n        /* \"#utility.yul\":11212:11861   */\n      dup2\n      eq\n      tag_408\n      jumpi\n        /* \"#utility.yul\":11905:11906   */\n      0x00\n        /* \"#utility.yul\":11922:11928   */\n      dup4\n        /* \"#utility.yul\":11919:12008   */\n      iszero\n      tag_409\n      jumpi\n      pop\n        /* \"#utility.yul\":11974:11993   */\n      dup5\n      dup3\n      add\n        /* \"#utility.yul\":11968:11994   */\n      mload\n        /* \"#utility.yul\":11919:12008   */\n    tag_409:\n      not(0x00)\n        /* \"#utility.yul\":10776:10777   */\n      0x03\n        /* \"#utility.yul\":10772:10783   */\n      dup6\n      swap1\n      shl\n        /* \"#utility.yul\":10768:10792   */\n      shr\n        /* \"#utility.yul\":10764:10793   */\n      not\n        /* \"#utility.yul\":10754:10794   */\n      and\n        /* \"#utility.yul\":10800:10801   */\n      0x01\n        /* \"#utility.yul\":10796:10807   */\n      dup5\n      swap1\n      shl\n        /* \"#utility.yul\":10751:10808   */\n      or\n        /* \"#utility.yul\":12021:12102   */\n      dup5\n      sstore\n        /* \"#utility.yul\":11182:12112   */\n      jump(tag_201)\n        /* \"#utility.yul\":11212:11861   */\n    tag_408:\n        /* \"#utility.yul\":10072:10073   */\n      0x00\n        /* \"#utility.yul\":10065:10079   */\n      dup5\n      dup2\n      mstore\n        /* \"#utility.yul\":10109:10113   */\n      0x20\n        /* \"#utility.yul\":10096:10114   */\n      dup2\n      keccak256\n      not(0x1f)\n        /* \"#utility.yul\":11248:11268   */\n      dup6\n      and\n      swap2\n        /* \"#utility.yul\":11366:11588   */\n    tag_412:\n        /* \"#utility.yul\":11380:11387   */\n      dup3\n        /* \"#utility.yul\":11377:11378   */\n      dup2\n        /* \"#utility.yul\":11374:11388   */\n      lt\n        /* \"#utility.yul\":11366:11588   */\n      iszero\n      tag_414\n      jumpi\n        /* \"#utility.yul\":11462:11481   */\n      dup8\n      dup6\n      add\n        /* \"#utility.yul\":11456:11482   */\n      mload\n        /* \"#utility.yul\":11441:11483   */\n      dup3\n      sstore\n        /* \"#utility.yul\":11569:11573   */\n      0x20\n        /* \"#utility.yul\":11554:11574   */\n      swap5\n      dup6\n      add\n      swap5\n        /* \"#utility.yul\":11522:11523   */\n      0x01\n        /* \"#utility.yul\":11510:11524   */\n      swap1\n      swap3\n      add\n      swap2\n        /* \"#utility.yul\":11396:11408   */\n      add\n        /* \"#utility.yul\":11366:11588   */\n      jump(tag_412)\n    tag_414:\n        /* \"#utility.yul\":11370:11373   */\n      pop\n        /* \"#utility.yul\":11616:11622   */\n      dup5\n        /* \"#utility.yul\":11607:11614   */\n      dup3\n        /* \"#utility.yul\":11604:11623   */\n      lt\n        /* \"#utility.yul\":11601:11802   */\n      iszero\n      tag_415\n      jumpi\n        /* \"#utility.yul\":11677:11696   */\n      dup7\n      dup5\n      add\n        /* \"#utility.yul\":11671:11697   */\n      mload\n      not(0x00)\n        /* \"#utility.yul\":11760:11761   */\n      0x03\n        /* \"#utility.yul\":11756:11770   */\n      dup8\n      swap1\n      shl\n        /* \"#utility.yul\":11772:11775   */\n      0xf8\n        /* \"#utility.yul\":11752:11776   */\n      and\n        /* \"#utility.yul\":11748:11785   */\n      shr\n        /* \"#utility.yul\":11744:11786   */\n      not\n        /* \"#utility.yul\":11729:11787   */\n      and\n        /* \"#utility.yul\":11714:11788   */\n      dup2\n      sstore\n        /* \"#utility.yul\":11601:11802   */\n    tag_415:\n      pop\n      pop\n      pop\n      pop\n        /* \"#utility.yul\":11848:11849   */\n      0x01\n        /* \"#utility.yul\":11832:11846   */\n      swap1\n      dup2\n      shl\n        /* \"#utility.yul\":11828:11850   */\n      add\n        /* \"#utility.yul\":11815:11851   */\n      swap1\n      sstore\n      pop\n        /* \"#utility.yul\":10819:12118   */\n      jump\t// out\n        /* \"#utility.yul\":12950:13627   */\n    tag_310:\n        /* \"#utility.yul\":13000:13003   */\n      0x00\n        /* \"#utility.yul\":13041:13046   */\n      dup2\n        /* \"#utility.yul\":13035:13047   */\n      sload\n        /* \"#utility.yul\":13070:13106   */\n      tag_419\n        /* \"#utility.yul\":13096:13105   */\n      dup2\n        /* \"#utility.yul\":13070:13106   */\n      tag_136\n      jump\t// in\n    tag_419:\n        /* \"#utility.yul\":13137:13138   */\n      0x01\n        /* \"#utility.yul\":13122:13139   */\n      dup3\n      and\n        /* \"#utility.yul\":13148:13281   */\n      dup1\n      iszero\n      tag_421\n      jumpi\n        /* \"#utility.yul\":13295:13296   */\n      0x01\n        /* \"#utility.yul\":13290:13621   */\n      dup2\n      eq\n      tag_422\n      jumpi\n        /* \"#utility.yul\":13115:13621   */\n      jump(tag_420)\n        /* \"#utility.yul\":13148:13281   */\n    tag_421:\n      not(0xff)\n        /* \"#utility.yul\":13181:13205   */\n      dup4\n      and\n        /* \"#utility.yul\":13169:13206   */\n      dup7\n      mstore\n        /* \"#utility.yul\":13254:13268   */\n      dup2\n      iszero\n        /* \"#utility.yul\":13247:13269   */\n      iszero\n        /* \"#utility.yul\":13235:13270   */\n      dup3\n      mul\n        /* \"#utility.yul\":13226:13271   */\n      dup7\n      add\n      swap4\n      pop\n        /* \"#utility.yul\":13148:13281   */\n      jump(tag_420)\n        /* \"#utility.yul\":13290:13621   */\n    tag_422:\n        /* \"#utility.yul\":13321:13326   */\n      dup5\n        /* \"#utility.yul\":13318:13319   */\n      0x00\n        /* \"#utility.yul\":13311:13327   */\n      mstore\n        /* \"#utility.yul\":13368:13372   */\n      0x20\n        /* \"#utility.yul\":13365:13366   */\n      0x00\n        /* \"#utility.yul\":13355:13373   */\n      keccak256\n        /* \"#utility.yul\":13395:13396   */\n      0x00\n        /* \"#utility.yul\":13409:13575   */\n    tag_423:\n        /* \"#utility.yul\":13423:13429   */\n      dup4\n        /* \"#utility.yul\":13420:13421   */\n      dup2\n        /* \"#utility.yul\":13417:13430   */\n      lt\n        /* \"#utility.yul\":13409:13575   */\n      iszero\n      tag_425\n      jumpi\n        /* \"#utility.yul\":13503:13517   */\n      dup2\n      sload\n        /* \"#utility.yul\":13490:13501   */\n      dup9\n      dup3\n      add\n        /* \"#utility.yul\":13483:13518   */\n      mstore\n        /* \"#utility.yul\":13559:13560   */\n      0x01\n        /* \"#utility.yul\":13546:13561   */\n      swap1\n      swap2\n      add\n      swap1\n        /* \"#utility.yul\":13445:13449   */\n      0x20\n        /* \"#utility.yul\":13438:13450   */\n      add\n        /* \"#utility.yul\":13409:13575   */\n      jump(tag_423)\n    tag_425:\n        /* \"#utility.yul\":13413:13416   */\n      pop\n      pop\n        /* \"#utility.yul\":13604:13610   */\n      dup2\n        /* \"#utility.yul\":13599:13602   */\n      dup7\n        /* \"#utility.yul\":13595:13611   */\n      add\n        /* \"#utility.yul\":13588:13611   */\n      swap4\n      pop\n        /* \"#utility.yul\":13115:13621   */\n    tag_420:\n      pop\n      pop\n      pop\n        /* \"#utility.yul\":12950:13627   */\n      swap3\n      swap2\n      pop\n      pop\n      jump\t// out\n        /* \"#utility.yul\":13632:13909   */\n    tag_212:\n        /* \"#utility.yul\":13805:13808   */\n      0x00\n        /* \"#utility.yul\":13830:13903   */\n      tag_217\n        /* \"#utility.yul\":13864:13902   */\n      tag_428\n        /* \"#utility.yul\":13898:13901   */\n      dup4\n        /* \"#utility.yul\":13890:13896   */\n      dup7\n        /* \"#utility.yul\":13864:13902   */\n      tag_310\n      jump\t// in\n    tag_428:\n        /* \"#utility.yul\":13856:13862   */\n      dup5\n        /* \"#utility.yul\":13830:13903   */\n      tag_310\n      jump\t// in\n        /* \"#utility.yul\":13914:14322   */\n    tag_222:\n        /* \"#utility.yul\":14116:14118   */\n      0x20\n        /* \"#utility.yul\":14098:14119   */\n      dup1\n      dup3\n      mstore\n        /* \"#utility.yul\":14155:14157   */\n      0x2c\n        /* \"#utility.yul\":14135:14153   */\n      swap1\n      dup3\n      add\n        /* \"#utility.yul\":14128:14158   */\n      mstore\n        /* \"#utility.yul\":14194:14228   */\n      0x4552433732313a206f70657261746f7220717565727920666f72206e6f6e6578\n        /* \"#utility.yul\":14189:14191   */\n      0x40\n        /* \"#utility.yul\":14174:14192   */\n      dup3\n      add\n        /* \"#utility.yul\":14167:14229   */\n      mstore\n      shl(0xa1, 0x34b9ba32b73a103a37b5b2b7)\n        /* \"#utility.yul\":14260:14262   */\n      0x60\n        /* \"#utility.yul\":14245:14263   */\n      dup3\n      add\n        /* \"#utility.yul\":14238:14280   */\n      mstore\n        /* \"#utility.yul\":14312:14315   */\n      0x80\n        /* \"#utility.yul\":14297:14316   */\n      add\n      swap1\n        /* \"#utility.yul\":13914:14322   */\n      jump\t// out\n        /* \"#utility.yul\":15568:15982   */\n    tag_252:\n        /* \"#utility.yul\":15770:15772   */\n      0x20\n        /* \"#utility.yul\":15752:15773   */\n      dup1\n      dup3\n      mstore\n        /* \"#utility.yul\":15809:15811   */\n      0x32\n        /* \"#utility.yul\":15789:15807   */\n      swap1\n      dup3\n      add\n        /* \"#utility.yul\":15782:15812   */\n      mstore\n        /* \"#utility.yul\":15848:15882   */\n      0x4552433732313a207472616e7366657220746f206e6f6e204552433732315265\n        /* \"#utility.yul\":15843:15845   */\n      0x40\n        /* \"#utility.yul\":15828:15846   */\n      dup3\n      add\n        /* \"#utility.yul\":15821:15883   */\n      mstore\n      shl(0x71, 0x31b2b4bb32b91034b6b83632b6b2b73a32b9)\n        /* \"#utility.yul\":15914:15916   */\n      0x60\n        /* \"#utility.yul\":15899:15917   */\n      dup3\n      add\n        /* \"#utility.yul\":15892:15940   */\n      mstore\n        /* \"#utility.yul\":15972:15975   */\n      0x80\n        /* \"#utility.yul\":15957:15976   */\n      add\n      swap1\n        /* \"#utility.yul\":15568:15982   */\n      jump\t// out\n        /* \"#utility.yul\":16758:16885   */\n    tag_311:\n        /* \"#utility.yul\":16819:16829   */\n      0x4e487b71\n        /* \"#utility.yul\":16814:16817   */\n      0xe0\n        /* \"#utility.yul\":16810:16830   */\n      shl\n        /* \"#utility.yul\":16807:16808   */\n      0x00\n        /* \"#utility.yul\":16800:16831   */\n      mstore\n        /* \"#utility.yul\":16850:16854   */\n      0x11\n        /* \"#utility.yul\":16847:16848   */\n      0x04\n        /* \"#utility.yul\":16840:16855   */\n      mstore\n        /* \"#utility.yul\":16874:16878   */\n      0x24\n        /* \"#utility.yul\":16871:16872   */\n      0x00\n        /* \"#utility.yul\":16864:16879   */\n      revert\n        /* \"#utility.yul\":16890:17015   */\n    tag_266:\n        /* \"#utility.yul\":16955:16964   */\n      dup1\n      dup3\n      add\n        /* \"#utility.yul\":16976:16986   */\n      dup1\n      dup3\n      gt\n        /* \"#utility.yul\":16973:17009   */\n      iszero\n      tag_133\n      jumpi\n        /* \"#utility.yul\":16989:17007   */\n      tag_133\n      tag_311\n      jump\t// in\n        /* \"#utility.yul\":17020:17148   */\n    tag_279:\n        /* \"#utility.yul\":17087:17096   */\n      dup2\n      dup2\n      sub\n        /* \"#utility.yul\":17108:17119   */\n      dup2\n      dup2\n      gt\n        /* \"#utility.yul\":17105:17142   */\n      iszero\n      tag_133\n      jumpi\n        /* \"#utility.yul\":17122:17140   */\n      tag_133\n      tag_311\n      jump\t// in\n        /* \"#utility.yul\":17153:17638   */\n    tag_285:\n      sub(shl(0xa0, 0x01), 0x01)\n        /* \"#utility.yul\":17384:17416   */\n      dup6\n      dup2\n      and\n        /* \"#utility.yul\":17366:17417   */\n      dup3\n      mstore\n        /* \"#utility.yul\":17453:17485   */\n      dup5\n      and\n        /* \"#utility.yul\":17448:17450   */\n      0x20\n        /* \"#utility.yul\":17433:17451   */\n      dup3\n      add\n        /* \"#utility.yul\":17426:17486   */\n      mstore\n        /* \"#utility.yul\":17517:17519   */\n      0x40\n        /* \"#utility.yul\":17502:17520   */\n      dup2\n      add\n        /* \"#utility.yul\":17495:17529   */\n      dup4\n      swap1\n      mstore\n        /* \"#utility.yul\":17565:17568   */\n      0x80\n        /* \"#utility.yul\":17560:17562   */\n      0x60\n        /* \"#utility.yul\":17545:17563   */\n      dup3\n      add\n        /* \"#utility.yul\":17538:17569   */\n      dup2\n      swap1\n      mstore\n      0x00\n      swap1\n        /* \"#utility.yul\":17586:17632   */\n      tag_226\n      swap1\n        /* \"#utility.yul\":17612:17631   */\n      dup4\n      add\n        /* \"#utility.yul\":17604:17610   */\n      dup5\n        /* \"#utility.yul\":17586:17632   */\n      tag_302\n      jump\t// in\n        /* \"#utility.yul\":17643:17892   */\n    tag_288:\n        /* \"#utility.yul\":17712:17718   */\n      0x00\n        /* \"#utility.yul\":17765:17767   */\n      0x20\n        /* \"#utility.yul\":17753:17762   */\n      dup3\n        /* \"#utility.yul\":17744:17751   */\n      dup5\n        /* \"#utility.yul\":17740:17763   */\n      sub\n        /* \"#utility.yul\":17736:17768   */\n      slt\n        /* \"#utility.yul\":17733:17785   */\n      iszero\n      tag_446\n      jumpi\n        /* \"#utility.yul\":17781:17782   */\n      0x00\n        /* \"#utility.yul\":17778:17779   */\n      dup1\n        /* \"#utility.yul\":17771:17783   */\n      revert\n        /* \"#utility.yul\":17733:17785   */\n    tag_446:\n        /* \"#utility.yul\":17813:17822   */\n      dup2\n        /* \"#utility.yul\":17807:17823   */\n      mload\n        /* \"#utility.yul\":17832:17862   */\n      tag_214\n        /* \"#utility.yul\":17856:17861   */\n      dup2\n        /* \"#utility.yul\":17832:17862   */\n      tag_301\n      jump\t// in\n\n    auxdata: 0xa26469706673582212206414d4aaff31cb69a808199eb301d2b4f2a63a2ae6410dcc2f15224f641aeeb464736f6c634300081a0033\n}\n",
				"bytecode": {
					"linkReferences": {},
					"object": "60806040525f600955348015610013575f80fd5b50604051611bdc380380611bdc83398101604081905261003291610110565b600480546001600160a01b0319163317905560056100508482610223565b50600661005d8382610223565b50600761006a8282610223565b505050506102dd565b634e487b7160e01b5f52604160045260245ffd5b5f82601f830112610096575f80fd5b81516001600160401b038111156100af576100af610073565b604051601f8201601f19908116603f011681016001600160401b03811182821017156100dd576100dd610073565b6040528181528382016020018510156100f4575f80fd5b8160208501602083015e5f918101602001919091529392505050565b5f805f60608486031215610122575f80fd5b83516001600160401b03811115610137575f80fd5b61014386828701610087565b602086015190945090506001600160401b03811115610160575f80fd5b61016c86828701610087565b604086015190935090506001600160401b03811115610189575f80fd5b61019586828701610087565b9150509250925092565b600181811c908216806101b357607f821691505b6020821081036101d157634e487b7160e01b5f52602260045260245ffd5b50919050565b601f82111561021e57805f5260205f20601f840160051c810160208510156101fc5750805b601f840160051c820191505b8181101561021b575f8155600101610208565b50505b505050565b81516001600160401b0381111561023c5761023c610073565b6102508161024a845461019f565b846101d7565b6020601f821160018114610282575f831561026b5750848201515b5f19600385901b1c1916600184901b17845561021b565b5f84815260208120601f198516915b828110156102b15787850151825560209485019460019092019101610291565b50848210156102ce57868401515f19600387901b60f8161c191681555b50505050600190811b01905550565b6118f2806102ea5f395ff3fe608060405234801561000f575f80fd5b5060043610610153575f3560e01c80636352211e116100bf578063b88d4fde11610079578063b88d4fde14610327578063c87b56dd1461033a578063d0def5211461034d578063d204c45e14610360578063e985e9c514610373578063f6dda93614610386575f80fd5b80636352211e146102ab57806370a08231146102be5780638da5cb5b146102d157806395d89b41146102e4578063a22cb465146102ec578063acdeb5b9146102ff575f80fd5b806318160ddd1161011057806318160ddd1461022957806323b872dd1461024057806327e235e31461025357806342842e0e1461027257806342966c681461028557806355f804b314610298575f80fd5b806301ffc9a714610157578063025e7c271461017f57806306fdde03146101bf578063081812fc146101d4578063095ea7b3146101e75780630d95e054146101fc575b5f80fd5b61016a61016536600461114f565b610399565b60405190151581526020015b60405180910390f35b6101a761018d36600461116a565b60016020525f90815260409020546001600160a01b031681565b6040516001600160a01b039091168152602001610176565b6101c76103ea565b60405161017691906111af565b6101a76101e236600461116a565b61047a565b6101fa6101f53660046111dc565b610514565b005b61016a61020a366004611204565b600360209081525f928352604080842090915290825290205460ff1681565b61023260095481565b604051908152602001610176565b6101fa61024e366004611235565b610687565b61023261026136600461126f565b5f6020819052908152604090205481565b6101fa610280366004611235565b610697565b6101fa61029336600461116a565b6106b1565b6101fa6102a6366004611327565b610726565b6101a76102b936600461116a565b610790565b6102326102cc36600461126f565b61079a565b6004546101a7906001600160a01b031681565b6101c761081f565b6101fa6102fa366004611359565b61082e565b6101a761030d36600461116a565b60026020525f90815260409020546001600160a01b031681565b6101fa6103353660046113d7565b610913565b6101c761034836600461116a565b61095b565b61023261035b366004611441565b610a3b565b61023261036e36600461148c565b610a4d565b61016a610381366004611204565b610aa3565b6102326103943660046114db565b610b1e565b5f6001600160e01b031982166380ac58cd60e01b14806103c957506001600160e01b03198216635b5e139f60e01b145b806103e457506001600160e01b031982166301ffc9a760e01b145b92915050565b6060600580546103f99061153e565b80601f01602080910402602001604051908101604052809291908181526020018280546104259061153e565b80156104705780601f1061044757610100808354040283529160200191610470565b820191905f5260205f20905b81548152906001019060200180831161045357829003601f168201915b5050505050905090565b5f818152600160205260408120546001600160a01b0316806104f85760405162461bcd60e51b815260206004820152602c60248201527f4552433732313a20617070726f76656420717565727920666f72206e6f6e657860448201526b34b9ba32b73a103a37b5b2b760a11b60648201526084015b60405180910390fd5b50505f908152600260205260409020546001600160a01b031690565b5f818152600160205260409020546001600160a01b03163381148061053e575061053e8133610aa3565b61055a5760405162461bcd60e51b81526004016104ef90611576565b6001600160a01b03811633146105825760405162461bcd60e51b81526004016104ef90611576565b6001600160a01b0383166105a85760405162461bcd60e51b81526004016104ef906115d3565b826001600160a01b0316816001600160a01b0316036106055760405162461bcd60e51b815260206004820152601960248201527822a9219b99189d1030b8383937bb32903a379031b0b63632b960391b60448201526064016104ef565b61060f8184610aa3565b1561062c5760405162461bcd60e51b81526004016104ef90611576565b5f8281526002602052604080822080546001600160a01b0319166001600160a01b0387811691821790925591518593918516917f8c5be1e5ebec7d5bd14f71427d1e84f3dd0314c0f7b2291e5b200ac8c7c3b92591a4505050565b610692838383610b9b565b505050565b61069283838360405180602001604052805f815250610d8b565b6106ba81610dc3565b6001600160a01b0316336001600160a01b03161461071a5760405162461bcd60e51b815260206004820152601f60248201527f4552433732313a2063616c6c6572206973206e6f7420746865206f776e65720060448201526064016104ef565b61072381610e39565b50565b6004546001600160a01b031633146107805760405162461bcd60e51b815260206004820152601a60248201527f6f6e6c79206f776e65722063616e20736574206261736555524900000000000060448201526064016104ef565b600761078c828261165a565b5050565b5f6103e482610dc3565b5f6001600160a01b0382166108045760405162461bcd60e51b815260206004820152602a60248201527f4552433732313a2062616c616e636520717565727920666f7220746865207a65604482015269726f206164647265737360b01b60648201526084016104ef565b506001600160a01b03165f9081526020819052604090205490565b6060600680546103f99061153e565b6001600160a01b0382166108545760405162461bcd60e51b81526004016104ef906115d3565b336001600160a01b038316036108a85760405162461bcd60e51b815260206004820152601960248201527822a9219b99189d1030b8383937bb32903a379031b0b63632b960391b60448201526064016104ef565b335f8181526003602090815260408083206001600160a01b03871680855290835292819020805460ff191686151590811790915590519081529192917f17307eab39ab6107e8899845ad3d59bd9653f200f220920489ca2b5937696c31910160405180910390a35050565b61095485858585858080601f0160208091040260200160405190810160405280939291908181526020018383808284375f92019190915250610d8b92505050565b5050505050565b5f818152600160205260409020546060906001600160a01b03166109d95760405162461bcd60e51b815260206004820152602f60248201527f4552433732314d657461646174613a2055524920717565727920666f72206e6f60448201526e3732bc34b9ba32b73a103a37b5b2b760891b60648201526084016104ef565b5f600780546109e79061153e565b905011610a025760405180602001604052805f8152506103e4565b600760085f8481526020019081526020015f20604051602001610a26929190611783565b60405160208183030381529060405292915050565b5f610a468383610e4c565b9392505050565b5f610a9b8484848080601f0160208091040260200160405190810160405280939291908181526020018383808284375f92018290525060408051602081019091529081529250610f16915050565b949350505050565b5f6001600160a01b038316610aca5760405162461bcd60e51b81526004016104ef90611797565b6001600160a01b038216610af05760405162461bcd60e51b81526004016104ef90611797565b506001600160a01b039182165f90815260036020908152604080832093909416825291909152205460ff1690565b5f610b918686868080601f0160208091040260200160405190810160405280939291908181526020018383808284375f9201919091525050604080516020601f8a0181900481028201810190925288815292508891508790819084018382808284375f92019190915250610f1692505050565b9695505050505050565b5f818152600160205260409020546001600160a01b039081169084168114610c175760405162461bcd60e51b815260206004820152602960248201527f4552433732313a207472616e73666572206f6620746f6b656e2074686174206960448201526839903737ba1037bbb760b91b60648201526084016104ef565b6001600160a01b038316610c795760405162461bcd60e51b8152602060048201526024808201527f4552433732313a207472616e7366657220746f20746865207a65726f206164646044820152637265737360e01b60648201526084016104ef565b6001600160a01b038116331480610c955750610c958133610aa3565b80610cb557505f828152600260205260409020546001600160a01b031633145b610d275760405162461bcd60e51b815260206004820152603960248201527f4552433732313a207472616e736665722063616c6c6572206973206e6f74206f60448201527f776e6572206e6f7220617070726f76656420666f7220616c6c0000000000000060648201526084016104ef565b610d3082610f48565b610d3a8483610f81565b610d448383610fcc565b81836001600160a01b0316856001600160a01b03167fddf252ad1be2c89b69c2b068fc378daa952ba7f163c4a11628f55a4df523b3ef60405160405180910390a450505050565b610d96848484610b9b565b610da1848483611026565b610dbd5760405162461bcd60e51b81526004016104ef906117e3565b50505050565b5f818152600160205260408120546001600160a01b0316806103e45760405162461bcd60e51b815260206004820152602960248201527f4552433732313a206f776e657220717565727920666f72206e6f6e657869737460448201526832b73a103a37b5b2b760b91b60648201526084016104ef565b610723610e4582610dc3565b5f83610b9b565b5f6001600160a01b038316610ea35760405162461bcd60e51b815260206004820181905260248201527f4552433732313a206d696e7420746f20746865207a65726f206164647265737360448201526064016104ef565b600160095f828254610eb59190611849565b92505081905550610ec883600954610fcc565b6009546040516001600160a01b038516905f907fddf252ad1be2c89b69c2b068fc378daa952ba7f163c4a11628f55a4df523b3ef908290a4610f0c60095483611123565b5060095492915050565b5f610f225f8584611026565b610f3e5760405162461bcd60e51b81526004016104ef906117e3565b610a9b8484610e4c565b5f818152600260205260409020546001600160a01b031615610723575f90815260026020526040902080546001600160a01b0319169055565b6001600160a01b0382165f908152602081905260408120805460019290610fa990849061185c565b90915550505f90815260016020526040902080546001600160a01b031916905550565b6001600160a01b0382165f908152602081905260408120805460019290610ff4908490611849565b90915550505f90815260016020526040902080546001600160a01b0319166001600160a01b0392909216919091179055565b5f826001600160a01b03163b5f0361104057506001610a46565b600954604051630a85bd0160e11b81526001600160a01b0385169163150b7a0291611074913391899190889060040161186f565b6020604051808303815f875af19250505080156110ae575060408051601f3d908101601f191682019092526110ab918101906118a1565b60015b611109573d8080156110db576040519150601f19603f3d011682016040523d82523d5f602084013e6110e0565b606091505b5080515f036111015760405162461bcd60e51b81526004016104ef906117e3565b805181602001fd5b6001600160e01b031916630a85bd0160e11b149050610a46565b5f828152600860205260409020610692828261165a565b6001600160e01b031981168114610723575f80fd5b5f6020828403121561115f575f80fd5b8135610a468161113a565b5f6020828403121561117a575f80fd5b5035919050565b5f81518084528060208401602086015e5f602082860101526020601f19601f83011685010191505092915050565b602081525f610a466020830184611181565b80356001600160a01b03811681146111d7575f80fd5b919050565b5f80604083850312156111ed575f80fd5b6111f6836111c1565b946020939093013593505050565b5f8060408385031215611215575f80fd5b61121e836111c1565b915061122c602084016111c1565b90509250929050565b5f805f60608486031215611247575f80fd5b611250846111c1565b925061125e602085016111c1565b929592945050506040919091013590565b5f6020828403121561127f575f80fd5b610a46826111c1565b634e487b7160e01b5f52604160045260245ffd5b5f82601f8301126112ab575f80fd5b813567ffffffffffffffff8111156112c5576112c5611288565b604051601f8201601f19908116603f0116810167ffffffffffffffff811182821017156112f4576112f4611288565b60405281815283820160200185101561130b575f80fd5b816020850160208301375f918101602001919091529392505050565b5f60208284031215611337575f80fd5b813567ffffffffffffffff81111561134d575f80fd5b610a9b8482850161129c565b5f806040838503121561136a575f80fd5b611373836111c1565b915060208301358015158114611387575f80fd5b809150509250929050565b5f8083601f8401126113a2575f80fd5b50813567ffffffffffffffff8111156113b9575f80fd5b6020830191508360208285010111156113d0575f80fd5b9250929050565b5f805f805f608086880312156113eb575f80fd5b6113f4866111c1565b9450611402602087016111c1565b935060408601359250606086013567ffffffffffffffff811115611424575f80fd5b61143088828901611392565b969995985093965092949392505050565b5f8060408385031215611452575f80fd5b61145b836111c1565b9150602083013567ffffffffffffffff811115611476575f80fd5b6114828582860161129c565b9150509250929050565b5f805f6040848603121561149e575f80fd5b6114a7846111c1565b9250602084013567ffffffffffffffff8111156114c2575f80fd5b6114ce86828701611392565b9497909650939450505050565b5f805f805f606086880312156114ef575f80fd5b6114f8866111c1565b9450602086013567ffffffffffffffff811115611513575f80fd5b61151f88828901611392565b909550935050604086013567ffffffffffffffff811115611424575f80fd5b600181811c9082168061155257607f821691505b60208210810361157057634e487b7160e01b5f52602260045260245ffd5b50919050565b60208082526038908201527f4552433732313a20617070726f76652063616c6c6572206973206e6f74206f7760408201527f6e6572206e6f7220617070726f76656420666f7220616c6c0000000000000000606082015260800190565b60208082526023908201527f4552433732313a20617070726f766520746f20746865207a65726f206164647260408201526265737360e81b606082015260800190565b601f82111561069257805f5260205f20601f840160051c8101602085101561163b5750805b601f840160051c820191505b81811015610954575f8155600101611647565b815167ffffffffffffffff81111561167457611674611288565b61168881611682845461153e565b84611616565b6020601f8211600181146116ba575f83156116a35750848201515b5f19600385901b1c1916600184901b178455610954565b5f84815260208120601f198516915b828110156116e957878501518255602094850194600190920191016116c9565b508482101561170657868401515f19600387901b60f8161c191681555b50505050600190811b01905550565b5f81546117218161153e565b600182168015611738576001811461174d5761177a565b60ff198316865281151582028601935061177a565b845f5260205f205f5b8381101561177257815488820152600190910190602001611756565b505081860193505b50505092915050565b5f610a9b6117918386611715565b84611715565b6020808252602c908201527f4552433732313a206f70657261746f7220717565727920666f72206e6f6e657860408201526b34b9ba32b73a103a37b5b2b760a11b606082015260800190565b60208082526032908201527f4552433732313a207472616e7366657220746f206e6f6e20455243373231526560408201527131b2b4bb32b91034b6b83632b6b2b73a32b960711b606082015260800190565b634e487b7160e01b5f52601160045260245ffd5b808201808211156103e4576103e4611835565b818103818111156103e4576103e4611835565b6001600160a01b03858116825284166020820152604081018390526080606082018190525f90610b9190830184611181565b5f602082840312156118b1575f80fd5b8151610a468161113a56fea26469706673582212206414d4aaff31cb69a808199eb301d2b4f2a63a2ae6410dcc2f15224f641aeeb464736f6c634300081a0033",
					"opcodes": "PUSH1 0x80 PUSH1 0x40 MSTORE PUSH0 PUSH1 0x9 SSTORE CALLVALUE DUP1 ISZERO PUSH2 0x13 JUMPI PUSH0 DUP1 REVERT JUMPDEST POP PUSH1 0x40 MLOAD PUSH2 0x1BDC CODESIZE SUB DUP1 PUSH2 0x1BDC DUP4 CODECOPY DUP2 ADD PUSH1 0x40 DUP2 SWAP1 MSTORE PUSH2 0x32 SWAP2 PUSH2 0x110 JUMP JUMPDEST PUSH1 0x4 DUP1 SLOAD PUSH1 0x1 PUSH1 0x1 PUSH1 0xA0 SHL SUB NOT AND CALLER OR SWAP1 SSTORE PUSH1 0x5 PUSH2 0x50 DUP5 DUP3 PUSH2 0x223 JUMP JUMPDEST POP PUSH1 0x6 PUSH2 0x5D DUP4 DUP3 PUSH2 0x223 JUMP JUMPDEST POP PUSH1 0x7 PUSH2 0x6A DUP3 DUP3 PUSH2 0x223 JUMP JUMPDEST POP POP POP POP PUSH2 0x2DD JUMP JUMPDEST PUSH4 0x4E487B71 PUSH1 0xE0 SHL PUSH0 MSTORE PUSH1 0x41 PUSH1 0x4 MSTORE PUSH1 0x24 PUSH0 REVERT JUMPDEST PUSH0 DUP3 PUSH1 0x1F DUP4 ADD SLT PUSH2 0x96 JUMPI PUSH0 DUP1 REVERT JUMPDEST DUP2 MLOAD PUSH1 0x1 PUSH1 0x1 PUSH1 0x40 SHL SUB DUP2 GT ISZERO PUSH2 0xAF JUMPI PUSH2 0xAF PUSH2 0x73 JUMP JUMPDEST PUSH1 0x40 MLOAD PUSH1 0x1F DUP3 ADD PUSH1 0x1F NOT SWAP1 DUP2 AND PUSH1 0x3F ADD AND DUP2 ADD PUSH1 0x1 PUSH1 0x1 PUSH1 0x40 SHL SUB DUP2 GT DUP3 DUP3 LT OR ISZERO PUSH2 0xDD JUMPI PUSH2 0xDD PUSH2 0x73 JUMP JUMPDEST PUSH1 0x40 MSTORE DUP2 DUP2 MSTORE DUP4 DUP3 ADD PUSH1 0x20 ADD DUP6 LT ISZERO PUSH2 0xF4 JUMPI PUSH0 DUP1 REVERT JUMPDEST DUP2 PUSH1 0x20 DUP6 ADD PUSH1 0x20 DUP4 ADD MCOPY PUSH0 SWAP2 DUP2 ADD PUSH1 0x20 ADD SWAP2 SWAP1 SWAP2 MSTORE SWAP4 SWAP3 POP POP POP JUMP JUMPDEST PUSH0 DUP1 PUSH0 PUSH1 0x60 DUP5 DUP7 SUB SLT ISZERO PUSH2 0x122 JUMPI PUSH0 DUP1 REVERT JUMPDEST DUP4 MLOAD PUSH1 0x1 PUSH1 0x1 PUSH1 0x40 SHL SUB DUP2 GT ISZERO PUSH2 0x137 JUMPI PUSH0 DUP1 REVERT JUMPDEST PUSH2 0x143 DUP7 DUP3 DUP8 ADD PUSH2 0x87 JUMP JUMPDEST PUSH1 0x20 DUP7 ADD MLOAD SWAP1 SWAP5 POP SWAP1 POP PUSH1 0x1 PUSH1 0x1 PUSH1 0x40 SHL SUB DUP2 GT ISZERO PUSH2 0x160 JUMPI PUSH0 DUP1 REVERT JUMPDEST PUSH2 0x16C DUP7 DUP3 DUP8 ADD PUSH2 0x87 JUMP JUMPDEST PUSH1 0x40 DUP7 ADD MLOAD SWAP1 SWAP4 POP SWAP1 POP PUSH1 0x1 PUSH1 0x1 PUSH1 0x40 SHL SUB DUP2 GT ISZERO PUSH2 0x189 JUMPI PUSH0 DUP1 REVERT JUMPDEST PUSH2 0x195 DUP7 DUP3 DUP8 ADD PUSH2 0x87 JUMP JUMPDEST SWAP2 POP POP SWAP3 POP SWAP3 POP SWAP3 JUMP JUMPDEST PUSH1 0x1 DUP2 DUP2 SHR SWAP1 DUP3 AND DUP1 PUSH2 0x1B3 JUMPI PUSH1 0x7F DUP3 AND SWAP2 POP JUMPDEST PUSH1 0x20 DUP3 LT DUP2 SUB PUSH2 0x1D1 JUMPI PUSH4 0x4E487B71 PUSH1 0xE0 SHL PUSH0 MSTORE PUSH1 0x22 PUSH1 0x4 MSTORE PUSH1 0x24 PUSH0 REVERT JUMPDEST POP SWAP2 SWAP1 POP JUMP JUMPDEST PUSH1 0x1F DUP3 GT ISZERO PUSH2 0x21E JUMPI DUP1 PUSH0 MSTORE PUSH1 0x20 PUSH0 KECCAK256 PUSH1 0x1F DUP5 ADD PUSH1 0x5 SHR DUP2 ADD PUSH1 0x20 DUP6 LT ISZERO PUSH2 0x1FC JUMPI POP DUP1 JUMPDEST PUSH1 0x1F DUP5 ADD PUSH1 0x5 SHR DUP3 ADD SWAP2 POP JUMPDEST DUP2 DUP2 LT ISZERO PUSH2 0x21B JUMPI PUSH0 DUP2 SSTORE PUSH1 0x1 ADD PUSH2 0x208 JUMP JUMPDEST POP POP JUMPDEST POP POP POP JUMP JUMPDEST DUP2 MLOAD PUSH1 0x1 PUSH1 0x1 PUSH1 0x40 SHL SUB DUP2 GT ISZERO PUSH2 0x23C JUMPI PUSH2 0x23C PUSH2 0x73 JUMP JUMPDEST PUSH2 0x250 DUP2 PUSH2 0x24A DUP5 SLOAD PUSH2 0x19F JUMP JUMPDEST DUP5 PUSH2 0x1D7 JUMP JUMPDEST PUSH1 0x20 PUSH1 0x1F DUP3 GT PUSH1 0x1 DUP2 EQ PUSH2 0x282 JUMPI PUSH0 DUP4 ISZERO PUSH2 0x26B JUMPI POP DUP5 DUP3 ADD MLOAD JUMPDEST PUSH0 NOT PUSH1 0x3 DUP6 SWAP1 SHL SHR NOT AND PUSH1 0x1 DUP5 SWAP1 SHL OR DUP5 SSTORE PUSH2 0x21B JUMP JUMPDEST PUSH0 DUP5 DUP2 MSTORE PUSH1 0x20 DUP2 KECCAK256 PUSH1 0x1F NOT DUP6 AND SWAP2 JUMPDEST DUP3 DUP2 LT ISZERO PUSH2 0x2B1 JUMPI DUP8 DUP6 ADD MLOAD DUP3 SSTORE PUSH1 0x20 SWAP5 DUP6 ADD SWAP5 PUSH1 0x1 SWAP1 SWAP3 ADD SWAP2 ADD PUSH2 0x291 JUMP JUMPDEST POP DUP5 DUP3 LT ISZERO PUSH2 0x2CE JUMPI DUP7 DUP5 ADD MLOAD PUSH0 NOT PUSH1 0x3 DUP8 SWAP1 SHL PUSH1 0xF8 AND SHR NOT AND DUP2 SSTORE JUMPDEST POP POP POP POP PUSH1 0x1 SWAP1 DUP2 SHL ADD SWAP1 SSTORE POP JUMP JUMPDEST PUSH2 0x18F2 DUP1 PUSH2 0x2EA PUSH0 CODECOPY PUSH0 RETURN INVALID PUSH1 0x80 PUSH1 0x40 MSTORE CALLVALUE DUP1 ISZERO PUSH2 0xF JUMPI PUSH0 DUP1 REVERT JUMPDEST POP PUSH1 0x4 CALLDATASIZE LT PUSH2 0x153 JUMPI PUSH0 CALLDATALOAD PUSH1 0xE0 SHR DUP1 PUSH4 0x6352211E GT PUSH2 0xBF JUMPI DUP1 PUSH4 0xB88D4FDE GT PUSH2 0x79 JUMPI DUP1 PUSH4 0xB88D4FDE EQ PUSH2 0x327 JUMPI DUP1 PUSH4 0xC87B56DD EQ PUSH2 0x33A JUMPI DUP1 PUSH4 0xD0DEF521 EQ PUSH2 0x34D JUMPI DUP1 PUSH4 0xD204C45E EQ PUSH2 0x360 JUMPI DUP1 PUSH4 0xE985E9C5 EQ PUSH2 0x373 JUMPI DUP1 PUSH4 0xF6DDA936 EQ PUSH2 0x386 JUMPI PUSH0 DUP1 REVERT JUMPDEST DUP1 PUSH4 0x6352211E EQ PUSH2 0x2AB JUMPI DUP1 PUSH4 0x70A08231 EQ PUSH2 0x2BE JUMPI DUP1 PUSH4 0x8DA5CB5B EQ PUSH2 0x2D1 JUMPI DUP1 PUSH4 0x95D89B41 EQ PUSH2 0x2E4 JUMPI DUP1 PUSH4 0xA22CB465 EQ PUSH2 0x2EC JUMPI DUP1 PUSH4 0xACDEB5B9 EQ PUSH2 0x2FF JUMPI PUSH0 DUP1 REVERT JUMPDEST DUP1 PUSH4 0x18160DDD GT PUSH2 0x110 JUMPI DUP1 PUSH4 0x18160DDD EQ PUSH2 0x229 JUMPI DUP1 PUSH4 0x23B872DD EQ PUSH2 0x240 JUMPI DUP1 PUSH4 0x27E235E3 EQ PUSH2 0x253 JUMPI DUP1 PUSH4 0x42842E0E EQ PUSH2 0x272 JUMPI DUP1 PUSH4 0x42966C68 EQ PUSH2 0x285 JUMPI DUP1 PUSH4 0x55F804B3 EQ PUSH2 0x298 JUMPI PUSH0 DUP1 REVERT JUMPDEST DUP1 PUSH4 0x1FFC9A7 EQ PUSH2 0x157 JUMPI DUP1 PUSH4 0x25E7C27 EQ PUSH2 0x17F JUMPI DUP1 PUSH4 0x6FDDE03 EQ PUSH2 0x1BF JUMPI DUP1 PUSH4 0x81812FC EQ PUSH2 0x1D4 JUMPI DUP1 PUSH4 0x95EA7B3 EQ PUSH2 0x1E7 JUMPI DUP1 PUSH4 0xD95E054 EQ PUSH2 0x1FC JUMPI JUMPDEST PUSH0 DUP1 REVERT JUMPDEST PUSH2 0x16A PUSH2 0x165 CALLDATASIZE PUSH1 0x4 PUSH2 0x114F JUMP JUMPDEST PUSH2 0x399 JUMP JUMPDEST PUSH1 0x40 MLOAD SWAP1 ISZERO ISZERO DUP2 MSTORE PUSH1 0x20 ADD JUMPDEST PUSH1 0x40 MLOAD DUP1 SWAP2 SUB SWAP1 RETURN JUMPDEST PUSH2 0x1A7 PUSH2 0x18D CALLDATASIZE PUSH1 0x4 PUSH2 0x116A JUMP JUMPDEST PUSH1 0x1 PUSH1 0x20 MSTORE PUSH0 SWAP1 DUP2 MSTORE PUSH1 0x40 SWAP1 KECCAK256 SLOAD PUSH1 0x1 PUSH1 0x1 PUSH1 0xA0 SHL SUB AND DUP2 JUMP JUMPDEST PUSH1 0x40 MLOAD PUSH1 0x1 PUSH1 0x1 PUSH1 0xA0 SHL SUB SWAP1 SWAP2 AND DUP2 MSTORE PUSH1 0x20 ADD PUSH2 0x176 JUMP JUMPDEST PUSH2 0x1C7 PUSH2 0x3EA JUMP JUMPDEST PUSH1 0x40 MLOAD PUSH2 0x176 SWAP2 SWAP1 PUSH2 0x11AF JUMP JUMPDEST PUSH2 0x1A7 PUSH2 0x1E2 CALLDATASIZE PUSH1 0x4 PUSH2 0x116A JUMP JUMPDEST PUSH2 0x47A JUMP JUMPDEST PUSH2 0x1FA PUSH2 0x1F5 CALLDATASIZE PUSH1 0x4 PUSH2 0x11DC JUMP JUMPDEST PUSH2 0x514 JUMP JUMPDEST STOP JUMPDEST PUSH2 0x16A PUSH2 0x20A CALLDATASIZE PUSH1 0x4 PUSH2 0x1204 JUMP JUMPDEST PUSH1 0x3 PUSH1 0x20 SWAP1 DUP2 MSTORE PUSH0 SWAP3 DUP4 MSTORE PUSH1 0x40 DUP1 DUP5 KECCAK256 SWAP1 SWAP2 MSTORE SWAP1 DUP3 MSTORE SWAP1 KECCAK256 SLOAD PUSH1 0xFF AND DUP2 JUMP JUMPDEST PUSH2 0x232 PUSH1 0x9 SLOAD DUP2 JUMP JUMPDEST PUSH1 0x40 MLOAD SWAP1 DUP2 MSTORE PUSH1 0x20 ADD PUSH2 0x176 JUMP JUMPDEST PUSH2 0x1FA PUSH2 0x24E CALLDATASIZE PUSH1 0x4 PUSH2 0x1235 JUMP JUMPDEST PUSH2 0x687 JUMP JUMPDEST PUSH2 0x232 PUSH2 0x261 CALLDATASIZE PUSH1 0x4 PUSH2 0x126F JUMP JUMPDEST PUSH0 PUSH1 0x20 DUP2 SWAP1 MSTORE SWAP1 DUP2 MSTORE PUSH1 0x40 SWAP1 KECCAK256 SLOAD DUP2 JUMP JUMPDEST PUSH2 0x1FA PUSH2 0x280 CALLDATASIZE PUSH1 0x4 PUSH2 0x1235 JUMP JUMPDEST PUSH2 0x697 JUMP JUMPDEST PUSH2 0x1FA PUSH2 0x293 CALLDATASIZE PUSH1 0x4 PUSH2 0x116A JUMP JUMPDEST PUSH2 0x6B1 JUMP JUMPDEST PUSH2 0x1FA PUSH2 0x2A6 CALLDATASIZE PUSH1 0x4 PUSH2 0x1327 JUMP JUMPDEST PUSH2 0x726 JUMP JUMPDEST PUSH2 0x1A7 PUSH2 0x2B9 CALLDATASIZE PUSH1 0x4 PUSH2 0x116A JUMP JUMPDEST PUSH2 0x790 JUMP JUMPDEST PUSH2 0x232 PUSH2 0x2CC CALLDATASIZE PUSH1 0x4 PUSH2 0x126F JUMP JUMPDEST PUSH2 0x79A JUMP JUMPDEST PUSH1 0x4 SLOAD PUSH2 0x1A7 SWAP1 PUSH1 0x1 PUSH1 0x1 PUSH1 0xA0 SHL SUB AND DUP2 JUMP JUMPDEST PUSH2 0x1C7 PUSH2 0x81F JUMP JUMPDEST PUSH2 0x1FA PUSH2 0x2FA CALLDATASIZE PUSH1 0x4 PUSH2 0x1359 JUMP JUMPDEST PUSH2 0x82E JUMP JUMPDEST PUSH2 0x1A7 PUSH2 0x30D CALLDATASIZE PUSH1 0x4 PUSH2 0x116A JUMP JUMPDEST PUSH1 0x2 PUSH1 0x20 MSTORE PUSH0 SWAP1 DUP2 MSTORE PUSH1 0x40 SWAP1 KECCAK256 SLOAD PUSH1 0x1 PUSH1 0x1 PUSH1 0xA0 SHL SUB AND DUP2 JUMP JUMPDEST PUSH2 0x1FA PUSH2 0x335 CALLDATASIZE PUSH1 0x4 PUSH2 0x13D7 JUMP JUMPDEST PUSH2 0x913 JUMP JUMPDEST PUSH2 0x1C7 PUSH2 0x348 CALLDATASIZE PUSH1 0x4 PUSH2 0x116A JUMP JUMPDEST PUSH2 0x95B JUMP JUMPDEST PUSH2 0x232 PUSH2 0x35B CALLDATASIZE PUSH1 0x4 PUSH2 0x1441 JUMP JUMPDEST PUSH2 0xA3B JUMP JUMPDEST PUSH2 0x232 PUSH2 0x36E CALLDATASIZE PUSH1 0x4 PUSH2 0x148C JUMP JUMPDEST PUSH2 0xA4D JUMP JUMPDEST PUSH2 0x16A PUSH2 0x381 CALLDATASIZE PUSH1 0x4 PUSH2 0x1204 JUMP JUMPDEST PUSH2 0xAA3 JUMP JUMPDEST PUSH2 0x232 PUSH2 0x394 CALLDATASIZE PUSH1 0x4 PUSH2 0x14DB JUMP JUMPDEST PUSH2 0xB1E JUMP JUMPDEST PUSH0 PUSH1 0x1 PUSH1 0x1 PUSH1 0xE0 SHL SUB NOT DUP3 AND PUSH4 0x80AC58CD PUSH1 0xE0 SHL EQ DUP1 PUSH2 0x3C9 JUMPI POP PUSH1 0x1 PUSH1 0x1 PUSH1 0xE0 SHL SUB NOT DUP3 AND PUSH4 0x5B5E139F PUSH1 0xE0 SHL EQ JUMPDEST DUP1 PUSH2 0x3E4 JUMPI POP PUSH1 0x1 PUSH1 0x1 PUSH1 0xE0 SHL SUB NOT DUP3 AND PUSH4 0x1FFC9A7 PUSH1 0xE0 SHL EQ JUMPDEST SWAP3 SWAP2 POP POP JUMP JUMPDEST PUSH1 0x60 PUSH1 0x5 DUP1 SLOAD PUSH2 0x3F9 SWAP1 PUSH2 0x153E JUMP JUMPDEST DUP1 PUSH1 0x1F ADD PUSH1 0x20 DUP1 SWAP2 DIV MUL PUSH1 0x20 ADD PUSH1 0x40 MLOAD SWAP1 DUP2 ADD PUSH1 0x40 MSTORE DUP1 SWAP3 SWAP2 SWAP1 DUP2 DUP2 MSTORE PUSH1 0x20 ADD DUP3 DUP1 SLOAD PUSH2 0x425 SWAP1 PUSH2 0x153E JUMP JUMPDEST DUP1 ISZERO PUSH2 0x470 JUMPI DUP1 PUSH1 0x1F LT PUSH2 0x447 JUMPI PUSH2 0x100 DUP1 DUP4 SLOAD DIV MUL DUP4 MSTORE SWAP2 PUSH1 0x20 ADD SWAP2 PUSH2 0x470 JUMP JUMPDEST DUP3 ADD SWAP2 SWAP1 PUSH0 MSTORE PUSH1 0x20 PUSH0 KECCAK256 SWAP1 JUMPDEST DUP2 SLOAD DUP2 MSTORE SWAP1 PUSH1 0x1 ADD SWAP1 PUSH1 0x20 ADD DUP1 DUP4 GT PUSH2 0x453 JUMPI DUP3 SWAP1 SUB PUSH1 0x1F AND DUP3 ADD SWAP2 JUMPDEST POP POP POP POP POP SWAP1 POP SWAP1 JUMP JUMPDEST PUSH0 DUP2 DUP2 MSTORE PUSH1 0x1 PUSH1 0x20 MSTORE PUSH1 0x40 DUP2 KECCAK256 SLOAD PUSH1 0x1 PUSH1 0x1 PUSH1 0xA0 SHL SUB AND DUP1 PUSH2 0x4F8 JUMPI PUSH1 0x40 MLOAD PUSH3 0x461BCD PUSH1 0xE5 SHL DUP2 MSTORE PUSH1 0x20 PUSH1 0x4 DUP3 ADD MSTORE PUSH1 0x2C PUSH1 0x24 DUP3 ADD MSTORE PUSH32 0x4552433732313A20617070726F76656420717565727920666F72206E6F6E6578 PUSH1 0x44 DUP3 ADD MSTORE PUSH12 0x34B9BA32B73A103A37B5B2B7 PUSH1 0xA1 SHL PUSH1 0x64 DUP3 ADD MSTORE PUSH1 0x84 ADD JUMPDEST PUSH1 0x40 MLOAD DUP1 SWAP2 SUB SWAP1 REVERT JUMPDEST POP POP PUSH0 SWAP1 DUP2 MSTORE PUSH1 0x2 PUSH1 0x20 MSTORE PUSH1 0x40 SWAP1 KECCAK256 SLOAD PUSH1 0x1 PUSH1 0x1 PUSH1 0xA0 SHL SUB AND SWAP1 JUMP JUMPDEST PUSH0 DUP2 DUP2 MSTORE PUSH1 0x1 PUSH1 0x20 MSTORE PUSH1 0x40 SWAP1 KECCAK256 SLOAD PUSH1 0x1 PUSH1 0x1 PUSH1 0xA0 SHL SUB AND CALLER DUP2 EQ DUP1 PUSH2 0x53E JUMPI POP PUSH2 0x53E DUP2 CALLER PUSH2 0xAA3 JUMP JUMPDEST PUSH2 0x55A JUMPI PUSH1 0x40 MLOAD PUSH3 0x461BCD PUSH1 0xE5 SHL DUP2 MSTORE PUSH1 0x4 ADD PUSH2 0x4EF SWAP1 PUSH2 0x1576 JUMP JUMPDEST PUSH1 0x1 PUSH1 0x1 PUSH1 0xA0 SHL SUB DUP2 AND CALLER EQ PUSH2 0x582 JUMPI PUSH1 0x40 MLOAD PUSH3 0x461BCD PUSH1 0xE5 SHL DUP2 MSTORE PUSH1 0x4 ADD PUSH2 0x4EF SWAP1 PUSH2 0x1576 JUMP JUMPDEST PUSH1 0x1 PUSH1 0x1 PUSH1 0xA0 SHL SUB DUP4 AND PUSH2 0x5A8 JUMPI PUSH1 0x40 MLOAD PUSH3 0x461BCD PUSH1 0xE5 SHL DUP2 MSTORE PUSH1 0x4 ADD PUSH2 0x4EF SWAP1 PUSH2 0x15D3 JUMP JUMPDEST DUP3 PUSH1 0x1 PUSH1 0x1 PUSH1 0xA0 SHL SUB AND DUP2 PUSH1 0x1 PUSH1 0x1 PUSH1 0xA0 SHL SUB AND SUB PUSH2 0x605 JUMPI PUSH1 0x40 MLOAD PUSH3 0x461BCD PUSH1 0xE5 SHL DUP2 MSTORE PUSH1 0x20 PUSH1 0x4 DUP3 ADD MSTORE PUSH1 0x19 PUSH1 0x24 DUP3 ADD MSTORE PUSH25 0x22A9219B99189D1030B8383937BB32903A379031B0B63632B9 PUSH1 0x39 SHL PUSH1 0x44 DUP3 ADD MSTORE PUSH1 0x64 ADD PUSH2 0x4EF JUMP JUMPDEST PUSH2 0x60F DUP2 DUP5 PUSH2 0xAA3 JUMP JUMPDEST ISZERO PUSH2 0x62C JUMPI PUSH1 0x40 MLOAD PUSH3 0x461BCD PUSH1 0xE5 SHL DUP2 MSTORE PUSH1 0x4 ADD PUSH2 0x4EF SWAP1 PUSH2 0x1576 JUMP JUMPDEST PUSH0 DUP3 DUP2 MSTORE PUSH1 0x2 PUSH1 0x20 MSTORE PUSH1 0x40 DUP1 DUP3 KECCAK256 DUP1 SLOAD PUSH1 0x1 PUSH1 0x1 PUSH1 0xA0 SHL SUB NOT AND PUSH1 0x1 PUSH1 0x1 PUSH1 0xA0 SHL SUB DUP8 DUP2 AND SWAP2 DUP3 OR SWAP1 SWAP3 SSTORE SWAP2 MLOAD DUP6 SWAP4 SWAP2 DUP6 AND SWAP2 PUSH32 0x8C5BE1E5EBEC7D5BD14F71427D1E84F3DD0314C0F7B2291E5B200AC8C7C3B925 SWAP2 LOG4 POP POP POP JUMP JUMPDEST PUSH2 0x692 DUP4 DUP4 DUP4 PUSH2 0xB9B JUMP JUMPDEST POP POP POP JUMP JUMPDEST PUSH2 0x692 DUP4 DUP4 DUP4 PUSH1 0x40 MLOAD DUP1 PUSH1 0x20 ADD PUSH1 0x40 MSTORE DUP1 PUSH0 DUP2 MSTORE POP PUSH2 0xD8B JUMP JUMPDEST PUSH2 0x6BA DUP2 PUSH2 0xDC3 JUMP JUMPDEST PUSH1 0x1 PUSH1 0x1 PUSH1 0xA0 SHL SUB AND CALLER PUSH1 0x1 PUSH1 0x1 PUSH1 0xA0 SHL SUB AND EQ PUSH2 0x71A JUMPI PUSH1 0x40 MLOAD PUSH3 0x461BCD PUSH1 0xE5 SHL DUP2 MSTORE PUSH1 0x20 PUSH1 0x4 DUP3 ADD MSTORE PUSH1 0x1F PUSH1 0x24 DUP3 ADD MSTORE PUSH32 0x4552433732313A2063616C6C6572206973206E6F7420746865206F776E657200 PUSH1 0x44 DUP3 ADD MSTORE PUSH1 0x64 ADD PUSH2 0x4EF JUMP JUMPDEST PUSH2 0x723 DUP2 PUSH2 0xE39 JUMP JUMPDEST POP JUMP JUMPDEST PUSH1 0x4 SLOAD PUSH1 0x1 PUSH1 0x1 PUSH1 0xA0 SHL SUB AND CALLER EQ PUSH2 0x780 JUMPI PUSH1 0x40 MLOAD PUSH3 0x461BCD PUSH1 0xE5 SHL DUP2 MSTORE PUSH1 0x20 PUSH1 0x4 DUP3 ADD MSTORE PUSH1 0x1A PUSH1 0x24 DUP3 ADD MSTORE PUSH32 0x6F6E6C79206F776E65722063616E207365742062617365555249000000000000 PUSH1 0x44 DUP3 ADD MSTORE PUSH1 0x64 ADD PUSH2 0x4EF JUMP JUMPDEST PUSH1 0x7 PUSH2 0x78C DUP3 DUP3 PUSH2 0x165A JUMP JUMPDEST POP POP JUMP JUMPDEST PUSH0 PUSH2 0x3E4 DUP3 PUSH2 0xDC3 JUMP JUMPDEST PUSH0 PUSH1 0x1 PUSH1 0x1 PUSH1 0xA0 SHL SUB DUP3 AND PUSH2 0x804 JUMPI PUSH1 0x40 MLOAD PUSH3 0x461BCD PUSH1 0xE5 SHL DUP2 MSTORE PUSH1 0x20 PUSH1 0x4 DUP3 ADD MSTORE PUSH1 0x2A PUSH1 0x24 DUP3 ADD MSTORE PUSH32 0x4552433732313A2062616C616E636520717565727920666F7220746865207A65 PUSH1 0x44 DUP3 ADD MSTORE PUSH10 0x726F2061646472657373 PUSH1 0xB0 SHL PUSH1 0x64 DUP3 ADD MSTORE PUSH1 0x84 ADD PUSH2 0x4EF JUMP JUMPDEST POP PUSH1 0x1 PUSH1 0x1 PUSH1 0xA0 SHL SUB AND PUSH0 SWAP1 DUP2 MSTORE PUSH1 0x20 DUP2 SWAP1 MSTORE PUSH1 0x40 SWAP1 KECCAK256 SLOAD SWAP1 JUMP JUMPDEST PUSH1 0x60 PUSH1 0x6 DUP1 SLOAD PUSH2 0x3F9 SWAP1 PUSH2 0x153E JUMP JUMPDEST PUSH1 0x1 PUSH1 0x1 PUSH1 0xA0 SHL SUB DUP3 AND PUSH2 0x854 JUMPI PUSH1 0x40 MLOAD PUSH3 0x461BCD PUSH1 0xE5 SHL DUP2 MSTORE PUSH1 0x4 ADD PUSH2 0x4EF SWAP1 PUSH2 0x15D3 JUMP JUMPDEST CALLER PUSH1 0x1 PUSH1 0x1 PUSH1 0xA0 SHL SUB DUP4 AND SUB PUSH2 0x8A8 JUMPI PUSH1 0x40 MLOAD PUSH3 0x461BCD PUSH1 0xE5 SHL DUP2 MSTORE PUSH1 0x20 PUSH1 0x4 DUP3 ADD MSTORE PUSH1 0x19 PUSH1 0x24 DUP3 ADD MSTORE PUSH25 0x22A9219B99189D1030B8383937BB32903A379031B0B63632B9 PUSH1 0x39 SHL PUSH1 0x44 DUP3 ADD MSTORE PUSH1 0x64 ADD PUSH2 0x4EF JUMP JUMPDEST CALLER PUSH0 DUP2 DUP2 MSTORE PUSH1 0x3 PUSH1 0x20 SWAP1 DUP2 MSTORE PUSH1 0x40 DUP1 DUP4 KECCAK256 PUSH1 0x1 PUSH1 0x1 PUSH1 0xA0 SHL SUB DUP8 AND DUP1 DUP6 MSTORE SWAP1 DUP4 MSTORE SWAP3 DUP2 SWAP1 KECCAK256 DUP1 SLOAD PUSH1 0xFF NOT AND DUP7 ISZERO ISZERO SWAP1 DUP2 OR SWAP1 SWAP2 SSTORE SWAP1 MLOAD SWAP1 DUP2 MSTORE SWAP2 SWAP3 SWAP2 PUSH32 0x17307EAB39AB6107E8899845AD3D59BD9653F200F220920489CA2B5937696C31 SWAP2 ADD PUSH1 0x40 MLOAD DUP1 SWAP2 SUB SWAP1 LOG3 POP POP JUMP JUMPDEST PUSH2 0x954 DUP6 DUP6 DUP6 DUP6 DUP6 DUP1 DUP1 PUSH1 0x1F ADD PUSH1 0x20 DUP1 SWAP2 DIV MUL PUSH1 0x20 ADD PUSH1 0x40 MLOAD SWAP1 DUP2 ADD PUSH1 0x40 MSTORE DUP1 SWAP4 SWAP3 SWAP2 SWAP1 DUP2 DUP2 MSTORE PUSH1 0x20 ADD DUP4 DUP4 DUP1 DUP3 DUP5 CALLDATACOPY PUSH0 SWAP3 ADD SWAP2 SWAP1 SWAP2 MSTORE POP PUSH2 0xD8B SWAP3 POP POP POP JUMP JUMPDEST POP POP POP POP POP JUMP JUMPDEST PUSH0 DUP2 DUP2 MSTORE PUSH1 0x1 PUSH1 0x20 MSTORE PUSH1 0x40 SWAP1 KECCAK256 SLOAD PUSH1 0x60 SWAP1 PUSH1 0x1 PUSH1 0x1 PUSH1 0xA0 SHL SUB AND PUSH2 0x9D9 JUMPI PUSH1 0x40 MLOAD PUSH3 0x461BCD PUSH1 0xE5 SHL DUP2 MSTORE PUSH1 0x20 PUSH1 0x4 DUP3 ADD MSTORE PUSH1 0x2F PUSH1 0x24 DUP3 ADD MSTORE PUSH32 0x4552433732314D657461646174613A2055524920717565727920666F72206E6F PUSH1 0x44 DUP3 ADD MSTORE PUSH15 0x3732BC34B9BA32B73A103A37B5B2B7 PUSH1 0x89 SHL PUSH1 0x64 DUP3 ADD MSTORE PUSH1 0x84 ADD PUSH2 0x4EF JUMP JUMPDEST PUSH0 PUSH1 0x7 DUP1 SLOAD PUSH2 0x9E7 SWAP1 PUSH2 0x153E JUMP JUMPDEST SWAP1 POP GT PUSH2 0xA02 JUMPI PUSH1 0x40 MLOAD DUP1 PUSH1 0x20 ADD PUSH1 0x40 MSTORE DUP1 PUSH0 DUP2 MSTORE POP PUSH2 0x3E4 JUMP JUMPDEST PUSH1 0x7 PUSH1 0x8 PUSH0 DUP5 DUP2 MSTORE PUSH1 0x20 ADD SWAP1 DUP2 MSTORE PUSH1 0x20 ADD PUSH0 KECCAK256 PUSH1 0x40 MLOAD PUSH1 0x20 ADD PUSH2 0xA26 SWAP3 SWAP2 SWAP1 PUSH2 0x1783 JUMP JUMPDEST PUSH1 0x40 MLOAD PUSH1 0x20 DUP2 DUP4 SUB SUB DUP2 MSTORE SWAP1 PUSH1 0x40 MSTORE SWAP3 SWAP2 POP POP JUMP JUMPDEST PUSH0 PUSH2 0xA46 DUP4 DUP4 PUSH2 0xE4C JUMP JUMPDEST SWAP4 SWAP3 POP POP POP JUMP JUMPDEST PUSH0 PUSH2 0xA9B DUP5 DUP5 DUP5 DUP1 DUP1 PUSH1 0x1F ADD PUSH1 0x20 DUP1 SWAP2 DIV MUL PUSH1 0x20 ADD PUSH1 0x40 MLOAD SWAP1 DUP2 ADD PUSH1 0x40 MSTORE DUP1 SWAP4 SWAP3 SWAP2 SWAP1 DUP2 DUP2 MSTORE PUSH1 0x20 ADD DUP4 DUP4 DUP1 DUP3 DUP5 CALLDATACOPY PUSH0 SWAP3 ADD DUP3 SWAP1 MSTORE POP PUSH1 0x40 DUP1 MLOAD PUSH1 0x20 DUP2 ADD SWAP1 SWAP2 MSTORE SWAP1 DUP2 MSTORE SWAP3 POP PUSH2 0xF16 SWAP2 POP POP JUMP JUMPDEST SWAP5 SWAP4 POP POP POP POP JUMP JUMPDEST PUSH0 PUSH1 0x1 PUSH1 0x1 PUSH1 0xA0 SHL SUB DUP4 AND PUSH2 0xACA JUMPI PUSH1 0x40 MLOAD PUSH3 0x461BCD PUSH1 0xE5 SHL DUP2 MSTORE PUSH1 0x4 ADD PUSH2 0x4EF SWAP1 PUSH2 0x1797 JUMP JUMPDEST PUSH1 0x1 PUSH1 0x1 PUSH1 0xA0 SHL SUB DUP3 AND PUSH2 0xAF0 JUMPI PUSH1 0x40 MLOAD PUSH3 0x461BCD PUSH1 0xE5 SHL DUP2 MSTORE PUSH1 0x4 ADD PUSH2 0x4EF SWAP1 PUSH2 0x1797 JUMP JUMPDEST POP PUSH1 0x1 PUSH1 0x1 PUSH1 0xA0 SHL SUB SWAP2 DUP3 AND PUSH0 SWAP1 DUP2 MSTORE PUSH1 0x3 PUSH1 0x20 SWAP1 DUP2 MSTORE PUSH1 0x40 DUP1 DUP4 KECCAK256 SWAP4 SWAP1 SWAP5 AND DUP3 MSTORE SWAP2 SWAP1 SWAP2 MSTORE KECCAK256 SLOAD PUSH1 0xFF AND SWAP1 JUMP JUMPDEST PUSH0 PUSH2 0xB91 DUP7 DUP7 DUP7 DUP1 DUP1 PUSH1 0x1F ADD PUSH1 0x20 DUP1 SWAP2 DIV MUL PUSH1 0x20 ADD PUSH1 0x40 MLOAD SWAP1 DUP2 ADD PUSH1 0x40 MSTORE DUP1 SWAP4 SWAP3 SWAP2 SWAP1 DUP2 DUP2 MSTORE PUSH1 0x20 ADD DUP4 DUP4 DUP1 DUP3 DUP5 CALLDATACOPY PUSH0 SWAP3 ADD SWAP2 SWAP1 SWAP2 MSTORE POP POP PUSH1 0x40 DUP1 MLOAD PUSH1 0x20 PUSH1 0x1F DUP11 ADD DUP2 SWAP1 DIV DUP2 MUL DUP3 ADD DUP2 ADD SWAP1 SWAP3 MSTORE DUP9 DUP2 MSTORE SWAP3 POP DUP9 SWAP2 POP DUP8 SWAP1 DUP2 SWAP1 DUP5 ADD DUP4 DUP3 DUP1 DUP3 DUP5 CALLDATACOPY PUSH0 SWAP3 ADD SWAP2 SWAP1 SWAP2 MSTORE POP PUSH2 0xF16 SWAP3 POP POP POP JUMP JUMPDEST SWAP7 SWAP6 POP POP POP POP POP POP JUMP JUMPDEST PUSH0 DUP2 DUP2 MSTORE PUSH1 0x1 PUSH1 0x20 MSTORE PUSH1 0x40 SWAP1 KECCAK256 SLOAD PUSH1 0x1 PUSH1 0x1 PUSH1 0xA0 SHL SUB SWAP1 DUP2 AND SWAP1 DUP5 AND DUP2 EQ PUSH2 0xC17 JUMPI PUSH1 0x40 MLOAD PUSH3 0x461BCD PUSH1 0xE5 SHL DUP2 MSTORE PUSH1 0x20 PUSH1 0x4 DUP3 ADD MSTORE PUSH1 0x29 PUSH1 0x24 DUP3 ADD MSTORE PUSH32 0x4552433732313A207472616E73666572206F6620746F6B656E20746861742069 PUSH1 0x44 DUP3 ADD MSTORE PUSH9 0x39903737BA1037BBB7 PUSH1 0xB9 SHL PUSH1 0x64 DUP3 ADD MSTORE PUSH1 0x84 ADD PUSH2 0x4EF JUMP JUMPDEST PUSH1 0x1 PUSH1 0x1 PUSH1 0xA0 SHL SUB DUP4 AND PUSH2 0xC79 JUMPI PUSH1 0x40 MLOAD PUSH3 0x461BCD PUSH1 0xE5 SHL DUP2 MSTORE PUSH1 0x20 PUSH1 0x4 DUP3 ADD MSTORE PUSH1 0x24 DUP1 DUP3 ADD MSTORE PUSH32 0x4552433732313A207472616E7366657220746F20746865207A65726F20616464 PUSH1 0x44 DUP3 ADD MSTORE PUSH4 0x72657373 PUSH1 0xE0 SHL PUSH1 0x64 DUP3 ADD MSTORE PUSH1 0x84 ADD PUSH2 0x4EF JUMP JUMPDEST PUSH1 0x1 PUSH1 0x1 PUSH1 0xA0 SHL SUB DUP2 AND CALLER EQ DUP1 PUSH2 0xC95 JUMPI POP PUSH2 0xC95 DUP2 CALLER PUSH2 0xAA3 JUMP JUMPDEST DUP1 PUSH2 0xCB5 JUMPI POP PUSH0 DUP3 DUP2 MSTORE PUSH1 0x2 PUSH1 0x20 MSTORE PUSH1 0x40 SWAP1 KECCAK256 SLOAD PUSH1 0x1 PUSH1 0x1 PUSH1 0xA0 SHL SUB AND CALLER EQ JUMPDEST PUSH2 0xD27 JUMPI PUSH1 0x40 MLOAD PUSH3 0x461BCD PUSH1 0xE5 SHL DUP2 MSTORE PUSH1 0x20 PUSH1 0x4 DUP3 ADD MSTORE PUSH1 0x39 PUSH1 0x24 DUP3 ADD MSTORE PUSH32 0x4552433732313A207472616E736665722063616C6C6572206973206E6F74206F PUSH1 0x44 DUP3 ADD MSTORE PUSH32 0x776E6572206E6F7220617070726F76656420666F7220616C6C00000000000000 PUSH1 0x64 DUP3 ADD MSTORE PUSH1 0x84 ADD PUSH2 0x4EF JUMP JUMPDEST PUSH2 0xD30 DUP3 PUSH2 0xF48 JUMP JUMPDEST PUSH2 0xD3A DUP5 DUP4 PUSH2 0xF81 JUMP JUMPDEST PUSH2 0xD44 DUP4 DUP4 PUSH2 0xFCC JUMP JUMPDEST DUP2 DUP4 PUSH1 0x1 PUSH1 0x1 PUSH1 0xA0 SHL SUB AND DUP6 PUSH1 0x1 PUSH1 0x1 PUSH1 0xA0 SHL SUB AND PUSH32 0xDDF252AD1BE2C89B69C2B068FC378DAA952BA7F163C4A11628F55A4DF523B3EF PUSH1 0x40 MLOAD PUSH1 0x40 MLOAD DUP1 SWAP2 SUB SWAP1 LOG4 POP POP POP POP JUMP JUMPDEST PUSH2 0xD96 DUP5 DUP5 DUP5 PUSH2 0xB9B JUMP JUMPDEST PUSH2 0xDA1 DUP5 DUP5 DUP4 PUSH2 0x1026 JUMP JUMPDEST PUSH2 0xDBD JUMPI PUSH1 0x40 MLOAD PUSH3 0x461BCD PUSH1 0xE5 SHL DUP2 MSTORE PUSH1 0x4 ADD PUSH2 0x4EF SWAP1 PUSH2 0x17E3 JUMP JUMPDEST POP POP POP POP JUMP JUMPDEST PUSH0 DUP2 DUP2 MSTORE PUSH1 0x1 PUSH1 0x20 MSTORE PUSH1 0x40 DUP2 KECCAK256 SLOAD PUSH1 0x1 PUSH1 0x1 PUSH1 0xA0 SHL SUB AND DUP1 PUSH2 0x3E4 JUMPI PUSH1 0x40 MLOAD PUSH3 0x461BCD PUSH1 0xE5 SHL DUP2 MSTORE PUSH1 0x20 PUSH1 0x4 DUP3 ADD MSTORE PUSH1 0x29 PUSH1 0x24 DUP3 ADD MSTORE PUSH32 0x4552433732313A206F776E657220717565727920666F72206E6F6E6578697374 PUSH1 0x44 DUP3 ADD MSTORE PUSH9 0x32B73A103A37B5B2B7 PUSH1 0xB9 SHL PUSH1 0x64 DUP3 ADD MSTORE PUSH1 0x84 ADD PUSH2 0x4EF JUMP JUMPDEST PUSH2 0x723 PUSH2 0xE45 DUP3 PUSH2 0xDC3 JUMP JUMPDEST PUSH0 DUP4 PUSH2 0xB9B JUMP JUMPDEST PUSH0 PUSH1 0x1 PUSH1 0x1 PUSH1 0xA0 SHL SUB DUP4 AND PUSH2 0xEA3 JUMPI PUSH1 0x40 MLOAD PUSH3 0x461BCD PUSH1 0xE5 SHL DUP2 MSTORE PUSH1 0x20 PUSH1 0x4 DUP3 ADD DUP2 SWAP1 MSTORE PUSH1 0x24 DUP3 ADD MSTORE PUSH32 0x4552433732313A206D696E7420746F20746865207A65726F2061646472657373 PUSH1 0x44 DUP3 ADD MSTORE PUSH1 0x64 ADD PUSH2 0x4EF JUMP JUMPDEST PUSH1 0x1 PUSH1 0x9 PUSH0 DUP3 DUP3 SLOAD PUSH2 0xEB5 SWAP2 SWAP1 PUSH2 0x1849 JUMP JUMPDEST SWAP3 POP POP DUP2 SWAP1 SSTORE POP PUSH2 0xEC8 DUP4 PUSH1 0x9 SLOAD PUSH2 0xFCC JUMP JUMPDEST PUSH1 0x9 SLOAD PUSH1 0x40 MLOAD PUSH1 0x1 PUSH1 0x1 PUSH1 0xA0 SHL SUB DUP6 AND SWAP1 PUSH0 SWAP1 PUSH32 0xDDF252AD1BE2C89B69C2B068FC378DAA952BA7F163C4A11628F55A4DF523B3EF SWAP1 DUP3 SWAP1 LOG4 PUSH2 0xF0C PUSH1 0x9 SLOAD DUP4 PUSH2 0x1123 JUMP JUMPDEST POP PUSH1 0x9 SLOAD SWAP3 SWAP2 POP POP JUMP JUMPDEST PUSH0 PUSH2 0xF22 PUSH0 DUP6 DUP5 PUSH2 0x1026 JUMP JUMPDEST PUSH2 0xF3E JUMPI PUSH1 0x40 MLOAD PUSH3 0x461BCD PUSH1 0xE5 SHL DUP2 MSTORE PUSH1 0x4 ADD PUSH2 0x4EF SWAP1 PUSH2 0x17E3 JUMP JUMPDEST PUSH2 0xA9B DUP5 DUP5 PUSH2 0xE4C JUMP JUMPDEST PUSH0 DUP2 DUP2 MSTORE PUSH1 0x2 PUSH1 0x20 MSTORE PUSH1 0x40 SWAP1 KECCAK256 SLOAD PUSH1 0x1 PUSH1 0x1 PUSH1 0xA0 SHL SUB AND ISZERO PUSH2 0x723 JUMPI PUSH0 SWAP1 DUP2 MSTORE PUSH1 0x2 PUSH1 0x20 MSTORE PUSH1 0x40 SWAP1 KECCAK256 DUP1 SLOAD PUSH1 0x1 PUSH1 0x1 PUSH1 0xA0 SHL SUB NOT AND SWAP1 SSTORE JUMP JUMPDEST PUSH1 0x1 PUSH1 0x1 PUSH1 0xA0 SHL SUB DUP3 AND PUSH0 SWAP1 DUP2 MSTORE PUSH1 0x20 DUP2 SWAP1 MSTORE PUSH1 0x40 DUP2 KECCAK256 DUP1 SLOAD PUSH1 0x1 SWAP3 SWAP1 PUSH2 0xFA9 SWAP1 DUP5 SWAP1 PUSH2 0x185C JUMP JUMPDEST SWAP1 SWAP2 SSTORE POP POP PUSH0 SWAP1 DUP2 MSTORE PUSH1 0x1 PUSH1 0x20 MSTORE PUSH1 0x40 SWAP1 KECCAK256 DUP1 SLOAD PUSH1 0x1 PUSH1 0x1 PUSH1 0xA0 SHL SUB NOT AND SWAP1 SSTORE POP JUMP JUMPDEST PUSH1 0x1 PUSH1 0x1 PUSH1 0xA0 SHL SUB DUP3 AND PUSH0 SWAP1 DUP2 MSTORE PUSH1 0x20 DUP2 SWAP1 MSTORE PUSH1 0x40 DUP2 KECCAK256 DUP1 SLOAD PUSH1 0x1 SWAP3 SWAP1 PUSH2 0xFF4 SWAP1 DUP5 SWAP1 PUSH2 0x1849 JUMP JUMPDEST SWAP1 SWAP2 SSTORE POP POP PUSH0 SWAP1 DUP2 MSTORE PUSH1 0x1 PUSH1 0x20 MSTORE PUSH1 0x40 SWAP1 KECCAK256 DUP1 SLOAD PUSH1 0x1 PUSH1 0x1 PUSH1 0xA0 SHL SUB NOT AND PUSH1 0x1 PUSH1 0x1 PUSH1 0xA0 SHL SUB SWAP3 SWAP1 SWAP3 AND SWAP2 SWAP1 SWAP2 OR SWAP1 SSTORE JUMP JUMPDEST PUSH0 DUP3 PUSH1 0x1 PUSH1 0x1 PUSH1 0xA0 SHL SUB AND EXTCODESIZE PUSH0 SUB PUSH2 0x1040 JUMPI POP PUSH1 0x1 PUSH2 0xA46 JUMP JUMPDEST PUSH1 0x9 SLOAD PUSH1 0x40 MLOAD PUSH4 0xA85BD01 PUSH1 0xE1 SHL DUP2 MSTORE PUSH1 0x1 PUSH1 0x1 PUSH1 0xA0 SHL SUB DUP6 AND SWAP2 PUSH4 0x150B7A02 SWAP2 PUSH2 0x1074 SWAP2 CALLER SWAP2 DUP10 SWAP2 SWAP1 DUP9 SWAP1 PUSH1 0x4 ADD PUSH2 0x186F JUMP JUMPDEST PUSH1 0x20 PUSH1 0x40 MLOAD DUP1 DUP4 SUB DUP2 PUSH0 DUP8 GAS CALL SWAP3 POP POP POP DUP1 ISZERO PUSH2 0x10AE JUMPI POP PUSH1 0x40 DUP1 MLOAD PUSH1 0x1F RETURNDATASIZE SWAP1 DUP2 ADD PUSH1 0x1F NOT AND DUP3 ADD SWAP1 SWAP3 MSTORE PUSH2 0x10AB SWAP2 DUP2 ADD SWAP1 PUSH2 0x18A1 JUMP JUMPDEST PUSH1 0x1 JUMPDEST PUSH2 0x1109 JUMPI RETURNDATASIZE DUP1 DUP1 ISZERO PUSH2 0x10DB JUMPI PUSH1 0x40 MLOAD SWAP2 POP PUSH1 0x1F NOT PUSH1 0x3F RETURNDATASIZE ADD AND DUP3 ADD PUSH1 0x40 MSTORE RETURNDATASIZE DUP3 MSTORE RETURNDATASIZE PUSH0 PUSH1 0x20 DUP5 ADD RETURNDATACOPY PUSH2 0x10E0 JUMP JUMPDEST PUSH1 0x60 SWAP2 POP JUMPDEST POP DUP1 MLOAD PUSH0 SUB PUSH2 0x1101 JUMPI PUSH1 0x40 MLOAD PUSH3 0x461BCD PUSH1 0xE5 SHL DUP2 MSTORE PUSH1 0x4 ADD PUSH2 0x4EF SWAP1 PUSH2 0x17E3 JUMP JUMPDEST DUP1 MLOAD DUP2 PUSH1 0x20 ADD REVERT JUMPDEST PUSH1 0x1 PUSH1 0x1 PUSH1 0xE0 SHL SUB NOT AND PUSH4 0xA85BD01 PUSH1 0xE1 SHL EQ SWAP1 POP PUSH2 0xA46 JUMP JUMPDEST PUSH0 DUP3 DUP2 MSTORE PUSH1 0x8 PUSH1 0x20 MSTORE PUSH1 0x40 SWAP1 KECCAK256 PUSH2 0x692 DUP3 DUP3 PUSH2 0x165A JUMP JUMPDEST PUSH1 0x1 PUSH1 0x1 PUSH1 0xE0 SHL SUB NOT DUP2 AND DUP2 EQ PUSH2 0x723 JUMPI PUSH0 DUP1 REVERT JUMPDEST PUSH0 PUSH1 0x20 DUP3 DUP5 SUB SLT ISZERO PUSH2 0x115F JUMPI PUSH0 DUP1 REVERT JUMPDEST DUP2 CALLDATALOAD PUSH2 0xA46 DUP2 PUSH2 0x113A JUMP JUMPDEST PUSH0 PUSH1 0x20 DUP3 DUP5 SUB SLT ISZERO PUSH2 0x117A JUMPI PUSH0 DUP1 REVERT JUMPDEST POP CALLDATALOAD SWAP2 SWAP1 POP JUMP JUMPDEST PUSH0 DUP2 MLOAD DUP1 DUP5 MSTORE DUP1 PUSH1 0x20 DUP5 ADD PUSH1 0x20 DUP7 ADD MCOPY PUSH0 PUSH1 0x20 DUP3 DUP7 ADD ADD MSTORE PUSH1 0x20 PUSH1 0x1F NOT PUSH1 0x1F DUP4 ADD AND DUP6 ADD ADD SWAP2 POP POP SWAP3 SWAP2 POP POP JUMP JUMPDEST PUSH1 0x20 DUP2 MSTORE PUSH0 PUSH2 0xA46 PUSH1 0x20 DUP4 ADD DUP5 PUSH2 0x1181 JUMP JUMPDEST DUP1 CALLDATALOAD PUSH1 0x1 PUSH1 0x1 PUSH1 0xA0 SHL SUB DUP2 AND DUP2 EQ PUSH2 0x11D7 JUMPI PUSH0 DUP1 REVERT JUMPDEST SWAP2 SWAP1 POP JUMP JUMPDEST PUSH0 DUP1 PUSH1 0x40 DUP4 DUP6 SUB SLT ISZERO PUSH2 0x11ED JUMPI PUSH0 DUP1 REVERT JUMPDEST PUSH2 0x11F6 DUP4 PUSH2 0x11C1 JUMP JUMPDEST SWAP5 PUSH1 0x20 SWAP4 SWAP1 SWAP4 ADD CALLDATALOAD SWAP4 POP POP POP JUMP JUMPDEST PUSH0 DUP1 PUSH1 0x40 DUP4 DUP6 SUB SLT ISZERO PUSH2 0x1215 JUMPI PUSH0 DUP1 REVERT JUMPDEST PUSH2 0x121E DUP4 PUSH2 0x11C1 JUMP JUMPDEST SWAP2 POP PUSH2 0x122C PUSH1 0x20 DUP5 ADD PUSH2 0x11C1 JUMP JUMPDEST SWAP1 POP SWAP3 POP SWAP3 SWAP1 POP JUMP JUMPDEST PUSH0 DUP1 PUSH0 PUSH1 0x60 DUP5 DUP7 SUB SLT ISZERO PUSH2 0x1247 JUMPI PUSH0 DUP1 REVERT JUMPDEST PUSH2 0x1250 DUP5 PUSH2 0x11C1 JUMP JUMPDEST SWAP3 POP PUSH2 0x125E PUSH1 0x20 DUP6 ADD PUSH2 0x11C1 JUMP JUMPDEST SWAP3 SWAP6 SWAP3 SWAP5 POP POP POP PUSH1 0x40 SWAP2 SWAP1 SWAP2 ADD CALLDATALOAD SWAP1 JUMP JUMPDEST PUSH0 PUSH1 0x20 DUP3 DUP5 SUB SLT ISZERO PUSH2 0x127F JUMPI PUSH0 DUP1 REVERT JUMPDEST PUSH2 0xA46 DUP3 PUSH2 0x11C1 JUMP JUMPDEST PUSH4 0x4E487B71 PUSH1 0xE0 SHL PUSH0 MSTORE PUSH1 0x41 PUSH1 0x4 MSTORE PUSH1 0x24 PUSH0 REVERT JUMPDEST PUSH0 DUP3 PUSH1 0x1F DUP4 ADD SLT PUSH2 0x12AB JUMPI PUSH0 DUP1 REVERT JUMPDEST DUP2 CALLDATALOAD PUSH8 0xFFFFFFFFFFFFFFFF DUP2 GT ISZERO PUSH2 0x12C5 JUMPI PUSH2 0x12C5 PUSH2 0x1288 JUMP JUMPDEST PUSH1 0x40 MLOAD PUSH1 0x1F DUP3 ADD PUSH1 0x1F NOT SWAP1 DUP2 AND PUSH1 0x3F ADD AND DUP2 ADD PUSH8 0xFFFFFFFFFFFFFFFF DUP2 GT DUP3 DUP3 LT OR ISZERO PUSH2 0x12F4 JUMPI PUSH2 0x12F4 PUSH2 0x1288 JUMP JUMPDEST PUSH1 0x40 MSTORE DUP2 DUP2 MSTORE DUP4 DUP3 ADD PUSH1 0x20 ADD DUP6 LT ISZERO PUSH2 0x130B JUMPI PUSH0 DUP1 REVERT JUMPDEST DUP2 PUSH1 0x20 DUP6 ADD PUSH1 0x20 DUP4 ADD CALLDATACOPY PUSH0 SWAP2 DUP2 ADD PUSH1 0x20 ADD SWAP2 SWAP1 SWAP2 MSTORE SWAP4 SWAP3 POP POP POP JUMP JUMPDEST PUSH0 PUSH1 0x20 DUP3 DUP5 SUB SLT ISZERO PUSH2 0x1337 JUMPI PUSH0 DUP1 REVERT JUMPDEST DUP2 CALLDATALOAD PUSH8 0xFFFFFFFFFFFFFFFF DUP2 GT ISZERO PUSH2 0x134D JUMPI PUSH0 DUP1 REVERT JUMPDEST PUSH2 0xA9B DUP5 DUP3 DUP6 ADD PUSH2 0x129C JUMP JUMPDEST PUSH0 DUP1 PUSH1 0x40 DUP4 DUP6 SUB SLT ISZERO PUSH2 0x136A JUMPI PUSH0 DUP1 REVERT JUMPDEST PUSH2 0x1373 DUP4 PUSH2 0x11C1 JUMP JUMPDEST SWAP2 POP PUSH1 0x20 DUP4 ADD CALLDATALOAD DUP1 ISZERO ISZERO DUP2 EQ PUSH2 0x1387 JUMPI PUSH0 DUP1 REVERT JUMPDEST DUP1 SWAP2 POP POP SWAP3 POP SWAP3 SWAP1 POP JUMP JUMPDEST PUSH0 DUP1 DUP4 PUSH1 0x1F DUP5 ADD SLT PUSH2 0x13A2 JUMPI PUSH0 DUP1 REVERT JUMPDEST POP DUP2 CALLDATALOAD PUSH8 0xFFFFFFFFFFFFFFFF DUP2 GT ISZERO PUSH2 0x13B9 JUMPI PUSH0 DUP1 REVERT JUMPDEST PUSH1 0x20 DUP4 ADD SWAP2 POP DUP4 PUSH1 0x20 DUP3 DUP6 ADD ADD GT ISZERO PUSH2 0x13D0 JUMPI PUSH0 DUP1 REVERT JUMPDEST SWAP3 POP SWAP3 SWAP1 POP JUMP JUMPDEST PUSH0 DUP1 PUSH0 DUP1 PUSH0 PUSH1 0x80 DUP7 DUP9 SUB SLT ISZERO PUSH2 0x13EB JUMPI PUSH0 DUP1 REVERT JUMPDEST PUSH2 0x13F4 DUP7 PUSH2 0x11C1 JUMP JUMPDEST SWAP5 POP PUSH2 0x1402 PUSH1 0x20 DUP8 ADD PUSH2 0x11C1 JUMP JUMPDEST SWAP4 POP PUSH1 0x40 DUP7 ADD CALLDATALOAD SWAP3 POP PUSH1 0x60 DUP7 ADD CALLDATALOAD PUSH8 0xFFFFFFFFFFFFFFFF DUP2 GT ISZERO PUSH2 0x1424 JUMPI PUSH0 DUP1 REVERT JUMPDEST PUSH2 0x1430 DUP9 DUP3 DUP10 ADD PUSH2 0x1392 JUMP JUMPDEST SWAP7 SWAP10 SWAP6 SWAP9 POP SWAP4 SWAP7 POP SWAP3 SWAP5 SWAP4 SWAP3 POP POP POP JUMP JUMPDEST PUSH0 DUP1 PUSH1 0x40 DUP4 DUP6 SUB SLT ISZERO PUSH2 0x1452 JUMPI PUSH0 DUP1 REVERT JUMPDEST PUSH2 0x145B DUP4 PUSH2 0x11C1 JUMP JUMPDEST SWAP2 POP PUSH1 0x20 DUP4 ADD CALLDATALOAD PUSH8 0xFFFFFFFFFFFFFFFF DUP2 GT ISZERO PUSH2 0x1476 JUMPI PUSH0 DUP1 REVERT JUMPDEST PUSH2 0x1482 DUP6 DUP3 DUP7 ADD PUSH2 0x129C JUMP JUMPDEST SWAP2 POP POP SWAP3 POP SWAP3 SWAP1 POP JUMP JUMPDEST PUSH0 DUP1 PUSH0 PUSH1 0x40 DUP5 DUP7 SUB SLT ISZERO PUSH2 0x149E JUMPI PUSH0 DUP1 REVERT JUMPDEST PUSH2 0x14A7 DUP5 PUSH2 0x11C1 JUMP JUMPDEST SWAP3 POP PUSH1 0x20 DUP5 ADD CALLDATALOAD PUSH8 0xFFFFFFFFFFFFFFFF DUP2 GT ISZERO PUSH2 0x14C2 JUMPI PUSH0 DUP1 REVERT JUMPDEST PUSH2 0x14CE DUP7 DUP3 DUP8 ADD PUSH2 0x1392 JUMP JUMPDEST SWAP5 SWAP8 SWAP1 SWAP7 POP SWAP4 SWAP5 POP POP POP POP JUMP JUMPDEST PUSH0 DUP1 PUSH0 DUP1 PUSH0 PUSH1 0x60 DUP7 DUP9 SUB SLT ISZERO PUSH2 0x14EF JUMPI PUSH0 DUP1 REVERT JUMPDEST PUSH2 0x14F8 DUP7 PUSH2 0x11C1 JUMP JUMPDEST SWAP5 POP PUSH1 0x20 DUP7 ADD CALLDATALOAD PUSH8 0xFFFFFFFFFFFFFFFF DUP2 GT ISZERO PUSH2 0x1513 JUMPI PUSH0 DUP1 REVERT JUMPDEST PUSH2 0x151F DUP9 DUP3 DUP10 ADD PUSH2 0x1392 JUMP JUMPDEST SWAP1 SWAP6 POP SWAP4 POP POP PUSH1 0x40 DUP7 ADD CALLDATALOAD PUSH8 0xFFFFFFFFFFFFFFFF DUP2 GT ISZERO PUSH2 0x1424 JUMPI PUSH0 DUP1 REVERT JUMPDEST PUSH1 0x1 DUP2 DUP2 SHR SWAP1 DUP3 AND DUP1 PUSH2 0x1552 JUMPI PUSH1 0x7F DUP3 AND SWAP2 POP JUMPDEST PUSH1 0x20 DUP3 LT DUP2 SUB PUSH2 0x1570 JUMPI PUSH4 0x4E487B71 PUSH1 0xE0 SHL PUSH0 MSTORE PUSH1 0x22 PUSH1 0x4 MSTORE PUSH1 0x24 PUSH0 REVERT JUMPDEST POP SWAP2 SWAP1 POP JUMP JUMPDEST PUSH1 0x20 DUP1 DUP3 MSTORE PUSH1 0x38 SWAP1 DUP3 ADD MSTORE PUSH32 0x4552433732313A20617070726F76652063616C6C6572206973206E6F74206F77 PUSH1 0x40 DUP3 ADD MSTORE PUSH32 0x6E6572206E6F7220617070726F76656420666F7220616C6C0000000000000000 PUSH1 0x60 DUP3 ADD MSTORE PUSH1 0x80 ADD SWAP1 JUMP JUMPDEST PUSH1 0x20 DUP1 DUP3 MSTORE PUSH1 0x23 SWAP1 DUP3 ADD MSTORE PUSH32 0x4552433732313A20617070726F766520746F20746865207A65726F2061646472 PUSH1 0x40 DUP3 ADD MSTORE PUSH3 0x657373 PUSH1 0xE8 SHL PUSH1 0x60 DUP3 ADD MSTORE PUSH1 0x80 ADD SWAP1 JUMP JUMPDEST PUSH1 0x1F DUP3 GT ISZERO PUSH2 0x692 JUMPI DUP1 PUSH0 MSTORE PUSH1 0x20 PUSH0 KECCAK256 PUSH1 0x1F DUP5 ADD PUSH1 0x5 SHR DUP2 ADD PUSH1 0x20 DUP6 LT ISZERO PUSH2 0x163B JUMPI POP DUP1 JUMPDEST PUSH1 0x1F DUP5 ADD PUSH1 0x5 SHR DUP3 ADD SWAP2 POP JUMPDEST DUP2 DUP2 LT ISZERO PUSH2 0x954 JUMPI PUSH0 DUP2 SSTORE PUSH1 0x1 ADD PUSH2 0x1647 JUMP JUMPDEST DUP2 MLOAD PUSH8 0xFFFFFFFFFFFFFFFF DUP2 GT ISZERO PUSH2 0x1674 JUMPI PUSH2 0x1674 PUSH2 0x1288 JUMP JUMPDEST PUSH2 0x1688 DUP2 PUSH2 0x1682 DUP5 SLOAD PUSH2 0x153E JUMP JUMPDEST DUP5 PUSH2 0x1616 JUMP JUMPDEST PUSH1 0x20 PUSH1 0x1F DUP3 GT PUSH1 0x1 DUP2 EQ PUSH2 0x16BA JUMPI PUSH0 DUP4 ISZERO PUSH2 0x16A3 JUMPI POP DUP5 DUP3 ADD MLOAD JUMPDEST PUSH0 NOT PUSH1 0x3 DUP6 SWAP1 SHL SHR NOT AND PUSH1 0x1 DUP5 SWAP1 SHL OR DUP5 SSTORE PUSH2 0x954 JUMP JUMPDEST PUSH0 DUP5 DUP2 MSTORE PUSH1 0x20 DUP2 KECCAK256 PUSH1 0x1F NOT DUP6 AND SWAP2 JUMPDEST DUP3 DUP2 LT ISZERO PUSH2 0x16E9 JUMPI DUP8 DUP6 ADD MLOAD DUP3 SSTORE PUSH1 0x20 SWAP5 DUP6 ADD SWAP5 PUSH1 0x1 SWAP1 SWAP3 ADD SWAP2 ADD PUSH2 0x16C9 JUMP JUMPDEST POP DUP5 DUP3 LT ISZERO PUSH2 0x1706 JUMPI DUP7 DUP5 ADD MLOAD PUSH0 NOT PUSH1 0x3 DUP8 SWAP1 SHL PUSH1 0xF8 AND SHR NOT AND DUP2 SSTORE JUMPDEST POP POP POP POP PUSH1 0x1 SWAP1 DUP2 SHL ADD SWAP1 SSTORE POP JUMP JUMPDEST PUSH0 DUP2 SLOAD PUSH2 0x1721 DUP2 PUSH2 0x153E JUMP JUMPDEST PUSH1 0x1 DUP3 AND DUP1 ISZERO PUSH2 0x1738 JUMPI PUSH1 0x1 DUP2 EQ PUSH2 0x174D JUMPI PUSH2 0x177A JUMP JUMPDEST PUSH1 0xFF NOT DUP4 AND DUP7 MSTORE DUP2 ISZERO ISZERO DUP3 MUL DUP7 ADD SWAP4 POP PUSH2 0x177A JUMP JUMPDEST DUP5 PUSH0 MSTORE PUSH1 0x20 PUSH0 KECCAK256 PUSH0 JUMPDEST DUP4 DUP2 LT ISZERO PUSH2 0x1772 JUMPI DUP2 SLOAD DUP9 DUP3 ADD MSTORE PUSH1 0x1 SWAP1 SWAP2 ADD SWAP1 PUSH1 0x20 ADD PUSH2 0x1756 JUMP JUMPDEST POP POP DUP2 DUP7 ADD SWAP4 POP JUMPDEST POP POP POP SWAP3 SWAP2 POP POP JUMP JUMPDEST PUSH0 PUSH2 0xA9B PUSH2 0x1791 DUP4 DUP7 PUSH2 0x1715 JUMP JUMPDEST DUP5 PUSH2 0x1715 JUMP JUMPDEST PUSH1 0x20 DUP1 DUP3 MSTORE PUSH1 0x2C SWAP1 DUP3 ADD MSTORE PUSH32 0x4552433732313A206F70657261746F7220717565727920666F72206E6F6E6578 PUSH1 0x40 DUP3 ADD MSTORE PUSH12 0x34B9BA32B73A103A37B5B2B7 PUSH1 0xA1 SHL PUSH1 0x60 DUP3 ADD MSTORE PUSH1 0x80 ADD SWAP1 JUMP JUMPDEST PUSH1 0x20 DUP1 DUP3 MSTORE PUSH1 0x32 SWAP1 DUP3 ADD MSTORE PUSH32 0x4552433732313A207472616E7366657220746F206E6F6E204552433732315265 PUSH1 0x40 DUP3 ADD MSTORE PUSH18 0x31B2B4BB32B91034B6B83632B6B2B73A32B9 PUSH1 0x71 SHL PUSH1 0x60 DUP3 ADD MSTORE PUSH1 0x80 ADD SWAP1 JUMP JUMPDEST PUSH4 0x4E487B71 PUSH1 0xE0 SHL PUSH0 MSTORE PUSH1 0x11 PUSH1 0x4 MSTORE PUSH1 0x24 PUSH0 REVERT JUMPDEST DUP1 DUP3 ADD DUP1 DUP3 GT ISZERO PUSH2 0x3E4 JUMPI PUSH2 0x3E4 PUSH2 0x1835 JUMP JUMPDEST DUP2 DUP2 SUB DUP2 DUP2 GT ISZERO PUSH2 0x3E4 JUMPI PUSH2 0x3E4 PUSH2 0x1835 JUMP JUMPDEST PUSH1 0x1 PUSH1 0x1 PUSH1 0xA0 SHL SUB DUP6 DUP2 AND DUP3 MSTORE DUP5 AND PUSH1 0x20 DUP3 ADD MSTORE PUSH1 0x40 DUP2 ADD DUP4 SWAP1 MSTORE PUSH1 0x80 PUSH1 0x60 DUP3 ADD DUP2 SWAP1 MSTORE PUSH0 SWAP1 PUSH2 0xB91 SWAP1 DUP4 ADD DUP5 PUSH2 0x1181 JUMP JUMPDEST PUSH0 PUSH1 0x20 DUP3 DUP5 SUB SLT ISZERO PUSH2 0x18B1 JUMPI PUSH0 DUP1 REVERT JUMPDEST DUP2 MLOAD PUSH2 0xA46 DUP2 PUSH2 0x113A JUMP INVALID LOG2 PUSH5 0x6970667358 0x22 SLT KECCAK256 PUSH5 0x14D4AAFF31 0xCB PUSH10 0xA808199EB301D2B4F2A6 GASPRICE 0x2A 0xE6 COINBASE 0xD 0xCC 0x2F ISZERO 0x22 0x4F PUSH5 0x1AEEB46473 PUSH16 0x6C634300081A00330000000000000000 "
				},
				"gasEstimates": {
					"creation": {
						"codeDepositCost": "1277200",
						"executionCost": "infinite",
						"totalCost": "infinite"
					},
					"external": {
						"approve(address,uint256)": "infinite",
						"balanceOf(address)": "2633",
						"balances(address)": "2586",
						"burn(uint256)": "infinite",
						"getApproved(uint256)": "4783",
						"isApprovedForAll(address,address)": "infinite",
						"mint(address,string)": "infinite",
						"name()": "infinite",
						"operatorApprovals(address,address)": "infinite",
						"owner()": "2403",
						"ownerOf(uint256)": "infinite",
						"owners(uint256)": "2520",
						"safeMint(address,string)": "infinite",
						"safeMint(address,string,bytes)": "infinite",
						"safeTransferFrom(address,address,uint256)": "infinite",
						"safeTransferFrom(address,address,uint256,bytes)": "infinite",
						"setApprovalForAll(address,bool)": "26768",
						"setBaseURI(string)": "infinite",
						"supportsInterface(bytes4)": "531",
						"symbol()": "infinite",
						"tokenApprovals(uint256)": "2607",
						"tokenURI(uint256)": "infinite",
						"totalSupply()": "2317",
						"transferFrom(address,address,uint256)": "infinite"
					},
					"internal": {
						"_addTokenTo(address,uint256)": "48741",
						"_burn(uint256)": "infinite",
						"_checkOnERC721Received(address,address,bytes memory)": "infinite",
						"_clearApproval(uint256)": "26512",
						"_exists(uint256)": "infinite",
						"_mint(address,string memory)": "infinite",
						"_ownerOf(uint256)": "infinite",
						"_removeTokenFrom(address,uint256)": "48704",
						"_safeMint(address,string memory,bytes memory)": "infinite",
						"_safeTransfer(address,address,uint256,bytes memory)": "infinite",
						"_setTokenURI(uint256,string memory)": "infinite",
						"_transfer(address,address,uint256)": "infinite"
					}
				},
				"methodIdentifiers": {
					"approve(address,uint256)": "095ea7b3",
					"balanceOf(address)": "70a08231",
					"balances(address)": "27e235e3",
					"burn(uint256)": "42966c68",
					"getApproved(uint256)": "081812fc",
					"isApprovedForAll(address,address)": "e985e9c5",
					"mint(address,string)": "d0def521",
					"name()": "06fdde03",
					"operatorApprovals(address,address)": "0d95e054",
					"owner()": "8da5cb5b",
					"ownerOf(uint256)": "6352211e",
					"owners(uint256)": "025e7c27",
					"safeMint(address,string)": "d204c45e",
					"safeMint(address,string,bytes)": "f6dda936",
					"safeTransferFrom(address,address,uint256)": "42842e0e",
					"safeTransferFrom(address,address,uint256,bytes)": "b88d4fde",
					"setApprovalForAll(address,bool)": "a22cb465",
					"setBaseURI(string)": "55f804b3",
					"supportsInterface(bytes4)": "01ffc9a7",
					"symbol()": "95d89b41",
					"tokenApprovals(uint256)": "acdeb5b9",
					"tokenURI(uint256)": "c87b56dd",
					"totalSupply()": "18160ddd",
					"transferFrom(address,address,uint256)": "23b872dd"
				}
			},
			"storageLayout": {
				"storage": [
					{
						"astId": 189,
						"contract": "contracts/openzeppelin/MyNFT.sol:MyNFT",
						"label": "balances",
						"offset": 0,
						"slot": "0",
						"type": "t_mapping(t_address,t_uint256)"
					},
					{
						"astId": 193,
						"contract": "contracts/openzeppelin/MyNFT.sol:MyNFT",
						"label": "owners",
						"offset": 0,
						"slot": "1",
						"type": "t_mapping(t_uint256,t_address)"
					},
					{
						"astId": 197,
						"contract": "contracts/openzeppelin/MyNFT.sol:MyNFT",
						"label": "tokenApprovals",
						"offset": 0,
						"slot": "2",
						"type": "t_mapping(t_uint256,t_address)"
					},
					{
						"astId": 203,
						"contract": "contracts/openzeppelin/MyNFT.sol:MyNFT",
						"label": "operatorApprovals",
						"offset": 0,
						"slot": "3",
						"type": "t_mapping(t_address,t_mapping(t_address,t_bool))"
					},
					{
						"astId": 205,
						"contract": "contracts/openzeppelin/MyNFT.sol:MyNFT",
						"label": "owner",
						"offset": 0,
						"slot": "4",
						"type": "t_address"
					},
					{
						"astId": 207,
						"contract": "contracts/openzeppelin/MyNFT.sol:MyNFT",
						"label": "_name",
						"offset": 0,
						"slot": "5",
						"type": "t_string_storage"
					},
					{
						"astId": 209,
						"contract": "contracts/openzeppelin/MyNFT.sol:MyNFT",
						"label": "_symbol",
						"offset": 0,
						"slot": "6",
						"type": "t_string_storage"
					},
					{
						"astId": 211,
						"contract": "contracts/openzeppelin/MyNFT.sol:MyNFT",
						"label": "_baseURI",
						"offset": 0,
						"slot": "7",
						"type": "t_string_storage"
					},
					{
						"astId": 215,
						"contract": "contracts/openzeppelin/MyNFT.sol:MyNFT",
						"label": "_tokenURIs",
						"offset": 0,
						"slot": "8",
						"type": "t_mapping(t_uint256,t_string_storage)"
					},
					{
						"astId": 218,
						"contract": "contracts/openzeppelin/MyNFT.sol:MyNFT",
						"label": "totalSupply",
						"offset": 0,
						"slot": "9",
						"type": "t_uint256"
					}
				],
				"types": {
					"t_address": {
						"encoding": "inplace",
						"label": "address",
						"numberOfBytes": "20"
					},
					"t_bool": {
						"encoding": "inplace",
						"label": "bool",
						"numberOfBytes": "1"
					},
					"t_mapping(t_address,t_bool)": {
						"encoding": "mapping",
						"key": "t_address",
						"label": "mapping(address => bool)",
						"numberOfBytes": "32",
						"value": "t_bool"
					},
					"t_mapping(t_address,t_mapping(t_address,t_bool))": {
						"encoding": "mapping",
						"key": "t_address",
						"label": "mapping(address => mapping(address => bool))",
						"numberOfBytes": "32",
						"value": "t_mapping(t_address,t_bool)"
					},
					"t_mapping(t_address,t_uint256)": {
						"encoding": "mapping",
						"key": "t_address",
						"label": "mapping(address => uint256)",
						"numberOfBytes": "32",
						"value": "t_uint256"
					},
					"t_mapping(t_uint256,t_address)": {
						"encoding": "mapping",
						"key": "t_uint256",
						"label": "mapping(uint256 => address)",
						"numberOfBytes": "32",
						"value": "t_address"
					},
					"t_mapping(t_uint256,t_string_storage)": {
						"encoding": "mapping",
						"key": "t_uint256",
						"label": "mapping(uint256 => string)",
						"numberOfBytes": "32",
						"value": "t_string_storage"
					},
					"t_string_storage": {
						"encoding": "bytes",
						"label": "string",
						"numberOfBytes": "32"
					},
					"t_uint256": {
						"encoding": "inplace",
						"label": "uint256",
						"numberOfBytes": "32"
					}
				}
			},
			"userdoc": {
				"kind": "user",
				"methods": {},
				"notice": "NFT合约",
				"version": 1
			}
		}
	}
}