{
	"contracts/Strongbox.sol": {
		"Strongbox": {
			"abi": [
				{
					"inputs": [
						{
							"internalType": "string",
							"name": "_key",
							"type": "string"
						},
						{
							"internalType": "bytes",
							"name": "_sig",
							"type": "bytes"
						}
					],
					"name": "getSecretByKey",
					"outputs": [
						{
							"internalType": "string",
							"name": "_value",
							"type": "string"
						}
					],
					"stateMutability": "view",
					"type": "function"
				},
				{
					"inputs": [],
					"name": "getSecretKey",
					"outputs": [
						{
							"internalType": "string[]",
							"name": "_keys",
							"type": "string[]"
						}
					],
					"stateMutability": "view",
					"type": "function"
				},
				{
					"inputs": [
						{
							"internalType": "string",
							"name": "_key",
							"type": "string"
						},
						{
							"internalType": "string",
							"name": "_value",
							"type": "string"
						}
					],
					"name": "putSecret",
					"outputs": [],
					"stateMutability": "nonpayable",
					"type": "function"
				}
			],
			"devdoc": {
				"author": "zhanghony",
				"kind": "dev",
				"methods": {},
				"title": "智能保险箱",
				"version": 1
			},
			"evm": {
				"assembly": "    /* \"contracts/Strongbox.sol\":249:2147  contract Strongbox {... */\n  mstore(0x40, 0x80)\n  callvalue\n  dup1\n  iszero\n  tag_1\n  jumpi\n  0x00\n  dup1\n  revert\ntag_1:\n  pop\n  dataSize(sub_0)\n  dup1\n  dataOffset(sub_0)\n  0x00\n  codecopy\n  0x00\n  return\nstop\n\nsub_0: assembly {\n        /* \"contracts/Strongbox.sol\":249:2147  contract Strongbox {... */\n      mstore(0x40, 0x80)\n      callvalue\n      dup1\n      iszero\n      tag_1\n      jumpi\n      0x00\n      dup1\n      revert\n    tag_1:\n      pop\n      jumpi(tag_2, lt(calldatasize, 0x04))\n      shr(0xe0, calldataload(0x00))\n      dup1\n      0x542564df\n      eq\n      tag_3\n      jumpi\n      dup1\n      0x79ed40bc\n      eq\n      tag_4\n      jumpi\n      dup1\n      0x8055111f\n      eq\n      tag_5\n      jumpi\n    tag_2:\n      0x00\n      dup1\n      revert\n        /* \"contracts/Strongbox.sol\":697:905  function getSecretByKey(... */\n    tag_3:\n      tag_6\n      0x04\n      dup1\n      calldatasize\n      sub\n      dup2\n      add\n      swap1\n      tag_7\n      swap2\n      swap1\n      tag_8\n      jump\t// in\n    tag_7:\n      tag_9\n      jump\t// in\n    tag_6:\n      mload(0x40)\n      tag_10\n      swap2\n      swap1\n      tag_11\n      jump\t// in\n    tag_10:\n      mload(0x40)\n      dup1\n      swap2\n      sub\n      swap1\n      return\n        /* \"contracts/Strongbox.sol\":568:689  function getSecretKey() external view returns (string[] memory _keys) {... */\n    tag_4:\n      tag_12\n      tag_13\n      jump\t// in\n    tag_12:\n      mload(0x40)\n      tag_14\n      swap2\n      swap1\n      tag_15\n      jump\t// in\n    tag_14:\n      mload(0x40)\n      dup1\n      swap2\n      sub\n      swap1\n      return\n        /* \"contracts/Strongbox.sol\":388:560  function putSecret(string memory _key, string memory _value) external {... */\n    tag_5:\n      tag_16\n      0x04\n      dup1\n      calldatasize\n      sub\n      dup2\n      add\n      swap1\n      tag_17\n      swap2\n      swap1\n      tag_18\n      jump\t// in\n    tag_17:\n      tag_19\n      jump\t// in\n    tag_16:\n      stop\n        /* \"contracts/Strongbox.sol\":697:905  function getSecretByKey(... */\n    tag_9:\n        /* \"contracts/Strongbox.sol\":830:850  string memory _value */\n      0x60\n        /* \"contracts/Strongbox.sol\":809:813  _key */\n      dup3\n        /* \"contracts/Strongbox.sol\":815:819  _sig */\n      dup3\n        /* \"contracts/Strongbox.sol\":990:1015  verifyMessage(_key, _sig) */\n      tag_21\n        /* \"contracts/Strongbox.sol\":1004:1008  _key */\n      dup3\n        /* \"contracts/Strongbox.sol\":1010:1014  _sig */\n      dup3\n        /* \"contracts/Strongbox.sol\":990:1003  verifyMessage */\n      tag_22\n        /* \"contracts/Strongbox.sol\":990:1015  verifyMessage(_key, _sig) */\n      jump\t// in\n    tag_21:\n        /* \"contracts/Strongbox.sol\":982:1041  require(verifyMessage(_key, _sig), \"sig is checked failed\") */\n      tag_23\n      jumpi\n      mload(0x40)\n      0x08c379a000000000000000000000000000000000000000000000000000000000\n      dup2\n      mstore\n      0x04\n      add\n      tag_24\n      swap1\n      tag_25\n      jump\t// in\n    tag_24:\n      mload(0x40)\n      dup1\n      swap2\n      sub\n      swap1\n      revert\n    tag_23:\n        /* \"contracts/Strongbox.sol\":870:879  secretMap */\n      0x00\n        /* \"contracts/Strongbox.sol\":870:891  secretMap[msg.sender] */\n      dup1\n        /* \"contracts/Strongbox.sol\":880:890  msg.sender */\n      caller\n        /* \"contracts/Strongbox.sol\":870:891  secretMap[msg.sender] */\n      0xffffffffffffffffffffffffffffffffffffffff\n      and\n      0xffffffffffffffffffffffffffffffffffffffff\n      and\n      dup2\n      mstore\n      0x20\n      add\n      swap1\n      dup2\n      mstore\n      0x20\n      add\n      0x00\n      keccak256\n        /* \"contracts/Strongbox.sol\":892:896  _key */\n      dup6\n        /* \"contracts/Strongbox.sol\":870:897  secretMap[msg.sender][_key] */\n      mload(0x40)\n      tag_27\n      swap2\n      swap1\n      tag_28\n      jump\t// in\n    tag_27:\n      swap1\n      dup2\n      mstore\n      0x20\n      add\n      mload(0x40)\n      dup1\n      swap2\n      sub\n      swap1\n      keccak256\n        /* \"contracts/Strongbox.sol\":863:897  return secretMap[msg.sender][_key] */\n      dup1\n      sload\n      tag_29\n      swap1\n      tag_30\n      jump\t// in\n    tag_29:\n      dup1\n      0x1f\n      add\n      0x20\n      dup1\n      swap2\n      div\n      mul\n      0x20\n      add\n      mload(0x40)\n      swap1\n      dup2\n      add\n      0x40\n      mstore\n      dup1\n      swap3\n      swap2\n      swap1\n      dup2\n      dup2\n      mstore\n      0x20\n      add\n      dup3\n      dup1\n      sload\n      tag_31\n      swap1\n      tag_30\n      jump\t// in\n    tag_31:\n      dup1\n      iszero\n      tag_32\n      jumpi\n      dup1\n      0x1f\n      lt\n      tag_33\n      jumpi\n      0x0100\n      dup1\n      dup4\n      sload\n      div\n      mul\n      dup4\n      mstore\n      swap2\n      0x20\n      add\n      swap2\n      jump(tag_32)\n    tag_33:\n      dup3\n      add\n      swap2\n      swap1\n      0x00\n      mstore\n      keccak256(0x00, 0x20)\n      swap1\n    tag_34:\n      dup2\n      sload\n      dup2\n      mstore\n      swap1\n      0x01\n      add\n      swap1\n      0x20\n      add\n      dup1\n      dup4\n      gt\n      tag_34\n      jumpi\n      dup3\n      swap1\n      sub\n      0x1f\n      and\n      dup3\n      add\n      swap2\n    tag_32:\n      pop\n      pop\n      pop\n      pop\n      pop\n      swap3\n      pop\n        /* \"contracts/Strongbox.sol\":697:905  function getSecretByKey(... */\n      pop\n      pop\n      swap3\n      swap2\n      pop\n      pop\n      jump\t// out\n        /* \"contracts/Strongbox.sol\":568:689  function getSecretKey() external view returns (string[] memory _keys) {... */\n    tag_13:\n        /* \"contracts/Strongbox.sol\":615:636  string[] memory _keys */\n      0x60\n        /* \"contracts/Strongbox.sol\":656:669  sercretKeyMap */\n      0x01\n        /* \"contracts/Strongbox.sol\":656:681  sercretKeyMap[msg.sender] */\n      0x00\n        /* \"contracts/Strongbox.sol\":670:680  msg.sender */\n      caller\n        /* \"contracts/Strongbox.sol\":656:681  sercretKeyMap[msg.sender] */\n      0xffffffffffffffffffffffffffffffffffffffff\n      and\n      0xffffffffffffffffffffffffffffffffffffffff\n      and\n      dup2\n      mstore\n      0x20\n      add\n      swap1\n      dup2\n      mstore\n      0x20\n      add\n      0x00\n      keccak256\n        /* \"contracts/Strongbox.sol\":649:681  return sercretKeyMap[msg.sender] */\n      dup1\n      sload\n      dup1\n      0x20\n      mul\n      0x20\n      add\n      mload(0x40)\n      swap1\n      dup2\n      add\n      0x40\n      mstore\n      dup1\n      swap3\n      swap2\n      swap1\n      dup2\n      dup2\n      mstore\n      0x20\n      add\n      0x00\n      swap1\n    tag_36:\n      dup3\n      dup3\n      lt\n      iszero\n      tag_37\n      jumpi\n      dup4\n      dup3\n      swap1\n      0x00\n      mstore\n      keccak256(0x00, 0x20)\n      add\n      dup1\n      sload\n      tag_39\n      swap1\n      tag_30\n      jump\t// in\n    tag_39:\n      dup1\n      0x1f\n      add\n      0x20\n      dup1\n      swap2\n      div\n      mul\n      0x20\n      add\n      mload(0x40)\n      swap1\n      dup2\n      add\n      0x40\n      mstore\n      dup1\n      swap3\n      swap2\n      swap1\n      dup2\n      dup2\n      mstore\n      0x20\n      add\n      dup3\n      dup1\n      sload\n      tag_40\n      swap1\n      tag_30\n      jump\t// in\n    tag_40:\n      dup1\n      iszero\n      tag_41\n      jumpi\n      dup1\n      0x1f\n      lt\n      tag_42\n      jumpi\n      0x0100\n      dup1\n      dup4\n      sload\n      div\n      mul\n      dup4\n      mstore\n      swap2\n      0x20\n      add\n      swap2\n      jump(tag_41)\n    tag_42:\n      dup3\n      add\n      swap2\n      swap1\n      0x00\n      mstore\n      keccak256(0x00, 0x20)\n      swap1\n    tag_43:\n      dup2\n      sload\n      dup2\n      mstore\n      swap1\n      0x01\n      add\n      swap1\n      0x20\n      add\n      dup1\n      dup4\n      gt\n      tag_43\n      jumpi\n      dup3\n      swap1\n      sub\n      0x1f\n      and\n      dup3\n      add\n      swap2\n    tag_41:\n      pop\n      pop\n      pop\n      pop\n      pop\n      dup2\n      mstore\n      0x20\n      add\n      swap1\n      0x01\n      add\n      swap1\n      jump(tag_36)\n    tag_37:\n      pop\n      pop\n      pop\n      pop\n      swap1\n      pop\n        /* \"contracts/Strongbox.sol\":568:689  function getSecretKey() external view returns (string[] memory _keys) {... */\n      swap1\n      jump\t// out\n        /* \"contracts/Strongbox.sol\":388:560  function putSecret(string memory _key, string memory _value) external {... */\n    tag_19:\n        /* \"contracts/Strongbox.sol\":469:482  sercretKeyMap */\n      0x01\n        /* \"contracts/Strongbox.sol\":469:494  sercretKeyMap[msg.sender] */\n      0x00\n        /* \"contracts/Strongbox.sol\":483:493  msg.sender */\n      caller\n        /* \"contracts/Strongbox.sol\":469:494  sercretKeyMap[msg.sender] */\n      0xffffffffffffffffffffffffffffffffffffffff\n      and\n      0xffffffffffffffffffffffffffffffffffffffff\n      and\n      dup2\n      mstore\n      0x20\n      add\n      swap1\n      dup2\n      mstore\n      0x20\n      add\n      0x00\n      keccak256\n        /* \"contracts/Strongbox.sol\":500:504  _key */\n      dup3\n        /* \"contracts/Strongbox.sol\":469:505  sercretKeyMap[msg.sender].push(_key) */\n      swap1\n      dup1\n      0x01\n      dup2\n      sload\n      add\n      dup1\n      dup3\n      sstore\n      dup1\n      swap2\n      pop\n      pop\n      0x01\n      swap1\n      sub\n      swap1\n      0x00\n      mstore\n      keccak256(0x00, 0x20)\n      add\n      0x00\n      swap1\n      swap2\n      swap1\n      swap2\n      swap1\n      swap2\n      pop\n      swap1\n      dup2\n      tag_46\n      swap2\n      swap1\n      tag_47\n      jump\t// in\n    tag_46:\n      pop\n        /* \"contracts/Strongbox.sol\":546:552  _value */\n      dup1\n        /* \"contracts/Strongbox.sol\":516:525  secretMap */\n      0x00\n        /* \"contracts/Strongbox.sol\":516:537  secretMap[msg.sender] */\n      dup1\n        /* \"contracts/Strongbox.sol\":526:536  msg.sender */\n      caller\n        /* \"contracts/Strongbox.sol\":516:537  secretMap[msg.sender] */\n      0xffffffffffffffffffffffffffffffffffffffff\n      and\n      0xffffffffffffffffffffffffffffffffffffffff\n      and\n      dup2\n      mstore\n      0x20\n      add\n      swap1\n      dup2\n      mstore\n      0x20\n      add\n      0x00\n      keccak256\n        /* \"contracts/Strongbox.sol\":538:542  _key */\n      dup4\n        /* \"contracts/Strongbox.sol\":516:543  secretMap[msg.sender][_key] */\n      mload(0x40)\n      tag_48\n      swap2\n      swap1\n      tag_28\n      jump\t// in\n    tag_48:\n      swap1\n      dup2\n      mstore\n      0x20\n      add\n      mload(0x40)\n      dup1\n      swap2\n      sub\n      swap1\n      keccak256\n        /* \"contracts/Strongbox.sol\":516:552  secretMap[msg.sender][_key] = _value */\n      swap1\n      dup2\n      tag_49\n      swap2\n      swap1\n      tag_47\n      jump\t// in\n    tag_49:\n      pop\n        /* \"contracts/Strongbox.sol\":388:560  function putSecret(string memory _key, string memory _value) external {... */\n      pop\n      pop\n      jump\t// out\n        /* \"contracts/Strongbox.sol\":1069:1616  function verifyMessage(... */\n    tag_22:\n        /* \"contracts/Strongbox.sol\":1183:1187  bool */\n      0x00\n        /* \"contracts/Strongbox.sol\":1200:1219  bytes32 messageHash */\n      dup1\n        /* \"contracts/Strongbox.sol\":1249:1257  _message */\n      dup4\n        /* \"contracts/Strongbox.sol\":1232:1258  abi.encodePacked(_message) */\n      add(0x20, mload(0x40))\n      tag_51\n      swap2\n      swap1\n      tag_28\n      jump\t// in\n    tag_51:\n      mload(0x40)\n      0x20\n      dup2\n      dup4\n      sub\n      sub\n      dup2\n      mstore\n      swap1\n      0x40\n      mstore\n        /* \"contracts/Strongbox.sol\":1222:1259  keccak256(abi.encodePacked(_message)) */\n      dup1\n      mload\n      swap1\n      0x20\n      add\n      keccak256\n        /* \"contracts/Strongbox.sol\":1200:1259  bytes32 messageHash = keccak256(abi.encodePacked(_message)) */\n      swap1\n      pop\n        /* \"contracts/Strongbox.sol\":1270:1298  bytes32 ethSignedMessageHash */\n      0x00\n        /* \"contracts/Strongbox.sol\":1378:1389  messageHash */\n      dup2\n        /* \"contracts/Strongbox.sol\":1325:1390  abi.encodePacked(\"\\x19Ethereum Signed Message:\\n32\", messageHash) */\n      add(0x20, mload(0x40))\n      tag_52\n      swap2\n      swap1\n      tag_53\n      jump\t// in\n    tag_52:\n      mload(0x40)\n      0x20\n      dup2\n      dup4\n      sub\n      sub\n      dup2\n      mstore\n      swap1\n      0x40\n      mstore\n        /* \"contracts/Strongbox.sol\":1301:1401  keccak256(... */\n      dup1\n      mload\n      swap1\n      0x20\n      add\n      keccak256\n        /* \"contracts/Strongbox.sol\":1270:1401  bytes32 ethSignedMessageHash = keccak256(... */\n      swap1\n      pop\n        /* \"contracts/Strongbox.sol\":1415:1424  bytes32 r */\n      0x00\n        /* \"contracts/Strongbox.sol\":1426:1435  bytes32 s */\n      dup1\n        /* \"contracts/Strongbox.sol\":1437:1444  uint8 v */\n      0x00\n        /* \"contracts/Strongbox.sol\":1448:1459  split(_sig) */\n      tag_54\n        /* \"contracts/Strongbox.sol\":1454:1458  _sig */\n      dup8\n        /* \"contracts/Strongbox.sol\":1448:1453  split */\n      tag_55\n        /* \"contracts/Strongbox.sol\":1448:1459  split(_sig) */\n      jump\t// in\n    tag_54:\n        /* \"contracts/Strongbox.sol\":1414:1459  (bytes32 r, bytes32 s, uint8 v) = split(_sig) */\n      swap3\n      pop\n      swap3\n      pop\n      swap3\n      pop\n        /* \"contracts/Strongbox.sol\":1470:1484  address signer */\n      0x00\n        /* \"contracts/Strongbox.sol\":1487:1527  ecrecover(ethSignedMessageHash, v, r, s) */\n      0x01\n        /* \"contracts/Strongbox.sol\":1497:1517  ethSignedMessageHash */\n      dup6\n        /* \"contracts/Strongbox.sol\":1519:1520  v */\n      dup4\n        /* \"contracts/Strongbox.sol\":1522:1523  r */\n      dup7\n        /* \"contracts/Strongbox.sol\":1525:1526  s */\n      dup7\n        /* \"contracts/Strongbox.sol\":1487:1527  ecrecover(ethSignedMessageHash, v, r, s) */\n      mload(0x40)\n      0x00\n      dup2\n      mstore\n      0x20\n      add\n      0x40\n      mstore\n      mload(0x40)\n      tag_56\n      swap5\n      swap4\n      swap3\n      swap2\n      swap1\n      tag_57\n      jump\t// in\n    tag_56:\n      0x20\n      mload(0x40)\n      0x20\n      dup2\n      sub\n      swap1\n      dup1\n      dup5\n      sub\n      swap1\n      dup6\n      gas\n      staticcall\n      iszero\n      dup1\n      iszero\n      tag_59\n      jumpi\n      returndatasize\n      0x00\n      dup1\n      returndatacopy\n      revert(0x00, returndatasize)\n    tag_59:\n      pop\n      pop\n      pop\n      mload(sub(mload(0x40), 0x20))\n        /* \"contracts/Strongbox.sol\":1470:1527  address signer = ecrecover(ethSignedMessageHash, v, r, s) */\n      swap1\n      pop\n        /* \"contracts/Strongbox.sol\":1538:1553  address _signer */\n      0x00\n        /* \"contracts/Strongbox.sol\":1556:1573  bytesToAddress(s) */\n      tag_60\n        /* \"contracts/Strongbox.sol\":1571:1572  s */\n      dup5\n        /* \"contracts/Strongbox.sol\":1556:1570  bytesToAddress */\n      tag_61\n        /* \"contracts/Strongbox.sol\":1556:1573  bytesToAddress(s) */\n      jump\t// in\n    tag_60:\n        /* \"contracts/Strongbox.sol\":1538:1573  address _signer = bytesToAddress(s) */\n      swap1\n      pop\n        /* \"contracts/Strongbox.sol\":1602:1608  signer */\n      dup2\n        /* \"contracts/Strongbox.sol\":1591:1608  _signer == signer */\n      0xffffffffffffffffffffffffffffffffffffffff\n      and\n        /* \"contracts/Strongbox.sol\":1591:1598  _signer */\n      dup2\n        /* \"contracts/Strongbox.sol\":1591:1608  _signer == signer */\n      0xffffffffffffffffffffffffffffffffffffffff\n      and\n      eq\n        /* \"contracts/Strongbox.sol\":1584:1608  return _signer == signer */\n      swap8\n      pop\n      pop\n      pop\n      pop\n      pop\n      pop\n      pop\n      pop\n        /* \"contracts/Strongbox.sol\":1069:1616  function verifyMessage(... */\n      swap3\n      swap2\n      pop\n      pop\n      jump\t// out\n        /* \"contracts/Strongbox.sol\":1624:1982  function split(... */\n    tag_55:\n        /* \"contracts/Strongbox.sol\":1697:1706  bytes32 r */\n      0x00\n        /* \"contracts/Strongbox.sol\":1708:1717  bytes32 s */\n      dup1\n        /* \"contracts/Strongbox.sol\":1719:1726  uint8 v */\n      0x00\n        /* \"contracts/Strongbox.sol\":1786:1788  65 */\n      0x41\n        /* \"contracts/Strongbox.sol\":1771:1775  _sig */\n      dup5\n        /* \"contracts/Strongbox.sol\":1771:1782  _sig.length */\n      mload\n        /* \"contracts/Strongbox.sol\":1771:1788  _sig.length == 65 */\n      eq\n        /* \"contracts/Strongbox.sol\":1763:1817  require(_sig.length == 65, \"invalid signature length\") */\n      tag_63\n      jumpi\n      mload(0x40)\n      0x08c379a000000000000000000000000000000000000000000000000000000000\n      dup2\n      mstore\n      0x04\n      add\n      tag_64\n      swap1\n      tag_65\n      jump\t// in\n    tag_64:\n      mload(0x40)\n      dup1\n      swap2\n      sub\n      swap1\n      revert\n    tag_63:\n        /* \"contracts/Strongbox.sol\":1873:1875  32 */\n      0x20\n        /* \"contracts/Strongbox.sol\":1867:1871  _sig */\n      dup5\n        /* \"contracts/Strongbox.sol\":1863:1876  add(_sig, 32) */\n      add\n        /* \"contracts/Strongbox.sol\":1857:1877  mload(add(_sig, 32)) */\n      mload\n        /* \"contracts/Strongbox.sol\":1852:1877  r := mload(add(_sig, 32)) */\n      swap3\n      pop\n        /* \"contracts/Strongbox.sol\":1912:1914  64 */\n      0x40\n        /* \"contracts/Strongbox.sol\":1906:1910  _sig */\n      dup5\n        /* \"contracts/Strongbox.sol\":1902:1915  add(_sig, 64) */\n      add\n        /* \"contracts/Strongbox.sol\":1896:1916  mload(add(_sig, 64)) */\n      mload\n        /* \"contracts/Strongbox.sol\":1891:1916  s := mload(add(_sig, 64)) */\n      swap2\n      pop\n        /* \"contracts/Strongbox.sol\":1959:1961  96 */\n      0x60\n        /* \"contracts/Strongbox.sol\":1953:1957  _sig */\n      dup5\n        /* \"contracts/Strongbox.sol\":1949:1962  add(_sig, 96) */\n      add\n        /* \"contracts/Strongbox.sol\":1943:1963  mload(add(_sig, 96)) */\n      mload\n        /* \"contracts/Strongbox.sol\":1940:1941  0 */\n      0x00\n        /* \"contracts/Strongbox.sol\":1935:1964  byte(0, mload(add(_sig, 96))) */\n      byte\n        /* \"contracts/Strongbox.sol\":1930:1964  v := byte(0, mload(add(_sig, 96))) */\n      swap1\n      pop\n        /* \"contracts/Strongbox.sol\":1624:1982  function split(... */\n      swap2\n      swap4\n      swap1\n      swap3\n      pop\n      jump\t// out\n        /* \"contracts/Strongbox.sol\":1990:2144  function bytesToAddress(bytes32 bys) internal pure returns (address addr) {... */\n    tag_61:\n        /* \"contracts/Strongbox.sol\":2050:2062  address addr */\n      0x00\n        /* \"contracts/Strongbox.sol\":2122:2124  20 */\n      0x14\n        /* \"contracts/Strongbox.sol\":2117:2120  bys */\n      dup3\n        /* \"contracts/Strongbox.sol\":2113:2125  add(bys, 20) */\n      add\n        /* \"contracts/Strongbox.sol\":2107:2126  mload(add(bys, 20)) */\n      mload\n        /* \"contracts/Strongbox.sol\":2099:2126  addr := mload(add(bys, 20)) */\n      swap1\n      pop\n        /* \"contracts/Strongbox.sol\":1990:2144  function bytesToAddress(bytes32 bys) internal pure returns (address addr) {... */\n      swap2\n      swap1\n      pop\n      jump\t// out\n        /* \"#utility.yul\":7:82   */\n    tag_67:\n        /* \"#utility.yul\":40:46   */\n      0x00\n        /* \"#utility.yul\":73:75   */\n      0x40\n        /* \"#utility.yul\":67:76   */\n      mload\n        /* \"#utility.yul\":57:76   */\n      swap1\n      pop\n        /* \"#utility.yul\":7:82   */\n      swap1\n      jump\t// out\n        /* \"#utility.yul\":88:205   */\n    tag_68:\n        /* \"#utility.yul\":197:198   */\n      0x00\n        /* \"#utility.yul\":194:195   */\n      dup1\n        /* \"#utility.yul\":187:199   */\n      revert\n        /* \"#utility.yul\":211:328   */\n    tag_69:\n        /* \"#utility.yul\":320:321   */\n      0x00\n        /* \"#utility.yul\":317:318   */\n      dup1\n        /* \"#utility.yul\":310:322   */\n      revert\n        /* \"#utility.yul\":334:451   */\n    tag_70:\n        /* \"#utility.yul\":443:444   */\n      0x00\n        /* \"#utility.yul\":440:441   */\n      dup1\n        /* \"#utility.yul\":433:445   */\n      revert\n        /* \"#utility.yul\":457:574   */\n    tag_71:\n        /* \"#utility.yul\":566:567   */\n      0x00\n        /* \"#utility.yul\":563:564   */\n      dup1\n        /* \"#utility.yul\":556:568   */\n      revert\n        /* \"#utility.yul\":580:682   */\n    tag_72:\n        /* \"#utility.yul\":621:627   */\n      0x00\n        /* \"#utility.yul\":672:674   */\n      0x1f\n        /* \"#utility.yul\":668:675   */\n      not\n        /* \"#utility.yul\":663:665   */\n      0x1f\n        /* \"#utility.yul\":656:661   */\n      dup4\n        /* \"#utility.yul\":652:666   */\n      add\n        /* \"#utility.yul\":648:676   */\n      and\n        /* \"#utility.yul\":638:676   */\n      swap1\n      pop\n        /* \"#utility.yul\":580:682   */\n      swap2\n      swap1\n      pop\n      jump\t// out\n        /* \"#utility.yul\":688:868   */\n    tag_73:\n        /* \"#utility.yul\":736:813   */\n      0x4e487b7100000000000000000000000000000000000000000000000000000000\n        /* \"#utility.yul\":733:734   */\n      0x00\n        /* \"#utility.yul\":726:814   */\n      mstore\n        /* \"#utility.yul\":833:837   */\n      0x41\n        /* \"#utility.yul\":830:831   */\n      0x04\n        /* \"#utility.yul\":823:838   */\n      mstore\n        /* \"#utility.yul\":857:861   */\n      0x24\n        /* \"#utility.yul\":854:855   */\n      0x00\n        /* \"#utility.yul\":847:862   */\n      revert\n        /* \"#utility.yul\":874:1155   */\n    tag_74:\n        /* \"#utility.yul\":957:984   */\n      tag_135\n        /* \"#utility.yul\":979:983   */\n      dup3\n        /* \"#utility.yul\":957:984   */\n      tag_72\n      jump\t// in\n    tag_135:\n        /* \"#utility.yul\":949:955   */\n      dup2\n        /* \"#utility.yul\":945:985   */\n      add\n        /* \"#utility.yul\":1087:1093   */\n      dup2\n        /* \"#utility.yul\":1075:1085   */\n      dup2\n        /* \"#utility.yul\":1072:1094   */\n      lt\n        /* \"#utility.yul\":1051:1069   */\n      0xffffffffffffffff\n        /* \"#utility.yul\":1039:1049   */\n      dup3\n        /* \"#utility.yul\":1036:1070   */\n      gt\n        /* \"#utility.yul\":1033:1095   */\n      or\n        /* \"#utility.yul\":1030:1118   */\n      iszero\n      tag_136\n      jumpi\n        /* \"#utility.yul\":1098:1116   */\n      tag_137\n      tag_73\n      jump\t// in\n    tag_137:\n        /* \"#utility.yul\":1030:1118   */\n    tag_136:\n        /* \"#utility.yul\":1138:1148   */\n      dup1\n        /* \"#utility.yul\":1134:1136   */\n      0x40\n        /* \"#utility.yul\":1127:1149   */\n      mstore\n        /* \"#utility.yul\":917:1155   */\n      pop\n        /* \"#utility.yul\":874:1155   */\n      pop\n      pop\n      jump\t// out\n        /* \"#utility.yul\":1161:1290   */\n    tag_75:\n        /* \"#utility.yul\":1195:1201   */\n      0x00\n        /* \"#utility.yul\":1222:1242   */\n      tag_139\n      tag_67\n      jump\t// in\n    tag_139:\n        /* \"#utility.yul\":1212:1242   */\n      swap1\n      pop\n        /* \"#utility.yul\":1251:1284   */\n      tag_140\n        /* \"#utility.yul\":1279:1283   */\n      dup3\n        /* \"#utility.yul\":1271:1277   */\n      dup3\n        /* \"#utility.yul\":1251:1284   */\n      tag_74\n      jump\t// in\n    tag_140:\n        /* \"#utility.yul\":1161:1290   */\n      swap2\n      swap1\n      pop\n      jump\t// out\n        /* \"#utility.yul\":1296:1604   */\n    tag_76:\n        /* \"#utility.yul\":1358:1362   */\n      0x00\n        /* \"#utility.yul\":1448:1466   */\n      0xffffffffffffffff\n        /* \"#utility.yul\":1440:1446   */\n      dup3\n        /* \"#utility.yul\":1437:1467   */\n      gt\n        /* \"#utility.yul\":1434:1490   */\n      iszero\n      tag_142\n      jumpi\n        /* \"#utility.yul\":1470:1488   */\n      tag_143\n      tag_73\n      jump\t// in\n    tag_143:\n        /* \"#utility.yul\":1434:1490   */\n    tag_142:\n        /* \"#utility.yul\":1508:1537   */\n      tag_144\n        /* \"#utility.yul\":1530:1536   */\n      dup3\n        /* \"#utility.yul\":1508:1537   */\n      tag_72\n      jump\t// in\n    tag_144:\n        /* \"#utility.yul\":1500:1537   */\n      swap1\n      pop\n        /* \"#utility.yul\":1592:1596   */\n      0x20\n        /* \"#utility.yul\":1586:1590   */\n      dup2\n        /* \"#utility.yul\":1582:1597   */\n      add\n        /* \"#utility.yul\":1574:1597   */\n      swap1\n      pop\n        /* \"#utility.yul\":1296:1604   */\n      swap2\n      swap1\n      pop\n      jump\t// out\n        /* \"#utility.yul\":1610:1758   */\n    tag_77:\n        /* \"#utility.yul\":1708:1714   */\n      dup3\n        /* \"#utility.yul\":1703:1706   */\n      dup2\n        /* \"#utility.yul\":1698:1701   */\n      dup4\n        /* \"#utility.yul\":1685:1715   */\n      calldatacopy\n        /* \"#utility.yul\":1749:1750   */\n      0x00\n        /* \"#utility.yul\":1740:1746   */\n      dup4\n        /* \"#utility.yul\":1735:1738   */\n      dup4\n        /* \"#utility.yul\":1731:1747   */\n      add\n        /* \"#utility.yul\":1724:1751   */\n      mstore\n        /* \"#utility.yul\":1610:1758   */\n      pop\n      pop\n      pop\n      jump\t// out\n        /* \"#utility.yul\":1764:2189   */\n    tag_78:\n        /* \"#utility.yul\":1842:1847   */\n      0x00\n        /* \"#utility.yul\":1867:1933   */\n      tag_147\n        /* \"#utility.yul\":1883:1932   */\n      tag_148\n        /* \"#utility.yul\":1925:1931   */\n      dup5\n        /* \"#utility.yul\":1883:1932   */\n      tag_76\n      jump\t// in\n    tag_148:\n        /* \"#utility.yul\":1867:1933   */\n      tag_75\n      jump\t// in\n    tag_147:\n        /* \"#utility.yul\":1858:1933   */\n      swap1\n      pop\n        /* \"#utility.yul\":1956:1962   */\n      dup3\n        /* \"#utility.yul\":1949:1954   */\n      dup2\n        /* \"#utility.yul\":1942:1963   */\n      mstore\n        /* \"#utility.yul\":1994:1998   */\n      0x20\n        /* \"#utility.yul\":1987:1992   */\n      dup2\n        /* \"#utility.yul\":1983:1999   */\n      add\n        /* \"#utility.yul\":2032:2035   */\n      dup5\n        /* \"#utility.yul\":2023:2029   */\n      dup5\n        /* \"#utility.yul\":2018:2021   */\n      dup5\n        /* \"#utility.yul\":2014:2030   */\n      add\n        /* \"#utility.yul\":2011:2036   */\n      gt\n        /* \"#utility.yul\":2008:2120   */\n      iszero\n      tag_149\n      jumpi\n        /* \"#utility.yul\":2039:2118   */\n      tag_150\n      tag_71\n      jump\t// in\n    tag_150:\n        /* \"#utility.yul\":2008:2120   */\n    tag_149:\n        /* \"#utility.yul\":2129:2183   */\n      tag_151\n        /* \"#utility.yul\":2176:2182   */\n      dup5\n        /* \"#utility.yul\":2171:2174   */\n      dup3\n        /* \"#utility.yul\":2166:2169   */\n      dup6\n        /* \"#utility.yul\":2129:2183   */\n      tag_77\n      jump\t// in\n    tag_151:\n        /* \"#utility.yul\":1848:2189   */\n      pop\n        /* \"#utility.yul\":1764:2189   */\n      swap4\n      swap3\n      pop\n      pop\n      pop\n      jump\t// out\n        /* \"#utility.yul\":2209:2549   */\n    tag_79:\n        /* \"#utility.yul\":2265:2270   */\n      0x00\n        /* \"#utility.yul\":2314:2317   */\n      dup3\n        /* \"#utility.yul\":2307:2311   */\n      0x1f\n        /* \"#utility.yul\":2299:2305   */\n      dup4\n        /* \"#utility.yul\":2295:2312   */\n      add\n        /* \"#utility.yul\":2291:2318   */\n      slt\n        /* \"#utility.yul\":2281:2403   */\n      tag_153\n      jumpi\n        /* \"#utility.yul\":2322:2401   */\n      tag_154\n      tag_70\n      jump\t// in\n    tag_154:\n        /* \"#utility.yul\":2281:2403   */\n    tag_153:\n        /* \"#utility.yul\":2439:2445   */\n      dup2\n        /* \"#utility.yul\":2426:2446   */\n      calldataload\n        /* \"#utility.yul\":2464:2543   */\n      tag_155\n        /* \"#utility.yul\":2539:2542   */\n      dup5\n        /* \"#utility.yul\":2531:2537   */\n      dup3\n        /* \"#utility.yul\":2524:2528   */\n      0x20\n        /* \"#utility.yul\":2516:2522   */\n      dup7\n        /* \"#utility.yul\":2512:2529   */\n      add\n        /* \"#utility.yul\":2464:2543   */\n      tag_78\n      jump\t// in\n    tag_155:\n        /* \"#utility.yul\":2455:2543   */\n      swap2\n      pop\n        /* \"#utility.yul\":2271:2549   */\n      pop\n        /* \"#utility.yul\":2209:2549   */\n      swap3\n      swap2\n      pop\n      pop\n      jump\t// out\n        /* \"#utility.yul\":2555:2862   */\n    tag_80:\n        /* \"#utility.yul\":2616:2620   */\n      0x00\n        /* \"#utility.yul\":2706:2724   */\n      0xffffffffffffffff\n        /* \"#utility.yul\":2698:2704   */\n      dup3\n        /* \"#utility.yul\":2695:2725   */\n      gt\n        /* \"#utility.yul\":2692:2748   */\n      iszero\n      tag_157\n      jumpi\n        /* \"#utility.yul\":2728:2746   */\n      tag_158\n      tag_73\n      jump\t// in\n    tag_158:\n        /* \"#utility.yul\":2692:2748   */\n    tag_157:\n        /* \"#utility.yul\":2766:2795   */\n      tag_159\n        /* \"#utility.yul\":2788:2794   */\n      dup3\n        /* \"#utility.yul\":2766:2795   */\n      tag_72\n      jump\t// in\n    tag_159:\n        /* \"#utility.yul\":2758:2795   */\n      swap1\n      pop\n        /* \"#utility.yul\":2850:2854   */\n      0x20\n        /* \"#utility.yul\":2844:2848   */\n      dup2\n        /* \"#utility.yul\":2840:2855   */\n      add\n        /* \"#utility.yul\":2832:2855   */\n      swap1\n      pop\n        /* \"#utility.yul\":2555:2862   */\n      swap2\n      swap1\n      pop\n      jump\t// out\n        /* \"#utility.yul\":2868:3291   */\n    tag_81:\n        /* \"#utility.yul\":2945:2950   */\n      0x00\n        /* \"#utility.yul\":2970:3035   */\n      tag_161\n        /* \"#utility.yul\":2986:3034   */\n      tag_162\n        /* \"#utility.yul\":3027:3033   */\n      dup5\n        /* \"#utility.yul\":2986:3034   */\n      tag_80\n      jump\t// in\n    tag_162:\n        /* \"#utility.yul\":2970:3035   */\n      tag_75\n      jump\t// in\n    tag_161:\n        /* \"#utility.yul\":2961:3035   */\n      swap1\n      pop\n        /* \"#utility.yul\":3058:3064   */\n      dup3\n        /* \"#utility.yul\":3051:3056   */\n      dup2\n        /* \"#utility.yul\":3044:3065   */\n      mstore\n        /* \"#utility.yul\":3096:3100   */\n      0x20\n        /* \"#utility.yul\":3089:3094   */\n      dup2\n        /* \"#utility.yul\":3085:3101   */\n      add\n        /* \"#utility.yul\":3134:3137   */\n      dup5\n        /* \"#utility.yul\":3125:3131   */\n      dup5\n        /* \"#utility.yul\":3120:3123   */\n      dup5\n        /* \"#utility.yul\":3116:3132   */\n      add\n        /* \"#utility.yul\":3113:3138   */\n      gt\n        /* \"#utility.yul\":3110:3222   */\n      iszero\n      tag_163\n      jumpi\n        /* \"#utility.yul\":3141:3220   */\n      tag_164\n      tag_71\n      jump\t// in\n    tag_164:\n        /* \"#utility.yul\":3110:3222   */\n    tag_163:\n        /* \"#utility.yul\":3231:3285   */\n      tag_165\n        /* \"#utility.yul\":3278:3284   */\n      dup5\n        /* \"#utility.yul\":3273:3276   */\n      dup3\n        /* \"#utility.yul\":3268:3271   */\n      dup6\n        /* \"#utility.yul\":3231:3285   */\n      tag_77\n      jump\t// in\n    tag_165:\n        /* \"#utility.yul\":2951:3291   */\n      pop\n        /* \"#utility.yul\":2868:3291   */\n      swap4\n      swap3\n      pop\n      pop\n      pop\n      jump\t// out\n        /* \"#utility.yul\":3310:3648   */\n    tag_82:\n        /* \"#utility.yul\":3365:3370   */\n      0x00\n        /* \"#utility.yul\":3414:3417   */\n      dup3\n        /* \"#utility.yul\":3407:3411   */\n      0x1f\n        /* \"#utility.yul\":3399:3405   */\n      dup4\n        /* \"#utility.yul\":3395:3412   */\n      add\n        /* \"#utility.yul\":3391:3418   */\n      slt\n        /* \"#utility.yul\":3381:3503   */\n      tag_167\n      jumpi\n        /* \"#utility.yul\":3422:3501   */\n      tag_168\n      tag_70\n      jump\t// in\n    tag_168:\n        /* \"#utility.yul\":3381:3503   */\n    tag_167:\n        /* \"#utility.yul\":3539:3545   */\n      dup2\n        /* \"#utility.yul\":3526:3546   */\n      calldataload\n        /* \"#utility.yul\":3564:3642   */\n      tag_169\n        /* \"#utility.yul\":3638:3641   */\n      dup5\n        /* \"#utility.yul\":3630:3636   */\n      dup3\n        /* \"#utility.yul\":3623:3627   */\n      0x20\n        /* \"#utility.yul\":3615:3621   */\n      dup7\n        /* \"#utility.yul\":3611:3628   */\n      add\n        /* \"#utility.yul\":3564:3642   */\n      tag_81\n      jump\t// in\n    tag_169:\n        /* \"#utility.yul\":3555:3642   */\n      swap2\n      pop\n        /* \"#utility.yul\":3371:3648   */\n      pop\n        /* \"#utility.yul\":3310:3648   */\n      swap3\n      swap2\n      pop\n      pop\n      jump\t// out\n        /* \"#utility.yul\":3654:4486   */\n    tag_8:\n        /* \"#utility.yul\":3741:3747   */\n      0x00\n        /* \"#utility.yul\":3749:3755   */\n      dup1\n        /* \"#utility.yul\":3798:3800   */\n      0x40\n        /* \"#utility.yul\":3786:3795   */\n      dup4\n        /* \"#utility.yul\":3777:3784   */\n      dup6\n        /* \"#utility.yul\":3773:3796   */\n      sub\n        /* \"#utility.yul\":3769:3801   */\n      slt\n        /* \"#utility.yul\":3766:3885   */\n      iszero\n      tag_171\n      jumpi\n        /* \"#utility.yul\":3804:3883   */\n      tag_172\n      tag_68\n      jump\t// in\n    tag_172:\n        /* \"#utility.yul\":3766:3885   */\n    tag_171:\n        /* \"#utility.yul\":3952:3953   */\n      0x00\n        /* \"#utility.yul\":3941:3950   */\n      dup4\n        /* \"#utility.yul\":3937:3954   */\n      add\n        /* \"#utility.yul\":3924:3955   */\n      calldataload\n        /* \"#utility.yul\":3982:4000   */\n      0xffffffffffffffff\n        /* \"#utility.yul\":3974:3980   */\n      dup2\n        /* \"#utility.yul\":3971:4001   */\n      gt\n        /* \"#utility.yul\":3968:4085   */\n      iszero\n      tag_173\n      jumpi\n        /* \"#utility.yul\":4004:4083   */\n      tag_174\n      tag_69\n      jump\t// in\n    tag_174:\n        /* \"#utility.yul\":3968:4085   */\n    tag_173:\n        /* \"#utility.yul\":4109:4172   */\n      tag_175\n        /* \"#utility.yul\":4164:4171   */\n      dup6\n        /* \"#utility.yul\":4155:4161   */\n      dup3\n        /* \"#utility.yul\":4144:4153   */\n      dup7\n        /* \"#utility.yul\":4140:4162   */\n      add\n        /* \"#utility.yul\":4109:4172   */\n      tag_79\n      jump\t// in\n    tag_175:\n        /* \"#utility.yul\":4099:4172   */\n      swap3\n      pop\n        /* \"#utility.yul\":3895:4182   */\n      pop\n        /* \"#utility.yul\":4249:4251   */\n      0x20\n        /* \"#utility.yul\":4238:4247   */\n      dup4\n        /* \"#utility.yul\":4234:4252   */\n      add\n        /* \"#utility.yul\":4221:4253   */\n      calldataload\n        /* \"#utility.yul\":4280:4298   */\n      0xffffffffffffffff\n        /* \"#utility.yul\":4272:4278   */\n      dup2\n        /* \"#utility.yul\":4269:4299   */\n      gt\n        /* \"#utility.yul\":4266:4383   */\n      iszero\n      tag_176\n      jumpi\n        /* \"#utility.yul\":4302:4381   */\n      tag_177\n      tag_69\n      jump\t// in\n    tag_177:\n        /* \"#utility.yul\":4266:4383   */\n    tag_176:\n        /* \"#utility.yul\":4407:4469   */\n      tag_178\n        /* \"#utility.yul\":4461:4468   */\n      dup6\n        /* \"#utility.yul\":4452:4458   */\n      dup3\n        /* \"#utility.yul\":4441:4450   */\n      dup7\n        /* \"#utility.yul\":4437:4459   */\n      add\n        /* \"#utility.yul\":4407:4469   */\n      tag_82\n      jump\t// in\n    tag_178:\n        /* \"#utility.yul\":4397:4469   */\n      swap2\n      pop\n        /* \"#utility.yul\":4192:4479   */\n      pop\n        /* \"#utility.yul\":3654:4486   */\n      swap3\n      pop\n      swap3\n      swap1\n      pop\n      jump\t// out\n        /* \"#utility.yul\":4492:4591   */\n    tag_83:\n        /* \"#utility.yul\":4544:4550   */\n      0x00\n        /* \"#utility.yul\":4578:4583   */\n      dup2\n        /* \"#utility.yul\":4572:4584   */\n      mload\n        /* \"#utility.yul\":4562:4584   */\n      swap1\n      pop\n        /* \"#utility.yul\":4492:4591   */\n      swap2\n      swap1\n      pop\n      jump\t// out\n        /* \"#utility.yul\":4597:4766   */\n    tag_84:\n        /* \"#utility.yul\":4681:4692   */\n      0x00\n        /* \"#utility.yul\":4715:4721   */\n      dup3\n        /* \"#utility.yul\":4710:4713   */\n      dup3\n        /* \"#utility.yul\":4703:4722   */\n      mstore\n        /* \"#utility.yul\":4755:4759   */\n      0x20\n        /* \"#utility.yul\":4750:4753   */\n      dup3\n        /* \"#utility.yul\":4746:4760   */\n      add\n        /* \"#utility.yul\":4731:4760   */\n      swap1\n      pop\n        /* \"#utility.yul\":4597:4766   */\n      swap3\n      swap2\n      pop\n      pop\n      jump\t// out\n        /* \"#utility.yul\":4772:4911   */\n    tag_85:\n        /* \"#utility.yul\":4861:4867   */\n      dup3\n        /* \"#utility.yul\":4856:4859   */\n      dup2\n        /* \"#utility.yul\":4851:4854   */\n      dup4\n        /* \"#utility.yul\":4845:4868   */\n      mcopy\n        /* \"#utility.yul\":4902:4903   */\n      0x00\n        /* \"#utility.yul\":4893:4899   */\n      dup4\n        /* \"#utility.yul\":4888:4891   */\n      dup4\n        /* \"#utility.yul\":4884:4900   */\n      add\n        /* \"#utility.yul\":4877:4904   */\n      mstore\n        /* \"#utility.yul\":4772:4911   */\n      pop\n      pop\n      pop\n      jump\t// out\n        /* \"#utility.yul\":4917:5294   */\n    tag_86:\n        /* \"#utility.yul\":5005:5008   */\n      0x00\n        /* \"#utility.yul\":5033:5072   */\n      tag_183\n        /* \"#utility.yul\":5066:5071   */\n      dup3\n        /* \"#utility.yul\":5033:5072   */\n      tag_83\n      jump\t// in\n    tag_183:\n        /* \"#utility.yul\":5088:5159   */\n      tag_184\n        /* \"#utility.yul\":5152:5158   */\n      dup2\n        /* \"#utility.yul\":5147:5150   */\n      dup6\n        /* \"#utility.yul\":5088:5159   */\n      tag_84\n      jump\t// in\n    tag_184:\n        /* \"#utility.yul\":5081:5159   */\n      swap4\n      pop\n        /* \"#utility.yul\":5168:5233   */\n      tag_185\n        /* \"#utility.yul\":5226:5232   */\n      dup2\n        /* \"#utility.yul\":5221:5224   */\n      dup6\n        /* \"#utility.yul\":5214:5218   */\n      0x20\n        /* \"#utility.yul\":5207:5212   */\n      dup7\n        /* \"#utility.yul\":5203:5219   */\n      add\n        /* \"#utility.yul\":5168:5233   */\n      tag_85\n      jump\t// in\n    tag_185:\n        /* \"#utility.yul\":5258:5287   */\n      tag_186\n        /* \"#utility.yul\":5280:5286   */\n      dup2\n        /* \"#utility.yul\":5258:5287   */\n      tag_72\n      jump\t// in\n    tag_186:\n        /* \"#utility.yul\":5253:5256   */\n      dup5\n        /* \"#utility.yul\":5249:5288   */\n      add\n        /* \"#utility.yul\":5242:5288   */\n      swap2\n      pop\n        /* \"#utility.yul\":5009:5294   */\n      pop\n        /* \"#utility.yul\":4917:5294   */\n      swap3\n      swap2\n      pop\n      pop\n      jump\t// out\n        /* \"#utility.yul\":5300:5613   */\n    tag_11:\n        /* \"#utility.yul\":5413:5417   */\n      0x00\n        /* \"#utility.yul\":5451:5453   */\n      0x20\n        /* \"#utility.yul\":5440:5449   */\n      dup3\n        /* \"#utility.yul\":5436:5454   */\n      add\n        /* \"#utility.yul\":5428:5454   */\n      swap1\n      pop\n        /* \"#utility.yul\":5500:5509   */\n      dup2\n        /* \"#utility.yul\":5494:5498   */\n      dup2\n        /* \"#utility.yul\":5490:5510   */\n      sub\n        /* \"#utility.yul\":5486:5487   */\n      0x00\n        /* \"#utility.yul\":5475:5484   */\n      dup4\n        /* \"#utility.yul\":5471:5488   */\n      add\n        /* \"#utility.yul\":5464:5511   */\n      mstore\n        /* \"#utility.yul\":5528:5606   */\n      tag_188\n        /* \"#utility.yul\":5601:5605   */\n      dup2\n        /* \"#utility.yul\":5592:5598   */\n      dup5\n        /* \"#utility.yul\":5528:5606   */\n      tag_86\n      jump\t// in\n    tag_188:\n        /* \"#utility.yul\":5520:5606   */\n      swap1\n      pop\n        /* \"#utility.yul\":5300:5613   */\n      swap3\n      swap2\n      pop\n      pop\n      jump\t// out\n        /* \"#utility.yul\":5619:5743   */\n    tag_87:\n        /* \"#utility.yul\":5696:5702   */\n      0x00\n        /* \"#utility.yul\":5730:5735   */\n      dup2\n        /* \"#utility.yul\":5724:5736   */\n      mload\n        /* \"#utility.yul\":5714:5736   */\n      swap1\n      pop\n        /* \"#utility.yul\":5619:5743   */\n      swap2\n      swap1\n      pop\n      jump\t// out\n        /* \"#utility.yul\":5749:5943   */\n    tag_88:\n        /* \"#utility.yul\":5858:5869   */\n      0x00\n        /* \"#utility.yul\":5892:5898   */\n      dup3\n        /* \"#utility.yul\":5887:5890   */\n      dup3\n        /* \"#utility.yul\":5880:5899   */\n      mstore\n        /* \"#utility.yul\":5932:5936   */\n      0x20\n        /* \"#utility.yul\":5927:5930   */\n      dup3\n        /* \"#utility.yul\":5923:5937   */\n      add\n        /* \"#utility.yul\":5908:5937   */\n      swap1\n      pop\n        /* \"#utility.yul\":5749:5943   */\n      swap3\n      swap2\n      pop\n      pop\n      jump\t// out\n        /* \"#utility.yul\":5949:6091   */\n    tag_89:\n        /* \"#utility.yul\":6026:6030   */\n      0x00\n        /* \"#utility.yul\":6049:6052   */\n      dup2\n        /* \"#utility.yul\":6041:6052   */\n      swap1\n      pop\n        /* \"#utility.yul\":6079:6083   */\n      0x20\n        /* \"#utility.yul\":6074:6077   */\n      dup3\n        /* \"#utility.yul\":6070:6084   */\n      add\n        /* \"#utility.yul\":6062:6084   */\n      swap1\n      pop\n        /* \"#utility.yul\":5949:6091   */\n      swap2\n      swap1\n      pop\n      jump\t// out\n        /* \"#utility.yul\":6097:6256   */\n    tag_90:\n        /* \"#utility.yul\":6171:6182   */\n      0x00\n        /* \"#utility.yul\":6205:6211   */\n      dup3\n        /* \"#utility.yul\":6200:6203   */\n      dup3\n        /* \"#utility.yul\":6193:6212   */\n      mstore\n        /* \"#utility.yul\":6245:6249   */\n      0x20\n        /* \"#utility.yul\":6240:6243   */\n      dup3\n        /* \"#utility.yul\":6236:6250   */\n      add\n        /* \"#utility.yul\":6221:6250   */\n      swap1\n      pop\n        /* \"#utility.yul\":6097:6256   */\n      swap3\n      swap2\n      pop\n      pop\n      jump\t// out\n        /* \"#utility.yul\":6262:6619   */\n    tag_91:\n        /* \"#utility.yul\":6340:6343   */\n      0x00\n        /* \"#utility.yul\":6368:6407   */\n      tag_194\n        /* \"#utility.yul\":6401:6406   */\n      dup3\n        /* \"#utility.yul\":6368:6407   */\n      tag_83\n      jump\t// in\n    tag_194:\n        /* \"#utility.yul\":6423:6484   */\n      tag_195\n        /* \"#utility.yul\":6477:6483   */\n      dup2\n        /* \"#utility.yul\":6472:6475   */\n      dup6\n        /* \"#utility.yul\":6423:6484   */\n      tag_90\n      jump\t// in\n    tag_195:\n        /* \"#utility.yul\":6416:6484   */\n      swap4\n      pop\n        /* \"#utility.yul\":6493:6558   */\n      tag_196\n        /* \"#utility.yul\":6551:6557   */\n      dup2\n        /* \"#utility.yul\":6546:6549   */\n      dup6\n        /* \"#utility.yul\":6539:6543   */\n      0x20\n        /* \"#utility.yul\":6532:6537   */\n      dup7\n        /* \"#utility.yul\":6528:6544   */\n      add\n        /* \"#utility.yul\":6493:6558   */\n      tag_85\n      jump\t// in\n    tag_196:\n        /* \"#utility.yul\":6583:6612   */\n      tag_197\n        /* \"#utility.yul\":6605:6611   */\n      dup2\n        /* \"#utility.yul\":6583:6612   */\n      tag_72\n      jump\t// in\n    tag_197:\n        /* \"#utility.yul\":6578:6581   */\n      dup5\n        /* \"#utility.yul\":6574:6613   */\n      add\n        /* \"#utility.yul\":6567:6613   */\n      swap2\n      pop\n        /* \"#utility.yul\":6344:6619   */\n      pop\n        /* \"#utility.yul\":6262:6619   */\n      swap3\n      swap2\n      pop\n      pop\n      jump\t// out\n        /* \"#utility.yul\":6625:6821   */\n    tag_92:\n        /* \"#utility.yul\":6714:6724   */\n      0x00\n        /* \"#utility.yul\":6749:6815   */\n      tag_199\n        /* \"#utility.yul\":6811:6814   */\n      dup4\n        /* \"#utility.yul\":6803:6809   */\n      dup4\n        /* \"#utility.yul\":6749:6815   */\n      tag_91\n      jump\t// in\n    tag_199:\n        /* \"#utility.yul\":6735:6815   */\n      swap1\n      pop\n        /* \"#utility.yul\":6625:6821   */\n      swap3\n      swap2\n      pop\n      pop\n      jump\t// out\n        /* \"#utility.yul\":6827:6950   */\n    tag_93:\n        /* \"#utility.yul\":6907:6911   */\n      0x00\n        /* \"#utility.yul\":6939:6943   */\n      0x20\n        /* \"#utility.yul\":6934:6937   */\n      dup3\n        /* \"#utility.yul\":6930:6944   */\n      add\n        /* \"#utility.yul\":6922:6944   */\n      swap1\n      pop\n        /* \"#utility.yul\":6827:6950   */\n      swap2\n      swap1\n      pop\n      jump\t// out\n        /* \"#utility.yul\":6984:7975   */\n    tag_94:\n        /* \"#utility.yul\":7123:7126   */\n      0x00\n        /* \"#utility.yul\":7152:7216   */\n      tag_202\n        /* \"#utility.yul\":7210:7215   */\n      dup3\n        /* \"#utility.yul\":7152:7216   */\n      tag_87\n      jump\t// in\n    tag_202:\n        /* \"#utility.yul\":7232:7328   */\n      tag_203\n        /* \"#utility.yul\":7321:7327   */\n      dup2\n        /* \"#utility.yul\":7316:7319   */\n      dup6\n        /* \"#utility.yul\":7232:7328   */\n      tag_88\n      jump\t// in\n    tag_203:\n        /* \"#utility.yul\":7225:7328   */\n      swap4\n      pop\n        /* \"#utility.yul\":7354:7357   */\n      dup4\n        /* \"#utility.yul\":7399:7403   */\n      0x20\n        /* \"#utility.yul\":7391:7397   */\n      dup3\n        /* \"#utility.yul\":7387:7404   */\n      mul\n        /* \"#utility.yul\":7382:7385   */\n      dup6\n        /* \"#utility.yul\":7378:7405   */\n      add\n        /* \"#utility.yul\":7429:7495   */\n      tag_204\n        /* \"#utility.yul\":7489:7494   */\n      dup6\n        /* \"#utility.yul\":7429:7495   */\n      tag_89\n      jump\t// in\n    tag_204:\n        /* \"#utility.yul\":7518:7525   */\n      dup1\n        /* \"#utility.yul\":7549:7550   */\n      0x00\n        /* \"#utility.yul\":7534:7930   */\n    tag_205:\n        /* \"#utility.yul\":7559:7565   */\n      dup6\n        /* \"#utility.yul\":7556:7557   */\n      dup2\n        /* \"#utility.yul\":7553:7566   */\n      lt\n        /* \"#utility.yul\":7534:7930   */\n      iszero\n      tag_207\n      jumpi\n        /* \"#utility.yul\":7630:7639   */\n      dup5\n        /* \"#utility.yul\":7624:7628   */\n      dup5\n        /* \"#utility.yul\":7620:7640   */\n      sub\n        /* \"#utility.yul\":7615:7618   */\n      dup10\n        /* \"#utility.yul\":7608:7641   */\n      mstore\n        /* \"#utility.yul\":7681:7687   */\n      dup2\n        /* \"#utility.yul\":7675:7688   */\n      mload\n        /* \"#utility.yul\":7709:7793   */\n      tag_208\n        /* \"#utility.yul\":7788:7792   */\n      dup6\n        /* \"#utility.yul\":7773:7786   */\n      dup3\n        /* \"#utility.yul\":7709:7793   */\n      tag_92\n      jump\t// in\n    tag_208:\n        /* \"#utility.yul\":7701:7793   */\n      swap5\n      pop\n        /* \"#utility.yul\":7816:7886   */\n      tag_209\n        /* \"#utility.yul\":7879:7885   */\n      dup4\n        /* \"#utility.yul\":7816:7886   */\n      tag_93\n      jump\t// in\n    tag_209:\n        /* \"#utility.yul\":7806:7886   */\n      swap3\n      pop\n        /* \"#utility.yul\":7915:7919   */\n      0x20\n        /* \"#utility.yul\":7910:7913   */\n      dup11\n        /* \"#utility.yul\":7906:7920   */\n      add\n        /* \"#utility.yul\":7899:7920   */\n      swap10\n      pop\n        /* \"#utility.yul\":7594:7930   */\n      pop\n        /* \"#utility.yul\":7581:7582   */\n      0x01\n        /* \"#utility.yul\":7578:7579   */\n      dup2\n        /* \"#utility.yul\":7574:7583   */\n      add\n        /* \"#utility.yul\":7569:7583   */\n      swap1\n      pop\n        /* \"#utility.yul\":7534:7930   */\n      jump(tag_205)\n    tag_207:\n        /* \"#utility.yul\":7538:7552   */\n      pop\n        /* \"#utility.yul\":7946:7950   */\n      dup3\n        /* \"#utility.yul\":7939:7950   */\n      swap8\n      pop\n        /* \"#utility.yul\":7966:7969   */\n      dup8\n        /* \"#utility.yul\":7959:7969   */\n      swap6\n      pop\n        /* \"#utility.yul\":7128:7975   */\n      pop\n      pop\n      pop\n      pop\n      pop\n        /* \"#utility.yul\":6984:7975   */\n      swap3\n      swap2\n      pop\n      pop\n      jump\t// out\n        /* \"#utility.yul\":7981:8394   */\n    tag_15:\n        /* \"#utility.yul\":8144:8148   */\n      0x00\n        /* \"#utility.yul\":8182:8184   */\n      0x20\n        /* \"#utility.yul\":8171:8180   */\n      dup3\n        /* \"#utility.yul\":8167:8185   */\n      add\n        /* \"#utility.yul\":8159:8185   */\n      swap1\n      pop\n        /* \"#utility.yul\":8231:8240   */\n      dup2\n        /* \"#utility.yul\":8225:8229   */\n      dup2\n        /* \"#utility.yul\":8221:8241   */\n      sub\n        /* \"#utility.yul\":8217:8218   */\n      0x00\n        /* \"#utility.yul\":8206:8215   */\n      dup4\n        /* \"#utility.yul\":8202:8219   */\n      add\n        /* \"#utility.yul\":8195:8242   */\n      mstore\n        /* \"#utility.yul\":8259:8387   */\n      tag_211\n        /* \"#utility.yul\":8382:8386   */\n      dup2\n        /* \"#utility.yul\":8373:8379   */\n      dup5\n        /* \"#utility.yul\":8259:8387   */\n      tag_94\n      jump\t// in\n    tag_211:\n        /* \"#utility.yul\":8251:8387   */\n      swap1\n      pop\n        /* \"#utility.yul\":7981:8394   */\n      swap3\n      swap2\n      pop\n      pop\n      jump\t// out\n        /* \"#utility.yul\":8400:9234   */\n    tag_18:\n        /* \"#utility.yul\":8488:8494   */\n      0x00\n        /* \"#utility.yul\":8496:8502   */\n      dup1\n        /* \"#utility.yul\":8545:8547   */\n      0x40\n        /* \"#utility.yul\":8533:8542   */\n      dup4\n        /* \"#utility.yul\":8524:8531   */\n      dup6\n        /* \"#utility.yul\":8520:8543   */\n      sub\n        /* \"#utility.yul\":8516:8548   */\n      slt\n        /* \"#utility.yul\":8513:8632   */\n      iszero\n      tag_213\n      jumpi\n        /* \"#utility.yul\":8551:8630   */\n      tag_214\n      tag_68\n      jump\t// in\n    tag_214:\n        /* \"#utility.yul\":8513:8632   */\n    tag_213:\n        /* \"#utility.yul\":8699:8700   */\n      0x00\n        /* \"#utility.yul\":8688:8697   */\n      dup4\n        /* \"#utility.yul\":8684:8701   */\n      add\n        /* \"#utility.yul\":8671:8702   */\n      calldataload\n        /* \"#utility.yul\":8729:8747   */\n      0xffffffffffffffff\n        /* \"#utility.yul\":8721:8727   */\n      dup2\n        /* \"#utility.yul\":8718:8748   */\n      gt\n        /* \"#utility.yul\":8715:8832   */\n      iszero\n      tag_215\n      jumpi\n        /* \"#utility.yul\":8751:8830   */\n      tag_216\n      tag_69\n      jump\t// in\n    tag_216:\n        /* \"#utility.yul\":8715:8832   */\n    tag_215:\n        /* \"#utility.yul\":8856:8919   */\n      tag_217\n        /* \"#utility.yul\":8911:8918   */\n      dup6\n        /* \"#utility.yul\":8902:8908   */\n      dup3\n        /* \"#utility.yul\":8891:8900   */\n      dup7\n        /* \"#utility.yul\":8887:8909   */\n      add\n        /* \"#utility.yul\":8856:8919   */\n      tag_79\n      jump\t// in\n    tag_217:\n        /* \"#utility.yul\":8846:8919   */\n      swap3\n      pop\n        /* \"#utility.yul\":8642:8929   */\n      pop\n        /* \"#utility.yul\":8996:8998   */\n      0x20\n        /* \"#utility.yul\":8985:8994   */\n      dup4\n        /* \"#utility.yul\":8981:8999   */\n      add\n        /* \"#utility.yul\":8968:9000   */\n      calldataload\n        /* \"#utility.yul\":9027:9045   */\n      0xffffffffffffffff\n        /* \"#utility.yul\":9019:9025   */\n      dup2\n        /* \"#utility.yul\":9016:9046   */\n      gt\n        /* \"#utility.yul\":9013:9130   */\n      iszero\n      tag_218\n      jumpi\n        /* \"#utility.yul\":9049:9128   */\n      tag_219\n      tag_69\n      jump\t// in\n    tag_219:\n        /* \"#utility.yul\":9013:9130   */\n    tag_218:\n        /* \"#utility.yul\":9154:9217   */\n      tag_220\n        /* \"#utility.yul\":9209:9216   */\n      dup6\n        /* \"#utility.yul\":9200:9206   */\n      dup3\n        /* \"#utility.yul\":9189:9198   */\n      dup7\n        /* \"#utility.yul\":9185:9207   */\n      add\n        /* \"#utility.yul\":9154:9217   */\n      tag_79\n      jump\t// in\n    tag_220:\n        /* \"#utility.yul\":9144:9217   */\n      swap2\n      pop\n        /* \"#utility.yul\":8939:9227   */\n      pop\n        /* \"#utility.yul\":8400:9234   */\n      swap3\n      pop\n      swap3\n      swap1\n      pop\n      jump\t// out\n        /* \"#utility.yul\":9240:9411   */\n    tag_95:\n        /* \"#utility.yul\":9380:9403   */\n      0x73696720697320636865636b6564206661696c65640000000000000000000000\n        /* \"#utility.yul\":9376:9377   */\n      0x00\n        /* \"#utility.yul\":9368:9374   */\n      dup3\n        /* \"#utility.yul\":9364:9378   */\n      add\n        /* \"#utility.yul\":9357:9404   */\n      mstore\n        /* \"#utility.yul\":9240:9411   */\n      pop\n      jump\t// out\n        /* \"#utility.yul\":9417:9783   */\n    tag_96:\n        /* \"#utility.yul\":9559:9562   */\n      0x00\n        /* \"#utility.yul\":9580:9647   */\n      tag_223\n        /* \"#utility.yul\":9644:9646   */\n      0x15\n        /* \"#utility.yul\":9639:9642   */\n      dup4\n        /* \"#utility.yul\":9580:9647   */\n      tag_84\n      jump\t// in\n    tag_223:\n        /* \"#utility.yul\":9573:9647   */\n      swap2\n      pop\n        /* \"#utility.yul\":9656:9749   */\n      tag_224\n        /* \"#utility.yul\":9745:9748   */\n      dup3\n        /* \"#utility.yul\":9656:9749   */\n      tag_95\n      jump\t// in\n    tag_224:\n        /* \"#utility.yul\":9774:9776   */\n      0x20\n        /* \"#utility.yul\":9769:9772   */\n      dup3\n        /* \"#utility.yul\":9765:9777   */\n      add\n        /* \"#utility.yul\":9758:9777   */\n      swap1\n      pop\n        /* \"#utility.yul\":9417:9783   */\n      swap2\n      swap1\n      pop\n      jump\t// out\n        /* \"#utility.yul\":9789:10208   */\n    tag_25:\n        /* \"#utility.yul\":9955:9959   */\n      0x00\n        /* \"#utility.yul\":9993:9995   */\n      0x20\n        /* \"#utility.yul\":9982:9991   */\n      dup3\n        /* \"#utility.yul\":9978:9996   */\n      add\n        /* \"#utility.yul\":9970:9996   */\n      swap1\n      pop\n        /* \"#utility.yul\":10042:10051   */\n      dup2\n        /* \"#utility.yul\":10036:10040   */\n      dup2\n        /* \"#utility.yul\":10032:10052   */\n      sub\n        /* \"#utility.yul\":10028:10029   */\n      0x00\n        /* \"#utility.yul\":10017:10026   */\n      dup4\n        /* \"#utility.yul\":10013:10030   */\n      add\n        /* \"#utility.yul\":10006:10053   */\n      mstore\n        /* \"#utility.yul\":10070:10201   */\n      tag_226\n        /* \"#utility.yul\":10196:10200   */\n      dup2\n        /* \"#utility.yul\":10070:10201   */\n      tag_96\n      jump\t// in\n    tag_226:\n        /* \"#utility.yul\":10062:10201   */\n      swap1\n      pop\n        /* \"#utility.yul\":9789:10208   */\n      swap2\n      swap1\n      pop\n      jump\t// out\n        /* \"#utility.yul\":10214:10362   */\n    tag_97:\n        /* \"#utility.yul\":10316:10327   */\n      0x00\n        /* \"#utility.yul\":10353:10356   */\n      dup2\n        /* \"#utility.yul\":10338:10356   */\n      swap1\n      pop\n        /* \"#utility.yul\":10214:10362   */\n      swap3\n      swap2\n      pop\n      pop\n      jump\t// out\n        /* \"#utility.yul\":10368:10758   */\n    tag_98:\n        /* \"#utility.yul\":10474:10477   */\n      0x00\n        /* \"#utility.yul\":10502:10541   */\n      tag_229\n        /* \"#utility.yul\":10535:10540   */\n      dup3\n        /* \"#utility.yul\":10502:10541   */\n      tag_83\n      jump\t// in\n    tag_229:\n        /* \"#utility.yul\":10557:10646   */\n      tag_230\n        /* \"#utility.yul\":10639:10645   */\n      dup2\n        /* \"#utility.yul\":10634:10637   */\n      dup6\n        /* \"#utility.yul\":10557:10646   */\n      tag_97\n      jump\t// in\n    tag_230:\n        /* \"#utility.yul\":10550:10646   */\n      swap4\n      pop\n        /* \"#utility.yul\":10655:10720   */\n      tag_231\n        /* \"#utility.yul\":10713:10719   */\n      dup2\n        /* \"#utility.yul\":10708:10711   */\n      dup6\n        /* \"#utility.yul\":10701:10705   */\n      0x20\n        /* \"#utility.yul\":10694:10699   */\n      dup7\n        /* \"#utility.yul\":10690:10706   */\n      add\n        /* \"#utility.yul\":10655:10720   */\n      tag_85\n      jump\t// in\n    tag_231:\n        /* \"#utility.yul\":10745:10751   */\n      dup1\n        /* \"#utility.yul\":10740:10743   */\n      dup5\n        /* \"#utility.yul\":10736:10752   */\n      add\n        /* \"#utility.yul\":10729:10752   */\n      swap2\n      pop\n        /* \"#utility.yul\":10478:10758   */\n      pop\n        /* \"#utility.yul\":10368:10758   */\n      swap3\n      swap2\n      pop\n      pop\n      jump\t// out\n        /* \"#utility.yul\":10764:11039   */\n    tag_28:\n        /* \"#utility.yul\":10896:10899   */\n      0x00\n        /* \"#utility.yul\":10918:11013   */\n      tag_233\n        /* \"#utility.yul\":11009:11012   */\n      dup3\n        /* \"#utility.yul\":11000:11006   */\n      dup5\n        /* \"#utility.yul\":10918:11013   */\n      tag_98\n      jump\t// in\n    tag_233:\n        /* \"#utility.yul\":10911:11013   */\n      swap2\n      pop\n        /* \"#utility.yul\":11030:11033   */\n      dup2\n        /* \"#utility.yul\":11023:11033   */\n      swap1\n      pop\n        /* \"#utility.yul\":10764:11039   */\n      swap3\n      swap2\n      pop\n      pop\n      jump\t// out\n        /* \"#utility.yul\":11045:11225   */\n    tag_99:\n        /* \"#utility.yul\":11093:11170   */\n      0x4e487b7100000000000000000000000000000000000000000000000000000000\n        /* \"#utility.yul\":11090:11091   */\n      0x00\n        /* \"#utility.yul\":11083:11171   */\n      mstore\n        /* \"#utility.yul\":11190:11194   */\n      0x22\n        /* \"#utility.yul\":11187:11188   */\n      0x04\n        /* \"#utility.yul\":11180:11195   */\n      mstore\n        /* \"#utility.yul\":11214:11218   */\n      0x24\n        /* \"#utility.yul\":11211:11212   */\n      0x00\n        /* \"#utility.yul\":11204:11219   */\n      revert\n        /* \"#utility.yul\":11231:11551   */\n    tag_30:\n        /* \"#utility.yul\":11275:11281   */\n      0x00\n        /* \"#utility.yul\":11312:11313   */\n      0x02\n        /* \"#utility.yul\":11306:11310   */\n      dup3\n        /* \"#utility.yul\":11302:11314   */\n      div\n        /* \"#utility.yul\":11292:11314   */\n      swap1\n      pop\n        /* \"#utility.yul\":11359:11360   */\n      0x01\n        /* \"#utility.yul\":11353:11357   */\n      dup3\n        /* \"#utility.yul\":11349:11361   */\n      and\n        /* \"#utility.yul\":11380:11398   */\n      dup1\n        /* \"#utility.yul\":11370:11451   */\n      tag_236\n      jumpi\n        /* \"#utility.yul\":11436:11440   */\n      0x7f\n        /* \"#utility.yul\":11428:11434   */\n      dup3\n        /* \"#utility.yul\":11424:11441   */\n      and\n        /* \"#utility.yul\":11414:11441   */\n      swap2\n      pop\n        /* \"#utility.yul\":11370:11451   */\n    tag_236:\n        /* \"#utility.yul\":11498:11500   */\n      0x20\n        /* \"#utility.yul\":11490:11496   */\n      dup3\n        /* \"#utility.yul\":11487:11501   */\n      lt\n        /* \"#utility.yul\":11467:11485   */\n      dup2\n        /* \"#utility.yul\":11464:11502   */\n      sub\n        /* \"#utility.yul\":11461:11545   */\n      tag_237\n      jumpi\n        /* \"#utility.yul\":11517:11535   */\n      tag_238\n      tag_99\n      jump\t// in\n    tag_238:\n        /* \"#utility.yul\":11461:11545   */\n    tag_237:\n        /* \"#utility.yul\":11282:11551   */\n      pop\n        /* \"#utility.yul\":11231:11551   */\n      swap2\n      swap1\n      pop\n      jump\t// out\n        /* \"#utility.yul\":11557:11698   */\n    tag_100:\n        /* \"#utility.yul\":11606:11610   */\n      0x00\n        /* \"#utility.yul\":11629:11632   */\n      dup2\n        /* \"#utility.yul\":11621:11632   */\n      swap1\n      pop\n        /* \"#utility.yul\":11652:11655   */\n      dup2\n        /* \"#utility.yul\":11649:11650   */\n      0x00\n        /* \"#utility.yul\":11642:11656   */\n      mstore\n        /* \"#utility.yul\":11686:11690   */\n      0x20\n        /* \"#utility.yul\":11683:11684   */\n      0x00\n        /* \"#utility.yul\":11673:11691   */\n      keccak256\n        /* \"#utility.yul\":11665:11691   */\n      swap1\n      pop\n        /* \"#utility.yul\":11557:11698   */\n      swap2\n      swap1\n      pop\n      jump\t// out\n        /* \"#utility.yul\":11704:11797   */\n    tag_101:\n        /* \"#utility.yul\":11741:11747   */\n      0x00\n        /* \"#utility.yul\":11788:11790   */\n      0x20\n        /* \"#utility.yul\":11783:11785   */\n      0x1f\n        /* \"#utility.yul\":11776:11781   */\n      dup4\n        /* \"#utility.yul\":11772:11786   */\n      add\n        /* \"#utility.yul\":11768:11791   */\n      div\n        /* \"#utility.yul\":11758:11791   */\n      swap1\n      pop\n        /* \"#utility.yul\":11704:11797   */\n      swap2\n      swap1\n      pop\n      jump\t// out\n        /* \"#utility.yul\":11803:11910   */\n    tag_102:\n        /* \"#utility.yul\":11847:11855   */\n      0x00\n        /* \"#utility.yul\":11897:11902   */\n      dup3\n        /* \"#utility.yul\":11891:11895   */\n      dup3\n        /* \"#utility.yul\":11887:11903   */\n      shl\n        /* \"#utility.yul\":11866:11903   */\n      swap1\n      pop\n        /* \"#utility.yul\":11803:11910   */\n      swap3\n      swap2\n      pop\n      pop\n      jump\t// out\n        /* \"#utility.yul\":11916:12309   */\n    tag_103:\n        /* \"#utility.yul\":11985:11991   */\n      0x00\n        /* \"#utility.yul\":12035:12036   */\n      0x08\n        /* \"#utility.yul\":12023:12033   */\n      dup4\n        /* \"#utility.yul\":12019:12037   */\n      mul\n        /* \"#utility.yul\":12058:12155   */\n      tag_243\n        /* \"#utility.yul\":12088:12154   */\n      0xffffffffffffffffffffffffffffffffffffffffffffffffffffffffffffffff\n        /* \"#utility.yul\":12077:12086   */\n      dup3\n        /* \"#utility.yul\":12058:12155   */\n      tag_102\n      jump\t// in\n    tag_243:\n        /* \"#utility.yul\":12176:12215   */\n      tag_244\n        /* \"#utility.yul\":12206:12214   */\n      dup7\n        /* \"#utility.yul\":12195:12204   */\n      dup4\n        /* \"#utility.yul\":12176:12215   */\n      tag_102\n      jump\t// in\n    tag_244:\n        /* \"#utility.yul\":12164:12215   */\n      swap6\n      pop\n        /* \"#utility.yul\":12248:12252   */\n      dup1\n        /* \"#utility.yul\":12244:12253   */\n      not\n        /* \"#utility.yul\":12237:12242   */\n      dup5\n        /* \"#utility.yul\":12233:12254   */\n      and\n        /* \"#utility.yul\":12224:12254   */\n      swap4\n      pop\n        /* \"#utility.yul\":12297:12301   */\n      dup1\n        /* \"#utility.yul\":12287:12295   */\n      dup7\n        /* \"#utility.yul\":12283:12302   */\n      and\n        /* \"#utility.yul\":12276:12281   */\n      dup5\n        /* \"#utility.yul\":12273:12303   */\n      or\n        /* \"#utility.yul\":12263:12303   */\n      swap3\n      pop\n        /* \"#utility.yul\":11992:12309   */\n      pop\n      pop\n        /* \"#utility.yul\":11916:12309   */\n      swap4\n      swap3\n      pop\n      pop\n      pop\n      jump\t// out\n        /* \"#utility.yul\":12315:12392   */\n    tag_104:\n        /* \"#utility.yul\":12352:12359   */\n      0x00\n        /* \"#utility.yul\":12381:12386   */\n      dup2\n        /* \"#utility.yul\":12370:12386   */\n      swap1\n      pop\n        /* \"#utility.yul\":12315:12392   */\n      swap2\n      swap1\n      pop\n      jump\t// out\n        /* \"#utility.yul\":12398:12458   */\n    tag_105:\n        /* \"#utility.yul\":12426:12429   */\n      0x00\n        /* \"#utility.yul\":12447:12452   */\n      dup2\n        /* \"#utility.yul\":12440:12452   */\n      swap1\n      pop\n        /* \"#utility.yul\":12398:12458   */\n      swap2\n      swap1\n      pop\n      jump\t// out\n        /* \"#utility.yul\":12464:12606   */\n    tag_106:\n        /* \"#utility.yul\":12514:12523   */\n      0x00\n        /* \"#utility.yul\":12547:12600   */\n      tag_248\n        /* \"#utility.yul\":12565:12599   */\n      tag_249\n        /* \"#utility.yul\":12574:12598   */\n      tag_250\n        /* \"#utility.yul\":12592:12597   */\n      dup5\n        /* \"#utility.yul\":12574:12598   */\n      tag_104\n      jump\t// in\n    tag_250:\n        /* \"#utility.yul\":12565:12599   */\n      tag_105\n      jump\t// in\n    tag_249:\n        /* \"#utility.yul\":12547:12600   */\n      tag_104\n      jump\t// in\n    tag_248:\n        /* \"#utility.yul\":12534:12600   */\n      swap1\n      pop\n        /* \"#utility.yul\":12464:12606   */\n      swap2\n      swap1\n      pop\n      jump\t// out\n        /* \"#utility.yul\":12612:12687   */\n    tag_107:\n        /* \"#utility.yul\":12655:12658   */\n      0x00\n        /* \"#utility.yul\":12676:12681   */\n      dup2\n        /* \"#utility.yul\":12669:12681   */\n      swap1\n      pop\n        /* \"#utility.yul\":12612:12687   */\n      swap2\n      swap1\n      pop\n      jump\t// out\n        /* \"#utility.yul\":12693:12962   */\n    tag_108:\n        /* \"#utility.yul\":12803:12842   */\n      tag_253\n        /* \"#utility.yul\":12834:12841   */\n      dup4\n        /* \"#utility.yul\":12803:12842   */\n      tag_106\n      jump\t// in\n    tag_253:\n        /* \"#utility.yul\":12864:12955   */\n      tag_254\n        /* \"#utility.yul\":12913:12954   */\n      tag_255\n        /* \"#utility.yul\":12937:12953   */\n      dup3\n        /* \"#utility.yul\":12913:12954   */\n      tag_107\n      jump\t// in\n    tag_255:\n        /* \"#utility.yul\":12905:12911   */\n      dup5\n        /* \"#utility.yul\":12898:12902   */\n      dup5\n        /* \"#utility.yul\":12892:12903   */\n      sload\n        /* \"#utility.yul\":12864:12955   */\n      tag_103\n      jump\t// in\n    tag_254:\n        /* \"#utility.yul\":12858:12862   */\n      dup3\n        /* \"#utility.yul\":12851:12956   */\n      sstore\n        /* \"#utility.yul\":12769:12962   */\n      pop\n        /* \"#utility.yul\":12693:12962   */\n      pop\n      pop\n      pop\n      jump\t// out\n        /* \"#utility.yul\":12968:13041   */\n    tag_109:\n        /* \"#utility.yul\":13013:13016   */\n      0x00\n        /* \"#utility.yul\":12968:13041   */\n      swap1\n      jump\t// out\n        /* \"#utility.yul\":13047:13236   */\n    tag_110:\n        /* \"#utility.yul\":13124:13156   */\n      tag_258\n      tag_109\n      jump\t// in\n    tag_258:\n        /* \"#utility.yul\":13165:13230   */\n      tag_259\n        /* \"#utility.yul\":13223:13229   */\n      dup2\n        /* \"#utility.yul\":13215:13221   */\n      dup5\n        /* \"#utility.yul\":13209:13213   */\n      dup5\n        /* \"#utility.yul\":13165:13230   */\n      tag_108\n      jump\t// in\n    tag_259:\n        /* \"#utility.yul\":13100:13236   */\n      pop\n        /* \"#utility.yul\":13047:13236   */\n      pop\n      pop\n      jump\t// out\n        /* \"#utility.yul\":13242:13428   */\n    tag_111:\n        /* \"#utility.yul\":13302:13422   */\n    tag_261:\n        /* \"#utility.yul\":13319:13322   */\n      dup2\n        /* \"#utility.yul\":13312:13317   */\n      dup2\n        /* \"#utility.yul\":13309:13323   */\n      lt\n        /* \"#utility.yul\":13302:13422   */\n      iszero\n      tag_263\n      jumpi\n        /* \"#utility.yul\":13373:13412   */\n      tag_264\n        /* \"#utility.yul\":13410:13411   */\n      0x00\n        /* \"#utility.yul\":13403:13408   */\n      dup3\n        /* \"#utility.yul\":13373:13412   */\n      tag_110\n      jump\t// in\n    tag_264:\n        /* \"#utility.yul\":13346:13347   */\n      0x01\n        /* \"#utility.yul\":13339:13344   */\n      dup2\n        /* \"#utility.yul\":13335:13348   */\n      add\n        /* \"#utility.yul\":13326:13348   */\n      swap1\n      pop\n        /* \"#utility.yul\":13302:13422   */\n      jump(tag_261)\n    tag_263:\n        /* \"#utility.yul\":13242:13428   */\n      pop\n      pop\n      jump\t// out\n        /* \"#utility.yul\":13434:13977   */\n    tag_112:\n        /* \"#utility.yul\":13535:13537   */\n      0x1f\n        /* \"#utility.yul\":13530:13533   */\n      dup3\n        /* \"#utility.yul\":13527:13538   */\n      gt\n        /* \"#utility.yul\":13524:13970   */\n      iszero\n      tag_266\n      jumpi\n        /* \"#utility.yul\":13569:13607   */\n      tag_267\n        /* \"#utility.yul\":13601:13606   */\n      dup2\n        /* \"#utility.yul\":13569:13607   */\n      tag_100\n      jump\t// in\n    tag_267:\n        /* \"#utility.yul\":13653:13682   */\n      tag_268\n        /* \"#utility.yul\":13671:13681   */\n      dup5\n        /* \"#utility.yul\":13653:13682   */\n      tag_101\n      jump\t// in\n    tag_268:\n        /* \"#utility.yul\":13643:13651   */\n      dup2\n        /* \"#utility.yul\":13639:13683   */\n      add\n        /* \"#utility.yul\":13836:13838   */\n      0x20\n        /* \"#utility.yul\":13824:13834   */\n      dup6\n        /* \"#utility.yul\":13821:13839   */\n      lt\n        /* \"#utility.yul\":13818:13867   */\n      iszero\n      tag_269\n      jumpi\n        /* \"#utility.yul\":13857:13865   */\n      dup2\n        /* \"#utility.yul\":13842:13865   */\n      swap1\n      pop\n        /* \"#utility.yul\":13818:13867   */\n    tag_269:\n        /* \"#utility.yul\":13880:13960   */\n      tag_270\n        /* \"#utility.yul\":13936:13958   */\n      tag_271\n        /* \"#utility.yul\":13954:13957   */\n      dup6\n        /* \"#utility.yul\":13936:13958   */\n      tag_101\n      jump\t// in\n    tag_271:\n        /* \"#utility.yul\":13926:13934   */\n      dup4\n        /* \"#utility.yul\":13922:13959   */\n      add\n        /* \"#utility.yul\":13909:13920   */\n      dup3\n        /* \"#utility.yul\":13880:13960   */\n      tag_111\n      jump\t// in\n    tag_270:\n        /* \"#utility.yul\":13539:13970   */\n      pop\n      pop\n        /* \"#utility.yul\":13524:13970   */\n    tag_266:\n        /* \"#utility.yul\":13434:13977   */\n      pop\n      pop\n      pop\n      jump\t// out\n        /* \"#utility.yul\":13983:14100   */\n    tag_113:\n        /* \"#utility.yul\":14037:14045   */\n      0x00\n        /* \"#utility.yul\":14087:14092   */\n      dup3\n        /* \"#utility.yul\":14081:14085   */\n      dup3\n        /* \"#utility.yul\":14077:14093   */\n      shr\n        /* \"#utility.yul\":14056:14093   */\n      swap1\n      pop\n        /* \"#utility.yul\":13983:14100   */\n      swap3\n      swap2\n      pop\n      pop\n      jump\t// out\n        /* \"#utility.yul\":14106:14275   */\n    tag_114:\n        /* \"#utility.yul\":14150:14156   */\n      0x00\n        /* \"#utility.yul\":14183:14234   */\n      tag_274\n        /* \"#utility.yul\":14231:14232   */\n      0x00\n        /* \"#utility.yul\":14227:14233   */\n      not\n        /* \"#utility.yul\":14219:14224   */\n      dup5\n        /* \"#utility.yul\":14216:14217   */\n      0x08\n        /* \"#utility.yul\":14212:14225   */\n      mul\n        /* \"#utility.yul\":14183:14234   */\n      tag_113\n      jump\t// in\n    tag_274:\n        /* \"#utility.yul\":14179:14235   */\n      not\n        /* \"#utility.yul\":14264:14268   */\n      dup1\n        /* \"#utility.yul\":14258:14262   */\n      dup4\n        /* \"#utility.yul\":14254:14269   */\n      and\n        /* \"#utility.yul\":14244:14269   */\n      swap2\n      pop\n        /* \"#utility.yul\":14157:14275   */\n      pop\n        /* \"#utility.yul\":14106:14275   */\n      swap3\n      swap2\n      pop\n      pop\n      jump\t// out\n        /* \"#utility.yul\":14280:14575   */\n    tag_115:\n        /* \"#utility.yul\":14356:14360   */\n      0x00\n        /* \"#utility.yul\":14502:14531   */\n      tag_276\n        /* \"#utility.yul\":14527:14530   */\n      dup4\n        /* \"#utility.yul\":14521:14525   */\n      dup4\n        /* \"#utility.yul\":14502:14531   */\n      tag_114\n      jump\t// in\n    tag_276:\n        /* \"#utility.yul\":14494:14531   */\n      swap2\n      pop\n        /* \"#utility.yul\":14564:14567   */\n      dup3\n        /* \"#utility.yul\":14561:14562   */\n      0x02\n        /* \"#utility.yul\":14557:14568   */\n      mul\n        /* \"#utility.yul\":14551:14555   */\n      dup3\n        /* \"#utility.yul\":14548:14569   */\n      or\n        /* \"#utility.yul\":14540:14569   */\n      swap1\n      pop\n        /* \"#utility.yul\":14280:14575   */\n      swap3\n      swap2\n      pop\n      pop\n      jump\t// out\n        /* \"#utility.yul\":14580:15975   */\n    tag_47:\n        /* \"#utility.yul\":14697:14734   */\n      tag_278\n        /* \"#utility.yul\":14730:14733   */\n      dup3\n        /* \"#utility.yul\":14697:14734   */\n      tag_83\n      jump\t// in\n    tag_278:\n        /* \"#utility.yul\":14799:14817   */\n      0xffffffffffffffff\n        /* \"#utility.yul\":14791:14797   */\n      dup2\n        /* \"#utility.yul\":14788:14818   */\n      gt\n        /* \"#utility.yul\":14785:14841   */\n      iszero\n      tag_279\n      jumpi\n        /* \"#utility.yul\":14821:14839   */\n      tag_280\n      tag_73\n      jump\t// in\n    tag_280:\n        /* \"#utility.yul\":14785:14841   */\n    tag_279:\n        /* \"#utility.yul\":14865:14903   */\n      tag_281\n        /* \"#utility.yul\":14897:14901   */\n      dup3\n        /* \"#utility.yul\":14891:14902   */\n      sload\n        /* \"#utility.yul\":14865:14903   */\n      tag_30\n      jump\t// in\n    tag_281:\n        /* \"#utility.yul\":14950:15017   */\n      tag_282\n        /* \"#utility.yul\":15010:15016   */\n      dup3\n        /* \"#utility.yul\":15002:15008   */\n      dup3\n        /* \"#utility.yul\":14996:15000   */\n      dup6\n        /* \"#utility.yul\":14950:15017   */\n      tag_112\n      jump\t// in\n    tag_282:\n        /* \"#utility.yul\":15044:15045   */\n      0x00\n        /* \"#utility.yul\":15068:15072   */\n      0x20\n        /* \"#utility.yul\":15055:15072   */\n      swap1\n      pop\n        /* \"#utility.yul\":15100:15102   */\n      0x1f\n        /* \"#utility.yul\":15092:15098   */\n      dup4\n        /* \"#utility.yul\":15089:15103   */\n      gt\n        /* \"#utility.yul\":15117:15118   */\n      0x01\n        /* \"#utility.yul\":15112:15730   */\n      dup2\n      eq\n      tag_284\n      jumpi\n        /* \"#utility.yul\":15774:15775   */\n      0x00\n        /* \"#utility.yul\":15791:15797   */\n      dup5\n        /* \"#utility.yul\":15788:15865   */\n      iszero\n      tag_285\n      jumpi\n        /* \"#utility.yul\":15840:15849   */\n      dup3\n        /* \"#utility.yul\":15835:15838   */\n      dup8\n        /* \"#utility.yul\":15831:15850   */\n      add\n        /* \"#utility.yul\":15825:15851   */\n      mload\n        /* \"#utility.yul\":15816:15851   */\n      swap1\n      pop\n        /* \"#utility.yul\":15788:15865   */\n    tag_285:\n        /* \"#utility.yul\":15891:15958   */\n      tag_286\n        /* \"#utility.yul\":15951:15957   */\n      dup6\n        /* \"#utility.yul\":15944:15949   */\n      dup3\n        /* \"#utility.yul\":15891:15958   */\n      tag_115\n      jump\t// in\n    tag_286:\n        /* \"#utility.yul\":15885:15889   */\n      dup7\n        /* \"#utility.yul\":15878:15959   */\n      sstore\n        /* \"#utility.yul\":15747:15969   */\n      pop\n        /* \"#utility.yul\":15082:15969   */\n      jump(tag_283)\n        /* \"#utility.yul\":15112:15730   */\n    tag_284:\n        /* \"#utility.yul\":15164:15168   */\n      0x1f\n        /* \"#utility.yul\":15160:15169   */\n      not\n        /* \"#utility.yul\":15152:15158   */\n      dup5\n        /* \"#utility.yul\":15148:15170   */\n      and\n        /* \"#utility.yul\":15198:15235   */\n      tag_287\n        /* \"#utility.yul\":15230:15234   */\n      dup7\n        /* \"#utility.yul\":15198:15235   */\n      tag_100\n      jump\t// in\n    tag_287:\n        /* \"#utility.yul\":15257:15258   */\n      0x00\n        /* \"#utility.yul\":15271:15479   */\n    tag_288:\n        /* \"#utility.yul\":15285:15292   */\n      dup3\n        /* \"#utility.yul\":15282:15283   */\n      dup2\n        /* \"#utility.yul\":15279:15293   */\n      lt\n        /* \"#utility.yul\":15271:15479   */\n      iszero\n      tag_290\n      jumpi\n        /* \"#utility.yul\":15364:15373   */\n      dup5\n        /* \"#utility.yul\":15359:15362   */\n      dup10\n        /* \"#utility.yul\":15355:15374   */\n      add\n        /* \"#utility.yul\":15349:15375   */\n      mload\n        /* \"#utility.yul\":15341:15347   */\n      dup3\n        /* \"#utility.yul\":15334:15376   */\n      sstore\n        /* \"#utility.yul\":15415:15416   */\n      0x01\n        /* \"#utility.yul\":15407:15413   */\n      dup3\n        /* \"#utility.yul\":15403:15417   */\n      add\n        /* \"#utility.yul\":15393:15417   */\n      swap2\n      pop\n        /* \"#utility.yul\":15462:15464   */\n      0x20\n        /* \"#utility.yul\":15451:15460   */\n      dup6\n        /* \"#utility.yul\":15447:15465   */\n      add\n        /* \"#utility.yul\":15434:15465   */\n      swap5\n      pop\n        /* \"#utility.yul\":15308:15312   */\n      0x20\n        /* \"#utility.yul\":15305:15306   */\n      dup2\n        /* \"#utility.yul\":15301:15313   */\n      add\n        /* \"#utility.yul\":15296:15313   */\n      swap1\n      pop\n        /* \"#utility.yul\":15271:15479   */\n      jump(tag_288)\n    tag_290:\n        /* \"#utility.yul\":15507:15513   */\n      dup7\n        /* \"#utility.yul\":15498:15505   */\n      dup4\n        /* \"#utility.yul\":15495:15514   */\n      lt\n        /* \"#utility.yul\":15492:15671   */\n      iszero\n      tag_291\n      jumpi\n        /* \"#utility.yul\":15565:15574   */\n      dup5\n        /* \"#utility.yul\":15560:15563   */\n      dup10\n        /* \"#utility.yul\":15556:15575   */\n      add\n        /* \"#utility.yul\":15550:15576   */\n      mload\n        /* \"#utility.yul\":15608:15656   */\n      tag_292\n        /* \"#utility.yul\":15650:15654   */\n      0x1f\n        /* \"#utility.yul\":15642:15648   */\n      dup10\n        /* \"#utility.yul\":15638:15655   */\n      and\n        /* \"#utility.yul\":15627:15636   */\n      dup3\n        /* \"#utility.yul\":15608:15656   */\n      tag_114\n      jump\t// in\n    tag_292:\n        /* \"#utility.yul\":15600:15606   */\n      dup4\n        /* \"#utility.yul\":15593:15657   */\n      sstore\n        /* \"#utility.yul\":15515:15671   */\n      pop\n        /* \"#utility.yul\":15492:15671   */\n    tag_291:\n        /* \"#utility.yul\":15717:15718   */\n      0x01\n        /* \"#utility.yul\":15713:15714   */\n      0x02\n        /* \"#utility.yul\":15705:15711   */\n      dup9\n        /* \"#utility.yul\":15701:15715   */\n      mul\n        /* \"#utility.yul\":15697:15719   */\n      add\n        /* \"#utility.yul\":15691:15695   */\n      dup9\n        /* \"#utility.yul\":15684:15720   */\n      sstore\n        /* \"#utility.yul\":15119:15730   */\n      pop\n      pop\n      pop\n        /* \"#utility.yul\":15082:15969   */\n    tag_283:\n      pop\n        /* \"#utility.yul\":14672:15975   */\n      pop\n      pop\n      pop\n        /* \"#utility.yul\":14580:15975   */\n      pop\n      pop\n      jump\t// out\n        /* \"#utility.yul\":15981:16195   */\n    tag_116:\n        /* \"#utility.yul\":16121:16187   */\n      0x19457468657265756d205369676e6564204d6573736167653a0a333200000000\n        /* \"#utility.yul\":16117:16118   */\n      0x00\n        /* \"#utility.yul\":16109:16115   */\n      dup3\n        /* \"#utility.yul\":16105:16119   */\n      add\n        /* \"#utility.yul\":16098:16188   */\n      mstore\n        /* \"#utility.yul\":15981:16195   */\n      pop\n      jump\t// out\n        /* \"#utility.yul\":16201:16603   */\n    tag_117:\n        /* \"#utility.yul\":16361:16364   */\n      0x00\n        /* \"#utility.yul\":16382:16467   */\n      tag_295\n        /* \"#utility.yul\":16464:16466   */\n      0x1c\n        /* \"#utility.yul\":16459:16462   */\n      dup4\n        /* \"#utility.yul\":16382:16467   */\n      tag_97\n      jump\t// in\n    tag_295:\n        /* \"#utility.yul\":16375:16467   */\n      swap2\n      pop\n        /* \"#utility.yul\":16476:16569   */\n      tag_296\n        /* \"#utility.yul\":16565:16568   */\n      dup3\n        /* \"#utility.yul\":16476:16569   */\n      tag_116\n      jump\t// in\n    tag_296:\n        /* \"#utility.yul\":16594:16596   */\n      0x1c\n        /* \"#utility.yul\":16589:16592   */\n      dup3\n        /* \"#utility.yul\":16585:16597   */\n      add\n        /* \"#utility.yul\":16578:16597   */\n      swap1\n      pop\n        /* \"#utility.yul\":16201:16603   */\n      swap2\n      swap1\n      pop\n      jump\t// out\n        /* \"#utility.yul\":16609:16686   */\n    tag_118:\n        /* \"#utility.yul\":16646:16653   */\n      0x00\n        /* \"#utility.yul\":16675:16680   */\n      dup2\n        /* \"#utility.yul\":16664:16680   */\n      swap1\n      pop\n        /* \"#utility.yul\":16609:16686   */\n      swap2\n      swap1\n      pop\n      jump\t// out\n        /* \"#utility.yul\":16692:16771   */\n    tag_119:\n        /* \"#utility.yul\":16731:16738   */\n      0x00\n        /* \"#utility.yul\":16760:16765   */\n      dup2\n        /* \"#utility.yul\":16749:16765   */\n      swap1\n      pop\n        /* \"#utility.yul\":16692:16771   */\n      swap2\n      swap1\n      pop\n      jump\t// out\n        /* \"#utility.yul\":16777:16934   */\n    tag_120:\n        /* \"#utility.yul\":16882:16927   */\n      tag_300\n        /* \"#utility.yul\":16902:16926   */\n      tag_301\n        /* \"#utility.yul\":16920:16925   */\n      dup3\n        /* \"#utility.yul\":16902:16926   */\n      tag_118\n      jump\t// in\n    tag_301:\n        /* \"#utility.yul\":16882:16927   */\n      tag_119\n      jump\t// in\n    tag_300:\n        /* \"#utility.yul\":16877:16880   */\n      dup3\n        /* \"#utility.yul\":16870:16928   */\n      mstore\n        /* \"#utility.yul\":16777:16934   */\n      pop\n      pop\n      jump\t// out\n        /* \"#utility.yul\":16940:17462   */\n    tag_53:\n        /* \"#utility.yul\":17153:17156   */\n      0x00\n        /* \"#utility.yul\":17175:17323   */\n      tag_303\n        /* \"#utility.yul\":17319:17322   */\n      dup3\n        /* \"#utility.yul\":17175:17323   */\n      tag_117\n      jump\t// in\n    tag_303:\n        /* \"#utility.yul\":17168:17323   */\n      swap2\n      pop\n        /* \"#utility.yul\":17333:17408   */\n      tag_304\n        /* \"#utility.yul\":17404:17407   */\n      dup3\n        /* \"#utility.yul\":17395:17401   */\n      dup5\n        /* \"#utility.yul\":17333:17408   */\n      tag_120\n      jump\t// in\n    tag_304:\n        /* \"#utility.yul\":17433:17435   */\n      0x20\n        /* \"#utility.yul\":17428:17431   */\n      dup3\n        /* \"#utility.yul\":17424:17436   */\n      add\n        /* \"#utility.yul\":17417:17436   */\n      swap2\n      pop\n        /* \"#utility.yul\":17453:17456   */\n      dup2\n        /* \"#utility.yul\":17446:17456   */\n      swap1\n      pop\n        /* \"#utility.yul\":16940:17462   */\n      swap3\n      swap2\n      pop\n      pop\n      jump\t// out\n        /* \"#utility.yul\":17468:17586   */\n    tag_121:\n        /* \"#utility.yul\":17555:17579   */\n      tag_306\n        /* \"#utility.yul\":17573:17578   */\n      dup2\n        /* \"#utility.yul\":17555:17579   */\n      tag_118\n      jump\t// in\n    tag_306:\n        /* \"#utility.yul\":17550:17553   */\n      dup3\n        /* \"#utility.yul\":17543:17580   */\n      mstore\n        /* \"#utility.yul\":17468:17586   */\n      pop\n      pop\n      jump\t// out\n        /* \"#utility.yul\":17592:17678   */\n    tag_122:\n        /* \"#utility.yul\":17627:17634   */\n      0x00\n        /* \"#utility.yul\":17667:17671   */\n      0xff\n        /* \"#utility.yul\":17660:17665   */\n      dup3\n        /* \"#utility.yul\":17656:17672   */\n      and\n        /* \"#utility.yul\":17645:17672   */\n      swap1\n      pop\n        /* \"#utility.yul\":17592:17678   */\n      swap2\n      swap1\n      pop\n      jump\t// out\n        /* \"#utility.yul\":17684:17796   */\n    tag_123:\n        /* \"#utility.yul\":17767:17789   */\n      tag_309\n        /* \"#utility.yul\":17783:17788   */\n      dup2\n        /* \"#utility.yul\":17767:17789   */\n      tag_122\n      jump\t// in\n    tag_309:\n        /* \"#utility.yul\":17762:17765   */\n      dup3\n        /* \"#utility.yul\":17755:17790   */\n      mstore\n        /* \"#utility.yul\":17684:17796   */\n      pop\n      pop\n      jump\t// out\n        /* \"#utility.yul\":17802:18347   */\n    tag_57:\n        /* \"#utility.yul\":17975:17979   */\n      0x00\n        /* \"#utility.yul\":18013:18016   */\n      0x80\n        /* \"#utility.yul\":18002:18011   */\n      dup3\n        /* \"#utility.yul\":17998:18017   */\n      add\n        /* \"#utility.yul\":17990:18017   */\n      swap1\n      pop\n        /* \"#utility.yul\":18027:18098   */\n      tag_311\n        /* \"#utility.yul\":18095:18096   */\n      0x00\n        /* \"#utility.yul\":18084:18093   */\n      dup4\n        /* \"#utility.yul\":18080:18097   */\n      add\n        /* \"#utility.yul\":18071:18077   */\n      dup8\n        /* \"#utility.yul\":18027:18098   */\n      tag_121\n      jump\t// in\n    tag_311:\n        /* \"#utility.yul\":18108:18176   */\n      tag_312\n        /* \"#utility.yul\":18172:18174   */\n      0x20\n        /* \"#utility.yul\":18161:18170   */\n      dup4\n        /* \"#utility.yul\":18157:18175   */\n      add\n        /* \"#utility.yul\":18148:18154   */\n      dup7\n        /* \"#utility.yul\":18108:18176   */\n      tag_123\n      jump\t// in\n    tag_312:\n        /* \"#utility.yul\":18186:18258   */\n      tag_313\n        /* \"#utility.yul\":18254:18256   */\n      0x40\n        /* \"#utility.yul\":18243:18252   */\n      dup4\n        /* \"#utility.yul\":18239:18257   */\n      add\n        /* \"#utility.yul\":18230:18236   */\n      dup6\n        /* \"#utility.yul\":18186:18258   */\n      tag_121\n      jump\t// in\n    tag_313:\n        /* \"#utility.yul\":18268:18340   */\n      tag_314\n        /* \"#utility.yul\":18336:18338   */\n      0x60\n        /* \"#utility.yul\":18325:18334   */\n      dup4\n        /* \"#utility.yul\":18321:18339   */\n      add\n        /* \"#utility.yul\":18312:18318   */\n      dup5\n        /* \"#utility.yul\":18268:18340   */\n      tag_121\n      jump\t// in\n    tag_314:\n        /* \"#utility.yul\":17802:18347   */\n      swap6\n      swap5\n      pop\n      pop\n      pop\n      pop\n      pop\n      jump\t// out\n        /* \"#utility.yul\":18353:18527   */\n    tag_124:\n        /* \"#utility.yul\":18493:18519   */\n      0x696e76616c6964207369676e6174757265206c656e6774680000000000000000\n        /* \"#utility.yul\":18489:18490   */\n      0x00\n        /* \"#utility.yul\":18481:18487   */\n      dup3\n        /* \"#utility.yul\":18477:18491   */\n      add\n        /* \"#utility.yul\":18470:18520   */\n      mstore\n        /* \"#utility.yul\":18353:18527   */\n      pop\n      jump\t// out\n        /* \"#utility.yul\":18533:18899   */\n    tag_125:\n        /* \"#utility.yul\":18675:18678   */\n      0x00\n        /* \"#utility.yul\":18696:18763   */\n      tag_317\n        /* \"#utility.yul\":18760:18762   */\n      0x18\n        /* \"#utility.yul\":18755:18758   */\n      dup4\n        /* \"#utility.yul\":18696:18763   */\n      tag_84\n      jump\t// in\n    tag_317:\n        /* \"#utility.yul\":18689:18763   */\n      swap2\n      pop\n        /* \"#utility.yul\":18772:18865   */\n      tag_318\n        /* \"#utility.yul\":18861:18864   */\n      dup3\n        /* \"#utility.yul\":18772:18865   */\n      tag_124\n      jump\t// in\n    tag_318:\n        /* \"#utility.yul\":18890:18892   */\n      0x20\n        /* \"#utility.yul\":18885:18888   */\n      dup3\n        /* \"#utility.yul\":18881:18893   */\n      add\n        /* \"#utility.yul\":18874:18893   */\n      swap1\n      pop\n        /* \"#utility.yul\":18533:18899   */\n      swap2\n      swap1\n      pop\n      jump\t// out\n        /* \"#utility.yul\":18905:19324   */\n    tag_65:\n        /* \"#utility.yul\":19071:19075   */\n      0x00\n        /* \"#utility.yul\":19109:19111   */\n      0x20\n        /* \"#utility.yul\":19098:19107   */\n      dup3\n        /* \"#utility.yul\":19094:19112   */\n      add\n        /* \"#utility.yul\":19086:19112   */\n      swap1\n      pop\n        /* \"#utility.yul\":19158:19167   */\n      dup2\n        /* \"#utility.yul\":19152:19156   */\n      dup2\n        /* \"#utility.yul\":19148:19168   */\n      sub\n        /* \"#utility.yul\":19144:19145   */\n      0x00\n        /* \"#utility.yul\":19133:19142   */\n      dup4\n        /* \"#utility.yul\":19129:19146   */\n      add\n        /* \"#utility.yul\":19122:19169   */\n      mstore\n        /* \"#utility.yul\":19186:19317   */\n      tag_320\n        /* \"#utility.yul\":19312:19316   */\n      dup2\n        /* \"#utility.yul\":19186:19317   */\n      tag_125\n      jump\t// in\n    tag_320:\n        /* \"#utility.yul\":19178:19317   */\n      swap1\n      pop\n        /* \"#utility.yul\":18905:19324   */\n      swap2\n      swap1\n      pop\n      jump\t// out\n\n    auxdata: 0xa2646970667358221220fed610fcbaf63a9ab46e431fbe5ce9a11d72ca3b9ec823183243fa59ce40ee2064736f6c634300081a0033\n}\n",
				"bytecode": {
					"linkReferences": {},
					"object": "6080604052348015600e575f80fd5b50610ee28061001c5f395ff3fe608060405234801561000f575f80fd5b506004361061003f575f3560e01c8063542564df1461004357806379ed40bc146100735780638055111f14610091575b5f80fd5b61005d60048036038101906100589190610726565b6100ad565b60405161006a91906107fc565b60405180910390f35b61007b6101e3565b604051610088919061091f565b60405180910390f35b6100ab60048036038101906100a6919061093f565b6102f2565b005b606082826100bb82826103c9565b6100fa576040517f08c379a00000000000000000000000000000000000000000000000000000000081526004016100f1906109ff565b60405180910390fd5b5f803373ffffffffffffffffffffffffffffffffffffffff1673ffffffffffffffffffffffffffffffffffffffff1681526020019081526020015f20856040516101449190610a57565b9081526020016040518091039020805461015d90610a9a565b80601f016020809104026020016040519081016040528092919081815260200182805461018990610a9a565b80156101d45780601f106101ab576101008083540402835291602001916101d4565b820191905f5260205f20905b8154815290600101906020018083116101b757829003601f168201915b50505050509250505092915050565b606060015f3373ffffffffffffffffffffffffffffffffffffffff1673ffffffffffffffffffffffffffffffffffffffff1681526020019081526020015f20805480602002602001604051908101604052809291908181526020015f905b828210156102e9578382905f5260205f2001805461025e90610a9a565b80601f016020809104026020016040519081016040528092919081815260200182805461028a90610a9a565b80156102d55780601f106102ac576101008083540402835291602001916102d5565b820191905f5260205f20905b8154815290600101906020018083116102b857829003601f168201915b505050505081526020019060010190610241565b50505050905090565b60015f3373ffffffffffffffffffffffffffffffffffffffff1673ffffffffffffffffffffffffffffffffffffffff1681526020019081526020015f2082908060018154018082558091505060019003905f5260205f20015f90919091909150908161035e9190610c70565b50805f803373ffffffffffffffffffffffffffffffffffffffff1673ffffffffffffffffffffffffffffffffffffffff1681526020019081526020015f20836040516103aa9190610a57565b908152602001604051809103902090816103c49190610c70565b505050565b5f80836040516020016103dc9190610a57565b6040516020818303038152906040528051906020012090505f816040516020016104069190610db2565b6040516020818303038152906040528051906020012090505f805f61042a876104c9565b9250925092505f6001858386866040515f81526020016040526040516104539493929190610e01565b6020604051602081039080840390855afa158015610473573d5f803e3d5ffd5b5050506020604051035190505f6104898461052e565b90508173ffffffffffffffffffffffffffffffffffffffff168173ffffffffffffffffffffffffffffffffffffffff161497505050505050505092915050565b5f805f6041845114610510576040517f08c379a000000000000000000000000000000000000000000000000000000000815260040161050790610e8e565b60405180910390fd5b602084015192506040840151915060608401515f1a90509193909250565b5f60148201519050919050565b5f604051905090565b5f80fd5b5f80fd5b5f80fd5b5f80fd5b5f601f19601f8301169050919050565b7f4e487b71000000000000000000000000000000000000000000000000000000005f52604160045260245ffd5b61059a82610554565b810181811067ffffffffffffffff821117156105b9576105b8610564565b5b80604052505050565b5f6105cb61053b565b90506105d78282610591565b919050565b5f67ffffffffffffffff8211156105f6576105f5610564565b5b6105ff82610554565b9050602081019050919050565b828183375f83830152505050565b5f61062c610627846105dc565b6105c2565b90508281526020810184848401111561064857610647610550565b5b61065384828561060c565b509392505050565b5f82601f83011261066f5761066e61054c565b5b813561067f84826020860161061a565b91505092915050565b5f67ffffffffffffffff8211156106a2576106a1610564565b5b6106ab82610554565b9050602081019050919050565b5f6106ca6106c584610688565b6105c2565b9050828152602081018484840111156106e6576106e5610550565b5b6106f184828561060c565b509392505050565b5f82601f83011261070d5761070c61054c565b5b813561071d8482602086016106b8565b91505092915050565b5f806040838503121561073c5761073b610544565b5b5f83013567ffffffffffffffff81111561075957610758610548565b5b6107658582860161065b565b925050602083013567ffffffffffffffff81111561078657610785610548565b5b610792858286016106f9565b9150509250929050565b5f81519050919050565b5f82825260208201905092915050565b8281835e5f83830152505050565b5f6107ce8261079c565b6107d881856107a6565b93506107e88185602086016107b6565b6107f181610554565b840191505092915050565b5f6020820190508181035f83015261081481846107c4565b905092915050565b5f81519050919050565b5f82825260208201905092915050565b5f819050602082019050919050565b5f82825260208201905092915050565b5f61085f8261079c565b6108698185610845565b93506108798185602086016107b6565b61088281610554565b840191505092915050565b5f6108988383610855565b905092915050565b5f602082019050919050565b5f6108b68261081c565b6108c08185610826565b9350836020820285016108d285610836565b805f5b8581101561090d57848403895281516108ee858261088d565b94506108f9836108a0565b925060208a019950506001810190506108d5565b50829750879550505050505092915050565b5f6020820190508181035f83015261093781846108ac565b905092915050565b5f806040838503121561095557610954610544565b5b5f83013567ffffffffffffffff81111561097257610971610548565b5b61097e8582860161065b565b925050602083013567ffffffffffffffff81111561099f5761099e610548565b5b6109ab8582860161065b565b9150509250929050565b7f73696720697320636865636b6564206661696c656400000000000000000000005f82015250565b5f6109e96015836107a6565b91506109f4826109b5565b602082019050919050565b5f6020820190508181035f830152610a16816109dd565b9050919050565b5f81905092915050565b5f610a318261079c565b610a3b8185610a1d565b9350610a4b8185602086016107b6565b80840191505092915050565b5f610a628284610a27565b915081905092915050565b7f4e487b71000000000000000000000000000000000000000000000000000000005f52602260045260245ffd5b5f6002820490506001821680610ab157607f821691505b602082108103610ac457610ac3610a6d565b5b50919050565b5f819050815f5260205f209050919050565b5f6020601f8301049050919050565b5f82821b905092915050565b5f60088302610b267fffffffffffffffffffffffffffffffffffffffffffffffffffffffffffffffff82610aeb565b610b308683610aeb565b95508019841693508086168417925050509392505050565b5f819050919050565b5f819050919050565b5f610b74610b6f610b6a84610b48565b610b51565b610b48565b9050919050565b5f819050919050565b610b8d83610b5a565b610ba1610b9982610b7b565b848454610af7565b825550505050565b5f90565b610bb5610ba9565b610bc0818484610b84565b505050565b5b81811015610be357610bd85f82610bad565b600181019050610bc6565b5050565b601f821115610c2857610bf981610aca565b610c0284610adc565b81016020851015610c11578190505b610c25610c1d85610adc565b830182610bc5565b50505b505050565b5f82821c905092915050565b5f610c485f1984600802610c2d565b1980831691505092915050565b5f610c608383610c39565b9150826002028217905092915050565b610c798261079c565b67ffffffffffffffff811115610c9257610c91610564565b5b610c9c8254610a9a565b610ca7828285610be7565b5f60209050601f831160018114610cd8575f8415610cc6578287015190505b610cd08582610c55565b865550610d37565b601f198416610ce686610aca565b5f5b82811015610d0d57848901518255600182019150602085019450602081019050610ce8565b86831015610d2a5784890151610d26601f891682610c39565b8355505b6001600288020188555050505b505050505050565b7f19457468657265756d205369676e6564204d6573736167653a0a3332000000005f82015250565b5f610d73601c83610a1d565b9150610d7e82610d3f565b601c82019050919050565b5f819050919050565b5f819050919050565b610dac610da782610d89565b610d92565b82525050565b5f610dbc82610d67565b9150610dc88284610d9b565b60208201915081905092915050565b610de081610d89565b82525050565b5f60ff82169050919050565b610dfb81610de6565b82525050565b5f608082019050610e145f830187610dd7565b610e216020830186610df2565b610e2e6040830185610dd7565b610e3b6060830184610dd7565b95945050505050565b7f696e76616c6964207369676e6174757265206c656e67746800000000000000005f82015250565b5f610e786018836107a6565b9150610e8382610e44565b602082019050919050565b5f6020820190508181035f830152610ea581610e6c565b905091905056fea2646970667358221220fed610fcbaf63a9ab46e431fbe5ce9a11d72ca3b9ec823183243fa59ce40ee2064736f6c634300081a0033",
					"opcodes": "PUSH1 0x80 PUSH1 0x40 MSTORE CALLVALUE DUP1 ISZERO PUSH1 0xE JUMPI PUSH0 DUP1 REVERT JUMPDEST POP PUSH2 0xEE2 DUP1 PUSH2 0x1C PUSH0 CODECOPY PUSH0 RETURN INVALID PUSH1 0x80 PUSH1 0x40 MSTORE CALLVALUE DUP1 ISZERO PUSH2 0xF JUMPI PUSH0 DUP1 REVERT JUMPDEST POP PUSH1 0x4 CALLDATASIZE LT PUSH2 0x3F JUMPI PUSH0 CALLDATALOAD PUSH1 0xE0 SHR DUP1 PUSH4 0x542564DF EQ PUSH2 0x43 JUMPI DUP1 PUSH4 0x79ED40BC EQ PUSH2 0x73 JUMPI DUP1 PUSH4 0x8055111F EQ PUSH2 0x91 JUMPI JUMPDEST PUSH0 DUP1 REVERT JUMPDEST PUSH2 0x5D PUSH1 0x4 DUP1 CALLDATASIZE SUB DUP2 ADD SWAP1 PUSH2 0x58 SWAP2 SWAP1 PUSH2 0x726 JUMP JUMPDEST PUSH2 0xAD JUMP JUMPDEST PUSH1 0x40 MLOAD PUSH2 0x6A SWAP2 SWAP1 PUSH2 0x7FC JUMP JUMPDEST PUSH1 0x40 MLOAD DUP1 SWAP2 SUB SWAP1 RETURN JUMPDEST PUSH2 0x7B PUSH2 0x1E3 JUMP JUMPDEST PUSH1 0x40 MLOAD PUSH2 0x88 SWAP2 SWAP1 PUSH2 0x91F JUMP JUMPDEST PUSH1 0x40 MLOAD DUP1 SWAP2 SUB SWAP1 RETURN JUMPDEST PUSH2 0xAB PUSH1 0x4 DUP1 CALLDATASIZE SUB DUP2 ADD SWAP1 PUSH2 0xA6 SWAP2 SWAP1 PUSH2 0x93F JUMP JUMPDEST PUSH2 0x2F2 JUMP JUMPDEST STOP JUMPDEST PUSH1 0x60 DUP3 DUP3 PUSH2 0xBB DUP3 DUP3 PUSH2 0x3C9 JUMP JUMPDEST PUSH2 0xFA JUMPI PUSH1 0x40 MLOAD PUSH32 0x8C379A000000000000000000000000000000000000000000000000000000000 DUP2 MSTORE PUSH1 0x4 ADD PUSH2 0xF1 SWAP1 PUSH2 0x9FF JUMP JUMPDEST PUSH1 0x40 MLOAD DUP1 SWAP2 SUB SWAP1 REVERT JUMPDEST PUSH0 DUP1 CALLER PUSH20 0xFFFFFFFFFFFFFFFFFFFFFFFFFFFFFFFFFFFFFFFF AND PUSH20 0xFFFFFFFFFFFFFFFFFFFFFFFFFFFFFFFFFFFFFFFF AND DUP2 MSTORE PUSH1 0x20 ADD SWAP1 DUP2 MSTORE PUSH1 0x20 ADD PUSH0 KECCAK256 DUP6 PUSH1 0x40 MLOAD PUSH2 0x144 SWAP2 SWAP1 PUSH2 0xA57 JUMP JUMPDEST SWAP1 DUP2 MSTORE PUSH1 0x20 ADD PUSH1 0x40 MLOAD DUP1 SWAP2 SUB SWAP1 KECCAK256 DUP1 SLOAD PUSH2 0x15D SWAP1 PUSH2 0xA9A JUMP JUMPDEST DUP1 PUSH1 0x1F ADD PUSH1 0x20 DUP1 SWAP2 DIV MUL PUSH1 0x20 ADD PUSH1 0x40 MLOAD SWAP1 DUP2 ADD PUSH1 0x40 MSTORE DUP1 SWAP3 SWAP2 SWAP1 DUP2 DUP2 MSTORE PUSH1 0x20 ADD DUP3 DUP1 SLOAD PUSH2 0x189 SWAP1 PUSH2 0xA9A JUMP JUMPDEST DUP1 ISZERO PUSH2 0x1D4 JUMPI DUP1 PUSH1 0x1F LT PUSH2 0x1AB JUMPI PUSH2 0x100 DUP1 DUP4 SLOAD DIV MUL DUP4 MSTORE SWAP2 PUSH1 0x20 ADD SWAP2 PUSH2 0x1D4 JUMP JUMPDEST DUP3 ADD SWAP2 SWAP1 PUSH0 MSTORE PUSH1 0x20 PUSH0 KECCAK256 SWAP1 JUMPDEST DUP2 SLOAD DUP2 MSTORE SWAP1 PUSH1 0x1 ADD SWAP1 PUSH1 0x20 ADD DUP1 DUP4 GT PUSH2 0x1B7 JUMPI DUP3 SWAP1 SUB PUSH1 0x1F AND DUP3 ADD SWAP2 JUMPDEST POP POP POP POP POP SWAP3 POP POP POP SWAP3 SWAP2 POP POP JUMP JUMPDEST PUSH1 0x60 PUSH1 0x1 PUSH0 CALLER PUSH20 0xFFFFFFFFFFFFFFFFFFFFFFFFFFFFFFFFFFFFFFFF AND PUSH20 0xFFFFFFFFFFFFFFFFFFFFFFFFFFFFFFFFFFFFFFFF AND DUP2 MSTORE PUSH1 0x20 ADD SWAP1 DUP2 MSTORE PUSH1 0x20 ADD PUSH0 KECCAK256 DUP1 SLOAD DUP1 PUSH1 0x20 MUL PUSH1 0x20 ADD PUSH1 0x40 MLOAD SWAP1 DUP2 ADD PUSH1 0x40 MSTORE DUP1 SWAP3 SWAP2 SWAP1 DUP2 DUP2 MSTORE PUSH1 0x20 ADD PUSH0 SWAP1 JUMPDEST DUP3 DUP3 LT ISZERO PUSH2 0x2E9 JUMPI DUP4 DUP3 SWAP1 PUSH0 MSTORE PUSH1 0x20 PUSH0 KECCAK256 ADD DUP1 SLOAD PUSH2 0x25E SWAP1 PUSH2 0xA9A JUMP JUMPDEST DUP1 PUSH1 0x1F ADD PUSH1 0x20 DUP1 SWAP2 DIV MUL PUSH1 0x20 ADD PUSH1 0x40 MLOAD SWAP1 DUP2 ADD PUSH1 0x40 MSTORE DUP1 SWAP3 SWAP2 SWAP1 DUP2 DUP2 MSTORE PUSH1 0x20 ADD DUP3 DUP1 SLOAD PUSH2 0x28A SWAP1 PUSH2 0xA9A JUMP JUMPDEST DUP1 ISZERO PUSH2 0x2D5 JUMPI DUP1 PUSH1 0x1F LT PUSH2 0x2AC JUMPI PUSH2 0x100 DUP1 DUP4 SLOAD DIV MUL DUP4 MSTORE SWAP2 PUSH1 0x20 ADD SWAP2 PUSH2 0x2D5 JUMP JUMPDEST DUP3 ADD SWAP2 SWAP1 PUSH0 MSTORE PUSH1 0x20 PUSH0 KECCAK256 SWAP1 JUMPDEST DUP2 SLOAD DUP2 MSTORE SWAP1 PUSH1 0x1 ADD SWAP1 PUSH1 0x20 ADD DUP1 DUP4 GT PUSH2 0x2B8 JUMPI DUP3 SWAP1 SUB PUSH1 0x1F AND DUP3 ADD SWAP2 JUMPDEST POP POP POP POP POP DUP2 MSTORE PUSH1 0x20 ADD SWAP1 PUSH1 0x1 ADD SWAP1 PUSH2 0x241 JUMP JUMPDEST POP POP POP POP SWAP1 POP SWAP1 JUMP JUMPDEST PUSH1 0x1 PUSH0 CALLER PUSH20 0xFFFFFFFFFFFFFFFFFFFFFFFFFFFFFFFFFFFFFFFF AND PUSH20 0xFFFFFFFFFFFFFFFFFFFFFFFFFFFFFFFFFFFFFFFF AND DUP2 MSTORE PUSH1 0x20 ADD SWAP1 DUP2 MSTORE PUSH1 0x20 ADD PUSH0 KECCAK256 DUP3 SWAP1 DUP1 PUSH1 0x1 DUP2 SLOAD ADD DUP1 DUP3 SSTORE DUP1 SWAP2 POP POP PUSH1 0x1 SWAP1 SUB SWAP1 PUSH0 MSTORE PUSH1 0x20 PUSH0 KECCAK256 ADD PUSH0 SWAP1 SWAP2 SWAP1 SWAP2 SWAP1 SWAP2 POP SWAP1 DUP2 PUSH2 0x35E SWAP2 SWAP1 PUSH2 0xC70 JUMP JUMPDEST POP DUP1 PUSH0 DUP1 CALLER PUSH20 0xFFFFFFFFFFFFFFFFFFFFFFFFFFFFFFFFFFFFFFFF AND PUSH20 0xFFFFFFFFFFFFFFFFFFFFFFFFFFFFFFFFFFFFFFFF AND DUP2 MSTORE PUSH1 0x20 ADD SWAP1 DUP2 MSTORE PUSH1 0x20 ADD PUSH0 KECCAK256 DUP4 PUSH1 0x40 MLOAD PUSH2 0x3AA SWAP2 SWAP1 PUSH2 0xA57 JUMP JUMPDEST SWAP1 DUP2 MSTORE PUSH1 0x20 ADD PUSH1 0x40 MLOAD DUP1 SWAP2 SUB SWAP1 KECCAK256 SWAP1 DUP2 PUSH2 0x3C4 SWAP2 SWAP1 PUSH2 0xC70 JUMP JUMPDEST POP POP POP JUMP JUMPDEST PUSH0 DUP1 DUP4 PUSH1 0x40 MLOAD PUSH1 0x20 ADD PUSH2 0x3DC SWAP2 SWAP1 PUSH2 0xA57 JUMP JUMPDEST PUSH1 0x40 MLOAD PUSH1 0x20 DUP2 DUP4 SUB SUB DUP2 MSTORE SWAP1 PUSH1 0x40 MSTORE DUP1 MLOAD SWAP1 PUSH1 0x20 ADD KECCAK256 SWAP1 POP PUSH0 DUP2 PUSH1 0x40 MLOAD PUSH1 0x20 ADD PUSH2 0x406 SWAP2 SWAP1 PUSH2 0xDB2 JUMP JUMPDEST PUSH1 0x40 MLOAD PUSH1 0x20 DUP2 DUP4 SUB SUB DUP2 MSTORE SWAP1 PUSH1 0x40 MSTORE DUP1 MLOAD SWAP1 PUSH1 0x20 ADD KECCAK256 SWAP1 POP PUSH0 DUP1 PUSH0 PUSH2 0x42A DUP8 PUSH2 0x4C9 JUMP JUMPDEST SWAP3 POP SWAP3 POP SWAP3 POP PUSH0 PUSH1 0x1 DUP6 DUP4 DUP7 DUP7 PUSH1 0x40 MLOAD PUSH0 DUP2 MSTORE PUSH1 0x20 ADD PUSH1 0x40 MSTORE PUSH1 0x40 MLOAD PUSH2 0x453 SWAP5 SWAP4 SWAP3 SWAP2 SWAP1 PUSH2 0xE01 JUMP JUMPDEST PUSH1 0x20 PUSH1 0x40 MLOAD PUSH1 0x20 DUP2 SUB SWAP1 DUP1 DUP5 SUB SWAP1 DUP6 GAS STATICCALL ISZERO DUP1 ISZERO PUSH2 0x473 JUMPI RETURNDATASIZE PUSH0 DUP1 RETURNDATACOPY RETURNDATASIZE PUSH0 REVERT JUMPDEST POP POP POP PUSH1 0x20 PUSH1 0x40 MLOAD SUB MLOAD SWAP1 POP PUSH0 PUSH2 0x489 DUP5 PUSH2 0x52E JUMP JUMPDEST SWAP1 POP DUP2 PUSH20 0xFFFFFFFFFFFFFFFFFFFFFFFFFFFFFFFFFFFFFFFF AND DUP2 PUSH20 0xFFFFFFFFFFFFFFFFFFFFFFFFFFFFFFFFFFFFFFFF AND EQ SWAP8 POP POP POP POP POP POP POP POP SWAP3 SWAP2 POP POP JUMP JUMPDEST PUSH0 DUP1 PUSH0 PUSH1 0x41 DUP5 MLOAD EQ PUSH2 0x510 JUMPI PUSH1 0x40 MLOAD PUSH32 0x8C379A000000000000000000000000000000000000000000000000000000000 DUP2 MSTORE PUSH1 0x4 ADD PUSH2 0x507 SWAP1 PUSH2 0xE8E JUMP JUMPDEST PUSH1 0x40 MLOAD DUP1 SWAP2 SUB SWAP1 REVERT JUMPDEST PUSH1 0x20 DUP5 ADD MLOAD SWAP3 POP PUSH1 0x40 DUP5 ADD MLOAD SWAP2 POP PUSH1 0x60 DUP5 ADD MLOAD PUSH0 BYTE SWAP1 POP SWAP2 SWAP4 SWAP1 SWAP3 POP JUMP JUMPDEST PUSH0 PUSH1 0x14 DUP3 ADD MLOAD SWAP1 POP SWAP2 SWAP1 POP JUMP JUMPDEST PUSH0 PUSH1 0x40 MLOAD SWAP1 POP SWAP1 JUMP JUMPDEST PUSH0 DUP1 REVERT JUMPDEST PUSH0 DUP1 REVERT JUMPDEST PUSH0 DUP1 REVERT JUMPDEST PUSH0 DUP1 REVERT JUMPDEST PUSH0 PUSH1 0x1F NOT PUSH1 0x1F DUP4 ADD AND SWAP1 POP SWAP2 SWAP1 POP JUMP JUMPDEST PUSH32 0x4E487B7100000000000000000000000000000000000000000000000000000000 PUSH0 MSTORE PUSH1 0x41 PUSH1 0x4 MSTORE PUSH1 0x24 PUSH0 REVERT JUMPDEST PUSH2 0x59A DUP3 PUSH2 0x554 JUMP JUMPDEST DUP2 ADD DUP2 DUP2 LT PUSH8 0xFFFFFFFFFFFFFFFF DUP3 GT OR ISZERO PUSH2 0x5B9 JUMPI PUSH2 0x5B8 PUSH2 0x564 JUMP JUMPDEST JUMPDEST DUP1 PUSH1 0x40 MSTORE POP POP POP JUMP JUMPDEST PUSH0 PUSH2 0x5CB PUSH2 0x53B JUMP JUMPDEST SWAP1 POP PUSH2 0x5D7 DUP3 DUP3 PUSH2 0x591 JUMP JUMPDEST SWAP2 SWAP1 POP JUMP JUMPDEST PUSH0 PUSH8 0xFFFFFFFFFFFFFFFF DUP3 GT ISZERO PUSH2 0x5F6 JUMPI PUSH2 0x5F5 PUSH2 0x564 JUMP JUMPDEST JUMPDEST PUSH2 0x5FF DUP3 PUSH2 0x554 JUMP JUMPDEST SWAP1 POP PUSH1 0x20 DUP2 ADD SWAP1 POP SWAP2 SWAP1 POP JUMP JUMPDEST DUP3 DUP2 DUP4 CALLDATACOPY PUSH0 DUP4 DUP4 ADD MSTORE POP POP POP JUMP JUMPDEST PUSH0 PUSH2 0x62C PUSH2 0x627 DUP5 PUSH2 0x5DC JUMP JUMPDEST PUSH2 0x5C2 JUMP JUMPDEST SWAP1 POP DUP3 DUP2 MSTORE PUSH1 0x20 DUP2 ADD DUP5 DUP5 DUP5 ADD GT ISZERO PUSH2 0x648 JUMPI PUSH2 0x647 PUSH2 0x550 JUMP JUMPDEST JUMPDEST PUSH2 0x653 DUP5 DUP3 DUP6 PUSH2 0x60C JUMP JUMPDEST POP SWAP4 SWAP3 POP POP POP JUMP JUMPDEST PUSH0 DUP3 PUSH1 0x1F DUP4 ADD SLT PUSH2 0x66F JUMPI PUSH2 0x66E PUSH2 0x54C JUMP JUMPDEST JUMPDEST DUP2 CALLDATALOAD PUSH2 0x67F DUP5 DUP3 PUSH1 0x20 DUP7 ADD PUSH2 0x61A JUMP JUMPDEST SWAP2 POP POP SWAP3 SWAP2 POP POP JUMP JUMPDEST PUSH0 PUSH8 0xFFFFFFFFFFFFFFFF DUP3 GT ISZERO PUSH2 0x6A2 JUMPI PUSH2 0x6A1 PUSH2 0x564 JUMP JUMPDEST JUMPDEST PUSH2 0x6AB DUP3 PUSH2 0x554 JUMP JUMPDEST SWAP1 POP PUSH1 0x20 DUP2 ADD SWAP1 POP SWAP2 SWAP1 POP JUMP JUMPDEST PUSH0 PUSH2 0x6CA PUSH2 0x6C5 DUP5 PUSH2 0x688 JUMP JUMPDEST PUSH2 0x5C2 JUMP JUMPDEST SWAP1 POP DUP3 DUP2 MSTORE PUSH1 0x20 DUP2 ADD DUP5 DUP5 DUP5 ADD GT ISZERO PUSH2 0x6E6 JUMPI PUSH2 0x6E5 PUSH2 0x550 JUMP JUMPDEST JUMPDEST PUSH2 0x6F1 DUP5 DUP3 DUP6 PUSH2 0x60C JUMP JUMPDEST POP SWAP4 SWAP3 POP POP POP JUMP JUMPDEST PUSH0 DUP3 PUSH1 0x1F DUP4 ADD SLT PUSH2 0x70D JUMPI PUSH2 0x70C PUSH2 0x54C JUMP JUMPDEST JUMPDEST DUP2 CALLDATALOAD PUSH2 0x71D DUP5 DUP3 PUSH1 0x20 DUP7 ADD PUSH2 0x6B8 JUMP JUMPDEST SWAP2 POP POP SWAP3 SWAP2 POP POP JUMP JUMPDEST PUSH0 DUP1 PUSH1 0x40 DUP4 DUP6 SUB SLT ISZERO PUSH2 0x73C JUMPI PUSH2 0x73B PUSH2 0x544 JUMP JUMPDEST JUMPDEST PUSH0 DUP4 ADD CALLDATALOAD PUSH8 0xFFFFFFFFFFFFFFFF DUP2 GT ISZERO PUSH2 0x759 JUMPI PUSH2 0x758 PUSH2 0x548 JUMP JUMPDEST JUMPDEST PUSH2 0x765 DUP6 DUP3 DUP7 ADD PUSH2 0x65B JUMP JUMPDEST SWAP3 POP POP PUSH1 0x20 DUP4 ADD CALLDATALOAD PUSH8 0xFFFFFFFFFFFFFFFF DUP2 GT ISZERO PUSH2 0x786 JUMPI PUSH2 0x785 PUSH2 0x548 JUMP JUMPDEST JUMPDEST PUSH2 0x792 DUP6 DUP3 DUP7 ADD PUSH2 0x6F9 JUMP JUMPDEST SWAP2 POP POP SWAP3 POP SWAP3 SWAP1 POP JUMP JUMPDEST PUSH0 DUP2 MLOAD SWAP1 POP SWAP2 SWAP1 POP JUMP JUMPDEST PUSH0 DUP3 DUP3 MSTORE PUSH1 0x20 DUP3 ADD SWAP1 POP SWAP3 SWAP2 POP POP JUMP JUMPDEST DUP3 DUP2 DUP4 MCOPY PUSH0 DUP4 DUP4 ADD MSTORE POP POP POP JUMP JUMPDEST PUSH0 PUSH2 0x7CE DUP3 PUSH2 0x79C JUMP JUMPDEST PUSH2 0x7D8 DUP2 DUP6 PUSH2 0x7A6 JUMP JUMPDEST SWAP4 POP PUSH2 0x7E8 DUP2 DUP6 PUSH1 0x20 DUP7 ADD PUSH2 0x7B6 JUMP JUMPDEST PUSH2 0x7F1 DUP2 PUSH2 0x554 JUMP JUMPDEST DUP5 ADD SWAP2 POP POP SWAP3 SWAP2 POP POP JUMP JUMPDEST PUSH0 PUSH1 0x20 DUP3 ADD SWAP1 POP DUP2 DUP2 SUB PUSH0 DUP4 ADD MSTORE PUSH2 0x814 DUP2 DUP5 PUSH2 0x7C4 JUMP JUMPDEST SWAP1 POP SWAP3 SWAP2 POP POP JUMP JUMPDEST PUSH0 DUP2 MLOAD SWAP1 POP SWAP2 SWAP1 POP JUMP JUMPDEST PUSH0 DUP3 DUP3 MSTORE PUSH1 0x20 DUP3 ADD SWAP1 POP SWAP3 SWAP2 POP POP JUMP JUMPDEST PUSH0 DUP2 SWAP1 POP PUSH1 0x20 DUP3 ADD SWAP1 POP SWAP2 SWAP1 POP JUMP JUMPDEST PUSH0 DUP3 DUP3 MSTORE PUSH1 0x20 DUP3 ADD SWAP1 POP SWAP3 SWAP2 POP POP JUMP JUMPDEST PUSH0 PUSH2 0x85F DUP3 PUSH2 0x79C JUMP JUMPDEST PUSH2 0x869 DUP2 DUP6 PUSH2 0x845 JUMP JUMPDEST SWAP4 POP PUSH2 0x879 DUP2 DUP6 PUSH1 0x20 DUP7 ADD PUSH2 0x7B6 JUMP JUMPDEST PUSH2 0x882 DUP2 PUSH2 0x554 JUMP JUMPDEST DUP5 ADD SWAP2 POP POP SWAP3 SWAP2 POP POP JUMP JUMPDEST PUSH0 PUSH2 0x898 DUP4 DUP4 PUSH2 0x855 JUMP JUMPDEST SWAP1 POP SWAP3 SWAP2 POP POP JUMP JUMPDEST PUSH0 PUSH1 0x20 DUP3 ADD SWAP1 POP SWAP2 SWAP1 POP JUMP JUMPDEST PUSH0 PUSH2 0x8B6 DUP3 PUSH2 0x81C JUMP JUMPDEST PUSH2 0x8C0 DUP2 DUP6 PUSH2 0x826 JUMP JUMPDEST SWAP4 POP DUP4 PUSH1 0x20 DUP3 MUL DUP6 ADD PUSH2 0x8D2 DUP6 PUSH2 0x836 JUMP JUMPDEST DUP1 PUSH0 JUMPDEST DUP6 DUP2 LT ISZERO PUSH2 0x90D JUMPI DUP5 DUP5 SUB DUP10 MSTORE DUP2 MLOAD PUSH2 0x8EE DUP6 DUP3 PUSH2 0x88D JUMP JUMPDEST SWAP5 POP PUSH2 0x8F9 DUP4 PUSH2 0x8A0 JUMP JUMPDEST SWAP3 POP PUSH1 0x20 DUP11 ADD SWAP10 POP POP PUSH1 0x1 DUP2 ADD SWAP1 POP PUSH2 0x8D5 JUMP JUMPDEST POP DUP3 SWAP8 POP DUP8 SWAP6 POP POP POP POP POP POP SWAP3 SWAP2 POP POP JUMP JUMPDEST PUSH0 PUSH1 0x20 DUP3 ADD SWAP1 POP DUP2 DUP2 SUB PUSH0 DUP4 ADD MSTORE PUSH2 0x937 DUP2 DUP5 PUSH2 0x8AC JUMP JUMPDEST SWAP1 POP SWAP3 SWAP2 POP POP JUMP JUMPDEST PUSH0 DUP1 PUSH1 0x40 DUP4 DUP6 SUB SLT ISZERO PUSH2 0x955 JUMPI PUSH2 0x954 PUSH2 0x544 JUMP JUMPDEST JUMPDEST PUSH0 DUP4 ADD CALLDATALOAD PUSH8 0xFFFFFFFFFFFFFFFF DUP2 GT ISZERO PUSH2 0x972 JUMPI PUSH2 0x971 PUSH2 0x548 JUMP JUMPDEST JUMPDEST PUSH2 0x97E DUP6 DUP3 DUP7 ADD PUSH2 0x65B JUMP JUMPDEST SWAP3 POP POP PUSH1 0x20 DUP4 ADD CALLDATALOAD PUSH8 0xFFFFFFFFFFFFFFFF DUP2 GT ISZERO PUSH2 0x99F JUMPI PUSH2 0x99E PUSH2 0x548 JUMP JUMPDEST JUMPDEST PUSH2 0x9AB DUP6 DUP3 DUP7 ADD PUSH2 0x65B JUMP JUMPDEST SWAP2 POP POP SWAP3 POP SWAP3 SWAP1 POP JUMP JUMPDEST PUSH32 0x73696720697320636865636B6564206661696C65640000000000000000000000 PUSH0 DUP3 ADD MSTORE POP JUMP JUMPDEST PUSH0 PUSH2 0x9E9 PUSH1 0x15 DUP4 PUSH2 0x7A6 JUMP JUMPDEST SWAP2 POP PUSH2 0x9F4 DUP3 PUSH2 0x9B5 JUMP JUMPDEST PUSH1 0x20 DUP3 ADD SWAP1 POP SWAP2 SWAP1 POP JUMP JUMPDEST PUSH0 PUSH1 0x20 DUP3 ADD SWAP1 POP DUP2 DUP2 SUB PUSH0 DUP4 ADD MSTORE PUSH2 0xA16 DUP2 PUSH2 0x9DD JUMP JUMPDEST SWAP1 POP SWAP2 SWAP1 POP JUMP JUMPDEST PUSH0 DUP2 SWAP1 POP SWAP3 SWAP2 POP POP JUMP JUMPDEST PUSH0 PUSH2 0xA31 DUP3 PUSH2 0x79C JUMP JUMPDEST PUSH2 0xA3B DUP2 DUP6 PUSH2 0xA1D JUMP JUMPDEST SWAP4 POP PUSH2 0xA4B DUP2 DUP6 PUSH1 0x20 DUP7 ADD PUSH2 0x7B6 JUMP JUMPDEST DUP1 DUP5 ADD SWAP2 POP POP SWAP3 SWAP2 POP POP JUMP JUMPDEST PUSH0 PUSH2 0xA62 DUP3 DUP5 PUSH2 0xA27 JUMP JUMPDEST SWAP2 POP DUP2 SWAP1 POP SWAP3 SWAP2 POP POP JUMP JUMPDEST PUSH32 0x4E487B7100000000000000000000000000000000000000000000000000000000 PUSH0 MSTORE PUSH1 0x22 PUSH1 0x4 MSTORE PUSH1 0x24 PUSH0 REVERT JUMPDEST PUSH0 PUSH1 0x2 DUP3 DIV SWAP1 POP PUSH1 0x1 DUP3 AND DUP1 PUSH2 0xAB1 JUMPI PUSH1 0x7F DUP3 AND SWAP2 POP JUMPDEST PUSH1 0x20 DUP3 LT DUP2 SUB PUSH2 0xAC4 JUMPI PUSH2 0xAC3 PUSH2 0xA6D JUMP JUMPDEST JUMPDEST POP SWAP2 SWAP1 POP JUMP JUMPDEST PUSH0 DUP2 SWAP1 POP DUP2 PUSH0 MSTORE PUSH1 0x20 PUSH0 KECCAK256 SWAP1 POP SWAP2 SWAP1 POP JUMP JUMPDEST PUSH0 PUSH1 0x20 PUSH1 0x1F DUP4 ADD DIV SWAP1 POP SWAP2 SWAP1 POP JUMP JUMPDEST PUSH0 DUP3 DUP3 SHL SWAP1 POP SWAP3 SWAP2 POP POP JUMP JUMPDEST PUSH0 PUSH1 0x8 DUP4 MUL PUSH2 0xB26 PUSH32 0xFFFFFFFFFFFFFFFFFFFFFFFFFFFFFFFFFFFFFFFFFFFFFFFFFFFFFFFFFFFFFFFF DUP3 PUSH2 0xAEB JUMP JUMPDEST PUSH2 0xB30 DUP7 DUP4 PUSH2 0xAEB JUMP JUMPDEST SWAP6 POP DUP1 NOT DUP5 AND SWAP4 POP DUP1 DUP7 AND DUP5 OR SWAP3 POP POP POP SWAP4 SWAP3 POP POP POP JUMP JUMPDEST PUSH0 DUP2 SWAP1 POP SWAP2 SWAP1 POP JUMP JUMPDEST PUSH0 DUP2 SWAP1 POP SWAP2 SWAP1 POP JUMP JUMPDEST PUSH0 PUSH2 0xB74 PUSH2 0xB6F PUSH2 0xB6A DUP5 PUSH2 0xB48 JUMP JUMPDEST PUSH2 0xB51 JUMP JUMPDEST PUSH2 0xB48 JUMP JUMPDEST SWAP1 POP SWAP2 SWAP1 POP JUMP JUMPDEST PUSH0 DUP2 SWAP1 POP SWAP2 SWAP1 POP JUMP JUMPDEST PUSH2 0xB8D DUP4 PUSH2 0xB5A JUMP JUMPDEST PUSH2 0xBA1 PUSH2 0xB99 DUP3 PUSH2 0xB7B JUMP JUMPDEST DUP5 DUP5 SLOAD PUSH2 0xAF7 JUMP JUMPDEST DUP3 SSTORE POP POP POP POP JUMP JUMPDEST PUSH0 SWAP1 JUMP JUMPDEST PUSH2 0xBB5 PUSH2 0xBA9 JUMP JUMPDEST PUSH2 0xBC0 DUP2 DUP5 DUP5 PUSH2 0xB84 JUMP JUMPDEST POP POP POP JUMP JUMPDEST JUMPDEST DUP2 DUP2 LT ISZERO PUSH2 0xBE3 JUMPI PUSH2 0xBD8 PUSH0 DUP3 PUSH2 0xBAD JUMP JUMPDEST PUSH1 0x1 DUP2 ADD SWAP1 POP PUSH2 0xBC6 JUMP JUMPDEST POP POP JUMP JUMPDEST PUSH1 0x1F DUP3 GT ISZERO PUSH2 0xC28 JUMPI PUSH2 0xBF9 DUP2 PUSH2 0xACA JUMP JUMPDEST PUSH2 0xC02 DUP5 PUSH2 0xADC JUMP JUMPDEST DUP2 ADD PUSH1 0x20 DUP6 LT ISZERO PUSH2 0xC11 JUMPI DUP2 SWAP1 POP JUMPDEST PUSH2 0xC25 PUSH2 0xC1D DUP6 PUSH2 0xADC JUMP JUMPDEST DUP4 ADD DUP3 PUSH2 0xBC5 JUMP JUMPDEST POP POP JUMPDEST POP POP POP JUMP JUMPDEST PUSH0 DUP3 DUP3 SHR SWAP1 POP SWAP3 SWAP2 POP POP JUMP JUMPDEST PUSH0 PUSH2 0xC48 PUSH0 NOT DUP5 PUSH1 0x8 MUL PUSH2 0xC2D JUMP JUMPDEST NOT DUP1 DUP4 AND SWAP2 POP POP SWAP3 SWAP2 POP POP JUMP JUMPDEST PUSH0 PUSH2 0xC60 DUP4 DUP4 PUSH2 0xC39 JUMP JUMPDEST SWAP2 POP DUP3 PUSH1 0x2 MUL DUP3 OR SWAP1 POP SWAP3 SWAP2 POP POP JUMP JUMPDEST PUSH2 0xC79 DUP3 PUSH2 0x79C JUMP JUMPDEST PUSH8 0xFFFFFFFFFFFFFFFF DUP2 GT ISZERO PUSH2 0xC92 JUMPI PUSH2 0xC91 PUSH2 0x564 JUMP JUMPDEST JUMPDEST PUSH2 0xC9C DUP3 SLOAD PUSH2 0xA9A JUMP JUMPDEST PUSH2 0xCA7 DUP3 DUP3 DUP6 PUSH2 0xBE7 JUMP JUMPDEST PUSH0 PUSH1 0x20 SWAP1 POP PUSH1 0x1F DUP4 GT PUSH1 0x1 DUP2 EQ PUSH2 0xCD8 JUMPI PUSH0 DUP5 ISZERO PUSH2 0xCC6 JUMPI DUP3 DUP8 ADD MLOAD SWAP1 POP JUMPDEST PUSH2 0xCD0 DUP6 DUP3 PUSH2 0xC55 JUMP JUMPDEST DUP7 SSTORE POP PUSH2 0xD37 JUMP JUMPDEST PUSH1 0x1F NOT DUP5 AND PUSH2 0xCE6 DUP7 PUSH2 0xACA JUMP JUMPDEST PUSH0 JUMPDEST DUP3 DUP2 LT ISZERO PUSH2 0xD0D JUMPI DUP5 DUP10 ADD MLOAD DUP3 SSTORE PUSH1 0x1 DUP3 ADD SWAP2 POP PUSH1 0x20 DUP6 ADD SWAP5 POP PUSH1 0x20 DUP2 ADD SWAP1 POP PUSH2 0xCE8 JUMP JUMPDEST DUP7 DUP4 LT ISZERO PUSH2 0xD2A JUMPI DUP5 DUP10 ADD MLOAD PUSH2 0xD26 PUSH1 0x1F DUP10 AND DUP3 PUSH2 0xC39 JUMP JUMPDEST DUP4 SSTORE POP JUMPDEST PUSH1 0x1 PUSH1 0x2 DUP9 MUL ADD DUP9 SSTORE POP POP POP JUMPDEST POP POP POP POP POP POP JUMP JUMPDEST PUSH32 0x19457468657265756D205369676E6564204D6573736167653A0A333200000000 PUSH0 DUP3 ADD MSTORE POP JUMP JUMPDEST PUSH0 PUSH2 0xD73 PUSH1 0x1C DUP4 PUSH2 0xA1D JUMP JUMPDEST SWAP2 POP PUSH2 0xD7E DUP3 PUSH2 0xD3F JUMP JUMPDEST PUSH1 0x1C DUP3 ADD SWAP1 POP SWAP2 SWAP1 POP JUMP JUMPDEST PUSH0 DUP2 SWAP1 POP SWAP2 SWAP1 POP JUMP JUMPDEST PUSH0 DUP2 SWAP1 POP SWAP2 SWAP1 POP JUMP JUMPDEST PUSH2 0xDAC PUSH2 0xDA7 DUP3 PUSH2 0xD89 JUMP JUMPDEST PUSH2 0xD92 JUMP JUMPDEST DUP3 MSTORE POP POP JUMP JUMPDEST PUSH0 PUSH2 0xDBC DUP3 PUSH2 0xD67 JUMP JUMPDEST SWAP2 POP PUSH2 0xDC8 DUP3 DUP5 PUSH2 0xD9B JUMP JUMPDEST PUSH1 0x20 DUP3 ADD SWAP2 POP DUP2 SWAP1 POP SWAP3 SWAP2 POP POP JUMP JUMPDEST PUSH2 0xDE0 DUP2 PUSH2 0xD89 JUMP JUMPDEST DUP3 MSTORE POP POP JUMP JUMPDEST PUSH0 PUSH1 0xFF DUP3 AND SWAP1 POP SWAP2 SWAP1 POP JUMP JUMPDEST PUSH2 0xDFB DUP2 PUSH2 0xDE6 JUMP JUMPDEST DUP3 MSTORE POP POP JUMP JUMPDEST PUSH0 PUSH1 0x80 DUP3 ADD SWAP1 POP PUSH2 0xE14 PUSH0 DUP4 ADD DUP8 PUSH2 0xDD7 JUMP JUMPDEST PUSH2 0xE21 PUSH1 0x20 DUP4 ADD DUP7 PUSH2 0xDF2 JUMP JUMPDEST PUSH2 0xE2E PUSH1 0x40 DUP4 ADD DUP6 PUSH2 0xDD7 JUMP JUMPDEST PUSH2 0xE3B PUSH1 0x60 DUP4 ADD DUP5 PUSH2 0xDD7 JUMP JUMPDEST SWAP6 SWAP5 POP POP POP POP POP JUMP JUMPDEST PUSH32 0x696E76616C6964207369676E6174757265206C656E6774680000000000000000 PUSH0 DUP3 ADD MSTORE POP JUMP JUMPDEST PUSH0 PUSH2 0xE78 PUSH1 0x18 DUP4 PUSH2 0x7A6 JUMP JUMPDEST SWAP2 POP PUSH2 0xE83 DUP3 PUSH2 0xE44 JUMP JUMPDEST PUSH1 0x20 DUP3 ADD SWAP1 POP SWAP2 SWAP1 POP JUMP JUMPDEST PUSH0 PUSH1 0x20 DUP3 ADD SWAP1 POP DUP2 DUP2 SUB PUSH0 DUP4 ADD MSTORE PUSH2 0xEA5 DUP2 PUSH2 0xE6C JUMP JUMPDEST SWAP1 POP SWAP2 SWAP1 POP JUMP INVALID LOG2 PUSH5 0x6970667358 0x22 SLT KECCAK256 INVALID 0xD6 LT 0xFC 0xBA 0xF6 GASPRICE SWAP11 0xB4 PUSH15 0x431FBE5CE9A11D72CA3B9EC8231832 NUMBER STATICCALL MSIZE 0xCE BLOCKHASH 0xEE KECCAK256 PUSH5 0x736F6C6343 STOP ADDMOD BYTE STOP CALLER "
				},
				"gasEstimates": {
					"creation": {
						"codeDepositCost": "762000",
						"executionCost": "797",
						"totalCost": "762797"
					},
					"external": {
						"getSecretByKey(string,bytes)": "infinite",
						"getSecretKey()": "infinite",
						"putSecret(string,string)": "infinite"
					},
					"internal": {
						"bytesToAddress(bytes32)": "infinite",
						"split(bytes memory)": "infinite",
						"verifyMessage(string memory,bytes memory)": "infinite"
					}
				},
				"methodIdentifiers": {
					"getSecretByKey(string,bytes)": "542564df",
					"getSecretKey()": "79ed40bc",
					"putSecret(string,string)": "8055111f"
				}
			},
			"storageLayout": {
				"storage": [
					{
						"astId": 8,
						"contract": "contracts/Strongbox.sol:Strongbox",
						"label": "secretMap",
						"offset": 0,
						"slot": "0",
						"type": "t_mapping(t_address,t_mapping(t_string_memory_ptr,t_string_storage))"
					},
					{
						"astId": 13,
						"contract": "contracts/Strongbox.sol:Strongbox",
						"label": "sercretKeyMap",
						"offset": 0,
						"slot": "1",
						"type": "t_mapping(t_address,t_array(t_string_storage)dyn_storage)"
					}
				],
				"types": {
					"t_address": {
						"encoding": "inplace",
						"label": "address",
						"numberOfBytes": "20"
					},
					"t_array(t_string_storage)dyn_storage": {
						"base": "t_string_storage",
						"encoding": "dynamic_array",
						"label": "string[]",
						"numberOfBytes": "32"
					},
					"t_mapping(t_address,t_array(t_string_storage)dyn_storage)": {
						"encoding": "mapping",
						"key": "t_address",
						"label": "mapping(address => string[])",
						"numberOfBytes": "32",
						"value": "t_array(t_string_storage)dyn_storage"
					},
					"t_mapping(t_address,t_mapping(t_string_memory_ptr,t_string_storage))": {
						"encoding": "mapping",
						"key": "t_address",
						"label": "mapping(address => mapping(string => string))",
						"numberOfBytes": "32",
						"value": "t_mapping(t_string_memory_ptr,t_string_storage)"
					},
					"t_mapping(t_string_memory_ptr,t_string_storage)": {
						"encoding": "mapping",
						"key": "t_string_memory_ptr",
						"label": "mapping(string => string)",
						"numberOfBytes": "32",
						"value": "t_string_storage"
					},
					"t_string_memory_ptr": {
						"encoding": "bytes",
						"label": "string",
						"numberOfBytes": "32"
					},
					"t_string_storage": {
						"encoding": "bytes",
						"label": "string",
						"numberOfBytes": "32"
					}
				}
			},
			"userdoc": {
				"kind": "user",
				"methods": {},
				"notice": "一款智能加密的区块链数据，只有自己才能看到自己的数据，可以放一些比较私密的数据",
				"version": 1
			}
		}
	}
}