{
	"contracts/MultiSigWallet.sol": {
		"MultiSigWallet": {
			"abi": [
				{
					"inputs": [
						{
							"internalType": "address[]",
							"name": "_owners",
							"type": "address[]"
						},
						{
							"internalType": "uint256",
							"name": "_required",
							"type": "uint256"
						}
					],
					"stateMutability": "nonpayable",
					"type": "constructor"
				},
				{
					"anonymous": false,
					"inputs": [
						{
							"indexed": true,
							"internalType": "address",
							"name": "owner",
							"type": "address"
						},
						{
							"indexed": true,
							"internalType": "uint256",
							"name": "txId",
							"type": "uint256"
						}
					],
					"name": "Approve",
					"type": "event"
				},
				{
					"anonymous": false,
					"inputs": [
						{
							"indexed": true,
							"internalType": "address",
							"name": "sender",
							"type": "address"
						},
						{
							"indexed": false,
							"internalType": "uint256",
							"name": "amount",
							"type": "uint256"
						}
					],
					"name": "Deposit",
					"type": "event"
				},
				{
					"anonymous": false,
					"inputs": [
						{
							"indexed": true,
							"internalType": "uint256",
							"name": "txId",
							"type": "uint256"
						}
					],
					"name": "Execute",
					"type": "event"
				},
				{
					"anonymous": false,
					"inputs": [
						{
							"indexed": true,
							"internalType": "address",
							"name": "owner",
							"type": "address"
						},
						{
							"indexed": true,
							"internalType": "uint256",
							"name": "txId",
							"type": "uint256"
						}
					],
					"name": "Revoke",
					"type": "event"
				},
				{
					"anonymous": false,
					"inputs": [
						{
							"indexed": true,
							"internalType": "uint256",
							"name": "txId",
							"type": "uint256"
						}
					],
					"name": "Submit",
					"type": "event"
				},
				{
					"inputs": [
						{
							"internalType": "uint256",
							"name": "_txId",
							"type": "uint256"
						}
					],
					"name": "approve",
					"outputs": [],
					"stateMutability": "nonpayable",
					"type": "function"
				},
				{
					"inputs": [
						{
							"internalType": "uint256",
							"name": "",
							"type": "uint256"
						},
						{
							"internalType": "address",
							"name": "",
							"type": "address"
						}
					],
					"name": "approved",
					"outputs": [
						{
							"internalType": "bool",
							"name": "",
							"type": "bool"
						}
					],
					"stateMutability": "view",
					"type": "function"
				},
				{
					"inputs": [
						{
							"internalType": "address",
							"name": "_to",
							"type": "address"
						}
					],
					"name": "call",
					"outputs": [],
					"stateMutability": "payable",
					"type": "function"
				},
				{
					"inputs": [
						{
							"internalType": "uint256",
							"name": "_txId",
							"type": "uint256"
						}
					],
					"name": "execute",
					"outputs": [],
					"stateMutability": "nonpayable",
					"type": "function"
				},
				{
					"inputs": [
						{
							"internalType": "address",
							"name": "",
							"type": "address"
						}
					],
					"name": "isOwner",
					"outputs": [
						{
							"internalType": "bool",
							"name": "",
							"type": "bool"
						}
					],
					"stateMutability": "view",
					"type": "function"
				},
				{
					"inputs": [
						{
							"internalType": "uint256",
							"name": "",
							"type": "uint256"
						}
					],
					"name": "owners",
					"outputs": [
						{
							"internalType": "address",
							"name": "",
							"type": "address"
						}
					],
					"stateMutability": "view",
					"type": "function"
				},
				{
					"inputs": [],
					"name": "required",
					"outputs": [
						{
							"internalType": "uint256",
							"name": "",
							"type": "uint256"
						}
					],
					"stateMutability": "view",
					"type": "function"
				},
				{
					"inputs": [
						{
							"internalType": "uint256",
							"name": "_txId",
							"type": "uint256"
						}
					],
					"name": "revoke",
					"outputs": [],
					"stateMutability": "nonpayable",
					"type": "function"
				},
				{
					"inputs": [
						{
							"internalType": "address",
							"name": "_to",
							"type": "address"
						},
						{
							"internalType": "uint256",
							"name": "_value",
							"type": "uint256"
						},
						{
							"internalType": "bytes",
							"name": "_data",
							"type": "bytes"
						}
					],
					"name": "submit",
					"outputs": [],
					"stateMutability": "nonpayable",
					"type": "function"
				},
				{
					"inputs": [
						{
							"internalType": "uint256",
							"name": "",
							"type": "uint256"
						}
					],
					"name": "transactions",
					"outputs": [
						{
							"internalType": "address",
							"name": "to",
							"type": "address"
						},
						{
							"internalType": "uint256",
							"name": "value",
							"type": "uint256"
						},
						{
							"internalType": "bytes",
							"name": "data",
							"type": "bytes"
						},
						{
							"internalType": "bool",
							"name": "executed",
							"type": "bool"
						}
					],
					"stateMutability": "view",
					"type": "function"
				},
				{
					"stateMutability": "payable",
					"type": "receive"
				}
			],
			"devdoc": {
				"author": "zhanghony",
				"details": "1.部署  [\"0xf39Fd6e51aad88F6F4ce6aB8827279cffFb92266\",\"0x70997970C51812dc3A010C7d01b50e0d17dc79C8\",\"0x3C44CdDdB6a900fa2b585dd299e03d12FA4293BC\",\"0x90F79bf6EB2c4f870365E785982E1f101E93b906\",\"0x15d34AAf54267DB7D7c367839AAf71A00a2C6A65\"] amount 1 2 submit  合约地址 0x3155755b79aA083bd953911C92705B7aA82a18F9  1 0x3155755b79aA083bd953911C92705B7aA82a18F9 3 approve 0   4 切换账号 approve 0 向合约打1 ether 5 execute 0",
				"events": {
					"Approve(address,uint256)": {
						"details": "Explain to a developer any extra details",
						"params": {
							"owner": "a parameter just like in doxygen (must be followed by parameter name)",
							"txId": "a parameter just like in doxygen (must be followed by parameter name)"
						}
					},
					"Deposit(address,uint256)": {
						"details": "Explain to a developer any extra details",
						"params": {
							"amount": "a parameter just like in doxygen (must be followed by parameter name)",
							"sender": "a parameter just like in doxygen (must be followed by parameter name)"
						}
					},
					"Execute(uint256)": {
						"details": "Explain to a developer any extra details",
						"params": {
							"txId": "a parameter just like in doxygen (must be followed by parameter name)"
						}
					},
					"Revoke(address,uint256)": {
						"details": "Explain to a developer any extra details",
						"params": {
							"owner": "a parameter just like in doxygen (must be followed by parameter name)",
							"txId": "a parameter just like in doxygen (must be followed by parameter name)"
						}
					},
					"Submit(uint256)": {
						"details": "Explain to a developer any extra details",
						"params": {
							"txId": "a parameter just like in doxygen (must be followed by parameter name)"
						}
					}
				},
				"kind": "dev",
				"methods": {
					"approve(uint256)": {
						"details": "Explain to a developer any extra details",
						"params": {
							"_txId": "a parameter just like in doxygen (must be followed by parameter name)"
						}
					},
					"constructor": {
						"details": "Explain to a developer any extra details",
						"params": {
							"_owners": "a parameter just like in doxygen (must be followed by parameter name)",
							"_required": "执⾏交易所需的最少批准数"
						}
					}
				},
				"title": "多签名钱包合约",
				"version": 1
			},
			"evm": {
				"assembly": "    /* \"contracts/MultiSigWallet.sol\":632:6731  contract MultiSigWallet {\r... */\n  mstore(0x40, 0x80)\n    /* \"contracts/MultiSigWallet.sol\":3974:4518  constructor(address[] memory _owners, uint256 _required)   {\r... */\n  callvalue\n  dup1\n  iszero\n  tag_1\n  jumpi\n  0x00\n  dup1\n  revert\ntag_1:\n  pop\n  mload(0x40)\n  sub(codesize, bytecodeSize)\n  dup1\n  bytecodeSize\n  dup4\n  codecopy\n  dup2\n  add\n  0x40\n  dup2\n  swap1\n  mstore\n  tag_2\n  swap2\n  tag_3\n  jump\t// in\ntag_2:\n    /* \"contracts/MultiSigWallet.sol\":4069:4070  0 */\n  0x00\n    /* \"contracts/MultiSigWallet.sol\":4052:4059  _owners */\n  dup3\n    /* \"contracts/MultiSigWallet.sol\":4052:4066  _owners.length */\n  mload\n    /* \"contracts/MultiSigWallet.sol\":4052:4070  _owners.length > 0 */\n  gt\n    /* \"contracts/MultiSigWallet.sol\":4044:4090  require(_owners.length > 0, \" owners require\") */\n  tag_6\n  jumpi\n  mload(0x40)\n  shl(0xe5, 0x461bcd)\n  dup2\n  mstore\n  0x04\n  add\n  tag_7\n  swap1\n  tag_8\n  jump\t// in\ntag_7:\n  mload(0x40)\n  dup1\n  swap2\n  sub\n  swap1\n  revert\ntag_6:\n    /* \"contracts/MultiSigWallet.sol\":4121:4122  0 */\n  0x00\n    /* \"contracts/MultiSigWallet.sol\":4109:4118  _required */\n  dup2\n    /* \"contracts/MultiSigWallet.sol\":4109:4122  _required > 0 */\n  gt\n    /* \"contracts/MultiSigWallet.sol\":4109:4153  _required > 0 && _required <= _owners.length */\n  dup1\n  iszero\n  tag_9\n  jumpi\n  pop\n    /* \"contracts/MultiSigWallet.sol\":4139:4146  _owners */\n  dup2\n    /* \"contracts/MultiSigWallet.sol\":4139:4153  _owners.length */\n  mload\n    /* \"contracts/MultiSigWallet.sol\":4126:4135  _required */\n  dup2\n    /* \"contracts/MultiSigWallet.sol\":4126:4153  _required <= _owners.length */\n  gt\n  iszero\n    /* \"contracts/MultiSigWallet.sol\":4109:4153  _required > 0 && _required <= _owners.length */\ntag_9:\n    /* \"contracts/MultiSigWallet.sol\":4101:4182  require(_required > 0 && _required <= _owners.length,\"invalied required number \") */\n  tag_10\n  jumpi\n  mload(0x40)\n  shl(0xe5, 0x461bcd)\n  dup2\n  mstore\n  0x04\n  add\n  tag_7\n  swap1\n  tag_12\n  jump\t// in\ntag_10:\n    /* \"contracts/MultiSigWallet.sol\":4200:4209  uint256 i */\n  0x00\n    /* \"contracts/MultiSigWallet.sol\":4195:4480  for (uint256 i; i < _owners.length; i++) {\r... */\ntag_13:\n    /* \"contracts/MultiSigWallet.sol\":4215:4222  _owners */\n  dup3\n    /* \"contracts/MultiSigWallet.sol\":4215:4229  _owners.length */\n  mload\n    /* \"contracts/MultiSigWallet.sol\":4211:4212  i */\n  dup2\n    /* \"contracts/MultiSigWallet.sol\":4211:4229  i < _owners.length */\n  lt\n    /* \"contracts/MultiSigWallet.sol\":4195:4480  for (uint256 i; i < _owners.length; i++) {\r... */\n  iszero\n  tag_14\n  jumpi\n    /* \"contracts/MultiSigWallet.sol\":4251:4264  address owner */\n  0x00\n    /* \"contracts/MultiSigWallet.sol\":4267:4274  _owners */\n  dup4\n    /* \"contracts/MultiSigWallet.sol\":4275:4276  i */\n  dup3\n    /* \"contracts/MultiSigWallet.sol\":4267:4277  _owners[i] */\n  dup2\n  mload\n  dup2\n  lt\n  tag_16\n  jumpi\n  mstore(0x00, shl(0xe0, 0x4e487b71))\n  mstore(0x04, 0x32)\n  revert(0x00, 0x24)\ntag_16:\n  0x20\n  mul\n  0x20\n  add\n  add\n  mload\n    /* \"contracts/MultiSigWallet.sol\":4251:4277  address owner = _owners[i] */\n  swap1\n  pop\n    /* \"contracts/MultiSigWallet.sol\":4317:4318  0 */\n  0x00\n  sub(shl(0xa0, 0x01), 0x01)\n    /* \"contracts/MultiSigWallet.sol\":4300:4319  owner != address(0) */\n  and\n    /* \"contracts/MultiSigWallet.sol\":4300:4305  owner */\n  dup2\n  sub(shl(0xa0, 0x01), 0x01)\n    /* \"contracts/MultiSigWallet.sol\":4300:4319  owner != address(0) */\n  and\n  eq\n  iszero\n    /* \"contracts/MultiSigWallet.sol\":4292:4337  require(owner != address(0), \"invalid owner\") */\n  tag_17\n  jumpi\n  mload(0x40)\n  shl(0xe5, 0x461bcd)\n  dup2\n  mstore\n  0x04\n  add\n  tag_7\n  swap1\n  tag_19\n  jump\t// in\ntag_17:\n  sub(shl(0xa0, 0x01), 0x01)\n    /* \"contracts/MultiSigWallet.sol\":4361:4375  isOwner[owner] */\n  dup2\n  and\n  0x00\n  swap1\n  dup2\n  mstore\n    /* \"contracts/MultiSigWallet.sol\":4361:4368  isOwner */\n  0x01\n    /* \"contracts/MultiSigWallet.sol\":4361:4375  isOwner[owner] */\n  0x20\n  mstore\n  0x40\n  swap1\n  keccak256\n  sload\n  0xff\n  and\n    /* \"contracts/MultiSigWallet.sol\":4360:4375  !isOwner[owner] */\n  iszero\n    /* \"contracts/MultiSigWallet.sol\":4352:4399  require(!isOwner[owner], \"owner is not unique\") */\n  tag_20\n  jumpi\n  mload(0x40)\n  shl(0xe5, 0x461bcd)\n  dup2\n  mstore\n  0x04\n  add\n  tag_7\n  swap1\n  tag_22\n  jump\t// in\ntag_20:\n  sub(shl(0xa0, 0x01), 0x01)\n    /* \"contracts/MultiSigWallet.sol\":4414:4428  isOwner[owner] */\n  and\n  0x00\n  dup2\n  dup2\n  mstore\n    /* \"contracts/MultiSigWallet.sol\":4431:4435  true */\n  0x01\n    /* \"contracts/MultiSigWallet.sol\":4414:4428  isOwner[owner] */\n  0x20\n  dup2\n  swap1\n  mstore\n  0x40\n  dup3\n  keccak256\n    /* \"contracts/MultiSigWallet.sol\":4414:4435  isOwner[owner] = true */\n  dup1\n  sload\n  not(0xff)\n  and\n  dup3\n  or\n  swap1\n  sstore\n    /* \"contracts/MultiSigWallet.sol\":4450:4468  owners.push(owner) */\n  dup2\n  sload\n  swap1\n  dup2\n  add\n  dup3\n  sstore\n  swap1\n  dup1\n  mstore\n  0x290decd9548b62a8d60345a988386fc84ba6bc95484008f6362f93160ef3e563\n  add\n  dup1\n  sload\n  not(sub(shl(0xa0, 0x01), 0x01))\n  and\n  swap1\n  swap2\n  or\n  swap1\n  sstore\n    /* \"contracts/MultiSigWallet.sol\":4231:4234  i++ */\n  dup1\n  tag_24\n  dup2\n  tag_25\n  jump\t// in\ntag_24:\n  swap2\n  pop\n  pop\n    /* \"contracts/MultiSigWallet.sol\":4195:4480  for (uint256 i; i < _owners.length; i++) {\r... */\n  jump(tag_13)\ntag_14:\n  pop\n    /* \"contracts/MultiSigWallet.sol\":4490:4498  required */\n  0x02\n    /* \"contracts/MultiSigWallet.sol\":4490:4510  required = _required */\n  sstore\n  pop\n    /* \"contracts/MultiSigWallet.sol\":632:6731  contract MultiSigWallet {\r... */\n  jump(tag_27)\n    /* \"#utility.yul\":14:193   */\ntag_28:\n    /* \"#utility.yul\":95:108   */\n  dup1\n  mload\n  sub(shl(0xa0, 0x01), 0x01)\n    /* \"#utility.yul\":137:168   */\n  dup2\n  and\n    /* \"#utility.yul\":127:169   */\n  dup2\n  eq\n    /* \"#utility.yul\":117:119   */\n  tag_30\n  jumpi\n    /* \"#utility.yul\":183:184   */\n  0x00\n    /* \"#utility.yul\":180:181   */\n  dup1\n    /* \"#utility.yul\":173:185   */\n  revert\n    /* \"#utility.yul\":117:119   */\ntag_30:\n    /* \"#utility.yul\":76:193   */\n  swap2\n  swap1\n  pop\n  jump\t// out\n    /* \"#utility.yul\":198:1435   */\ntag_3:\n  0x00\n  dup1\n    /* \"#utility.yul\":363:365   */\n  0x40\n    /* \"#utility.yul\":351:360   */\n  dup4\n    /* \"#utility.yul\":342:349   */\n  dup6\n    /* \"#utility.yul\":338:361   */\n  sub\n    /* \"#utility.yul\":334:366   */\n  slt\n    /* \"#utility.yul\":331:333   */\n  iszero\n  tag_32\n  jumpi\n    /* \"#utility.yul\":384:390   */\n  dup2\n    /* \"#utility.yul\":376:382   */\n  dup3\n    /* \"#utility.yul\":369:391   */\n  revert\n    /* \"#utility.yul\":331:333   */\ntag_32:\n    /* \"#utility.yul\":416:432   */\n  dup3\n  mload\n  sub(shl(0x40, 0x01), 0x01)\n    /* \"#utility.yul\":481:495   */\n  dup1\n  dup3\n  gt\n    /* \"#utility.yul\":478:480   */\n  iszero\n  tag_33\n  jumpi\n    /* \"#utility.yul\":513:519   */\n  dup4\n    /* \"#utility.yul\":505:511   */\n  dup5\n    /* \"#utility.yul\":498:520   */\n  revert\n    /* \"#utility.yul\":478:480   */\ntag_33:\n    /* \"#utility.yul\":556:562   */\n  dup2\n    /* \"#utility.yul\":545:554   */\n  dup6\n    /* \"#utility.yul\":541:563   */\n  add\n    /* \"#utility.yul\":531:563   */\n  swap2\n  pop\n    /* \"#utility.yul\":601:608   */\n  dup6\n    /* \"#utility.yul\":594:598   */\n  0x1f\n    /* \"#utility.yul\":590:592   */\n  dup4\n    /* \"#utility.yul\":586:599   */\n  add\n    /* \"#utility.yul\":582:609   */\n  slt\n    /* \"#utility.yul\":572:574   */\n  tag_34\n  jumpi\n    /* \"#utility.yul\":628:634   */\n  dup4\n    /* \"#utility.yul\":620:626   */\n  dup5\n    /* \"#utility.yul\":613:635   */\n  revert\n    /* \"#utility.yul\":572:574   */\ntag_34:\n    /* \"#utility.yul\":662:664   */\n  dup2\n    /* \"#utility.yul\":656:665   */\n  mload\n    /* \"#utility.yul\":684:688   */\n  0x20\n    /* \"#utility.yul\":707:709   */\n  dup3\n    /* \"#utility.yul\":703:705   */\n  dup3\n    /* \"#utility.yul\":700:710   */\n  gt\n    /* \"#utility.yul\":697:699   */\n  iszero\n  tag_36\n  jumpi\n    /* \"#utility.yul\":713:731   */\n  tag_36\n  tag_37\n  jump\t// in\ntag_36:\n    /* \"#utility.yul\":760:762   */\n  dup1\n    /* \"#utility.yul\":756:758   */\n  dup3\n    /* \"#utility.yul\":752:763   */\n  mul\n    /* \"#utility.yul\":792:794   */\n  0x40\n    /* \"#utility.yul\":786:795   */\n  mload\n    /* \"#utility.yul\":843:845   */\n  dup3\n    /* \"#utility.yul\":838:840   */\n  dup3\n    /* \"#utility.yul\":830:836   */\n  dup3\n    /* \"#utility.yul\":826:841   */\n  add\n    /* \"#utility.yul\":822:846   */\n  add\n    /* \"#utility.yul\":896:902   */\n  dup2\n    /* \"#utility.yul\":884:894   */\n  dup2\n    /* \"#utility.yul\":881:903   */\n  lt\n    /* \"#utility.yul\":876:878   */\n  dup7\n    /* \"#utility.yul\":864:874   */\n  dup3\n    /* \"#utility.yul\":861:879   */\n  gt\n    /* \"#utility.yul\":858:904   */\n  or\n    /* \"#utility.yul\":855:857   */\n  iszero\n  tag_39\n  jumpi\n    /* \"#utility.yul\":907:925   */\n  tag_39\n  tag_37\n  jump\t// in\ntag_39:\n    /* \"#utility.yul\":943:945   */\n  0x40\n    /* \"#utility.yul\":936:958   */\n  mstore\n    /* \"#utility.yul\":993:1011   */\n  dup4\n  dup2\n  mstore\n    /* \"#utility.yul\":1027:1042   */\n  dup3\n  dup2\n  add\n  swap5\n  pop\n    /* \"#utility.yul\":1062:1073   */\n  dup6\n  dup4\n  add\n    /* \"#utility.yul\":1092:1103   */\n  dup3\n  dup8\n  add\n    /* \"#utility.yul\":1088:1108   */\n  dup5\n  add\n    /* \"#utility.yul\":1085:1118   */\n  dup12\n  lt\n    /* \"#utility.yul\":1082:1084   */\n  iszero\n  tag_40\n  jumpi\n    /* \"#utility.yul\":1136:1142   */\n  dup9\n    /* \"#utility.yul\":1128:1134   */\n  dup10\n    /* \"#utility.yul\":1121:1143   */\n  revert\n    /* \"#utility.yul\":1082:1084   */\ntag_40:\n    /* \"#utility.yul\":1163:1169   */\n  dup9\n    /* \"#utility.yul\":1154:1169   */\n  swap7\n  pop\n    /* \"#utility.yul\":1178:1360   */\ntag_41:\n    /* \"#utility.yul\":1192:1194   */\n  dup5\n    /* \"#utility.yul\":1189:1190   */\n  dup8\n    /* \"#utility.yul\":1186:1195   */\n  lt\n    /* \"#utility.yul\":1178:1360   */\n  iszero\n  tag_43\n  jumpi\n    /* \"#utility.yul\":1249:1285   */\n  tag_44\n    /* \"#utility.yul\":1281:1284   */\n  dup2\n    /* \"#utility.yul\":1249:1285   */\n  tag_28\n  jump\t// in\ntag_44:\n    /* \"#utility.yul\":1237:1286   */\n  dup7\n  mstore\n    /* \"#utility.yul\":1210:1211   */\n  0x01\n    /* \"#utility.yul\":1203:1212   */\n  swap7\n  swap1\n  swap7\n  add\n  swap6\n    /* \"#utility.yul\":1306:1318   */\n  swap5\n  dup4\n  add\n  swap5\n    /* \"#utility.yul\":1338:1350   */\n  dup4\n  add\n    /* \"#utility.yul\":1178:1360   */\n  jump(tag_41)\ntag_43:\n  pop\n    /* \"#utility.yul\":1410:1428   */\n  swap8\n  swap1\n  swap2\n  add\n    /* \"#utility.yul\":1404:1429   */\n  mload\n    /* \"#utility.yul\":1379:1385   */\n  swap7\n  swap9\n    /* \"#utility.yul\":1404:1429   */\n  swap7\n  swap8\n  pop\n  pop\n  pop\n  pop\n  pop\n  pop\n  pop\n    /* \"#utility.yul\":321:1435   */\n  jump\t// out\n    /* \"#utility.yul\":1440:1783   */\ntag_22:\n    /* \"#utility.yul\":1642:1644   */\n  0x20\n    /* \"#utility.yul\":1624:1645   */\n  dup1\n  dup3\n  mstore\n    /* \"#utility.yul\":1681:1683   */\n  0x13\n    /* \"#utility.yul\":1661:1679   */\n  swap1\n  dup3\n  add\n    /* \"#utility.yul\":1654:1684   */\n  mstore\n    /* \"#utility.yul\":1720:1741   */\n  0x6f776e6572206973206e6f7420756e6971756500000000000000000000000000\n    /* \"#utility.yul\":1715:1717   */\n  0x40\n    /* \"#utility.yul\":1700:1718   */\n  dup3\n  add\n    /* \"#utility.yul\":1693:1742   */\n  mstore\n    /* \"#utility.yul\":1774:1776   */\n  0x60\n    /* \"#utility.yul\":1759:1777   */\n  add\n  swap1\n    /* \"#utility.yul\":1614:1783   */\n  jump\t// out\n    /* \"#utility.yul\":1788:2127   */\ntag_8:\n    /* \"#utility.yul\":1990:1992   */\n  0x20\n    /* \"#utility.yul\":1972:1993   */\n  dup1\n  dup3\n  mstore\n    /* \"#utility.yul\":2029:2031   */\n  0x0f\n    /* \"#utility.yul\":2009:2027   */\n  swap1\n  dup3\n  add\n    /* \"#utility.yul\":2002:2032   */\n  mstore\n  shl(0x88, 0x206f776e6572732072657175697265)\n    /* \"#utility.yul\":2063:2065   */\n  0x40\n    /* \"#utility.yul\":2048:2066   */\n  dup3\n  add\n    /* \"#utility.yul\":2041:2086   */\n  mstore\n    /* \"#utility.yul\":2118:2120   */\n  0x60\n    /* \"#utility.yul\":2103:2121   */\n  add\n  swap1\n    /* \"#utility.yul\":1962:2127   */\n  jump\t// out\n    /* \"#utility.yul\":2132:2469   */\ntag_19:\n    /* \"#utility.yul\":2334:2336   */\n  0x20\n    /* \"#utility.yul\":2316:2337   */\n  dup1\n  dup3\n  mstore\n    /* \"#utility.yul\":2373:2375   */\n  0x0d\n    /* \"#utility.yul\":2353:2371   */\n  swap1\n  dup3\n  add\n    /* \"#utility.yul\":2346:2376   */\n  mstore\n  shl(0x99, 0x34b73b30b634b21037bbb732b9)\n    /* \"#utility.yul\":2407:2409   */\n  0x40\n    /* \"#utility.yul\":2392:2410   */\n  dup3\n  add\n    /* \"#utility.yul\":2385:2428   */\n  mstore\n    /* \"#utility.yul\":2460:2462   */\n  0x60\n    /* \"#utility.yul\":2445:2463   */\n  add\n  swap1\n    /* \"#utility.yul\":2306:2469   */\n  jump\t// out\n    /* \"#utility.yul\":2474:2823   */\ntag_12:\n    /* \"#utility.yul\":2676:2678   */\n  0x20\n    /* \"#utility.yul\":2658:2679   */\n  dup1\n  dup3\n  mstore\n    /* \"#utility.yul\":2715:2717   */\n  0x19\n    /* \"#utility.yul\":2695:2713   */\n  swap1\n  dup3\n  add\n    /* \"#utility.yul\":2688:2718   */\n  mstore\n    /* \"#utility.yul\":2754:2781   */\n  0x696e76616c696564207265717569726564206e756d6265722000000000000000\n    /* \"#utility.yul\":2749:2751   */\n  0x40\n    /* \"#utility.yul\":2734:2752   */\n  dup3\n  add\n    /* \"#utility.yul\":2727:2782   */\n  mstore\n    /* \"#utility.yul\":2814:2816   */\n  0x60\n    /* \"#utility.yul\":2799:2817   */\n  add\n  swap1\n    /* \"#utility.yul\":2648:2823   */\n  jump\t// out\n    /* \"#utility.yul\":2828:3064   */\ntag_25:\n  0x00\n  not(0x00)\n    /* \"#utility.yul\":2888:2905   */\n  dup3\n  eq\n    /* \"#utility.yul\":2885:2887   */\n  iszero\n  tag_50\n  jumpi\n  shl(0xe0, 0x4e487b71)\n    /* \"#utility.yul\":2928:2961   */\n  dup2\n  mstore\n    /* \"#utility.yul\":2984:2988   */\n  0x11\n    /* \"#utility.yul\":2981:2982   */\n  0x04\n    /* \"#utility.yul\":2974:2989   */\n  mstore\n    /* \"#utility.yul\":3014:3018   */\n  0x24\n    /* \"#utility.yul\":2935:2938   */\n  dup2\n    /* \"#utility.yul\":3002:3019   */\n  revert\n    /* \"#utility.yul\":2885:2887   */\ntag_50:\n  pop\n    /* \"#utility.yul\":3056:3057   */\n  0x01\n    /* \"#utility.yul\":3045:3058   */\n  add\n  swap1\n    /* \"#utility.yul\":2875:3064   */\n  jump\t// out\n    /* \"#utility.yul\":3069:3196   */\ntag_37:\n    /* \"#utility.yul\":3130:3140   */\n  0x4e487b71\n    /* \"#utility.yul\":3125:3128   */\n  0xe0\n    /* \"#utility.yul\":3121:3141   */\n  shl\n    /* \"#utility.yul\":3118:3119   */\n  0x00\n    /* \"#utility.yul\":3111:3142   */\n  mstore\n    /* \"#utility.yul\":3161:3165   */\n  0x41\n    /* \"#utility.yul\":3158:3159   */\n  0x04\n    /* \"#utility.yul\":3151:3166   */\n  mstore\n    /* \"#utility.yul\":3185:3189   */\n  0x24\n    /* \"#utility.yul\":3182:3183   */\n  0x00\n    /* \"#utility.yul\":3175:3190   */\n  revert\n    /* \"#utility.yul\":3101:3196   */\ntag_27:\n    /* \"contracts/MultiSigWallet.sol\":632:6731  contract MultiSigWallet {\r... */\n  dataSize(sub_0)\n  dup1\n  dataOffset(sub_0)\n  0x00\n  codecopy\n  0x00\n  return\nstop\n\nsub_0: assembly {\n        /* \"contracts/MultiSigWallet.sol\":632:6731  contract MultiSigWallet {\r... */\n      mstore(0x40, 0x80)\n      jumpi(tag_1, lt(calldatasize, 0x04))\n      shr(0xe0, calldataload(0x00))\n      dup1\n      0x9ace38c2\n      gt\n      tag_13\n      jumpi\n      dup1\n      0x9ace38c2\n      eq\n      tag_8\n      jumpi\n      dup1\n      0xb759f954\n      eq\n      tag_9\n      jumpi\n      dup1\n      0xdc8452cd\n      eq\n      tag_10\n      jumpi\n      dup1\n      0xf55332ab\n      eq\n      tag_11\n      jumpi\n      dup1\n      0xfe0d94c1\n      eq\n      tag_12\n      jumpi\n      jump(tag_2)\n    tag_13:\n      dup1\n      0x025e7c27\n      eq\n      tag_3\n      jumpi\n      dup1\n      0x14de327f\n      eq\n      tag_4\n      jumpi\n      dup1\n      0x20c5429b\n      eq\n      tag_5\n      jumpi\n      dup1\n      0x2f54bf6e\n      eq\n      tag_6\n      jumpi\n      dup1\n      0x8253951a\n      eq\n      tag_7\n      jumpi\n      jump(tag_2)\n    tag_1:\n      jumpi(tag_2, calldatasize)\n        /* \"contracts/MultiSigWallet.sol\":4689:4699  msg.sender */\n      caller\n      sub(shl(0xa0, 0x01), 0x01)\n        /* \"contracts/MultiSigWallet.sol\":4681:4711  Deposit(msg.sender, msg.value) */\n      and\n      0xe1fffcc4923d04b559f4d29a8bfc6cda04eb5b0d3c460751c2402c5c5cc9109c\n        /* \"contracts/MultiSigWallet.sol\":4701:4710  msg.value */\n      callvalue\n        /* \"contracts/MultiSigWallet.sol\":4681:4711  Deposit(msg.sender, msg.value) */\n      mload(0x40)\n      tag_16\n      swap2\n      swap1\n      tag_17\n      jump\t// in\n    tag_16:\n      mload(0x40)\n      dup1\n      swap2\n      sub\n      swap1\n      log2\n        /* \"contracts/MultiSigWallet.sol\":632:6731  contract MultiSigWallet {\r... */\n      stop\n    tag_2:\n      0x00\n      dup1\n      revert\n        /* \"contracts/MultiSigWallet.sol\":2687:2710  address[] public owners */\n    tag_3:\n      callvalue\n      dup1\n      iszero\n      tag_18\n      jumpi\n      0x00\n      dup1\n      revert\n    tag_18:\n      pop\n      tag_19\n      tag_20\n      calldatasize\n      0x04\n      tag_21\n      jump\t// in\n    tag_20:\n      tag_22\n      jump\t// in\n    tag_19:\n      mload(0x40)\n      tag_23\n      swap2\n      swap1\n      tag_24\n      jump\t// in\n    tag_23:\n      mload(0x40)\n      dup1\n      swap2\n      sub\n      swap1\n      return\n        /* \"contracts/MultiSigWallet.sol\":4751:5047  function submit(\r... */\n    tag_4:\n      callvalue\n      dup1\n      iszero\n      tag_25\n      jumpi\n      0x00\n      dup1\n      revert\n    tag_25:\n      pop\n      tag_26\n      tag_27\n      calldatasize\n      0x04\n      tag_28\n      jump\t// in\n    tag_27:\n      tag_29\n      jump\t// in\n    tag_26:\n      stop\n        /* \"contracts/MultiSigWallet.sol\":6465:6728  function revoke(\r... */\n    tag_5:\n      callvalue\n      dup1\n      iszero\n      tag_30\n      jumpi\n      0x00\n      dup1\n      revert\n    tag_30:\n      pop\n      tag_26\n      tag_32\n      calldatasize\n      0x04\n      tag_21\n      jump\t// in\n    tag_32:\n      tag_33\n      jump\t// in\n        /* \"contracts/MultiSigWallet.sol\":2777:2816  mapping(address => bool) public isOwner */\n    tag_6:\n      callvalue\n      dup1\n      iszero\n      tag_34\n      jumpi\n      0x00\n      dup1\n      revert\n    tag_34:\n      pop\n      tag_35\n      tag_36\n      calldatasize\n      0x04\n      tag_37\n      jump\t// in\n    tag_36:\n      tag_38\n      jump\t// in\n    tag_35:\n      mload(0x40)\n      tag_23\n      swap2\n      swap1\n      tag_40\n      jump\t// in\n        /* \"contracts/MultiSigWallet.sol\":3067:3127  mapping(uint256 => mapping(address => bool)) public approved */\n    tag_7:\n      callvalue\n      dup1\n      iszero\n      tag_41\n      jumpi\n      0x00\n      dup1\n      revert\n    tag_41:\n      pop\n      tag_35\n      tag_43\n      calldatasize\n      0x04\n      tag_44\n      jump\t// in\n    tag_43:\n      tag_45\n      jump\t// in\n        /* \"contracts/MultiSigWallet.sol\":2952:2985  Transaction[] public transactions */\n    tag_8:\n      callvalue\n      dup1\n      iszero\n      tag_47\n      jumpi\n      0x00\n      dup1\n      revert\n    tag_47:\n      pop\n      tag_48\n      tag_49\n      calldatasize\n      0x04\n      tag_21\n      jump\t// in\n    tag_49:\n      tag_50\n      jump\t// in\n    tag_48:\n      mload(0x40)\n      tag_23\n      swap5\n      swap4\n      swap3\n      swap2\n      swap1\n      tag_52\n      jump\t// in\n        /* \"contracts/MultiSigWallet.sol\":5232:5448  function approve(\r... */\n    tag_9:\n      callvalue\n      dup1\n      iszero\n      tag_53\n      jumpi\n      0x00\n      dup1\n      revert\n    tag_53:\n      pop\n      tag_26\n      tag_55\n      calldatasize\n      0x04\n      tag_21\n      jump\t// in\n    tag_55:\n      tag_56\n      jump\t// in\n        /* \"contracts/MultiSigWallet.sol\":2877:2900  uint256 public required */\n    tag_10:\n      callvalue\n      dup1\n      iszero\n      tag_57\n      jumpi\n      0x00\n      dup1\n      revert\n    tag_57:\n      pop\n      tag_58\n      tag_59\n      jump\t// in\n    tag_58:\n      mload(0x40)\n      tag_23\n      swap2\n      swap1\n      tag_17\n      jump\t// in\n        /* \"contracts/MultiSigWallet.sol\":5720:5921  function call(address   _to) external payable  {\r... */\n    tag_11:\n      tag_26\n      tag_62\n      calldatasize\n      0x04\n      tag_37\n      jump\t// in\n    tag_62:\n      tag_63\n      jump\t// in\n        /* \"contracts/MultiSigWallet.sol\":5961:6425  function execute(\r... */\n    tag_12:\n      callvalue\n      dup1\n      iszero\n      tag_64\n      jumpi\n      0x00\n      dup1\n      revert\n    tag_64:\n      pop\n      tag_26\n      tag_66\n      calldatasize\n      0x04\n      tag_21\n      jump\t// in\n    tag_66:\n      tag_67\n      jump\t// in\n        /* \"contracts/MultiSigWallet.sol\":2687:2710  address[] public owners */\n    tag_22:\n      0x00\n      dup2\n      dup2\n      sload\n      dup2\n      lt\n      tag_68\n      jumpi\n      0x00\n      dup1\n      revert\n    tag_68:\n      0x00\n      swap2\n      dup3\n      mstore\n      0x20\n      swap1\n      swap2\n      keccak256\n      add\n      sload\n      sub(shl(0xa0, 0x01), 0x01)\n      and\n      swap1\n      pop\n      dup2\n      jump\t// out\n        /* \"contracts/MultiSigWallet.sol\":4751:5047  function submit(\r... */\n    tag_29:\n        /* \"contracts/MultiSigWallet.sol\":3184:3194  msg.sender */\n      caller\n        /* \"contracts/MultiSigWallet.sol\":3176:3195  isOwner[msg.sender] */\n      0x00\n      swap1\n      dup2\n      mstore\n        /* \"contracts/MultiSigWallet.sol\":3176:3183  isOwner */\n      0x01\n        /* \"contracts/MultiSigWallet.sol\":3176:3195  isOwner[msg.sender] */\n      0x20\n      mstore\n      0x40\n      swap1\n      keccak256\n      sload\n      0xff\n      and\n        /* \"contracts/MultiSigWallet.sol\":3168:3209  require(isOwner[msg.sender], \"not owner\") */\n      tag_71\n      jumpi\n      mload(0x40)\n      shl(0xe5, 0x461bcd)\n      dup2\n      mstore\n      0x04\n      add\n      tag_72\n      swap1\n      tag_73\n      jump\t// in\n    tag_72:\n      mload(0x40)\n      dup1\n      swap2\n      sub\n      swap1\n      revert\n    tag_71:\n        /* \"contracts/MultiSigWallet.sol\":4882:4894  transactions */\n      0x03\n        /* \"contracts/MultiSigWallet.sol\":4914:4981  Transaction({to: _to, value: _value, data: _data, executed: false}) */\n      mload(0x40)\n      dup1\n      0x80\n      add\n      0x40\n      mstore\n      dup1\n        /* \"contracts/MultiSigWallet.sol\":4931:4934  _to */\n      dup7\n      sub(shl(0xa0, 0x01), 0x01)\n        /* \"contracts/MultiSigWallet.sol\":4914:4981  Transaction({to: _to, value: _value, data: _data, executed: false}) */\n      and\n      dup2\n      mstore\n      0x20\n      add\n        /* \"contracts/MultiSigWallet.sol\":4943:4949  _value */\n      dup6\n        /* \"contracts/MultiSigWallet.sol\":4914:4981  Transaction({to: _to, value: _value, data: _data, executed: false}) */\n      dup2\n      mstore\n      0x20\n      add\n        /* \"contracts/MultiSigWallet.sol\":4957:4962  _data */\n      dup5\n      dup5\n        /* \"contracts/MultiSigWallet.sol\":4914:4981  Transaction({to: _to, value: _value, data: _data, executed: false}) */\n      dup1\n      dup1\n      0x1f\n      add\n      0x20\n      dup1\n      swap2\n      div\n      mul\n      0x20\n      add\n      mload(0x40)\n      swap1\n      dup2\n      add\n      0x40\n      mstore\n      dup1\n      swap4\n      swap3\n      swap2\n      swap1\n      dup2\n      dup2\n      mstore\n      0x20\n      add\n      dup4\n      dup4\n      dup1\n      dup3\n      dup5\n      calldatacopy\n      0x00\n      swap3\n      add\n      dup3\n      swap1\n      mstore\n      pop\n      swap4\n      dup6\n      mstore\n      pop\n      pop\n      pop\n      0x20\n      swap2\n      dup3\n      add\n      dup2\n      swap1\n      mstore\n        /* \"contracts/MultiSigWallet.sol\":4882:4992  transactions.push(\r... */\n      dup4\n      sload\n        /* \"contracts/MultiSigWallet.sol\":4914:4981  Transaction({to: _to, value: _value, data: _data, executed: false}) */\n      0x01\n        /* \"contracts/MultiSigWallet.sol\":4882:4992  transactions.push(\r... */\n      dup1\n      dup3\n      add\n      dup7\n      sstore\n      swap5\n      dup3\n      mstore\n      swap1\n      dup3\n      swap1\n      keccak256\n      dup4\n      mload\n      0x04\n      swap1\n      swap3\n      mul\n      add\n      dup1\n      sload\n      not(sub(shl(0xa0, 0x01), 0x01))\n      and\n      sub(shl(0xa0, 0x01), 0x01)\n      swap1\n      swap3\n      and\n      swap2\n      swap1\n      swap2\n      or\n      dup2\n      sstore\n      dup3\n      dup3\n      add\n      mload\n      swap4\n      dup2\n      add\n      swap4\n      swap1\n      swap4\n      sstore\n      0x40\n      dup3\n      add\n      mload\n      dup1\n      mload\n      swap3\n      swap4\n      swap3\n      tag_76\n      swap3\n      0x02\n      dup6\n      add\n      swap3\n      add\n      swap1\n      tag_77\n      jump\t// in\n    tag_76:\n      pop\n      0x60\n      swap2\n      swap1\n      swap2\n      add\n      mload\n      0x03\n      swap2\n      dup3\n      add\n      dup1\n      sload\n      not(0xff)\n      and\n      swap2\n      iszero\n      iszero\n      swap2\n      swap1\n      swap2\n      or\n      swap1\n      sstore\n        /* \"contracts/MultiSigWallet.sol\":5015:5034  transactions.length */\n      sload\n        /* \"contracts/MultiSigWallet.sol\":5015:5038  transactions.length - 1 */\n      tag_78\n      swap1\n      0x01\n      swap1\n      tag_79\n      jump\t// in\n    tag_78:\n        /* \"contracts/MultiSigWallet.sol\":5008:5039  Submit(transactions.length - 1) */\n      mload(0x40)\n      0x08324b3d745b914e3abd4ffbfead91e3b78391a98c173202129215ab933adfbe\n      swap1\n      0x00\n      swap1\n      log2\n        /* \"contracts/MultiSigWallet.sol\":4751:5047  function submit(\r... */\n      pop\n      pop\n      pop\n      pop\n      jump\t// out\n        /* \"contracts/MultiSigWallet.sol\":6465:6728  function revoke(\r... */\n    tag_33:\n        /* \"contracts/MultiSigWallet.sol\":3184:3194  msg.sender */\n      caller\n        /* \"contracts/MultiSigWallet.sol\":3176:3195  isOwner[msg.sender] */\n      0x00\n      swap1\n      dup2\n      mstore\n        /* \"contracts/MultiSigWallet.sol\":3176:3183  isOwner */\n      0x01\n        /* \"contracts/MultiSigWallet.sol\":3176:3195  isOwner[msg.sender] */\n      0x20\n      mstore\n      0x40\n      swap1\n      keccak256\n      sload\n      0xff\n      and\n        /* \"contracts/MultiSigWallet.sol\":3168:3209  require(isOwner[msg.sender], \"not owner\") */\n      tag_81\n      jumpi\n      mload(0x40)\n      shl(0xe5, 0x461bcd)\n      dup2\n      mstore\n      0x04\n      add\n      tag_72\n      swap1\n      tag_73\n      jump\t// in\n    tag_81:\n        /* \"contracts/MultiSigWallet.sol\":3323:3335  transactions */\n      0x03\n        /* \"contracts/MultiSigWallet.sol\":3323:3342  transactions.length */\n      sload\n        /* \"contracts/MultiSigWallet.sol\":6540:6545  _txId */\n      dup2\n      swap1\n        /* \"contracts/MultiSigWallet.sol\":3315:3342  _txId < transactions.length */\n      dup2\n      lt\n        /* \"contracts/MultiSigWallet.sol\":3307:3364  require(_txId < transactions.length, \"tx does not exist\") */\n      tag_84\n      jumpi\n      mload(0x40)\n      shl(0xe5, 0x461bcd)\n      dup2\n      mstore\n      0x04\n      add\n      tag_72\n      swap1\n      tag_86\n      jump\t// in\n    tag_84:\n        /* \"contracts/MultiSigWallet.sol\":6559:6564  _txId */\n      dup2\n        /* \"contracts/MultiSigWallet.sol\":3619:3631  transactions */\n      0x03\n        /* \"contracts/MultiSigWallet.sol\":3632:3637  _txId */\n      dup2\n        /* \"contracts/MultiSigWallet.sol\":3619:3638  transactions[_txId] */\n      dup2\n      sload\n      dup2\n      lt\n      tag_88\n      jumpi\n      mstore(0x00, shl(0xe0, 0x4e487b71))\n      mstore(0x04, 0x32)\n      revert(0x00, 0x24)\n    tag_88:\n      0x00\n      swap2\n      dup3\n      mstore\n      0x20\n      swap1\n      swap2\n      keccak256\n        /* \"contracts/MultiSigWallet.sol\":3619:3647  transactions[_txId].executed */\n      0x03\n        /* \"contracts/MultiSigWallet.sol\":3619:3638  transactions[_txId] */\n      0x04\n      swap1\n      swap3\n      mul\n      add\n        /* \"contracts/MultiSigWallet.sol\":3619:3647  transactions[_txId].executed */\n      add\n      sload\n      0xff\n      and\n        /* \"contracts/MultiSigWallet.sol\":3618:3647  !transactions[_txId].executed */\n      iszero\n        /* \"contracts/MultiSigWallet.sol\":3610:3671  require(!transactions[_txId].executed, \"tx already executed\") */\n      tag_90\n      jumpi\n      mload(0x40)\n      shl(0xe5, 0x461bcd)\n      dup2\n      mstore\n      0x04\n      add\n      tag_72\n      swap1\n      tag_92\n      jump\t// in\n    tag_90:\n        /* \"contracts/MultiSigWallet.sol\":6585:6600  approved[_txId] */\n      0x00\n      dup4\n      dup2\n      mstore\n        /* \"contracts/MultiSigWallet.sol\":6585:6593  approved */\n      0x04\n        /* \"contracts/MultiSigWallet.sol\":6585:6600  approved[_txId] */\n      0x20\n      swap1\n      dup2\n      mstore\n      0x40\n      dup1\n      dup4\n      keccak256\n        /* \"contracts/MultiSigWallet.sol\":6601:6611  msg.sender */\n      caller\n        /* \"contracts/MultiSigWallet.sol\":6585:6612  approved[_txId][msg.sender] */\n      dup5\n      mstore\n      swap1\n      swap2\n      mstore\n      swap1\n      keccak256\n      sload\n      0xff\n      and\n        /* \"contracts/MultiSigWallet.sol\":6577:6633  require(approved[_txId][msg.sender], \"tx not approved \") */\n      tag_94\n      jumpi\n      mload(0x40)\n      shl(0xe5, 0x461bcd)\n      dup2\n      mstore\n      0x04\n      add\n      tag_72\n      swap1\n      tag_96\n      jump\t// in\n    tag_94:\n        /* \"contracts/MultiSigWallet.sol\":6674:6679  false */\n      0x00\n        /* \"contracts/MultiSigWallet.sol\":6644:6659  approved[_txId] */\n      dup4\n      dup2\n      mstore\n        /* \"contracts/MultiSigWallet.sol\":6644:6652  approved */\n      0x04\n        /* \"contracts/MultiSigWallet.sol\":6644:6659  approved[_txId] */\n      0x20\n      swap1\n      dup2\n      mstore\n      0x40\n      dup1\n      dup4\n      keccak256\n        /* \"contracts/MultiSigWallet.sol\":6660:6670  msg.sender */\n      caller\n        /* \"contracts/MultiSigWallet.sol\":6644:6671  approved[_txId][msg.sender] */\n      dup1\n      dup6\n      mstore\n      swap3\n      mstore\n      dup1\n      dup4\n      keccak256\n        /* \"contracts/MultiSigWallet.sol\":6644:6679  approved[_txId][msg.sender] = false */\n      dup1\n      sload\n      not(0xff)\n      and\n      swap1\n      sstore\n        /* \"contracts/MultiSigWallet.sol\":6695:6720  Revoke(msg.sender, _txId) */\n      mload\n        /* \"contracts/MultiSigWallet.sol\":6653:6658  _txId */\n      dup6\n      swap3\n        /* \"contracts/MultiSigWallet.sol\":6695:6720  Revoke(msg.sender, _txId) */\n      0xec9ab91322523c899ede7830ec9bfc992b5981cdcc27b91162fb23de5791117b\n      swap2\n      log3\n        /* \"contracts/MultiSigWallet.sol\":3375:3376  _ */\n      pop\n        /* \"contracts/MultiSigWallet.sol\":3220:3221  _ */\n      pop\n        /* \"contracts/MultiSigWallet.sol\":6465:6728  function revoke(\r... */\n      pop\n      jump\t// out\n        /* \"contracts/MultiSigWallet.sol\":2777:2816  mapping(address => bool) public isOwner */\n    tag_38:\n      mstore(0x20, 0x01)\n      0x00\n      swap1\n      dup2\n      mstore\n      0x40\n      swap1\n      keccak256\n      sload\n      0xff\n      and\n      dup2\n      jump\t// out\n        /* \"contracts/MultiSigWallet.sol\":3067:3127  mapping(uint256 => mapping(address => bool)) public approved */\n    tag_45:\n      0x04\n      0x20\n      swap1\n      dup2\n      mstore\n      0x00\n      swap3\n      dup4\n      mstore\n      0x40\n      dup1\n      dup5\n      keccak256\n      swap1\n      swap2\n      mstore\n      swap1\n      dup3\n      mstore\n      swap1\n      keccak256\n      sload\n      0xff\n      and\n      dup2\n      jump\t// out\n        /* \"contracts/MultiSigWallet.sol\":2952:2985  Transaction[] public transactions */\n    tag_50:\n      0x03\n      dup2\n      dup2\n      sload\n      dup2\n      lt\n      tag_97\n      jumpi\n      0x00\n      dup1\n      revert\n    tag_97:\n      0x00\n      swap2\n      dup3\n      mstore\n      0x20\n      swap1\n      swap2\n      keccak256\n      0x04\n      swap1\n      swap2\n      mul\n      add\n      dup1\n      sload\n      0x01\n      dup3\n      add\n      sload\n      0x02\n      dup4\n      add\n      dup1\n      sload\n      sub(shl(0xa0, 0x01), 0x01)\n      swap1\n      swap4\n      and\n      swap5\n      pop\n      swap1\n      swap3\n      swap2\n      tag_99\n      swap1\n      tag_100\n      jump\t// in\n    tag_99:\n      dup1\n      0x1f\n      add\n      0x20\n      dup1\n      swap2\n      div\n      mul\n      0x20\n      add\n      mload(0x40)\n      swap1\n      dup2\n      add\n      0x40\n      mstore\n      dup1\n      swap3\n      swap2\n      swap1\n      dup2\n      dup2\n      mstore\n      0x20\n      add\n      dup3\n      dup1\n      sload\n      tag_101\n      swap1\n      tag_100\n      jump\t// in\n    tag_101:\n      dup1\n      iszero\n      tag_102\n      jumpi\n      dup1\n      0x1f\n      lt\n      tag_103\n      jumpi\n      0x0100\n      dup1\n      dup4\n      sload\n      div\n      mul\n      dup4\n      mstore\n      swap2\n      0x20\n      add\n      swap2\n      jump(tag_102)\n    tag_103:\n      dup3\n      add\n      swap2\n      swap1\n      0x00\n      mstore\n      keccak256(0x00, 0x20)\n      swap1\n    tag_104:\n      dup2\n      sload\n      dup2\n      mstore\n      swap1\n      0x01\n      add\n      swap1\n      0x20\n      add\n      dup1\n      dup4\n      gt\n      tag_104\n      jumpi\n      dup3\n      swap1\n      sub\n      0x1f\n      and\n      dup3\n      add\n      swap2\n    tag_102:\n      pop\n      pop\n      pop\n      0x03\n      swap1\n      swap4\n      add\n      sload\n      swap2\n      swap3\n      pop\n      pop\n      0xff\n      and\n      dup5\n      jump\t// out\n        /* \"contracts/MultiSigWallet.sol\":5232:5448  function approve(\r... */\n    tag_56:\n        /* \"contracts/MultiSigWallet.sol\":3184:3194  msg.sender */\n      caller\n        /* \"contracts/MultiSigWallet.sol\":3176:3195  isOwner[msg.sender] */\n      0x00\n      swap1\n      dup2\n      mstore\n        /* \"contracts/MultiSigWallet.sol\":3176:3183  isOwner */\n      0x01\n        /* \"contracts/MultiSigWallet.sol\":3176:3195  isOwner[msg.sender] */\n      0x20\n      mstore\n      0x40\n      swap1\n      keccak256\n      sload\n      0xff\n      and\n        /* \"contracts/MultiSigWallet.sol\":3168:3209  require(isOwner[msg.sender], \"not owner\") */\n      tag_106\n      jumpi\n      mload(0x40)\n      shl(0xe5, 0x461bcd)\n      dup2\n      mstore\n      0x04\n      add\n      tag_72\n      swap1\n      tag_73\n      jump\t// in\n    tag_106:\n        /* \"contracts/MultiSigWallet.sol\":3323:3335  transactions */\n      0x03\n        /* \"contracts/MultiSigWallet.sol\":3323:3342  transactions.length */\n      sload\n        /* \"contracts/MultiSigWallet.sol\":5308:5313  _txId */\n      dup2\n      swap1\n        /* \"contracts/MultiSigWallet.sol\":3315:3342  _txId < transactions.length */\n      dup2\n      lt\n        /* \"contracts/MultiSigWallet.sol\":3307:3364  require(_txId < transactions.length, \"tx does not exist\") */\n      tag_109\n      jumpi\n      mload(0x40)\n      shl(0xe5, 0x461bcd)\n      dup2\n      mstore\n      0x04\n      add\n      tag_72\n      swap1\n      tag_86\n      jump\t// in\n    tag_109:\n        /* \"contracts/MultiSigWallet.sol\":3466:3481  approved[_txId] */\n      0x00\n      dup3\n      dup2\n      mstore\n        /* \"contracts/MultiSigWallet.sol\":3466:3474  approved */\n      0x04\n        /* \"contracts/MultiSigWallet.sol\":3466:3481  approved[_txId] */\n      0x20\n      swap1\n      dup2\n      mstore\n      0x40\n      dup1\n      dup4\n      keccak256\n        /* \"contracts/MultiSigWallet.sol\":3482:3492  msg.sender */\n      caller\n        /* \"contracts/MultiSigWallet.sol\":3466:3493  approved[_txId][msg.sender] */\n      dup5\n      mstore\n      swap1\n      swap2\n      mstore\n      swap1\n      keccak256\n      sload\n        /* \"contracts/MultiSigWallet.sol\":5327:5332  _txId */\n      dup3\n      swap1\n        /* \"contracts/MultiSigWallet.sol\":3466:3493  approved[_txId][msg.sender] */\n      0xff\n      and\n        /* \"contracts/MultiSigWallet.sol\":3465:3493  !approved[_txId][msg.sender] */\n      iszero\n        /* \"contracts/MultiSigWallet.sol\":3457:3517  require(!approved[_txId][msg.sender], \"tx already approved\") */\n      tag_112\n      jumpi\n      mload(0x40)\n      shl(0xe5, 0x461bcd)\n      dup2\n      mstore\n      0x04\n      add\n      tag_72\n      swap1\n      tag_114\n      jump\t// in\n    tag_112:\n        /* \"contracts/MultiSigWallet.sol\":5346:5351  _txId */\n      dup3\n        /* \"contracts/MultiSigWallet.sol\":3619:3631  transactions */\n      0x03\n        /* \"contracts/MultiSigWallet.sol\":3632:3637  _txId */\n      dup2\n        /* \"contracts/MultiSigWallet.sol\":3619:3638  transactions[_txId] */\n      dup2\n      sload\n      dup2\n      lt\n      tag_116\n      jumpi\n      mstore(0x00, shl(0xe0, 0x4e487b71))\n      mstore(0x04, 0x32)\n      revert(0x00, 0x24)\n    tag_116:\n      0x00\n      swap2\n      dup3\n      mstore\n      0x20\n      swap1\n      swap2\n      keccak256\n        /* \"contracts/MultiSigWallet.sol\":3619:3647  transactions[_txId].executed */\n      0x03\n        /* \"contracts/MultiSigWallet.sol\":3619:3638  transactions[_txId] */\n      0x04\n      swap1\n      swap3\n      mul\n      add\n        /* \"contracts/MultiSigWallet.sol\":3619:3647  transactions[_txId].executed */\n      add\n      sload\n      0xff\n      and\n        /* \"contracts/MultiSigWallet.sol\":3618:3647  !transactions[_txId].executed */\n      iszero\n        /* \"contracts/MultiSigWallet.sol\":3610:3671  require(!transactions[_txId].executed, \"tx already executed\") */\n      tag_118\n      jumpi\n      mload(0x40)\n      shl(0xe5, 0x461bcd)\n      dup2\n      mstore\n      0x04\n      add\n      tag_72\n      swap1\n      tag_92\n      jump\t// in\n    tag_118:\n        /* \"contracts/MultiSigWallet.sol\":5364:5379  approved[_txId] */\n      0x00\n      dup5\n      dup2\n      mstore\n        /* \"contracts/MultiSigWallet.sol\":5364:5372  approved */\n      0x04\n        /* \"contracts/MultiSigWallet.sol\":5364:5379  approved[_txId] */\n      0x20\n      swap1\n      dup2\n      mstore\n      0x40\n      dup1\n      dup4\n      keccak256\n        /* \"contracts/MultiSigWallet.sol\":5380:5390  msg.sender */\n      caller\n        /* \"contracts/MultiSigWallet.sol\":5364:5391  approved[_txId][msg.sender] */\n      dup1\n      dup6\n      mstore\n      swap3\n      mstore\n      dup1\n      dup4\n      keccak256\n        /* \"contracts/MultiSigWallet.sol\":5364:5398  approved[_txId][msg.sender] = true */\n      dup1\n      sload\n      not(0xff)\n      and\n        /* \"contracts/MultiSigWallet.sol\":5394:5398  true */\n      0x01\n        /* \"contracts/MultiSigWallet.sol\":5364:5398  approved[_txId][msg.sender] = true */\n      or\n      swap1\n      sstore\n        /* \"contracts/MultiSigWallet.sol\":5414:5440  Approve(msg.sender, _txId) */\n      mload\n        /* \"contracts/MultiSigWallet.sol\":5373:5378  _txId */\n      dup7\n      swap3\n        /* \"contracts/MultiSigWallet.sol\":5414:5440  Approve(msg.sender, _txId) */\n      0x90ec57f18fa7b15c6b8d5e4d1deb90796c74b2ff23d4d0cecad0cb42a96b3128\n      swap2\n      log3\n        /* \"contracts/MultiSigWallet.sol\":3528:3529  _ */\n      pop\n        /* \"contracts/MultiSigWallet.sol\":3375:3376  _ */\n      pop\n        /* \"contracts/MultiSigWallet.sol\":3220:3221  _ */\n      pop\n        /* \"contracts/MultiSigWallet.sol\":5232:5448  function approve(\r... */\n      pop\n      jump\t// out\n        /* \"contracts/MultiSigWallet.sol\":2877:2900  uint256 public required */\n    tag_59:\n      sload(0x02)\n      dup2\n      jump\t// out\n        /* \"contracts/MultiSigWallet.sol\":5720:5921  function call(address   _to) external payable  {\r... */\n    tag_63:\n        /* \"contracts/MultiSigWallet.sol\":5779:5793  bool isSuccess */\n      0x00\n        /* \"contracts/MultiSigWallet.sol\":5825:5828  _to */\n      dup2\n      sub(shl(0xa0, 0x01), 0x01)\n        /* \"contracts/MultiSigWallet.sol\":5817:5834  payable(_to).call */\n      and\n        /* \"contracts/MultiSigWallet.sol\":5842:5851  msg.value */\n      callvalue\n        /* \"contracts/MultiSigWallet.sol\":5817:5856  payable(_to).call{value: msg.value}(\"\") */\n      mload(0x40)\n      tag_122\n      swap1\n      tag_123\n      jump\t// in\n    tag_122:\n      0x00\n      mload(0x40)\n      dup1\n      dup4\n      sub\n      dup2\n      dup6\n      dup8\n      gas\n      call\n      swap3\n      pop\n      pop\n      pop\n      returndatasize\n      dup1\n      0x00\n      dup2\n      eq\n      tag_126\n      jumpi\n      mload(0x40)\n      swap2\n      pop\n      and(add(returndatasize, 0x3f), not(0x1f))\n      dup3\n      add\n      0x40\n      mstore\n      returndatasize\n      dup3\n      mstore\n      returndatasize\n      0x00\n      0x20\n      dup5\n      add\n      returndatacopy\n      jump(tag_125)\n    tag_126:\n      0x60\n      swap2\n      pop\n    tag_125:\n      pop\n        /* \"contracts/MultiSigWallet.sol\":5778:5856  (bool isSuccess, /* memory data */ ) = payable(_to).call{value: msg.value}(\"\") */\n      pop\n      swap1\n      pop\n        /* \"contracts/MultiSigWallet.sol\":5875:5884  isSuccess */\n      dup1\n        /* \"contracts/MultiSigWallet.sol\":5867:5913  require(isSuccess, \"Failure! Ether not send.\") */\n      tag_127\n      jumpi\n      mload(0x40)\n      shl(0xe5, 0x461bcd)\n      dup2\n      mstore\n      0x04\n      add\n      tag_72\n      swap1\n      tag_129\n      jump\t// in\n    tag_127:\n        /* \"contracts/MultiSigWallet.sol\":5720:5921  function call(address   _to) external payable  {\r... */\n      pop\n      pop\n      jump\t// out\n        /* \"contracts/MultiSigWallet.sol\":5961:6425  function execute(\r... */\n    tag_67:\n        /* \"contracts/MultiSigWallet.sol\":3323:3335  transactions */\n      0x03\n        /* \"contracts/MultiSigWallet.sol\":3323:3342  transactions.length */\n      sload\n        /* \"contracts/MultiSigWallet.sol\":6027:6032  _txId */\n      dup2\n      swap1\n        /* \"contracts/MultiSigWallet.sol\":3315:3342  _txId < transactions.length */\n      dup2\n      lt\n        /* \"contracts/MultiSigWallet.sol\":3307:3364  require(_txId < transactions.length, \"tx does not exist\") */\n      tag_131\n      jumpi\n      mload(0x40)\n      shl(0xe5, 0x461bcd)\n      dup2\n      mstore\n      0x04\n      add\n      tag_72\n      swap1\n      tag_86\n      jump\t// in\n    tag_131:\n        /* \"contracts/MultiSigWallet.sol\":6046:6051  _txId */\n      dup2\n        /* \"contracts/MultiSigWallet.sol\":3619:3631  transactions */\n      0x03\n        /* \"contracts/MultiSigWallet.sol\":3632:3637  _txId */\n      dup2\n        /* \"contracts/MultiSigWallet.sol\":3619:3638  transactions[_txId] */\n      dup2\n      sload\n      dup2\n      lt\n      tag_134\n      jumpi\n      mstore(0x00, shl(0xe0, 0x4e487b71))\n      mstore(0x04, 0x32)\n      revert(0x00, 0x24)\n    tag_134:\n      0x00\n      swap2\n      dup3\n      mstore\n      0x20\n      swap1\n      swap2\n      keccak256\n        /* \"contracts/MultiSigWallet.sol\":3619:3647  transactions[_txId].executed */\n      0x03\n        /* \"contracts/MultiSigWallet.sol\":3619:3638  transactions[_txId] */\n      0x04\n      swap1\n      swap3\n      mul\n      add\n        /* \"contracts/MultiSigWallet.sol\":3619:3647  transactions[_txId].executed */\n      add\n      sload\n      0xff\n      and\n        /* \"contracts/MultiSigWallet.sol\":3618:3647  !transactions[_txId].executed */\n      iszero\n        /* \"contracts/MultiSigWallet.sol\":3610:3671  require(!transactions[_txId].executed, \"tx already executed\") */\n      tag_136\n      jumpi\n      mload(0x40)\n      shl(0xe5, 0x461bcd)\n      dup2\n      mstore\n      0x04\n      add\n      tag_72\n      swap1\n      tag_92\n      jump\t// in\n    tag_136:\n        /* \"contracts/MultiSigWallet.sol\":6100:6108  required */\n      sload(0x02)\n        /* \"contracts/MultiSigWallet.sol\":6072:6096  _getApprovalCount(_txId) */\n      tag_139\n        /* \"contracts/MultiSigWallet.sol\":6090:6095  _txId */\n      dup5\n        /* \"contracts/MultiSigWallet.sol\":6072:6089  _getApprovalCount */\n      tag_140\n        /* \"contracts/MultiSigWallet.sol\":6072:6096  _getApprovalCount(_txId) */\n      jump\t// in\n    tag_139:\n        /* \"contracts/MultiSigWallet.sol\":6072:6108  _getApprovalCount(_txId) >= required */\n      lt\n      iszero\n        /* \"contracts/MultiSigWallet.sol\":6064:6133  require(_getApprovalCount(_txId) >= required, \"approvals < required\") */\n      tag_141\n      jumpi\n      mload(0x40)\n      shl(0xe5, 0x461bcd)\n      dup2\n      mstore\n      0x04\n      add\n      tag_72\n      swap1\n      tag_143\n      jump\t// in\n    tag_141:\n        /* \"contracts/MultiSigWallet.sol\":6144:6175  Transaction storage transaction */\n      0x00\n        /* \"contracts/MultiSigWallet.sol\":6178:6190  transactions */\n      0x03\n        /* \"contracts/MultiSigWallet.sol\":6191:6196  _txId */\n      dup5\n        /* \"contracts/MultiSigWallet.sol\":6178:6197  transactions[_txId] */\n      dup2\n      sload\n      dup2\n      lt\n      tag_144\n      jumpi\n      mstore(0x00, shl(0xe0, 0x4e487b71))\n      mstore(0x04, 0x32)\n      revert(0x00, 0x24)\n    tag_144:\n      0x00\n      swap2\n      dup3\n      mstore\n      0x20\n      dup3\n      keccak256\n        /* \"contracts/MultiSigWallet.sol\":6208:6228  transaction.executed */\n      0x03\n        /* \"contracts/MultiSigWallet.sol\":6178:6197  transactions[_txId] */\n      0x04\n      swap1\n      swap3\n      mul\n      add\n        /* \"contracts/MultiSigWallet.sol\":6208:6228  transaction.executed */\n      swap1\n      dup2\n      add\n        /* \"contracts/MultiSigWallet.sol\":6208:6235  transaction.executed = true */\n      dup1\n      sload\n      not(0xff)\n      and\n        /* \"contracts/MultiSigWallet.sol\":6231:6235  true */\n      0x01\n        /* \"contracts/MultiSigWallet.sol\":6208:6235  transaction.executed = true */\n      swap1\n      dup2\n      or\n      swap1\n      swap2\n      sstore\n        /* \"contracts/MultiSigWallet.sol\":6273:6287  transaction.to */\n      dup2\n      sload\n        /* \"contracts/MultiSigWallet.sol\":6301:6318  transaction.value */\n      swap1\n      dup3\n      add\n      sload\n        /* \"contracts/MultiSigWallet.sol\":6265:6347  payable(transaction.to).call{value: transaction.value}(\r... */\n      mload(0x40)\n        /* \"contracts/MultiSigWallet.sol\":6178:6197  transactions[_txId] */\n      swap3\n      swap5\n      pop\n      sub(shl(0xa0, 0x01), 0x01)\n        /* \"contracts/MultiSigWallet.sol\":6273:6287  transaction.to */\n      swap1\n      swap2\n      and\n      swap2\n        /* \"contracts/MultiSigWallet.sol\":6265:6347  payable(transaction.to).call{value: transaction.value}(\r... */\n      tag_146\n      swap1\n      tag_123\n      jump\t// in\n    tag_146:\n      0x00\n      mload(0x40)\n      dup1\n      dup4\n      sub\n      dup2\n      dup6\n      dup8\n      gas\n      call\n      swap3\n      pop\n      pop\n      pop\n      returndatasize\n      dup1\n      0x00\n      dup2\n      eq\n      tag_149\n      jumpi\n      mload(0x40)\n      swap2\n      pop\n      and(add(returndatasize, 0x3f), not(0x1f))\n      dup3\n      add\n      0x40\n      mstore\n      returndatasize\n      dup3\n      mstore\n      returndatasize\n      0x00\n      0x20\n      dup5\n      add\n      returndatacopy\n      jump(tag_148)\n    tag_149:\n      0x60\n      swap2\n      pop\n    tag_148:\n      pop\n        /* \"contracts/MultiSigWallet.sol\":6246:6347  (bool success, ) = payable(transaction.to).call{value: transaction.value}(\r... */\n      pop\n      swap1\n      pop\n        /* \"contracts/MultiSigWallet.sol\":6366:6373  success */\n      dup1\n        /* \"contracts/MultiSigWallet.sol\":6358:6387  require(success, \"tx failed\") */\n      tag_150\n      jumpi\n      mload(0x40)\n      shl(0xe5, 0x461bcd)\n      dup2\n      mstore\n      0x04\n      add\n      tag_72\n      swap1\n      tag_152\n      jump\t// in\n    tag_150:\n        /* \"contracts/MultiSigWallet.sol\":6403:6417  Execute(_txId) */\n      mload(0x40)\n        /* \"contracts/MultiSigWallet.sol\":6411:6416  _txId */\n      dup6\n      swap1\n        /* \"contracts/MultiSigWallet.sol\":6403:6417  Execute(_txId) */\n      0xddb556f1d2c1ec821e910b019d3685b229db152a0ecd517ca7e24b8bd7139289\n      swap1\n      0x00\n      swap1\n      log2\n        /* \"contracts/MultiSigWallet.sol\":3682:3683  _ */\n      pop\n      pop\n        /* \"contracts/MultiSigWallet.sol\":3375:3376  _ */\n      pop\n        /* \"contracts/MultiSigWallet.sol\":5961:6425  function execute(\r... */\n      pop\n      pop\n      jump\t// out\n        /* \"contracts/MultiSigWallet.sol\":5456:5712  function _getApprovalCount(\r... */\n    tag_140:\n        /* \"contracts/MultiSigWallet.sol\":5536:5549  uint256 count */\n      0x00\n        /* \"contracts/MultiSigWallet.sol\":5567:5576  uint256 i */\n      dup1\n        /* \"contracts/MultiSigWallet.sol\":5562:5705  for (uint256 i; i < owners.length; i++) {\r... */\n    tag_154:\n        /* \"contracts/MultiSigWallet.sol\":5582:5588  owners */\n      0x00\n        /* \"contracts/MultiSigWallet.sol\":5582:5595  owners.length */\n      sload\n        /* \"contracts/MultiSigWallet.sol\":5578:5595  i < owners.length */\n      dup2\n      lt\n        /* \"contracts/MultiSigWallet.sol\":5562:5705  for (uint256 i; i < owners.length; i++) {\r... */\n      iszero\n      tag_155\n      jumpi\n        /* \"contracts/MultiSigWallet.sol\":5621:5629  approved */\n      0x04\n        /* \"contracts/MultiSigWallet.sol\":5621:5636  approved[_txId] */\n      0x00\n        /* \"contracts/MultiSigWallet.sol\":5630:5635  _txId */\n      dup5\n        /* \"contracts/MultiSigWallet.sol\":5621:5636  approved[_txId] */\n      dup2\n      mstore\n      0x20\n      add\n      swap1\n      dup2\n      mstore\n      0x20\n      add\n      0x00\n      keccak256\n        /* \"contracts/MultiSigWallet.sol\":5621:5647  approved[_txId][owners[i]] */\n      0x00\n        /* \"contracts/MultiSigWallet.sol\":5637:5643  owners */\n      dup1\n        /* \"contracts/MultiSigWallet.sol\":5644:5645  i */\n      dup4\n        /* \"contracts/MultiSigWallet.sol\":5637:5646  owners[i] */\n      dup2\n      sload\n      dup2\n      lt\n      tag_157\n      jumpi\n      mstore(0x00, shl(0xe0, 0x4e487b71))\n      mstore(0x04, 0x32)\n      revert(0x00, 0x24)\n    tag_157:\n      0x00\n      swap2\n      dup3\n      mstore\n      0x20\n      dup1\n      dup4\n      keccak256\n      swap1\n      swap2\n      add\n      sload\n      sub(shl(0xa0, 0x01), 0x01)\n      and\n        /* \"contracts/MultiSigWallet.sol\":5621:5647  approved[_txId][owners[i]] */\n      dup4\n      mstore\n      dup3\n      add\n      swap3\n      swap1\n      swap3\n      mstore\n      0x40\n      add\n      swap1\n      keccak256\n      sload\n      0xff\n      and\n        /* \"contracts/MultiSigWallet.sol\":5617:5694  if (approved[_txId][owners[i]]) {\r... */\n      iszero\n      tag_159\n      jumpi\n        /* \"contracts/MultiSigWallet.sol\":5668:5678  count += 1 */\n      tag_160\n        /* \"contracts/MultiSigWallet.sol\":5677:5678  1 */\n      0x01\n        /* \"contracts/MultiSigWallet.sol\":5668:5678  count += 1 */\n      dup4\n      tag_161\n      jump\t// in\n    tag_160:\n      swap2\n      pop\n        /* \"contracts/MultiSigWallet.sol\":5617:5694  if (approved[_txId][owners[i]]) {\r... */\n    tag_159:\n        /* \"contracts/MultiSigWallet.sol\":5597:5600  i++ */\n      dup1\n      tag_162\n      dup2\n      tag_163\n      jump\t// in\n    tag_162:\n      swap2\n      pop\n      pop\n        /* \"contracts/MultiSigWallet.sol\":5562:5705  for (uint256 i; i < owners.length; i++) {\r... */\n      jump(tag_154)\n    tag_155:\n      pop\n        /* \"contracts/MultiSigWallet.sol\":5456:5712  function _getApprovalCount(\r... */\n      swap2\n      swap1\n      pop\n      jump\t// out\n    tag_77:\n      dup3\n      dup1\n      sload\n      tag_164\n      swap1\n      tag_100\n      jump\t// in\n    tag_164:\n      swap1\n      0x00\n      mstore\n      keccak256(0x00, 0x20)\n      swap1\n      0x1f\n      add\n      0x20\n      swap1\n      div\n      dup2\n      add\n      swap3\n      dup3\n      tag_166\n      jumpi\n      0x00\n      dup6\n      sstore\n      jump(tag_169)\n    tag_166:\n      dup3\n      0x1f\n      lt\n      tag_167\n      jumpi\n      dup1\n      mload\n      not(0xff)\n      and\n      dup4\n      dup1\n      add\n      or\n      dup6\n      sstore\n      jump(tag_169)\n    tag_167:\n      dup3\n      dup1\n      add\n      0x01\n      add\n      dup6\n      sstore\n      dup3\n      iszero\n      tag_169\n      jumpi\n      swap2\n      dup3\n      add\n    tag_168:\n      dup3\n      dup2\n      gt\n      iszero\n      tag_169\n      jumpi\n      dup3\n      mload\n      dup3\n      sstore\n      swap2\n      0x20\n      add\n      swap2\n      swap1\n      0x01\n      add\n      swap1\n      jump(tag_168)\n    tag_169:\n      pop\n      tag_170\n      swap3\n      swap2\n      pop\n      tag_171\n      jump\t// in\n    tag_170:\n      pop\n      swap1\n      jump\t// out\n    tag_171:\n    tag_172:\n      dup1\n      dup3\n      gt\n      iszero\n      tag_170\n      jumpi\n      0x00\n      dup2\n      sstore\n      0x01\n      add\n      jump(tag_172)\n        /* \"#utility.yul\":14:189   */\n    tag_175:\n        /* \"#utility.yul\":84:104   */\n      dup1\n      calldataload\n      sub(shl(0xa0, 0x01), 0x01)\n        /* \"#utility.yul\":133:164   */\n      dup2\n      and\n        /* \"#utility.yul\":123:165   */\n      dup2\n      eq\n        /* \"#utility.yul\":113:115   */\n      tag_177\n      jumpi\n        /* \"#utility.yul\":179:180   */\n      0x00\n        /* \"#utility.yul\":176:177   */\n      dup1\n        /* \"#utility.yul\":169:181   */\n      revert\n        /* \"#utility.yul\":113:115   */\n    tag_177:\n        /* \"#utility.yul\":65:189   */\n      swap2\n      swap1\n      pop\n      jump\t// out\n        /* \"#utility.yul\":194:392   */\n    tag_37:\n      0x00\n        /* \"#utility.yul\":306:308   */\n      0x20\n        /* \"#utility.yul\":294:303   */\n      dup3\n        /* \"#utility.yul\":285:292   */\n      dup5\n        /* \"#utility.yul\":281:304   */\n      sub\n        /* \"#utility.yul\":277:309   */\n      slt\n        /* \"#utility.yul\":274:276   */\n      iszero\n      tag_179\n      jumpi\n        /* \"#utility.yul\":327:333   */\n      dup1\n        /* \"#utility.yul\":319:325   */\n      dup2\n        /* \"#utility.yul\":312:334   */\n      revert\n        /* \"#utility.yul\":274:276   */\n    tag_179:\n        /* \"#utility.yul\":355:386   */\n      tag_180\n        /* \"#utility.yul\":376:385   */\n      dup3\n        /* \"#utility.yul\":355:386   */\n      tag_175\n      jump\t// in\n    tag_180:\n        /* \"#utility.yul\":345:386   */\n      swap4\n        /* \"#utility.yul\":264:392   */\n      swap3\n      pop\n      pop\n      pop\n      jump\t// out\n        /* \"#utility.yul\":397:1182   */\n    tag_28:\n      0x00\n      dup1\n      0x00\n      dup1\n        /* \"#utility.yul\":562:564   */\n      0x60\n        /* \"#utility.yul\":550:559   */\n      dup6\n        /* \"#utility.yul\":541:548   */\n      dup8\n        /* \"#utility.yul\":537:560   */\n      sub\n        /* \"#utility.yul\":533:565   */\n      slt\n        /* \"#utility.yul\":530:532   */\n      iszero\n      tag_182\n      jumpi\n        /* \"#utility.yul\":583:589   */\n      dup3\n        /* \"#utility.yul\":575:581   */\n      dup4\n        /* \"#utility.yul\":568:590   */\n      revert\n        /* \"#utility.yul\":530:532   */\n    tag_182:\n        /* \"#utility.yul\":611:642   */\n      tag_183\n        /* \"#utility.yul\":632:641   */\n      dup6\n        /* \"#utility.yul\":611:642   */\n      tag_175\n      jump\t// in\n    tag_183:\n        /* \"#utility.yul\":601:642   */\n      swap4\n      pop\n        /* \"#utility.yul\":689:691   */\n      0x20\n        /* \"#utility.yul\":678:687   */\n      dup6\n        /* \"#utility.yul\":674:692   */\n      add\n        /* \"#utility.yul\":661:693   */\n      calldataload\n        /* \"#utility.yul\":651:693   */\n      swap3\n      pop\n        /* \"#utility.yul\":744:746   */\n      0x40\n        /* \"#utility.yul\":733:742   */\n      dup6\n        /* \"#utility.yul\":729:747   */\n      add\n        /* \"#utility.yul\":716:748   */\n      calldataload\n        /* \"#utility.yul\":767:785   */\n      0xffffffffffffffff\n        /* \"#utility.yul\":808:810   */\n      dup1\n        /* \"#utility.yul\":800:806   */\n      dup3\n        /* \"#utility.yul\":797:811   */\n      gt\n        /* \"#utility.yul\":794:796   */\n      iszero\n      tag_184\n      jumpi\n        /* \"#utility.yul\":829:835   */\n      dup4\n        /* \"#utility.yul\":821:827   */\n      dup5\n        /* \"#utility.yul\":814:836   */\n      revert\n        /* \"#utility.yul\":794:796   */\n    tag_184:\n        /* \"#utility.yul\":872:878   */\n      dup2\n        /* \"#utility.yul\":861:870   */\n      dup8\n        /* \"#utility.yul\":857:879   */\n      add\n        /* \"#utility.yul\":847:879   */\n      swap2\n      pop\n        /* \"#utility.yul\":917:924   */\n      dup8\n        /* \"#utility.yul\":910:914   */\n      0x1f\n        /* \"#utility.yul\":906:908   */\n      dup4\n        /* \"#utility.yul\":902:915   */\n      add\n        /* \"#utility.yul\":898:925   */\n      slt\n        /* \"#utility.yul\":888:890   */\n      tag_185\n      jumpi\n        /* \"#utility.yul\":944:950   */\n      dup4\n        /* \"#utility.yul\":936:942   */\n      dup5\n        /* \"#utility.yul\":929:951   */\n      revert\n        /* \"#utility.yul\":888:890   */\n    tag_185:\n        /* \"#utility.yul\":989:991   */\n      dup2\n        /* \"#utility.yul\":976:992   */\n      calldataload\n        /* \"#utility.yul\":1015:1017   */\n      dup2\n        /* \"#utility.yul\":1007:1013   */\n      dup2\n        /* \"#utility.yul\":1004:1018   */\n      gt\n        /* \"#utility.yul\":1001:1003   */\n      iszero\n      tag_186\n      jumpi\n        /* \"#utility.yul\":1036:1042   */\n      dup5\n        /* \"#utility.yul\":1028:1034   */\n      dup6\n        /* \"#utility.yul\":1021:1043   */\n      revert\n        /* \"#utility.yul\":1001:1003   */\n    tag_186:\n        /* \"#utility.yul\":1086:1093   */\n      dup9\n        /* \"#utility.yul\":1081:1083   */\n      0x20\n        /* \"#utility.yul\":1072:1078   */\n      dup3\n        /* \"#utility.yul\":1068:1070   */\n      dup6\n        /* \"#utility.yul\":1064:1079   */\n      add\n        /* \"#utility.yul\":1060:1084   */\n      add\n        /* \"#utility.yul\":1057:1094   */\n      gt\n        /* \"#utility.yul\":1054:1056   */\n      iszero\n      tag_187\n      jumpi\n        /* \"#utility.yul\":1112:1118   */\n      dup5\n        /* \"#utility.yul\":1104:1110   */\n      dup6\n        /* \"#utility.yul\":1097:1119   */\n      revert\n        /* \"#utility.yul\":1054:1056   */\n    tag_187:\n        /* \"#utility.yul\":520:1182   */\n      swap6\n      swap9\n      swap5\n      swap8\n      pop\n      pop\n        /* \"#utility.yul\":1148:1150   */\n      0x20\n        /* \"#utility.yul\":1140:1151   */\n      add\n      swap5\n      pop\n      pop\n      pop\n        /* \"#utility.yul\":520:1182   */\n      jump\t// out\n        /* \"#utility.yul\":1187:1377   */\n    tag_21:\n      0x00\n        /* \"#utility.yul\":1299:1301   */\n      0x20\n        /* \"#utility.yul\":1287:1296   */\n      dup3\n        /* \"#utility.yul\":1278:1285   */\n      dup5\n        /* \"#utility.yul\":1274:1297   */\n      sub\n        /* \"#utility.yul\":1270:1302   */\n      slt\n        /* \"#utility.yul\":1267:1269   */\n      iszero\n      tag_189\n      jumpi\n        /* \"#utility.yul\":1320:1326   */\n      dup1\n        /* \"#utility.yul\":1312:1318   */\n      dup2\n        /* \"#utility.yul\":1305:1327   */\n      revert\n        /* \"#utility.yul\":1267:1269   */\n    tag_189:\n      pop\n        /* \"#utility.yul\":1348:1371   */\n      calldataload\n      swap2\n        /* \"#utility.yul\":1257:1377   */\n      swap1\n      pop\n      jump\t// out\n        /* \"#utility.yul\":1382:1648   */\n    tag_44:\n      0x00\n      dup1\n        /* \"#utility.yul\":1511:1513   */\n      0x40\n        /* \"#utility.yul\":1499:1508   */\n      dup4\n        /* \"#utility.yul\":1490:1497   */\n      dup6\n        /* \"#utility.yul\":1486:1509   */\n      sub\n        /* \"#utility.yul\":1482:1514   */\n      slt\n        /* \"#utility.yul\":1479:1481   */\n      iszero\n      tag_191\n      jumpi\n        /* \"#utility.yul\":1532:1538   */\n      dup2\n        /* \"#utility.yul\":1524:1530   */\n      dup3\n        /* \"#utility.yul\":1517:1539   */\n      revert\n        /* \"#utility.yul\":1479:1481   */\n    tag_191:\n        /* \"#utility.yul\":1573:1582   */\n      dup3\n        /* \"#utility.yul\":1560:1583   */\n      calldataload\n        /* \"#utility.yul\":1550:1583   */\n      swap2\n      pop\n        /* \"#utility.yul\":1602:1642   */\n      tag_192\n        /* \"#utility.yul\":1638:1640   */\n      0x20\n        /* \"#utility.yul\":1627:1636   */\n      dup5\n        /* \"#utility.yul\":1623:1641   */\n      add\n        /* \"#utility.yul\":1602:1642   */\n      tag_175\n      jump\t// in\n    tag_192:\n        /* \"#utility.yul\":1592:1642   */\n      swap1\n      pop\n        /* \"#utility.yul\":1469:1648   */\n      swap3\n      pop\n      swap3\n      swap1\n      pop\n      jump\t// out\n        /* \"#utility.yul\":1653:1746   */\n    tag_193:\n        /* \"#utility.yul\":1725:1738   */\n      iszero\n        /* \"#utility.yul\":1718:1739   */\n      iszero\n        /* \"#utility.yul\":1706:1740   */\n      swap1\n      mstore\n        /* \"#utility.yul\":1696:1746   */\n      jump\t// out\n        /* \"#utility.yul\":1751:1956   */\n    tag_123:\n        /* \"#utility.yul\":1951:1954   */\n      swap1\n        /* \"#utility.yul\":1942:1956   */\n      jump\t// out\n        /* \"#utility.yul\":1961:2164   */\n    tag_24:\n      sub(shl(0xa0, 0x01), 0x01)\n        /* \"#utility.yul\":2125:2157   */\n      swap2\n      swap1\n      swap2\n      and\n        /* \"#utility.yul\":2107:2158   */\n      dup2\n      mstore\n        /* \"#utility.yul\":2095:2097   */\n      0x20\n        /* \"#utility.yul\":2080:2098   */\n      add\n      swap1\n        /* \"#utility.yul\":2062:2164   */\n      jump\t// out\n        /* \"#utility.yul\":2169:3019   */\n    tag_52:\n      0x00\n        /* \"#utility.yul\":2423:2424   */\n      0x01\n        /* \"#utility.yul\":2419:2420   */\n      dup1\n        /* \"#utility.yul\":2414:2417   */\n      0xa0\n        /* \"#utility.yul\":2410:2421   */\n      shl\n        /* \"#utility.yul\":2406:2425   */\n      sub\n        /* \"#utility.yul\":2398:2404   */\n      dup7\n        /* \"#utility.yul\":2394:2426   */\n      and\n        /* \"#utility.yul\":2383:2392   */\n      dup3\n        /* \"#utility.yul\":2376:2427   */\n      mstore\n        /* \"#utility.yul\":2446:2448   */\n      0x20\n        /* \"#utility.yul\":2484:2490   */\n      dup6\n        /* \"#utility.yul\":2479:2481   */\n      dup2\n        /* \"#utility.yul\":2468:2477   */\n      dup5\n        /* \"#utility.yul\":2464:2482   */\n      add\n        /* \"#utility.yul\":2457:2491   */\n      mstore\n        /* \"#utility.yul\":2527:2530   */\n      0x80\n        /* \"#utility.yul\":2522:2524   */\n      0x40\n        /* \"#utility.yul\":2511:2520   */\n      dup5\n        /* \"#utility.yul\":2507:2525   */\n      add\n        /* \"#utility.yul\":2500:2531   */\n      mstore\n        /* \"#utility.yul\":2560:2566   */\n      dup5\n        /* \"#utility.yul\":2554:2567   */\n      mload\n        /* \"#utility.yul\":2604:2610   */\n      dup1\n        /* \"#utility.yul\":2598:2601   */\n      0x80\n        /* \"#utility.yul\":2587:2596   */\n      dup6\n        /* \"#utility.yul\":2583:2602   */\n      add\n        /* \"#utility.yul\":2576:2611   */\n      mstore\n        /* \"#utility.yul\":2629:2633   */\n      dup3\n        /* \"#utility.yul\":2642:2783   */\n    tag_198:\n        /* \"#utility.yul\":2656:2662   */\n      dup2\n        /* \"#utility.yul\":2653:2654   */\n      dup2\n        /* \"#utility.yul\":2650:2663   */\n      lt\n        /* \"#utility.yul\":2642:2783   */\n      iszero\n      tag_200\n      jumpi\n        /* \"#utility.yul\":2752:2766   */\n      dup7\n      dup2\n      add\n        /* \"#utility.yul\":2748:2771   */\n      dup4\n      add\n        /* \"#utility.yul\":2742:2772   */\n      mload\n        /* \"#utility.yul\":2717:2734   */\n      dup6\n      dup3\n      add\n        /* \"#utility.yul\":2736:2739   */\n      0xa0\n        /* \"#utility.yul\":2713:2740   */\n      add\n        /* \"#utility.yul\":2706:2773   */\n      mstore\n        /* \"#utility.yul\":2671:2681   */\n      dup3\n      add\n        /* \"#utility.yul\":2642:2783   */\n      jump(tag_198)\n    tag_200:\n        /* \"#utility.yul\":2801:2807   */\n      dup2\n        /* \"#utility.yul\":2798:2799   */\n      dup2\n        /* \"#utility.yul\":2795:2808   */\n      gt\n        /* \"#utility.yul\":2792:2794   */\n      iszero\n      tag_201\n      jumpi\n        /* \"#utility.yul\":2872:2876   */\n      dup4\n        /* \"#utility.yul\":2866:2869   */\n      0xa0\n        /* \"#utility.yul\":2857:2863   */\n      dup4\n        /* \"#utility.yul\":2846:2855   */\n      dup8\n        /* \"#utility.yul\":2842:2864   */\n      add\n        /* \"#utility.yul\":2838:2870   */\n      add\n        /* \"#utility.yul\":2831:2877   */\n      mstore\n        /* \"#utility.yul\":2792:2794   */\n    tag_201:\n      pop\n        /* \"#utility.yul\":2948:2950   */\n      0x1f\n        /* \"#utility.yul\":2927:2942   */\n      add\n      not(0x1f)\n        /* \"#utility.yul\":2923:2952   */\n      and\n        /* \"#utility.yul\":2908:2953   */\n      dup4\n      add\n        /* \"#utility.yul\":2955:2958   */\n      0xa0\n        /* \"#utility.yul\":2904:2959   */\n      add\n      swap2\n      pop\n        /* \"#utility.yul\":2968:3013   */\n      tag_202\n      swap1\n      pop\n        /* \"#utility.yul\":3009:3011   */\n      0x60\n        /* \"#utility.yul\":2994:3012   */\n      dup4\n      add\n        /* \"#utility.yul\":2986:2992   */\n      dup5\n        /* \"#utility.yul\":2968:3013   */\n      tag_193\n      jump\t// in\n    tag_202:\n        /* \"#utility.yul\":2366:3019   */\n      swap6\n      swap5\n      pop\n      pop\n      pop\n      pop\n      pop\n      jump\t// out\n        /* \"#utility.yul\":3024:3211   */\n    tag_40:\n        /* \"#utility.yul\":3189:3203   */\n      swap1\n      iszero\n        /* \"#utility.yul\":3182:3204   */\n      iszero\n        /* \"#utility.yul\":3164:3205   */\n      dup2\n      mstore\n        /* \"#utility.yul\":3152:3154   */\n      0x20\n        /* \"#utility.yul\":3137:3155   */\n      add\n      swap1\n        /* \"#utility.yul\":3119:3211   */\n      jump\t// out\n        /* \"#utility.yul\":3216:3556   */\n    tag_96:\n        /* \"#utility.yul\":3418:3420   */\n      0x20\n        /* \"#utility.yul\":3400:3421   */\n      dup1\n      dup3\n      mstore\n        /* \"#utility.yul\":3457:3459   */\n      0x10\n        /* \"#utility.yul\":3437:3455   */\n      swap1\n      dup3\n      add\n        /* \"#utility.yul\":3430:3460   */\n      mstore\n      shl(0x85, 0x03a3c103737ba1030b8383937bb32b21)\n        /* \"#utility.yul\":3491:3493   */\n      0x40\n        /* \"#utility.yul\":3476:3494   */\n      dup3\n      add\n        /* \"#utility.yul\":3469:3515   */\n      mstore\n        /* \"#utility.yul\":3547:3549   */\n      0x60\n        /* \"#utility.yul\":3532:3550   */\n      add\n      swap1\n        /* \"#utility.yul\":3390:3556   */\n      jump\t// out\n        /* \"#utility.yul\":3561:3905   */\n    tag_143:\n        /* \"#utility.yul\":3763:3765   */\n      0x20\n        /* \"#utility.yul\":3745:3766   */\n      dup1\n      dup3\n      mstore\n        /* \"#utility.yul\":3802:3804   */\n      0x14\n        /* \"#utility.yul\":3782:3800   */\n      swap1\n      dup3\n      add\n        /* \"#utility.yul\":3775:3805   */\n      mstore\n      shl(0x62, 0x185c1c1c9bdd985b1cc80f081c995c5d5a5c9959)\n        /* \"#utility.yul\":3836:3838   */\n      0x40\n        /* \"#utility.yul\":3821:3839   */\n      dup3\n      add\n        /* \"#utility.yul\":3814:3864   */\n      mstore\n        /* \"#utility.yul\":3896:3898   */\n      0x60\n        /* \"#utility.yul\":3881:3899   */\n      add\n      swap1\n        /* \"#utility.yul\":3735:3905   */\n      jump\t// out\n        /* \"#utility.yul\":3910:4242   */\n    tag_152:\n        /* \"#utility.yul\":4112:4114   */\n      0x20\n        /* \"#utility.yul\":4094:4115   */\n      dup1\n      dup3\n      mstore\n        /* \"#utility.yul\":4151:4152   */\n      0x09\n        /* \"#utility.yul\":4131:4149   */\n      swap1\n      dup3\n      add\n        /* \"#utility.yul\":4124:4153   */\n      mstore\n      shl(0xba, 0x1d1e0819985a5b1959)\n        /* \"#utility.yul\":4184:4186   */\n      0x40\n        /* \"#utility.yul\":4169:4187   */\n      dup3\n      add\n        /* \"#utility.yul\":4162:4201   */\n      mstore\n        /* \"#utility.yul\":4233:4235   */\n      0x60\n        /* \"#utility.yul\":4218:4236   */\n      add\n      swap1\n        /* \"#utility.yul\":4084:4242   */\n      jump\t// out\n        /* \"#utility.yul\":4247:4588   */\n    tag_86:\n        /* \"#utility.yul\":4449:4451   */\n      0x20\n        /* \"#utility.yul\":4431:4452   */\n      dup1\n      dup3\n      mstore\n        /* \"#utility.yul\":4488:4490   */\n      0x11\n        /* \"#utility.yul\":4468:4486   */\n      swap1\n      dup3\n      add\n        /* \"#utility.yul\":4461:4491   */\n      mstore\n      shl(0x7a, 0x1d1e08191bd95cc81b9bdd08195e1a5cdd)\n        /* \"#utility.yul\":4522:4524   */\n      0x40\n        /* \"#utility.yul\":4507:4525   */\n      dup3\n      add\n        /* \"#utility.yul\":4500:4547   */\n      mstore\n        /* \"#utility.yul\":4579:4581   */\n      0x60\n        /* \"#utility.yul\":4564:4582   */\n      add\n      swap1\n        /* \"#utility.yul\":4421:4588   */\n      jump\t// out\n        /* \"#utility.yul\":4593:4936   */\n    tag_114:\n        /* \"#utility.yul\":4795:4797   */\n      0x20\n        /* \"#utility.yul\":4777:4798   */\n      dup1\n      dup3\n      mstore\n        /* \"#utility.yul\":4834:4836   */\n      0x13\n        /* \"#utility.yul\":4814:4832   */\n      swap1\n      dup3\n      add\n        /* \"#utility.yul\":4807:4837   */\n      mstore\n      shl(0x6a, 0x1d1e08185b1c9958591e48185c1c1c9bdd9959)\n        /* \"#utility.yul\":4868:4870   */\n      0x40\n        /* \"#utility.yul\":4853:4871   */\n      dup3\n      add\n        /* \"#utility.yul\":4846:4895   */\n      mstore\n        /* \"#utility.yul\":4927:4929   */\n      0x60\n        /* \"#utility.yul\":4912:4930   */\n      add\n      swap1\n        /* \"#utility.yul\":4767:4936   */\n      jump\t// out\n        /* \"#utility.yul\":4941:5284   */\n    tag_92:\n        /* \"#utility.yul\":5143:5145   */\n      0x20\n        /* \"#utility.yul\":5125:5146   */\n      dup1\n      dup3\n      mstore\n        /* \"#utility.yul\":5182:5184   */\n      0x13\n        /* \"#utility.yul\":5162:5180   */\n      swap1\n      dup3\n      add\n        /* \"#utility.yul\":5155:5185   */\n      mstore\n      shl(0x6a, 0x1d1e08185b1c9958591e48195e1958dd5d1959)\n        /* \"#utility.yul\":5216:5218   */\n      0x40\n        /* \"#utility.yul\":5201:5219   */\n      dup3\n      add\n        /* \"#utility.yul\":5194:5243   */\n      mstore\n        /* \"#utility.yul\":5275:5277   */\n      0x60\n        /* \"#utility.yul\":5260:5278   */\n      add\n      swap1\n        /* \"#utility.yul\":5115:5284   */\n      jump\t// out\n        /* \"#utility.yul\":5289:5621   */\n    tag_73:\n        /* \"#utility.yul\":5491:5493   */\n      0x20\n        /* \"#utility.yul\":5473:5494   */\n      dup1\n      dup3\n      mstore\n        /* \"#utility.yul\":5530:5531   */\n      0x09\n        /* \"#utility.yul\":5510:5528   */\n      swap1\n      dup3\n      add\n        /* \"#utility.yul\":5503:5532   */\n      mstore\n      shl(0xb9, 0x3737ba1037bbb732b9)\n        /* \"#utility.yul\":5563:5565   */\n      0x40\n        /* \"#utility.yul\":5548:5566   */\n      dup3\n      add\n        /* \"#utility.yul\":5541:5580   */\n      mstore\n        /* \"#utility.yul\":5612:5614   */\n      0x60\n        /* \"#utility.yul\":5597:5615   */\n      add\n      swap1\n        /* \"#utility.yul\":5463:5621   */\n      jump\t// out\n        /* \"#utility.yul\":5626:5974   */\n    tag_129:\n        /* \"#utility.yul\":5828:5830   */\n      0x20\n        /* \"#utility.yul\":5810:5831   */\n      dup1\n      dup3\n      mstore\n        /* \"#utility.yul\":5867:5869   */\n      0x18\n        /* \"#utility.yul\":5847:5865   */\n      swap1\n      dup3\n      add\n        /* \"#utility.yul\":5840:5870   */\n      mstore\n        /* \"#utility.yul\":5906:5932   */\n      0x4661696c75726521204574686572206e6f742073656e642e0000000000000000\n        /* \"#utility.yul\":5901:5903   */\n      0x40\n        /* \"#utility.yul\":5886:5904   */\n      dup3\n      add\n        /* \"#utility.yul\":5879:5933   */\n      mstore\n        /* \"#utility.yul\":5965:5967   */\n      0x60\n        /* \"#utility.yul\":5950:5968   */\n      add\n      swap1\n        /* \"#utility.yul\":5800:5974   */\n      jump\t// out\n        /* \"#utility.yul\":5979:6156   */\n    tag_17:\n        /* \"#utility.yul\":6125:6150   */\n      swap1\n      dup2\n      mstore\n        /* \"#utility.yul\":6113:6115   */\n      0x20\n        /* \"#utility.yul\":6098:6116   */\n      add\n      swap1\n        /* \"#utility.yul\":6080:6156   */\n      jump\t// out\n        /* \"#utility.yul\":6161:6289   */\n    tag_161:\n      0x00\n        /* \"#utility.yul\":6232:6233   */\n      dup3\n        /* \"#utility.yul\":6228:6234   */\n      not\n        /* \"#utility.yul\":6225:6226   */\n      dup3\n        /* \"#utility.yul\":6222:6235   */\n      gt\n        /* \"#utility.yul\":6219:6221   */\n      iszero\n      tag_215\n      jumpi\n        /* \"#utility.yul\":6238:6256   */\n      tag_215\n      tag_216\n      jump\t// in\n    tag_215:\n      pop\n        /* \"#utility.yul\":6274:6283   */\n      add\n      swap1\n        /* \"#utility.yul\":6209:6289   */\n      jump\t// out\n        /* \"#utility.yul\":6294:6419   */\n    tag_79:\n      0x00\n        /* \"#utility.yul\":6362:6363   */\n      dup3\n        /* \"#utility.yul\":6359:6360   */\n      dup3\n        /* \"#utility.yul\":6356:6364   */\n      lt\n        /* \"#utility.yul\":6353:6355   */\n      iszero\n      tag_219\n      jumpi\n        /* \"#utility.yul\":6367:6385   */\n      tag_219\n      tag_216\n      jump\t// in\n    tag_219:\n      pop\n        /* \"#utility.yul\":6404:6413   */\n      sub\n      swap1\n        /* \"#utility.yul\":6343:6419   */\n      jump\t// out\n        /* \"#utility.yul\":6424:6804   */\n    tag_100:\n        /* \"#utility.yul\":6509:6510   */\n      0x02\n        /* \"#utility.yul\":6499:6511   */\n      dup2\n      div\n        /* \"#utility.yul\":6556:6557   */\n      0x01\n        /* \"#utility.yul\":6546:6558   */\n      dup3\n      and\n      dup1\n        /* \"#utility.yul\":6567:6569   */\n      tag_221\n      jumpi\n        /* \"#utility.yul\":6621:6625   */\n      0x7f\n        /* \"#utility.yul\":6613:6619   */\n      dup3\n        /* \"#utility.yul\":6609:6626   */\n      and\n        /* \"#utility.yul\":6599:6626   */\n      swap2\n      pop\n        /* \"#utility.yul\":6567:6569   */\n    tag_221:\n        /* \"#utility.yul\":6674:6676   */\n      0x20\n        /* \"#utility.yul\":6666:6672   */\n      dup3\n        /* \"#utility.yul\":6663:6677   */\n      lt\n        /* \"#utility.yul\":6643:6661   */\n      dup2\n        /* \"#utility.yul\":6640:6678   */\n      eq\n        /* \"#utility.yul\":6637:6639   */\n      iszero\n      tag_155\n      jumpi\n        /* \"#utility.yul\":6720:6730   */\n      0x4e487b71\n        /* \"#utility.yul\":6715:6718   */\n      0xe0\n        /* \"#utility.yul\":6711:6731   */\n      shl\n        /* \"#utility.yul\":6708:6709   */\n      0x00\n        /* \"#utility.yul\":6701:6732   */\n      mstore\n        /* \"#utility.yul\":6755:6759   */\n      0x22\n        /* \"#utility.yul\":6752:6753   */\n      0x04\n        /* \"#utility.yul\":6745:6760   */\n      mstore\n        /* \"#utility.yul\":6783:6787   */\n      0x24\n        /* \"#utility.yul\":6780:6781   */\n      0x00\n        /* \"#utility.yul\":6773:6788   */\n      revert\n        /* \"#utility.yul\":6809:6944   */\n    tag_163:\n      0x00\n      not(0x00)\n        /* \"#utility.yul\":6869:6886   */\n      dup3\n      eq\n        /* \"#utility.yul\":6866:6868   */\n      iszero\n      tag_225\n      jumpi\n        /* \"#utility.yul\":6889:6907   */\n      tag_225\n      tag_216\n      jump\t// in\n    tag_225:\n      pop\n        /* \"#utility.yul\":6936:6937   */\n      0x01\n        /* \"#utility.yul\":6925:6938   */\n      add\n      swap1\n        /* \"#utility.yul\":6856:6944   */\n      jump\t// out\n        /* \"#utility.yul\":6949:7076   */\n    tag_216:\n        /* \"#utility.yul\":7010:7020   */\n      0x4e487b71\n        /* \"#utility.yul\":7005:7008   */\n      0xe0\n        /* \"#utility.yul\":7001:7021   */\n      shl\n        /* \"#utility.yul\":6998:6999   */\n      0x00\n        /* \"#utility.yul\":6991:7022   */\n      mstore\n        /* \"#utility.yul\":7041:7045   */\n      0x11\n        /* \"#utility.yul\":7038:7039   */\n      0x04\n        /* \"#utility.yul\":7031:7046   */\n      mstore\n        /* \"#utility.yul\":7065:7069   */\n      0x24\n        /* \"#utility.yul\":7062:7063   */\n      0x00\n        /* \"#utility.yul\":7055:7070   */\n      revert\n\n    auxdata: 0xa2646970667358221220bfc8bcbbe64ab790f18c509d6b5294fa1484e0b7a08234bb0eecde12c37750ec64736f6c63430008000033\n}\n",
				"bytecode": {
					"linkReferences": {},
					"object": "60806040523480156200001157600080fd5b506040516200120d3803806200120d8339810160408190526200003491620001db565b6000825111620000615760405162461bcd60e51b81526004016200005890620002e8565b60405180910390fd5b60008111801562000073575081518111155b620000925760405162461bcd60e51b8152600401620000589062000338565b60005b8251811015620001b3576000838281518110620000c257634e487b7160e01b600052603260045260246000fd5b6020026020010151905060006001600160a01b0316816001600160a01b03161415620001025760405162461bcd60e51b8152600401620000589062000311565b6001600160a01b03811660009081526001602052604090205460ff16156200013e5760405162461bcd60e51b81526004016200005890620002b1565b6001600160a01b031660008181526001602081905260408220805460ff191682179055815490810182559080527f290decd9548b62a8d60345a988386fc84ba6bc95484008f6362f93160ef3e5630180546001600160a01b031916909117905580620001aa816200036f565b91505062000095565b5060025550620003ad565b80516001600160a01b0381168114620001d657600080fd5b919050565b60008060408385031215620001ee578182fd5b82516001600160401b038082111562000205578384fd5b818501915085601f83011262000219578384fd5b815160208282111562000230576200023062000397565b8082026040518282820101818110868211171562000252576200025262000397565b604052838152828101945085830182870184018b101562000271578889fd5b8896505b848710156200029e576200028981620001be565b86526001969096019594830194830162000275565b5097909101519698969750505050505050565b60208082526013908201527f6f776e6572206973206e6f7420756e6971756500000000000000000000000000604082015260600190565b6020808252600f908201526e206f776e657273207265717569726560881b604082015260600190565b6020808252600d908201526c34b73b30b634b21037bbb732b960991b604082015260600190565b60208082526019908201527f696e76616c696564207265717569726564206e756d6265722000000000000000604082015260600190565b60006000198214156200039057634e487b7160e01b81526011600452602481fd5b5060010190565b634e487b7160e01b600052604160045260246000fd5b610e5080620003bd6000396000f3fe6080604052600436106100955760003560e01c80639ace38c2116100595780639ace38c2146101a7578063b759f954146101d7578063dc8452cd146101f7578063f55332ab14610219578063fe0d94c11461022c576100dd565b8063025e7c27146100e257806314de327f1461011857806320c5429b1461013a5780632f54bf6e1461015a5780638253951a14610187576100dd565b366100dd57336001600160a01b03167fe1fffcc4923d04b559f4d29a8bfc6cda04eb5b0d3c460751c2402c5c5cc9109c346040516100d39190610d7c565b60405180910390a2005b600080fd5b3480156100ee57600080fd5b506101026100fd366004610b3e565b61024c565b60405161010f9190610b8a565b60405180910390f35b34801561012457600080fd5b50610138610133366004610abc565b610276565b005b34801561014657600080fd5b50610138610155366004610b3e565b6103c2565b34801561016657600080fd5b5061017a610175366004610a9b565b6104f0565b60405161010f9190610c17565b34801561019357600080fd5b5061017a6101a2366004610b56565b610505565b3480156101b357600080fd5b506101c76101c2366004610b3e565b610525565b60405161010f9493929190610b9e565b3480156101e357600080fd5b506101386101f2366004610b3e565b6105f7565b34801561020357600080fd5b5061020c61072c565b60405161010f9190610d7c565b610138610227366004610a9b565b610732565b34801561023857600080fd5b50610138610247366004610b3e565b6107b2565b6000818154811061025c57600080fd5b6000918252602090912001546001600160a01b0316905081565b3360009081526001602052604090205460ff166102ae5760405162461bcd60e51b81526004016102a590610d22565b60405180910390fd5b60036040518060800160405280866001600160a01b0316815260200185815260200184848080601f0160208091040260200160405190810160405280939291908181526020018383808284376000920182905250938552505050602091820181905283546001808201865594825290829020835160049092020180546001600160a01b0319166001600160a01b0390921691909117815582820151938101939093556040820151805192939261036a92600285019201906109e6565b50606091909101516003918201805460ff19169115159190911790555461039390600190610d9d565b6040517f08324b3d745b914e3abd4ffbfead91e3b78391a98c173202129215ab933adfbe90600090a250505050565b3360009081526001602052604090205460ff166103f15760405162461bcd60e51b81526004016102a590610d22565b600354819081106104145760405162461bcd60e51b81526004016102a590610c9d565b816003818154811061043657634e487b7160e01b600052603260045260246000fd5b600091825260209091206003600490920201015460ff161561046a5760405162461bcd60e51b81526004016102a590610cf5565b600083815260046020908152604080832033845290915290205460ff166104a35760405162461bcd60e51b81526004016102a590610c22565b6000838152600460209081526040808320338085529252808320805460ff191690555185927fec9ab91322523c899ede7830ec9bfc992b5981cdcc27b91162fb23de5791117b91a3505050565b60016020526000908152604090205460ff1681565b600460209081526000928352604080842090915290825290205460ff1681565b6003818154811061053557600080fd5b60009182526020909120600490910201805460018201546002830180546001600160a01b03909316945090929161056b90610db4565b80601f016020809104026020016040519081016040528092919081815260200182805461059790610db4565b80156105e45780601f106105b9576101008083540402835291602001916105e4565b820191906000526020600020905b8154815290600101906020018083116105c757829003601f168201915b5050506003909301549192505060ff1684565b3360009081526001602052604090205460ff166106265760405162461bcd60e51b81526004016102a590610d22565b600354819081106106495760405162461bcd60e51b81526004016102a590610c9d565b6000828152600460209081526040808320338452909152902054829060ff16156106855760405162461bcd60e51b81526004016102a590610cc8565b82600381815481106106a757634e487b7160e01b600052603260045260246000fd5b600091825260209091206003600490920201015460ff16156106db5760405162461bcd60e51b81526004016102a590610cf5565b6000848152600460209081526040808320338085529252808320805460ff191660011790555186927f90ec57f18fa7b15c6b8d5e4d1deb90796c74b2ff23d4d0cecad0cb42a96b312891a350505050565b60025481565b6000816001600160a01b03163460405161074b90610b87565b60006040518083038185875af1925050503d8060008114610788576040519150601f19603f3d011682016040523d82523d6000602084013e61078d565b606091505b50509050806107ae5760405162461bcd60e51b81526004016102a590610d45565b5050565b600354819081106107d55760405162461bcd60e51b81526004016102a590610c9d565b81600381815481106107f757634e487b7160e01b600052603260045260246000fd5b600091825260209091206003600490920201015460ff161561082b5760405162461bcd60e51b81526004016102a590610cf5565b60025461083784610950565b10156108555760405162461bcd60e51b81526004016102a590610c4c565b60006003848154811061087857634e487b7160e01b600052603260045260246000fd5b6000918252602082206003600490920201908101805460ff191660019081179091558154908201546040519294506001600160a01b03909116916108bb90610b87565b60006040518083038185875af1925050503d80600081146108f8576040519150601f19603f3d011682016040523d82523d6000602084013e6108fd565b606091505b505090508061091e5760405162461bcd60e51b81526004016102a590610c7a565b60405185907fddb556f1d2c1ec821e910b019d3685b229db152a0ecd517ca7e24b8bd713928990600090a25050505050565b6000805b6000548110156109e05760046000848152602001908152602001600020600080838154811061099357634e487b7160e01b600052603260045260246000fd5b60009182526020808320909101546001600160a01b0316835282019290925260400190205460ff16156109ce576109cb600183610d85565b91505b806109d881610de9565b915050610954565b50919050565b8280546109f290610db4565b90600052602060002090601f016020900481019282610a145760008555610a5a565b82601f10610a2d57805160ff1916838001178555610a5a565b82800160010185558215610a5a579182015b82811115610a5a578251825591602001919060010190610a3f565b50610a66929150610a6a565b5090565b5b80821115610a665760008155600101610a6b565b80356001600160a01b0381168114610a9657600080fd5b919050565b600060208284031215610aac578081fd5b610ab582610a7f565b9392505050565b60008060008060608587031215610ad1578283fd5b610ada85610a7f565b935060208501359250604085013567ffffffffffffffff80821115610afd578384fd5b818701915087601f830112610b10578384fd5b813581811115610b1e578485fd5b886020828501011115610b2f578485fd5b95989497505060200194505050565b600060208284031215610b4f578081fd5b5035919050565b60008060408385031215610b68578182fd5b82359150610b7860208401610a7f565b90509250929050565b15159052565b90565b6001600160a01b0391909116815260200190565b600060018060a01b038616825260208581840152608060408401528451806080850152825b81811015610bdf5786810183015185820160a001528201610bc3565b81811115610bf0578360a083870101525b50601f01601f1916830160a0019150610c0e90506060830184610b81565b95945050505050565b901515815260200190565b60208082526010908201526f03a3c103737ba1030b8383937bb32b2160851b604082015260600190565b602080825260149082015273185c1c1c9bdd985b1cc80f081c995c5d5a5c995960621b604082015260600190565b6020808252600990820152681d1e0819985a5b195960ba1b604082015260600190565b6020808252601190820152701d1e08191bd95cc81b9bdd08195e1a5cdd607a1b604082015260600190565b6020808252601390820152721d1e08185b1c9958591e48185c1c1c9bdd9959606a1b604082015260600190565b6020808252601390820152721d1e08185b1c9958591e48195e1958dd5d1959606a1b604082015260600190565b6020808252600990820152683737ba1037bbb732b960b91b604082015260600190565b60208082526018908201527f4661696c75726521204574686572206e6f742073656e642e0000000000000000604082015260600190565b90815260200190565b60008219821115610d9857610d98610e04565b500190565b600082821015610daf57610daf610e04565b500390565b600281046001821680610dc857607f821691505b602082108114156109e057634e487b7160e01b600052602260045260246000fd5b6000600019821415610dfd57610dfd610e04565b5060010190565b634e487b7160e01b600052601160045260246000fdfea2646970667358221220bfc8bcbbe64ab790f18c509d6b5294fa1484e0b7a08234bb0eecde12c37750ec64736f6c63430008000033",
					"opcodes": "PUSH1 0x80 PUSH1 0x40 MSTORE CALLVALUE DUP1 ISZERO PUSH3 0x11 JUMPI PUSH1 0x0 DUP1 REVERT JUMPDEST POP PUSH1 0x40 MLOAD PUSH3 0x120D CODESIZE SUB DUP1 PUSH3 0x120D DUP4 CODECOPY DUP2 ADD PUSH1 0x40 DUP2 SWAP1 MSTORE PUSH3 0x34 SWAP2 PUSH3 0x1DB JUMP JUMPDEST PUSH1 0x0 DUP3 MLOAD GT PUSH3 0x61 JUMPI PUSH1 0x40 MLOAD PUSH3 0x461BCD PUSH1 0xE5 SHL DUP2 MSTORE PUSH1 0x4 ADD PUSH3 0x58 SWAP1 PUSH3 0x2E8 JUMP JUMPDEST PUSH1 0x40 MLOAD DUP1 SWAP2 SUB SWAP1 REVERT JUMPDEST PUSH1 0x0 DUP2 GT DUP1 ISZERO PUSH3 0x73 JUMPI POP DUP2 MLOAD DUP2 GT ISZERO JUMPDEST PUSH3 0x92 JUMPI PUSH1 0x40 MLOAD PUSH3 0x461BCD PUSH1 0xE5 SHL DUP2 MSTORE PUSH1 0x4 ADD PUSH3 0x58 SWAP1 PUSH3 0x338 JUMP JUMPDEST PUSH1 0x0 JUMPDEST DUP3 MLOAD DUP2 LT ISZERO PUSH3 0x1B3 JUMPI PUSH1 0x0 DUP4 DUP3 DUP2 MLOAD DUP2 LT PUSH3 0xC2 JUMPI PUSH4 0x4E487B71 PUSH1 0xE0 SHL PUSH1 0x0 MSTORE PUSH1 0x32 PUSH1 0x4 MSTORE PUSH1 0x24 PUSH1 0x0 REVERT JUMPDEST PUSH1 0x20 MUL PUSH1 0x20 ADD ADD MLOAD SWAP1 POP PUSH1 0x0 PUSH1 0x1 PUSH1 0x1 PUSH1 0xA0 SHL SUB AND DUP2 PUSH1 0x1 PUSH1 0x1 PUSH1 0xA0 SHL SUB AND EQ ISZERO PUSH3 0x102 JUMPI PUSH1 0x40 MLOAD PUSH3 0x461BCD PUSH1 0xE5 SHL DUP2 MSTORE PUSH1 0x4 ADD PUSH3 0x58 SWAP1 PUSH3 0x311 JUMP JUMPDEST PUSH1 0x1 PUSH1 0x1 PUSH1 0xA0 SHL SUB DUP2 AND PUSH1 0x0 SWAP1 DUP2 MSTORE PUSH1 0x1 PUSH1 0x20 MSTORE PUSH1 0x40 SWAP1 KECCAK256 SLOAD PUSH1 0xFF AND ISZERO PUSH3 0x13E JUMPI PUSH1 0x40 MLOAD PUSH3 0x461BCD PUSH1 0xE5 SHL DUP2 MSTORE PUSH1 0x4 ADD PUSH3 0x58 SWAP1 PUSH3 0x2B1 JUMP JUMPDEST PUSH1 0x1 PUSH1 0x1 PUSH1 0xA0 SHL SUB AND PUSH1 0x0 DUP2 DUP2 MSTORE PUSH1 0x1 PUSH1 0x20 DUP2 SWAP1 MSTORE PUSH1 0x40 DUP3 KECCAK256 DUP1 SLOAD PUSH1 0xFF NOT AND DUP3 OR SWAP1 SSTORE DUP2 SLOAD SWAP1 DUP2 ADD DUP3 SSTORE SWAP1 DUP1 MSTORE PUSH32 0x290DECD9548B62A8D60345A988386FC84BA6BC95484008F6362F93160EF3E563 ADD DUP1 SLOAD PUSH1 0x1 PUSH1 0x1 PUSH1 0xA0 SHL SUB NOT AND SWAP1 SWAP2 OR SWAP1 SSTORE DUP1 PUSH3 0x1AA DUP2 PUSH3 0x36F JUMP JUMPDEST SWAP2 POP POP PUSH3 0x95 JUMP JUMPDEST POP PUSH1 0x2 SSTORE POP PUSH3 0x3AD JUMP JUMPDEST DUP1 MLOAD PUSH1 0x1 PUSH1 0x1 PUSH1 0xA0 SHL SUB DUP2 AND DUP2 EQ PUSH3 0x1D6 JUMPI PUSH1 0x0 DUP1 REVERT JUMPDEST SWAP2 SWAP1 POP JUMP JUMPDEST PUSH1 0x0 DUP1 PUSH1 0x40 DUP4 DUP6 SUB SLT ISZERO PUSH3 0x1EE JUMPI DUP2 DUP3 REVERT JUMPDEST DUP3 MLOAD PUSH1 0x1 PUSH1 0x1 PUSH1 0x40 SHL SUB DUP1 DUP3 GT ISZERO PUSH3 0x205 JUMPI DUP4 DUP5 REVERT JUMPDEST DUP2 DUP6 ADD SWAP2 POP DUP6 PUSH1 0x1F DUP4 ADD SLT PUSH3 0x219 JUMPI DUP4 DUP5 REVERT JUMPDEST DUP2 MLOAD PUSH1 0x20 DUP3 DUP3 GT ISZERO PUSH3 0x230 JUMPI PUSH3 0x230 PUSH3 0x397 JUMP JUMPDEST DUP1 DUP3 MUL PUSH1 0x40 MLOAD DUP3 DUP3 DUP3 ADD ADD DUP2 DUP2 LT DUP7 DUP3 GT OR ISZERO PUSH3 0x252 JUMPI PUSH3 0x252 PUSH3 0x397 JUMP JUMPDEST PUSH1 0x40 MSTORE DUP4 DUP2 MSTORE DUP3 DUP2 ADD SWAP5 POP DUP6 DUP4 ADD DUP3 DUP8 ADD DUP5 ADD DUP12 LT ISZERO PUSH3 0x271 JUMPI DUP9 DUP10 REVERT JUMPDEST DUP9 SWAP7 POP JUMPDEST DUP5 DUP8 LT ISZERO PUSH3 0x29E JUMPI PUSH3 0x289 DUP2 PUSH3 0x1BE JUMP JUMPDEST DUP7 MSTORE PUSH1 0x1 SWAP7 SWAP1 SWAP7 ADD SWAP6 SWAP5 DUP4 ADD SWAP5 DUP4 ADD PUSH3 0x275 JUMP JUMPDEST POP SWAP8 SWAP1 SWAP2 ADD MLOAD SWAP7 SWAP9 SWAP7 SWAP8 POP POP POP POP POP POP POP JUMP JUMPDEST PUSH1 0x20 DUP1 DUP3 MSTORE PUSH1 0x13 SWAP1 DUP3 ADD MSTORE PUSH32 0x6F776E6572206973206E6F7420756E6971756500000000000000000000000000 PUSH1 0x40 DUP3 ADD MSTORE PUSH1 0x60 ADD SWAP1 JUMP JUMPDEST PUSH1 0x20 DUP1 DUP3 MSTORE PUSH1 0xF SWAP1 DUP3 ADD MSTORE PUSH15 0x206F776E6572732072657175697265 PUSH1 0x88 SHL PUSH1 0x40 DUP3 ADD MSTORE PUSH1 0x60 ADD SWAP1 JUMP JUMPDEST PUSH1 0x20 DUP1 DUP3 MSTORE PUSH1 0xD SWAP1 DUP3 ADD MSTORE PUSH13 0x34B73B30B634B21037BBB732B9 PUSH1 0x99 SHL PUSH1 0x40 DUP3 ADD MSTORE PUSH1 0x60 ADD SWAP1 JUMP JUMPDEST PUSH1 0x20 DUP1 DUP3 MSTORE PUSH1 0x19 SWAP1 DUP3 ADD MSTORE PUSH32 0x696E76616C696564207265717569726564206E756D6265722000000000000000 PUSH1 0x40 DUP3 ADD MSTORE PUSH1 0x60 ADD SWAP1 JUMP JUMPDEST PUSH1 0x0 PUSH1 0x0 NOT DUP3 EQ ISZERO PUSH3 0x390 JUMPI PUSH4 0x4E487B71 PUSH1 0xE0 SHL DUP2 MSTORE PUSH1 0x11 PUSH1 0x4 MSTORE PUSH1 0x24 DUP2 REVERT JUMPDEST POP PUSH1 0x1 ADD SWAP1 JUMP JUMPDEST PUSH4 0x4E487B71 PUSH1 0xE0 SHL PUSH1 0x0 MSTORE PUSH1 0x41 PUSH1 0x4 MSTORE PUSH1 0x24 PUSH1 0x0 REVERT JUMPDEST PUSH2 0xE50 DUP1 PUSH3 0x3BD PUSH1 0x0 CODECOPY PUSH1 0x0 RETURN INVALID PUSH1 0x80 PUSH1 0x40 MSTORE PUSH1 0x4 CALLDATASIZE LT PUSH2 0x95 JUMPI PUSH1 0x0 CALLDATALOAD PUSH1 0xE0 SHR DUP1 PUSH4 0x9ACE38C2 GT PUSH2 0x59 JUMPI DUP1 PUSH4 0x9ACE38C2 EQ PUSH2 0x1A7 JUMPI DUP1 PUSH4 0xB759F954 EQ PUSH2 0x1D7 JUMPI DUP1 PUSH4 0xDC8452CD EQ PUSH2 0x1F7 JUMPI DUP1 PUSH4 0xF55332AB EQ PUSH2 0x219 JUMPI DUP1 PUSH4 0xFE0D94C1 EQ PUSH2 0x22C JUMPI PUSH2 0xDD JUMP JUMPDEST DUP1 PUSH4 0x25E7C27 EQ PUSH2 0xE2 JUMPI DUP1 PUSH4 0x14DE327F EQ PUSH2 0x118 JUMPI DUP1 PUSH4 0x20C5429B EQ PUSH2 0x13A JUMPI DUP1 PUSH4 0x2F54BF6E EQ PUSH2 0x15A JUMPI DUP1 PUSH4 0x8253951A EQ PUSH2 0x187 JUMPI PUSH2 0xDD JUMP JUMPDEST CALLDATASIZE PUSH2 0xDD JUMPI CALLER PUSH1 0x1 PUSH1 0x1 PUSH1 0xA0 SHL SUB AND PUSH32 0xE1FFFCC4923D04B559F4D29A8BFC6CDA04EB5B0D3C460751C2402C5C5CC9109C CALLVALUE PUSH1 0x40 MLOAD PUSH2 0xD3 SWAP2 SWAP1 PUSH2 0xD7C JUMP JUMPDEST PUSH1 0x40 MLOAD DUP1 SWAP2 SUB SWAP1 LOG2 STOP JUMPDEST PUSH1 0x0 DUP1 REVERT JUMPDEST CALLVALUE DUP1 ISZERO PUSH2 0xEE JUMPI PUSH1 0x0 DUP1 REVERT JUMPDEST POP PUSH2 0x102 PUSH2 0xFD CALLDATASIZE PUSH1 0x4 PUSH2 0xB3E JUMP JUMPDEST PUSH2 0x24C JUMP JUMPDEST PUSH1 0x40 MLOAD PUSH2 0x10F SWAP2 SWAP1 PUSH2 0xB8A JUMP JUMPDEST PUSH1 0x40 MLOAD DUP1 SWAP2 SUB SWAP1 RETURN JUMPDEST CALLVALUE DUP1 ISZERO PUSH2 0x124 JUMPI PUSH1 0x0 DUP1 REVERT JUMPDEST POP PUSH2 0x138 PUSH2 0x133 CALLDATASIZE PUSH1 0x4 PUSH2 0xABC JUMP JUMPDEST PUSH2 0x276 JUMP JUMPDEST STOP JUMPDEST CALLVALUE DUP1 ISZERO PUSH2 0x146 JUMPI PUSH1 0x0 DUP1 REVERT JUMPDEST POP PUSH2 0x138 PUSH2 0x155 CALLDATASIZE PUSH1 0x4 PUSH2 0xB3E JUMP JUMPDEST PUSH2 0x3C2 JUMP JUMPDEST CALLVALUE DUP1 ISZERO PUSH2 0x166 JUMPI PUSH1 0x0 DUP1 REVERT JUMPDEST POP PUSH2 0x17A PUSH2 0x175 CALLDATASIZE PUSH1 0x4 PUSH2 0xA9B JUMP JUMPDEST PUSH2 0x4F0 JUMP JUMPDEST PUSH1 0x40 MLOAD PUSH2 0x10F SWAP2 SWAP1 PUSH2 0xC17 JUMP JUMPDEST CALLVALUE DUP1 ISZERO PUSH2 0x193 JUMPI PUSH1 0x0 DUP1 REVERT JUMPDEST POP PUSH2 0x17A PUSH2 0x1A2 CALLDATASIZE PUSH1 0x4 PUSH2 0xB56 JUMP JUMPDEST PUSH2 0x505 JUMP JUMPDEST CALLVALUE DUP1 ISZERO PUSH2 0x1B3 JUMPI PUSH1 0x0 DUP1 REVERT JUMPDEST POP PUSH2 0x1C7 PUSH2 0x1C2 CALLDATASIZE PUSH1 0x4 PUSH2 0xB3E JUMP JUMPDEST PUSH2 0x525 JUMP JUMPDEST PUSH1 0x40 MLOAD PUSH2 0x10F SWAP5 SWAP4 SWAP3 SWAP2 SWAP1 PUSH2 0xB9E JUMP JUMPDEST CALLVALUE DUP1 ISZERO PUSH2 0x1E3 JUMPI PUSH1 0x0 DUP1 REVERT JUMPDEST POP PUSH2 0x138 PUSH2 0x1F2 CALLDATASIZE PUSH1 0x4 PUSH2 0xB3E JUMP JUMPDEST PUSH2 0x5F7 JUMP JUMPDEST CALLVALUE DUP1 ISZERO PUSH2 0x203 JUMPI PUSH1 0x0 DUP1 REVERT JUMPDEST POP PUSH2 0x20C PUSH2 0x72C JUMP JUMPDEST PUSH1 0x40 MLOAD PUSH2 0x10F SWAP2 SWAP1 PUSH2 0xD7C JUMP JUMPDEST PUSH2 0x138 PUSH2 0x227 CALLDATASIZE PUSH1 0x4 PUSH2 0xA9B JUMP JUMPDEST PUSH2 0x732 JUMP JUMPDEST CALLVALUE DUP1 ISZERO PUSH2 0x238 JUMPI PUSH1 0x0 DUP1 REVERT JUMPDEST POP PUSH2 0x138 PUSH2 0x247 CALLDATASIZE PUSH1 0x4 PUSH2 0xB3E JUMP JUMPDEST PUSH2 0x7B2 JUMP JUMPDEST PUSH1 0x0 DUP2 DUP2 SLOAD DUP2 LT PUSH2 0x25C JUMPI PUSH1 0x0 DUP1 REVERT JUMPDEST PUSH1 0x0 SWAP2 DUP3 MSTORE PUSH1 0x20 SWAP1 SWAP2 KECCAK256 ADD SLOAD PUSH1 0x1 PUSH1 0x1 PUSH1 0xA0 SHL SUB AND SWAP1 POP DUP2 JUMP JUMPDEST CALLER PUSH1 0x0 SWAP1 DUP2 MSTORE PUSH1 0x1 PUSH1 0x20 MSTORE PUSH1 0x40 SWAP1 KECCAK256 SLOAD PUSH1 0xFF AND PUSH2 0x2AE JUMPI PUSH1 0x40 MLOAD PUSH3 0x461BCD PUSH1 0xE5 SHL DUP2 MSTORE PUSH1 0x4 ADD PUSH2 0x2A5 SWAP1 PUSH2 0xD22 JUMP JUMPDEST PUSH1 0x40 MLOAD DUP1 SWAP2 SUB SWAP1 REVERT JUMPDEST PUSH1 0x3 PUSH1 0x40 MLOAD DUP1 PUSH1 0x80 ADD PUSH1 0x40 MSTORE DUP1 DUP7 PUSH1 0x1 PUSH1 0x1 PUSH1 0xA0 SHL SUB AND DUP2 MSTORE PUSH1 0x20 ADD DUP6 DUP2 MSTORE PUSH1 0x20 ADD DUP5 DUP5 DUP1 DUP1 PUSH1 0x1F ADD PUSH1 0x20 DUP1 SWAP2 DIV MUL PUSH1 0x20 ADD PUSH1 0x40 MLOAD SWAP1 DUP2 ADD PUSH1 0x40 MSTORE DUP1 SWAP4 SWAP3 SWAP2 SWAP1 DUP2 DUP2 MSTORE PUSH1 0x20 ADD DUP4 DUP4 DUP1 DUP3 DUP5 CALLDATACOPY PUSH1 0x0 SWAP3 ADD DUP3 SWAP1 MSTORE POP SWAP4 DUP6 MSTORE POP POP POP PUSH1 0x20 SWAP2 DUP3 ADD DUP2 SWAP1 MSTORE DUP4 SLOAD PUSH1 0x1 DUP1 DUP3 ADD DUP7 SSTORE SWAP5 DUP3 MSTORE SWAP1 DUP3 SWAP1 KECCAK256 DUP4 MLOAD PUSH1 0x4 SWAP1 SWAP3 MUL ADD DUP1 SLOAD PUSH1 0x1 PUSH1 0x1 PUSH1 0xA0 SHL SUB NOT AND PUSH1 0x1 PUSH1 0x1 PUSH1 0xA0 SHL SUB SWAP1 SWAP3 AND SWAP2 SWAP1 SWAP2 OR DUP2 SSTORE DUP3 DUP3 ADD MLOAD SWAP4 DUP2 ADD SWAP4 SWAP1 SWAP4 SSTORE PUSH1 0x40 DUP3 ADD MLOAD DUP1 MLOAD SWAP3 SWAP4 SWAP3 PUSH2 0x36A SWAP3 PUSH1 0x2 DUP6 ADD SWAP3 ADD SWAP1 PUSH2 0x9E6 JUMP JUMPDEST POP PUSH1 0x60 SWAP2 SWAP1 SWAP2 ADD MLOAD PUSH1 0x3 SWAP2 DUP3 ADD DUP1 SLOAD PUSH1 0xFF NOT AND SWAP2 ISZERO ISZERO SWAP2 SWAP1 SWAP2 OR SWAP1 SSTORE SLOAD PUSH2 0x393 SWAP1 PUSH1 0x1 SWAP1 PUSH2 0xD9D JUMP JUMPDEST PUSH1 0x40 MLOAD PUSH32 0x8324B3D745B914E3ABD4FFBFEAD91E3B78391A98C173202129215AB933ADFBE SWAP1 PUSH1 0x0 SWAP1 LOG2 POP POP POP POP JUMP JUMPDEST CALLER PUSH1 0x0 SWAP1 DUP2 MSTORE PUSH1 0x1 PUSH1 0x20 MSTORE PUSH1 0x40 SWAP1 KECCAK256 SLOAD PUSH1 0xFF AND PUSH2 0x3F1 JUMPI PUSH1 0x40 MLOAD PUSH3 0x461BCD PUSH1 0xE5 SHL DUP2 MSTORE PUSH1 0x4 ADD PUSH2 0x2A5 SWAP1 PUSH2 0xD22 JUMP JUMPDEST PUSH1 0x3 SLOAD DUP2 SWAP1 DUP2 LT PUSH2 0x414 JUMPI PUSH1 0x40 MLOAD PUSH3 0x461BCD PUSH1 0xE5 SHL DUP2 MSTORE PUSH1 0x4 ADD PUSH2 0x2A5 SWAP1 PUSH2 0xC9D JUMP JUMPDEST DUP2 PUSH1 0x3 DUP2 DUP2 SLOAD DUP2 LT PUSH2 0x436 JUMPI PUSH4 0x4E487B71 PUSH1 0xE0 SHL PUSH1 0x0 MSTORE PUSH1 0x32 PUSH1 0x4 MSTORE PUSH1 0x24 PUSH1 0x0 REVERT JUMPDEST PUSH1 0x0 SWAP2 DUP3 MSTORE PUSH1 0x20 SWAP1 SWAP2 KECCAK256 PUSH1 0x3 PUSH1 0x4 SWAP1 SWAP3 MUL ADD ADD SLOAD PUSH1 0xFF AND ISZERO PUSH2 0x46A JUMPI PUSH1 0x40 MLOAD PUSH3 0x461BCD PUSH1 0xE5 SHL DUP2 MSTORE PUSH1 0x4 ADD PUSH2 0x2A5 SWAP1 PUSH2 0xCF5 JUMP JUMPDEST PUSH1 0x0 DUP4 DUP2 MSTORE PUSH1 0x4 PUSH1 0x20 SWAP1 DUP2 MSTORE PUSH1 0x40 DUP1 DUP4 KECCAK256 CALLER DUP5 MSTORE SWAP1 SWAP2 MSTORE SWAP1 KECCAK256 SLOAD PUSH1 0xFF AND PUSH2 0x4A3 JUMPI PUSH1 0x40 MLOAD PUSH3 0x461BCD PUSH1 0xE5 SHL DUP2 MSTORE PUSH1 0x4 ADD PUSH2 0x2A5 SWAP1 PUSH2 0xC22 JUMP JUMPDEST PUSH1 0x0 DUP4 DUP2 MSTORE PUSH1 0x4 PUSH1 0x20 SWAP1 DUP2 MSTORE PUSH1 0x40 DUP1 DUP4 KECCAK256 CALLER DUP1 DUP6 MSTORE SWAP3 MSTORE DUP1 DUP4 KECCAK256 DUP1 SLOAD PUSH1 0xFF NOT AND SWAP1 SSTORE MLOAD DUP6 SWAP3 PUSH32 0xEC9AB91322523C899EDE7830EC9BFC992B5981CDCC27B91162FB23DE5791117B SWAP2 LOG3 POP POP POP JUMP JUMPDEST PUSH1 0x1 PUSH1 0x20 MSTORE PUSH1 0x0 SWAP1 DUP2 MSTORE PUSH1 0x40 SWAP1 KECCAK256 SLOAD PUSH1 0xFF AND DUP2 JUMP JUMPDEST PUSH1 0x4 PUSH1 0x20 SWAP1 DUP2 MSTORE PUSH1 0x0 SWAP3 DUP4 MSTORE PUSH1 0x40 DUP1 DUP5 KECCAK256 SWAP1 SWAP2 MSTORE SWAP1 DUP3 MSTORE SWAP1 KECCAK256 SLOAD PUSH1 0xFF AND DUP2 JUMP JUMPDEST PUSH1 0x3 DUP2 DUP2 SLOAD DUP2 LT PUSH2 0x535 JUMPI PUSH1 0x0 DUP1 REVERT JUMPDEST PUSH1 0x0 SWAP2 DUP3 MSTORE PUSH1 0x20 SWAP1 SWAP2 KECCAK256 PUSH1 0x4 SWAP1 SWAP2 MUL ADD DUP1 SLOAD PUSH1 0x1 DUP3 ADD SLOAD PUSH1 0x2 DUP4 ADD DUP1 SLOAD PUSH1 0x1 PUSH1 0x1 PUSH1 0xA0 SHL SUB SWAP1 SWAP4 AND SWAP5 POP SWAP1 SWAP3 SWAP2 PUSH2 0x56B SWAP1 PUSH2 0xDB4 JUMP JUMPDEST DUP1 PUSH1 0x1F ADD PUSH1 0x20 DUP1 SWAP2 DIV MUL PUSH1 0x20 ADD PUSH1 0x40 MLOAD SWAP1 DUP2 ADD PUSH1 0x40 MSTORE DUP1 SWAP3 SWAP2 SWAP1 DUP2 DUP2 MSTORE PUSH1 0x20 ADD DUP3 DUP1 SLOAD PUSH2 0x597 SWAP1 PUSH2 0xDB4 JUMP JUMPDEST DUP1 ISZERO PUSH2 0x5E4 JUMPI DUP1 PUSH1 0x1F LT PUSH2 0x5B9 JUMPI PUSH2 0x100 DUP1 DUP4 SLOAD DIV MUL DUP4 MSTORE SWAP2 PUSH1 0x20 ADD SWAP2 PUSH2 0x5E4 JUMP JUMPDEST DUP3 ADD SWAP2 SWAP1 PUSH1 0x0 MSTORE PUSH1 0x20 PUSH1 0x0 KECCAK256 SWAP1 JUMPDEST DUP2 SLOAD DUP2 MSTORE SWAP1 PUSH1 0x1 ADD SWAP1 PUSH1 0x20 ADD DUP1 DUP4 GT PUSH2 0x5C7 JUMPI DUP3 SWAP1 SUB PUSH1 0x1F AND DUP3 ADD SWAP2 JUMPDEST POP POP POP PUSH1 0x3 SWAP1 SWAP4 ADD SLOAD SWAP2 SWAP3 POP POP PUSH1 0xFF AND DUP5 JUMP JUMPDEST CALLER PUSH1 0x0 SWAP1 DUP2 MSTORE PUSH1 0x1 PUSH1 0x20 MSTORE PUSH1 0x40 SWAP1 KECCAK256 SLOAD PUSH1 0xFF AND PUSH2 0x626 JUMPI PUSH1 0x40 MLOAD PUSH3 0x461BCD PUSH1 0xE5 SHL DUP2 MSTORE PUSH1 0x4 ADD PUSH2 0x2A5 SWAP1 PUSH2 0xD22 JUMP JUMPDEST PUSH1 0x3 SLOAD DUP2 SWAP1 DUP2 LT PUSH2 0x649 JUMPI PUSH1 0x40 MLOAD PUSH3 0x461BCD PUSH1 0xE5 SHL DUP2 MSTORE PUSH1 0x4 ADD PUSH2 0x2A5 SWAP1 PUSH2 0xC9D JUMP JUMPDEST PUSH1 0x0 DUP3 DUP2 MSTORE PUSH1 0x4 PUSH1 0x20 SWAP1 DUP2 MSTORE PUSH1 0x40 DUP1 DUP4 KECCAK256 CALLER DUP5 MSTORE SWAP1 SWAP2 MSTORE SWAP1 KECCAK256 SLOAD DUP3 SWAP1 PUSH1 0xFF AND ISZERO PUSH2 0x685 JUMPI PUSH1 0x40 MLOAD PUSH3 0x461BCD PUSH1 0xE5 SHL DUP2 MSTORE PUSH1 0x4 ADD PUSH2 0x2A5 SWAP1 PUSH2 0xCC8 JUMP JUMPDEST DUP3 PUSH1 0x3 DUP2 DUP2 SLOAD DUP2 LT PUSH2 0x6A7 JUMPI PUSH4 0x4E487B71 PUSH1 0xE0 SHL PUSH1 0x0 MSTORE PUSH1 0x32 PUSH1 0x4 MSTORE PUSH1 0x24 PUSH1 0x0 REVERT JUMPDEST PUSH1 0x0 SWAP2 DUP3 MSTORE PUSH1 0x20 SWAP1 SWAP2 KECCAK256 PUSH1 0x3 PUSH1 0x4 SWAP1 SWAP3 MUL ADD ADD SLOAD PUSH1 0xFF AND ISZERO PUSH2 0x6DB JUMPI PUSH1 0x40 MLOAD PUSH3 0x461BCD PUSH1 0xE5 SHL DUP2 MSTORE PUSH1 0x4 ADD PUSH2 0x2A5 SWAP1 PUSH2 0xCF5 JUMP JUMPDEST PUSH1 0x0 DUP5 DUP2 MSTORE PUSH1 0x4 PUSH1 0x20 SWAP1 DUP2 MSTORE PUSH1 0x40 DUP1 DUP4 KECCAK256 CALLER DUP1 DUP6 MSTORE SWAP3 MSTORE DUP1 DUP4 KECCAK256 DUP1 SLOAD PUSH1 0xFF NOT AND PUSH1 0x1 OR SWAP1 SSTORE MLOAD DUP7 SWAP3 PUSH32 0x90EC57F18FA7B15C6B8D5E4D1DEB90796C74B2FF23D4D0CECAD0CB42A96B3128 SWAP2 LOG3 POP POP POP POP JUMP JUMPDEST PUSH1 0x2 SLOAD DUP2 JUMP JUMPDEST PUSH1 0x0 DUP2 PUSH1 0x1 PUSH1 0x1 PUSH1 0xA0 SHL SUB AND CALLVALUE PUSH1 0x40 MLOAD PUSH2 0x74B SWAP1 PUSH2 0xB87 JUMP JUMPDEST PUSH1 0x0 PUSH1 0x40 MLOAD DUP1 DUP4 SUB DUP2 DUP6 DUP8 GAS CALL SWAP3 POP POP POP RETURNDATASIZE DUP1 PUSH1 0x0 DUP2 EQ PUSH2 0x788 JUMPI PUSH1 0x40 MLOAD SWAP2 POP PUSH1 0x1F NOT PUSH1 0x3F RETURNDATASIZE ADD AND DUP3 ADD PUSH1 0x40 MSTORE RETURNDATASIZE DUP3 MSTORE RETURNDATASIZE PUSH1 0x0 PUSH1 0x20 DUP5 ADD RETURNDATACOPY PUSH2 0x78D JUMP JUMPDEST PUSH1 0x60 SWAP2 POP JUMPDEST POP POP SWAP1 POP DUP1 PUSH2 0x7AE JUMPI PUSH1 0x40 MLOAD PUSH3 0x461BCD PUSH1 0xE5 SHL DUP2 MSTORE PUSH1 0x4 ADD PUSH2 0x2A5 SWAP1 PUSH2 0xD45 JUMP JUMPDEST POP POP JUMP JUMPDEST PUSH1 0x3 SLOAD DUP2 SWAP1 DUP2 LT PUSH2 0x7D5 JUMPI PUSH1 0x40 MLOAD PUSH3 0x461BCD PUSH1 0xE5 SHL DUP2 MSTORE PUSH1 0x4 ADD PUSH2 0x2A5 SWAP1 PUSH2 0xC9D JUMP JUMPDEST DUP2 PUSH1 0x3 DUP2 DUP2 SLOAD DUP2 LT PUSH2 0x7F7 JUMPI PUSH4 0x4E487B71 PUSH1 0xE0 SHL PUSH1 0x0 MSTORE PUSH1 0x32 PUSH1 0x4 MSTORE PUSH1 0x24 PUSH1 0x0 REVERT JUMPDEST PUSH1 0x0 SWAP2 DUP3 MSTORE PUSH1 0x20 SWAP1 SWAP2 KECCAK256 PUSH1 0x3 PUSH1 0x4 SWAP1 SWAP3 MUL ADD ADD SLOAD PUSH1 0xFF AND ISZERO PUSH2 0x82B JUMPI PUSH1 0x40 MLOAD PUSH3 0x461BCD PUSH1 0xE5 SHL DUP2 MSTORE PUSH1 0x4 ADD PUSH2 0x2A5 SWAP1 PUSH2 0xCF5 JUMP JUMPDEST PUSH1 0x2 SLOAD PUSH2 0x837 DUP5 PUSH2 0x950 JUMP JUMPDEST LT ISZERO PUSH2 0x855 JUMPI PUSH1 0x40 MLOAD PUSH3 0x461BCD PUSH1 0xE5 SHL DUP2 MSTORE PUSH1 0x4 ADD PUSH2 0x2A5 SWAP1 PUSH2 0xC4C JUMP JUMPDEST PUSH1 0x0 PUSH1 0x3 DUP5 DUP2 SLOAD DUP2 LT PUSH2 0x878 JUMPI PUSH4 0x4E487B71 PUSH1 0xE0 SHL PUSH1 0x0 MSTORE PUSH1 0x32 PUSH1 0x4 MSTORE PUSH1 0x24 PUSH1 0x0 REVERT JUMPDEST PUSH1 0x0 SWAP2 DUP3 MSTORE PUSH1 0x20 DUP3 KECCAK256 PUSH1 0x3 PUSH1 0x4 SWAP1 SWAP3 MUL ADD SWAP1 DUP2 ADD DUP1 SLOAD PUSH1 0xFF NOT AND PUSH1 0x1 SWAP1 DUP2 OR SWAP1 SWAP2 SSTORE DUP2 SLOAD SWAP1 DUP3 ADD SLOAD PUSH1 0x40 MLOAD SWAP3 SWAP5 POP PUSH1 0x1 PUSH1 0x1 PUSH1 0xA0 SHL SUB SWAP1 SWAP2 AND SWAP2 PUSH2 0x8BB SWAP1 PUSH2 0xB87 JUMP JUMPDEST PUSH1 0x0 PUSH1 0x40 MLOAD DUP1 DUP4 SUB DUP2 DUP6 DUP8 GAS CALL SWAP3 POP POP POP RETURNDATASIZE DUP1 PUSH1 0x0 DUP2 EQ PUSH2 0x8F8 JUMPI PUSH1 0x40 MLOAD SWAP2 POP PUSH1 0x1F NOT PUSH1 0x3F RETURNDATASIZE ADD AND DUP3 ADD PUSH1 0x40 MSTORE RETURNDATASIZE DUP3 MSTORE RETURNDATASIZE PUSH1 0x0 PUSH1 0x20 DUP5 ADD RETURNDATACOPY PUSH2 0x8FD JUMP JUMPDEST PUSH1 0x60 SWAP2 POP JUMPDEST POP POP SWAP1 POP DUP1 PUSH2 0x91E JUMPI PUSH1 0x40 MLOAD PUSH3 0x461BCD PUSH1 0xE5 SHL DUP2 MSTORE PUSH1 0x4 ADD PUSH2 0x2A5 SWAP1 PUSH2 0xC7A JUMP JUMPDEST PUSH1 0x40 MLOAD DUP6 SWAP1 PUSH32 0xDDB556F1D2C1EC821E910B019D3685B229DB152A0ECD517CA7E24B8BD7139289 SWAP1 PUSH1 0x0 SWAP1 LOG2 POP POP POP POP POP JUMP JUMPDEST PUSH1 0x0 DUP1 JUMPDEST PUSH1 0x0 SLOAD DUP2 LT ISZERO PUSH2 0x9E0 JUMPI PUSH1 0x4 PUSH1 0x0 DUP5 DUP2 MSTORE PUSH1 0x20 ADD SWAP1 DUP2 MSTORE PUSH1 0x20 ADD PUSH1 0x0 KECCAK256 PUSH1 0x0 DUP1 DUP4 DUP2 SLOAD DUP2 LT PUSH2 0x993 JUMPI PUSH4 0x4E487B71 PUSH1 0xE0 SHL PUSH1 0x0 MSTORE PUSH1 0x32 PUSH1 0x4 MSTORE PUSH1 0x24 PUSH1 0x0 REVERT JUMPDEST PUSH1 0x0 SWAP2 DUP3 MSTORE PUSH1 0x20 DUP1 DUP4 KECCAK256 SWAP1 SWAP2 ADD SLOAD PUSH1 0x1 PUSH1 0x1 PUSH1 0xA0 SHL SUB AND DUP4 MSTORE DUP3 ADD SWAP3 SWAP1 SWAP3 MSTORE PUSH1 0x40 ADD SWAP1 KECCAK256 SLOAD PUSH1 0xFF AND ISZERO PUSH2 0x9CE JUMPI PUSH2 0x9CB PUSH1 0x1 DUP4 PUSH2 0xD85 JUMP JUMPDEST SWAP2 POP JUMPDEST DUP1 PUSH2 0x9D8 DUP2 PUSH2 0xDE9 JUMP JUMPDEST SWAP2 POP POP PUSH2 0x954 JUMP JUMPDEST POP SWAP2 SWAP1 POP JUMP JUMPDEST DUP3 DUP1 SLOAD PUSH2 0x9F2 SWAP1 PUSH2 0xDB4 JUMP JUMPDEST SWAP1 PUSH1 0x0 MSTORE PUSH1 0x20 PUSH1 0x0 KECCAK256 SWAP1 PUSH1 0x1F ADD PUSH1 0x20 SWAP1 DIV DUP2 ADD SWAP3 DUP3 PUSH2 0xA14 JUMPI PUSH1 0x0 DUP6 SSTORE PUSH2 0xA5A JUMP JUMPDEST DUP3 PUSH1 0x1F LT PUSH2 0xA2D JUMPI DUP1 MLOAD PUSH1 0xFF NOT AND DUP4 DUP1 ADD OR DUP6 SSTORE PUSH2 0xA5A JUMP JUMPDEST DUP3 DUP1 ADD PUSH1 0x1 ADD DUP6 SSTORE DUP3 ISZERO PUSH2 0xA5A JUMPI SWAP2 DUP3 ADD JUMPDEST DUP3 DUP2 GT ISZERO PUSH2 0xA5A JUMPI DUP3 MLOAD DUP3 SSTORE SWAP2 PUSH1 0x20 ADD SWAP2 SWAP1 PUSH1 0x1 ADD SWAP1 PUSH2 0xA3F JUMP JUMPDEST POP PUSH2 0xA66 SWAP3 SWAP2 POP PUSH2 0xA6A JUMP JUMPDEST POP SWAP1 JUMP JUMPDEST JUMPDEST DUP1 DUP3 GT ISZERO PUSH2 0xA66 JUMPI PUSH1 0x0 DUP2 SSTORE PUSH1 0x1 ADD PUSH2 0xA6B JUMP JUMPDEST DUP1 CALLDATALOAD PUSH1 0x1 PUSH1 0x1 PUSH1 0xA0 SHL SUB DUP2 AND DUP2 EQ PUSH2 0xA96 JUMPI PUSH1 0x0 DUP1 REVERT JUMPDEST SWAP2 SWAP1 POP JUMP JUMPDEST PUSH1 0x0 PUSH1 0x20 DUP3 DUP5 SUB SLT ISZERO PUSH2 0xAAC JUMPI DUP1 DUP2 REVERT JUMPDEST PUSH2 0xAB5 DUP3 PUSH2 0xA7F JUMP JUMPDEST SWAP4 SWAP3 POP POP POP JUMP JUMPDEST PUSH1 0x0 DUP1 PUSH1 0x0 DUP1 PUSH1 0x60 DUP6 DUP8 SUB SLT ISZERO PUSH2 0xAD1 JUMPI DUP3 DUP4 REVERT JUMPDEST PUSH2 0xADA DUP6 PUSH2 0xA7F JUMP JUMPDEST SWAP4 POP PUSH1 0x20 DUP6 ADD CALLDATALOAD SWAP3 POP PUSH1 0x40 DUP6 ADD CALLDATALOAD PUSH8 0xFFFFFFFFFFFFFFFF DUP1 DUP3 GT ISZERO PUSH2 0xAFD JUMPI DUP4 DUP5 REVERT JUMPDEST DUP2 DUP8 ADD SWAP2 POP DUP8 PUSH1 0x1F DUP4 ADD SLT PUSH2 0xB10 JUMPI DUP4 DUP5 REVERT JUMPDEST DUP2 CALLDATALOAD DUP2 DUP2 GT ISZERO PUSH2 0xB1E JUMPI DUP5 DUP6 REVERT JUMPDEST DUP9 PUSH1 0x20 DUP3 DUP6 ADD ADD GT ISZERO PUSH2 0xB2F JUMPI DUP5 DUP6 REVERT JUMPDEST SWAP6 SWAP9 SWAP5 SWAP8 POP POP PUSH1 0x20 ADD SWAP5 POP POP POP JUMP JUMPDEST PUSH1 0x0 PUSH1 0x20 DUP3 DUP5 SUB SLT ISZERO PUSH2 0xB4F JUMPI DUP1 DUP2 REVERT JUMPDEST POP CALLDATALOAD SWAP2 SWAP1 POP JUMP JUMPDEST PUSH1 0x0 DUP1 PUSH1 0x40 DUP4 DUP6 SUB SLT ISZERO PUSH2 0xB68 JUMPI DUP2 DUP3 REVERT JUMPDEST DUP3 CALLDATALOAD SWAP2 POP PUSH2 0xB78 PUSH1 0x20 DUP5 ADD PUSH2 0xA7F JUMP JUMPDEST SWAP1 POP SWAP3 POP SWAP3 SWAP1 POP JUMP JUMPDEST ISZERO ISZERO SWAP1 MSTORE JUMP JUMPDEST SWAP1 JUMP JUMPDEST PUSH1 0x1 PUSH1 0x1 PUSH1 0xA0 SHL SUB SWAP2 SWAP1 SWAP2 AND DUP2 MSTORE PUSH1 0x20 ADD SWAP1 JUMP JUMPDEST PUSH1 0x0 PUSH1 0x1 DUP1 PUSH1 0xA0 SHL SUB DUP7 AND DUP3 MSTORE PUSH1 0x20 DUP6 DUP2 DUP5 ADD MSTORE PUSH1 0x80 PUSH1 0x40 DUP5 ADD MSTORE DUP5 MLOAD DUP1 PUSH1 0x80 DUP6 ADD MSTORE DUP3 JUMPDEST DUP2 DUP2 LT ISZERO PUSH2 0xBDF JUMPI DUP7 DUP2 ADD DUP4 ADD MLOAD DUP6 DUP3 ADD PUSH1 0xA0 ADD MSTORE DUP3 ADD PUSH2 0xBC3 JUMP JUMPDEST DUP2 DUP2 GT ISZERO PUSH2 0xBF0 JUMPI DUP4 PUSH1 0xA0 DUP4 DUP8 ADD ADD MSTORE JUMPDEST POP PUSH1 0x1F ADD PUSH1 0x1F NOT AND DUP4 ADD PUSH1 0xA0 ADD SWAP2 POP PUSH2 0xC0E SWAP1 POP PUSH1 0x60 DUP4 ADD DUP5 PUSH2 0xB81 JUMP JUMPDEST SWAP6 SWAP5 POP POP POP POP POP JUMP JUMPDEST SWAP1 ISZERO ISZERO DUP2 MSTORE PUSH1 0x20 ADD SWAP1 JUMP JUMPDEST PUSH1 0x20 DUP1 DUP3 MSTORE PUSH1 0x10 SWAP1 DUP3 ADD MSTORE PUSH16 0x3A3C103737BA1030B8383937BB32B21 PUSH1 0x85 SHL PUSH1 0x40 DUP3 ADD MSTORE PUSH1 0x60 ADD SWAP1 JUMP JUMPDEST PUSH1 0x20 DUP1 DUP3 MSTORE PUSH1 0x14 SWAP1 DUP3 ADD MSTORE PUSH20 0x185C1C1C9BDD985B1CC80F081C995C5D5A5C9959 PUSH1 0x62 SHL PUSH1 0x40 DUP3 ADD MSTORE PUSH1 0x60 ADD SWAP1 JUMP JUMPDEST PUSH1 0x20 DUP1 DUP3 MSTORE PUSH1 0x9 SWAP1 DUP3 ADD MSTORE PUSH9 0x1D1E0819985A5B1959 PUSH1 0xBA SHL PUSH1 0x40 DUP3 ADD MSTORE PUSH1 0x60 ADD SWAP1 JUMP JUMPDEST PUSH1 0x20 DUP1 DUP3 MSTORE PUSH1 0x11 SWAP1 DUP3 ADD MSTORE PUSH17 0x1D1E08191BD95CC81B9BDD08195E1A5CDD PUSH1 0x7A SHL PUSH1 0x40 DUP3 ADD MSTORE PUSH1 0x60 ADD SWAP1 JUMP JUMPDEST PUSH1 0x20 DUP1 DUP3 MSTORE PUSH1 0x13 SWAP1 DUP3 ADD MSTORE PUSH19 0x1D1E08185B1C9958591E48185C1C1C9BDD9959 PUSH1 0x6A SHL PUSH1 0x40 DUP3 ADD MSTORE PUSH1 0x60 ADD SWAP1 JUMP JUMPDEST PUSH1 0x20 DUP1 DUP3 MSTORE PUSH1 0x13 SWAP1 DUP3 ADD MSTORE PUSH19 0x1D1E08185B1C9958591E48195E1958DD5D1959 PUSH1 0x6A SHL PUSH1 0x40 DUP3 ADD MSTORE PUSH1 0x60 ADD SWAP1 JUMP JUMPDEST PUSH1 0x20 DUP1 DUP3 MSTORE PUSH1 0x9 SWAP1 DUP3 ADD MSTORE PUSH9 0x3737BA1037BBB732B9 PUSH1 0xB9 SHL PUSH1 0x40 DUP3 ADD MSTORE PUSH1 0x60 ADD SWAP1 JUMP JUMPDEST PUSH1 0x20 DUP1 DUP3 MSTORE PUSH1 0x18 SWAP1 DUP3 ADD MSTORE PUSH32 0x4661696C75726521204574686572206E6F742073656E642E0000000000000000 PUSH1 0x40 DUP3 ADD MSTORE PUSH1 0x60 ADD SWAP1 JUMP JUMPDEST SWAP1 DUP2 MSTORE PUSH1 0x20 ADD SWAP1 JUMP JUMPDEST PUSH1 0x0 DUP3 NOT DUP3 GT ISZERO PUSH2 0xD98 JUMPI PUSH2 0xD98 PUSH2 0xE04 JUMP JUMPDEST POP ADD SWAP1 JUMP JUMPDEST PUSH1 0x0 DUP3 DUP3 LT ISZERO PUSH2 0xDAF JUMPI PUSH2 0xDAF PUSH2 0xE04 JUMP JUMPDEST POP SUB SWAP1 JUMP JUMPDEST PUSH1 0x2 DUP2 DIV PUSH1 0x1 DUP3 AND DUP1 PUSH2 0xDC8 JUMPI PUSH1 0x7F DUP3 AND SWAP2 POP JUMPDEST PUSH1 0x20 DUP3 LT DUP2 EQ ISZERO PUSH2 0x9E0 JUMPI PUSH4 0x4E487B71 PUSH1 0xE0 SHL PUSH1 0x0 MSTORE PUSH1 0x22 PUSH1 0x4 MSTORE PUSH1 0x24 PUSH1 0x0 REVERT JUMPDEST PUSH1 0x0 PUSH1 0x0 NOT DUP3 EQ ISZERO PUSH2 0xDFD JUMPI PUSH2 0xDFD PUSH2 0xE04 JUMP JUMPDEST POP PUSH1 0x1 ADD SWAP1 JUMP JUMPDEST PUSH4 0x4E487B71 PUSH1 0xE0 SHL PUSH1 0x0 MSTORE PUSH1 0x11 PUSH1 0x4 MSTORE PUSH1 0x24 PUSH1 0x0 REVERT INVALID LOG2 PUSH5 0x6970667358 0x22 SLT KECCAK256 0xBF 0xC8 0xBC 0xBB 0xE6 0x4A 0xB7 SWAP1 CALL DUP13 POP SWAP14 PUSH12 0x5294FA1484E0B7A08234BB0E 0xEC 0xDE SLT 0xC3 PUSH24 0x50EC64736F6C634300080000330000000000000000000000 "
				},
				"gasEstimates": {
					"creation": {
						"codeDepositCost": "732800",
						"executionCost": "infinite",
						"totalCost": "infinite"
					},
					"external": {
						"approve(uint256)": "27154",
						"approved(uint256,address)": "1451",
						"call(address)": "infinite",
						"execute(uint256)": "infinite",
						"isOwner(address)": "1331",
						"owners(uint256)": "2039",
						"required()": "1072",
						"revoke(uint256)": "27160",
						"submit(address,uint256,bytes)": "infinite",
						"transactions(uint256)": "infinite"
					},
					"internal": {
						"_getApprovalCount(uint256)": "infinite"
					}
				},
				"methodIdentifiers": {
					"approve(uint256)": "b759f954",
					"approved(uint256,address)": "8253951a",
					"call(address)": "f55332ab",
					"execute(uint256)": "fe0d94c1",
					"isOwner(address)": "2f54bf6e",
					"owners(uint256)": "025e7c27",
					"required()": "dc8452cd",
					"revoke(uint256)": "20c5429b",
					"submit(address,uint256,bytes)": "14de327f",
					"transactions(uint256)": "9ace38c2"
				}
			},
			"storageLayout": {
				"storage": [
					{
						"astId": 46,
						"contract": "contracts/MultiSigWallet.sol:MultiSigWallet",
						"label": "owners",
						"offset": 0,
						"slot": "0",
						"type": "t_array(t_address)dyn_storage"
					},
					{
						"astId": 51,
						"contract": "contracts/MultiSigWallet.sol:MultiSigWallet",
						"label": "isOwner",
						"offset": 0,
						"slot": "1",
						"type": "t_mapping(t_address,t_bool)"
					},
					{
						"astId": 54,
						"contract": "contracts/MultiSigWallet.sol:MultiSigWallet",
						"label": "required",
						"offset": 0,
						"slot": "2",
						"type": "t_uint256"
					},
					{
						"astId": 59,
						"contract": "contracts/MultiSigWallet.sol:MultiSigWallet",
						"label": "transactions",
						"offset": 0,
						"slot": "3",
						"type": "t_array(t_struct(Transaction)42_storage)dyn_storage"
					},
					{
						"astId": 66,
						"contract": "contracts/MultiSigWallet.sol:MultiSigWallet",
						"label": "approved",
						"offset": 0,
						"slot": "4",
						"type": "t_mapping(t_uint256,t_mapping(t_address,t_bool))"
					}
				],
				"types": {
					"t_address": {
						"encoding": "inplace",
						"label": "address",
						"numberOfBytes": "20"
					},
					"t_array(t_address)dyn_storage": {
						"base": "t_address",
						"encoding": "dynamic_array",
						"label": "address[]",
						"numberOfBytes": "32"
					},
					"t_array(t_struct(Transaction)42_storage)dyn_storage": {
						"base": "t_struct(Transaction)42_storage",
						"encoding": "dynamic_array",
						"label": "struct MultiSigWallet.Transaction[]",
						"numberOfBytes": "32"
					},
					"t_bool": {
						"encoding": "inplace",
						"label": "bool",
						"numberOfBytes": "1"
					},
					"t_bytes_storage": {
						"encoding": "bytes",
						"label": "bytes",
						"numberOfBytes": "32"
					},
					"t_mapping(t_address,t_bool)": {
						"encoding": "mapping",
						"key": "t_address",
						"label": "mapping(address => bool)",
						"numberOfBytes": "32",
						"value": "t_bool"
					},
					"t_mapping(t_uint256,t_mapping(t_address,t_bool))": {
						"encoding": "mapping",
						"key": "t_uint256",
						"label": "mapping(uint256 => mapping(address => bool))",
						"numberOfBytes": "32",
						"value": "t_mapping(t_address,t_bool)"
					},
					"t_struct(Transaction)42_storage": {
						"encoding": "inplace",
						"label": "struct MultiSigWallet.Transaction",
						"members": [
							{
								"astId": 35,
								"contract": "contracts/MultiSigWallet.sol:MultiSigWallet",
								"label": "to",
								"offset": 0,
								"slot": "0",
								"type": "t_address"
							},
							{
								"astId": 37,
								"contract": "contracts/MultiSigWallet.sol:MultiSigWallet",
								"label": "value",
								"offset": 0,
								"slot": "1",
								"type": "t_uint256"
							},
							{
								"astId": 39,
								"contract": "contracts/MultiSigWallet.sol:MultiSigWallet",
								"label": "data",
								"offset": 0,
								"slot": "2",
								"type": "t_bytes_storage"
							},
							{
								"astId": 41,
								"contract": "contracts/MultiSigWallet.sol:MultiSigWallet",
								"label": "executed",
								"offset": 0,
								"slot": "3",
								"type": "t_bool"
							}
						],
						"numberOfBytes": "128"
					},
					"t_uint256": {
						"encoding": "inplace",
						"label": "uint256",
						"numberOfBytes": "32"
					}
				}
			},
			"userdoc": {
				"events": {
					"Approve(address,uint256)": {
						"notice": "当交易被批准时触发"
					},
					"Deposit(address,uint256)": {
						"notice": "当以太币存⼊钱包时触发"
					},
					"Execute(uint256)": {
						"notice": "当交易被执⾏时触发"
					},
					"Revoke(address,uint256)": {
						"notice": "当批准被撤销时触发"
					},
					"Submit(uint256)": {
						"notice": "当提交交易时触发"
					}
				},
				"kind": "user",
				"methods": {
					"approve(uint256)": {
						"notice": "批准交易"
					},
					"approved(uint256,address)": {
						"notice": "存储每个交易被每个所有者批准情况的映射"
					},
					"constructor": {
						"notice": "初始化所有者数组和所需的批准数"
					},
					"isOwner(address)": {
						"notice": "检查某地址是否为所有者的映射"
					},
					"owners(uint256)": {
						"notice": "存储所有者地址的数组"
					},
					"required()": {
						"notice": "执⾏交易所需的最少批准数"
					},
					"submit(address,uint256,bytes)": {
						"notice": "提交新交易"
					},
					"transactions(uint256)": {
						"notice": "存储所有交易的数组"
					}
				},
				"notice": "多签名钱包的使用场景",
				"version": 1
			}
		}
	}
}