{
	"contracts/Online/ERC20/Uni.sol": {
		"Uni": {
			"abi": [
				{
					"inputs": [
						{
							"internalType": "address",
							"name": "account",
							"type": "address"
						},
						{
							"internalType": "address",
							"name": "minter_",
							"type": "address"
						},
						{
							"internalType": "uint256",
							"name": "mintingAllowedAfter_",
							"type": "uint256"
						}
					],
					"stateMutability": "nonpayable",
					"type": "constructor"
				},
				{
					"anonymous": false,
					"inputs": [
						{
							"indexed": true,
							"internalType": "address",
							"name": "owner",
							"type": "address"
						},
						{
							"indexed": true,
							"internalType": "address",
							"name": "spender",
							"type": "address"
						},
						{
							"indexed": false,
							"internalType": "uint256",
							"name": "amount",
							"type": "uint256"
						}
					],
					"name": "Approval",
					"type": "event"
				},
				{
					"anonymous": false,
					"inputs": [
						{
							"indexed": true,
							"internalType": "address",
							"name": "delegator",
							"type": "address"
						},
						{
							"indexed": true,
							"internalType": "address",
							"name": "fromDelegate",
							"type": "address"
						},
						{
							"indexed": true,
							"internalType": "address",
							"name": "toDelegate",
							"type": "address"
						}
					],
					"name": "DelegateChanged",
					"type": "event"
				},
				{
					"anonymous": false,
					"inputs": [
						{
							"indexed": true,
							"internalType": "address",
							"name": "delegate",
							"type": "address"
						},
						{
							"indexed": false,
							"internalType": "uint256",
							"name": "previousBalance",
							"type": "uint256"
						},
						{
							"indexed": false,
							"internalType": "uint256",
							"name": "newBalance",
							"type": "uint256"
						}
					],
					"name": "DelegateVotesChanged",
					"type": "event"
				},
				{
					"anonymous": false,
					"inputs": [
						{
							"indexed": false,
							"internalType": "address",
							"name": "minter",
							"type": "address"
						},
						{
							"indexed": false,
							"internalType": "address",
							"name": "newMinter",
							"type": "address"
						}
					],
					"name": "MinterChanged",
					"type": "event"
				},
				{
					"anonymous": false,
					"inputs": [
						{
							"indexed": true,
							"internalType": "address",
							"name": "from",
							"type": "address"
						},
						{
							"indexed": true,
							"internalType": "address",
							"name": "to",
							"type": "address"
						},
						{
							"indexed": false,
							"internalType": "uint256",
							"name": "amount",
							"type": "uint256"
						}
					],
					"name": "Transfer",
					"type": "event"
				},
				{
					"inputs": [],
					"name": "DELEGATION_TYPEHASH",
					"outputs": [
						{
							"internalType": "bytes32",
							"name": "",
							"type": "bytes32"
						}
					],
					"stateMutability": "view",
					"type": "function"
				},
				{
					"inputs": [],
					"name": "DOMAIN_TYPEHASH",
					"outputs": [
						{
							"internalType": "bytes32",
							"name": "",
							"type": "bytes32"
						}
					],
					"stateMutability": "view",
					"type": "function"
				},
				{
					"inputs": [],
					"name": "PERMIT_TYPEHASH",
					"outputs": [
						{
							"internalType": "bytes32",
							"name": "",
							"type": "bytes32"
						}
					],
					"stateMutability": "view",
					"type": "function"
				},
				{
					"inputs": [
						{
							"internalType": "address",
							"name": "account",
							"type": "address"
						},
						{
							"internalType": "address",
							"name": "spender",
							"type": "address"
						}
					],
					"name": "allowance",
					"outputs": [
						{
							"internalType": "uint256",
							"name": "",
							"type": "uint256"
						}
					],
					"stateMutability": "view",
					"type": "function"
				},
				{
					"inputs": [
						{
							"internalType": "address",
							"name": "spender",
							"type": "address"
						},
						{
							"internalType": "uint256",
							"name": "rawAmount",
							"type": "uint256"
						}
					],
					"name": "approve",
					"outputs": [
						{
							"internalType": "bool",
							"name": "",
							"type": "bool"
						}
					],
					"stateMutability": "nonpayable",
					"type": "function"
				},
				{
					"inputs": [
						{
							"internalType": "address",
							"name": "account",
							"type": "address"
						}
					],
					"name": "balanceOf",
					"outputs": [
						{
							"internalType": "uint256",
							"name": "",
							"type": "uint256"
						}
					],
					"stateMutability": "view",
					"type": "function"
				},
				{
					"inputs": [
						{
							"internalType": "address",
							"name": "",
							"type": "address"
						},
						{
							"internalType": "uint32",
							"name": "",
							"type": "uint32"
						}
					],
					"name": "checkpoints",
					"outputs": [
						{
							"internalType": "uint32",
							"name": "fromBlock",
							"type": "uint32"
						},
						{
							"internalType": "uint96",
							"name": "votes",
							"type": "uint96"
						}
					],
					"stateMutability": "view",
					"type": "function"
				},
				{
					"inputs": [],
					"name": "decimals",
					"outputs": [
						{
							"internalType": "uint8",
							"name": "",
							"type": "uint8"
						}
					],
					"stateMutability": "view",
					"type": "function"
				},
				{
					"inputs": [
						{
							"internalType": "address",
							"name": "delegatee",
							"type": "address"
						}
					],
					"name": "delegate",
					"outputs": [],
					"stateMutability": "nonpayable",
					"type": "function"
				},
				{
					"inputs": [
						{
							"internalType": "address",
							"name": "delegatee",
							"type": "address"
						},
						{
							"internalType": "uint256",
							"name": "nonce",
							"type": "uint256"
						},
						{
							"internalType": "uint256",
							"name": "expiry",
							"type": "uint256"
						},
						{
							"internalType": "uint8",
							"name": "v",
							"type": "uint8"
						},
						{
							"internalType": "bytes32",
							"name": "r",
							"type": "bytes32"
						},
						{
							"internalType": "bytes32",
							"name": "s",
							"type": "bytes32"
						}
					],
					"name": "delegateBySig",
					"outputs": [],
					"stateMutability": "nonpayable",
					"type": "function"
				},
				{
					"inputs": [
						{
							"internalType": "address",
							"name": "",
							"type": "address"
						}
					],
					"name": "delegates",
					"outputs": [
						{
							"internalType": "address",
							"name": "",
							"type": "address"
						}
					],
					"stateMutability": "view",
					"type": "function"
				},
				{
					"inputs": [
						{
							"internalType": "address",
							"name": "account",
							"type": "address"
						}
					],
					"name": "getCurrentVotes",
					"outputs": [
						{
							"internalType": "uint96",
							"name": "",
							"type": "uint96"
						}
					],
					"stateMutability": "view",
					"type": "function"
				},
				{
					"inputs": [
						{
							"internalType": "address",
							"name": "account",
							"type": "address"
						},
						{
							"internalType": "uint256",
							"name": "blockNumber",
							"type": "uint256"
						}
					],
					"name": "getPriorVotes",
					"outputs": [
						{
							"internalType": "uint96",
							"name": "",
							"type": "uint96"
						}
					],
					"stateMutability": "view",
					"type": "function"
				},
				{
					"inputs": [],
					"name": "minimumTimeBetweenMints",
					"outputs": [
						{
							"internalType": "uint32",
							"name": "",
							"type": "uint32"
						}
					],
					"stateMutability": "view",
					"type": "function"
				},
				{
					"inputs": [
						{
							"internalType": "address",
							"name": "dst",
							"type": "address"
						},
						{
							"internalType": "uint256",
							"name": "rawAmount",
							"type": "uint256"
						}
					],
					"name": "mint",
					"outputs": [],
					"stateMutability": "nonpayable",
					"type": "function"
				},
				{
					"inputs": [],
					"name": "mintCap",
					"outputs": [
						{
							"internalType": "uint8",
							"name": "",
							"type": "uint8"
						}
					],
					"stateMutability": "view",
					"type": "function"
				},
				{
					"inputs": [],
					"name": "minter",
					"outputs": [
						{
							"internalType": "address",
							"name": "",
							"type": "address"
						}
					],
					"stateMutability": "view",
					"type": "function"
				},
				{
					"inputs": [],
					"name": "mintingAllowedAfter",
					"outputs": [
						{
							"internalType": "uint256",
							"name": "",
							"type": "uint256"
						}
					],
					"stateMutability": "view",
					"type": "function"
				},
				{
					"inputs": [],
					"name": "name",
					"outputs": [
						{
							"internalType": "string",
							"name": "",
							"type": "string"
						}
					],
					"stateMutability": "view",
					"type": "function"
				},
				{
					"inputs": [
						{
							"internalType": "address",
							"name": "",
							"type": "address"
						}
					],
					"name": "nonces",
					"outputs": [
						{
							"internalType": "uint256",
							"name": "",
							"type": "uint256"
						}
					],
					"stateMutability": "view",
					"type": "function"
				},
				{
					"inputs": [
						{
							"internalType": "address",
							"name": "",
							"type": "address"
						}
					],
					"name": "numCheckpoints",
					"outputs": [
						{
							"internalType": "uint32",
							"name": "",
							"type": "uint32"
						}
					],
					"stateMutability": "view",
					"type": "function"
				},
				{
					"inputs": [
						{
							"internalType": "address",
							"name": "owner",
							"type": "address"
						},
						{
							"internalType": "address",
							"name": "spender",
							"type": "address"
						},
						{
							"internalType": "uint256",
							"name": "rawAmount",
							"type": "uint256"
						},
						{
							"internalType": "uint256",
							"name": "deadline",
							"type": "uint256"
						},
						{
							"internalType": "uint8",
							"name": "v",
							"type": "uint8"
						},
						{
							"internalType": "bytes32",
							"name": "r",
							"type": "bytes32"
						},
						{
							"internalType": "bytes32",
							"name": "s",
							"type": "bytes32"
						}
					],
					"name": "permit",
					"outputs": [],
					"stateMutability": "nonpayable",
					"type": "function"
				},
				{
					"inputs": [
						{
							"internalType": "address",
							"name": "minter_",
							"type": "address"
						}
					],
					"name": "setMinter",
					"outputs": [],
					"stateMutability": "nonpayable",
					"type": "function"
				},
				{
					"inputs": [],
					"name": "symbol",
					"outputs": [
						{
							"internalType": "string",
							"name": "",
							"type": "string"
						}
					],
					"stateMutability": "view",
					"type": "function"
				},
				{
					"inputs": [],
					"name": "totalSupply",
					"outputs": [
						{
							"internalType": "uint256",
							"name": "",
							"type": "uint256"
						}
					],
					"stateMutability": "view",
					"type": "function"
				},
				{
					"inputs": [
						{
							"internalType": "address",
							"name": "dst",
							"type": "address"
						},
						{
							"internalType": "uint256",
							"name": "rawAmount",
							"type": "uint256"
						}
					],
					"name": "transfer",
					"outputs": [
						{
							"internalType": "bool",
							"name": "",
							"type": "bool"
						}
					],
					"stateMutability": "nonpayable",
					"type": "function"
				},
				{
					"inputs": [
						{
							"internalType": "address",
							"name": "src",
							"type": "address"
						},
						{
							"internalType": "address",
							"name": "dst",
							"type": "address"
						},
						{
							"internalType": "uint256",
							"name": "rawAmount",
							"type": "uint256"
						}
					],
					"name": "transferFrom",
					"outputs": [
						{
							"internalType": "bool",
							"name": "",
							"type": "bool"
						}
					],
					"stateMutability": "nonpayable",
					"type": "function"
				}
			],
			"devdoc": {
				"kind": "dev",
				"methods": {
					"allowance(address,address)": {
						"params": {
							"account": "The address of the account holding the funds",
							"spender": "The address of the account spending the funds"
						},
						"returns": {
							"_0": "The number of tokens approved"
						}
					},
					"approve(address,uint256)": {
						"details": "This will overwrite the approval amount for `spender`  and is subject to issues noted [here](https://eips.ethereum.org/EIPS/eip-20#approve)",
						"params": {
							"rawAmount": "The number of tokens that are approved (2^256-1 means infinite)",
							"spender": "The address of the account which may transfer tokens"
						},
						"returns": {
							"_0": "Whether or not the approval succeeded"
						}
					},
					"balanceOf(address)": {
						"params": {
							"account": "The address of the account to get the balance of"
						},
						"returns": {
							"_0": "The number of tokens held"
						}
					},
					"constructor": {
						"params": {
							"account": "The initial account to grant all the tokens",
							"minter_": "The account with minting ability",
							"mintingAllowedAfter_": "The timestamp after which minting may occur"
						}
					},
					"delegate(address)": {
						"params": {
							"delegatee": "The address to delegate votes to"
						}
					},
					"delegateBySig(address,uint256,uint256,uint8,bytes32,bytes32)": {
						"params": {
							"delegatee": "The address to delegate votes to",
							"expiry": "The time at which to expire the signature",
							"nonce": "The contract state required to match the signature",
							"r": "Half of the ECDSA signature pair",
							"s": "Half of the ECDSA signature pair",
							"v": "The recovery byte of the signature"
						}
					},
					"getCurrentVotes(address)": {
						"params": {
							"account": "The address to get votes balance"
						},
						"returns": {
							"_0": "The number of current votes for `account`"
						}
					},
					"getPriorVotes(address,uint256)": {
						"details": "Block number must be a finalized block or else this function will revert to prevent misinformation.",
						"params": {
							"account": "The address of the account to check",
							"blockNumber": "The block number to get the vote balance at"
						},
						"returns": {
							"_0": "The number of votes the account had as of the given block"
						}
					},
					"mint(address,uint256)": {
						"params": {
							"dst": "The address of the destination account",
							"rawAmount": "The number of tokens to be minted"
						}
					},
					"permit(address,address,uint256,uint256,uint8,bytes32,bytes32)": {
						"params": {
							"deadline": "The time at which to expire the signature",
							"owner": "The address to approve from",
							"r": "Half of the ECDSA signature pair",
							"rawAmount": "The number of tokens that are approved (2^256-1 means infinite)",
							"s": "Half of the ECDSA signature pair",
							"spender": "The address to be approved",
							"v": "The recovery byte of the signature"
						}
					},
					"setMinter(address)": {
						"params": {
							"minter_": "The address of the new minter"
						}
					},
					"transfer(address,uint256)": {
						"params": {
							"dst": "The address of the destination account",
							"rawAmount": "The number of tokens to transfer"
						},
						"returns": {
							"_0": "Whether or not the transfer succeeded"
						}
					},
					"transferFrom(address,address,uint256)": {
						"params": {
							"dst": "The address of the destination account",
							"rawAmount": "The number of tokens to transfer",
							"src": "The address of the source account"
						},
						"returns": {
							"_0": "Whether or not the transfer succeeded"
						}
					}
				},
				"version": 1
			},
			"evm": {
				"assembly": "    /* \"contracts/Online/ERC20/Uni.sol\":6732:25451  contract Uni {... */\n  mstore(0x40, 0x80)\n    /* \"contracts/Online/ERC20/Uni.sol\":7119:7135  1_000_000_000e18 */\n  0x033b2e3c9fd0803ce8000000\n    /* \"contracts/Online/ERC20/Uni.sol\":7090:7135  uint256 public totalSupply = 1_000_000_000e18 */\n  0x00\n  sstore\n    /* \"contracts/Online/ERC20/Uni.sol\":10276:10782  constructor(... */\n  callvalue\n  dup1\n  iszero\n  tag_1\n  jumpi\n  0x00\n  dup1\n  revert\ntag_1:\n  pop\n  mload(0x40)\n  sub(codesize, bytecodeSize)\n  dup1\n  bytecodeSize\n  dup4\n  codecopy\n  dup2\n  add\n  0x40\n  dup2\n  swap1\n  mstore\n  tag_2\n  swap2\n  tag_3\n  jump\t// in\ntag_2:\n    /* \"contracts/Online/ERC20/Uni.sol\":10444:10459  block.timestamp */\n  timestamp\n    /* \"contracts/Online/ERC20/Uni.sol\":10420:10440  mintingAllowedAfter_ */\n  dup2\n    /* \"contracts/Online/ERC20/Uni.sol\":10420:10459  mintingAllowedAfter_ >= block.timestamp */\n  lt\n  iszero\n    /* \"contracts/Online/ERC20/Uni.sol\":10399:10542  require(... */\n  tag_6\n  jumpi\n  mload(0x40)\n  shl(0xe5, 0x461bcd)\n  dup2\n  mstore\n    /* \"#utility.yul\":757:759   */\n  0x20\n    /* \"contracts/Online/ERC20/Uni.sol\":10399:10542  require(... */\n  0x04\n  dup3\n  add\n    /* \"#utility.yul\":739:760   */\n  mstore\n    /* \"#utility.yul\":796:798   */\n  0x39\n    /* \"#utility.yul\":776:794   */\n  0x24\n  dup3\n  add\n    /* \"#utility.yul\":769:799   */\n  mstore\n    /* \"#utility.yul\":835:869   */\n  0x556e693a3a636f6e7374727563746f723a206d696e74696e672063616e206f6e\n    /* \"#utility.yul\":815:833   */\n  0x44\n  dup3\n  add\n    /* \"#utility.yul\":808:870   */\n  mstore\n    /* \"#utility.yul\":906:933   */\n  0x6c7920626567696e206166746572206465706c6f796d656e7400000000000000\n    /* \"#utility.yul\":886:904   */\n  0x64\n  dup3\n  add\n    /* \"#utility.yul\":879:934   */\n  mstore\n    /* \"#utility.yul\":951:970   */\n  0x84\n  add\n    /* \"contracts/Online/ERC20/Uni.sol\":10399:10542  require(... */\n  mload(0x40)\n  dup1\n  swap2\n  sub\n  swap1\n  revert\ntag_6:\n    /* \"contracts/Online/ERC20/Uni.sol\":10580:10591  totalSupply */\n  0x00\n  dup1\n  sload\n  sub(shl(0xa0, 0x01), 0x01)\n    /* \"contracts/Online/ERC20/Uni.sol\":10553:10570  balances[account] */\n  dup6\n  and\n  dup1\n  dup4\n  mstore\n    /* \"contracts/Online/ERC20/Uni.sol\":10553:10561  balances */\n  0x04\n    /* \"contracts/Online/ERC20/Uni.sol\":10553:10570  balances[account] */\n  0x20\n  swap1\n  dup2\n  mstore\n  0x40\n  dup1\n  dup6\n  keccak256\n    /* \"contracts/Online/ERC20/Uni.sol\":10553:10592  balances[account] = uint96(totalSupply) */\n  dup1\n  sload\n  not(sub(shl(0x60, 0x01), 0x01))\n  and\n  sub(shl(0x60, 0x01), 0x01)\n  swap1\n  swap6\n  and\n  swap5\n  swap1\n  swap5\n  or\n  swap1\n  swap4\n  sstore\n    /* \"contracts/Online/ERC20/Uni.sol\":10637:10648  totalSupply */\n  dup4\n  sload\n    /* \"contracts/Online/ERC20/Uni.sol\":10607:10649  Transfer(address(0), account, totalSupply) */\n  swap3\n  mload\n    /* \"#utility.yul\":1127:1152   */\n  swap3\n  dup4\n  mstore\n    /* \"contracts/Online/ERC20/Uni.sol\":10553:10570  balances[account] */\n  swap1\n  swap3\n    /* \"contracts/Online/ERC20/Uni.sol\":10580:10591  totalSupply */\n  swap2\n    /* \"contracts/Online/ERC20/Uni.sol\":10607:10649  Transfer(address(0), account, totalSupply) */\n  0xddf252ad1be2c89b69c2b068fc378daa952ba7f163c4a11628f55a4df523b3ef\n  swap2\n    /* \"#utility.yul\":1100:1118   */\n  add\n    /* \"contracts/Online/ERC20/Uni.sol\":10607:10649  Transfer(address(0), account, totalSupply) */\n  mload(0x40)\n  dup1\n  swap2\n  sub\n  swap1\n  log3\n    /* \"contracts/Online/ERC20/Uni.sol\":10659:10665  minter */\n  0x01\n    /* \"contracts/Online/ERC20/Uni.sol\":10659:10675  minter = minter_ */\n  dup1\n  sload\n  not(sub(shl(0xa0, 0x01), 0x01))\n  and\n  sub(shl(0xa0, 0x01), 0x01)\n  dup5\n  and\n  swap1\n  dup2\n  or\n  swap1\n  swap2\n  sstore\n    /* \"contracts/Online/ERC20/Uni.sol\":10690:10723  MinterChanged(address(0), minter) */\n  0x40\n  dup1\n  mload\n  0x00\n    /* \"#utility.yul\":1337:1388   */\n  dup2\n  mstore\n    /* \"#utility.yul\":1419:1421   */\n  0x20\n    /* \"#utility.yul\":1404:1422   */\n  dup2\n  add\n    /* \"#utility.yul\":1397:1457   */\n  swap3\n  swap1\n  swap3\n  mstore\n    /* \"contracts/Online/ERC20/Uni.sol\":10690:10723  MinterChanged(address(0), minter) */\n  0x3b0007eb941cf645526cbb3a4fdaecda9d28ce4843167d9263b536a1f1edc0f6\n  swap2\n    /* \"#utility.yul\":1310:1328   */\n  add\n    /* \"contracts/Online/ERC20/Uni.sol\":10690:10723  MinterChanged(address(0), minter) */\n  mload(0x40)\n  dup1\n  swap2\n  sub\n  swap1\n  log1\n    /* \"contracts/Online/ERC20/Uni.sol\":10733:10752  mintingAllowedAfter */\n  0x02\n    /* \"contracts/Online/ERC20/Uni.sol\":10733:10775  mintingAllowedAfter = mintingAllowedAfter_ */\n  sstore\n  pop\n    /* \"contracts/Online/ERC20/Uni.sol\":6732:25451  contract Uni {... */\n  tag_15\n  swap1\n  pop\n  jump\n    /* \"#utility.yul\":14:191   */\ntag_14:\n    /* \"#utility.yul\":93:106   */\n  dup1\n  mload\n  sub(shl(0xa0, 0x01), 0x01)\n    /* \"#utility.yul\":135:166   */\n  dup2\n  and\n    /* \"#utility.yul\":125:167   */\n  dup2\n  eq\n    /* \"#utility.yul\":115:185   */\n  tag_17\n  jumpi\n    /* \"#utility.yul\":181:182   */\n  0x00\n    /* \"#utility.yul\":178:179   */\n  dup1\n    /* \"#utility.yul\":171:183   */\n  revert\n    /* \"#utility.yul\":115:185   */\ntag_17:\n    /* \"#utility.yul\":14:191   */\n  swap2\n  swap1\n  pop\n  jump\t// out\n    /* \"#utility.yul\":196:550   */\ntag_3:\n    /* \"#utility.yul\":284:290   */\n  0x00\n    /* \"#utility.yul\":292:298   */\n  dup1\n    /* \"#utility.yul\":300:306   */\n  0x00\n    /* \"#utility.yul\":353:355   */\n  0x60\n    /* \"#utility.yul\":341:350   */\n  dup5\n    /* \"#utility.yul\":332:339   */\n  dup7\n    /* \"#utility.yul\":328:351   */\n  sub\n    /* \"#utility.yul\":324:356   */\n  slt\n    /* \"#utility.yul\":321:373   */\n  iszero\n  tag_19\n  jumpi\n    /* \"#utility.yul\":369:370   */\n  0x00\n    /* \"#utility.yul\":366:367   */\n  dup1\n    /* \"#utility.yul\":359:371   */\n  revert\n    /* \"#utility.yul\":321:373   */\ntag_19:\n    /* \"#utility.yul\":392:432   */\n  tag_20\n    /* \"#utility.yul\":422:431   */\n  dup5\n    /* \"#utility.yul\":392:432   */\n  tag_14\n  jump\t// in\ntag_20:\n    /* \"#utility.yul\":382:432   */\n  swap3\n  pop\n    /* \"#utility.yul\":451:500   */\n  tag_21\n    /* \"#utility.yul\":496:498   */\n  0x20\n    /* \"#utility.yul\":485:494   */\n  dup6\n    /* \"#utility.yul\":481:499   */\n  add\n    /* \"#utility.yul\":451:500   */\n  tag_14\n  jump\t// in\ntag_21:\n    /* \"#utility.yul\":441:500   */\n  swap2\n  pop\n    /* \"#utility.yul\":540:542   */\n  0x40\n    /* \"#utility.yul\":529:538   */\n  dup5\n    /* \"#utility.yul\":525:543   */\n  add\n    /* \"#utility.yul\":519:544   */\n  mload\n    /* \"#utility.yul\":509:544   */\n  swap1\n  pop\n    /* \"#utility.yul\":196:550   */\n  swap3\n  pop\n  swap3\n  pop\n  swap3\n  jump\t// out\n    /* \"#utility.yul\":1163:1463   */\ntag_15:\n    /* \"contracts/Online/ERC20/Uni.sol\":6732:25451  contract Uni {... */\n  dataSize(sub_0)\n  dup1\n  dataOffset(sub_0)\n  0x00\n  codecopy\n  0x00\n  return\nstop\n\nsub_0: assembly {\n        /* \"contracts/Online/ERC20/Uni.sol\":6732:25451  contract Uni {... */\n      mstore(0x40, 0x80)\n      callvalue\n      dup1\n      iszero\n      tag_1\n      jumpi\n      0x00\n      dup1\n      revert\n    tag_1:\n      pop\n      jumpi(tag_2, lt(calldatasize, 0x04))\n      shr(0xe0, calldataload(0x00))\n      dup1\n      0x6fcfff45\n      gt\n      tag_30\n      jumpi\n      dup1\n      0xb4b5ea57\n      gt\n      tag_31\n      jumpi\n      dup1\n      0xdd62ed3e\n      gt\n      tag_32\n      jumpi\n      dup1\n      0xdd62ed3e\n      eq\n      tag_26\n      jumpi\n      dup1\n      0xe7a324dc\n      eq\n      tag_27\n      jumpi\n      dup1\n      0xf1127ed8\n      eq\n      tag_28\n      jumpi\n      dup1\n      0xfca3b5aa\n      eq\n      tag_29\n      jumpi\n      0x00\n      dup1\n      revert\n    tag_32:\n      dup1\n      0xb4b5ea57\n      eq\n      tag_23\n      jumpi\n      dup1\n      0xc3cda520\n      eq\n      tag_24\n      jumpi\n      dup1\n      0xd505accf\n      eq\n      tag_25\n      jumpi\n      0x00\n      dup1\n      revert\n    tag_31:\n      dup1\n      0x782d6fe1\n      gt\n      tag_33\n      jumpi\n      dup1\n      0x782d6fe1\n      eq\n      tag_19\n      jumpi\n      dup1\n      0x7ecebe00\n      eq\n      tag_20\n      jumpi\n      dup1\n      0x95d89b41\n      eq\n      tag_21\n      jumpi\n      dup1\n      0xa9059cbb\n      eq\n      tag_22\n      jumpi\n      0x00\n      dup1\n      revert\n    tag_33:\n      dup1\n      0x6fcfff45\n      eq\n      tag_16\n      jumpi\n      dup1\n      0x70a08231\n      eq\n      tag_17\n      jumpi\n      dup1\n      0x76c71ca1\n      eq\n      tag_18\n      jumpi\n      0x00\n      dup1\n      revert\n    tag_30:\n      dup1\n      0x30adf81f\n      gt\n      tag_34\n      jumpi\n      dup1\n      0x40c10f19\n      gt\n      tag_35\n      jumpi\n      dup1\n      0x40c10f19\n      eq\n      tag_12\n      jumpi\n      dup1\n      0x587cde1e\n      eq\n      tag_13\n      jumpi\n      dup1\n      0x5c11d62f\n      eq\n      tag_14\n      jumpi\n      dup1\n      0x5c19a95c\n      eq\n      tag_15\n      jumpi\n      0x00\n      dup1\n      revert\n    tag_35:\n      dup1\n      0x30adf81f\n      eq\n      tag_9\n      jumpi\n      dup1\n      0x30b36cef\n      eq\n      tag_10\n      jumpi\n      dup1\n      0x313ce567\n      eq\n      tag_11\n      jumpi\n      0x00\n      dup1\n      revert\n    tag_34:\n      dup1\n      0x06fdde03\n      eq\n      tag_3\n      jumpi\n      dup1\n      0x07546172\n      eq\n      tag_4\n      jumpi\n      dup1\n      0x095ea7b3\n      eq\n      tag_5\n      jumpi\n      dup1\n      0x18160ddd\n      eq\n      tag_6\n      jumpi\n      dup1\n      0x20606b70\n      eq\n      tag_7\n      jumpi\n      dup1\n      0x23b872dd\n      eq\n      tag_8\n      jumpi\n    tag_2:\n      0x00\n      dup1\n      revert\n        /* \"contracts/Online/ERC20/Uni.sol\":6800:6839  string public constant name = \"Uniswap\" */\n    tag_3:\n      tag_36\n      mload(0x40)\n      dup1\n      0x40\n      add\n      0x40\n      mstore\n      dup1\n      0x07\n      dup2\n      mstore\n      0x20\n      add\n      shl(0xcc, 0x0556e697377617)\n      dup2\n      mstore\n      pop\n      dup2\n      jump\n    tag_36:\n      mload(0x40)\n      tag_38\n      swap2\n      swap1\n      tag_39\n      jump\t// in\n    tag_38:\n      mload(0x40)\n      dup1\n      swap2\n      sub\n      swap1\n      return\n        /* \"contracts/Online/ERC20/Uni.sol\":7209:7230  address public minter */\n    tag_4:\n      sload(0x01)\n      tag_40\n      swap1\n      sub(shl(0xa0, 0x01), 0x01)\n      and\n      dup2\n      jump\n    tag_40:\n      mload(0x40)\n      sub(shl(0xa0, 0x01), 0x01)\n        /* \"#utility.yul\":601:633   */\n      swap1\n      swap2\n      and\n        /* \"#utility.yul\":583:634   */\n      dup2\n      mstore\n        /* \"#utility.yul\":571:573   */\n      0x20\n        /* \"#utility.yul\":556:574   */\n      add\n        /* \"contracts/Online/ERC20/Uni.sol\":7209:7230  address public minter */\n      tag_38\n        /* \"#utility.yul\":437:640   */\n      jump\n        /* \"contracts/Online/ERC20/Uni.sol\":13513:13849  function approve(address spender, uint256 rawAmount)... */\n    tag_5:\n      tag_44\n      tag_45\n      calldatasize\n      0x04\n      tag_46\n      jump\t// in\n    tag_45:\n      tag_47\n      jump\t// in\n    tag_44:\n      mload(0x40)\n        /* \"#utility.yul\":1293:1307   */\n      swap1\n      iszero\n        /* \"#utility.yul\":1286:1308   */\n      iszero\n        /* \"#utility.yul\":1268:1309   */\n      dup2\n      mstore\n        /* \"#utility.yul\":1256:1258   */\n      0x20\n        /* \"#utility.yul\":1241:1259   */\n      add\n        /* \"contracts/Online/ERC20/Uni.sol\":13513:13849  function approve(address spender, uint256 rawAmount)... */\n      tag_38\n        /* \"#utility.yul\":1128:1315   */\n      jump\n        /* \"contracts/Online/ERC20/Uni.sol\":7090:7135  uint256 public totalSupply = 1_000_000_000e18 */\n    tag_6:\n      tag_50\n      sload(0x00)\n      dup2\n      jump\n    tag_50:\n      mload(0x40)\n        /* \"#utility.yul\":1466:1491   */\n      swap1\n      dup2\n      mstore\n        /* \"#utility.yul\":1454:1456   */\n      0x20\n        /* \"#utility.yul\":1439:1457   */\n      add\n        /* \"contracts/Online/ERC20/Uni.sol\":7090:7135  uint256 public totalSupply = 1_000_000_000e18 */\n      tag_38\n        /* \"#utility.yul\":1320:1497   */\n      jump\n        /* \"contracts/Online/ERC20/Uni.sol\":8401:8553  bytes32 public constant DOMAIN_TYPEHASH =... */\n    tag_7:\n      tag_50\n        /* \"contracts/Online/ERC20/Uni.sol\":8451:8553  keccak256(... */\n      0x8cad95687ba82c2ce50e74f7b754645e5117c3a5bec8151c0726d5857980a866\n        /* \"contracts/Online/ERC20/Uni.sol\":8401:8553  bytes32 public constant DOMAIN_TYPEHASH =... */\n      dup2\n      jump\n        /* \"contracts/Online/ERC20/Uni.sol\":16733:17485  function transferFrom(... */\n    tag_8:\n      tag_44\n      tag_59\n      calldatasize\n      0x04\n      tag_60\n      jump\t// in\n    tag_59:\n      tag_61\n      jump\t// in\n        /* \"contracts/Online/ERC20/Uni.sol\":8856:9023  bytes32 public constant PERMIT_TYPEHASH =... */\n    tag_9:\n      tag_50\n        /* \"contracts/Online/ERC20/Uni.sol\":8906:9023  keccak256(... */\n      0x6e71edae12b1b97f4d1f60370fef10105fa2faae0126114a169c64845d6126c9\n        /* \"contracts/Online/ERC20/Uni.sol\":8856:9023  bytes32 public constant PERMIT_TYPEHASH =... */\n      dup2\n      jump\n        /* \"contracts/Online/ERC20/Uni.sol\":7297:7331  uint256 public mintingAllowedAfter */\n    tag_10:\n      tag_50\n      sload(0x02)\n      dup2\n      jump\n        /* \"contracts/Online/ERC20/Uni.sol\":6994:7029  uint8 public constant decimals = 18 */\n    tag_11:\n      tag_69\n        /* \"contracts/Online/ERC20/Uni.sol\":7027:7029  18 */\n      0x12\n        /* \"contracts/Online/ERC20/Uni.sol\":6994:7029  uint8 public constant decimals = 18 */\n      dup2\n      jump\n    tag_69:\n      mload(0x40)\n        /* \"#utility.yul\":2235:2239   */\n      0xff\n        /* \"#utility.yul\":2223:2240   */\n      swap1\n      swap2\n      and\n        /* \"#utility.yul\":2205:2241   */\n      dup2\n      mstore\n        /* \"#utility.yul\":2193:2195   */\n      0x20\n        /* \"#utility.yul\":2178:2196   */\n      add\n        /* \"contracts/Online/ERC20/Uni.sol\":6994:7029  uint8 public constant decimals = 18 */\n      tag_38\n        /* \"#utility.yul\":2063:2247   */\n      jump\n        /* \"contracts/Online/ERC20/Uni.sol\":11326:12584  function mint(address dst, uint256 rawAmount) external {... */\n    tag_12:\n      tag_73\n      tag_74\n      calldatasize\n      0x04\n      tag_46\n      jump\t// in\n    tag_74:\n      tag_75\n      jump\t// in\n    tag_73:\n      stop\n        /* \"contracts/Online/ERC20/Uni.sol\":7870:7914  mapping(address => address) public delegates */\n    tag_13:\n      tag_40\n      tag_77\n      calldatasize\n      0x04\n      tag_78\n      jump\t// in\n    tag_77:\n      mstore(0x20, 0x05)\n      0x00\n      swap1\n      dup2\n      mstore\n      0x40\n      swap1\n      keccak256\n      sload\n      sub(shl(0xa0, 0x01), 0x01)\n      and\n      dup2\n      jump\n        /* \"contracts/Online/ERC20/Uni.sol\":7381:7442  uint32 public constant minimumTimeBetweenMints = 1 days * 365 */\n    tag_14:\n      tag_81\n        /* \"contracts/Online/ERC20/Uni.sol\":7430:7442  1 days * 365 */\n      0x01e13380\n        /* \"contracts/Online/ERC20/Uni.sol\":7381:7442  uint32 public constant minimumTimeBetweenMints = 1 days * 365 */\n      dup2\n      jump\n    tag_81:\n      mload(0x40)\n        /* \"#utility.yul\":2617:2627   */\n      0xffffffff\n        /* \"#utility.yul\":2605:2628   */\n      swap1\n      swap2\n      and\n        /* \"#utility.yul\":2587:2629   */\n      dup2\n      mstore\n        /* \"#utility.yul\":2575:2577   */\n      0x20\n        /* \"#utility.yul\":2560:2578   */\n      add\n        /* \"contracts/Online/ERC20/Uni.sol\":7381:7442  uint32 public constant minimumTimeBetweenMints = 1 days * 365 */\n      tag_38\n        /* \"#utility.yul\":2443:2635   */\n      jump\n        /* \"contracts/Online/ERC20/Uni.sol\":17627:17727  function delegate(address delegatee) public {... */\n    tag_15:\n      tag_73\n      tag_86\n      calldatasize\n      0x04\n      tag_78\n      jump\t// in\n    tag_86:\n      tag_87\n      jump\t// in\n        /* \"contracts/Online/ERC20/Uni.sol\":8283:8331  mapping(address => uint32) public numCheckpoints */\n    tag_16:\n      tag_81\n      tag_89\n      calldatasize\n      0x04\n      tag_78\n      jump\t// in\n    tag_89:\n      mstore(0x20, 0x07)\n      0x00\n      swap1\n      dup2\n      mstore\n      0x40\n      swap1\n      keccak256\n      sload\n      0xffffffff\n      and\n      dup2\n      jump\n        /* \"contracts/Online/ERC20/Uni.sol\":15797:15906  function balanceOf(address account) external view returns (uint256) {... */\n    tag_17:\n      tag_50\n      tag_93\n      calldatasize\n      0x04\n      tag_78\n      jump\t// in\n    tag_93:\n      sub(shl(0xa0, 0x01), 0x01)\n        /* \"contracts/Online/ERC20/Uni.sol\":15882:15899  balances[account] */\n      and\n        /* \"contracts/Online/ERC20/Uni.sol\":15856:15863  uint256 */\n      0x00\n        /* \"contracts/Online/ERC20/Uni.sol\":15882:15899  balances[account] */\n      swap1\n      dup2\n      mstore\n        /* \"contracts/Online/ERC20/Uni.sol\":15882:15890  balances */\n      0x04\n        /* \"contracts/Online/ERC20/Uni.sol\":15882:15899  balances[account] */\n      0x20\n      mstore\n      0x40\n      swap1\n      keccak256\n      sload\n      sub(shl(0x60, 0x01), 0x01)\n      and\n      swap1\n        /* \"contracts/Online/ERC20/Uni.sol\":15797:15906  function balanceOf(address account) external view returns (uint256) {... */\n      jump\n        /* \"contracts/Online/ERC20/Uni.sol\":7534:7567  uint8 public constant mintCap = 2 */\n    tag_18:\n      tag_69\n        /* \"contracts/Online/ERC20/Uni.sol\":7566:7567  2 */\n      0x02\n        /* \"contracts/Online/ERC20/Uni.sol\":7534:7567  uint8 public constant mintCap = 2 */\n      dup2\n      jump\n        /* \"contracts/Online/ERC20/Uni.sol\":20058:21308  function getPriorVotes(address account, uint256 blockNumber)... */\n    tag_19:\n      tag_99\n      tag_100\n      calldatasize\n      0x04\n      tag_46\n      jump\t// in\n    tag_100:\n      tag_101\n      jump\t// in\n    tag_99:\n      mload(0x40)\n      sub(shl(0x60, 0x01), 0x01)\n        /* \"#utility.yul\":2802:2841   */\n      swap1\n      swap2\n      and\n        /* \"#utility.yul\":2784:2842   */\n      dup2\n      mstore\n        /* \"#utility.yul\":2772:2774   */\n      0x20\n        /* \"#utility.yul\":2757:2775   */\n      add\n        /* \"contracts/Online/ERC20/Uni.sol\":20058:21308  function getPriorVotes(address account, uint256 blockNumber)... */\n      tag_38\n        /* \"#utility.yul\":2640:2848   */\n      jump\n        /* \"contracts/Online/ERC20/Uni.sol\":9101:9142  mapping(address => uint256) public nonces */\n    tag_20:\n      tag_50\n      tag_105\n      calldatasize\n      0x04\n      tag_78\n      jump\t// in\n    tag_105:\n      mstore(0x20, 0x08)\n      0x00\n      swap1\n      dup2\n      mstore\n      0x40\n      swap1\n      keccak256\n      sload\n      dup2\n      jump\n        /* \"contracts/Online/ERC20/Uni.sol\":6897:6934  string public constant symbol = \"UNI\" */\n    tag_21:\n      tag_36\n      mload(0x40)\n      dup1\n      0x40\n      add\n      0x40\n      mstore\n      dup1\n      0x03\n      dup2\n      mstore\n      0x20\n      add\n      shl(0xe8, 0x554e49)\n      dup2\n      mstore\n      pop\n      dup2\n      jump\n        /* \"contracts/Online/ERC20/Uni.sol\":16162:16432  function transfer(address dst, uint256 rawAmount) external returns (bool) {... */\n    tag_22:\n      tag_44\n      tag_112\n      calldatasize\n      0x04\n      tag_46\n      jump\t// in\n    tag_112:\n      tag_113\n      jump\t// in\n        /* \"contracts/Online/ERC20/Uni.sol\":19405:19636  function getCurrentVotes(address account) external view returns (uint96) {... */\n    tag_23:\n      tag_99\n      tag_116\n      calldatasize\n      0x04\n      tag_78\n      jump\t// in\n    tag_116:\n      tag_117\n      jump\t// in\n        /* \"contracts/Online/ERC20/Uni.sol\":18150:19211  function delegateBySig(... */\n    tag_24:\n      tag_73\n      tag_120\n      calldatasize\n      0x04\n      tag_121\n      jump\t// in\n    tag_120:\n      tag_122\n      jump\t// in\n        /* \"contracts/Online/ERC20/Uni.sol\":14327:15601  function permit(... */\n    tag_25:\n      tag_73\n      tag_124\n      calldatasize\n      0x04\n      tag_125\n      jump\t// in\n    tag_124:\n      tag_126\n      jump\t// in\n        /* \"contracts/Online/ERC20/Uni.sol\":12880:13045  function allowance(address account, address spender)... */\n    tag_26:\n      tag_50\n      tag_128\n      calldatasize\n      0x04\n      tag_129\n      jump\t// in\n    tag_128:\n      sub(shl(0xa0, 0x01), 0x01)\n        /* \"contracts/Online/ERC20/Uni.sol\":13010:13029  allowances[account] */\n      swap2\n      dup3\n      and\n        /* \"contracts/Online/ERC20/Uni.sol\":12980:12987  uint256 */\n      0x00\n        /* \"contracts/Online/ERC20/Uni.sol\":13010:13029  allowances[account] */\n      swap1\n      dup2\n      mstore\n        /* \"contracts/Online/ERC20/Uni.sol\":13010:13020  allowances */\n      0x03\n        /* \"contracts/Online/ERC20/Uni.sol\":13010:13029  allowances[account] */\n      0x20\n      swap1\n      dup2\n      mstore\n      0x40\n      dup1\n      dup4\n      keccak256\n        /* \"contracts/Online/ERC20/Uni.sol\":13010:13038  allowances[account][spender] */\n      swap4\n      swap1\n      swap5\n      and\n      dup3\n      mstore\n      swap2\n      swap1\n      swap2\n      mstore\n      keccak256\n      sload\n      sub(shl(0x60, 0x01), 0x01)\n      and\n      swap1\n        /* \"contracts/Online/ERC20/Uni.sol\":12880:13045  function allowance(address account, address spender)... */\n      jump\n        /* \"contracts/Online/ERC20/Uni.sol\":8644:8769  bytes32 public constant DELEGATION_TYPEHASH =... */\n    tag_27:\n      tag_50\n        /* \"contracts/Online/ERC20/Uni.sol\":8698:8769  keccak256(\"Delegation(address delegatee,uint256 nonce,uint256 expiry)\") */\n      0xe48329057bfd03d55e49b547132e39cffd9c1820ad7b9d4c5307691425d15adf\n        /* \"contracts/Online/ERC20/Uni.sol\":8644:8769  bytes32 public constant DELEGATION_TYPEHASH =... */\n      dup2\n      jump\n        /* \"contracts/Online/ERC20/Uni.sol\":8149:8217  mapping(address => mapping(uint32 => Checkpoint)) public checkpoints */\n    tag_28:\n      tag_135\n      tag_136\n      calldatasize\n      0x04\n      tag_137\n      jump\t// in\n    tag_136:\n      0x06\n      0x20\n      swap1\n      dup2\n      mstore\n      0x00\n      swap3\n      dup4\n      mstore\n      0x40\n      dup1\n      dup5\n      keccak256\n      swap1\n      swap2\n      mstore\n      swap1\n      dup3\n      mstore\n      swap1\n      keccak256\n      sload\n      0xffffffff\n      dup2\n      and\n      swap1\n      shl(0x20, 0x01)\n      swap1\n      div\n      sub(shl(0x60, 0x01), 0x01)\n      and\n      dup3\n      jump\n    tag_135:\n      0x40\n      dup1\n      mload\n        /* \"#utility.yul\":5385:5395   */\n      0xffffffff\n        /* \"#utility.yul\":5373:5396   */\n      swap1\n      swap4\n      and\n        /* \"#utility.yul\":5355:5397   */\n      dup4\n      mstore\n      sub(shl(0x60, 0x01), 0x01)\n        /* \"#utility.yul\":5433:5472   */\n      swap1\n      swap2\n      and\n        /* \"#utility.yul\":5428:5430   */\n      0x20\n        /* \"#utility.yul\":5413:5431   */\n      dup4\n      add\n        /* \"#utility.yul\":5406:5473   */\n      mstore\n        /* \"#utility.yul\":5328:5346   */\n      add\n        /* \"contracts/Online/ERC20/Uni.sol\":8149:8217  mapping(address => mapping(uint32 => Checkpoint)) public checkpoints */\n      tag_38\n        /* \"#utility.yul\":5185:5479   */\n      jump\n        /* \"contracts/Online/ERC20/Uni.sol\":10897:11158  function setMinter(address minter_) external {... */\n    tag_29:\n      tag_73\n      tag_142\n      calldatasize\n      0x04\n      tag_78\n      jump\t// in\n    tag_142:\n      tag_143\n      jump\t// in\n        /* \"contracts/Online/ERC20/Uni.sol\":13513:13849  function approve(address spender, uint256 rawAmount)... */\n    tag_47:\n        /* \"contracts/Online/ERC20/Uni.sol\":13600:13604  bool */\n      0x00\n        /* \"contracts/Online/ERC20/Uni.sol\":13620:13633  uint96 amount */\n      dup1\n        /* \"contracts/Online/ERC20/Uni.sol\":13652:13709  safe96(rawAmount, \"Uni::approve: amount exceeds 96 bits\") */\n      tag_145\n        /* \"contracts/Online/ERC20/Uni.sol\":13659:13668  rawAmount */\n      dup4\n        /* \"contracts/Online/ERC20/Uni.sol\":13652:13709  safe96(rawAmount, \"Uni::approve: amount exceeds 96 bits\") */\n      mload(0x40)\n      dup1\n      0x60\n      add\n      0x40\n      mstore\n      dup1\n      0x24\n      dup2\n      mstore\n      0x20\n      add\n      data_cb3e128da7f3f16c83a901cce3ab145c66bad45a0cd648091fecc9964ebf42fe\n      0x24\n      swap2\n      codecopy\n        /* \"contracts/Online/ERC20/Uni.sol\":13652:13658  safe96 */\n      tag_146\n        /* \"contracts/Online/ERC20/Uni.sol\":13652:13709  safe96(rawAmount, \"Uni::approve: amount exceeds 96 bits\") */\n      jump\t// in\n    tag_145:\n        /* \"contracts/Online/ERC20/Uni.sol\":13739:13749  msg.sender */\n      caller\n        /* \"contracts/Online/ERC20/Uni.sol\":13728:13750  allowances[msg.sender] */\n      0x00\n      dup2\n      dup2\n      mstore\n        /* \"contracts/Online/ERC20/Uni.sol\":13728:13738  allowances */\n      0x03\n        /* \"contracts/Online/ERC20/Uni.sol\":13728:13750  allowances[msg.sender] */\n      0x20\n      swap1\n      dup2\n      mstore\n      0x40\n      dup1\n      dup4\n      keccak256\n      sub(shl(0xa0, 0x01), 0x01)\n        /* \"contracts/Online/ERC20/Uni.sol\":13728:13759  allowances[msg.sender][spender] */\n      dup11\n      and\n      dup1\n      dup6\n      mstore\n      swap1\n      dup4\n      mstore\n      swap3\n      dup2\n      swap1\n      keccak256\n        /* \"contracts/Online/ERC20/Uni.sol\":13728:13768  allowances[msg.sender][spender] = amount */\n      dup1\n      sload\n      not(sub(shl(0x60, 0x01), 0x01))\n      and\n      sub(shl(0x60, 0x01), 0x01)\n      dup8\n      and\n      swap1\n      dup2\n      or\n      swap1\n      swap2\n      sstore\n        /* \"contracts/Online/ERC20/Uni.sol\":13784:13821  Approval(msg.sender, spender, amount) */\n      swap1\n      mload\n        /* \"#utility.yul\":2784:2842   */\n      swap1\n      dup2\n      mstore\n        /* \"contracts/Online/ERC20/Uni.sol\":13728:13768  allowances[msg.sender][spender] = amount */\n      swap4\n      swap5\n      pop\n        /* \"contracts/Online/ERC20/Uni.sol\":13728:13759  allowances[msg.sender][spender] */\n      swap1\n      swap3\n        /* \"contracts/Online/ERC20/Uni.sol\":13784:13821  Approval(msg.sender, spender, amount) */\n      0x8c5be1e5ebec7d5bd14f71427d1e84f3dd0314c0f7b2291e5b200ac8c7c3b925\n      swap2\n        /* \"#utility.yul\":2757:2775   */\n      add\n        /* \"contracts/Online/ERC20/Uni.sol\":13784:13821  Approval(msg.sender, spender, amount) */\n      mload(0x40)\n      dup1\n      swap2\n      sub\n      swap1\n      log3\n        /* \"contracts/Online/ERC20/Uni.sol\":13838:13842  true */\n      0x01\n        /* \"contracts/Online/ERC20/Uni.sol\":13831:13842  return true */\n      swap2\n      pop\n      pop\n        /* \"contracts/Online/ERC20/Uni.sol\":13513:13849  function approve(address spender, uint256 rawAmount)... */\n    tag_144:\n      swap3\n      swap2\n      pop\n      pop\n      jump\t// out\n        /* \"contracts/Online/ERC20/Uni.sol\":16733:17485  function transferFrom(... */\n    tag_61:\n      sub(shl(0xa0, 0x01), 0x01)\n        /* \"contracts/Online/ERC20/Uni.sol\":16928:16943  allowances[src] */\n      dup4\n      and\n        /* \"contracts/Online/ERC20/Uni.sol\":16848:16852  bool */\n      0x00\n        /* \"contracts/Online/ERC20/Uni.sol\":16928:16943  allowances[src] */\n      swap1\n      dup2\n      mstore\n        /* \"contracts/Online/ERC20/Uni.sol\":16928:16938  allowances */\n      0x03\n        /* \"contracts/Online/ERC20/Uni.sol\":16928:16943  allowances[src] */\n      0x20\n      swap1\n      dup2\n      mstore\n      0x40\n      dup1\n      dup4\n      keccak256\n        /* \"contracts/Online/ERC20/Uni.sol\":16882:16892  msg.sender */\n      caller\n        /* \"contracts/Online/ERC20/Uni.sol\":16928:16952  allowances[src][spender] */\n      dup1\n      dup6\n      mstore\n      swap1\n      dup4\n      mstore\n      dup2\n      dup5\n      keccak256\n      sload\n        /* \"contracts/Online/ERC20/Uni.sol\":16978:17069  safe96(... */\n      dup3\n      mload\n      0x60\n      dup2\n      add\n      swap1\n      swap4\n      mstore\n      0x24\n      dup1\n      dup5\n      mstore\n        /* \"contracts/Online/ERC20/Uni.sol\":16882:16892  msg.sender */\n      swap2\n      swap4\n      sub(shl(0x60, 0x01), 0x01)\n        /* \"contracts/Online/ERC20/Uni.sol\":16928:16952  allowances[src][spender] */\n      swap1\n      swap2\n      and\n      swap3\n        /* \"contracts/Online/ERC20/Uni.sol\":16848:16852  bool */\n      dup6\n      swap3\n        /* \"contracts/Online/ERC20/Uni.sol\":16978:17069  safe96(... */\n      tag_150\n      swap3\n        /* \"contracts/Online/ERC20/Uni.sol\":16998:17007  rawAmount */\n      dup9\n      swap3\n        /* \"contracts/Online/ERC20/Uni.sol\":16978:17069  safe96(... */\n      swap2\n      swap1\n      data_cb3e128da7f3f16c83a901cce3ab145c66bad45a0cd648091fecc9964ebf42fe\n      swap1\n      dup4\n      add\n      codecopy\n        /* \"contracts/Online/ERC20/Uni.sol\":16978:16984  safe96 */\n      tag_146\n        /* \"contracts/Online/ERC20/Uni.sol\":16978:17069  safe96(... */\n      jump\t// in\n    tag_150:\n        /* \"contracts/Online/ERC20/Uni.sol\":16962:17069  uint96 amount = safe96(... */\n      swap1\n      pop\n        /* \"contracts/Online/ERC20/Uni.sol\":17095:17098  src */\n      dup7\n      sub(shl(0xa0, 0x01), 0x01)\n        /* \"contracts/Online/ERC20/Uni.sol\":17084:17098  spender != src */\n      and\n        /* \"contracts/Online/ERC20/Uni.sol\":17084:17091  spender */\n      dup4\n      sub(shl(0xa0, 0x01), 0x01)\n        /* \"contracts/Online/ERC20/Uni.sol\":17084:17098  spender != src */\n      and\n      eq\n        /* \"contracts/Online/ERC20/Uni.sol\":17080:17414  if (spender != src ) {... */\n      tag_151\n      jumpi\n        /* \"contracts/Online/ERC20/Uni.sol\":17115:17134  uint96 newAllowance */\n      0x00\n        /* \"contracts/Online/ERC20/Uni.sol\":17137:17294  sub96(... */\n      tag_152\n        /* \"contracts/Online/ERC20/Uni.sol\":17160:17176  spenderAllowance */\n      dup4\n        /* \"contracts/Online/ERC20/Uni.sol\":17194:17200  amount */\n      dup4\n        /* \"contracts/Online/ERC20/Uni.sol\":17137:17294  sub96(... */\n      mload(0x40)\n      dup1\n      0x60\n      add\n      0x40\n      mstore\n      dup1\n      0x3c\n      dup2\n      mstore\n      0x20\n      add\n      data_136758788d48ec4d9744ba8c2136a9c9406d6c92cd4a81eff0de4942b636db13\n      0x3c\n      swap2\n      codecopy\n        /* \"contracts/Online/ERC20/Uni.sol\":17137:17142  sub96 */\n      tag_153\n        /* \"contracts/Online/ERC20/Uni.sol\":17137:17294  sub96(... */\n      jump\t// in\n    tag_152:\n      sub(shl(0xa0, 0x01), 0x01)\n        /* \"contracts/Online/ERC20/Uni.sol\":17308:17323  allowances[src] */\n      dup10\n      dup2\n      and\n      0x00\n      dup2\n      dup2\n      mstore\n        /* \"contracts/Online/ERC20/Uni.sol\":17308:17318  allowances */\n      0x03\n        /* \"contracts/Online/ERC20/Uni.sol\":17308:17323  allowances[src] */\n      0x20\n      swap1\n      dup2\n      mstore\n      0x40\n      dup1\n      dup4\n      keccak256\n        /* \"contracts/Online/ERC20/Uni.sol\":17308:17332  allowances[src][spender] */\n      swap5\n      dup11\n      and\n      dup1\n      dup5\n      mstore\n      swap5\n      dup3\n      mstore\n      swap2\n      dup3\n      swap1\n      keccak256\n        /* \"contracts/Online/ERC20/Uni.sol\":17308:17347  allowances[src][spender] = newAllowance */\n      dup1\n      sload\n      not(sub(shl(0x60, 0x01), 0x01))\n      and\n      sub(shl(0x60, 0x01), 0x01)\n      dup8\n      and\n      swap1\n      dup2\n      or\n      swap1\n      swap2\n      sstore\n        /* \"contracts/Online/ERC20/Uni.sol\":17367:17403  Approval(src, spender, newAllowance) */\n      swap2\n      mload\n        /* \"#utility.yul\":2784:2842   */\n      swap2\n      dup3\n      mstore\n        /* \"contracts/Online/ERC20/Uni.sol\":17308:17347  allowances[src][spender] = newAllowance */\n      swap4\n      swap5\n      pop\n        /* \"contracts/Online/ERC20/Uni.sol\":17308:17332  allowances[src][spender] */\n      swap2\n      swap3\n        /* \"contracts/Online/ERC20/Uni.sol\":17308:17323  allowances[src] */\n      swap1\n      swap2\n        /* \"contracts/Online/ERC20/Uni.sol\":17367:17403  Approval(src, spender, newAllowance) */\n      0x8c5be1e5ebec7d5bd14f71427d1e84f3dd0314c0f7b2291e5b200ac8c7c3b925\n      swap2\n        /* \"#utility.yul\":2757:2775   */\n      add\n        /* \"contracts/Online/ERC20/Uni.sol\":17367:17403  Approval(src, spender, newAllowance) */\n      mload(0x40)\n      dup1\n      swap2\n      sub\n      swap1\n      log3\n        /* \"contracts/Online/ERC20/Uni.sol\":17101:17414  {... */\n      pop\n        /* \"contracts/Online/ERC20/Uni.sol\":17080:17414  if (spender != src ) {... */\n    tag_151:\n        /* \"contracts/Online/ERC20/Uni.sol\":17424:17457  _transferTokens(src, dst, amount) */\n      tag_155\n        /* \"contracts/Online/ERC20/Uni.sol\":17440:17443  src */\n      dup8\n        /* \"contracts/Online/ERC20/Uni.sol\":17445:17448  dst */\n      dup8\n        /* \"contracts/Online/ERC20/Uni.sol\":17450:17456  amount */\n      dup4\n        /* \"contracts/Online/ERC20/Uni.sol\":17424:17439  _transferTokens */\n      tag_156\n        /* \"contracts/Online/ERC20/Uni.sol\":17424:17457  _transferTokens(src, dst, amount) */\n      jump\t// in\n    tag_155:\n      pop\n        /* \"contracts/Online/ERC20/Uni.sol\":17474:17478  true */\n      0x01\n      swap7\n        /* \"contracts/Online/ERC20/Uni.sol\":16733:17485  function transferFrom(... */\n      swap6\n      pop\n      pop\n      pop\n      pop\n      pop\n      pop\n      jump\t// out\n        /* \"contracts/Online/ERC20/Uni.sol\":11326:12584  function mint(address dst, uint256 rawAmount) external {... */\n    tag_75:\n        /* \"contracts/Online/ERC20/Uni.sol\":11413:11419  minter */\n      and(sub(shl(0xa0, 0x01), 0x01), sload(0x01))\n        /* \"contracts/Online/ERC20/Uni.sol\":11399:11409  msg.sender */\n      caller\n        /* \"contracts/Online/ERC20/Uni.sol\":11399:11419  msg.sender == minter */\n      eq\n        /* \"contracts/Online/ERC20/Uni.sol\":11391:11459  require(msg.sender == minter, \"Uni::mint: only the minter can mint\") */\n      tag_158\n      jumpi\n      mload(0x40)\n      shl(0xe5, 0x461bcd)\n      dup2\n      mstore\n        /* \"#utility.yul\":5900:5902   */\n      0x20\n        /* \"contracts/Online/ERC20/Uni.sol\":11391:11459  require(msg.sender == minter, \"Uni::mint: only the minter can mint\") */\n      0x04\n      dup3\n      add\n        /* \"#utility.yul\":5882:5903   */\n      mstore\n        /* \"#utility.yul\":5939:5941   */\n      0x23\n        /* \"#utility.yul\":5919:5937   */\n      0x24\n      dup3\n      add\n        /* \"#utility.yul\":5912:5942   */\n      mstore\n        /* \"#utility.yul\":5978:6012   */\n      0x556e693a3a6d696e743a206f6e6c7920746865206d696e7465722063616e206d\n        /* \"#utility.yul\":5958:5976   */\n      0x44\n      dup3\n      add\n        /* \"#utility.yul\":5951:6013   */\n      mstore\n      shl(0xea, 0x1a5b9d)\n        /* \"#utility.yul\":6029:6047   */\n      0x64\n      dup3\n      add\n        /* \"#utility.yul\":6022:6055   */\n      mstore\n        /* \"#utility.yul\":6072:6091   */\n      0x84\n      add\n        /* \"contracts/Online/ERC20/Uni.sol\":11391:11459  require(msg.sender == minter, \"Uni::mint: only the minter can mint\") */\n    tag_159:\n      mload(0x40)\n      dup1\n      swap2\n      sub\n      swap1\n      revert\n    tag_158:\n        /* \"contracts/Online/ERC20/Uni.sol\":11509:11528  mintingAllowedAfter */\n      sload(0x02)\n        /* \"contracts/Online/ERC20/Uni.sol\":11490:11505  block.timestamp */\n      timestamp\n        /* \"contracts/Online/ERC20/Uni.sol\":11490:11528  block.timestamp >= mintingAllowedAfter */\n      lt\n      iszero\n        /* \"contracts/Online/ERC20/Uni.sol\":11469:11588  require(... */\n      tag_161\n      jumpi\n      mload(0x40)\n      shl(0xe5, 0x461bcd)\n      dup2\n      mstore\n        /* \"#utility.yul\":6304:6306   */\n      0x20\n        /* \"contracts/Online/ERC20/Uni.sol\":11469:11588  require(... */\n      0x04\n      dup3\n      add\n        /* \"#utility.yul\":6286:6307   */\n      mstore\n        /* \"#utility.yul\":6343:6345   */\n      0x22\n        /* \"#utility.yul\":6323:6341   */\n      0x24\n      dup3\n      add\n        /* \"#utility.yul\":6316:6346   */\n      mstore\n        /* \"#utility.yul\":6382:6416   */\n      0x556e693a3a6d696e743a206d696e74696e67206e6f7420616c6c6f7765642079\n        /* \"#utility.yul\":6362:6380   */\n      0x44\n      dup3\n      add\n        /* \"#utility.yul\":6355:6417   */\n      mstore\n      shl(0xf2, 0x195d)\n        /* \"#utility.yul\":6433:6451   */\n      0x64\n      dup3\n      add\n        /* \"#utility.yul\":6426:6458   */\n      mstore\n        /* \"#utility.yul\":6475:6494   */\n      0x84\n      add\n        /* \"contracts/Online/ERC20/Uni.sol\":11469:11588  require(... */\n      tag_159\n        /* \"#utility.yul\":6102:6500   */\n      jump\n        /* \"contracts/Online/ERC20/Uni.sol\":11469:11588  require(... */\n    tag_161:\n      sub(shl(0xa0, 0x01), 0x01)\n        /* \"contracts/Online/ERC20/Uni.sol\":11619:11636  dst != address(0) */\n      dup3\n      and\n        /* \"contracts/Online/ERC20/Uni.sol\":11598:11708  require(... */\n      tag_164\n      jumpi\n      mload(0x40)\n      shl(0xe5, 0x461bcd)\n      dup2\n      mstore\n        /* \"#utility.yul\":6707:6709   */\n      0x20\n        /* \"contracts/Online/ERC20/Uni.sol\":11598:11708  require(... */\n      0x04\n      dup3\n      add\n        /* \"#utility.yul\":6689:6710   */\n      mstore\n        /* \"#utility.yul\":6746:6748   */\n      0x2e\n        /* \"#utility.yul\":6726:6744   */\n      0x24\n      dup3\n      add\n        /* \"#utility.yul\":6719:6749   */\n      mstore\n        /* \"#utility.yul\":6785:6819   */\n      0x556e693a3a6d696e743a2063616e6e6f74207472616e7366657220746f207468\n        /* \"#utility.yul\":6765:6783   */\n      0x44\n      dup3\n      add\n        /* \"#utility.yul\":6758:6820   */\n      mstore\n      shl(0x90, 0x65207a65726f2061646472657373)\n        /* \"#utility.yul\":6836:6854   */\n      0x64\n      dup3\n      add\n        /* \"#utility.yul\":6829:6873   */\n      mstore\n        /* \"#utility.yul\":6890:6909   */\n      0x84\n      add\n        /* \"contracts/Online/ERC20/Uni.sol\":11598:11708  require(... */\n      tag_159\n        /* \"#utility.yul\":6505:6915   */\n      jump\n        /* \"contracts/Online/ERC20/Uni.sol\":11598:11708  require(... */\n    tag_164:\n        /* \"contracts/Online/ERC20/Uni.sol\":11768:11856  SafeMath.add(... */\n      tag_167\n        /* \"contracts/Online/ERC20/Uni.sol\":11794:11809  block.timestamp */\n      timestamp\n        /* \"contracts/Online/ERC20/Uni.sol\":7430:7442  1 days * 365 */\n      0x01e13380\n        /* \"contracts/Online/ERC20/Uni.sol\":11768:11780  SafeMath.add */\n      tag_168\n        /* \"contracts/Online/ERC20/Uni.sol\":11768:11856  SafeMath.add(... */\n      jump\t// in\n    tag_167:\n        /* \"contracts/Online/ERC20/Uni.sol\":11746:11765  mintingAllowedAfter */\n      0x02\n        /* \"contracts/Online/ERC20/Uni.sol\":11746:11856  mintingAllowedAfter = SafeMath.add(... */\n      dup2\n      swap1\n      sstore\n      pop\n        /* \"contracts/Online/ERC20/Uni.sol\":11894:11907  uint96 amount */\n      0x00\n        /* \"contracts/Online/ERC20/Uni.sol\":11910:11964  safe96(rawAmount, \"Uni::mint: amount exceeds 96 bits\") */\n      tag_169\n        /* \"contracts/Online/ERC20/Uni.sol\":11917:11926  rawAmount */\n      dup3\n        /* \"contracts/Online/ERC20/Uni.sol\":11910:11964  safe96(rawAmount, \"Uni::mint: amount exceeds 96 bits\") */\n      mload(0x40)\n      dup1\n      0x60\n      add\n      0x40\n      mstore\n      dup1\n      0x21\n      dup2\n      mstore\n      0x20\n      add\n      data_bcb6733e7ac2aee3c3602ee664d4b3cb251e429df5c7e9148d412d0b60f07b16\n      0x21\n      swap2\n      codecopy\n        /* \"contracts/Online/ERC20/Uni.sol\":11910:11916  safe96 */\n      tag_146\n        /* \"contracts/Online/ERC20/Uni.sol\":11910:11964  safe96(rawAmount, \"Uni::mint: amount exceeds 96 bits\") */\n      jump\t// in\n    tag_169:\n        /* \"contracts/Online/ERC20/Uni.sol\":11894:11964  uint96 amount = safe96(rawAmount, \"Uni::mint: amount exceeds 96 bits\") */\n      swap1\n      pop\n        /* \"contracts/Online/ERC20/Uni.sol\":12005:12058  SafeMath.div(SafeMath.mul(totalSupply, mintCap), 100) */\n      tag_170\n        /* \"contracts/Online/ERC20/Uni.sol\":12018:12052  SafeMath.mul(totalSupply, mintCap) */\n      tag_171\n        /* \"contracts/Online/ERC20/Uni.sol\":12031:12042  totalSupply */\n      sload(0x00)\n        /* \"contracts/Online/ERC20/Uni.sol\":7566:7567  2 */\n      0x02\n        /* \"contracts/Online/ERC20/Uni.sol\":12018:12052  SafeMath.mul(totalSupply, mintCap) */\n      0xff\n      and\n        /* \"contracts/Online/ERC20/Uni.sol\":12018:12030  SafeMath.mul */\n      tag_172\n        /* \"contracts/Online/ERC20/Uni.sol\":12018:12052  SafeMath.mul(totalSupply, mintCap) */\n      jump\t// in\n    tag_171:\n        /* \"contracts/Online/ERC20/Uni.sol\":12054:12057  100 */\n      0x64\n        /* \"contracts/Online/ERC20/Uni.sol\":12005:12017  SafeMath.div */\n      tag_173\n        /* \"contracts/Online/ERC20/Uni.sol\":12005:12058  SafeMath.div(SafeMath.mul(totalSupply, mintCap), 100) */\n      jump\t// in\n    tag_170:\n        /* \"contracts/Online/ERC20/Uni.sol\":11995:12001  amount */\n      dup2\n      sub(shl(0x60, 0x01), 0x01)\n        /* \"contracts/Online/ERC20/Uni.sol\":11995:12058  amount <= SafeMath.div(SafeMath.mul(totalSupply, mintCap), 100) */\n      and\n      gt\n      iszero\n        /* \"contracts/Online/ERC20/Uni.sol\":11974:12112  require(... */\n      tag_174\n      jumpi\n      mload(0x40)\n      shl(0xe5, 0x461bcd)\n      dup2\n      mstore\n        /* \"#utility.yul\":7122:7124   */\n      0x20\n        /* \"contracts/Online/ERC20/Uni.sol\":11974:12112  require(... */\n      0x04\n      dup3\n      add\n        /* \"#utility.yul\":7104:7125   */\n      mstore\n        /* \"#utility.yul\":7161:7163   */\n      0x1c\n        /* \"#utility.yul\":7141:7159   */\n      0x24\n      dup3\n      add\n        /* \"#utility.yul\":7134:7164   */\n      mstore\n        /* \"#utility.yul\":7200:7230   */\n      0x556e693a3a6d696e743a206578636565646564206d696e742063617000000000\n        /* \"#utility.yul\":7180:7198   */\n      0x44\n      dup3\n      add\n        /* \"#utility.yul\":7173:7231   */\n      mstore\n        /* \"#utility.yul\":7248:7266   */\n      0x64\n      add\n        /* \"contracts/Online/ERC20/Uni.sol\":11974:12112  require(... */\n      tag_159\n        /* \"#utility.yul\":6920:7272   */\n      jump\n        /* \"contracts/Online/ERC20/Uni.sol\":11974:12112  require(... */\n    tag_174:\n        /* \"contracts/Online/ERC20/Uni.sol\":12136:12253  safe96(... */\n      tag_177\n        /* \"contracts/Online/ERC20/Uni.sol\":12156:12189  SafeMath.add(totalSupply, amount) */\n      tag_178\n        /* \"contracts/Online/ERC20/Uni.sol\":12169:12180  totalSupply */\n      sload(0x00)\n        /* \"contracts/Online/ERC20/Uni.sol\":12182:12188  amount */\n      dup4\n      sub(shl(0x60, 0x01), 0x01)\n        /* \"contracts/Online/ERC20/Uni.sol\":12156:12189  SafeMath.add(totalSupply, amount) */\n      and\n        /* \"contracts/Online/ERC20/Uni.sol\":12156:12168  SafeMath.add */\n      tag_168\n        /* \"contracts/Online/ERC20/Uni.sol\":12156:12189  SafeMath.add(totalSupply, amount) */\n      jump\t// in\n    tag_178:\n        /* \"contracts/Online/ERC20/Uni.sol\":12136:12253  safe96(... */\n      mload(0x40)\n      dup1\n      0x60\n      add\n      0x40\n      mstore\n      dup1\n      0x26\n      dup2\n      mstore\n      0x20\n      add\n      data_1ef2347f5dbb97e8eb7bc1442a128a1c6e65386b013257fe2b8ad95aaaa96ab8\n      0x26\n      swap2\n      codecopy\n        /* \"contracts/Online/ERC20/Uni.sol\":12136:12142  safe96 */\n      tag_146\n        /* \"contracts/Online/ERC20/Uni.sol\":12136:12253  safe96(... */\n      jump\t// in\n    tag_177:\n      sub(shl(0x60, 0x01), 0x01)\n        /* \"contracts/Online/ERC20/Uni.sol\":12122:12253  totalSupply = safe96(... */\n      swap1\n      dup2\n      and\n        /* \"contracts/Online/ERC20/Uni.sol\":12122:12133  totalSupply */\n      0x00\n        /* \"contracts/Online/ERC20/Uni.sol\":12122:12253  totalSupply = safe96(... */\n      swap1\n      dup2\n      sstore\n      sub(shl(0xa0, 0x01), 0x01)\n        /* \"contracts/Online/ERC20/Uni.sol\":12347:12360  balances[dst] */\n      dup6\n      and\n      dup2\n      mstore\n        /* \"contracts/Online/ERC20/Uni.sol\":12347:12355  balances */\n      0x04\n        /* \"contracts/Online/ERC20/Uni.sol\":12347:12360  balances[dst] */\n      0x20\n      swap1\n      dup2\n      mstore\n      0x40\n      swap2\n      dup3\n      swap1\n      keccak256\n      sload\n        /* \"contracts/Online/ERC20/Uni.sol\":12328:12442  add96(... */\n      dup3\n      mload\n      0x60\n      dup2\n      add\n      swap1\n      swap4\n      mstore\n      0x24\n      dup1\n      dup5\n      mstore\n      tag_179\n      swap5\n        /* \"contracts/Online/ERC20/Uni.sol\":12347:12360  balances[dst] */\n      swap2\n      swap1\n      swap2\n      and\n      swap3\n        /* \"contracts/Online/ERC20/Uni.sol\":12374:12380  amount */\n      dup6\n      swap3\n        /* \"contracts/Online/ERC20/Uni.sol\":12328:12442  add96(... */\n      swap1\n      swap2\n      swap1\n      data_0ab5eae08d50cc345c58c2d7d67f9034a98d0a88dd540314c408c39a8dcec01d\n      swap1\n      dup4\n      add\n      codecopy\n        /* \"contracts/Online/ERC20/Uni.sol\":12328:12333  add96 */\n      tag_180\n        /* \"contracts/Online/ERC20/Uni.sol\":12328:12442  add96(... */\n      jump\t// in\n    tag_179:\n      sub(shl(0xa0, 0x01), 0x01)\n        /* \"contracts/Online/ERC20/Uni.sol\":12312:12325  balances[dst] */\n      dup5\n      and\n      0x00\n      dup2\n      dup2\n      mstore\n        /* \"contracts/Online/ERC20/Uni.sol\":12312:12320  balances */\n      0x04\n        /* \"contracts/Online/ERC20/Uni.sol\":12312:12325  balances[dst] */\n      0x20\n      swap1\n      dup2\n      mstore\n      0x40\n      dup1\n      dup4\n      keccak256\n        /* \"contracts/Online/ERC20/Uni.sol\":12312:12442  balances[dst] = add96(... */\n      dup1\n      sload\n      not(sub(shl(0x60, 0x01), 0x01))\n      and\n      sub(shl(0x60, 0x01), 0x01)\n      swap7\n      dup8\n      and\n      or\n      swap1\n      sstore\n        /* \"contracts/Online/ERC20/Uni.sol\":12457:12490  Transfer(address(0), dst, amount) */\n      mload\n        /* \"#utility.yul\":2802:2841   */\n      swap4\n      dup6\n      and\n        /* \"#utility.yul\":2784:2842   */\n      dup5\n      mstore\n        /* \"contracts/Online/ERC20/Uni.sol\":12312:12325  balances[dst] */\n      swap2\n      swap3\n      swap1\n      swap2\n        /* \"contracts/Online/ERC20/Uni.sol\":12457:12490  Transfer(address(0), dst, amount) */\n      0xddf252ad1be2c89b69c2b068fc378daa952ba7f163c4a11628f55a4df523b3ef\n      swap2\n        /* \"#utility.yul\":2757:2775   */\n      add\n        /* \"contracts/Online/ERC20/Uni.sol\":12457:12490  Transfer(address(0), dst, amount) */\n      mload(0x40)\n      dup1\n      swap2\n      sub\n      swap1\n      log3\n      sub(shl(0xa0, 0x01), 0x01)\n        /* \"contracts/Online/ERC20/Uni.sol\":12554:12568  delegates[dst] */\n      dup1\n      dup5\n      and\n        /* \"contracts/Online/ERC20/Uni.sol\":12550:12551  0 */\n      0x00\n        /* \"contracts/Online/ERC20/Uni.sol\":12554:12568  delegates[dst] */\n      swap1\n      dup2\n      mstore\n        /* \"contracts/Online/ERC20/Uni.sol\":12554:12563  delegates */\n      0x05\n        /* \"contracts/Online/ERC20/Uni.sol\":12554:12568  delegates[dst] */\n      0x20\n      mstore\n      0x40\n      dup2\n      keccak256\n      sload\n        /* \"contracts/Online/ERC20/Uni.sol\":12527:12577  _moveDelegates(address(0), delegates[dst], amount) */\n      tag_182\n      swap3\n        /* \"contracts/Online/ERC20/Uni.sol\":12554:12568  delegates[dst] */\n      and\n        /* \"contracts/Online/ERC20/Uni.sol\":12570:12576  amount */\n      dup4\n        /* \"contracts/Online/ERC20/Uni.sol\":12527:12541  _moveDelegates */\n      tag_183\n        /* \"contracts/Online/ERC20/Uni.sol\":12527:12577  _moveDelegates(address(0), delegates[dst], amount) */\n      jump\t// in\n    tag_182:\n        /* \"contracts/Online/ERC20/Uni.sol\":11381:12584  {... */\n      pop\n        /* \"contracts/Online/ERC20/Uni.sol\":11326:12584  function mint(address dst, uint256 rawAmount) external {... */\n      pop\n      pop\n      jump\t// out\n        /* \"contracts/Online/ERC20/Uni.sol\":17627:17727  function delegate(address delegatee) public {... */\n    tag_87:\n        /* \"contracts/Online/ERC20/Uni.sol\":17688:17720  _delegate(msg.sender, delegatee) */\n      tag_185\n        /* \"contracts/Online/ERC20/Uni.sol\":17698:17708  msg.sender */\n      caller\n        /* \"contracts/Online/ERC20/Uni.sol\":17710:17719  delegatee */\n      dup3\n        /* \"contracts/Online/ERC20/Uni.sol\":17688:17697  _delegate */\n      tag_186\n        /* \"contracts/Online/ERC20/Uni.sol\":17688:17720  _delegate(msg.sender, delegatee) */\n      jump\t// in\n    tag_185:\n        /* \"contracts/Online/ERC20/Uni.sol\":17627:17727  function delegate(address delegatee) public {... */\n      pop\n      jump\t// out\n        /* \"contracts/Online/ERC20/Uni.sol\":20058:21308  function getPriorVotes(address account, uint256 blockNumber)... */\n    tag_101:\n        /* \"contracts/Online/ERC20/Uni.sol\":20164:20170  uint96 */\n      0x00\n        /* \"contracts/Online/ERC20/Uni.sol\":20221:20233  block.number */\n      number\n        /* \"contracts/Online/ERC20/Uni.sol\":20207:20218  blockNumber */\n      dup3\n        /* \"contracts/Online/ERC20/Uni.sol\":20207:20233  blockNumber < block.number */\n      lt\n        /* \"contracts/Online/ERC20/Uni.sol\":20186:20297  require(... */\n      tag_189\n      jumpi\n      mload(0x40)\n      shl(0xe5, 0x461bcd)\n      dup2\n      mstore\n        /* \"#utility.yul\":7479:7481   */\n      0x20\n        /* \"contracts/Online/ERC20/Uni.sol\":20186:20297  require(... */\n      0x04\n      dup3\n      add\n        /* \"#utility.yul\":7461:7482   */\n      mstore\n        /* \"#utility.yul\":7518:7520   */\n      0x26\n        /* \"#utility.yul\":7498:7516   */\n      0x24\n      dup3\n      add\n        /* \"#utility.yul\":7491:7521   */\n      mstore\n        /* \"#utility.yul\":7557:7591   */\n      0x556e693a3a6765745072696f72566f7465733a206e6f74207965742064657465\n        /* \"#utility.yul\":7537:7555   */\n      0x44\n      dup3\n      add\n        /* \"#utility.yul\":7530:7592   */\n      mstore\n      shl(0xd2, 0x1c9b5a5b9959)\n        /* \"#utility.yul\":7608:7626   */\n      0x64\n      dup3\n      add\n        /* \"#utility.yul\":7601:7637   */\n      mstore\n        /* \"#utility.yul\":7654:7673   */\n      0x84\n      add\n        /* \"contracts/Online/ERC20/Uni.sol\":20186:20297  require(... */\n      tag_159\n        /* \"#utility.yul\":7277:7679   */\n      jump\n        /* \"contracts/Online/ERC20/Uni.sol\":20186:20297  require(... */\n    tag_189:\n      sub(shl(0xa0, 0x01), 0x01)\n        /* \"contracts/Online/ERC20/Uni.sol\":20330:20353  numCheckpoints[account] */\n      dup4\n      and\n        /* \"contracts/Online/ERC20/Uni.sol\":20308:20327  uint32 nCheckpoints */\n      0x00\n        /* \"contracts/Online/ERC20/Uni.sol\":20330:20353  numCheckpoints[account] */\n      swap1\n      dup2\n      mstore\n        /* \"contracts/Online/ERC20/Uni.sol\":20330:20344  numCheckpoints */\n      0x07\n        /* \"contracts/Online/ERC20/Uni.sol\":20330:20353  numCheckpoints[account] */\n      0x20\n      mstore\n      0x40\n      dup2\n      keccak256\n      sload\n      0xffffffff\n      and\n      swap1\n        /* \"contracts/Online/ERC20/Uni.sol\":20367:20384  nCheckpoints == 0 */\n      dup2\n      swap1\n      sub\n        /* \"contracts/Online/ERC20/Uni.sol\":20363:20419  if (nCheckpoints == 0) {... */\n      tag_192\n      jumpi\n        /* \"contracts/Online/ERC20/Uni.sol\":20407:20408  0 */\n      0x00\n        /* \"contracts/Online/ERC20/Uni.sol\":20400:20408  return 0 */\n      swap2\n      pop\n      pop\n      jump(tag_144)\n        /* \"contracts/Online/ERC20/Uni.sol\":20363:20419  if (nCheckpoints == 0) {... */\n    tag_192:\n      sub(shl(0xa0, 0x01), 0x01)\n        /* \"contracts/Online/ERC20/Uni.sol\":20476:20496  checkpoints[account] */\n      dup5\n      and\n      0x00\n      swap1\n      dup2\n      mstore\n        /* \"contracts/Online/ERC20/Uni.sol\":20476:20487  checkpoints */\n      0x06\n        /* \"contracts/Online/ERC20/Uni.sol\":20476:20496  checkpoints[account] */\n      0x20\n      mstore\n      0x40\n      dup2\n      keccak256\n        /* \"contracts/Online/ERC20/Uni.sol\":20528:20539  blockNumber */\n      dup5\n      swap2\n        /* \"contracts/Online/ERC20/Uni.sol\":20497:20513  nCheckpoints - 1 */\n      tag_193\n        /* \"contracts/Online/ERC20/Uni.sol\":20512:20513  1 */\n      0x01\n        /* \"contracts/Online/ERC20/Uni.sol\":20497:20509  nCheckpoints */\n      dup6\n        /* \"contracts/Online/ERC20/Uni.sol\":20497:20513  nCheckpoints - 1 */\n      tag_194\n      jump\t// in\n    tag_193:\n        /* \"contracts/Online/ERC20/Uni.sol\":20476:20514  checkpoints[account][nCheckpoints - 1] */\n      0xffffffff\n      swap1\n      dup2\n      and\n      dup3\n      mstore\n      0x20\n      dup3\n      add\n      swap3\n      swap1\n      swap3\n      mstore\n      0x40\n      add\n      0x00\n      keccak256\n        /* \"contracts/Online/ERC20/Uni.sol\":20476:20524  checkpoints[account][nCheckpoints - 1].fromBlock */\n      sload\n      and\n        /* \"contracts/Online/ERC20/Uni.sol\":20476:20539  checkpoints[account][nCheckpoints - 1].fromBlock <= blockNumber */\n      gt\n        /* \"contracts/Online/ERC20/Uni.sol\":20472:20617  if (checkpoints[account][nCheckpoints - 1].fromBlock <= blockNumber) {... */\n      tag_195\n      jumpi\n      sub(shl(0xa0, 0x01), 0x01)\n        /* \"contracts/Online/ERC20/Uni.sol\":20562:20582  checkpoints[account] */\n      dup5\n      and\n      0x00\n      swap1\n      dup2\n      mstore\n        /* \"contracts/Online/ERC20/Uni.sol\":20562:20573  checkpoints */\n      0x06\n        /* \"contracts/Online/ERC20/Uni.sol\":20562:20582  checkpoints[account] */\n      0x20\n      mstore\n      0x40\n      dup2\n      keccak256\n      swap1\n        /* \"contracts/Online/ERC20/Uni.sol\":20583:20599  nCheckpoints - 1 */\n      tag_196\n        /* \"contracts/Online/ERC20/Uni.sol\":20598:20599  1 */\n      0x01\n        /* \"contracts/Online/ERC20/Uni.sol\":20583:20595  nCheckpoints */\n      dup5\n        /* \"contracts/Online/ERC20/Uni.sol\":20583:20599  nCheckpoints - 1 */\n      tag_194\n      jump\t// in\n    tag_196:\n        /* \"contracts/Online/ERC20/Uni.sol\":20562:20600  checkpoints[account][nCheckpoints - 1] */\n      0xffffffff\n      and\n      dup2\n      mstore\n      0x20\n      dup2\n      add\n      swap2\n      swap1\n      swap2\n      mstore\n      0x40\n      add\n      0x00\n      keccak256\n        /* \"contracts/Online/ERC20/Uni.sol\":20562:20606  checkpoints[account][nCheckpoints - 1].votes */\n      sload\n      shl(0x20, 0x01)\n      swap1\n      div\n      sub(shl(0x60, 0x01), 0x01)\n      and\n      swap2\n      pop\n        /* \"contracts/Online/ERC20/Uni.sol\":20555:20606  return checkpoints[account][nCheckpoints - 1].votes */\n      tag_144\n      swap1\n      pop\n      jump\n        /* \"contracts/Online/ERC20/Uni.sol\":20472:20617  if (checkpoints[account][nCheckpoints - 1].fromBlock <= blockNumber) {... */\n    tag_195:\n      sub(shl(0xa0, 0x01), 0x01)\n        /* \"contracts/Online/ERC20/Uni.sol\":20675:20695  checkpoints[account] */\n      dup5\n      and\n      0x00\n      swap1\n      dup2\n      mstore\n        /* \"contracts/Online/ERC20/Uni.sol\":20675:20686  checkpoints */\n      0x06\n        /* \"contracts/Online/ERC20/Uni.sol\":20675:20695  checkpoints[account] */\n      0x20\n      swap1\n      dup2\n      mstore\n      0x40\n      dup1\n      dup4\n      keccak256\n        /* \"contracts/Online/ERC20/Uni.sol\":20675:20698  checkpoints[account][0] */\n      dup4\n      dup1\n      mstore\n      swap1\n      swap2\n      mstore\n      swap1\n      keccak256\n        /* \"contracts/Online/ERC20/Uni.sol\":20675:20708  checkpoints[account][0].fromBlock */\n      sload\n        /* \"contracts/Online/ERC20/Uni.sol\":20675:20698  checkpoints[account][0] */\n      0xffffffff\n        /* \"contracts/Online/ERC20/Uni.sol\":20675:20708  checkpoints[account][0].fromBlock */\n      and\n        /* \"contracts/Online/ERC20/Uni.sol\":20675:20722  checkpoints[account][0].fromBlock > blockNumber */\n      dup4\n      lt\n        /* \"contracts/Online/ERC20/Uni.sol\":20671:20757  if (checkpoints[account][0].fromBlock > blockNumber) {... */\n      iszero\n      tag_197\n      jumpi\n        /* \"contracts/Online/ERC20/Uni.sol\":20745:20746  0 */\n      0x00\n        /* \"contracts/Online/ERC20/Uni.sol\":20738:20746  return 0 */\n      swap2\n      pop\n      pop\n      jump(tag_144)\n        /* \"contracts/Online/ERC20/Uni.sol\":20671:20757  if (checkpoints[account][0].fromBlock > blockNumber) {... */\n    tag_197:\n        /* \"contracts/Online/ERC20/Uni.sol\":20767:20779  uint32 lower */\n      0x00\n      dup1\n        /* \"contracts/Online/ERC20/Uni.sol\":20808:20824  nCheckpoints - 1 */\n      tag_198\n        /* \"contracts/Online/ERC20/Uni.sol\":20823:20824  1 */\n      0x01\n        /* \"contracts/Online/ERC20/Uni.sol\":20808:20820  nCheckpoints */\n      dup5\n        /* \"contracts/Online/ERC20/Uni.sol\":20808:20824  nCheckpoints - 1 */\n      tag_194\n      jump\t// in\n    tag_198:\n        /* \"contracts/Online/ERC20/Uni.sol\":20793:20824  uint32 upper = nCheckpoints - 1 */\n      swap1\n      pop\n        /* \"contracts/Online/ERC20/Uni.sol\":20834:21252  while (upper > lower) {... */\n    tag_199:\n        /* \"contracts/Online/ERC20/Uni.sol\":20849:20854  lower */\n      dup2\n        /* \"contracts/Online/ERC20/Uni.sol\":20841:20854  upper > lower */\n      0xffffffff\n      and\n        /* \"contracts/Online/ERC20/Uni.sol\":20841:20846  upper */\n      dup2\n        /* \"contracts/Online/ERC20/Uni.sol\":20841:20854  upper > lower */\n      0xffffffff\n      and\n      gt\n        /* \"contracts/Online/ERC20/Uni.sol\":20834:21252  while (upper > lower) {... */\n      iszero\n      tag_200\n      jumpi\n        /* \"contracts/Online/ERC20/Uni.sol\":20870:20883  uint32 center */\n      0x00\n        /* \"contracts/Online/ERC20/Uni.sol\":20912:20913  2 */\n      0x02\n        /* \"contracts/Online/ERC20/Uni.sol\":20895:20908  upper - lower */\n      tag_201\n        /* \"contracts/Online/ERC20/Uni.sol\":20903:20908  lower */\n      dup5\n        /* \"contracts/Online/ERC20/Uni.sol\":20895:20900  upper */\n      dup5\n        /* \"contracts/Online/ERC20/Uni.sol\":20895:20908  upper - lower */\n      tag_194\n      jump\t// in\n    tag_201:\n        /* \"contracts/Online/ERC20/Uni.sol\":20894:20913  (upper - lower) / 2 */\n      tag_202\n      swap2\n      swap1\n      tag_203\n      jump\t// in\n    tag_202:\n        /* \"contracts/Online/ERC20/Uni.sol\":20886:20913  upper - (upper - lower) / 2 */\n      tag_204\n      swap1\n        /* \"contracts/Online/ERC20/Uni.sol\":20886:20891  upper */\n      dup4\n        /* \"contracts/Online/ERC20/Uni.sol\":20886:20913  upper - (upper - lower) / 2 */\n      tag_194\n      jump\t// in\n    tag_204:\n      sub(shl(0xa0, 0x01), 0x01)\n        /* \"contracts/Online/ERC20/Uni.sol\":20977:20997  checkpoints[account] */\n      dup9\n      and\n        /* \"contracts/Online/ERC20/Uni.sol\":20954:20974  Checkpoint memory cp */\n      0x00\n        /* \"contracts/Online/ERC20/Uni.sol\":20977:20997  checkpoints[account] */\n      swap1\n      dup2\n      mstore\n        /* \"contracts/Online/ERC20/Uni.sol\":20977:20988  checkpoints */\n      0x06\n        /* \"contracts/Online/ERC20/Uni.sol\":20977:20997  checkpoints[account] */\n      0x20\n      swap1\n      dup2\n      mstore\n      0x40\n      dup1\n      dup4\n      keccak256\n        /* \"contracts/Online/ERC20/Uni.sol\":20977:21005  checkpoints[account][center] */\n      0xffffffff\n      dup6\n      dup2\n      and\n      dup6\n      mstore\n      swap1\n      dup4\n      mstore\n      swap3\n      dup2\n      swap1\n      keccak256\n        /* \"contracts/Online/ERC20/Uni.sol\":20954:21005  Checkpoint memory cp = checkpoints[account][center] */\n      dup2\n      mload\n      dup1\n      dup4\n      add\n      swap1\n      swap3\n      mstore\n      sload\n      swap3\n      dup4\n      and\n      dup1\n      dup3\n      mstore\n      shl(0x20, 0x01)\n      swap1\n      swap4\n      div\n      sub(shl(0x60, 0x01), 0x01)\n      and\n      swap2\n      dup2\n      add\n      swap2\n      swap1\n      swap2\n      mstore\n        /* \"contracts/Online/ERC20/Uni.sol\":20977:21005  checkpoints[account][center] */\n      swap2\n      swap3\n      pop\n        /* \"contracts/Online/ERC20/Uni.sol\":21023:21050  cp.fromBlock == blockNumber */\n      dup8\n      swap1\n      sub\n        /* \"contracts/Online/ERC20/Uni.sol\":21019:21242  if (cp.fromBlock == blockNumber) {... */\n      tag_205\n      jumpi\n        /* \"contracts/Online/ERC20/Uni.sol\":21077:21085  cp.votes */\n      0x20\n      add\n      mload\n      swap5\n      pop\n        /* \"contracts/Online/ERC20/Uni.sol\":21070:21085  return cp.votes */\n      tag_144\n      swap4\n      pop\n      pop\n      pop\n      pop\n      jump\n        /* \"contracts/Online/ERC20/Uni.sol\":21019:21242  if (cp.fromBlock == blockNumber) {... */\n    tag_205:\n        /* \"contracts/Online/ERC20/Uni.sol\":21110:21122  cp.fromBlock */\n      dup1\n      mload\n        /* \"contracts/Online/ERC20/Uni.sol\":21110:21136  cp.fromBlock < blockNumber */\n      0xffffffff\n      and\n      dup8\n      gt\n        /* \"contracts/Online/ERC20/Uni.sol\":21106:21242  if (cp.fromBlock < blockNumber) {... */\n      iszero\n      tag_207\n      jumpi\n        /* \"contracts/Online/ERC20/Uni.sol\":21164:21170  center */\n      dup2\n        /* \"contracts/Online/ERC20/Uni.sol\":21156:21170  lower = center */\n      swap4\n      pop\n        /* \"contracts/Online/ERC20/Uni.sol\":21106:21242  if (cp.fromBlock < blockNumber) {... */\n      jump(tag_208)\n    tag_207:\n        /* \"contracts/Online/ERC20/Uni.sol\":21217:21227  center - 1 */\n      tag_209\n        /* \"contracts/Online/ERC20/Uni.sol\":21226:21227  1 */\n      0x01\n        /* \"contracts/Online/ERC20/Uni.sol\":21217:21223  center */\n      dup4\n        /* \"contracts/Online/ERC20/Uni.sol\":21217:21227  center - 1 */\n      tag_194\n      jump\t// in\n    tag_209:\n        /* \"contracts/Online/ERC20/Uni.sol\":21209:21227  upper = center - 1 */\n      swap3\n      pop\n        /* \"contracts/Online/ERC20/Uni.sol\":21106:21242  if (cp.fromBlock < blockNumber) {... */\n    tag_208:\n        /* \"contracts/Online/ERC20/Uni.sol\":20856:21252  {... */\n      pop\n      pop\n        /* \"contracts/Online/ERC20/Uni.sol\":20834:21252  while (upper > lower) {... */\n      jump(tag_199)\n    tag_200:\n      pop\n      sub(shl(0xa0, 0x01), 0x01)\n        /* \"contracts/Online/ERC20/Uni.sol\":21268:21288  checkpoints[account] */\n      dup6\n      and\n      0x00\n      swap1\n      dup2\n      mstore\n        /* \"contracts/Online/ERC20/Uni.sol\":21268:21279  checkpoints */\n      0x06\n        /* \"contracts/Online/ERC20/Uni.sol\":21268:21288  checkpoints[account] */\n      0x20\n      swap1\n      dup2\n      mstore\n      0x40\n      dup1\n      dup4\n      keccak256\n        /* \"contracts/Online/ERC20/Uni.sol\":21268:21295  checkpoints[account][lower] */\n      0xffffffff\n      swap1\n      swap5\n      and\n      dup4\n      mstore\n      swap3\n      swap1\n      mstore\n      keccak256\n        /* \"contracts/Online/ERC20/Uni.sol\":21268:21301  checkpoints[account][lower].votes */\n      sload\n      sub(shl(0x60, 0x01), 0x01)\n      shl(0x20, 0x01)\n      swap1\n      swap2\n      div\n      and\n      swap2\n      pop\n      pop\n        /* \"contracts/Online/ERC20/Uni.sol\":20058:21308  function getPriorVotes(address account, uint256 blockNumber)... */\n      swap3\n      swap2\n      pop\n      pop\n      jump\t// out\n        /* \"contracts/Online/ERC20/Uni.sol\":16162:16432  function transfer(address dst, uint256 rawAmount) external returns (bool) {... */\n    tag_113:\n        /* \"contracts/Online/ERC20/Uni.sol\":16230:16234  bool */\n      0x00\n        /* \"contracts/Online/ERC20/Uni.sol\":16246:16259  uint96 amount */\n      dup1\n        /* \"contracts/Online/ERC20/Uni.sol\":16262:16354  safe96(... */\n      tag_211\n        /* \"contracts/Online/ERC20/Uni.sol\":16282:16291  rawAmount */\n      dup4\n        /* \"contracts/Online/ERC20/Uni.sol\":16262:16354  safe96(... */\n      mload(0x40)\n      dup1\n      0x60\n      add\n      0x40\n      mstore\n      dup1\n      0x25\n      dup2\n      mstore\n      0x20\n      add\n      data_9bc67db7413f33b8f7a9995149809b7b3a4a83b5ba884084bea06cfb35986555\n      0x25\n      swap2\n      codecopy\n        /* \"contracts/Online/ERC20/Uni.sol\":16262:16268  safe96 */\n      tag_146\n        /* \"contracts/Online/ERC20/Uni.sol\":16262:16354  safe96(... */\n      jump\t// in\n    tag_211:\n        /* \"contracts/Online/ERC20/Uni.sol\":16246:16354  uint96 amount = safe96(... */\n      swap1\n      pop\n        /* \"contracts/Online/ERC20/Uni.sol\":16364:16404  _transferTokens(msg.sender, dst, amount) */\n      tag_212\n        /* \"contracts/Online/ERC20/Uni.sol\":16380:16390  msg.sender */\n      caller\n        /* \"contracts/Online/ERC20/Uni.sol\":16392:16395  dst */\n      dup6\n        /* \"contracts/Online/ERC20/Uni.sol\":16397:16403  amount */\n      dup4\n        /* \"contracts/Online/ERC20/Uni.sol\":16364:16379  _transferTokens */\n      tag_156\n        /* \"contracts/Online/ERC20/Uni.sol\":16364:16404  _transferTokens(msg.sender, dst, amount) */\n      jump\t// in\n    tag_212:\n      pop\n        /* \"contracts/Online/ERC20/Uni.sol\":16421:16425  true */\n      0x01\n      swap4\n        /* \"contracts/Online/ERC20/Uni.sol\":16162:16432  function transfer(address dst, uint256 rawAmount) external returns (bool) {... */\n      swap3\n      pop\n      pop\n      pop\n      jump\t// out\n        /* \"contracts/Online/ERC20/Uni.sol\":19405:19636  function getCurrentVotes(address account) external view returns (uint96) {... */\n    tag_117:\n      sub(shl(0xa0, 0x01), 0x01)\n        /* \"contracts/Online/ERC20/Uni.sol\":19510:19533  numCheckpoints[account] */\n      dup2\n      and\n        /* \"contracts/Online/ERC20/Uni.sol\":19470:19476  uint96 */\n      0x00\n        /* \"contracts/Online/ERC20/Uni.sol\":19510:19533  numCheckpoints[account] */\n      swap1\n      dup2\n      mstore\n        /* \"contracts/Online/ERC20/Uni.sol\":19510:19524  numCheckpoints */\n      0x07\n        /* \"contracts/Online/ERC20/Uni.sol\":19510:19533  numCheckpoints[account] */\n      0x20\n      mstore\n      0x40\n      dup2\n      keccak256\n      sload\n      0xffffffff\n      and\n        /* \"contracts/Online/ERC20/Uni.sol\":19562:19578  nCheckpoints > 0 */\n      dup1\n        /* \"contracts/Online/ERC20/Uni.sol\":19562:19629  nCheckpoints > 0 ? checkpoints[account][nCheckpoints - 1].votes : 0 */\n      tag_214\n      jumpi\n        /* \"contracts/Online/ERC20/Uni.sol\":19628:19629  0 */\n      0x00\n        /* \"contracts/Online/ERC20/Uni.sol\":19562:19629  nCheckpoints > 0 ? checkpoints[account][nCheckpoints - 1].votes : 0 */\n      jump(tag_215)\n    tag_214:\n      sub(shl(0xa0, 0x01), 0x01)\n        /* \"contracts/Online/ERC20/Uni.sol\":19581:19601  checkpoints[account] */\n      dup4\n      and\n      0x00\n      swap1\n      dup2\n      mstore\n        /* \"contracts/Online/ERC20/Uni.sol\":19581:19592  checkpoints */\n      0x06\n        /* \"contracts/Online/ERC20/Uni.sol\":19581:19601  checkpoints[account] */\n      0x20\n      mstore\n      0x40\n      dup2\n      keccak256\n      swap1\n        /* \"contracts/Online/ERC20/Uni.sol\":19602:19618  nCheckpoints - 1 */\n      tag_216\n        /* \"contracts/Online/ERC20/Uni.sol\":19617:19618  1 */\n      0x01\n        /* \"contracts/Online/ERC20/Uni.sol\":19602:19614  nCheckpoints */\n      dup5\n        /* \"contracts/Online/ERC20/Uni.sol\":19602:19618  nCheckpoints - 1 */\n      tag_194\n      jump\t// in\n    tag_216:\n        /* \"contracts/Online/ERC20/Uni.sol\":19581:19619  checkpoints[account][nCheckpoints - 1] */\n      0xffffffff\n      and\n      dup2\n      mstore\n      0x20\n      dup2\n      add\n      swap2\n      swap1\n      swap2\n      mstore\n      0x40\n      add\n      0x00\n      keccak256\n        /* \"contracts/Online/ERC20/Uni.sol\":19581:19625  checkpoints[account][nCheckpoints - 1].votes */\n      sload\n      shl(0x20, 0x01)\n      swap1\n      div\n      sub(shl(0x60, 0x01), 0x01)\n      and\n        /* \"contracts/Online/ERC20/Uni.sol\":19562:19629  nCheckpoints > 0 ? checkpoints[account][nCheckpoints - 1].votes : 0 */\n    tag_215:\n        /* \"contracts/Online/ERC20/Uni.sol\":19543:19629  return... */\n      swap4\n        /* \"contracts/Online/ERC20/Uni.sol\":19405:19636  function getCurrentVotes(address account) external view returns (uint96) {... */\n      swap3\n      pop\n      pop\n      pop\n      jump\t// out\n        /* \"contracts/Online/ERC20/Uni.sol\":18150:19211  function delegateBySig(... */\n    tag_122:\n        /* \"contracts/Online/ERC20/Uni.sol\":18451:18455  name */\n      0x40\n      dup1\n      mload\n      dup1\n      dup3\n      add\n      dup3\n      mstore\n      0x07\n      dup2\n      mstore\n      shl(0xcc, 0x0556e697377617)\n      0x20\n      swap2\n      dup3\n      add\n      mstore\n        /* \"contracts/Online/ERC20/Uni.sol\":18374:18532  abi.encode(... */\n      dup2\n      mload\n        /* \"contracts/Online/ERC20/Uni.sol\":8451:8553  keccak256(... */\n      0x8cad95687ba82c2ce50e74f7b754645e5117c3a5bec8151c0726d5857980a866\n        /* \"contracts/Online/ERC20/Uni.sol\":18374:18532  abi.encode(... */\n      dup2\n      dup4\n      add\n        /* \"#utility.yul\":8537:8562   */\n      mstore\n        /* \"contracts/Online/ERC20/Uni.sol\":18435:18457  keccak256(bytes(name)) */\n      0x99c45e8ee5dde061ced9c812089094fbd28a020e7e37f2851198887e5ca64985\n        /* \"#utility.yul\":8578:8596   */\n      dup2\n      dup5\n      add\n        /* \"#utility.yul\":8571:8605   */\n      mstore\n        /* \"contracts/Online/ERC20/Uni.sol\":25400:25409  chainid() */\n      chainid\n        /* \"#utility.yul\":8621:8639   */\n      0x60\n      dup3\n      add\n        /* \"#utility.yul\":8614:8648   */\n      mstore\n        /* \"contracts/Online/ERC20/Uni.sol\":18513:18517  this */\n      address\n        /* \"#utility.yul\":8664:8682   */\n      0x80\n      dup1\n      dup4\n      add\n        /* \"#utility.yul\":8657:8717   */\n      swap2\n      swap1\n      swap2\n      mstore\n        /* \"contracts/Online/ERC20/Uni.sol\":18374:18532  abi.encode(... */\n      dup4\n      mload\n      dup1\n      dup4\n      sub\n      swap1\n      swap2\n      add\n      dup2\n      mstore\n        /* \"#utility.yul\":8509:8528   */\n      0xa0\n      dup3\n      add\n        /* \"contracts/Online/ERC20/Uni.sol\":18374:18532  abi.encode(... */\n      dup5\n      mstore\n        /* \"contracts/Online/ERC20/Uni.sol\":18351:18542  keccak256(... */\n      dup1\n      mload\n      swap1\n      dup4\n      add\n      keccak256\n        /* \"contracts/Online/ERC20/Uni.sol\":8698:8769  keccak256(\"Delegation(address delegatee,uint256 nonce,uint256 expiry)\") */\n      0xe48329057bfd03d55e49b547132e39cffd9c1820ad7b9d4c5307691425d15adf\n        /* \"contracts/Online/ERC20/Uni.sol\":18596:18653  abi.encode(DELEGATION_TYPEHASH, delegatee, nonce, expiry) */\n      0xc0\n      dup4\n      add\n        /* \"#utility.yul\":8959:8984   */\n      mstore\n      sub(shl(0xa0, 0x01), 0x01)\n        /* \"#utility.yul\":9020:9052   */\n      dup11\n      and\n        /* \"#utility.yul\":9000:9018   */\n      0xe0\n      dup4\n      add\n        /* \"#utility.yul\":8993:9053   */\n      mstore\n        /* \"#utility.yul\":9069:9087   */\n      0x0100\n      dup3\n      add\n        /* \"#utility.yul\":9062:9096   */\n      dup10\n      swap1\n      mstore\n        /* \"#utility.yul\":9112:9130   */\n      0x0120\n      dup1\n      dup4\n      add\n        /* \"#utility.yul\":9105:9139   */\n      dup10\n      swap1\n      mstore\n        /* \"contracts/Online/ERC20/Uni.sol\":18596:18653  abi.encode(DELEGATION_TYPEHASH, delegatee, nonce, expiry) */\n      dup5\n      mload\n      dup1\n      dup5\n      sub\n      swap1\n      swap2\n      add\n      dup2\n      mstore\n        /* \"#utility.yul\":8931:8950   */\n      0x0140\n      dup4\n      add\n        /* \"contracts/Online/ERC20/Uni.sol\":18596:18653  abi.encode(DELEGATION_TYPEHASH, delegatee, nonce, expiry) */\n      swap1\n      swap5\n      mstore\n        /* \"contracts/Online/ERC20/Uni.sol\":18573:18663  keccak256(... */\n      dup4\n      mload\n      swap4\n      swap1\n      swap3\n      add\n      swap3\n      swap1\n      swap3\n      keccak256\n      shl(0xf0, 0x1901)\n        /* \"contracts/Online/ERC20/Uni.sol\":18713:18770  abi.encodePacked(\"\\x19\\x01\", domainSeparator, structHash) */\n      0x0160\n      dup5\n      add\n        /* \"#utility.yul\":9408:9435   */\n      mstore\n        /* \"#utility.yul\":9451:9462   */\n      0x0162\n      dup4\n      add\n        /* \"#utility.yul\":9444:9471   */\n      dup3\n      swap1\n      mstore\n        /* \"#utility.yul\":9487:9499   */\n      0x0182\n      dup4\n      add\n        /* \"#utility.yul\":9480:9508   */\n      dup2\n      swap1\n      mstore\n        /* \"contracts/Online/ERC20/Uni.sol\":18351:18542  keccak256(... */\n      swap1\n      swap2\n      0x00\n      swap1\n        /* \"#utility.yul\":9524:9536   */\n      0x01a2\n      add\n        /* \"contracts/Online/ERC20/Uni.sol\":18713:18770  abi.encodePacked(\"\\x19\\x01\", domainSeparator, structHash) */\n      0x40\n      dup1\n      mload\n      not(0x1f)\n      dup2\n      dup5\n      sub\n      add\n      dup2\n      mstore\n      dup3\n      dup3\n      mstore\n        /* \"contracts/Online/ERC20/Uni.sol\":18690:18780  keccak256(... */\n      dup1\n      mload\n        /* \"contracts/Online/ERC20/Uni.sol\":18713:18770  abi.encodePacked(\"\\x19\\x01\", domainSeparator, structHash) */\n      0x20\n        /* \"contracts/Online/ERC20/Uni.sol\":18690:18780  keccak256(... */\n      swap2\n      dup3\n      add\n      keccak256\n        /* \"contracts/Online/ERC20/Uni.sol\":18790:18807  address signatory */\n      0x00\n        /* \"contracts/Online/ERC20/Uni.sol\":18810:18836  ecrecover(digest, v, r, s) */\n      dup1\n      dup6\n      mstore\n      swap2\n      dup5\n      add\n      dup1\n      dup5\n      mstore\n        /* \"#utility.yul\":9774:9799   */\n      dup2\n      swap1\n      mstore\n        /* \"#utility.yul\":9847:9851   */\n      0xff\n        /* \"#utility.yul\":9835:9852   */\n      dup11\n      and\n        /* \"#utility.yul\":9815:9833   */\n      swap3\n      dup5\n      add\n        /* \"#utility.yul\":9808:9853   */\n      swap3\n      swap1\n      swap3\n      mstore\n        /* \"#utility.yul\":9869:9887   */\n      0x60\n      dup4\n      add\n        /* \"#utility.yul\":9862:9896   */\n      dup9\n      swap1\n      mstore\n        /* \"#utility.yul\":9912:9930   */\n      0x80\n      dup4\n      add\n        /* \"#utility.yul\":9905:9939   */\n      dup8\n      swap1\n      mstore\n        /* \"contracts/Online/ERC20/Uni.sol\":18690:18780  keccak256(... */\n      swap1\n      swap3\n      pop\n        /* \"contracts/Online/ERC20/Uni.sol\":18790:18807  address signatory */\n      swap1\n        /* \"contracts/Online/ERC20/Uni.sol\":18810:18836  ecrecover(digest, v, r, s) */\n      0x01\n      swap1\n        /* \"#utility.yul\":9746:9765   */\n      0xa0\n      add\n        /* \"contracts/Online/ERC20/Uni.sol\":18810:18836  ecrecover(digest, v, r, s) */\n      0x20\n      mload(0x40)\n      0x20\n      dup2\n      sub\n      swap1\n      dup1\n      dup5\n      sub\n      swap1\n      dup6\n      gas\n      staticcall\n      iszero\n      dup1\n      iszero\n      tag_229\n      jumpi\n      returndatasize\n      0x00\n      dup1\n      returndatacopy\n      revert(0x00, returndatasize)\n    tag_229:\n      pop\n      pop\n      mload(add(not(0x1f), mload(0x40)))\n      swap2\n      pop\n      pop\n      sub(shl(0xa0, 0x01), 0x01)\n        /* \"contracts/Online/ERC20/Uni.sol\":18867:18890  signatory != address(0) */\n      dup2\n      and\n        /* \"contracts/Online/ERC20/Uni.sol\":18846:18953  require(... */\n      tag_230\n      jumpi\n      mload(0x40)\n      shl(0xe5, 0x461bcd)\n      dup2\n      mstore\n        /* \"#utility.yul\":10152:10154   */\n      0x20\n        /* \"contracts/Online/ERC20/Uni.sol\":18846:18953  require(... */\n      0x04\n      dup3\n      add\n        /* \"#utility.yul\":10134:10155   */\n      mstore\n        /* \"#utility.yul\":10191:10193   */\n      0x25\n        /* \"#utility.yul\":10171:10189   */\n      0x24\n      dup3\n      add\n        /* \"#utility.yul\":10164:10194   */\n      mstore\n        /* \"#utility.yul\":10230:10264   */\n      0x556e693a3a64656c656761746542795369673a20696e76616c6964207369676e\n        /* \"#utility.yul\":10210:10228   */\n      0x44\n      dup3\n      add\n        /* \"#utility.yul\":10203:10265   */\n      mstore\n      shl(0xd8, 0x6174757265)\n        /* \"#utility.yul\":10281:10299   */\n      0x64\n      dup3\n      add\n        /* \"#utility.yul\":10274:10309   */\n      mstore\n        /* \"#utility.yul\":10326:10345   */\n      0x84\n      add\n        /* \"contracts/Online/ERC20/Uni.sol\":18846:18953  require(... */\n      tag_159\n        /* \"#utility.yul\":9950:10351   */\n      jump\n        /* \"contracts/Online/ERC20/Uni.sol\":18846:18953  require(... */\n    tag_230:\n      sub(shl(0xa0, 0x01), 0x01)\n        /* \"contracts/Online/ERC20/Uni.sol\":18993:19010  nonces[signatory] */\n      dup2\n      and\n      0x00\n      swap1\n      dup2\n      mstore\n        /* \"contracts/Online/ERC20/Uni.sol\":18993:18999  nonces */\n      0x08\n        /* \"contracts/Online/ERC20/Uni.sol\":18993:19010  nonces[signatory] */\n      0x20\n      mstore\n      0x40\n      dup2\n      keccak256\n        /* \"contracts/Online/ERC20/Uni.sol\":18993:19012  nonces[signatory]++ */\n      dup1\n      sload\n      swap2\n      tag_233\n      dup4\n      tag_234\n      jump\t// in\n    tag_233:\n      swap2\n      swap1\n      pop\n      sstore\n        /* \"contracts/Online/ERC20/Uni.sol\":18984:18989  nonce */\n      dup10\n        /* \"contracts/Online/ERC20/Uni.sol\":18984:19012  nonce == nonces[signatory]++ */\n      eq\n        /* \"contracts/Online/ERC20/Uni.sol\":18963:19071  require(... */\n      tag_235\n      jumpi\n      mload(0x40)\n      shl(0xe5, 0x461bcd)\n      dup2\n      mstore\n        /* \"#utility.yul\":10698:10700   */\n      0x20\n        /* \"contracts/Online/ERC20/Uni.sol\":18963:19071  require(... */\n      0x04\n      dup3\n      add\n        /* \"#utility.yul\":10680:10701   */\n      mstore\n        /* \"#utility.yul\":10737:10739   */\n      0x21\n        /* \"#utility.yul\":10717:10735   */\n      0x24\n      dup3\n      add\n        /* \"#utility.yul\":10710:10740   */\n      mstore\n        /* \"#utility.yul\":10776:10810   */\n      0x556e693a3a64656c656761746542795369673a20696e76616c6964206e6f6e63\n        /* \"#utility.yul\":10756:10774   */\n      0x44\n      dup3\n      add\n        /* \"#utility.yul\":10749:10811   */\n      mstore\n      shl(0xf8, 0x65)\n        /* \"#utility.yul\":10827:10845   */\n      0x64\n      dup3\n      add\n        /* \"#utility.yul\":10820:10851   */\n      mstore\n        /* \"#utility.yul\":10868:10887   */\n      0x84\n      add\n        /* \"contracts/Online/ERC20/Uni.sol\":18963:19071  require(... */\n      tag_159\n        /* \"#utility.yul\":10496:10893   */\n      jump\n        /* \"contracts/Online/ERC20/Uni.sol\":18963:19071  require(... */\n    tag_235:\n        /* \"contracts/Online/ERC20/Uni.sol\":19108:19114  expiry */\n      dup8\n        /* \"contracts/Online/ERC20/Uni.sol\":19089:19104  block.timestamp */\n      timestamp\n        /* \"contracts/Online/ERC20/Uni.sol\":19089:19114  block.timestamp <= expiry */\n      gt\n      iszero\n        /* \"contracts/Online/ERC20/Uni.sol\":19081:19156  require(block.timestamp <= expiry, \"Uni::delegateBySig: signature expired\") */\n      tag_238\n      jumpi\n      mload(0x40)\n      shl(0xe5, 0x461bcd)\n      dup2\n      mstore\n        /* \"#utility.yul\":11100:11102   */\n      0x20\n        /* \"contracts/Online/ERC20/Uni.sol\":19081:19156  require(block.timestamp <= expiry, \"Uni::delegateBySig: signature expired\") */\n      0x04\n      dup3\n      add\n        /* \"#utility.yul\":11082:11103   */\n      mstore\n        /* \"#utility.yul\":11139:11141   */\n      0x25\n        /* \"#utility.yul\":11119:11137   */\n      0x24\n      dup3\n      add\n        /* \"#utility.yul\":11112:11142   */\n      mstore\n        /* \"#utility.yul\":11178:11212   */\n      0x556e693a3a64656c656761746542795369673a207369676e6174757265206578\n        /* \"#utility.yul\":11158:11176   */\n      0x44\n      dup3\n      add\n        /* \"#utility.yul\":11151:11213   */\n      mstore\n      shl(0xda, 0x1c1a5c9959)\n        /* \"#utility.yul\":11229:11247   */\n      0x64\n      dup3\n      add\n        /* \"#utility.yul\":11222:11257   */\n      mstore\n        /* \"#utility.yul\":11274:11293   */\n      0x84\n      add\n        /* \"contracts/Online/ERC20/Uni.sol\":19081:19156  require(block.timestamp <= expiry, \"Uni::delegateBySig: signature expired\") */\n      tag_159\n        /* \"#utility.yul\":10898:11299   */\n      jump\n        /* \"contracts/Online/ERC20/Uni.sol\":19081:19156  require(block.timestamp <= expiry, \"Uni::delegateBySig: signature expired\") */\n    tag_238:\n        /* \"contracts/Online/ERC20/Uni.sol\":19173:19204  _delegate(signatory, delegatee) */\n      tag_241\n        /* \"contracts/Online/ERC20/Uni.sol\":19183:19192  signatory */\n      dup2\n        /* \"contracts/Online/ERC20/Uni.sol\":19194:19203  delegatee */\n      dup12\n        /* \"contracts/Online/ERC20/Uni.sol\":19173:19182  _delegate */\n      tag_186\n        /* \"contracts/Online/ERC20/Uni.sol\":19173:19204  _delegate(signatory, delegatee) */\n      jump\t// in\n    tag_241:\n        /* \"contracts/Online/ERC20/Uni.sol\":19166:19204  return _delegate(signatory, delegatee) */\n      pop\n      pop\n      pop\n      pop\n        /* \"contracts/Online/ERC20/Uni.sol\":18150:19211  function delegateBySig(... */\n    tag_217:\n      pop\n      pop\n      pop\n      pop\n      pop\n      pop\n      jump\t// out\n        /* \"contracts/Online/ERC20/Uni.sol\":14327:15601  function permit(... */\n    tag_126:\n        /* \"contracts/Online/ERC20/Uni.sol\":14524:14537  uint96 amount */\n      0x00\n        /* \"contracts/Online/ERC20/Uni.sol\":14556:14612  safe96(rawAmount, \"Uni::permit: amount exceeds 96 bits\") */\n      tag_243\n        /* \"contracts/Online/ERC20/Uni.sol\":14563:14572  rawAmount */\n      dup7\n        /* \"contracts/Online/ERC20/Uni.sol\":14556:14612  safe96(rawAmount, \"Uni::permit: amount exceeds 96 bits\") */\n      mload(0x40)\n      dup1\n      0x60\n      add\n      0x40\n      mstore\n      dup1\n      0x23\n      dup2\n      mstore\n      0x20\n      add\n      data_58da0b91010307ee6a63257c5283618928105e355857d8f79cf7e017ad7082f4\n      0x23\n      swap2\n      codecopy\n        /* \"contracts/Online/ERC20/Uni.sol\":14556:14562  safe96 */\n      tag_146\n        /* \"contracts/Online/ERC20/Uni.sol\":14556:14612  safe96(rawAmount, \"Uni::permit: amount exceeds 96 bits\") */\n      jump\t// in\n    tag_243:\n        /* \"contracts/Online/ERC20/Uni.sol\":14759:14763  name */\n      0x40\n      dup1\n      mload\n      dup1\n      dup3\n      add\n      dup3\n      mstore\n      0x07\n      dup2\n      mstore\n      shl(0xcc, 0x0556e697377617)\n      0x20\n      swap2\n      dup3\n      add\n      mstore\n        /* \"contracts/Online/ERC20/Uni.sol\":14682:14840  abi.encode(... */\n      dup2\n      mload\n        /* \"contracts/Online/ERC20/Uni.sol\":8451:8553  keccak256(... */\n      0x8cad95687ba82c2ce50e74f7b754645e5117c3a5bec8151c0726d5857980a866\n        /* \"contracts/Online/ERC20/Uni.sol\":14682:14840  abi.encode(... */\n      dup2\n      dup4\n      add\n        /* \"#utility.yul\":8537:8562   */\n      mstore\n        /* \"contracts/Online/ERC20/Uni.sol\":14743:14765  keccak256(bytes(name)) */\n      0x99c45e8ee5dde061ced9c812089094fbd28a020e7e37f2851198887e5ca64985\n        /* \"#utility.yul\":8578:8596   */\n      dup2\n      dup5\n      add\n        /* \"#utility.yul\":8571:8605   */\n      mstore\n        /* \"contracts/Online/ERC20/Uni.sol\":25400:25409  chainid() */\n      chainid\n        /* \"#utility.yul\":8621:8639   */\n      0x60\n      dup3\n      add\n        /* \"#utility.yul\":8614:8648   */\n      mstore\n        /* \"contracts/Online/ERC20/Uni.sol\":14821:14825  this */\n      address\n        /* \"#utility.yul\":8664:8682   */\n      0x80\n      dup1\n      dup4\n      add\n        /* \"#utility.yul\":8657:8717   */\n      swap2\n      swap1\n      swap2\n      mstore\n        /* \"contracts/Online/ERC20/Uni.sol\":14682:14840  abi.encode(... */\n      dup4\n      mload\n      dup1\n      dup4\n      sub\n      swap1\n      swap2\n      add\n      dup2\n      mstore\n        /* \"#utility.yul\":8509:8528   */\n      0xa0\n      swap1\n      swap2\n      add\n        /* \"contracts/Online/ERC20/Uni.sol\":14682:14840  abi.encode(... */\n      dup4\n      mstore\n        /* \"contracts/Online/ERC20/Uni.sol\":14659:14850  keccak256(... */\n      dup1\n      mload\n      swap1\n      dup3\n      add\n      keccak256\n      sub(shl(0xa0, 0x01), 0x01)\n        /* \"contracts/Online/ERC20/Uni.sol\":15040:15053  nonces[owner] */\n      dup13\n      and\n      0x00\n      swap1\n      dup2\n      mstore\n        /* \"contracts/Online/ERC20/Uni.sol\":15040:15046  nonces */\n      0x08\n        /* \"contracts/Online/ERC20/Uni.sol\":15040:15053  nonces[owner] */\n      swap1\n      swap3\n      mstore\n      swap2\n      dup2\n      keccak256\n        /* \"contracts/Online/ERC20/Uni.sol\":15040:15055  nonces[owner]++ */\n      dup1\n      sload\n        /* \"contracts/Online/ERC20/Uni.sol\":14547:14612  amount = safe96(rawAmount, \"Uni::permit: amount exceeds 96 bits\") */\n      swap4\n      swap5\n      pop\n        /* \"contracts/Online/ERC20/Uni.sol\":14659:14850  keccak256(... */\n      swap2\n      swap3\n      swap1\n      swap2\n        /* \"contracts/Online/ERC20/Uni.sol\":8906:9023  keccak256(... */\n      0x6e71edae12b1b97f4d1f60370fef10105fa2faae0126114a169c64845d6126c9\n      swap2\n        /* \"contracts/Online/ERC20/Uni.sol\":15040:15053  nonces[owner] */\n      dup13\n      swap2\n        /* \"contracts/Online/ERC20/Uni.sol\":14988:14995  spender */\n      dup13\n      swap2\n        /* \"contracts/Online/ERC20/Uni.sol\":15013:15022  rawAmount */\n      dup13\n      swap2\n      dup7\n        /* \"contracts/Online/ERC20/Uni.sol\":15040:15055  nonces[owner]++ */\n      tag_246\n      dup4\n      tag_234\n      jump\t// in\n    tag_246:\n      swap1\n      swap2\n      sstore\n      pop\n        /* \"contracts/Online/ERC20/Uni.sol\":14904:15095  abi.encode(... */\n      0x40\n      dup1\n      mload\n      0x20\n      dup2\n      add\n        /* \"#utility.yul\":11591:11616   */\n      swap7\n      swap1\n      swap7\n      mstore\n      sub(shl(0xa0, 0x01), 0x01)\n        /* \"#utility.yul\":11652:11684   */\n      swap5\n      dup6\n      and\n        /* \"#utility.yul\":11632:11650   */\n      swap1\n      dup7\n      add\n        /* \"#utility.yul\":11625:11685   */\n      mstore\n        /* \"#utility.yul\":11721:11753   */\n      swap3\n      swap1\n      swap2\n      and\n        /* \"#utility.yul\":11701:11719   */\n      0x60\n      dup5\n      add\n        /* \"#utility.yul\":11694:11754   */\n      mstore\n        /* \"#utility.yul\":11770:11788   */\n      0x80\n      dup4\n      add\n        /* \"#utility.yul\":11763:11797   */\n      mstore\n        /* \"#utility.yul\":11813:11832   */\n      0xa0\n      dup3\n      add\n        /* \"#utility.yul\":11806:11841   */\n      mstore\n        /* \"#utility.yul\":11857:11876   */\n      0xc0\n      dup2\n      add\n        /* \"#utility.yul\":11850:11885   */\n      dup9\n      swap1\n      mstore\n        /* \"#utility.yul\":11563:11582   */\n      0xe0\n      add\n        /* \"contracts/Online/ERC20/Uni.sol\":14904:15095  abi.encode(... */\n      mload(0x40)\n      0x20\n      dup2\n      dup4\n      sub\n      sub\n      dup2\n      mstore\n      swap1\n      0x40\n      mstore\n        /* \"contracts/Online/ERC20/Uni.sol\":14881:15105  keccak256(... */\n      dup1\n      mload\n      swap1\n      0x20\n      add\n      keccak256\n        /* \"contracts/Online/ERC20/Uni.sol\":14860:15105  bytes32 structHash = keccak256(... */\n      swap1\n      pop\n        /* \"contracts/Online/ERC20/Uni.sol\":15115:15129  bytes32 digest */\n      0x00\n        /* \"contracts/Online/ERC20/Uni.sol\":15184:15199  domainSeparator */\n      dup3\n        /* \"contracts/Online/ERC20/Uni.sol\":15201:15211  structHash */\n      dup3\n        /* \"contracts/Online/ERC20/Uni.sol\":15155:15212  abi.encodePacked(\"\\x19\\x01\", domainSeparator, structHash) */\n      add(0x20, mload(0x40))\n      tag_249\n      swap3\n      swap2\n      swap1\n      shl(0xf0, 0x1901)\n        /* \"#utility.yul\":9408:9435   */\n      dup2\n      mstore\n        /* \"#utility.yul\":9460:9461   */\n      0x02\n        /* \"#utility.yul\":9451:9462   */\n      dup2\n      add\n        /* \"#utility.yul\":9444:9471   */\n      swap3\n      swap1\n      swap3\n      mstore\n        /* \"#utility.yul\":9496:9498   */\n      0x22\n        /* \"#utility.yul\":9487:9499   */\n      dup3\n      add\n        /* \"#utility.yul\":9480:9508   */\n      mstore\n        /* \"#utility.yul\":9533:9535   */\n      0x42\n        /* \"#utility.yul\":9524:9536   */\n      add\n      swap1\n        /* \"#utility.yul\":9150:9542   */\n      jump\n        /* \"contracts/Online/ERC20/Uni.sol\":15155:15212  abi.encodePacked(\"\\x19\\x01\", domainSeparator, structHash) */\n    tag_249:\n      0x40\n      dup1\n      mload\n      not(0x1f)\n      dup2\n      dup5\n      sub\n      add\n      dup2\n      mstore\n      dup3\n      dup3\n      mstore\n        /* \"contracts/Online/ERC20/Uni.sol\":15132:15222  keccak256(... */\n      dup1\n      mload\n        /* \"contracts/Online/ERC20/Uni.sol\":15155:15212  abi.encodePacked(\"\\x19\\x01\", domainSeparator, structHash) */\n      0x20\n        /* \"contracts/Online/ERC20/Uni.sol\":15132:15222  keccak256(... */\n      swap2\n      dup3\n      add\n      keccak256\n        /* \"contracts/Online/ERC20/Uni.sol\":15232:15249  address signatory */\n      0x00\n        /* \"contracts/Online/ERC20/Uni.sol\":15252:15278  ecrecover(digest, v, r, s) */\n      dup1\n      dup6\n      mstore\n      swap2\n      dup5\n      add\n      dup1\n      dup5\n      mstore\n        /* \"#utility.yul\":9774:9799   */\n      dup2\n      swap1\n      mstore\n        /* \"#utility.yul\":9847:9851   */\n      0xff\n        /* \"#utility.yul\":9835:9852   */\n      dup12\n      and\n        /* \"#utility.yul\":9815:9833   */\n      swap3\n      dup5\n      add\n        /* \"#utility.yul\":9808:9853   */\n      swap3\n      swap1\n      swap3\n      mstore\n        /* \"#utility.yul\":9869:9887   */\n      0x60\n      dup4\n      add\n        /* \"#utility.yul\":9862:9896   */\n      dup10\n      swap1\n      mstore\n        /* \"#utility.yul\":9912:9930   */\n      0x80\n      dup4\n      add\n        /* \"#utility.yul\":9905:9939   */\n      dup9\n      swap1\n      mstore\n        /* \"contracts/Online/ERC20/Uni.sol\":15132:15222  keccak256(... */\n      swap1\n      swap3\n      pop\n        /* \"contracts/Online/ERC20/Uni.sol\":15232:15249  address signatory */\n      swap1\n        /* \"contracts/Online/ERC20/Uni.sol\":15252:15278  ecrecover(digest, v, r, s) */\n      0x01\n      swap1\n        /* \"#utility.yul\":9746:9765   */\n      0xa0\n      add\n        /* \"contracts/Online/ERC20/Uni.sol\":15252:15278  ecrecover(digest, v, r, s) */\n      0x20\n      mload(0x40)\n      0x20\n      dup2\n      sub\n      swap1\n      dup1\n      dup5\n      sub\n      swap1\n      dup6\n      gas\n      staticcall\n      iszero\n      dup1\n      iszero\n      tag_252\n      jumpi\n      returndatasize\n      0x00\n      dup1\n      returndatacopy\n      revert(0x00, returndatasize)\n    tag_252:\n      pop\n      pop\n      mload(add(not(0x1f), mload(0x40)))\n      swap2\n      pop\n      pop\n      sub(shl(0xa0, 0x01), 0x01)\n        /* \"contracts/Online/ERC20/Uni.sol\":15296:15319  signatory != address(0) */\n      dup2\n      and\n        /* \"contracts/Online/ERC20/Uni.sol\":15288:15354  require(signatory != address(0), \"Uni::permit: invalid signature\") */\n      tag_253\n      jumpi\n      mload(0x40)\n      shl(0xe5, 0x461bcd)\n      dup2\n      mstore\n        /* \"#utility.yul\":12098:12100   */\n      0x20\n        /* \"contracts/Online/ERC20/Uni.sol\":15288:15354  require(signatory != address(0), \"Uni::permit: invalid signature\") */\n      0x04\n      dup3\n      add\n        /* \"#utility.yul\":12080:12101   */\n      mstore\n        /* \"#utility.yul\":12137:12139   */\n      0x1e\n        /* \"#utility.yul\":12117:12135   */\n      0x24\n      dup3\n      add\n        /* \"#utility.yul\":12110:12140   */\n      mstore\n        /* \"#utility.yul\":12176:12208   */\n      0x556e693a3a7065726d69743a20696e76616c6964207369676e61747572650000\n        /* \"#utility.yul\":12156:12174   */\n      0x44\n      dup3\n      add\n        /* \"#utility.yul\":12149:12209   */\n      mstore\n        /* \"#utility.yul\":12226:12244   */\n      0x64\n      add\n        /* \"contracts/Online/ERC20/Uni.sol\":15288:15354  require(signatory != address(0), \"Uni::permit: invalid signature\") */\n      tag_159\n        /* \"#utility.yul\":11896:12250   */\n      jump\n        /* \"contracts/Online/ERC20/Uni.sol\":15288:15354  require(signatory != address(0), \"Uni::permit: invalid signature\") */\n    tag_253:\n        /* \"contracts/Online/ERC20/Uni.sol\":15385:15390  owner */\n      dup12\n      sub(shl(0xa0, 0x01), 0x01)\n        /* \"contracts/Online/ERC20/Uni.sol\":15372:15390  signatory == owner */\n      and\n        /* \"contracts/Online/ERC20/Uni.sol\":15372:15381  signatory */\n      dup2\n      sub(shl(0xa0, 0x01), 0x01)\n        /* \"contracts/Online/ERC20/Uni.sol\":15372:15390  signatory == owner */\n      and\n      eq\n        /* \"contracts/Online/ERC20/Uni.sol\":15364:15420  require(signatory == owner, \"Uni::permit: unauthorized\") */\n      tag_256\n      jumpi\n      mload(0x40)\n      shl(0xe5, 0x461bcd)\n      dup2\n      mstore\n        /* \"#utility.yul\":12457:12459   */\n      0x20\n        /* \"contracts/Online/ERC20/Uni.sol\":15364:15420  require(signatory == owner, \"Uni::permit: unauthorized\") */\n      0x04\n      dup3\n      add\n        /* \"#utility.yul\":12439:12460   */\n      mstore\n        /* \"#utility.yul\":12496:12498   */\n      0x19\n        /* \"#utility.yul\":12476:12494   */\n      0x24\n      dup3\n      add\n        /* \"#utility.yul\":12469:12499   */\n      mstore\n        /* \"#utility.yul\":12535:12562   */\n      0x556e693a3a7065726d69743a20756e617574686f72697a656400000000000000\n        /* \"#utility.yul\":12515:12533   */\n      0x44\n      dup3\n      add\n        /* \"#utility.yul\":12508:12563   */\n      mstore\n        /* \"#utility.yul\":12580:12598   */\n      0x64\n      add\n        /* \"contracts/Online/ERC20/Uni.sol\":15364:15420  require(signatory == owner, \"Uni::permit: unauthorized\") */\n      tag_159\n        /* \"#utility.yul\":12255:12604   */\n      jump\n        /* \"contracts/Online/ERC20/Uni.sol\":15364:15420  require(signatory == owner, \"Uni::permit: unauthorized\") */\n    tag_256:\n        /* \"contracts/Online/ERC20/Uni.sol\":15457:15465  deadline */\n      dup9\n        /* \"contracts/Online/ERC20/Uni.sol\":15438:15453  block.timestamp */\n      timestamp\n        /* \"contracts/Online/ERC20/Uni.sol\":15438:15465  block.timestamp <= deadline */\n      gt\n      iszero\n        /* \"contracts/Online/ERC20/Uni.sol\":15430:15500  require(block.timestamp <= deadline, \"Uni::permit: signature expired\") */\n      tag_259\n      jumpi\n      mload(0x40)\n      shl(0xe5, 0x461bcd)\n      dup2\n      mstore\n        /* \"#utility.yul\":12811:12813   */\n      0x20\n        /* \"contracts/Online/ERC20/Uni.sol\":15430:15500  require(block.timestamp <= deadline, \"Uni::permit: signature expired\") */\n      0x04\n      dup3\n      add\n        /* \"#utility.yul\":12793:12814   */\n      mstore\n        /* \"#utility.yul\":12850:12852   */\n      0x1e\n        /* \"#utility.yul\":12830:12848   */\n      0x24\n      dup3\n      add\n        /* \"#utility.yul\":12823:12853   */\n      mstore\n        /* \"#utility.yul\":12889:12921   */\n      0x556e693a3a7065726d69743a207369676e617475726520657870697265640000\n        /* \"#utility.yul\":12869:12887   */\n      0x44\n      dup3\n      add\n        /* \"#utility.yul\":12862:12922   */\n      mstore\n        /* \"#utility.yul\":12939:12957   */\n      0x64\n      add\n        /* \"contracts/Online/ERC20/Uni.sol\":15430:15500  require(block.timestamp <= deadline, \"Uni::permit: signature expired\") */\n      tag_159\n        /* \"#utility.yul\":12609:12963   */\n      jump\n        /* \"contracts/Online/ERC20/Uni.sol\":15430:15500  require(block.timestamp <= deadline, \"Uni::permit: signature expired\") */\n    tag_259:\n        /* \"contracts/Online/ERC20/Uni.sol\":15540:15546  amount */\n      dup5\n        /* \"contracts/Online/ERC20/Uni.sol\":15511:15521  allowances */\n      0x03\n        /* \"contracts/Online/ERC20/Uni.sol\":15511:15528  allowances[owner] */\n      0x00\n        /* \"contracts/Online/ERC20/Uni.sol\":15522:15527  owner */\n      dup15\n      sub(shl(0xa0, 0x01), 0x01)\n        /* \"contracts/Online/ERC20/Uni.sol\":15511:15528  allowances[owner] */\n      and\n      sub(shl(0xa0, 0x01), 0x01)\n      and\n      dup2\n      mstore\n      0x20\n      add\n      swap1\n      dup2\n      mstore\n      0x20\n      add\n      0x00\n      keccak256\n        /* \"contracts/Online/ERC20/Uni.sol\":15511:15537  allowances[owner][spender] */\n      0x00\n        /* \"contracts/Online/ERC20/Uni.sol\":15529:15536  spender */\n      dup14\n      sub(shl(0xa0, 0x01), 0x01)\n        /* \"contracts/Online/ERC20/Uni.sol\":15511:15537  allowances[owner][spender] */\n      and\n      sub(shl(0xa0, 0x01), 0x01)\n      and\n      dup2\n      mstore\n      0x20\n      add\n      swap1\n      dup2\n      mstore\n      0x20\n      add\n      0x00\n      keccak256\n      0x00\n        /* \"contracts/Online/ERC20/Uni.sol\":15511:15546  allowances[owner][spender] = amount */\n      0x0100\n      exp\n      dup2\n      sload\n      dup2\n      sub(shl(0x60, 0x01), 0x01)\n      mul\n      not\n      and\n      swap1\n      dup4\n      sub(shl(0x60, 0x01), 0x01)\n      and\n      mul\n      or\n      swap1\n      sstore\n      pop\n        /* \"contracts/Online/ERC20/Uni.sol\":15578:15585  spender */\n      dup11\n      sub(shl(0xa0, 0x01), 0x01)\n        /* \"contracts/Online/ERC20/Uni.sol\":15562:15594  Approval(owner, spender, amount) */\n      and\n        /* \"contracts/Online/ERC20/Uni.sol\":15571:15576  owner */\n      dup13\n      sub(shl(0xa0, 0x01), 0x01)\n        /* \"contracts/Online/ERC20/Uni.sol\":15562:15594  Approval(owner, spender, amount) */\n      and\n      0x8c5be1e5ebec7d5bd14f71427d1e84f3dd0314c0f7b2291e5b200ac8c7c3b925\n        /* \"contracts/Online/ERC20/Uni.sol\":15587:15593  amount */\n      dup8\n        /* \"contracts/Online/ERC20/Uni.sol\":15562:15594  Approval(owner, spender, amount) */\n      mload(0x40)\n      tag_262\n      swap2\n      swap1\n      sub(shl(0x60, 0x01), 0x01)\n        /* \"#utility.yul\":2802:2841   */\n      swap2\n      swap1\n      swap2\n      and\n        /* \"#utility.yul\":2784:2842   */\n      dup2\n      mstore\n        /* \"#utility.yul\":2772:2774   */\n      0x20\n        /* \"#utility.yul\":2757:2775   */\n      add\n      swap1\n        /* \"#utility.yul\":2640:2848   */\n      jump\n        /* \"contracts/Online/ERC20/Uni.sol\":15562:15594  Approval(owner, spender, amount) */\n    tag_262:\n      mload(0x40)\n      dup1\n      swap2\n      sub\n      swap1\n      log3\n        /* \"contracts/Online/ERC20/Uni.sol\":14514:15601  {... */\n      pop\n      pop\n      pop\n      pop\n      pop\n        /* \"contracts/Online/ERC20/Uni.sol\":14327:15601  function permit(... */\n      pop\n      pop\n      pop\n      pop\n      pop\n      pop\n      pop\n      jump\t// out\n        /* \"contracts/Online/ERC20/Uni.sol\":10897:11158  function setMinter(address minter_) external {... */\n    tag_143:\n        /* \"contracts/Online/ERC20/Uni.sol\":10987:10993  minter */\n      and(sub(shl(0xa0, 0x01), 0x01), sload(0x01))\n        /* \"contracts/Online/ERC20/Uni.sol\":10973:10983  msg.sender */\n      caller\n        /* \"contracts/Online/ERC20/Uni.sol\":10973:10993  msg.sender == minter */\n      eq\n        /* \"contracts/Online/ERC20/Uni.sol\":10952:11080  require(... */\n      tag_265\n      jumpi\n      mload(0x40)\n      shl(0xe5, 0x461bcd)\n      dup2\n      mstore\n        /* \"#utility.yul\":13170:13172   */\n      0x20\n        /* \"contracts/Online/ERC20/Uni.sol\":10952:11080  require(... */\n      0x04\n      dup3\n      add\n        /* \"#utility.yul\":13152:13173   */\n      mstore\n        /* \"#utility.yul\":13209:13211   */\n      0x3d\n        /* \"#utility.yul\":13189:13207   */\n      0x24\n      dup3\n      add\n        /* \"#utility.yul\":13182:13212   */\n      mstore\n        /* \"#utility.yul\":13248:13282   */\n      0x556e693a3a7365744d696e7465723a206f6e6c7920746865206d696e74657220\n        /* \"#utility.yul\":13228:13246   */\n      0x44\n      dup3\n      add\n        /* \"#utility.yul\":13221:13283   */\n      mstore\n        /* \"#utility.yul\":13319:13350   */\n      0x63616e206368616e676520746865206d696e7465722061646472657373000000\n        /* \"#utility.yul\":13299:13317   */\n      0x64\n      dup3\n      add\n        /* \"#utility.yul\":13292:13351   */\n      mstore\n        /* \"#utility.yul\":13368:13387   */\n      0x84\n      add\n        /* \"contracts/Online/ERC20/Uni.sol\":10952:11080  require(... */\n      tag_159\n        /* \"#utility.yul\":12968:13393   */\n      jump\n        /* \"contracts/Online/ERC20/Uni.sol\":10952:11080  require(... */\n    tag_265:\n        /* \"contracts/Online/ERC20/Uni.sol\":11109:11115  minter */\n      sload(0x01)\n        /* \"contracts/Online/ERC20/Uni.sol\":11095:11125  MinterChanged(minter, minter_) */\n      0x40\n      dup1\n      mload\n      sub(shl(0xa0, 0x01), 0x01)\n        /* \"contracts/Online/ERC20/Uni.sol\":11109:11115  minter */\n      swap3\n      dup4\n      and\n        /* \"#utility.yul\":13572:13623   */\n      dup2\n      mstore\n        /* \"#utility.yul\":13659:13691   */\n      swap2\n      dup4\n      and\n        /* \"#utility.yul\":13654:13656   */\n      0x20\n        /* \"#utility.yul\":13639:13657   */\n      dup4\n      add\n        /* \"#utility.yul\":13632:13692   */\n      mstore\n        /* \"contracts/Online/ERC20/Uni.sol\":11095:11125  MinterChanged(minter, minter_) */\n      0x3b0007eb941cf645526cbb3a4fdaecda9d28ce4843167d9263b536a1f1edc0f6\n      swap2\n        /* \"#utility.yul\":13545:13563   */\n      add\n        /* \"contracts/Online/ERC20/Uni.sol\":11095:11125  MinterChanged(minter, minter_) */\n      mload(0x40)\n      dup1\n      swap2\n      sub\n      swap1\n      log1\n        /* \"contracts/Online/ERC20/Uni.sol\":11135:11141  minter */\n      0x01\n        /* \"contracts/Online/ERC20/Uni.sol\":11135:11151  minter = minter_ */\n      dup1\n      sload\n      not(sub(shl(0xa0, 0x01), 0x01))\n      and\n      sub(shl(0xa0, 0x01), 0x01)\n      swap3\n      swap1\n      swap3\n      and\n      swap2\n      swap1\n      swap2\n      or\n      swap1\n      sstore\n        /* \"contracts/Online/ERC20/Uni.sol\":10897:11158  function setMinter(address minter_) external {... */\n      jump\t// out\n        /* \"contracts/Online/ERC20/Uni.sol\":24663:24852  function safe96(uint256 n, string memory errorMessage)... */\n    tag_146:\n        /* \"contracts/Online/ERC20/Uni.sol\":24765:24771  uint96 */\n      0x00\n        /* \"contracts/Online/ERC20/Uni.sol\":24806:24818  errorMessage */\n      dup2\n      shl(0x60, 0x01)\n        /* \"contracts/Online/ERC20/Uni.sol\":24795:24804  n < 2**96 */\n      dup5\n      lt\n        /* \"contracts/Online/ERC20/Uni.sol\":24787:24819  require(n < 2**96, errorMessage) */\n      tag_271\n      jumpi\n      mload(0x40)\n      shl(0xe5, 0x461bcd)\n      dup2\n      mstore\n      0x04\n      add\n      tag_159\n      swap2\n      swap1\n      tag_39\n      jump\t// in\n    tag_271:\n      pop\n        /* \"contracts/Online/ERC20/Uni.sol\":24843:24844  n */\n      swap2\n      swap3\n        /* \"contracts/Online/ERC20/Uni.sol\":24663:24852  function safe96(uint256 n, string memory errorMessage)... */\n      swap2\n      pop\n      pop\n      jump\t// out\n        /* \"contracts/Online/ERC20/Uni.sol\":25078:25270  function sub96(... */\n    tag_153:\n        /* \"contracts/Online/ERC20/Uni.sol\":25194:25200  uint96 */\n      0x00\n        /* \"contracts/Online/ERC20/Uni.sol\":25225:25226  a */\n      dup4\n      sub(shl(0x60, 0x01), 0x01)\n        /* \"contracts/Online/ERC20/Uni.sol\":25220:25226  b <= a */\n      and\n        /* \"contracts/Online/ERC20/Uni.sol\":25220:25221  b */\n      dup4\n      sub(shl(0x60, 0x01), 0x01)\n        /* \"contracts/Online/ERC20/Uni.sol\":25220:25226  b <= a */\n      and\n      gt\n      iszero\n        /* \"contracts/Online/ERC20/Uni.sol\":25228:25240  errorMessage */\n      dup3\n        /* \"contracts/Online/ERC20/Uni.sol\":25212:25241  require(b <= a, errorMessage) */\n      swap1\n      tag_274\n      jumpi\n      mload(0x40)\n      shl(0xe5, 0x461bcd)\n      dup2\n      mstore\n      0x04\n      add\n      tag_159\n      swap2\n      swap1\n      tag_39\n      jump\t// in\n    tag_274:\n      pop\n        /* \"contracts/Online/ERC20/Uni.sol\":25258:25263  a - b */\n      tag_276\n        /* \"contracts/Online/ERC20/Uni.sol\":25262:25263  b */\n      dup4\n        /* \"contracts/Online/ERC20/Uni.sol\":25258:25259  a */\n      dup6\n        /* \"contracts/Online/ERC20/Uni.sol\":25258:25263  a - b */\n      tag_277\n      jump\t// in\n    tag_276:\n        /* \"contracts/Online/ERC20/Uni.sol\":25251:25263  return a - b */\n      swap5\n        /* \"contracts/Online/ERC20/Uni.sol\":25078:25270  function sub96(... */\n      swap4\n      pop\n      pop\n      pop\n      pop\n      jump\t// out\n        /* \"contracts/Online/ERC20/Uni.sol\":21687:22478  function _transferTokens(... */\n    tag_156:\n      sub(shl(0xa0, 0x01), 0x01)\n        /* \"contracts/Online/ERC20/Uni.sol\":21823:21840  src != address(0) */\n      dup4\n      and\n        /* \"contracts/Online/ERC20/Uni.sol\":21802:21925  require(... */\n      tag_279\n      jumpi\n      mload(0x40)\n      shl(0xe5, 0x461bcd)\n      dup2\n      mstore\n        /* \"#utility.yul\":14128:14130   */\n      0x20\n        /* \"contracts/Online/ERC20/Uni.sol\":21802:21925  require(... */\n      0x04\n      dup3\n      add\n        /* \"#utility.yul\":14110:14131   */\n      mstore\n        /* \"#utility.yul\":14167:14169   */\n      0x3b\n        /* \"#utility.yul\":14147:14165   */\n      0x24\n      dup3\n      add\n        /* \"#utility.yul\":14140:14170   */\n      mstore\n        /* \"#utility.yul\":14206:14240   */\n      0x556e693a3a5f7472616e73666572546f6b656e733a2063616e6e6f7420747261\n        /* \"#utility.yul\":14186:14204   */\n      0x44\n      dup3\n      add\n        /* \"#utility.yul\":14179:14241   */\n      mstore\n        /* \"#utility.yul\":14277:14306   */\n      0x6e736665722066726f6d20746865207a65726f20616464726573730000000000\n        /* \"#utility.yul\":14257:14275   */\n      0x64\n      dup3\n      add\n        /* \"#utility.yul\":14250:14307   */\n      mstore\n        /* \"#utility.yul\":14324:14343   */\n      0x84\n      add\n        /* \"contracts/Online/ERC20/Uni.sol\":21802:21925  require(... */\n      tag_159\n        /* \"#utility.yul\":13926:14349   */\n      jump\n        /* \"contracts/Online/ERC20/Uni.sol\":21802:21925  require(... */\n    tag_279:\n      sub(shl(0xa0, 0x01), 0x01)\n        /* \"contracts/Online/ERC20/Uni.sol\":21956:21973  dst != address(0) */\n      dup3\n      and\n        /* \"contracts/Online/ERC20/Uni.sol\":21935:22056  require(... */\n      tag_282\n      jumpi\n      mload(0x40)\n      shl(0xe5, 0x461bcd)\n      dup2\n      mstore\n        /* \"#utility.yul\":14556:14558   */\n      0x20\n        /* \"contracts/Online/ERC20/Uni.sol\":21935:22056  require(... */\n      0x04\n      dup3\n      add\n        /* \"#utility.yul\":14538:14559   */\n      mstore\n        /* \"#utility.yul\":14595:14597   */\n      0x39\n        /* \"#utility.yul\":14575:14593   */\n      0x24\n      dup3\n      add\n        /* \"#utility.yul\":14568:14598   */\n      mstore\n        /* \"#utility.yul\":14634:14668   */\n      0x556e693a3a5f7472616e73666572546f6b656e733a2063616e6e6f7420747261\n        /* \"#utility.yul\":14614:14632   */\n      0x44\n      dup3\n      add\n        /* \"#utility.yul\":14607:14669   */\n      mstore\n        /* \"#utility.yul\":14705:14732   */\n      0x6e7366657220746f20746865207a65726f206164647265737300000000000000\n        /* \"#utility.yul\":14685:14703   */\n      0x64\n      dup3\n      add\n        /* \"#utility.yul\":14678:14733   */\n      mstore\n        /* \"#utility.yul\":14750:14769   */\n      0x84\n      add\n        /* \"contracts/Online/ERC20/Uni.sol\":21935:22056  require(... */\n      tag_159\n        /* \"#utility.yul\":14354:14775   */\n      jump\n        /* \"contracts/Online/ERC20/Uni.sol\":21935:22056  require(... */\n    tag_282:\n      sub(shl(0xa0, 0x01), 0x01)\n        /* \"contracts/Online/ERC20/Uni.sol\":22102:22115  balances[src] */\n      dup4\n      and\n      0x00\n      swap1\n      dup2\n      mstore\n        /* \"contracts/Online/ERC20/Uni.sol\":22102:22110  balances */\n      0x04\n        /* \"contracts/Online/ERC20/Uni.sol\":22102:22115  balances[src] */\n      0x20\n      swap1\n      dup2\n      mstore\n      0x40\n      swap2\n      dup3\n      swap1\n      keccak256\n      sload\n        /* \"contracts/Online/ERC20/Uni.sol\":22083:22214  sub96(... */\n      dup3\n      mload\n      0x60\n      dup2\n      add\n      swap1\n      swap4\n      mstore\n      0x35\n      dup1\n      dup5\n      mstore\n      tag_285\n      swap4\n      sub(shl(0x60, 0x01), 0x01)\n        /* \"contracts/Online/ERC20/Uni.sol\":22102:22115  balances[src] */\n      swap1\n      swap3\n      and\n      swap3\n        /* \"contracts/Online/ERC20/Uni.sol\":22129:22135  amount */\n      dup6\n      swap3\n        /* \"contracts/Online/ERC20/Uni.sol\":22083:22214  sub96(... */\n      swap2\n      swap1\n      data_3230ba2cb739b33589720b8a5892642694535e935234939514431ff16907d24a\n      swap1\n      dup4\n      add\n      codecopy\n        /* \"contracts/Online/ERC20/Uni.sol\":22083:22088  sub96 */\n      tag_153\n        /* \"contracts/Online/ERC20/Uni.sol\":22083:22214  sub96(... */\n      jump\t// in\n    tag_285:\n      sub(shl(0xa0, 0x01), 0x01)\n        /* \"contracts/Online/ERC20/Uni.sol\":22067:22080  balances[src] */\n      dup5\n      dup2\n      and\n      0x00\n      swap1\n      dup2\n      mstore\n        /* \"contracts/Online/ERC20/Uni.sol\":22067:22075  balances */\n      0x04\n        /* \"contracts/Online/ERC20/Uni.sol\":22067:22080  balances[src] */\n      0x20\n      swap1\n      dup2\n      mstore\n      0x40\n      dup1\n      dup4\n      keccak256\n        /* \"contracts/Online/ERC20/Uni.sol\":22067:22214  balances[src] = sub96(... */\n      dup1\n      sload\n      not(sub(shl(0x60, 0x01), 0x01))\n      and\n      sub(shl(0x60, 0x01), 0x01)\n      swap7\n      dup8\n      and\n      or\n      swap1\n      sstore\n        /* \"contracts/Online/ERC20/Uni.sol\":22259:22272  balances[dst] */\n      swap3\n      dup7\n      and\n      dup3\n      mstore\n      swap1\n      dup3\n      swap1\n      keccak256\n      sload\n        /* \"contracts/Online/ERC20/Uni.sol\":22240:22365  add96(... */\n      dup3\n      mload\n      0x60\n      dup2\n      add\n      swap1\n      swap4\n      mstore\n      0x2f\n      dup1\n      dup5\n      mstore\n      tag_286\n      swap5\n        /* \"contracts/Online/ERC20/Uni.sol\":22259:22272  balances[dst] */\n      swap2\n      swap1\n      swap2\n      and\n      swap3\n        /* \"contracts/Online/ERC20/Uni.sol\":22286:22292  amount */\n      dup6\n      swap3\n        /* \"contracts/Online/ERC20/Uni.sol\":22240:22365  add96(... */\n      swap1\n      swap2\n      swap1\n      data_f838ee8b15c3d07740bb9b304b8146ec63bb435a7703825b5e6424ee2072674a\n      swap1\n      dup4\n      add\n      codecopy\n        /* \"contracts/Online/ERC20/Uni.sol\":22240:22245  add96 */\n      tag_180\n        /* \"contracts/Online/ERC20/Uni.sol\":22240:22365  add96(... */\n      jump\t// in\n    tag_286:\n      sub(shl(0xa0, 0x01), 0x01)\n        /* \"contracts/Online/ERC20/Uni.sol\":22224:22237  balances[dst] */\n      dup4\n      dup2\n      and\n      0x00\n      dup2\n      dup2\n      mstore\n        /* \"contracts/Online/ERC20/Uni.sol\":22224:22232  balances */\n      0x04\n        /* \"contracts/Online/ERC20/Uni.sol\":22224:22237  balances[dst] */\n      0x20\n      swap1\n      dup2\n      mstore\n      0x40\n      swap2\n      dup3\n      swap1\n      keccak256\n        /* \"contracts/Online/ERC20/Uni.sol\":22224:22365  balances[dst] = add96(... */\n      dup1\n      sload\n      not(sub(shl(0x60, 0x01), 0x01))\n      and\n      sub(shl(0x60, 0x01), 0x01)\n      swap7\n      dup8\n      and\n      or\n      swap1\n      sstore\n        /* \"contracts/Online/ERC20/Uni.sol\":22380:22406  Transfer(src, dst, amount) */\n      swap1\n      mload\n        /* \"#utility.yul\":2802:2841   */\n      swap4\n      dup6\n      and\n        /* \"#utility.yul\":2784:2842   */\n      dup5\n      mstore\n        /* \"contracts/Online/ERC20/Uni.sol\":22224:22237  balances[dst] */\n      swap1\n      swap3\n        /* \"contracts/Online/ERC20/Uni.sol\":22380:22406  Transfer(src, dst, amount) */\n      swap2\n      dup7\n      and\n      swap2\n      0xddf252ad1be2c89b69c2b068fc378daa952ba7f163c4a11628f55a4df523b3ef\n      swap2\n        /* \"#utility.yul\":2757:2775   */\n      add\n        /* \"contracts/Online/ERC20/Uni.sol\":22380:22406  Transfer(src, dst, amount) */\n      mload(0x40)\n      dup1\n      swap2\n      sub\n      swap1\n      log3\n      sub(shl(0xa0, 0x01), 0x01)\n        /* \"contracts/Online/ERC20/Uni.sol\":22432:22446  delegates[src] */\n      dup1\n      dup5\n      and\n      0x00\n      swap1\n      dup2\n      mstore\n        /* \"contracts/Online/ERC20/Uni.sol\":22432:22441  delegates */\n      0x05\n        /* \"contracts/Online/ERC20/Uni.sol\":22432:22446  delegates[src] */\n      0x20\n      mstore\n      0x40\n      dup1\n      dup3\n      keccak256\n      sload\n        /* \"contracts/Online/ERC20/Uni.sol\":22448:22462  delegates[dst] */\n      dup6\n      dup5\n      and\n      dup4\n      mstore\n      swap2\n      keccak256\n      sload\n        /* \"contracts/Online/ERC20/Uni.sol\":22417:22471  _moveDelegates(delegates[src], delegates[dst], amount) */\n      tag_182\n      swap3\n        /* \"contracts/Online/ERC20/Uni.sol\":22432:22446  delegates[src] */\n      swap2\n      dup3\n      and\n      swap2\n        /* \"contracts/Online/ERC20/Uni.sol\":22448:22462  delegates[dst] */\n      and\n        /* \"contracts/Online/ERC20/Uni.sol\":22464:22470  amount */\n      dup4\n        /* \"contracts/Online/ERC20/Uni.sol\":22417:22431  _moveDelegates */\n      tag_183\n        /* \"contracts/Online/ERC20/Uni.sol\":22417:22471  _moveDelegates(delegates[src], delegates[dst], amount) */\n      jump\t// in\n        /* \"contracts/Online/ERC20/Uni.sol\":1128:1304  function add(uint256 a, uint256 b) internal pure returns (uint256) {... */\n    tag_168:\n        /* \"contracts/Online/ERC20/Uni.sol\":1186:1193  uint256 */\n      0x00\n      dup1\n        /* \"contracts/Online/ERC20/Uni.sol\":1217:1222  a + b */\n      tag_290\n        /* \"contracts/Online/ERC20/Uni.sol\":1221:1222  b */\n      dup4\n        /* \"contracts/Online/ERC20/Uni.sol\":1217:1218  a */\n      dup6\n        /* \"contracts/Online/ERC20/Uni.sol\":1217:1222  a + b */\n      tag_291\n      jump\t// in\n    tag_290:\n        /* \"contracts/Online/ERC20/Uni.sol\":1205:1222  uint256 c = a + b */\n      swap1\n      pop\n        /* \"contracts/Online/ERC20/Uni.sol\":1245:1246  a */\n      dup4\n        /* \"contracts/Online/ERC20/Uni.sol\":1240:1241  c */\n      dup2\n        /* \"contracts/Online/ERC20/Uni.sol\":1240:1246  c >= a */\n      lt\n      iszero\n        /* \"contracts/Online/ERC20/Uni.sol\":1232:1278  require(c >= a, \"SafeMath: addition overflow\") */\n      tag_215\n      jumpi\n      mload(0x40)\n      shl(0xe5, 0x461bcd)\n      dup2\n      mstore\n        /* \"#utility.yul\":15112:15114   */\n      0x20\n        /* \"contracts/Online/ERC20/Uni.sol\":1232:1278  require(c >= a, \"SafeMath: addition overflow\") */\n      0x04\n      dup3\n      add\n        /* \"#utility.yul\":15094:15115   */\n      mstore\n        /* \"#utility.yul\":15151:15153   */\n      0x1b\n        /* \"#utility.yul\":15131:15149   */\n      0x24\n      dup3\n      add\n        /* \"#utility.yul\":15124:15154   */\n      mstore\n        /* \"#utility.yul\":15190:15219   */\n      0x536166654d6174683a206164646974696f6e206f766572666c6f770000000000\n        /* \"#utility.yul\":15170:15188   */\n      0x44\n      dup3\n      add\n        /* \"#utility.yul\":15163:15220   */\n      mstore\n        /* \"#utility.yul\":15237:15255   */\n      0x64\n      add\n        /* \"contracts/Online/ERC20/Uni.sol\":1232:1278  require(c >= a, \"SafeMath: addition overflow\") */\n      tag_159\n        /* \"#utility.yul\":14910:15261   */\n      jump\n        /* \"contracts/Online/ERC20/Uni.sol\":2885:3344  function mul(uint256 a, uint256 b) internal pure returns (uint256) {... */\n    tag_172:\n        /* \"contracts/Online/ERC20/Uni.sol\":2943:2950  uint256 */\n      0x00\n        /* \"contracts/Online/ERC20/Uni.sol\":3184:3185  a */\n      dup3\n        /* \"contracts/Online/ERC20/Uni.sol\":3189:3190  0 */\n      0x00\n        /* \"contracts/Online/ERC20/Uni.sol\":3184:3190  a == 0 */\n      sub\n        /* \"contracts/Online/ERC20/Uni.sol\":3180:3225  if (a == 0) {... */\n      tag_296\n      jumpi\n      pop\n        /* \"contracts/Online/ERC20/Uni.sol\":3213:3214  0 */\n      0x00\n        /* \"contracts/Online/ERC20/Uni.sol\":3206:3214  return 0 */\n      jump(tag_144)\n        /* \"contracts/Online/ERC20/Uni.sol\":3180:3225  if (a == 0) {... */\n    tag_296:\n        /* \"contracts/Online/ERC20/Uni.sol\":3235:3244  uint256 c */\n      0x00\n        /* \"contracts/Online/ERC20/Uni.sol\":3247:3252  a * b */\n      tag_297\n        /* \"contracts/Online/ERC20/Uni.sol\":3251:3252  b */\n      dup4\n        /* \"contracts/Online/ERC20/Uni.sol\":3247:3248  a */\n      dup6\n        /* \"contracts/Online/ERC20/Uni.sol\":3247:3252  a * b */\n      tag_298\n      jump\t// in\n    tag_297:\n        /* \"contracts/Online/ERC20/Uni.sol\":3235:3252  uint256 c = a * b */\n      swap1\n      pop\n        /* \"contracts/Online/ERC20/Uni.sol\":3279:3280  b */\n      dup3\n        /* \"contracts/Online/ERC20/Uni.sol\":3270:3275  c / a */\n      tag_299\n        /* \"contracts/Online/ERC20/Uni.sol\":3274:3275  a */\n      dup6\n        /* \"contracts/Online/ERC20/Uni.sol\":3235:3252  uint256 c = a * b */\n      dup4\n        /* \"contracts/Online/ERC20/Uni.sol\":3270:3275  c / a */\n      tag_300\n      jump\t// in\n    tag_299:\n        /* \"contracts/Online/ERC20/Uni.sol\":3270:3280  c / a == b */\n      eq\n        /* \"contracts/Online/ERC20/Uni.sol\":3262:3318  require(c / a == b, \"SafeMath: multiplication overflow\") */\n      tag_215\n      jumpi\n      mload(0x40)\n      shl(0xe5, 0x461bcd)\n      dup2\n      mstore\n        /* \"#utility.yul\":15766:15768   */\n      0x20\n        /* \"contracts/Online/ERC20/Uni.sol\":3262:3318  require(c / a == b, \"SafeMath: multiplication overflow\") */\n      0x04\n      dup3\n      add\n        /* \"#utility.yul\":15748:15769   */\n      mstore\n        /* \"#utility.yul\":15805:15807   */\n      0x21\n        /* \"#utility.yul\":15785:15803   */\n      0x24\n      dup3\n      add\n        /* \"#utility.yul\":15778:15808   */\n      mstore\n        /* \"#utility.yul\":15844:15878   */\n      0x536166654d6174683a206d756c7469706c69636174696f6e206f766572666c6f\n        /* \"#utility.yul\":15824:15842   */\n      0x44\n      dup3\n      add\n        /* \"#utility.yul\":15817:15879   */\n      mstore\n      shl(0xf8, 0x77)\n        /* \"#utility.yul\":15895:15913   */\n      0x64\n      dup3\n      add\n        /* \"#utility.yul\":15888:15919   */\n      mstore\n        /* \"#utility.yul\":15936:15955   */\n      0x84\n      add\n        /* \"contracts/Online/ERC20/Uni.sol\":3262:3318  require(c / a == b, \"SafeMath: multiplication overflow\") */\n      tag_159\n        /* \"#utility.yul\":15564:15961   */\n      jump\n        /* \"contracts/Online/ERC20/Uni.sol\":4526:4656  function div(uint256 a, uint256 b) internal pure returns (uint256) {... */\n    tag_173:\n        /* \"contracts/Online/ERC20/Uni.sol\":4584:4591  uint256 */\n      0x00\n        /* \"contracts/Online/ERC20/Uni.sol\":4610:4649  div(a, b, \"SafeMath: division by zero\") */\n      tag_215\n        /* \"contracts/Online/ERC20/Uni.sol\":4614:4615  a */\n      dup4\n        /* \"contracts/Online/ERC20/Uni.sol\":4617:4618  b */\n      dup4\n        /* \"contracts/Online/ERC20/Uni.sol\":4610:4649  div(a, b, \"SafeMath: division by zero\") */\n      mload(0x40)\n      dup1\n      0x40\n      add\n      0x40\n      mstore\n      dup1\n      0x1a\n      dup2\n      mstore\n      0x20\n      add\n      0x536166654d6174683a206469766973696f6e206279207a65726f000000000000\n      dup2\n      mstore\n      pop\n        /* \"contracts/Online/ERC20/Uni.sol\":4610:4613  div */\n      tag_306\n        /* \"contracts/Online/ERC20/Uni.sol\":4610:4649  div(a, b, \"SafeMath: division by zero\") */\n      jump\t// in\n        /* \"contracts/Online/ERC20/Uni.sol\":24858:25072  function add96(... */\n    tag_180:\n        /* \"contracts/Online/ERC20/Uni.sol\":24974:24980  uint96 */\n      0x00\n      dup1\n        /* \"contracts/Online/ERC20/Uni.sol\":25003:25008  a + b */\n      tag_308\n        /* \"contracts/Online/ERC20/Uni.sol\":25007:25008  b */\n      dup5\n        /* \"contracts/Online/ERC20/Uni.sol\":25003:25004  a */\n      dup7\n        /* \"contracts/Online/ERC20/Uni.sol\":25003:25008  a + b */\n      tag_309\n      jump\t// in\n    tag_308:\n        /* \"contracts/Online/ERC20/Uni.sol\":24992:25008  uint96 c = a + b */\n      swap1\n      pop\n        /* \"contracts/Online/ERC20/Uni.sol\":25031:25032  a */\n      dup5\n      sub(shl(0x60, 0x01), 0x01)\n        /* \"contracts/Online/ERC20/Uni.sol\":25026:25032  c >= a */\n      and\n        /* \"contracts/Online/ERC20/Uni.sol\":25026:25027  c */\n      dup2\n      sub(shl(0x60, 0x01), 0x01)\n        /* \"contracts/Online/ERC20/Uni.sol\":25026:25032  c >= a */\n      and\n      lt\n      iszero\n        /* \"contracts/Online/ERC20/Uni.sol\":25034:25046  errorMessage */\n      dup4\n        /* \"contracts/Online/ERC20/Uni.sol\":25018:25047  require(c >= a, errorMessage) */\n      swap1\n      tag_310\n      jumpi\n      mload(0x40)\n      shl(0xe5, 0x461bcd)\n      dup2\n      mstore\n      0x04\n      add\n      tag_159\n      swap2\n      swap1\n      tag_39\n      jump\t// in\n    tag_310:\n      pop\n        /* \"contracts/Online/ERC20/Uni.sol\":25064:25065  c */\n      swap5\n        /* \"contracts/Online/ERC20/Uni.sol\":24858:25072  function add96(... */\n      swap4\n      pop\n      pop\n      pop\n      pop\n      jump\t// out\n        /* \"contracts/Online/ERC20/Uni.sol\":22484:23671  function _moveDelegates(... */\n    tag_183:\n        /* \"contracts/Online/ERC20/Uni.sol\":22618:22624  dstRep */\n      dup2\n      sub(shl(0xa0, 0x01), 0x01)\n        /* \"contracts/Online/ERC20/Uni.sol\":22608:22624  srcRep != dstRep */\n      and\n        /* \"contracts/Online/ERC20/Uni.sol\":22608:22614  srcRep */\n      dup4\n      sub(shl(0xa0, 0x01), 0x01)\n        /* \"contracts/Online/ERC20/Uni.sol\":22608:22624  srcRep != dstRep */\n      and\n      eq\n      iszero\n        /* \"contracts/Online/ERC20/Uni.sol\":22608:22638  srcRep != dstRep && amount > 0 */\n      dup1\n      iszero\n      tag_313\n      jumpi\n      pop\n        /* \"contracts/Online/ERC20/Uni.sol\":22637:22638  0 */\n      0x00\n        /* \"contracts/Online/ERC20/Uni.sol\":22628:22634  amount */\n      dup2\n      sub(shl(0x60, 0x01), 0x01)\n        /* \"contracts/Online/ERC20/Uni.sol\":22628:22638  amount > 0 */\n      and\n      gt\n        /* \"contracts/Online/ERC20/Uni.sol\":22608:22638  srcRep != dstRep && amount > 0 */\n    tag_313:\n        /* \"contracts/Online/ERC20/Uni.sol\":22604:23665  if (srcRep != dstRep && amount > 0) {... */\n      iszero\n      tag_182\n      jumpi\n      sub(shl(0xa0, 0x01), 0x01)\n        /* \"contracts/Online/ERC20/Uni.sol\":22658:22678  srcRep != address(0) */\n      dup4\n      and\n      iszero\n        /* \"contracts/Online/ERC20/Uni.sol\":22654:23148  if (srcRep != address(0)) {... */\n      tag_315\n      jumpi\n      sub(shl(0xa0, 0x01), 0x01)\n        /* \"contracts/Online/ERC20/Uni.sol\":22717:22739  numCheckpoints[srcRep] */\n      dup4\n      and\n        /* \"contracts/Online/ERC20/Uni.sol\":22698:22714  uint32 srcRepNum */\n      0x00\n        /* \"contracts/Online/ERC20/Uni.sol\":22717:22739  numCheckpoints[srcRep] */\n      swap1\n      dup2\n      mstore\n        /* \"contracts/Online/ERC20/Uni.sol\":22717:22731  numCheckpoints */\n      0x07\n        /* \"contracts/Online/ERC20/Uni.sol\":22717:22739  numCheckpoints[srcRep] */\n      0x20\n      mstore\n      0x40\n      dup2\n      keccak256\n      sload\n      0xffffffff\n      and\n      swap1\n        /* \"contracts/Online/ERC20/Uni.sol\":22776:22789  srcRepNum > 0 */\n      dup2\n        /* \"contracts/Online/ERC20/Uni.sol\":22776:22876  srcRepNum > 0... */\n      tag_316\n      jumpi\n        /* \"contracts/Online/ERC20/Uni.sol\":22875:22876  0 */\n      0x00\n        /* \"contracts/Online/ERC20/Uni.sol\":22776:22876  srcRepNum > 0... */\n      jump(tag_317)\n    tag_316:\n      sub(shl(0xa0, 0x01), 0x01)\n        /* \"contracts/Online/ERC20/Uni.sol\":22812:22831  checkpoints[srcRep] */\n      dup6\n      and\n      0x00\n      swap1\n      dup2\n      mstore\n        /* \"contracts/Online/ERC20/Uni.sol\":22812:22823  checkpoints */\n      0x06\n        /* \"contracts/Online/ERC20/Uni.sol\":22812:22831  checkpoints[srcRep] */\n      0x20\n      mstore\n      0x40\n      dup2\n      keccak256\n      swap1\n        /* \"contracts/Online/ERC20/Uni.sol\":22832:22845  srcRepNum - 1 */\n      tag_318\n        /* \"contracts/Online/ERC20/Uni.sol\":22844:22845  1 */\n      0x01\n        /* \"contracts/Online/ERC20/Uni.sol\":22832:22841  srcRepNum */\n      dup6\n        /* \"contracts/Online/ERC20/Uni.sol\":22832:22845  srcRepNum - 1 */\n      tag_194\n      jump\t// in\n    tag_318:\n        /* \"contracts/Online/ERC20/Uni.sol\":22812:22846  checkpoints[srcRep][srcRepNum - 1] */\n      0xffffffff\n      and\n      dup2\n      mstore\n      0x20\n      dup2\n      add\n      swap2\n      swap1\n      swap2\n      mstore\n      0x40\n      add\n      0x00\n      keccak256\n        /* \"contracts/Online/ERC20/Uni.sol\":22812:22852  checkpoints[srcRep][srcRepNum - 1].votes */\n      sload\n      shl(0x20, 0x01)\n      swap1\n      div\n      sub(shl(0x60, 0x01), 0x01)\n      and\n        /* \"contracts/Online/ERC20/Uni.sol\":22776:22876  srcRepNum > 0... */\n    tag_317:\n        /* \"contracts/Online/ERC20/Uni.sol\":22757:22876  uint96 srcRepOld = srcRepNum > 0... */\n      swap1\n      pop\n        /* \"contracts/Online/ERC20/Uni.sol\":22894:22910  uint96 srcRepNew */\n      0x00\n        /* \"contracts/Online/ERC20/Uni.sol\":22913:23058  sub96(... */\n      tag_319\n        /* \"contracts/Online/ERC20/Uni.sol\":22940:22949  srcRepOld */\n      dup3\n        /* \"contracts/Online/ERC20/Uni.sol\":22971:22977  amount */\n      dup6\n        /* \"contracts/Online/ERC20/Uni.sol\":22913:23058  sub96(... */\n      mload(0x40)\n      dup1\n      0x60\n      add\n      0x40\n      mstore\n      dup1\n      0x27\n      dup2\n      mstore\n      0x20\n      add\n      data_8f9e8e1e6816d4a772d233c08b8292a576126f7dbd1d9b7cd30ef07f7c3d78d2\n      0x27\n      swap2\n      codecopy\n        /* \"contracts/Online/ERC20/Uni.sol\":22913:22918  sub96 */\n      tag_153\n        /* \"contracts/Online/ERC20/Uni.sol\":22913:23058  sub96(... */\n      jump\t// in\n    tag_319:\n        /* \"contracts/Online/ERC20/Uni.sol\":22894:23058  uint96 srcRepNew = sub96(... */\n      swap1\n      pop\n        /* \"contracts/Online/ERC20/Uni.sol\":23076:23133  _writeCheckpoint(srcRep, srcRepNum, srcRepOld, srcRepNew) */\n      tag_320\n        /* \"contracts/Online/ERC20/Uni.sol\":23093:23099  srcRep */\n      dup7\n        /* \"contracts/Online/ERC20/Uni.sol\":23101:23110  srcRepNum */\n      dup5\n        /* \"contracts/Online/ERC20/Uni.sol\":23112:23121  srcRepOld */\n      dup5\n        /* \"contracts/Online/ERC20/Uni.sol\":23123:23132  srcRepNew */\n      dup5\n        /* \"contracts/Online/ERC20/Uni.sol\":23076:23092  _writeCheckpoint */\n      tag_321\n        /* \"contracts/Online/ERC20/Uni.sol\":23076:23133  _writeCheckpoint(srcRep, srcRepNum, srcRepOld, srcRepNew) */\n      jump\t// in\n    tag_320:\n        /* \"contracts/Online/ERC20/Uni.sol\":22680:23148  {... */\n      pop\n      pop\n      pop\n        /* \"contracts/Online/ERC20/Uni.sol\":22654:23148  if (srcRep != address(0)) {... */\n    tag_315:\n      sub(shl(0xa0, 0x01), 0x01)\n        /* \"contracts/Online/ERC20/Uni.sol\":23166:23186  dstRep != address(0) */\n      dup3\n      and\n      iszero\n        /* \"contracts/Online/ERC20/Uni.sol\":23162:23655  if (dstRep != address(0)) {... */\n      tag_182\n      jumpi\n      sub(shl(0xa0, 0x01), 0x01)\n        /* \"contracts/Online/ERC20/Uni.sol\":23225:23247  numCheckpoints[dstRep] */\n      dup3\n      and\n        /* \"contracts/Online/ERC20/Uni.sol\":23206:23222  uint32 dstRepNum */\n      0x00\n        /* \"contracts/Online/ERC20/Uni.sol\":23225:23247  numCheckpoints[dstRep] */\n      swap1\n      dup2\n      mstore\n        /* \"contracts/Online/ERC20/Uni.sol\":23225:23239  numCheckpoints */\n      0x07\n        /* \"contracts/Online/ERC20/Uni.sol\":23225:23247  numCheckpoints[dstRep] */\n      0x20\n      mstore\n      0x40\n      dup2\n      keccak256\n      sload\n      0xffffffff\n      and\n      swap1\n        /* \"contracts/Online/ERC20/Uni.sol\":23284:23297  dstRepNum > 0 */\n      dup2\n        /* \"contracts/Online/ERC20/Uni.sol\":23284:23384  dstRepNum > 0... */\n      tag_323\n      jumpi\n        /* \"contracts/Online/ERC20/Uni.sol\":23383:23384  0 */\n      0x00\n        /* \"contracts/Online/ERC20/Uni.sol\":23284:23384  dstRepNum > 0... */\n      jump(tag_324)\n    tag_323:\n      sub(shl(0xa0, 0x01), 0x01)\n        /* \"contracts/Online/ERC20/Uni.sol\":23320:23339  checkpoints[dstRep] */\n      dup5\n      and\n      0x00\n      swap1\n      dup2\n      mstore\n        /* \"contracts/Online/ERC20/Uni.sol\":23320:23331  checkpoints */\n      0x06\n        /* \"contracts/Online/ERC20/Uni.sol\":23320:23339  checkpoints[dstRep] */\n      0x20\n      mstore\n      0x40\n      dup2\n      keccak256\n      swap1\n        /* \"contracts/Online/ERC20/Uni.sol\":23340:23353  dstRepNum - 1 */\n      tag_325\n        /* \"contracts/Online/ERC20/Uni.sol\":23352:23353  1 */\n      0x01\n        /* \"contracts/Online/ERC20/Uni.sol\":23340:23349  dstRepNum */\n      dup6\n        /* \"contracts/Online/ERC20/Uni.sol\":23340:23353  dstRepNum - 1 */\n      tag_194\n      jump\t// in\n    tag_325:\n        /* \"contracts/Online/ERC20/Uni.sol\":23320:23354  checkpoints[dstRep][dstRepNum - 1] */\n      0xffffffff\n      and\n      dup2\n      mstore\n      0x20\n      dup2\n      add\n      swap2\n      swap1\n      swap2\n      mstore\n      0x40\n      add\n      0x00\n      keccak256\n        /* \"contracts/Online/ERC20/Uni.sol\":23320:23360  checkpoints[dstRep][dstRepNum - 1].votes */\n      sload\n      shl(0x20, 0x01)\n      swap1\n      div\n      sub(shl(0x60, 0x01), 0x01)\n      and\n        /* \"contracts/Online/ERC20/Uni.sol\":23284:23384  dstRepNum > 0... */\n    tag_324:\n        /* \"contracts/Online/ERC20/Uni.sol\":23265:23384  uint96 dstRepOld = dstRepNum > 0... */\n      swap1\n      pop\n        /* \"contracts/Online/ERC20/Uni.sol\":23402:23418  uint96 dstRepNew */\n      0x00\n        /* \"contracts/Online/ERC20/Uni.sol\":23421:23565  add96(... */\n      tag_326\n        /* \"contracts/Online/ERC20/Uni.sol\":23448:23457  dstRepOld */\n      dup3\n        /* \"contracts/Online/ERC20/Uni.sol\":23479:23485  amount */\n      dup6\n        /* \"contracts/Online/ERC20/Uni.sol\":23421:23565  add96(... */\n      mload(0x40)\n      dup1\n      0x60\n      add\n      0x40\n      mstore\n      dup1\n      0x26\n      dup2\n      mstore\n      0x20\n      add\n      data_5c6c891434a3c5951db59f5fe43d566b04bf54e07bc444b7f9f72601e608dc42\n      0x26\n      swap2\n      codecopy\n        /* \"contracts/Online/ERC20/Uni.sol\":23421:23426  add96 */\n      tag_180\n        /* \"contracts/Online/ERC20/Uni.sol\":23421:23565  add96(... */\n      jump\t// in\n    tag_326:\n        /* \"contracts/Online/ERC20/Uni.sol\":23402:23565  uint96 dstRepNew = add96(... */\n      swap1\n      pop\n        /* \"contracts/Online/ERC20/Uni.sol\":23583:23640  _writeCheckpoint(dstRep, dstRepNum, dstRepOld, dstRepNew) */\n      tag_217\n        /* \"contracts/Online/ERC20/Uni.sol\":23600:23606  dstRep */\n      dup6\n        /* \"contracts/Online/ERC20/Uni.sol\":23608:23617  dstRepNum */\n      dup5\n        /* \"contracts/Online/ERC20/Uni.sol\":23619:23628  dstRepOld */\n      dup5\n        /* \"contracts/Online/ERC20/Uni.sol\":23630:23639  dstRepNew */\n      dup5\n        /* \"contracts/Online/ERC20/Uni.sol\":23583:23599  _writeCheckpoint */\n      tag_321\n        /* \"contracts/Online/ERC20/Uni.sol\":23583:23640  _writeCheckpoint(dstRep, dstRepNum, dstRepOld, dstRepNew) */\n      jump\t// in\n        /* \"contracts/Online/ERC20/Uni.sol\":21314:21681  function _delegate(address delegator, address delegatee) internal {... */\n    tag_186:\n      sub(shl(0xa0, 0x01), 0x01)\n        /* \"contracts/Online/ERC20/Uni.sol\":21416:21436  delegates[delegator] */\n      dup1\n      dup4\n      and\n        /* \"contracts/Online/ERC20/Uni.sol\":21390:21413  address currentDelegate */\n      0x00\n        /* \"contracts/Online/ERC20/Uni.sol\":21416:21436  delegates[delegator] */\n      dup2\n      dup2\n      mstore\n        /* \"contracts/Online/ERC20/Uni.sol\":21416:21425  delegates */\n      0x05\n        /* \"contracts/Online/ERC20/Uni.sol\":21416:21436  delegates[delegator] */\n      0x20\n      dup2\n      dup2\n      mstore\n      0x40\n      dup1\n      dup5\n      keccak256\n      dup1\n      sload\n        /* \"contracts/Online/ERC20/Uni.sol\":21472:21480  balances */\n      0x04\n        /* \"contracts/Online/ERC20/Uni.sol\":21472:21491  balances[delegator] */\n      dup5\n      mstore\n      dup3\n      dup7\n      keccak256\n      sload\n        /* \"contracts/Online/ERC20/Uni.sol\":21501:21521  delegates[delegator] */\n      swap5\n      swap1\n      swap4\n      mstore\n        /* \"contracts/Online/ERC20/Uni.sol\":21501:21533  delegates[delegator] = delegatee */\n      dup8\n      dup8\n      and\n      not(sub(shl(0xa0, 0x01), 0x01))\n      dup5\n      and\n      dup2\n      or\n      swap1\n      swap2\n      sstore\n        /* \"contracts/Online/ERC20/Uni.sol\":21549:21603  DelegateChanged(delegator, currentDelegate, delegatee) */\n      swap1\n      mload\n        /* \"contracts/Online/ERC20/Uni.sol\":21416:21436  delegates[delegator] */\n      swap2\n      swap1\n      swap6\n      and\n      swap5\n      sub(shl(0x60, 0x01), 0x01)\n        /* \"contracts/Online/ERC20/Uni.sol\":21472:21491  balances[delegator] */\n      swap1\n      swap3\n      and\n      swap4\n        /* \"contracts/Online/ERC20/Uni.sol\":21501:21533  delegates[delegator] = delegatee */\n      swap2\n      swap3\n        /* \"contracts/Online/ERC20/Uni.sol\":21416:21436  delegates[delegator] */\n      dup6\n      swap3\n      swap2\n        /* \"contracts/Online/ERC20/Uni.sol\":21549:21603  DelegateChanged(delegator, currentDelegate, delegatee) */\n      0x3134e8a2e6d97e929a7e54011ea5485d7d196dd5f0ba4d4ef95803e8e3fc257f\n      swap2\n        /* \"contracts/Online/ERC20/Uni.sol\":21390:21413  address currentDelegate */\n      swap1\n        /* \"contracts/Online/ERC20/Uni.sol\":21549:21603  DelegateChanged(delegator, currentDelegate, delegatee) */\n      log4\n        /* \"contracts/Online/ERC20/Uni.sol\":21614:21674  _moveDelegates(currentDelegate, delegatee, delegatorBalance) */\n      tag_329\n        /* \"contracts/Online/ERC20/Uni.sol\":21629:21644  currentDelegate */\n      dup3\n        /* \"contracts/Online/ERC20/Uni.sol\":21646:21655  delegatee */\n      dup5\n        /* \"contracts/Online/ERC20/Uni.sol\":21657:21673  delegatorBalance */\n      dup4\n        /* \"contracts/Online/ERC20/Uni.sol\":21614:21628  _moveDelegates */\n      tag_183\n        /* \"contracts/Online/ERC20/Uni.sol\":21614:21674  _moveDelegates(currentDelegate, delegatee, delegatorBalance) */\n      jump\t// in\n    tag_329:\n        /* \"contracts/Online/ERC20/Uni.sol\":21380:21681  {... */\n      pop\n      pop\n        /* \"contracts/Online/ERC20/Uni.sol\":21314:21681  function _delegate(address delegator, address delegatee) internal {... */\n      pop\n      pop\n      jump\t// out\n        /* \"contracts/Online/ERC20/Uni.sol\":5131:5499  function div(... */\n    tag_306:\n        /* \"contracts/Online/ERC20/Uni.sol\":5247:5254  uint256 */\n      0x00\n        /* \"contracts/Online/ERC20/Uni.sol\":5347:5359  errorMessage */\n      dup2\n        /* \"contracts/Online/ERC20/Uni.sol\":5340:5345  b > 0 */\n      dup4\n        /* \"contracts/Online/ERC20/Uni.sol\":5332:5360  require(b > 0, errorMessage) */\n      tag_332\n      jumpi\n      mload(0x40)\n      shl(0xe5, 0x461bcd)\n      dup2\n      mstore\n      0x04\n      add\n      tag_159\n      swap2\n      swap1\n      tag_39\n      jump\t// in\n    tag_332:\n      pop\n        /* \"contracts/Online/ERC20/Uni.sol\":5370:5379  uint256 c */\n      0x00\n        /* \"contracts/Online/ERC20/Uni.sol\":5382:5387  a / b */\n      tag_334\n        /* \"contracts/Online/ERC20/Uni.sol\":5386:5387  b */\n      dup5\n        /* \"contracts/Online/ERC20/Uni.sol\":5382:5383  a */\n      dup7\n        /* \"contracts/Online/ERC20/Uni.sol\":5382:5387  a / b */\n      tag_300\n      jump\t// in\n    tag_334:\n        /* \"contracts/Online/ERC20/Uni.sol\":5370:5387  uint256 c = a / b */\n      swap6\n        /* \"contracts/Online/ERC20/Uni.sol\":5131:5499  function div(... */\n      swap5\n      pop\n      pop\n      pop\n      pop\n      pop\n      jump\t// out\n        /* \"contracts/Online/ERC20/Uni.sol\":23677:24462  function _writeCheckpoint(... */\n    tag_321:\n        /* \"contracts/Online/ERC20/Uni.sol\":23834:23852  uint32 blockNumber */\n      0x00\n        /* \"contracts/Online/ERC20/Uni.sol\":23855:23964  safe32(... */\n      tag_336\n        /* \"contracts/Online/ERC20/Uni.sol\":23875:23887  block.number */\n      number\n        /* \"contracts/Online/ERC20/Uni.sol\":23855:23964  safe32(... */\n      mload(0x40)\n      dup1\n      0x60\n      add\n      0x40\n      mstore\n      dup1\n      0x33\n      dup2\n      mstore\n      0x20\n      add\n      data_66157ef8d926a3327823fecd4ce53edfcb6533c37c90dc98acfb91e4f2854725\n      0x33\n      swap2\n      codecopy\n        /* \"contracts/Online/ERC20/Uni.sol\":23855:23861  safe32 */\n      tag_337\n        /* \"contracts/Online/ERC20/Uni.sol\":23855:23964  safe32(... */\n      jump\t// in\n    tag_336:\n        /* \"contracts/Online/ERC20/Uni.sol\":23834:23964  uint32 blockNumber = safe32(... */\n      swap1\n      pop\n        /* \"contracts/Online/ERC20/Uni.sol\":24007:24008  0 */\n      0x00\n        /* \"contracts/Online/ERC20/Uni.sol\":23992:24004  nCheckpoints */\n      dup5\n        /* \"contracts/Online/ERC20/Uni.sol\":23992:24008  nCheckpoints > 0 */\n      0xffffffff\n      and\n      gt\n        /* \"contracts/Online/ERC20/Uni.sol\":23992:24089  nCheckpoints > 0 &&... */\n      dup1\n      iszero\n      tag_338\n      jumpi\n      pop\n      sub(shl(0xa0, 0x01), 0x01)\n        /* \"contracts/Online/ERC20/Uni.sol\":24024:24046  checkpoints[delegatee] */\n      dup6\n      and\n      0x00\n      swap1\n      dup2\n      mstore\n        /* \"contracts/Online/ERC20/Uni.sol\":24024:24035  checkpoints */\n      0x06\n        /* \"contracts/Online/ERC20/Uni.sol\":24024:24046  checkpoints[delegatee] */\n      0x20\n      mstore\n      0x40\n      dup2\n      keccak256\n        /* \"contracts/Online/ERC20/Uni.sol\":24024:24089  checkpoints[delegatee][nCheckpoints - 1].fromBlock == blockNumber */\n      0xffffffff\n      dup4\n      and\n      swap2\n        /* \"contracts/Online/ERC20/Uni.sol\":24047:24063  nCheckpoints - 1 */\n      tag_339\n        /* \"contracts/Online/ERC20/Uni.sol\":24062:24063  1 */\n      0x01\n        /* \"contracts/Online/ERC20/Uni.sol\":24047:24059  nCheckpoints */\n      dup9\n        /* \"contracts/Online/ERC20/Uni.sol\":24047:24063  nCheckpoints - 1 */\n      tag_194\n      jump\t// in\n    tag_339:\n        /* \"contracts/Online/ERC20/Uni.sol\":24024:24064  checkpoints[delegatee][nCheckpoints - 1] */\n      0xffffffff\n      swap1\n      dup2\n      and\n      dup3\n      mstore\n      0x20\n      dup3\n      add\n      swap3\n      swap1\n      swap3\n      mstore\n      0x40\n      add\n      0x00\n      keccak256\n        /* \"contracts/Online/ERC20/Uni.sol\":24024:24074  checkpoints[delegatee][nCheckpoints - 1].fromBlock */\n      sload\n      and\n        /* \"contracts/Online/ERC20/Uni.sol\":24024:24089  checkpoints[delegatee][nCheckpoints - 1].fromBlock == blockNumber */\n      eq\n        /* \"contracts/Online/ERC20/Uni.sol\":23992:24089  nCheckpoints > 0 &&... */\n    tag_338:\n        /* \"contracts/Online/ERC20/Uni.sol\":23975:24389  if (... */\n      iszero\n      tag_340\n      jumpi\n      sub(shl(0xa0, 0x01), 0x01)\n        /* \"contracts/Online/ERC20/Uni.sol\":24114:24136  checkpoints[delegatee] */\n      dup6\n      and\n      0x00\n      swap1\n      dup2\n      mstore\n        /* \"contracts/Online/ERC20/Uni.sol\":24114:24125  checkpoints */\n      0x06\n        /* \"contracts/Online/ERC20/Uni.sol\":24114:24136  checkpoints[delegatee] */\n      0x20\n      mstore\n      0x40\n      dup2\n      keccak256\n        /* \"contracts/Online/ERC20/Uni.sol\":24163:24171  newVotes */\n      dup4\n      swap2\n        /* \"contracts/Online/ERC20/Uni.sol\":24137:24153  nCheckpoints - 1 */\n      tag_341\n        /* \"contracts/Online/ERC20/Uni.sol\":24152:24153  1 */\n      0x01\n        /* \"contracts/Online/ERC20/Uni.sol\":24137:24149  nCheckpoints */\n      dup9\n        /* \"contracts/Online/ERC20/Uni.sol\":24137:24153  nCheckpoints - 1 */\n      tag_194\n      jump\t// in\n    tag_341:\n        /* \"contracts/Online/ERC20/Uni.sol\":24114:24154  checkpoints[delegatee][nCheckpoints - 1] */\n      0xffffffff\n      and\n      dup2\n      mstore\n      0x20\n      dup2\n      add\n      swap2\n      swap1\n      swap2\n      mstore\n      0x40\n      add\n      0x00\n      keccak256\n        /* \"contracts/Online/ERC20/Uni.sol\":24114:24171  checkpoints[delegatee][nCheckpoints - 1].votes = newVotes */\n      dup1\n      sload\n      sub(shl(0x60, 0x01), 0x01)\n      swap3\n      swap1\n      swap3\n      and\n      shl(0x20, 0x01)\n      mul\n      not(0xffffffffffffffffffffffff00000000)\n      swap1\n      swap3\n      and\n      swap2\n      swap1\n      swap2\n      or\n      swap1\n      sstore\n        /* \"contracts/Online/ERC20/Uni.sol\":23975:24389  if (... */\n      jump(tag_342)\n    tag_340:\n        /* \"contracts/Online/ERC20/Uni.sol\":24241:24320  Checkpoint(... */\n      0x40\n      dup1\n      mload\n      dup1\n      dup3\n      add\n      dup3\n      mstore\n      0xffffffff\n      dup1\n      dup5\n      and\n      dup3\n      mstore\n      sub(shl(0x60, 0x01), 0x01)\n      dup1\n      dup7\n      and\n      0x20\n      dup1\n      dup6\n      add\n      swap2\n      dup3\n      mstore\n      sub(shl(0xa0, 0x01), 0x01)\n        /* \"contracts/Online/ERC20/Uni.sol\":24202:24224  checkpoints[delegatee] */\n      dup12\n      and\n      0x00\n      swap1\n      dup2\n      mstore\n        /* \"contracts/Online/ERC20/Uni.sol\":24202:24213  checkpoints */\n      0x06\n        /* \"contracts/Online/ERC20/Uni.sol\":24202:24224  checkpoints[delegatee] */\n      dup3\n      mstore\n      dup7\n      dup2\n      keccak256\n        /* \"contracts/Online/ERC20/Uni.sol\":24202:24238  checkpoints[delegatee][nCheckpoints] */\n      dup12\n      dup7\n      and\n      dup3\n      mstore\n      swap1\n      swap2\n      mstore\n      swap5\n      swap1\n      swap5\n      keccak256\n        /* \"contracts/Online/ERC20/Uni.sol\":24202:24320  checkpoints[delegatee][nCheckpoints] = Checkpoint(... */\n      swap3\n      mload\n      dup4\n      sload\n      swap5\n      mload\n      swap1\n      swap2\n      and\n      shl(0x20, 0x01)\n      mul\n      not(0xffffffffffffffffffffffffffffffff)\n      swap1\n      swap5\n      and\n      swap2\n      and\n      or\n      swap2\n      swap1\n      swap2\n      or\n      swap1\n      sstore\n        /* \"contracts/Online/ERC20/Uni.sol\":24362:24378  nCheckpoints + 1 */\n      tag_343\n        /* \"contracts/Online/ERC20/Uni.sol\":24225:24237  nCheckpoints */\n      dup5\n        /* \"contracts/Online/ERC20/Uni.sol\":24202:24320  checkpoints[delegatee][nCheckpoints] = Checkpoint(... */\n      0x01\n        /* \"contracts/Online/ERC20/Uni.sol\":24362:24378  nCheckpoints + 1 */\n      tag_344\n      jump\t// in\n    tag_343:\n      sub(shl(0xa0, 0x01), 0x01)\n        /* \"contracts/Online/ERC20/Uni.sol\":24334:24359  numCheckpoints[delegatee] */\n      dup7\n      and\n      0x00\n      swap1\n      dup2\n      mstore\n        /* \"contracts/Online/ERC20/Uni.sol\":24334:24348  numCheckpoints */\n      0x07\n        /* \"contracts/Online/ERC20/Uni.sol\":24334:24359  numCheckpoints[delegatee] */\n      0x20\n      mstore\n      0x40\n      swap1\n      keccak256\n        /* \"contracts/Online/ERC20/Uni.sol\":24334:24378  numCheckpoints[delegatee] = nCheckpoints + 1 */\n      dup1\n      sload\n      not(0xffffffff)\n      and\n      0xffffffff\n      swap3\n      swap1\n      swap3\n      and\n      swap2\n      swap1\n      swap2\n      or\n      swap1\n      sstore\n        /* \"contracts/Online/ERC20/Uni.sol\":23975:24389  if (... */\n    tag_342:\n        /* \"contracts/Online/ERC20/Uni.sol\":24404:24455  DelegateVotesChanged(delegatee, oldVotes, newVotes) */\n      0x40\n      dup1\n      mload\n      sub(shl(0x60, 0x01), 0x01)\n        /* \"#utility.yul\":16548:16587   */\n      dup1\n      dup7\n      and\n        /* \"#utility.yul\":16530:16588   */\n      dup3\n      mstore\n        /* \"#utility.yul\":16624:16663   */\n      dup5\n      and\n        /* \"#utility.yul\":16619:16621   */\n      0x20\n        /* \"#utility.yul\":16604:16622   */\n      dup3\n      add\n        /* \"#utility.yul\":16597:16664   */\n      mstore\n      sub(shl(0xa0, 0x01), 0x01)\n        /* \"contracts/Online/ERC20/Uni.sol\":24404:24455  DelegateVotesChanged(delegatee, oldVotes, newVotes) */\n      dup8\n      and\n      swap2\n      0xdec2bacdd2f05b59de34da9b523dff8be42e5e38e818c82fdb0bae774387a724\n      swap2\n        /* \"#utility.yul\":16503:16521   */\n      add\n        /* \"contracts/Online/ERC20/Uni.sol\":24404:24455  DelegateVotesChanged(delegatee, oldVotes, newVotes) */\n      mload(0x40)\n      dup1\n      swap2\n      sub\n      swap1\n      log2\n        /* \"contracts/Online/ERC20/Uni.sol\":23824:24462  {... */\n      pop\n        /* \"contracts/Online/ERC20/Uni.sol\":23677:24462  function _writeCheckpoint(... */\n      pop\n      pop\n      pop\n      pop\n      jump\t// out\n        /* \"contracts/Online/ERC20/Uni.sol\":24468:24657  function safe32(uint256 n, string memory errorMessage)... */\n    tag_337:\n        /* \"contracts/Online/ERC20/Uni.sol\":24570:24576  uint32 */\n      0x00\n        /* \"contracts/Online/ERC20/Uni.sol\":24611:24623  errorMessage */\n      dup2\n      shl(0x20, 0x01)\n        /* \"contracts/Online/ERC20/Uni.sol\":24600:24609  n < 2**32 */\n      dup5\n      lt\n        /* \"contracts/Online/ERC20/Uni.sol\":24592:24624  require(n < 2**32, errorMessage) */\n      tag_271\n      jumpi\n      mload(0x40)\n      shl(0xe5, 0x461bcd)\n      dup2\n      mstore\n      0x04\n      add\n      tag_159\n      swap2\n      swap1\n        /* \"#utility.yul\":14:432   */\n    tag_39:\n        /* \"#utility.yul\":163:165   */\n      0x20\n        /* \"#utility.yul\":152:161   */\n      dup2\n        /* \"#utility.yul\":145:166   */\n      mstore\n        /* \"#utility.yul\":126:130   */\n      0x00\n        /* \"#utility.yul\":195:201   */\n      dup3\n        /* \"#utility.yul\":189:202   */\n      mload\n        /* \"#utility.yul\":238:244   */\n      dup1\n        /* \"#utility.yul\":233:235   */\n      0x20\n        /* \"#utility.yul\":222:231   */\n      dup5\n        /* \"#utility.yul\":218:236   */\n      add\n        /* \"#utility.yul\":211:245   */\n      mstore\n        /* \"#utility.yul\":297:303   */\n      dup1\n        /* \"#utility.yul\":292:294   */\n      0x20\n        /* \"#utility.yul\":284:290   */\n      dup6\n        /* \"#utility.yul\":280:295   */\n      add\n        /* \"#utility.yul\":275:277   */\n      0x40\n        /* \"#utility.yul\":264:273   */\n      dup6\n        /* \"#utility.yul\":260:278   */\n      add\n        /* \"#utility.yul\":254:304   */\n      mcopy\n        /* \"#utility.yul\":353:354   */\n      0x00\n        /* \"#utility.yul\":348:350   */\n      0x40\n        /* \"#utility.yul\":339:345   */\n      dup3\n        /* \"#utility.yul\":328:337   */\n      dup6\n        /* \"#utility.yul\":324:346   */\n      add\n        /* \"#utility.yul\":320:351   */\n      add\n        /* \"#utility.yul\":313:355   */\n      mstore\n        /* \"#utility.yul\":423:425   */\n      0x40\n        /* \"#utility.yul\":416:418   */\n      0x1f\n        /* \"#utility.yul\":412:419   */\n      not\n        /* \"#utility.yul\":407:409   */\n      0x1f\n        /* \"#utility.yul\":399:405   */\n      dup4\n        /* \"#utility.yul\":395:410   */\n      add\n        /* \"#utility.yul\":391:420   */\n      and\n        /* \"#utility.yul\":380:389   */\n      dup5\n        /* \"#utility.yul\":376:421   */\n      add\n        /* \"#utility.yul\":372:426   */\n      add\n        /* \"#utility.yul\":364:426   */\n      swap2\n      pop\n      pop\n        /* \"#utility.yul\":14:432   */\n      swap3\n      swap2\n      pop\n      pop\n      jump\t// out\n        /* \"#utility.yul\":645:818   */\n    tag_350:\n        /* \"#utility.yul\":713:733   */\n      dup1\n      calldataload\n      sub(shl(0xa0, 0x01), 0x01)\n        /* \"#utility.yul\":762:793   */\n      dup2\n      and\n        /* \"#utility.yul\":752:794   */\n      dup2\n      eq\n        /* \"#utility.yul\":742:812   */\n      tag_358\n      jumpi\n        /* \"#utility.yul\":808:809   */\n      0x00\n        /* \"#utility.yul\":805:806   */\n      dup1\n        /* \"#utility.yul\":798:810   */\n      revert\n        /* \"#utility.yul\":742:812   */\n    tag_358:\n        /* \"#utility.yul\":645:818   */\n      swap2\n      swap1\n      pop\n      jump\t// out\n        /* \"#utility.yul\":823:1123   */\n    tag_46:\n        /* \"#utility.yul\":891:897   */\n      0x00\n        /* \"#utility.yul\":899:905   */\n      dup1\n        /* \"#utility.yul\":952:954   */\n      0x40\n        /* \"#utility.yul\":940:949   */\n      dup4\n        /* \"#utility.yul\":931:938   */\n      dup6\n        /* \"#utility.yul\":927:950   */\n      sub\n        /* \"#utility.yul\":923:955   */\n      slt\n        /* \"#utility.yul\":920:972   */\n      iszero\n      tag_360\n      jumpi\n        /* \"#utility.yul\":968:969   */\n      0x00\n        /* \"#utility.yul\":965:966   */\n      dup1\n        /* \"#utility.yul\":958:970   */\n      revert\n        /* \"#utility.yul\":920:972   */\n    tag_360:\n        /* \"#utility.yul\":991:1020   */\n      tag_361\n        /* \"#utility.yul\":1010:1019   */\n      dup4\n        /* \"#utility.yul\":991:1020   */\n      tag_350\n      jump\t// in\n    tag_361:\n        /* \"#utility.yul\":981:1020   */\n      swap5\n        /* \"#utility.yul\":1089:1091   */\n      0x20\n        /* \"#utility.yul\":1074:1092   */\n      swap4\n      swap1\n      swap4\n      add\n        /* \"#utility.yul\":1061:1093   */\n      calldataload\n      swap4\n      pop\n      pop\n      pop\n        /* \"#utility.yul\":823:1123   */\n      jump\t// out\n        /* \"#utility.yul\":1684:2058   */\n    tag_60:\n        /* \"#utility.yul\":1761:1767   */\n      0x00\n        /* \"#utility.yul\":1769:1775   */\n      dup1\n        /* \"#utility.yul\":1777:1783   */\n      0x00\n        /* \"#utility.yul\":1830:1832   */\n      0x60\n        /* \"#utility.yul\":1818:1827   */\n      dup5\n        /* \"#utility.yul\":1809:1816   */\n      dup7\n        /* \"#utility.yul\":1805:1828   */\n      sub\n        /* \"#utility.yul\":1801:1833   */\n      slt\n        /* \"#utility.yul\":1798:1850   */\n      iszero\n      tag_366\n      jumpi\n        /* \"#utility.yul\":1846:1847   */\n      0x00\n        /* \"#utility.yul\":1843:1844   */\n      dup1\n        /* \"#utility.yul\":1836:1848   */\n      revert\n        /* \"#utility.yul\":1798:1850   */\n    tag_366:\n        /* \"#utility.yul\":1869:1898   */\n      tag_367\n        /* \"#utility.yul\":1888:1897   */\n      dup5\n        /* \"#utility.yul\":1869:1898   */\n      tag_350\n      jump\t// in\n    tag_367:\n        /* \"#utility.yul\":1859:1898   */\n      swap3\n      pop\n        /* \"#utility.yul\":1917:1955   */\n      tag_368\n        /* \"#utility.yul\":1951:1953   */\n      0x20\n        /* \"#utility.yul\":1940:1949   */\n      dup6\n        /* \"#utility.yul\":1936:1954   */\n      add\n        /* \"#utility.yul\":1917:1955   */\n      tag_350\n      jump\t// in\n    tag_368:\n        /* \"#utility.yul\":1684:2058   */\n      swap3\n      swap6\n        /* \"#utility.yul\":1907:1955   */\n      swap3\n      swap5\n      pop\n      pop\n      pop\n        /* \"#utility.yul\":2024:2026   */\n      0x40\n        /* \"#utility.yul\":2009:2027   */\n      swap2\n      swap1\n      swap2\n      add\n        /* \"#utility.yul\":1996:2028   */\n      calldataload\n      swap1\n        /* \"#utility.yul\":1684:2058   */\n      jump\t// out\n        /* \"#utility.yul\":2252:2438   */\n    tag_78:\n        /* \"#utility.yul\":2311:2317   */\n      0x00\n        /* \"#utility.yul\":2364:2366   */\n      0x20\n        /* \"#utility.yul\":2352:2361   */\n      dup3\n        /* \"#utility.yul\":2343:2350   */\n      dup5\n        /* \"#utility.yul\":2339:2362   */\n      sub\n        /* \"#utility.yul\":2335:2367   */\n      slt\n        /* \"#utility.yul\":2332:2384   */\n      iszero\n      tag_371\n      jumpi\n        /* \"#utility.yul\":2380:2381   */\n      0x00\n        /* \"#utility.yul\":2377:2378   */\n      dup1\n        /* \"#utility.yul\":2370:2382   */\n      revert\n        /* \"#utility.yul\":2332:2384   */\n    tag_371:\n        /* \"#utility.yul\":2403:2432   */\n      tag_215\n        /* \"#utility.yul\":2422:2431   */\n      dup3\n        /* \"#utility.yul\":2403:2432   */\n      tag_350\n      jump\t// in\n        /* \"#utility.yul\":2853:3009   */\n    tag_351:\n        /* \"#utility.yul\":2919:2939   */\n      dup1\n      calldataload\n        /* \"#utility.yul\":2979:2983   */\n      0xff\n        /* \"#utility.yul\":2968:2984   */\n      dup2\n      and\n        /* \"#utility.yul\":2958:2985   */\n      dup2\n      eq\n        /* \"#utility.yul\":2948:3003   */\n      tag_358\n      jumpi\n        /* \"#utility.yul\":2999:3000   */\n      0x00\n        /* \"#utility.yul\":2996:2997   */\n      dup1\n        /* \"#utility.yul\":2989:3001   */\n      revert\n        /* \"#utility.yul\":3014:3747   */\n    tag_121:\n        /* \"#utility.yul\":3116:3122   */\n      0x00\n        /* \"#utility.yul\":3124:3130   */\n      dup1\n        /* \"#utility.yul\":3132:3138   */\n      0x00\n        /* \"#utility.yul\":3140:3146   */\n      dup1\n        /* \"#utility.yul\":3148:3154   */\n      0x00\n        /* \"#utility.yul\":3156:3162   */\n      dup1\n        /* \"#utility.yul\":3209:3212   */\n      0xc0\n        /* \"#utility.yul\":3197:3206   */\n      dup8\n        /* \"#utility.yul\":3188:3195   */\n      dup10\n        /* \"#utility.yul\":3184:3207   */\n      sub\n        /* \"#utility.yul\":3180:3213   */\n      slt\n        /* \"#utility.yul\":3177:3230   */\n      iszero\n      tag_378\n      jumpi\n        /* \"#utility.yul\":3226:3227   */\n      0x00\n        /* \"#utility.yul\":3223:3224   */\n      dup1\n        /* \"#utility.yul\":3216:3228   */\n      revert\n        /* \"#utility.yul\":3177:3230   */\n    tag_378:\n        /* \"#utility.yul\":3249:3278   */\n      tag_379\n        /* \"#utility.yul\":3268:3277   */\n      dup8\n        /* \"#utility.yul\":3249:3278   */\n      tag_350\n      jump\t// in\n    tag_379:\n        /* \"#utility.yul\":3239:3278   */\n      swap6\n      pop\n        /* \"#utility.yul\":3347:3349   */\n      0x20\n        /* \"#utility.yul\":3332:3350   */\n      dup8\n      add\n        /* \"#utility.yul\":3319:3351   */\n      calldataload\n      swap5\n      pop\n        /* \"#utility.yul\":3448:3450   */\n      0x40\n        /* \"#utility.yul\":3433:3451   */\n      dup8\n      add\n        /* \"#utility.yul\":3420:3452   */\n      calldataload\n      swap4\n      pop\n        /* \"#utility.yul\":3497:3533   */\n      tag_380\n        /* \"#utility.yul\":3529:3531   */\n      0x60\n        /* \"#utility.yul\":3514:3532   */\n      dup9\n      add\n        /* \"#utility.yul\":3497:3533   */\n      tag_351\n      jump\t// in\n    tag_380:\n        /* \"#utility.yul\":3014:3747   */\n      swap6\n      swap9\n      swap5\n      swap8\n      pop\n      swap3\n      swap6\n        /* \"#utility.yul\":3606:3609   */\n      0x80\n        /* \"#utility.yul\":3591:3610   */\n      dup2\n      add\n        /* \"#utility.yul\":3578:3611   */\n      calldataload\n      swap5\n        /* \"#utility.yul\":3710:3713   */\n      0xa0\n        /* \"#utility.yul\":3695:3714   */\n      swap1\n      swap2\n      add\n        /* \"#utility.yul\":3682:3715   */\n      calldataload\n      swap4\n      pop\n        /* \"#utility.yul\":3014:3747   */\n      swap2\n      pop\n      pop\n      jump\t// out\n        /* \"#utility.yul\":3752:4560   */\n    tag_125:\n        /* \"#utility.yul\":3863:3869   */\n      0x00\n        /* \"#utility.yul\":3871:3877   */\n      dup1\n        /* \"#utility.yul\":3879:3885   */\n      0x00\n        /* \"#utility.yul\":3887:3893   */\n      dup1\n        /* \"#utility.yul\":3895:3901   */\n      0x00\n        /* \"#utility.yul\":3903:3909   */\n      dup1\n        /* \"#utility.yul\":3911:3917   */\n      0x00\n        /* \"#utility.yul\":3964:3967   */\n      0xe0\n        /* \"#utility.yul\":3952:3961   */\n      dup9\n        /* \"#utility.yul\":3943:3950   */\n      dup11\n        /* \"#utility.yul\":3939:3962   */\n      sub\n        /* \"#utility.yul\":3935:3968   */\n      slt\n        /* \"#utility.yul\":3932:3985   */\n      iszero\n      tag_382\n      jumpi\n        /* \"#utility.yul\":3981:3982   */\n      0x00\n        /* \"#utility.yul\":3978:3979   */\n      dup1\n        /* \"#utility.yul\":3971:3983   */\n      revert\n        /* \"#utility.yul\":3932:3985   */\n    tag_382:\n        /* \"#utility.yul\":4004:4033   */\n      tag_383\n        /* \"#utility.yul\":4023:4032   */\n      dup9\n        /* \"#utility.yul\":4004:4033   */\n      tag_350\n      jump\t// in\n    tag_383:\n        /* \"#utility.yul\":3994:4033   */\n      swap7\n      pop\n        /* \"#utility.yul\":4052:4090   */\n      tag_384\n        /* \"#utility.yul\":4086:4088   */\n      0x20\n        /* \"#utility.yul\":4075:4084   */\n      dup10\n        /* \"#utility.yul\":4071:4089   */\n      add\n        /* \"#utility.yul\":4052:4090   */\n      tag_350\n      jump\t// in\n    tag_384:\n        /* \"#utility.yul\":4042:4090   */\n      swap6\n      pop\n        /* \"#utility.yul\":4159:4161   */\n      0x40\n        /* \"#utility.yul\":4144:4162   */\n      dup9\n      add\n        /* \"#utility.yul\":4131:4163   */\n      calldataload\n      swap5\n      pop\n        /* \"#utility.yul\":4260:4262   */\n      0x60\n        /* \"#utility.yul\":4245:4263   */\n      dup9\n      add\n        /* \"#utility.yul\":4232:4264   */\n      calldataload\n      swap4\n      pop\n        /* \"#utility.yul\":4309:4346   */\n      tag_385\n        /* \"#utility.yul\":4341:4344   */\n      0x80\n        /* \"#utility.yul\":4326:4345   */\n      dup10\n      add\n        /* \"#utility.yul\":4309:4346   */\n      tag_351\n      jump\t// in\n    tag_385:\n        /* \"#utility.yul\":3752:4560   */\n      swap7\n      swap10\n      swap6\n      swap9\n      pop\n      swap4\n      swap7\n      swap3\n      swap6\n        /* \"#utility.yul\":4299:4346   */\n      swap5\n        /* \"#utility.yul\":4419:4422   */\n      0xa0\n        /* \"#utility.yul\":4404:4423   */\n      dup5\n      add\n        /* \"#utility.yul\":4391:4424   */\n      calldataload\n      swap5\n      pop\n        /* \"#utility.yul\":4523:4526   */\n      0xc0\n        /* \"#utility.yul\":4508:4527   */\n      swap1\n      swap4\n      add\n        /* \"#utility.yul\":4495:4528   */\n      calldataload\n      swap3\n        /* \"#utility.yul\":3752:4560   */\n      swap2\n      pop\n      pop\n      jump\t// out\n        /* \"#utility.yul\":4565:4825   */\n    tag_129:\n        /* \"#utility.yul\":4633:4639   */\n      0x00\n        /* \"#utility.yul\":4641:4647   */\n      dup1\n        /* \"#utility.yul\":4694:4696   */\n      0x40\n        /* \"#utility.yul\":4682:4691   */\n      dup4\n        /* \"#utility.yul\":4673:4680   */\n      dup6\n        /* \"#utility.yul\":4669:4692   */\n      sub\n        /* \"#utility.yul\":4665:4697   */\n      slt\n        /* \"#utility.yul\":4662:4714   */\n      iszero\n      tag_387\n      jumpi\n        /* \"#utility.yul\":4710:4711   */\n      0x00\n        /* \"#utility.yul\":4707:4708   */\n      dup1\n        /* \"#utility.yul\":4700:4712   */\n      revert\n        /* \"#utility.yul\":4662:4714   */\n    tag_387:\n        /* \"#utility.yul\":4733:4762   */\n      tag_388\n        /* \"#utility.yul\":4752:4761   */\n      dup4\n        /* \"#utility.yul\":4733:4762   */\n      tag_350\n      jump\t// in\n    tag_388:\n        /* \"#utility.yul\":4723:4762   */\n      swap2\n      pop\n        /* \"#utility.yul\":4781:4819   */\n      tag_389\n        /* \"#utility.yul\":4815:4817   */\n      0x20\n        /* \"#utility.yul\":4804:4813   */\n      dup5\n        /* \"#utility.yul\":4800:4818   */\n      add\n        /* \"#utility.yul\":4781:4819   */\n      tag_350\n      jump\t// in\n    tag_389:\n        /* \"#utility.yul\":4771:4819   */\n      swap1\n      pop\n        /* \"#utility.yul\":4565:4825   */\n      swap3\n      pop\n      swap3\n      swap1\n      pop\n      jump\t// out\n        /* \"#utility.yul\":4830:5180   */\n    tag_137:\n        /* \"#utility.yul\":4897:4903   */\n      0x00\n        /* \"#utility.yul\":4905:4911   */\n      dup1\n        /* \"#utility.yul\":4958:4960   */\n      0x40\n        /* \"#utility.yul\":4946:4955   */\n      dup4\n        /* \"#utility.yul\":4937:4944   */\n      dup6\n        /* \"#utility.yul\":4933:4956   */\n      sub\n        /* \"#utility.yul\":4929:4961   */\n      slt\n        /* \"#utility.yul\":4926:4978   */\n      iszero\n      tag_391\n      jumpi\n        /* \"#utility.yul\":4974:4975   */\n      0x00\n        /* \"#utility.yul\":4971:4972   */\n      dup1\n        /* \"#utility.yul\":4964:4976   */\n      revert\n        /* \"#utility.yul\":4926:4978   */\n    tag_391:\n        /* \"#utility.yul\":4997:5026   */\n      tag_392\n        /* \"#utility.yul\":5016:5025   */\n      dup4\n        /* \"#utility.yul\":4997:5026   */\n      tag_350\n      jump\t// in\n    tag_392:\n        /* \"#utility.yul\":4987:5026   */\n      swap2\n      pop\n        /* \"#utility.yul\":5076:5078   */\n      0x20\n        /* \"#utility.yul\":5065:5074   */\n      dup4\n        /* \"#utility.yul\":5061:5079   */\n      add\n        /* \"#utility.yul\":5048:5080   */\n      calldataload\n        /* \"#utility.yul\":5120:5130   */\n      0xffffffff\n        /* \"#utility.yul\":5113:5118   */\n      dup2\n        /* \"#utility.yul\":5109:5131   */\n      and\n        /* \"#utility.yul\":5102:5107   */\n      dup2\n        /* \"#utility.yul\":5099:5132   */\n      eq\n        /* \"#utility.yul\":5089:5150   */\n      tag_393\n      jumpi\n        /* \"#utility.yul\":5146:5147   */\n      0x00\n        /* \"#utility.yul\":5143:5144   */\n      dup1\n        /* \"#utility.yul\":5136:5148   */\n      revert\n        /* \"#utility.yul\":5089:5150   */\n    tag_393:\n        /* \"#utility.yul\":5169:5174   */\n      dup1\n        /* \"#utility.yul\":5159:5174   */\n      swap2\n      pop\n      pop\n        /* \"#utility.yul\":4830:5180   */\n      swap3\n      pop\n      swap3\n      swap1\n      pop\n      jump\t// out\n        /* \"#utility.yul\":7684:7811   */\n    tag_352:\n        /* \"#utility.yul\":7745:7755   */\n      0x4e487b71\n        /* \"#utility.yul\":7740:7743   */\n      0xe0\n        /* \"#utility.yul\":7736:7756   */\n      shl\n        /* \"#utility.yul\":7733:7734   */\n      0x00\n        /* \"#utility.yul\":7726:7757   */\n      mstore\n        /* \"#utility.yul\":7776:7780   */\n      0x11\n        /* \"#utility.yul\":7773:7774   */\n      0x04\n        /* \"#utility.yul\":7766:7781   */\n      mstore\n        /* \"#utility.yul\":7800:7804   */\n      0x24\n        /* \"#utility.yul\":7797:7798   */\n      0x00\n        /* \"#utility.yul\":7790:7805   */\n      revert\n        /* \"#utility.yul\":7816:7986   */\n    tag_194:\n        /* \"#utility.yul\":7913:7923   */\n      0xffffffff\n        /* \"#utility.yul\":7906:7924   */\n      dup3\n      dup2\n      and\n        /* \"#utility.yul\":7886:7904   */\n      dup3\n      dup3\n      and\n        /* \"#utility.yul\":7882:7925   */\n      sub\n      swap1\n        /* \"#utility.yul\":7937:7957   */\n      dup2\n      gt\n        /* \"#utility.yul\":7934:7980   */\n      iszero\n      tag_144\n      jumpi\n        /* \"#utility.yul\":7960:7978   */\n      tag_144\n      tag_352\n      jump\t// in\n        /* \"#utility.yul\":7991:8118   */\n    tag_353:\n        /* \"#utility.yul\":8052:8062   */\n      0x4e487b71\n        /* \"#utility.yul\":8047:8050   */\n      0xe0\n        /* \"#utility.yul\":8043:8063   */\n      shl\n        /* \"#utility.yul\":8040:8041   */\n      0x00\n        /* \"#utility.yul\":8033:8064   */\n      mstore\n        /* \"#utility.yul\":8083:8087   */\n      0x12\n        /* \"#utility.yul\":8080:8081   */\n      0x04\n        /* \"#utility.yul\":8073:8088   */\n      mstore\n        /* \"#utility.yul\":8107:8111   */\n      0x24\n        /* \"#utility.yul\":8104:8105   */\n      0x00\n        /* \"#utility.yul\":8097:8112   */\n      revert\n        /* \"#utility.yul\":8123:8301   */\n    tag_203:\n        /* \"#utility.yul\":8162:8163   */\n      0x00\n        /* \"#utility.yul\":8196:8206   */\n      0xffffffff\n        /* \"#utility.yul\":8193:8194   */\n      dup4\n        /* \"#utility.yul\":8189:8207   */\n      and\n        /* \"#utility.yul\":8226:8229   */\n      dup1\n        /* \"#utility.yul\":8216:8253   */\n      tag_408\n      jumpi\n        /* \"#utility.yul\":8233:8251   */\n      tag_408\n      tag_353\n      jump\t// in\n    tag_408:\n        /* \"#utility.yul\":8291:8294   */\n      dup1\n        /* \"#utility.yul\":8278:8288   */\n      0xffffffff\n        /* \"#utility.yul\":8275:8276   */\n      dup5\n        /* \"#utility.yul\":8271:8289   */\n      and\n        /* \"#utility.yul\":8267:8295   */\n      div\n        /* \"#utility.yul\":8262:8295   */\n      swap2\n      pop\n      pop\n        /* \"#utility.yul\":8123:8301   */\n      swap3\n      swap2\n      pop\n      pop\n      jump\t// out\n        /* \"#utility.yul\":10356:10491   */\n    tag_234:\n        /* \"#utility.yul\":10395:10398   */\n      0x00\n        /* \"#utility.yul\":10416:10433   */\n      0x01\n      dup3\n      add\n        /* \"#utility.yul\":10413:10456   */\n      tag_416\n      jumpi\n        /* \"#utility.yul\":10436:10454   */\n      tag_416\n      tag_352\n      jump\t// in\n    tag_416:\n      pop\n        /* \"#utility.yul\":10483:10484   */\n      0x01\n        /* \"#utility.yul\":10472:10485   */\n      add\n      swap1\n        /* \"#utility.yul\":10356:10491   */\n      jump\t// out\n        /* \"#utility.yul\":13703:13921   */\n    tag_277:\n      sub(shl(0x60, 0x01), 0x01)\n        /* \"#utility.yul\":13809:13843   */\n      dup3\n      dup2\n      and\n        /* \"#utility.yul\":13773:13807   */\n      dup3\n      dup3\n      and\n        /* \"#utility.yul\":13769:13844   */\n      sub\n      swap1\n        /* \"#utility.yul\":13856:13892   */\n      dup2\n      gt\n        /* \"#utility.yul\":13853:13915   */\n      iszero\n      tag_144\n      jumpi\n        /* \"#utility.yul\":13895:13913   */\n      tag_144\n      tag_352\n      jump\t// in\n        /* \"#utility.yul\":14780:14905   */\n    tag_291:\n        /* \"#utility.yul\":14845:14854   */\n      dup1\n      dup3\n      add\n        /* \"#utility.yul\":14866:14876   */\n      dup1\n      dup3\n      gt\n        /* \"#utility.yul\":14863:14899   */\n      iszero\n      tag_144\n      jumpi\n        /* \"#utility.yul\":14879:14897   */\n      tag_144\n      tag_352\n      jump\t// in\n        /* \"#utility.yul\":15266:15434   */\n    tag_298:\n        /* \"#utility.yul\":15339:15348   */\n      dup1\n      dup3\n      mul\n        /* \"#utility.yul\":15370:15379   */\n      dup2\n      iszero\n        /* \"#utility.yul\":15387:15402   */\n      dup3\n      dup3\n      div\n        /* \"#utility.yul\":15381:15403   */\n      dup5\n      eq\n        /* \"#utility.yul\":15367:15404   */\n      or\n        /* \"#utility.yul\":15357:15428   */\n      tag_144\n      jumpi\n        /* \"#utility.yul\":15408:15426   */\n      tag_144\n      tag_352\n      jump\t// in\n        /* \"#utility.yul\":15439:15559   */\n    tag_300:\n        /* \"#utility.yul\":15479:15480   */\n      0x00\n        /* \"#utility.yul\":15505:15506   */\n      dup3\n        /* \"#utility.yul\":15495:15530   */\n      tag_439\n      jumpi\n        /* \"#utility.yul\":15510:15528   */\n      tag_439\n      tag_353\n      jump\t// in\n    tag_439:\n      pop\n        /* \"#utility.yul\":15544:15553   */\n      div\n      swap1\n        /* \"#utility.yul\":15439:15559   */\n      jump\t// out\n        /* \"#utility.yul\":15966:16181   */\n    tag_309:\n      sub(shl(0x60, 0x01), 0x01)\n        /* \"#utility.yul\":16034:16068   */\n      dup2\n      dup2\n      and\n        /* \"#utility.yul\":16070:16104   */\n      dup4\n      dup3\n      and\n        /* \"#utility.yul\":16030:16105   */\n      add\n      swap1\n        /* \"#utility.yul\":16117:16152   */\n      dup2\n      gt\n        /* \"#utility.yul\":16114:16175   */\n      iszero\n      tag_144\n      jumpi\n        /* \"#utility.yul\":16155:16173   */\n      tag_144\n      tag_352\n      jump\t// in\n        /* \"#utility.yul\":16186:16353   */\n    tag_344:\n        /* \"#utility.yul\":16281:16291   */\n      0xffffffff\n        /* \"#utility.yul\":16254:16272   */\n      dup2\n      dup2\n      and\n        /* \"#utility.yul\":16274:16292   */\n      dup4\n      dup3\n      and\n        /* \"#utility.yul\":16250:16293   */\n      add\n      swap1\n        /* \"#utility.yul\":16305:16324   */\n      dup2\n      gt\n        /* \"#utility.yul\":16302:16347   */\n      iszero\n      tag_144\n      jumpi\n        /* \"#utility.yul\":16327:16345   */\n      tag_144\n      tag_352\n      jump\t// in\n    stop\n    data_0ab5eae08d50cc345c58c2d7d67f9034a98d0a88dd540314c408c39a8dcec01d 556e693a3a6d696e743a207472616e7366657220616d6f756e74206f766572666c6f7773\n    data_136758788d48ec4d9744ba8c2136a9c9406d6c92cd4a81eff0de4942b636db13 556e693a3a7472616e7366657246726f6d3a207472616e7366657220616d6f756e742065786365656473207370656e64657220616c6c6f77616e6365\n    data_1ef2347f5dbb97e8eb7bc1442a128a1c6e65386b013257fe2b8ad95aaaa96ab8 556e693a3a6d696e743a20746f74616c537570706c7920657863656564732039362062697473\n    data_3230ba2cb739b33589720b8a5892642694535e935234939514431ff16907d24a 556e693a3a5f7472616e73666572546f6b656e733a207472616e7366657220616d6f756e7420657863656564732062616c616e6365\n    data_58da0b91010307ee6a63257c5283618928105e355857d8f79cf7e017ad7082f4 556e693a3a7065726d69743a20616d6f756e7420657863656564732039362062697473\n    data_5c6c891434a3c5951db59f5fe43d566b04bf54e07bc444b7f9f72601e608dc42 556e693a3a5f6d6f7665566f7465733a20766f746520616d6f756e74206f766572666c6f7773\n    data_66157ef8d926a3327823fecd4ce53edfcb6533c37c90dc98acfb91e4f2854725 556e693a3a5f7772697465436865636b706f696e743a20626c6f636b206e756d62657220657863656564732033322062697473\n    data_8f9e8e1e6816d4a772d233c08b8292a576126f7dbd1d9b7cd30ef07f7c3d78d2 556e693a3a5f6d6f7665566f7465733a20766f746520616d6f756e7420756e646572666c6f7773\n    data_9bc67db7413f33b8f7a9995149809b7b3a4a83b5ba884084bea06cfb35986555 556e693a3a7472616e736665723a20616d6f756e7420657863656564732039362062697473\n    data_bcb6733e7ac2aee3c3602ee664d4b3cb251e429df5c7e9148d412d0b60f07b16 556e693a3a6d696e743a20616d6f756e7420657863656564732039362062697473\n    data_cb3e128da7f3f16c83a901cce3ab145c66bad45a0cd648091fecc9964ebf42fe 556e693a3a617070726f76653a20616d6f756e7420657863656564732039362062697473\n    data_f838ee8b15c3d07740bb9b304b8146ec63bb435a7703825b5e6424ee2072674a 556e693a3a5f7472616e73666572546f6b656e733a207472616e7366657220616d6f756e74206f766572666c6f7773\n\n    auxdata: 0xa2646970667358221220b4b84d2b003d0602ebacd65cb25e2c213780afbfab33bc022976f467f1db628364736f6c634300081a0033\n}\n",
				"bytecode": {
					"linkReferences": {},
					"object": "60806040526b033b2e3c9fd0803ce80000005f5534801561001e575f80fd5b5060405161249e38038061249e83398101604081905261003d916101a4565b428110156100b75760405162461bcd60e51b815260206004820152603960248201527f556e693a3a636f6e7374727563746f723a206d696e74696e672063616e206f6e60448201527f6c7920626567696e206166746572206465706c6f796d656e7400000000000000606482015260840160405180910390fd5b5f80546001600160a01b03851680835260046020908152604080852080546001600160601b0319166001600160601b0390951694909417909355835492519283529092917fddf252ad1be2c89b69c2b068fc378daa952ba7f163c4a11628f55a4df523b3ef910160405180910390a3600180546001600160a01b0319166001600160a01b038416908117909155604080515f815260208101929092527f3b0007eb941cf645526cbb3a4fdaecda9d28ce4843167d9263b536a1f1edc0f6910160405180910390a1600255506101dd9050565b80516001600160a01b038116811461019f575f80fd5b919050565b5f805f606084860312156101b6575f80fd5b6101bf84610189565b92506101cd60208501610189565b9150604084015190509250925092565b6122b4806101ea5f395ff3fe608060405234801561000f575f80fd5b50600436106101a1575f3560e01c80636fcfff45116100f3578063b4b5ea5711610093578063dd62ed3e1161006e578063dd62ed3e1461044f578063e7a324dc14610490578063f1127ed8146104b7578063fca3b5aa1461051d575f80fd5b8063b4b5ea5714610416578063c3cda52014610429578063d505accf1461043c575f80fd5b8063782d6fe1116100ce578063782d6fe1146103975780637ecebe00146103c257806395d89b41146103e1578063a9059cbb14610403575f80fd5b80636fcfff451461033957806370a082311461035e57806376c71ca11461038f575f80fd5b806330adf81f1161015e57806340c10f191161013957806340c10f19146102c9578063587cde1e146102de5780635c11d62f146103065780635c19a95c14610326575f80fd5b806330adf81f1461027f57806330b36cef146102a6578063313ce567146102af575f80fd5b806306fdde03146101a557806307546172146101e1578063095ea7b31461020c57806318160ddd1461022f57806320606b701461024557806323b872dd1461026c575b5f80fd5b6101cb604051806040016040528060078152602001660556e69737761760cc1b81525081565b6040516101d89190611d6a565b60405180910390f35b6001546101f4906001600160a01b031681565b6040516001600160a01b0390911681526020016101d8565b61021f61021a366004611dba565b610530565b60405190151581526020016101d8565b6102375f5481565b6040519081526020016101d8565b6102377f8cad95687ba82c2ce50e74f7b754645e5117c3a5bec8151c0726d5857980a86681565b61021f61027a366004611de2565b6105d6565b6102377f6e71edae12b1b97f4d1f60370fef10105fa2faae0126114a169c64845d6126c981565b61023760025481565b6102b7601281565b60405160ff90911681526020016101d8565b6102dc6102d7366004611dba565b610701565b005b6101f46102ec366004611e1c565b60056020525f90815260409020546001600160a01b031681565b6103116301e1338081565b60405163ffffffff90911681526020016101d8565b6102dc610334366004611e1c565b6109f8565b610311610347366004611e1c565b60076020525f908152604090205463ffffffff1681565b61023761036c366004611e1c565b6001600160a01b03165f908152600460205260409020546001600160601b031690565b6102b7600281565b6103aa6103a5366004611dba565b610a05565b6040516001600160601b0390911681526020016101d8565b6102376103d0366004611e1c565b60086020525f908152604090205481565b6101cb60405180604001604052806003815260200162554e4960e81b81525081565b61021f610411366004611dba565b610c81565b6103aa610424366004611e1c565b610cbc565b6102dc610437366004611e45565b610d36565b6102dc61044a366004611e99565b611019565b61023761045d366004611eff565b6001600160a01b039182165f9081526003602090815260408083209390941682529190915220546001600160601b031690565b6102377fe48329057bfd03d55e49b547132e39cffd9c1820ad7b9d4c5307691425d15adf81565b6104f96104c5366004611f30565b600660209081525f928352604080842090915290825290205463ffffffff811690600160201b90046001600160601b031682565b6040805163ffffffff90931683526001600160601b039091166020830152016101d8565b6102dc61052b366004611e1c565b6113e8565b5f806105548360405180606001604052806024815260200161222c602491396114d1565b335f8181526003602090815260408083206001600160a01b038a168085529083529281902080546001600160601b0319166001600160601b038716908117909155905190815293945090927f8c5be1e5ebec7d5bd14f71427d1e84f3dd0314c0f7b2291e5b200ac8c7c3b925910160405180910390a360019150505b92915050565b6001600160a01b0383165f9081526003602090815260408083203380855290835281842054825160608101909352602480845291936001600160601b0390911692859261062d928892919061222c908301396114d1565b9050866001600160a01b0316836001600160a01b0316146106e9575f61066c83836040518060600160405280603c81526020016120ac603c91396114ff565b6001600160a01b038981165f818152600360209081526040808320948a168084529482529182902080546001600160601b0319166001600160601b0387169081179091559151918252939450919290917f8c5be1e5ebec7d5bd14f71427d1e84f3dd0314c0f7b2291e5b200ac8c7c3b925910160405180910390a3505b6106f4878783611548565b5060019695505050505050565b6001546001600160a01b0316331461076c5760405162461bcd60e51b815260206004820152602360248201527f556e693a3a6d696e743a206f6e6c7920746865206d696e7465722063616e206d6044820152621a5b9d60ea1b60648201526084015b60405180910390fd5b6002544210156107c95760405162461bcd60e51b815260206004820152602260248201527f556e693a3a6d696e743a206d696e74696e67206e6f7420616c6c6f7765642079604482015261195d60f21b6064820152608401610763565b6001600160a01b0382166108365760405162461bcd60e51b815260206004820152602e60248201527f556e693a3a6d696e743a2063616e6e6f74207472616e7366657220746f20746860448201526d65207a65726f206164647265737360901b6064820152608401610763565b610844426301e13380611790565b6002819055505f61086d8260405180606001604052806021815260200161220b602191396114d1565b90506108886108815f54600260ff166117ee565b606461186c565b816001600160601b031611156108e05760405162461bcd60e51b815260206004820152601c60248201527f556e693a3a6d696e743a206578636565646564206d696e7420636170000000006044820152606401610763565b6109156108f75f54836001600160601b0316611790565b6040518060600160405280602681526020016120e8602691396114d1565b6001600160601b039081165f9081556001600160a01b0385168152600460209081526040918290205482516060810190935260248084526109669491909116928592909190612088908301396118ad565b6001600160a01b0384165f81815260046020908152604080832080546001600160601b0319166001600160601b03968716179055519385168452919290917fddf252ad1be2c89b69c2b068fc378daa952ba7f163c4a11628f55a4df523b3ef910160405180910390a36001600160a01b038084165f908152600560205260408120546109f39216836118f9565b505050565b610a023382611a9a565b50565b5f438210610a645760405162461bcd60e51b815260206004820152602660248201527f556e693a3a6765745072696f72566f7465733a206e6f742079657420646574656044820152651c9b5a5b995960d21b6064820152608401610763565b6001600160a01b0383165f9081526007602052604081205463ffffffff1690819003610a93575f9150506105d0565b6001600160a01b0384165f9081526006602052604081208491610ab7600185611f81565b63ffffffff908116825260208201929092526040015f20541611610b27576001600160a01b0384165f90815260066020526040812090610af8600184611f81565b63ffffffff16815260208101919091526040015f2054600160201b90046001600160601b031691506105d09050565b6001600160a01b0384165f90815260066020908152604080832083805290915290205463ffffffff16831015610b60575f9150506105d0565b5f80610b6d600184611f81565b90505b8163ffffffff168163ffffffff161115610c3d575f6002610b918484611f81565b610b9b9190611fb1565b610ba59083611f81565b6001600160a01b0388165f90815260066020908152604080832063ffffffff858116855290835292819020815180830190925254928316808252600160201b9093046001600160601b031691810191909152919250879003610c11576020015194506105d09350505050565b805163ffffffff16871115610c2857819350610c36565b610c33600183611f81565b92505b5050610b70565b506001600160a01b0385165f90815260066020908152604080832063ffffffff909416835292905220546001600160601b03600160201b9091041691505092915050565b5f80610ca5836040518060600160405280602581526020016121e6602591396114d1565b9050610cb2338583611548565b5060019392505050565b6001600160a01b0381165f9081526007602052604081205463ffffffff1680610ce5575f610d2f565b6001600160a01b0383165f90815260066020526040812090610d08600184611f81565b63ffffffff16815260208101919091526040015f2054600160201b90046001600160601b03165b9392505050565b60408051808201825260078152660556e69737761760cc1b60209182015281517f8cad95687ba82c2ce50e74f7b754645e5117c3a5bec8151c0726d5857980a866818301527f99c45e8ee5dde061ced9c812089094fbd28a020e7e37f2851198887e5ca6498581840152466060820152306080808301919091528351808303909101815260a0820184528051908301207fe48329057bfd03d55e49b547132e39cffd9c1820ad7b9d4c5307691425d15adf60c08301526001600160a01b038a1660e083015261010082018990526101208083018990528451808403909101815261014083019094528351939092019290922061190160f01b6101608401526101628301829052610182830181905290915f906101a20160408051601f1981840301815282825280516020918201205f80855291840180845281905260ff8a169284019290925260608301889052608083018790529092509060019060a0016020604051602081039080840390855afa158015610eb4573d5f803e3d5ffd5b5050604051601f1901519150506001600160a01b038116610f255760405162461bcd60e51b815260206004820152602560248201527f556e693a3a64656c656761746542795369673a20696e76616c6964207369676e604482015264617475726560d81b6064820152608401610763565b6001600160a01b0381165f908152600860205260408120805491610f4883611fd8565b919050558914610fa45760405162461bcd60e51b815260206004820152602160248201527f556e693a3a64656c656761746542795369673a20696e76616c6964206e6f6e636044820152606560f81b6064820152608401610763565b874211156110025760405162461bcd60e51b815260206004820152602560248201527f556e693a3a64656c656761746542795369673a207369676e61747572652065786044820152641c1a5c995960da1b6064820152608401610763565b61100c818b611a9a565b505050505b505050505050565b5f61103c86604051806060016040528060238152602001612143602391396114d1565b60408051808201825260078152660556e69737761760cc1b60209182015281517f8cad95687ba82c2ce50e74f7b754645e5117c3a5bec8151c0726d5857980a866818301527f99c45e8ee5dde061ced9c812089094fbd28a020e7e37f2851198887e5ca6498581840152466060820152306080808301919091528351808303909101815260a090910183528051908201206001600160a01b038c165f90815260089092529181208054939450919290917f6e71edae12b1b97f4d1f60370fef10105fa2faae0126114a169c64845d6126c9918c918c918c918661111e83611fd8565b909155506040805160208101969096526001600160a01b0394851690860152929091166060840152608083015260a082015260c0810188905260e0016040516020818303038152906040528051906020012090505f828260405160200161119c92919061190160f01b81526002810192909252602282015260420190565b60408051601f1981840301815282825280516020918201205f80855291840180845281905260ff8b169284019290925260608301899052608083018890529092509060019060a0016020604051602081039080840390855afa158015611204573d5f803e3d5ffd5b5050604051601f1901519150506001600160a01b0381166112675760405162461bcd60e51b815260206004820152601e60248201527f556e693a3a7065726d69743a20696e76616c6964207369676e617475726500006044820152606401610763565b8b6001600160a01b0316816001600160a01b0316146112c85760405162461bcd60e51b815260206004820152601960248201527f556e693a3a7065726d69743a20756e617574686f72697a6564000000000000006044820152606401610763565b884211156113185760405162461bcd60e51b815260206004820152601e60248201527f556e693a3a7065726d69743a207369676e6174757265206578706972656400006044820152606401610763565b8460035f8e6001600160a01b03166001600160a01b031681526020019081526020015f205f8d6001600160a01b03166001600160a01b031681526020019081526020015f205f6101000a8154816001600160601b0302191690836001600160601b031602179055508a6001600160a01b03168c6001600160a01b03167f8c5be1e5ebec7d5bd14f71427d1e84f3dd0314c0f7b2291e5b200ac8c7c3b925876040516113d291906001600160601b0391909116815260200190565b60405180910390a3505050505050505050505050565b6001546001600160a01b031633146114685760405162461bcd60e51b815260206004820152603d60248201527f556e693a3a7365744d696e7465723a206f6e6c7920746865206d696e7465722060448201527f63616e206368616e676520746865206d696e74657220616464726573730000006064820152608401610763565b600154604080516001600160a01b03928316815291831660208301527f3b0007eb941cf645526cbb3a4fdaecda9d28ce4843167d9263b536a1f1edc0f6910160405180910390a1600180546001600160a01b0319166001600160a01b0392909216919091179055565b5f81600160601b84106114f75760405162461bcd60e51b81526004016107639190611d6a565b509192915050565b5f836001600160601b0316836001600160601b0316111582906115355760405162461bcd60e51b81526004016107639190611d6a565b506115408385611ff0565b949350505050565b6001600160a01b0383166115c45760405162461bcd60e51b815260206004820152603b60248201527f556e693a3a5f7472616e73666572546f6b656e733a2063616e6e6f742074726160448201527f6e736665722066726f6d20746865207a65726f206164647265737300000000006064820152608401610763565b6001600160a01b0382166116405760405162461bcd60e51b815260206004820152603960248201527f556e693a3a5f7472616e73666572546f6b656e733a2063616e6e6f742074726160448201527f6e7366657220746f20746865207a65726f2061646472657373000000000000006064820152608401610763565b6001600160a01b0383165f9081526004602090815260409182902054825160608101909352603580845261168a936001600160601b03909216928592919061210e908301396114ff565b6001600160a01b038481165f90815260046020908152604080832080546001600160601b0319166001600160601b0396871617905592861682529082902054825160608101909352602f8084526116f19491909116928592909190612250908301396118ad565b6001600160a01b038381165f8181526004602090815260409182902080546001600160601b0319166001600160601b03968716179055905193851684529092918616917fddf252ad1be2c89b69c2b068fc378daa952ba7f163c4a11628f55a4df523b3ef910160405180910390a36001600160a01b038084165f908152600560205260408082205485841683529120546109f3929182169116836118f9565b5f8061179c838561200f565b905083811015610d2f5760405162461bcd60e51b815260206004820152601b60248201527f536166654d6174683a206164646974696f6e206f766572666c6f7700000000006044820152606401610763565b5f825f036117fd57505f6105d0565b5f6118088385612022565b9050826118158583612039565b14610d2f5760405162461bcd60e51b815260206004820152602160248201527f536166654d6174683a206d756c7469706c69636174696f6e206f766572666c6f6044820152607760f81b6064820152608401610763565b5f610d2f83836040518060400160405280601a81526020017f536166654d6174683a206469766973696f6e206279207a65726f000000000000815250611b23565b5f806118b9848661204c565b9050846001600160601b0316816001600160601b0316101583906118f05760405162461bcd60e51b81526004016107639190611d6a565b50949350505050565b816001600160a01b0316836001600160a01b03161415801561192357505f816001600160601b0316115b156109f3576001600160a01b038316156119e3576001600160a01b0383165f9081526007602052604081205463ffffffff169081611961575f6119ab565b6001600160a01b0385165f90815260066020526040812090611984600185611f81565b63ffffffff16815260208101919091526040015f2054600160201b90046001600160601b03165b90505f6119d182856040518060600160405280602781526020016121bf602791396114ff565b90506119df86848484611b58565b5050505b6001600160a01b038216156109f3576001600160a01b0382165f9081526007602052604081205463ffffffff169081611a1c575f611a66565b6001600160a01b0384165f90815260066020526040812090611a3f600185611f81565b63ffffffff16815260208101919091526040015f2054600160201b90046001600160601b03165b90505f611a8c8285604051806060016040528060268152602001612166602691396118ad565b905061101185848484611b58565b6001600160a01b038083165f81815260056020818152604080842080546004845282862054949093528787166001600160a01b031984168117909155905191909516946001600160601b039092169391928592917f3134e8a2e6d97e929a7e54011ea5485d7d196dd5f0ba4d4ef95803e8e3fc257f9190a4611b1d8284836118f9565b50505050565b5f8183611b435760405162461bcd60e51b81526004016107639190611d6a565b505f611b4f8486612039565b95945050505050565b5f611b7b4360405180606001604052806033815260200161218c60339139611d48565b90505f8463ffffffff16118015611bd257506001600160a01b0385165f90815260066020526040812063ffffffff831691611bb7600188611f81565b63ffffffff908116825260208201929092526040015f205416145b15611c44576001600160a01b0385165f9081526006602052604081208391611bfb600188611f81565b63ffffffff16815260208101919091526040015f2080546001600160601b0392909216600160201b026fffffffffffffffffffffffff0000000019909216919091179055611cf3565b60408051808201825263ffffffff80841682526001600160601b0380861660208085019182526001600160a01b038b165f908152600682528681208b8616825290915294909420925183549451909116600160201b026fffffffffffffffffffffffffffffffff19909416911617919091179055611cc384600161206b565b6001600160a01b0386165f908152600760205260409020805463ffffffff191663ffffffff929092169190911790555b604080516001600160601b038086168252841660208201526001600160a01b038716917fdec2bacdd2f05b59de34da9b523dff8be42e5e38e818c82fdb0bae774387a724910160405180910390a25050505050565b5f81600160201b84106114f75760405162461bcd60e51b815260040161076391905b602081525f82518060208401528060208501604085015e5f604082850101526040601f19601f83011684010191505092915050565b80356001600160a01b0381168114611db5575f80fd5b919050565b5f8060408385031215611dcb575f80fd5b611dd483611d9f565b946020939093013593505050565b5f805f60608486031215611df4575f80fd5b611dfd84611d9f565b9250611e0b60208501611d9f565b929592945050506040919091013590565b5f60208284031215611e2c575f80fd5b610d2f82611d9f565b803560ff81168114611db5575f80fd5b5f805f805f8060c08789031215611e5a575f80fd5b611e6387611d9f565b95506020870135945060408701359350611e7f60608801611e35565b9598949750929560808101359460a0909101359350915050565b5f805f805f805f60e0888a031215611eaf575f80fd5b611eb888611d9f565b9650611ec660208901611d9f565b95506040880135945060608801359350611ee260808901611e35565b9699959850939692959460a0840135945060c09093013592915050565b5f8060408385031215611f10575f80fd5b611f1983611d9f565b9150611f2760208401611d9f565b90509250929050565b5f8060408385031215611f41575f80fd5b611f4a83611d9f565b9150602083013563ffffffff81168114611f62575f80fd5b809150509250929050565b634e487b7160e01b5f52601160045260245ffd5b63ffffffff82811682821603908111156105d0576105d0611f6d565b634e487b7160e01b5f52601260045260245ffd5b5f63ffffffff831680611fc657611fc6611f9d565b8063ffffffff84160491505092915050565b5f60018201611fe957611fe9611f6d565b5060010190565b6001600160601b0382811682821603908111156105d0576105d0611f6d565b808201808211156105d0576105d0611f6d565b80820281158282048414176105d0576105d0611f6d565b5f8261204757612047611f9d565b500490565b6001600160601b0381811683821601908111156105d0576105d0611f6d565b63ffffffff81811683821601908111156105d0576105d0611f6d56fe556e693a3a6d696e743a207472616e7366657220616d6f756e74206f766572666c6f7773556e693a3a7472616e7366657246726f6d3a207472616e7366657220616d6f756e742065786365656473207370656e64657220616c6c6f77616e6365556e693a3a6d696e743a20746f74616c537570706c7920657863656564732039362062697473556e693a3a5f7472616e73666572546f6b656e733a207472616e7366657220616d6f756e7420657863656564732062616c616e6365556e693a3a7065726d69743a20616d6f756e7420657863656564732039362062697473556e693a3a5f6d6f7665566f7465733a20766f746520616d6f756e74206f766572666c6f7773556e693a3a5f7772697465436865636b706f696e743a20626c6f636b206e756d62657220657863656564732033322062697473556e693a3a5f6d6f7665566f7465733a20766f746520616d6f756e7420756e646572666c6f7773556e693a3a7472616e736665723a20616d6f756e7420657863656564732039362062697473556e693a3a6d696e743a20616d6f756e7420657863656564732039362062697473556e693a3a617070726f76653a20616d6f756e7420657863656564732039362062697473556e693a3a5f7472616e73666572546f6b656e733a207472616e7366657220616d6f756e74206f766572666c6f7773a2646970667358221220b4b84d2b003d0602ebacd65cb25e2c213780afbfab33bc022976f467f1db628364736f6c634300081a0033",
					"opcodes": "PUSH1 0x80 PUSH1 0x40 MSTORE PUSH12 0x33B2E3C9FD0803CE8000000 PUSH0 SSTORE CALLVALUE DUP1 ISZERO PUSH2 0x1E JUMPI PUSH0 DUP1 REVERT JUMPDEST POP PUSH1 0x40 MLOAD PUSH2 0x249E CODESIZE SUB DUP1 PUSH2 0x249E DUP4 CODECOPY DUP2 ADD PUSH1 0x40 DUP2 SWAP1 MSTORE PUSH2 0x3D SWAP2 PUSH2 0x1A4 JUMP JUMPDEST TIMESTAMP DUP2 LT ISZERO PUSH2 0xB7 JUMPI PUSH1 0x40 MLOAD PUSH3 0x461BCD PUSH1 0xE5 SHL DUP2 MSTORE PUSH1 0x20 PUSH1 0x4 DUP3 ADD MSTORE PUSH1 0x39 PUSH1 0x24 DUP3 ADD MSTORE PUSH32 0x556E693A3A636F6E7374727563746F723A206D696E74696E672063616E206F6E PUSH1 0x44 DUP3 ADD MSTORE PUSH32 0x6C7920626567696E206166746572206465706C6F796D656E7400000000000000 PUSH1 0x64 DUP3 ADD MSTORE PUSH1 0x84 ADD PUSH1 0x40 MLOAD DUP1 SWAP2 SUB SWAP1 REVERT JUMPDEST PUSH0 DUP1 SLOAD PUSH1 0x1 PUSH1 0x1 PUSH1 0xA0 SHL SUB DUP6 AND DUP1 DUP4 MSTORE PUSH1 0x4 PUSH1 0x20 SWAP1 DUP2 MSTORE PUSH1 0x40 DUP1 DUP6 KECCAK256 DUP1 SLOAD PUSH1 0x1 PUSH1 0x1 PUSH1 0x60 SHL SUB NOT AND PUSH1 0x1 PUSH1 0x1 PUSH1 0x60 SHL SUB SWAP1 SWAP6 AND SWAP5 SWAP1 SWAP5 OR SWAP1 SWAP4 SSTORE DUP4 SLOAD SWAP3 MLOAD SWAP3 DUP4 MSTORE SWAP1 SWAP3 SWAP2 PUSH32 0xDDF252AD1BE2C89B69C2B068FC378DAA952BA7F163C4A11628F55A4DF523B3EF SWAP2 ADD PUSH1 0x40 MLOAD DUP1 SWAP2 SUB SWAP1 LOG3 PUSH1 0x1 DUP1 SLOAD PUSH1 0x1 PUSH1 0x1 PUSH1 0xA0 SHL SUB NOT AND PUSH1 0x1 PUSH1 0x1 PUSH1 0xA0 SHL SUB DUP5 AND SWAP1 DUP2 OR SWAP1 SWAP2 SSTORE PUSH1 0x40 DUP1 MLOAD PUSH0 DUP2 MSTORE PUSH1 0x20 DUP2 ADD SWAP3 SWAP1 SWAP3 MSTORE PUSH32 0x3B0007EB941CF645526CBB3A4FDAECDA9D28CE4843167D9263B536A1F1EDC0F6 SWAP2 ADD PUSH1 0x40 MLOAD DUP1 SWAP2 SUB SWAP1 LOG1 PUSH1 0x2 SSTORE POP PUSH2 0x1DD SWAP1 POP JUMP JUMPDEST DUP1 MLOAD PUSH1 0x1 PUSH1 0x1 PUSH1 0xA0 SHL SUB DUP2 AND DUP2 EQ PUSH2 0x19F JUMPI PUSH0 DUP1 REVERT JUMPDEST SWAP2 SWAP1 POP JUMP JUMPDEST PUSH0 DUP1 PUSH0 PUSH1 0x60 DUP5 DUP7 SUB SLT ISZERO PUSH2 0x1B6 JUMPI PUSH0 DUP1 REVERT JUMPDEST PUSH2 0x1BF DUP5 PUSH2 0x189 JUMP JUMPDEST SWAP3 POP PUSH2 0x1CD PUSH1 0x20 DUP6 ADD PUSH2 0x189 JUMP JUMPDEST SWAP2 POP PUSH1 0x40 DUP5 ADD MLOAD SWAP1 POP SWAP3 POP SWAP3 POP SWAP3 JUMP JUMPDEST PUSH2 0x22B4 DUP1 PUSH2 0x1EA PUSH0 CODECOPY PUSH0 RETURN INVALID PUSH1 0x80 PUSH1 0x40 MSTORE CALLVALUE DUP1 ISZERO PUSH2 0xF JUMPI PUSH0 DUP1 REVERT JUMPDEST POP PUSH1 0x4 CALLDATASIZE LT PUSH2 0x1A1 JUMPI PUSH0 CALLDATALOAD PUSH1 0xE0 SHR DUP1 PUSH4 0x6FCFFF45 GT PUSH2 0xF3 JUMPI DUP1 PUSH4 0xB4B5EA57 GT PUSH2 0x93 JUMPI DUP1 PUSH4 0xDD62ED3E GT PUSH2 0x6E JUMPI DUP1 PUSH4 0xDD62ED3E EQ PUSH2 0x44F JUMPI DUP1 PUSH4 0xE7A324DC EQ PUSH2 0x490 JUMPI DUP1 PUSH4 0xF1127ED8 EQ PUSH2 0x4B7 JUMPI DUP1 PUSH4 0xFCA3B5AA EQ PUSH2 0x51D JUMPI PUSH0 DUP1 REVERT JUMPDEST DUP1 PUSH4 0xB4B5EA57 EQ PUSH2 0x416 JUMPI DUP1 PUSH4 0xC3CDA520 EQ PUSH2 0x429 JUMPI DUP1 PUSH4 0xD505ACCF EQ PUSH2 0x43C JUMPI PUSH0 DUP1 REVERT JUMPDEST DUP1 PUSH4 0x782D6FE1 GT PUSH2 0xCE JUMPI DUP1 PUSH4 0x782D6FE1 EQ PUSH2 0x397 JUMPI DUP1 PUSH4 0x7ECEBE00 EQ PUSH2 0x3C2 JUMPI DUP1 PUSH4 0x95D89B41 EQ PUSH2 0x3E1 JUMPI DUP1 PUSH4 0xA9059CBB EQ PUSH2 0x403 JUMPI PUSH0 DUP1 REVERT JUMPDEST DUP1 PUSH4 0x6FCFFF45 EQ PUSH2 0x339 JUMPI DUP1 PUSH4 0x70A08231 EQ PUSH2 0x35E JUMPI DUP1 PUSH4 0x76C71CA1 EQ PUSH2 0x38F JUMPI PUSH0 DUP1 REVERT JUMPDEST DUP1 PUSH4 0x30ADF81F GT PUSH2 0x15E JUMPI DUP1 PUSH4 0x40C10F19 GT PUSH2 0x139 JUMPI DUP1 PUSH4 0x40C10F19 EQ PUSH2 0x2C9 JUMPI DUP1 PUSH4 0x587CDE1E EQ PUSH2 0x2DE JUMPI DUP1 PUSH4 0x5C11D62F EQ PUSH2 0x306 JUMPI DUP1 PUSH4 0x5C19A95C EQ PUSH2 0x326 JUMPI PUSH0 DUP1 REVERT JUMPDEST DUP1 PUSH4 0x30ADF81F EQ PUSH2 0x27F JUMPI DUP1 PUSH4 0x30B36CEF EQ PUSH2 0x2A6 JUMPI DUP1 PUSH4 0x313CE567 EQ PUSH2 0x2AF JUMPI PUSH0 DUP1 REVERT JUMPDEST DUP1 PUSH4 0x6FDDE03 EQ PUSH2 0x1A5 JUMPI DUP1 PUSH4 0x7546172 EQ PUSH2 0x1E1 JUMPI DUP1 PUSH4 0x95EA7B3 EQ PUSH2 0x20C JUMPI DUP1 PUSH4 0x18160DDD EQ PUSH2 0x22F JUMPI DUP1 PUSH4 0x20606B70 EQ PUSH2 0x245 JUMPI DUP1 PUSH4 0x23B872DD EQ PUSH2 0x26C JUMPI JUMPDEST PUSH0 DUP1 REVERT JUMPDEST PUSH2 0x1CB PUSH1 0x40 MLOAD DUP1 PUSH1 0x40 ADD PUSH1 0x40 MSTORE DUP1 PUSH1 0x7 DUP2 MSTORE PUSH1 0x20 ADD PUSH7 0x556E697377617 PUSH1 0xCC SHL DUP2 MSTORE POP DUP2 JUMP JUMPDEST PUSH1 0x40 MLOAD PUSH2 0x1D8 SWAP2 SWAP1 PUSH2 0x1D6A JUMP JUMPDEST PUSH1 0x40 MLOAD DUP1 SWAP2 SUB SWAP1 RETURN JUMPDEST PUSH1 0x1 SLOAD PUSH2 0x1F4 SWAP1 PUSH1 0x1 PUSH1 0x1 PUSH1 0xA0 SHL SUB AND DUP2 JUMP JUMPDEST PUSH1 0x40 MLOAD PUSH1 0x1 PUSH1 0x1 PUSH1 0xA0 SHL SUB SWAP1 SWAP2 AND DUP2 MSTORE PUSH1 0x20 ADD PUSH2 0x1D8 JUMP JUMPDEST PUSH2 0x21F PUSH2 0x21A CALLDATASIZE PUSH1 0x4 PUSH2 0x1DBA JUMP JUMPDEST PUSH2 0x530 JUMP JUMPDEST PUSH1 0x40 MLOAD SWAP1 ISZERO ISZERO DUP2 MSTORE PUSH1 0x20 ADD PUSH2 0x1D8 JUMP JUMPDEST PUSH2 0x237 PUSH0 SLOAD DUP2 JUMP JUMPDEST PUSH1 0x40 MLOAD SWAP1 DUP2 MSTORE PUSH1 0x20 ADD PUSH2 0x1D8 JUMP JUMPDEST PUSH2 0x237 PUSH32 0x8CAD95687BA82C2CE50E74F7B754645E5117C3A5BEC8151C0726D5857980A866 DUP2 JUMP JUMPDEST PUSH2 0x21F PUSH2 0x27A CALLDATASIZE PUSH1 0x4 PUSH2 0x1DE2 JUMP JUMPDEST PUSH2 0x5D6 JUMP JUMPDEST PUSH2 0x237 PUSH32 0x6E71EDAE12B1B97F4D1F60370FEF10105FA2FAAE0126114A169C64845D6126C9 DUP2 JUMP JUMPDEST PUSH2 0x237 PUSH1 0x2 SLOAD DUP2 JUMP JUMPDEST PUSH2 0x2B7 PUSH1 0x12 DUP2 JUMP JUMPDEST PUSH1 0x40 MLOAD PUSH1 0xFF SWAP1 SWAP2 AND DUP2 MSTORE PUSH1 0x20 ADD PUSH2 0x1D8 JUMP JUMPDEST PUSH2 0x2DC PUSH2 0x2D7 CALLDATASIZE PUSH1 0x4 PUSH2 0x1DBA JUMP JUMPDEST PUSH2 0x701 JUMP JUMPDEST STOP JUMPDEST PUSH2 0x1F4 PUSH2 0x2EC CALLDATASIZE PUSH1 0x4 PUSH2 0x1E1C JUMP JUMPDEST PUSH1 0x5 PUSH1 0x20 MSTORE PUSH0 SWAP1 DUP2 MSTORE PUSH1 0x40 SWAP1 KECCAK256 SLOAD PUSH1 0x1 PUSH1 0x1 PUSH1 0xA0 SHL SUB AND DUP2 JUMP JUMPDEST PUSH2 0x311 PUSH4 0x1E13380 DUP2 JUMP JUMPDEST PUSH1 0x40 MLOAD PUSH4 0xFFFFFFFF SWAP1 SWAP2 AND DUP2 MSTORE PUSH1 0x20 ADD PUSH2 0x1D8 JUMP JUMPDEST PUSH2 0x2DC PUSH2 0x334 CALLDATASIZE PUSH1 0x4 PUSH2 0x1E1C JUMP JUMPDEST PUSH2 0x9F8 JUMP JUMPDEST PUSH2 0x311 PUSH2 0x347 CALLDATASIZE PUSH1 0x4 PUSH2 0x1E1C JUMP JUMPDEST PUSH1 0x7 PUSH1 0x20 MSTORE PUSH0 SWAP1 DUP2 MSTORE PUSH1 0x40 SWAP1 KECCAK256 SLOAD PUSH4 0xFFFFFFFF AND DUP2 JUMP JUMPDEST PUSH2 0x237 PUSH2 0x36C CALLDATASIZE PUSH1 0x4 PUSH2 0x1E1C JUMP JUMPDEST PUSH1 0x1 PUSH1 0x1 PUSH1 0xA0 SHL SUB AND PUSH0 SWAP1 DUP2 MSTORE PUSH1 0x4 PUSH1 0x20 MSTORE PUSH1 0x40 SWAP1 KECCAK256 SLOAD PUSH1 0x1 PUSH1 0x1 PUSH1 0x60 SHL SUB AND SWAP1 JUMP JUMPDEST PUSH2 0x2B7 PUSH1 0x2 DUP2 JUMP JUMPDEST PUSH2 0x3AA PUSH2 0x3A5 CALLDATASIZE PUSH1 0x4 PUSH2 0x1DBA JUMP JUMPDEST PUSH2 0xA05 JUMP JUMPDEST PUSH1 0x40 MLOAD PUSH1 0x1 PUSH1 0x1 PUSH1 0x60 SHL SUB SWAP1 SWAP2 AND DUP2 MSTORE PUSH1 0x20 ADD PUSH2 0x1D8 JUMP JUMPDEST PUSH2 0x237 PUSH2 0x3D0 CALLDATASIZE PUSH1 0x4 PUSH2 0x1E1C JUMP JUMPDEST PUSH1 0x8 PUSH1 0x20 MSTORE PUSH0 SWAP1 DUP2 MSTORE PUSH1 0x40 SWAP1 KECCAK256 SLOAD DUP2 JUMP JUMPDEST PUSH2 0x1CB PUSH1 0x40 MLOAD DUP1 PUSH1 0x40 ADD PUSH1 0x40 MSTORE DUP1 PUSH1 0x3 DUP2 MSTORE PUSH1 0x20 ADD PUSH3 0x554E49 PUSH1 0xE8 SHL DUP2 MSTORE POP DUP2 JUMP JUMPDEST PUSH2 0x21F PUSH2 0x411 CALLDATASIZE PUSH1 0x4 PUSH2 0x1DBA JUMP JUMPDEST PUSH2 0xC81 JUMP JUMPDEST PUSH2 0x3AA PUSH2 0x424 CALLDATASIZE PUSH1 0x4 PUSH2 0x1E1C JUMP JUMPDEST PUSH2 0xCBC JUMP JUMPDEST PUSH2 0x2DC PUSH2 0x437 CALLDATASIZE PUSH1 0x4 PUSH2 0x1E45 JUMP JUMPDEST PUSH2 0xD36 JUMP JUMPDEST PUSH2 0x2DC PUSH2 0x44A CALLDATASIZE PUSH1 0x4 PUSH2 0x1E99 JUMP JUMPDEST PUSH2 0x1019 JUMP JUMPDEST PUSH2 0x237 PUSH2 0x45D CALLDATASIZE PUSH1 0x4 PUSH2 0x1EFF JUMP JUMPDEST PUSH1 0x1 PUSH1 0x1 PUSH1 0xA0 SHL SUB SWAP2 DUP3 AND PUSH0 SWAP1 DUP2 MSTORE PUSH1 0x3 PUSH1 0x20 SWAP1 DUP2 MSTORE PUSH1 0x40 DUP1 DUP4 KECCAK256 SWAP4 SWAP1 SWAP5 AND DUP3 MSTORE SWAP2 SWAP1 SWAP2 MSTORE KECCAK256 SLOAD PUSH1 0x1 PUSH1 0x1 PUSH1 0x60 SHL SUB AND SWAP1 JUMP JUMPDEST PUSH2 0x237 PUSH32 0xE48329057BFD03D55E49B547132E39CFFD9C1820AD7B9D4C5307691425D15ADF DUP2 JUMP JUMPDEST PUSH2 0x4F9 PUSH2 0x4C5 CALLDATASIZE PUSH1 0x4 PUSH2 0x1F30 JUMP JUMPDEST PUSH1 0x6 PUSH1 0x20 SWAP1 DUP2 MSTORE PUSH0 SWAP3 DUP4 MSTORE PUSH1 0x40 DUP1 DUP5 KECCAK256 SWAP1 SWAP2 MSTORE SWAP1 DUP3 MSTORE SWAP1 KECCAK256 SLOAD PUSH4 0xFFFFFFFF DUP2 AND SWAP1 PUSH1 0x1 PUSH1 0x20 SHL SWAP1 DIV PUSH1 0x1 PUSH1 0x1 PUSH1 0x60 SHL SUB AND DUP3 JUMP JUMPDEST PUSH1 0x40 DUP1 MLOAD PUSH4 0xFFFFFFFF SWAP1 SWAP4 AND DUP4 MSTORE PUSH1 0x1 PUSH1 0x1 PUSH1 0x60 SHL SUB SWAP1 SWAP2 AND PUSH1 0x20 DUP4 ADD MSTORE ADD PUSH2 0x1D8 JUMP JUMPDEST PUSH2 0x2DC PUSH2 0x52B CALLDATASIZE PUSH1 0x4 PUSH2 0x1E1C JUMP JUMPDEST PUSH2 0x13E8 JUMP JUMPDEST PUSH0 DUP1 PUSH2 0x554 DUP4 PUSH1 0x40 MLOAD DUP1 PUSH1 0x60 ADD PUSH1 0x40 MSTORE DUP1 PUSH1 0x24 DUP2 MSTORE PUSH1 0x20 ADD PUSH2 0x222C PUSH1 0x24 SWAP2 CODECOPY PUSH2 0x14D1 JUMP JUMPDEST CALLER PUSH0 DUP2 DUP2 MSTORE PUSH1 0x3 PUSH1 0x20 SWAP1 DUP2 MSTORE PUSH1 0x40 DUP1 DUP4 KECCAK256 PUSH1 0x1 PUSH1 0x1 PUSH1 0xA0 SHL SUB DUP11 AND DUP1 DUP6 MSTORE SWAP1 DUP4 MSTORE SWAP3 DUP2 SWAP1 KECCAK256 DUP1 SLOAD PUSH1 0x1 PUSH1 0x1 PUSH1 0x60 SHL SUB NOT AND PUSH1 0x1 PUSH1 0x1 PUSH1 0x60 SHL SUB DUP8 AND SWAP1 DUP2 OR SWAP1 SWAP2 SSTORE SWAP1 MLOAD SWAP1 DUP2 MSTORE SWAP4 SWAP5 POP SWAP1 SWAP3 PUSH32 0x8C5BE1E5EBEC7D5BD14F71427D1E84F3DD0314C0F7B2291E5B200AC8C7C3B925 SWAP2 ADD PUSH1 0x40 MLOAD DUP1 SWAP2 SUB SWAP1 LOG3 PUSH1 0x1 SWAP2 POP POP JUMPDEST SWAP3 SWAP2 POP POP JUMP JUMPDEST PUSH1 0x1 PUSH1 0x1 PUSH1 0xA0 SHL SUB DUP4 AND PUSH0 SWAP1 DUP2 MSTORE PUSH1 0x3 PUSH1 0x20 SWAP1 DUP2 MSTORE PUSH1 0x40 DUP1 DUP4 KECCAK256 CALLER DUP1 DUP6 MSTORE SWAP1 DUP4 MSTORE DUP2 DUP5 KECCAK256 SLOAD DUP3 MLOAD PUSH1 0x60 DUP2 ADD SWAP1 SWAP4 MSTORE PUSH1 0x24 DUP1 DUP5 MSTORE SWAP2 SWAP4 PUSH1 0x1 PUSH1 0x1 PUSH1 0x60 SHL SUB SWAP1 SWAP2 AND SWAP3 DUP6 SWAP3 PUSH2 0x62D SWAP3 DUP9 SWAP3 SWAP2 SWAP1 PUSH2 0x222C SWAP1 DUP4 ADD CODECOPY PUSH2 0x14D1 JUMP JUMPDEST SWAP1 POP DUP7 PUSH1 0x1 PUSH1 0x1 PUSH1 0xA0 SHL SUB AND DUP4 PUSH1 0x1 PUSH1 0x1 PUSH1 0xA0 SHL SUB AND EQ PUSH2 0x6E9 JUMPI PUSH0 PUSH2 0x66C DUP4 DUP4 PUSH1 0x40 MLOAD DUP1 PUSH1 0x60 ADD PUSH1 0x40 MSTORE DUP1 PUSH1 0x3C DUP2 MSTORE PUSH1 0x20 ADD PUSH2 0x20AC PUSH1 0x3C SWAP2 CODECOPY PUSH2 0x14FF JUMP JUMPDEST PUSH1 0x1 PUSH1 0x1 PUSH1 0xA0 SHL SUB DUP10 DUP2 AND PUSH0 DUP2 DUP2 MSTORE PUSH1 0x3 PUSH1 0x20 SWAP1 DUP2 MSTORE PUSH1 0x40 DUP1 DUP4 KECCAK256 SWAP5 DUP11 AND DUP1 DUP5 MSTORE SWAP5 DUP3 MSTORE SWAP2 DUP3 SWAP1 KECCAK256 DUP1 SLOAD PUSH1 0x1 PUSH1 0x1 PUSH1 0x60 SHL SUB NOT AND PUSH1 0x1 PUSH1 0x1 PUSH1 0x60 SHL SUB DUP8 AND SWAP1 DUP2 OR SWAP1 SWAP2 SSTORE SWAP2 MLOAD SWAP2 DUP3 MSTORE SWAP4 SWAP5 POP SWAP2 SWAP3 SWAP1 SWAP2 PUSH32 0x8C5BE1E5EBEC7D5BD14F71427D1E84F3DD0314C0F7B2291E5B200AC8C7C3B925 SWAP2 ADD PUSH1 0x40 MLOAD DUP1 SWAP2 SUB SWAP1 LOG3 POP JUMPDEST PUSH2 0x6F4 DUP8 DUP8 DUP4 PUSH2 0x1548 JUMP JUMPDEST POP PUSH1 0x1 SWAP7 SWAP6 POP POP POP POP POP POP JUMP JUMPDEST PUSH1 0x1 SLOAD PUSH1 0x1 PUSH1 0x1 PUSH1 0xA0 SHL SUB AND CALLER EQ PUSH2 0x76C JUMPI PUSH1 0x40 MLOAD PUSH3 0x461BCD PUSH1 0xE5 SHL DUP2 MSTORE PUSH1 0x20 PUSH1 0x4 DUP3 ADD MSTORE PUSH1 0x23 PUSH1 0x24 DUP3 ADD MSTORE PUSH32 0x556E693A3A6D696E743A206F6E6C7920746865206D696E7465722063616E206D PUSH1 0x44 DUP3 ADD MSTORE PUSH3 0x1A5B9D PUSH1 0xEA SHL PUSH1 0x64 DUP3 ADD MSTORE PUSH1 0x84 ADD JUMPDEST PUSH1 0x40 MLOAD DUP1 SWAP2 SUB SWAP1 REVERT JUMPDEST PUSH1 0x2 SLOAD TIMESTAMP LT ISZERO PUSH2 0x7C9 JUMPI PUSH1 0x40 MLOAD PUSH3 0x461BCD PUSH1 0xE5 SHL DUP2 MSTORE PUSH1 0x20 PUSH1 0x4 DUP3 ADD MSTORE PUSH1 0x22 PUSH1 0x24 DUP3 ADD MSTORE PUSH32 0x556E693A3A6D696E743A206D696E74696E67206E6F7420616C6C6F7765642079 PUSH1 0x44 DUP3 ADD MSTORE PUSH2 0x195D PUSH1 0xF2 SHL PUSH1 0x64 DUP3 ADD MSTORE PUSH1 0x84 ADD PUSH2 0x763 JUMP JUMPDEST PUSH1 0x1 PUSH1 0x1 PUSH1 0xA0 SHL SUB DUP3 AND PUSH2 0x836 JUMPI PUSH1 0x40 MLOAD PUSH3 0x461BCD PUSH1 0xE5 SHL DUP2 MSTORE PUSH1 0x20 PUSH1 0x4 DUP3 ADD MSTORE PUSH1 0x2E PUSH1 0x24 DUP3 ADD MSTORE PUSH32 0x556E693A3A6D696E743A2063616E6E6F74207472616E7366657220746F207468 PUSH1 0x44 DUP3 ADD MSTORE PUSH14 0x65207A65726F2061646472657373 PUSH1 0x90 SHL PUSH1 0x64 DUP3 ADD MSTORE PUSH1 0x84 ADD PUSH2 0x763 JUMP JUMPDEST PUSH2 0x844 TIMESTAMP PUSH4 0x1E13380 PUSH2 0x1790 JUMP JUMPDEST PUSH1 0x2 DUP2 SWAP1 SSTORE POP PUSH0 PUSH2 0x86D DUP3 PUSH1 0x40 MLOAD DUP1 PUSH1 0x60 ADD PUSH1 0x40 MSTORE DUP1 PUSH1 0x21 DUP2 MSTORE PUSH1 0x20 ADD PUSH2 0x220B PUSH1 0x21 SWAP2 CODECOPY PUSH2 0x14D1 JUMP JUMPDEST SWAP1 POP PUSH2 0x888 PUSH2 0x881 PUSH0 SLOAD PUSH1 0x2 PUSH1 0xFF AND PUSH2 0x17EE JUMP JUMPDEST PUSH1 0x64 PUSH2 0x186C JUMP JUMPDEST DUP2 PUSH1 0x1 PUSH1 0x1 PUSH1 0x60 SHL SUB AND GT ISZERO PUSH2 0x8E0 JUMPI PUSH1 0x40 MLOAD PUSH3 0x461BCD PUSH1 0xE5 SHL DUP2 MSTORE PUSH1 0x20 PUSH1 0x4 DUP3 ADD MSTORE PUSH1 0x1C PUSH1 0x24 DUP3 ADD MSTORE PUSH32 0x556E693A3A6D696E743A206578636565646564206D696E742063617000000000 PUSH1 0x44 DUP3 ADD MSTORE PUSH1 0x64 ADD PUSH2 0x763 JUMP JUMPDEST PUSH2 0x915 PUSH2 0x8F7 PUSH0 SLOAD DUP4 PUSH1 0x1 PUSH1 0x1 PUSH1 0x60 SHL SUB AND PUSH2 0x1790 JUMP JUMPDEST PUSH1 0x40 MLOAD DUP1 PUSH1 0x60 ADD PUSH1 0x40 MSTORE DUP1 PUSH1 0x26 DUP2 MSTORE PUSH1 0x20 ADD PUSH2 0x20E8 PUSH1 0x26 SWAP2 CODECOPY PUSH2 0x14D1 JUMP JUMPDEST PUSH1 0x1 PUSH1 0x1 PUSH1 0x60 SHL SUB SWAP1 DUP2 AND PUSH0 SWAP1 DUP2 SSTORE PUSH1 0x1 PUSH1 0x1 PUSH1 0xA0 SHL SUB DUP6 AND DUP2 MSTORE PUSH1 0x4 PUSH1 0x20 SWAP1 DUP2 MSTORE PUSH1 0x40 SWAP2 DUP3 SWAP1 KECCAK256 SLOAD DUP3 MLOAD PUSH1 0x60 DUP2 ADD SWAP1 SWAP4 MSTORE PUSH1 0x24 DUP1 DUP5 MSTORE PUSH2 0x966 SWAP5 SWAP2 SWAP1 SWAP2 AND SWAP3 DUP6 SWAP3 SWAP1 SWAP2 SWAP1 PUSH2 0x2088 SWAP1 DUP4 ADD CODECOPY PUSH2 0x18AD JUMP JUMPDEST PUSH1 0x1 PUSH1 0x1 PUSH1 0xA0 SHL SUB DUP5 AND PUSH0 DUP2 DUP2 MSTORE PUSH1 0x4 PUSH1 0x20 SWAP1 DUP2 MSTORE PUSH1 0x40 DUP1 DUP4 KECCAK256 DUP1 SLOAD PUSH1 0x1 PUSH1 0x1 PUSH1 0x60 SHL SUB NOT AND PUSH1 0x1 PUSH1 0x1 PUSH1 0x60 SHL SUB SWAP7 DUP8 AND OR SWAP1 SSTORE MLOAD SWAP4 DUP6 AND DUP5 MSTORE SWAP2 SWAP3 SWAP1 SWAP2 PUSH32 0xDDF252AD1BE2C89B69C2B068FC378DAA952BA7F163C4A11628F55A4DF523B3EF SWAP2 ADD PUSH1 0x40 MLOAD DUP1 SWAP2 SUB SWAP1 LOG3 PUSH1 0x1 PUSH1 0x1 PUSH1 0xA0 SHL SUB DUP1 DUP5 AND PUSH0 SWAP1 DUP2 MSTORE PUSH1 0x5 PUSH1 0x20 MSTORE PUSH1 0x40 DUP2 KECCAK256 SLOAD PUSH2 0x9F3 SWAP3 AND DUP4 PUSH2 0x18F9 JUMP JUMPDEST POP POP POP JUMP JUMPDEST PUSH2 0xA02 CALLER DUP3 PUSH2 0x1A9A JUMP JUMPDEST POP JUMP JUMPDEST PUSH0 NUMBER DUP3 LT PUSH2 0xA64 JUMPI PUSH1 0x40 MLOAD PUSH3 0x461BCD PUSH1 0xE5 SHL DUP2 MSTORE PUSH1 0x20 PUSH1 0x4 DUP3 ADD MSTORE PUSH1 0x26 PUSH1 0x24 DUP3 ADD MSTORE PUSH32 0x556E693A3A6765745072696F72566F7465733A206E6F74207965742064657465 PUSH1 0x44 DUP3 ADD MSTORE PUSH6 0x1C9B5A5B9959 PUSH1 0xD2 SHL PUSH1 0x64 DUP3 ADD MSTORE PUSH1 0x84 ADD PUSH2 0x763 JUMP JUMPDEST PUSH1 0x1 PUSH1 0x1 PUSH1 0xA0 SHL SUB DUP4 AND PUSH0 SWAP1 DUP2 MSTORE PUSH1 0x7 PUSH1 0x20 MSTORE PUSH1 0x40 DUP2 KECCAK256 SLOAD PUSH4 0xFFFFFFFF AND SWAP1 DUP2 SWAP1 SUB PUSH2 0xA93 JUMPI PUSH0 SWAP2 POP POP PUSH2 0x5D0 JUMP JUMPDEST PUSH1 0x1 PUSH1 0x1 PUSH1 0xA0 SHL SUB DUP5 AND PUSH0 SWAP1 DUP2 MSTORE PUSH1 0x6 PUSH1 0x20 MSTORE PUSH1 0x40 DUP2 KECCAK256 DUP5 SWAP2 PUSH2 0xAB7 PUSH1 0x1 DUP6 PUSH2 0x1F81 JUMP JUMPDEST PUSH4 0xFFFFFFFF SWAP1 DUP2 AND DUP3 MSTORE PUSH1 0x20 DUP3 ADD SWAP3 SWAP1 SWAP3 MSTORE PUSH1 0x40 ADD PUSH0 KECCAK256 SLOAD AND GT PUSH2 0xB27 JUMPI PUSH1 0x1 PUSH1 0x1 PUSH1 0xA0 SHL SUB DUP5 AND PUSH0 SWAP1 DUP2 MSTORE PUSH1 0x6 PUSH1 0x20 MSTORE PUSH1 0x40 DUP2 KECCAK256 SWAP1 PUSH2 0xAF8 PUSH1 0x1 DUP5 PUSH2 0x1F81 JUMP JUMPDEST PUSH4 0xFFFFFFFF AND DUP2 MSTORE PUSH1 0x20 DUP2 ADD SWAP2 SWAP1 SWAP2 MSTORE PUSH1 0x40 ADD PUSH0 KECCAK256 SLOAD PUSH1 0x1 PUSH1 0x20 SHL SWAP1 DIV PUSH1 0x1 PUSH1 0x1 PUSH1 0x60 SHL SUB AND SWAP2 POP PUSH2 0x5D0 SWAP1 POP JUMP JUMPDEST PUSH1 0x1 PUSH1 0x1 PUSH1 0xA0 SHL SUB DUP5 AND PUSH0 SWAP1 DUP2 MSTORE PUSH1 0x6 PUSH1 0x20 SWAP1 DUP2 MSTORE PUSH1 0x40 DUP1 DUP4 KECCAK256 DUP4 DUP1 MSTORE SWAP1 SWAP2 MSTORE SWAP1 KECCAK256 SLOAD PUSH4 0xFFFFFFFF AND DUP4 LT ISZERO PUSH2 0xB60 JUMPI PUSH0 SWAP2 POP POP PUSH2 0x5D0 JUMP JUMPDEST PUSH0 DUP1 PUSH2 0xB6D PUSH1 0x1 DUP5 PUSH2 0x1F81 JUMP JUMPDEST SWAP1 POP JUMPDEST DUP2 PUSH4 0xFFFFFFFF AND DUP2 PUSH4 0xFFFFFFFF AND GT ISZERO PUSH2 0xC3D JUMPI PUSH0 PUSH1 0x2 PUSH2 0xB91 DUP5 DUP5 PUSH2 0x1F81 JUMP JUMPDEST PUSH2 0xB9B SWAP2 SWAP1 PUSH2 0x1FB1 JUMP JUMPDEST PUSH2 0xBA5 SWAP1 DUP4 PUSH2 0x1F81 JUMP JUMPDEST PUSH1 0x1 PUSH1 0x1 PUSH1 0xA0 SHL SUB DUP9 AND PUSH0 SWAP1 DUP2 MSTORE PUSH1 0x6 PUSH1 0x20 SWAP1 DUP2 MSTORE PUSH1 0x40 DUP1 DUP4 KECCAK256 PUSH4 0xFFFFFFFF DUP6 DUP2 AND DUP6 MSTORE SWAP1 DUP4 MSTORE SWAP3 DUP2 SWAP1 KECCAK256 DUP2 MLOAD DUP1 DUP4 ADD SWAP1 SWAP3 MSTORE SLOAD SWAP3 DUP4 AND DUP1 DUP3 MSTORE PUSH1 0x1 PUSH1 0x20 SHL SWAP1 SWAP4 DIV PUSH1 0x1 PUSH1 0x1 PUSH1 0x60 SHL SUB AND SWAP2 DUP2 ADD SWAP2 SWAP1 SWAP2 MSTORE SWAP2 SWAP3 POP DUP8 SWAP1 SUB PUSH2 0xC11 JUMPI PUSH1 0x20 ADD MLOAD SWAP5 POP PUSH2 0x5D0 SWAP4 POP POP POP POP JUMP JUMPDEST DUP1 MLOAD PUSH4 0xFFFFFFFF AND DUP8 GT ISZERO PUSH2 0xC28 JUMPI DUP2 SWAP4 POP PUSH2 0xC36 JUMP JUMPDEST PUSH2 0xC33 PUSH1 0x1 DUP4 PUSH2 0x1F81 JUMP JUMPDEST SWAP3 POP JUMPDEST POP POP PUSH2 0xB70 JUMP JUMPDEST POP PUSH1 0x1 PUSH1 0x1 PUSH1 0xA0 SHL SUB DUP6 AND PUSH0 SWAP1 DUP2 MSTORE PUSH1 0x6 PUSH1 0x20 SWAP1 DUP2 MSTORE PUSH1 0x40 DUP1 DUP4 KECCAK256 PUSH4 0xFFFFFFFF SWAP1 SWAP5 AND DUP4 MSTORE SWAP3 SWAP1 MSTORE KECCAK256 SLOAD PUSH1 0x1 PUSH1 0x1 PUSH1 0x60 SHL SUB PUSH1 0x1 PUSH1 0x20 SHL SWAP1 SWAP2 DIV AND SWAP2 POP POP SWAP3 SWAP2 POP POP JUMP JUMPDEST PUSH0 DUP1 PUSH2 0xCA5 DUP4 PUSH1 0x40 MLOAD DUP1 PUSH1 0x60 ADD PUSH1 0x40 MSTORE DUP1 PUSH1 0x25 DUP2 MSTORE PUSH1 0x20 ADD PUSH2 0x21E6 PUSH1 0x25 SWAP2 CODECOPY PUSH2 0x14D1 JUMP JUMPDEST SWAP1 POP PUSH2 0xCB2 CALLER DUP6 DUP4 PUSH2 0x1548 JUMP JUMPDEST POP PUSH1 0x1 SWAP4 SWAP3 POP POP POP JUMP JUMPDEST PUSH1 0x1 PUSH1 0x1 PUSH1 0xA0 SHL SUB DUP2 AND PUSH0 SWAP1 DUP2 MSTORE PUSH1 0x7 PUSH1 0x20 MSTORE PUSH1 0x40 DUP2 KECCAK256 SLOAD PUSH4 0xFFFFFFFF AND DUP1 PUSH2 0xCE5 JUMPI PUSH0 PUSH2 0xD2F JUMP JUMPDEST PUSH1 0x1 PUSH1 0x1 PUSH1 0xA0 SHL SUB DUP4 AND PUSH0 SWAP1 DUP2 MSTORE PUSH1 0x6 PUSH1 0x20 MSTORE PUSH1 0x40 DUP2 KECCAK256 SWAP1 PUSH2 0xD08 PUSH1 0x1 DUP5 PUSH2 0x1F81 JUMP JUMPDEST PUSH4 0xFFFFFFFF AND DUP2 MSTORE PUSH1 0x20 DUP2 ADD SWAP2 SWAP1 SWAP2 MSTORE PUSH1 0x40 ADD PUSH0 KECCAK256 SLOAD PUSH1 0x1 PUSH1 0x20 SHL SWAP1 DIV PUSH1 0x1 PUSH1 0x1 PUSH1 0x60 SHL SUB AND JUMPDEST SWAP4 SWAP3 POP POP POP JUMP JUMPDEST PUSH1 0x40 DUP1 MLOAD DUP1 DUP3 ADD DUP3 MSTORE PUSH1 0x7 DUP2 MSTORE PUSH7 0x556E697377617 PUSH1 0xCC SHL PUSH1 0x20 SWAP2 DUP3 ADD MSTORE DUP2 MLOAD PUSH32 0x8CAD95687BA82C2CE50E74F7B754645E5117C3A5BEC8151C0726D5857980A866 DUP2 DUP4 ADD MSTORE PUSH32 0x99C45E8EE5DDE061CED9C812089094FBD28A020E7E37F2851198887E5CA64985 DUP2 DUP5 ADD MSTORE CHAINID PUSH1 0x60 DUP3 ADD MSTORE ADDRESS PUSH1 0x80 DUP1 DUP4 ADD SWAP2 SWAP1 SWAP2 MSTORE DUP4 MLOAD DUP1 DUP4 SUB SWAP1 SWAP2 ADD DUP2 MSTORE PUSH1 0xA0 DUP3 ADD DUP5 MSTORE DUP1 MLOAD SWAP1 DUP4 ADD KECCAK256 PUSH32 0xE48329057BFD03D55E49B547132E39CFFD9C1820AD7B9D4C5307691425D15ADF PUSH1 0xC0 DUP4 ADD MSTORE PUSH1 0x1 PUSH1 0x1 PUSH1 0xA0 SHL SUB DUP11 AND PUSH1 0xE0 DUP4 ADD MSTORE PUSH2 0x100 DUP3 ADD DUP10 SWAP1 MSTORE PUSH2 0x120 DUP1 DUP4 ADD DUP10 SWAP1 MSTORE DUP5 MLOAD DUP1 DUP5 SUB SWAP1 SWAP2 ADD DUP2 MSTORE PUSH2 0x140 DUP4 ADD SWAP1 SWAP5 MSTORE DUP4 MLOAD SWAP4 SWAP1 SWAP3 ADD SWAP3 SWAP1 SWAP3 KECCAK256 PUSH2 0x1901 PUSH1 0xF0 SHL PUSH2 0x160 DUP5 ADD MSTORE PUSH2 0x162 DUP4 ADD DUP3 SWAP1 MSTORE PUSH2 0x182 DUP4 ADD DUP2 SWAP1 MSTORE SWAP1 SWAP2 PUSH0 SWAP1 PUSH2 0x1A2 ADD PUSH1 0x40 DUP1 MLOAD PUSH1 0x1F NOT DUP2 DUP5 SUB ADD DUP2 MSTORE DUP3 DUP3 MSTORE DUP1 MLOAD PUSH1 0x20 SWAP2 DUP3 ADD KECCAK256 PUSH0 DUP1 DUP6 MSTORE SWAP2 DUP5 ADD DUP1 DUP5 MSTORE DUP2 SWAP1 MSTORE PUSH1 0xFF DUP11 AND SWAP3 DUP5 ADD SWAP3 SWAP1 SWAP3 MSTORE PUSH1 0x60 DUP4 ADD DUP9 SWAP1 MSTORE PUSH1 0x80 DUP4 ADD DUP8 SWAP1 MSTORE SWAP1 SWAP3 POP SWAP1 PUSH1 0x1 SWAP1 PUSH1 0xA0 ADD PUSH1 0x20 PUSH1 0x40 MLOAD PUSH1 0x20 DUP2 SUB SWAP1 DUP1 DUP5 SUB SWAP1 DUP6 GAS STATICCALL ISZERO DUP1 ISZERO PUSH2 0xEB4 JUMPI RETURNDATASIZE PUSH0 DUP1 RETURNDATACOPY RETURNDATASIZE PUSH0 REVERT JUMPDEST POP POP PUSH1 0x40 MLOAD PUSH1 0x1F NOT ADD MLOAD SWAP2 POP POP PUSH1 0x1 PUSH1 0x1 PUSH1 0xA0 SHL SUB DUP2 AND PUSH2 0xF25 JUMPI PUSH1 0x40 MLOAD PUSH3 0x461BCD PUSH1 0xE5 SHL DUP2 MSTORE PUSH1 0x20 PUSH1 0x4 DUP3 ADD MSTORE PUSH1 0x25 PUSH1 0x24 DUP3 ADD MSTORE PUSH32 0x556E693A3A64656C656761746542795369673A20696E76616C6964207369676E PUSH1 0x44 DUP3 ADD MSTORE PUSH5 0x6174757265 PUSH1 0xD8 SHL PUSH1 0x64 DUP3 ADD MSTORE PUSH1 0x84 ADD PUSH2 0x763 JUMP JUMPDEST PUSH1 0x1 PUSH1 0x1 PUSH1 0xA0 SHL SUB DUP2 AND PUSH0 SWAP1 DUP2 MSTORE PUSH1 0x8 PUSH1 0x20 MSTORE PUSH1 0x40 DUP2 KECCAK256 DUP1 SLOAD SWAP2 PUSH2 0xF48 DUP4 PUSH2 0x1FD8 JUMP JUMPDEST SWAP2 SWAP1 POP SSTORE DUP10 EQ PUSH2 0xFA4 JUMPI PUSH1 0x40 MLOAD PUSH3 0x461BCD PUSH1 0xE5 SHL DUP2 MSTORE PUSH1 0x20 PUSH1 0x4 DUP3 ADD MSTORE PUSH1 0x21 PUSH1 0x24 DUP3 ADD MSTORE PUSH32 0x556E693A3A64656C656761746542795369673A20696E76616C6964206E6F6E63 PUSH1 0x44 DUP3 ADD MSTORE PUSH1 0x65 PUSH1 0xF8 SHL PUSH1 0x64 DUP3 ADD MSTORE PUSH1 0x84 ADD PUSH2 0x763 JUMP JUMPDEST DUP8 TIMESTAMP GT ISZERO PUSH2 0x1002 JUMPI PUSH1 0x40 MLOAD PUSH3 0x461BCD PUSH1 0xE5 SHL DUP2 MSTORE PUSH1 0x20 PUSH1 0x4 DUP3 ADD MSTORE PUSH1 0x25 PUSH1 0x24 DUP3 ADD MSTORE PUSH32 0x556E693A3A64656C656761746542795369673A207369676E6174757265206578 PUSH1 0x44 DUP3 ADD MSTORE PUSH5 0x1C1A5C9959 PUSH1 0xDA SHL PUSH1 0x64 DUP3 ADD MSTORE PUSH1 0x84 ADD PUSH2 0x763 JUMP JUMPDEST PUSH2 0x100C DUP2 DUP12 PUSH2 0x1A9A JUMP JUMPDEST POP POP POP POP JUMPDEST POP POP POP POP POP POP JUMP JUMPDEST PUSH0 PUSH2 0x103C DUP7 PUSH1 0x40 MLOAD DUP1 PUSH1 0x60 ADD PUSH1 0x40 MSTORE DUP1 PUSH1 0x23 DUP2 MSTORE PUSH1 0x20 ADD PUSH2 0x2143 PUSH1 0x23 SWAP2 CODECOPY PUSH2 0x14D1 JUMP JUMPDEST PUSH1 0x40 DUP1 MLOAD DUP1 DUP3 ADD DUP3 MSTORE PUSH1 0x7 DUP2 MSTORE PUSH7 0x556E697377617 PUSH1 0xCC SHL PUSH1 0x20 SWAP2 DUP3 ADD MSTORE DUP2 MLOAD PUSH32 0x8CAD95687BA82C2CE50E74F7B754645E5117C3A5BEC8151C0726D5857980A866 DUP2 DUP4 ADD MSTORE PUSH32 0x99C45E8EE5DDE061CED9C812089094FBD28A020E7E37F2851198887E5CA64985 DUP2 DUP5 ADD MSTORE CHAINID PUSH1 0x60 DUP3 ADD MSTORE ADDRESS PUSH1 0x80 DUP1 DUP4 ADD SWAP2 SWAP1 SWAP2 MSTORE DUP4 MLOAD DUP1 DUP4 SUB SWAP1 SWAP2 ADD DUP2 MSTORE PUSH1 0xA0 SWAP1 SWAP2 ADD DUP4 MSTORE DUP1 MLOAD SWAP1 DUP3 ADD KECCAK256 PUSH1 0x1 PUSH1 0x1 PUSH1 0xA0 SHL SUB DUP13 AND PUSH0 SWAP1 DUP2 MSTORE PUSH1 0x8 SWAP1 SWAP3 MSTORE SWAP2 DUP2 KECCAK256 DUP1 SLOAD SWAP4 SWAP5 POP SWAP2 SWAP3 SWAP1 SWAP2 PUSH32 0x6E71EDAE12B1B97F4D1F60370FEF10105FA2FAAE0126114A169C64845D6126C9 SWAP2 DUP13 SWAP2 DUP13 SWAP2 DUP13 SWAP2 DUP7 PUSH2 0x111E DUP4 PUSH2 0x1FD8 JUMP JUMPDEST SWAP1 SWAP2 SSTORE POP PUSH1 0x40 DUP1 MLOAD PUSH1 0x20 DUP2 ADD SWAP7 SWAP1 SWAP7 MSTORE PUSH1 0x1 PUSH1 0x1 PUSH1 0xA0 SHL SUB SWAP5 DUP6 AND SWAP1 DUP7 ADD MSTORE SWAP3 SWAP1 SWAP2 AND PUSH1 0x60 DUP5 ADD MSTORE PUSH1 0x80 DUP4 ADD MSTORE PUSH1 0xA0 DUP3 ADD MSTORE PUSH1 0xC0 DUP2 ADD DUP9 SWAP1 MSTORE PUSH1 0xE0 ADD PUSH1 0x40 MLOAD PUSH1 0x20 DUP2 DUP4 SUB SUB DUP2 MSTORE SWAP1 PUSH1 0x40 MSTORE DUP1 MLOAD SWAP1 PUSH1 0x20 ADD KECCAK256 SWAP1 POP PUSH0 DUP3 DUP3 PUSH1 0x40 MLOAD PUSH1 0x20 ADD PUSH2 0x119C SWAP3 SWAP2 SWAP1 PUSH2 0x1901 PUSH1 0xF0 SHL DUP2 MSTORE PUSH1 0x2 DUP2 ADD SWAP3 SWAP1 SWAP3 MSTORE PUSH1 0x22 DUP3 ADD MSTORE PUSH1 0x42 ADD SWAP1 JUMP JUMPDEST PUSH1 0x40 DUP1 MLOAD PUSH1 0x1F NOT DUP2 DUP5 SUB ADD DUP2 MSTORE DUP3 DUP3 MSTORE DUP1 MLOAD PUSH1 0x20 SWAP2 DUP3 ADD KECCAK256 PUSH0 DUP1 DUP6 MSTORE SWAP2 DUP5 ADD DUP1 DUP5 MSTORE DUP2 SWAP1 MSTORE PUSH1 0xFF DUP12 AND SWAP3 DUP5 ADD SWAP3 SWAP1 SWAP3 MSTORE PUSH1 0x60 DUP4 ADD DUP10 SWAP1 MSTORE PUSH1 0x80 DUP4 ADD DUP9 SWAP1 MSTORE SWAP1 SWAP3 POP SWAP1 PUSH1 0x1 SWAP1 PUSH1 0xA0 ADD PUSH1 0x20 PUSH1 0x40 MLOAD PUSH1 0x20 DUP2 SUB SWAP1 DUP1 DUP5 SUB SWAP1 DUP6 GAS STATICCALL ISZERO DUP1 ISZERO PUSH2 0x1204 JUMPI RETURNDATASIZE PUSH0 DUP1 RETURNDATACOPY RETURNDATASIZE PUSH0 REVERT JUMPDEST POP POP PUSH1 0x40 MLOAD PUSH1 0x1F NOT ADD MLOAD SWAP2 POP POP PUSH1 0x1 PUSH1 0x1 PUSH1 0xA0 SHL SUB DUP2 AND PUSH2 0x1267 JUMPI PUSH1 0x40 MLOAD PUSH3 0x461BCD PUSH1 0xE5 SHL DUP2 MSTORE PUSH1 0x20 PUSH1 0x4 DUP3 ADD MSTORE PUSH1 0x1E PUSH1 0x24 DUP3 ADD MSTORE PUSH32 0x556E693A3A7065726D69743A20696E76616C6964207369676E61747572650000 PUSH1 0x44 DUP3 ADD MSTORE PUSH1 0x64 ADD PUSH2 0x763 JUMP JUMPDEST DUP12 PUSH1 0x1 PUSH1 0x1 PUSH1 0xA0 SHL SUB AND DUP2 PUSH1 0x1 PUSH1 0x1 PUSH1 0xA0 SHL SUB AND EQ PUSH2 0x12C8 JUMPI PUSH1 0x40 MLOAD PUSH3 0x461BCD PUSH1 0xE5 SHL DUP2 MSTORE PUSH1 0x20 PUSH1 0x4 DUP3 ADD MSTORE PUSH1 0x19 PUSH1 0x24 DUP3 ADD MSTORE PUSH32 0x556E693A3A7065726D69743A20756E617574686F72697A656400000000000000 PUSH1 0x44 DUP3 ADD MSTORE PUSH1 0x64 ADD PUSH2 0x763 JUMP JUMPDEST DUP9 TIMESTAMP GT ISZERO PUSH2 0x1318 JUMPI PUSH1 0x40 MLOAD PUSH3 0x461BCD PUSH1 0xE5 SHL DUP2 MSTORE PUSH1 0x20 PUSH1 0x4 DUP3 ADD MSTORE PUSH1 0x1E PUSH1 0x24 DUP3 ADD MSTORE PUSH32 0x556E693A3A7065726D69743A207369676E617475726520657870697265640000 PUSH1 0x44 DUP3 ADD MSTORE PUSH1 0x64 ADD PUSH2 0x763 JUMP JUMPDEST DUP5 PUSH1 0x3 PUSH0 DUP15 PUSH1 0x1 PUSH1 0x1 PUSH1 0xA0 SHL SUB AND PUSH1 0x1 PUSH1 0x1 PUSH1 0xA0 SHL SUB AND DUP2 MSTORE PUSH1 0x20 ADD SWAP1 DUP2 MSTORE PUSH1 0x20 ADD PUSH0 KECCAK256 PUSH0 DUP14 PUSH1 0x1 PUSH1 0x1 PUSH1 0xA0 SHL SUB AND PUSH1 0x1 PUSH1 0x1 PUSH1 0xA0 SHL SUB AND DUP2 MSTORE PUSH1 0x20 ADD SWAP1 DUP2 MSTORE PUSH1 0x20 ADD PUSH0 KECCAK256 PUSH0 PUSH2 0x100 EXP DUP2 SLOAD DUP2 PUSH1 0x1 PUSH1 0x1 PUSH1 0x60 SHL SUB MUL NOT AND SWAP1 DUP4 PUSH1 0x1 PUSH1 0x1 PUSH1 0x60 SHL SUB AND MUL OR SWAP1 SSTORE POP DUP11 PUSH1 0x1 PUSH1 0x1 PUSH1 0xA0 SHL SUB AND DUP13 PUSH1 0x1 PUSH1 0x1 PUSH1 0xA0 SHL SUB AND PUSH32 0x8C5BE1E5EBEC7D5BD14F71427D1E84F3DD0314C0F7B2291E5B200AC8C7C3B925 DUP8 PUSH1 0x40 MLOAD PUSH2 0x13D2 SWAP2 SWAP1 PUSH1 0x1 PUSH1 0x1 PUSH1 0x60 SHL SUB SWAP2 SWAP1 SWAP2 AND DUP2 MSTORE PUSH1 0x20 ADD SWAP1 JUMP JUMPDEST PUSH1 0x40 MLOAD DUP1 SWAP2 SUB SWAP1 LOG3 POP POP POP POP POP POP POP POP POP POP POP POP JUMP JUMPDEST PUSH1 0x1 SLOAD PUSH1 0x1 PUSH1 0x1 PUSH1 0xA0 SHL SUB AND CALLER EQ PUSH2 0x1468 JUMPI PUSH1 0x40 MLOAD PUSH3 0x461BCD PUSH1 0xE5 SHL DUP2 MSTORE PUSH1 0x20 PUSH1 0x4 DUP3 ADD MSTORE PUSH1 0x3D PUSH1 0x24 DUP3 ADD MSTORE PUSH32 0x556E693A3A7365744D696E7465723A206F6E6C7920746865206D696E74657220 PUSH1 0x44 DUP3 ADD MSTORE PUSH32 0x63616E206368616E676520746865206D696E7465722061646472657373000000 PUSH1 0x64 DUP3 ADD MSTORE PUSH1 0x84 ADD PUSH2 0x763 JUMP JUMPDEST PUSH1 0x1 SLOAD PUSH1 0x40 DUP1 MLOAD PUSH1 0x1 PUSH1 0x1 PUSH1 0xA0 SHL SUB SWAP3 DUP4 AND DUP2 MSTORE SWAP2 DUP4 AND PUSH1 0x20 DUP4 ADD MSTORE PUSH32 0x3B0007EB941CF645526CBB3A4FDAECDA9D28CE4843167D9263B536A1F1EDC0F6 SWAP2 ADD PUSH1 0x40 MLOAD DUP1 SWAP2 SUB SWAP1 LOG1 PUSH1 0x1 DUP1 SLOAD PUSH1 0x1 PUSH1 0x1 PUSH1 0xA0 SHL SUB NOT AND PUSH1 0x1 PUSH1 0x1 PUSH1 0xA0 SHL SUB SWAP3 SWAP1 SWAP3 AND SWAP2 SWAP1 SWAP2 OR SWAP1 SSTORE JUMP JUMPDEST PUSH0 DUP2 PUSH1 0x1 PUSH1 0x60 SHL DUP5 LT PUSH2 0x14F7 JUMPI PUSH1 0x40 MLOAD PUSH3 0x461BCD PUSH1 0xE5 SHL DUP2 MSTORE PUSH1 0x4 ADD PUSH2 0x763 SWAP2 SWAP1 PUSH2 0x1D6A JUMP JUMPDEST POP SWAP2 SWAP3 SWAP2 POP POP JUMP JUMPDEST PUSH0 DUP4 PUSH1 0x1 PUSH1 0x1 PUSH1 0x60 SHL SUB AND DUP4 PUSH1 0x1 PUSH1 0x1 PUSH1 0x60 SHL SUB AND GT ISZERO DUP3 SWAP1 PUSH2 0x1535 JUMPI PUSH1 0x40 MLOAD PUSH3 0x461BCD PUSH1 0xE5 SHL DUP2 MSTORE PUSH1 0x4 ADD PUSH2 0x763 SWAP2 SWAP1 PUSH2 0x1D6A JUMP JUMPDEST POP PUSH2 0x1540 DUP4 DUP6 PUSH2 0x1FF0 JUMP JUMPDEST SWAP5 SWAP4 POP POP POP POP JUMP JUMPDEST PUSH1 0x1 PUSH1 0x1 PUSH1 0xA0 SHL SUB DUP4 AND PUSH2 0x15C4 JUMPI PUSH1 0x40 MLOAD PUSH3 0x461BCD PUSH1 0xE5 SHL DUP2 MSTORE PUSH1 0x20 PUSH1 0x4 DUP3 ADD MSTORE PUSH1 0x3B PUSH1 0x24 DUP3 ADD MSTORE PUSH32 0x556E693A3A5F7472616E73666572546F6B656E733A2063616E6E6F7420747261 PUSH1 0x44 DUP3 ADD MSTORE PUSH32 0x6E736665722066726F6D20746865207A65726F20616464726573730000000000 PUSH1 0x64 DUP3 ADD MSTORE PUSH1 0x84 ADD PUSH2 0x763 JUMP JUMPDEST PUSH1 0x1 PUSH1 0x1 PUSH1 0xA0 SHL SUB DUP3 AND PUSH2 0x1640 JUMPI PUSH1 0x40 MLOAD PUSH3 0x461BCD PUSH1 0xE5 SHL DUP2 MSTORE PUSH1 0x20 PUSH1 0x4 DUP3 ADD MSTORE PUSH1 0x39 PUSH1 0x24 DUP3 ADD MSTORE PUSH32 0x556E693A3A5F7472616E73666572546F6B656E733A2063616E6E6F7420747261 PUSH1 0x44 DUP3 ADD MSTORE PUSH32 0x6E7366657220746F20746865207A65726F206164647265737300000000000000 PUSH1 0x64 DUP3 ADD MSTORE PUSH1 0x84 ADD PUSH2 0x763 JUMP JUMPDEST PUSH1 0x1 PUSH1 0x1 PUSH1 0xA0 SHL SUB DUP4 AND PUSH0 SWAP1 DUP2 MSTORE PUSH1 0x4 PUSH1 0x20 SWAP1 DUP2 MSTORE PUSH1 0x40 SWAP2 DUP3 SWAP1 KECCAK256 SLOAD DUP3 MLOAD PUSH1 0x60 DUP2 ADD SWAP1 SWAP4 MSTORE PUSH1 0x35 DUP1 DUP5 MSTORE PUSH2 0x168A SWAP4 PUSH1 0x1 PUSH1 0x1 PUSH1 0x60 SHL SUB SWAP1 SWAP3 AND SWAP3 DUP6 SWAP3 SWAP2 SWAP1 PUSH2 0x210E SWAP1 DUP4 ADD CODECOPY PUSH2 0x14FF JUMP JUMPDEST PUSH1 0x1 PUSH1 0x1 PUSH1 0xA0 SHL SUB DUP5 DUP2 AND PUSH0 SWAP1 DUP2 MSTORE PUSH1 0x4 PUSH1 0x20 SWAP1 DUP2 MSTORE PUSH1 0x40 DUP1 DUP4 KECCAK256 DUP1 SLOAD PUSH1 0x1 PUSH1 0x1 PUSH1 0x60 SHL SUB NOT AND PUSH1 0x1 PUSH1 0x1 PUSH1 0x60 SHL SUB SWAP7 DUP8 AND OR SWAP1 SSTORE SWAP3 DUP7 AND DUP3 MSTORE SWAP1 DUP3 SWAP1 KECCAK256 SLOAD DUP3 MLOAD PUSH1 0x60 DUP2 ADD SWAP1 SWAP4 MSTORE PUSH1 0x2F DUP1 DUP5 MSTORE PUSH2 0x16F1 SWAP5 SWAP2 SWAP1 SWAP2 AND SWAP3 DUP6 SWAP3 SWAP1 SWAP2 SWAP1 PUSH2 0x2250 SWAP1 DUP4 ADD CODECOPY PUSH2 0x18AD JUMP JUMPDEST PUSH1 0x1 PUSH1 0x1 PUSH1 0xA0 SHL SUB DUP4 DUP2 AND PUSH0 DUP2 DUP2 MSTORE PUSH1 0x4 PUSH1 0x20 SWAP1 DUP2 MSTORE PUSH1 0x40 SWAP2 DUP3 SWAP1 KECCAK256 DUP1 SLOAD PUSH1 0x1 PUSH1 0x1 PUSH1 0x60 SHL SUB NOT AND PUSH1 0x1 PUSH1 0x1 PUSH1 0x60 SHL SUB SWAP7 DUP8 AND OR SWAP1 SSTORE SWAP1 MLOAD SWAP4 DUP6 AND DUP5 MSTORE SWAP1 SWAP3 SWAP2 DUP7 AND SWAP2 PUSH32 0xDDF252AD1BE2C89B69C2B068FC378DAA952BA7F163C4A11628F55A4DF523B3EF SWAP2 ADD PUSH1 0x40 MLOAD DUP1 SWAP2 SUB SWAP1 LOG3 PUSH1 0x1 PUSH1 0x1 PUSH1 0xA0 SHL SUB DUP1 DUP5 AND PUSH0 SWAP1 DUP2 MSTORE PUSH1 0x5 PUSH1 0x20 MSTORE PUSH1 0x40 DUP1 DUP3 KECCAK256 SLOAD DUP6 DUP5 AND DUP4 MSTORE SWAP2 KECCAK256 SLOAD PUSH2 0x9F3 SWAP3 SWAP2 DUP3 AND SWAP2 AND DUP4 PUSH2 0x18F9 JUMP JUMPDEST PUSH0 DUP1 PUSH2 0x179C DUP4 DUP6 PUSH2 0x200F JUMP JUMPDEST SWAP1 POP DUP4 DUP2 LT ISZERO PUSH2 0xD2F JUMPI PUSH1 0x40 MLOAD PUSH3 0x461BCD PUSH1 0xE5 SHL DUP2 MSTORE PUSH1 0x20 PUSH1 0x4 DUP3 ADD MSTORE PUSH1 0x1B PUSH1 0x24 DUP3 ADD MSTORE PUSH32 0x536166654D6174683A206164646974696F6E206F766572666C6F770000000000 PUSH1 0x44 DUP3 ADD MSTORE PUSH1 0x64 ADD PUSH2 0x763 JUMP JUMPDEST PUSH0 DUP3 PUSH0 SUB PUSH2 0x17FD JUMPI POP PUSH0 PUSH2 0x5D0 JUMP JUMPDEST PUSH0 PUSH2 0x1808 DUP4 DUP6 PUSH2 0x2022 JUMP JUMPDEST SWAP1 POP DUP3 PUSH2 0x1815 DUP6 DUP4 PUSH2 0x2039 JUMP JUMPDEST EQ PUSH2 0xD2F JUMPI PUSH1 0x40 MLOAD PUSH3 0x461BCD PUSH1 0xE5 SHL DUP2 MSTORE PUSH1 0x20 PUSH1 0x4 DUP3 ADD MSTORE PUSH1 0x21 PUSH1 0x24 DUP3 ADD MSTORE PUSH32 0x536166654D6174683A206D756C7469706C69636174696F6E206F766572666C6F PUSH1 0x44 DUP3 ADD MSTORE PUSH1 0x77 PUSH1 0xF8 SHL PUSH1 0x64 DUP3 ADD MSTORE PUSH1 0x84 ADD PUSH2 0x763 JUMP JUMPDEST PUSH0 PUSH2 0xD2F DUP4 DUP4 PUSH1 0x40 MLOAD DUP1 PUSH1 0x40 ADD PUSH1 0x40 MSTORE DUP1 PUSH1 0x1A DUP2 MSTORE PUSH1 0x20 ADD PUSH32 0x536166654D6174683A206469766973696F6E206279207A65726F000000000000 DUP2 MSTORE POP PUSH2 0x1B23 JUMP JUMPDEST PUSH0 DUP1 PUSH2 0x18B9 DUP5 DUP7 PUSH2 0x204C JUMP JUMPDEST SWAP1 POP DUP5 PUSH1 0x1 PUSH1 0x1 PUSH1 0x60 SHL SUB AND DUP2 PUSH1 0x1 PUSH1 0x1 PUSH1 0x60 SHL SUB AND LT ISZERO DUP4 SWAP1 PUSH2 0x18F0 JUMPI PUSH1 0x40 MLOAD PUSH3 0x461BCD PUSH1 0xE5 SHL DUP2 MSTORE PUSH1 0x4 ADD PUSH2 0x763 SWAP2 SWAP1 PUSH2 0x1D6A JUMP JUMPDEST POP SWAP5 SWAP4 POP POP POP POP JUMP JUMPDEST DUP2 PUSH1 0x1 PUSH1 0x1 PUSH1 0xA0 SHL SUB AND DUP4 PUSH1 0x1 PUSH1 0x1 PUSH1 0xA0 SHL SUB AND EQ ISZERO DUP1 ISZERO PUSH2 0x1923 JUMPI POP PUSH0 DUP2 PUSH1 0x1 PUSH1 0x1 PUSH1 0x60 SHL SUB AND GT JUMPDEST ISZERO PUSH2 0x9F3 JUMPI PUSH1 0x1 PUSH1 0x1 PUSH1 0xA0 SHL SUB DUP4 AND ISZERO PUSH2 0x19E3 JUMPI PUSH1 0x1 PUSH1 0x1 PUSH1 0xA0 SHL SUB DUP4 AND PUSH0 SWAP1 DUP2 MSTORE PUSH1 0x7 PUSH1 0x20 MSTORE PUSH1 0x40 DUP2 KECCAK256 SLOAD PUSH4 0xFFFFFFFF AND SWAP1 DUP2 PUSH2 0x1961 JUMPI PUSH0 PUSH2 0x19AB JUMP JUMPDEST PUSH1 0x1 PUSH1 0x1 PUSH1 0xA0 SHL SUB DUP6 AND PUSH0 SWAP1 DUP2 MSTORE PUSH1 0x6 PUSH1 0x20 MSTORE PUSH1 0x40 DUP2 KECCAK256 SWAP1 PUSH2 0x1984 PUSH1 0x1 DUP6 PUSH2 0x1F81 JUMP JUMPDEST PUSH4 0xFFFFFFFF AND DUP2 MSTORE PUSH1 0x20 DUP2 ADD SWAP2 SWAP1 SWAP2 MSTORE PUSH1 0x40 ADD PUSH0 KECCAK256 SLOAD PUSH1 0x1 PUSH1 0x20 SHL SWAP1 DIV PUSH1 0x1 PUSH1 0x1 PUSH1 0x60 SHL SUB AND JUMPDEST SWAP1 POP PUSH0 PUSH2 0x19D1 DUP3 DUP6 PUSH1 0x40 MLOAD DUP1 PUSH1 0x60 ADD PUSH1 0x40 MSTORE DUP1 PUSH1 0x27 DUP2 MSTORE PUSH1 0x20 ADD PUSH2 0x21BF PUSH1 0x27 SWAP2 CODECOPY PUSH2 0x14FF JUMP JUMPDEST SWAP1 POP PUSH2 0x19DF DUP7 DUP5 DUP5 DUP5 PUSH2 0x1B58 JUMP JUMPDEST POP POP POP JUMPDEST PUSH1 0x1 PUSH1 0x1 PUSH1 0xA0 SHL SUB DUP3 AND ISZERO PUSH2 0x9F3 JUMPI PUSH1 0x1 PUSH1 0x1 PUSH1 0xA0 SHL SUB DUP3 AND PUSH0 SWAP1 DUP2 MSTORE PUSH1 0x7 PUSH1 0x20 MSTORE PUSH1 0x40 DUP2 KECCAK256 SLOAD PUSH4 0xFFFFFFFF AND SWAP1 DUP2 PUSH2 0x1A1C JUMPI PUSH0 PUSH2 0x1A66 JUMP JUMPDEST PUSH1 0x1 PUSH1 0x1 PUSH1 0xA0 SHL SUB DUP5 AND PUSH0 SWAP1 DUP2 MSTORE PUSH1 0x6 PUSH1 0x20 MSTORE PUSH1 0x40 DUP2 KECCAK256 SWAP1 PUSH2 0x1A3F PUSH1 0x1 DUP6 PUSH2 0x1F81 JUMP JUMPDEST PUSH4 0xFFFFFFFF AND DUP2 MSTORE PUSH1 0x20 DUP2 ADD SWAP2 SWAP1 SWAP2 MSTORE PUSH1 0x40 ADD PUSH0 KECCAK256 SLOAD PUSH1 0x1 PUSH1 0x20 SHL SWAP1 DIV PUSH1 0x1 PUSH1 0x1 PUSH1 0x60 SHL SUB AND JUMPDEST SWAP1 POP PUSH0 PUSH2 0x1A8C DUP3 DUP6 PUSH1 0x40 MLOAD DUP1 PUSH1 0x60 ADD PUSH1 0x40 MSTORE DUP1 PUSH1 0x26 DUP2 MSTORE PUSH1 0x20 ADD PUSH2 0x2166 PUSH1 0x26 SWAP2 CODECOPY PUSH2 0x18AD JUMP JUMPDEST SWAP1 POP PUSH2 0x1011 DUP6 DUP5 DUP5 DUP5 PUSH2 0x1B58 JUMP JUMPDEST PUSH1 0x1 PUSH1 0x1 PUSH1 0xA0 SHL SUB DUP1 DUP4 AND PUSH0 DUP2 DUP2 MSTORE PUSH1 0x5 PUSH1 0x20 DUP2 DUP2 MSTORE PUSH1 0x40 DUP1 DUP5 KECCAK256 DUP1 SLOAD PUSH1 0x4 DUP5 MSTORE DUP3 DUP7 KECCAK256 SLOAD SWAP5 SWAP1 SWAP4 MSTORE DUP8 DUP8 AND PUSH1 0x1 PUSH1 0x1 PUSH1 0xA0 SHL SUB NOT DUP5 AND DUP2 OR SWAP1 SWAP2 SSTORE SWAP1 MLOAD SWAP2 SWAP1 SWAP6 AND SWAP5 PUSH1 0x1 PUSH1 0x1 PUSH1 0x60 SHL SUB SWAP1 SWAP3 AND SWAP4 SWAP2 SWAP3 DUP6 SWAP3 SWAP2 PUSH32 0x3134E8A2E6D97E929A7E54011EA5485D7D196DD5F0BA4D4EF95803E8E3FC257F SWAP2 SWAP1 LOG4 PUSH2 0x1B1D DUP3 DUP5 DUP4 PUSH2 0x18F9 JUMP JUMPDEST POP POP POP POP JUMP JUMPDEST PUSH0 DUP2 DUP4 PUSH2 0x1B43 JUMPI PUSH1 0x40 MLOAD PUSH3 0x461BCD PUSH1 0xE5 SHL DUP2 MSTORE PUSH1 0x4 ADD PUSH2 0x763 SWAP2 SWAP1 PUSH2 0x1D6A JUMP JUMPDEST POP PUSH0 PUSH2 0x1B4F DUP5 DUP7 PUSH2 0x2039 JUMP JUMPDEST SWAP6 SWAP5 POP POP POP POP POP JUMP JUMPDEST PUSH0 PUSH2 0x1B7B NUMBER PUSH1 0x40 MLOAD DUP1 PUSH1 0x60 ADD PUSH1 0x40 MSTORE DUP1 PUSH1 0x33 DUP2 MSTORE PUSH1 0x20 ADD PUSH2 0x218C PUSH1 0x33 SWAP2 CODECOPY PUSH2 0x1D48 JUMP JUMPDEST SWAP1 POP PUSH0 DUP5 PUSH4 0xFFFFFFFF AND GT DUP1 ISZERO PUSH2 0x1BD2 JUMPI POP PUSH1 0x1 PUSH1 0x1 PUSH1 0xA0 SHL SUB DUP6 AND PUSH0 SWAP1 DUP2 MSTORE PUSH1 0x6 PUSH1 0x20 MSTORE PUSH1 0x40 DUP2 KECCAK256 PUSH4 0xFFFFFFFF DUP4 AND SWAP2 PUSH2 0x1BB7 PUSH1 0x1 DUP9 PUSH2 0x1F81 JUMP JUMPDEST PUSH4 0xFFFFFFFF SWAP1 DUP2 AND DUP3 MSTORE PUSH1 0x20 DUP3 ADD SWAP3 SWAP1 SWAP3 MSTORE PUSH1 0x40 ADD PUSH0 KECCAK256 SLOAD AND EQ JUMPDEST ISZERO PUSH2 0x1C44 JUMPI PUSH1 0x1 PUSH1 0x1 PUSH1 0xA0 SHL SUB DUP6 AND PUSH0 SWAP1 DUP2 MSTORE PUSH1 0x6 PUSH1 0x20 MSTORE PUSH1 0x40 DUP2 KECCAK256 DUP4 SWAP2 PUSH2 0x1BFB PUSH1 0x1 DUP9 PUSH2 0x1F81 JUMP JUMPDEST PUSH4 0xFFFFFFFF AND DUP2 MSTORE PUSH1 0x20 DUP2 ADD SWAP2 SWAP1 SWAP2 MSTORE PUSH1 0x40 ADD PUSH0 KECCAK256 DUP1 SLOAD PUSH1 0x1 PUSH1 0x1 PUSH1 0x60 SHL SUB SWAP3 SWAP1 SWAP3 AND PUSH1 0x1 PUSH1 0x20 SHL MUL PUSH16 0xFFFFFFFFFFFFFFFFFFFFFFFF00000000 NOT SWAP1 SWAP3 AND SWAP2 SWAP1 SWAP2 OR SWAP1 SSTORE PUSH2 0x1CF3 JUMP JUMPDEST PUSH1 0x40 DUP1 MLOAD DUP1 DUP3 ADD DUP3 MSTORE PUSH4 0xFFFFFFFF DUP1 DUP5 AND DUP3 MSTORE PUSH1 0x1 PUSH1 0x1 PUSH1 0x60 SHL SUB DUP1 DUP7 AND PUSH1 0x20 DUP1 DUP6 ADD SWAP2 DUP3 MSTORE PUSH1 0x1 PUSH1 0x1 PUSH1 0xA0 SHL SUB DUP12 AND PUSH0 SWAP1 DUP2 MSTORE PUSH1 0x6 DUP3 MSTORE DUP7 DUP2 KECCAK256 DUP12 DUP7 AND DUP3 MSTORE SWAP1 SWAP2 MSTORE SWAP5 SWAP1 SWAP5 KECCAK256 SWAP3 MLOAD DUP4 SLOAD SWAP5 MLOAD SWAP1 SWAP2 AND PUSH1 0x1 PUSH1 0x20 SHL MUL PUSH16 0xFFFFFFFFFFFFFFFFFFFFFFFFFFFFFFFF NOT SWAP1 SWAP5 AND SWAP2 AND OR SWAP2 SWAP1 SWAP2 OR SWAP1 SSTORE PUSH2 0x1CC3 DUP5 PUSH1 0x1 PUSH2 0x206B JUMP JUMPDEST PUSH1 0x1 PUSH1 0x1 PUSH1 0xA0 SHL SUB DUP7 AND PUSH0 SWAP1 DUP2 MSTORE PUSH1 0x7 PUSH1 0x20 MSTORE PUSH1 0x40 SWAP1 KECCAK256 DUP1 SLOAD PUSH4 0xFFFFFFFF NOT AND PUSH4 0xFFFFFFFF SWAP3 SWAP1 SWAP3 AND SWAP2 SWAP1 SWAP2 OR SWAP1 SSTORE JUMPDEST PUSH1 0x40 DUP1 MLOAD PUSH1 0x1 PUSH1 0x1 PUSH1 0x60 SHL SUB DUP1 DUP7 AND DUP3 MSTORE DUP5 AND PUSH1 0x20 DUP3 ADD MSTORE PUSH1 0x1 PUSH1 0x1 PUSH1 0xA0 SHL SUB DUP8 AND SWAP2 PUSH32 0xDEC2BACDD2F05B59DE34DA9B523DFF8BE42E5E38E818C82FDB0BAE774387A724 SWAP2 ADD PUSH1 0x40 MLOAD DUP1 SWAP2 SUB SWAP1 LOG2 POP POP POP POP POP JUMP JUMPDEST PUSH0 DUP2 PUSH1 0x1 PUSH1 0x20 SHL DUP5 LT PUSH2 0x14F7 JUMPI PUSH1 0x40 MLOAD PUSH3 0x461BCD PUSH1 0xE5 SHL DUP2 MSTORE PUSH1 0x4 ADD PUSH2 0x763 SWAP2 SWAP1 JUMPDEST PUSH1 0x20 DUP2 MSTORE PUSH0 DUP3 MLOAD DUP1 PUSH1 0x20 DUP5 ADD MSTORE DUP1 PUSH1 0x20 DUP6 ADD PUSH1 0x40 DUP6 ADD MCOPY PUSH0 PUSH1 0x40 DUP3 DUP6 ADD ADD MSTORE PUSH1 0x40 PUSH1 0x1F NOT PUSH1 0x1F DUP4 ADD AND DUP5 ADD ADD SWAP2 POP POP SWAP3 SWAP2 POP POP JUMP JUMPDEST DUP1 CALLDATALOAD PUSH1 0x1 PUSH1 0x1 PUSH1 0xA0 SHL SUB DUP2 AND DUP2 EQ PUSH2 0x1DB5 JUMPI PUSH0 DUP1 REVERT JUMPDEST SWAP2 SWAP1 POP JUMP JUMPDEST PUSH0 DUP1 PUSH1 0x40 DUP4 DUP6 SUB SLT ISZERO PUSH2 0x1DCB JUMPI PUSH0 DUP1 REVERT JUMPDEST PUSH2 0x1DD4 DUP4 PUSH2 0x1D9F JUMP JUMPDEST SWAP5 PUSH1 0x20 SWAP4 SWAP1 SWAP4 ADD CALLDATALOAD SWAP4 POP POP POP JUMP JUMPDEST PUSH0 DUP1 PUSH0 PUSH1 0x60 DUP5 DUP7 SUB SLT ISZERO PUSH2 0x1DF4 JUMPI PUSH0 DUP1 REVERT JUMPDEST PUSH2 0x1DFD DUP5 PUSH2 0x1D9F JUMP JUMPDEST SWAP3 POP PUSH2 0x1E0B PUSH1 0x20 DUP6 ADD PUSH2 0x1D9F JUMP JUMPDEST SWAP3 SWAP6 SWAP3 SWAP5 POP POP POP PUSH1 0x40 SWAP2 SWAP1 SWAP2 ADD CALLDATALOAD SWAP1 JUMP JUMPDEST PUSH0 PUSH1 0x20 DUP3 DUP5 SUB SLT ISZERO PUSH2 0x1E2C JUMPI PUSH0 DUP1 REVERT JUMPDEST PUSH2 0xD2F DUP3 PUSH2 0x1D9F JUMP JUMPDEST DUP1 CALLDATALOAD PUSH1 0xFF DUP2 AND DUP2 EQ PUSH2 0x1DB5 JUMPI PUSH0 DUP1 REVERT JUMPDEST PUSH0 DUP1 PUSH0 DUP1 PUSH0 DUP1 PUSH1 0xC0 DUP8 DUP10 SUB SLT ISZERO PUSH2 0x1E5A JUMPI PUSH0 DUP1 REVERT JUMPDEST PUSH2 0x1E63 DUP8 PUSH2 0x1D9F JUMP JUMPDEST SWAP6 POP PUSH1 0x20 DUP8 ADD CALLDATALOAD SWAP5 POP PUSH1 0x40 DUP8 ADD CALLDATALOAD SWAP4 POP PUSH2 0x1E7F PUSH1 0x60 DUP9 ADD PUSH2 0x1E35 JUMP JUMPDEST SWAP6 SWAP9 SWAP5 SWAP8 POP SWAP3 SWAP6 PUSH1 0x80 DUP2 ADD CALLDATALOAD SWAP5 PUSH1 0xA0 SWAP1 SWAP2 ADD CALLDATALOAD SWAP4 POP SWAP2 POP POP JUMP JUMPDEST PUSH0 DUP1 PUSH0 DUP1 PUSH0 DUP1 PUSH0 PUSH1 0xE0 DUP9 DUP11 SUB SLT ISZERO PUSH2 0x1EAF JUMPI PUSH0 DUP1 REVERT JUMPDEST PUSH2 0x1EB8 DUP9 PUSH2 0x1D9F JUMP JUMPDEST SWAP7 POP PUSH2 0x1EC6 PUSH1 0x20 DUP10 ADD PUSH2 0x1D9F JUMP JUMPDEST SWAP6 POP PUSH1 0x40 DUP9 ADD CALLDATALOAD SWAP5 POP PUSH1 0x60 DUP9 ADD CALLDATALOAD SWAP4 POP PUSH2 0x1EE2 PUSH1 0x80 DUP10 ADD PUSH2 0x1E35 JUMP JUMPDEST SWAP7 SWAP10 SWAP6 SWAP9 POP SWAP4 SWAP7 SWAP3 SWAP6 SWAP5 PUSH1 0xA0 DUP5 ADD CALLDATALOAD SWAP5 POP PUSH1 0xC0 SWAP1 SWAP4 ADD CALLDATALOAD SWAP3 SWAP2 POP POP JUMP JUMPDEST PUSH0 DUP1 PUSH1 0x40 DUP4 DUP6 SUB SLT ISZERO PUSH2 0x1F10 JUMPI PUSH0 DUP1 REVERT JUMPDEST PUSH2 0x1F19 DUP4 PUSH2 0x1D9F JUMP JUMPDEST SWAP2 POP PUSH2 0x1F27 PUSH1 0x20 DUP5 ADD PUSH2 0x1D9F JUMP JUMPDEST SWAP1 POP SWAP3 POP SWAP3 SWAP1 POP JUMP JUMPDEST PUSH0 DUP1 PUSH1 0x40 DUP4 DUP6 SUB SLT ISZERO PUSH2 0x1F41 JUMPI PUSH0 DUP1 REVERT JUMPDEST PUSH2 0x1F4A DUP4 PUSH2 0x1D9F JUMP JUMPDEST SWAP2 POP PUSH1 0x20 DUP4 ADD CALLDATALOAD PUSH4 0xFFFFFFFF DUP2 AND DUP2 EQ PUSH2 0x1F62 JUMPI PUSH0 DUP1 REVERT JUMPDEST DUP1 SWAP2 POP POP SWAP3 POP SWAP3 SWAP1 POP JUMP JUMPDEST PUSH4 0x4E487B71 PUSH1 0xE0 SHL PUSH0 MSTORE PUSH1 0x11 PUSH1 0x4 MSTORE PUSH1 0x24 PUSH0 REVERT JUMPDEST PUSH4 0xFFFFFFFF DUP3 DUP2 AND DUP3 DUP3 AND SUB SWAP1 DUP2 GT ISZERO PUSH2 0x5D0 JUMPI PUSH2 0x5D0 PUSH2 0x1F6D JUMP JUMPDEST PUSH4 0x4E487B71 PUSH1 0xE0 SHL PUSH0 MSTORE PUSH1 0x12 PUSH1 0x4 MSTORE PUSH1 0x24 PUSH0 REVERT JUMPDEST PUSH0 PUSH4 0xFFFFFFFF DUP4 AND DUP1 PUSH2 0x1FC6 JUMPI PUSH2 0x1FC6 PUSH2 0x1F9D JUMP JUMPDEST DUP1 PUSH4 0xFFFFFFFF DUP5 AND DIV SWAP2 POP POP SWAP3 SWAP2 POP POP JUMP JUMPDEST PUSH0 PUSH1 0x1 DUP3 ADD PUSH2 0x1FE9 JUMPI PUSH2 0x1FE9 PUSH2 0x1F6D JUMP JUMPDEST POP PUSH1 0x1 ADD SWAP1 JUMP JUMPDEST PUSH1 0x1 PUSH1 0x1 PUSH1 0x60 SHL SUB DUP3 DUP2 AND DUP3 DUP3 AND SUB SWAP1 DUP2 GT ISZERO PUSH2 0x5D0 JUMPI PUSH2 0x5D0 PUSH2 0x1F6D JUMP JUMPDEST DUP1 DUP3 ADD DUP1 DUP3 GT ISZERO PUSH2 0x5D0 JUMPI PUSH2 0x5D0 PUSH2 0x1F6D JUMP JUMPDEST DUP1 DUP3 MUL DUP2 ISZERO DUP3 DUP3 DIV DUP5 EQ OR PUSH2 0x5D0 JUMPI PUSH2 0x5D0 PUSH2 0x1F6D JUMP JUMPDEST PUSH0 DUP3 PUSH2 0x2047 JUMPI PUSH2 0x2047 PUSH2 0x1F9D JUMP JUMPDEST POP DIV SWAP1 JUMP JUMPDEST PUSH1 0x1 PUSH1 0x1 PUSH1 0x60 SHL SUB DUP2 DUP2 AND DUP4 DUP3 AND ADD SWAP1 DUP2 GT ISZERO PUSH2 0x5D0 JUMPI PUSH2 0x5D0 PUSH2 0x1F6D JUMP JUMPDEST PUSH4 0xFFFFFFFF DUP2 DUP2 AND DUP4 DUP3 AND ADD SWAP1 DUP2 GT ISZERO PUSH2 0x5D0 JUMPI PUSH2 0x5D0 PUSH2 0x1F6D JUMP INVALID SSTORE PUSH15 0x693A3A6D696E743A207472616E7366 PUSH6 0x7220616D6F75 PUSH15 0x74206F766572666C6F7773556E693A GASPRICE PUSH21 0x72616E7366657246726F6D3A207472616E73666572 KECCAK256 PUSH2 0x6D6F PUSH22 0x6E742065786365656473207370656E64657220616C6C PUSH16 0x77616E6365556E693A3A6D696E743A20 PUSH21 0x6F74616C537570706C792065786365656473203936 KECCAK256 PUSH3 0x697473 SSTORE PUSH15 0x693A3A5F7472616E73666572546F6B PUSH6 0x6E733A207472 PUSH2 0x6E73 PUSH7 0x657220616D6F75 PUSH15 0x7420657863656564732062616C616E PUSH4 0x65556E69 GASPRICE GASPRICE PUSH17 0x65726D69743A20616D6F756E7420657863 PUSH6 0x656473203936 KECCAK256 PUSH3 0x697473 SSTORE PUSH15 0x693A3A5F6D6F7665566F7465733A20 PUSH23 0x6F746520616D6F756E74206F766572666C6F7773556E69 GASPRICE GASPRICE PUSH0 PUSH24 0x72697465436865636B706F696E743A20626C6F636B206E75 PUSH14 0x6265722065786365656473203332 KECCAK256 PUSH3 0x697473 SSTORE PUSH15 0x693A3A5F6D6F7665566F7465733A20 PUSH23 0x6F746520616D6F756E7420756E646572666C6F7773556E PUSH10 0x3A3A7472616E73666572 GASPRICE KECCAK256 PUSH2 0x6D6F PUSH22 0x6E7420657863656564732039362062697473556E693A GASPRICE PUSH14 0x696E743A20616D6F756E74206578 PUSH4 0x65656473 KECCAK256 CODECOPY CALLDATASIZE KECCAK256 PUSH3 0x697473 SSTORE PUSH15 0x693A3A617070726F76653A20616D6F PUSH22 0x6E7420657863656564732039362062697473556E693A GASPRICE PUSH0 PUSH21 0x72616E73666572546F6B656E733A207472616E7366 PUSH6 0x7220616D6F75 PUSH15 0x74206F766572666C6F7773A2646970 PUSH7 0x7358221220B4B8 0x4D 0x2B STOP RETURNDATASIZE MOD MUL 0xEB 0xAC 0xD6 TLOAD 0xB2 MCOPY 0x2C 0x21 CALLDATACOPY DUP1 0xAF 0xBF 0xAB CALLER 0xBC MUL 0x29 PUSH23 0xF467F1DB628364736F6C634300081A0033000000000000 "
				},
				"gasEstimates": {
					"creation": {
						"codeDepositCost": "1776800",
						"executionCost": "infinite",
						"totalCost": "infinite"
					},
					"external": {
						"DELEGATION_TYPEHASH()": "260",
						"DOMAIN_TYPEHASH()": "306",
						"PERMIT_TYPEHASH()": "240",
						"allowance(address,address)": "infinite",
						"approve(address,uint256)": "infinite",
						"balanceOf(address)": "2620",
						"checkpoints(address,uint32)": "2831",
						"decimals()": "293",
						"delegate(address)": "infinite",
						"delegateBySig(address,uint256,uint256,uint8,bytes32,bytes32)": "infinite",
						"delegates(address)": "2622",
						"getCurrentVotes(address)": "infinite",
						"getPriorVotes(address,uint256)": "infinite",
						"minimumTimeBetweenMints()": "292",
						"mint(address,uint256)": "infinite",
						"mintCap()": "293",
						"minter()": "2382",
						"mintingAllowedAfter()": "2362",
						"name()": "infinite",
						"nonces(address)": "2583",
						"numCheckpoints(address)": "2577",
						"permit(address,address,uint256,uint256,uint8,bytes32,bytes32)": "infinite",
						"setMinter(address)": "30280",
						"symbol()": "infinite",
						"totalSupply()": "2383",
						"transfer(address,uint256)": "infinite",
						"transferFrom(address,address,uint256)": "infinite"
					},
					"internal": {
						"_delegate(address,address)": "infinite",
						"_moveDelegates(address,address,uint96)": "infinite",
						"_transferTokens(address,address,uint96)": "infinite",
						"_writeCheckpoint(address,uint32,uint96,uint96)": "infinite",
						"add96(uint96,uint96,string memory)": "infinite",
						"getChainId()": "infinite",
						"safe32(uint256,string memory)": "infinite",
						"safe96(uint256,string memory)": "infinite",
						"sub96(uint96,uint96,string memory)": "infinite"
					}
				},
				"methodIdentifiers": {
					"DELEGATION_TYPEHASH()": "e7a324dc",
					"DOMAIN_TYPEHASH()": "20606b70",
					"PERMIT_TYPEHASH()": "30adf81f",
					"allowance(address,address)": "dd62ed3e",
					"approve(address,uint256)": "095ea7b3",
					"balanceOf(address)": "70a08231",
					"checkpoints(address,uint32)": "f1127ed8",
					"decimals()": "313ce567",
					"delegate(address)": "5c19a95c",
					"delegateBySig(address,uint256,uint256,uint8,bytes32,bytes32)": "c3cda520",
					"delegates(address)": "587cde1e",
					"getCurrentVotes(address)": "b4b5ea57",
					"getPriorVotes(address,uint256)": "782d6fe1",
					"minimumTimeBetweenMints()": "5c11d62f",
					"mint(address,uint256)": "40c10f19",
					"mintCap()": "76c71ca1",
					"minter()": "07546172",
					"mintingAllowedAfter()": "30b36cef",
					"name()": "06fdde03",
					"nonces(address)": "7ecebe00",
					"numCheckpoints(address)": "6fcfff45",
					"permit(address,address,uint256,uint256,uint8,bytes32,bytes32)": "d505accf",
					"setMinter(address)": "fca3b5aa",
					"symbol()": "95d89b41",
					"totalSupply()": "18160ddd",
					"transfer(address,uint256)": "a9059cbb",
					"transferFrom(address,address,uint256)": "23b872dd"
				}
			},
			"storageLayout": {
				"storage": [
					{
						"astId": 277,
						"contract": "contracts/Online/ERC20/Uni.sol:Uni",
						"label": "totalSupply",
						"offset": 0,
						"slot": "0",
						"type": "t_uint256"
					},
					{
						"astId": 280,
						"contract": "contracts/Online/ERC20/Uni.sol:Uni",
						"label": "minter",
						"offset": 0,
						"slot": "1",
						"type": "t_address"
					},
					{
						"astId": 283,
						"contract": "contracts/Online/ERC20/Uni.sol:Uni",
						"label": "mintingAllowedAfter",
						"offset": 0,
						"slot": "2",
						"type": "t_uint256"
					},
					{
						"astId": 300,
						"contract": "contracts/Online/ERC20/Uni.sol:Uni",
						"label": "allowances",
						"offset": 0,
						"slot": "3",
						"type": "t_mapping(t_address,t_mapping(t_address,t_uint96))"
					},
					{
						"astId": 305,
						"contract": "contracts/Online/ERC20/Uni.sol:Uni",
						"label": "balances",
						"offset": 0,
						"slot": "4",
						"type": "t_mapping(t_address,t_uint96)"
					},
					{
						"astId": 310,
						"contract": "contracts/Online/ERC20/Uni.sol:Uni",
						"label": "delegates",
						"offset": 0,
						"slot": "5",
						"type": "t_mapping(t_address,t_address)"
					},
					{
						"astId": 324,
						"contract": "contracts/Online/ERC20/Uni.sol:Uni",
						"label": "checkpoints",
						"offset": 0,
						"slot": "6",
						"type": "t_mapping(t_address,t_mapping(t_uint32,t_struct(Checkpoint)316_storage))"
					},
					{
						"astId": 329,
						"contract": "contracts/Online/ERC20/Uni.sol:Uni",
						"label": "numCheckpoints",
						"offset": 0,
						"slot": "7",
						"type": "t_mapping(t_address,t_uint32)"
					},
					{
						"astId": 352,
						"contract": "contracts/Online/ERC20/Uni.sol:Uni",
						"label": "nonces",
						"offset": 0,
						"slot": "8",
						"type": "t_mapping(t_address,t_uint256)"
					}
				],
				"types": {
					"t_address": {
						"encoding": "inplace",
						"label": "address",
						"numberOfBytes": "20"
					},
					"t_mapping(t_address,t_address)": {
						"encoding": "mapping",
						"key": "t_address",
						"label": "mapping(address => address)",
						"numberOfBytes": "32",
						"value": "t_address"
					},
					"t_mapping(t_address,t_mapping(t_address,t_uint96))": {
						"encoding": "mapping",
						"key": "t_address",
						"label": "mapping(address => mapping(address => uint96))",
						"numberOfBytes": "32",
						"value": "t_mapping(t_address,t_uint96)"
					},
					"t_mapping(t_address,t_mapping(t_uint32,t_struct(Checkpoint)316_storage))": {
						"encoding": "mapping",
						"key": "t_address",
						"label": "mapping(address => mapping(uint32 => struct Uni.Checkpoint))",
						"numberOfBytes": "32",
						"value": "t_mapping(t_uint32,t_struct(Checkpoint)316_storage)"
					},
					"t_mapping(t_address,t_uint256)": {
						"encoding": "mapping",
						"key": "t_address",
						"label": "mapping(address => uint256)",
						"numberOfBytes": "32",
						"value": "t_uint256"
					},
					"t_mapping(t_address,t_uint32)": {
						"encoding": "mapping",
						"key": "t_address",
						"label": "mapping(address => uint32)",
						"numberOfBytes": "32",
						"value": "t_uint32"
					},
					"t_mapping(t_address,t_uint96)": {
						"encoding": "mapping",
						"key": "t_address",
						"label": "mapping(address => uint96)",
						"numberOfBytes": "32",
						"value": "t_uint96"
					},
					"t_mapping(t_uint32,t_struct(Checkpoint)316_storage)": {
						"encoding": "mapping",
						"key": "t_uint32",
						"label": "mapping(uint32 => struct Uni.Checkpoint)",
						"numberOfBytes": "32",
						"value": "t_struct(Checkpoint)316_storage"
					},
					"t_struct(Checkpoint)316_storage": {
						"encoding": "inplace",
						"label": "struct Uni.Checkpoint",
						"members": [
							{
								"astId": 313,
								"contract": "contracts/Online/ERC20/Uni.sol:Uni",
								"label": "fromBlock",
								"offset": 0,
								"slot": "0",
								"type": "t_uint32"
							},
							{
								"astId": 315,
								"contract": "contracts/Online/ERC20/Uni.sol:Uni",
								"label": "votes",
								"offset": 4,
								"slot": "0",
								"type": "t_uint96"
							}
						],
						"numberOfBytes": "32"
					},
					"t_uint256": {
						"encoding": "inplace",
						"label": "uint256",
						"numberOfBytes": "32"
					},
					"t_uint32": {
						"encoding": "inplace",
						"label": "uint32",
						"numberOfBytes": "4"
					},
					"t_uint96": {
						"encoding": "inplace",
						"label": "uint96",
						"numberOfBytes": "12"
					}
				}
			},
			"userdoc": {
				"events": {
					"Approval(address,address,uint256)": {
						"notice": "The standard EIP-20 approval event"
					},
					"DelegateChanged(address,address,address)": {
						"notice": "An event thats emitted when an account changes its delegate"
					},
					"DelegateVotesChanged(address,uint256,uint256)": {
						"notice": "An event thats emitted when a delegate account's vote balance changes"
					},
					"MinterChanged(address,address)": {
						"notice": "An event thats emitted when the minter address is changed"
					},
					"Transfer(address,address,uint256)": {
						"notice": "The standard EIP-20 transfer event"
					}
				},
				"kind": "user",
				"methods": {
					"DELEGATION_TYPEHASH()": {
						"notice": "The EIP-712 typehash for the delegation struct used by the contract"
					},
					"DOMAIN_TYPEHASH()": {
						"notice": "The EIP-712 typehash for the contract's domain"
					},
					"PERMIT_TYPEHASH()": {
						"notice": "The EIP-712 typehash for the permit struct used by the contract"
					},
					"allowance(address,address)": {
						"notice": "Get the number of tokens `spender` is approved to spend on behalf of `account`"
					},
					"approve(address,uint256)": {
						"notice": "Approve `spender` to transfer up to `amount` from `src`"
					},
					"balanceOf(address)": {
						"notice": "Get the number of tokens held by the `account`"
					},
					"checkpoints(address,uint32)": {
						"notice": "A record of votes checkpoints for each account, by index"
					},
					"constructor": {
						"notice": "Construct a new Uni token"
					},
					"decimals()": {
						"notice": "EIP-20 token decimals for this token"
					},
					"delegate(address)": {
						"notice": "Delegate votes from `msg.sender` to `delegatee`"
					},
					"delegateBySig(address,uint256,uint256,uint8,bytes32,bytes32)": {
						"notice": "Delegates votes from signatory to `delegatee`"
					},
					"delegates(address)": {
						"notice": "A record of each accounts delegate"
					},
					"getCurrentVotes(address)": {
						"notice": "Gets the current votes balance for `account`"
					},
					"getPriorVotes(address,uint256)": {
						"notice": "Determine the prior number of votes for an account as of a block number"
					},
					"minimumTimeBetweenMints()": {
						"notice": "Minimum time between mints"
					},
					"mint(address,uint256)": {
						"notice": "Mint new tokens"
					},
					"mintCap()": {
						"notice": "Cap on the percentage of totalSupply that can be minted at each mint"
					},
					"minter()": {
						"notice": "Address which may mint new tokens"
					},
					"mintingAllowedAfter()": {
						"notice": "The timestamp after which minting may occur"
					},
					"name()": {
						"notice": "EIP-20 token name for this token"
					},
					"nonces(address)": {
						"notice": "A record of states for signing / validating signatures"
					},
					"numCheckpoints(address)": {
						"notice": "The number of checkpoints for each account"
					},
					"permit(address,address,uint256,uint256,uint8,bytes32,bytes32)": {
						"notice": "Triggers an approval from owner to spends"
					},
					"setMinter(address)": {
						"notice": "Change the minter address"
					},
					"symbol()": {
						"notice": "EIP-20 token symbol for this token"
					},
					"totalSupply()": {
						"notice": "Total number of tokens in circulation"
					},
					"transfer(address,uint256)": {
						"notice": "Transfer `amount` tokens from `msg.sender` to `dst`"
					},
					"transferFrom(address,address,uint256)": {
						"notice": "Transfer `amount` tokens from `src` to `dst`"
					}
				},
				"version": 1
			}
		}
	}
}