{
	"contracts/Online/ERC20/TetherToken.sol": {
		"TetherToken": {
			"abi": [
				{
					"constant": true,
					"inputs": [],
					"name": "name",
					"outputs": [
						{
							"name": "",
							"type": "string"
						}
					],
					"payable": false,
					"stateMutability": "view",
					"type": "function"
				},
				{
					"constant": false,
					"inputs": [
						{
							"name": "_upgradedAddress",
							"type": "address"
						}
					],
					"name": "deprecate",
					"outputs": [],
					"payable": false,
					"stateMutability": "nonpayable",
					"type": "function"
				},
				{
					"constant": false,
					"inputs": [
						{
							"name": "_spender",
							"type": "address"
						},
						{
							"name": "_value",
							"type": "uint256"
						}
					],
					"name": "approve",
					"outputs": [],
					"payable": false,
					"stateMutability": "nonpayable",
					"type": "function"
				},
				{
					"constant": true,
					"inputs": [],
					"name": "deprecated",
					"outputs": [
						{
							"name": "",
							"type": "bool"
						}
					],
					"payable": false,
					"stateMutability": "view",
					"type": "function"
				},
				{
					"constant": false,
					"inputs": [
						{
							"name": "_evilUser",
							"type": "address"
						}
					],
					"name": "addBlackList",
					"outputs": [],
					"payable": false,
					"stateMutability": "nonpayable",
					"type": "function"
				},
				{
					"constant": true,
					"inputs": [],
					"name": "totalSupply",
					"outputs": [
						{
							"name": "",
							"type": "uint256"
						}
					],
					"payable": false,
					"stateMutability": "view",
					"type": "function"
				},
				{
					"constant": false,
					"inputs": [
						{
							"name": "_from",
							"type": "address"
						},
						{
							"name": "_to",
							"type": "address"
						},
						{
							"name": "_value",
							"type": "uint256"
						}
					],
					"name": "transferFrom",
					"outputs": [],
					"payable": false,
					"stateMutability": "nonpayable",
					"type": "function"
				},
				{
					"constant": true,
					"inputs": [],
					"name": "upgradedAddress",
					"outputs": [
						{
							"name": "",
							"type": "address"
						}
					],
					"payable": false,
					"stateMutability": "view",
					"type": "function"
				},
				{
					"constant": true,
					"inputs": [
						{
							"name": "",
							"type": "address"
						}
					],
					"name": "balances",
					"outputs": [
						{
							"name": "",
							"type": "uint256"
						}
					],
					"payable": false,
					"stateMutability": "view",
					"type": "function"
				},
				{
					"constant": true,
					"inputs": [],
					"name": "decimals",
					"outputs": [
						{
							"name": "",
							"type": "uint256"
						}
					],
					"payable": false,
					"stateMutability": "view",
					"type": "function"
				},
				{
					"constant": true,
					"inputs": [],
					"name": "maximumFee",
					"outputs": [
						{
							"name": "",
							"type": "uint256"
						}
					],
					"payable": false,
					"stateMutability": "view",
					"type": "function"
				},
				{
					"constant": true,
					"inputs": [],
					"name": "_totalSupply",
					"outputs": [
						{
							"name": "",
							"type": "uint256"
						}
					],
					"payable": false,
					"stateMutability": "view",
					"type": "function"
				},
				{
					"constant": false,
					"inputs": [],
					"name": "unpause",
					"outputs": [],
					"payable": false,
					"stateMutability": "nonpayable",
					"type": "function"
				},
				{
					"constant": true,
					"inputs": [
						{
							"name": "_maker",
							"type": "address"
						}
					],
					"name": "getBlackListStatus",
					"outputs": [
						{
							"name": "",
							"type": "bool"
						}
					],
					"payable": false,
					"stateMutability": "view",
					"type": "function"
				},
				{
					"constant": true,
					"inputs": [
						{
							"name": "",
							"type": "address"
						},
						{
							"name": "",
							"type": "address"
						}
					],
					"name": "allowed",
					"outputs": [
						{
							"name": "",
							"type": "uint256"
						}
					],
					"payable": false,
					"stateMutability": "view",
					"type": "function"
				},
				{
					"constant": true,
					"inputs": [],
					"name": "paused",
					"outputs": [
						{
							"name": "",
							"type": "bool"
						}
					],
					"payable": false,
					"stateMutability": "view",
					"type": "function"
				},
				{
					"constant": true,
					"inputs": [
						{
							"name": "who",
							"type": "address"
						}
					],
					"name": "balanceOf",
					"outputs": [
						{
							"name": "",
							"type": "uint256"
						}
					],
					"payable": false,
					"stateMutability": "view",
					"type": "function"
				},
				{
					"constant": false,
					"inputs": [],
					"name": "pause",
					"outputs": [],
					"payable": false,
					"stateMutability": "nonpayable",
					"type": "function"
				},
				{
					"constant": true,
					"inputs": [],
					"name": "getOwner",
					"outputs": [
						{
							"name": "",
							"type": "address"
						}
					],
					"payable": false,
					"stateMutability": "view",
					"type": "function"
				},
				{
					"constant": true,
					"inputs": [],
					"name": "owner",
					"outputs": [
						{
							"name": "",
							"type": "address"
						}
					],
					"payable": false,
					"stateMutability": "view",
					"type": "function"
				},
				{
					"constant": true,
					"inputs": [],
					"name": "symbol",
					"outputs": [
						{
							"name": "",
							"type": "string"
						}
					],
					"payable": false,
					"stateMutability": "view",
					"type": "function"
				},
				{
					"constant": false,
					"inputs": [
						{
							"name": "_to",
							"type": "address"
						},
						{
							"name": "_value",
							"type": "uint256"
						}
					],
					"name": "transfer",
					"outputs": [],
					"payable": false,
					"stateMutability": "nonpayable",
					"type": "function"
				},
				{
					"constant": false,
					"inputs": [],
					"name": "ownable",
					"outputs": [],
					"payable": false,
					"stateMutability": "nonpayable",
					"type": "function"
				},
				{
					"constant": false,
					"inputs": [
						{
							"name": "newBasisPoints",
							"type": "uint256"
						},
						{
							"name": "newMaxFee",
							"type": "uint256"
						}
					],
					"name": "setParams",
					"outputs": [],
					"payable": false,
					"stateMutability": "nonpayable",
					"type": "function"
				},
				{
					"constant": false,
					"inputs": [
						{
							"name": "amount",
							"type": "uint256"
						}
					],
					"name": "issue",
					"outputs": [],
					"payable": false,
					"stateMutability": "nonpayable",
					"type": "function"
				},
				{
					"constant": false,
					"inputs": [
						{
							"name": "amount",
							"type": "uint256"
						}
					],
					"name": "redeem",
					"outputs": [],
					"payable": false,
					"stateMutability": "nonpayable",
					"type": "function"
				},
				{
					"constant": true,
					"inputs": [
						{
							"name": "_owner",
							"type": "address"
						},
						{
							"name": "_spender",
							"type": "address"
						}
					],
					"name": "allowance",
					"outputs": [
						{
							"name": "remaining",
							"type": "uint256"
						}
					],
					"payable": false,
					"stateMutability": "view",
					"type": "function"
				},
				{
					"constant": true,
					"inputs": [],
					"name": "basisPointsRate",
					"outputs": [
						{
							"name": "",
							"type": "uint256"
						}
					],
					"payable": false,
					"stateMutability": "view",
					"type": "function"
				},
				{
					"constant": true,
					"inputs": [
						{
							"name": "",
							"type": "address"
						}
					],
					"name": "isBlackListed",
					"outputs": [
						{
							"name": "",
							"type": "bool"
						}
					],
					"payable": false,
					"stateMutability": "view",
					"type": "function"
				},
				{
					"constant": false,
					"inputs": [
						{
							"name": "_clearedUser",
							"type": "address"
						}
					],
					"name": "removeBlackList",
					"outputs": [],
					"payable": false,
					"stateMutability": "nonpayable",
					"type": "function"
				},
				{
					"constant": true,
					"inputs": [],
					"name": "MAX_UINT",
					"outputs": [
						{
							"name": "",
							"type": "uint256"
						}
					],
					"payable": false,
					"stateMutability": "view",
					"type": "function"
				},
				{
					"constant": false,
					"inputs": [
						{
							"name": "newOwner",
							"type": "address"
						}
					],
					"name": "transferOwnership",
					"outputs": [],
					"payable": false,
					"stateMutability": "nonpayable",
					"type": "function"
				},
				{
					"constant": false,
					"inputs": [
						{
							"name": "_blackListedUser",
							"type": "address"
						}
					],
					"name": "destroyBlackFunds",
					"outputs": [],
					"payable": false,
					"stateMutability": "nonpayable",
					"type": "function"
				},
				{
					"inputs": [
						{
							"name": "_initialSupply",
							"type": "uint256"
						},
						{
							"name": "_name",
							"type": "string"
						},
						{
							"name": "_symbol",
							"type": "string"
						},
						{
							"name": "_decimals",
							"type": "uint256"
						}
					],
					"payable": false,
					"stateMutability": "nonpayable",
					"type": "constructor"
				},
				{
					"anonymous": false,
					"inputs": [
						{
							"indexed": false,
							"name": "amount",
							"type": "uint256"
						}
					],
					"name": "Issue",
					"type": "event"
				},
				{
					"anonymous": false,
					"inputs": [
						{
							"indexed": false,
							"name": "amount",
							"type": "uint256"
						}
					],
					"name": "Redeem",
					"type": "event"
				},
				{
					"anonymous": false,
					"inputs": [
						{
							"indexed": false,
							"name": "newAddress",
							"type": "address"
						}
					],
					"name": "Deprecate",
					"type": "event"
				},
				{
					"anonymous": false,
					"inputs": [
						{
							"indexed": false,
							"name": "feeBasisPoints",
							"type": "uint256"
						},
						{
							"indexed": false,
							"name": "maxFee",
							"type": "uint256"
						}
					],
					"name": "Params",
					"type": "event"
				},
				{
					"anonymous": false,
					"inputs": [
						{
							"indexed": false,
							"name": "_blackListedUser",
							"type": "address"
						},
						{
							"indexed": false,
							"name": "_balance",
							"type": "uint256"
						}
					],
					"name": "DestroyedBlackFunds",
					"type": "event"
				},
				{
					"anonymous": false,
					"inputs": [
						{
							"indexed": false,
							"name": "_user",
							"type": "address"
						}
					],
					"name": "AddedBlackList",
					"type": "event"
				},
				{
					"anonymous": false,
					"inputs": [
						{
							"indexed": false,
							"name": "_user",
							"type": "address"
						}
					],
					"name": "RemovedBlackList",
					"type": "event"
				},
				{
					"anonymous": false,
					"inputs": [
						{
							"indexed": true,
							"name": "owner",
							"type": "address"
						},
						{
							"indexed": true,
							"name": "spender",
							"type": "address"
						},
						{
							"indexed": false,
							"name": "value",
							"type": "uint256"
						}
					],
					"name": "Approval",
					"type": "event"
				},
				{
					"anonymous": false,
					"inputs": [
						{
							"indexed": true,
							"name": "from",
							"type": "address"
						},
						{
							"indexed": true,
							"name": "to",
							"type": "address"
						},
						{
							"indexed": false,
							"name": "value",
							"type": "uint256"
						}
					],
					"name": "Transfer",
					"type": "event"
				},
				{
					"anonymous": false,
					"inputs": [],
					"name": "Pause",
					"type": "event"
				},
				{
					"anonymous": false,
					"inputs": [],
					"name": "Unpause",
					"type": "event"
				}
			],
			"devdoc": {
				"methods": {
					"ownable()": {
						"details": "The Ownable constructor sets the original `owner` of the contract to the sender\r account.\r"
					},
					"pause()": {
						"details": "called by the owner to pause, triggers stopped state\r"
					},
					"transferOwnership(address)": {
						"details": "Allows the current owner to transfer control of the contract to a newOwner.\r",
						"params": {
							"newOwner": "The address to transfer ownership to.\r"
						}
					},
					"unpause()": {
						"details": "called by the owner to unpause, returns to normal state\r"
					}
				}
			},
			"evm": {
				"assembly": "    /* \"contracts/Online/ERC20/TetherToken.sol\":10044:14976  contract TetherToken is Pausable, StandardToken, BlackList {\r... */\n  mstore(0x40, 0x80)\n    /* \"contracts/Online/ERC20/TetherToken.sol\":7617:7622  false */\n  0x0\n    /* \"contracts/Online/ERC20/TetherToken.sol\":7596:7622  bool public paused = false */\n  dup1\n  sload\n  not(mul(0xff, exp(0x2, 0xa0)))\n  and\n  dup2\n  sstore\n    /* \"contracts/Online/ERC20/TetherToken.sol\":3110:3141  uint public basisPointsRate = 0 */\n  0x3\n  dup2\n  swap1\n  sstore\n    /* \"contracts/Online/ERC20/TetherToken.sol\":3148:3174  uint public maximumFee = 0 */\n  0x4\n  sstore\n    /* \"contracts/Online/ERC20/TetherToken.sol\":10554:10850  function TetherToken(uint _initialSupply, string _name, string _symbol, uint _decimals) public {\r... */\n  callvalue\n    /* \"--CODEGEN--\":5:7   */\n  dup1\n  iszero\n  tag_1\n  jumpi\n    /* \"--CODEGEN--\":30:31   */\n  0x0\n    /* \"--CODEGEN--\":27:28   */\n  dup1\n    /* \"--CODEGEN--\":20:32   */\n  revert\n    /* \"--CODEGEN--\":5:7   */\ntag_1:\n    /* \"contracts/Online/ERC20/TetherToken.sol\":10554:10850  function TetherToken(uint _initialSupply, string _name, string _symbol, uint _decimals) public {\r... */\n  pop\n  mload(0x40)\n  sub(codesize, bytecodeSize)\n  dup1\n  bytecodeSize\n  dup4\n  codecopy\n  dup2\n  add\n  0x40\n  swap1\n  dup2\n  mstore\n  dup2\n  mload\n  0x20\n  dup1\n  dup5\n  add\n  mload\n  swap3\n  dup5\n  add\n  mload\n  0x60\n  dup6\n  add\n  mload\n    /* \"contracts/Online/ERC20/TetherToken.sol\":10660:10672  _totalSupply */\n  0x1\n    /* \"contracts/Online/ERC20/TetherToken.sol\":10660:10689  _totalSupply = _initialSupply */\n  dup5\n  swap1\n  sstore\n    /* \"contracts/Online/ERC20/TetherToken.sol\":10554:10850  function TetherToken(uint _initialSupply, string _name, string _symbol, uint _decimals) public {\r... */\n  swap4\n  dup6\n  add\n    /* \"contracts/Online/ERC20/TetherToken.sol\":10700:10712  name = _name */\n  dup1\n  mload\n    /* \"contracts/Online/ERC20/TetherToken.sol\":10554:10850  function TetherToken(uint _initialSupply, string _name, string _symbol, uint _decimals) public {\r... */\n  swap4\n  swap6\n  swap1\n  swap5\n  swap2\n  add\n  swap3\n  swap1\n  swap2\n    /* \"contracts/Online/ERC20/TetherToken.sol\":10700:10712  name = _name */\n  tag_4\n  swap2\n    /* \"contracts/Online/ERC20/TetherToken.sol\":10700:10704  name */\n  0x7\n  swap2\n    /* \"contracts/Online/ERC20/TetherToken.sol\":10700:10712  name = _name */\n  dup7\n  add\n  swap1\n  jump\t// in(tag_5)\ntag_4:\n  pop\n    /* \"contracts/Online/ERC20/TetherToken.sol\":10723:10739  symbol = _symbol */\n  dup2\n  mload\n  tag_6\n  swap1\n    /* \"contracts/Online/ERC20/TetherToken.sol\":10723:10729  symbol */\n  0x8\n  swap1\n    /* \"contracts/Online/ERC20/TetherToken.sol\":10723:10739  symbol = _symbol */\n  0x20\n  dup6\n  add\n  swap1\n  jump\t// in(tag_5)\ntag_6:\n  pop\n    /* \"contracts/Online/ERC20/TetherToken.sol\":10750:10758  decimals */\n  0x9\n    /* \"contracts/Online/ERC20/TetherToken.sol\":10750:10770  decimals = _decimals */\n  sstore\n  pop\n  pop\n    /* \"contracts/Online/ERC20/TetherToken.sol\":10781:10796  balances[owner] */\n  0x0\n    /* \"contracts/Online/ERC20/TetherToken.sol\":10790:10795  owner */\n  dup1\n  sload\n  sub(exp(0x2, 0xa0), 0x1)\n  and\n    /* \"contracts/Online/ERC20/TetherToken.sol\":10781:10796  balances[owner] */\n  dup2\n  mstore\n    /* \"contracts/Online/ERC20/TetherToken.sol\":10781:10789  balances */\n  0x2\n    /* \"contracts/Online/ERC20/TetherToken.sol\":10781:10796  balances[owner] */\n  0x20\n  mstore\n  0x40\n  swap1\n  keccak256\n    /* \"contracts/Online/ERC20/TetherToken.sol\":10781:10813  balances[owner] = _initialSupply */\n  sstore\n    /* \"contracts/Online/ERC20/TetherToken.sol\":10824:10834  deprecated */\n  0xa\n    /* \"contracts/Online/ERC20/TetherToken.sol\":10824:10842  deprecated = false */\n  dup1\n  sload\n  not(mul(0xff, exp(0x2, 0xa0)))\n  and\n  swap1\n  sstore\n    /* \"contracts/Online/ERC20/TetherToken.sol\":10044:14976  contract TetherToken is Pausable, StandardToken, BlackList {\r... */\n  jump(tag_7)\ntag_5:\n  dup3\n  dup1\n  sload\n  0x1\n  dup2\n  0x1\n  and\n  iszero\n  0x100\n  mul\n  sub\n  and\n  0x2\n  swap1\n  div\n  swap1\n  0x0\n  mstore\n  keccak256(0x0, 0x20)\n  swap1\n  0x1f\n  add\n  0x20\n  swap1\n  div\n  dup2\n  add\n  swap3\n  dup3\n  0x1f\n  lt\n  tag_9\n  jumpi\n  dup1\n  mload\n  not(0xff)\n  and\n  dup4\n  dup1\n  add\n  or\n  dup6\n  sstore\n  jump(tag_11)\ntag_9:\n  dup3\n  dup1\n  add\n  0x1\n  add\n  dup6\n  sstore\n  dup3\n  iszero\n  tag_11\n  jumpi\n  swap2\n  dup3\n  add\ntag_10:\n  dup3\n  dup2\n  gt\n  iszero\n  tag_11\n  jumpi\n  dup3\n  mload\n  dup3\n  sstore\n  swap2\n  0x20\n  add\n  swap2\n  swap1\n  0x1\n  add\n  swap1\n  jump(tag_10)\ntag_11:\n  pop\n  tag_12\n  swap3\n  swap2\n  pop\n  jump\t// in(tag_13)\ntag_12:\n  pop\n  swap1\n  jump\t// out\ntag_13:\n  tag_14\n  swap2\n  swap1\ntag_15:\n  dup1\n  dup3\n  gt\n  iszero\n  tag_12\n  jumpi\n  0x0\n  dup2\n  sstore\n  0x1\n  add\n  jump(tag_15)\ntag_14:\n  swap1\n  jump\t// out\ntag_7:\n  dataSize(sub_0)\n  dup1\n  dataOffset(sub_0)\n  0x0\n  codecopy\n  0x0\n  return\nstop\n\nsub_0: assembly {\n        /* \"contracts/Online/ERC20/TetherToken.sol\":10044:14976  contract TetherToken is Pausable, StandardToken, BlackList {\r... */\n      mstore(0x40, 0x80)\n      jumpi(tag_1, lt(calldatasize, 0x4))\n      and(div(calldataload(0x0), 0x100000000000000000000000000000000000000000000000000000000), 0xffffffff)\n      0x6fdde03\n      dup2\n      eq\n      tag_2\n      jumpi\n      dup1\n      0x753c30c\n      eq\n      tag_3\n      jumpi\n      dup1\n      0x95ea7b3\n      eq\n      tag_4\n      jumpi\n      dup1\n      0xe136b19\n      eq\n      tag_5\n      jumpi\n      dup1\n      0xecb93c0\n      eq\n      tag_6\n      jumpi\n      dup1\n      0x18160ddd\n      eq\n      tag_7\n      jumpi\n      dup1\n      0x23b872dd\n      eq\n      tag_8\n      jumpi\n      dup1\n      0x26976e3f\n      eq\n      tag_9\n      jumpi\n      dup1\n      0x27e235e3\n      eq\n      tag_10\n      jumpi\n      dup1\n      0x313ce567\n      eq\n      tag_11\n      jumpi\n      dup1\n      0x35390714\n      eq\n      tag_12\n      jumpi\n      dup1\n      0x3eaaf86b\n      eq\n      tag_13\n      jumpi\n      dup1\n      0x3f4ba83a\n      eq\n      tag_14\n      jumpi\n      dup1\n      0x59bf1abe\n      eq\n      tag_15\n      jumpi\n      dup1\n      0x5c658165\n      eq\n      tag_16\n      jumpi\n      dup1\n      0x5c975abb\n      eq\n      tag_17\n      jumpi\n      dup1\n      0x70a08231\n      eq\n      tag_18\n      jumpi\n      dup1\n      0x8456cb59\n      eq\n      tag_19\n      jumpi\n      dup1\n      0x893d20e8\n      eq\n      tag_20\n      jumpi\n      dup1\n      0x8da5cb5b\n      eq\n      tag_21\n      jumpi\n      dup1\n      0x95d89b41\n      eq\n      tag_22\n      jumpi\n      dup1\n      0xa9059cbb\n      eq\n      tag_23\n      jumpi\n      dup1\n      0xb38854be\n      eq\n      tag_24\n      jumpi\n      dup1\n      0xc0324c77\n      eq\n      tag_25\n      jumpi\n      dup1\n      0xcc872b66\n      eq\n      tag_26\n      jumpi\n      dup1\n      0xdb006a75\n      eq\n      tag_27\n      jumpi\n      dup1\n      0xdd62ed3e\n      eq\n      tag_28\n      jumpi\n      dup1\n      0xdd644f72\n      eq\n      tag_29\n      jumpi\n      dup1\n      0xe47d6060\n      eq\n      tag_30\n      jumpi\n      dup1\n      0xe4997dc5\n      eq\n      tag_31\n      jumpi\n      dup1\n      0xe5b5019a\n      eq\n      tag_32\n      jumpi\n      dup1\n      0xf2fde38b\n      eq\n      tag_33\n      jumpi\n      dup1\n      0xf3bdc228\n      eq\n      tag_34\n      jumpi\n    tag_1:\n      0x0\n      dup1\n      revert\n        /* \"contracts/Online/ERC20/TetherToken.sol\":10112:10130  string public name */\n    tag_2:\n      callvalue\n        /* \"--CODEGEN--\":8:17   */\n      dup1\n        /* \"--CODEGEN--\":5:7   */\n      iszero\n      tag_35\n      jumpi\n        /* \"--CODEGEN--\":30:31   */\n      0x0\n        /* \"--CODEGEN--\":27:28   */\n      dup1\n        /* \"--CODEGEN--\":20:32   */\n      revert\n        /* \"--CODEGEN--\":5:7   */\n    tag_35:\n        /* \"contracts/Online/ERC20/TetherToken.sol\":10112:10130  string public name */\n      pop\n      tag_36\n      jump(tag_37)\n    tag_36:\n      0x40\n      dup1\n      mload\n      0x20\n      dup1\n      dup3\n      mstore\n      dup4\n      mload\n      dup2\n      dup4\n      add\n      mstore\n      dup4\n      mload\n      swap2\n      swap3\n      dup4\n      swap3\n      swap1\n      dup4\n      add\n      swap2\n      dup6\n      add\n      swap1\n      dup1\n      dup4\n      dup4\n      0x0\n        /* \"--CODEGEN--\":8:108   */\n    tag_38:\n        /* \"--CODEGEN--\":33:36   */\n      dup4\n        /* \"--CODEGEN--\":30:31   */\n      dup2\n        /* \"--CODEGEN--\":27:37   */\n      lt\n        /* \"--CODEGEN--\":8:108   */\n      iszero\n      tag_39\n      jumpi\n        /* \"--CODEGEN--\":90:101   */\n      dup2\n      dup2\n      add\n        /* \"--CODEGEN--\":84:102   */\n      mload\n        /* \"--CODEGEN--\":71:82   */\n      dup4\n      dup3\n      add\n        /* \"--CODEGEN--\":64:103   */\n      mstore\n        /* \"--CODEGEN--\":52:54   */\n      0x20\n        /* \"--CODEGEN--\":45:55   */\n      add\n        /* \"--CODEGEN--\":8:108   */\n      jump(tag_38)\n    tag_39:\n        /* \"--CODEGEN--\":12:26   */\n      pop\n        /* \"contracts/Online/ERC20/TetherToken.sol\":10112:10130  string public name */\n      pop\n      pop\n      pop\n      swap1\n      pop\n      swap1\n      dup2\n      add\n      swap1\n      0x1f\n      and\n      dup1\n      iszero\n      tag_41\n      jumpi\n      dup1\n      dup3\n      sub\n      dup1\n      mload\n      0x1\n      dup4\n      0x20\n      sub\n      0x100\n      exp\n      sub\n      not\n      and\n      dup2\n      mstore\n      0x20\n      add\n      swap2\n      pop\n    tag_41:\n      pop\n      swap3\n      pop\n      pop\n      pop\n      mload(0x40)\n      dup1\n      swap2\n      sub\n      swap1\n      return\n        /* \"contracts/Online/ERC20/TetherToken.sol\":12868:13054  function deprecate(address _upgradedAddress) public onlyOwner {\r... */\n    tag_3:\n      callvalue\n        /* \"--CODEGEN--\":8:17   */\n      dup1\n        /* \"--CODEGEN--\":5:7   */\n      iszero\n      tag_42\n      jumpi\n        /* \"--CODEGEN--\":30:31   */\n      0x0\n        /* \"--CODEGEN--\":27:28   */\n      dup1\n        /* \"--CODEGEN--\":20:32   */\n      revert\n        /* \"--CODEGEN--\":5:7   */\n    tag_42:\n      pop\n        /* \"contracts/Online/ERC20/TetherToken.sol\":12868:13054  function deprecate(address _upgradedAddress) public onlyOwner {\r... */\n      tag_43\n      and(calldataload(0x4), sub(exp(0x2, 0xa0), 0x1))\n      jump(tag_44)\n    tag_43:\n      stop\n        /* \"contracts/Online/ERC20/TetherToken.sol\":12122:12424  function approve(address _spender, uint _value) public onlyPayloadSize(2 * 32) {\r... */\n    tag_4:\n      callvalue\n        /* \"--CODEGEN--\":8:17   */\n      dup1\n        /* \"--CODEGEN--\":5:7   */\n      iszero\n      tag_45\n      jumpi\n        /* \"--CODEGEN--\":30:31   */\n      0x0\n        /* \"--CODEGEN--\":27:28   */\n      dup1\n        /* \"--CODEGEN--\":20:32   */\n      revert\n        /* \"--CODEGEN--\":5:7   */\n    tag_45:\n      pop\n        /* \"contracts/Online/ERC20/TetherToken.sol\":12122:12424  function approve(address _spender, uint _value) public onlyPayloadSize(2 * 32) {\r... */\n      tag_43\n      and(calldataload(0x4), sub(exp(0x2, 0xa0), 0x1))\n      calldataload(0x24)\n      jump(tag_47)\n        /* \"contracts/Online/ERC20/TetherToken.sol\":10228:10250  bool public deprecated */\n    tag_5:\n      callvalue\n        /* \"--CODEGEN--\":8:17   */\n      dup1\n        /* \"--CODEGEN--\":5:7   */\n      iszero\n      tag_48\n      jumpi\n        /* \"--CODEGEN--\":30:31   */\n      0x0\n        /* \"--CODEGEN--\":27:28   */\n      dup1\n        /* \"--CODEGEN--\":20:32   */\n      revert\n        /* \"--CODEGEN--\":5:7   */\n    tag_48:\n        /* \"contracts/Online/ERC20/TetherToken.sol\":10228:10250  bool public deprecated */\n      pop\n      tag_49\n      jump(tag_50)\n    tag_49:\n      0x40\n      dup1\n      mload\n      swap2\n      iszero\n      iszero\n      dup3\n      mstore\n      mload\n      swap1\n      dup2\n      swap1\n      sub\n      0x20\n      add\n      swap1\n      return\n        /* \"contracts/Online/ERC20/TetherToken.sol\":8774:8923  function addBlackList (address _evilUser) public onlyOwner {\r... */\n    tag_6:\n      callvalue\n        /* \"--CODEGEN--\":8:17   */\n      dup1\n        /* \"--CODEGEN--\":5:7   */\n      iszero\n      tag_51\n      jumpi\n        /* \"--CODEGEN--\":30:31   */\n      0x0\n        /* \"--CODEGEN--\":27:28   */\n      dup1\n        /* \"--CODEGEN--\":20:32   */\n      revert\n        /* \"--CODEGEN--\":5:7   */\n    tag_51:\n      pop\n        /* \"contracts/Online/ERC20/TetherToken.sol\":8774:8923  function addBlackList (address _evilUser) public onlyOwner {\r... */\n      tag_43\n      and(calldataload(0x4), sub(exp(0x2, 0xa0), 0x1))\n      jump(tag_53)\n        /* \"contracts/Online/ERC20/TetherToken.sol\":13120:13338  function totalSupply() public constant returns (uint) {\r... */\n    tag_7:\n      callvalue\n        /* \"--CODEGEN--\":8:17   */\n      dup1\n        /* \"--CODEGEN--\":5:7   */\n      iszero\n      tag_54\n      jumpi\n        /* \"--CODEGEN--\":30:31   */\n      0x0\n        /* \"--CODEGEN--\":27:28   */\n      dup1\n        /* \"--CODEGEN--\":20:32   */\n      revert\n        /* \"--CODEGEN--\":5:7   */\n    tag_54:\n        /* \"contracts/Online/ERC20/TetherToken.sol\":13120:13338  function totalSupply() public constant returns (uint) {\r... */\n      pop\n      tag_55\n      jump(tag_56)\n    tag_55:\n      0x40\n      dup1\n      mload\n      swap2\n      dup3\n      mstore\n      mload\n      swap1\n      dup2\n      swap1\n      sub\n      0x20\n      add\n      swap1\n      return\n        /* \"contracts/Online/ERC20/TetherToken.sol\":11346:11708  function transferFrom(address _from, address _to, uint _value) public whenNotPaused {\r... */\n    tag_8:\n      callvalue\n        /* \"--CODEGEN--\":8:17   */\n      dup1\n        /* \"--CODEGEN--\":5:7   */\n      iszero\n      tag_57\n      jumpi\n        /* \"--CODEGEN--\":30:31   */\n      0x0\n        /* \"--CODEGEN--\":27:28   */\n      dup1\n        /* \"--CODEGEN--\":20:32   */\n      revert\n        /* \"--CODEGEN--\":5:7   */\n    tag_57:\n      pop\n        /* \"contracts/Online/ERC20/TetherToken.sol\":11346:11708  function transferFrom(address _from, address _to, uint _value) public whenNotPaused {\r... */\n      tag_43\n      sub(exp(0x2, 0xa0), 0x1)\n      calldataload(0x4)\n      dup2\n      and\n      swap1\n      calldataload(0x24)\n      and\n      calldataload(0x44)\n      jump(tag_59)\n        /* \"contracts/Online/ERC20/TetherToken.sol\":10191:10221  address public upgradedAddress */\n    tag_9:\n      callvalue\n        /* \"--CODEGEN--\":8:17   */\n      dup1\n        /* \"--CODEGEN--\":5:7   */\n      iszero\n      tag_60\n      jumpi\n        /* \"--CODEGEN--\":30:31   */\n      0x0\n        /* \"--CODEGEN--\":27:28   */\n      dup1\n        /* \"--CODEGEN--\":20:32   */\n      revert\n        /* \"--CODEGEN--\":5:7   */\n    tag_60:\n        /* \"contracts/Online/ERC20/TetherToken.sol\":10191:10221  address public upgradedAddress */\n      pop\n      tag_61\n      jump(tag_62)\n    tag_61:\n      0x40\n      dup1\n      mload\n      sub(exp(0x2, 0xa0), 0x1)\n      swap1\n      swap3\n      and\n      dup3\n      mstore\n      mload\n      swap1\n      dup2\n      swap1\n      sub\n      0x20\n      add\n      swap1\n      return\n        /* \"contracts/Online/ERC20/TetherToken.sol\":2982:3022  mapping(address => uint) public balances */\n    tag_10:\n      callvalue\n        /* \"--CODEGEN--\":8:17   */\n      dup1\n        /* \"--CODEGEN--\":5:7   */\n      iszero\n      tag_63\n      jumpi\n        /* \"--CODEGEN--\":30:31   */\n      0x0\n        /* \"--CODEGEN--\":27:28   */\n      dup1\n        /* \"--CODEGEN--\":20:32   */\n      revert\n        /* \"--CODEGEN--\":5:7   */\n    tag_63:\n      pop\n        /* \"contracts/Online/ERC20/TetherToken.sol\":2982:3022  mapping(address => uint) public balances */\n      tag_55\n      and(calldataload(0x4), sub(exp(0x2, 0xa0), 0x1))\n      jump(tag_65)\n        /* \"contracts/Online/ERC20/TetherToken.sol\":10164:10184  uint public decimals */\n    tag_11:\n      callvalue\n        /* \"--CODEGEN--\":8:17   */\n      dup1\n        /* \"--CODEGEN--\":5:7   */\n      iszero\n      tag_66\n      jumpi\n        /* \"--CODEGEN--\":30:31   */\n      0x0\n        /* \"--CODEGEN--\":27:28   */\n      dup1\n        /* \"--CODEGEN--\":20:32   */\n      revert\n        /* \"--CODEGEN--\":5:7   */\n    tag_66:\n        /* \"contracts/Online/ERC20/TetherToken.sol\":10164:10184  uint public decimals */\n      pop\n      tag_55\n      jump(tag_68)\n        /* \"contracts/Online/ERC20/TetherToken.sol\":3148:3174  uint public maximumFee = 0 */\n    tag_12:\n      callvalue\n        /* \"--CODEGEN--\":8:17   */\n      dup1\n        /* \"--CODEGEN--\":5:7   */\n      iszero\n      tag_69\n      jumpi\n        /* \"--CODEGEN--\":30:31   */\n      0x0\n        /* \"--CODEGEN--\":27:28   */\n      dup1\n        /* \"--CODEGEN--\":20:32   */\n      revert\n        /* \"--CODEGEN--\":5:7   */\n    tag_69:\n        /* \"contracts/Online/ERC20/TetherToken.sol\":3148:3174  uint public maximumFee = 0 */\n      pop\n      tag_55\n      jump(tag_71)\n        /* \"contracts/Online/ERC20/TetherToken.sol\":2084:2108  uint public _totalSupply */\n    tag_13:\n      callvalue\n        /* \"--CODEGEN--\":8:17   */\n      dup1\n        /* \"--CODEGEN--\":5:7   */\n      iszero\n      tag_72\n      jumpi\n        /* \"--CODEGEN--\":30:31   */\n      0x0\n        /* \"--CODEGEN--\":27:28   */\n      dup1\n        /* \"--CODEGEN--\":20:32   */\n      revert\n        /* \"--CODEGEN--\":5:7   */\n    tag_72:\n        /* \"contracts/Online/ERC20/TetherToken.sol\":2084:2108  uint public _totalSupply */\n      pop\n      tag_55\n      jump(tag_74)\n        /* \"contracts/Online/ERC20/TetherToken.sol\":8216:8310  function unpause() onlyOwner whenPaused public {\r... */\n    tag_14:\n      callvalue\n        /* \"--CODEGEN--\":8:17   */\n      dup1\n        /* \"--CODEGEN--\":5:7   */\n      iszero\n      tag_75\n      jumpi\n        /* \"--CODEGEN--\":30:31   */\n      0x0\n        /* \"--CODEGEN--\":27:28   */\n      dup1\n        /* \"--CODEGEN--\":20:32   */\n      revert\n        /* \"--CODEGEN--\":5:7   */\n    tag_75:\n        /* \"contracts/Online/ERC20/TetherToken.sol\":8216:8310  function unpause() onlyOwner whenPaused public {\r... */\n      pop\n      tag_43\n      jump(tag_77)\n        /* \"contracts/Online/ERC20/TetherToken.sol\":8488:8612  function getBlackListStatus(address _maker) external constant returns (bool) {\r... */\n    tag_15:\n      callvalue\n        /* \"--CODEGEN--\":8:17   */\n      dup1\n        /* \"--CODEGEN--\":5:7   */\n      iszero\n      tag_78\n      jumpi\n        /* \"--CODEGEN--\":30:31   */\n      0x0\n        /* \"--CODEGEN--\":27:28   */\n      dup1\n        /* \"--CODEGEN--\":20:32   */\n      revert\n        /* \"--CODEGEN--\":5:7   */\n    tag_78:\n      pop\n        /* \"contracts/Online/ERC20/TetherToken.sol\":8488:8612  function getBlackListStatus(address _maker) external constant returns (bool) {\r... */\n      tag_49\n      and(calldataload(0x4), sub(exp(0x2, 0xa0), 0x1))\n      jump(tag_80)\n        /* \"contracts/Online/ERC20/TetherToken.sol\":4782:4843  mapping (address => mapping (address => uint)) public allowed */\n    tag_16:\n      callvalue\n        /* \"--CODEGEN--\":8:17   */\n      dup1\n        /* \"--CODEGEN--\":5:7   */\n      iszero\n      tag_81\n      jumpi\n        /* \"--CODEGEN--\":30:31   */\n      0x0\n        /* \"--CODEGEN--\":27:28   */\n      dup1\n        /* \"--CODEGEN--\":20:32   */\n      revert\n        /* \"--CODEGEN--\":5:7   */\n    tag_81:\n      pop\n        /* \"contracts/Online/ERC20/TetherToken.sol\":4782:4843  mapping (address => mapping (address => uint)) public allowed */\n      tag_55\n      sub(exp(0x2, 0xa0), 0x1)\n      calldataload(0x4)\n      dup2\n      and\n      swap1\n      calldataload(0x24)\n      and\n      jump(tag_83)\n        /* \"contracts/Online/ERC20/TetherToken.sol\":7596:7622  bool public paused = false */\n    tag_17:\n      callvalue\n        /* \"--CODEGEN--\":8:17   */\n      dup1\n        /* \"--CODEGEN--\":5:7   */\n      iszero\n      tag_84\n      jumpi\n        /* \"--CODEGEN--\":30:31   */\n      0x0\n        /* \"--CODEGEN--\":27:28   */\n      dup1\n        /* \"--CODEGEN--\":20:32   */\n      revert\n        /* \"--CODEGEN--\":5:7   */\n    tag_84:\n        /* \"contracts/Online/ERC20/TetherToken.sol\":7596:7622  bool public paused = false */\n      pop\n      tag_49\n      jump(tag_86)\n        /* \"contracts/Online/ERC20/TetherToken.sol\":11793:12037  function balanceOf(address who) public constant returns (uint) {\r... */\n    tag_18:\n      callvalue\n        /* \"--CODEGEN--\":8:17   */\n      dup1\n        /* \"--CODEGEN--\":5:7   */\n      iszero\n      tag_87\n      jumpi\n        /* \"--CODEGEN--\":30:31   */\n      0x0\n        /* \"--CODEGEN--\":27:28   */\n      dup1\n        /* \"--CODEGEN--\":20:32   */\n      revert\n        /* \"--CODEGEN--\":5:7   */\n    tag_87:\n      pop\n        /* \"contracts/Online/ERC20/TetherToken.sol\":11793:12037  function balanceOf(address who) public constant returns (uint) {\r... */\n      tag_55\n      and(calldataload(0x4), sub(exp(0x2, 0xa0), 0x1))\n      jump(tag_89)\n        /* \"contracts/Online/ERC20/TetherToken.sol\":8037:8129  function pause() onlyOwner whenNotPaused public {\r... */\n    tag_19:\n      callvalue\n        /* \"--CODEGEN--\":8:17   */\n      dup1\n        /* \"--CODEGEN--\":5:7   */\n      iszero\n      tag_90\n      jumpi\n        /* \"--CODEGEN--\":30:31   */\n      0x0\n        /* \"--CODEGEN--\":27:28   */\n      dup1\n        /* \"--CODEGEN--\":20:32   */\n      revert\n        /* \"--CODEGEN--\":5:7   */\n    tag_90:\n        /* \"contracts/Online/ERC20/TetherToken.sol\":8037:8129  function pause() onlyOwner whenNotPaused public {\r... */\n      pop\n      tag_43\n      jump(tag_92)\n        /* \"contracts/Online/ERC20/TetherToken.sol\":8620:8707  function getOwner() external constant returns (address) {\r... */\n    tag_20:\n      callvalue\n        /* \"--CODEGEN--\":8:17   */\n      dup1\n        /* \"--CODEGEN--\":5:7   */\n      iszero\n      tag_93\n      jumpi\n        /* \"--CODEGEN--\":30:31   */\n      0x0\n        /* \"--CODEGEN--\":27:28   */\n      dup1\n        /* \"--CODEGEN--\":20:32   */\n      revert\n        /* \"--CODEGEN--\":5:7   */\n    tag_93:\n        /* \"contracts/Online/ERC20/TetherToken.sol\":8620:8707  function getOwner() external constant returns (address) {\r... */\n      pop\n      tag_61\n      jump(tag_95)\n        /* \"contracts/Online/ERC20/TetherToken.sol\":1193:1213  address public owner */\n    tag_21:\n      callvalue\n        /* \"--CODEGEN--\":8:17   */\n      dup1\n        /* \"--CODEGEN--\":5:7   */\n      iszero\n      tag_96\n      jumpi\n        /* \"--CODEGEN--\":30:31   */\n      0x0\n        /* \"--CODEGEN--\":27:28   */\n      dup1\n        /* \"--CODEGEN--\":20:32   */\n      revert\n        /* \"--CODEGEN--\":5:7   */\n    tag_96:\n        /* \"contracts/Online/ERC20/TetherToken.sol\":1193:1213  address public owner */\n      pop\n      tag_61\n      jump(tag_98)\n        /* \"contracts/Online/ERC20/TetherToken.sol\":10137:10157  string public symbol */\n    tag_22:\n      callvalue\n        /* \"--CODEGEN--\":8:17   */\n      dup1\n        /* \"--CODEGEN--\":5:7   */\n      iszero\n      tag_99\n      jumpi\n        /* \"--CODEGEN--\":30:31   */\n      0x0\n        /* \"--CODEGEN--\":27:28   */\n      dup1\n        /* \"--CODEGEN--\":20:32   */\n      revert\n        /* \"--CODEGEN--\":5:7   */\n    tag_99:\n        /* \"contracts/Online/ERC20/TetherToken.sol\":10137:10157  string public symbol */\n      pop\n      tag_36\n      jump(tag_101)\n        /* \"contracts/Online/ERC20/TetherToken.sol\":10935:11261  function transfer(address _to, uint _value) public whenNotPaused {\r... */\n    tag_23:\n      callvalue\n        /* \"--CODEGEN--\":8:17   */\n      dup1\n        /* \"--CODEGEN--\":5:7   */\n      iszero\n      tag_106\n      jumpi\n        /* \"--CODEGEN--\":30:31   */\n      0x0\n        /* \"--CODEGEN--\":27:28   */\n      dup1\n        /* \"--CODEGEN--\":20:32   */\n      revert\n        /* \"--CODEGEN--\":5:7   */\n    tag_106:\n      pop\n        /* \"contracts/Online/ERC20/TetherToken.sol\":10935:11261  function transfer(address _to, uint _value) public whenNotPaused {\r... */\n      tag_43\n      and(calldataload(0x4), sub(exp(0x2, 0xa0), 0x1))\n      calldataload(0x24)\n      jump(tag_108)\n        /* \"contracts/Online/ERC20/TetherToken.sol\":1353:1416  function ownable() public {\r... */\n    tag_24:\n      callvalue\n        /* \"--CODEGEN--\":8:17   */\n      dup1\n        /* \"--CODEGEN--\":5:7   */\n      iszero\n      tag_109\n      jumpi\n        /* \"--CODEGEN--\":30:31   */\n      0x0\n        /* \"--CODEGEN--\":27:28   */\n      dup1\n        /* \"--CODEGEN--\":20:32   */\n      revert\n        /* \"--CODEGEN--\":5:7   */\n    tag_109:\n        /* \"contracts/Online/ERC20/TetherToken.sol\":1353:1416  function ownable() public {\r... */\n      pop\n      tag_43\n      jump(tag_111)\n        /* \"contracts/Online/ERC20/TetherToken.sol\":14249:14641  function setParams(uint newBasisPoints, uint newMaxFee) public onlyOwner {\r... */\n    tag_25:\n      callvalue\n        /* \"--CODEGEN--\":8:17   */\n      dup1\n        /* \"--CODEGEN--\":5:7   */\n      iszero\n      tag_112\n      jumpi\n        /* \"--CODEGEN--\":30:31   */\n      0x0\n        /* \"--CODEGEN--\":27:28   */\n      dup1\n        /* \"--CODEGEN--\":20:32   */\n      revert\n        /* \"--CODEGEN--\":5:7   */\n    tag_112:\n      pop\n        /* \"contracts/Online/ERC20/TetherToken.sol\":14249:14641  function setParams(uint newBasisPoints, uint newMaxFee) public onlyOwner {\r... */\n      tag_43\n      calldataload(0x4)\n      calldataload(0x24)\n      jump(tag_114)\n        /* \"contracts/Online/ERC20/TetherToken.sol\":13502:13768  function issue(uint amount) public onlyOwner {\r... */\n    tag_26:\n      callvalue\n        /* \"--CODEGEN--\":8:17   */\n      dup1\n        /* \"--CODEGEN--\":5:7   */\n      iszero\n      tag_115\n      jumpi\n        /* \"--CODEGEN--\":30:31   */\n      0x0\n        /* \"--CODEGEN--\":27:28   */\n      dup1\n        /* \"--CODEGEN--\":20:32   */\n      revert\n        /* \"--CODEGEN--\":5:7   */\n    tag_115:\n      pop\n        /* \"contracts/Online/ERC20/TetherToken.sol\":13502:13768  function issue(uint amount) public onlyOwner {\r... */\n      tag_43\n      calldataload(0x4)\n      jump(tag_117)\n        /* \"contracts/Online/ERC20/TetherToken.sol\":13999:14241  function redeem(uint amount) public onlyOwner {\r... */\n    tag_27:\n      callvalue\n        /* \"--CODEGEN--\":8:17   */\n      dup1\n        /* \"--CODEGEN--\":5:7   */\n      iszero\n      tag_118\n      jumpi\n        /* \"--CODEGEN--\":30:31   */\n      0x0\n        /* \"--CODEGEN--\":27:28   */\n      dup1\n        /* \"--CODEGEN--\":20:32   */\n      revert\n        /* \"--CODEGEN--\":5:7   */\n    tag_118:\n      pop\n        /* \"contracts/Online/ERC20/TetherToken.sol\":13999:14241  function redeem(uint amount) public onlyOwner {\r... */\n      tag_43\n      calldataload(0x4)\n      jump(tag_120)\n        /* \"contracts/Online/ERC20/TetherToken.sol\":12509:12802  function allowance(address _owner, address _spender) public constant returns (uint remaining) {\r... */\n    tag_28:\n      callvalue\n        /* \"--CODEGEN--\":8:17   */\n      dup1\n        /* \"--CODEGEN--\":5:7   */\n      iszero\n      tag_121\n      jumpi\n        /* \"--CODEGEN--\":30:31   */\n      0x0\n        /* \"--CODEGEN--\":27:28   */\n      dup1\n        /* \"--CODEGEN--\":20:32   */\n      revert\n        /* \"--CODEGEN--\":5:7   */\n    tag_121:\n      pop\n        /* \"contracts/Online/ERC20/TetherToken.sol\":12509:12802  function allowance(address _owner, address _spender) public constant returns (uint remaining) {\r... */\n      tag_55\n      sub(exp(0x2, 0xa0), 0x1)\n      calldataload(0x4)\n      dup2\n      and\n      swap1\n      calldataload(0x24)\n      and\n      jump(tag_123)\n        /* \"contracts/Online/ERC20/TetherToken.sol\":3110:3141  uint public basisPointsRate = 0 */\n    tag_29:\n      callvalue\n        /* \"--CODEGEN--\":8:17   */\n      dup1\n        /* \"--CODEGEN--\":5:7   */\n      iszero\n      tag_124\n      jumpi\n        /* \"--CODEGEN--\":30:31   */\n      0x0\n        /* \"--CODEGEN--\":27:28   */\n      dup1\n        /* \"--CODEGEN--\":20:32   */\n      revert\n        /* \"--CODEGEN--\":5:7   */\n    tag_124:\n        /* \"contracts/Online/ERC20/TetherToken.sol\":3110:3141  uint public basisPointsRate = 0 */\n      pop\n      tag_55\n      jump(tag_126)\n        /* \"contracts/Online/ERC20/TetherToken.sol\":8715:8761  mapping (address => bool) public isBlackListed */\n    tag_30:\n      callvalue\n        /* \"--CODEGEN--\":8:17   */\n      dup1\n        /* \"--CODEGEN--\":5:7   */\n      iszero\n      tag_127\n      jumpi\n        /* \"--CODEGEN--\":30:31   */\n      0x0\n        /* \"--CODEGEN--\":27:28   */\n      dup1\n        /* \"--CODEGEN--\":20:32   */\n      revert\n        /* \"--CODEGEN--\":5:7   */\n    tag_127:\n      pop\n        /* \"contracts/Online/ERC20/TetherToken.sol\":8715:8761  mapping (address => bool) public isBlackListed */\n      tag_49\n      and(calldataload(0x4), sub(exp(0x2, 0xa0), 0x1))\n      jump(tag_129)\n        /* \"contracts/Online/ERC20/TetherToken.sol\":8931:9095  function removeBlackList (address _clearedUser) public onlyOwner {\r... */\n    tag_31:\n      callvalue\n        /* \"--CODEGEN--\":8:17   */\n      dup1\n        /* \"--CODEGEN--\":5:7   */\n      iszero\n      tag_130\n      jumpi\n        /* \"--CODEGEN--\":30:31   */\n      0x0\n        /* \"--CODEGEN--\":27:28   */\n      dup1\n        /* \"--CODEGEN--\":20:32   */\n      revert\n        /* \"--CODEGEN--\":5:7   */\n    tag_130:\n      pop\n        /* \"contracts/Online/ERC20/TetherToken.sol\":8931:9095  function removeBlackList (address _clearedUser) public onlyOwner {\r... */\n      tag_43\n      and(calldataload(0x4), sub(exp(0x2, 0xa0), 0x1))\n      jump(tag_132)\n        /* \"contracts/Online/ERC20/TetherToken.sol\":4852:4894  uint public constant MAX_UINT = 2**256 - 1 */\n    tag_32:\n      callvalue\n        /* \"--CODEGEN--\":8:17   */\n      dup1\n        /* \"--CODEGEN--\":5:7   */\n      iszero\n      tag_133\n      jumpi\n        /* \"--CODEGEN--\":30:31   */\n      0x0\n        /* \"--CODEGEN--\":27:28   */\n      dup1\n        /* \"--CODEGEN--\":20:32   */\n      revert\n        /* \"--CODEGEN--\":5:7   */\n    tag_133:\n        /* \"contracts/Online/ERC20/TetherToken.sol\":4852:4894  uint public constant MAX_UINT = 2**256 - 1 */\n      pop\n      tag_55\n      jump(tag_135)\n        /* \"contracts/Online/ERC20/TetherToken.sol\":1765:1916  function transferOwnership(address newOwner) public onlyOwner {\r... */\n    tag_33:\n      callvalue\n        /* \"--CODEGEN--\":8:17   */\n      dup1\n        /* \"--CODEGEN--\":5:7   */\n      iszero\n      tag_136\n      jumpi\n        /* \"--CODEGEN--\":30:31   */\n      0x0\n        /* \"--CODEGEN--\":27:28   */\n      dup1\n        /* \"--CODEGEN--\":20:32   */\n      revert\n        /* \"--CODEGEN--\":5:7   */\n    tag_136:\n      pop\n        /* \"contracts/Online/ERC20/TetherToken.sol\":1765:1916  function transferOwnership(address newOwner) public onlyOwner {\r... */\n      tag_43\n      and(calldataload(0x4), sub(exp(0x2, 0xa0), 0x1))\n      jump(tag_138)\n        /* \"contracts/Online/ERC20/TetherToken.sol\":9103:9432  function destroyBlackFunds (address _blackListedUser) public onlyOwner {\r... */\n    tag_34:\n      callvalue\n        /* \"--CODEGEN--\":8:17   */\n      dup1\n        /* \"--CODEGEN--\":5:7   */\n      iszero\n      tag_139\n      jumpi\n        /* \"--CODEGEN--\":30:31   */\n      0x0\n        /* \"--CODEGEN--\":27:28   */\n      dup1\n        /* \"--CODEGEN--\":20:32   */\n      revert\n        /* \"--CODEGEN--\":5:7   */\n    tag_139:\n      pop\n        /* \"contracts/Online/ERC20/TetherToken.sol\":9103:9432  function destroyBlackFunds (address _blackListedUser) public onlyOwner {\r... */\n      tag_43\n      and(calldataload(0x4), sub(exp(0x2, 0xa0), 0x1))\n      jump(tag_141)\n        /* \"contracts/Online/ERC20/TetherToken.sol\":10112:10130  string public name */\n    tag_37:\n      0x7\n      dup1\n      sload\n      0x40\n      dup1\n      mload\n      0x20\n      0x2\n      0x1\n      dup6\n      and\n      iszero\n      0x100\n      mul\n      not(0x0)\n      add\n      swap1\n      swap5\n      and\n      swap4\n      swap1\n      swap4\n      div\n      0x1f\n      dup2\n      add\n      dup5\n      swap1\n      div\n      dup5\n      mul\n      dup3\n      add\n      dup5\n      add\n      swap1\n      swap3\n      mstore\n      dup2\n      dup2\n      mstore\n      swap3\n      swap2\n      dup4\n      add\n      dup3\n      dup3\n      dup1\n      iszero\n      tag_142\n      jumpi\n      dup1\n      0x1f\n      lt\n      tag_143\n      jumpi\n      0x100\n      dup1\n      dup4\n      sload\n      div\n      mul\n      dup4\n      mstore\n      swap2\n      0x20\n      add\n      swap2\n      jump(tag_142)\n    tag_143:\n      dup3\n      add\n      swap2\n      swap1\n      0x0\n      mstore\n      keccak256(0x0, 0x20)\n      swap1\n    tag_144:\n      dup2\n      sload\n      dup2\n      mstore\n      swap1\n      0x1\n      add\n      swap1\n      0x20\n      add\n      dup1\n      dup4\n      gt\n      tag_144\n      jumpi\n      dup3\n      swap1\n      sub\n      0x1f\n      and\n      dup3\n      add\n      swap2\n    tag_142:\n      pop\n      pop\n      pop\n      pop\n      pop\n      dup2\n      jump\t// out\n        /* \"contracts/Online/ERC20/TetherToken.sol\":12868:13054  function deprecate(address _upgradedAddress) public onlyOwner {\r... */\n    tag_44:\n        /* \"contracts/Online/ERC20/TetherToken.sol\":1565:1570  owner */\n      and(sub(exp(0x2, 0xa0), 0x1), sload(0x0))\n        /* \"contracts/Online/ERC20/TetherToken.sol\":1551:1561  msg.sender */\n      caller\n        /* \"contracts/Online/ERC20/TetherToken.sol\":1551:1570  msg.sender == owner */\n      eq\n        /* \"contracts/Online/ERC20/TetherToken.sol\":1543:1571  require(msg.sender == owner) */\n      tag_146\n      jumpi\n      0x0\n      dup1\n      revert\n    tag_146:\n        /* \"contracts/Online/ERC20/TetherToken.sol\":12941:12951  deprecated */\n      0xa\n        /* \"contracts/Online/ERC20/TetherToken.sol\":12941:12958  deprecated = true */\n      dup1\n      sload\n      exp(0x2, 0xa0)\n      not(0xff0000000000000000000000000000000000000000)\n      swap1\n      swap2\n      and\n      or\n      not(0xffffffffffffffffffffffffffffffffffffffff)\n        /* \"contracts/Online/ERC20/TetherToken.sol\":12969:13003  upgradedAddress = _upgradedAddress */\n      and\n      sub(exp(0x2, 0xa0), 0x1)\n      dup4\n      and\n      swap1\n      dup2\n      or\n      swap1\n      swap2\n      sstore\n        /* \"contracts/Online/ERC20/TetherToken.sol\":13019:13046  Deprecate(_upgradedAddress) */\n      0x40\n      dup1\n      mload\n      swap2\n      dup3\n      mstore\n      mload\n      0xcc358699805e9a8b7f77b522628c7cb9abd07d9efb86b6fb616af1609036a99e\n      swap2\n      0x20\n      swap1\n      dup3\n      swap1\n      sub\n      add\n      swap1\n      log1\n        /* \"contracts/Online/ERC20/TetherToken.sol\":12868:13054  function deprecate(address _upgradedAddress) public onlyOwner {\r... */\n      pop\n      jump\t// out\n        /* \"contracts/Online/ERC20/TetherToken.sol\":12122:12424  function approve(address _spender, uint _value) public onlyPayloadSize(2 * 32) {\r... */\n    tag_47:\n        /* \"contracts/Online/ERC20/TetherToken.sol\":12193:12199  2 * 32 */\n      0x40\n        /* \"contracts/Online/ERC20/TetherToken.sol\":3327:3335  size + 4 */\n      0x44\n        /* \"contracts/Online/ERC20/TetherToken.sol\":3309:3317  msg.data */\n      calldatasize\n        /* \"contracts/Online/ERC20/TetherToken.sol\":3309:3335  msg.data.length < size + 4 */\n      lt\n        /* \"contracts/Online/ERC20/TetherToken.sol\":3307:3336  !(msg.data.length < size + 4) */\n      iszero\n        /* \"contracts/Online/ERC20/TetherToken.sol\":3299:3337  require(!(msg.data.length < size + 4)) */\n      tag_149\n      jumpi\n      0x0\n      dup1\n      revert\n    tag_149:\n        /* \"contracts/Online/ERC20/TetherToken.sol\":12216:12226  deprecated */\n      sload(0xa)\n      exp(0x2, 0xa0)\n      swap1\n      div\n      0xff\n      and\n        /* \"contracts/Online/ERC20/TetherToken.sol\":12212:12417  if (deprecated) {\r... */\n      iszero\n      tag_151\n      jumpi\n        /* \"contracts/Online/ERC20/TetherToken.sol\":12272:12287  upgradedAddress */\n      sload(0xa)\n        /* \"contracts/Online/ERC20/TetherToken.sol\":12250:12334  UpgradedStandardToken(upgradedAddress).approveByLegacy(msg.sender, _spender, _value) */\n      0x40\n      dup1\n      mload\n      0xaee92d3300000000000000000000000000000000000000000000000000000000\n      dup2\n      mstore\n        /* \"contracts/Online/ERC20/TetherToken.sol\":12305:12315  msg.sender */\n      caller\n        /* \"contracts/Online/ERC20/TetherToken.sol\":12250:12334  UpgradedStandardToken(upgradedAddress).approveByLegacy(msg.sender, _spender, _value) */\n      0x4\n      dup3\n      add\n      mstore\n      sub(exp(0x2, 0xa0), 0x1)\n      dup7\n      dup2\n      and\n      0x24\n      dup4\n      add\n      mstore\n      0x44\n      dup3\n      add\n      dup7\n      swap1\n      mstore\n      swap2\n      mload\n        /* \"contracts/Online/ERC20/TetherToken.sol\":12272:12287  upgradedAddress */\n      swap2\n      swap1\n      swap3\n      and\n      swap2\n        /* \"contracts/Online/ERC20/TetherToken.sol\":12250:12304  UpgradedStandardToken(upgradedAddress).approveByLegacy */\n      0xaee92d33\n      swap2\n        /* \"contracts/Online/ERC20/TetherToken.sol\":12250:12334  UpgradedStandardToken(upgradedAddress).approveByLegacy(msg.sender, _spender, _value) */\n      0x64\n      dup1\n      dup4\n      add\n      swap3\n        /* \"contracts/Online/ERC20/TetherToken.sol\":12272:12287  upgradedAddress */\n      0x0\n      swap3\n        /* \"contracts/Online/ERC20/TetherToken.sol\":12250:12334  UpgradedStandardToken(upgradedAddress).approveByLegacy(msg.sender, _spender, _value) */\n      swap2\n      swap1\n      dup3\n      swap1\n      sub\n      add\n      dup2\n        /* \"contracts/Online/ERC20/TetherToken.sol\":12272:12287  upgradedAddress */\n      dup4\n      dup8\n        /* \"contracts/Online/ERC20/TetherToken.sol\":12250:12334  UpgradedStandardToken(upgradedAddress).approveByLegacy(msg.sender, _spender, _value) */\n      dup1\n      extcodesize\n      iszero\n        /* \"--CODEGEN--\":5:7   */\n      dup1\n      iszero\n      tag_152\n      jumpi\n        /* \"--CODEGEN--\":30:31   */\n      0x0\n        /* \"--CODEGEN--\":27:28   */\n      dup1\n        /* \"--CODEGEN--\":20:32   */\n      revert\n        /* \"--CODEGEN--\":5:7   */\n    tag_152:\n        /* \"contracts/Online/ERC20/TetherToken.sol\":12250:12334  UpgradedStandardToken(upgradedAddress).approveByLegacy(msg.sender, _spender, _value) */\n      pop\n      gas\n      call\n      iszero\n        /* \"--CODEGEN--\":8:17   */\n      dup1\n        /* \"--CODEGEN--\":5:7   */\n      iszero\n      tag_153\n      jumpi\n        /* \"--CODEGEN--\":45:61   */\n      returndatasize\n        /* \"--CODEGEN--\":42:43   */\n      0x0\n        /* \"--CODEGEN--\":39:40   */\n      dup1\n        /* \"--CODEGEN--\":24:62   */\n      returndatacopy\n        /* \"--CODEGEN--\":77:93   */\n      returndatasize\n        /* \"--CODEGEN--\":74:75   */\n      0x0\n        /* \"--CODEGEN--\":67:94   */\n      revert\n        /* \"--CODEGEN--\":5:7   */\n    tag_153:\n        /* \"contracts/Online/ERC20/TetherToken.sol\":12250:12334  UpgradedStandardToken(upgradedAddress).approveByLegacy(msg.sender, _spender, _value) */\n      pop\n      pop\n      pop\n      pop\n        /* \"contracts/Online/ERC20/TetherToken.sol\":12243:12334  return UpgradedStandardToken(upgradedAddress).approveByLegacy(msg.sender, _spender, _value) */\n      jump(tag_155)\n        /* \"contracts/Online/ERC20/TetherToken.sol\":12212:12417  if (deprecated) {\r... */\n    tag_151:\n        /* \"contracts/Online/ERC20/TetherToken.sol\":12374:12405  super.approve(_spender, _value) */\n      tag_155\n        /* \"contracts/Online/ERC20/TetherToken.sol\":12388:12396  _spender */\n      dup4\n        /* \"contracts/Online/ERC20/TetherToken.sol\":12398:12404  _value */\n      dup4\n        /* \"contracts/Online/ERC20/TetherToken.sol\":12374:12387  super.approve */\n      tag_156\n        /* \"contracts/Online/ERC20/TetherToken.sol\":12374:12405  super.approve(_spender, _value) */\n      jump\t// in\n    tag_155:\n        /* \"contracts/Online/ERC20/TetherToken.sol\":12122:12424  function approve(address _spender, uint _value) public onlyPayloadSize(2 * 32) {\r... */\n      pop\n      pop\n      pop\n      jump\t// out\n        /* \"contracts/Online/ERC20/TetherToken.sol\":10228:10250  bool public deprecated */\n    tag_50:\n      sload(0xa)\n      exp(0x2, 0xa0)\n      swap1\n      div\n      0xff\n      and\n      dup2\n      jump\t// out\n        /* \"contracts/Online/ERC20/TetherToken.sol\":8774:8923  function addBlackList (address _evilUser) public onlyOwner {\r... */\n    tag_53:\n        /* \"contracts/Online/ERC20/TetherToken.sol\":1565:1570  owner */\n      and(sub(exp(0x2, 0xa0), 0x1), sload(0x0))\n        /* \"contracts/Online/ERC20/TetherToken.sol\":1551:1561  msg.sender */\n      caller\n        /* \"contracts/Online/ERC20/TetherToken.sol\":1551:1570  msg.sender == owner */\n      eq\n        /* \"contracts/Online/ERC20/TetherToken.sol\":1543:1571  require(msg.sender == owner) */\n      tag_158\n      jumpi\n      0x0\n      dup1\n      revert\n    tag_158:\n      sub(exp(0x2, 0xa0), 0x1)\n        /* \"contracts/Online/ERC20/TetherToken.sol\":8844:8868  isBlackListed[_evilUser] */\n      dup2\n      and\n      0x0\n      dup2\n      dup2\n      mstore\n        /* \"contracts/Online/ERC20/TetherToken.sol\":8844:8857  isBlackListed */\n      0x6\n        /* \"contracts/Online/ERC20/TetherToken.sol\":8844:8868  isBlackListed[_evilUser] */\n      0x20\n      swap1\n      dup2\n      mstore\n      0x40\n      swap2\n      dup3\n      swap1\n      keccak256\n        /* \"contracts/Online/ERC20/TetherToken.sol\":8844:8875  isBlackListed[_evilUser] = true */\n      dup1\n      sload\n      not(0xff)\n      and\n        /* \"contracts/Online/ERC20/TetherToken.sol\":8871:8875  true */\n      0x1\n        /* \"contracts/Online/ERC20/TetherToken.sol\":8844:8875  isBlackListed[_evilUser] = true */\n      or\n      swap1\n      sstore\n        /* \"contracts/Online/ERC20/TetherToken.sol\":8890:8915  AddedBlackList(_evilUser) */\n      dup2\n      mload\n      swap3\n      dup4\n      mstore\n      swap1\n      mload\n      0x42e160154868087d6bfdc0ca23d96a1c1cfa32f1b72ba9ba27b69b98a0d819dc\n      swap3\n      dup2\n      swap1\n      sub\n      swap1\n      swap2\n      add\n      swap1\n      log1\n        /* \"contracts/Online/ERC20/TetherToken.sol\":8774:8923  function addBlackList (address _evilUser) public onlyOwner {\r... */\n      pop\n      jump\t// out\n        /* \"contracts/Online/ERC20/TetherToken.sol\":13120:13338  function totalSupply() public constant returns (uint) {\r... */\n    tag_56:\n        /* \"contracts/Online/ERC20/TetherToken.sol\":13189:13199  deprecated */\n      sload(0xa)\n        /* \"contracts/Online/ERC20/TetherToken.sol\":13168:13172  uint */\n      0x0\n      swap1\n      exp(0x2, 0xa0)\n        /* \"contracts/Online/ERC20/TetherToken.sol\":13189:13199  deprecated */\n      swap1\n      div\n      0xff\n      and\n        /* \"contracts/Online/ERC20/TetherToken.sol\":13185:13331  if (deprecated) {\r... */\n      iszero\n      tag_161\n      jumpi\n        /* \"contracts/Online/ERC20/TetherToken.sol\":13237:13252  upgradedAddress */\n      0xa\n      0x0\n      swap1\n      sload\n      swap1\n      0x100\n      exp\n      swap1\n      div\n      sub(exp(0x2, 0xa0), 0x1)\n      and\n      sub(exp(0x2, 0xa0), 0x1)\n        /* \"contracts/Online/ERC20/TetherToken.sol\":13223:13265  StandardToken(upgradedAddress).totalSupply */\n      and\n      0x18160ddd\n        /* \"contracts/Online/ERC20/TetherToken.sol\":13223:13267  StandardToken(upgradedAddress).totalSupply() */\n      mload(0x40)\n      dup2\n      0xffffffff\n      and\n      0x100000000000000000000000000000000000000000000000000000000\n      mul\n      dup2\n      mstore\n      0x4\n      add\n      0x20\n      mload(0x40)\n      dup1\n      dup4\n      sub\n      dup2\n      0x0\n      dup8\n      dup1\n      extcodesize\n      iszero\n        /* \"--CODEGEN--\":8:17   */\n      dup1\n        /* \"--CODEGEN--\":5:7   */\n      iszero\n      tag_162\n      jumpi\n        /* \"--CODEGEN--\":30:31   */\n      0x0\n        /* \"--CODEGEN--\":27:28   */\n      dup1\n        /* \"--CODEGEN--\":20:32   */\n      revert\n        /* \"--CODEGEN--\":5:7   */\n    tag_162:\n        /* \"contracts/Online/ERC20/TetherToken.sol\":13223:13267  StandardToken(upgradedAddress).totalSupply() */\n      pop\n      gas\n      call\n      iszero\n        /* \"--CODEGEN--\":8:17   */\n      dup1\n        /* \"--CODEGEN--\":5:7   */\n      iszero\n      tag_163\n      jumpi\n        /* \"--CODEGEN--\":45:61   */\n      returndatasize\n        /* \"--CODEGEN--\":42:43   */\n      0x0\n        /* \"--CODEGEN--\":39:40   */\n      dup1\n        /* \"--CODEGEN--\":24:62   */\n      returndatacopy\n        /* \"--CODEGEN--\":77:93   */\n      returndatasize\n        /* \"--CODEGEN--\":74:75   */\n      0x0\n        /* \"--CODEGEN--\":67:94   */\n      revert\n        /* \"--CODEGEN--\":5:7   */\n    tag_163:\n        /* \"contracts/Online/ERC20/TetherToken.sol\":13223:13267  StandardToken(upgradedAddress).totalSupply() */\n      pop\n      pop\n      pop\n      pop\n      mload(0x40)\n      returndatasize\n        /* \"--CODEGEN--\":13:15   */\n      0x20\n        /* \"--CODEGEN--\":8:11   */\n      dup2\n        /* \"--CODEGEN--\":5:16   */\n      lt\n        /* \"--CODEGEN--\":2:4   */\n      iszero\n      tag_164\n      jumpi\n        /* \"--CODEGEN--\":29:30   */\n      0x0\n        /* \"--CODEGEN--\":26:27   */\n      dup1\n        /* \"--CODEGEN--\":19:31   */\n      revert\n        /* \"--CODEGEN--\":2:4   */\n    tag_164:\n      pop\n        /* \"contracts/Online/ERC20/TetherToken.sol\":13223:13267  StandardToken(upgradedAddress).totalSupply() */\n      mload\n      swap1\n      pop\n        /* \"contracts/Online/ERC20/TetherToken.sol\":13216:13267  return StandardToken(upgradedAddress).totalSupply() */\n      jump(tag_165)\n        /* \"contracts/Online/ERC20/TetherToken.sol\":13185:13331  if (deprecated) {\r... */\n    tag_161:\n      pop\n        /* \"contracts/Online/ERC20/TetherToken.sol\":13307:13319  _totalSupply */\n      sload(0x1)\n        /* \"contracts/Online/ERC20/TetherToken.sol\":13185:13331  if (deprecated) {\r... */\n    tag_165:\n        /* \"contracts/Online/ERC20/TetherToken.sol\":13120:13338  function totalSupply() public constant returns (uint) {\r... */\n      swap1\n      jump\t// out\n        /* \"contracts/Online/ERC20/TetherToken.sol\":11346:11708  function transferFrom(address _from, address _to, uint _value) public whenNotPaused {\r... */\n    tag_59:\n        /* \"contracts/Online/ERC20/TetherToken.sol\":7772:7778  paused */\n      sload(0x0)\n      exp(0x2, 0xa0)\n      swap1\n      div\n      0xff\n      and\n        /* \"contracts/Online/ERC20/TetherToken.sol\":7771:7778  !paused */\n      iszero\n        /* \"contracts/Online/ERC20/TetherToken.sol\":7763:7779  require(!paused) */\n      tag_167\n      jumpi\n      0x0\n      dup1\n      revert\n    tag_167:\n      sub(exp(0x2, 0xa0), 0x1)\n        /* \"contracts/Online/ERC20/TetherToken.sol\":11450:11470  isBlackListed[_from] */\n      dup4\n      and\n      0x0\n      swap1\n      dup2\n      mstore\n        /* \"contracts/Online/ERC20/TetherToken.sol\":11450:11463  isBlackListed */\n      0x6\n        /* \"contracts/Online/ERC20/TetherToken.sol\":11450:11470  isBlackListed[_from] */\n      0x20\n      mstore\n      0x40\n      swap1\n      keccak256\n      sload\n      0xff\n      and\n        /* \"contracts/Online/ERC20/TetherToken.sol\":11449:11470  !isBlackListed[_from] */\n      iszero\n        /* \"contracts/Online/ERC20/TetherToken.sol\":11441:11471  require(!isBlackListed[_from]) */\n      tag_169\n      jumpi\n      0x0\n      dup1\n      revert\n    tag_169:\n        /* \"contracts/Online/ERC20/TetherToken.sol\":11486:11496  deprecated */\n      sload(0xa)\n      exp(0x2, 0xa0)\n      swap1\n      div\n      0xff\n      and\n        /* \"contracts/Online/ERC20/TetherToken.sol\":11482:11701  if (deprecated) {\r... */\n      iszero\n      tag_170\n      jumpi\n        /* \"contracts/Online/ERC20/TetherToken.sol\":11542:11557  upgradedAddress */\n      sload(0xa)\n        /* \"contracts/Online/ERC20/TetherToken.sol\":11520:11611  UpgradedStandardToken(upgradedAddress).transferFromByLegacy(msg.sender, _from, _to, _value) */\n      0x40\n      dup1\n      mload\n      0x8b477adb00000000000000000000000000000000000000000000000000000000\n      dup2\n      mstore\n        /* \"contracts/Online/ERC20/TetherToken.sol\":11580:11590  msg.sender */\n      caller\n        /* \"contracts/Online/ERC20/TetherToken.sol\":11520:11611  UpgradedStandardToken(upgradedAddress).transferFromByLegacy(msg.sender, _from, _to, _value) */\n      0x4\n      dup3\n      add\n      mstore\n      sub(exp(0x2, 0xa0), 0x1)\n      dup7\n      dup2\n      and\n      0x24\n      dup4\n      add\n      mstore\n      dup6\n      dup2\n      and\n      0x44\n      dup4\n      add\n      mstore\n      0x64\n      dup3\n      add\n      dup6\n      swap1\n      mstore\n      swap2\n      mload\n        /* \"contracts/Online/ERC20/TetherToken.sol\":11542:11557  upgradedAddress */\n      swap2\n      swap1\n      swap3\n      and\n      swap2\n        /* \"contracts/Online/ERC20/TetherToken.sol\":11520:11579  UpgradedStandardToken(upgradedAddress).transferFromByLegacy */\n      0x8b477adb\n      swap2\n        /* \"contracts/Online/ERC20/TetherToken.sol\":11520:11611  UpgradedStandardToken(upgradedAddress).transferFromByLegacy(msg.sender, _from, _to, _value) */\n      0x84\n      dup1\n      dup4\n      add\n      swap3\n        /* \"contracts/Online/ERC20/TetherToken.sol\":11542:11557  upgradedAddress */\n      0x0\n      swap3\n        /* \"contracts/Online/ERC20/TetherToken.sol\":11520:11611  UpgradedStandardToken(upgradedAddress).transferFromByLegacy(msg.sender, _from, _to, _value) */\n      swap2\n      swap1\n      dup3\n      swap1\n      sub\n      add\n      dup2\n        /* \"contracts/Online/ERC20/TetherToken.sol\":11542:11557  upgradedAddress */\n      dup4\n      dup8\n        /* \"contracts/Online/ERC20/TetherToken.sol\":11520:11611  UpgradedStandardToken(upgradedAddress).transferFromByLegacy(msg.sender, _from, _to, _value) */\n      dup1\n      extcodesize\n      iszero\n        /* \"--CODEGEN--\":5:7   */\n      dup1\n      iszero\n      tag_152\n      jumpi\n        /* \"--CODEGEN--\":30:31   */\n      0x0\n        /* \"--CODEGEN--\":27:28   */\n      dup1\n        /* \"--CODEGEN--\":20:32   */\n      revert\n        /* \"contracts/Online/ERC20/TetherToken.sol\":11482:11701  if (deprecated) {\r... */\n    tag_170:\n        /* \"contracts/Online/ERC20/TetherToken.sol\":11651:11689  super.transferFrom(_from, _to, _value) */\n      tag_155\n        /* \"contracts/Online/ERC20/TetherToken.sol\":11670:11675  _from */\n      dup4\n        /* \"contracts/Online/ERC20/TetherToken.sol\":11677:11680  _to */\n      dup4\n        /* \"contracts/Online/ERC20/TetherToken.sol\":11682:11688  _value */\n      dup4\n        /* \"contracts/Online/ERC20/TetherToken.sol\":11651:11669  super.transferFrom */\n      tag_175\n        /* \"contracts/Online/ERC20/TetherToken.sol\":11651:11689  super.transferFrom(_from, _to, _value) */\n      jump\t// in\n        /* \"contracts/Online/ERC20/TetherToken.sol\":10191:10221  address public upgradedAddress */\n    tag_62:\n      and(sub(exp(0x2, 0xa0), 0x1), sload(0xa))\n      dup2\n      jump\t// out\n        /* \"contracts/Online/ERC20/TetherToken.sol\":2982:3022  mapping(address => uint) public balances */\n    tag_65:\n      mstore(0x20, 0x2)\n      0x0\n      swap1\n      dup2\n      mstore\n      0x40\n      swap1\n      keccak256\n      sload\n      dup2\n      jump\t// out\n        /* \"contracts/Online/ERC20/TetherToken.sol\":10164:10184  uint public decimals */\n    tag_68:\n      sload(0x9)\n      dup2\n      jump\t// out\n        /* \"contracts/Online/ERC20/TetherToken.sol\":3148:3174  uint public maximumFee = 0 */\n    tag_71:\n      sload(0x4)\n      dup2\n      jump\t// out\n        /* \"contracts/Online/ERC20/TetherToken.sol\":2084:2108  uint public _totalSupply */\n    tag_74:\n      sload(0x1)\n      dup2\n      jump\t// out\n        /* \"contracts/Online/ERC20/TetherToken.sol\":8216:8310  function unpause() onlyOwner whenPaused public {\r... */\n    tag_77:\n        /* \"contracts/Online/ERC20/TetherToken.sol\":1565:1570  owner */\n      and(sub(exp(0x2, 0xa0), 0x1), sload(0x0))\n        /* \"contracts/Online/ERC20/TetherToken.sol\":1551:1561  msg.sender */\n      caller\n        /* \"contracts/Online/ERC20/TetherToken.sol\":1551:1570  msg.sender == owner */\n      eq\n        /* \"contracts/Online/ERC20/TetherToken.sol\":1543:1571  require(msg.sender == owner) */\n      tag_177\n      jumpi\n      0x0\n      dup1\n      revert\n    tag_177:\n        /* \"contracts/Online/ERC20/TetherToken.sol\":7932:7938  paused */\n      sload(0x0)\n      exp(0x2, 0xa0)\n      swap1\n      div\n      0xff\n      and\n        /* \"contracts/Online/ERC20/TetherToken.sol\":7924:7939  require(paused) */\n      iszero\n      iszero\n      tag_179\n      jumpi\n      0x0\n      dup1\n      revert\n    tag_179:\n        /* \"contracts/Online/ERC20/TetherToken.sol\":8279:8284  false */\n      0x0\n        /* \"contracts/Online/ERC20/TetherToken.sol\":8270:8284  paused = false */\n      dup1\n      sload\n      not(0xff0000000000000000000000000000000000000000)\n      and\n      dup2\n      sstore\n        /* \"contracts/Online/ERC20/TetherToken.sol\":8295:8304  Unpause() */\n      mload(0x40)\n      0x7805862f689e2f13df9f062ff482ad3ad112aca9e0847911ed832e158c525b33\n      swap2\n        /* \"contracts/Online/ERC20/TetherToken.sol\":8279:8284  false */\n      swap1\n        /* \"contracts/Online/ERC20/TetherToken.sol\":8295:8304  Unpause() */\n      log1\n        /* \"contracts/Online/ERC20/TetherToken.sol\":8216:8310  function unpause() onlyOwner whenPaused public {\r... */\n      jump\t// out\n        /* \"contracts/Online/ERC20/TetherToken.sol\":8488:8612  function getBlackListStatus(address _maker) external constant returns (bool) {\r... */\n    tag_80:\n      sub(exp(0x2, 0xa0), 0x1)\n        /* \"contracts/Online/ERC20/TetherToken.sol\":8583:8604  isBlackListed[_maker] */\n      dup2\n      and\n        /* \"contracts/Online/ERC20/TetherToken.sol\":8559:8563  bool */\n      0x0\n        /* \"contracts/Online/ERC20/TetherToken.sol\":8583:8604  isBlackListed[_maker] */\n      swap1\n      dup2\n      mstore\n        /* \"contracts/Online/ERC20/TetherToken.sol\":8583:8596  isBlackListed */\n      0x6\n        /* \"contracts/Online/ERC20/TetherToken.sol\":8583:8604  isBlackListed[_maker] */\n      0x20\n      mstore\n      0x40\n      swap1\n      keccak256\n      sload\n      0xff\n      and\n        /* \"contracts/Online/ERC20/TetherToken.sol\":8488:8612  function getBlackListStatus(address _maker) external constant returns (bool) {\r... */\n    tag_181:\n      swap2\n      swap1\n      pop\n      jump\t// out\n        /* \"contracts/Online/ERC20/TetherToken.sol\":4782:4843  mapping (address => mapping (address => uint)) public allowed */\n    tag_83:\n      0x5\n      0x20\n      swap1\n      dup2\n      mstore\n      0x0\n      swap3\n      dup4\n      mstore\n      0x40\n      dup1\n      dup5\n      keccak256\n      swap1\n      swap2\n      mstore\n      swap1\n      dup3\n      mstore\n      swap1\n      keccak256\n      sload\n      dup2\n      jump\t// out\n        /* \"contracts/Online/ERC20/TetherToken.sol\":7596:7622  bool public paused = false */\n    tag_86:\n      sload(0x0)\n      exp(0x2, 0xa0)\n      swap1\n      div\n      0xff\n      and\n      dup2\n      jump\t// out\n        /* \"contracts/Online/ERC20/TetherToken.sol\":11793:12037  function balanceOf(address who) public constant returns (uint) {\r... */\n    tag_89:\n        /* \"contracts/Online/ERC20/TetherToken.sol\":11871:11881  deprecated */\n      sload(0xa)\n        /* \"contracts/Online/ERC20/TetherToken.sol\":11850:11854  uint */\n      0x0\n      swap1\n      exp(0x2, 0xa0)\n        /* \"contracts/Online/ERC20/TetherToken.sol\":11871:11881  deprecated */\n      swap1\n      div\n      0xff\n      and\n        /* \"contracts/Online/ERC20/TetherToken.sol\":11867:12030  if (deprecated) {\r... */\n      iszero\n      tag_183\n      jumpi\n        /* \"contracts/Online/ERC20/TetherToken.sol\":11927:11942  upgradedAddress */\n      sload(0xa)\n        /* \"contracts/Online/ERC20/TetherToken.sol\":11905:11958  UpgradedStandardToken(upgradedAddress).balanceOf(who) */\n      0x40\n      dup1\n      mload\n      0x70a0823100000000000000000000000000000000000000000000000000000000\n      dup2\n      mstore\n      sub(exp(0x2, 0xa0), 0x1)\n      dup6\n      dup2\n      and\n      0x4\n      dup4\n      add\n      mstore\n      swap2\n      mload\n        /* \"contracts/Online/ERC20/TetherToken.sol\":11927:11942  upgradedAddress */\n      swap2\n      swap1\n      swap3\n      and\n      swap2\n        /* \"contracts/Online/ERC20/TetherToken.sol\":11905:11953  UpgradedStandardToken(upgradedAddress).balanceOf */\n      0x70a08231\n      swap2\n        /* \"contracts/Online/ERC20/TetherToken.sol\":11905:11958  UpgradedStandardToken(upgradedAddress).balanceOf(who) */\n      0x24\n      dup1\n      dup4\n      add\n      swap3\n      0x20\n      swap3\n      swap2\n      swap1\n      dup3\n      swap1\n      sub\n      add\n      dup2\n        /* \"contracts/Online/ERC20/TetherToken.sol\":11927:11942  upgradedAddress */\n      0x0\n      dup8\n        /* \"contracts/Online/ERC20/TetherToken.sol\":11905:11958  UpgradedStandardToken(upgradedAddress).balanceOf(who) */\n      dup1\n      extcodesize\n      iszero\n        /* \"--CODEGEN--\":5:7   */\n      dup1\n      iszero\n      tag_184\n      jumpi\n        /* \"--CODEGEN--\":30:31   */\n      0x0\n        /* \"--CODEGEN--\":27:28   */\n      dup1\n        /* \"--CODEGEN--\":20:32   */\n      revert\n        /* \"--CODEGEN--\":5:7   */\n    tag_184:\n        /* \"contracts/Online/ERC20/TetherToken.sol\":11905:11958  UpgradedStandardToken(upgradedAddress).balanceOf(who) */\n      pop\n      gas\n      call\n      iszero\n        /* \"--CODEGEN--\":8:17   */\n      dup1\n        /* \"--CODEGEN--\":5:7   */\n      iszero\n      tag_185\n      jumpi\n        /* \"--CODEGEN--\":45:61   */\n      returndatasize\n        /* \"--CODEGEN--\":42:43   */\n      0x0\n        /* \"--CODEGEN--\":39:40   */\n      dup1\n        /* \"--CODEGEN--\":24:62   */\n      returndatacopy\n        /* \"--CODEGEN--\":77:93   */\n      returndatasize\n        /* \"--CODEGEN--\":74:75   */\n      0x0\n        /* \"--CODEGEN--\":67:94   */\n      revert\n        /* \"--CODEGEN--\":5:7   */\n    tag_185:\n        /* \"contracts/Online/ERC20/TetherToken.sol\":11905:11958  UpgradedStandardToken(upgradedAddress).balanceOf(who) */\n      pop\n      pop\n      pop\n      pop\n      mload(0x40)\n      returndatasize\n        /* \"--CODEGEN--\":13:15   */\n      0x20\n        /* \"--CODEGEN--\":8:11   */\n      dup2\n        /* \"--CODEGEN--\":5:16   */\n      lt\n        /* \"--CODEGEN--\":2:4   */\n      iszero\n      tag_186\n      jumpi\n        /* \"--CODEGEN--\":29:30   */\n      0x0\n        /* \"--CODEGEN--\":26:27   */\n      dup1\n        /* \"--CODEGEN--\":19:31   */\n      revert\n        /* \"--CODEGEN--\":2:4   */\n    tag_186:\n      pop\n        /* \"contracts/Online/ERC20/TetherToken.sol\":11905:11958  UpgradedStandardToken(upgradedAddress).balanceOf(who) */\n      mload\n      swap1\n      pop\n        /* \"contracts/Online/ERC20/TetherToken.sol\":11898:11958  return UpgradedStandardToken(upgradedAddress).balanceOf(who) */\n      jump(tag_181)\n        /* \"contracts/Online/ERC20/TetherToken.sol\":11867:12030  if (deprecated) {\r... */\n    tag_183:\n        /* \"contracts/Online/ERC20/TetherToken.sol\":11998:12018  super.balanceOf(who) */\n      tag_188\n        /* \"contracts/Online/ERC20/TetherToken.sol\":12014:12017  who */\n      dup3\n        /* \"contracts/Online/ERC20/TetherToken.sol\":11998:12013  super.balanceOf */\n      tag_189\n        /* \"contracts/Online/ERC20/TetherToken.sol\":11998:12018  super.balanceOf(who) */\n      jump\t// in\n    tag_188:\n        /* \"contracts/Online/ERC20/TetherToken.sol\":11991:12018  return super.balanceOf(who) */\n      swap1\n      pop\n      jump(tag_181)\n        /* \"contracts/Online/ERC20/TetherToken.sol\":8037:8129  function pause() onlyOwner whenNotPaused public {\r... */\n    tag_92:\n        /* \"contracts/Online/ERC20/TetherToken.sol\":1565:1570  owner */\n      and(sub(exp(0x2, 0xa0), 0x1), sload(0x0))\n        /* \"contracts/Online/ERC20/TetherToken.sol\":1551:1561  msg.sender */\n      caller\n        /* \"contracts/Online/ERC20/TetherToken.sol\":1551:1570  msg.sender == owner */\n      eq\n        /* \"contracts/Online/ERC20/TetherToken.sol\":1543:1571  require(msg.sender == owner) */\n      tag_191\n      jumpi\n      0x0\n      dup1\n      revert\n    tag_191:\n        /* \"contracts/Online/ERC20/TetherToken.sol\":7772:7778  paused */\n      sload(0x0)\n      exp(0x2, 0xa0)\n      swap1\n      div\n      0xff\n      and\n        /* \"contracts/Online/ERC20/TetherToken.sol\":7771:7778  !paused */\n      iszero\n        /* \"contracts/Online/ERC20/TetherToken.sol\":7763:7779  require(!paused) */\n      tag_193\n      jumpi\n      0x0\n      dup1\n      revert\n    tag_193:\n        /* \"contracts/Online/ERC20/TetherToken.sol\":8092:8098  paused */\n      0x0\n        /* \"contracts/Online/ERC20/TetherToken.sol\":8092:8105  paused = true */\n      dup1\n      sload\n      not(0xff0000000000000000000000000000000000000000)\n      and\n      exp(0x2, 0xa0)\n      or\n      dup2\n      sstore\n        /* \"contracts/Online/ERC20/TetherToken.sol\":8116:8123  Pause() */\n      mload(0x40)\n      0x6985a02210a168e66602d3235cb6db0e70f92b3ba4d376a33c0f3d9434bff625\n      swap2\n        /* \"contracts/Online/ERC20/TetherToken.sol\":8092:8098  paused */\n      swap1\n        /* \"contracts/Online/ERC20/TetherToken.sol\":8116:8123  Pause() */\n      log1\n        /* \"contracts/Online/ERC20/TetherToken.sol\":8037:8129  function pause() onlyOwner whenNotPaused public {\r... */\n      jump\t// out\n        /* \"contracts/Online/ERC20/TetherToken.sol\":8620:8707  function getOwner() external constant returns (address) {\r... */\n    tag_95:\n        /* \"contracts/Online/ERC20/TetherToken.sol\":8667:8674  address */\n      0x0\n        /* \"contracts/Online/ERC20/TetherToken.sol\":8694:8699  owner */\n      sload\n      sub(exp(0x2, 0xa0), 0x1)\n      and\n        /* \"contracts/Online/ERC20/TetherToken.sol\":8620:8707  function getOwner() external constant returns (address) {\r... */\n      swap1\n      jump\t// out\n        /* \"contracts/Online/ERC20/TetherToken.sol\":1193:1213  address public owner */\n    tag_98:\n      and(sub(exp(0x2, 0xa0), 0x1), sload(0x0))\n      dup2\n      jump\t// out\n        /* \"contracts/Online/ERC20/TetherToken.sol\":10137:10157  string public symbol */\n    tag_101:\n      0x8\n      dup1\n      sload\n      0x40\n      dup1\n      mload\n      0x20\n      0x2\n      0x1\n      dup6\n      and\n      iszero\n      0x100\n      mul\n      not(0x0)\n      add\n      swap1\n      swap5\n      and\n      swap4\n      swap1\n      swap4\n      div\n      0x1f\n      dup2\n      add\n      dup5\n      swap1\n      div\n      dup5\n      mul\n      dup3\n      add\n      dup5\n      add\n      swap1\n      swap3\n      mstore\n      dup2\n      dup2\n      mstore\n      swap3\n      swap2\n      dup4\n      add\n      dup3\n      dup3\n      dup1\n      iszero\n      tag_142\n      jumpi\n      dup1\n      0x1f\n      lt\n      tag_143\n      jumpi\n      0x100\n      dup1\n      dup4\n      sload\n      div\n      mul\n      dup4\n      mstore\n      swap2\n      0x20\n      add\n      swap2\n      jump(tag_142)\n        /* \"contracts/Online/ERC20/TetherToken.sol\":10935:11261  function transfer(address _to, uint _value) public whenNotPaused {\r... */\n    tag_108:\n        /* \"contracts/Online/ERC20/TetherToken.sol\":7772:7778  paused */\n      sload(0x0)\n      exp(0x2, 0xa0)\n      swap1\n      div\n      0xff\n      and\n        /* \"contracts/Online/ERC20/TetherToken.sol\":7771:7778  !paused */\n      iszero\n        /* \"contracts/Online/ERC20/TetherToken.sol\":7763:7779  require(!paused) */\n      tag_200\n      jumpi\n      0x0\n      dup1\n      revert\n    tag_200:\n        /* \"contracts/Online/ERC20/TetherToken.sol\":11034:11044  msg.sender */\n      caller\n        /* \"contracts/Online/ERC20/TetherToken.sol\":11020:11045  isBlackListed[msg.sender] */\n      0x0\n      swap1\n      dup2\n      mstore\n        /* \"contracts/Online/ERC20/TetherToken.sol\":11020:11033  isBlackListed */\n      0x6\n        /* \"contracts/Online/ERC20/TetherToken.sol\":11020:11045  isBlackListed[msg.sender] */\n      0x20\n      mstore\n      0x40\n      swap1\n      keccak256\n      sload\n      0xff\n      and\n        /* \"contracts/Online/ERC20/TetherToken.sol\":11019:11045  !isBlackListed[msg.sender] */\n      iszero\n        /* \"contracts/Online/ERC20/TetherToken.sol\":11011:11046  require(!isBlackListed[msg.sender]) */\n      tag_202\n      jumpi\n      0x0\n      dup1\n      revert\n    tag_202:\n        /* \"contracts/Online/ERC20/TetherToken.sol\":11061:11071  deprecated */\n      sload(0xa)\n      exp(0x2, 0xa0)\n      swap1\n      div\n      0xff\n      and\n        /* \"contracts/Online/ERC20/TetherToken.sol\":11057:11254  if (deprecated) {\r... */\n      iszero\n      tag_203\n      jumpi\n        /* \"contracts/Online/ERC20/TetherToken.sol\":11117:11132  upgradedAddress */\n      sload(0xa)\n        /* \"contracts/Online/ERC20/TetherToken.sol\":11095:11175  UpgradedStandardToken(upgradedAddress).transferByLegacy(msg.sender, _to, _value) */\n      0x40\n      dup1\n      mload\n      0x6e18980a00000000000000000000000000000000000000000000000000000000\n      dup2\n      mstore\n        /* \"contracts/Online/ERC20/TetherToken.sol\":11151:11161  msg.sender */\n      caller\n        /* \"contracts/Online/ERC20/TetherToken.sol\":11095:11175  UpgradedStandardToken(upgradedAddress).transferByLegacy(msg.sender, _to, _value) */\n      0x4\n      dup3\n      add\n      mstore\n      sub(exp(0x2, 0xa0), 0x1)\n      dup6\n      dup2\n      and\n      0x24\n      dup4\n      add\n      mstore\n      0x44\n      dup3\n      add\n      dup6\n      swap1\n      mstore\n      swap2\n      mload\n        /* \"contracts/Online/ERC20/TetherToken.sol\":11117:11132  upgradedAddress */\n      swap2\n      swap1\n      swap3\n      and\n      swap2\n        /* \"contracts/Online/ERC20/TetherToken.sol\":11095:11150  UpgradedStandardToken(upgradedAddress).transferByLegacy */\n      0x6e18980a\n      swap2\n        /* \"contracts/Online/ERC20/TetherToken.sol\":11095:11175  UpgradedStandardToken(upgradedAddress).transferByLegacy(msg.sender, _to, _value) */\n      0x64\n      dup1\n      dup4\n      add\n      swap3\n        /* \"contracts/Online/ERC20/TetherToken.sol\":11117:11132  upgradedAddress */\n      0x0\n      swap3\n        /* \"contracts/Online/ERC20/TetherToken.sol\":11095:11175  UpgradedStandardToken(upgradedAddress).transferByLegacy(msg.sender, _to, _value) */\n      swap2\n      swap1\n      dup3\n      swap1\n      sub\n      add\n      dup2\n        /* \"contracts/Online/ERC20/TetherToken.sol\":11117:11132  upgradedAddress */\n      dup4\n      dup8\n        /* \"contracts/Online/ERC20/TetherToken.sol\":11095:11175  UpgradedStandardToken(upgradedAddress).transferByLegacy(msg.sender, _to, _value) */\n      dup1\n      extcodesize\n      iszero\n        /* \"--CODEGEN--\":5:7   */\n      dup1\n      iszero\n      tag_204\n      jumpi\n        /* \"--CODEGEN--\":30:31   */\n      0x0\n        /* \"--CODEGEN--\":27:28   */\n      dup1\n        /* \"--CODEGEN--\":20:32   */\n      revert\n        /* \"--CODEGEN--\":5:7   */\n    tag_204:\n        /* \"contracts/Online/ERC20/TetherToken.sol\":11095:11175  UpgradedStandardToken(upgradedAddress).transferByLegacy(msg.sender, _to, _value) */\n      pop\n      gas\n      call\n      iszero\n        /* \"--CODEGEN--\":8:17   */\n      dup1\n        /* \"--CODEGEN--\":5:7   */\n      iszero\n      tag_205\n      jumpi\n        /* \"--CODEGEN--\":45:61   */\n      returndatasize\n        /* \"--CODEGEN--\":42:43   */\n      0x0\n        /* \"--CODEGEN--\":39:40   */\n      dup1\n        /* \"--CODEGEN--\":24:62   */\n      returndatacopy\n        /* \"--CODEGEN--\":77:93   */\n      returndatasize\n        /* \"--CODEGEN--\":74:75   */\n      0x0\n        /* \"--CODEGEN--\":67:94   */\n      revert\n        /* \"--CODEGEN--\":5:7   */\n    tag_205:\n        /* \"contracts/Online/ERC20/TetherToken.sol\":11095:11175  UpgradedStandardToken(upgradedAddress).transferByLegacy(msg.sender, _to, _value) */\n      pop\n      pop\n      pop\n      pop\n        /* \"contracts/Online/ERC20/TetherToken.sol\":11088:11175  return UpgradedStandardToken(upgradedAddress).transferByLegacy(msg.sender, _to, _value) */\n      jump(tag_207)\n        /* \"contracts/Online/ERC20/TetherToken.sol\":11057:11254  if (deprecated) {\r... */\n    tag_203:\n        /* \"contracts/Online/ERC20/TetherToken.sol\":11215:11242  super.transfer(_to, _value) */\n      tag_207\n        /* \"contracts/Online/ERC20/TetherToken.sol\":11230:11233  _to */\n      dup3\n        /* \"contracts/Online/ERC20/TetherToken.sol\":11235:11241  _value */\n      dup3\n        /* \"contracts/Online/ERC20/TetherToken.sol\":11215:11229  super.transfer */\n      tag_208\n        /* \"contracts/Online/ERC20/TetherToken.sol\":11215:11242  super.transfer(_to, _value) */\n      jump\t// in\n    tag_207:\n        /* \"contracts/Online/ERC20/TetherToken.sol\":10935:11261  function transfer(address _to, uint _value) public whenNotPaused {\r... */\n      pop\n      pop\n      jump\t// out\n        /* \"contracts/Online/ERC20/TetherToken.sol\":1353:1416  function ownable() public {\r... */\n    tag_111:\n        /* \"contracts/Online/ERC20/TetherToken.sol\":1390:1395  owner */\n      0x0\n        /* \"contracts/Online/ERC20/TetherToken.sol\":1390:1408  owner = msg.sender */\n      dup1\n      sload\n      not(0xffffffffffffffffffffffffffffffffffffffff)\n      and\n        /* \"contracts/Online/ERC20/TetherToken.sol\":1398:1408  msg.sender */\n      caller\n        /* \"contracts/Online/ERC20/TetherToken.sol\":1390:1408  owner = msg.sender */\n      or\n      swap1\n      sstore\n        /* \"contracts/Online/ERC20/TetherToken.sol\":1353:1416  function ownable() public {\r... */\n      jump\t// out\n        /* \"contracts/Online/ERC20/TetherToken.sol\":14249:14641  function setParams(uint newBasisPoints, uint newMaxFee) public onlyOwner {\r... */\n    tag_114:\n        /* \"contracts/Online/ERC20/TetherToken.sol\":1565:1570  owner */\n      and(sub(exp(0x2, 0xa0), 0x1), sload(0x0))\n        /* \"contracts/Online/ERC20/TetherToken.sol\":1551:1561  msg.sender */\n      caller\n        /* \"contracts/Online/ERC20/TetherToken.sol\":1551:1570  msg.sender == owner */\n      eq\n        /* \"contracts/Online/ERC20/TetherToken.sol\":1543:1571  require(msg.sender == owner) */\n      tag_211\n      jumpi\n      0x0\n      dup1\n      revert\n    tag_211:\n        /* \"contracts/Online/ERC20/TetherToken.sol\":14447:14449  20 */\n      0x14\n        /* \"contracts/Online/ERC20/TetherToken.sol\":14430:14449  newBasisPoints < 20 */\n      dup3\n      lt\n        /* \"contracts/Online/ERC20/TetherToken.sol\":14422:14450  require(newBasisPoints < 20) */\n      tag_213\n      jumpi\n      0x0\n      dup1\n      revert\n    tag_213:\n        /* \"contracts/Online/ERC20/TetherToken.sol\":14481:14483  50 */\n      0x32\n        /* \"contracts/Online/ERC20/TetherToken.sol\":14469:14483  newMaxFee < 50 */\n      dup2\n      lt\n        /* \"contracts/Online/ERC20/TetherToken.sol\":14461:14484  require(newMaxFee < 50) */\n      tag_214\n      jumpi\n      0x0\n      dup1\n      revert\n    tag_214:\n        /* \"contracts/Online/ERC20/TetherToken.sol\":14497:14512  basisPointsRate */\n      0x3\n        /* \"contracts/Online/ERC20/TetherToken.sol\":14497:14529  basisPointsRate = newBasisPoints */\n      dup3\n      swap1\n      sstore\n        /* \"contracts/Online/ERC20/TetherToken.sol\":14571:14579  decimals */\n      sload(0x9)\n        /* \"contracts/Online/ERC20/TetherToken.sol\":14553:14580  newMaxFee.mul(10**decimals) */\n      tag_215\n      swap1\n        /* \"contracts/Online/ERC20/TetherToken.sol\":14553:14562  newMaxFee */\n      dup3\n      swap1\n        /* \"contracts/Online/ERC20/TetherToken.sol\":14567:14569  10 */\n      0xa\n        /* \"contracts/Online/ERC20/TetherToken.sol\":14567:14579  10**decimals */\n      exp\n        /* \"contracts/Online/ERC20/TetherToken.sol\":14553:14580  newMaxFee.mul(10**decimals) */\n      0xffffffff\n        /* \"contracts/Online/ERC20/TetherToken.sol\":14553:14566  newMaxFee.mul */\n      tag_216\n        /* \"contracts/Online/ERC20/TetherToken.sol\":14553:14580  newMaxFee.mul(10**decimals) */\n      and\n      jump\t// in\n    tag_215:\n        /* \"contracts/Online/ERC20/TetherToken.sol\":14540:14550  maximumFee */\n      0x4\n        /* \"contracts/Online/ERC20/TetherToken.sol\":14540:14580  maximumFee = newMaxFee.mul(10**decimals) */\n      dup2\n      swap1\n      sstore\n        /* \"contracts/Online/ERC20/TetherToken.sol\":14605:14620  basisPointsRate */\n      sload(0x3)\n        /* \"contracts/Online/ERC20/TetherToken.sol\":14598:14633  Params(basisPointsRate, maximumFee) */\n      0x40\n      dup1\n      mload\n      swap2\n      dup3\n      mstore\n      0x20\n      dup3\n      add\n      swap3\n      swap1\n      swap3\n      mstore\n      dup2\n      mload\n      0xb044a1e409eac5c48e5af22d4af52670dd1a99059537a78b31b48c6500a6354e\n      swap3\n      swap2\n      dup2\n      swap1\n      sub\n      swap1\n      swap2\n      add\n      swap1\n      log1\n        /* \"contracts/Online/ERC20/TetherToken.sol\":14249:14641  function setParams(uint newBasisPoints, uint newMaxFee) public onlyOwner {\r... */\n      pop\n      pop\n      jump\t// out\n        /* \"contracts/Online/ERC20/TetherToken.sol\":13502:13768  function issue(uint amount) public onlyOwner {\r... */\n    tag_117:\n        /* \"contracts/Online/ERC20/TetherToken.sol\":1565:1570  owner */\n      and(sub(exp(0x2, 0xa0), 0x1), sload(0x0))\n        /* \"contracts/Online/ERC20/TetherToken.sol\":1551:1561  msg.sender */\n      caller\n        /* \"contracts/Online/ERC20/TetherToken.sol\":1551:1570  msg.sender == owner */\n      eq\n        /* \"contracts/Online/ERC20/TetherToken.sol\":1543:1571  require(msg.sender == owner) */\n      tag_218\n      jumpi\n      0x0\n      dup1\n      revert\n    tag_218:\n        /* \"contracts/Online/ERC20/TetherToken.sol\":13590:13602  _totalSupply */\n      sload(0x1)\n        /* \"contracts/Online/ERC20/TetherToken.sol\":13566:13587  _totalSupply + amount */\n      dup2\n      dup2\n      add\n        /* \"contracts/Online/ERC20/TetherToken.sol\":13566:13602  _totalSupply + amount > _totalSupply */\n      gt\n        /* \"contracts/Online/ERC20/TetherToken.sol\":13558:13603  require(_totalSupply + amount > _totalSupply) */\n      tag_220\n      jumpi\n      0x0\n      dup1\n      revert\n    tag_220:\n        /* \"contracts/Online/ERC20/TetherToken.sol\":13649:13664  balances[owner] */\n      0x0\n        /* \"contracts/Online/ERC20/TetherToken.sol\":13658:13663  owner */\n      dup1\n      sload\n      sub(exp(0x2, 0xa0), 0x1)\n      and\n        /* \"contracts/Online/ERC20/TetherToken.sol\":13649:13664  balances[owner] */\n      dup2\n      mstore\n        /* \"contracts/Online/ERC20/TetherToken.sol\":13649:13657  balances */\n      0x2\n        /* \"contracts/Online/ERC20/TetherToken.sol\":13649:13664  balances[owner] */\n      0x20\n      mstore\n      0x40\n      swap1\n      keccak256\n      sload\n        /* \"contracts/Online/ERC20/TetherToken.sol\":13622:13646  balances[owner] + amount */\n      dup2\n      dup2\n      add\n        /* \"contracts/Online/ERC20/TetherToken.sol\":13622:13664  balances[owner] + amount > balances[owner] */\n      gt\n        /* \"contracts/Online/ERC20/TetherToken.sol\":13614:13665  require(balances[owner] + amount > balances[owner]) */\n      tag_221\n      jumpi\n      0x0\n      dup1\n      revert\n    tag_221:\n        /* \"contracts/Online/ERC20/TetherToken.sol\":13678:13693  balances[owner] */\n      0x0\n        /* \"contracts/Online/ERC20/TetherToken.sol\":13687:13692  owner */\n      dup1\n      sload\n      sub(exp(0x2, 0xa0), 0x1)\n      and\n        /* \"contracts/Online/ERC20/TetherToken.sol\":13678:13693  balances[owner] */\n      dup2\n      mstore\n        /* \"contracts/Online/ERC20/TetherToken.sol\":13678:13686  balances */\n      0x2\n        /* \"contracts/Online/ERC20/TetherToken.sol\":13678:13693  balances[owner] */\n      0x20\n      swap1\n      dup2\n      mstore\n      0x40\n      swap2\n      dup3\n      swap1\n      keccak256\n        /* \"contracts/Online/ERC20/TetherToken.sol\":13678:13703  balances[owner] += amount */\n      dup1\n      sload\n      dup5\n      add\n      swap1\n      sstore\n        /* \"contracts/Online/ERC20/TetherToken.sol\":13687:13692  owner */\n      0x1\n        /* \"contracts/Online/ERC20/TetherToken.sol\":13714:13736  _totalSupply += amount */\n      dup1\n      sload\n      dup5\n      add\n      swap1\n      sstore\n        /* \"contracts/Online/ERC20/TetherToken.sol\":13747:13760  Issue(amount) */\n      dup2\n      mload\n      dup4\n      dup2\n      mstore\n      swap2\n      mload\n      0xcb8241adb0c3fdb35b70c24ce35c5eb0c17af7431c99f827d44a445ca624176a\n      swap3\n      dup2\n      swap1\n      sub\n      swap1\n      swap2\n      add\n      swap1\n      log1\n        /* \"contracts/Online/ERC20/TetherToken.sol\":13502:13768  function issue(uint amount) public onlyOwner {\r... */\n      pop\n      jump\t// out\n        /* \"contracts/Online/ERC20/TetherToken.sol\":13999:14241  function redeem(uint amount) public onlyOwner {\r... */\n    tag_120:\n        /* \"contracts/Online/ERC20/TetherToken.sol\":1565:1570  owner */\n      and(sub(exp(0x2, 0xa0), 0x1), sload(0x0))\n        /* \"contracts/Online/ERC20/TetherToken.sol\":1551:1561  msg.sender */\n      caller\n        /* \"contracts/Online/ERC20/TetherToken.sol\":1551:1570  msg.sender == owner */\n      eq\n        /* \"contracts/Online/ERC20/TetherToken.sol\":1543:1571  require(msg.sender == owner) */\n      tag_223\n      jumpi\n      0x0\n      dup1\n      revert\n    tag_223:\n        /* \"contracts/Online/ERC20/TetherToken.sol\":14064:14076  _totalSupply */\n      sload(0x1)\n        /* \"contracts/Online/ERC20/TetherToken.sol\":14064:14086  _totalSupply >= amount */\n      dup2\n      gt\n      iszero\n        /* \"contracts/Online/ERC20/TetherToken.sol\":14056:14087  require(_totalSupply >= amount) */\n      tag_225\n      jumpi\n      0x0\n      dup1\n      revert\n    tag_225:\n        /* \"contracts/Online/ERC20/TetherToken.sol\":14106:14121  balances[owner] */\n      0x0\n        /* \"contracts/Online/ERC20/TetherToken.sol\":14115:14120  owner */\n      dup1\n      sload\n      sub(exp(0x2, 0xa0), 0x1)\n      and\n        /* \"contracts/Online/ERC20/TetherToken.sol\":14106:14121  balances[owner] */\n      dup2\n      mstore\n        /* \"contracts/Online/ERC20/TetherToken.sol\":14106:14114  balances */\n      0x2\n        /* \"contracts/Online/ERC20/TetherToken.sol\":14106:14121  balances[owner] */\n      0x20\n      mstore\n      0x40\n      swap1\n      keccak256\n      sload\n        /* \"contracts/Online/ERC20/TetherToken.sol\":14106:14131  balances[owner] >= amount */\n      dup2\n      gt\n      iszero\n        /* \"contracts/Online/ERC20/TetherToken.sol\":14098:14132  require(balances[owner] >= amount) */\n      tag_226\n      jumpi\n      0x0\n      dup1\n      revert\n    tag_226:\n        /* \"contracts/Online/ERC20/TetherToken.sol\":14145:14157  _totalSupply */\n      0x1\n        /* \"contracts/Online/ERC20/TetherToken.sol\":14145:14167  _totalSupply -= amount */\n      dup1\n      sload\n      dup3\n      swap1\n      sub\n      swap1\n      sstore\n        /* \"contracts/Online/ERC20/TetherToken.sol\":14145:14157  _totalSupply */\n      0x0\n        /* \"contracts/Online/ERC20/TetherToken.sol\":14187:14192  owner */\n      dup1\n      sload\n      sub(exp(0x2, 0xa0), 0x1)\n      and\n        /* \"contracts/Online/ERC20/TetherToken.sol\":14178:14193  balances[owner] */\n      dup2\n      mstore\n        /* \"contracts/Online/ERC20/TetherToken.sol\":14178:14186  balances */\n      0x2\n        /* \"contracts/Online/ERC20/TetherToken.sol\":14178:14193  balances[owner] */\n      0x20\n      swap1\n      dup2\n      mstore\n      0x40\n      swap2\n      dup3\n      swap1\n      keccak256\n        /* \"contracts/Online/ERC20/TetherToken.sol\":14178:14203  balances[owner] -= amount */\n      dup1\n      sload\n      dup5\n      swap1\n      sub\n      swap1\n      sstore\n        /* \"contracts/Online/ERC20/TetherToken.sol\":14219:14233  Redeem(amount) */\n      dup2\n      mload\n      dup4\n      dup2\n      mstore\n      swap2\n      mload\n      0x702d5967f45f6513a38ffc42d6ba9bf230bd40e8f53b16363c7eb4fd2deb9a44\n      swap3\n      dup2\n      swap1\n      sub\n      swap1\n      swap2\n      add\n      swap1\n      log1\n        /* \"contracts/Online/ERC20/TetherToken.sol\":13999:14241  function redeem(uint amount) public onlyOwner {\r... */\n      pop\n      jump\t// out\n        /* \"contracts/Online/ERC20/TetherToken.sol\":12509:12802  function allowance(address _owner, address _spender) public constant returns (uint remaining) {\r... */\n    tag_123:\n        /* \"contracts/Online/ERC20/TetherToken.sol\":12618:12628  deprecated */\n      sload(0xa)\n        /* \"contracts/Online/ERC20/TetherToken.sol\":12587:12601  uint remaining */\n      0x0\n      swap1\n      exp(0x2, 0xa0)\n        /* \"contracts/Online/ERC20/TetherToken.sol\":12618:12628  deprecated */\n      swap1\n      div\n      0xff\n      and\n        /* \"contracts/Online/ERC20/TetherToken.sol\":12614:12795  if (deprecated) {\r... */\n      iszero\n      tag_228\n      jumpi\n        /* \"contracts/Online/ERC20/TetherToken.sol\":12666:12681  upgradedAddress */\n      sload(0xa)\n        /* \"contracts/Online/ERC20/TetherToken.sol\":12652:12710  StandardToken(upgradedAddress).allowance(_owner, _spender) */\n      0x40\n      dup1\n      mload\n      0xdd62ed3e00000000000000000000000000000000000000000000000000000000\n      dup2\n      mstore\n      sub(exp(0x2, 0xa0), 0x1)\n      dup7\n      dup2\n      and\n      0x4\n      dup4\n      add\n      mstore\n      dup6\n      dup2\n      and\n      0x24\n      dup4\n      add\n      mstore\n      swap2\n      mload\n        /* \"contracts/Online/ERC20/TetherToken.sol\":12666:12681  upgradedAddress */\n      swap2\n      swap1\n      swap3\n      and\n      swap2\n        /* \"contracts/Online/ERC20/TetherToken.sol\":12652:12692  StandardToken(upgradedAddress).allowance */\n      0xdd62ed3e\n      swap2\n        /* \"contracts/Online/ERC20/TetherToken.sol\":12652:12710  StandardToken(upgradedAddress).allowance(_owner, _spender) */\n      0x44\n      dup1\n      dup4\n      add\n      swap3\n      0x20\n      swap3\n      swap2\n      swap1\n      dup3\n      swap1\n      sub\n      add\n      dup2\n        /* \"contracts/Online/ERC20/TetherToken.sol\":12666:12681  upgradedAddress */\n      0x0\n      dup8\n        /* \"contracts/Online/ERC20/TetherToken.sol\":12652:12710  StandardToken(upgradedAddress).allowance(_owner, _spender) */\n      dup1\n      extcodesize\n      iszero\n        /* \"--CODEGEN--\":5:7   */\n      dup1\n      iszero\n      tag_229\n      jumpi\n        /* \"--CODEGEN--\":30:31   */\n      0x0\n        /* \"--CODEGEN--\":27:28   */\n      dup1\n        /* \"--CODEGEN--\":20:32   */\n      revert\n        /* \"--CODEGEN--\":5:7   */\n    tag_229:\n        /* \"contracts/Online/ERC20/TetherToken.sol\":12652:12710  StandardToken(upgradedAddress).allowance(_owner, _spender) */\n      pop\n      gas\n      call\n      iszero\n        /* \"--CODEGEN--\":8:17   */\n      dup1\n        /* \"--CODEGEN--\":5:7   */\n      iszero\n      tag_230\n      jumpi\n        /* \"--CODEGEN--\":45:61   */\n      returndatasize\n        /* \"--CODEGEN--\":42:43   */\n      0x0\n        /* \"--CODEGEN--\":39:40   */\n      dup1\n        /* \"--CODEGEN--\":24:62   */\n      returndatacopy\n        /* \"--CODEGEN--\":77:93   */\n      returndatasize\n        /* \"--CODEGEN--\":74:75   */\n      0x0\n        /* \"--CODEGEN--\":67:94   */\n      revert\n        /* \"--CODEGEN--\":5:7   */\n    tag_230:\n        /* \"contracts/Online/ERC20/TetherToken.sol\":12652:12710  StandardToken(upgradedAddress).allowance(_owner, _spender) */\n      pop\n      pop\n      pop\n      pop\n      mload(0x40)\n      returndatasize\n        /* \"--CODEGEN--\":13:15   */\n      0x20\n        /* \"--CODEGEN--\":8:11   */\n      dup2\n        /* \"--CODEGEN--\":5:16   */\n      lt\n        /* \"--CODEGEN--\":2:4   */\n      iszero\n      tag_231\n      jumpi\n        /* \"--CODEGEN--\":29:30   */\n      0x0\n        /* \"--CODEGEN--\":26:27   */\n      dup1\n        /* \"--CODEGEN--\":19:31   */\n      revert\n        /* \"--CODEGEN--\":2:4   */\n    tag_231:\n      pop\n        /* \"contracts/Online/ERC20/TetherToken.sol\":12652:12710  StandardToken(upgradedAddress).allowance(_owner, _spender) */\n      mload\n      swap1\n      pop\n        /* \"contracts/Online/ERC20/TetherToken.sol\":12645:12710  return StandardToken(upgradedAddress).allowance(_owner, _spender) */\n      jump(tag_232)\n        /* \"contracts/Online/ERC20/TetherToken.sol\":12614:12795  if (deprecated) {\r... */\n    tag_228:\n        /* \"contracts/Online/ERC20/TetherToken.sol\":12750:12783  super.allowance(_owner, _spender) */\n      tag_233\n        /* \"contracts/Online/ERC20/TetherToken.sol\":12766:12772  _owner */\n      dup4\n        /* \"contracts/Online/ERC20/TetherToken.sol\":12774:12782  _spender */\n      dup4\n        /* \"contracts/Online/ERC20/TetherToken.sol\":12750:12765  super.allowance */\n      tag_234\n        /* \"contracts/Online/ERC20/TetherToken.sol\":12750:12783  super.allowance(_owner, _spender) */\n      jump\t// in\n    tag_233:\n        /* \"contracts/Online/ERC20/TetherToken.sol\":12743:12783  return super.allowance(_owner, _spender) */\n      swap1\n      pop\n        /* \"contracts/Online/ERC20/TetherToken.sol\":12614:12795  if (deprecated) {\r... */\n    tag_232:\n        /* \"contracts/Online/ERC20/TetherToken.sol\":12509:12802  function allowance(address _owner, address _spender) public constant returns (uint remaining) {\r... */\n      swap3\n      swap2\n      pop\n      pop\n      jump\t// out\n        /* \"contracts/Online/ERC20/TetherToken.sol\":3110:3141  uint public basisPointsRate = 0 */\n    tag_126:\n      sload(0x3)\n      dup2\n      jump\t// out\n        /* \"contracts/Online/ERC20/TetherToken.sol\":8715:8761  mapping (address => bool) public isBlackListed */\n    tag_129:\n      mstore(0x20, 0x6)\n      0x0\n      swap1\n      dup2\n      mstore\n      0x40\n      swap1\n      keccak256\n      sload\n      0xff\n      and\n      dup2\n      jump\t// out\n        /* \"contracts/Online/ERC20/TetherToken.sol\":8931:9095  function removeBlackList (address _clearedUser) public onlyOwner {\r... */\n    tag_132:\n        /* \"contracts/Online/ERC20/TetherToken.sol\":1565:1570  owner */\n      and(sub(exp(0x2, 0xa0), 0x1), sload(0x0))\n        /* \"contracts/Online/ERC20/TetherToken.sol\":1551:1561  msg.sender */\n      caller\n        /* \"contracts/Online/ERC20/TetherToken.sol\":1551:1570  msg.sender == owner */\n      eq\n        /* \"contracts/Online/ERC20/TetherToken.sol\":1543:1571  require(msg.sender == owner) */\n      tag_236\n      jumpi\n      0x0\n      dup1\n      revert\n    tag_236:\n      sub(exp(0x2, 0xa0), 0x1)\n        /* \"contracts/Online/ERC20/TetherToken.sol\":9007:9034  isBlackListed[_clearedUser] */\n      dup2\n      and\n        /* \"contracts/Online/ERC20/TetherToken.sol\":9037:9042  false */\n      0x0\n        /* \"contracts/Online/ERC20/TetherToken.sol\":9007:9034  isBlackListed[_clearedUser] */\n      dup2\n      dup2\n      mstore\n        /* \"contracts/Online/ERC20/TetherToken.sol\":9007:9020  isBlackListed */\n      0x6\n        /* \"contracts/Online/ERC20/TetherToken.sol\":9007:9034  isBlackListed[_clearedUser] */\n      0x20\n      swap1\n      dup2\n      mstore\n      0x40\n      swap2\n      dup3\n      swap1\n      keccak256\n        /* \"contracts/Online/ERC20/TetherToken.sol\":9007:9042  isBlackListed[_clearedUser] = false */\n      dup1\n      sload\n      not(0xff)\n      and\n      swap1\n      sstore\n        /* \"contracts/Online/ERC20/TetherToken.sol\":9057:9087  RemovedBlackList(_clearedUser) */\n      dup2\n      mload\n      swap3\n      dup4\n      mstore\n      swap1\n      mload\n      0xd7e9ec6e6ecd65492dce6bf513cd6867560d49544421d0783ddf06e76c24470c\n      swap3\n      dup2\n      swap1\n      sub\n      swap1\n      swap2\n      add\n      swap1\n      log1\n        /* \"contracts/Online/ERC20/TetherToken.sol\":8931:9095  function removeBlackList (address _clearedUser) public onlyOwner {\r... */\n      pop\n      jump\t// out\n        /* \"contracts/Online/ERC20/TetherToken.sol\":4852:4894  uint public constant MAX_UINT = 2**256 - 1 */\n    tag_135:\n      not(0x0)\n      dup2\n      jump\t// out\n        /* \"contracts/Online/ERC20/TetherToken.sol\":1765:1916  function transferOwnership(address newOwner) public onlyOwner {\r... */\n    tag_138:\n        /* \"contracts/Online/ERC20/TetherToken.sol\":1565:1570  owner */\n      and(sub(exp(0x2, 0xa0), 0x1), sload(0x0))\n        /* \"contracts/Online/ERC20/TetherToken.sol\":1551:1561  msg.sender */\n      caller\n        /* \"contracts/Online/ERC20/TetherToken.sol\":1551:1570  msg.sender == owner */\n      eq\n        /* \"contracts/Online/ERC20/TetherToken.sol\":1543:1571  require(msg.sender == owner) */\n      tag_239\n      jumpi\n      0x0\n      dup1\n      revert\n    tag_239:\n      sub(exp(0x2, 0xa0), 0x1)\n        /* \"contracts/Online/ERC20/TetherToken.sol\":1842:1864  newOwner != address(0) */\n      dup2\n      and\n      iszero\n        /* \"contracts/Online/ERC20/TetherToken.sol\":1838:1909  if (newOwner != address(0)) {\r... */\n      tag_241\n      jumpi\n        /* \"contracts/Online/ERC20/TetherToken.sol\":1881:1886  owner */\n      0x0\n        /* \"contracts/Online/ERC20/TetherToken.sol\":1881:1897  owner = newOwner */\n      dup1\n      sload\n      not(0xffffffffffffffffffffffffffffffffffffffff)\n      and\n      sub(exp(0x2, 0xa0), 0x1)\n      dup4\n      and\n      or\n      swap1\n      sstore\n        /* \"contracts/Online/ERC20/TetherToken.sol\":1838:1909  if (newOwner != address(0)) {\r... */\n    tag_241:\n        /* \"contracts/Online/ERC20/TetherToken.sol\":1765:1916  function transferOwnership(address newOwner) public onlyOwner {\r... */\n      pop\n      jump\t// out\n        /* \"contracts/Online/ERC20/TetherToken.sol\":9103:9432  function destroyBlackFunds (address _blackListedUser) public onlyOwner {\r... */\n    tag_141:\n        /* \"contracts/Online/ERC20/TetherToken.sol\":9236:9251  uint dirtyFunds */\n      0x0\n        /* \"contracts/Online/ERC20/TetherToken.sol\":1565:1570  owner */\n      dup1\n      sload\n      sub(exp(0x2, 0xa0), 0x1)\n      and\n        /* \"contracts/Online/ERC20/TetherToken.sol\":1551:1561  msg.sender */\n      caller\n        /* \"contracts/Online/ERC20/TetherToken.sol\":1551:1570  msg.sender == owner */\n      eq\n        /* \"contracts/Online/ERC20/TetherToken.sol\":1543:1571  require(msg.sender == owner) */\n      tag_243\n      jumpi\n      0x0\n      dup1\n      revert\n    tag_243:\n      sub(exp(0x2, 0xa0), 0x1)\n        /* \"contracts/Online/ERC20/TetherToken.sol\":9193:9224  isBlackListed[_blackListedUser] */\n      dup3\n      and\n      0x0\n      swap1\n      dup2\n      mstore\n        /* \"contracts/Online/ERC20/TetherToken.sol\":9193:9206  isBlackListed */\n      0x6\n        /* \"contracts/Online/ERC20/TetherToken.sol\":9193:9224  isBlackListed[_blackListedUser] */\n      0x20\n      mstore\n      0x40\n      swap1\n      keccak256\n      sload\n      0xff\n      and\n        /* \"contracts/Online/ERC20/TetherToken.sol\":9185:9225  require(isBlackListed[_blackListedUser]) */\n      iszero\n      iszero\n      tag_245\n      jumpi\n      0x0\n      dup1\n      revert\n    tag_245:\n        /* \"contracts/Online/ERC20/TetherToken.sol\":9254:9281  balanceOf(_blackListedUser) */\n      tag_246\n        /* \"contracts/Online/ERC20/TetherToken.sol\":9264:9280  _blackListedUser */\n      dup3\n        /* \"contracts/Online/ERC20/TetherToken.sol\":9254:9263  balanceOf */\n      tag_89\n        /* \"contracts/Online/ERC20/TetherToken.sol\":9254:9281  balanceOf(_blackListedUser) */\n      jump\t// in\n    tag_246:\n      sub(exp(0x2, 0xa0), 0x1)\n        /* \"contracts/Online/ERC20/TetherToken.sol\":9292:9318  balances[_blackListedUser] */\n      dup4\n      and\n        /* \"contracts/Online/ERC20/TetherToken.sol\":9321:9322  0 */\n      0x0\n        /* \"contracts/Online/ERC20/TetherToken.sol\":9292:9318  balances[_blackListedUser] */\n      dup2\n      dup2\n      mstore\n        /* \"contracts/Online/ERC20/TetherToken.sol\":9292:9300  balances */\n      0x2\n        /* \"contracts/Online/ERC20/TetherToken.sol\":9292:9318  balances[_blackListedUser] */\n      0x20\n      swap1\n      dup2\n      mstore\n      0x40\n      dup1\n      dup4\n      keccak256\n        /* \"contracts/Online/ERC20/TetherToken.sol\":9292:9322  balances[_blackListedUser] = 0 */\n      swap3\n      swap1\n      swap3\n      sstore\n        /* \"contracts/Online/ERC20/TetherToken.sol\":9333:9345  _totalSupply */\n      0x1\n        /* \"contracts/Online/ERC20/TetherToken.sol\":9333:9359  _totalSupply -= dirtyFunds */\n      dup1\n      sload\n      dup6\n      swap1\n      sub\n      swap1\n      sstore\n        /* \"contracts/Online/ERC20/TetherToken.sol\":9375:9424  DestroyedBlackFunds(_blackListedUser, dirtyFunds) */\n      dup2\n      mload\n      swap3\n      dup4\n      mstore\n      dup3\n      add\n      dup4\n      swap1\n      mstore\n      dup1\n      mload\n        /* \"contracts/Online/ERC20/TetherToken.sol\":9236:9281  uint dirtyFunds = balanceOf(_blackListedUser) */\n      swap3\n      swap4\n      pop\n        /* \"contracts/Online/ERC20/TetherToken.sol\":9375:9424  DestroyedBlackFunds(_blackListedUser, dirtyFunds) */\n      0x61e6e66b0d6339b2980aecc6ccc0039736791f0ccde9ed512e789a7fbdd698c6\n      swap3\n      swap2\n      dup3\n      swap1\n      sub\n      add\n      swap1\n      log1\n        /* \"contracts/Online/ERC20/TetherToken.sol\":9103:9432  function destroyBlackFunds (address _blackListedUser) public onlyOwner {\r... */\n      pop\n      pop\n      jump\t// out\n        /* \"contracts/Online/ERC20/TetherToken.sol\":6343:6916  function approve(address _spender, uint _value) public onlyPayloadSize(2 * 32) {\r... */\n    tag_156:\n        /* \"contracts/Online/ERC20/TetherToken.sol\":6414:6420  2 * 32 */\n      0x40\n        /* \"contracts/Online/ERC20/TetherToken.sol\":3327:3335  size + 4 */\n      0x44\n        /* \"contracts/Online/ERC20/TetherToken.sol\":3309:3317  msg.data */\n      calldatasize\n        /* \"contracts/Online/ERC20/TetherToken.sol\":3309:3335  msg.data.length < size + 4 */\n      lt\n        /* \"contracts/Online/ERC20/TetherToken.sol\":3307:3336  !(msg.data.length < size + 4) */\n      iszero\n        /* \"contracts/Online/ERC20/TetherToken.sol\":3299:3337  require(!(msg.data.length < size + 4)) */\n      tag_248\n      jumpi\n      0x0\n      dup1\n      revert\n    tag_248:\n        /* \"contracts/Online/ERC20/TetherToken.sol\":6754:6765  _value != 0 */\n      dup2\n      iszero\n      dup1\n      iszero\n      swap1\n        /* \"contracts/Online/ERC20/TetherToken.sol\":6753:6806  (_value != 0) && (allowed[msg.sender][_spender] != 0) */\n      tag_250\n      jumpi\n      pop\n        /* \"contracts/Online/ERC20/TetherToken.sol\":6779:6789  msg.sender */\n      caller\n        /* \"contracts/Online/ERC20/TetherToken.sol\":6771:6790  allowed[msg.sender] */\n      0x0\n      swap1\n      dup2\n      mstore\n        /* \"contracts/Online/ERC20/TetherToken.sol\":6771:6778  allowed */\n      0x5\n        /* \"contracts/Online/ERC20/TetherToken.sol\":6771:6790  allowed[msg.sender] */\n      0x20\n      swap1\n      dup2\n      mstore\n      0x40\n      dup1\n      dup4\n      keccak256\n      sub(exp(0x2, 0xa0), 0x1)\n        /* \"contracts/Online/ERC20/TetherToken.sol\":6771:6800  allowed[msg.sender][_spender] */\n      dup8\n      and\n      dup5\n      mstore\n      swap1\n      swap2\n      mstore\n      swap1\n      keccak256\n      sload\n        /* \"contracts/Online/ERC20/TetherToken.sol\":6771:6805  allowed[msg.sender][_spender] != 0 */\n      iszero\n      iszero\n        /* \"contracts/Online/ERC20/TetherToken.sol\":6753:6806  (_value != 0) && (allowed[msg.sender][_spender] != 0) */\n    tag_250:\n        /* \"contracts/Online/ERC20/TetherToken.sol\":6751:6807  !((_value != 0) && (allowed[msg.sender][_spender] != 0)) */\n      iszero\n        /* \"contracts/Online/ERC20/TetherToken.sol\":6743:6808  require(!((_value != 0) && (allowed[msg.sender][_spender] != 0))) */\n      tag_251\n      jumpi\n      0x0\n      dup1\n      revert\n    tag_251:\n        /* \"contracts/Online/ERC20/TetherToken.sol\":6829:6839  msg.sender */\n      caller\n        /* \"contracts/Online/ERC20/TetherToken.sol\":6821:6840  allowed[msg.sender] */\n      0x0\n      dup2\n      dup2\n      mstore\n        /* \"contracts/Online/ERC20/TetherToken.sol\":6821:6828  allowed */\n      0x5\n        /* \"contracts/Online/ERC20/TetherToken.sol\":6821:6840  allowed[msg.sender] */\n      0x20\n      swap1\n      dup2\n      mstore\n      0x40\n      dup1\n      dup4\n      keccak256\n      sub(exp(0x2, 0xa0), 0x1)\n        /* \"contracts/Online/ERC20/TetherToken.sol\":6821:6850  allowed[msg.sender][_spender] */\n      dup9\n      and\n      dup1\n      dup6\n      mstore\n      swap1\n      dup4\n      mstore\n      swap3\n      dup2\n      swap1\n      keccak256\n        /* \"contracts/Online/ERC20/TetherToken.sol\":6821:6859  allowed[msg.sender][_spender] = _value */\n      dup7\n      swap1\n      sstore\n        /* \"contracts/Online/ERC20/TetherToken.sol\":6870:6908  Approval(msg.sender, _spender, _value) */\n      dup1\n      mload\n      dup7\n      dup2\n      mstore\n      swap1\n      mload\n        /* \"contracts/Online/ERC20/TetherToken.sol\":6821:6850  allowed[msg.sender][_spender] */\n      swap3\n      swap4\n        /* \"contracts/Online/ERC20/TetherToken.sol\":6829:6839  msg.sender */\n      swap3\n        /* \"contracts/Online/ERC20/TetherToken.sol\":6870:6908  Approval(msg.sender, _spender, _value) */\n      0x8c5be1e5ebec7d5bd14f71427d1e84f3dd0314c0f7b2291e5b200ac8c7c3b925\n      swap3\n      swap2\n      dup2\n      swap1\n      sub\n      swap1\n      swap2\n      add\n      swap1\n      log3\n        /* \"contracts/Online/ERC20/TetherToken.sol\":6343:6916  function approve(address _spender, uint _value) public onlyPayloadSize(2 * 32) {\r... */\n      pop\n      pop\n      pop\n      jump\t// out\n        /* \"contracts/Online/ERC20/TetherToken.sol\":5184:6096  function transferFrom(address _from, address _to, uint _value) public onlyPayloadSize(3 * 32) {\r... */\n    tag_175:\n        /* \"contracts/Online/ERC20/TetherToken.sol\":5289:5304  uint _allowance */\n      0x0\n      dup1\n      dup1\n        /* \"contracts/Online/ERC20/TetherToken.sol\":5270:5276  3 * 32 */\n      0x60\n        /* \"contracts/Online/ERC20/TetherToken.sol\":3327:3335  size + 4 */\n      0x64\n        /* \"contracts/Online/ERC20/TetherToken.sol\":3309:3317  msg.data */\n      calldatasize\n        /* \"contracts/Online/ERC20/TetherToken.sol\":3309:3335  msg.data.length < size + 4 */\n      lt\n        /* \"contracts/Online/ERC20/TetherToken.sol\":3307:3336  !(msg.data.length < size + 4) */\n      iszero\n        /* \"contracts/Online/ERC20/TetherToken.sol\":3299:3337  require(!(msg.data.length < size + 4)) */\n      tag_253\n      jumpi\n      0x0\n      dup1\n      revert\n    tag_253:\n      sub(exp(0x2, 0xa0), 0x1)\n        /* \"contracts/Online/ERC20/TetherToken.sol\":5307:5321  allowed[_from] */\n      dup8\n      and\n      0x0\n      swap1\n      dup2\n      mstore\n        /* \"contracts/Online/ERC20/TetherToken.sol\":5307:5314  allowed */\n      0x5\n        /* \"contracts/Online/ERC20/TetherToken.sol\":5307:5321  allowed[_from] */\n      0x20\n      swap1\n      dup2\n      mstore\n      0x40\n      dup1\n      dup4\n      keccak256\n        /* \"contracts/Online/ERC20/TetherToken.sol\":5322:5332  msg.sender */\n      caller\n        /* \"contracts/Online/ERC20/TetherToken.sol\":5307:5333  allowed[_from][msg.sender] */\n      dup5\n      mstore\n      swap1\n      swap2\n      mstore\n      swap1\n      keccak256\n      sload\n        /* \"contracts/Online/ERC20/TetherToken.sol\":5527:5542  basisPointsRate */\n      sload(0x3)\n        /* \"contracts/Online/ERC20/TetherToken.sol\":5307:5333  allowed[_from][msg.sender] */\n      swap1\n      swap5\n      pop\n        /* \"contracts/Online/ERC20/TetherToken.sol\":5515:5555  (_value.mul(basisPointsRate)).div(10000) */\n      tag_255\n      swap1\n        /* \"contracts/Online/ERC20/TetherToken.sol\":5549:5554  10000 */\n      0x2710\n      swap1\n        /* \"contracts/Online/ERC20/TetherToken.sol\":5516:5543  _value.mul(basisPointsRate) */\n      tag_256\n      swap1\n        /* \"contracts/Online/ERC20/TetherToken.sol\":5516:5522  _value */\n      dup9\n      swap1\n        /* \"contracts/Online/ERC20/TetherToken.sol\":5516:5543  _value.mul(basisPointsRate) */\n      0xffffffff\n        /* \"contracts/Online/ERC20/TetherToken.sol\":5516:5526  _value.mul */\n      tag_216\n        /* \"contracts/Online/ERC20/TetherToken.sol\":5516:5543  _value.mul(basisPointsRate) */\n      and\n      jump\t// in\n    tag_256:\n        /* \"contracts/Online/ERC20/TetherToken.sol\":5515:5548  (_value.mul(basisPointsRate)).div */\n      swap1\n        /* \"contracts/Online/ERC20/TetherToken.sol\":5515:5555  (_value.mul(basisPointsRate)).div(10000) */\n      0xffffffff\n        /* \"contracts/Online/ERC20/TetherToken.sol\":5515:5548  (_value.mul(basisPointsRate)).div */\n      tag_257\n        /* \"contracts/Online/ERC20/TetherToken.sol\":5515:5555  (_value.mul(basisPointsRate)).div(10000) */\n      and\n      jump\t// in\n    tag_255:\n        /* \"contracts/Online/ERC20/TetherToken.sol\":5504:5555  uint fee = (_value.mul(basisPointsRate)).div(10000) */\n      swap3\n      pop\n        /* \"contracts/Online/ERC20/TetherToken.sol\":5576:5586  maximumFee */\n      sload(0x4)\n        /* \"contracts/Online/ERC20/TetherToken.sol\":5570:5573  fee */\n      dup4\n        /* \"contracts/Online/ERC20/TetherToken.sol\":5570:5586  fee > maximumFee */\n      gt\n        /* \"contracts/Online/ERC20/TetherToken.sol\":5566:5631  if (fee > maximumFee) {\r... */\n      iszero\n      tag_258\n      jumpi\n        /* \"contracts/Online/ERC20/TetherToken.sol\":5609:5619  maximumFee */\n      sload(0x4)\n        /* \"contracts/Online/ERC20/TetherToken.sol\":5603:5619  fee = maximumFee */\n      swap3\n      pop\n        /* \"contracts/Online/ERC20/TetherToken.sol\":5566:5631  if (fee > maximumFee) {\r... */\n    tag_258:\n      not(0x0)\n        /* \"contracts/Online/ERC20/TetherToken.sol\":5645:5655  _allowance */\n      dup5\n        /* \"contracts/Online/ERC20/TetherToken.sol\":5645:5666  _allowance < MAX_UINT */\n      lt\n        /* \"contracts/Online/ERC20/TetherToken.sol\":5641:5746  if (_allowance < MAX_UINT) {\r... */\n      iszero\n      tag_259\n      jumpi\n        /* \"contracts/Online/ERC20/TetherToken.sol\":5712:5734  _allowance.sub(_value) */\n      tag_260\n        /* \"contracts/Online/ERC20/TetherToken.sol\":5712:5722  _allowance */\n      dup5\n        /* \"contracts/Online/ERC20/TetherToken.sol\":5727:5733  _value */\n      dup7\n        /* \"contracts/Online/ERC20/TetherToken.sol\":5712:5734  _allowance.sub(_value) */\n      0xffffffff\n        /* \"contracts/Online/ERC20/TetherToken.sol\":5712:5726  _allowance.sub */\n      tag_261\n        /* \"contracts/Online/ERC20/TetherToken.sol\":5712:5734  _allowance.sub(_value) */\n      and\n      jump\t// in\n    tag_260:\n      sub(exp(0x2, 0xa0), 0x1)\n        /* \"contracts/Online/ERC20/TetherToken.sol\":5683:5697  allowed[_from] */\n      dup9\n      and\n      0x0\n      swap1\n      dup2\n      mstore\n        /* \"contracts/Online/ERC20/TetherToken.sol\":5683:5690  allowed */\n      0x5\n        /* \"contracts/Online/ERC20/TetherToken.sol\":5683:5697  allowed[_from] */\n      0x20\n      swap1\n      dup2\n      mstore\n      0x40\n      dup1\n      dup4\n      keccak256\n        /* \"contracts/Online/ERC20/TetherToken.sol\":5698:5708  msg.sender */\n      caller\n        /* \"contracts/Online/ERC20/TetherToken.sol\":5683:5709  allowed[_from][msg.sender] */\n      dup5\n      mstore\n      swap1\n      swap2\n      mstore\n      swap1\n      keccak256\n        /* \"contracts/Online/ERC20/TetherToken.sol\":5683:5734  allowed[_from][msg.sender] = _allowance.sub(_value) */\n      sstore\n        /* \"contracts/Online/ERC20/TetherToken.sol\":5641:5746  if (_allowance < MAX_UINT) {\r... */\n    tag_259:\n        /* \"contracts/Online/ERC20/TetherToken.sol\":5774:5789  _value.sub(fee) */\n      tag_262\n        /* \"contracts/Online/ERC20/TetherToken.sol\":5774:5780  _value */\n      dup6\n        /* \"contracts/Online/ERC20/TetherToken.sol\":5785:5788  fee */\n      dup5\n        /* \"contracts/Online/ERC20/TetherToken.sol\":5774:5789  _value.sub(fee) */\n      0xffffffff\n        /* \"contracts/Online/ERC20/TetherToken.sol\":5774:5784  _value.sub */\n      tag_261\n        /* \"contracts/Online/ERC20/TetherToken.sol\":5774:5789  _value.sub(fee) */\n      and\n      jump\t// in\n    tag_262:\n      sub(exp(0x2, 0xa0), 0x1)\n        /* \"contracts/Online/ERC20/TetherToken.sol\":5818:5833  balances[_from] */\n      dup9\n      and\n      0x0\n      swap1\n      dup2\n      mstore\n        /* \"contracts/Online/ERC20/TetherToken.sol\":5818:5826  balances */\n      0x2\n        /* \"contracts/Online/ERC20/TetherToken.sol\":5818:5833  balances[_from] */\n      0x20\n      mstore\n      0x40\n      swap1\n      keccak256\n      sload\n        /* \"contracts/Online/ERC20/TetherToken.sol\":5756:5789  uint sendAmount = _value.sub(fee) */\n      swap1\n      swap3\n      pop\n        /* \"contracts/Online/ERC20/TetherToken.sol\":5818:5845  balances[_from].sub(_value) */\n      tag_263\n      swap1\n        /* \"contracts/Online/ERC20/TetherToken.sol\":5838:5844  _value */\n      dup7\n        /* \"contracts/Online/ERC20/TetherToken.sol\":5818:5845  balances[_from].sub(_value) */\n      0xffffffff\n        /* \"contracts/Online/ERC20/TetherToken.sol\":5818:5837  balances[_from].sub */\n      tag_261\n        /* \"contracts/Online/ERC20/TetherToken.sol\":5818:5845  balances[_from].sub(_value) */\n      and\n      jump\t// in\n    tag_263:\n      sub(exp(0x2, 0xa0), 0x1)\n        /* \"contracts/Online/ERC20/TetherToken.sol\":5800:5815  balances[_from] */\n      dup1\n      dup10\n      and\n      0x0\n      swap1\n      dup2\n      mstore\n        /* \"contracts/Online/ERC20/TetherToken.sol\":5800:5808  balances */\n      0x2\n        /* \"contracts/Online/ERC20/TetherToken.sol\":5800:5815  balances[_from] */\n      0x20\n      mstore\n      0x40\n      dup1\n      dup3\n      keccak256\n        /* \"contracts/Online/ERC20/TetherToken.sol\":5800:5845  balances[_from] = balances[_from].sub(_value) */\n      swap4\n      swap1\n      swap4\n      sstore\n        /* \"contracts/Online/ERC20/TetherToken.sol\":5872:5885  balances[_to] */\n      swap1\n      dup9\n      and\n      dup2\n      mstore\n      keccak256\n      sload\n        /* \"contracts/Online/ERC20/TetherToken.sol\":5872:5901  balances[_to].add(sendAmount) */\n      tag_264\n      swap1\n        /* \"contracts/Online/ERC20/TetherToken.sol\":5890:5900  sendAmount */\n      dup4\n        /* \"contracts/Online/ERC20/TetherToken.sol\":5872:5901  balances[_to].add(sendAmount) */\n      0xffffffff\n        /* \"contracts/Online/ERC20/TetherToken.sol\":5872:5889  balances[_to].add */\n      tag_265\n        /* \"contracts/Online/ERC20/TetherToken.sol\":5872:5901  balances[_to].add(sendAmount) */\n      and\n      jump\t// in\n    tag_264:\n      sub(exp(0x2, 0xa0), 0x1)\n        /* \"contracts/Online/ERC20/TetherToken.sol\":5856:5869  balances[_to] */\n      dup8\n      and\n      0x0\n      swap1\n      dup2\n      mstore\n        /* \"contracts/Online/ERC20/TetherToken.sol\":5856:5864  balances */\n      0x2\n        /* \"contracts/Online/ERC20/TetherToken.sol\":5856:5869  balances[_to] */\n      0x20\n      mstore\n      0x40\n      dup2\n      keccak256\n        /* \"contracts/Online/ERC20/TetherToken.sol\":5856:5901  balances[_to] = balances[_to].add(sendAmount) */\n      swap2\n      swap1\n      swap2\n      sstore\n        /* \"contracts/Online/ERC20/TetherToken.sol\":5916:5923  fee > 0 */\n      dup4\n      gt\n        /* \"contracts/Online/ERC20/TetherToken.sol\":5912:6041  if (fee > 0) {\r... */\n      iszero\n      tag_266\n      jumpi\n        /* \"contracts/Online/ERC20/TetherToken.sol\":5958:5973  balances[owner] */\n      0x0\n        /* \"contracts/Online/ERC20/TetherToken.sol\":5967:5972  owner */\n      dup1\n      sload\n      sub(exp(0x2, 0xa0), 0x1)\n      and\n        /* \"contracts/Online/ERC20/TetherToken.sol\":5958:5973  balances[owner] */\n      dup2\n      mstore\n        /* \"contracts/Online/ERC20/TetherToken.sol\":5958:5966  balances */\n      0x2\n        /* \"contracts/Online/ERC20/TetherToken.sol\":5958:5973  balances[owner] */\n      0x20\n      mstore\n      0x40\n      swap1\n      keccak256\n      sload\n        /* \"contracts/Online/ERC20/TetherToken.sol\":5958:5982  balances[owner].add(fee) */\n      tag_267\n      swap1\n        /* \"contracts/Online/ERC20/TetherToken.sol\":5978:5981  fee */\n      dup5\n        /* \"contracts/Online/ERC20/TetherToken.sol\":5958:5982  balances[owner].add(fee) */\n      0xffffffff\n        /* \"contracts/Online/ERC20/TetherToken.sol\":5958:5977  balances[owner].add */\n      tag_265\n        /* \"contracts/Online/ERC20/TetherToken.sol\":5958:5982  balances[owner].add(fee) */\n      and\n      jump\t// in\n    tag_267:\n        /* \"contracts/Online/ERC20/TetherToken.sol\":5940:5955  balances[owner] */\n      0x0\n        /* \"contracts/Online/ERC20/TetherToken.sol\":5949:5954  owner */\n      dup1\n      sload\n      sub(exp(0x2, 0xa0), 0x1)\n      swap1\n      dup2\n      and\n        /* \"contracts/Online/ERC20/TetherToken.sol\":5940:5955  balances[owner] */\n      dup3\n      mstore\n        /* \"contracts/Online/ERC20/TetherToken.sol\":5940:5948  balances */\n      0x2\n        /* \"contracts/Online/ERC20/TetherToken.sol\":5940:5955  balances[owner] */\n      0x20\n      swap1\n      dup2\n      mstore\n      0x40\n      dup1\n      dup5\n      keccak256\n        /* \"contracts/Online/ERC20/TetherToken.sol\":5940:5982  balances[owner] = balances[owner].add(fee) */\n      swap5\n      swap1\n      swap5\n      sstore\n        /* \"contracts/Online/ERC20/TetherToken.sol\":6018:6023  owner */\n      swap2\n      sload\n        /* \"contracts/Online/ERC20/TetherToken.sol\":6002:6029  Transfer(_from, owner, fee) */\n      dup4\n      mload\n      dup8\n      dup2\n      mstore\n      swap4\n      mload\n        /* \"contracts/Online/ERC20/TetherToken.sol\":6018:6023  owner */\n      swap1\n      dup3\n      and\n      swap4\n        /* \"contracts/Online/ERC20/TetherToken.sol\":6002:6029  Transfer(_from, owner, fee) */\n      swap2\n      dup12\n      and\n      swap3\n      0x0\n      dup1\n      mload\n      0x20\n      data_ada389e1fc24a8587c776340efb91b36e675792ab631816100d55df0b5cf3cbc\n      dup4\n      codecopy\n      dup2\n      mload\n      swap2\n      mstore\n      swap3\n      dup3\n      swap1\n      sub\n      add\n      swap1\n      log3\n        /* \"contracts/Online/ERC20/TetherToken.sol\":5912:6041  if (fee > 0) {\r... */\n    tag_266:\n        /* \"contracts/Online/ERC20/TetherToken.sol\":6072:6075  _to */\n      dup6\n      sub(exp(0x2, 0xa0), 0x1)\n        /* \"contracts/Online/ERC20/TetherToken.sol\":6056:6088  Transfer(_from, _to, sendAmount) */\n      and\n        /* \"contracts/Online/ERC20/TetherToken.sol\":6065:6070  _from */\n      dup8\n      sub(exp(0x2, 0xa0), 0x1)\n        /* \"contracts/Online/ERC20/TetherToken.sol\":6056:6088  Transfer(_from, _to, sendAmount) */\n      and\n      0x0\n      dup1\n      mload\n      0x20\n      data_ada389e1fc24a8587c776340efb91b36e675792ab631816100d55df0b5cf3cbc\n      dup4\n      codecopy\n      dup2\n      mload\n      swap2\n      mstore\n        /* \"contracts/Online/ERC20/TetherToken.sol\":6077:6087  sendAmount */\n      dup5\n        /* \"contracts/Online/ERC20/TetherToken.sol\":6056:6088  Transfer(_from, _to, sendAmount) */\n      mload(0x40)\n      dup1\n      dup3\n      dup2\n      mstore\n      0x20\n      add\n      swap2\n      pop\n      pop\n      mload(0x40)\n      dup1\n      swap2\n      sub\n      swap1\n      log3\n        /* \"contracts/Online/ERC20/TetherToken.sol\":5184:6096  function transferFrom(address _from, address _to, uint _value) public onlyPayloadSize(3 * 32) {\r... */\n      pop\n      pop\n      pop\n      pop\n      pop\n      pop\n      pop\n      jump\t// out\n        /* \"contracts/Online/ERC20/TetherToken.sol\":4331:4447  function balanceOf(address _owner) public constant returns (uint balance) {\r... */\n    tag_189:\n      sub(exp(0x2, 0xa0), 0x1)\n        /* \"contracts/Online/ERC20/TetherToken.sol\":4423:4439  balances[_owner] */\n      and\n        /* \"contracts/Online/ERC20/TetherToken.sol\":4391:4403  uint balance */\n      0x0\n        /* \"contracts/Online/ERC20/TetherToken.sol\":4423:4439  balances[_owner] */\n      swap1\n      dup2\n      mstore\n        /* \"contracts/Online/ERC20/TetherToken.sol\":4423:4431  balances */\n      0x2\n        /* \"contracts/Online/ERC20/TetherToken.sol\":4423:4439  balances[_owner] */\n      0x20\n      mstore\n      0x40\n      swap1\n      keccak256\n      sload\n      swap1\n        /* \"contracts/Online/ERC20/TetherToken.sol\":4331:4447  function balanceOf(address _owner) public constant returns (uint balance) {\r... */\n      jump\t// out\n        /* \"contracts/Online/ERC20/TetherToken.sol\":3530:4113  function transfer(address _to, uint _value) public onlyPayloadSize(2 * 32) {\r... */\n    tag_208:\n        /* \"contracts/Online/ERC20/TetherToken.sol\":3616:3624  uint fee */\n      0x0\n      dup1\n        /* \"contracts/Online/ERC20/TetherToken.sol\":3597:3603  2 * 32 */\n      0x40\n        /* \"contracts/Online/ERC20/TetherToken.sol\":3327:3335  size + 4 */\n      0x44\n        /* \"contracts/Online/ERC20/TetherToken.sol\":3309:3317  msg.data */\n      calldatasize\n        /* \"contracts/Online/ERC20/TetherToken.sol\":3309:3335  msg.data.length < size + 4 */\n      lt\n        /* \"contracts/Online/ERC20/TetherToken.sol\":3307:3336  !(msg.data.length < size + 4) */\n      iszero\n        /* \"contracts/Online/ERC20/TetherToken.sol\":3299:3337  require(!(msg.data.length < size + 4)) */\n      tag_270\n      jumpi\n      0x0\n      dup1\n      revert\n    tag_270:\n        /* \"contracts/Online/ERC20/TetherToken.sol\":3627:3667  (_value.mul(basisPointsRate)).div(10000) */\n      tag_272\n        /* \"contracts/Online/ERC20/TetherToken.sol\":3661:3666  10000 */\n      0x2710\n        /* \"contracts/Online/ERC20/TetherToken.sol\":3628:3655  _value.mul(basisPointsRate) */\n      tag_256\n        /* \"contracts/Online/ERC20/TetherToken.sol\":3639:3654  basisPointsRate */\n      sload(0x3)\n        /* \"contracts/Online/ERC20/TetherToken.sol\":3628:3634  _value */\n      dup8\n        /* \"contracts/Online/ERC20/TetherToken.sol\":3628:3638  _value.mul */\n      tag_216\n      swap1\n        /* \"contracts/Online/ERC20/TetherToken.sol\":3628:3655  _value.mul(basisPointsRate) */\n      swap2\n      swap1\n      0xffffffff\n      and\n      jump\t// in\n        /* \"contracts/Online/ERC20/TetherToken.sol\":3627:3667  (_value.mul(basisPointsRate)).div(10000) */\n    tag_272:\n        /* \"contracts/Online/ERC20/TetherToken.sol\":3616:3667  uint fee = (_value.mul(basisPointsRate)).div(10000) */\n      swap3\n      pop\n        /* \"contracts/Online/ERC20/TetherToken.sol\":3688:3698  maximumFee */\n      sload(0x4)\n        /* \"contracts/Online/ERC20/TetherToken.sol\":3682:3685  fee */\n      dup4\n        /* \"contracts/Online/ERC20/TetherToken.sol\":3682:3698  fee > maximumFee */\n      gt\n        /* \"contracts/Online/ERC20/TetherToken.sol\":3678:3743  if (fee > maximumFee) {\r... */\n      iszero\n      tag_274\n      jumpi\n        /* \"contracts/Online/ERC20/TetherToken.sol\":3721:3731  maximumFee */\n      sload(0x4)\n        /* \"contracts/Online/ERC20/TetherToken.sol\":3715:3731  fee = maximumFee */\n      swap3\n      pop\n        /* \"contracts/Online/ERC20/TetherToken.sol\":3678:3743  if (fee > maximumFee) {\r... */\n    tag_274:\n        /* \"contracts/Online/ERC20/TetherToken.sol\":3771:3786  _value.sub(fee) */\n      tag_275\n        /* \"contracts/Online/ERC20/TetherToken.sol\":3771:3777  _value */\n      dup5\n        /* \"contracts/Online/ERC20/TetherToken.sol\":3782:3785  fee */\n      dup5\n        /* \"contracts/Online/ERC20/TetherToken.sol\":3771:3786  _value.sub(fee) */\n      0xffffffff\n        /* \"contracts/Online/ERC20/TetherToken.sol\":3771:3781  _value.sub */\n      tag_261\n        /* \"contracts/Online/ERC20/TetherToken.sol\":3771:3786  _value.sub(fee) */\n      and\n      jump\t// in\n    tag_275:\n        /* \"contracts/Online/ERC20/TetherToken.sol\":3829:3839  msg.sender */\n      caller\n        /* \"contracts/Online/ERC20/TetherToken.sol\":3820:3840  balances[msg.sender] */\n      0x0\n      swap1\n      dup2\n      mstore\n        /* \"contracts/Online/ERC20/TetherToken.sol\":3820:3828  balances */\n      0x2\n        /* \"contracts/Online/ERC20/TetherToken.sol\":3820:3840  balances[msg.sender] */\n      0x20\n      mstore\n      0x40\n      swap1\n      keccak256\n      sload\n        /* \"contracts/Online/ERC20/TetherToken.sol\":3753:3786  uint sendAmount = _value.sub(fee) */\n      swap1\n      swap3\n      pop\n        /* \"contracts/Online/ERC20/TetherToken.sol\":3820:3852  balances[msg.sender].sub(_value) */\n      tag_276\n      swap1\n        /* \"contracts/Online/ERC20/TetherToken.sol\":3845:3851  _value */\n      dup6\n        /* \"contracts/Online/ERC20/TetherToken.sol\":3820:3852  balances[msg.sender].sub(_value) */\n      0xffffffff\n        /* \"contracts/Online/ERC20/TetherToken.sol\":3820:3844  balances[msg.sender].sub */\n      tag_261\n        /* \"contracts/Online/ERC20/TetherToken.sol\":3820:3852  balances[msg.sender].sub(_value) */\n      and\n      jump\t// in\n    tag_276:\n        /* \"contracts/Online/ERC20/TetherToken.sol\":3806:3816  msg.sender */\n      caller\n        /* \"contracts/Online/ERC20/TetherToken.sol\":3797:3817  balances[msg.sender] */\n      0x0\n      swap1\n      dup2\n      mstore\n        /* \"contracts/Online/ERC20/TetherToken.sol\":3797:3805  balances */\n      0x2\n        /* \"contracts/Online/ERC20/TetherToken.sol\":3797:3817  balances[msg.sender] */\n      0x20\n      mstore\n      0x40\n      dup1\n      dup3\n      keccak256\n        /* \"contracts/Online/ERC20/TetherToken.sol\":3797:3852  balances[msg.sender] = balances[msg.sender].sub(_value) */\n      swap3\n      swap1\n      swap3\n      sstore\n      sub(exp(0x2, 0xa0), 0x1)\n        /* \"contracts/Online/ERC20/TetherToken.sol\":3879:3892  balances[_to] */\n      dup8\n      and\n      dup2\n      mstore\n      keccak256\n      sload\n        /* \"contracts/Online/ERC20/TetherToken.sol\":3879:3908  balances[_to].add(sendAmount) */\n      tag_277\n      swap1\n        /* \"contracts/Online/ERC20/TetherToken.sol\":3897:3907  sendAmount */\n      dup4\n        /* \"contracts/Online/ERC20/TetherToken.sol\":3879:3908  balances[_to].add(sendAmount) */\n      0xffffffff\n        /* \"contracts/Online/ERC20/TetherToken.sol\":3879:3896  balances[_to].add */\n      tag_265\n        /* \"contracts/Online/ERC20/TetherToken.sol\":3879:3908  balances[_to].add(sendAmount) */\n      and\n      jump\t// in\n    tag_277:\n      sub(exp(0x2, 0xa0), 0x1)\n        /* \"contracts/Online/ERC20/TetherToken.sol\":3863:3876  balances[_to] */\n      dup7\n      and\n      0x0\n      swap1\n      dup2\n      mstore\n        /* \"contracts/Online/ERC20/TetherToken.sol\":3863:3871  balances */\n      0x2\n        /* \"contracts/Online/ERC20/TetherToken.sol\":3863:3876  balances[_to] */\n      0x20\n      mstore\n      0x40\n      dup2\n      keccak256\n        /* \"contracts/Online/ERC20/TetherToken.sol\":3863:3908  balances[_to] = balances[_to].add(sendAmount) */\n      swap2\n      swap1\n      swap2\n      sstore\n        /* \"contracts/Online/ERC20/TetherToken.sol\":3923:3930  fee > 0 */\n      dup4\n      gt\n        /* \"contracts/Online/ERC20/TetherToken.sol\":3919:4053  if (fee > 0) {\r... */\n      iszero\n      tag_278\n      jumpi\n        /* \"contracts/Online/ERC20/TetherToken.sol\":3965:3980  balances[owner] */\n      0x0\n        /* \"contracts/Online/ERC20/TetherToken.sol\":3974:3979  owner */\n      dup1\n      sload\n      sub(exp(0x2, 0xa0), 0x1)\n      and\n        /* \"contracts/Online/ERC20/TetherToken.sol\":3965:3980  balances[owner] */\n      dup2\n      mstore\n        /* \"contracts/Online/ERC20/TetherToken.sol\":3965:3973  balances */\n      0x2\n        /* \"contracts/Online/ERC20/TetherToken.sol\":3965:3980  balances[owner] */\n      0x20\n      mstore\n      0x40\n      swap1\n      keccak256\n      sload\n        /* \"contracts/Online/ERC20/TetherToken.sol\":3965:3989  balances[owner].add(fee) */\n      tag_279\n      swap1\n        /* \"contracts/Online/ERC20/TetherToken.sol\":3985:3988  fee */\n      dup5\n        /* \"contracts/Online/ERC20/TetherToken.sol\":3965:3989  balances[owner].add(fee) */\n      0xffffffff\n        /* \"contracts/Online/ERC20/TetherToken.sol\":3965:3984  balances[owner].add */\n      tag_265\n        /* \"contracts/Online/ERC20/TetherToken.sol\":3965:3989  balances[owner].add(fee) */\n      and\n      jump\t// in\n    tag_279:\n        /* \"contracts/Online/ERC20/TetherToken.sol\":3947:3962  balances[owner] */\n      0x0\n        /* \"contracts/Online/ERC20/TetherToken.sol\":3956:3961  owner */\n      dup1\n      sload\n      sub(exp(0x2, 0xa0), 0x1)\n      swap1\n      dup2\n      and\n        /* \"contracts/Online/ERC20/TetherToken.sol\":3947:3962  balances[owner] */\n      dup3\n      mstore\n        /* \"contracts/Online/ERC20/TetherToken.sol\":3947:3955  balances */\n      0x2\n        /* \"contracts/Online/ERC20/TetherToken.sol\":3947:3962  balances[owner] */\n      0x20\n      swap1\n      dup2\n      mstore\n      0x40\n      dup1\n      dup5\n      keccak256\n        /* \"contracts/Online/ERC20/TetherToken.sol\":3947:3989  balances[owner] = balances[owner].add(fee) */\n      swap5\n      swap1\n      swap5\n      sstore\n        /* \"contracts/Online/ERC20/TetherToken.sol\":4030:4035  owner */\n      swap2\n      sload\n        /* \"contracts/Online/ERC20/TetherToken.sol\":4009:4041  Transfer(msg.sender, owner, fee) */\n      dup4\n      mload\n      dup8\n      dup2\n      mstore\n      swap4\n      mload\n        /* \"contracts/Online/ERC20/TetherToken.sol\":4030:4035  owner */\n      swap2\n      and\n      swap3\n        /* \"contracts/Online/ERC20/TetherToken.sol\":4018:4028  msg.sender */\n      caller\n      swap3\n      0x0\n      dup1\n      mload\n      0x20\n      data_ada389e1fc24a8587c776340efb91b36e675792ab631816100d55df0b5cf3cbc\n      dup4\n      codecopy\n      dup2\n      mload\n      swap2\n      mstore\n        /* \"contracts/Online/ERC20/TetherToken.sol\":4009:4041  Transfer(msg.sender, owner, fee) */\n      swap3\n      swap2\n      dup3\n      swap1\n      sub\n      add\n      swap1\n      log3\n        /* \"contracts/Online/ERC20/TetherToken.sol\":3919:4053  if (fee > 0) {\r... */\n    tag_278:\n        /* \"contracts/Online/ERC20/TetherToken.sol\":4068:4105  Transfer(msg.sender, _to, sendAmount) */\n      0x40\n      dup1\n      mload\n      dup4\n      dup2\n      mstore\n      swap1\n      mload\n      sub(exp(0x2, 0xa0), 0x1)\n      dup8\n      and\n      swap2\n        /* \"contracts/Online/ERC20/TetherToken.sol\":4077:4087  msg.sender */\n      caller\n      swap2\n      0x0\n      dup1\n      mload\n      0x20\n      data_ada389e1fc24a8587c776340efb91b36e675792ab631816100d55df0b5cf3cbc\n      dup4\n      codecopy\n      dup2\n      mload\n      swap2\n      mstore\n        /* \"contracts/Online/ERC20/TetherToken.sol\":4068:4105  Transfer(msg.sender, _to, sendAmount) */\n      swap2\n      dup2\n      swap1\n      sub\n      0x20\n      add\n      swap1\n      log3\n        /* \"contracts/Online/ERC20/TetherToken.sol\":3530:4113  function transfer(address _to, uint _value) public onlyPayloadSize(2 * 32) {\r... */\n      pop\n      pop\n      pop\n      pop\n      pop\n      jump\t// out\n        /* \"contracts/Online/ERC20/TetherToken.sol\":177:385  function mul(uint256 a, uint256 b) internal pure returns (uint256) {\r... */\n    tag_216:\n        /* \"contracts/Online/ERC20/TetherToken.sol\":235:242  uint256 */\n      0x0\n      dup1\n        /* \"contracts/Online/ERC20/TetherToken.sol\":259:265  a == 0 */\n      dup4\n      iszero\n        /* \"contracts/Online/ERC20/TetherToken.sol\":255:302  if (a == 0) {\r... */\n      iszero\n      tag_281\n      jumpi\n        /* \"contracts/Online/ERC20/TetherToken.sol\":289:290  0 */\n      0x0\n        /* \"contracts/Online/ERC20/TetherToken.sol\":282:290  return 0 */\n      swap2\n      pop\n      jump(tag_280)\n        /* \"contracts/Online/ERC20/TetherToken.sol\":255:302  if (a == 0) {\r... */\n    tag_281:\n      pop\n        /* \"contracts/Online/ERC20/TetherToken.sol\":324:329  a * b */\n      dup3\n      dup3\n      mul\n        /* \"contracts/Online/ERC20/TetherToken.sol\":328:329  b */\n      dup3\n        /* \"contracts/Online/ERC20/TetherToken.sol\":324:325  a */\n      dup5\n        /* \"contracts/Online/ERC20/TetherToken.sol\":324:329  a * b */\n      dup3\n        /* \"contracts/Online/ERC20/TetherToken.sol\":347:352  c / a */\n      dup2\n      iszero\n      iszero\n      tag_282\n      jumpi\n      invalid\n    tag_282:\n      div\n        /* \"contracts/Online/ERC20/TetherToken.sol\":347:357  c / a == b */\n      eq\n        /* \"contracts/Online/ERC20/TetherToken.sol\":340:358  assert(c / a == b) */\n      tag_283\n      jumpi\n      invalid\n    tag_283:\n        /* \"contracts/Online/ERC20/TetherToken.sol\":376:377  c */\n      dup1\n        /* \"contracts/Online/ERC20/TetherToken.sol\":369:377  return c */\n      swap2\n      pop\n        /* \"contracts/Online/ERC20/TetherToken.sol\":177:385  function mul(uint256 a, uint256 b) internal pure returns (uint256) {\r... */\n    tag_280:\n      pop\n      swap3\n      swap2\n      pop\n      pop\n      jump\t// out\n        /* \"contracts/Online/ERC20/TetherToken.sol\":7249:7394  function allowance(address _owner, address _spender) public constant returns (uint remaining) {\r... */\n    tag_234:\n      sub(exp(0x2, 0xa0), 0x1)\n        /* \"contracts/Online/ERC20/TetherToken.sol\":7361:7376  allowed[_owner] */\n      swap2\n      dup3\n      and\n        /* \"contracts/Online/ERC20/TetherToken.sol\":7327:7341  uint remaining */\n      0x0\n        /* \"contracts/Online/ERC20/TetherToken.sol\":7361:7376  allowed[_owner] */\n      swap1\n      dup2\n      mstore\n        /* \"contracts/Online/ERC20/TetherToken.sol\":7361:7368  allowed */\n      0x5\n        /* \"contracts/Online/ERC20/TetherToken.sol\":7361:7376  allowed[_owner] */\n      0x20\n      swap1\n      dup2\n      mstore\n      0x40\n      dup1\n      dup4\n      keccak256\n        /* \"contracts/Online/ERC20/TetherToken.sol\":7361:7386  allowed[_owner][_spender] */\n      swap4\n      swap1\n      swap5\n      and\n      dup3\n      mstore\n      swap2\n      swap1\n      swap2\n      mstore\n      keccak256\n      sload\n      swap1\n        /* \"contracts/Online/ERC20/TetherToken.sol\":7249:7394  function allowance(address _owner, address _spender) public constant returns (uint remaining) {\r... */\n      jump\t// out\n        /* \"contracts/Online/ERC20/TetherToken.sol\":393:681  function div(uint256 a, uint256 b) internal pure returns (uint256) {\r... */\n    tag_257:\n        /* \"contracts/Online/ERC20/TetherToken.sol\":451:458  uint256 */\n      0x0\n        /* \"contracts/Online/ERC20/TetherToken.sol\":550:559  uint256 c */\n      dup1\n        /* \"contracts/Online/ERC20/TetherToken.sol\":566:567  b */\n      dup3\n        /* \"contracts/Online/ERC20/TetherToken.sol\":562:563  a */\n      dup5\n        /* \"contracts/Online/ERC20/TetherToken.sol\":562:567  a / b */\n      dup2\n      iszero\n      iszero\n      tag_286\n      jumpi\n      invalid\n    tag_286:\n      div\n      swap5\n        /* \"contracts/Online/ERC20/TetherToken.sol\":393:681  function div(uint256 a, uint256 b) internal pure returns (uint256) {\r... */\n      swap4\n      pop\n      pop\n      pop\n      pop\n      jump\t// out\n        /* \"contracts/Online/ERC20/TetherToken.sol\":689:812  function sub(uint256 a, uint256 b) internal pure returns (uint256) {\r... */\n    tag_261:\n        /* \"contracts/Online/ERC20/TetherToken.sol\":747:754  uint256 */\n      0x0\n        /* \"contracts/Online/ERC20/TetherToken.sol\":774:780  b <= a */\n      dup3\n      dup3\n      gt\n      iszero\n        /* \"contracts/Online/ERC20/TetherToken.sol\":767:781  assert(b <= a) */\n      tag_288\n      jumpi\n      invalid\n    tag_288:\n      pop\n        /* \"contracts/Online/ERC20/TetherToken.sol\":799:804  a - b */\n      swap1\n      sub\n      swap1\n        /* \"contracts/Online/ERC20/TetherToken.sol\":689:812  function sub(uint256 a, uint256 b) internal pure returns (uint256) {\r... */\n      jump\t// out\n        /* \"contracts/Online/ERC20/TetherToken.sol\":820:967  function add(uint256 a, uint256 b) internal pure returns (uint256) {\r... */\n    tag_265:\n        /* \"contracts/Online/ERC20/TetherToken.sol\":878:885  uint256 */\n      0x0\n        /* \"contracts/Online/ERC20/TetherToken.sol\":910:915  a + b */\n      dup3\n      dup3\n      add\n        /* \"contracts/Online/ERC20/TetherToken.sol\":933:939  c >= a */\n      dup4\n      dup2\n      lt\n      iszero\n        /* \"contracts/Online/ERC20/TetherToken.sol\":926:940  assert(c >= a) */\n      tag_283\n      jumpi\n      invalid\n    stop\n    data_ada389e1fc24a8587c776340efb91b36e675792ab631816100d55df0b5cf3cbc ddf252ad1be2c89b69c2b068fc378daa952ba7f163c4a11628f55a4df523b3ef\n\n    auxdata: 0xa165627a7a72305820bfc6dbe9abbba8829f6c33f5f3ce5f6727b6891c5bc4a5d7ed43c3fcdd3f136b0029\n}\n",
				"bytecode": {
					"linkReferences": {},
					"object": "60806040526000805460a060020a60ff021916815560038190556004553480156200002957600080fd5b5060405162001861380380620018618339810160409081528151602080840151928401516060850151600184905593850180519395909491019290916200007691600791860190620000c1565b5081516200008c906008906020850190620000c1565b50600955505060008054600160a060020a0316815260026020526040902055600a805460a060020a60ff021916905562000166565b828054600181600116156101000203166002900490600052602060002090601f016020900481019282601f106200010457805160ff191683800117855562000134565b8280016001018555821562000134579182015b828111156200013457825182559160200191906001019062000117565b506200014292915062000146565b5090565b6200016391905b808211156200014257600081556001016200014d565b90565b6116eb80620001766000396000f3006080604052600436106101a05763ffffffff7c010000000000000000000000000000000000000000000000000000000060003504166306fdde0381146101a55780630753c30c1461022f578063095ea7b3146102525780630e136b19146102765780630ecb93c01461029f57806318160ddd146102c057806323b872dd146102e757806326976e3f1461031157806327e235e314610342578063313ce5671461036357806335390714146103785780633eaaf86b1461038d5780633f4ba83a146103a257806359bf1abe146103b75780635c658165146103d85780635c975abb146103ff57806370a08231146104145780638456cb5914610435578063893d20e81461044a5780638da5cb5b1461045f57806395d89b4114610474578063a9059cbb14610489578063b38854be146104ad578063c0324c77146104c2578063cc872b66146104dd578063db006a75146104f5578063dd62ed3e1461050d578063dd644f7214610534578063e47d606014610549578063e4997dc51461056a578063e5b5019a1461058b578063f2fde38b146105a0578063f3bdc228146105c1575b600080fd5b3480156101b157600080fd5b506101ba6105e2565b6040805160208082528351818301528351919283929083019185019080838360005b838110156101f45781810151838201526020016101dc565b50505050905090810190601f1680156102215780820380516001836020036101000a031916815260200191505b509250505060405180910390f35b34801561023b57600080fd5b50610250600160a060020a0360043516610670565b005b34801561025e57600080fd5b50610250600160a060020a0360043516602435610708565b34801561028257600080fd5b5061028b6107ca565b604080519115158252519081900360200190f35b3480156102ab57600080fd5b50610250600160a060020a03600435166107da565b3480156102cc57600080fd5b506102d561084c565b60408051918252519081900360200190f35b3480156102f357600080fd5b50610250600160a060020a0360043581169060243516604435610908565b34801561031d57600080fd5b506103266109de565b60408051600160a060020a039092168252519081900360200190f35b34801561034e57600080fd5b506102d5600160a060020a03600435166109ed565b34801561036f57600080fd5b506102d56109ff565b34801561038457600080fd5b506102d5610a05565b34801561039957600080fd5b506102d5610a0b565b3480156103ae57600080fd5b50610250610a11565b3480156103c357600080fd5b5061028b600160a060020a0360043516610a87565b3480156103e457600080fd5b506102d5600160a060020a0360043581169060243516610aa9565b34801561040b57600080fd5b5061028b610ac6565b34801561042057600080fd5b506102d5600160a060020a0360043516610ad6565b34801561044157600080fd5b50610250610b96565b34801561045657600080fd5b50610326610c11565b34801561046b57600080fd5b50610326610c20565b34801561048057600080fd5b506101ba610c2f565b34801561049557600080fd5b50610250600160a060020a0360043516602435610c8a565b3480156104b957600080fd5b50610250610d6f565b3480156104ce57600080fd5b50610250600435602435610d90565b3480156104e957600080fd5b50610250600435610e25565b34801561050157600080fd5b50610250600435610ed0565b34801561051957600080fd5b506102d5600160a060020a0360043581169060243516610f7b565b34801561054057600080fd5b506102d5611046565b34801561055557600080fd5b5061028b600160a060020a036004351661104c565b34801561057657600080fd5b50610250600160a060020a0360043516611061565b34801561059757600080fd5b506102d56110d0565b3480156105ac57600080fd5b50610250600160a060020a03600435166110d6565b3480156105cd57600080fd5b50610250600160a060020a0360043516611128565b6007805460408051602060026001851615610100026000190190941693909304601f810184900484028201840190925281815292918301828280156106685780601f1061063d57610100808354040283529160200191610668565b820191906000526020600020905b81548152906001019060200180831161064b57829003601f168201915b505050505081565b600054600160a060020a0316331461068757600080fd5b600a805460a060020a74ff0000000000000000000000000000000000000000199091161773ffffffffffffffffffffffffffffffffffffffff1916600160a060020a03831690811790915560408051918252517fcc358699805e9a8b7f77b522628c7cb9abd07d9efb86b6fb616af1609036a99e916020908290030190a150565b6040604436101561071857600080fd5b600a5460a060020a900460ff16156107bb57600a54604080517faee92d33000000000000000000000000000000000000000000000000000000008152336004820152600160a060020a038681166024830152604482018690529151919092169163aee92d3391606480830192600092919082900301818387803b15801561079e57600080fd5b505af11580156107b2573d6000803e3d6000fd5b505050506107c5565b6107c583836111d4565b505050565b600a5460a060020a900460ff1681565b600054600160a060020a031633146107f157600080fd5b600160a060020a038116600081815260066020908152604091829020805460ff19166001179055815192835290517f42e160154868087d6bfdc0ca23d96a1c1cfa32f1b72ba9ba27b69b98a0d819dc9281900390910190a150565b600a5460009060a060020a900460ff161561090057600a60009054906101000a9004600160a060020a0316600160a060020a03166318160ddd6040518163ffffffff167c0100000000000000000000000000000000000000000000000000000000028152600401602060405180830381600087803b1580156108cd57600080fd5b505af11580156108e1573d6000803e3d6000fd5b505050506040513d60208110156108f757600080fd5b50519050610905565b506001545b90565b60005460a060020a900460ff161561091f57600080fd5b600160a060020a03831660009081526006602052604090205460ff161561094557600080fd5b600a5460a060020a900460ff16156109d357600a54604080517f8b477adb000000000000000000000000000000000000000000000000000000008152336004820152600160a060020a03868116602483015285811660448301526064820185905291519190921691638b477adb91608480830192600092919082900301818387803b15801561079e57600080fd5b6107c5838383611282565b600a54600160a060020a031681565b60026020526000908152604090205481565b60095481565b60045481565b60015481565b600054600160a060020a03163314610a2857600080fd5b60005460a060020a900460ff161515610a4057600080fd5b6000805474ff0000000000000000000000000000000000000000191681556040517f7805862f689e2f13df9f062ff482ad3ad112aca9e0847911ed832e158c525b339190a1565b600160a060020a03811660009081526006602052604090205460ff165b919050565b600560209081526000928352604080842090915290825290205481565b60005460a060020a900460ff1681565b600a5460009060a060020a900460ff1615610b8657600a54604080517f70a08231000000000000000000000000000000000000000000000000000000008152600160a060020a038581166004830152915191909216916370a082319160248083019260209291908290030181600087803b158015610b5357600080fd5b505af1158015610b67573d6000803e3d6000fd5b505050506040513d6020811015610b7d57600080fd5b50519050610aa4565b610b8f8261147e565b9050610aa4565b600054600160a060020a03163314610bad57600080fd5b60005460a060020a900460ff1615610bc457600080fd5b6000805474ff0000000000000000000000000000000000000000191660a060020a1781556040517f6985a02210a168e66602d3235cb6db0e70f92b3ba4d376a33c0f3d9434bff6259190a1565b600054600160a060020a031690565b600054600160a060020a031681565b6008805460408051602060026001851615610100026000190190941693909304601f810184900484028201840190925281815292918301828280156106685780601f1061063d57610100808354040283529160200191610668565b60005460a060020a900460ff1615610ca157600080fd5b3360009081526006602052604090205460ff1615610cbe57600080fd5b600a5460a060020a900460ff1615610d6157600a54604080517f6e18980a000000000000000000000000000000000000000000000000000000008152336004820152600160a060020a0385811660248301526044820185905291519190921691636e18980a91606480830192600092919082900301818387803b158015610d4457600080fd5b505af1158015610d58573d6000803e3d6000fd5b50505050610d6b565b610d6b8282611499565b5050565b6000805473ffffffffffffffffffffffffffffffffffffffff191633179055565b600054600160a060020a03163314610da757600080fd5b60148210610db457600080fd5b60328110610dc157600080fd5b6003829055600954610ddd908290600a0a63ffffffff61160616565b600481905560035460408051918252602082019290925281517fb044a1e409eac5c48e5af22d4af52670dd1a99059537a78b31b48c6500a6354e929181900390910190a15050565b600054600160a060020a03163314610e3c57600080fd5b60015481810111610e4c57600080fd5b60008054600160a060020a031681526002602052604090205481810111610e7257600080fd5b60008054600160a060020a03168152600260209081526040918290208054840190556001805484019055815183815291517fcb8241adb0c3fdb35b70c24ce35c5eb0c17af7431c99f827d44a445ca624176a9281900390910190a150565b600054600160a060020a03163314610ee757600080fd5b600154811115610ef657600080fd5b60008054600160a060020a0316815260026020526040902054811115610f1b57600080fd5b60018054829003905560008054600160a060020a031681526002602090815260409182902080548490039055815183815291517f702d5967f45f6513a38ffc42d6ba9bf230bd40e8f53b16363c7eb4fd2deb9a449281900390910190a150565b600a5460009060a060020a900460ff161561103357600a54604080517fdd62ed3e000000000000000000000000000000000000000000000000000000008152600160a060020a03868116600483015285811660248301529151919092169163dd62ed3e9160448083019260209291908290030181600087803b15801561100057600080fd5b505af1158015611014573d6000803e3d6000fd5b505050506040513d602081101561102a57600080fd5b50519050611040565b61103d838361163c565b90505b92915050565b60035481565b60066020526000908152604090205460ff1681565b600054600160a060020a0316331461107857600080fd5b600160a060020a038116600081815260066020908152604091829020805460ff19169055815192835290517fd7e9ec6e6ecd65492dce6bf513cd6867560d49544421d0783ddf06e76c24470c9281900390910190a150565b60001981565b600054600160a060020a031633146110ed57600080fd5b600160a060020a03811615611125576000805473ffffffffffffffffffffffffffffffffffffffff1916600160a060020a0383161790555b50565b60008054600160a060020a0316331461114057600080fd5b600160a060020a03821660009081526006602052604090205460ff16151561116757600080fd5b61117082610ad6565b600160a060020a0383166000818152600260209081526040808320929092556001805485900390558151928352820183905280519293507f61e6e66b0d6339b2980aecc6ccc0039736791f0ccde9ed512e789a7fbdd698c692918290030190a15050565b604060443610156111e457600080fd5b81158015906112155750336000908152600560209081526040808320600160a060020a038716845290915290205415155b1561121f57600080fd5b336000818152600560209081526040808320600160a060020a03881680855290835292819020869055805186815290519293927f8c5be1e5ebec7d5bd14f71427d1e84f3dd0314c0f7b2291e5b200ac8c7c3b925929181900390910190a3505050565b600080806060606436101561129657600080fd5b600160a060020a03871660009081526005602090815260408083203384529091529020546003549094506112e590612710906112d990889063ffffffff61160616565b9063ffffffff61166716565b92506004548311156112f75760045492505b60001984101561133657611311848663ffffffff61167e16565b600160a060020a03881660009081526005602090815260408083203384529091529020555b611346858463ffffffff61167e16565b600160a060020a038816600090815260026020526040902054909250611372908663ffffffff61167e16565b600160a060020a0380891660009081526002602052604080822093909355908816815220546113a7908363ffffffff61169016565b600160a060020a03871660009081526002602052604081209190915583111561143c5760008054600160a060020a03168152600260205260409020546113f3908463ffffffff61169016565b60008054600160a060020a0390811682526002602090815260408084209490945591548351878152935190821693918b16926000805160206116a0833981519152928290030190a35b85600160a060020a031687600160a060020a03166000805160206116a0833981519152846040518082815260200191505060405180910390a350505050505050565b600160a060020a031660009081526002602052604090205490565b600080604060443610156114ac57600080fd5b6114c76127106112d96003548761160690919063ffffffff16565b92506004548311156114d95760045492505b6114e9848463ffffffff61167e16565b3360009081526002602052604090205490925061150c908563ffffffff61167e16565b3360009081526002602052604080822092909255600160a060020a0387168152205461153e908363ffffffff61169016565b600160a060020a0386166000908152600260205260408120919091558311156115d15760008054600160a060020a031681526002602052604090205461158a908463ffffffff61169016565b60008054600160a060020a0390811682526002602090815260408084209490945591548351878152935191169233926000805160206116a083398151915292918290030190a35b604080518381529051600160a060020a0387169133916000805160206116a08339815191529181900360200190a35050505050565b6000808315156116195760009150611635565b5082820282848281151561162957fe5b041461163157fe5b8091505b5092915050565b600160a060020a03918216600090815260056020908152604080832093909416825291909152205490565b600080828481151561167557fe5b04949350505050565b60008282111561168a57fe5b50900390565b60008282018381101561163157fe00ddf252ad1be2c89b69c2b068fc378daa952ba7f163c4a11628f55a4df523b3efa165627a7a72305820bfc6dbe9abbba8829f6c33f5f3ce5f6727b6891c5bc4a5d7ed43c3fcdd3f136b0029",
					"opcodes": "PUSH1 0x80 PUSH1 0x40 MSTORE PUSH1 0x0 DUP1 SLOAD PUSH1 0xA0 PUSH1 0x2 EXP PUSH1 0xFF MUL NOT AND DUP2 SSTORE PUSH1 0x3 DUP2 SWAP1 SSTORE PUSH1 0x4 SSTORE CALLVALUE DUP1 ISZERO PUSH3 0x29 JUMPI PUSH1 0x0 DUP1 REVERT JUMPDEST POP PUSH1 0x40 MLOAD PUSH3 0x1861 CODESIZE SUB DUP1 PUSH3 0x1861 DUP4 CODECOPY DUP2 ADD PUSH1 0x40 SWAP1 DUP2 MSTORE DUP2 MLOAD PUSH1 0x20 DUP1 DUP5 ADD MLOAD SWAP3 DUP5 ADD MLOAD PUSH1 0x60 DUP6 ADD MLOAD PUSH1 0x1 DUP5 SWAP1 SSTORE SWAP4 DUP6 ADD DUP1 MLOAD SWAP4 SWAP6 SWAP1 SWAP5 SWAP2 ADD SWAP3 SWAP1 SWAP2 PUSH3 0x76 SWAP2 PUSH1 0x7 SWAP2 DUP7 ADD SWAP1 PUSH3 0xC1 JUMP JUMPDEST POP DUP2 MLOAD PUSH3 0x8C SWAP1 PUSH1 0x8 SWAP1 PUSH1 0x20 DUP6 ADD SWAP1 PUSH3 0xC1 JUMP JUMPDEST POP PUSH1 0x9 SSTORE POP POP PUSH1 0x0 DUP1 SLOAD PUSH1 0x1 PUSH1 0xA0 PUSH1 0x2 EXP SUB AND DUP2 MSTORE PUSH1 0x2 PUSH1 0x20 MSTORE PUSH1 0x40 SWAP1 KECCAK256 SSTORE PUSH1 0xA DUP1 SLOAD PUSH1 0xA0 PUSH1 0x2 EXP PUSH1 0xFF MUL NOT AND SWAP1 SSTORE PUSH3 0x166 JUMP JUMPDEST DUP3 DUP1 SLOAD PUSH1 0x1 DUP2 PUSH1 0x1 AND ISZERO PUSH2 0x100 MUL SUB AND PUSH1 0x2 SWAP1 DIV SWAP1 PUSH1 0x0 MSTORE PUSH1 0x20 PUSH1 0x0 KECCAK256 SWAP1 PUSH1 0x1F ADD PUSH1 0x20 SWAP1 DIV DUP2 ADD SWAP3 DUP3 PUSH1 0x1F LT PUSH3 0x104 JUMPI DUP1 MLOAD PUSH1 0xFF NOT AND DUP4 DUP1 ADD OR DUP6 SSTORE PUSH3 0x134 JUMP JUMPDEST DUP3 DUP1 ADD PUSH1 0x1 ADD DUP6 SSTORE DUP3 ISZERO PUSH3 0x134 JUMPI SWAP2 DUP3 ADD JUMPDEST DUP3 DUP2 GT ISZERO PUSH3 0x134 JUMPI DUP3 MLOAD DUP3 SSTORE SWAP2 PUSH1 0x20 ADD SWAP2 SWAP1 PUSH1 0x1 ADD SWAP1 PUSH3 0x117 JUMP JUMPDEST POP PUSH3 0x142 SWAP3 SWAP2 POP PUSH3 0x146 JUMP JUMPDEST POP SWAP1 JUMP JUMPDEST PUSH3 0x163 SWAP2 SWAP1 JUMPDEST DUP1 DUP3 GT ISZERO PUSH3 0x142 JUMPI PUSH1 0x0 DUP2 SSTORE PUSH1 0x1 ADD PUSH3 0x14D JUMP JUMPDEST SWAP1 JUMP JUMPDEST PUSH2 0x16EB DUP1 PUSH3 0x176 PUSH1 0x0 CODECOPY PUSH1 0x0 RETURN STOP PUSH1 0x80 PUSH1 0x40 MSTORE PUSH1 0x4 CALLDATASIZE LT PUSH2 0x1A0 JUMPI PUSH4 0xFFFFFFFF PUSH29 0x100000000000000000000000000000000000000000000000000000000 PUSH1 0x0 CALLDATALOAD DIV AND PUSH4 0x6FDDE03 DUP2 EQ PUSH2 0x1A5 JUMPI DUP1 PUSH4 0x753C30C EQ PUSH2 0x22F JUMPI DUP1 PUSH4 0x95EA7B3 EQ PUSH2 0x252 JUMPI DUP1 PUSH4 0xE136B19 EQ PUSH2 0x276 JUMPI DUP1 PUSH4 0xECB93C0 EQ PUSH2 0x29F JUMPI DUP1 PUSH4 0x18160DDD EQ PUSH2 0x2C0 JUMPI DUP1 PUSH4 0x23B872DD EQ PUSH2 0x2E7 JUMPI DUP1 PUSH4 0x26976E3F EQ PUSH2 0x311 JUMPI DUP1 PUSH4 0x27E235E3 EQ PUSH2 0x342 JUMPI DUP1 PUSH4 0x313CE567 EQ PUSH2 0x363 JUMPI DUP1 PUSH4 0x35390714 EQ PUSH2 0x378 JUMPI DUP1 PUSH4 0x3EAAF86B EQ PUSH2 0x38D JUMPI DUP1 PUSH4 0x3F4BA83A EQ PUSH2 0x3A2 JUMPI DUP1 PUSH4 0x59BF1ABE EQ PUSH2 0x3B7 JUMPI DUP1 PUSH4 0x5C658165 EQ PUSH2 0x3D8 JUMPI DUP1 PUSH4 0x5C975ABB EQ PUSH2 0x3FF JUMPI DUP1 PUSH4 0x70A08231 EQ PUSH2 0x414 JUMPI DUP1 PUSH4 0x8456CB59 EQ PUSH2 0x435 JUMPI DUP1 PUSH4 0x893D20E8 EQ PUSH2 0x44A JUMPI DUP1 PUSH4 0x8DA5CB5B EQ PUSH2 0x45F JUMPI DUP1 PUSH4 0x95D89B41 EQ PUSH2 0x474 JUMPI DUP1 PUSH4 0xA9059CBB EQ PUSH2 0x489 JUMPI DUP1 PUSH4 0xB38854BE EQ PUSH2 0x4AD JUMPI DUP1 PUSH4 0xC0324C77 EQ PUSH2 0x4C2 JUMPI DUP1 PUSH4 0xCC872B66 EQ PUSH2 0x4DD JUMPI DUP1 PUSH4 0xDB006A75 EQ PUSH2 0x4F5 JUMPI DUP1 PUSH4 0xDD62ED3E EQ PUSH2 0x50D JUMPI DUP1 PUSH4 0xDD644F72 EQ PUSH2 0x534 JUMPI DUP1 PUSH4 0xE47D6060 EQ PUSH2 0x549 JUMPI DUP1 PUSH4 0xE4997DC5 EQ PUSH2 0x56A JUMPI DUP1 PUSH4 0xE5B5019A EQ PUSH2 0x58B JUMPI DUP1 PUSH4 0xF2FDE38B EQ PUSH2 0x5A0 JUMPI DUP1 PUSH4 0xF3BDC228 EQ PUSH2 0x5C1 JUMPI JUMPDEST PUSH1 0x0 DUP1 REVERT JUMPDEST CALLVALUE DUP1 ISZERO PUSH2 0x1B1 JUMPI PUSH1 0x0 DUP1 REVERT JUMPDEST POP PUSH2 0x1BA PUSH2 0x5E2 JUMP JUMPDEST PUSH1 0x40 DUP1 MLOAD PUSH1 0x20 DUP1 DUP3 MSTORE DUP4 MLOAD DUP2 DUP4 ADD MSTORE DUP4 MLOAD SWAP2 SWAP3 DUP4 SWAP3 SWAP1 DUP4 ADD SWAP2 DUP6 ADD SWAP1 DUP1 DUP4 DUP4 PUSH1 0x0 JUMPDEST DUP4 DUP2 LT ISZERO PUSH2 0x1F4 JUMPI DUP2 DUP2 ADD MLOAD DUP4 DUP3 ADD MSTORE PUSH1 0x20 ADD PUSH2 0x1DC JUMP JUMPDEST POP POP POP POP SWAP1 POP SWAP1 DUP2 ADD SWAP1 PUSH1 0x1F AND DUP1 ISZERO PUSH2 0x221 JUMPI DUP1 DUP3 SUB DUP1 MLOAD PUSH1 0x1 DUP4 PUSH1 0x20 SUB PUSH2 0x100 EXP SUB NOT AND DUP2 MSTORE PUSH1 0x20 ADD SWAP2 POP JUMPDEST POP SWAP3 POP POP POP PUSH1 0x40 MLOAD DUP1 SWAP2 SUB SWAP1 RETURN JUMPDEST CALLVALUE DUP1 ISZERO PUSH2 0x23B JUMPI PUSH1 0x0 DUP1 REVERT JUMPDEST POP PUSH2 0x250 PUSH1 0x1 PUSH1 0xA0 PUSH1 0x2 EXP SUB PUSH1 0x4 CALLDATALOAD AND PUSH2 0x670 JUMP JUMPDEST STOP JUMPDEST CALLVALUE DUP1 ISZERO PUSH2 0x25E JUMPI PUSH1 0x0 DUP1 REVERT JUMPDEST POP PUSH2 0x250 PUSH1 0x1 PUSH1 0xA0 PUSH1 0x2 EXP SUB PUSH1 0x4 CALLDATALOAD AND PUSH1 0x24 CALLDATALOAD PUSH2 0x708 JUMP JUMPDEST CALLVALUE DUP1 ISZERO PUSH2 0x282 JUMPI PUSH1 0x0 DUP1 REVERT JUMPDEST POP PUSH2 0x28B PUSH2 0x7CA JUMP JUMPDEST PUSH1 0x40 DUP1 MLOAD SWAP2 ISZERO ISZERO DUP3 MSTORE MLOAD SWAP1 DUP2 SWAP1 SUB PUSH1 0x20 ADD SWAP1 RETURN JUMPDEST CALLVALUE DUP1 ISZERO PUSH2 0x2AB JUMPI PUSH1 0x0 DUP1 REVERT JUMPDEST POP PUSH2 0x250 PUSH1 0x1 PUSH1 0xA0 PUSH1 0x2 EXP SUB PUSH1 0x4 CALLDATALOAD AND PUSH2 0x7DA JUMP JUMPDEST CALLVALUE DUP1 ISZERO PUSH2 0x2CC JUMPI PUSH1 0x0 DUP1 REVERT JUMPDEST POP PUSH2 0x2D5 PUSH2 0x84C JUMP JUMPDEST PUSH1 0x40 DUP1 MLOAD SWAP2 DUP3 MSTORE MLOAD SWAP1 DUP2 SWAP1 SUB PUSH1 0x20 ADD SWAP1 RETURN JUMPDEST CALLVALUE DUP1 ISZERO PUSH2 0x2F3 JUMPI PUSH1 0x0 DUP1 REVERT JUMPDEST POP PUSH2 0x250 PUSH1 0x1 PUSH1 0xA0 PUSH1 0x2 EXP SUB PUSH1 0x4 CALLDATALOAD DUP2 AND SWAP1 PUSH1 0x24 CALLDATALOAD AND PUSH1 0x44 CALLDATALOAD PUSH2 0x908 JUMP JUMPDEST CALLVALUE DUP1 ISZERO PUSH2 0x31D JUMPI PUSH1 0x0 DUP1 REVERT JUMPDEST POP PUSH2 0x326 PUSH2 0x9DE JUMP JUMPDEST PUSH1 0x40 DUP1 MLOAD PUSH1 0x1 PUSH1 0xA0 PUSH1 0x2 EXP SUB SWAP1 SWAP3 AND DUP3 MSTORE MLOAD SWAP1 DUP2 SWAP1 SUB PUSH1 0x20 ADD SWAP1 RETURN JUMPDEST CALLVALUE DUP1 ISZERO PUSH2 0x34E JUMPI PUSH1 0x0 DUP1 REVERT JUMPDEST POP PUSH2 0x2D5 PUSH1 0x1 PUSH1 0xA0 PUSH1 0x2 EXP SUB PUSH1 0x4 CALLDATALOAD AND PUSH2 0x9ED JUMP JUMPDEST CALLVALUE DUP1 ISZERO PUSH2 0x36F JUMPI PUSH1 0x0 DUP1 REVERT JUMPDEST POP PUSH2 0x2D5 PUSH2 0x9FF JUMP JUMPDEST CALLVALUE DUP1 ISZERO PUSH2 0x384 JUMPI PUSH1 0x0 DUP1 REVERT JUMPDEST POP PUSH2 0x2D5 PUSH2 0xA05 JUMP JUMPDEST CALLVALUE DUP1 ISZERO PUSH2 0x399 JUMPI PUSH1 0x0 DUP1 REVERT JUMPDEST POP PUSH2 0x2D5 PUSH2 0xA0B JUMP JUMPDEST CALLVALUE DUP1 ISZERO PUSH2 0x3AE JUMPI PUSH1 0x0 DUP1 REVERT JUMPDEST POP PUSH2 0x250 PUSH2 0xA11 JUMP JUMPDEST CALLVALUE DUP1 ISZERO PUSH2 0x3C3 JUMPI PUSH1 0x0 DUP1 REVERT JUMPDEST POP PUSH2 0x28B PUSH1 0x1 PUSH1 0xA0 PUSH1 0x2 EXP SUB PUSH1 0x4 CALLDATALOAD AND PUSH2 0xA87 JUMP JUMPDEST CALLVALUE DUP1 ISZERO PUSH2 0x3E4 JUMPI PUSH1 0x0 DUP1 REVERT JUMPDEST POP PUSH2 0x2D5 PUSH1 0x1 PUSH1 0xA0 PUSH1 0x2 EXP SUB PUSH1 0x4 CALLDATALOAD DUP2 AND SWAP1 PUSH1 0x24 CALLDATALOAD AND PUSH2 0xAA9 JUMP JUMPDEST CALLVALUE DUP1 ISZERO PUSH2 0x40B JUMPI PUSH1 0x0 DUP1 REVERT JUMPDEST POP PUSH2 0x28B PUSH2 0xAC6 JUMP JUMPDEST CALLVALUE DUP1 ISZERO PUSH2 0x420 JUMPI PUSH1 0x0 DUP1 REVERT JUMPDEST POP PUSH2 0x2D5 PUSH1 0x1 PUSH1 0xA0 PUSH1 0x2 EXP SUB PUSH1 0x4 CALLDATALOAD AND PUSH2 0xAD6 JUMP JUMPDEST CALLVALUE DUP1 ISZERO PUSH2 0x441 JUMPI PUSH1 0x0 DUP1 REVERT JUMPDEST POP PUSH2 0x250 PUSH2 0xB96 JUMP JUMPDEST CALLVALUE DUP1 ISZERO PUSH2 0x456 JUMPI PUSH1 0x0 DUP1 REVERT JUMPDEST POP PUSH2 0x326 PUSH2 0xC11 JUMP JUMPDEST CALLVALUE DUP1 ISZERO PUSH2 0x46B JUMPI PUSH1 0x0 DUP1 REVERT JUMPDEST POP PUSH2 0x326 PUSH2 0xC20 JUMP JUMPDEST CALLVALUE DUP1 ISZERO PUSH2 0x480 JUMPI PUSH1 0x0 DUP1 REVERT JUMPDEST POP PUSH2 0x1BA PUSH2 0xC2F JUMP JUMPDEST CALLVALUE DUP1 ISZERO PUSH2 0x495 JUMPI PUSH1 0x0 DUP1 REVERT JUMPDEST POP PUSH2 0x250 PUSH1 0x1 PUSH1 0xA0 PUSH1 0x2 EXP SUB PUSH1 0x4 CALLDATALOAD AND PUSH1 0x24 CALLDATALOAD PUSH2 0xC8A JUMP JUMPDEST CALLVALUE DUP1 ISZERO PUSH2 0x4B9 JUMPI PUSH1 0x0 DUP1 REVERT JUMPDEST POP PUSH2 0x250 PUSH2 0xD6F JUMP JUMPDEST CALLVALUE DUP1 ISZERO PUSH2 0x4CE JUMPI PUSH1 0x0 DUP1 REVERT JUMPDEST POP PUSH2 0x250 PUSH1 0x4 CALLDATALOAD PUSH1 0x24 CALLDATALOAD PUSH2 0xD90 JUMP JUMPDEST CALLVALUE DUP1 ISZERO PUSH2 0x4E9 JUMPI PUSH1 0x0 DUP1 REVERT JUMPDEST POP PUSH2 0x250 PUSH1 0x4 CALLDATALOAD PUSH2 0xE25 JUMP JUMPDEST CALLVALUE DUP1 ISZERO PUSH2 0x501 JUMPI PUSH1 0x0 DUP1 REVERT JUMPDEST POP PUSH2 0x250 PUSH1 0x4 CALLDATALOAD PUSH2 0xED0 JUMP JUMPDEST CALLVALUE DUP1 ISZERO PUSH2 0x519 JUMPI PUSH1 0x0 DUP1 REVERT JUMPDEST POP PUSH2 0x2D5 PUSH1 0x1 PUSH1 0xA0 PUSH1 0x2 EXP SUB PUSH1 0x4 CALLDATALOAD DUP2 AND SWAP1 PUSH1 0x24 CALLDATALOAD AND PUSH2 0xF7B JUMP JUMPDEST CALLVALUE DUP1 ISZERO PUSH2 0x540 JUMPI PUSH1 0x0 DUP1 REVERT JUMPDEST POP PUSH2 0x2D5 PUSH2 0x1046 JUMP JUMPDEST CALLVALUE DUP1 ISZERO PUSH2 0x555 JUMPI PUSH1 0x0 DUP1 REVERT JUMPDEST POP PUSH2 0x28B PUSH1 0x1 PUSH1 0xA0 PUSH1 0x2 EXP SUB PUSH1 0x4 CALLDATALOAD AND PUSH2 0x104C JUMP JUMPDEST CALLVALUE DUP1 ISZERO PUSH2 0x576 JUMPI PUSH1 0x0 DUP1 REVERT JUMPDEST POP PUSH2 0x250 PUSH1 0x1 PUSH1 0xA0 PUSH1 0x2 EXP SUB PUSH1 0x4 CALLDATALOAD AND PUSH2 0x1061 JUMP JUMPDEST CALLVALUE DUP1 ISZERO PUSH2 0x597 JUMPI PUSH1 0x0 DUP1 REVERT JUMPDEST POP PUSH2 0x2D5 PUSH2 0x10D0 JUMP JUMPDEST CALLVALUE DUP1 ISZERO PUSH2 0x5AC JUMPI PUSH1 0x0 DUP1 REVERT JUMPDEST POP PUSH2 0x250 PUSH1 0x1 PUSH1 0xA0 PUSH1 0x2 EXP SUB PUSH1 0x4 CALLDATALOAD AND PUSH2 0x10D6 JUMP JUMPDEST CALLVALUE DUP1 ISZERO PUSH2 0x5CD JUMPI PUSH1 0x0 DUP1 REVERT JUMPDEST POP PUSH2 0x250 PUSH1 0x1 PUSH1 0xA0 PUSH1 0x2 EXP SUB PUSH1 0x4 CALLDATALOAD AND PUSH2 0x1128 JUMP JUMPDEST PUSH1 0x7 DUP1 SLOAD PUSH1 0x40 DUP1 MLOAD PUSH1 0x20 PUSH1 0x2 PUSH1 0x1 DUP6 AND ISZERO PUSH2 0x100 MUL PUSH1 0x0 NOT ADD SWAP1 SWAP5 AND SWAP4 SWAP1 SWAP4 DIV PUSH1 0x1F DUP2 ADD DUP5 SWAP1 DIV DUP5 MUL DUP3 ADD DUP5 ADD SWAP1 SWAP3 MSTORE DUP2 DUP2 MSTORE SWAP3 SWAP2 DUP4 ADD DUP3 DUP3 DUP1 ISZERO PUSH2 0x668 JUMPI DUP1 PUSH1 0x1F LT PUSH2 0x63D JUMPI PUSH2 0x100 DUP1 DUP4 SLOAD DIV MUL DUP4 MSTORE SWAP2 PUSH1 0x20 ADD SWAP2 PUSH2 0x668 JUMP JUMPDEST DUP3 ADD SWAP2 SWAP1 PUSH1 0x0 MSTORE PUSH1 0x20 PUSH1 0x0 KECCAK256 SWAP1 JUMPDEST DUP2 SLOAD DUP2 MSTORE SWAP1 PUSH1 0x1 ADD SWAP1 PUSH1 0x20 ADD DUP1 DUP4 GT PUSH2 0x64B JUMPI DUP3 SWAP1 SUB PUSH1 0x1F AND DUP3 ADD SWAP2 JUMPDEST POP POP POP POP POP DUP2 JUMP JUMPDEST PUSH1 0x0 SLOAD PUSH1 0x1 PUSH1 0xA0 PUSH1 0x2 EXP SUB AND CALLER EQ PUSH2 0x687 JUMPI PUSH1 0x0 DUP1 REVERT JUMPDEST PUSH1 0xA DUP1 SLOAD PUSH1 0xA0 PUSH1 0x2 EXP PUSH21 0xFF0000000000000000000000000000000000000000 NOT SWAP1 SWAP2 AND OR PUSH20 0xFFFFFFFFFFFFFFFFFFFFFFFFFFFFFFFFFFFFFFFF NOT AND PUSH1 0x1 PUSH1 0xA0 PUSH1 0x2 EXP SUB DUP4 AND SWAP1 DUP2 OR SWAP1 SWAP2 SSTORE PUSH1 0x40 DUP1 MLOAD SWAP2 DUP3 MSTORE MLOAD PUSH32 0xCC358699805E9A8B7F77B522628C7CB9ABD07D9EFB86B6FB616AF1609036A99E SWAP2 PUSH1 0x20 SWAP1 DUP3 SWAP1 SUB ADD SWAP1 LOG1 POP JUMP JUMPDEST PUSH1 0x40 PUSH1 0x44 CALLDATASIZE LT ISZERO PUSH2 0x718 JUMPI PUSH1 0x0 DUP1 REVERT JUMPDEST PUSH1 0xA SLOAD PUSH1 0xA0 PUSH1 0x2 EXP SWAP1 DIV PUSH1 0xFF AND ISZERO PUSH2 0x7BB JUMPI PUSH1 0xA SLOAD PUSH1 0x40 DUP1 MLOAD PUSH32 0xAEE92D3300000000000000000000000000000000000000000000000000000000 DUP2 MSTORE CALLER PUSH1 0x4 DUP3 ADD MSTORE PUSH1 0x1 PUSH1 0xA0 PUSH1 0x2 EXP SUB DUP7 DUP2 AND PUSH1 0x24 DUP4 ADD MSTORE PUSH1 0x44 DUP3 ADD DUP7 SWAP1 MSTORE SWAP2 MLOAD SWAP2 SWAP1 SWAP3 AND SWAP2 PUSH4 0xAEE92D33 SWAP2 PUSH1 0x64 DUP1 DUP4 ADD SWAP3 PUSH1 0x0 SWAP3 SWAP2 SWAP1 DUP3 SWAP1 SUB ADD DUP2 DUP4 DUP8 DUP1 EXTCODESIZE ISZERO DUP1 ISZERO PUSH2 0x79E JUMPI PUSH1 0x0 DUP1 REVERT JUMPDEST POP GAS CALL ISZERO DUP1 ISZERO PUSH2 0x7B2 JUMPI RETURNDATASIZE PUSH1 0x0 DUP1 RETURNDATACOPY RETURNDATASIZE PUSH1 0x0 REVERT JUMPDEST POP POP POP POP PUSH2 0x7C5 JUMP JUMPDEST PUSH2 0x7C5 DUP4 DUP4 PUSH2 0x11D4 JUMP JUMPDEST POP POP POP JUMP JUMPDEST PUSH1 0xA SLOAD PUSH1 0xA0 PUSH1 0x2 EXP SWAP1 DIV PUSH1 0xFF AND DUP2 JUMP JUMPDEST PUSH1 0x0 SLOAD PUSH1 0x1 PUSH1 0xA0 PUSH1 0x2 EXP SUB AND CALLER EQ PUSH2 0x7F1 JUMPI PUSH1 0x0 DUP1 REVERT JUMPDEST PUSH1 0x1 PUSH1 0xA0 PUSH1 0x2 EXP SUB DUP2 AND PUSH1 0x0 DUP2 DUP2 MSTORE PUSH1 0x6 PUSH1 0x20 SWAP1 DUP2 MSTORE PUSH1 0x40 SWAP2 DUP3 SWAP1 KECCAK256 DUP1 SLOAD PUSH1 0xFF NOT AND PUSH1 0x1 OR SWAP1 SSTORE DUP2 MLOAD SWAP3 DUP4 MSTORE SWAP1 MLOAD PUSH32 0x42E160154868087D6BFDC0CA23D96A1C1CFA32F1B72BA9BA27B69B98A0D819DC SWAP3 DUP2 SWAP1 SUB SWAP1 SWAP2 ADD SWAP1 LOG1 POP JUMP JUMPDEST PUSH1 0xA SLOAD PUSH1 0x0 SWAP1 PUSH1 0xA0 PUSH1 0x2 EXP SWAP1 DIV PUSH1 0xFF AND ISZERO PUSH2 0x900 JUMPI PUSH1 0xA PUSH1 0x0 SWAP1 SLOAD SWAP1 PUSH2 0x100 EXP SWAP1 DIV PUSH1 0x1 PUSH1 0xA0 PUSH1 0x2 EXP SUB AND PUSH1 0x1 PUSH1 0xA0 PUSH1 0x2 EXP SUB AND PUSH4 0x18160DDD PUSH1 0x40 MLOAD DUP2 PUSH4 0xFFFFFFFF AND PUSH29 0x100000000000000000000000000000000000000000000000000000000 MUL DUP2 MSTORE PUSH1 0x4 ADD PUSH1 0x20 PUSH1 0x40 MLOAD DUP1 DUP4 SUB DUP2 PUSH1 0x0 DUP8 DUP1 EXTCODESIZE ISZERO DUP1 ISZERO PUSH2 0x8CD JUMPI PUSH1 0x0 DUP1 REVERT JUMPDEST POP GAS CALL ISZERO DUP1 ISZERO PUSH2 0x8E1 JUMPI RETURNDATASIZE PUSH1 0x0 DUP1 RETURNDATACOPY RETURNDATASIZE PUSH1 0x0 REVERT JUMPDEST POP POP POP POP PUSH1 0x40 MLOAD RETURNDATASIZE PUSH1 0x20 DUP2 LT ISZERO PUSH2 0x8F7 JUMPI PUSH1 0x0 DUP1 REVERT JUMPDEST POP MLOAD SWAP1 POP PUSH2 0x905 JUMP JUMPDEST POP PUSH1 0x1 SLOAD JUMPDEST SWAP1 JUMP JUMPDEST PUSH1 0x0 SLOAD PUSH1 0xA0 PUSH1 0x2 EXP SWAP1 DIV PUSH1 0xFF AND ISZERO PUSH2 0x91F JUMPI PUSH1 0x0 DUP1 REVERT JUMPDEST PUSH1 0x1 PUSH1 0xA0 PUSH1 0x2 EXP SUB DUP4 AND PUSH1 0x0 SWAP1 DUP2 MSTORE PUSH1 0x6 PUSH1 0x20 MSTORE PUSH1 0x40 SWAP1 KECCAK256 SLOAD PUSH1 0xFF AND ISZERO PUSH2 0x945 JUMPI PUSH1 0x0 DUP1 REVERT JUMPDEST PUSH1 0xA SLOAD PUSH1 0xA0 PUSH1 0x2 EXP SWAP1 DIV PUSH1 0xFF AND ISZERO PUSH2 0x9D3 JUMPI PUSH1 0xA SLOAD PUSH1 0x40 DUP1 MLOAD PUSH32 0x8B477ADB00000000000000000000000000000000000000000000000000000000 DUP2 MSTORE CALLER PUSH1 0x4 DUP3 ADD MSTORE PUSH1 0x1 PUSH1 0xA0 PUSH1 0x2 EXP SUB DUP7 DUP2 AND PUSH1 0x24 DUP4 ADD MSTORE DUP6 DUP2 AND PUSH1 0x44 DUP4 ADD MSTORE PUSH1 0x64 DUP3 ADD DUP6 SWAP1 MSTORE SWAP2 MLOAD SWAP2 SWAP1 SWAP3 AND SWAP2 PUSH4 0x8B477ADB SWAP2 PUSH1 0x84 DUP1 DUP4 ADD SWAP3 PUSH1 0x0 SWAP3 SWAP2 SWAP1 DUP3 SWAP1 SUB ADD DUP2 DUP4 DUP8 DUP1 EXTCODESIZE ISZERO DUP1 ISZERO PUSH2 0x79E JUMPI PUSH1 0x0 DUP1 REVERT JUMPDEST PUSH2 0x7C5 DUP4 DUP4 DUP4 PUSH2 0x1282 JUMP JUMPDEST PUSH1 0xA SLOAD PUSH1 0x1 PUSH1 0xA0 PUSH1 0x2 EXP SUB AND DUP2 JUMP JUMPDEST PUSH1 0x2 PUSH1 0x20 MSTORE PUSH1 0x0 SWAP1 DUP2 MSTORE PUSH1 0x40 SWAP1 KECCAK256 SLOAD DUP2 JUMP JUMPDEST PUSH1 0x9 SLOAD DUP2 JUMP JUMPDEST PUSH1 0x4 SLOAD DUP2 JUMP JUMPDEST PUSH1 0x1 SLOAD DUP2 JUMP JUMPDEST PUSH1 0x0 SLOAD PUSH1 0x1 PUSH1 0xA0 PUSH1 0x2 EXP SUB AND CALLER EQ PUSH2 0xA28 JUMPI PUSH1 0x0 DUP1 REVERT JUMPDEST PUSH1 0x0 SLOAD PUSH1 0xA0 PUSH1 0x2 EXP SWAP1 DIV PUSH1 0xFF AND ISZERO ISZERO PUSH2 0xA40 JUMPI PUSH1 0x0 DUP1 REVERT JUMPDEST PUSH1 0x0 DUP1 SLOAD PUSH21 0xFF0000000000000000000000000000000000000000 NOT AND DUP2 SSTORE PUSH1 0x40 MLOAD PUSH32 0x7805862F689E2F13DF9F062FF482AD3AD112ACA9E0847911ED832E158C525B33 SWAP2 SWAP1 LOG1 JUMP JUMPDEST PUSH1 0x1 PUSH1 0xA0 PUSH1 0x2 EXP SUB DUP2 AND PUSH1 0x0 SWAP1 DUP2 MSTORE PUSH1 0x6 PUSH1 0x20 MSTORE PUSH1 0x40 SWAP1 KECCAK256 SLOAD PUSH1 0xFF AND JUMPDEST SWAP2 SWAP1 POP JUMP JUMPDEST PUSH1 0x5 PUSH1 0x20 SWAP1 DUP2 MSTORE PUSH1 0x0 SWAP3 DUP4 MSTORE PUSH1 0x40 DUP1 DUP5 KECCAK256 SWAP1 SWAP2 MSTORE SWAP1 DUP3 MSTORE SWAP1 KECCAK256 SLOAD DUP2 JUMP JUMPDEST PUSH1 0x0 SLOAD PUSH1 0xA0 PUSH1 0x2 EXP SWAP1 DIV PUSH1 0xFF AND DUP2 JUMP JUMPDEST PUSH1 0xA SLOAD PUSH1 0x0 SWAP1 PUSH1 0xA0 PUSH1 0x2 EXP SWAP1 DIV PUSH1 0xFF AND ISZERO PUSH2 0xB86 JUMPI PUSH1 0xA SLOAD PUSH1 0x40 DUP1 MLOAD PUSH32 0x70A0823100000000000000000000000000000000000000000000000000000000 DUP2 MSTORE PUSH1 0x1 PUSH1 0xA0 PUSH1 0x2 EXP SUB DUP6 DUP2 AND PUSH1 0x4 DUP4 ADD MSTORE SWAP2 MLOAD SWAP2 SWAP1 SWAP3 AND SWAP2 PUSH4 0x70A08231 SWAP2 PUSH1 0x24 DUP1 DUP4 ADD SWAP3 PUSH1 0x20 SWAP3 SWAP2 SWAP1 DUP3 SWAP1 SUB ADD DUP2 PUSH1 0x0 DUP8 DUP1 EXTCODESIZE ISZERO DUP1 ISZERO PUSH2 0xB53 JUMPI PUSH1 0x0 DUP1 REVERT JUMPDEST POP GAS CALL ISZERO DUP1 ISZERO PUSH2 0xB67 JUMPI RETURNDATASIZE PUSH1 0x0 DUP1 RETURNDATACOPY RETURNDATASIZE PUSH1 0x0 REVERT JUMPDEST POP POP POP POP PUSH1 0x40 MLOAD RETURNDATASIZE PUSH1 0x20 DUP2 LT ISZERO PUSH2 0xB7D JUMPI PUSH1 0x0 DUP1 REVERT JUMPDEST POP MLOAD SWAP1 POP PUSH2 0xAA4 JUMP JUMPDEST PUSH2 0xB8F DUP3 PUSH2 0x147E JUMP JUMPDEST SWAP1 POP PUSH2 0xAA4 JUMP JUMPDEST PUSH1 0x0 SLOAD PUSH1 0x1 PUSH1 0xA0 PUSH1 0x2 EXP SUB AND CALLER EQ PUSH2 0xBAD JUMPI PUSH1 0x0 DUP1 REVERT JUMPDEST PUSH1 0x0 SLOAD PUSH1 0xA0 PUSH1 0x2 EXP SWAP1 DIV PUSH1 0xFF AND ISZERO PUSH2 0xBC4 JUMPI PUSH1 0x0 DUP1 REVERT JUMPDEST PUSH1 0x0 DUP1 SLOAD PUSH21 0xFF0000000000000000000000000000000000000000 NOT AND PUSH1 0xA0 PUSH1 0x2 EXP OR DUP2 SSTORE PUSH1 0x40 MLOAD PUSH32 0x6985A02210A168E66602D3235CB6DB0E70F92B3BA4D376A33C0F3D9434BFF625 SWAP2 SWAP1 LOG1 JUMP JUMPDEST PUSH1 0x0 SLOAD PUSH1 0x1 PUSH1 0xA0 PUSH1 0x2 EXP SUB AND SWAP1 JUMP JUMPDEST PUSH1 0x0 SLOAD PUSH1 0x1 PUSH1 0xA0 PUSH1 0x2 EXP SUB AND DUP2 JUMP JUMPDEST PUSH1 0x8 DUP1 SLOAD PUSH1 0x40 DUP1 MLOAD PUSH1 0x20 PUSH1 0x2 PUSH1 0x1 DUP6 AND ISZERO PUSH2 0x100 MUL PUSH1 0x0 NOT ADD SWAP1 SWAP5 AND SWAP4 SWAP1 SWAP4 DIV PUSH1 0x1F DUP2 ADD DUP5 SWAP1 DIV DUP5 MUL DUP3 ADD DUP5 ADD SWAP1 SWAP3 MSTORE DUP2 DUP2 MSTORE SWAP3 SWAP2 DUP4 ADD DUP3 DUP3 DUP1 ISZERO PUSH2 0x668 JUMPI DUP1 PUSH1 0x1F LT PUSH2 0x63D JUMPI PUSH2 0x100 DUP1 DUP4 SLOAD DIV MUL DUP4 MSTORE SWAP2 PUSH1 0x20 ADD SWAP2 PUSH2 0x668 JUMP JUMPDEST PUSH1 0x0 SLOAD PUSH1 0xA0 PUSH1 0x2 EXP SWAP1 DIV PUSH1 0xFF AND ISZERO PUSH2 0xCA1 JUMPI PUSH1 0x0 DUP1 REVERT JUMPDEST CALLER PUSH1 0x0 SWAP1 DUP2 MSTORE PUSH1 0x6 PUSH1 0x20 MSTORE PUSH1 0x40 SWAP1 KECCAK256 SLOAD PUSH1 0xFF AND ISZERO PUSH2 0xCBE JUMPI PUSH1 0x0 DUP1 REVERT JUMPDEST PUSH1 0xA SLOAD PUSH1 0xA0 PUSH1 0x2 EXP SWAP1 DIV PUSH1 0xFF AND ISZERO PUSH2 0xD61 JUMPI PUSH1 0xA SLOAD PUSH1 0x40 DUP1 MLOAD PUSH32 0x6E18980A00000000000000000000000000000000000000000000000000000000 DUP2 MSTORE CALLER PUSH1 0x4 DUP3 ADD MSTORE PUSH1 0x1 PUSH1 0xA0 PUSH1 0x2 EXP SUB DUP6 DUP2 AND PUSH1 0x24 DUP4 ADD MSTORE PUSH1 0x44 DUP3 ADD DUP6 SWAP1 MSTORE SWAP2 MLOAD SWAP2 SWAP1 SWAP3 AND SWAP2 PUSH4 0x6E18980A SWAP2 PUSH1 0x64 DUP1 DUP4 ADD SWAP3 PUSH1 0x0 SWAP3 SWAP2 SWAP1 DUP3 SWAP1 SUB ADD DUP2 DUP4 DUP8 DUP1 EXTCODESIZE ISZERO DUP1 ISZERO PUSH2 0xD44 JUMPI PUSH1 0x0 DUP1 REVERT JUMPDEST POP GAS CALL ISZERO DUP1 ISZERO PUSH2 0xD58 JUMPI RETURNDATASIZE PUSH1 0x0 DUP1 RETURNDATACOPY RETURNDATASIZE PUSH1 0x0 REVERT JUMPDEST POP POP POP POP PUSH2 0xD6B JUMP JUMPDEST PUSH2 0xD6B DUP3 DUP3 PUSH2 0x1499 JUMP JUMPDEST POP POP JUMP JUMPDEST PUSH1 0x0 DUP1 SLOAD PUSH20 0xFFFFFFFFFFFFFFFFFFFFFFFFFFFFFFFFFFFFFFFF NOT AND CALLER OR SWAP1 SSTORE JUMP JUMPDEST PUSH1 0x0 SLOAD PUSH1 0x1 PUSH1 0xA0 PUSH1 0x2 EXP SUB AND CALLER EQ PUSH2 0xDA7 JUMPI PUSH1 0x0 DUP1 REVERT JUMPDEST PUSH1 0x14 DUP3 LT PUSH2 0xDB4 JUMPI PUSH1 0x0 DUP1 REVERT JUMPDEST PUSH1 0x32 DUP2 LT PUSH2 0xDC1 JUMPI PUSH1 0x0 DUP1 REVERT JUMPDEST PUSH1 0x3 DUP3 SWAP1 SSTORE PUSH1 0x9 SLOAD PUSH2 0xDDD SWAP1 DUP3 SWAP1 PUSH1 0xA EXP PUSH4 0xFFFFFFFF PUSH2 0x1606 AND JUMP JUMPDEST PUSH1 0x4 DUP2 SWAP1 SSTORE PUSH1 0x3 SLOAD PUSH1 0x40 DUP1 MLOAD SWAP2 DUP3 MSTORE PUSH1 0x20 DUP3 ADD SWAP3 SWAP1 SWAP3 MSTORE DUP2 MLOAD PUSH32 0xB044A1E409EAC5C48E5AF22D4AF52670DD1A99059537A78B31B48C6500A6354E SWAP3 SWAP2 DUP2 SWAP1 SUB SWAP1 SWAP2 ADD SWAP1 LOG1 POP POP JUMP JUMPDEST PUSH1 0x0 SLOAD PUSH1 0x1 PUSH1 0xA0 PUSH1 0x2 EXP SUB AND CALLER EQ PUSH2 0xE3C JUMPI PUSH1 0x0 DUP1 REVERT JUMPDEST PUSH1 0x1 SLOAD DUP2 DUP2 ADD GT PUSH2 0xE4C JUMPI PUSH1 0x0 DUP1 REVERT JUMPDEST PUSH1 0x0 DUP1 SLOAD PUSH1 0x1 PUSH1 0xA0 PUSH1 0x2 EXP SUB AND DUP2 MSTORE PUSH1 0x2 PUSH1 0x20 MSTORE PUSH1 0x40 SWAP1 KECCAK256 SLOAD DUP2 DUP2 ADD GT PUSH2 0xE72 JUMPI PUSH1 0x0 DUP1 REVERT JUMPDEST PUSH1 0x0 DUP1 SLOAD PUSH1 0x1 PUSH1 0xA0 PUSH1 0x2 EXP SUB AND DUP2 MSTORE PUSH1 0x2 PUSH1 0x20 SWAP1 DUP2 MSTORE PUSH1 0x40 SWAP2 DUP3 SWAP1 KECCAK256 DUP1 SLOAD DUP5 ADD SWAP1 SSTORE PUSH1 0x1 DUP1 SLOAD DUP5 ADD SWAP1 SSTORE DUP2 MLOAD DUP4 DUP2 MSTORE SWAP2 MLOAD PUSH32 0xCB8241ADB0C3FDB35B70C24CE35C5EB0C17AF7431C99F827D44A445CA624176A SWAP3 DUP2 SWAP1 SUB SWAP1 SWAP2 ADD SWAP1 LOG1 POP JUMP JUMPDEST PUSH1 0x0 SLOAD PUSH1 0x1 PUSH1 0xA0 PUSH1 0x2 EXP SUB AND CALLER EQ PUSH2 0xEE7 JUMPI PUSH1 0x0 DUP1 REVERT JUMPDEST PUSH1 0x1 SLOAD DUP2 GT ISZERO PUSH2 0xEF6 JUMPI PUSH1 0x0 DUP1 REVERT JUMPDEST PUSH1 0x0 DUP1 SLOAD PUSH1 0x1 PUSH1 0xA0 PUSH1 0x2 EXP SUB AND DUP2 MSTORE PUSH1 0x2 PUSH1 0x20 MSTORE PUSH1 0x40 SWAP1 KECCAK256 SLOAD DUP2 GT ISZERO PUSH2 0xF1B JUMPI PUSH1 0x0 DUP1 REVERT JUMPDEST PUSH1 0x1 DUP1 SLOAD DUP3 SWAP1 SUB SWAP1 SSTORE PUSH1 0x0 DUP1 SLOAD PUSH1 0x1 PUSH1 0xA0 PUSH1 0x2 EXP SUB AND DUP2 MSTORE PUSH1 0x2 PUSH1 0x20 SWAP1 DUP2 MSTORE PUSH1 0x40 SWAP2 DUP3 SWAP1 KECCAK256 DUP1 SLOAD DUP5 SWAP1 SUB SWAP1 SSTORE DUP2 MLOAD DUP4 DUP2 MSTORE SWAP2 MLOAD PUSH32 0x702D5967F45F6513A38FFC42D6BA9BF230BD40E8F53B16363C7EB4FD2DEB9A44 SWAP3 DUP2 SWAP1 SUB SWAP1 SWAP2 ADD SWAP1 LOG1 POP JUMP JUMPDEST PUSH1 0xA SLOAD PUSH1 0x0 SWAP1 PUSH1 0xA0 PUSH1 0x2 EXP SWAP1 DIV PUSH1 0xFF AND ISZERO PUSH2 0x1033 JUMPI PUSH1 0xA SLOAD PUSH1 0x40 DUP1 MLOAD PUSH32 0xDD62ED3E00000000000000000000000000000000000000000000000000000000 DUP2 MSTORE PUSH1 0x1 PUSH1 0xA0 PUSH1 0x2 EXP SUB DUP7 DUP2 AND PUSH1 0x4 DUP4 ADD MSTORE DUP6 DUP2 AND PUSH1 0x24 DUP4 ADD MSTORE SWAP2 MLOAD SWAP2 SWAP1 SWAP3 AND SWAP2 PUSH4 0xDD62ED3E SWAP2 PUSH1 0x44 DUP1 DUP4 ADD SWAP3 PUSH1 0x20 SWAP3 SWAP2 SWAP1 DUP3 SWAP1 SUB ADD DUP2 PUSH1 0x0 DUP8 DUP1 EXTCODESIZE ISZERO DUP1 ISZERO PUSH2 0x1000 JUMPI PUSH1 0x0 DUP1 REVERT JUMPDEST POP GAS CALL ISZERO DUP1 ISZERO PUSH2 0x1014 JUMPI RETURNDATASIZE PUSH1 0x0 DUP1 RETURNDATACOPY RETURNDATASIZE PUSH1 0x0 REVERT JUMPDEST POP POP POP POP PUSH1 0x40 MLOAD RETURNDATASIZE PUSH1 0x20 DUP2 LT ISZERO PUSH2 0x102A JUMPI PUSH1 0x0 DUP1 REVERT JUMPDEST POP MLOAD SWAP1 POP PUSH2 0x1040 JUMP JUMPDEST PUSH2 0x103D DUP4 DUP4 PUSH2 0x163C JUMP JUMPDEST SWAP1 POP JUMPDEST SWAP3 SWAP2 POP POP JUMP JUMPDEST PUSH1 0x3 SLOAD DUP2 JUMP JUMPDEST PUSH1 0x6 PUSH1 0x20 MSTORE PUSH1 0x0 SWAP1 DUP2 MSTORE PUSH1 0x40 SWAP1 KECCAK256 SLOAD PUSH1 0xFF AND DUP2 JUMP JUMPDEST PUSH1 0x0 SLOAD PUSH1 0x1 PUSH1 0xA0 PUSH1 0x2 EXP SUB AND CALLER EQ PUSH2 0x1078 JUMPI PUSH1 0x0 DUP1 REVERT JUMPDEST PUSH1 0x1 PUSH1 0xA0 PUSH1 0x2 EXP SUB DUP2 AND PUSH1 0x0 DUP2 DUP2 MSTORE PUSH1 0x6 PUSH1 0x20 SWAP1 DUP2 MSTORE PUSH1 0x40 SWAP2 DUP3 SWAP1 KECCAK256 DUP1 SLOAD PUSH1 0xFF NOT AND SWAP1 SSTORE DUP2 MLOAD SWAP3 DUP4 MSTORE SWAP1 MLOAD PUSH32 0xD7E9EC6E6ECD65492DCE6BF513CD6867560D49544421D0783DDF06E76C24470C SWAP3 DUP2 SWAP1 SUB SWAP1 SWAP2 ADD SWAP1 LOG1 POP JUMP JUMPDEST PUSH1 0x0 NOT DUP2 JUMP JUMPDEST PUSH1 0x0 SLOAD PUSH1 0x1 PUSH1 0xA0 PUSH1 0x2 EXP SUB AND CALLER EQ PUSH2 0x10ED JUMPI PUSH1 0x0 DUP1 REVERT JUMPDEST PUSH1 0x1 PUSH1 0xA0 PUSH1 0x2 EXP SUB DUP2 AND ISZERO PUSH2 0x1125 JUMPI PUSH1 0x0 DUP1 SLOAD PUSH20 0xFFFFFFFFFFFFFFFFFFFFFFFFFFFFFFFFFFFFFFFF NOT AND PUSH1 0x1 PUSH1 0xA0 PUSH1 0x2 EXP SUB DUP4 AND OR SWAP1 SSTORE JUMPDEST POP JUMP JUMPDEST PUSH1 0x0 DUP1 SLOAD PUSH1 0x1 PUSH1 0xA0 PUSH1 0x2 EXP SUB AND CALLER EQ PUSH2 0x1140 JUMPI PUSH1 0x0 DUP1 REVERT JUMPDEST PUSH1 0x1 PUSH1 0xA0 PUSH1 0x2 EXP SUB DUP3 AND PUSH1 0x0 SWAP1 DUP2 MSTORE PUSH1 0x6 PUSH1 0x20 MSTORE PUSH1 0x40 SWAP1 KECCAK256 SLOAD PUSH1 0xFF AND ISZERO ISZERO PUSH2 0x1167 JUMPI PUSH1 0x0 DUP1 REVERT JUMPDEST PUSH2 0x1170 DUP3 PUSH2 0xAD6 JUMP JUMPDEST PUSH1 0x1 PUSH1 0xA0 PUSH1 0x2 EXP SUB DUP4 AND PUSH1 0x0 DUP2 DUP2 MSTORE PUSH1 0x2 PUSH1 0x20 SWAP1 DUP2 MSTORE PUSH1 0x40 DUP1 DUP4 KECCAK256 SWAP3 SWAP1 SWAP3 SSTORE PUSH1 0x1 DUP1 SLOAD DUP6 SWAP1 SUB SWAP1 SSTORE DUP2 MLOAD SWAP3 DUP4 MSTORE DUP3 ADD DUP4 SWAP1 MSTORE DUP1 MLOAD SWAP3 SWAP4 POP PUSH32 0x61E6E66B0D6339B2980AECC6CCC0039736791F0CCDE9ED512E789A7FBDD698C6 SWAP3 SWAP2 DUP3 SWAP1 SUB ADD SWAP1 LOG1 POP POP JUMP JUMPDEST PUSH1 0x40 PUSH1 0x44 CALLDATASIZE LT ISZERO PUSH2 0x11E4 JUMPI PUSH1 0x0 DUP1 REVERT JUMPDEST DUP2 ISZERO DUP1 ISZERO SWAP1 PUSH2 0x1215 JUMPI POP CALLER PUSH1 0x0 SWAP1 DUP2 MSTORE PUSH1 0x5 PUSH1 0x20 SWAP1 DUP2 MSTORE PUSH1 0x40 DUP1 DUP4 KECCAK256 PUSH1 0x1 PUSH1 0xA0 PUSH1 0x2 EXP SUB DUP8 AND DUP5 MSTORE SWAP1 SWAP2 MSTORE SWAP1 KECCAK256 SLOAD ISZERO ISZERO JUMPDEST ISZERO PUSH2 0x121F JUMPI PUSH1 0x0 DUP1 REVERT JUMPDEST CALLER PUSH1 0x0 DUP2 DUP2 MSTORE PUSH1 0x5 PUSH1 0x20 SWAP1 DUP2 MSTORE PUSH1 0x40 DUP1 DUP4 KECCAK256 PUSH1 0x1 PUSH1 0xA0 PUSH1 0x2 EXP SUB DUP9 AND DUP1 DUP6 MSTORE SWAP1 DUP4 MSTORE SWAP3 DUP2 SWAP1 KECCAK256 DUP7 SWAP1 SSTORE DUP1 MLOAD DUP7 DUP2 MSTORE SWAP1 MLOAD SWAP3 SWAP4 SWAP3 PUSH32 0x8C5BE1E5EBEC7D5BD14F71427D1E84F3DD0314C0F7B2291E5B200AC8C7C3B925 SWAP3 SWAP2 DUP2 SWAP1 SUB SWAP1 SWAP2 ADD SWAP1 LOG3 POP POP POP JUMP JUMPDEST PUSH1 0x0 DUP1 DUP1 PUSH1 0x60 PUSH1 0x64 CALLDATASIZE LT ISZERO PUSH2 0x1296 JUMPI PUSH1 0x0 DUP1 REVERT JUMPDEST PUSH1 0x1 PUSH1 0xA0 PUSH1 0x2 EXP SUB DUP8 AND PUSH1 0x0 SWAP1 DUP2 MSTORE PUSH1 0x5 PUSH1 0x20 SWAP1 DUP2 MSTORE PUSH1 0x40 DUP1 DUP4 KECCAK256 CALLER DUP5 MSTORE SWAP1 SWAP2 MSTORE SWAP1 KECCAK256 SLOAD PUSH1 0x3 SLOAD SWAP1 SWAP5 POP PUSH2 0x12E5 SWAP1 PUSH2 0x2710 SWAP1 PUSH2 0x12D9 SWAP1 DUP9 SWAP1 PUSH4 0xFFFFFFFF PUSH2 0x1606 AND JUMP JUMPDEST SWAP1 PUSH4 0xFFFFFFFF PUSH2 0x1667 AND JUMP JUMPDEST SWAP3 POP PUSH1 0x4 SLOAD DUP4 GT ISZERO PUSH2 0x12F7 JUMPI PUSH1 0x4 SLOAD SWAP3 POP JUMPDEST PUSH1 0x0 NOT DUP5 LT ISZERO PUSH2 0x1336 JUMPI PUSH2 0x1311 DUP5 DUP7 PUSH4 0xFFFFFFFF PUSH2 0x167E AND JUMP JUMPDEST PUSH1 0x1 PUSH1 0xA0 PUSH1 0x2 EXP SUB DUP9 AND PUSH1 0x0 SWAP1 DUP2 MSTORE PUSH1 0x5 PUSH1 0x20 SWAP1 DUP2 MSTORE PUSH1 0x40 DUP1 DUP4 KECCAK256 CALLER DUP5 MSTORE SWAP1 SWAP2 MSTORE SWAP1 KECCAK256 SSTORE JUMPDEST PUSH2 0x1346 DUP6 DUP5 PUSH4 0xFFFFFFFF PUSH2 0x167E AND JUMP JUMPDEST PUSH1 0x1 PUSH1 0xA0 PUSH1 0x2 EXP SUB DUP9 AND PUSH1 0x0 SWAP1 DUP2 MSTORE PUSH1 0x2 PUSH1 0x20 MSTORE PUSH1 0x40 SWAP1 KECCAK256 SLOAD SWAP1 SWAP3 POP PUSH2 0x1372 SWAP1 DUP7 PUSH4 0xFFFFFFFF PUSH2 0x167E AND JUMP JUMPDEST PUSH1 0x1 PUSH1 0xA0 PUSH1 0x2 EXP SUB DUP1 DUP10 AND PUSH1 0x0 SWAP1 DUP2 MSTORE PUSH1 0x2 PUSH1 0x20 MSTORE PUSH1 0x40 DUP1 DUP3 KECCAK256 SWAP4 SWAP1 SWAP4 SSTORE SWAP1 DUP9 AND DUP2 MSTORE KECCAK256 SLOAD PUSH2 0x13A7 SWAP1 DUP4 PUSH4 0xFFFFFFFF PUSH2 0x1690 AND JUMP JUMPDEST PUSH1 0x1 PUSH1 0xA0 PUSH1 0x2 EXP SUB DUP8 AND PUSH1 0x0 SWAP1 DUP2 MSTORE PUSH1 0x2 PUSH1 0x20 MSTORE PUSH1 0x40 DUP2 KECCAK256 SWAP2 SWAP1 SWAP2 SSTORE DUP4 GT ISZERO PUSH2 0x143C JUMPI PUSH1 0x0 DUP1 SLOAD PUSH1 0x1 PUSH1 0xA0 PUSH1 0x2 EXP SUB AND DUP2 MSTORE PUSH1 0x2 PUSH1 0x20 MSTORE PUSH1 0x40 SWAP1 KECCAK256 SLOAD PUSH2 0x13F3 SWAP1 DUP5 PUSH4 0xFFFFFFFF PUSH2 0x1690 AND JUMP JUMPDEST PUSH1 0x0 DUP1 SLOAD PUSH1 0x1 PUSH1 0xA0 PUSH1 0x2 EXP SUB SWAP1 DUP2 AND DUP3 MSTORE PUSH1 0x2 PUSH1 0x20 SWAP1 DUP2 MSTORE PUSH1 0x40 DUP1 DUP5 KECCAK256 SWAP5 SWAP1 SWAP5 SSTORE SWAP2 SLOAD DUP4 MLOAD DUP8 DUP2 MSTORE SWAP4 MLOAD SWAP1 DUP3 AND SWAP4 SWAP2 DUP12 AND SWAP3 PUSH1 0x0 DUP1 MLOAD PUSH1 0x20 PUSH2 0x16A0 DUP4 CODECOPY DUP2 MLOAD SWAP2 MSTORE SWAP3 DUP3 SWAP1 SUB ADD SWAP1 LOG3 JUMPDEST DUP6 PUSH1 0x1 PUSH1 0xA0 PUSH1 0x2 EXP SUB AND DUP8 PUSH1 0x1 PUSH1 0xA0 PUSH1 0x2 EXP SUB AND PUSH1 0x0 DUP1 MLOAD PUSH1 0x20 PUSH2 0x16A0 DUP4 CODECOPY DUP2 MLOAD SWAP2 MSTORE DUP5 PUSH1 0x40 MLOAD DUP1 DUP3 DUP2 MSTORE PUSH1 0x20 ADD SWAP2 POP POP PUSH1 0x40 MLOAD DUP1 SWAP2 SUB SWAP1 LOG3 POP POP POP POP POP POP POP JUMP JUMPDEST PUSH1 0x1 PUSH1 0xA0 PUSH1 0x2 EXP SUB AND PUSH1 0x0 SWAP1 DUP2 MSTORE PUSH1 0x2 PUSH1 0x20 MSTORE PUSH1 0x40 SWAP1 KECCAK256 SLOAD SWAP1 JUMP JUMPDEST PUSH1 0x0 DUP1 PUSH1 0x40 PUSH1 0x44 CALLDATASIZE LT ISZERO PUSH2 0x14AC JUMPI PUSH1 0x0 DUP1 REVERT JUMPDEST PUSH2 0x14C7 PUSH2 0x2710 PUSH2 0x12D9 PUSH1 0x3 SLOAD DUP8 PUSH2 0x1606 SWAP1 SWAP2 SWAP1 PUSH4 0xFFFFFFFF AND JUMP JUMPDEST SWAP3 POP PUSH1 0x4 SLOAD DUP4 GT ISZERO PUSH2 0x14D9 JUMPI PUSH1 0x4 SLOAD SWAP3 POP JUMPDEST PUSH2 0x14E9 DUP5 DUP5 PUSH4 0xFFFFFFFF PUSH2 0x167E AND JUMP JUMPDEST CALLER PUSH1 0x0 SWAP1 DUP2 MSTORE PUSH1 0x2 PUSH1 0x20 MSTORE PUSH1 0x40 SWAP1 KECCAK256 SLOAD SWAP1 SWAP3 POP PUSH2 0x150C SWAP1 DUP6 PUSH4 0xFFFFFFFF PUSH2 0x167E AND JUMP JUMPDEST CALLER PUSH1 0x0 SWAP1 DUP2 MSTORE PUSH1 0x2 PUSH1 0x20 MSTORE PUSH1 0x40 DUP1 DUP3 KECCAK256 SWAP3 SWAP1 SWAP3 SSTORE PUSH1 0x1 PUSH1 0xA0 PUSH1 0x2 EXP SUB DUP8 AND DUP2 MSTORE KECCAK256 SLOAD PUSH2 0x153E SWAP1 DUP4 PUSH4 0xFFFFFFFF PUSH2 0x1690 AND JUMP JUMPDEST PUSH1 0x1 PUSH1 0xA0 PUSH1 0x2 EXP SUB DUP7 AND PUSH1 0x0 SWAP1 DUP2 MSTORE PUSH1 0x2 PUSH1 0x20 MSTORE PUSH1 0x40 DUP2 KECCAK256 SWAP2 SWAP1 SWAP2 SSTORE DUP4 GT ISZERO PUSH2 0x15D1 JUMPI PUSH1 0x0 DUP1 SLOAD PUSH1 0x1 PUSH1 0xA0 PUSH1 0x2 EXP SUB AND DUP2 MSTORE PUSH1 0x2 PUSH1 0x20 MSTORE PUSH1 0x40 SWAP1 KECCAK256 SLOAD PUSH2 0x158A SWAP1 DUP5 PUSH4 0xFFFFFFFF PUSH2 0x1690 AND JUMP JUMPDEST PUSH1 0x0 DUP1 SLOAD PUSH1 0x1 PUSH1 0xA0 PUSH1 0x2 EXP SUB SWAP1 DUP2 AND DUP3 MSTORE PUSH1 0x2 PUSH1 0x20 SWAP1 DUP2 MSTORE PUSH1 0x40 DUP1 DUP5 KECCAK256 SWAP5 SWAP1 SWAP5 SSTORE SWAP2 SLOAD DUP4 MLOAD DUP8 DUP2 MSTORE SWAP4 MLOAD SWAP2 AND SWAP3 CALLER SWAP3 PUSH1 0x0 DUP1 MLOAD PUSH1 0x20 PUSH2 0x16A0 DUP4 CODECOPY DUP2 MLOAD SWAP2 MSTORE SWAP3 SWAP2 DUP3 SWAP1 SUB ADD SWAP1 LOG3 JUMPDEST PUSH1 0x40 DUP1 MLOAD DUP4 DUP2 MSTORE SWAP1 MLOAD PUSH1 0x1 PUSH1 0xA0 PUSH1 0x2 EXP SUB DUP8 AND SWAP2 CALLER SWAP2 PUSH1 0x0 DUP1 MLOAD PUSH1 0x20 PUSH2 0x16A0 DUP4 CODECOPY DUP2 MLOAD SWAP2 MSTORE SWAP2 DUP2 SWAP1 SUB PUSH1 0x20 ADD SWAP1 LOG3 POP POP POP POP POP JUMP JUMPDEST PUSH1 0x0 DUP1 DUP4 ISZERO ISZERO PUSH2 0x1619 JUMPI PUSH1 0x0 SWAP2 POP PUSH2 0x1635 JUMP JUMPDEST POP DUP3 DUP3 MUL DUP3 DUP5 DUP3 DUP2 ISZERO ISZERO PUSH2 0x1629 JUMPI INVALID JUMPDEST DIV EQ PUSH2 0x1631 JUMPI INVALID JUMPDEST DUP1 SWAP2 POP JUMPDEST POP SWAP3 SWAP2 POP POP JUMP JUMPDEST PUSH1 0x1 PUSH1 0xA0 PUSH1 0x2 EXP SUB SWAP2 DUP3 AND PUSH1 0x0 SWAP1 DUP2 MSTORE PUSH1 0x5 PUSH1 0x20 SWAP1 DUP2 MSTORE PUSH1 0x40 DUP1 DUP4 KECCAK256 SWAP4 SWAP1 SWAP5 AND DUP3 MSTORE SWAP2 SWAP1 SWAP2 MSTORE KECCAK256 SLOAD SWAP1 JUMP JUMPDEST PUSH1 0x0 DUP1 DUP3 DUP5 DUP2 ISZERO ISZERO PUSH2 0x1675 JUMPI INVALID JUMPDEST DIV SWAP5 SWAP4 POP POP POP POP JUMP JUMPDEST PUSH1 0x0 DUP3 DUP3 GT ISZERO PUSH2 0x168A JUMPI INVALID JUMPDEST POP SWAP1 SUB SWAP1 JUMP JUMPDEST PUSH1 0x0 DUP3 DUP3 ADD DUP4 DUP2 LT ISZERO PUSH2 0x1631 JUMPI INVALID STOP 0xdd CALLCODE MSTORE 0xad SHL 0xe2 0xc8 SWAP12 PUSH10 0xC2B068FC378DAA952BA7 CALL PUSH4 0xC4A11628 0xf5 GAS 0x4d 0xf5 0x23 0xb3 0xef LOG1 PUSH6 0x627A7A723058 KECCAK256 0xbf 0xc6 0xdb 0xe9 0xab 0xbb 0xa8 DUP3 SWAP16 PUSH13 0x33F5F3CE5F6727B6891C5BC4A5 0xd7 0xed NUMBER 0xc3 0xfc 0xdd 0x3f SGT PUSH12 0x2900000000000000000000 "
				},
				"gasEstimates": {
					"creation": {
						"codeDepositCost": "1173400",
						"executionCost": "infinite",
						"totalCost": "infinite"
					},
					"external": {
						"MAX_UINT()": "847",
						"_totalSupply()": "626",
						"addBlackList(address)": "22038",
						"allowance(address,address)": "infinite",
						"allowed(address,address)": "926",
						"approve(address,uint256)": "infinite",
						"balanceOf(address)": "infinite",
						"balances(address)": "707",
						"basisPointsRate()": "978",
						"decimals()": "582",
						"deprecate(address)": "21984",
						"deprecated()": "536",
						"destroyBlackFunds(address)": "infinite",
						"getBlackListStatus(address)": "913",
						"getOwner()": "933",
						"isBlackListed(address)": "1159",
						"issue(uint256)": "43605",
						"maximumFee()": "604",
						"name()": "infinite",
						"ownable()": "20837",
						"owner()": "955",
						"pause()": "22153",
						"paused()": "800",
						"redeem(uint256)": "43627",
						"removeBlackList(address)": "22582",
						"setParams(uint256,uint256)": "infinite",
						"symbol()": "infinite",
						"totalSupply()": "infinite",
						"transfer(address,uint256)": "infinite",
						"transferFrom(address,address,uint256)": "infinite",
						"transferOwnership(address)": "21586",
						"unpause()": "21977",
						"upgradedAddress()": "691"
					}
				},
				"methodIdentifiers": {
					"MAX_UINT()": "e5b5019a",
					"_totalSupply()": "3eaaf86b",
					"addBlackList(address)": "0ecb93c0",
					"allowance(address,address)": "dd62ed3e",
					"allowed(address,address)": "5c658165",
					"approve(address,uint256)": "095ea7b3",
					"balanceOf(address)": "70a08231",
					"balances(address)": "27e235e3",
					"basisPointsRate()": "dd644f72",
					"decimals()": "313ce567",
					"deprecate(address)": "0753c30c",
					"deprecated()": "0e136b19",
					"destroyBlackFunds(address)": "f3bdc228",
					"getBlackListStatus(address)": "59bf1abe",
					"getOwner()": "893d20e8",
					"isBlackListed(address)": "e47d6060",
					"issue(uint256)": "cc872b66",
					"maximumFee()": "35390714",
					"name()": "06fdde03",
					"ownable()": "b38854be",
					"owner()": "8da5cb5b",
					"pause()": "8456cb59",
					"paused()": "5c975abb",
					"redeem(uint256)": "db006a75",
					"removeBlackList(address)": "e4997dc5",
					"setParams(uint256,uint256)": "c0324c77",
					"symbol()": "95d89b41",
					"totalSupply()": "18160ddd",
					"transfer(address,uint256)": "a9059cbb",
					"transferFrom(address,address,uint256)": "23b872dd",
					"transferOwnership(address)": "f2fde38b",
					"unpause()": "3f4ba83a",
					"upgradedAddress()": "26976e3f"
				}
			},
			"userdoc": {
				"methods": {
					"getBlackListStatus(address)": {
						"notice": "//// Getters to allow the same blacklist to be used also by other contracts (including upgraded Tether) ///////\r"
					}
				}
			}
		}
	}
}