{
	"contracts/Online/ERC20/WBTC.sol": {
		"BasicToken": {
			"abi": [
				{
					"constant": true,
					"inputs": [],
					"name": "totalSupply",
					"outputs": [
						{
							"name": "",
							"type": "uint256"
						}
					],
					"payable": false,
					"stateMutability": "view",
					"type": "function"
				},
				{
					"constant": true,
					"inputs": [
						{
							"name": "_owner",
							"type": "address"
						}
					],
					"name": "balanceOf",
					"outputs": [
						{
							"name": "",
							"type": "uint256"
						}
					],
					"payable": false,
					"stateMutability": "view",
					"type": "function"
				},
				{
					"constant": false,
					"inputs": [
						{
							"name": "_to",
							"type": "address"
						},
						{
							"name": "_value",
							"type": "uint256"
						}
					],
					"name": "transfer",
					"outputs": [
						{
							"name": "",
							"type": "bool"
						}
					],
					"payable": false,
					"stateMutability": "nonpayable",
					"type": "function"
				},
				{
					"anonymous": false,
					"inputs": [
						{
							"indexed": true,
							"name": "from",
							"type": "address"
						},
						{
							"indexed": true,
							"name": "to",
							"type": "address"
						},
						{
							"indexed": false,
							"name": "value",
							"type": "uint256"
						}
					],
					"name": "Transfer",
					"type": "event"
				}
			],
			"devdoc": {
				"methods": {
					"balanceOf(address)": {
						"details": "Gets the balance of the specified address.\r",
						"params": {
							"_owner": "The address to query the the balance of.\r"
						},
						"return": "An uint256 representing the amount owned by the passed address.\r"
					},
					"totalSupply()": {
						"details": "Total number of tokens in existence\r"
					},
					"transfer(address,uint256)": {
						"details": "Transfer token for a specified address\r",
						"params": {
							"_to": "The address to transfer to.\r",
							"_value": "The amount to be transferred.\r"
						}
					}
				},
				"title": "Basic token\r"
			},
			"evm": {
				"assembly": "    /* \"contracts/Online/ERC20/WBTC.sol\":2218:3327  contract BasicToken is ERC20Basic {\r... */\n  mstore(0x40, 0x80)\n  callvalue\n    /* \"--CODEGEN--\":8:17   */\n  dup1\n    /* \"--CODEGEN--\":5:7   */\n  iszero\n  tag_1\n  jumpi\n    /* \"--CODEGEN--\":30:31   */\n  0x0\n    /* \"--CODEGEN--\":27:28   */\n  dup1\n    /* \"--CODEGEN--\":20:32   */\n  revert\n    /* \"--CODEGEN--\":5:7   */\ntag_1:\n    /* \"contracts/Online/ERC20/WBTC.sol\":2218:3327  contract BasicToken is ERC20Basic {\r... */\n  pop\n  dataSize(sub_0)\n  dup1\n  dataOffset(sub_0)\n  0x0\n  codecopy\n  0x0\n  return\nstop\n\nsub_0: assembly {\n        /* \"contracts/Online/ERC20/WBTC.sol\":2218:3327  contract BasicToken is ERC20Basic {\r... */\n      mstore(0x40, 0x80)\n      jumpi(tag_1, lt(calldatasize, 0x4))\n      and(div(calldataload(0x0), 0x100000000000000000000000000000000000000000000000000000000), 0xffffffff)\n      0x18160ddd\n      dup2\n      eq\n      tag_2\n      jumpi\n      dup1\n      0x70a08231\n      eq\n      tag_3\n      jumpi\n      dup1\n      0xa9059cbb\n      eq\n      tag_4\n      jumpi\n    tag_1:\n      0x0\n      dup1\n      revert\n        /* \"contracts/Online/ERC20/WBTC.sol\":2437:2522  function totalSupply() public view returns (uint256) {\r... */\n    tag_2:\n      callvalue\n        /* \"--CODEGEN--\":8:17   */\n      dup1\n        /* \"--CODEGEN--\":5:7   */\n      iszero\n      tag_5\n      jumpi\n        /* \"--CODEGEN--\":30:31   */\n      0x0\n        /* \"--CODEGEN--\":27:28   */\n      dup1\n        /* \"--CODEGEN--\":20:32   */\n      revert\n        /* \"--CODEGEN--\":5:7   */\n    tag_5:\n        /* \"contracts/Online/ERC20/WBTC.sol\":2437:2522  function totalSupply() public view returns (uint256) {\r... */\n      pop\n      tag_6\n      jump(tag_7)\n    tag_6:\n      0x40\n      dup1\n      mload\n      swap2\n      dup3\n      mstore\n      mload\n      swap1\n      dup2\n      swap1\n      sub\n      0x20\n      add\n      swap1\n      return\n        /* \"contracts/Online/ERC20/WBTC.sol\":3221:3322  function balanceOf(address _owner) public view returns (uint256) {\r... */\n    tag_3:\n      callvalue\n        /* \"--CODEGEN--\":8:17   */\n      dup1\n        /* \"--CODEGEN--\":5:7   */\n      iszero\n      tag_8\n      jumpi\n        /* \"--CODEGEN--\":30:31   */\n      0x0\n        /* \"--CODEGEN--\":27:28   */\n      dup1\n        /* \"--CODEGEN--\":20:32   */\n      revert\n        /* \"--CODEGEN--\":5:7   */\n    tag_8:\n      pop\n        /* \"contracts/Online/ERC20/WBTC.sol\":3221:3322  function balanceOf(address _owner) public view returns (uint256) {\r... */\n      tag_6\n      and(calldataload(0x4), 0xffffffffffffffffffffffffffffffffffffffff)\n      jump(tag_10)\n        /* \"contracts/Online/ERC20/WBTC.sol\":2683:3012  function transfer(address _to, uint256 _value) public returns (bool) {\r... */\n    tag_4:\n      callvalue\n        /* \"--CODEGEN--\":8:17   */\n      dup1\n        /* \"--CODEGEN--\":5:7   */\n      iszero\n      tag_11\n      jumpi\n        /* \"--CODEGEN--\":30:31   */\n      0x0\n        /* \"--CODEGEN--\":27:28   */\n      dup1\n        /* \"--CODEGEN--\":20:32   */\n      revert\n        /* \"--CODEGEN--\":5:7   */\n    tag_11:\n      pop\n        /* \"contracts/Online/ERC20/WBTC.sol\":2683:3012  function transfer(address _to, uint256 _value) public returns (bool) {\r... */\n      tag_12\n      and(calldataload(0x4), 0xffffffffffffffffffffffffffffffffffffffff)\n      calldataload(0x24)\n      jump(tag_13)\n    tag_12:\n      0x40\n      dup1\n      mload\n      swap2\n      iszero\n      iszero\n      dup3\n      mstore\n      mload\n      swap1\n      dup2\n      swap1\n      sub\n      0x20\n      add\n      swap1\n      return\n        /* \"contracts/Online/ERC20/WBTC.sol\":2437:2522  function totalSupply() public view returns (uint256) {\r... */\n    tag_7:\n        /* \"contracts/Online/ERC20/WBTC.sol\":2504:2516  totalSupply_ */\n      sload(0x1)\n        /* \"contracts/Online/ERC20/WBTC.sol\":2437:2522  function totalSupply() public view returns (uint256) {\r... */\n      swap1\n      jump\t// out\n        /* \"contracts/Online/ERC20/WBTC.sol\":3221:3322  function balanceOf(address _owner) public view returns (uint256) {\r... */\n    tag_10:\n        /* \"contracts/Online/ERC20/WBTC.sol\":3300:3316  balances[_owner] */\n      0xffffffffffffffffffffffffffffffffffffffff\n      and\n        /* \"contracts/Online/ERC20/WBTC.sol\":3277:3284  uint256 */\n      0x0\n        /* \"contracts/Online/ERC20/WBTC.sol\":3300:3316  balances[_owner] */\n      swap1\n      dup2\n      mstore\n      0x20\n      dup2\n      swap1\n      mstore\n      0x40\n      swap1\n      keccak256\n      sload\n      swap1\n        /* \"contracts/Online/ERC20/WBTC.sol\":3221:3322  function balanceOf(address _owner) public view returns (uint256) {\r... */\n      jump\t// out\n        /* \"contracts/Online/ERC20/WBTC.sol\":2683:3012  function transfer(address _to, uint256 _value) public returns (bool) {\r... */\n    tag_13:\n        /* \"contracts/Online/ERC20/WBTC.sol\":2786:2796  msg.sender */\n      caller\n        /* \"contracts/Online/ERC20/WBTC.sol\":2746:2750  bool */\n      0x0\n        /* \"contracts/Online/ERC20/WBTC.sol\":2777:2797  balances[msg.sender] */\n      swap1\n      dup2\n      mstore\n      0x20\n      dup2\n      swap1\n      mstore\n      0x40\n      dup2\n      keccak256\n      sload\n        /* \"contracts/Online/ERC20/WBTC.sol\":2767:2797  _value <= balances[msg.sender] */\n      dup3\n      gt\n      iszero\n        /* \"contracts/Online/ERC20/WBTC.sol\":2759:2798  require(_value <= balances[msg.sender]) */\n      tag_17\n      jumpi\n      0x0\n      dup1\n      revert\n    tag_17:\n        /* \"contracts/Online/ERC20/WBTC.sol\":2813:2830  _to != address(0) */\n      0xffffffffffffffffffffffffffffffffffffffff\n      dup4\n      and\n      iszero\n      iszero\n        /* \"contracts/Online/ERC20/WBTC.sol\":2805:2831  require(_to != address(0)) */\n      tag_18\n      jumpi\n      0x0\n      dup1\n      revert\n    tag_18:\n        /* \"contracts/Online/ERC20/WBTC.sol\":2872:2882  msg.sender */\n      caller\n        /* \"contracts/Online/ERC20/WBTC.sol\":2863:2871  balances */\n      0x0\n        /* \"contracts/Online/ERC20/WBTC.sol\":2863:2883  balances[msg.sender] */\n      swap1\n      dup2\n      mstore\n      0x20\n      dup2\n      swap1\n      mstore\n      0x40\n      swap1\n      keccak256\n      sload\n        /* \"contracts/Online/ERC20/WBTC.sol\":2863:2895  balances[msg.sender].sub(_value) */\n      tag_19\n      swap1\n        /* \"contracts/Online/ERC20/WBTC.sol\":2888:2894  _value */\n      dup4\n        /* \"contracts/Online/ERC20/WBTC.sol\":2863:2895  balances[msg.sender].sub(_value) */\n      0xffffffff\n        /* \"contracts/Online/ERC20/WBTC.sol\":2863:2887  balances[msg.sender].sub */\n      tag_20\n        /* \"contracts/Online/ERC20/WBTC.sol\":2863:2895  balances[msg.sender].sub(_value) */\n      and\n      jump\t// in\n    tag_19:\n        /* \"contracts/Online/ERC20/WBTC.sol\":2849:2859  msg.sender */\n      caller\n        /* \"contracts/Online/ERC20/WBTC.sol\":2840:2848  balances */\n      0x0\n        /* \"contracts/Online/ERC20/WBTC.sol\":2840:2860  balances[msg.sender] */\n      swap1\n      dup2\n      mstore\n      0x20\n      dup2\n      swap1\n      mstore\n      0x40\n      dup1\n      dup3\n      keccak256\n        /* \"contracts/Online/ERC20/WBTC.sol\":2840:2895  balances[msg.sender] = balances[msg.sender].sub(_value) */\n      swap3\n      swap1\n      swap3\n      sstore\n        /* \"contracts/Online/ERC20/WBTC.sol\":2840:2860  balances[msg.sender] */\n      0xffffffffffffffffffffffffffffffffffffffff\n        /* \"contracts/Online/ERC20/WBTC.sol\":2918:2931  balances[_to] */\n      dup6\n      and\n      dup2\n      mstore\n      keccak256\n      sload\n        /* \"contracts/Online/ERC20/WBTC.sol\":2918:2943  balances[_to].add(_value) */\n      tag_21\n      swap1\n        /* \"contracts/Online/ERC20/WBTC.sol\":2936:2942  _value */\n      dup4\n        /* \"contracts/Online/ERC20/WBTC.sol\":2918:2943  balances[_to].add(_value) */\n      0xffffffff\n        /* \"contracts/Online/ERC20/WBTC.sol\":2918:2935  balances[_to].add */\n      tag_22\n        /* \"contracts/Online/ERC20/WBTC.sol\":2918:2943  balances[_to].add(_value) */\n      and\n      jump\t// in\n    tag_21:\n        /* \"contracts/Online/ERC20/WBTC.sol\":2902:2915  balances[_to] */\n      0xffffffffffffffffffffffffffffffffffffffff\n      dup5\n      and\n        /* \"contracts/Online/ERC20/WBTC.sol\":2902:2910  balances */\n      0x0\n        /* \"contracts/Online/ERC20/WBTC.sol\":2902:2915  balances[_to] */\n      dup2\n      dup2\n      mstore\n      0x20\n      dup2\n      dup2\n      mstore\n      0x40\n      swap2\n      dup3\n      swap1\n      keccak256\n        /* \"contracts/Online/ERC20/WBTC.sol\":2902:2943  balances[_to] = balances[_to].add(_value) */\n      swap4\n      swap1\n      swap4\n      sstore\n        /* \"contracts/Online/ERC20/WBTC.sol\":2955:2988  Transfer(msg.sender, _to, _value) */\n      dup1\n      mload\n      dup6\n      dup2\n      mstore\n      swap1\n      mload\n        /* \"contracts/Online/ERC20/WBTC.sol\":2902:2915  balances[_to] */\n      swap2\n      swap3\n        /* \"contracts/Online/ERC20/WBTC.sol\":2964:2974  msg.sender */\n      caller\n      swap3\n        /* \"contracts/Online/ERC20/WBTC.sol\":2955:2988  Transfer(msg.sender, _to, _value) */\n      0xddf252ad1be2c89b69c2b068fc378daa952ba7f163c4a11628f55a4df523b3ef\n      swap3\n      dup2\n      swap1\n      sub\n      swap1\n      swap2\n      add\n      swap1\n      log3\n      pop\n        /* \"contracts/Online/ERC20/WBTC.sol\":3002:3006  true */\n      0x1\n        /* \"contracts/Online/ERC20/WBTC.sol\":2683:3012  function transfer(address _to, uint256 _value) public returns (bool) {\r... */\n      swap3\n      swap2\n      pop\n      pop\n      jump\t// out\n        /* \"contracts/Online/ERC20/WBTC.sol\":1728:1847  function sub(uint256 _a, uint256 _b) internal pure returns (uint256) {\r... */\n    tag_20:\n        /* \"contracts/Online/ERC20/WBTC.sol\":1788:1795  uint256 */\n      0x0\n        /* \"contracts/Online/ERC20/WBTC.sol\":1811:1819  _b <= _a */\n      dup3\n      dup3\n      gt\n      iszero\n        /* \"contracts/Online/ERC20/WBTC.sol\":1804:1820  assert(_b <= _a) */\n      tag_24\n      jumpi\n      invalid\n    tag_24:\n      pop\n        /* \"contracts/Online/ERC20/WBTC.sol\":1834:1841  _a - _b */\n      swap1\n      sub\n      swap1\n        /* \"contracts/Online/ERC20/WBTC.sol\":1728:1847  function sub(uint256 _a, uint256 _b) internal pure returns (uint256) {\r... */\n      jump\t// out\n        /* \"contracts/Online/ERC20/WBTC.sol\":1914:2046  function add(uint256 _a, uint256 _b) internal pure returns (uint256 c) {\r... */\n    tag_22:\n        /* \"contracts/Online/ERC20/WBTC.sol\":1996:2003  _a + _b */\n      dup2\n      dup2\n      add\n        /* \"contracts/Online/ERC20/WBTC.sol\":2017:2024  c >= _a */\n      dup3\n      dup2\n      lt\n      iszero\n        /* \"contracts/Online/ERC20/WBTC.sol\":2010:2025  assert(c >= _a) */\n      tag_26\n      jumpi\n      invalid\n    tag_26:\n        /* \"contracts/Online/ERC20/WBTC.sol\":1914:2046  function add(uint256 _a, uint256 _b) internal pure returns (uint256 c) {\r... */\n      swap3\n      swap2\n      pop\n      pop\n      jump\t// out\n\n    auxdata: 0xa165627a7a723058208d680507ca09f419dd11725f38f59f6cf43d347f6afef57721a8c7bfb5704cd60029\n}\n",
				"bytecode": {
					"linkReferences": {},
					"object": "608060405234801561001057600080fd5b5061027a806100206000396000f3006080604052600436106100565763ffffffff7c010000000000000000000000000000000000000000000000000000000060003504166318160ddd811461005b57806370a0823114610082578063a9059cbb146100b0575b600080fd5b34801561006757600080fd5b506100706100f5565b60408051918252519081900360200190f35b34801561008e57600080fd5b5061007073ffffffffffffffffffffffffffffffffffffffff600435166100fb565b3480156100bc57600080fd5b506100e173ffffffffffffffffffffffffffffffffffffffff60043516602435610123565b604080519115158252519081900360200190f35b60015490565b73ffffffffffffffffffffffffffffffffffffffff1660009081526020819052604090205490565b3360009081526020819052604081205482111561013f57600080fd5b73ffffffffffffffffffffffffffffffffffffffff8316151561016157600080fd5b33600090815260208190526040902054610181908363ffffffff61022916565b336000908152602081905260408082209290925573ffffffffffffffffffffffffffffffffffffffff8516815220546101c0908363ffffffff61023b16565b73ffffffffffffffffffffffffffffffffffffffff8416600081815260208181526040918290209390935580518581529051919233927fddf252ad1be2c89b69c2b068fc378daa952ba7f163c4a11628f55a4df523b3ef9281900390910190a350600192915050565b60008282111561023557fe5b50900390565b8181018281101561024857fe5b929150505600a165627a7a723058208d680507ca09f419dd11725f38f59f6cf43d347f6afef57721a8c7bfb5704cd60029",
					"opcodes": "PUSH1 0x80 PUSH1 0x40 MSTORE CALLVALUE DUP1 ISZERO PUSH2 0x10 JUMPI PUSH1 0x0 DUP1 REVERT JUMPDEST POP PUSH2 0x27A DUP1 PUSH2 0x20 PUSH1 0x0 CODECOPY PUSH1 0x0 RETURN STOP PUSH1 0x80 PUSH1 0x40 MSTORE PUSH1 0x4 CALLDATASIZE LT PUSH2 0x56 JUMPI PUSH4 0xFFFFFFFF PUSH29 0x100000000000000000000000000000000000000000000000000000000 PUSH1 0x0 CALLDATALOAD DIV AND PUSH4 0x18160DDD DUP2 EQ PUSH2 0x5B JUMPI DUP1 PUSH4 0x70A08231 EQ PUSH2 0x82 JUMPI DUP1 PUSH4 0xA9059CBB EQ PUSH2 0xB0 JUMPI JUMPDEST PUSH1 0x0 DUP1 REVERT JUMPDEST CALLVALUE DUP1 ISZERO PUSH2 0x67 JUMPI PUSH1 0x0 DUP1 REVERT JUMPDEST POP PUSH2 0x70 PUSH2 0xF5 JUMP JUMPDEST PUSH1 0x40 DUP1 MLOAD SWAP2 DUP3 MSTORE MLOAD SWAP1 DUP2 SWAP1 SUB PUSH1 0x20 ADD SWAP1 RETURN JUMPDEST CALLVALUE DUP1 ISZERO PUSH2 0x8E JUMPI PUSH1 0x0 DUP1 REVERT JUMPDEST POP PUSH2 0x70 PUSH20 0xFFFFFFFFFFFFFFFFFFFFFFFFFFFFFFFFFFFFFFFF PUSH1 0x4 CALLDATALOAD AND PUSH2 0xFB JUMP JUMPDEST CALLVALUE DUP1 ISZERO PUSH2 0xBC JUMPI PUSH1 0x0 DUP1 REVERT JUMPDEST POP PUSH2 0xE1 PUSH20 0xFFFFFFFFFFFFFFFFFFFFFFFFFFFFFFFFFFFFFFFF PUSH1 0x4 CALLDATALOAD AND PUSH1 0x24 CALLDATALOAD PUSH2 0x123 JUMP JUMPDEST PUSH1 0x40 DUP1 MLOAD SWAP2 ISZERO ISZERO DUP3 MSTORE MLOAD SWAP1 DUP2 SWAP1 SUB PUSH1 0x20 ADD SWAP1 RETURN JUMPDEST PUSH1 0x1 SLOAD SWAP1 JUMP JUMPDEST PUSH20 0xFFFFFFFFFFFFFFFFFFFFFFFFFFFFFFFFFFFFFFFF AND PUSH1 0x0 SWAP1 DUP2 MSTORE PUSH1 0x20 DUP2 SWAP1 MSTORE PUSH1 0x40 SWAP1 KECCAK256 SLOAD SWAP1 JUMP JUMPDEST CALLER PUSH1 0x0 SWAP1 DUP2 MSTORE PUSH1 0x20 DUP2 SWAP1 MSTORE PUSH1 0x40 DUP2 KECCAK256 SLOAD DUP3 GT ISZERO PUSH2 0x13F JUMPI PUSH1 0x0 DUP1 REVERT JUMPDEST PUSH20 0xFFFFFFFFFFFFFFFFFFFFFFFFFFFFFFFFFFFFFFFF DUP4 AND ISZERO ISZERO PUSH2 0x161 JUMPI PUSH1 0x0 DUP1 REVERT JUMPDEST CALLER PUSH1 0x0 SWAP1 DUP2 MSTORE PUSH1 0x20 DUP2 SWAP1 MSTORE PUSH1 0x40 SWAP1 KECCAK256 SLOAD PUSH2 0x181 SWAP1 DUP4 PUSH4 0xFFFFFFFF PUSH2 0x229 AND JUMP JUMPDEST CALLER PUSH1 0x0 SWAP1 DUP2 MSTORE PUSH1 0x20 DUP2 SWAP1 MSTORE PUSH1 0x40 DUP1 DUP3 KECCAK256 SWAP3 SWAP1 SWAP3 SSTORE PUSH20 0xFFFFFFFFFFFFFFFFFFFFFFFFFFFFFFFFFFFFFFFF DUP6 AND DUP2 MSTORE KECCAK256 SLOAD PUSH2 0x1C0 SWAP1 DUP4 PUSH4 0xFFFFFFFF PUSH2 0x23B AND JUMP JUMPDEST PUSH20 0xFFFFFFFFFFFFFFFFFFFFFFFFFFFFFFFFFFFFFFFF DUP5 AND PUSH1 0x0 DUP2 DUP2 MSTORE PUSH1 0x20 DUP2 DUP2 MSTORE PUSH1 0x40 SWAP2 DUP3 SWAP1 KECCAK256 SWAP4 SWAP1 SWAP4 SSTORE DUP1 MLOAD DUP6 DUP2 MSTORE SWAP1 MLOAD SWAP2 SWAP3 CALLER SWAP3 PUSH32 0xDDF252AD1BE2C89B69C2B068FC378DAA952BA7F163C4A11628F55A4DF523B3EF SWAP3 DUP2 SWAP1 SUB SWAP1 SWAP2 ADD SWAP1 LOG3 POP PUSH1 0x1 SWAP3 SWAP2 POP POP JUMP JUMPDEST PUSH1 0x0 DUP3 DUP3 GT ISZERO PUSH2 0x235 JUMPI INVALID JUMPDEST POP SWAP1 SUB SWAP1 JUMP JUMPDEST DUP2 DUP2 ADD DUP3 DUP2 LT ISZERO PUSH2 0x248 JUMPI INVALID JUMPDEST SWAP3 SWAP2 POP POP JUMP STOP LOG1 PUSH6 0x627A7A723058 KECCAK256 DUP14 PUSH9 0x507CA09F419DD1172 0x5f CODESIZE 0xf5 SWAP16 PUSH13 0xF43D347F6AFEF57721A8C7BFB5 PUSH17 0x4CD6002900000000000000000000000000 "
				},
				"gasEstimates": {
					"creation": {
						"codeDepositCost": "126800",
						"executionCost": "171",
						"totalCost": "126971"
					},
					"external": {
						"balanceOf(address)": "493",
						"totalSupply()": "384",
						"transfer(address,uint256)": "infinite"
					}
				},
				"methodIdentifiers": {
					"balanceOf(address)": "70a08231",
					"totalSupply()": "18160ddd",
					"transfer(address,uint256)": "a9059cbb"
				}
			},
			"userdoc": {
				"methods": {}
			}
		}
	}
}