{
	"contracts/Online/ERC20/WBTC.sol": {
		"PausableToken": {
			"abi": [
				{
					"constant": false,
					"inputs": [
						{
							"name": "_spender",
							"type": "address"
						},
						{
							"name": "_value",
							"type": "uint256"
						}
					],
					"name": "approve",
					"outputs": [
						{
							"name": "",
							"type": "bool"
						}
					],
					"payable": false,
					"stateMutability": "nonpayable",
					"type": "function"
				},
				{
					"constant": true,
					"inputs": [],
					"name": "totalSupply",
					"outputs": [
						{
							"name": "",
							"type": "uint256"
						}
					],
					"payable": false,
					"stateMutability": "view",
					"type": "function"
				},
				{
					"constant": false,
					"inputs": [
						{
							"name": "_from",
							"type": "address"
						},
						{
							"name": "_to",
							"type": "address"
						},
						{
							"name": "_value",
							"type": "uint256"
						}
					],
					"name": "transferFrom",
					"outputs": [
						{
							"name": "",
							"type": "bool"
						}
					],
					"payable": false,
					"stateMutability": "nonpayable",
					"type": "function"
				},
				{
					"constant": false,
					"inputs": [],
					"name": "unpause",
					"outputs": [],
					"payable": false,
					"stateMutability": "nonpayable",
					"type": "function"
				},
				{
					"constant": true,
					"inputs": [],
					"name": "paused",
					"outputs": [
						{
							"name": "",
							"type": "bool"
						}
					],
					"payable": false,
					"stateMutability": "view",
					"type": "function"
				},
				{
					"constant": false,
					"inputs": [
						{
							"name": "_spender",
							"type": "address"
						},
						{
							"name": "_subtractedValue",
							"type": "uint256"
						}
					],
					"name": "decreaseApproval",
					"outputs": [
						{
							"name": "success",
							"type": "bool"
						}
					],
					"payable": false,
					"stateMutability": "nonpayable",
					"type": "function"
				},
				{
					"constant": true,
					"inputs": [
						{
							"name": "_owner",
							"type": "address"
						}
					],
					"name": "balanceOf",
					"outputs": [
						{
							"name": "",
							"type": "uint256"
						}
					],
					"payable": false,
					"stateMutability": "view",
					"type": "function"
				},
				{
					"constant": false,
					"inputs": [],
					"name": "renounceOwnership",
					"outputs": [],
					"payable": false,
					"stateMutability": "nonpayable",
					"type": "function"
				},
				{
					"constant": false,
					"inputs": [],
					"name": "pause",
					"outputs": [],
					"payable": false,
					"stateMutability": "nonpayable",
					"type": "function"
				},
				{
					"constant": true,
					"inputs": [],
					"name": "owner",
					"outputs": [
						{
							"name": "",
							"type": "address"
						}
					],
					"payable": false,
					"stateMutability": "view",
					"type": "function"
				},
				{
					"constant": false,
					"inputs": [
						{
							"name": "_to",
							"type": "address"
						},
						{
							"name": "_value",
							"type": "uint256"
						}
					],
					"name": "transfer",
					"outputs": [
						{
							"name": "",
							"type": "bool"
						}
					],
					"payable": false,
					"stateMutability": "nonpayable",
					"type": "function"
				},
				{
					"constant": false,
					"inputs": [
						{
							"name": "_spender",
							"type": "address"
						},
						{
							"name": "_addedValue",
							"type": "uint256"
						}
					],
					"name": "increaseApproval",
					"outputs": [
						{
							"name": "success",
							"type": "bool"
						}
					],
					"payable": false,
					"stateMutability": "nonpayable",
					"type": "function"
				},
				{
					"constant": true,
					"inputs": [
						{
							"name": "_owner",
							"type": "address"
						},
						{
							"name": "_spender",
							"type": "address"
						}
					],
					"name": "allowance",
					"outputs": [
						{
							"name": "",
							"type": "uint256"
						}
					],
					"payable": false,
					"stateMutability": "view",
					"type": "function"
				},
				{
					"constant": false,
					"inputs": [
						{
							"name": "_newOwner",
							"type": "address"
						}
					],
					"name": "transferOwnership",
					"outputs": [],
					"payable": false,
					"stateMutability": "nonpayable",
					"type": "function"
				},
				{
					"anonymous": false,
					"inputs": [],
					"name": "Pause",
					"type": "event"
				},
				{
					"anonymous": false,
					"inputs": [],
					"name": "Unpause",
					"type": "event"
				},
				{
					"anonymous": false,
					"inputs": [
						{
							"indexed": true,
							"name": "previousOwner",
							"type": "address"
						}
					],
					"name": "OwnershipRenounced",
					"type": "event"
				},
				{
					"anonymous": false,
					"inputs": [
						{
							"indexed": true,
							"name": "previousOwner",
							"type": "address"
						},
						{
							"indexed": true,
							"name": "newOwner",
							"type": "address"
						}
					],
					"name": "OwnershipTransferred",
					"type": "event"
				},
				{
					"anonymous": false,
					"inputs": [
						{
							"indexed": true,
							"name": "owner",
							"type": "address"
						},
						{
							"indexed": true,
							"name": "spender",
							"type": "address"
						},
						{
							"indexed": false,
							"name": "value",
							"type": "uint256"
						}
					],
					"name": "Approval",
					"type": "event"
				},
				{
					"anonymous": false,
					"inputs": [
						{
							"indexed": true,
							"name": "from",
							"type": "address"
						},
						{
							"indexed": true,
							"name": "to",
							"type": "address"
						},
						{
							"indexed": false,
							"name": "value",
							"type": "uint256"
						}
					],
					"name": "Transfer",
					"type": "event"
				}
			],
			"devdoc": {
				"methods": {
					"allowance(address,address)": {
						"details": "Function to check the amount of tokens that an owner allowed to a spender.\r",
						"params": {
							"_owner": "address The address which owns the funds.\r",
							"_spender": "address The address which will spend the funds.\r"
						},
						"return": "A uint256 specifying the amount of tokens still available for the spender.\r"
					},
					"balanceOf(address)": {
						"details": "Gets the balance of the specified address.\r",
						"params": {
							"_owner": "The address to query the the balance of.\r"
						},
						"return": "An uint256 representing the amount owned by the passed address.\r"
					},
					"pause()": {
						"details": "called by the owner to pause, triggers stopped state\r"
					},
					"renounceOwnership()": {
						"details": "Allows the current owner to relinquish control of the contract.\r"
					},
					"totalSupply()": {
						"details": "Total number of tokens in existence\r"
					},
					"transferOwnership(address)": {
						"details": "Allows the current owner to transfer control of the contract to a newOwner.\r",
						"params": {
							"_newOwner": "The address to transfer ownership to.\r"
						}
					},
					"unpause()": {
						"details": "called by the owner to unpause, returns to normal state\r"
					}
				},
				"title": "Pausable token\r"
			},
			"evm": {
				"assembly": "    /* \"contracts/Online/ERC20/WBTC.sol\":14018:15052  contract PausableToken is StandardToken, Pausable {\r... */\n  mstore(0x40, 0x80)\n    /* \"contracts/Online/ERC20/WBTC.sol\":13127:13153  bool public paused = false */\n  0x3\n  dup1\n  sload\n  not(sub(exp(0x2, 0xa8), 0x1))\n    /* \"contracts/Online/ERC20/WBTC.sol\":9332:9350  owner = msg.sender */\n  and\n    /* \"contracts/Online/ERC20/WBTC.sol\":9340:9350  msg.sender */\n  caller\n    /* \"contracts/Online/ERC20/WBTC.sol\":9332:9350  owner = msg.sender */\n  or\n  swap1\n  sstore\n    /* \"contracts/Online/ERC20/WBTC.sol\":14018:15052  contract PausableToken is StandardToken, Pausable {\r... */\n  dataSize(sub_0)\n  dup1\n  dataOffset(sub_0)\n  0x0\n  codecopy\n  0x0\n  return\nstop\n\nsub_0: assembly {\n        /* \"contracts/Online/ERC20/WBTC.sol\":14018:15052  contract PausableToken is StandardToken, Pausable {\r... */\n      mstore(0x40, 0x80)\n      jumpi(tag_1, lt(calldatasize, 0x4))\n      and(div(calldataload(0x0), 0x100000000000000000000000000000000000000000000000000000000), 0xffffffff)\n      0x95ea7b3\n      dup2\n      eq\n      tag_2\n      jumpi\n      dup1\n      0x18160ddd\n      eq\n      tag_3\n      jumpi\n      dup1\n      0x23b872dd\n      eq\n      tag_4\n      jumpi\n      dup1\n      0x3f4ba83a\n      eq\n      tag_5\n      jumpi\n      dup1\n      0x5c975abb\n      eq\n      tag_6\n      jumpi\n      dup1\n      0x66188463\n      eq\n      tag_7\n      jumpi\n      dup1\n      0x70a08231\n      eq\n      tag_8\n      jumpi\n      dup1\n      0x715018a6\n      eq\n      tag_9\n      jumpi\n      dup1\n      0x8456cb59\n      eq\n      tag_10\n      jumpi\n      dup1\n      0x8da5cb5b\n      eq\n      tag_11\n      jumpi\n      dup1\n      0xa9059cbb\n      eq\n      tag_12\n      jumpi\n      dup1\n      0xd73dd623\n      eq\n      tag_13\n      jumpi\n      dup1\n      0xdd62ed3e\n      eq\n      tag_14\n      jumpi\n      dup1\n      0xf2fde38b\n      eq\n      tag_15\n      jumpi\n    tag_1:\n      0x0\n      dup1\n      revert\n        /* \"contracts/Online/ERC20/WBTC.sol\":14448:14619  function approve(\r... */\n    tag_2:\n      callvalue\n        /* \"--CODEGEN--\":8:17   */\n      dup1\n        /* \"--CODEGEN--\":5:7   */\n      iszero\n      tag_16\n      jumpi\n        /* \"--CODEGEN--\":30:31   */\n      0x0\n        /* \"--CODEGEN--\":27:28   */\n      dup1\n        /* \"--CODEGEN--\":20:32   */\n      revert\n        /* \"--CODEGEN--\":5:7   */\n    tag_16:\n      pop\n        /* \"contracts/Online/ERC20/WBTC.sol\":14448:14619  function approve(\r... */\n      tag_17\n      and(calldataload(0x4), sub(exp(0x2, 0xa0), 0x1))\n      calldataload(0x24)\n      jump(tag_18)\n    tag_17:\n      0x40\n      dup1\n      mload\n      swap2\n      iszero\n      iszero\n      dup3\n      mstore\n      mload\n      swap1\n      dup2\n      swap1\n      sub\n      0x20\n      add\n      swap1\n      return\n        /* \"contracts/Online/ERC20/WBTC.sol\":2437:2522  function totalSupply() public view returns (uint256) {\r... */\n    tag_3:\n      callvalue\n        /* \"--CODEGEN--\":8:17   */\n      dup1\n        /* \"--CODEGEN--\":5:7   */\n      iszero\n      tag_19\n      jumpi\n        /* \"--CODEGEN--\":30:31   */\n      0x0\n        /* \"--CODEGEN--\":27:28   */\n      dup1\n        /* \"--CODEGEN--\":20:32   */\n      revert\n        /* \"--CODEGEN--\":5:7   */\n    tag_19:\n        /* \"contracts/Online/ERC20/WBTC.sol\":2437:2522  function totalSupply() public view returns (uint256) {\r... */\n      pop\n      tag_20\n      jump(tag_21)\n    tag_20:\n      0x40\n      dup1\n      mload\n      swap2\n      dup3\n      mstore\n      mload\n      swap1\n      dup2\n      swap1\n      sub\n      0x20\n      add\n      swap1\n      return\n        /* \"contracts/Online/ERC20/WBTC.sol\":14244:14442  function transferFrom(\r... */\n    tag_4:\n      callvalue\n        /* \"--CODEGEN--\":8:17   */\n      dup1\n        /* \"--CODEGEN--\":5:7   */\n      iszero\n      tag_22\n      jumpi\n        /* \"--CODEGEN--\":30:31   */\n      0x0\n        /* \"--CODEGEN--\":27:28   */\n      dup1\n        /* \"--CODEGEN--\":20:32   */\n      revert\n        /* \"--CODEGEN--\":5:7   */\n    tag_22:\n      pop\n        /* \"contracts/Online/ERC20/WBTC.sol\":14244:14442  function transferFrom(\r... */\n      tag_17\n      sub(exp(0x2, 0xa0), 0x1)\n      calldataload(0x4)\n      dup2\n      and\n      swap1\n      calldataload(0x24)\n      and\n      calldataload(0x44)\n      jump(tag_24)\n        /* \"contracts/Online/ERC20/WBTC.sol\":13748:13843  function unpause() public onlyOwner whenPaused {\r... */\n    tag_5:\n      callvalue\n        /* \"--CODEGEN--\":8:17   */\n      dup1\n        /* \"--CODEGEN--\":5:7   */\n      iszero\n      tag_25\n      jumpi\n        /* \"--CODEGEN--\":30:31   */\n      0x0\n        /* \"--CODEGEN--\":27:28   */\n      dup1\n        /* \"--CODEGEN--\":20:32   */\n      revert\n        /* \"--CODEGEN--\":5:7   */\n    tag_25:\n        /* \"contracts/Online/ERC20/WBTC.sol\":13748:13843  function unpause() public onlyOwner whenPaused {\r... */\n      pop\n      tag_26\n      jump(tag_27)\n    tag_26:\n      stop\n        /* \"contracts/Online/ERC20/WBTC.sol\":13127:13153  bool public paused = false */\n    tag_6:\n      callvalue\n        /* \"--CODEGEN--\":8:17   */\n      dup1\n        /* \"--CODEGEN--\":5:7   */\n      iszero\n      tag_28\n      jumpi\n        /* \"--CODEGEN--\":30:31   */\n      0x0\n        /* \"--CODEGEN--\":27:28   */\n      dup1\n        /* \"--CODEGEN--\":20:32   */\n      revert\n        /* \"--CODEGEN--\":5:7   */\n    tag_28:\n        /* \"contracts/Online/ERC20/WBTC.sol\":13127:13153  bool public paused = false */\n      pop\n      tag_17\n      jump(tag_30)\n        /* \"contracts/Online/ERC20/WBTC.sol\":14835:15049  function decreaseApproval(\r... */\n    tag_7:\n      callvalue\n        /* \"--CODEGEN--\":8:17   */\n      dup1\n        /* \"--CODEGEN--\":5:7   */\n      iszero\n      tag_31\n      jumpi\n        /* \"--CODEGEN--\":30:31   */\n      0x0\n        /* \"--CODEGEN--\":27:28   */\n      dup1\n        /* \"--CODEGEN--\":20:32   */\n      revert\n        /* \"--CODEGEN--\":5:7   */\n    tag_31:\n      pop\n        /* \"contracts/Online/ERC20/WBTC.sol\":14835:15049  function decreaseApproval(\r... */\n      tag_17\n      and(calldataload(0x4), sub(exp(0x2, 0xa0), 0x1))\n      calldataload(0x24)\n      jump(tag_33)\n        /* \"contracts/Online/ERC20/WBTC.sol\":3221:3322  function balanceOf(address _owner) public view returns (uint256) {\r... */\n    tag_8:\n      callvalue\n        /* \"--CODEGEN--\":8:17   */\n      dup1\n        /* \"--CODEGEN--\":5:7   */\n      iszero\n      tag_34\n      jumpi\n        /* \"--CODEGEN--\":30:31   */\n      0x0\n        /* \"--CODEGEN--\":27:28   */\n      dup1\n        /* \"--CODEGEN--\":20:32   */\n      revert\n        /* \"--CODEGEN--\":5:7   */\n    tag_34:\n      pop\n        /* \"contracts/Online/ERC20/WBTC.sol\":3221:3322  function balanceOf(address _owner) public view returns (uint256) {\r... */\n      tag_20\n      and(calldataload(0x4), sub(exp(0x2, 0xa0), 0x1))\n      jump(tag_36)\n        /* \"contracts/Online/ERC20/WBTC.sol\":9783:9897  function renounceOwnership() public onlyOwner {\r... */\n    tag_9:\n      callvalue\n        /* \"--CODEGEN--\":8:17   */\n      dup1\n        /* \"--CODEGEN--\":5:7   */\n      iszero\n      tag_37\n      jumpi\n        /* \"--CODEGEN--\":30:31   */\n      0x0\n        /* \"--CODEGEN--\":27:28   */\n      dup1\n        /* \"--CODEGEN--\":20:32   */\n      revert\n        /* \"--CODEGEN--\":5:7   */\n    tag_37:\n        /* \"contracts/Online/ERC20/WBTC.sol\":9783:9897  function renounceOwnership() public onlyOwner {\r... */\n      pop\n      tag_26\n      jump(tag_39)\n        /* \"contracts/Online/ERC20/WBTC.sol\":13568:13661  function pause() public onlyOwner whenNotPaused {\r... */\n    tag_10:\n      callvalue\n        /* \"--CODEGEN--\":8:17   */\n      dup1\n        /* \"--CODEGEN--\":5:7   */\n      iszero\n      tag_40\n      jumpi\n        /* \"--CODEGEN--\":30:31   */\n      0x0\n        /* \"--CODEGEN--\":27:28   */\n      dup1\n        /* \"--CODEGEN--\":20:32   */\n      revert\n        /* \"--CODEGEN--\":5:7   */\n    tag_40:\n        /* \"contracts/Online/ERC20/WBTC.sol\":13568:13661  function pause() public onlyOwner whenNotPaused {\r... */\n      pop\n      tag_26\n      jump(tag_42)\n        /* \"contracts/Online/ERC20/WBTC.sol\":8988:9008  address public owner */\n    tag_11:\n      callvalue\n        /* \"--CODEGEN--\":8:17   */\n      dup1\n        /* \"--CODEGEN--\":5:7   */\n      iszero\n      tag_43\n      jumpi\n        /* \"--CODEGEN--\":30:31   */\n      0x0\n        /* \"--CODEGEN--\":27:28   */\n      dup1\n        /* \"--CODEGEN--\":20:32   */\n      revert\n        /* \"--CODEGEN--\":5:7   */\n    tag_43:\n        /* \"contracts/Online/ERC20/WBTC.sol\":8988:9008  address public owner */\n      pop\n      tag_44\n      jump(tag_45)\n    tag_44:\n      0x40\n      dup1\n      mload\n      sub(exp(0x2, 0xa0), 0x1)\n      swap1\n      swap3\n      and\n      dup3\n      mstore\n      mload\n      swap1\n      dup2\n      swap1\n      sub\n      0x20\n      add\n      swap1\n      return\n        /* \"contracts/Online/ERC20/WBTC.sol\":14075:14238  function transfer(\r... */\n    tag_12:\n      callvalue\n        /* \"--CODEGEN--\":8:17   */\n      dup1\n        /* \"--CODEGEN--\":5:7   */\n      iszero\n      tag_46\n      jumpi\n        /* \"--CODEGEN--\":30:31   */\n      0x0\n        /* \"--CODEGEN--\":27:28   */\n      dup1\n        /* \"--CODEGEN--\":20:32   */\n      revert\n        /* \"--CODEGEN--\":5:7   */\n    tag_46:\n      pop\n        /* \"contracts/Online/ERC20/WBTC.sol\":14075:14238  function transfer(\r... */\n      tag_17\n      and(calldataload(0x4), sub(exp(0x2, 0xa0), 0x1))\n      calldataload(0x24)\n      jump(tag_48)\n        /* \"contracts/Online/ERC20/WBTC.sol\":14625:14829  function increaseApproval(\r... */\n    tag_13:\n      callvalue\n        /* \"--CODEGEN--\":8:17   */\n      dup1\n        /* \"--CODEGEN--\":5:7   */\n      iszero\n      tag_49\n      jumpi\n        /* \"--CODEGEN--\":30:31   */\n      0x0\n        /* \"--CODEGEN--\":27:28   */\n      dup1\n        /* \"--CODEGEN--\":20:32   */\n      revert\n        /* \"--CODEGEN--\":5:7   */\n    tag_49:\n      pop\n        /* \"contracts/Online/ERC20/WBTC.sol\":14625:14829  function increaseApproval(\r... */\n      tag_17\n      and(calldataload(0x4), sub(exp(0x2, 0xa0), 0x1))\n      calldataload(0x24)\n      jump(tag_51)\n        /* \"contracts/Online/ERC20/WBTC.sol\":6275:6437  function allowance(\r... */\n    tag_14:\n      callvalue\n        /* \"--CODEGEN--\":8:17   */\n      dup1\n        /* \"--CODEGEN--\":5:7   */\n      iszero\n      tag_52\n      jumpi\n        /* \"--CODEGEN--\":30:31   */\n      0x0\n        /* \"--CODEGEN--\":27:28   */\n      dup1\n        /* \"--CODEGEN--\":20:32   */\n      revert\n        /* \"--CODEGEN--\":5:7   */\n    tag_52:\n      pop\n        /* \"contracts/Online/ERC20/WBTC.sol\":6275:6437  function allowance(\r... */\n      tag_20\n      sub(exp(0x2, 0xa0), 0x1)\n      calldataload(0x4)\n      dup2\n      and\n      swap1\n      calldataload(0x24)\n      and\n      jump(tag_54)\n        /* \"contracts/Online/ERC20/WBTC.sol\":10065:10170  function transferOwnership(address _newOwner) public onlyOwner {\r... */\n    tag_15:\n      callvalue\n        /* \"--CODEGEN--\":8:17   */\n      dup1\n        /* \"--CODEGEN--\":5:7   */\n      iszero\n      tag_55\n      jumpi\n        /* \"--CODEGEN--\":30:31   */\n      0x0\n        /* \"--CODEGEN--\":27:28   */\n      dup1\n        /* \"--CODEGEN--\":20:32   */\n      revert\n        /* \"--CODEGEN--\":5:7   */\n    tag_55:\n      pop\n        /* \"contracts/Online/ERC20/WBTC.sol\":10065:10170  function transferOwnership(address _newOwner) public onlyOwner {\r... */\n      tag_26\n      and(calldataload(0x4), sub(exp(0x2, 0xa0), 0x1))\n      jump(tag_57)\n        /* \"contracts/Online/ERC20/WBTC.sol\":14448:14619  function approve(\r... */\n    tag_18:\n        /* \"contracts/Online/ERC20/WBTC.sol\":13303:13309  paused */\n      sload(0x3)\n        /* \"contracts/Online/ERC20/WBTC.sol\":14559:14563  bool */\n      0x0\n      swap1\n      exp(0x2, 0xa0)\n        /* \"contracts/Online/ERC20/WBTC.sol\":13303:13309  paused */\n      swap1\n      div\n      0xff\n      and\n        /* \"contracts/Online/ERC20/WBTC.sol\":13302:13309  !paused */\n      iszero\n        /* \"contracts/Online/ERC20/WBTC.sol\":13294:13310  require(!paused) */\n      tag_59\n      jumpi\n      0x0\n      dup1\n      revert\n    tag_59:\n        /* \"contracts/Online/ERC20/WBTC.sol\":14582:14613  super.approve(_spender, _value) */\n      tag_61\n        /* \"contracts/Online/ERC20/WBTC.sol\":14596:14604  _spender */\n      dup4\n        /* \"contracts/Online/ERC20/WBTC.sol\":14606:14612  _value */\n      dup4\n        /* \"contracts/Online/ERC20/WBTC.sol\":14582:14595  super.approve */\n      tag_62\n        /* \"contracts/Online/ERC20/WBTC.sol\":14582:14613  super.approve(_spender, _value) */\n      jump\t// in\n    tag_61:\n        /* \"contracts/Online/ERC20/WBTC.sol\":14575:14613  return super.approve(_spender, _value) */\n      swap4\n        /* \"contracts/Online/ERC20/WBTC.sol\":14448:14619  function approve(\r... */\n      swap3\n      pop\n      pop\n      pop\n      jump\t// out\n        /* \"contracts/Online/ERC20/WBTC.sol\":2437:2522  function totalSupply() public view returns (uint256) {\r... */\n    tag_21:\n        /* \"contracts/Online/ERC20/WBTC.sol\":2504:2516  totalSupply_ */\n      sload(0x1)\n        /* \"contracts/Online/ERC20/WBTC.sol\":2437:2522  function totalSupply() public view returns (uint256) {\r... */\n      swap1\n      jump\t// out\n        /* \"contracts/Online/ERC20/WBTC.sol\":14244:14442  function transferFrom(\r... */\n    tag_24:\n        /* \"contracts/Online/ERC20/WBTC.sol\":13303:13309  paused */\n      sload(0x3)\n        /* \"contracts/Online/ERC20/WBTC.sol\":14375:14379  bool */\n      0x0\n      swap1\n      exp(0x2, 0xa0)\n        /* \"contracts/Online/ERC20/WBTC.sol\":13303:13309  paused */\n      swap1\n      div\n      0xff\n      and\n        /* \"contracts/Online/ERC20/WBTC.sol\":13302:13309  !paused */\n      iszero\n        /* \"contracts/Online/ERC20/WBTC.sol\":13294:13310  require(!paused) */\n      tag_65\n      jumpi\n      0x0\n      dup1\n      revert\n    tag_65:\n        /* \"contracts/Online/ERC20/WBTC.sol\":14398:14436  super.transferFrom(_from, _to, _value) */\n      tag_67\n        /* \"contracts/Online/ERC20/WBTC.sol\":14417:14422  _from */\n      dup5\n        /* \"contracts/Online/ERC20/WBTC.sol\":14424:14427  _to */\n      dup5\n        /* \"contracts/Online/ERC20/WBTC.sol\":14429:14435  _value */\n      dup5\n        /* \"contracts/Online/ERC20/WBTC.sol\":14398:14416  super.transferFrom */\n      tag_68\n        /* \"contracts/Online/ERC20/WBTC.sol\":14398:14436  super.transferFrom(_from, _to, _value) */\n      jump\t// in\n    tag_67:\n        /* \"contracts/Online/ERC20/WBTC.sol\":14391:14436  return super.transferFrom(_from, _to, _value) */\n      swap5\n        /* \"contracts/Online/ERC20/WBTC.sol\":14244:14442  function transferFrom(\r... */\n      swap4\n      pop\n      pop\n      pop\n      pop\n      jump\t// out\n        /* \"contracts/Online/ERC20/WBTC.sol\":13748:13843  function unpause() public onlyOwner whenPaused {\r... */\n    tag_27:\n        /* \"contracts/Online/ERC20/WBTC.sol\":9491:9496  owner */\n      and(sub(exp(0x2, 0xa0), 0x1), sload(0x3))\n        /* \"contracts/Online/ERC20/WBTC.sol\":9477:9487  msg.sender */\n      caller\n        /* \"contracts/Online/ERC20/WBTC.sol\":9477:9496  msg.sender == owner */\n      eq\n        /* \"contracts/Online/ERC20/WBTC.sol\":9469:9497  require(msg.sender == owner) */\n      tag_70\n      jumpi\n      0x0\n      dup1\n      revert\n    tag_70:\n        /* \"contracts/Online/ERC20/WBTC.sol\":13463:13469  paused */\n      sload(0x3)\n      exp(0x2, 0xa0)\n      swap1\n      div\n      0xff\n      and\n        /* \"contracts/Online/ERC20/WBTC.sol\":13455:13470  require(paused) */\n      iszero\n      iszero\n      tag_72\n      jumpi\n      0x0\n      dup1\n      revert\n    tag_72:\n        /* \"contracts/Online/ERC20/WBTC.sol\":13802:13808  paused */\n      0x3\n        /* \"contracts/Online/ERC20/WBTC.sol\":13802:13816  paused = false */\n      dup1\n      sload\n      not(0xff0000000000000000000000000000000000000000)\n      and\n      swap1\n      sstore\n        /* \"contracts/Online/ERC20/WBTC.sol\":13828:13837  Unpause() */\n      mload(0x40)\n      0x7805862f689e2f13df9f062ff482ad3ad112aca9e0847911ed832e158c525b33\n      swap1\n        /* \"contracts/Online/ERC20/WBTC.sol\":13811:13816  false */\n      0x0\n      swap1\n        /* \"contracts/Online/ERC20/WBTC.sol\":13828:13837  Unpause() */\n      log1\n        /* \"contracts/Online/ERC20/WBTC.sol\":13748:13843  function unpause() public onlyOwner whenPaused {\r... */\n      jump\t// out\n        /* \"contracts/Online/ERC20/WBTC.sol\":13127:13153  bool public paused = false */\n    tag_30:\n      sload(0x3)\n      exp(0x2, 0xa0)\n      swap1\n      div\n      0xff\n      and\n      dup2\n      jump\t// out\n        /* \"contracts/Online/ERC20/WBTC.sol\":14835:15049  function decreaseApproval(\r... */\n    tag_33:\n        /* \"contracts/Online/ERC20/WBTC.sol\":13303:13309  paused */\n      sload(0x3)\n        /* \"contracts/Online/ERC20/WBTC.sol\":14962:14974  bool success */\n      0x0\n      swap1\n      exp(0x2, 0xa0)\n        /* \"contracts/Online/ERC20/WBTC.sol\":13303:13309  paused */\n      swap1\n      div\n      0xff\n      and\n        /* \"contracts/Online/ERC20/WBTC.sol\":13302:13309  !paused */\n      iszero\n        /* \"contracts/Online/ERC20/WBTC.sol\":13294:13310  require(!paused) */\n      tag_75\n      jumpi\n      0x0\n      dup1\n      revert\n    tag_75:\n        /* \"contracts/Online/ERC20/WBTC.sol\":14993:15043  super.decreaseApproval(_spender, _subtractedValue) */\n      tag_61\n        /* \"contracts/Online/ERC20/WBTC.sol\":15016:15024  _spender */\n      dup4\n        /* \"contracts/Online/ERC20/WBTC.sol\":15026:15042  _subtractedValue */\n      dup4\n        /* \"contracts/Online/ERC20/WBTC.sol\":14993:15015  super.decreaseApproval */\n      tag_78\n        /* \"contracts/Online/ERC20/WBTC.sol\":14993:15043  super.decreaseApproval(_spender, _subtractedValue) */\n      jump\t// in\n        /* \"contracts/Online/ERC20/WBTC.sol\":3221:3322  function balanceOf(address _owner) public view returns (uint256) {\r... */\n    tag_36:\n      sub(exp(0x2, 0xa0), 0x1)\n        /* \"contracts/Online/ERC20/WBTC.sol\":3300:3316  balances[_owner] */\n      and\n        /* \"contracts/Online/ERC20/WBTC.sol\":3277:3284  uint256 */\n      0x0\n        /* \"contracts/Online/ERC20/WBTC.sol\":3300:3316  balances[_owner] */\n      swap1\n      dup2\n      mstore\n      0x20\n      dup2\n      swap1\n      mstore\n      0x40\n      swap1\n      keccak256\n      sload\n      swap1\n        /* \"contracts/Online/ERC20/WBTC.sol\":3221:3322  function balanceOf(address _owner) public view returns (uint256) {\r... */\n      jump\t// out\n        /* \"contracts/Online/ERC20/WBTC.sol\":9783:9897  function renounceOwnership() public onlyOwner {\r... */\n    tag_39:\n        /* \"contracts/Online/ERC20/WBTC.sol\":9491:9496  owner */\n      and(sub(exp(0x2, 0xa0), 0x1), sload(0x3))\n        /* \"contracts/Online/ERC20/WBTC.sol\":9477:9487  msg.sender */\n      caller\n        /* \"contracts/Online/ERC20/WBTC.sol\":9477:9496  msg.sender == owner */\n      eq\n        /* \"contracts/Online/ERC20/WBTC.sol\":9469:9497  require(msg.sender == owner) */\n      tag_81\n      jumpi\n      0x0\n      dup1\n      revert\n    tag_81:\n        /* \"contracts/Online/ERC20/WBTC.sol\":9860:9865  owner */\n      sload(0x3)\n        /* \"contracts/Online/ERC20/WBTC.sol\":9841:9866  OwnershipRenounced(owner) */\n      mload(0x40)\n      sub(exp(0x2, 0xa0), 0x1)\n        /* \"contracts/Online/ERC20/WBTC.sol\":9860:9865  owner */\n      swap1\n      swap2\n      and\n      swap1\n        /* \"contracts/Online/ERC20/WBTC.sol\":9841:9866  OwnershipRenounced(owner) */\n      0xf8df31144d9c2f0f6b59d69b8b98abd5459d07f2742c4df920b25aae33c64820\n      swap1\n        /* \"contracts/Online/ERC20/WBTC.sol\":9860:9865  owner */\n      0x0\n      swap1\n        /* \"contracts/Online/ERC20/WBTC.sol\":9841:9866  OwnershipRenounced(owner) */\n      log2\n        /* \"contracts/Online/ERC20/WBTC.sol\":9873:9878  owner */\n      0x3\n        /* \"contracts/Online/ERC20/WBTC.sol\":9873:9891  owner = address(0) */\n      dup1\n      sload\n      not(0xffffffffffffffffffffffffffffffffffffffff)\n      and\n      swap1\n      sstore\n        /* \"contracts/Online/ERC20/WBTC.sol\":9783:9897  function renounceOwnership() public onlyOwner {\r... */\n      jump\t// out\n        /* \"contracts/Online/ERC20/WBTC.sol\":13568:13661  function pause() public onlyOwner whenNotPaused {\r... */\n    tag_42:\n        /* \"contracts/Online/ERC20/WBTC.sol\":9491:9496  owner */\n      and(sub(exp(0x2, 0xa0), 0x1), sload(0x3))\n        /* \"contracts/Online/ERC20/WBTC.sol\":9477:9487  msg.sender */\n      caller\n        /* \"contracts/Online/ERC20/WBTC.sol\":9477:9496  msg.sender == owner */\n      eq\n        /* \"contracts/Online/ERC20/WBTC.sol\":9469:9497  require(msg.sender == owner) */\n      tag_84\n      jumpi\n      0x0\n      dup1\n      revert\n    tag_84:\n        /* \"contracts/Online/ERC20/WBTC.sol\":13303:13309  paused */\n      sload(0x3)\n      exp(0x2, 0xa0)\n      swap1\n      div\n      0xff\n      and\n        /* \"contracts/Online/ERC20/WBTC.sol\":13302:13309  !paused */\n      iszero\n        /* \"contracts/Online/ERC20/WBTC.sol\":13294:13310  require(!paused) */\n      tag_86\n      jumpi\n      0x0\n      dup1\n      revert\n    tag_86:\n        /* \"contracts/Online/ERC20/WBTC.sol\":13623:13629  paused */\n      0x3\n        /* \"contracts/Online/ERC20/WBTC.sol\":13623:13636  paused = true */\n      dup1\n      sload\n      not(0xff0000000000000000000000000000000000000000)\n      and\n      exp(0x2, 0xa0)\n      or\n      swap1\n      sstore\n        /* \"contracts/Online/ERC20/WBTC.sol\":13648:13655  Pause() */\n      mload(0x40)\n      0x6985a02210a168e66602d3235cb6db0e70f92b3ba4d376a33c0f3d9434bff625\n      swap1\n        /* \"contracts/Online/ERC20/WBTC.sol\":13623:13636  paused = true */\n      0x0\n      swap1\n        /* \"contracts/Online/ERC20/WBTC.sol\":13648:13655  Pause() */\n      log1\n        /* \"contracts/Online/ERC20/WBTC.sol\":13568:13661  function pause() public onlyOwner whenNotPaused {\r... */\n      jump\t// out\n        /* \"contracts/Online/ERC20/WBTC.sol\":8988:9008  address public owner */\n    tag_45:\n      and(sub(exp(0x2, 0xa0), 0x1), sload(0x3))\n      dup2\n      jump\t// out\n        /* \"contracts/Online/ERC20/WBTC.sol\":14075:14238  function transfer(\r... */\n    tag_48:\n        /* \"contracts/Online/ERC20/WBTC.sol\":13303:13309  paused */\n      sload(0x3)\n        /* \"contracts/Online/ERC20/WBTC.sol\":14182:14186  bool */\n      0x0\n      swap1\n      exp(0x2, 0xa0)\n        /* \"contracts/Online/ERC20/WBTC.sol\":13303:13309  paused */\n      swap1\n      div\n      0xff\n      and\n        /* \"contracts/Online/ERC20/WBTC.sol\":13302:13309  !paused */\n      iszero\n        /* \"contracts/Online/ERC20/WBTC.sol\":13294:13310  require(!paused) */\n      tag_89\n      jumpi\n      0x0\n      dup1\n      revert\n    tag_89:\n        /* \"contracts/Online/ERC20/WBTC.sol\":14205:14232  super.transfer(_to, _value) */\n      tag_61\n        /* \"contracts/Online/ERC20/WBTC.sol\":14220:14223  _to */\n      dup4\n        /* \"contracts/Online/ERC20/WBTC.sol\":14225:14231  _value */\n      dup4\n        /* \"contracts/Online/ERC20/WBTC.sol\":14205:14219  super.transfer */\n      tag_92\n        /* \"contracts/Online/ERC20/WBTC.sol\":14205:14232  super.transfer(_to, _value) */\n      jump\t// in\n        /* \"contracts/Online/ERC20/WBTC.sol\":14625:14829  function increaseApproval(\r... */\n    tag_51:\n        /* \"contracts/Online/ERC20/WBTC.sol\":13303:13309  paused */\n      sload(0x3)\n        /* \"contracts/Online/ERC20/WBTC.sol\":14747:14759  bool success */\n      0x0\n      swap1\n      exp(0x2, 0xa0)\n        /* \"contracts/Online/ERC20/WBTC.sol\":13303:13309  paused */\n      swap1\n      div\n      0xff\n      and\n        /* \"contracts/Online/ERC20/WBTC.sol\":13302:13309  !paused */\n      iszero\n        /* \"contracts/Online/ERC20/WBTC.sol\":13294:13310  require(!paused) */\n      tag_94\n      jumpi\n      0x0\n      dup1\n      revert\n    tag_94:\n        /* \"contracts/Online/ERC20/WBTC.sol\":14778:14823  super.increaseApproval(_spender, _addedValue) */\n      tag_61\n        /* \"contracts/Online/ERC20/WBTC.sol\":14801:14809  _spender */\n      dup4\n        /* \"contracts/Online/ERC20/WBTC.sol\":14811:14822  _addedValue */\n      dup4\n        /* \"contracts/Online/ERC20/WBTC.sol\":14778:14800  super.increaseApproval */\n      tag_97\n        /* \"contracts/Online/ERC20/WBTC.sol\":14778:14823  super.increaseApproval(_spender, _addedValue) */\n      jump\t// in\n        /* \"contracts/Online/ERC20/WBTC.sol\":6275:6437  function allowance(\r... */\n    tag_54:\n      sub(exp(0x2, 0xa0), 0x1)\n        /* \"contracts/Online/ERC20/WBTC.sol\":6406:6421  allowed[_owner] */\n      swap2\n      dup3\n      and\n        /* \"contracts/Online/ERC20/WBTC.sol\":6380:6387  uint256 */\n      0x0\n        /* \"contracts/Online/ERC20/WBTC.sol\":6406:6421  allowed[_owner] */\n      swap1\n      dup2\n      mstore\n        /* \"contracts/Online/ERC20/WBTC.sol\":6406:6413  allowed */\n      0x2\n        /* \"contracts/Online/ERC20/WBTC.sol\":6406:6421  allowed[_owner] */\n      0x20\n      swap1\n      dup2\n      mstore\n      0x40\n      dup1\n      dup4\n      keccak256\n        /* \"contracts/Online/ERC20/WBTC.sol\":6406:6431  allowed[_owner][_spender] */\n      swap4\n      swap1\n      swap5\n      and\n      dup3\n      mstore\n      swap2\n      swap1\n      swap2\n      mstore\n      keccak256\n      sload\n      swap1\n        /* \"contracts/Online/ERC20/WBTC.sol\":6275:6437  function allowance(\r... */\n      jump\t// out\n        /* \"contracts/Online/ERC20/WBTC.sol\":10065:10170  function transferOwnership(address _newOwner) public onlyOwner {\r... */\n    tag_57:\n        /* \"contracts/Online/ERC20/WBTC.sol\":9491:9496  owner */\n      and(sub(exp(0x2, 0xa0), 0x1), sload(0x3))\n        /* \"contracts/Online/ERC20/WBTC.sol\":9477:9487  msg.sender */\n      caller\n        /* \"contracts/Online/ERC20/WBTC.sol\":9477:9496  msg.sender == owner */\n      eq\n        /* \"contracts/Online/ERC20/WBTC.sol\":9469:9497  require(msg.sender == owner) */\n      tag_100\n      jumpi\n      0x0\n      dup1\n      revert\n    tag_100:\n        /* \"contracts/Online/ERC20/WBTC.sol\":10135:10164  _transferOwnership(_newOwner) */\n      tag_102\n        /* \"contracts/Online/ERC20/WBTC.sol\":10154:10163  _newOwner */\n      dup2\n        /* \"contracts/Online/ERC20/WBTC.sol\":10135:10153  _transferOwnership */\n      tag_103\n        /* \"contracts/Online/ERC20/WBTC.sol\":10135:10164  _transferOwnership(_newOwner) */\n      jump\t// in\n    tag_102:\n        /* \"contracts/Online/ERC20/WBTC.sol\":10065:10170  function transferOwnership(address _newOwner) public onlyOwner {\r... */\n      pop\n      jump\t// out\n        /* \"contracts/Online/ERC20/WBTC.sol\":5756:5948  function approve(address _spender, uint256 _value) public returns (bool) {\r... */\n    tag_62:\n        /* \"contracts/Online/ERC20/WBTC.sol\":5844:5854  msg.sender */\n      caller\n        /* \"contracts/Online/ERC20/WBTC.sol\":5823:5827  bool */\n      0x0\n        /* \"contracts/Online/ERC20/WBTC.sol\":5836:5855  allowed[msg.sender] */\n      dup2\n      dup2\n      mstore\n        /* \"contracts/Online/ERC20/WBTC.sol\":5836:5843  allowed */\n      0x2\n        /* \"contracts/Online/ERC20/WBTC.sol\":5836:5855  allowed[msg.sender] */\n      0x20\n      swap1\n      dup2\n      mstore\n      0x40\n      dup1\n      dup4\n      keccak256\n      sub(exp(0x2, 0xa0), 0x1)\n        /* \"contracts/Online/ERC20/WBTC.sol\":5836:5865  allowed[msg.sender][_spender] */\n      dup8\n      and\n      dup1\n      dup6\n      mstore\n      swap1\n      dup4\n      mstore\n      dup2\n      dup5\n      keccak256\n        /* \"contracts/Online/ERC20/WBTC.sol\":5836:5874  allowed[msg.sender][_spender] = _value */\n      dup7\n      swap1\n      sstore\n        /* \"contracts/Online/ERC20/WBTC.sol\":5886:5924  Approval(msg.sender, _spender, _value) */\n      dup2\n      mload\n      dup7\n      dup2\n      mstore\n      swap2\n      mload\n        /* \"contracts/Online/ERC20/WBTC.sol\":5823:5827  bool */\n      swap4\n      swap5\n        /* \"contracts/Online/ERC20/WBTC.sol\":5836:5865  allowed[msg.sender][_spender] */\n      swap1\n      swap4\n        /* \"contracts/Online/ERC20/WBTC.sol\":5844:5854  msg.sender */\n      swap1\n      swap3\n        /* \"contracts/Online/ERC20/WBTC.sol\":5886:5924  Approval(msg.sender, _spender, _value) */\n      0x8c5be1e5ebec7d5bd14f71427d1e84f3dd0314c0f7b2291e5b200ac8c7c3b925\n      swap3\n      dup3\n      swap1\n      sub\n      add\n      swap1\n      log3\n      pop\n        /* \"contracts/Online/ERC20/WBTC.sol\":5938:5942  true */\n      0x1\n        /* \"contracts/Online/ERC20/WBTC.sol\":5756:5948  function approve(address _spender, uint256 _value) public returns (bool) {\r... */\n      swap3\n      swap2\n      pop\n      pop\n      jump\t// out\n        /* \"contracts/Online/ERC20/WBTC.sol\":4640:5127  function transferFrom(\r... */\n    tag_68:\n      sub(exp(0x2, 0xa0), 0x1)\n        /* \"contracts/Online/ERC20/WBTC.sol\":4786:4801  balances[_from] */\n      dup4\n      and\n        /* \"contracts/Online/ERC20/WBTC.sol\":4752:4756  bool */\n      0x0\n        /* \"contracts/Online/ERC20/WBTC.sol\":4786:4801  balances[_from] */\n      swap1\n      dup2\n      mstore\n      0x20\n      dup2\n      swap1\n      mstore\n      0x40\n      dup2\n      keccak256\n      sload\n        /* \"contracts/Online/ERC20/WBTC.sol\":4776:4801  _value <= balances[_from] */\n      dup3\n      gt\n      iszero\n        /* \"contracts/Online/ERC20/WBTC.sol\":4768:4802  require(_value <= balances[_from]) */\n      tag_106\n      jumpi\n      0x0\n      dup1\n      revert\n    tag_106:\n      sub(exp(0x2, 0xa0), 0x1)\n        /* \"contracts/Online/ERC20/WBTC.sol\":4827:4841  allowed[_from] */\n      dup5\n      and\n      0x0\n      swap1\n      dup2\n      mstore\n        /* \"contracts/Online/ERC20/WBTC.sol\":4827:4834  allowed */\n      0x2\n        /* \"contracts/Online/ERC20/WBTC.sol\":4827:4841  allowed[_from] */\n      0x20\n      swap1\n      dup2\n      mstore\n      0x40\n      dup1\n      dup4\n      keccak256\n        /* \"contracts/Online/ERC20/WBTC.sol\":4842:4852  msg.sender */\n      caller\n        /* \"contracts/Online/ERC20/WBTC.sol\":4827:4853  allowed[_from][msg.sender] */\n      dup5\n      mstore\n      swap1\n      swap2\n      mstore\n      swap1\n      keccak256\n      sload\n        /* \"contracts/Online/ERC20/WBTC.sol\":4817:4853  _value <= allowed[_from][msg.sender] */\n      dup3\n      gt\n      iszero\n        /* \"contracts/Online/ERC20/WBTC.sol\":4809:4854  require(_value <= allowed[_from][msg.sender]) */\n      tag_107\n      jumpi\n      0x0\n      dup1\n      revert\n    tag_107:\n      sub(exp(0x2, 0xa0), 0x1)\n        /* \"contracts/Online/ERC20/WBTC.sol\":4869:4886  _to != address(0) */\n      dup4\n      and\n      iszero\n      iszero\n        /* \"contracts/Online/ERC20/WBTC.sol\":4861:4887  require(_to != address(0)) */\n      tag_108\n      jumpi\n      0x0\n      dup1\n      revert\n    tag_108:\n      sub(exp(0x2, 0xa0), 0x1)\n        /* \"contracts/Online/ERC20/WBTC.sol\":4914:4929  balances[_from] */\n      dup5\n      and\n        /* \"contracts/Online/ERC20/WBTC.sol\":4914:4922  balances */\n      0x0\n        /* \"contracts/Online/ERC20/WBTC.sol\":4914:4929  balances[_from] */\n      swap1\n      dup2\n      mstore\n      0x20\n      dup2\n      swap1\n      mstore\n      0x40\n      swap1\n      keccak256\n      sload\n        /* \"contracts/Online/ERC20/WBTC.sol\":4914:4941  balances[_from].sub(_value) */\n      tag_109\n      swap1\n        /* \"contracts/Online/ERC20/WBTC.sol\":4934:4940  _value */\n      dup4\n        /* \"contracts/Online/ERC20/WBTC.sol\":4914:4941  balances[_from].sub(_value) */\n      0xffffffff\n        /* \"contracts/Online/ERC20/WBTC.sol\":4914:4933  balances[_from].sub */\n      tag_110\n        /* \"contracts/Online/ERC20/WBTC.sol\":4914:4941  balances[_from].sub(_value) */\n      and\n      jump\t// in\n    tag_109:\n      sub(exp(0x2, 0xa0), 0x1)\n        /* \"contracts/Online/ERC20/WBTC.sol\":4896:4911  balances[_from] */\n      dup1\n      dup7\n      and\n        /* \"contracts/Online/ERC20/WBTC.sol\":4896:4904  balances */\n      0x0\n        /* \"contracts/Online/ERC20/WBTC.sol\":4896:4911  balances[_from] */\n      swap1\n      dup2\n      mstore\n      0x20\n      dup2\n      swap1\n      mstore\n      0x40\n      dup1\n      dup3\n      keccak256\n        /* \"contracts/Online/ERC20/WBTC.sol\":4896:4941  balances[_from] = balances[_from].sub(_value) */\n      swap4\n      swap1\n      swap4\n      sstore\n        /* \"contracts/Online/ERC20/WBTC.sol\":4964:4977  balances[_to] */\n      swap1\n      dup6\n      and\n      dup2\n      mstore\n      keccak256\n      sload\n        /* \"contracts/Online/ERC20/WBTC.sol\":4964:4989  balances[_to].add(_value) */\n      tag_111\n      swap1\n        /* \"contracts/Online/ERC20/WBTC.sol\":4982:4988  _value */\n      dup4\n        /* \"contracts/Online/ERC20/WBTC.sol\":4964:4989  balances[_to].add(_value) */\n      0xffffffff\n        /* \"contracts/Online/ERC20/WBTC.sol\":4964:4981  balances[_to].add */\n      tag_112\n        /* \"contracts/Online/ERC20/WBTC.sol\":4964:4989  balances[_to].add(_value) */\n      and\n      jump\t// in\n    tag_111:\n      sub(exp(0x2, 0xa0), 0x1)\n        /* \"contracts/Online/ERC20/WBTC.sol\":4948:4961  balances[_to] */\n      dup1\n      dup6\n      and\n        /* \"contracts/Online/ERC20/WBTC.sol\":4948:4956  balances */\n      0x0\n        /* \"contracts/Online/ERC20/WBTC.sol\":4948:4961  balances[_to] */\n      swap1\n      dup2\n      mstore\n      0x20\n      dup2\n      dup2\n      mstore\n      0x40\n      dup1\n      dup4\n      keccak256\n        /* \"contracts/Online/ERC20/WBTC.sol\":4948:4989  balances[_to] = balances[_to].add(_value) */\n      swap5\n      swap1\n      swap5\n      sstore\n        /* \"contracts/Online/ERC20/WBTC.sol\":5025:5039  allowed[_from] */\n      swap2\n      dup8\n      and\n      dup2\n      mstore\n        /* \"contracts/Online/ERC20/WBTC.sol\":5025:5032  allowed */\n      0x2\n        /* \"contracts/Online/ERC20/WBTC.sol\":5025:5039  allowed[_from] */\n      dup3\n      mstore\n      dup3\n      dup2\n      keccak256\n        /* \"contracts/Online/ERC20/WBTC.sol\":5040:5050  msg.sender */\n      caller\n        /* \"contracts/Online/ERC20/WBTC.sol\":5025:5051  allowed[_from][msg.sender] */\n      dup3\n      mstore\n      swap1\n      swap2\n      mstore\n      keccak256\n      sload\n        /* \"contracts/Online/ERC20/WBTC.sol\":5025:5063  allowed[_from][msg.sender].sub(_value) */\n      tag_113\n      swap1\n        /* \"contracts/Online/ERC20/WBTC.sol\":5056:5062  _value */\n      dup4\n        /* \"contracts/Online/ERC20/WBTC.sol\":5025:5063  allowed[_from][msg.sender].sub(_value) */\n      0xffffffff\n        /* \"contracts/Online/ERC20/WBTC.sol\":5025:5055  allowed[_from][msg.sender].sub */\n      tag_110\n        /* \"contracts/Online/ERC20/WBTC.sol\":5025:5063  allowed[_from][msg.sender].sub(_value) */\n      and\n      jump\t// in\n    tag_113:\n      sub(exp(0x2, 0xa0), 0x1)\n        /* \"contracts/Online/ERC20/WBTC.sol\":4996:5010  allowed[_from] */\n      dup1\n      dup7\n      and\n      0x0\n      dup2\n      dup2\n      mstore\n        /* \"contracts/Online/ERC20/WBTC.sol\":4996:5003  allowed */\n      0x2\n        /* \"contracts/Online/ERC20/WBTC.sol\":4996:5010  allowed[_from] */\n      0x20\n      swap1\n      dup2\n      mstore\n      0x40\n      dup1\n      dup4\n      keccak256\n        /* \"contracts/Online/ERC20/WBTC.sol\":5011:5021  msg.sender */\n      caller\n        /* \"contracts/Online/ERC20/WBTC.sol\":4996:5022  allowed[_from][msg.sender] */\n      dup5\n      mstore\n      dup3\n      mstore\n      swap2\n      dup3\n      swap1\n      keccak256\n        /* \"contracts/Online/ERC20/WBTC.sol\":4996:5063  allowed[_from][msg.sender] = allowed[_from][msg.sender].sub(_value) */\n      swap5\n      swap1\n      swap5\n      sstore\n        /* \"contracts/Online/ERC20/WBTC.sol\":5075:5103  Transfer(_from, _to, _value) */\n      dup1\n      mload\n      dup7\n      dup2\n      mstore\n      swap1\n      mload\n      swap3\n      dup8\n      and\n      swap4\n        /* \"contracts/Online/ERC20/WBTC.sol\":4996:5010  allowed[_from] */\n      swap2\n      swap3\n        /* \"contracts/Online/ERC20/WBTC.sol\":5075:5103  Transfer(_from, _to, _value) */\n      0xddf252ad1be2c89b69c2b068fc378daa952ba7f163c4a11628f55a4df523b3ef\n      swap3\n      swap2\n      dup2\n      swap1\n      sub\n      swap1\n      swap2\n      add\n      swap1\n      log3\n      pop\n        /* \"contracts/Online/ERC20/WBTC.sol\":5117:5121  true */\n      0x1\n        /* \"contracts/Online/ERC20/WBTC.sol\":4640:5127  function transferFrom(\r... */\n      swap4\n      swap3\n      pop\n      pop\n      pop\n      jump\t// out\n        /* \"contracts/Online/ERC20/WBTC.sol\":7675:8122  function decreaseApproval(\r... */\n    tag_78:\n        /* \"contracts/Online/ERC20/WBTC.sol\":7829:7839  msg.sender */\n      caller\n        /* \"contracts/Online/ERC20/WBTC.sol\":7786:7790  bool */\n      0x0\n        /* \"contracts/Online/ERC20/WBTC.sol\":7821:7840  allowed[msg.sender] */\n      swap1\n      dup2\n      mstore\n        /* \"contracts/Online/ERC20/WBTC.sol\":7821:7828  allowed */\n      0x2\n        /* \"contracts/Online/ERC20/WBTC.sol\":7821:7840  allowed[msg.sender] */\n      0x20\n      swap1\n      dup2\n      mstore\n      0x40\n      dup1\n      dup4\n      keccak256\n      sub(exp(0x2, 0xa0), 0x1)\n        /* \"contracts/Online/ERC20/WBTC.sol\":7821:7850  allowed[msg.sender][_spender] */\n      dup7\n      and\n      dup5\n      mstore\n      swap1\n      swap2\n      mstore\n      dup2\n      keccak256\n      sload\n        /* \"contracts/Online/ERC20/WBTC.sol\":7861:7889  _subtractedValue >= oldValue */\n      dup1\n      dup4\n      lt\n        /* \"contracts/Online/ERC20/WBTC.sol\":7857:8026  if (_subtractedValue >= oldValue) {\r... */\n      tag_115\n      jumpi\n        /* \"contracts/Online/ERC20/WBTC.sol\":7908:7918  msg.sender */\n      caller\n        /* \"contracts/Online/ERC20/WBTC.sol\":7932:7933  0 */\n      0x0\n        /* \"contracts/Online/ERC20/WBTC.sol\":7900:7919  allowed[msg.sender] */\n      swap1\n      dup2\n      mstore\n        /* \"contracts/Online/ERC20/WBTC.sol\":7900:7907  allowed */\n      0x2\n        /* \"contracts/Online/ERC20/WBTC.sol\":7900:7919  allowed[msg.sender] */\n      0x20\n      swap1\n      dup2\n      mstore\n      0x40\n      dup1\n      dup4\n      keccak256\n      sub(exp(0x2, 0xa0), 0x1)\n        /* \"contracts/Online/ERC20/WBTC.sol\":7900:7929  allowed[msg.sender][_spender] */\n      dup9\n      and\n      dup5\n      mstore\n      swap1\n      swap2\n      mstore\n      dup2\n      keccak256\n        /* \"contracts/Online/ERC20/WBTC.sol\":7900:7933  allowed[msg.sender][_spender] = 0 */\n      sstore\n        /* \"contracts/Online/ERC20/WBTC.sol\":7857:8026  if (_subtractedValue >= oldValue) {\r... */\n      jump(tag_116)\n    tag_115:\n        /* \"contracts/Online/ERC20/WBTC.sol\":7988:8018  oldValue.sub(_subtractedValue) */\n      tag_117\n        /* \"contracts/Online/ERC20/WBTC.sol\":7988:7996  oldValue */\n      dup2\n        /* \"contracts/Online/ERC20/WBTC.sol\":8001:8017  _subtractedValue */\n      dup5\n        /* \"contracts/Online/ERC20/WBTC.sol\":7988:8018  oldValue.sub(_subtractedValue) */\n      0xffffffff\n        /* \"contracts/Online/ERC20/WBTC.sol\":7988:8000  oldValue.sub */\n      tag_110\n        /* \"contracts/Online/ERC20/WBTC.sol\":7988:8018  oldValue.sub(_subtractedValue) */\n      and\n      jump\t// in\n    tag_117:\n        /* \"contracts/Online/ERC20/WBTC.sol\":7964:7974  msg.sender */\n      caller\n        /* \"contracts/Online/ERC20/WBTC.sol\":7956:7975  allowed[msg.sender] */\n      0x0\n      swap1\n      dup2\n      mstore\n        /* \"contracts/Online/ERC20/WBTC.sol\":7956:7963  allowed */\n      0x2\n        /* \"contracts/Online/ERC20/WBTC.sol\":7956:7975  allowed[msg.sender] */\n      0x20\n      swap1\n      dup2\n      mstore\n      0x40\n      dup1\n      dup4\n      keccak256\n      sub(exp(0x2, 0xa0), 0x1)\n        /* \"contracts/Online/ERC20/WBTC.sol\":7956:7985  allowed[msg.sender][_spender] */\n      dup10\n      and\n      dup5\n      mstore\n      swap1\n      swap2\n      mstore\n      swap1\n      keccak256\n        /* \"contracts/Online/ERC20/WBTC.sol\":7956:8018  allowed[msg.sender][_spender] = oldValue.sub(_subtractedValue) */\n      sstore\n        /* \"contracts/Online/ERC20/WBTC.sol\":7857:8026  if (_subtractedValue >= oldValue) {\r... */\n    tag_116:\n        /* \"contracts/Online/ERC20/WBTC.sol\":8046:8056  msg.sender */\n      caller\n        /* \"contracts/Online/ERC20/WBTC.sol\":8068:8087  allowed[msg.sender] */\n      0x0\n      dup2\n      dup2\n      mstore\n        /* \"contracts/Online/ERC20/WBTC.sol\":8068:8075  allowed */\n      0x2\n        /* \"contracts/Online/ERC20/WBTC.sol\":8068:8087  allowed[msg.sender] */\n      0x20\n      swap1\n      dup2\n      mstore\n      0x40\n      dup1\n      dup4\n      keccak256\n      sub(exp(0x2, 0xa0), 0x1)\n        /* \"contracts/Online/ERC20/WBTC.sol\":8037:8098  Approval(msg.sender, _spender, allowed[msg.sender][_spender]) */\n      dup10\n      and\n        /* \"contracts/Online/ERC20/WBTC.sol\":8068:8097  allowed[msg.sender][_spender] */\n      dup1\n      dup6\n      mstore\n      swap1\n      dup4\n      mstore\n      swap3\n      dup2\n      swap1\n      keccak256\n      sload\n        /* \"contracts/Online/ERC20/WBTC.sol\":8037:8098  Approval(msg.sender, _spender, allowed[msg.sender][_spender]) */\n      dup2\n      mload\n      swap1\n      dup2\n      mstore\n      swap1\n      mload\n      swap3\n      swap4\n        /* \"contracts/Online/ERC20/WBTC.sol\":8046:8056  msg.sender */\n      swap3\n        /* \"contracts/Online/ERC20/WBTC.sol\":8037:8098  Approval(msg.sender, _spender, allowed[msg.sender][_spender]) */\n      0x8c5be1e5ebec7d5bd14f71427d1e84f3dd0314c0f7b2291e5b200ac8c7c3b925\n      swap3\n      swap2\n      dup2\n      swap1\n      sub\n      swap1\n      swap2\n      add\n      swap1\n      log3\n      pop\n        /* \"contracts/Online/ERC20/WBTC.sol\":8112:8116  true */\n      0x1\n      swap4\n        /* \"contracts/Online/ERC20/WBTC.sol\":7675:8122  function decreaseApproval(\r... */\n      swap3\n      pop\n      pop\n      pop\n      jump\t// out\n        /* \"contracts/Online/ERC20/WBTC.sol\":2683:3012  function transfer(address _to, uint256 _value) public returns (bool) {\r... */\n    tag_92:\n        /* \"contracts/Online/ERC20/WBTC.sol\":2786:2796  msg.sender */\n      caller\n        /* \"contracts/Online/ERC20/WBTC.sol\":2746:2750  bool */\n      0x0\n        /* \"contracts/Online/ERC20/WBTC.sol\":2777:2797  balances[msg.sender] */\n      swap1\n      dup2\n      mstore\n      0x20\n      dup2\n      swap1\n      mstore\n      0x40\n      dup2\n      keccak256\n      sload\n        /* \"contracts/Online/ERC20/WBTC.sol\":2767:2797  _value <= balances[msg.sender] */\n      dup3\n      gt\n      iszero\n        /* \"contracts/Online/ERC20/WBTC.sol\":2759:2798  require(_value <= balances[msg.sender]) */\n      tag_119\n      jumpi\n      0x0\n      dup1\n      revert\n    tag_119:\n      sub(exp(0x2, 0xa0), 0x1)\n        /* \"contracts/Online/ERC20/WBTC.sol\":2813:2830  _to != address(0) */\n      dup4\n      and\n      iszero\n      iszero\n        /* \"contracts/Online/ERC20/WBTC.sol\":2805:2831  require(_to != address(0)) */\n      tag_120\n      jumpi\n      0x0\n      dup1\n      revert\n    tag_120:\n        /* \"contracts/Online/ERC20/WBTC.sol\":2872:2882  msg.sender */\n      caller\n        /* \"contracts/Online/ERC20/WBTC.sol\":2863:2871  balances */\n      0x0\n        /* \"contracts/Online/ERC20/WBTC.sol\":2863:2883  balances[msg.sender] */\n      swap1\n      dup2\n      mstore\n      0x20\n      dup2\n      swap1\n      mstore\n      0x40\n      swap1\n      keccak256\n      sload\n        /* \"contracts/Online/ERC20/WBTC.sol\":2863:2895  balances[msg.sender].sub(_value) */\n      tag_121\n      swap1\n        /* \"contracts/Online/ERC20/WBTC.sol\":2888:2894  _value */\n      dup4\n        /* \"contracts/Online/ERC20/WBTC.sol\":2863:2895  balances[msg.sender].sub(_value) */\n      0xffffffff\n        /* \"contracts/Online/ERC20/WBTC.sol\":2863:2887  balances[msg.sender].sub */\n      tag_110\n        /* \"contracts/Online/ERC20/WBTC.sol\":2863:2895  balances[msg.sender].sub(_value) */\n      and\n      jump\t// in\n    tag_121:\n        /* \"contracts/Online/ERC20/WBTC.sol\":2849:2859  msg.sender */\n      caller\n        /* \"contracts/Online/ERC20/WBTC.sol\":2840:2848  balances */\n      0x0\n        /* \"contracts/Online/ERC20/WBTC.sol\":2840:2860  balances[msg.sender] */\n      swap1\n      dup2\n      mstore\n      0x20\n      dup2\n      swap1\n      mstore\n      0x40\n      dup1\n      dup3\n      keccak256\n        /* \"contracts/Online/ERC20/WBTC.sol\":2840:2895  balances[msg.sender] = balances[msg.sender].sub(_value) */\n      swap3\n      swap1\n      swap3\n      sstore\n      sub(exp(0x2, 0xa0), 0x1)\n        /* \"contracts/Online/ERC20/WBTC.sol\":2918:2931  balances[_to] */\n      dup6\n      and\n      dup2\n      mstore\n      keccak256\n      sload\n        /* \"contracts/Online/ERC20/WBTC.sol\":2918:2943  balances[_to].add(_value) */\n      tag_122\n      swap1\n        /* \"contracts/Online/ERC20/WBTC.sol\":2936:2942  _value */\n      dup4\n        /* \"contracts/Online/ERC20/WBTC.sol\":2918:2943  balances[_to].add(_value) */\n      0xffffffff\n        /* \"contracts/Online/ERC20/WBTC.sol\":2918:2935  balances[_to].add */\n      tag_112\n        /* \"contracts/Online/ERC20/WBTC.sol\":2918:2943  balances[_to].add(_value) */\n      and\n      jump\t// in\n    tag_122:\n      sub(exp(0x2, 0xa0), 0x1)\n        /* \"contracts/Online/ERC20/WBTC.sol\":2902:2915  balances[_to] */\n      dup5\n      and\n        /* \"contracts/Online/ERC20/WBTC.sol\":2902:2910  balances */\n      0x0\n        /* \"contracts/Online/ERC20/WBTC.sol\":2902:2915  balances[_to] */\n      dup2\n      dup2\n      mstore\n      0x20\n      dup2\n      dup2\n      mstore\n      0x40\n      swap2\n      dup3\n      swap1\n      keccak256\n        /* \"contracts/Online/ERC20/WBTC.sol\":2902:2943  balances[_to] = balances[_to].add(_value) */\n      swap4\n      swap1\n      swap4\n      sstore\n        /* \"contracts/Online/ERC20/WBTC.sol\":2955:2988  Transfer(msg.sender, _to, _value) */\n      dup1\n      mload\n      dup6\n      dup2\n      mstore\n      swap1\n      mload\n        /* \"contracts/Online/ERC20/WBTC.sol\":2902:2915  balances[_to] */\n      swap2\n      swap3\n        /* \"contracts/Online/ERC20/WBTC.sol\":2964:2974  msg.sender */\n      caller\n      swap3\n        /* \"contracts/Online/ERC20/WBTC.sol\":2955:2988  Transfer(msg.sender, _to, _value) */\n      0xddf252ad1be2c89b69c2b068fc378daa952ba7f163c4a11628f55a4df523b3ef\n      swap3\n      dup2\n      swap1\n      sub\n      swap1\n      swap2\n      add\n      swap1\n      log3\n      pop\n        /* \"contracts/Online/ERC20/WBTC.sol\":3002:3006  true */\n      0x1\n        /* \"contracts/Online/ERC20/WBTC.sol\":2683:3012  function transfer(address _to, uint256 _value) public returns (bool) {\r... */\n      swap3\n      swap2\n      pop\n      pop\n      jump\t// out\n        /* \"contracts/Online/ERC20/WBTC.sol\":6900:7207  function increaseApproval(\r... */\n    tag_97:\n        /* \"contracts/Online/ERC20/WBTC.sol\":7071:7081  msg.sender */\n      caller\n        /* \"contracts/Online/ERC20/WBTC.sol\":7006:7010  bool */\n      0x0\n        /* \"contracts/Online/ERC20/WBTC.sol\":7063:7082  allowed[msg.sender] */\n      swap1\n      dup2\n      mstore\n        /* \"contracts/Online/ERC20/WBTC.sol\":7063:7070  allowed */\n      0x2\n        /* \"contracts/Online/ERC20/WBTC.sol\":7063:7082  allowed[msg.sender] */\n      0x20\n      swap1\n      dup2\n      mstore\n      0x40\n      dup1\n      dup4\n      keccak256\n      sub(exp(0x2, 0xa0), 0x1)\n        /* \"contracts/Online/ERC20/WBTC.sol\":7063:7092  allowed[msg.sender][_spender] */\n      dup7\n      and\n      dup5\n      mstore\n      swap1\n      swap2\n      mstore\n      dup2\n      keccak256\n      sload\n        /* \"contracts/Online/ERC20/WBTC.sol\":7063:7109  allowed[msg.sender][_spender].add(_addedValue) */\n      tag_124\n      swap1\n        /* \"contracts/Online/ERC20/WBTC.sol\":7097:7108  _addedValue */\n      dup4\n        /* \"contracts/Online/ERC20/WBTC.sol\":7063:7109  allowed[msg.sender][_spender].add(_addedValue) */\n      0xffffffff\n        /* \"contracts/Online/ERC20/WBTC.sol\":7063:7096  allowed[msg.sender][_spender].add */\n      tag_112\n        /* \"contracts/Online/ERC20/WBTC.sol\":7063:7109  allowed[msg.sender][_spender].add(_addedValue) */\n      and\n      jump\t// in\n    tag_124:\n        /* \"contracts/Online/ERC20/WBTC.sol\":7030:7040  msg.sender */\n      caller\n        /* \"contracts/Online/ERC20/WBTC.sol\":7022:7041  allowed[msg.sender] */\n      0x0\n      dup2\n      dup2\n      mstore\n        /* \"contracts/Online/ERC20/WBTC.sol\":7022:7029  allowed */\n      0x2\n        /* \"contracts/Online/ERC20/WBTC.sol\":7022:7041  allowed[msg.sender] */\n      0x20\n      swap1\n      dup2\n      mstore\n      0x40\n      dup1\n      dup4\n      keccak256\n      sub(exp(0x2, 0xa0), 0x1)\n        /* \"contracts/Online/ERC20/WBTC.sol\":7022:7051  allowed[msg.sender][_spender] */\n      dup10\n      and\n      dup1\n      dup6\n      mstore\n      swap1\n      dup4\n      mstore\n      swap3\n      dup2\n      swap1\n      keccak256\n        /* \"contracts/Online/ERC20/WBTC.sol\":7022:7110  allowed[msg.sender][_spender] = (\r... */\n      dup6\n      swap1\n      sstore\n        /* \"contracts/Online/ERC20/WBTC.sol\":7122:7183  Approval(msg.sender, _spender, allowed[msg.sender][_spender]) */\n      dup1\n      mload\n      swap5\n      dup6\n      mstore\n      mload\n        /* \"contracts/Online/ERC20/WBTC.sol\":7022:7051  allowed[msg.sender][_spender] */\n      swap2\n      swap4\n        /* \"contracts/Online/ERC20/WBTC.sol\":7122:7183  Approval(msg.sender, _spender, allowed[msg.sender][_spender]) */\n      0x8c5be1e5ebec7d5bd14f71427d1e84f3dd0314c0f7b2291e5b200ac8c7c3b925\n      swap3\n      swap1\n      dup2\n      swap1\n      sub\n      swap1\n      swap2\n      add\n      swap1\n      log3\n      pop\n        /* \"contracts/Online/ERC20/WBTC.sol\":7197:7201  true */\n      0x1\n        /* \"contracts/Online/ERC20/WBTC.sol\":6900:7207  function increaseApproval(\r... */\n      swap3\n      swap2\n      pop\n      pop\n      jump\t// out\n        /* \"contracts/Online/ERC20/WBTC.sol\":10311:10486  function _transferOwnership(address _newOwner) internal {\r... */\n    tag_103:\n      sub(exp(0x2, 0xa0), 0x1)\n        /* \"contracts/Online/ERC20/WBTC.sol\":10382:10405  _newOwner != address(0) */\n      dup2\n      and\n      iszero\n      iszero\n        /* \"contracts/Online/ERC20/WBTC.sol\":10374:10406  require(_newOwner != address(0)) */\n      tag_126\n      jumpi\n      0x0\n      dup1\n      revert\n    tag_126:\n        /* \"contracts/Online/ERC20/WBTC.sol\":10439:10444  owner */\n      sload(0x3)\n        /* \"contracts/Online/ERC20/WBTC.sol\":10418:10456  OwnershipTransferred(owner, _newOwner) */\n      mload(0x40)\n      sub(exp(0x2, 0xa0), 0x1)\n      dup1\n      dup5\n      and\n      swap3\n        /* \"contracts/Online/ERC20/WBTC.sol\":10439:10444  owner */\n      and\n      swap1\n        /* \"contracts/Online/ERC20/WBTC.sol\":10418:10456  OwnershipTransferred(owner, _newOwner) */\n      0x8be0079c531659141344cd1fd0a4f28419497f9722a3daafe3b4186f6b6457e0\n      swap1\n        /* \"contracts/Online/ERC20/WBTC.sol\":10439:10444  owner */\n      0x0\n      swap1\n        /* \"contracts/Online/ERC20/WBTC.sol\":10418:10456  OwnershipTransferred(owner, _newOwner) */\n      log3\n        /* \"contracts/Online/ERC20/WBTC.sol\":10463:10468  owner */\n      0x3\n        /* \"contracts/Online/ERC20/WBTC.sol\":10463:10480  owner = _newOwner */\n      dup1\n      sload\n      not(0xffffffffffffffffffffffffffffffffffffffff)\n      and\n      sub(exp(0x2, 0xa0), 0x1)\n      swap3\n      swap1\n      swap3\n      and\n      swap2\n      swap1\n      swap2\n      or\n      swap1\n      sstore\n        /* \"contracts/Online/ERC20/WBTC.sol\":10311:10486  function _transferOwnership(address _newOwner) internal {\r... */\n      jump\t// out\n        /* \"contracts/Online/ERC20/WBTC.sol\":1728:1847  function sub(uint256 _a, uint256 _b) internal pure returns (uint256) {\r... */\n    tag_110:\n        /* \"contracts/Online/ERC20/WBTC.sol\":1788:1795  uint256 */\n      0x0\n        /* \"contracts/Online/ERC20/WBTC.sol\":1811:1819  _b <= _a */\n      dup3\n      dup3\n      gt\n      iszero\n        /* \"contracts/Online/ERC20/WBTC.sol\":1804:1820  assert(_b <= _a) */\n      tag_128\n      jumpi\n      invalid\n    tag_128:\n      pop\n        /* \"contracts/Online/ERC20/WBTC.sol\":1834:1841  _a - _b */\n      swap1\n      sub\n      swap1\n        /* \"contracts/Online/ERC20/WBTC.sol\":1728:1847  function sub(uint256 _a, uint256 _b) internal pure returns (uint256) {\r... */\n      jump\t// out\n        /* \"contracts/Online/ERC20/WBTC.sol\":1914:2046  function add(uint256 _a, uint256 _b) internal pure returns (uint256 c) {\r... */\n    tag_112:\n        /* \"contracts/Online/ERC20/WBTC.sol\":1996:2003  _a + _b */\n      dup2\n      dup2\n      add\n        /* \"contracts/Online/ERC20/WBTC.sol\":2017:2024  c >= _a */\n      dup3\n      dup2\n      lt\n      iszero\n        /* \"contracts/Online/ERC20/WBTC.sol\":2010:2025  assert(c >= _a) */\n      tag_130\n      jumpi\n      invalid\n    tag_130:\n        /* \"contracts/Online/ERC20/WBTC.sol\":1914:2046  function add(uint256 _a, uint256 _b) internal pure returns (uint256 c) {\r... */\n      swap3\n      swap2\n      pop\n      pop\n      jump\t// out\n\n    auxdata: 0xa165627a7a72305820343b351d2ea3351d28b8f3086d0dd36f3ecd40fb9340da0615ec59e6720a67350029\n}\n",
				"bytecode": {
					"linkReferences": {},
					"object": "608060405260038054600160a860020a03191633179055610a7f806100256000396000f3006080604052600436106100cf5763ffffffff7c0100000000000000000000000000000000000000000000000000000000600035041663095ea7b381146100d457806318160ddd1461010c57806323b872dd146101335780633f4ba83a1461015d5780635c975abb14610174578063661884631461018957806370a08231146101ad578063715018a6146101ce5780638456cb59146101e35780638da5cb5b146101f8578063a9059cbb14610229578063d73dd6231461024d578063dd62ed3e14610271578063f2fde38b14610298575b600080fd5b3480156100e057600080fd5b506100f8600160a060020a03600435166024356102b9565b604080519115158252519081900360200190f35b34801561011857600080fd5b506101216102e4565b60408051918252519081900360200190f35b34801561013f57600080fd5b506100f8600160a060020a03600435811690602435166044356102ea565b34801561016957600080fd5b50610172610317565b005b34801561018057600080fd5b506100f861038f565b34801561019557600080fd5b506100f8600160a060020a036004351660243561039f565b3480156101b957600080fd5b50610121600160a060020a03600435166103c3565b3480156101da57600080fd5b506101726103de565b3480156101ef57600080fd5b5061017261044c565b34801561020457600080fd5b5061020d6104c9565b60408051600160a060020a039092168252519081900360200190f35b34801561023557600080fd5b506100f8600160a060020a03600435166024356104d8565b34801561025957600080fd5b506100f8600160a060020a03600435166024356104fc565b34801561027d57600080fd5b50610121600160a060020a0360043581169060243516610520565b3480156102a457600080fd5b50610172600160a060020a036004351661054b565b60035460009060a060020a900460ff16156102d357600080fd5b6102dd838361056e565b9392505050565b60015490565b60035460009060a060020a900460ff161561030457600080fd5b61030f8484846105d4565b949350505050565b600354600160a060020a0316331461032e57600080fd5b60035460a060020a900460ff16151561034657600080fd5b6003805474ff0000000000000000000000000000000000000000191690556040517f7805862f689e2f13df9f062ff482ad3ad112aca9e0847911ed832e158c525b3390600090a1565b60035460a060020a900460ff1681565b60035460009060a060020a900460ff16156103b957600080fd5b6102dd8383610749565b600160a060020a031660009081526020819052604090205490565b600354600160a060020a031633146103f557600080fd5b600354604051600160a060020a03909116907ff8df31144d9c2f0f6b59d69b8b98abd5459d07f2742c4df920b25aae33c6482090600090a26003805473ffffffffffffffffffffffffffffffffffffffff19169055565b600354600160a060020a0316331461046357600080fd5b60035460a060020a900460ff161561047a57600080fd5b6003805474ff0000000000000000000000000000000000000000191660a060020a1790556040517f6985a02210a168e66602d3235cb6db0e70f92b3ba4d376a33c0f3d9434bff62590600090a1565b600354600160a060020a031681565b60035460009060a060020a900460ff16156104f257600080fd5b6102dd8383610838565b60035460009060a060020a900460ff161561051657600080fd5b6102dd8383610917565b600160a060020a03918216600090815260026020908152604080832093909416825291909152205490565b600354600160a060020a0316331461056257600080fd5b61056b816109b0565b50565b336000818152600260209081526040808320600160a060020a038716808552908352818420869055815186815291519394909390927f8c5be1e5ebec7d5bd14f71427d1e84f3dd0314c0f7b2291e5b200ac8c7c3b925928290030190a350600192915050565b600160a060020a0383166000908152602081905260408120548211156105f957600080fd5b600160a060020a038416600090815260026020908152604080832033845290915290205482111561062957600080fd5b600160a060020a038316151561063e57600080fd5b600160a060020a038416600090815260208190526040902054610667908363ffffffff610a2e16565b600160a060020a03808616600090815260208190526040808220939093559085168152205461069c908363ffffffff610a4016565b600160a060020a038085166000908152602081815260408083209490945591871681526002825282812033825290915220546106de908363ffffffff610a2e16565b600160a060020a03808616600081815260026020908152604080832033845282529182902094909455805186815290519287169391927fddf252ad1be2c89b69c2b068fc378daa952ba7f163c4a11628f55a4df523b3ef929181900390910190a35060019392505050565b336000908152600260209081526040808320600160a060020a038616845290915281205480831061079d57336000908152600260209081526040808320600160a060020a03881684529091528120556107d2565b6107ad818463ffffffff610a2e16565b336000908152600260209081526040808320600160a060020a03891684529091529020555b336000818152600260209081526040808320600160a060020a0389168085529083529281902054815190815290519293927f8c5be1e5ebec7d5bd14f71427d1e84f3dd0314c0f7b2291e5b200ac8c7c3b925929181900390910190a35060019392505050565b3360009081526020819052604081205482111561085457600080fd5b600160a060020a038316151561086957600080fd5b33600090815260208190526040902054610889908363ffffffff610a2e16565b3360009081526020819052604080822092909255600160a060020a038516815220546108bb908363ffffffff610a4016565b600160a060020a038416600081815260208181526040918290209390935580518581529051919233927fddf252ad1be2c89b69c2b068fc378daa952ba7f163c4a11628f55a4df523b3ef9281900390910190a350600192915050565b336000908152600260209081526040808320600160a060020a038616845290915281205461094b908363ffffffff610a4016565b336000818152600260209081526040808320600160a060020a0389168085529083529281902085905580519485525191937f8c5be1e5ebec7d5bd14f71427d1e84f3dd0314c0f7b2291e5b200ac8c7c3b925929081900390910190a350600192915050565b600160a060020a03811615156109c557600080fd5b600354604051600160a060020a038084169216907f8be0079c531659141344cd1fd0a4f28419497f9722a3daafe3b4186f6b6457e090600090a36003805473ffffffffffffffffffffffffffffffffffffffff1916600160a060020a0392909216919091179055565b600082821115610a3a57fe5b50900390565b81810182811015610a4d57fe5b929150505600a165627a7a72305820343b351d2ea3351d28b8f3086d0dd36f3ecd40fb9340da0615ec59e6720a67350029",
					"opcodes": "PUSH1 0x80 PUSH1 0x40 MSTORE PUSH1 0x3 DUP1 SLOAD PUSH1 0x1 PUSH1 0xA8 PUSH1 0x2 EXP SUB NOT AND CALLER OR SWAP1 SSTORE PUSH2 0xA7F DUP1 PUSH2 0x25 PUSH1 0x0 CODECOPY PUSH1 0x0 RETURN STOP PUSH1 0x80 PUSH1 0x40 MSTORE PUSH1 0x4 CALLDATASIZE LT PUSH2 0xCF JUMPI PUSH4 0xFFFFFFFF PUSH29 0x100000000000000000000000000000000000000000000000000000000 PUSH1 0x0 CALLDATALOAD DIV AND PUSH4 0x95EA7B3 DUP2 EQ PUSH2 0xD4 JUMPI DUP1 PUSH4 0x18160DDD EQ PUSH2 0x10C JUMPI DUP1 PUSH4 0x23B872DD EQ PUSH2 0x133 JUMPI DUP1 PUSH4 0x3F4BA83A EQ PUSH2 0x15D JUMPI DUP1 PUSH4 0x5C975ABB EQ PUSH2 0x174 JUMPI DUP1 PUSH4 0x66188463 EQ PUSH2 0x189 JUMPI DUP1 PUSH4 0x70A08231 EQ PUSH2 0x1AD JUMPI DUP1 PUSH4 0x715018A6 EQ PUSH2 0x1CE JUMPI DUP1 PUSH4 0x8456CB59 EQ PUSH2 0x1E3 JUMPI DUP1 PUSH4 0x8DA5CB5B EQ PUSH2 0x1F8 JUMPI DUP1 PUSH4 0xA9059CBB EQ PUSH2 0x229 JUMPI DUP1 PUSH4 0xD73DD623 EQ PUSH2 0x24D JUMPI DUP1 PUSH4 0xDD62ED3E EQ PUSH2 0x271 JUMPI DUP1 PUSH4 0xF2FDE38B EQ PUSH2 0x298 JUMPI JUMPDEST PUSH1 0x0 DUP1 REVERT JUMPDEST CALLVALUE DUP1 ISZERO PUSH2 0xE0 JUMPI PUSH1 0x0 DUP1 REVERT JUMPDEST POP PUSH2 0xF8 PUSH1 0x1 PUSH1 0xA0 PUSH1 0x2 EXP SUB PUSH1 0x4 CALLDATALOAD AND PUSH1 0x24 CALLDATALOAD PUSH2 0x2B9 JUMP JUMPDEST PUSH1 0x40 DUP1 MLOAD SWAP2 ISZERO ISZERO DUP3 MSTORE MLOAD SWAP1 DUP2 SWAP1 SUB PUSH1 0x20 ADD SWAP1 RETURN JUMPDEST CALLVALUE DUP1 ISZERO PUSH2 0x118 JUMPI PUSH1 0x0 DUP1 REVERT JUMPDEST POP PUSH2 0x121 PUSH2 0x2E4 JUMP JUMPDEST PUSH1 0x40 DUP1 MLOAD SWAP2 DUP3 MSTORE MLOAD SWAP1 DUP2 SWAP1 SUB PUSH1 0x20 ADD SWAP1 RETURN JUMPDEST CALLVALUE DUP1 ISZERO PUSH2 0x13F JUMPI PUSH1 0x0 DUP1 REVERT JUMPDEST POP PUSH2 0xF8 PUSH1 0x1 PUSH1 0xA0 PUSH1 0x2 EXP SUB PUSH1 0x4 CALLDATALOAD DUP2 AND SWAP1 PUSH1 0x24 CALLDATALOAD AND PUSH1 0x44 CALLDATALOAD PUSH2 0x2EA JUMP JUMPDEST CALLVALUE DUP1 ISZERO PUSH2 0x169 JUMPI PUSH1 0x0 DUP1 REVERT JUMPDEST POP PUSH2 0x172 PUSH2 0x317 JUMP JUMPDEST STOP JUMPDEST CALLVALUE DUP1 ISZERO PUSH2 0x180 JUMPI PUSH1 0x0 DUP1 REVERT JUMPDEST POP PUSH2 0xF8 PUSH2 0x38F JUMP JUMPDEST CALLVALUE DUP1 ISZERO PUSH2 0x195 JUMPI PUSH1 0x0 DUP1 REVERT JUMPDEST POP PUSH2 0xF8 PUSH1 0x1 PUSH1 0xA0 PUSH1 0x2 EXP SUB PUSH1 0x4 CALLDATALOAD AND PUSH1 0x24 CALLDATALOAD PUSH2 0x39F JUMP JUMPDEST CALLVALUE DUP1 ISZERO PUSH2 0x1B9 JUMPI PUSH1 0x0 DUP1 REVERT JUMPDEST POP PUSH2 0x121 PUSH1 0x1 PUSH1 0xA0 PUSH1 0x2 EXP SUB PUSH1 0x4 CALLDATALOAD AND PUSH2 0x3C3 JUMP JUMPDEST CALLVALUE DUP1 ISZERO PUSH2 0x1DA JUMPI PUSH1 0x0 DUP1 REVERT JUMPDEST POP PUSH2 0x172 PUSH2 0x3DE JUMP JUMPDEST CALLVALUE DUP1 ISZERO PUSH2 0x1EF JUMPI PUSH1 0x0 DUP1 REVERT JUMPDEST POP PUSH2 0x172 PUSH2 0x44C JUMP JUMPDEST CALLVALUE DUP1 ISZERO PUSH2 0x204 JUMPI PUSH1 0x0 DUP1 REVERT JUMPDEST POP PUSH2 0x20D PUSH2 0x4C9 JUMP JUMPDEST PUSH1 0x40 DUP1 MLOAD PUSH1 0x1 PUSH1 0xA0 PUSH1 0x2 EXP SUB SWAP1 SWAP3 AND DUP3 MSTORE MLOAD SWAP1 DUP2 SWAP1 SUB PUSH1 0x20 ADD SWAP1 RETURN JUMPDEST CALLVALUE DUP1 ISZERO PUSH2 0x235 JUMPI PUSH1 0x0 DUP1 REVERT JUMPDEST POP PUSH2 0xF8 PUSH1 0x1 PUSH1 0xA0 PUSH1 0x2 EXP SUB PUSH1 0x4 CALLDATALOAD AND PUSH1 0x24 CALLDATALOAD PUSH2 0x4D8 JUMP JUMPDEST CALLVALUE DUP1 ISZERO PUSH2 0x259 JUMPI PUSH1 0x0 DUP1 REVERT JUMPDEST POP PUSH2 0xF8 PUSH1 0x1 PUSH1 0xA0 PUSH1 0x2 EXP SUB PUSH1 0x4 CALLDATALOAD AND PUSH1 0x24 CALLDATALOAD PUSH2 0x4FC JUMP JUMPDEST CALLVALUE DUP1 ISZERO PUSH2 0x27D JUMPI PUSH1 0x0 DUP1 REVERT JUMPDEST POP PUSH2 0x121 PUSH1 0x1 PUSH1 0xA0 PUSH1 0x2 EXP SUB PUSH1 0x4 CALLDATALOAD DUP2 AND SWAP1 PUSH1 0x24 CALLDATALOAD AND PUSH2 0x520 JUMP JUMPDEST CALLVALUE DUP1 ISZERO PUSH2 0x2A4 JUMPI PUSH1 0x0 DUP1 REVERT JUMPDEST POP PUSH2 0x172 PUSH1 0x1 PUSH1 0xA0 PUSH1 0x2 EXP SUB PUSH1 0x4 CALLDATALOAD AND PUSH2 0x54B JUMP JUMPDEST PUSH1 0x3 SLOAD PUSH1 0x0 SWAP1 PUSH1 0xA0 PUSH1 0x2 EXP SWAP1 DIV PUSH1 0xFF AND ISZERO PUSH2 0x2D3 JUMPI PUSH1 0x0 DUP1 REVERT JUMPDEST PUSH2 0x2DD DUP4 DUP4 PUSH2 0x56E JUMP JUMPDEST SWAP4 SWAP3 POP POP POP JUMP JUMPDEST PUSH1 0x1 SLOAD SWAP1 JUMP JUMPDEST PUSH1 0x3 SLOAD PUSH1 0x0 SWAP1 PUSH1 0xA0 PUSH1 0x2 EXP SWAP1 DIV PUSH1 0xFF AND ISZERO PUSH2 0x304 JUMPI PUSH1 0x0 DUP1 REVERT JUMPDEST PUSH2 0x30F DUP5 DUP5 DUP5 PUSH2 0x5D4 JUMP JUMPDEST SWAP5 SWAP4 POP POP POP POP JUMP JUMPDEST PUSH1 0x3 SLOAD PUSH1 0x1 PUSH1 0xA0 PUSH1 0x2 EXP SUB AND CALLER EQ PUSH2 0x32E JUMPI PUSH1 0x0 DUP1 REVERT JUMPDEST PUSH1 0x3 SLOAD PUSH1 0xA0 PUSH1 0x2 EXP SWAP1 DIV PUSH1 0xFF AND ISZERO ISZERO PUSH2 0x346 JUMPI PUSH1 0x0 DUP1 REVERT JUMPDEST PUSH1 0x3 DUP1 SLOAD PUSH21 0xFF0000000000000000000000000000000000000000 NOT AND SWAP1 SSTORE PUSH1 0x40 MLOAD PUSH32 0x7805862F689E2F13DF9F062FF482AD3AD112ACA9E0847911ED832E158C525B33 SWAP1 PUSH1 0x0 SWAP1 LOG1 JUMP JUMPDEST PUSH1 0x3 SLOAD PUSH1 0xA0 PUSH1 0x2 EXP SWAP1 DIV PUSH1 0xFF AND DUP2 JUMP JUMPDEST PUSH1 0x3 SLOAD PUSH1 0x0 SWAP1 PUSH1 0xA0 PUSH1 0x2 EXP SWAP1 DIV PUSH1 0xFF AND ISZERO PUSH2 0x3B9 JUMPI PUSH1 0x0 DUP1 REVERT JUMPDEST PUSH2 0x2DD DUP4 DUP4 PUSH2 0x749 JUMP JUMPDEST PUSH1 0x1 PUSH1 0xA0 PUSH1 0x2 EXP SUB AND PUSH1 0x0 SWAP1 DUP2 MSTORE PUSH1 0x20 DUP2 SWAP1 MSTORE PUSH1 0x40 SWAP1 KECCAK256 SLOAD SWAP1 JUMP JUMPDEST PUSH1 0x3 SLOAD PUSH1 0x1 PUSH1 0xA0 PUSH1 0x2 EXP SUB AND CALLER EQ PUSH2 0x3F5 JUMPI PUSH1 0x0 DUP1 REVERT JUMPDEST PUSH1 0x3 SLOAD PUSH1 0x40 MLOAD PUSH1 0x1 PUSH1 0xA0 PUSH1 0x2 EXP SUB SWAP1 SWAP2 AND SWAP1 PUSH32 0xF8DF31144D9C2F0F6B59D69B8B98ABD5459D07F2742C4DF920B25AAE33C64820 SWAP1 PUSH1 0x0 SWAP1 LOG2 PUSH1 0x3 DUP1 SLOAD PUSH20 0xFFFFFFFFFFFFFFFFFFFFFFFFFFFFFFFFFFFFFFFF NOT AND SWAP1 SSTORE JUMP JUMPDEST PUSH1 0x3 SLOAD PUSH1 0x1 PUSH1 0xA0 PUSH1 0x2 EXP SUB AND CALLER EQ PUSH2 0x463 JUMPI PUSH1 0x0 DUP1 REVERT JUMPDEST PUSH1 0x3 SLOAD PUSH1 0xA0 PUSH1 0x2 EXP SWAP1 DIV PUSH1 0xFF AND ISZERO PUSH2 0x47A JUMPI PUSH1 0x0 DUP1 REVERT JUMPDEST PUSH1 0x3 DUP1 SLOAD PUSH21 0xFF0000000000000000000000000000000000000000 NOT AND PUSH1 0xA0 PUSH1 0x2 EXP OR SWAP1 SSTORE PUSH1 0x40 MLOAD PUSH32 0x6985A02210A168E66602D3235CB6DB0E70F92B3BA4D376A33C0F3D9434BFF625 SWAP1 PUSH1 0x0 SWAP1 LOG1 JUMP JUMPDEST PUSH1 0x3 SLOAD PUSH1 0x1 PUSH1 0xA0 PUSH1 0x2 EXP SUB AND DUP2 JUMP JUMPDEST PUSH1 0x3 SLOAD PUSH1 0x0 SWAP1 PUSH1 0xA0 PUSH1 0x2 EXP SWAP1 DIV PUSH1 0xFF AND ISZERO PUSH2 0x4F2 JUMPI PUSH1 0x0 DUP1 REVERT JUMPDEST PUSH2 0x2DD DUP4 DUP4 PUSH2 0x838 JUMP JUMPDEST PUSH1 0x3 SLOAD PUSH1 0x0 SWAP1 PUSH1 0xA0 PUSH1 0x2 EXP SWAP1 DIV PUSH1 0xFF AND ISZERO PUSH2 0x516 JUMPI PUSH1 0x0 DUP1 REVERT JUMPDEST PUSH2 0x2DD DUP4 DUP4 PUSH2 0x917 JUMP JUMPDEST PUSH1 0x1 PUSH1 0xA0 PUSH1 0x2 EXP SUB SWAP2 DUP3 AND PUSH1 0x0 SWAP1 DUP2 MSTORE PUSH1 0x2 PUSH1 0x20 SWAP1 DUP2 MSTORE PUSH1 0x40 DUP1 DUP4 KECCAK256 SWAP4 SWAP1 SWAP5 AND DUP3 MSTORE SWAP2 SWAP1 SWAP2 MSTORE KECCAK256 SLOAD SWAP1 JUMP JUMPDEST PUSH1 0x3 SLOAD PUSH1 0x1 PUSH1 0xA0 PUSH1 0x2 EXP SUB AND CALLER EQ PUSH2 0x562 JUMPI PUSH1 0x0 DUP1 REVERT JUMPDEST PUSH2 0x56B DUP2 PUSH2 0x9B0 JUMP JUMPDEST POP JUMP JUMPDEST CALLER PUSH1 0x0 DUP2 DUP2 MSTORE PUSH1 0x2 PUSH1 0x20 SWAP1 DUP2 MSTORE PUSH1 0x40 DUP1 DUP4 KECCAK256 PUSH1 0x1 PUSH1 0xA0 PUSH1 0x2 EXP SUB DUP8 AND DUP1 DUP6 MSTORE SWAP1 DUP4 MSTORE DUP2 DUP5 KECCAK256 DUP7 SWAP1 SSTORE DUP2 MLOAD DUP7 DUP2 MSTORE SWAP2 MLOAD SWAP4 SWAP5 SWAP1 SWAP4 SWAP1 SWAP3 PUSH32 0x8C5BE1E5EBEC7D5BD14F71427D1E84F3DD0314C0F7B2291E5B200AC8C7C3B925 SWAP3 DUP3 SWAP1 SUB ADD SWAP1 LOG3 POP PUSH1 0x1 SWAP3 SWAP2 POP POP JUMP JUMPDEST PUSH1 0x1 PUSH1 0xA0 PUSH1 0x2 EXP SUB DUP4 AND PUSH1 0x0 SWAP1 DUP2 MSTORE PUSH1 0x20 DUP2 SWAP1 MSTORE PUSH1 0x40 DUP2 KECCAK256 SLOAD DUP3 GT ISZERO PUSH2 0x5F9 JUMPI PUSH1 0x0 DUP1 REVERT JUMPDEST PUSH1 0x1 PUSH1 0xA0 PUSH1 0x2 EXP SUB DUP5 AND PUSH1 0x0 SWAP1 DUP2 MSTORE PUSH1 0x2 PUSH1 0x20 SWAP1 DUP2 MSTORE PUSH1 0x40 DUP1 DUP4 KECCAK256 CALLER DUP5 MSTORE SWAP1 SWAP2 MSTORE SWAP1 KECCAK256 SLOAD DUP3 GT ISZERO PUSH2 0x629 JUMPI PUSH1 0x0 DUP1 REVERT JUMPDEST PUSH1 0x1 PUSH1 0xA0 PUSH1 0x2 EXP SUB DUP4 AND ISZERO ISZERO PUSH2 0x63E JUMPI PUSH1 0x0 DUP1 REVERT JUMPDEST PUSH1 0x1 PUSH1 0xA0 PUSH1 0x2 EXP SUB DUP5 AND PUSH1 0x0 SWAP1 DUP2 MSTORE PUSH1 0x20 DUP2 SWAP1 MSTORE PUSH1 0x40 SWAP1 KECCAK256 SLOAD PUSH2 0x667 SWAP1 DUP4 PUSH4 0xFFFFFFFF PUSH2 0xA2E AND JUMP JUMPDEST PUSH1 0x1 PUSH1 0xA0 PUSH1 0x2 EXP SUB DUP1 DUP7 AND PUSH1 0x0 SWAP1 DUP2 MSTORE PUSH1 0x20 DUP2 SWAP1 MSTORE PUSH1 0x40 DUP1 DUP3 KECCAK256 SWAP4 SWAP1 SWAP4 SSTORE SWAP1 DUP6 AND DUP2 MSTORE KECCAK256 SLOAD PUSH2 0x69C SWAP1 DUP4 PUSH4 0xFFFFFFFF PUSH2 0xA40 AND JUMP JUMPDEST PUSH1 0x1 PUSH1 0xA0 PUSH1 0x2 EXP SUB DUP1 DUP6 AND PUSH1 0x0 SWAP1 DUP2 MSTORE PUSH1 0x20 DUP2 DUP2 MSTORE PUSH1 0x40 DUP1 DUP4 KECCAK256 SWAP5 SWAP1 SWAP5 SSTORE SWAP2 DUP8 AND DUP2 MSTORE PUSH1 0x2 DUP3 MSTORE DUP3 DUP2 KECCAK256 CALLER DUP3 MSTORE SWAP1 SWAP2 MSTORE KECCAK256 SLOAD PUSH2 0x6DE SWAP1 DUP4 PUSH4 0xFFFFFFFF PUSH2 0xA2E AND JUMP JUMPDEST PUSH1 0x1 PUSH1 0xA0 PUSH1 0x2 EXP SUB DUP1 DUP7 AND PUSH1 0x0 DUP2 DUP2 MSTORE PUSH1 0x2 PUSH1 0x20 SWAP1 DUP2 MSTORE PUSH1 0x40 DUP1 DUP4 KECCAK256 CALLER DUP5 MSTORE DUP3 MSTORE SWAP2 DUP3 SWAP1 KECCAK256 SWAP5 SWAP1 SWAP5 SSTORE DUP1 MLOAD DUP7 DUP2 MSTORE SWAP1 MLOAD SWAP3 DUP8 AND SWAP4 SWAP2 SWAP3 PUSH32 0xDDF252AD1BE2C89B69C2B068FC378DAA952BA7F163C4A11628F55A4DF523B3EF SWAP3 SWAP2 DUP2 SWAP1 SUB SWAP1 SWAP2 ADD SWAP1 LOG3 POP PUSH1 0x1 SWAP4 SWAP3 POP POP POP JUMP JUMPDEST CALLER PUSH1 0x0 SWAP1 DUP2 MSTORE PUSH1 0x2 PUSH1 0x20 SWAP1 DUP2 MSTORE PUSH1 0x40 DUP1 DUP4 KECCAK256 PUSH1 0x1 PUSH1 0xA0 PUSH1 0x2 EXP SUB DUP7 AND DUP5 MSTORE SWAP1 SWAP2 MSTORE DUP2 KECCAK256 SLOAD DUP1 DUP4 LT PUSH2 0x79D JUMPI CALLER PUSH1 0x0 SWAP1 DUP2 MSTORE PUSH1 0x2 PUSH1 0x20 SWAP1 DUP2 MSTORE PUSH1 0x40 DUP1 DUP4 KECCAK256 PUSH1 0x1 PUSH1 0xA0 PUSH1 0x2 EXP SUB DUP9 AND DUP5 MSTORE SWAP1 SWAP2 MSTORE DUP2 KECCAK256 SSTORE PUSH2 0x7D2 JUMP JUMPDEST PUSH2 0x7AD DUP2 DUP5 PUSH4 0xFFFFFFFF PUSH2 0xA2E AND JUMP JUMPDEST CALLER PUSH1 0x0 SWAP1 DUP2 MSTORE PUSH1 0x2 PUSH1 0x20 SWAP1 DUP2 MSTORE PUSH1 0x40 DUP1 DUP4 KECCAK256 PUSH1 0x1 PUSH1 0xA0 PUSH1 0x2 EXP SUB DUP10 AND DUP5 MSTORE SWAP1 SWAP2 MSTORE SWAP1 KECCAK256 SSTORE JUMPDEST CALLER PUSH1 0x0 DUP2 DUP2 MSTORE PUSH1 0x2 PUSH1 0x20 SWAP1 DUP2 MSTORE PUSH1 0x40 DUP1 DUP4 KECCAK256 PUSH1 0x1 PUSH1 0xA0 PUSH1 0x2 EXP SUB DUP10 AND DUP1 DUP6 MSTORE SWAP1 DUP4 MSTORE SWAP3 DUP2 SWAP1 KECCAK256 SLOAD DUP2 MLOAD SWAP1 DUP2 MSTORE SWAP1 MLOAD SWAP3 SWAP4 SWAP3 PUSH32 0x8C5BE1E5EBEC7D5BD14F71427D1E84F3DD0314C0F7B2291E5B200AC8C7C3B925 SWAP3 SWAP2 DUP2 SWAP1 SUB SWAP1 SWAP2 ADD SWAP1 LOG3 POP PUSH1 0x1 SWAP4 SWAP3 POP POP POP JUMP JUMPDEST CALLER PUSH1 0x0 SWAP1 DUP2 MSTORE PUSH1 0x20 DUP2 SWAP1 MSTORE PUSH1 0x40 DUP2 KECCAK256 SLOAD DUP3 GT ISZERO PUSH2 0x854 JUMPI PUSH1 0x0 DUP1 REVERT JUMPDEST PUSH1 0x1 PUSH1 0xA0 PUSH1 0x2 EXP SUB DUP4 AND ISZERO ISZERO PUSH2 0x869 JUMPI PUSH1 0x0 DUP1 REVERT JUMPDEST CALLER PUSH1 0x0 SWAP1 DUP2 MSTORE PUSH1 0x20 DUP2 SWAP1 MSTORE PUSH1 0x40 SWAP1 KECCAK256 SLOAD PUSH2 0x889 SWAP1 DUP4 PUSH4 0xFFFFFFFF PUSH2 0xA2E AND JUMP JUMPDEST CALLER PUSH1 0x0 SWAP1 DUP2 MSTORE PUSH1 0x20 DUP2 SWAP1 MSTORE PUSH1 0x40 DUP1 DUP3 KECCAK256 SWAP3 SWAP1 SWAP3 SSTORE PUSH1 0x1 PUSH1 0xA0 PUSH1 0x2 EXP SUB DUP6 AND DUP2 MSTORE KECCAK256 SLOAD PUSH2 0x8BB SWAP1 DUP4 PUSH4 0xFFFFFFFF PUSH2 0xA40 AND JUMP JUMPDEST PUSH1 0x1 PUSH1 0xA0 PUSH1 0x2 EXP SUB DUP5 AND PUSH1 0x0 DUP2 DUP2 MSTORE PUSH1 0x20 DUP2 DUP2 MSTORE PUSH1 0x40 SWAP2 DUP3 SWAP1 KECCAK256 SWAP4 SWAP1 SWAP4 SSTORE DUP1 MLOAD DUP6 DUP2 MSTORE SWAP1 MLOAD SWAP2 SWAP3 CALLER SWAP3 PUSH32 0xDDF252AD1BE2C89B69C2B068FC378DAA952BA7F163C4A11628F55A4DF523B3EF SWAP3 DUP2 SWAP1 SUB SWAP1 SWAP2 ADD SWAP1 LOG3 POP PUSH1 0x1 SWAP3 SWAP2 POP POP JUMP JUMPDEST CALLER PUSH1 0x0 SWAP1 DUP2 MSTORE PUSH1 0x2 PUSH1 0x20 SWAP1 DUP2 MSTORE PUSH1 0x40 DUP1 DUP4 KECCAK256 PUSH1 0x1 PUSH1 0xA0 PUSH1 0x2 EXP SUB DUP7 AND DUP5 MSTORE SWAP1 SWAP2 MSTORE DUP2 KECCAK256 SLOAD PUSH2 0x94B SWAP1 DUP4 PUSH4 0xFFFFFFFF PUSH2 0xA40 AND JUMP JUMPDEST CALLER PUSH1 0x0 DUP2 DUP2 MSTORE PUSH1 0x2 PUSH1 0x20 SWAP1 DUP2 MSTORE PUSH1 0x40 DUP1 DUP4 KECCAK256 PUSH1 0x1 PUSH1 0xA0 PUSH1 0x2 EXP SUB DUP10 AND DUP1 DUP6 MSTORE SWAP1 DUP4 MSTORE SWAP3 DUP2 SWAP1 KECCAK256 DUP6 SWAP1 SSTORE DUP1 MLOAD SWAP5 DUP6 MSTORE MLOAD SWAP2 SWAP4 PUSH32 0x8C5BE1E5EBEC7D5BD14F71427D1E84F3DD0314C0F7B2291E5B200AC8C7C3B925 SWAP3 SWAP1 DUP2 SWAP1 SUB SWAP1 SWAP2 ADD SWAP1 LOG3 POP PUSH1 0x1 SWAP3 SWAP2 POP POP JUMP JUMPDEST PUSH1 0x1 PUSH1 0xA0 PUSH1 0x2 EXP SUB DUP2 AND ISZERO ISZERO PUSH2 0x9C5 JUMPI PUSH1 0x0 DUP1 REVERT JUMPDEST PUSH1 0x3 SLOAD PUSH1 0x40 MLOAD PUSH1 0x1 PUSH1 0xA0 PUSH1 0x2 EXP SUB DUP1 DUP5 AND SWAP3 AND SWAP1 PUSH32 0x8BE0079C531659141344CD1FD0A4F28419497F9722A3DAAFE3B4186F6B6457E0 SWAP1 PUSH1 0x0 SWAP1 LOG3 PUSH1 0x3 DUP1 SLOAD PUSH20 0xFFFFFFFFFFFFFFFFFFFFFFFFFFFFFFFFFFFFFFFF NOT AND PUSH1 0x1 PUSH1 0xA0 PUSH1 0x2 EXP SUB SWAP3 SWAP1 SWAP3 AND SWAP2 SWAP1 SWAP2 OR SWAP1 SSTORE JUMP JUMPDEST PUSH1 0x0 DUP3 DUP3 GT ISZERO PUSH2 0xA3A JUMPI INVALID JUMPDEST POP SWAP1 SUB SWAP1 JUMP JUMPDEST DUP2 DUP2 ADD DUP3 DUP2 LT ISZERO PUSH2 0xA4D JUMPI INVALID JUMPDEST SWAP3 SWAP2 POP POP JUMP STOP LOG1 PUSH6 0x627A7A723058 KECCAK256 CALLVALUE EXTCODESIZE CALLDATALOAD SAR 0x2e LOG3 CALLDATALOAD SAR 0x28 0xb8 RETURN ADDMOD PUSH14 0xDD36F3ECD40FB9340DA0615EC59 0xe6 PUSH19 0xA673500290000000000000000000000000000 "
				},
				"gasEstimates": {
					"creation": {
						"codeDepositCost": "537400",
						"executionCost": "20836",
						"totalCost": "558236"
					},
					"external": {
						"allowance(address,address)": "972",
						"approve(address,uint256)": "22680",
						"balanceOf(address)": "741",
						"decreaseApproval(address,uint256)": "infinite",
						"increaseApproval(address,uint256)": "infinite",
						"owner()": "735",
						"pause()": "21958",
						"paused()": "558",
						"renounceOwnership()": "22229",
						"totalSupply()": "406",
						"transfer(address,uint256)": "infinite",
						"transferFrom(address,address,uint256)": "infinite",
						"transferOwnership(address)": "23046",
						"unpause()": "21782"
					}
				},
				"methodIdentifiers": {
					"allowance(address,address)": "dd62ed3e",
					"approve(address,uint256)": "095ea7b3",
					"balanceOf(address)": "70a08231",
					"decreaseApproval(address,uint256)": "66188463",
					"increaseApproval(address,uint256)": "d73dd623",
					"owner()": "8da5cb5b",
					"pause()": "8456cb59",
					"paused()": "5c975abb",
					"renounceOwnership()": "715018a6",
					"totalSupply()": "18160ddd",
					"transfer(address,uint256)": "a9059cbb",
					"transferFrom(address,address,uint256)": "23b872dd",
					"transferOwnership(address)": "f2fde38b",
					"unpause()": "3f4ba83a"
				}
			},
			"userdoc": {
				"methods": {
					"renounceOwnership()": {
						"notice": "Renouncing to ownership will leave the contract without an owner.\r It will not be possible to call the functions with the `onlyOwner`\r modifier anymore.\r"
					}
				}
			}
		}
	}
}