{
	"contracts/Online/ERC20/WBTC.sol": {
		"WBTC": {
			"abi": [
				{
					"constant": true,
					"inputs": [],
					"name": "mintingFinished",
					"outputs": [
						{
							"name": "",
							"type": "bool"
						}
					],
					"payable": false,
					"stateMutability": "view",
					"type": "function"
				},
				{
					"constant": true,
					"inputs": [],
					"name": "name",
					"outputs": [
						{
							"name": "",
							"type": "string"
						}
					],
					"payable": false,
					"stateMutability": "view",
					"type": "function"
				},
				{
					"constant": false,
					"inputs": [
						{
							"name": "_spender",
							"type": "address"
						},
						{
							"name": "_value",
							"type": "uint256"
						}
					],
					"name": "approve",
					"outputs": [
						{
							"name": "",
							"type": "bool"
						}
					],
					"payable": false,
					"stateMutability": "nonpayable",
					"type": "function"
				},
				{
					"constant": false,
					"inputs": [
						{
							"name": "_token",
							"type": "address"
						}
					],
					"name": "reclaimToken",
					"outputs": [],
					"payable": false,
					"stateMutability": "nonpayable",
					"type": "function"
				},
				{
					"constant": true,
					"inputs": [],
					"name": "totalSupply",
					"outputs": [
						{
							"name": "",
							"type": "uint256"
						}
					],
					"payable": false,
					"stateMutability": "view",
					"type": "function"
				},
				{
					"constant": false,
					"inputs": [
						{
							"name": "_from",
							"type": "address"
						},
						{
							"name": "_to",
							"type": "address"
						},
						{
							"name": "_value",
							"type": "uint256"
						}
					],
					"name": "transferFrom",
					"outputs": [
						{
							"name": "",
							"type": "bool"
						}
					],
					"payable": false,
					"stateMutability": "nonpayable",
					"type": "function"
				},
				{
					"constant": true,
					"inputs": [],
					"name": "decimals",
					"outputs": [
						{
							"name": "",
							"type": "uint8"
						}
					],
					"payable": false,
					"stateMutability": "view",
					"type": "function"
				},
				{
					"constant": false,
					"inputs": [],
					"name": "unpause",
					"outputs": [],
					"payable": false,
					"stateMutability": "nonpayable",
					"type": "function"
				},
				{
					"constant": false,
					"inputs": [
						{
							"name": "_to",
							"type": "address"
						},
						{
							"name": "_amount",
							"type": "uint256"
						}
					],
					"name": "mint",
					"outputs": [
						{
							"name": "",
							"type": "bool"
						}
					],
					"payable": false,
					"stateMutability": "nonpayable",
					"type": "function"
				},
				{
					"constant": false,
					"inputs": [
						{
							"name": "value",
							"type": "uint256"
						}
					],
					"name": "burn",
					"outputs": [],
					"payable": false,
					"stateMutability": "nonpayable",
					"type": "function"
				},
				{
					"constant": false,
					"inputs": [],
					"name": "claimOwnership",
					"outputs": [],
					"payable": false,
					"stateMutability": "nonpayable",
					"type": "function"
				},
				{
					"constant": true,
					"inputs": [],
					"name": "paused",
					"outputs": [
						{
							"name": "",
							"type": "bool"
						}
					],
					"payable": false,
					"stateMutability": "view",
					"type": "function"
				},
				{
					"constant": false,
					"inputs": [
						{
							"name": "_spender",
							"type": "address"
						},
						{
							"name": "_subtractedValue",
							"type": "uint256"
						}
					],
					"name": "decreaseApproval",
					"outputs": [
						{
							"name": "success",
							"type": "bool"
						}
					],
					"payable": false,
					"stateMutability": "nonpayable",
					"type": "function"
				},
				{
					"constant": true,
					"inputs": [
						{
							"name": "_owner",
							"type": "address"
						}
					],
					"name": "balanceOf",
					"outputs": [
						{
							"name": "",
							"type": "uint256"
						}
					],
					"payable": false,
					"stateMutability": "view",
					"type": "function"
				},
				{
					"constant": false,
					"inputs": [],
					"name": "renounceOwnership",
					"outputs": [],
					"payable": false,
					"stateMutability": "nonpayable",
					"type": "function"
				},
				{
					"constant": false,
					"inputs": [],
					"name": "finishMinting",
					"outputs": [
						{
							"name": "",
							"type": "bool"
						}
					],
					"payable": false,
					"stateMutability": "nonpayable",
					"type": "function"
				},
				{
					"constant": false,
					"inputs": [],
					"name": "pause",
					"outputs": [],
					"payable": false,
					"stateMutability": "nonpayable",
					"type": "function"
				},
				{
					"constant": true,
					"inputs": [],
					"name": "owner",
					"outputs": [
						{
							"name": "",
							"type": "address"
						}
					],
					"payable": false,
					"stateMutability": "view",
					"type": "function"
				},
				{
					"constant": true,
					"inputs": [],
					"name": "symbol",
					"outputs": [
						{
							"name": "",
							"type": "string"
						}
					],
					"payable": false,
					"stateMutability": "view",
					"type": "function"
				},
				{
					"constant": false,
					"inputs": [
						{
							"name": "_to",
							"type": "address"
						},
						{
							"name": "_value",
							"type": "uint256"
						}
					],
					"name": "transfer",
					"outputs": [
						{
							"name": "",
							"type": "bool"
						}
					],
					"payable": false,
					"stateMutability": "nonpayable",
					"type": "function"
				},
				{
					"constant": false,
					"inputs": [
						{
							"name": "_spender",
							"type": "address"
						},
						{
							"name": "_addedValue",
							"type": "uint256"
						}
					],
					"name": "increaseApproval",
					"outputs": [
						{
							"name": "success",
							"type": "bool"
						}
					],
					"payable": false,
					"stateMutability": "nonpayable",
					"type": "function"
				},
				{
					"constant": true,
					"inputs": [
						{
							"name": "_owner",
							"type": "address"
						},
						{
							"name": "_spender",
							"type": "address"
						}
					],
					"name": "allowance",
					"outputs": [
						{
							"name": "",
							"type": "uint256"
						}
					],
					"payable": false,
					"stateMutability": "view",
					"type": "function"
				},
				{
					"constant": true,
					"inputs": [],
					"name": "pendingOwner",
					"outputs": [
						{
							"name": "",
							"type": "address"
						}
					],
					"payable": false,
					"stateMutability": "view",
					"type": "function"
				},
				{
					"constant": false,
					"inputs": [
						{
							"name": "newOwner",
							"type": "address"
						}
					],
					"name": "transferOwnership",
					"outputs": [],
					"payable": false,
					"stateMutability": "nonpayable",
					"type": "function"
				},
				{
					"anonymous": false,
					"inputs": [],
					"name": "Pause",
					"type": "event"
				},
				{
					"anonymous": false,
					"inputs": [],
					"name": "Unpause",
					"type": "event"
				},
				{
					"anonymous": false,
					"inputs": [
						{
							"indexed": true,
							"name": "burner",
							"type": "address"
						},
						{
							"indexed": false,
							"name": "value",
							"type": "uint256"
						}
					],
					"name": "Burn",
					"type": "event"
				},
				{
					"anonymous": false,
					"inputs": [
						{
							"indexed": true,
							"name": "to",
							"type": "address"
						},
						{
							"indexed": false,
							"name": "amount",
							"type": "uint256"
						}
					],
					"name": "Mint",
					"type": "event"
				},
				{
					"anonymous": false,
					"inputs": [],
					"name": "MintFinished",
					"type": "event"
				},
				{
					"anonymous": false,
					"inputs": [
						{
							"indexed": true,
							"name": "previousOwner",
							"type": "address"
						}
					],
					"name": "OwnershipRenounced",
					"type": "event"
				},
				{
					"anonymous": false,
					"inputs": [
						{
							"indexed": true,
							"name": "previousOwner",
							"type": "address"
						},
						{
							"indexed": true,
							"name": "newOwner",
							"type": "address"
						}
					],
					"name": "OwnershipTransferred",
					"type": "event"
				},
				{
					"anonymous": false,
					"inputs": [
						{
							"indexed": true,
							"name": "owner",
							"type": "address"
						},
						{
							"indexed": true,
							"name": "spender",
							"type": "address"
						},
						{
							"indexed": false,
							"name": "value",
							"type": "uint256"
						}
					],
					"name": "Approval",
					"type": "event"
				},
				{
					"anonymous": false,
					"inputs": [
						{
							"indexed": true,
							"name": "from",
							"type": "address"
						},
						{
							"indexed": true,
							"name": "to",
							"type": "address"
						},
						{
							"indexed": false,
							"name": "value",
							"type": "uint256"
						}
					],
					"name": "Transfer",
					"type": "event"
				}
			],
			"devdoc": {
				"methods": {
					"allowance(address,address)": {
						"details": "Function to check the amount of tokens that an owner allowed to a spender.\r",
						"params": {
							"_owner": "address The address which owns the funds.\r",
							"_spender": "address The address which will spend the funds.\r"
						},
						"return": "A uint256 specifying the amount of tokens still available for the spender.\r"
					},
					"balanceOf(address)": {
						"details": "Gets the balance of the specified address.\r",
						"params": {
							"_owner": "The address to query the the balance of.\r"
						},
						"return": "An uint256 representing the amount owned by the passed address.\r"
					},
					"claimOwnership()": {
						"details": "Allows the pendingOwner address to finalize the transfer.\r"
					},
					"mint(address,uint256)": {
						"details": "Function to mint tokens\r",
						"params": {
							"_amount": "The amount of tokens to mint.\r",
							"_to": "The address that will receive the minted tokens.\r"
						},
						"return": "A boolean that indicates if the operation was successful.\r"
					},
					"pause()": {
						"details": "called by the owner to pause, triggers stopped state\r"
					},
					"reclaimToken(address)": {
						"details": "Reclaim all ERC20Basic compatible tokens\r",
						"params": {
							"_token": "ERC20Basic The address of the token contract\r"
						}
					},
					"totalSupply()": {
						"details": "Total number of tokens in existence\r"
					},
					"transferOwnership(address)": {
						"details": "Allows the current owner to set the pendingOwner address.\r",
						"params": {
							"newOwner": "The address to transfer ownership to.\r"
						}
					},
					"unpause()": {
						"details": "called by the owner to unpause, returns to normal state\r"
					}
				}
			},
			"evm": {
				"assembly": "    /* \"contracts/Online/ERC20/WBTC.sol\":10916:10951  bool public mintingFinished = false */\n  0x5\n  dup1\n  sload\n  not(mul(0xffff, exp(0x2, 0xa8)))\n    /* \"contracts/Online/ERC20/WBTC.sol\":13127:13153  bool public paused = false */\n  and\n  swap1\n  sstore\n    /* \"contracts/Online/ERC20/WBTC.sol\":8557:8698  constructor(string _name, string _symbol, uint8 _decimals) public {\r... */\n  0xb\n    /* \"contracts/Online/ERC20/WBTC.sol\":17917:18357  contract WBTC is StandardToken, DetailedERC20(\"Wrapped BTC\", \"WBTC\", 8),\r... */\n  0x80\n    /* \"contracts/Online/ERC20/WBTC.sol\":8557:8698  constructor(string _name, string _symbol, uint8 _decimals) public {\r... */\n  dup2\n  dup2\n  mstore\n  0x5772617070656420425443000000000000000000000000000000000000000000\n  0xa0\n  swap1\n  dup2\n  mstore\n    /* \"contracts/Online/ERC20/WBTC.sol\":10916:10951  bool public mintingFinished = false */\n  0x100\n    /* \"contracts/Online/ERC20/WBTC.sol\":17917:18357  contract WBTC is StandardToken, DetailedERC20(\"Wrapped BTC\", \"WBTC\", 8),\r... */\n  0x40\n    /* \"contracts/Online/ERC20/WBTC.sol\":8557:8698  constructor(string _name, string _symbol, uint8 _decimals) public {\r... */\n  mstore\n  0x4\n  0xc0\n  swap1\n  dup2\n  mstore\n  mstore(0xe0, 0x5742544300000000000000000000000000000000000000000000000000000000)\n    /* \"contracts/Online/ERC20/WBTC.sol\":17917:18357  contract WBTC is StandardToken, DetailedERC20(\"Wrapped BTC\", \"WBTC\", 8),\r... */\n  swap2\n  swap3\n    /* \"contracts/Online/ERC20/WBTC.sol\":17986:17987  8 */\n  0x8\n  swap2\n    /* \"contracts/Online/ERC20/WBTC.sol\":8630:8642  name = _name */\n  tag_4\n  swap2\n    /* \"contracts/Online/ERC20/WBTC.sol\":8630:8634  name */\n  0x3\n  swap2\n    /* \"contracts/Online/ERC20/WBTC.sol\":8557:8698  constructor(string _name, string _symbol, uint8 _decimals) public {\r... */\n  swap1\n    /* \"contracts/Online/ERC20/WBTC.sol\":8630:8642  name = _name */\n  jump\t// in(tag_5)\ntag_4:\n  pop\n    /* \"contracts/Online/ERC20/WBTC.sol\":8649:8665  symbol = _symbol */\n  dup2\n  mload\n  tag_6\n  swap1\n    /* \"contracts/Online/ERC20/WBTC.sol\":8649:8655  symbol */\n  0x4\n  swap1\n    /* \"contracts/Online/ERC20/WBTC.sol\":8649:8665  symbol = _symbol */\n  0x20\n  dup6\n  add\n  swap1\n  jump\t// in(tag_5)\ntag_6:\n  pop\n    /* \"contracts/Online/ERC20/WBTC.sol\":8672:8680  decimals */\n  0x5\n    /* \"contracts/Online/ERC20/WBTC.sol\":8672:8692  decimals = _decimals */\n  dup1\n  sload\n  not(0xff)\n  and\n  0xff\n  swap3\n  swap1\n  swap3\n  and\n  swap2\n  swap1\n  swap2\n  or\n  not(sub(exp(0x2, 0xa8), 0x100))\n    /* \"contracts/Online/ERC20/WBTC.sol\":9332:9350  owner = msg.sender */\n  and\n    /* \"contracts/Online/ERC20/WBTC.sol\":8672:8692  decimals = _decimals */\n  0x100\n    /* \"contracts/Online/ERC20/WBTC.sol\":9340:9350  msg.sender */\n  caller\n    /* \"contracts/Online/ERC20/WBTC.sol\":9332:9350  owner = msg.sender */\n  mul\n  or\n  swap1\n  sstore\n  pop\n    /* \"contracts/Online/ERC20/WBTC.sol\":17917:18357  contract WBTC is StandardToken, DetailedERC20(\"Wrapped BTC\", \"WBTC\", 8),\r... */\n  tag_8\n  swap1\n  pop\n  jump\ntag_5:\n  dup3\n  dup1\n  sload\n  0x1\n  dup2\n  0x1\n  and\n  iszero\n  0x100\n  mul\n  sub\n  and\n  0x2\n  swap1\n  div\n  swap1\n  0x0\n  mstore\n  keccak256(0x0, 0x20)\n  swap1\n  0x1f\n  add\n  0x20\n  swap1\n  div\n  dup2\n  add\n  swap3\n  dup3\n  0x1f\n  lt\n  tag_10\n  jumpi\n  dup1\n  mload\n  not(0xff)\n  and\n  dup4\n  dup1\n  add\n  or\n  dup6\n  sstore\n  jump(tag_12)\ntag_10:\n  dup3\n  dup1\n  add\n  0x1\n  add\n  dup6\n  sstore\n  dup3\n  iszero\n  tag_12\n  jumpi\n  swap2\n  dup3\n  add\ntag_11:\n  dup3\n  dup2\n  gt\n  iszero\n  tag_12\n  jumpi\n  dup3\n  mload\n  dup3\n  sstore\n  swap2\n  0x20\n  add\n  swap2\n  swap1\n  0x1\n  add\n  swap1\n  jump(tag_11)\ntag_12:\n  pop\n  tag_13\n  swap3\n  swap2\n  pop\n  jump\t// in(tag_14)\ntag_13:\n  pop\n  swap1\n  jump\t// out\ntag_14:\n  tag_15\n  swap2\n  swap1\ntag_16:\n  dup1\n  dup3\n  gt\n  iszero\n  tag_13\n  jumpi\n  0x0\n  dup2\n  sstore\n  0x1\n  add\n  jump(tag_16)\ntag_15:\n  swap1\n  jump\t// out\ntag_8:\n  dataSize(sub_0)\n  dup1\n  dataOffset(sub_0)\n  0x0\n  codecopy\n  0x0\n  return\nstop\n\nsub_0: assembly {\n        /* \"contracts/Online/ERC20/WBTC.sol\":17917:18357  contract WBTC is StandardToken, DetailedERC20(\"Wrapped BTC\", \"WBTC\", 8),\r... */\n      mstore(0x40, 0x80)\n      jumpi(tag_1, lt(calldatasize, 0x4))\n      and(div(calldataload(0x0), 0x100000000000000000000000000000000000000000000000000000000), 0xffffffff)\n      0x5d2035b\n      dup2\n      eq\n      tag_2\n      jumpi\n      dup1\n      0x6fdde03\n      eq\n      tag_3\n      jumpi\n      dup1\n      0x95ea7b3\n      eq\n      tag_4\n      jumpi\n      dup1\n      0x17ffc320\n      eq\n      tag_5\n      jumpi\n      dup1\n      0x18160ddd\n      eq\n      tag_6\n      jumpi\n      dup1\n      0x23b872dd\n      eq\n      tag_7\n      jumpi\n      dup1\n      0x313ce567\n      eq\n      tag_8\n      jumpi\n      dup1\n      0x3f4ba83a\n      eq\n      tag_9\n      jumpi\n      dup1\n      0x40c10f19\n      eq\n      tag_10\n      jumpi\n      dup1\n      0x42966c68\n      eq\n      tag_11\n      jumpi\n      dup1\n      0x4e71e0c8\n      eq\n      tag_12\n      jumpi\n      dup1\n      0x5c975abb\n      eq\n      tag_13\n      jumpi\n      dup1\n      0x66188463\n      eq\n      tag_14\n      jumpi\n      dup1\n      0x70a08231\n      eq\n      tag_15\n      jumpi\n      dup1\n      0x715018a6\n      eq\n      tag_16\n      jumpi\n      dup1\n      0x7d64bcb4\n      eq\n      tag_17\n      jumpi\n      dup1\n      0x8456cb59\n      eq\n      tag_18\n      jumpi\n      dup1\n      0x8da5cb5b\n      eq\n      tag_19\n      jumpi\n      dup1\n      0x95d89b41\n      eq\n      tag_20\n      jumpi\n      dup1\n      0xa9059cbb\n      eq\n      tag_21\n      jumpi\n      dup1\n      0xd73dd623\n      eq\n      tag_22\n      jumpi\n      dup1\n      0xdd62ed3e\n      eq\n      tag_23\n      jumpi\n      dup1\n      0xe30c3978\n      eq\n      tag_24\n      jumpi\n      dup1\n      0xf2fde38b\n      eq\n      tag_25\n      jumpi\n    tag_1:\n      0x0\n      dup1\n      revert\n        /* \"contracts/Online/ERC20/WBTC.sol\":10916:10951  bool public mintingFinished = false */\n    tag_2:\n      callvalue\n        /* \"--CODEGEN--\":8:17   */\n      dup1\n        /* \"--CODEGEN--\":5:7   */\n      iszero\n      tag_26\n      jumpi\n        /* \"--CODEGEN--\":30:31   */\n      0x0\n        /* \"--CODEGEN--\":27:28   */\n      dup1\n        /* \"--CODEGEN--\":20:32   */\n      revert\n        /* \"--CODEGEN--\":5:7   */\n    tag_26:\n        /* \"contracts/Online/ERC20/WBTC.sol\":10916:10951  bool public mintingFinished = false */\n      pop\n      tag_27\n      jump(tag_28)\n    tag_27:\n      0x40\n      dup1\n      mload\n      swap2\n      iszero\n      iszero\n      dup3\n      mstore\n      mload\n      swap1\n      dup2\n      swap1\n      sub\n      0x20\n      add\n      swap1\n      return\n        /* \"contracts/Online/ERC20/WBTC.sol\":8481:8499  string public name */\n    tag_3:\n      callvalue\n        /* \"--CODEGEN--\":8:17   */\n      dup1\n        /* \"--CODEGEN--\":5:7   */\n      iszero\n      tag_29\n      jumpi\n        /* \"--CODEGEN--\":30:31   */\n      0x0\n        /* \"--CODEGEN--\":27:28   */\n      dup1\n        /* \"--CODEGEN--\":20:32   */\n      revert\n        /* \"--CODEGEN--\":5:7   */\n    tag_29:\n        /* \"contracts/Online/ERC20/WBTC.sol\":8481:8499  string public name */\n      pop\n      tag_30\n      jump(tag_31)\n    tag_30:\n      0x40\n      dup1\n      mload\n      0x20\n      dup1\n      dup3\n      mstore\n      dup4\n      mload\n      dup2\n      dup4\n      add\n      mstore\n      dup4\n      mload\n      swap2\n      swap3\n      dup4\n      swap3\n      swap1\n      dup4\n      add\n      swap2\n      dup6\n      add\n      swap1\n      dup1\n      dup4\n      dup4\n      0x0\n        /* \"--CODEGEN--\":8:108   */\n    tag_32:\n        /* \"--CODEGEN--\":33:36   */\n      dup4\n        /* \"--CODEGEN--\":30:31   */\n      dup2\n        /* \"--CODEGEN--\":27:37   */\n      lt\n        /* \"--CODEGEN--\":8:108   */\n      iszero\n      tag_33\n      jumpi\n        /* \"--CODEGEN--\":90:101   */\n      dup2\n      dup2\n      add\n        /* \"--CODEGEN--\":84:102   */\n      mload\n        /* \"--CODEGEN--\":71:82   */\n      dup4\n      dup3\n      add\n        /* \"--CODEGEN--\":64:103   */\n      mstore\n        /* \"--CODEGEN--\":52:54   */\n      0x20\n        /* \"--CODEGEN--\":45:55   */\n      add\n        /* \"--CODEGEN--\":8:108   */\n      jump(tag_32)\n    tag_33:\n        /* \"--CODEGEN--\":12:26   */\n      pop\n        /* \"contracts/Online/ERC20/WBTC.sol\":8481:8499  string public name */\n      pop\n      pop\n      pop\n      swap1\n      pop\n      swap1\n      dup2\n      add\n      swap1\n      0x1f\n      and\n      dup1\n      iszero\n      tag_35\n      jumpi\n      dup1\n      dup3\n      sub\n      dup1\n      mload\n      0x1\n      dup4\n      0x20\n      sub\n      0x100\n      exp\n      sub\n      not\n      and\n      dup2\n      mstore\n      0x20\n      add\n      swap2\n      pop\n    tag_35:\n      pop\n      swap3\n      pop\n      pop\n      pop\n      mload(0x40)\n      dup1\n      swap2\n      sub\n      swap1\n      return\n        /* \"contracts/Online/ERC20/WBTC.sol\":14448:14619  function approve(\r... */\n    tag_4:\n      callvalue\n        /* \"--CODEGEN--\":8:17   */\n      dup1\n        /* \"--CODEGEN--\":5:7   */\n      iszero\n      tag_36\n      jumpi\n        /* \"--CODEGEN--\":30:31   */\n      0x0\n        /* \"--CODEGEN--\":27:28   */\n      dup1\n        /* \"--CODEGEN--\":20:32   */\n      revert\n        /* \"--CODEGEN--\":5:7   */\n    tag_36:\n      pop\n        /* \"contracts/Online/ERC20/WBTC.sol\":14448:14619  function approve(\r... */\n      tag_27\n      and(calldataload(0x4), sub(exp(0x2, 0xa0), 0x1))\n      calldataload(0x24)\n      jump(tag_38)\n        /* \"contracts/Online/ERC20/WBTC.sol\":17500:17655  function reclaimToken(ERC20Basic _token) external onlyOwner {\r... */\n    tag_5:\n      callvalue\n        /* \"--CODEGEN--\":8:17   */\n      dup1\n        /* \"--CODEGEN--\":5:7   */\n      iszero\n      tag_39\n      jumpi\n        /* \"--CODEGEN--\":30:31   */\n      0x0\n        /* \"--CODEGEN--\":27:28   */\n      dup1\n        /* \"--CODEGEN--\":20:32   */\n      revert\n        /* \"--CODEGEN--\":5:7   */\n    tag_39:\n      pop\n        /* \"contracts/Online/ERC20/WBTC.sol\":17500:17655  function reclaimToken(ERC20Basic _token) external onlyOwner {\r... */\n      tag_40\n      and(calldataload(0x4), sub(exp(0x2, 0xa0), 0x1))\n      jump(tag_41)\n    tag_40:\n      stop\n        /* \"contracts/Online/ERC20/WBTC.sol\":2437:2522  function totalSupply() public view returns (uint256) {\r... */\n    tag_6:\n      callvalue\n        /* \"--CODEGEN--\":8:17   */\n      dup1\n        /* \"--CODEGEN--\":5:7   */\n      iszero\n      tag_42\n      jumpi\n        /* \"--CODEGEN--\":30:31   */\n      0x0\n        /* \"--CODEGEN--\":27:28   */\n      dup1\n        /* \"--CODEGEN--\":20:32   */\n      revert\n        /* \"--CODEGEN--\":5:7   */\n    tag_42:\n        /* \"contracts/Online/ERC20/WBTC.sol\":2437:2522  function totalSupply() public view returns (uint256) {\r... */\n      pop\n      tag_43\n      jump(tag_44)\n    tag_43:\n      0x40\n      dup1\n      mload\n      swap2\n      dup3\n      mstore\n      mload\n      swap1\n      dup2\n      swap1\n      sub\n      0x20\n      add\n      swap1\n      return\n        /* \"contracts/Online/ERC20/WBTC.sol\":14244:14442  function transferFrom(\r... */\n    tag_7:\n      callvalue\n        /* \"--CODEGEN--\":8:17   */\n      dup1\n        /* \"--CODEGEN--\":5:7   */\n      iszero\n      tag_45\n      jumpi\n        /* \"--CODEGEN--\":30:31   */\n      0x0\n        /* \"--CODEGEN--\":27:28   */\n      dup1\n        /* \"--CODEGEN--\":20:32   */\n      revert\n        /* \"--CODEGEN--\":5:7   */\n    tag_45:\n      pop\n        /* \"contracts/Online/ERC20/WBTC.sol\":14244:14442  function transferFrom(\r... */\n      tag_27\n      sub(exp(0x2, 0xa0), 0x1)\n      calldataload(0x4)\n      dup2\n      and\n      swap1\n      calldataload(0x24)\n      and\n      calldataload(0x44)\n      jump(tag_47)\n        /* \"contracts/Online/ERC20/WBTC.sol\":8529:8550  uint8 public decimals */\n    tag_8:\n      callvalue\n        /* \"--CODEGEN--\":8:17   */\n      dup1\n        /* \"--CODEGEN--\":5:7   */\n      iszero\n      tag_48\n      jumpi\n        /* \"--CODEGEN--\":30:31   */\n      0x0\n        /* \"--CODEGEN--\":27:28   */\n      dup1\n        /* \"--CODEGEN--\":20:32   */\n      revert\n        /* \"--CODEGEN--\":5:7   */\n    tag_48:\n        /* \"contracts/Online/ERC20/WBTC.sol\":8529:8550  uint8 public decimals */\n      pop\n      tag_49\n      jump(tag_50)\n    tag_49:\n      0x40\n      dup1\n      mload\n      0xff\n      swap1\n      swap3\n      and\n      dup3\n      mstore\n      mload\n      swap1\n      dup2\n      swap1\n      sub\n      0x20\n      add\n      swap1\n      return\n        /* \"contracts/Online/ERC20/WBTC.sol\":13748:13843  function unpause() public onlyOwner whenPaused {\r... */\n    tag_9:\n      callvalue\n        /* \"--CODEGEN--\":8:17   */\n      dup1\n        /* \"--CODEGEN--\":5:7   */\n      iszero\n      tag_51\n      jumpi\n        /* \"--CODEGEN--\":30:31   */\n      0x0\n        /* \"--CODEGEN--\":27:28   */\n      dup1\n        /* \"--CODEGEN--\":20:32   */\n      revert\n        /* \"--CODEGEN--\":5:7   */\n    tag_51:\n        /* \"contracts/Online/ERC20/WBTC.sol\":13748:13843  function unpause() public onlyOwner whenPaused {\r... */\n      pop\n      tag_40\n      jump(tag_53)\n        /* \"contracts/Online/ERC20/WBTC.sol\":11353:11679  function mint(\r... */\n    tag_10:\n      callvalue\n        /* \"--CODEGEN--\":8:17   */\n      dup1\n        /* \"--CODEGEN--\":5:7   */\n      iszero\n      tag_54\n      jumpi\n        /* \"--CODEGEN--\":30:31   */\n      0x0\n        /* \"--CODEGEN--\":27:28   */\n      dup1\n        /* \"--CODEGEN--\":20:32   */\n      revert\n        /* \"--CODEGEN--\":5:7   */\n    tag_54:\n      pop\n        /* \"contracts/Online/ERC20/WBTC.sol\":11353:11679  function mint(\r... */\n      tag_27\n      and(calldataload(0x4), sub(exp(0x2, 0xa0), 0x1))\n      calldataload(0x24)\n      jump(tag_56)\n        /* \"contracts/Online/ERC20/WBTC.sol\":18065:18144  function burn(uint value) public onlyOwner {\r... */\n    tag_11:\n      callvalue\n        /* \"--CODEGEN--\":8:17   */\n      dup1\n        /* \"--CODEGEN--\":5:7   */\n      iszero\n      tag_57\n      jumpi\n        /* \"--CODEGEN--\":30:31   */\n      0x0\n        /* \"--CODEGEN--\":27:28   */\n      dup1\n        /* \"--CODEGEN--\":20:32   */\n      revert\n        /* \"--CODEGEN--\":5:7   */\n    tag_57:\n      pop\n        /* \"contracts/Online/ERC20/WBTC.sol\":18065:18144  function burn(uint value) public onlyOwner {\r... */\n      tag_40\n      calldataload(0x4)\n      jump(tag_59)\n        /* \"contracts/Online/ERC20/WBTC.sol\":15879:16047  function claimOwnership() public onlyPendingOwner {\r... */\n    tag_12:\n      callvalue\n        /* \"--CODEGEN--\":8:17   */\n      dup1\n        /* \"--CODEGEN--\":5:7   */\n      iszero\n      tag_60\n      jumpi\n        /* \"--CODEGEN--\":30:31   */\n      0x0\n        /* \"--CODEGEN--\":27:28   */\n      dup1\n        /* \"--CODEGEN--\":20:32   */\n      revert\n        /* \"--CODEGEN--\":5:7   */\n    tag_60:\n        /* \"contracts/Online/ERC20/WBTC.sol\":15879:16047  function claimOwnership() public onlyPendingOwner {\r... */\n      pop\n      tag_40\n      jump(tag_62)\n        /* \"contracts/Online/ERC20/WBTC.sol\":13127:13153  bool public paused = false */\n    tag_13:\n      callvalue\n        /* \"--CODEGEN--\":8:17   */\n      dup1\n        /* \"--CODEGEN--\":5:7   */\n      iszero\n      tag_63\n      jumpi\n        /* \"--CODEGEN--\":30:31   */\n      0x0\n        /* \"--CODEGEN--\":27:28   */\n      dup1\n        /* \"--CODEGEN--\":20:32   */\n      revert\n        /* \"--CODEGEN--\":5:7   */\n    tag_63:\n        /* \"contracts/Online/ERC20/WBTC.sol\":13127:13153  bool public paused = false */\n      pop\n      tag_27\n      jump(tag_65)\n        /* \"contracts/Online/ERC20/WBTC.sol\":14835:15049  function decreaseApproval(\r... */\n    tag_14:\n      callvalue\n        /* \"--CODEGEN--\":8:17   */\n      dup1\n        /* \"--CODEGEN--\":5:7   */\n      iszero\n      tag_66\n      jumpi\n        /* \"--CODEGEN--\":30:31   */\n      0x0\n        /* \"--CODEGEN--\":27:28   */\n      dup1\n        /* \"--CODEGEN--\":20:32   */\n      revert\n        /* \"--CODEGEN--\":5:7   */\n    tag_66:\n      pop\n        /* \"contracts/Online/ERC20/WBTC.sol\":14835:15049  function decreaseApproval(\r... */\n      tag_27\n      and(calldataload(0x4), sub(exp(0x2, 0xa0), 0x1))\n      calldataload(0x24)\n      jump(tag_68)\n        /* \"contracts/Online/ERC20/WBTC.sol\":3221:3322  function balanceOf(address _owner) public view returns (uint256) {\r... */\n    tag_15:\n      callvalue\n        /* \"--CODEGEN--\":8:17   */\n      dup1\n        /* \"--CODEGEN--\":5:7   */\n      iszero\n      tag_69\n      jumpi\n        /* \"--CODEGEN--\":30:31   */\n      0x0\n        /* \"--CODEGEN--\":27:28   */\n      dup1\n        /* \"--CODEGEN--\":20:32   */\n      revert\n        /* \"--CODEGEN--\":5:7   */\n    tag_69:\n      pop\n        /* \"contracts/Online/ERC20/WBTC.sol\":3221:3322  function balanceOf(address _owner) public view returns (uint256) {\r... */\n      tag_43\n      and(calldataload(0x4), sub(exp(0x2, 0xa0), 0x1))\n      jump(tag_71)\n        /* \"contracts/Online/ERC20/WBTC.sol\":18248:18354  function renounceOwnership() public onlyOwner {\r... */\n    tag_16:\n      callvalue\n        /* \"--CODEGEN--\":8:17   */\n      dup1\n        /* \"--CODEGEN--\":5:7   */\n      iszero\n      tag_72\n      jumpi\n        /* \"--CODEGEN--\":30:31   */\n      0x0\n        /* \"--CODEGEN--\":27:28   */\n      dup1\n        /* \"--CODEGEN--\":20:32   */\n      revert\n        /* \"--CODEGEN--\":5:7   */\n    tag_72:\n        /* \"contracts/Online/ERC20/WBTC.sol\":18248:18354  function renounceOwnership() public onlyOwner {\r... */\n      pop\n      tag_40\n      jump(tag_74)\n        /* \"contracts/Online/ERC20/WBTC.sol\":18152:18240  function finishMinting() public onlyOwner returns (bool) {\r... */\n    tag_17:\n      callvalue\n        /* \"--CODEGEN--\":8:17   */\n      dup1\n        /* \"--CODEGEN--\":5:7   */\n      iszero\n      tag_75\n      jumpi\n        /* \"--CODEGEN--\":30:31   */\n      0x0\n        /* \"--CODEGEN--\":27:28   */\n      dup1\n        /* \"--CODEGEN--\":20:32   */\n      revert\n        /* \"--CODEGEN--\":5:7   */\n    tag_75:\n        /* \"contracts/Online/ERC20/WBTC.sol\":18152:18240  function finishMinting() public onlyOwner returns (bool) {\r... */\n      pop\n      tag_27\n      jump(tag_77)\n        /* \"contracts/Online/ERC20/WBTC.sol\":13568:13661  function pause() public onlyOwner whenNotPaused {\r... */\n    tag_18:\n      callvalue\n        /* \"--CODEGEN--\":8:17   */\n      dup1\n        /* \"--CODEGEN--\":5:7   */\n      iszero\n      tag_78\n      jumpi\n        /* \"--CODEGEN--\":30:31   */\n      0x0\n        /* \"--CODEGEN--\":27:28   */\n      dup1\n        /* \"--CODEGEN--\":20:32   */\n      revert\n        /* \"--CODEGEN--\":5:7   */\n    tag_78:\n        /* \"contracts/Online/ERC20/WBTC.sol\":13568:13661  function pause() public onlyOwner whenNotPaused {\r... */\n      pop\n      tag_40\n      jump(tag_80)\n        /* \"contracts/Online/ERC20/WBTC.sol\":8988:9008  address public owner */\n    tag_19:\n      callvalue\n        /* \"--CODEGEN--\":8:17   */\n      dup1\n        /* \"--CODEGEN--\":5:7   */\n      iszero\n      tag_81\n      jumpi\n        /* \"--CODEGEN--\":30:31   */\n      0x0\n        /* \"--CODEGEN--\":27:28   */\n      dup1\n        /* \"--CODEGEN--\":20:32   */\n      revert\n        /* \"--CODEGEN--\":5:7   */\n    tag_81:\n        /* \"contracts/Online/ERC20/WBTC.sol\":8988:9008  address public owner */\n      pop\n      tag_82\n      jump(tag_83)\n    tag_82:\n      0x40\n      dup1\n      mload\n      sub(exp(0x2, 0xa0), 0x1)\n      swap1\n      swap3\n      and\n      dup3\n      mstore\n      mload\n      swap1\n      dup2\n      swap1\n      sub\n      0x20\n      add\n      swap1\n      return\n        /* \"contracts/Online/ERC20/WBTC.sol\":8504:8524  string public symbol */\n    tag_20:\n      callvalue\n        /* \"--CODEGEN--\":8:17   */\n      dup1\n        /* \"--CODEGEN--\":5:7   */\n      iszero\n      tag_84\n      jumpi\n        /* \"--CODEGEN--\":30:31   */\n      0x0\n        /* \"--CODEGEN--\":27:28   */\n      dup1\n        /* \"--CODEGEN--\":20:32   */\n      revert\n        /* \"--CODEGEN--\":5:7   */\n    tag_84:\n        /* \"contracts/Online/ERC20/WBTC.sol\":8504:8524  string public symbol */\n      pop\n      tag_30\n      jump(tag_86)\n        /* \"contracts/Online/ERC20/WBTC.sol\":14075:14238  function transfer(\r... */\n    tag_21:\n      callvalue\n        /* \"--CODEGEN--\":8:17   */\n      dup1\n        /* \"--CODEGEN--\":5:7   */\n      iszero\n      tag_91\n      jumpi\n        /* \"--CODEGEN--\":30:31   */\n      0x0\n        /* \"--CODEGEN--\":27:28   */\n      dup1\n        /* \"--CODEGEN--\":20:32   */\n      revert\n        /* \"--CODEGEN--\":5:7   */\n    tag_91:\n      pop\n        /* \"contracts/Online/ERC20/WBTC.sol\":14075:14238  function transfer(\r... */\n      tag_27\n      and(calldataload(0x4), sub(exp(0x2, 0xa0), 0x1))\n      calldataload(0x24)\n      jump(tag_93)\n        /* \"contracts/Online/ERC20/WBTC.sol\":14625:14829  function increaseApproval(\r... */\n    tag_22:\n      callvalue\n        /* \"--CODEGEN--\":8:17   */\n      dup1\n        /* \"--CODEGEN--\":5:7   */\n      iszero\n      tag_94\n      jumpi\n        /* \"--CODEGEN--\":30:31   */\n      0x0\n        /* \"--CODEGEN--\":27:28   */\n      dup1\n        /* \"--CODEGEN--\":20:32   */\n      revert\n        /* \"--CODEGEN--\":5:7   */\n    tag_94:\n      pop\n        /* \"contracts/Online/ERC20/WBTC.sol\":14625:14829  function increaseApproval(\r... */\n      tag_27\n      and(calldataload(0x4), sub(exp(0x2, 0xa0), 0x1))\n      calldataload(0x24)\n      jump(tag_96)\n        /* \"contracts/Online/ERC20/WBTC.sol\":6275:6437  function allowance(\r... */\n    tag_23:\n      callvalue\n        /* \"--CODEGEN--\":8:17   */\n      dup1\n        /* \"--CODEGEN--\":5:7   */\n      iszero\n      tag_97\n      jumpi\n        /* \"--CODEGEN--\":30:31   */\n      0x0\n        /* \"--CODEGEN--\":27:28   */\n      dup1\n        /* \"--CODEGEN--\":20:32   */\n      revert\n        /* \"--CODEGEN--\":5:7   */\n    tag_97:\n      pop\n        /* \"contracts/Online/ERC20/WBTC.sol\":6275:6437  function allowance(\r... */\n      tag_43\n      sub(exp(0x2, 0xa0), 0x1)\n      calldataload(0x4)\n      dup2\n      and\n      swap1\n      calldataload(0x24)\n      and\n      jump(tag_99)\n        /* \"contracts/Online/ERC20/WBTC.sol\":15330:15357  address public pendingOwner */\n    tag_24:\n      callvalue\n        /* \"--CODEGEN--\":8:17   */\n      dup1\n        /* \"--CODEGEN--\":5:7   */\n      iszero\n      tag_100\n      jumpi\n        /* \"--CODEGEN--\":30:31   */\n      0x0\n        /* \"--CODEGEN--\":27:28   */\n      dup1\n        /* \"--CODEGEN--\":20:32   */\n      revert\n        /* \"--CODEGEN--\":5:7   */\n    tag_100:\n        /* \"contracts/Online/ERC20/WBTC.sol\":15330:15357  address public pendingOwner */\n      pop\n      tag_82\n      jump(tag_102)\n        /* \"contracts/Online/ERC20/WBTC.sol\":15692:15790  function transferOwnership(address newOwner) public onlyOwner {\r... */\n    tag_25:\n      callvalue\n        /* \"--CODEGEN--\":8:17   */\n      dup1\n        /* \"--CODEGEN--\":5:7   */\n      iszero\n      tag_103\n      jumpi\n        /* \"--CODEGEN--\":30:31   */\n      0x0\n        /* \"--CODEGEN--\":27:28   */\n      dup1\n        /* \"--CODEGEN--\":20:32   */\n      revert\n        /* \"--CODEGEN--\":5:7   */\n    tag_103:\n      pop\n        /* \"contracts/Online/ERC20/WBTC.sol\":15692:15790  function transferOwnership(address newOwner) public onlyOwner {\r... */\n      tag_40\n      and(calldataload(0x4), sub(exp(0x2, 0xa0), 0x1))\n      jump(tag_105)\n        /* \"contracts/Online/ERC20/WBTC.sol\":10916:10951  bool public mintingFinished = false */\n    tag_28:\n      sload(0x5)\n      0x1000000000000000000000000000000000000000000\n      swap1\n      div\n      0xff\n      and\n      dup2\n      jump\t// out\n        /* \"contracts/Online/ERC20/WBTC.sol\":8481:8499  string public name */\n    tag_31:\n      0x3\n      dup1\n      sload\n      0x40\n      dup1\n      mload\n      0x20\n      0x2\n      0x1\n      dup6\n      and\n      iszero\n      0x100\n      mul\n      not(0x0)\n      add\n      swap1\n      swap5\n      and\n      swap4\n      swap1\n      swap4\n      div\n      0x1f\n      dup2\n      add\n      dup5\n      swap1\n      div\n      dup5\n      mul\n      dup3\n      add\n      dup5\n      add\n      swap1\n      swap3\n      mstore\n      dup2\n      dup2\n      mstore\n      swap3\n      swap2\n      dup4\n      add\n      dup3\n      dup3\n      dup1\n      iszero\n      tag_106\n      jumpi\n      dup1\n      0x1f\n      lt\n      tag_107\n      jumpi\n      0x100\n      dup1\n      dup4\n      sload\n      div\n      mul\n      dup4\n      mstore\n      swap2\n      0x20\n      add\n      swap2\n      jump(tag_106)\n    tag_107:\n      dup3\n      add\n      swap2\n      swap1\n      0x0\n      mstore\n      keccak256(0x0, 0x20)\n      swap1\n    tag_108:\n      dup2\n      sload\n      dup2\n      mstore\n      swap1\n      0x1\n      add\n      swap1\n      0x20\n      add\n      dup1\n      dup4\n      gt\n      tag_108\n      jumpi\n      dup3\n      swap1\n      sub\n      0x1f\n      and\n      dup3\n      add\n      swap2\n    tag_106:\n      pop\n      pop\n      pop\n      pop\n      pop\n      dup2\n      jump\t// out\n        /* \"contracts/Online/ERC20/WBTC.sol\":14448:14619  function approve(\r... */\n    tag_38:\n        /* \"contracts/Online/ERC20/WBTC.sol\":13303:13309  paused */\n      sload(0x5)\n        /* \"contracts/Online/ERC20/WBTC.sol\":14559:14563  bool */\n      0x0\n      swap1\n      exp(0x2, 0xb0)\n        /* \"contracts/Online/ERC20/WBTC.sol\":13303:13309  paused */\n      swap1\n      div\n      0xff\n      and\n        /* \"contracts/Online/ERC20/WBTC.sol\":13302:13309  !paused */\n      iszero\n        /* \"contracts/Online/ERC20/WBTC.sol\":13294:13310  require(!paused) */\n      tag_110\n      jumpi\n      0x0\n      dup1\n      revert\n    tag_110:\n        /* \"contracts/Online/ERC20/WBTC.sol\":14582:14613  super.approve(_spender, _value) */\n      tag_112\n        /* \"contracts/Online/ERC20/WBTC.sol\":14596:14604  _spender */\n      dup4\n        /* \"contracts/Online/ERC20/WBTC.sol\":14606:14612  _value */\n      dup4\n        /* \"contracts/Online/ERC20/WBTC.sol\":14582:14595  super.approve */\n      tag_113\n        /* \"contracts/Online/ERC20/WBTC.sol\":14582:14613  super.approve(_spender, _value) */\n      jump\t// in\n    tag_112:\n        /* \"contracts/Online/ERC20/WBTC.sol\":14575:14613  return super.approve(_spender, _value) */\n      swap4\n        /* \"contracts/Online/ERC20/WBTC.sol\":14448:14619  function approve(\r... */\n      swap3\n      pop\n      pop\n      pop\n      jump\t// out\n        /* \"contracts/Online/ERC20/WBTC.sol\":17500:17655  function reclaimToken(ERC20Basic _token) external onlyOwner {\r... */\n    tag_41:\n        /* \"contracts/Online/ERC20/WBTC.sol\":9491:9496  owner */\n      sload(0x5)\n        /* \"contracts/Online/ERC20/WBTC.sol\":17567:17582  uint256 balance */\n      0x0\n      swap1\n        /* \"contracts/Online/ERC20/WBTC.sol\":9491:9496  owner */\n      0x100\n      swap1\n      div\n      sub(exp(0x2, 0xa0), 0x1)\n      and\n        /* \"contracts/Online/ERC20/WBTC.sol\":9477:9487  msg.sender */\n      caller\n        /* \"contracts/Online/ERC20/WBTC.sol\":9477:9496  msg.sender == owner */\n      eq\n        /* \"contracts/Online/ERC20/WBTC.sol\":9469:9497  require(msg.sender == owner) */\n      tag_115\n      jumpi\n      0x0\n      dup1\n      revert\n    tag_115:\n        /* \"contracts/Online/ERC20/WBTC.sol\":17585:17607  _token.balanceOf(this) */\n      0x40\n      dup1\n      mload\n      0x70a0823100000000000000000000000000000000000000000000000000000000\n      dup2\n      mstore\n        /* \"contracts/Online/ERC20/WBTC.sol\":17602:17606  this */\n      address\n        /* \"contracts/Online/ERC20/WBTC.sol\":17585:17607  _token.balanceOf(this) */\n      0x4\n      dup3\n      add\n      mstore\n      swap1\n      mload\n      sub(exp(0x2, 0xa0), 0x1)\n        /* \"contracts/Online/ERC20/WBTC.sol\":17585:17601  _token.balanceOf */\n      dup5\n      and\n      swap2\n      0x70a08231\n      swap2\n        /* \"contracts/Online/ERC20/WBTC.sol\":17585:17607  _token.balanceOf(this) */\n      0x24\n      dup1\n      dup4\n      add\n      swap3\n      0x20\n      swap3\n      swap2\n      swap1\n      dup3\n      swap1\n      sub\n      add\n      dup2\n      0x0\n        /* \"contracts/Online/ERC20/WBTC.sol\":17585:17601  _token.balanceOf */\n      dup8\n        /* \"contracts/Online/ERC20/WBTC.sol\":17585:17607  _token.balanceOf(this) */\n      dup1\n      extcodesize\n      iszero\n        /* \"--CODEGEN--\":5:7   */\n      dup1\n      iszero\n      tag_117\n      jumpi\n        /* \"--CODEGEN--\":30:31   */\n      0x0\n        /* \"--CODEGEN--\":27:28   */\n      dup1\n        /* \"--CODEGEN--\":20:32   */\n      revert\n        /* \"--CODEGEN--\":5:7   */\n    tag_117:\n        /* \"contracts/Online/ERC20/WBTC.sol\":17585:17607  _token.balanceOf(this) */\n      pop\n      gas\n      call\n      iszero\n        /* \"--CODEGEN--\":8:17   */\n      dup1\n        /* \"--CODEGEN--\":5:7   */\n      iszero\n      tag_118\n      jumpi\n        /* \"--CODEGEN--\":45:61   */\n      returndatasize\n        /* \"--CODEGEN--\":42:43   */\n      0x0\n        /* \"--CODEGEN--\":39:40   */\n      dup1\n        /* \"--CODEGEN--\":24:62   */\n      returndatacopy\n        /* \"--CODEGEN--\":77:93   */\n      returndatasize\n        /* \"--CODEGEN--\":74:75   */\n      0x0\n        /* \"--CODEGEN--\":67:94   */\n      revert\n        /* \"--CODEGEN--\":5:7   */\n    tag_118:\n        /* \"contracts/Online/ERC20/WBTC.sol\":17585:17607  _token.balanceOf(this) */\n      pop\n      pop\n      pop\n      pop\n      mload(0x40)\n      returndatasize\n        /* \"--CODEGEN--\":13:15   */\n      0x20\n        /* \"--CODEGEN--\":8:11   */\n      dup2\n        /* \"--CODEGEN--\":5:16   */\n      lt\n        /* \"--CODEGEN--\":2:4   */\n      iszero\n      tag_119\n      jumpi\n        /* \"--CODEGEN--\":29:30   */\n      0x0\n        /* \"--CODEGEN--\":26:27   */\n      dup1\n        /* \"--CODEGEN--\":19:31   */\n      revert\n        /* \"--CODEGEN--\":2:4   */\n    tag_119:\n      pop\n        /* \"contracts/Online/ERC20/WBTC.sol\":17585:17607  _token.balanceOf(this) */\n      mload\n        /* \"contracts/Online/ERC20/WBTC.sol\":17634:17639  owner */\n      sload(0x5)\n        /* \"contracts/Online/ERC20/WBTC.sol\":17585:17607  _token.balanceOf(this) */\n      swap1\n      swap2\n      pop\n        /* \"contracts/Online/ERC20/WBTC.sol\":17614:17649  _token.safeTransfer(owner, balance) */\n      tag_120\n      swap1\n      sub(exp(0x2, 0xa0), 0x1)\n        /* \"contracts/Online/ERC20/WBTC.sol\":17614:17633  _token.safeTransfer */\n      dup5\n      dup2\n      and\n      swap2\n        /* \"contracts/Online/ERC20/WBTC.sol\":17634:17639  owner */\n      0x100\n      swap1\n      div\n      and\n        /* \"contracts/Online/ERC20/WBTC.sol\":17585:17607  _token.balanceOf(this) */\n      dup4\n        /* \"contracts/Online/ERC20/WBTC.sol\":17614:17649  _token.safeTransfer(owner, balance) */\n      0xffffffff\n        /* \"contracts/Online/ERC20/WBTC.sol\":17614:17633  _token.safeTransfer */\n      tag_121\n        /* \"contracts/Online/ERC20/WBTC.sol\":17614:17649  _token.safeTransfer(owner, balance) */\n      and\n      jump\t// in\n    tag_120:\n        /* \"contracts/Online/ERC20/WBTC.sol\":17500:17655  function reclaimToken(ERC20Basic _token) external onlyOwner {\r... */\n      pop\n      pop\n      jump\t// out\n        /* \"contracts/Online/ERC20/WBTC.sol\":2437:2522  function totalSupply() public view returns (uint256) {\r... */\n    tag_44:\n        /* \"contracts/Online/ERC20/WBTC.sol\":2504:2516  totalSupply_ */\n      sload(0x1)\n        /* \"contracts/Online/ERC20/WBTC.sol\":2437:2522  function totalSupply() public view returns (uint256) {\r... */\n      swap1\n      jump\t// out\n        /* \"contracts/Online/ERC20/WBTC.sol\":14244:14442  function transferFrom(\r... */\n    tag_47:\n        /* \"contracts/Online/ERC20/WBTC.sol\":13303:13309  paused */\n      sload(0x5)\n        /* \"contracts/Online/ERC20/WBTC.sol\":14375:14379  bool */\n      0x0\n      swap1\n      exp(0x2, 0xb0)\n        /* \"contracts/Online/ERC20/WBTC.sol\":13303:13309  paused */\n      swap1\n      div\n      0xff\n      and\n        /* \"contracts/Online/ERC20/WBTC.sol\":13302:13309  !paused */\n      iszero\n        /* \"contracts/Online/ERC20/WBTC.sol\":13294:13310  require(!paused) */\n      tag_124\n      jumpi\n      0x0\n      dup1\n      revert\n    tag_124:\n        /* \"contracts/Online/ERC20/WBTC.sol\":14398:14436  super.transferFrom(_from, _to, _value) */\n      tag_126\n        /* \"contracts/Online/ERC20/WBTC.sol\":14417:14422  _from */\n      dup5\n        /* \"contracts/Online/ERC20/WBTC.sol\":14424:14427  _to */\n      dup5\n        /* \"contracts/Online/ERC20/WBTC.sol\":14429:14435  _value */\n      dup5\n        /* \"contracts/Online/ERC20/WBTC.sol\":14398:14416  super.transferFrom */\n      tag_127\n        /* \"contracts/Online/ERC20/WBTC.sol\":14398:14436  super.transferFrom(_from, _to, _value) */\n      jump\t// in\n    tag_126:\n        /* \"contracts/Online/ERC20/WBTC.sol\":14391:14436  return super.transferFrom(_from, _to, _value) */\n      swap5\n        /* \"contracts/Online/ERC20/WBTC.sol\":14244:14442  function transferFrom(\r... */\n      swap4\n      pop\n      pop\n      pop\n      pop\n      jump\t// out\n        /* \"contracts/Online/ERC20/WBTC.sol\":8529:8550  uint8 public decimals */\n    tag_50:\n      and(0xff, sload(0x5))\n      dup2\n      jump\t// out\n        /* \"contracts/Online/ERC20/WBTC.sol\":13748:13843  function unpause() public onlyOwner whenPaused {\r... */\n    tag_53:\n        /* \"contracts/Online/ERC20/WBTC.sol\":9491:9496  owner */\n      sload(0x5)\n      0x100\n      swap1\n      div\n      sub(exp(0x2, 0xa0), 0x1)\n      and\n        /* \"contracts/Online/ERC20/WBTC.sol\":9477:9487  msg.sender */\n      caller\n        /* \"contracts/Online/ERC20/WBTC.sol\":9477:9496  msg.sender == owner */\n      eq\n        /* \"contracts/Online/ERC20/WBTC.sol\":9469:9497  require(msg.sender == owner) */\n      tag_129\n      jumpi\n      0x0\n      dup1\n      revert\n    tag_129:\n        /* \"contracts/Online/ERC20/WBTC.sol\":13463:13469  paused */\n      sload(0x5)\n      exp(0x2, 0xb0)\n      swap1\n      div\n      0xff\n      and\n        /* \"contracts/Online/ERC20/WBTC.sol\":13455:13470  require(paused) */\n      iszero\n      iszero\n      tag_131\n      jumpi\n      0x0\n      dup1\n      revert\n    tag_131:\n        /* \"contracts/Online/ERC20/WBTC.sol\":13802:13808  paused */\n      0x5\n        /* \"contracts/Online/ERC20/WBTC.sol\":13802:13816  paused = false */\n      dup1\n      sload\n      not(0xff00000000000000000000000000000000000000000000)\n      and\n      swap1\n      sstore\n        /* \"contracts/Online/ERC20/WBTC.sol\":13828:13837  Unpause() */\n      mload(0x40)\n      0x7805862f689e2f13df9f062ff482ad3ad112aca9e0847911ed832e158c525b33\n      swap1\n        /* \"contracts/Online/ERC20/WBTC.sol\":13811:13816  false */\n      0x0\n      swap1\n        /* \"contracts/Online/ERC20/WBTC.sol\":13828:13837  Unpause() */\n      log1\n        /* \"contracts/Online/ERC20/WBTC.sol\":13748:13843  function unpause() public onlyOwner whenPaused {\r... */\n      jump\t// out\n        /* \"contracts/Online/ERC20/WBTC.sol\":11353:11679  function mint(\r... */\n    tag_56:\n        /* \"contracts/Online/ERC20/WBTC.sol\":11089:11094  owner */\n      sload(0x5)\n        /* \"contracts/Online/ERC20/WBTC.sol\":11474:11478  bool */\n      0x0\n      swap1\n        /* \"contracts/Online/ERC20/WBTC.sol\":11089:11094  owner */\n      0x100\n      swap1\n      div\n      sub(exp(0x2, 0xa0), 0x1)\n      and\n        /* \"contracts/Online/ERC20/WBTC.sol\":11075:11085  msg.sender */\n      caller\n        /* \"contracts/Online/ERC20/WBTC.sol\":11075:11094  msg.sender == owner */\n      eq\n        /* \"contracts/Online/ERC20/WBTC.sol\":11067:11095  require(msg.sender == owner) */\n      tag_134\n      jumpi\n      0x0\n      dup1\n      revert\n    tag_134:\n        /* \"contracts/Online/ERC20/WBTC.sol\":10995:11010  mintingFinished */\n      sload(0x5)\n      0x1000000000000000000000000000000000000000000\n      swap1\n      div\n      0xff\n      and\n        /* \"contracts/Online/ERC20/WBTC.sol\":10994:11010  !mintingFinished */\n      iszero\n        /* \"contracts/Online/ERC20/WBTC.sol\":10986:11011  require(!mintingFinished) */\n      tag_136\n      jumpi\n      0x0\n      dup1\n      revert\n    tag_136:\n        /* \"contracts/Online/ERC20/WBTC.sol\":11505:11517  totalSupply_ */\n      sload(0x1)\n        /* \"contracts/Online/ERC20/WBTC.sol\":11505:11530  totalSupply_.add(_amount) */\n      tag_138\n      swap1\n        /* \"contracts/Online/ERC20/WBTC.sol\":11522:11529  _amount */\n      dup4\n        /* \"contracts/Online/ERC20/WBTC.sol\":11505:11530  totalSupply_.add(_amount) */\n      0xffffffff\n        /* \"contracts/Online/ERC20/WBTC.sol\":11505:11521  totalSupply_.add */\n      tag_139\n        /* \"contracts/Online/ERC20/WBTC.sol\":11505:11530  totalSupply_.add(_amount) */\n      and\n      jump\t// in\n    tag_138:\n        /* \"contracts/Online/ERC20/WBTC.sol\":11490:11502  totalSupply_ */\n      0x1\n        /* \"contracts/Online/ERC20/WBTC.sol\":11490:11530  totalSupply_ = totalSupply_.add(_amount) */\n      sstore\n      sub(exp(0x2, 0xa0), 0x1)\n        /* \"contracts/Online/ERC20/WBTC.sol\":11553:11566  balances[_to] */\n      dup4\n      and\n        /* \"contracts/Online/ERC20/WBTC.sol\":11553:11561  balances */\n      0x0\n        /* \"contracts/Online/ERC20/WBTC.sol\":11553:11566  balances[_to] */\n      swap1\n      dup2\n      mstore\n      0x20\n      dup2\n      swap1\n      mstore\n      0x40\n      swap1\n      keccak256\n      sload\n        /* \"contracts/Online/ERC20/WBTC.sol\":11553:11579  balances[_to].add(_amount) */\n      tag_140\n      swap1\n        /* \"contracts/Online/ERC20/WBTC.sol\":11571:11578  _amount */\n      dup4\n        /* \"contracts/Online/ERC20/WBTC.sol\":11553:11579  balances[_to].add(_amount) */\n      0xffffffff\n        /* \"contracts/Online/ERC20/WBTC.sol\":11553:11570  balances[_to].add */\n      tag_139\n        /* \"contracts/Online/ERC20/WBTC.sol\":11553:11579  balances[_to].add(_amount) */\n      and\n      jump\t// in\n    tag_140:\n      sub(exp(0x2, 0xa0), 0x1)\n        /* \"contracts/Online/ERC20/WBTC.sol\":11537:11550  balances[_to] */\n      dup5\n      and\n        /* \"contracts/Online/ERC20/WBTC.sol\":11537:11545  balances */\n      0x0\n        /* \"contracts/Online/ERC20/WBTC.sol\":11537:11550  balances[_to] */\n      dup2\n      dup2\n      mstore\n      0x20\n      dup2\n      dup2\n      mstore\n      0x40\n      swap2\n      dup3\n      swap1\n      keccak256\n        /* \"contracts/Online/ERC20/WBTC.sol\":11537:11579  balances[_to] = balances[_to].add(_amount) */\n      swap4\n      swap1\n      swap4\n      sstore\n        /* \"contracts/Online/ERC20/WBTC.sol\":11591:11609  Mint(_to, _amount) */\n      dup1\n      mload\n      dup6\n      dup2\n      mstore\n      swap1\n      mload\n        /* \"contracts/Online/ERC20/WBTC.sol\":11537:11550  balances[_to] */\n      swap2\n      swap3\n        /* \"contracts/Online/ERC20/WBTC.sol\":11591:11609  Mint(_to, _amount) */\n      0xf6798a560793a54c3bcfe86a93cde1e73087d944c0ea20544137d4121396885\n      swap3\n      swap2\n      dup3\n      swap1\n      sub\n      add\n      swap1\n      log2\n        /* \"contracts/Online/ERC20/WBTC.sol\":11621:11655  Transfer(address(0), _to, _amount) */\n      0x40\n      dup1\n      mload\n      dup4\n      dup2\n      mstore\n      swap1\n      mload\n      sub(exp(0x2, 0xa0), 0x1)\n      dup6\n      and\n      swap2\n        /* \"contracts/Online/ERC20/WBTC.sol\":11638:11639  0 */\n      0x0\n      swap2\n      0x0\n      dup1\n      mload\n      0x20\n      data_ada389e1fc24a8587c776340efb91b36e675792ab631816100d55df0b5cf3cbc\n      dup4\n      codecopy\n      dup2\n      mload\n      swap2\n      mstore\n        /* \"contracts/Online/ERC20/WBTC.sol\":11621:11655  Transfer(address(0), _to, _amount) */\n      swap2\n      dup2\n      swap1\n      sub\n      0x20\n      add\n      swap1\n      log3\n      pop\n        /* \"contracts/Online/ERC20/WBTC.sol\":11669:11673  true */\n      0x1\n        /* \"contracts/Online/ERC20/WBTC.sol\":11353:11679  function mint(\r... */\n      swap3\n      swap2\n      pop\n      pop\n      jump\t// out\n        /* \"contracts/Online/ERC20/WBTC.sol\":18065:18144  function burn(uint value) public onlyOwner {\r... */\n    tag_59:\n        /* \"contracts/Online/ERC20/WBTC.sol\":9491:9496  owner */\n      sload(0x5)\n      0x100\n      swap1\n      div\n      sub(exp(0x2, 0xa0), 0x1)\n      and\n        /* \"contracts/Online/ERC20/WBTC.sol\":9477:9487  msg.sender */\n      caller\n        /* \"contracts/Online/ERC20/WBTC.sol\":9477:9496  msg.sender == owner */\n      eq\n        /* \"contracts/Online/ERC20/WBTC.sol\":9469:9497  require(msg.sender == owner) */\n      tag_142\n      jumpi\n      0x0\n      dup1\n      revert\n    tag_142:\n        /* \"contracts/Online/ERC20/WBTC.sol\":18119:18136  super.burn(value) */\n      tag_144\n        /* \"contracts/Online/ERC20/WBTC.sol\":18130:18135  value */\n      dup2\n        /* \"contracts/Online/ERC20/WBTC.sol\":18119:18129  super.burn */\n      tag_145\n        /* \"contracts/Online/ERC20/WBTC.sol\":18119:18136  super.burn(value) */\n      jump\t// in\n    tag_144:\n        /* \"contracts/Online/ERC20/WBTC.sol\":18065:18144  function burn(uint value) public onlyOwner {\r... */\n      pop\n      jump\t// out\n        /* \"contracts/Online/ERC20/WBTC.sol\":15879:16047  function claimOwnership() public onlyPendingOwner {\r... */\n    tag_62:\n        /* \"contracts/Online/ERC20/WBTC.sol\":15516:15528  pendingOwner */\n      and(sub(exp(0x2, 0xa0), 0x1), sload(0x6))\n        /* \"contracts/Online/ERC20/WBTC.sol\":15502:15512  msg.sender */\n      caller\n        /* \"contracts/Online/ERC20/WBTC.sol\":15502:15528  msg.sender == pendingOwner */\n      eq\n        /* \"contracts/Online/ERC20/WBTC.sol\":15494:15529  require(msg.sender == pendingOwner) */\n      tag_147\n      jumpi\n      0x0\n      dup1\n      revert\n    tag_147:\n        /* \"contracts/Online/ERC20/WBTC.sol\":15969:15981  pendingOwner */\n      sload(0x6)\n        /* \"contracts/Online/ERC20/WBTC.sol\":15962:15967  owner */\n      sload(0x5)\n        /* \"contracts/Online/ERC20/WBTC.sol\":15941:15982  OwnershipTransferred(owner, pendingOwner) */\n      mload(0x40)\n      sub(exp(0x2, 0xa0), 0x1)\n        /* \"contracts/Online/ERC20/WBTC.sol\":15969:15981  pendingOwner */\n      swap3\n      dup4\n      and\n      swap3\n      0x100\n        /* \"contracts/Online/ERC20/WBTC.sol\":15962:15967  owner */\n      swap1\n      swap3\n      div\n      swap1\n      swap2\n      and\n      swap1\n        /* \"contracts/Online/ERC20/WBTC.sol\":15941:15982  OwnershipTransferred(owner, pendingOwner) */\n      0x8be0079c531659141344cd1fd0a4f28419497f9722a3daafe3b4186f6b6457e0\n      swap1\n        /* \"contracts/Online/ERC20/WBTC.sol\":15969:15981  pendingOwner */\n      0x0\n      swap1\n        /* \"contracts/Online/ERC20/WBTC.sol\":15941:15982  OwnershipTransferred(owner, pendingOwner) */\n      log3\n        /* \"contracts/Online/ERC20/WBTC.sol\":15997:16009  pendingOwner */\n      0x6\n      dup1\n      sload\n        /* \"contracts/Online/ERC20/WBTC.sol\":15989:15994  owner */\n      0x5\n        /* \"contracts/Online/ERC20/WBTC.sol\":15989:16009  owner = pendingOwner */\n      dup1\n      sload\n      not(0xffffffffffffffffffffffffffffffffffffffff00)\n      and\n        /* \"contracts/Online/ERC20/WBTC.sol\":15997:16009  pendingOwner */\n      0x100\n      sub(exp(0x2, 0xa0), 0x1)\n      dup5\n      and\n        /* \"contracts/Online/ERC20/WBTC.sol\":15989:16009  owner = pendingOwner */\n      mul\n      or\n      swap1\n      sstore\n      not(0xffffffffffffffffffffffffffffffffffffffff)\n        /* \"contracts/Online/ERC20/WBTC.sol\":16016:16041  pendingOwner = address(0) */\n      and\n      swap1\n      sstore\n        /* \"contracts/Online/ERC20/WBTC.sol\":15879:16047  function claimOwnership() public onlyPendingOwner {\r... */\n      jump\t// out\n        /* \"contracts/Online/ERC20/WBTC.sol\":13127:13153  bool public paused = false */\n    tag_65:\n      sload(0x5)\n      exp(0x2, 0xb0)\n      swap1\n      div\n      0xff\n      and\n      dup2\n      jump\t// out\n        /* \"contracts/Online/ERC20/WBTC.sol\":14835:15049  function decreaseApproval(\r... */\n    tag_68:\n        /* \"contracts/Online/ERC20/WBTC.sol\":13303:13309  paused */\n      sload(0x5)\n        /* \"contracts/Online/ERC20/WBTC.sol\":14962:14974  bool success */\n      0x0\n      swap1\n      exp(0x2, 0xb0)\n        /* \"contracts/Online/ERC20/WBTC.sol\":13303:13309  paused */\n      swap1\n      div\n      0xff\n      and\n        /* \"contracts/Online/ERC20/WBTC.sol\":13302:13309  !paused */\n      iszero\n        /* \"contracts/Online/ERC20/WBTC.sol\":13294:13310  require(!paused) */\n      tag_150\n      jumpi\n      0x0\n      dup1\n      revert\n    tag_150:\n        /* \"contracts/Online/ERC20/WBTC.sol\":14993:15043  super.decreaseApproval(_spender, _subtractedValue) */\n      tag_112\n        /* \"contracts/Online/ERC20/WBTC.sol\":15016:15024  _spender */\n      dup4\n        /* \"contracts/Online/ERC20/WBTC.sol\":15026:15042  _subtractedValue */\n      dup4\n        /* \"contracts/Online/ERC20/WBTC.sol\":14993:15015  super.decreaseApproval */\n      tag_153\n        /* \"contracts/Online/ERC20/WBTC.sol\":14993:15043  super.decreaseApproval(_spender, _subtractedValue) */\n      jump\t// in\n        /* \"contracts/Online/ERC20/WBTC.sol\":3221:3322  function balanceOf(address _owner) public view returns (uint256) {\r... */\n    tag_71:\n      sub(exp(0x2, 0xa0), 0x1)\n        /* \"contracts/Online/ERC20/WBTC.sol\":3300:3316  balances[_owner] */\n      and\n        /* \"contracts/Online/ERC20/WBTC.sol\":3277:3284  uint256 */\n      0x0\n        /* \"contracts/Online/ERC20/WBTC.sol\":3300:3316  balances[_owner] */\n      swap1\n      dup2\n      mstore\n      0x20\n      dup2\n      swap1\n      mstore\n      0x40\n      swap1\n      keccak256\n      sload\n      swap1\n        /* \"contracts/Online/ERC20/WBTC.sol\":3221:3322  function balanceOf(address _owner) public view returns (uint256) {\r... */\n      jump\t// out\n        /* \"contracts/Online/ERC20/WBTC.sol\":18248:18354  function renounceOwnership() public onlyOwner {\r... */\n    tag_74:\n        /* \"contracts/Online/ERC20/WBTC.sol\":9491:9496  owner */\n      sload(0x5)\n      0x100\n      swap1\n      div\n      sub(exp(0x2, 0xa0), 0x1)\n      and\n        /* \"contracts/Online/ERC20/WBTC.sol\":9477:9487  msg.sender */\n      caller\n        /* \"contracts/Online/ERC20/WBTC.sol\":9477:9496  msg.sender == owner */\n      eq\n        /* \"contracts/Online/ERC20/WBTC.sol\":9469:9497  require(msg.sender == owner) */\n      tag_156\n      jumpi\n      0x0\n      dup1\n      revert\n    tag_156:\n        /* \"contracts/Online/ERC20/WBTC.sol\":18305:18346  revert(\"renouncing ownership is blocked\") */\n      0x40\n      dup1\n      mload\n      0x8c379a000000000000000000000000000000000000000000000000000000000\n      dup2\n      mstore\n      0x20\n      0x4\n      dup3\n      add\n      mstore\n      0x1f\n      0x24\n      dup3\n      add\n      mstore\n      0x72656e6f756e63696e67206f776e65727368697020697320626c6f636b656400\n      0x44\n      dup3\n      add\n      mstore\n      swap1\n      mload\n      swap1\n      dup2\n      swap1\n      sub\n      0x64\n      add\n      swap1\n      revert\n        /* \"contracts/Online/ERC20/WBTC.sol\":18152:18240  function finishMinting() public onlyOwner returns (bool) {\r... */\n    tag_77:\n        /* \"contracts/Online/ERC20/WBTC.sol\":9491:9496  owner */\n      sload(0x5)\n        /* \"contracts/Online/ERC20/WBTC.sol\":18203:18207  bool */\n      0x0\n      swap1\n        /* \"contracts/Online/ERC20/WBTC.sol\":9491:9496  owner */\n      0x100\n      swap1\n      div\n      sub(exp(0x2, 0xa0), 0x1)\n      and\n        /* \"contracts/Online/ERC20/WBTC.sol\":9477:9487  msg.sender */\n      caller\n        /* \"contracts/Online/ERC20/WBTC.sol\":9477:9496  msg.sender == owner */\n      eq\n        /* \"contracts/Online/ERC20/WBTC.sol\":9469:9497  require(msg.sender == owner) */\n      tag_159\n      jumpi\n      0x0\n      dup1\n      revert\n    tag_159:\n      pop\n        /* \"contracts/Online/ERC20/WBTC.sol\":18227:18232  false */\n      0x0\n        /* \"contracts/Online/ERC20/WBTC.sol\":18152:18240  function finishMinting() public onlyOwner returns (bool) {\r... */\n      swap1\n      jump\t// out\n        /* \"contracts/Online/ERC20/WBTC.sol\":13568:13661  function pause() public onlyOwner whenNotPaused {\r... */\n    tag_80:\n        /* \"contracts/Online/ERC20/WBTC.sol\":9491:9496  owner */\n      sload(0x5)\n      0x100\n      swap1\n      div\n      sub(exp(0x2, 0xa0), 0x1)\n      and\n        /* \"contracts/Online/ERC20/WBTC.sol\":9477:9487  msg.sender */\n      caller\n        /* \"contracts/Online/ERC20/WBTC.sol\":9477:9496  msg.sender == owner */\n      eq\n        /* \"contracts/Online/ERC20/WBTC.sol\":9469:9497  require(msg.sender == owner) */\n      tag_162\n      jumpi\n      0x0\n      dup1\n      revert\n    tag_162:\n        /* \"contracts/Online/ERC20/WBTC.sol\":13303:13309  paused */\n      sload(0x5)\n      exp(0x2, 0xb0)\n      swap1\n      div\n      0xff\n      and\n        /* \"contracts/Online/ERC20/WBTC.sol\":13302:13309  !paused */\n      iszero\n        /* \"contracts/Online/ERC20/WBTC.sol\":13294:13310  require(!paused) */\n      tag_164\n      jumpi\n      0x0\n      dup1\n      revert\n    tag_164:\n        /* \"contracts/Online/ERC20/WBTC.sol\":13623:13629  paused */\n      0x5\n        /* \"contracts/Online/ERC20/WBTC.sol\":13623:13636  paused = true */\n      dup1\n      sload\n      not(0xff00000000000000000000000000000000000000000000)\n      and\n      exp(0x2, 0xb0)\n      or\n      swap1\n      sstore\n        /* \"contracts/Online/ERC20/WBTC.sol\":13648:13655  Pause() */\n      mload(0x40)\n      0x6985a02210a168e66602d3235cb6db0e70f92b3ba4d376a33c0f3d9434bff625\n      swap1\n        /* \"contracts/Online/ERC20/WBTC.sol\":13623:13636  paused = true */\n      0x0\n      swap1\n        /* \"contracts/Online/ERC20/WBTC.sol\":13648:13655  Pause() */\n      log1\n        /* \"contracts/Online/ERC20/WBTC.sol\":13568:13661  function pause() public onlyOwner whenNotPaused {\r... */\n      jump\t// out\n        /* \"contracts/Online/ERC20/WBTC.sol\":8988:9008  address public owner */\n    tag_83:\n      sload(0x5)\n      0x100\n      swap1\n      div\n      sub(exp(0x2, 0xa0), 0x1)\n      and\n      dup2\n      jump\t// out\n        /* \"contracts/Online/ERC20/WBTC.sol\":8504:8524  string public symbol */\n    tag_86:\n      0x4\n      dup1\n      sload\n      0x40\n      dup1\n      mload\n      0x20\n      0x2\n      0x1\n      dup6\n      and\n      iszero\n      0x100\n      mul\n      not(0x0)\n      add\n      swap1\n      swap5\n      and\n      swap4\n      swap1\n      swap4\n      div\n      0x1f\n      dup2\n      add\n      dup5\n      swap1\n      div\n      dup5\n      mul\n      dup3\n      add\n      dup5\n      add\n      swap1\n      swap3\n      mstore\n      dup2\n      dup2\n      mstore\n      swap3\n      swap2\n      dup4\n      add\n      dup3\n      dup3\n      dup1\n      iszero\n      tag_106\n      jumpi\n      dup1\n      0x1f\n      lt\n      tag_107\n      jumpi\n      0x100\n      dup1\n      dup4\n      sload\n      div\n      mul\n      dup4\n      mstore\n      swap2\n      0x20\n      add\n      swap2\n      jump(tag_106)\n        /* \"contracts/Online/ERC20/WBTC.sol\":14075:14238  function transfer(\r... */\n    tag_93:\n        /* \"contracts/Online/ERC20/WBTC.sol\":13303:13309  paused */\n      sload(0x5)\n        /* \"contracts/Online/ERC20/WBTC.sol\":14182:14186  bool */\n      0x0\n      swap1\n      exp(0x2, 0xb0)\n        /* \"contracts/Online/ERC20/WBTC.sol\":13303:13309  paused */\n      swap1\n      div\n      0xff\n      and\n        /* \"contracts/Online/ERC20/WBTC.sol\":13302:13309  !paused */\n      iszero\n        /* \"contracts/Online/ERC20/WBTC.sol\":13294:13310  require(!paused) */\n      tag_170\n      jumpi\n      0x0\n      dup1\n      revert\n    tag_170:\n        /* \"contracts/Online/ERC20/WBTC.sol\":14205:14232  super.transfer(_to, _value) */\n      tag_112\n        /* \"contracts/Online/ERC20/WBTC.sol\":14220:14223  _to */\n      dup4\n        /* \"contracts/Online/ERC20/WBTC.sol\":14225:14231  _value */\n      dup4\n        /* \"contracts/Online/ERC20/WBTC.sol\":14205:14219  super.transfer */\n      tag_173\n        /* \"contracts/Online/ERC20/WBTC.sol\":14205:14232  super.transfer(_to, _value) */\n      jump\t// in\n        /* \"contracts/Online/ERC20/WBTC.sol\":14625:14829  function increaseApproval(\r... */\n    tag_96:\n        /* \"contracts/Online/ERC20/WBTC.sol\":13303:13309  paused */\n      sload(0x5)\n        /* \"contracts/Online/ERC20/WBTC.sol\":14747:14759  bool success */\n      0x0\n      swap1\n      exp(0x2, 0xb0)\n        /* \"contracts/Online/ERC20/WBTC.sol\":13303:13309  paused */\n      swap1\n      div\n      0xff\n      and\n        /* \"contracts/Online/ERC20/WBTC.sol\":13302:13309  !paused */\n      iszero\n        /* \"contracts/Online/ERC20/WBTC.sol\":13294:13310  require(!paused) */\n      tag_175\n      jumpi\n      0x0\n      dup1\n      revert\n    tag_175:\n        /* \"contracts/Online/ERC20/WBTC.sol\":14778:14823  super.increaseApproval(_spender, _addedValue) */\n      tag_112\n        /* \"contracts/Online/ERC20/WBTC.sol\":14801:14809  _spender */\n      dup4\n        /* \"contracts/Online/ERC20/WBTC.sol\":14811:14822  _addedValue */\n      dup4\n        /* \"contracts/Online/ERC20/WBTC.sol\":14778:14800  super.increaseApproval */\n      tag_178\n        /* \"contracts/Online/ERC20/WBTC.sol\":14778:14823  super.increaseApproval(_spender, _addedValue) */\n      jump\t// in\n        /* \"contracts/Online/ERC20/WBTC.sol\":6275:6437  function allowance(\r... */\n    tag_99:\n      sub(exp(0x2, 0xa0), 0x1)\n        /* \"contracts/Online/ERC20/WBTC.sol\":6406:6421  allowed[_owner] */\n      swap2\n      dup3\n      and\n        /* \"contracts/Online/ERC20/WBTC.sol\":6380:6387  uint256 */\n      0x0\n        /* \"contracts/Online/ERC20/WBTC.sol\":6406:6421  allowed[_owner] */\n      swap1\n      dup2\n      mstore\n        /* \"contracts/Online/ERC20/WBTC.sol\":6406:6413  allowed */\n      0x2\n        /* \"contracts/Online/ERC20/WBTC.sol\":6406:6421  allowed[_owner] */\n      0x20\n      swap1\n      dup2\n      mstore\n      0x40\n      dup1\n      dup4\n      keccak256\n        /* \"contracts/Online/ERC20/WBTC.sol\":6406:6431  allowed[_owner][_spender] */\n      swap4\n      swap1\n      swap5\n      and\n      dup3\n      mstore\n      swap2\n      swap1\n      swap2\n      mstore\n      keccak256\n      sload\n      swap1\n        /* \"contracts/Online/ERC20/WBTC.sol\":6275:6437  function allowance(\r... */\n      jump\t// out\n        /* \"contracts/Online/ERC20/WBTC.sol\":15330:15357  address public pendingOwner */\n    tag_102:\n      and(sub(exp(0x2, 0xa0), 0x1), sload(0x6))\n      dup2\n      jump\t// out\n        /* \"contracts/Online/ERC20/WBTC.sol\":15692:15790  function transferOwnership(address newOwner) public onlyOwner {\r... */\n    tag_105:\n        /* \"contracts/Online/ERC20/WBTC.sol\":9491:9496  owner */\n      sload(0x5)\n      0x100\n      swap1\n      div\n      sub(exp(0x2, 0xa0), 0x1)\n      and\n        /* \"contracts/Online/ERC20/WBTC.sol\":9477:9487  msg.sender */\n      caller\n        /* \"contracts/Online/ERC20/WBTC.sol\":9477:9496  msg.sender == owner */\n      eq\n        /* \"contracts/Online/ERC20/WBTC.sol\":9469:9497  require(msg.sender == owner) */\n      tag_181\n      jumpi\n      0x0\n      dup1\n      revert\n    tag_181:\n        /* \"contracts/Online/ERC20/WBTC.sol\":15761:15773  pendingOwner */\n      0x6\n        /* \"contracts/Online/ERC20/WBTC.sol\":15761:15784  pendingOwner = newOwner */\n      dup1\n      sload\n      not(0xffffffffffffffffffffffffffffffffffffffff)\n      and\n      sub(exp(0x2, 0xa0), 0x1)\n      swap3\n      swap1\n      swap3\n      and\n      swap2\n      swap1\n      swap2\n      or\n      swap1\n      sstore\n        /* \"contracts/Online/ERC20/WBTC.sol\":15692:15790  function transferOwnership(address newOwner) public onlyOwner {\r... */\n      jump\t// out\n        /* \"contracts/Online/ERC20/WBTC.sol\":5756:5948  function approve(address _spender, uint256 _value) public returns (bool) {\r... */\n    tag_113:\n        /* \"contracts/Online/ERC20/WBTC.sol\":5844:5854  msg.sender */\n      caller\n        /* \"contracts/Online/ERC20/WBTC.sol\":5823:5827  bool */\n      0x0\n        /* \"contracts/Online/ERC20/WBTC.sol\":5836:5855  allowed[msg.sender] */\n      dup2\n      dup2\n      mstore\n        /* \"contracts/Online/ERC20/WBTC.sol\":5836:5843  allowed */\n      0x2\n        /* \"contracts/Online/ERC20/WBTC.sol\":5836:5855  allowed[msg.sender] */\n      0x20\n      swap1\n      dup2\n      mstore\n      0x40\n      dup1\n      dup4\n      keccak256\n      sub(exp(0x2, 0xa0), 0x1)\n        /* \"contracts/Online/ERC20/WBTC.sol\":5836:5865  allowed[msg.sender][_spender] */\n      dup8\n      and\n      dup1\n      dup6\n      mstore\n      swap1\n      dup4\n      mstore\n      dup2\n      dup5\n      keccak256\n        /* \"contracts/Online/ERC20/WBTC.sol\":5836:5874  allowed[msg.sender][_spender] = _value */\n      dup7\n      swap1\n      sstore\n        /* \"contracts/Online/ERC20/WBTC.sol\":5886:5924  Approval(msg.sender, _spender, _value) */\n      dup2\n      mload\n      dup7\n      dup2\n      mstore\n      swap2\n      mload\n        /* \"contracts/Online/ERC20/WBTC.sol\":5823:5827  bool */\n      swap4\n      swap5\n        /* \"contracts/Online/ERC20/WBTC.sol\":5836:5865  allowed[msg.sender][_spender] */\n      swap1\n      swap4\n        /* \"contracts/Online/ERC20/WBTC.sol\":5844:5854  msg.sender */\n      swap1\n      swap3\n        /* \"contracts/Online/ERC20/WBTC.sol\":5886:5924  Approval(msg.sender, _spender, _value) */\n      0x8c5be1e5ebec7d5bd14f71427d1e84f3dd0314c0f7b2291e5b200ac8c7c3b925\n      swap3\n      dup3\n      swap1\n      sub\n      add\n      swap1\n      log3\n      pop\n        /* \"contracts/Online/ERC20/WBTC.sol\":5938:5942  true */\n      0x1\n        /* \"contracts/Online/ERC20/WBTC.sol\":5756:5948  function approve(address _spender, uint256 _value) public returns (bool) {\r... */\n      swap3\n      swap2\n      pop\n      pop\n      jump\t// out\n        /* \"contracts/Online/ERC20/WBTC.sol\":16422:16579  function safeTransfer(\r... */\n    tag_121:\n        /* \"contracts/Online/ERC20/WBTC.sol\":16544:16550  _token */\n      dup3\n      sub(exp(0x2, 0xa0), 0x1)\n        /* \"contracts/Online/ERC20/WBTC.sol\":16544:16559  _token.transfer */\n      and\n      0xa9059cbb\n        /* \"contracts/Online/ERC20/WBTC.sol\":16560:16563  _to */\n      dup4\n        /* \"contracts/Online/ERC20/WBTC.sol\":16565:16571  _value */\n      dup4\n        /* \"contracts/Online/ERC20/WBTC.sol\":16544:16572  _token.transfer(_to, _value) */\n      mload(0x40)\n      dup4\n      0xffffffff\n      and\n      0x100000000000000000000000000000000000000000000000000000000\n      mul\n      dup2\n      mstore\n      0x4\n      add\n      dup1\n      dup4\n      sub(exp(0x2, 0xa0), 0x1)\n      and\n      sub(exp(0x2, 0xa0), 0x1)\n      and\n      dup2\n      mstore\n      0x20\n      add\n      dup3\n      dup2\n      mstore\n      0x20\n      add\n      swap3\n      pop\n      pop\n      pop\n      0x20\n      mload(0x40)\n      dup1\n      dup4\n      sub\n      dup2\n      0x0\n      dup8\n      dup1\n      extcodesize\n      iszero\n        /* \"--CODEGEN--\":8:17   */\n      dup1\n        /* \"--CODEGEN--\":5:7   */\n      iszero\n      tag_185\n      jumpi\n        /* \"--CODEGEN--\":30:31   */\n      0x0\n        /* \"--CODEGEN--\":27:28   */\n      dup1\n        /* \"--CODEGEN--\":20:32   */\n      revert\n        /* \"--CODEGEN--\":5:7   */\n    tag_185:\n        /* \"contracts/Online/ERC20/WBTC.sol\":16544:16572  _token.transfer(_to, _value) */\n      pop\n      gas\n      call\n      iszero\n        /* \"--CODEGEN--\":8:17   */\n      dup1\n        /* \"--CODEGEN--\":5:7   */\n      iszero\n      tag_186\n      jumpi\n        /* \"--CODEGEN--\":45:61   */\n      returndatasize\n        /* \"--CODEGEN--\":42:43   */\n      0x0\n        /* \"--CODEGEN--\":39:40   */\n      dup1\n        /* \"--CODEGEN--\":24:62   */\n      returndatacopy\n        /* \"--CODEGEN--\":77:93   */\n      returndatasize\n        /* \"--CODEGEN--\":74:75   */\n      0x0\n        /* \"--CODEGEN--\":67:94   */\n      revert\n        /* \"--CODEGEN--\":5:7   */\n    tag_186:\n        /* \"contracts/Online/ERC20/WBTC.sol\":16544:16572  _token.transfer(_to, _value) */\n      pop\n      pop\n      pop\n      pop\n      mload(0x40)\n      returndatasize\n        /* \"--CODEGEN--\":13:15   */\n      0x20\n        /* \"--CODEGEN--\":8:11   */\n      dup2\n        /* \"--CODEGEN--\":5:16   */\n      lt\n        /* \"--CODEGEN--\":2:4   */\n      iszero\n      tag_187\n      jumpi\n        /* \"--CODEGEN--\":29:30   */\n      0x0\n        /* \"--CODEGEN--\":26:27   */\n      dup1\n        /* \"--CODEGEN--\":19:31   */\n      revert\n        /* \"--CODEGEN--\":2:4   */\n    tag_187:\n      pop\n        /* \"contracts/Online/ERC20/WBTC.sol\":16544:16572  _token.transfer(_to, _value) */\n      mload\n        /* \"contracts/Online/ERC20/WBTC.sol\":16536:16573  require(_token.transfer(_to, _value)) */\n      iszero\n      iszero\n      tag_188\n      jumpi\n      0x0\n      dup1\n      revert\n    tag_188:\n        /* \"contracts/Online/ERC20/WBTC.sol\":16422:16579  function safeTransfer(\r... */\n      pop\n      pop\n      pop\n      jump\t// out\n        /* \"contracts/Online/ERC20/WBTC.sol\":4640:5127  function transferFrom(\r... */\n    tag_127:\n      sub(exp(0x2, 0xa0), 0x1)\n        /* \"contracts/Online/ERC20/WBTC.sol\":4786:4801  balances[_from] */\n      dup4\n      and\n        /* \"contracts/Online/ERC20/WBTC.sol\":4752:4756  bool */\n      0x0\n        /* \"contracts/Online/ERC20/WBTC.sol\":4786:4801  balances[_from] */\n      swap1\n      dup2\n      mstore\n      0x20\n      dup2\n      swap1\n      mstore\n      0x40\n      dup2\n      keccak256\n      sload\n        /* \"contracts/Online/ERC20/WBTC.sol\":4776:4801  _value <= balances[_from] */\n      dup3\n      gt\n      iszero\n        /* \"contracts/Online/ERC20/WBTC.sol\":4768:4802  require(_value <= balances[_from]) */\n      tag_190\n      jumpi\n      0x0\n      dup1\n      revert\n    tag_190:\n      sub(exp(0x2, 0xa0), 0x1)\n        /* \"contracts/Online/ERC20/WBTC.sol\":4827:4841  allowed[_from] */\n      dup5\n      and\n      0x0\n      swap1\n      dup2\n      mstore\n        /* \"contracts/Online/ERC20/WBTC.sol\":4827:4834  allowed */\n      0x2\n        /* \"contracts/Online/ERC20/WBTC.sol\":4827:4841  allowed[_from] */\n      0x20\n      swap1\n      dup2\n      mstore\n      0x40\n      dup1\n      dup4\n      keccak256\n        /* \"contracts/Online/ERC20/WBTC.sol\":4842:4852  msg.sender */\n      caller\n        /* \"contracts/Online/ERC20/WBTC.sol\":4827:4853  allowed[_from][msg.sender] */\n      dup5\n      mstore\n      swap1\n      swap2\n      mstore\n      swap1\n      keccak256\n      sload\n        /* \"contracts/Online/ERC20/WBTC.sol\":4817:4853  _value <= allowed[_from][msg.sender] */\n      dup3\n      gt\n      iszero\n        /* \"contracts/Online/ERC20/WBTC.sol\":4809:4854  require(_value <= allowed[_from][msg.sender]) */\n      tag_191\n      jumpi\n      0x0\n      dup1\n      revert\n    tag_191:\n      sub(exp(0x2, 0xa0), 0x1)\n        /* \"contracts/Online/ERC20/WBTC.sol\":4869:4886  _to != address(0) */\n      dup4\n      and\n      iszero\n      iszero\n        /* \"contracts/Online/ERC20/WBTC.sol\":4861:4887  require(_to != address(0)) */\n      tag_192\n      jumpi\n      0x0\n      dup1\n      revert\n    tag_192:\n      sub(exp(0x2, 0xa0), 0x1)\n        /* \"contracts/Online/ERC20/WBTC.sol\":4914:4929  balances[_from] */\n      dup5\n      and\n        /* \"contracts/Online/ERC20/WBTC.sol\":4914:4922  balances */\n      0x0\n        /* \"contracts/Online/ERC20/WBTC.sol\":4914:4929  balances[_from] */\n      swap1\n      dup2\n      mstore\n      0x20\n      dup2\n      swap1\n      mstore\n      0x40\n      swap1\n      keccak256\n      sload\n        /* \"contracts/Online/ERC20/WBTC.sol\":4914:4941  balances[_from].sub(_value) */\n      tag_193\n      swap1\n        /* \"contracts/Online/ERC20/WBTC.sol\":4934:4940  _value */\n      dup4\n        /* \"contracts/Online/ERC20/WBTC.sol\":4914:4941  balances[_from].sub(_value) */\n      0xffffffff\n        /* \"contracts/Online/ERC20/WBTC.sol\":4914:4933  balances[_from].sub */\n      tag_194\n        /* \"contracts/Online/ERC20/WBTC.sol\":4914:4941  balances[_from].sub(_value) */\n      and\n      jump\t// in\n    tag_193:\n      sub(exp(0x2, 0xa0), 0x1)\n        /* \"contracts/Online/ERC20/WBTC.sol\":4896:4911  balances[_from] */\n      dup1\n      dup7\n      and\n        /* \"contracts/Online/ERC20/WBTC.sol\":4896:4904  balances */\n      0x0\n        /* \"contracts/Online/ERC20/WBTC.sol\":4896:4911  balances[_from] */\n      swap1\n      dup2\n      mstore\n      0x20\n      dup2\n      swap1\n      mstore\n      0x40\n      dup1\n      dup3\n      keccak256\n        /* \"contracts/Online/ERC20/WBTC.sol\":4896:4941  balances[_from] = balances[_from].sub(_value) */\n      swap4\n      swap1\n      swap4\n      sstore\n        /* \"contracts/Online/ERC20/WBTC.sol\":4964:4977  balances[_to] */\n      swap1\n      dup6\n      and\n      dup2\n      mstore\n      keccak256\n      sload\n        /* \"contracts/Online/ERC20/WBTC.sol\":4964:4989  balances[_to].add(_value) */\n      tag_195\n      swap1\n        /* \"contracts/Online/ERC20/WBTC.sol\":4982:4988  _value */\n      dup4\n        /* \"contracts/Online/ERC20/WBTC.sol\":4964:4989  balances[_to].add(_value) */\n      0xffffffff\n        /* \"contracts/Online/ERC20/WBTC.sol\":4964:4981  balances[_to].add */\n      tag_139\n        /* \"contracts/Online/ERC20/WBTC.sol\":4964:4989  balances[_to].add(_value) */\n      and\n      jump\t// in\n    tag_195:\n      sub(exp(0x2, 0xa0), 0x1)\n        /* \"contracts/Online/ERC20/WBTC.sol\":4948:4961  balances[_to] */\n      dup1\n      dup6\n      and\n        /* \"contracts/Online/ERC20/WBTC.sol\":4948:4956  balances */\n      0x0\n        /* \"contracts/Online/ERC20/WBTC.sol\":4948:4961  balances[_to] */\n      swap1\n      dup2\n      mstore\n      0x20\n      dup2\n      dup2\n      mstore\n      0x40\n      dup1\n      dup4\n      keccak256\n        /* \"contracts/Online/ERC20/WBTC.sol\":4948:4989  balances[_to] = balances[_to].add(_value) */\n      swap5\n      swap1\n      swap5\n      sstore\n        /* \"contracts/Online/ERC20/WBTC.sol\":5025:5039  allowed[_from] */\n      swap2\n      dup8\n      and\n      dup2\n      mstore\n        /* \"contracts/Online/ERC20/WBTC.sol\":5025:5032  allowed */\n      0x2\n        /* \"contracts/Online/ERC20/WBTC.sol\":5025:5039  allowed[_from] */\n      dup3\n      mstore\n      dup3\n      dup2\n      keccak256\n        /* \"contracts/Online/ERC20/WBTC.sol\":5040:5050  msg.sender */\n      caller\n        /* \"contracts/Online/ERC20/WBTC.sol\":5025:5051  allowed[_from][msg.sender] */\n      dup3\n      mstore\n      swap1\n      swap2\n      mstore\n      keccak256\n      sload\n        /* \"contracts/Online/ERC20/WBTC.sol\":5025:5063  allowed[_from][msg.sender].sub(_value) */\n      tag_196\n      swap1\n        /* \"contracts/Online/ERC20/WBTC.sol\":5056:5062  _value */\n      dup4\n        /* \"contracts/Online/ERC20/WBTC.sol\":5025:5063  allowed[_from][msg.sender].sub(_value) */\n      0xffffffff\n        /* \"contracts/Online/ERC20/WBTC.sol\":5025:5055  allowed[_from][msg.sender].sub */\n      tag_194\n        /* \"contracts/Online/ERC20/WBTC.sol\":5025:5063  allowed[_from][msg.sender].sub(_value) */\n      and\n      jump\t// in\n    tag_196:\n      sub(exp(0x2, 0xa0), 0x1)\n        /* \"contracts/Online/ERC20/WBTC.sol\":4996:5010  allowed[_from] */\n      dup1\n      dup7\n      and\n      0x0\n      dup2\n      dup2\n      mstore\n        /* \"contracts/Online/ERC20/WBTC.sol\":4996:5003  allowed */\n      0x2\n        /* \"contracts/Online/ERC20/WBTC.sol\":4996:5010  allowed[_from] */\n      0x20\n      swap1\n      dup2\n      mstore\n      0x40\n      dup1\n      dup4\n      keccak256\n        /* \"contracts/Online/ERC20/WBTC.sol\":5011:5021  msg.sender */\n      caller\n        /* \"contracts/Online/ERC20/WBTC.sol\":4996:5022  allowed[_from][msg.sender] */\n      dup5\n      mstore\n      dup3\n      mstore\n      swap2\n      dup3\n      swap1\n      keccak256\n        /* \"contracts/Online/ERC20/WBTC.sol\":4996:5063  allowed[_from][msg.sender] = allowed[_from][msg.sender].sub(_value) */\n      swap5\n      swap1\n      swap5\n      sstore\n        /* \"contracts/Online/ERC20/WBTC.sol\":5075:5103  Transfer(_from, _to, _value) */\n      dup1\n      mload\n      dup7\n      dup2\n      mstore\n      swap1\n      mload\n      swap3\n      dup8\n      and\n      swap4\n        /* \"contracts/Online/ERC20/WBTC.sol\":4996:5010  allowed[_from] */\n      swap2\n      swap3\n      0x0\n      dup1\n      mload\n      0x20\n      data_ada389e1fc24a8587c776340efb91b36e675792ab631816100d55df0b5cf3cbc\n      dup4\n      codecopy\n      dup2\n      mload\n      swap2\n      mstore\n        /* \"contracts/Online/ERC20/WBTC.sol\":5075:5103  Transfer(_from, _to, _value) */\n      swap3\n      swap2\n      dup2\n      swap1\n      sub\n      swap1\n      swap2\n      add\n      swap1\n      log3\n      pop\n        /* \"contracts/Online/ERC20/WBTC.sol\":5117:5121  true */\n      0x1\n        /* \"contracts/Online/ERC20/WBTC.sol\":4640:5127  function transferFrom(\r... */\n      swap4\n      swap3\n      pop\n      pop\n      pop\n      jump\t// out\n        /* \"contracts/Online/ERC20/WBTC.sol\":1914:2046  function add(uint256 _a, uint256 _b) internal pure returns (uint256 c) {\r... */\n    tag_139:\n        /* \"contracts/Online/ERC20/WBTC.sol\":1996:2003  _a + _b */\n      dup2\n      dup2\n      add\n        /* \"contracts/Online/ERC20/WBTC.sol\":2017:2024  c >= _a */\n      dup3\n      dup2\n      lt\n      iszero\n        /* \"contracts/Online/ERC20/WBTC.sol\":2010:2025  assert(c >= _a) */\n      tag_198\n      jumpi\n      invalid\n    tag_198:\n        /* \"contracts/Online/ERC20/WBTC.sol\":1914:2046  function add(uint256 _a, uint256 _b) internal pure returns (uint256 c) {\r... */\n      swap3\n      swap2\n      pop\n      pop\n      jump\t// out\n        /* \"contracts/Online/ERC20/WBTC.sol\":12334:12409  function burn(uint256 _value) public {\r... */\n    tag_145:\n        /* \"contracts/Online/ERC20/WBTC.sol\":12378:12403  _burn(msg.sender, _value) */\n      tag_144\n        /* \"contracts/Online/ERC20/WBTC.sol\":12384:12394  msg.sender */\n      caller\n        /* \"contracts/Online/ERC20/WBTC.sol\":12396:12402  _value */\n      dup3\n        /* \"contracts/Online/ERC20/WBTC.sol\":12378:12383  _burn */\n      tag_201\n        /* \"contracts/Online/ERC20/WBTC.sol\":12378:12403  _burn(msg.sender, _value) */\n      jump\t// in\n        /* \"contracts/Online/ERC20/WBTC.sol\":7675:8122  function decreaseApproval(\r... */\n    tag_153:\n        /* \"contracts/Online/ERC20/WBTC.sol\":7829:7839  msg.sender */\n      caller\n        /* \"contracts/Online/ERC20/WBTC.sol\":7786:7790  bool */\n      0x0\n        /* \"contracts/Online/ERC20/WBTC.sol\":7821:7840  allowed[msg.sender] */\n      swap1\n      dup2\n      mstore\n        /* \"contracts/Online/ERC20/WBTC.sol\":7821:7828  allowed */\n      0x2\n        /* \"contracts/Online/ERC20/WBTC.sol\":7821:7840  allowed[msg.sender] */\n      0x20\n      swap1\n      dup2\n      mstore\n      0x40\n      dup1\n      dup4\n      keccak256\n      sub(exp(0x2, 0xa0), 0x1)\n        /* \"contracts/Online/ERC20/WBTC.sol\":7821:7850  allowed[msg.sender][_spender] */\n      dup7\n      and\n      dup5\n      mstore\n      swap1\n      swap2\n      mstore\n      dup2\n      keccak256\n      sload\n        /* \"contracts/Online/ERC20/WBTC.sol\":7861:7889  _subtractedValue >= oldValue */\n      dup1\n      dup4\n      lt\n        /* \"contracts/Online/ERC20/WBTC.sol\":7857:8026  if (_subtractedValue >= oldValue) {\r... */\n      tag_203\n      jumpi\n        /* \"contracts/Online/ERC20/WBTC.sol\":7908:7918  msg.sender */\n      caller\n        /* \"contracts/Online/ERC20/WBTC.sol\":7932:7933  0 */\n      0x0\n        /* \"contracts/Online/ERC20/WBTC.sol\":7900:7919  allowed[msg.sender] */\n      swap1\n      dup2\n      mstore\n        /* \"contracts/Online/ERC20/WBTC.sol\":7900:7907  allowed */\n      0x2\n        /* \"contracts/Online/ERC20/WBTC.sol\":7900:7919  allowed[msg.sender] */\n      0x20\n      swap1\n      dup2\n      mstore\n      0x40\n      dup1\n      dup4\n      keccak256\n      sub(exp(0x2, 0xa0), 0x1)\n        /* \"contracts/Online/ERC20/WBTC.sol\":7900:7929  allowed[msg.sender][_spender] */\n      dup9\n      and\n      dup5\n      mstore\n      swap1\n      swap2\n      mstore\n      dup2\n      keccak256\n        /* \"contracts/Online/ERC20/WBTC.sol\":7900:7933  allowed[msg.sender][_spender] = 0 */\n      sstore\n        /* \"contracts/Online/ERC20/WBTC.sol\":7857:8026  if (_subtractedValue >= oldValue) {\r... */\n      jump(tag_204)\n    tag_203:\n        /* \"contracts/Online/ERC20/WBTC.sol\":7988:8018  oldValue.sub(_subtractedValue) */\n      tag_205\n        /* \"contracts/Online/ERC20/WBTC.sol\":7988:7996  oldValue */\n      dup2\n        /* \"contracts/Online/ERC20/WBTC.sol\":8001:8017  _subtractedValue */\n      dup5\n        /* \"contracts/Online/ERC20/WBTC.sol\":7988:8018  oldValue.sub(_subtractedValue) */\n      0xffffffff\n        /* \"contracts/Online/ERC20/WBTC.sol\":7988:8000  oldValue.sub */\n      tag_194\n        /* \"contracts/Online/ERC20/WBTC.sol\":7988:8018  oldValue.sub(_subtractedValue) */\n      and\n      jump\t// in\n    tag_205:\n        /* \"contracts/Online/ERC20/WBTC.sol\":7964:7974  msg.sender */\n      caller\n        /* \"contracts/Online/ERC20/WBTC.sol\":7956:7975  allowed[msg.sender] */\n      0x0\n      swap1\n      dup2\n      mstore\n        /* \"contracts/Online/ERC20/WBTC.sol\":7956:7963  allowed */\n      0x2\n        /* \"contracts/Online/ERC20/WBTC.sol\":7956:7975  allowed[msg.sender] */\n      0x20\n      swap1\n      dup2\n      mstore\n      0x40\n      dup1\n      dup4\n      keccak256\n      sub(exp(0x2, 0xa0), 0x1)\n        /* \"contracts/Online/ERC20/WBTC.sol\":7956:7985  allowed[msg.sender][_spender] */\n      dup10\n      and\n      dup5\n      mstore\n      swap1\n      swap2\n      mstore\n      swap1\n      keccak256\n        /* \"contracts/Online/ERC20/WBTC.sol\":7956:8018  allowed[msg.sender][_spender] = oldValue.sub(_subtractedValue) */\n      sstore\n        /* \"contracts/Online/ERC20/WBTC.sol\":7857:8026  if (_subtractedValue >= oldValue) {\r... */\n    tag_204:\n        /* \"contracts/Online/ERC20/WBTC.sol\":8046:8056  msg.sender */\n      caller\n        /* \"contracts/Online/ERC20/WBTC.sol\":8068:8087  allowed[msg.sender] */\n      0x0\n      dup2\n      dup2\n      mstore\n        /* \"contracts/Online/ERC20/WBTC.sol\":8068:8075  allowed */\n      0x2\n        /* \"contracts/Online/ERC20/WBTC.sol\":8068:8087  allowed[msg.sender] */\n      0x20\n      swap1\n      dup2\n      mstore\n      0x40\n      dup1\n      dup4\n      keccak256\n      sub(exp(0x2, 0xa0), 0x1)\n        /* \"contracts/Online/ERC20/WBTC.sol\":8037:8098  Approval(msg.sender, _spender, allowed[msg.sender][_spender]) */\n      dup10\n      and\n        /* \"contracts/Online/ERC20/WBTC.sol\":8068:8097  allowed[msg.sender][_spender] */\n      dup1\n      dup6\n      mstore\n      swap1\n      dup4\n      mstore\n      swap3\n      dup2\n      swap1\n      keccak256\n      sload\n        /* \"contracts/Online/ERC20/WBTC.sol\":8037:8098  Approval(msg.sender, _spender, allowed[msg.sender][_spender]) */\n      dup2\n      mload\n      swap1\n      dup2\n      mstore\n      swap1\n      mload\n      swap3\n      swap4\n        /* \"contracts/Online/ERC20/WBTC.sol\":8046:8056  msg.sender */\n      swap3\n        /* \"contracts/Online/ERC20/WBTC.sol\":8037:8098  Approval(msg.sender, _spender, allowed[msg.sender][_spender]) */\n      0x8c5be1e5ebec7d5bd14f71427d1e84f3dd0314c0f7b2291e5b200ac8c7c3b925\n      swap3\n      swap2\n      dup2\n      swap1\n      sub\n      swap1\n      swap2\n      add\n      swap1\n      log3\n      pop\n        /* \"contracts/Online/ERC20/WBTC.sol\":8112:8116  true */\n      0x1\n      swap4\n        /* \"contracts/Online/ERC20/WBTC.sol\":7675:8122  function decreaseApproval(\r... */\n      swap3\n      pop\n      pop\n      pop\n      jump\t// out\n        /* \"contracts/Online/ERC20/WBTC.sol\":2683:3012  function transfer(address _to, uint256 _value) public returns (bool) {\r... */\n    tag_173:\n        /* \"contracts/Online/ERC20/WBTC.sol\":2786:2796  msg.sender */\n      caller\n        /* \"contracts/Online/ERC20/WBTC.sol\":2746:2750  bool */\n      0x0\n        /* \"contracts/Online/ERC20/WBTC.sol\":2777:2797  balances[msg.sender] */\n      swap1\n      dup2\n      mstore\n      0x20\n      dup2\n      swap1\n      mstore\n      0x40\n      dup2\n      keccak256\n      sload\n        /* \"contracts/Online/ERC20/WBTC.sol\":2767:2797  _value <= balances[msg.sender] */\n      dup3\n      gt\n      iszero\n        /* \"contracts/Online/ERC20/WBTC.sol\":2759:2798  require(_value <= balances[msg.sender]) */\n      tag_207\n      jumpi\n      0x0\n      dup1\n      revert\n    tag_207:\n      sub(exp(0x2, 0xa0), 0x1)\n        /* \"contracts/Online/ERC20/WBTC.sol\":2813:2830  _to != address(0) */\n      dup4\n      and\n      iszero\n      iszero\n        /* \"contracts/Online/ERC20/WBTC.sol\":2805:2831  require(_to != address(0)) */\n      tag_208\n      jumpi\n      0x0\n      dup1\n      revert\n    tag_208:\n        /* \"contracts/Online/ERC20/WBTC.sol\":2872:2882  msg.sender */\n      caller\n        /* \"contracts/Online/ERC20/WBTC.sol\":2863:2871  balances */\n      0x0\n        /* \"contracts/Online/ERC20/WBTC.sol\":2863:2883  balances[msg.sender] */\n      swap1\n      dup2\n      mstore\n      0x20\n      dup2\n      swap1\n      mstore\n      0x40\n      swap1\n      keccak256\n      sload\n        /* \"contracts/Online/ERC20/WBTC.sol\":2863:2895  balances[msg.sender].sub(_value) */\n      tag_209\n      swap1\n        /* \"contracts/Online/ERC20/WBTC.sol\":2888:2894  _value */\n      dup4\n        /* \"contracts/Online/ERC20/WBTC.sol\":2863:2895  balances[msg.sender].sub(_value) */\n      0xffffffff\n        /* \"contracts/Online/ERC20/WBTC.sol\":2863:2887  balances[msg.sender].sub */\n      tag_194\n        /* \"contracts/Online/ERC20/WBTC.sol\":2863:2895  balances[msg.sender].sub(_value) */\n      and\n      jump\t// in\n    tag_209:\n        /* \"contracts/Online/ERC20/WBTC.sol\":2849:2859  msg.sender */\n      caller\n        /* \"contracts/Online/ERC20/WBTC.sol\":2840:2848  balances */\n      0x0\n        /* \"contracts/Online/ERC20/WBTC.sol\":2840:2860  balances[msg.sender] */\n      swap1\n      dup2\n      mstore\n      0x20\n      dup2\n      swap1\n      mstore\n      0x40\n      dup1\n      dup3\n      keccak256\n        /* \"contracts/Online/ERC20/WBTC.sol\":2840:2895  balances[msg.sender] = balances[msg.sender].sub(_value) */\n      swap3\n      swap1\n      swap3\n      sstore\n      sub(exp(0x2, 0xa0), 0x1)\n        /* \"contracts/Online/ERC20/WBTC.sol\":2918:2931  balances[_to] */\n      dup6\n      and\n      dup2\n      mstore\n      keccak256\n      sload\n        /* \"contracts/Online/ERC20/WBTC.sol\":2918:2943  balances[_to].add(_value) */\n      tag_210\n      swap1\n        /* \"contracts/Online/ERC20/WBTC.sol\":2936:2942  _value */\n      dup4\n        /* \"contracts/Online/ERC20/WBTC.sol\":2918:2943  balances[_to].add(_value) */\n      0xffffffff\n        /* \"contracts/Online/ERC20/WBTC.sol\":2918:2935  balances[_to].add */\n      tag_139\n        /* \"contracts/Online/ERC20/WBTC.sol\":2918:2943  balances[_to].add(_value) */\n      and\n      jump\t// in\n    tag_210:\n      sub(exp(0x2, 0xa0), 0x1)\n        /* \"contracts/Online/ERC20/WBTC.sol\":2902:2915  balances[_to] */\n      dup5\n      and\n        /* \"contracts/Online/ERC20/WBTC.sol\":2902:2910  balances */\n      0x0\n        /* \"contracts/Online/ERC20/WBTC.sol\":2902:2915  balances[_to] */\n      dup2\n      dup2\n      mstore\n      0x20\n      dup2\n      dup2\n      mstore\n      0x40\n      swap2\n      dup3\n      swap1\n      keccak256\n        /* \"contracts/Online/ERC20/WBTC.sol\":2902:2943  balances[_to] = balances[_to].add(_value) */\n      swap4\n      swap1\n      swap4\n      sstore\n        /* \"contracts/Online/ERC20/WBTC.sol\":2955:2988  Transfer(msg.sender, _to, _value) */\n      dup1\n      mload\n      dup6\n      dup2\n      mstore\n      swap1\n      mload\n        /* \"contracts/Online/ERC20/WBTC.sol\":2902:2915  balances[_to] */\n      swap2\n      swap3\n        /* \"contracts/Online/ERC20/WBTC.sol\":2964:2974  msg.sender */\n      caller\n      swap3\n      0x0\n      dup1\n      mload\n      0x20\n      data_ada389e1fc24a8587c776340efb91b36e675792ab631816100d55df0b5cf3cbc\n      dup4\n      codecopy\n      dup2\n      mload\n      swap2\n      mstore\n        /* \"contracts/Online/ERC20/WBTC.sol\":2955:2988  Transfer(msg.sender, _to, _value) */\n      swap3\n      dup2\n      swap1\n      sub\n      swap1\n      swap2\n      add\n      swap1\n      log3\n      pop\n        /* \"contracts/Online/ERC20/WBTC.sol\":3002:3006  true */\n      0x1\n        /* \"contracts/Online/ERC20/WBTC.sol\":2683:3012  function transfer(address _to, uint256 _value) public returns (bool) {\r... */\n      swap3\n      swap2\n      pop\n      pop\n      jump\t// out\n        /* \"contracts/Online/ERC20/WBTC.sol\":6900:7207  function increaseApproval(\r... */\n    tag_178:\n        /* \"contracts/Online/ERC20/WBTC.sol\":7071:7081  msg.sender */\n      caller\n        /* \"contracts/Online/ERC20/WBTC.sol\":7006:7010  bool */\n      0x0\n        /* \"contracts/Online/ERC20/WBTC.sol\":7063:7082  allowed[msg.sender] */\n      swap1\n      dup2\n      mstore\n        /* \"contracts/Online/ERC20/WBTC.sol\":7063:7070  allowed */\n      0x2\n        /* \"contracts/Online/ERC20/WBTC.sol\":7063:7082  allowed[msg.sender] */\n      0x20\n      swap1\n      dup2\n      mstore\n      0x40\n      dup1\n      dup4\n      keccak256\n      sub(exp(0x2, 0xa0), 0x1)\n        /* \"contracts/Online/ERC20/WBTC.sol\":7063:7092  allowed[msg.sender][_spender] */\n      dup7\n      and\n      dup5\n      mstore\n      swap1\n      swap2\n      mstore\n      dup2\n      keccak256\n      sload\n        /* \"contracts/Online/ERC20/WBTC.sol\":7063:7109  allowed[msg.sender][_spender].add(_addedValue) */\n      tag_212\n      swap1\n        /* \"contracts/Online/ERC20/WBTC.sol\":7097:7108  _addedValue */\n      dup4\n        /* \"contracts/Online/ERC20/WBTC.sol\":7063:7109  allowed[msg.sender][_spender].add(_addedValue) */\n      0xffffffff\n        /* \"contracts/Online/ERC20/WBTC.sol\":7063:7096  allowed[msg.sender][_spender].add */\n      tag_139\n        /* \"contracts/Online/ERC20/WBTC.sol\":7063:7109  allowed[msg.sender][_spender].add(_addedValue) */\n      and\n      jump\t// in\n    tag_212:\n        /* \"contracts/Online/ERC20/WBTC.sol\":7030:7040  msg.sender */\n      caller\n        /* \"contracts/Online/ERC20/WBTC.sol\":7022:7041  allowed[msg.sender] */\n      0x0\n      dup2\n      dup2\n      mstore\n        /* \"contracts/Online/ERC20/WBTC.sol\":7022:7029  allowed */\n      0x2\n        /* \"contracts/Online/ERC20/WBTC.sol\":7022:7041  allowed[msg.sender] */\n      0x20\n      swap1\n      dup2\n      mstore\n      0x40\n      dup1\n      dup4\n      keccak256\n      sub(exp(0x2, 0xa0), 0x1)\n        /* \"contracts/Online/ERC20/WBTC.sol\":7022:7051  allowed[msg.sender][_spender] */\n      dup10\n      and\n      dup1\n      dup6\n      mstore\n      swap1\n      dup4\n      mstore\n      swap3\n      dup2\n      swap1\n      keccak256\n        /* \"contracts/Online/ERC20/WBTC.sol\":7022:7110  allowed[msg.sender][_spender] = (\r... */\n      dup6\n      swap1\n      sstore\n        /* \"contracts/Online/ERC20/WBTC.sol\":7122:7183  Approval(msg.sender, _spender, allowed[msg.sender][_spender]) */\n      dup1\n      mload\n      swap5\n      dup6\n      mstore\n      mload\n        /* \"contracts/Online/ERC20/WBTC.sol\":7022:7051  allowed[msg.sender][_spender] */\n      swap2\n      swap4\n        /* \"contracts/Online/ERC20/WBTC.sol\":7122:7183  Approval(msg.sender, _spender, allowed[msg.sender][_spender]) */\n      0x8c5be1e5ebec7d5bd14f71427d1e84f3dd0314c0f7b2291e5b200ac8c7c3b925\n      swap3\n      swap1\n      dup2\n      swap1\n      sub\n      swap1\n      swap2\n      add\n      swap1\n      log3\n      pop\n        /* \"contracts/Online/ERC20/WBTC.sol\":7197:7201  true */\n      0x1\n        /* \"contracts/Online/ERC20/WBTC.sol\":6900:7207  function increaseApproval(\r... */\n      swap3\n      swap2\n      pop\n      pop\n      jump\t// out\n        /* \"contracts/Online/ERC20/WBTC.sol\":1728:1847  function sub(uint256 _a, uint256 _b) internal pure returns (uint256) {\r... */\n    tag_194:\n        /* \"contracts/Online/ERC20/WBTC.sol\":1788:1795  uint256 */\n      0x0\n        /* \"contracts/Online/ERC20/WBTC.sol\":1811:1819  _b <= _a */\n      dup3\n      dup3\n      gt\n      iszero\n        /* \"contracts/Online/ERC20/WBTC.sol\":1804:1820  assert(_b <= _a) */\n      tag_214\n      jumpi\n      invalid\n    tag_214:\n      pop\n        /* \"contracts/Online/ERC20/WBTC.sol\":1834:1841  _a - _b */\n      swap1\n      sub\n      swap1\n        /* \"contracts/Online/ERC20/WBTC.sol\":1728:1847  function sub(uint256 _a, uint256 _b) internal pure returns (uint256) {\r... */\n      jump\t// out\n        /* \"contracts/Online/ERC20/WBTC.sol\":12415:12862  function _burn(address _who, uint256 _value) internal {\r... */\n    tag_201:\n      sub(exp(0x2, 0xa0), 0x1)\n        /* \"contracts/Online/ERC20/WBTC.sol\":12494:12508  balances[_who] */\n      dup3\n      and\n        /* \"contracts/Online/ERC20/WBTC.sol\":12494:12502  balances */\n      0x0\n        /* \"contracts/Online/ERC20/WBTC.sol\":12494:12508  balances[_who] */\n      swap1\n      dup2\n      mstore\n      0x20\n      dup2\n      swap1\n      mstore\n      0x40\n      swap1\n      keccak256\n      sload\n        /* \"contracts/Online/ERC20/WBTC.sol\":12484:12508  _value <= balances[_who] */\n      dup2\n      gt\n      iszero\n        /* \"contracts/Online/ERC20/WBTC.sol\":12476:12509  require(_value <= balances[_who]) */\n      tag_216\n      jumpi\n      0x0\n      dup1\n      revert\n    tag_216:\n      sub(exp(0x2, 0xa0), 0x1)\n        /* \"contracts/Online/ERC20/WBTC.sol\":12708:12722  balances[_who] */\n      dup3\n      and\n        /* \"contracts/Online/ERC20/WBTC.sol\":12708:12716  balances */\n      0x0\n        /* \"contracts/Online/ERC20/WBTC.sol\":12708:12722  balances[_who] */\n      swap1\n      dup2\n      mstore\n      0x20\n      dup2\n      swap1\n      mstore\n      0x40\n      swap1\n      keccak256\n      sload\n        /* \"contracts/Online/ERC20/WBTC.sol\":12708:12734  balances[_who].sub(_value) */\n      tag_217\n      swap1\n        /* \"contracts/Online/ERC20/WBTC.sol\":12727:12733  _value */\n      dup3\n        /* \"contracts/Online/ERC20/WBTC.sol\":12708:12734  balances[_who].sub(_value) */\n      0xffffffff\n        /* \"contracts/Online/ERC20/WBTC.sol\":12708:12726  balances[_who].sub */\n      tag_194\n        /* \"contracts/Online/ERC20/WBTC.sol\":12708:12734  balances[_who].sub(_value) */\n      and\n      jump\t// in\n    tag_217:\n      sub(exp(0x2, 0xa0), 0x1)\n        /* \"contracts/Online/ERC20/WBTC.sol\":12691:12705  balances[_who] */\n      dup4\n      and\n        /* \"contracts/Online/ERC20/WBTC.sol\":12691:12699  balances */\n      0x0\n        /* \"contracts/Online/ERC20/WBTC.sol\":12691:12705  balances[_who] */\n      swap1\n      dup2\n      mstore\n      0x20\n      dup2\n      swap1\n      mstore\n      0x40\n      swap1\n      keccak256\n        /* \"contracts/Online/ERC20/WBTC.sol\":12691:12734  balances[_who] = balances[_who].sub(_value) */\n      sstore\n        /* \"contracts/Online/ERC20/WBTC.sol\":12756:12768  totalSupply_ */\n      sload(0x1)\n        /* \"contracts/Online/ERC20/WBTC.sol\":12756:12780  totalSupply_.sub(_value) */\n      tag_218\n      swap1\n        /* \"contracts/Online/ERC20/WBTC.sol\":12773:12779  _value */\n      dup3\n        /* \"contracts/Online/ERC20/WBTC.sol\":12756:12780  totalSupply_.sub(_value) */\n      0xffffffff\n        /* \"contracts/Online/ERC20/WBTC.sol\":12756:12772  totalSupply_.sub */\n      tag_194\n        /* \"contracts/Online/ERC20/WBTC.sol\":12756:12780  totalSupply_.sub(_value) */\n      and\n      jump\t// in\n    tag_218:\n        /* \"contracts/Online/ERC20/WBTC.sol\":12741:12753  totalSupply_ */\n      0x1\n        /* \"contracts/Online/ERC20/WBTC.sol\":12741:12780  totalSupply_ = totalSupply_.sub(_value) */\n      sstore\n        /* \"contracts/Online/ERC20/WBTC.sol\":12792:12810  Burn(_who, _value) */\n      0x40\n      dup1\n      mload\n      dup3\n      dup2\n      mstore\n      swap1\n      mload\n      sub(exp(0x2, 0xa0), 0x1)\n      dup5\n      and\n      swap2\n      0xcc16f5dbb4873280815c1ee09dbd06736cffcc184412cf7a71a0fdb75d397ca5\n      swap2\n      swap1\n      dup2\n      swap1\n      sub\n      0x20\n      add\n      swap1\n      log2\n        /* \"contracts/Online/ERC20/WBTC.sol\":12822:12856  Transfer(_who, address(0), _value) */\n      0x40\n      dup1\n      mload\n      dup3\n      dup2\n      mstore\n      swap1\n      mload\n        /* \"contracts/Online/ERC20/WBTC.sol\":12845:12846  0 */\n      0x0\n      swap2\n      sub(exp(0x2, 0xa0), 0x1)\n        /* \"contracts/Online/ERC20/WBTC.sol\":12822:12856  Transfer(_who, address(0), _value) */\n      dup6\n      and\n      swap2\n      0x0\n      dup1\n      mload\n      0x20\n      data_ada389e1fc24a8587c776340efb91b36e675792ab631816100d55df0b5cf3cbc\n      dup4\n      codecopy\n      dup2\n      mload\n      swap2\n      mstore\n      swap2\n      dup2\n      swap1\n      sub\n      0x20\n      add\n      swap1\n      log3\n        /* \"contracts/Online/ERC20/WBTC.sol\":12415:12862  function _burn(address _who, uint256 _value) internal {\r... */\n      pop\n      pop\n      jump\t// out\n    stop\n    data_ada389e1fc24a8587c776340efb91b36e675792ab631816100d55df0b5cf3cbc ddf252ad1be2c89b69c2b068fc378daa952ba7f163c4a11628f55a4df523b3ef\n\n    auxdata: 0xa165627a7a72305820b1b4db1247837f6d8ef96df2867051119e98f348964f28a6b4f39c03c5a610540029\n}\n",
				"bytecode": {
					"linkReferences": {},
					"object": "6005805460a860020a61ffff0219169055600b60808181527f577261707065642042544300000000000000000000000000000000000000000060a0908152610100604052600460c09081527f574254430000000000000000000000000000000000000000000000000000000060e0529192600891620000829160039190620000c7565b50815162000098906004906020850190620000c7565b506005805460ff191660ff929092169190911761010060a860020a0319166101003302179055506200016c9050565b828054600181600116156101000203166002900490600052602060002090601f016020900481019282601f106200010a57805160ff19168380011785556200013a565b828001600101855582156200013a579182015b828111156200013a5782518255916020019190600101906200011d565b50620001489291506200014c565b5090565b6200016991905b8082111562000148576000815560010162000153565b90565b6111e6806200017c6000396000f30060806040526004361061013d5763ffffffff7c010000000000000000000000000000000000000000000000000000000060003504166305d2035b811461014257806306fdde031461016b578063095ea7b3146101f557806317ffc3201461021957806318160ddd1461023c57806323b872dd14610263578063313ce5671461028d5780633f4ba83a146102b857806340c10f19146102cd57806342966c68146102f15780634e71e0c8146103095780635c975abb1461031e578063661884631461033357806370a0823114610357578063715018a6146103785780637d64bcb41461038d5780638456cb59146103a25780638da5cb5b146103b757806395d89b41146103e8578063a9059cbb146103fd578063d73dd62314610421578063dd62ed3e14610445578063e30c39781461046c578063f2fde38b14610481575b600080fd5b34801561014e57600080fd5b506101576104a2565b604080519115158252519081900360200190f35b34801561017757600080fd5b506101806104c4565b6040805160208082528351818301528351919283929083019185019080838360005b838110156101ba5781810151838201526020016101a2565b50505050905090810190601f1680156101e75780820380516001836020036101000a031916815260200191505b509250505060405180910390f35b34801561020157600080fd5b50610157600160a060020a0360043516602435610552565b34801561022557600080fd5b5061023a600160a060020a036004351661057d565b005b34801561024857600080fd5b50610251610655565b60408051918252519081900360200190f35b34801561026f57600080fd5b50610157600160a060020a036004358116906024351660443561065b565b34801561029957600080fd5b506102a2610688565b6040805160ff9092168252519081900360200190f35b3480156102c457600080fd5b5061023a610691565b3480156102d957600080fd5b50610157600160a060020a0360043516602435610710565b3480156102fd57600080fd5b5061023a60043561081f565b34801561031557600080fd5b5061023a610847565b34801561032a57600080fd5b506101576108ef565b34801561033f57600080fd5b50610157600160a060020a03600435166024356108ff565b34801561036357600080fd5b50610251600160a060020a0360043516610923565b34801561038457600080fd5b5061023a61093e565b34801561039957600080fd5b506101576109c1565b3480156103ae57600080fd5b5061023a6109e6565b3480156103c357600080fd5b506103cc610a6a565b60408051600160a060020a039092168252519081900360200190f35b3480156103f457600080fd5b50610180610a7e565b34801561040957600080fd5b50610157600160a060020a0360043516602435610ad9565b34801561042d57600080fd5b50610157600160a060020a0360043516602435610afd565b34801561045157600080fd5b50610251600160a060020a0360043581169060243516610b21565b34801561047857600080fd5b506103cc610b4c565b34801561048d57600080fd5b5061023a600160a060020a0360043516610b5b565b6005547501000000000000000000000000000000000000000000900460ff1681565b6003805460408051602060026001851615610100026000190190941693909304601f8101849004840282018401909252818152929183018282801561054a5780601f1061051f5761010080835404028352916020019161054a565b820191906000526020600020905b81548152906001019060200180831161052d57829003601f168201915b505050505081565b60055460009060b060020a900460ff161561056c57600080fd5b6105768383610ba6565b9392505050565b6005546000906101009004600160a060020a0316331461059c57600080fd5b604080517f70a082310000000000000000000000000000000000000000000000000000000081523060048201529051600160a060020a038416916370a082319160248083019260209291908290030181600087803b1580156105fd57600080fd5b505af1158015610611573d6000803e3d6000fd5b505050506040513d602081101561062757600080fd5b505160055490915061065190600160a060020a03848116916101009004168363ffffffff610c0c16565b5050565b60015490565b60055460009060b060020a900460ff161561067557600080fd5b610680848484610cc4565b949350505050565b60055460ff1681565b6005546101009004600160a060020a031633146106ad57600080fd5b60055460b060020a900460ff1615156106c557600080fd5b6005805476ff00000000000000000000000000000000000000000000191690556040517f7805862f689e2f13df9f062ff482ad3ad112aca9e0847911ed832e158c525b3390600090a1565b6005546000906101009004600160a060020a0316331461072f57600080fd5b6005547501000000000000000000000000000000000000000000900460ff161561075857600080fd5b60015461076b908363ffffffff610e2716565b600155600160a060020a038316600090815260208190526040902054610797908363ffffffff610e2716565b600160a060020a03841660008181526020818152604091829020939093558051858152905191927f0f6798a560793a54c3bcfe86a93cde1e73087d944c0ea20544137d412139688592918290030190a2604080518381529051600160a060020a0385169160009160008051602061119b8339815191529181900360200190a350600192915050565b6005546101009004600160a060020a0316331461083b57600080fd5b61084481610e3a565b50565b600654600160a060020a0316331461085e57600080fd5b600654600554604051600160a060020a0392831692610100909204909116907f8be0079c531659141344cd1fd0a4f28419497f9722a3daafe3b4186f6b6457e090600090a3600680546005805474ffffffffffffffffffffffffffffffffffffffff001916610100600160a060020a0384160217905573ffffffffffffffffffffffffffffffffffffffff19169055565b60055460b060020a900460ff1681565b60055460009060b060020a900460ff161561091957600080fd5b6105768383610e44565b600160a060020a031660009081526020819052604090205490565b6005546101009004600160a060020a0316331461095a57600080fd5b604080517f08c379a000000000000000000000000000000000000000000000000000000000815260206004820152601f60248201527f72656e6f756e63696e67206f776e65727368697020697320626c6f636b656400604482015290519081900360640190fd5b6005546000906101009004600160a060020a031633146109e057600080fd5b50600090565b6005546101009004600160a060020a03163314610a0257600080fd5b60055460b060020a900460ff1615610a1957600080fd5b6005805476ff00000000000000000000000000000000000000000000191660b060020a1790556040517f6985a02210a168e66602d3235cb6db0e70f92b3ba4d376a33c0f3d9434bff62590600090a1565b6005546101009004600160a060020a031681565b6004805460408051602060026001851615610100026000190190941693909304601f8101849004840282018401909252818152929183018282801561054a5780601f1061051f5761010080835404028352916020019161054a565b60055460009060b060020a900460ff1615610af357600080fd5b6105768383610f33565b60055460009060b060020a900460ff1615610b1757600080fd5b6105768383611000565b600160a060020a03918216600090815260026020908152604080832093909416825291909152205490565b600654600160a060020a031681565b6005546101009004600160a060020a03163314610b7757600080fd5b6006805473ffffffffffffffffffffffffffffffffffffffff1916600160a060020a0392909216919091179055565b336000818152600260209081526040808320600160a060020a038716808552908352818420869055815186815291519394909390927f8c5be1e5ebec7d5bd14f71427d1e84f3dd0314c0f7b2291e5b200ac8c7c3b925928290030190a350600192915050565b82600160a060020a031663a9059cbb83836040518363ffffffff167c01000000000000000000000000000000000000000000000000000000000281526004018083600160a060020a0316600160a060020a0316815260200182815260200192505050602060405180830381600087803b158015610c8857600080fd5b505af1158015610c9c573d6000803e3d6000fd5b505050506040513d6020811015610cb257600080fd5b50511515610cbf57600080fd5b505050565b600160a060020a038316600090815260208190526040812054821115610ce957600080fd5b600160a060020a0384166000908152600260209081526040808320338452909152902054821115610d1957600080fd5b600160a060020a0383161515610d2e57600080fd5b600160a060020a038416600090815260208190526040902054610d57908363ffffffff61109916565b600160a060020a038086166000908152602081905260408082209390935590851681522054610d8c908363ffffffff610e2716565b600160a060020a03808516600090815260208181526040808320949094559187168152600282528281203382529091522054610dce908363ffffffff61109916565b600160a060020a038086166000818152600260209081526040808320338452825291829020949094558051868152905192871693919260008051602061119b833981519152929181900390910190a35060019392505050565b81810182811015610e3457fe5b92915050565b61084433826110ab565b336000908152600260209081526040808320600160a060020a0386168452909152812054808310610e9857336000908152600260209081526040808320600160a060020a0388168452909152812055610ecd565b610ea8818463ffffffff61109916565b336000908152600260209081526040808320600160a060020a03891684529091529020555b336000818152600260209081526040808320600160a060020a0389168085529083529281902054815190815290519293927f8c5be1e5ebec7d5bd14f71427d1e84f3dd0314c0f7b2291e5b200ac8c7c3b925929181900390910190a35060019392505050565b33600090815260208190526040812054821115610f4f57600080fd5b600160a060020a0383161515610f6457600080fd5b33600090815260208190526040902054610f84908363ffffffff61109916565b3360009081526020819052604080822092909255600160a060020a03851681522054610fb6908363ffffffff610e2716565b600160a060020a0384166000818152602081815260409182902093909355805185815290519192339260008051602061119b8339815191529281900390910190a350600192915050565b336000908152600260209081526040808320600160a060020a0386168452909152812054611034908363ffffffff610e2716565b336000818152600260209081526040808320600160a060020a0389168085529083529281902085905580519485525191937f8c5be1e5ebec7d5bd14f71427d1e84f3dd0314c0f7b2291e5b200ac8c7c3b925929081900390910190a350600192915050565b6000828211156110a557fe5b50900390565b600160a060020a0382166000908152602081905260409020548111156110d057600080fd5b600160a060020a0382166000908152602081905260409020546110f9908263ffffffff61109916565b600160a060020a038316600090815260208190526040902055600154611125908263ffffffff61109916565b600155604080518281529051600160a060020a038416917fcc16f5dbb4873280815c1ee09dbd06736cffcc184412cf7a71a0fdb75d397ca5919081900360200190a2604080518281529051600091600160a060020a0385169160008051602061119b8339815191529181900360200190a350505600ddf252ad1be2c89b69c2b068fc378daa952ba7f163c4a11628f55a4df523b3efa165627a7a72305820b1b4db1247837f6d8ef96df2867051119e98f348964f28a6b4f39c03c5a610540029",
					"opcodes": "PUSH1 0x5 DUP1 SLOAD PUSH1 0xA8 PUSH1 0x2 EXP PUSH2 0xFFFF MUL NOT AND SWAP1 SSTORE PUSH1 0xB PUSH1 0x80 DUP2 DUP2 MSTORE PUSH32 0x5772617070656420425443000000000000000000000000000000000000000000 PUSH1 0xA0 SWAP1 DUP2 MSTORE PUSH2 0x100 PUSH1 0x40 MSTORE PUSH1 0x4 PUSH1 0xC0 SWAP1 DUP2 MSTORE PUSH32 0x5742544300000000000000000000000000000000000000000000000000000000 PUSH1 0xE0 MSTORE SWAP2 SWAP3 PUSH1 0x8 SWAP2 PUSH3 0x82 SWAP2 PUSH1 0x3 SWAP2 SWAP1 PUSH3 0xC7 JUMP JUMPDEST POP DUP2 MLOAD PUSH3 0x98 SWAP1 PUSH1 0x4 SWAP1 PUSH1 0x20 DUP6 ADD SWAP1 PUSH3 0xC7 JUMP JUMPDEST POP PUSH1 0x5 DUP1 SLOAD PUSH1 0xFF NOT AND PUSH1 0xFF SWAP3 SWAP1 SWAP3 AND SWAP2 SWAP1 SWAP2 OR PUSH2 0x100 PUSH1 0xA8 PUSH1 0x2 EXP SUB NOT AND PUSH2 0x100 CALLER MUL OR SWAP1 SSTORE POP PUSH3 0x16C SWAP1 POP JUMP JUMPDEST DUP3 DUP1 SLOAD PUSH1 0x1 DUP2 PUSH1 0x1 AND ISZERO PUSH2 0x100 MUL SUB AND PUSH1 0x2 SWAP1 DIV SWAP1 PUSH1 0x0 MSTORE PUSH1 0x20 PUSH1 0x0 KECCAK256 SWAP1 PUSH1 0x1F ADD PUSH1 0x20 SWAP1 DIV DUP2 ADD SWAP3 DUP3 PUSH1 0x1F LT PUSH3 0x10A JUMPI DUP1 MLOAD PUSH1 0xFF NOT AND DUP4 DUP1 ADD OR DUP6 SSTORE PUSH3 0x13A JUMP JUMPDEST DUP3 DUP1 ADD PUSH1 0x1 ADD DUP6 SSTORE DUP3 ISZERO PUSH3 0x13A JUMPI SWAP2 DUP3 ADD JUMPDEST DUP3 DUP2 GT ISZERO PUSH3 0x13A JUMPI DUP3 MLOAD DUP3 SSTORE SWAP2 PUSH1 0x20 ADD SWAP2 SWAP1 PUSH1 0x1 ADD SWAP1 PUSH3 0x11D JUMP JUMPDEST POP PUSH3 0x148 SWAP3 SWAP2 POP PUSH3 0x14C JUMP JUMPDEST POP SWAP1 JUMP JUMPDEST PUSH3 0x169 SWAP2 SWAP1 JUMPDEST DUP1 DUP3 GT ISZERO PUSH3 0x148 JUMPI PUSH1 0x0 DUP2 SSTORE PUSH1 0x1 ADD PUSH3 0x153 JUMP JUMPDEST SWAP1 JUMP JUMPDEST PUSH2 0x11E6 DUP1 PUSH3 0x17C PUSH1 0x0 CODECOPY PUSH1 0x0 RETURN STOP PUSH1 0x80 PUSH1 0x40 MSTORE PUSH1 0x4 CALLDATASIZE LT PUSH2 0x13D JUMPI PUSH4 0xFFFFFFFF PUSH29 0x100000000000000000000000000000000000000000000000000000000 PUSH1 0x0 CALLDATALOAD DIV AND PUSH4 0x5D2035B DUP2 EQ PUSH2 0x142 JUMPI DUP1 PUSH4 0x6FDDE03 EQ PUSH2 0x16B JUMPI DUP1 PUSH4 0x95EA7B3 EQ PUSH2 0x1F5 JUMPI DUP1 PUSH4 0x17FFC320 EQ PUSH2 0x219 JUMPI DUP1 PUSH4 0x18160DDD EQ PUSH2 0x23C JUMPI DUP1 PUSH4 0x23B872DD EQ PUSH2 0x263 JUMPI DUP1 PUSH4 0x313CE567 EQ PUSH2 0x28D JUMPI DUP1 PUSH4 0x3F4BA83A EQ PUSH2 0x2B8 JUMPI DUP1 PUSH4 0x40C10F19 EQ PUSH2 0x2CD JUMPI DUP1 PUSH4 0x42966C68 EQ PUSH2 0x2F1 JUMPI DUP1 PUSH4 0x4E71E0C8 EQ PUSH2 0x309 JUMPI DUP1 PUSH4 0x5C975ABB EQ PUSH2 0x31E JUMPI DUP1 PUSH4 0x66188463 EQ PUSH2 0x333 JUMPI DUP1 PUSH4 0x70A08231 EQ PUSH2 0x357 JUMPI DUP1 PUSH4 0x715018A6 EQ PUSH2 0x378 JUMPI DUP1 PUSH4 0x7D64BCB4 EQ PUSH2 0x38D JUMPI DUP1 PUSH4 0x8456CB59 EQ PUSH2 0x3A2 JUMPI DUP1 PUSH4 0x8DA5CB5B EQ PUSH2 0x3B7 JUMPI DUP1 PUSH4 0x95D89B41 EQ PUSH2 0x3E8 JUMPI DUP1 PUSH4 0xA9059CBB EQ PUSH2 0x3FD JUMPI DUP1 PUSH4 0xD73DD623 EQ PUSH2 0x421 JUMPI DUP1 PUSH4 0xDD62ED3E EQ PUSH2 0x445 JUMPI DUP1 PUSH4 0xE30C3978 EQ PUSH2 0x46C JUMPI DUP1 PUSH4 0xF2FDE38B EQ PUSH2 0x481 JUMPI JUMPDEST PUSH1 0x0 DUP1 REVERT JUMPDEST CALLVALUE DUP1 ISZERO PUSH2 0x14E JUMPI PUSH1 0x0 DUP1 REVERT JUMPDEST POP PUSH2 0x157 PUSH2 0x4A2 JUMP JUMPDEST PUSH1 0x40 DUP1 MLOAD SWAP2 ISZERO ISZERO DUP3 MSTORE MLOAD SWAP1 DUP2 SWAP1 SUB PUSH1 0x20 ADD SWAP1 RETURN JUMPDEST CALLVALUE DUP1 ISZERO PUSH2 0x177 JUMPI PUSH1 0x0 DUP1 REVERT JUMPDEST POP PUSH2 0x180 PUSH2 0x4C4 JUMP JUMPDEST PUSH1 0x40 DUP1 MLOAD PUSH1 0x20 DUP1 DUP3 MSTORE DUP4 MLOAD DUP2 DUP4 ADD MSTORE DUP4 MLOAD SWAP2 SWAP3 DUP4 SWAP3 SWAP1 DUP4 ADD SWAP2 DUP6 ADD SWAP1 DUP1 DUP4 DUP4 PUSH1 0x0 JUMPDEST DUP4 DUP2 LT ISZERO PUSH2 0x1BA JUMPI DUP2 DUP2 ADD MLOAD DUP4 DUP3 ADD MSTORE PUSH1 0x20 ADD PUSH2 0x1A2 JUMP JUMPDEST POP POP POP POP SWAP1 POP SWAP1 DUP2 ADD SWAP1 PUSH1 0x1F AND DUP1 ISZERO PUSH2 0x1E7 JUMPI DUP1 DUP3 SUB DUP1 MLOAD PUSH1 0x1 DUP4 PUSH1 0x20 SUB PUSH2 0x100 EXP SUB NOT AND DUP2 MSTORE PUSH1 0x20 ADD SWAP2 POP JUMPDEST POP SWAP3 POP POP POP PUSH1 0x40 MLOAD DUP1 SWAP2 SUB SWAP1 RETURN JUMPDEST CALLVALUE DUP1 ISZERO PUSH2 0x201 JUMPI PUSH1 0x0 DUP1 REVERT JUMPDEST POP PUSH2 0x157 PUSH1 0x1 PUSH1 0xA0 PUSH1 0x2 EXP SUB PUSH1 0x4 CALLDATALOAD AND PUSH1 0x24 CALLDATALOAD PUSH2 0x552 JUMP JUMPDEST CALLVALUE DUP1 ISZERO PUSH2 0x225 JUMPI PUSH1 0x0 DUP1 REVERT JUMPDEST POP PUSH2 0x23A PUSH1 0x1 PUSH1 0xA0 PUSH1 0x2 EXP SUB PUSH1 0x4 CALLDATALOAD AND PUSH2 0x57D JUMP JUMPDEST STOP JUMPDEST CALLVALUE DUP1 ISZERO PUSH2 0x248 JUMPI PUSH1 0x0 DUP1 REVERT JUMPDEST POP PUSH2 0x251 PUSH2 0x655 JUMP JUMPDEST PUSH1 0x40 DUP1 MLOAD SWAP2 DUP3 MSTORE MLOAD SWAP1 DUP2 SWAP1 SUB PUSH1 0x20 ADD SWAP1 RETURN JUMPDEST CALLVALUE DUP1 ISZERO PUSH2 0x26F JUMPI PUSH1 0x0 DUP1 REVERT JUMPDEST POP PUSH2 0x157 PUSH1 0x1 PUSH1 0xA0 PUSH1 0x2 EXP SUB PUSH1 0x4 CALLDATALOAD DUP2 AND SWAP1 PUSH1 0x24 CALLDATALOAD AND PUSH1 0x44 CALLDATALOAD PUSH2 0x65B JUMP JUMPDEST CALLVALUE DUP1 ISZERO PUSH2 0x299 JUMPI PUSH1 0x0 DUP1 REVERT JUMPDEST POP PUSH2 0x2A2 PUSH2 0x688 JUMP JUMPDEST PUSH1 0x40 DUP1 MLOAD PUSH1 0xFF SWAP1 SWAP3 AND DUP3 MSTORE MLOAD SWAP1 DUP2 SWAP1 SUB PUSH1 0x20 ADD SWAP1 RETURN JUMPDEST CALLVALUE DUP1 ISZERO PUSH2 0x2C4 JUMPI PUSH1 0x0 DUP1 REVERT JUMPDEST POP PUSH2 0x23A PUSH2 0x691 JUMP JUMPDEST CALLVALUE DUP1 ISZERO PUSH2 0x2D9 JUMPI PUSH1 0x0 DUP1 REVERT JUMPDEST POP PUSH2 0x157 PUSH1 0x1 PUSH1 0xA0 PUSH1 0x2 EXP SUB PUSH1 0x4 CALLDATALOAD AND PUSH1 0x24 CALLDATALOAD PUSH2 0x710 JUMP JUMPDEST CALLVALUE DUP1 ISZERO PUSH2 0x2FD JUMPI PUSH1 0x0 DUP1 REVERT JUMPDEST POP PUSH2 0x23A PUSH1 0x4 CALLDATALOAD PUSH2 0x81F JUMP JUMPDEST CALLVALUE DUP1 ISZERO PUSH2 0x315 JUMPI PUSH1 0x0 DUP1 REVERT JUMPDEST POP PUSH2 0x23A PUSH2 0x847 JUMP JUMPDEST CALLVALUE DUP1 ISZERO PUSH2 0x32A JUMPI PUSH1 0x0 DUP1 REVERT JUMPDEST POP PUSH2 0x157 PUSH2 0x8EF JUMP JUMPDEST CALLVALUE DUP1 ISZERO PUSH2 0x33F JUMPI PUSH1 0x0 DUP1 REVERT JUMPDEST POP PUSH2 0x157 PUSH1 0x1 PUSH1 0xA0 PUSH1 0x2 EXP SUB PUSH1 0x4 CALLDATALOAD AND PUSH1 0x24 CALLDATALOAD PUSH2 0x8FF JUMP JUMPDEST CALLVALUE DUP1 ISZERO PUSH2 0x363 JUMPI PUSH1 0x0 DUP1 REVERT JUMPDEST POP PUSH2 0x251 PUSH1 0x1 PUSH1 0xA0 PUSH1 0x2 EXP SUB PUSH1 0x4 CALLDATALOAD AND PUSH2 0x923 JUMP JUMPDEST CALLVALUE DUP1 ISZERO PUSH2 0x384 JUMPI PUSH1 0x0 DUP1 REVERT JUMPDEST POP PUSH2 0x23A PUSH2 0x93E JUMP JUMPDEST CALLVALUE DUP1 ISZERO PUSH2 0x399 JUMPI PUSH1 0x0 DUP1 REVERT JUMPDEST POP PUSH2 0x157 PUSH2 0x9C1 JUMP JUMPDEST CALLVALUE DUP1 ISZERO PUSH2 0x3AE JUMPI PUSH1 0x0 DUP1 REVERT JUMPDEST POP PUSH2 0x23A PUSH2 0x9E6 JUMP JUMPDEST CALLVALUE DUP1 ISZERO PUSH2 0x3C3 JUMPI PUSH1 0x0 DUP1 REVERT JUMPDEST POP PUSH2 0x3CC PUSH2 0xA6A JUMP JUMPDEST PUSH1 0x40 DUP1 MLOAD PUSH1 0x1 PUSH1 0xA0 PUSH1 0x2 EXP SUB SWAP1 SWAP3 AND DUP3 MSTORE MLOAD SWAP1 DUP2 SWAP1 SUB PUSH1 0x20 ADD SWAP1 RETURN JUMPDEST CALLVALUE DUP1 ISZERO PUSH2 0x3F4 JUMPI PUSH1 0x0 DUP1 REVERT JUMPDEST POP PUSH2 0x180 PUSH2 0xA7E JUMP JUMPDEST CALLVALUE DUP1 ISZERO PUSH2 0x409 JUMPI PUSH1 0x0 DUP1 REVERT JUMPDEST POP PUSH2 0x157 PUSH1 0x1 PUSH1 0xA0 PUSH1 0x2 EXP SUB PUSH1 0x4 CALLDATALOAD AND PUSH1 0x24 CALLDATALOAD PUSH2 0xAD9 JUMP JUMPDEST CALLVALUE DUP1 ISZERO PUSH2 0x42D JUMPI PUSH1 0x0 DUP1 REVERT JUMPDEST POP PUSH2 0x157 PUSH1 0x1 PUSH1 0xA0 PUSH1 0x2 EXP SUB PUSH1 0x4 CALLDATALOAD AND PUSH1 0x24 CALLDATALOAD PUSH2 0xAFD JUMP JUMPDEST CALLVALUE DUP1 ISZERO PUSH2 0x451 JUMPI PUSH1 0x0 DUP1 REVERT JUMPDEST POP PUSH2 0x251 PUSH1 0x1 PUSH1 0xA0 PUSH1 0x2 EXP SUB PUSH1 0x4 CALLDATALOAD DUP2 AND SWAP1 PUSH1 0x24 CALLDATALOAD AND PUSH2 0xB21 JUMP JUMPDEST CALLVALUE DUP1 ISZERO PUSH2 0x478 JUMPI PUSH1 0x0 DUP1 REVERT JUMPDEST POP PUSH2 0x3CC PUSH2 0xB4C JUMP JUMPDEST CALLVALUE DUP1 ISZERO PUSH2 0x48D JUMPI PUSH1 0x0 DUP1 REVERT JUMPDEST POP PUSH2 0x23A PUSH1 0x1 PUSH1 0xA0 PUSH1 0x2 EXP SUB PUSH1 0x4 CALLDATALOAD AND PUSH2 0xB5B JUMP JUMPDEST PUSH1 0x5 SLOAD PUSH22 0x1000000000000000000000000000000000000000000 SWAP1 DIV PUSH1 0xFF AND DUP2 JUMP JUMPDEST PUSH1 0x3 DUP1 SLOAD PUSH1 0x40 DUP1 MLOAD PUSH1 0x20 PUSH1 0x2 PUSH1 0x1 DUP6 AND ISZERO PUSH2 0x100 MUL PUSH1 0x0 NOT ADD SWAP1 SWAP5 AND SWAP4 SWAP1 SWAP4 DIV PUSH1 0x1F DUP2 ADD DUP5 SWAP1 DIV DUP5 MUL DUP3 ADD DUP5 ADD SWAP1 SWAP3 MSTORE DUP2 DUP2 MSTORE SWAP3 SWAP2 DUP4 ADD DUP3 DUP3 DUP1 ISZERO PUSH2 0x54A JUMPI DUP1 PUSH1 0x1F LT PUSH2 0x51F JUMPI PUSH2 0x100 DUP1 DUP4 SLOAD DIV MUL DUP4 MSTORE SWAP2 PUSH1 0x20 ADD SWAP2 PUSH2 0x54A JUMP JUMPDEST DUP3 ADD SWAP2 SWAP1 PUSH1 0x0 MSTORE PUSH1 0x20 PUSH1 0x0 KECCAK256 SWAP1 JUMPDEST DUP2 SLOAD DUP2 MSTORE SWAP1 PUSH1 0x1 ADD SWAP1 PUSH1 0x20 ADD DUP1 DUP4 GT PUSH2 0x52D JUMPI DUP3 SWAP1 SUB PUSH1 0x1F AND DUP3 ADD SWAP2 JUMPDEST POP POP POP POP POP DUP2 JUMP JUMPDEST PUSH1 0x5 SLOAD PUSH1 0x0 SWAP1 PUSH1 0xB0 PUSH1 0x2 EXP SWAP1 DIV PUSH1 0xFF AND ISZERO PUSH2 0x56C JUMPI PUSH1 0x0 DUP1 REVERT JUMPDEST PUSH2 0x576 DUP4 DUP4 PUSH2 0xBA6 JUMP JUMPDEST SWAP4 SWAP3 POP POP POP JUMP JUMPDEST PUSH1 0x5 SLOAD PUSH1 0x0 SWAP1 PUSH2 0x100 SWAP1 DIV PUSH1 0x1 PUSH1 0xA0 PUSH1 0x2 EXP SUB AND CALLER EQ PUSH2 0x59C JUMPI PUSH1 0x0 DUP1 REVERT JUMPDEST PUSH1 0x40 DUP1 MLOAD PUSH32 0x70A0823100000000000000000000000000000000000000000000000000000000 DUP2 MSTORE ADDRESS PUSH1 0x4 DUP3 ADD MSTORE SWAP1 MLOAD PUSH1 0x1 PUSH1 0xA0 PUSH1 0x2 EXP SUB DUP5 AND SWAP2 PUSH4 0x70A08231 SWAP2 PUSH1 0x24 DUP1 DUP4 ADD SWAP3 PUSH1 0x20 SWAP3 SWAP2 SWAP1 DUP3 SWAP1 SUB ADD DUP2 PUSH1 0x0 DUP8 DUP1 EXTCODESIZE ISZERO DUP1 ISZERO PUSH2 0x5FD JUMPI PUSH1 0x0 DUP1 REVERT JUMPDEST POP GAS CALL ISZERO DUP1 ISZERO PUSH2 0x611 JUMPI RETURNDATASIZE PUSH1 0x0 DUP1 RETURNDATACOPY RETURNDATASIZE PUSH1 0x0 REVERT JUMPDEST POP POP POP POP PUSH1 0x40 MLOAD RETURNDATASIZE PUSH1 0x20 DUP2 LT ISZERO PUSH2 0x627 JUMPI PUSH1 0x0 DUP1 REVERT JUMPDEST POP MLOAD PUSH1 0x5 SLOAD SWAP1 SWAP2 POP PUSH2 0x651 SWAP1 PUSH1 0x1 PUSH1 0xA0 PUSH1 0x2 EXP SUB DUP5 DUP2 AND SWAP2 PUSH2 0x100 SWAP1 DIV AND DUP4 PUSH4 0xFFFFFFFF PUSH2 0xC0C AND JUMP JUMPDEST POP POP JUMP JUMPDEST PUSH1 0x1 SLOAD SWAP1 JUMP JUMPDEST PUSH1 0x5 SLOAD PUSH1 0x0 SWAP1 PUSH1 0xB0 PUSH1 0x2 EXP SWAP1 DIV PUSH1 0xFF AND ISZERO PUSH2 0x675 JUMPI PUSH1 0x0 DUP1 REVERT JUMPDEST PUSH2 0x680 DUP5 DUP5 DUP5 PUSH2 0xCC4 JUMP JUMPDEST SWAP5 SWAP4 POP POP POP POP JUMP JUMPDEST PUSH1 0x5 SLOAD PUSH1 0xFF AND DUP2 JUMP JUMPDEST PUSH1 0x5 SLOAD PUSH2 0x100 SWAP1 DIV PUSH1 0x1 PUSH1 0xA0 PUSH1 0x2 EXP SUB AND CALLER EQ PUSH2 0x6AD JUMPI PUSH1 0x0 DUP1 REVERT JUMPDEST PUSH1 0x5 SLOAD PUSH1 0xB0 PUSH1 0x2 EXP SWAP1 DIV PUSH1 0xFF AND ISZERO ISZERO PUSH2 0x6C5 JUMPI PUSH1 0x0 DUP1 REVERT JUMPDEST PUSH1 0x5 DUP1 SLOAD PUSH23 0xFF00000000000000000000000000000000000000000000 NOT AND SWAP1 SSTORE PUSH1 0x40 MLOAD PUSH32 0x7805862F689E2F13DF9F062FF482AD3AD112ACA9E0847911ED832E158C525B33 SWAP1 PUSH1 0x0 SWAP1 LOG1 JUMP JUMPDEST PUSH1 0x5 SLOAD PUSH1 0x0 SWAP1 PUSH2 0x100 SWAP1 DIV PUSH1 0x1 PUSH1 0xA0 PUSH1 0x2 EXP SUB AND CALLER EQ PUSH2 0x72F JUMPI PUSH1 0x0 DUP1 REVERT JUMPDEST PUSH1 0x5 SLOAD PUSH22 0x1000000000000000000000000000000000000000000 SWAP1 DIV PUSH1 0xFF AND ISZERO PUSH2 0x758 JUMPI PUSH1 0x0 DUP1 REVERT JUMPDEST PUSH1 0x1 SLOAD PUSH2 0x76B SWAP1 DUP4 PUSH4 0xFFFFFFFF PUSH2 0xE27 AND JUMP JUMPDEST PUSH1 0x1 SSTORE PUSH1 0x1 PUSH1 0xA0 PUSH1 0x2 EXP SUB DUP4 AND PUSH1 0x0 SWAP1 DUP2 MSTORE PUSH1 0x20 DUP2 SWAP1 MSTORE PUSH1 0x40 SWAP1 KECCAK256 SLOAD PUSH2 0x797 SWAP1 DUP4 PUSH4 0xFFFFFFFF PUSH2 0xE27 AND JUMP JUMPDEST PUSH1 0x1 PUSH1 0xA0 PUSH1 0x2 EXP SUB DUP5 AND PUSH1 0x0 DUP2 DUP2 MSTORE PUSH1 0x20 DUP2 DUP2 MSTORE PUSH1 0x40 SWAP2 DUP3 SWAP1 KECCAK256 SWAP4 SWAP1 SWAP4 SSTORE DUP1 MLOAD DUP6 DUP2 MSTORE SWAP1 MLOAD SWAP2 SWAP3 PUSH32 0xF6798A560793A54C3BCFE86A93CDE1E73087D944C0EA20544137D4121396885 SWAP3 SWAP2 DUP3 SWAP1 SUB ADD SWAP1 LOG2 PUSH1 0x40 DUP1 MLOAD DUP4 DUP2 MSTORE SWAP1 MLOAD PUSH1 0x1 PUSH1 0xA0 PUSH1 0x2 EXP SUB DUP6 AND SWAP2 PUSH1 0x0 SWAP2 PUSH1 0x0 DUP1 MLOAD PUSH1 0x20 PUSH2 0x119B DUP4 CODECOPY DUP2 MLOAD SWAP2 MSTORE SWAP2 DUP2 SWAP1 SUB PUSH1 0x20 ADD SWAP1 LOG3 POP PUSH1 0x1 SWAP3 SWAP2 POP POP JUMP JUMPDEST PUSH1 0x5 SLOAD PUSH2 0x100 SWAP1 DIV PUSH1 0x1 PUSH1 0xA0 PUSH1 0x2 EXP SUB AND CALLER EQ PUSH2 0x83B JUMPI PUSH1 0x0 DUP1 REVERT JUMPDEST PUSH2 0x844 DUP2 PUSH2 0xE3A JUMP JUMPDEST POP JUMP JUMPDEST PUSH1 0x6 SLOAD PUSH1 0x1 PUSH1 0xA0 PUSH1 0x2 EXP SUB AND CALLER EQ PUSH2 0x85E JUMPI PUSH1 0x0 DUP1 REVERT JUMPDEST PUSH1 0x6 SLOAD PUSH1 0x5 SLOAD PUSH1 0x40 MLOAD PUSH1 0x1 PUSH1 0xA0 PUSH1 0x2 EXP SUB SWAP3 DUP4 AND SWAP3 PUSH2 0x100 SWAP1 SWAP3 DIV SWAP1 SWAP2 AND SWAP1 PUSH32 0x8BE0079C531659141344CD1FD0A4F28419497F9722A3DAAFE3B4186F6B6457E0 SWAP1 PUSH1 0x0 SWAP1 LOG3 PUSH1 0x6 DUP1 SLOAD PUSH1 0x5 DUP1 SLOAD PUSH21 0xFFFFFFFFFFFFFFFFFFFFFFFFFFFFFFFFFFFFFFFF00 NOT AND PUSH2 0x100 PUSH1 0x1 PUSH1 0xA0 PUSH1 0x2 EXP SUB DUP5 AND MUL OR SWAP1 SSTORE PUSH20 0xFFFFFFFFFFFFFFFFFFFFFFFFFFFFFFFFFFFFFFFF NOT AND SWAP1 SSTORE JUMP JUMPDEST PUSH1 0x5 SLOAD PUSH1 0xB0 PUSH1 0x2 EXP SWAP1 DIV PUSH1 0xFF AND DUP2 JUMP JUMPDEST PUSH1 0x5 SLOAD PUSH1 0x0 SWAP1 PUSH1 0xB0 PUSH1 0x2 EXP SWAP1 DIV PUSH1 0xFF AND ISZERO PUSH2 0x919 JUMPI PUSH1 0x0 DUP1 REVERT JUMPDEST PUSH2 0x576 DUP4 DUP4 PUSH2 0xE44 JUMP JUMPDEST PUSH1 0x1 PUSH1 0xA0 PUSH1 0x2 EXP SUB AND PUSH1 0x0 SWAP1 DUP2 MSTORE PUSH1 0x20 DUP2 SWAP1 MSTORE PUSH1 0x40 SWAP1 KECCAK256 SLOAD SWAP1 JUMP JUMPDEST PUSH1 0x5 SLOAD PUSH2 0x100 SWAP1 DIV PUSH1 0x1 PUSH1 0xA0 PUSH1 0x2 EXP SUB AND CALLER EQ PUSH2 0x95A JUMPI PUSH1 0x0 DUP1 REVERT JUMPDEST PUSH1 0x40 DUP1 MLOAD PUSH32 0x8C379A000000000000000000000000000000000000000000000000000000000 DUP2 MSTORE PUSH1 0x20 PUSH1 0x4 DUP3 ADD MSTORE PUSH1 0x1F PUSH1 0x24 DUP3 ADD MSTORE PUSH32 0x72656E6F756E63696E67206F776E65727368697020697320626C6F636B656400 PUSH1 0x44 DUP3 ADD MSTORE SWAP1 MLOAD SWAP1 DUP2 SWAP1 SUB PUSH1 0x64 ADD SWAP1 REVERT JUMPDEST PUSH1 0x5 SLOAD PUSH1 0x0 SWAP1 PUSH2 0x100 SWAP1 DIV PUSH1 0x1 PUSH1 0xA0 PUSH1 0x2 EXP SUB AND CALLER EQ PUSH2 0x9E0 JUMPI PUSH1 0x0 DUP1 REVERT JUMPDEST POP PUSH1 0x0 SWAP1 JUMP JUMPDEST PUSH1 0x5 SLOAD PUSH2 0x100 SWAP1 DIV PUSH1 0x1 PUSH1 0xA0 PUSH1 0x2 EXP SUB AND CALLER EQ PUSH2 0xA02 JUMPI PUSH1 0x0 DUP1 REVERT JUMPDEST PUSH1 0x5 SLOAD PUSH1 0xB0 PUSH1 0x2 EXP SWAP1 DIV PUSH1 0xFF AND ISZERO PUSH2 0xA19 JUMPI PUSH1 0x0 DUP1 REVERT JUMPDEST PUSH1 0x5 DUP1 SLOAD PUSH23 0xFF00000000000000000000000000000000000000000000 NOT AND PUSH1 0xB0 PUSH1 0x2 EXP OR SWAP1 SSTORE PUSH1 0x40 MLOAD PUSH32 0x6985A02210A168E66602D3235CB6DB0E70F92B3BA4D376A33C0F3D9434BFF625 SWAP1 PUSH1 0x0 SWAP1 LOG1 JUMP JUMPDEST PUSH1 0x5 SLOAD PUSH2 0x100 SWAP1 DIV PUSH1 0x1 PUSH1 0xA0 PUSH1 0x2 EXP SUB AND DUP2 JUMP JUMPDEST PUSH1 0x4 DUP1 SLOAD PUSH1 0x40 DUP1 MLOAD PUSH1 0x20 PUSH1 0x2 PUSH1 0x1 DUP6 AND ISZERO PUSH2 0x100 MUL PUSH1 0x0 NOT ADD SWAP1 SWAP5 AND SWAP4 SWAP1 SWAP4 DIV PUSH1 0x1F DUP2 ADD DUP5 SWAP1 DIV DUP5 MUL DUP3 ADD DUP5 ADD SWAP1 SWAP3 MSTORE DUP2 DUP2 MSTORE SWAP3 SWAP2 DUP4 ADD DUP3 DUP3 DUP1 ISZERO PUSH2 0x54A JUMPI DUP1 PUSH1 0x1F LT PUSH2 0x51F JUMPI PUSH2 0x100 DUP1 DUP4 SLOAD DIV MUL DUP4 MSTORE SWAP2 PUSH1 0x20 ADD SWAP2 PUSH2 0x54A JUMP JUMPDEST PUSH1 0x5 SLOAD PUSH1 0x0 SWAP1 PUSH1 0xB0 PUSH1 0x2 EXP SWAP1 DIV PUSH1 0xFF AND ISZERO PUSH2 0xAF3 JUMPI PUSH1 0x0 DUP1 REVERT JUMPDEST PUSH2 0x576 DUP4 DUP4 PUSH2 0xF33 JUMP JUMPDEST PUSH1 0x5 SLOAD PUSH1 0x0 SWAP1 PUSH1 0xB0 PUSH1 0x2 EXP SWAP1 DIV PUSH1 0xFF AND ISZERO PUSH2 0xB17 JUMPI PUSH1 0x0 DUP1 REVERT JUMPDEST PUSH2 0x576 DUP4 DUP4 PUSH2 0x1000 JUMP JUMPDEST PUSH1 0x1 PUSH1 0xA0 PUSH1 0x2 EXP SUB SWAP2 DUP3 AND PUSH1 0x0 SWAP1 DUP2 MSTORE PUSH1 0x2 PUSH1 0x20 SWAP1 DUP2 MSTORE PUSH1 0x40 DUP1 DUP4 KECCAK256 SWAP4 SWAP1 SWAP5 AND DUP3 MSTORE SWAP2 SWAP1 SWAP2 MSTORE KECCAK256 SLOAD SWAP1 JUMP JUMPDEST PUSH1 0x6 SLOAD PUSH1 0x1 PUSH1 0xA0 PUSH1 0x2 EXP SUB AND DUP2 JUMP JUMPDEST PUSH1 0x5 SLOAD PUSH2 0x100 SWAP1 DIV PUSH1 0x1 PUSH1 0xA0 PUSH1 0x2 EXP SUB AND CALLER EQ PUSH2 0xB77 JUMPI PUSH1 0x0 DUP1 REVERT JUMPDEST PUSH1 0x6 DUP1 SLOAD PUSH20 0xFFFFFFFFFFFFFFFFFFFFFFFFFFFFFFFFFFFFFFFF NOT AND PUSH1 0x1 PUSH1 0xA0 PUSH1 0x2 EXP SUB SWAP3 SWAP1 SWAP3 AND SWAP2 SWAP1 SWAP2 OR SWAP1 SSTORE JUMP JUMPDEST CALLER PUSH1 0x0 DUP2 DUP2 MSTORE PUSH1 0x2 PUSH1 0x20 SWAP1 DUP2 MSTORE PUSH1 0x40 DUP1 DUP4 KECCAK256 PUSH1 0x1 PUSH1 0xA0 PUSH1 0x2 EXP SUB DUP8 AND DUP1 DUP6 MSTORE SWAP1 DUP4 MSTORE DUP2 DUP5 KECCAK256 DUP7 SWAP1 SSTORE DUP2 MLOAD DUP7 DUP2 MSTORE SWAP2 MLOAD SWAP4 SWAP5 SWAP1 SWAP4 SWAP1 SWAP3 PUSH32 0x8C5BE1E5EBEC7D5BD14F71427D1E84F3DD0314C0F7B2291E5B200AC8C7C3B925 SWAP3 DUP3 SWAP1 SUB ADD SWAP1 LOG3 POP PUSH1 0x1 SWAP3 SWAP2 POP POP JUMP JUMPDEST DUP3 PUSH1 0x1 PUSH1 0xA0 PUSH1 0x2 EXP SUB AND PUSH4 0xA9059CBB DUP4 DUP4 PUSH1 0x40 MLOAD DUP4 PUSH4 0xFFFFFFFF AND PUSH29 0x100000000000000000000000000000000000000000000000000000000 MUL DUP2 MSTORE PUSH1 0x4 ADD DUP1 DUP4 PUSH1 0x1 PUSH1 0xA0 PUSH1 0x2 EXP SUB AND PUSH1 0x1 PUSH1 0xA0 PUSH1 0x2 EXP SUB AND DUP2 MSTORE PUSH1 0x20 ADD DUP3 DUP2 MSTORE PUSH1 0x20 ADD SWAP3 POP POP POP PUSH1 0x20 PUSH1 0x40 MLOAD DUP1 DUP4 SUB DUP2 PUSH1 0x0 DUP8 DUP1 EXTCODESIZE ISZERO DUP1 ISZERO PUSH2 0xC88 JUMPI PUSH1 0x0 DUP1 REVERT JUMPDEST POP GAS CALL ISZERO DUP1 ISZERO PUSH2 0xC9C JUMPI RETURNDATASIZE PUSH1 0x0 DUP1 RETURNDATACOPY RETURNDATASIZE PUSH1 0x0 REVERT JUMPDEST POP POP POP POP PUSH1 0x40 MLOAD RETURNDATASIZE PUSH1 0x20 DUP2 LT ISZERO PUSH2 0xCB2 JUMPI PUSH1 0x0 DUP1 REVERT JUMPDEST POP MLOAD ISZERO ISZERO PUSH2 0xCBF JUMPI PUSH1 0x0 DUP1 REVERT JUMPDEST POP POP POP JUMP JUMPDEST PUSH1 0x1 PUSH1 0xA0 PUSH1 0x2 EXP SUB DUP4 AND PUSH1 0x0 SWAP1 DUP2 MSTORE PUSH1 0x20 DUP2 SWAP1 MSTORE PUSH1 0x40 DUP2 KECCAK256 SLOAD DUP3 GT ISZERO PUSH2 0xCE9 JUMPI PUSH1 0x0 DUP1 REVERT JUMPDEST PUSH1 0x1 PUSH1 0xA0 PUSH1 0x2 EXP SUB DUP5 AND PUSH1 0x0 SWAP1 DUP2 MSTORE PUSH1 0x2 PUSH1 0x20 SWAP1 DUP2 MSTORE PUSH1 0x40 DUP1 DUP4 KECCAK256 CALLER DUP5 MSTORE SWAP1 SWAP2 MSTORE SWAP1 KECCAK256 SLOAD DUP3 GT ISZERO PUSH2 0xD19 JUMPI PUSH1 0x0 DUP1 REVERT JUMPDEST PUSH1 0x1 PUSH1 0xA0 PUSH1 0x2 EXP SUB DUP4 AND ISZERO ISZERO PUSH2 0xD2E JUMPI PUSH1 0x0 DUP1 REVERT JUMPDEST PUSH1 0x1 PUSH1 0xA0 PUSH1 0x2 EXP SUB DUP5 AND PUSH1 0x0 SWAP1 DUP2 MSTORE PUSH1 0x20 DUP2 SWAP1 MSTORE PUSH1 0x40 SWAP1 KECCAK256 SLOAD PUSH2 0xD57 SWAP1 DUP4 PUSH4 0xFFFFFFFF PUSH2 0x1099 AND JUMP JUMPDEST PUSH1 0x1 PUSH1 0xA0 PUSH1 0x2 EXP SUB DUP1 DUP7 AND PUSH1 0x0 SWAP1 DUP2 MSTORE PUSH1 0x20 DUP2 SWAP1 MSTORE PUSH1 0x40 DUP1 DUP3 KECCAK256 SWAP4 SWAP1 SWAP4 SSTORE SWAP1 DUP6 AND DUP2 MSTORE KECCAK256 SLOAD PUSH2 0xD8C SWAP1 DUP4 PUSH4 0xFFFFFFFF PUSH2 0xE27 AND JUMP JUMPDEST PUSH1 0x1 PUSH1 0xA0 PUSH1 0x2 EXP SUB DUP1 DUP6 AND PUSH1 0x0 SWAP1 DUP2 MSTORE PUSH1 0x20 DUP2 DUP2 MSTORE PUSH1 0x40 DUP1 DUP4 KECCAK256 SWAP5 SWAP1 SWAP5 SSTORE SWAP2 DUP8 AND DUP2 MSTORE PUSH1 0x2 DUP3 MSTORE DUP3 DUP2 KECCAK256 CALLER DUP3 MSTORE SWAP1 SWAP2 MSTORE KECCAK256 SLOAD PUSH2 0xDCE SWAP1 DUP4 PUSH4 0xFFFFFFFF PUSH2 0x1099 AND JUMP JUMPDEST PUSH1 0x1 PUSH1 0xA0 PUSH1 0x2 EXP SUB DUP1 DUP7 AND PUSH1 0x0 DUP2 DUP2 MSTORE PUSH1 0x2 PUSH1 0x20 SWAP1 DUP2 MSTORE PUSH1 0x40 DUP1 DUP4 KECCAK256 CALLER DUP5 MSTORE DUP3 MSTORE SWAP2 DUP3 SWAP1 KECCAK256 SWAP5 SWAP1 SWAP5 SSTORE DUP1 MLOAD DUP7 DUP2 MSTORE SWAP1 MLOAD SWAP3 DUP8 AND SWAP4 SWAP2 SWAP3 PUSH1 0x0 DUP1 MLOAD PUSH1 0x20 PUSH2 0x119B DUP4 CODECOPY DUP2 MLOAD SWAP2 MSTORE SWAP3 SWAP2 DUP2 SWAP1 SUB SWAP1 SWAP2 ADD SWAP1 LOG3 POP PUSH1 0x1 SWAP4 SWAP3 POP POP POP JUMP JUMPDEST DUP2 DUP2 ADD DUP3 DUP2 LT ISZERO PUSH2 0xE34 JUMPI INVALID JUMPDEST SWAP3 SWAP2 POP POP JUMP JUMPDEST PUSH2 0x844 CALLER DUP3 PUSH2 0x10AB JUMP JUMPDEST CALLER PUSH1 0x0 SWAP1 DUP2 MSTORE PUSH1 0x2 PUSH1 0x20 SWAP1 DUP2 MSTORE PUSH1 0x40 DUP1 DUP4 KECCAK256 PUSH1 0x1 PUSH1 0xA0 PUSH1 0x2 EXP SUB DUP7 AND DUP5 MSTORE SWAP1 SWAP2 MSTORE DUP2 KECCAK256 SLOAD DUP1 DUP4 LT PUSH2 0xE98 JUMPI CALLER PUSH1 0x0 SWAP1 DUP2 MSTORE PUSH1 0x2 PUSH1 0x20 SWAP1 DUP2 MSTORE PUSH1 0x40 DUP1 DUP4 KECCAK256 PUSH1 0x1 PUSH1 0xA0 PUSH1 0x2 EXP SUB DUP9 AND DUP5 MSTORE SWAP1 SWAP2 MSTORE DUP2 KECCAK256 SSTORE PUSH2 0xECD JUMP JUMPDEST PUSH2 0xEA8 DUP2 DUP5 PUSH4 0xFFFFFFFF PUSH2 0x1099 AND JUMP JUMPDEST CALLER PUSH1 0x0 SWAP1 DUP2 MSTORE PUSH1 0x2 PUSH1 0x20 SWAP1 DUP2 MSTORE PUSH1 0x40 DUP1 DUP4 KECCAK256 PUSH1 0x1 PUSH1 0xA0 PUSH1 0x2 EXP SUB DUP10 AND DUP5 MSTORE SWAP1 SWAP2 MSTORE SWAP1 KECCAK256 SSTORE JUMPDEST CALLER PUSH1 0x0 DUP2 DUP2 MSTORE PUSH1 0x2 PUSH1 0x20 SWAP1 DUP2 MSTORE PUSH1 0x40 DUP1 DUP4 KECCAK256 PUSH1 0x1 PUSH1 0xA0 PUSH1 0x2 EXP SUB DUP10 AND DUP1 DUP6 MSTORE SWAP1 DUP4 MSTORE SWAP3 DUP2 SWAP1 KECCAK256 SLOAD DUP2 MLOAD SWAP1 DUP2 MSTORE SWAP1 MLOAD SWAP3 SWAP4 SWAP3 PUSH32 0x8C5BE1E5EBEC7D5BD14F71427D1E84F3DD0314C0F7B2291E5B200AC8C7C3B925 SWAP3 SWAP2 DUP2 SWAP1 SUB SWAP1 SWAP2 ADD SWAP1 LOG3 POP PUSH1 0x1 SWAP4 SWAP3 POP POP POP JUMP JUMPDEST CALLER PUSH1 0x0 SWAP1 DUP2 MSTORE PUSH1 0x20 DUP2 SWAP1 MSTORE PUSH1 0x40 DUP2 KECCAK256 SLOAD DUP3 GT ISZERO PUSH2 0xF4F JUMPI PUSH1 0x0 DUP1 REVERT JUMPDEST PUSH1 0x1 PUSH1 0xA0 PUSH1 0x2 EXP SUB DUP4 AND ISZERO ISZERO PUSH2 0xF64 JUMPI PUSH1 0x0 DUP1 REVERT JUMPDEST CALLER PUSH1 0x0 SWAP1 DUP2 MSTORE PUSH1 0x20 DUP2 SWAP1 MSTORE PUSH1 0x40 SWAP1 KECCAK256 SLOAD PUSH2 0xF84 SWAP1 DUP4 PUSH4 0xFFFFFFFF PUSH2 0x1099 AND JUMP JUMPDEST CALLER PUSH1 0x0 SWAP1 DUP2 MSTORE PUSH1 0x20 DUP2 SWAP1 MSTORE PUSH1 0x40 DUP1 DUP3 KECCAK256 SWAP3 SWAP1 SWAP3 SSTORE PUSH1 0x1 PUSH1 0xA0 PUSH1 0x2 EXP SUB DUP6 AND DUP2 MSTORE KECCAK256 SLOAD PUSH2 0xFB6 SWAP1 DUP4 PUSH4 0xFFFFFFFF PUSH2 0xE27 AND JUMP JUMPDEST PUSH1 0x1 PUSH1 0xA0 PUSH1 0x2 EXP SUB DUP5 AND PUSH1 0x0 DUP2 DUP2 MSTORE PUSH1 0x20 DUP2 DUP2 MSTORE PUSH1 0x40 SWAP2 DUP3 SWAP1 KECCAK256 SWAP4 SWAP1 SWAP4 SSTORE DUP1 MLOAD DUP6 DUP2 MSTORE SWAP1 MLOAD SWAP2 SWAP3 CALLER SWAP3 PUSH1 0x0 DUP1 MLOAD PUSH1 0x20 PUSH2 0x119B DUP4 CODECOPY DUP2 MLOAD SWAP2 MSTORE SWAP3 DUP2 SWAP1 SUB SWAP1 SWAP2 ADD SWAP1 LOG3 POP PUSH1 0x1 SWAP3 SWAP2 POP POP JUMP JUMPDEST CALLER PUSH1 0x0 SWAP1 DUP2 MSTORE PUSH1 0x2 PUSH1 0x20 SWAP1 DUP2 MSTORE PUSH1 0x40 DUP1 DUP4 KECCAK256 PUSH1 0x1 PUSH1 0xA0 PUSH1 0x2 EXP SUB DUP7 AND DUP5 MSTORE SWAP1 SWAP2 MSTORE DUP2 KECCAK256 SLOAD PUSH2 0x1034 SWAP1 DUP4 PUSH4 0xFFFFFFFF PUSH2 0xE27 AND JUMP JUMPDEST CALLER PUSH1 0x0 DUP2 DUP2 MSTORE PUSH1 0x2 PUSH1 0x20 SWAP1 DUP2 MSTORE PUSH1 0x40 DUP1 DUP4 KECCAK256 PUSH1 0x1 PUSH1 0xA0 PUSH1 0x2 EXP SUB DUP10 AND DUP1 DUP6 MSTORE SWAP1 DUP4 MSTORE SWAP3 DUP2 SWAP1 KECCAK256 DUP6 SWAP1 SSTORE DUP1 MLOAD SWAP5 DUP6 MSTORE MLOAD SWAP2 SWAP4 PUSH32 0x8C5BE1E5EBEC7D5BD14F71427D1E84F3DD0314C0F7B2291E5B200AC8C7C3B925 SWAP3 SWAP1 DUP2 SWAP1 SUB SWAP1 SWAP2 ADD SWAP1 LOG3 POP PUSH1 0x1 SWAP3 SWAP2 POP POP JUMP JUMPDEST PUSH1 0x0 DUP3 DUP3 GT ISZERO PUSH2 0x10A5 JUMPI INVALID JUMPDEST POP SWAP1 SUB SWAP1 JUMP JUMPDEST PUSH1 0x1 PUSH1 0xA0 PUSH1 0x2 EXP SUB DUP3 AND PUSH1 0x0 SWAP1 DUP2 MSTORE PUSH1 0x20 DUP2 SWAP1 MSTORE PUSH1 0x40 SWAP1 KECCAK256 SLOAD DUP2 GT ISZERO PUSH2 0x10D0 JUMPI PUSH1 0x0 DUP1 REVERT JUMPDEST PUSH1 0x1 PUSH1 0xA0 PUSH1 0x2 EXP SUB DUP3 AND PUSH1 0x0 SWAP1 DUP2 MSTORE PUSH1 0x20 DUP2 SWAP1 MSTORE PUSH1 0x40 SWAP1 KECCAK256 SLOAD PUSH2 0x10F9 SWAP1 DUP3 PUSH4 0xFFFFFFFF PUSH2 0x1099 AND JUMP JUMPDEST PUSH1 0x1 PUSH1 0xA0 PUSH1 0x2 EXP SUB DUP4 AND PUSH1 0x0 SWAP1 DUP2 MSTORE PUSH1 0x20 DUP2 SWAP1 MSTORE PUSH1 0x40 SWAP1 KECCAK256 SSTORE PUSH1 0x1 SLOAD PUSH2 0x1125 SWAP1 DUP3 PUSH4 0xFFFFFFFF PUSH2 0x1099 AND JUMP JUMPDEST PUSH1 0x1 SSTORE PUSH1 0x40 DUP1 MLOAD DUP3 DUP2 MSTORE SWAP1 MLOAD PUSH1 0x1 PUSH1 0xA0 PUSH1 0x2 EXP SUB DUP5 AND SWAP2 PUSH32 0xCC16F5DBB4873280815C1EE09DBD06736CFFCC184412CF7A71A0FDB75D397CA5 SWAP2 SWAP1 DUP2 SWAP1 SUB PUSH1 0x20 ADD SWAP1 LOG2 PUSH1 0x40 DUP1 MLOAD DUP3 DUP2 MSTORE SWAP1 MLOAD PUSH1 0x0 SWAP2 PUSH1 0x1 PUSH1 0xA0 PUSH1 0x2 EXP SUB DUP6 AND SWAP2 PUSH1 0x0 DUP1 MLOAD PUSH1 0x20 PUSH2 0x119B DUP4 CODECOPY DUP2 MLOAD SWAP2 MSTORE SWAP2 DUP2 SWAP1 SUB PUSH1 0x20 ADD SWAP1 LOG3 POP POP JUMP STOP 0xdd CALLCODE MSTORE 0xad SHL 0xe2 0xc8 SWAP12 PUSH10 0xC2B068FC378DAA952BA7 CALL PUSH4 0xC4A11628 0xf5 GAS 0x4d 0xf5 0x23 0xb3 0xef LOG1 PUSH6 0x627A7A723058 KECCAK256 0xb1 0xb4 0xdb SLT 0x47 DUP4 PUSH32 0x6D8EF96DF2867051119E98F348964F28A6B4F39C03C5A6105400290000000000 "
				},
				"gasEstimates": {
					"creation": {
						"codeDepositCost": "916400",
						"executionCost": "infinite",
						"totalCost": "infinite"
					},
					"external": {
						"allowance(address,address)": "1170",
						"approve(address,uint256)": "22724",
						"balanceOf(address)": "895",
						"burn(uint256)": "infinite",
						"claimOwnership()": "43206",
						"decimals()": "531",
						"decreaseApproval(address,uint256)": "infinite",
						"finishMinting()": "836",
						"increaseApproval(address,uint256)": "infinite",
						"mint(address,uint256)": "infinite",
						"mintingFinished()": "407",
						"name()": "infinite",
						"owner()": "922",
						"pause()": "22145",
						"paused()": "712",
						"pendingOwner()": "1021",
						"reclaimToken(address)": "infinite",
						"renounceOwnership()": "842",
						"symbol()": "infinite",
						"totalSupply()": "472",
						"transfer(address,uint256)": "infinite",
						"transferFrom(address,address,uint256)": "infinite",
						"transferOwnership(address)": "21339",
						"unpause()": "21881"
					}
				},
				"methodIdentifiers": {
					"allowance(address,address)": "dd62ed3e",
					"approve(address,uint256)": "095ea7b3",
					"balanceOf(address)": "70a08231",
					"burn(uint256)": "42966c68",
					"claimOwnership()": "4e71e0c8",
					"decimals()": "313ce567",
					"decreaseApproval(address,uint256)": "66188463",
					"finishMinting()": "7d64bcb4",
					"increaseApproval(address,uint256)": "d73dd623",
					"mint(address,uint256)": "40c10f19",
					"mintingFinished()": "05d2035b",
					"name()": "06fdde03",
					"owner()": "8da5cb5b",
					"pause()": "8456cb59",
					"paused()": "5c975abb",
					"pendingOwner()": "e30c3978",
					"reclaimToken(address)": "17ffc320",
					"renounceOwnership()": "715018a6",
					"symbol()": "95d89b41",
					"totalSupply()": "18160ddd",
					"transfer(address,uint256)": "a9059cbb",
					"transferFrom(address,address,uint256)": "23b872dd",
					"transferOwnership(address)": "f2fde38b",
					"unpause()": "3f4ba83a"
				}
			},
			"userdoc": {
				"methods": {}
			}
		}
	}
}