{
	"contracts/Online/ERC20/WBTC.sol": {
		"MintableToken": {
			"abi": [
				{
					"constant": true,
					"inputs": [],
					"name": "mintingFinished",
					"outputs": [
						{
							"name": "",
							"type": "bool"
						}
					],
					"payable": false,
					"stateMutability": "view",
					"type": "function"
				},
				{
					"constant": false,
					"inputs": [
						{
							"name": "_spender",
							"type": "address"
						},
						{
							"name": "_value",
							"type": "uint256"
						}
					],
					"name": "approve",
					"outputs": [
						{
							"name": "",
							"type": "bool"
						}
					],
					"payable": false,
					"stateMutability": "nonpayable",
					"type": "function"
				},
				{
					"constant": true,
					"inputs": [],
					"name": "totalSupply",
					"outputs": [
						{
							"name": "",
							"type": "uint256"
						}
					],
					"payable": false,
					"stateMutability": "view",
					"type": "function"
				},
				{
					"constant": false,
					"inputs": [
						{
							"name": "_from",
							"type": "address"
						},
						{
							"name": "_to",
							"type": "address"
						},
						{
							"name": "_value",
							"type": "uint256"
						}
					],
					"name": "transferFrom",
					"outputs": [
						{
							"name": "",
							"type": "bool"
						}
					],
					"payable": false,
					"stateMutability": "nonpayable",
					"type": "function"
				},
				{
					"constant": false,
					"inputs": [
						{
							"name": "_to",
							"type": "address"
						},
						{
							"name": "_amount",
							"type": "uint256"
						}
					],
					"name": "mint",
					"outputs": [
						{
							"name": "",
							"type": "bool"
						}
					],
					"payable": false,
					"stateMutability": "nonpayable",
					"type": "function"
				},
				{
					"constant": false,
					"inputs": [
						{
							"name": "_spender",
							"type": "address"
						},
						{
							"name": "_subtractedValue",
							"type": "uint256"
						}
					],
					"name": "decreaseApproval",
					"outputs": [
						{
							"name": "",
							"type": "bool"
						}
					],
					"payable": false,
					"stateMutability": "nonpayable",
					"type": "function"
				},
				{
					"constant": true,
					"inputs": [
						{
							"name": "_owner",
							"type": "address"
						}
					],
					"name": "balanceOf",
					"outputs": [
						{
							"name": "",
							"type": "uint256"
						}
					],
					"payable": false,
					"stateMutability": "view",
					"type": "function"
				},
				{
					"constant": false,
					"inputs": [],
					"name": "renounceOwnership",
					"outputs": [],
					"payable": false,
					"stateMutability": "nonpayable",
					"type": "function"
				},
				{
					"constant": false,
					"inputs": [],
					"name": "finishMinting",
					"outputs": [
						{
							"name": "",
							"type": "bool"
						}
					],
					"payable": false,
					"stateMutability": "nonpayable",
					"type": "function"
				},
				{
					"constant": true,
					"inputs": [],
					"name": "owner",
					"outputs": [
						{
							"name": "",
							"type": "address"
						}
					],
					"payable": false,
					"stateMutability": "view",
					"type": "function"
				},
				{
					"constant": false,
					"inputs": [
						{
							"name": "_to",
							"type": "address"
						},
						{
							"name": "_value",
							"type": "uint256"
						}
					],
					"name": "transfer",
					"outputs": [
						{
							"name": "",
							"type": "bool"
						}
					],
					"payable": false,
					"stateMutability": "nonpayable",
					"type": "function"
				},
				{
					"constant": false,
					"inputs": [
						{
							"name": "_spender",
							"type": "address"
						},
						{
							"name": "_addedValue",
							"type": "uint256"
						}
					],
					"name": "increaseApproval",
					"outputs": [
						{
							"name": "",
							"type": "bool"
						}
					],
					"payable": false,
					"stateMutability": "nonpayable",
					"type": "function"
				},
				{
					"constant": true,
					"inputs": [
						{
							"name": "_owner",
							"type": "address"
						},
						{
							"name": "_spender",
							"type": "address"
						}
					],
					"name": "allowance",
					"outputs": [
						{
							"name": "",
							"type": "uint256"
						}
					],
					"payable": false,
					"stateMutability": "view",
					"type": "function"
				},
				{
					"constant": false,
					"inputs": [
						{
							"name": "_newOwner",
							"type": "address"
						}
					],
					"name": "transferOwnership",
					"outputs": [],
					"payable": false,
					"stateMutability": "nonpayable",
					"type": "function"
				},
				{
					"anonymous": false,
					"inputs": [
						{
							"indexed": true,
							"name": "to",
							"type": "address"
						},
						{
							"indexed": false,
							"name": "amount",
							"type": "uint256"
						}
					],
					"name": "Mint",
					"type": "event"
				},
				{
					"anonymous": false,
					"inputs": [],
					"name": "MintFinished",
					"type": "event"
				},
				{
					"anonymous": false,
					"inputs": [
						{
							"indexed": true,
							"name": "previousOwner",
							"type": "address"
						}
					],
					"name": "OwnershipRenounced",
					"type": "event"
				},
				{
					"anonymous": false,
					"inputs": [
						{
							"indexed": true,
							"name": "previousOwner",
							"type": "address"
						},
						{
							"indexed": true,
							"name": "newOwner",
							"type": "address"
						}
					],
					"name": "OwnershipTransferred",
					"type": "event"
				},
				{
					"anonymous": false,
					"inputs": [
						{
							"indexed": true,
							"name": "owner",
							"type": "address"
						},
						{
							"indexed": true,
							"name": "spender",
							"type": "address"
						},
						{
							"indexed": false,
							"name": "value",
							"type": "uint256"
						}
					],
					"name": "Approval",
					"type": "event"
				},
				{
					"anonymous": false,
					"inputs": [
						{
							"indexed": true,
							"name": "from",
							"type": "address"
						},
						{
							"indexed": true,
							"name": "to",
							"type": "address"
						},
						{
							"indexed": false,
							"name": "value",
							"type": "uint256"
						}
					],
					"name": "Transfer",
					"type": "event"
				}
			],
			"devdoc": {
				"methods": {
					"allowance(address,address)": {
						"details": "Function to check the amount of tokens that an owner allowed to a spender.\r",
						"params": {
							"_owner": "address The address which owns the funds.\r",
							"_spender": "address The address which will spend the funds.\r"
						},
						"return": "A uint256 specifying the amount of tokens still available for the spender.\r"
					},
					"approve(address,uint256)": {
						"details": "Approve the passed address to spend the specified amount of tokens on behalf of msg.sender.\r Beware that changing an allowance with this method brings the risk that someone may use both the old\r and the new allowance by unfortunate transaction ordering. One possible solution to mitigate this\r race condition is to first reduce the spender's allowance to 0 and set the desired value afterwards:\r https://github.com/ethereum/EIPs/issues/20#issuecomment-263524729\r",
						"params": {
							"_spender": "The address which will spend the funds.\r",
							"_value": "The amount of tokens to be spent.\r"
						}
					},
					"balanceOf(address)": {
						"details": "Gets the balance of the specified address.\r",
						"params": {
							"_owner": "The address to query the the balance of.\r"
						},
						"return": "An uint256 representing the amount owned by the passed address.\r"
					},
					"decreaseApproval(address,uint256)": {
						"details": "Decrease the amount of tokens that an owner allowed to a spender.\r approve should be called when allowed[_spender] == 0. To decrement\r allowed value is better to use this function to avoid 2 calls (and wait until\r the first transaction is mined)\r From MonolithDAO Token.sol\r",
						"params": {
							"_spender": "The address which will spend the funds.\r",
							"_subtractedValue": "The amount of tokens to decrease the allowance by.\r"
						}
					},
					"finishMinting()": {
						"details": "Function to stop minting new tokens.\r",
						"return": "True if the operation was successful.\r"
					},
					"increaseApproval(address,uint256)": {
						"details": "Increase the amount of tokens that an owner allowed to a spender.\r approve should be called when allowed[_spender] == 0. To increment\r allowed value is better to use this function to avoid 2 calls (and wait until\r the first transaction is mined)\r From MonolithDAO Token.sol\r",
						"params": {
							"_addedValue": "The amount of tokens to increase the allowance by.\r",
							"_spender": "The address which will spend the funds.\r"
						}
					},
					"mint(address,uint256)": {
						"details": "Function to mint tokens\r",
						"params": {
							"_amount": "The amount of tokens to mint.\r",
							"_to": "The address that will receive the minted tokens.\r"
						},
						"return": "A boolean that indicates if the operation was successful.\r"
					},
					"renounceOwnership()": {
						"details": "Allows the current owner to relinquish control of the contract.\r"
					},
					"totalSupply()": {
						"details": "Total number of tokens in existence\r"
					},
					"transfer(address,uint256)": {
						"details": "Transfer token for a specified address\r",
						"params": {
							"_to": "The address to transfer to.\r",
							"_value": "The amount to be transferred.\r"
						}
					},
					"transferFrom(address,address,uint256)": {
						"details": "Transfer tokens from one address to another\r",
						"params": {
							"_from": "address The address which you want to send tokens from\r",
							"_to": "address The address which you want to transfer to\r",
							"_value": "uint256 the amount of tokens to be transferred\r"
						}
					},
					"transferOwnership(address)": {
						"details": "Allows the current owner to transfer control of the contract to a newOwner.\r",
						"params": {
							"_newOwner": "The address to transfer ownership to.\r"
						}
					}
				},
				"title": "Mintable token\r"
			},
			"evm": {
				"assembly": "    /* \"contracts/Online/ERC20/WBTC.sol\":10784:11946  contract MintableToken is StandardToken, Ownable {\r... */\n  mstore(0x40, 0x80)\n    /* \"contracts/Online/ERC20/WBTC.sol\":10916:10951  bool public mintingFinished = false */\n  0x3\n  dup1\n  sload\n  not(sub(exp(0x2, 0xa8), 0x1))\n    /* \"contracts/Online/ERC20/WBTC.sol\":9332:9350  owner = msg.sender */\n  and\n    /* \"contracts/Online/ERC20/WBTC.sol\":9340:9350  msg.sender */\n  caller\n    /* \"contracts/Online/ERC20/WBTC.sol\":9332:9350  owner = msg.sender */\n  or\n  swap1\n  sstore\n    /* \"contracts/Online/ERC20/WBTC.sol\":10784:11946  contract MintableToken is StandardToken, Ownable {\r... */\n  dataSize(sub_0)\n  dup1\n  dataOffset(sub_0)\n  0x0\n  codecopy\n  0x0\n  return\nstop\n\nsub_0: assembly {\n        /* \"contracts/Online/ERC20/WBTC.sol\":10784:11946  contract MintableToken is StandardToken, Ownable {\r... */\n      mstore(0x40, 0x80)\n      jumpi(tag_1, lt(calldatasize, 0x4))\n      and(div(calldataload(0x0), 0x100000000000000000000000000000000000000000000000000000000), 0xffffffff)\n      0x5d2035b\n      dup2\n      eq\n      tag_2\n      jumpi\n      dup1\n      0x95ea7b3\n      eq\n      tag_3\n      jumpi\n      dup1\n      0x18160ddd\n      eq\n      tag_4\n      jumpi\n      dup1\n      0x23b872dd\n      eq\n      tag_5\n      jumpi\n      dup1\n      0x40c10f19\n      eq\n      tag_6\n      jumpi\n      dup1\n      0x66188463\n      eq\n      tag_7\n      jumpi\n      dup1\n      0x70a08231\n      eq\n      tag_8\n      jumpi\n      dup1\n      0x715018a6\n      eq\n      tag_9\n      jumpi\n      dup1\n      0x7d64bcb4\n      eq\n      tag_10\n      jumpi\n      dup1\n      0x8da5cb5b\n      eq\n      tag_11\n      jumpi\n      dup1\n      0xa9059cbb\n      eq\n      tag_12\n      jumpi\n      dup1\n      0xd73dd623\n      eq\n      tag_13\n      jumpi\n      dup1\n      0xdd62ed3e\n      eq\n      tag_14\n      jumpi\n      dup1\n      0xf2fde38b\n      eq\n      tag_15\n      jumpi\n    tag_1:\n      0x0\n      dup1\n      revert\n        /* \"contracts/Online/ERC20/WBTC.sol\":10916:10951  bool public mintingFinished = false */\n    tag_2:\n      callvalue\n        /* \"--CODEGEN--\":8:17   */\n      dup1\n        /* \"--CODEGEN--\":5:7   */\n      iszero\n      tag_16\n      jumpi\n        /* \"--CODEGEN--\":30:31   */\n      0x0\n        /* \"--CODEGEN--\":27:28   */\n      dup1\n        /* \"--CODEGEN--\":20:32   */\n      revert\n        /* \"--CODEGEN--\":5:7   */\n    tag_16:\n        /* \"contracts/Online/ERC20/WBTC.sol\":10916:10951  bool public mintingFinished = false */\n      pop\n      tag_17\n      jump(tag_18)\n    tag_17:\n      0x40\n      dup1\n      mload\n      swap2\n      iszero\n      iszero\n      dup3\n      mstore\n      mload\n      swap1\n      dup2\n      swap1\n      sub\n      0x20\n      add\n      swap1\n      return\n        /* \"contracts/Online/ERC20/WBTC.sol\":5756:5948  function approve(address _spender, uint256 _value) public returns (bool) {\r... */\n    tag_3:\n      callvalue\n        /* \"--CODEGEN--\":8:17   */\n      dup1\n        /* \"--CODEGEN--\":5:7   */\n      iszero\n      tag_19\n      jumpi\n        /* \"--CODEGEN--\":30:31   */\n      0x0\n        /* \"--CODEGEN--\":27:28   */\n      dup1\n        /* \"--CODEGEN--\":20:32   */\n      revert\n        /* \"--CODEGEN--\":5:7   */\n    tag_19:\n      pop\n        /* \"contracts/Online/ERC20/WBTC.sol\":5756:5948  function approve(address _spender, uint256 _value) public returns (bool) {\r... */\n      tag_17\n      and(calldataload(0x4), sub(exp(0x2, 0xa0), 0x1))\n      calldataload(0x24)\n      jump(tag_21)\n        /* \"contracts/Online/ERC20/WBTC.sol\":2437:2522  function totalSupply() public view returns (uint256) {\r... */\n    tag_4:\n      callvalue\n        /* \"--CODEGEN--\":8:17   */\n      dup1\n        /* \"--CODEGEN--\":5:7   */\n      iszero\n      tag_22\n      jumpi\n        /* \"--CODEGEN--\":30:31   */\n      0x0\n        /* \"--CODEGEN--\":27:28   */\n      dup1\n        /* \"--CODEGEN--\":20:32   */\n      revert\n        /* \"--CODEGEN--\":5:7   */\n    tag_22:\n        /* \"contracts/Online/ERC20/WBTC.sol\":2437:2522  function totalSupply() public view returns (uint256) {\r... */\n      pop\n      tag_23\n      jump(tag_24)\n    tag_23:\n      0x40\n      dup1\n      mload\n      swap2\n      dup3\n      mstore\n      mload\n      swap1\n      dup2\n      swap1\n      sub\n      0x20\n      add\n      swap1\n      return\n        /* \"contracts/Online/ERC20/WBTC.sol\":4640:5127  function transferFrom(\r... */\n    tag_5:\n      callvalue\n        /* \"--CODEGEN--\":8:17   */\n      dup1\n        /* \"--CODEGEN--\":5:7   */\n      iszero\n      tag_25\n      jumpi\n        /* \"--CODEGEN--\":30:31   */\n      0x0\n        /* \"--CODEGEN--\":27:28   */\n      dup1\n        /* \"--CODEGEN--\":20:32   */\n      revert\n        /* \"--CODEGEN--\":5:7   */\n    tag_25:\n      pop\n        /* \"contracts/Online/ERC20/WBTC.sol\":4640:5127  function transferFrom(\r... */\n      tag_17\n      sub(exp(0x2, 0xa0), 0x1)\n      calldataload(0x4)\n      dup2\n      and\n      swap1\n      calldataload(0x24)\n      and\n      calldataload(0x44)\n      jump(tag_27)\n        /* \"contracts/Online/ERC20/WBTC.sol\":11353:11679  function mint(\r... */\n    tag_6:\n      callvalue\n        /* \"--CODEGEN--\":8:17   */\n      dup1\n        /* \"--CODEGEN--\":5:7   */\n      iszero\n      tag_28\n      jumpi\n        /* \"--CODEGEN--\":30:31   */\n      0x0\n        /* \"--CODEGEN--\":27:28   */\n      dup1\n        /* \"--CODEGEN--\":20:32   */\n      revert\n        /* \"--CODEGEN--\":5:7   */\n    tag_28:\n      pop\n        /* \"contracts/Online/ERC20/WBTC.sol\":11353:11679  function mint(\r... */\n      tag_17\n      and(calldataload(0x4), sub(exp(0x2, 0xa0), 0x1))\n      calldataload(0x24)\n      jump(tag_30)\n        /* \"contracts/Online/ERC20/WBTC.sol\":7675:8122  function decreaseApproval(\r... */\n    tag_7:\n      callvalue\n        /* \"--CODEGEN--\":8:17   */\n      dup1\n        /* \"--CODEGEN--\":5:7   */\n      iszero\n      tag_31\n      jumpi\n        /* \"--CODEGEN--\":30:31   */\n      0x0\n        /* \"--CODEGEN--\":27:28   */\n      dup1\n        /* \"--CODEGEN--\":20:32   */\n      revert\n        /* \"--CODEGEN--\":5:7   */\n    tag_31:\n      pop\n        /* \"contracts/Online/ERC20/WBTC.sol\":7675:8122  function decreaseApproval(\r... */\n      tag_17\n      and(calldataload(0x4), sub(exp(0x2, 0xa0), 0x1))\n      calldataload(0x24)\n      jump(tag_33)\n        /* \"contracts/Online/ERC20/WBTC.sol\":3221:3322  function balanceOf(address _owner) public view returns (uint256) {\r... */\n    tag_8:\n      callvalue\n        /* \"--CODEGEN--\":8:17   */\n      dup1\n        /* \"--CODEGEN--\":5:7   */\n      iszero\n      tag_34\n      jumpi\n        /* \"--CODEGEN--\":30:31   */\n      0x0\n        /* \"--CODEGEN--\":27:28   */\n      dup1\n        /* \"--CODEGEN--\":20:32   */\n      revert\n        /* \"--CODEGEN--\":5:7   */\n    tag_34:\n      pop\n        /* \"contracts/Online/ERC20/WBTC.sol\":3221:3322  function balanceOf(address _owner) public view returns (uint256) {\r... */\n      tag_23\n      and(calldataload(0x4), sub(exp(0x2, 0xa0), 0x1))\n      jump(tag_36)\n        /* \"contracts/Online/ERC20/WBTC.sol\":9783:9897  function renounceOwnership() public onlyOwner {\r... */\n    tag_9:\n      callvalue\n        /* \"--CODEGEN--\":8:17   */\n      dup1\n        /* \"--CODEGEN--\":5:7   */\n      iszero\n      tag_37\n      jumpi\n        /* \"--CODEGEN--\":30:31   */\n      0x0\n        /* \"--CODEGEN--\":27:28   */\n      dup1\n        /* \"--CODEGEN--\":20:32   */\n      revert\n        /* \"--CODEGEN--\":5:7   */\n    tag_37:\n        /* \"contracts/Online/ERC20/WBTC.sol\":9783:9897  function renounceOwnership() public onlyOwner {\r... */\n      pop\n      tag_38\n      jump(tag_39)\n    tag_38:\n      stop\n        /* \"contracts/Online/ERC20/WBTC.sol\":11799:11943  function finishMinting() public onlyOwner canMint returns (bool) {\r... */\n    tag_10:\n      callvalue\n        /* \"--CODEGEN--\":8:17   */\n      dup1\n        /* \"--CODEGEN--\":5:7   */\n      iszero\n      tag_40\n      jumpi\n        /* \"--CODEGEN--\":30:31   */\n      0x0\n        /* \"--CODEGEN--\":27:28   */\n      dup1\n        /* \"--CODEGEN--\":20:32   */\n      revert\n        /* \"--CODEGEN--\":5:7   */\n    tag_40:\n        /* \"contracts/Online/ERC20/WBTC.sol\":11799:11943  function finishMinting() public onlyOwner canMint returns (bool) {\r... */\n      pop\n      tag_17\n      jump(tag_42)\n        /* \"contracts/Online/ERC20/WBTC.sol\":8988:9008  address public owner */\n    tag_11:\n      callvalue\n        /* \"--CODEGEN--\":8:17   */\n      dup1\n        /* \"--CODEGEN--\":5:7   */\n      iszero\n      tag_43\n      jumpi\n        /* \"--CODEGEN--\":30:31   */\n      0x0\n        /* \"--CODEGEN--\":27:28   */\n      dup1\n        /* \"--CODEGEN--\":20:32   */\n      revert\n        /* \"--CODEGEN--\":5:7   */\n    tag_43:\n        /* \"contracts/Online/ERC20/WBTC.sol\":8988:9008  address public owner */\n      pop\n      tag_44\n      jump(tag_45)\n    tag_44:\n      0x40\n      dup1\n      mload\n      sub(exp(0x2, 0xa0), 0x1)\n      swap1\n      swap3\n      and\n      dup3\n      mstore\n      mload\n      swap1\n      dup2\n      swap1\n      sub\n      0x20\n      add\n      swap1\n      return\n        /* \"contracts/Online/ERC20/WBTC.sol\":2683:3012  function transfer(address _to, uint256 _value) public returns (bool) {\r... */\n    tag_12:\n      callvalue\n        /* \"--CODEGEN--\":8:17   */\n      dup1\n        /* \"--CODEGEN--\":5:7   */\n      iszero\n      tag_46\n      jumpi\n        /* \"--CODEGEN--\":30:31   */\n      0x0\n        /* \"--CODEGEN--\":27:28   */\n      dup1\n        /* \"--CODEGEN--\":20:32   */\n      revert\n        /* \"--CODEGEN--\":5:7   */\n    tag_46:\n      pop\n        /* \"contracts/Online/ERC20/WBTC.sol\":2683:3012  function transfer(address _to, uint256 _value) public returns (bool) {\r... */\n      tag_17\n      and(calldataload(0x4), sub(exp(0x2, 0xa0), 0x1))\n      calldataload(0x24)\n      jump(tag_48)\n        /* \"contracts/Online/ERC20/WBTC.sol\":6900:7207  function increaseApproval(\r... */\n    tag_13:\n      callvalue\n        /* \"--CODEGEN--\":8:17   */\n      dup1\n        /* \"--CODEGEN--\":5:7   */\n      iszero\n      tag_49\n      jumpi\n        /* \"--CODEGEN--\":30:31   */\n      0x0\n        /* \"--CODEGEN--\":27:28   */\n      dup1\n        /* \"--CODEGEN--\":20:32   */\n      revert\n        /* \"--CODEGEN--\":5:7   */\n    tag_49:\n      pop\n        /* \"contracts/Online/ERC20/WBTC.sol\":6900:7207  function increaseApproval(\r... */\n      tag_17\n      and(calldataload(0x4), sub(exp(0x2, 0xa0), 0x1))\n      calldataload(0x24)\n      jump(tag_51)\n        /* \"contracts/Online/ERC20/WBTC.sol\":6275:6437  function allowance(\r... */\n    tag_14:\n      callvalue\n        /* \"--CODEGEN--\":8:17   */\n      dup1\n        /* \"--CODEGEN--\":5:7   */\n      iszero\n      tag_52\n      jumpi\n        /* \"--CODEGEN--\":30:31   */\n      0x0\n        /* \"--CODEGEN--\":27:28   */\n      dup1\n        /* \"--CODEGEN--\":20:32   */\n      revert\n        /* \"--CODEGEN--\":5:7   */\n    tag_52:\n      pop\n        /* \"contracts/Online/ERC20/WBTC.sol\":6275:6437  function allowance(\r... */\n      tag_23\n      sub(exp(0x2, 0xa0), 0x1)\n      calldataload(0x4)\n      dup2\n      and\n      swap1\n      calldataload(0x24)\n      and\n      jump(tag_54)\n        /* \"contracts/Online/ERC20/WBTC.sol\":10065:10170  function transferOwnership(address _newOwner) public onlyOwner {\r... */\n    tag_15:\n      callvalue\n        /* \"--CODEGEN--\":8:17   */\n      dup1\n        /* \"--CODEGEN--\":5:7   */\n      iszero\n      tag_55\n      jumpi\n        /* \"--CODEGEN--\":30:31   */\n      0x0\n        /* \"--CODEGEN--\":27:28   */\n      dup1\n        /* \"--CODEGEN--\":20:32   */\n      revert\n        /* \"--CODEGEN--\":5:7   */\n    tag_55:\n      pop\n        /* \"contracts/Online/ERC20/WBTC.sol\":10065:10170  function transferOwnership(address _newOwner) public onlyOwner {\r... */\n      tag_38\n      and(calldataload(0x4), sub(exp(0x2, 0xa0), 0x1))\n      jump(tag_57)\n        /* \"contracts/Online/ERC20/WBTC.sol\":10916:10951  bool public mintingFinished = false */\n    tag_18:\n      sload(0x3)\n      0x10000000000000000000000000000000000000000\n      swap1\n      div\n      0xff\n      and\n      dup2\n      jump\t// out\n        /* \"contracts/Online/ERC20/WBTC.sol\":5756:5948  function approve(address _spender, uint256 _value) public returns (bool) {\r... */\n    tag_21:\n        /* \"contracts/Online/ERC20/WBTC.sol\":5844:5854  msg.sender */\n      caller\n        /* \"contracts/Online/ERC20/WBTC.sol\":5823:5827  bool */\n      0x0\n        /* \"contracts/Online/ERC20/WBTC.sol\":5836:5855  allowed[msg.sender] */\n      dup2\n      dup2\n      mstore\n        /* \"contracts/Online/ERC20/WBTC.sol\":5836:5843  allowed */\n      0x2\n        /* \"contracts/Online/ERC20/WBTC.sol\":5836:5855  allowed[msg.sender] */\n      0x20\n      swap1\n      dup2\n      mstore\n      0x40\n      dup1\n      dup4\n      keccak256\n      sub(exp(0x2, 0xa0), 0x1)\n        /* \"contracts/Online/ERC20/WBTC.sol\":5836:5865  allowed[msg.sender][_spender] */\n      dup8\n      and\n      dup1\n      dup6\n      mstore\n      swap1\n      dup4\n      mstore\n      dup2\n      dup5\n      keccak256\n        /* \"contracts/Online/ERC20/WBTC.sol\":5836:5874  allowed[msg.sender][_spender] = _value */\n      dup7\n      swap1\n      sstore\n        /* \"contracts/Online/ERC20/WBTC.sol\":5886:5924  Approval(msg.sender, _spender, _value) */\n      dup2\n      mload\n      dup7\n      dup2\n      mstore\n      swap2\n      mload\n        /* \"contracts/Online/ERC20/WBTC.sol\":5823:5827  bool */\n      swap4\n      swap5\n        /* \"contracts/Online/ERC20/WBTC.sol\":5836:5865  allowed[msg.sender][_spender] */\n      swap1\n      swap4\n        /* \"contracts/Online/ERC20/WBTC.sol\":5844:5854  msg.sender */\n      swap1\n      swap3\n        /* \"contracts/Online/ERC20/WBTC.sol\":5886:5924  Approval(msg.sender, _spender, _value) */\n      0x8c5be1e5ebec7d5bd14f71427d1e84f3dd0314c0f7b2291e5b200ac8c7c3b925\n      swap3\n      dup3\n      swap1\n      sub\n      add\n      swap1\n      log3\n      pop\n        /* \"contracts/Online/ERC20/WBTC.sol\":5938:5942  true */\n      0x1\n        /* \"contracts/Online/ERC20/WBTC.sol\":5756:5948  function approve(address _spender, uint256 _value) public returns (bool) {\r... */\n      swap3\n      swap2\n      pop\n      pop\n      jump\t// out\n        /* \"contracts/Online/ERC20/WBTC.sol\":2437:2522  function totalSupply() public view returns (uint256) {\r... */\n    tag_24:\n        /* \"contracts/Online/ERC20/WBTC.sol\":2504:2516  totalSupply_ */\n      sload(0x1)\n        /* \"contracts/Online/ERC20/WBTC.sol\":2437:2522  function totalSupply() public view returns (uint256) {\r... */\n      swap1\n      jump\t// out\n        /* \"contracts/Online/ERC20/WBTC.sol\":4640:5127  function transferFrom(\r... */\n    tag_27:\n      sub(exp(0x2, 0xa0), 0x1)\n        /* \"contracts/Online/ERC20/WBTC.sol\":4786:4801  balances[_from] */\n      dup4\n      and\n        /* \"contracts/Online/ERC20/WBTC.sol\":4752:4756  bool */\n      0x0\n        /* \"contracts/Online/ERC20/WBTC.sol\":4786:4801  balances[_from] */\n      swap1\n      dup2\n      mstore\n      0x20\n      dup2\n      swap1\n      mstore\n      0x40\n      dup2\n      keccak256\n      sload\n        /* \"contracts/Online/ERC20/WBTC.sol\":4776:4801  _value <= balances[_from] */\n      dup3\n      gt\n      iszero\n        /* \"contracts/Online/ERC20/WBTC.sol\":4768:4802  require(_value <= balances[_from]) */\n      tag_61\n      jumpi\n      0x0\n      dup1\n      revert\n    tag_61:\n      sub(exp(0x2, 0xa0), 0x1)\n        /* \"contracts/Online/ERC20/WBTC.sol\":4827:4841  allowed[_from] */\n      dup5\n      and\n      0x0\n      swap1\n      dup2\n      mstore\n        /* \"contracts/Online/ERC20/WBTC.sol\":4827:4834  allowed */\n      0x2\n        /* \"contracts/Online/ERC20/WBTC.sol\":4827:4841  allowed[_from] */\n      0x20\n      swap1\n      dup2\n      mstore\n      0x40\n      dup1\n      dup4\n      keccak256\n        /* \"contracts/Online/ERC20/WBTC.sol\":4842:4852  msg.sender */\n      caller\n        /* \"contracts/Online/ERC20/WBTC.sol\":4827:4853  allowed[_from][msg.sender] */\n      dup5\n      mstore\n      swap1\n      swap2\n      mstore\n      swap1\n      keccak256\n      sload\n        /* \"contracts/Online/ERC20/WBTC.sol\":4817:4853  _value <= allowed[_from][msg.sender] */\n      dup3\n      gt\n      iszero\n        /* \"contracts/Online/ERC20/WBTC.sol\":4809:4854  require(_value <= allowed[_from][msg.sender]) */\n      tag_62\n      jumpi\n      0x0\n      dup1\n      revert\n    tag_62:\n      sub(exp(0x2, 0xa0), 0x1)\n        /* \"contracts/Online/ERC20/WBTC.sol\":4869:4886  _to != address(0) */\n      dup4\n      and\n      iszero\n      iszero\n        /* \"contracts/Online/ERC20/WBTC.sol\":4861:4887  require(_to != address(0)) */\n      tag_63\n      jumpi\n      0x0\n      dup1\n      revert\n    tag_63:\n      sub(exp(0x2, 0xa0), 0x1)\n        /* \"contracts/Online/ERC20/WBTC.sol\":4914:4929  balances[_from] */\n      dup5\n      and\n        /* \"contracts/Online/ERC20/WBTC.sol\":4914:4922  balances */\n      0x0\n        /* \"contracts/Online/ERC20/WBTC.sol\":4914:4929  balances[_from] */\n      swap1\n      dup2\n      mstore\n      0x20\n      dup2\n      swap1\n      mstore\n      0x40\n      swap1\n      keccak256\n      sload\n        /* \"contracts/Online/ERC20/WBTC.sol\":4914:4941  balances[_from].sub(_value) */\n      tag_64\n      swap1\n        /* \"contracts/Online/ERC20/WBTC.sol\":4934:4940  _value */\n      dup4\n        /* \"contracts/Online/ERC20/WBTC.sol\":4914:4941  balances[_from].sub(_value) */\n      0xffffffff\n        /* \"contracts/Online/ERC20/WBTC.sol\":4914:4933  balances[_from].sub */\n      tag_65\n        /* \"contracts/Online/ERC20/WBTC.sol\":4914:4941  balances[_from].sub(_value) */\n      and\n      jump\t// in\n    tag_64:\n      sub(exp(0x2, 0xa0), 0x1)\n        /* \"contracts/Online/ERC20/WBTC.sol\":4896:4911  balances[_from] */\n      dup1\n      dup7\n      and\n        /* \"contracts/Online/ERC20/WBTC.sol\":4896:4904  balances */\n      0x0\n        /* \"contracts/Online/ERC20/WBTC.sol\":4896:4911  balances[_from] */\n      swap1\n      dup2\n      mstore\n      0x20\n      dup2\n      swap1\n      mstore\n      0x40\n      dup1\n      dup3\n      keccak256\n        /* \"contracts/Online/ERC20/WBTC.sol\":4896:4941  balances[_from] = balances[_from].sub(_value) */\n      swap4\n      swap1\n      swap4\n      sstore\n        /* \"contracts/Online/ERC20/WBTC.sol\":4964:4977  balances[_to] */\n      swap1\n      dup6\n      and\n      dup2\n      mstore\n      keccak256\n      sload\n        /* \"contracts/Online/ERC20/WBTC.sol\":4964:4989  balances[_to].add(_value) */\n      tag_66\n      swap1\n        /* \"contracts/Online/ERC20/WBTC.sol\":4982:4988  _value */\n      dup4\n        /* \"contracts/Online/ERC20/WBTC.sol\":4964:4989  balances[_to].add(_value) */\n      0xffffffff\n        /* \"contracts/Online/ERC20/WBTC.sol\":4964:4981  balances[_to].add */\n      tag_67\n        /* \"contracts/Online/ERC20/WBTC.sol\":4964:4989  balances[_to].add(_value) */\n      and\n      jump\t// in\n    tag_66:\n      sub(exp(0x2, 0xa0), 0x1)\n        /* \"contracts/Online/ERC20/WBTC.sol\":4948:4961  balances[_to] */\n      dup1\n      dup6\n      and\n        /* \"contracts/Online/ERC20/WBTC.sol\":4948:4956  balances */\n      0x0\n        /* \"contracts/Online/ERC20/WBTC.sol\":4948:4961  balances[_to] */\n      swap1\n      dup2\n      mstore\n      0x20\n      dup2\n      dup2\n      mstore\n      0x40\n      dup1\n      dup4\n      keccak256\n        /* \"contracts/Online/ERC20/WBTC.sol\":4948:4989  balances[_to] = balances[_to].add(_value) */\n      swap5\n      swap1\n      swap5\n      sstore\n        /* \"contracts/Online/ERC20/WBTC.sol\":5025:5039  allowed[_from] */\n      swap2\n      dup8\n      and\n      dup2\n      mstore\n        /* \"contracts/Online/ERC20/WBTC.sol\":5025:5032  allowed */\n      0x2\n        /* \"contracts/Online/ERC20/WBTC.sol\":5025:5039  allowed[_from] */\n      dup3\n      mstore\n      dup3\n      dup2\n      keccak256\n        /* \"contracts/Online/ERC20/WBTC.sol\":5040:5050  msg.sender */\n      caller\n        /* \"contracts/Online/ERC20/WBTC.sol\":5025:5051  allowed[_from][msg.sender] */\n      dup3\n      mstore\n      swap1\n      swap2\n      mstore\n      keccak256\n      sload\n        /* \"contracts/Online/ERC20/WBTC.sol\":5025:5063  allowed[_from][msg.sender].sub(_value) */\n      tag_68\n      swap1\n        /* \"contracts/Online/ERC20/WBTC.sol\":5056:5062  _value */\n      dup4\n        /* \"contracts/Online/ERC20/WBTC.sol\":5025:5063  allowed[_from][msg.sender].sub(_value) */\n      0xffffffff\n        /* \"contracts/Online/ERC20/WBTC.sol\":5025:5055  allowed[_from][msg.sender].sub */\n      tag_65\n        /* \"contracts/Online/ERC20/WBTC.sol\":5025:5063  allowed[_from][msg.sender].sub(_value) */\n      and\n      jump\t// in\n    tag_68:\n      sub(exp(0x2, 0xa0), 0x1)\n        /* \"contracts/Online/ERC20/WBTC.sol\":4996:5010  allowed[_from] */\n      dup1\n      dup7\n      and\n      0x0\n      dup2\n      dup2\n      mstore\n        /* \"contracts/Online/ERC20/WBTC.sol\":4996:5003  allowed */\n      0x2\n        /* \"contracts/Online/ERC20/WBTC.sol\":4996:5010  allowed[_from] */\n      0x20\n      swap1\n      dup2\n      mstore\n      0x40\n      dup1\n      dup4\n      keccak256\n        /* \"contracts/Online/ERC20/WBTC.sol\":5011:5021  msg.sender */\n      caller\n        /* \"contracts/Online/ERC20/WBTC.sol\":4996:5022  allowed[_from][msg.sender] */\n      dup5\n      mstore\n      dup3\n      mstore\n      swap2\n      dup3\n      swap1\n      keccak256\n        /* \"contracts/Online/ERC20/WBTC.sol\":4996:5063  allowed[_from][msg.sender] = allowed[_from][msg.sender].sub(_value) */\n      swap5\n      swap1\n      swap5\n      sstore\n        /* \"contracts/Online/ERC20/WBTC.sol\":5075:5103  Transfer(_from, _to, _value) */\n      dup1\n      mload\n      dup7\n      dup2\n      mstore\n      swap1\n      mload\n      swap3\n      dup8\n      and\n      swap4\n        /* \"contracts/Online/ERC20/WBTC.sol\":4996:5010  allowed[_from] */\n      swap2\n      swap3\n        /* \"contracts/Online/ERC20/WBTC.sol\":5075:5103  Transfer(_from, _to, _value) */\n      0xddf252ad1be2c89b69c2b068fc378daa952ba7f163c4a11628f55a4df523b3ef\n      swap3\n      swap2\n      dup2\n      swap1\n      sub\n      swap1\n      swap2\n      add\n      swap1\n      log3\n      pop\n        /* \"contracts/Online/ERC20/WBTC.sol\":5117:5121  true */\n      0x1\n        /* \"contracts/Online/ERC20/WBTC.sol\":4640:5127  function transferFrom(\r... */\n      swap4\n      swap3\n      pop\n      pop\n      pop\n      jump\t// out\n        /* \"contracts/Online/ERC20/WBTC.sol\":11353:11679  function mint(\r... */\n    tag_30:\n        /* \"contracts/Online/ERC20/WBTC.sol\":11089:11094  owner */\n      sload(0x3)\n        /* \"contracts/Online/ERC20/WBTC.sol\":11474:11478  bool */\n      0x0\n      swap1\n      sub(exp(0x2, 0xa0), 0x1)\n        /* \"contracts/Online/ERC20/WBTC.sol\":11089:11094  owner */\n      and\n        /* \"contracts/Online/ERC20/WBTC.sol\":11075:11085  msg.sender */\n      caller\n        /* \"contracts/Online/ERC20/WBTC.sol\":11075:11094  msg.sender == owner */\n      eq\n        /* \"contracts/Online/ERC20/WBTC.sol\":11067:11095  require(msg.sender == owner) */\n      tag_70\n      jumpi\n      0x0\n      dup1\n      revert\n    tag_70:\n        /* \"contracts/Online/ERC20/WBTC.sol\":10995:11010  mintingFinished */\n      sload(0x3)\n      0x10000000000000000000000000000000000000000\n      swap1\n      div\n      0xff\n      and\n        /* \"contracts/Online/ERC20/WBTC.sol\":10994:11010  !mintingFinished */\n      iszero\n        /* \"contracts/Online/ERC20/WBTC.sol\":10986:11011  require(!mintingFinished) */\n      tag_72\n      jumpi\n      0x0\n      dup1\n      revert\n    tag_72:\n        /* \"contracts/Online/ERC20/WBTC.sol\":11505:11517  totalSupply_ */\n      sload(0x1)\n        /* \"contracts/Online/ERC20/WBTC.sol\":11505:11530  totalSupply_.add(_amount) */\n      tag_74\n      swap1\n        /* \"contracts/Online/ERC20/WBTC.sol\":11522:11529  _amount */\n      dup4\n        /* \"contracts/Online/ERC20/WBTC.sol\":11505:11530  totalSupply_.add(_amount) */\n      0xffffffff\n        /* \"contracts/Online/ERC20/WBTC.sol\":11505:11521  totalSupply_.add */\n      tag_67\n        /* \"contracts/Online/ERC20/WBTC.sol\":11505:11530  totalSupply_.add(_amount) */\n      and\n      jump\t// in\n    tag_74:\n        /* \"contracts/Online/ERC20/WBTC.sol\":11490:11502  totalSupply_ */\n      0x1\n        /* \"contracts/Online/ERC20/WBTC.sol\":11490:11530  totalSupply_ = totalSupply_.add(_amount) */\n      sstore\n      sub(exp(0x2, 0xa0), 0x1)\n        /* \"contracts/Online/ERC20/WBTC.sol\":11553:11566  balances[_to] */\n      dup4\n      and\n        /* \"contracts/Online/ERC20/WBTC.sol\":11553:11561  balances */\n      0x0\n        /* \"contracts/Online/ERC20/WBTC.sol\":11553:11566  balances[_to] */\n      swap1\n      dup2\n      mstore\n      0x20\n      dup2\n      swap1\n      mstore\n      0x40\n      swap1\n      keccak256\n      sload\n        /* \"contracts/Online/ERC20/WBTC.sol\":11553:11579  balances[_to].add(_amount) */\n      tag_75\n      swap1\n        /* \"contracts/Online/ERC20/WBTC.sol\":11571:11578  _amount */\n      dup4\n        /* \"contracts/Online/ERC20/WBTC.sol\":11553:11579  balances[_to].add(_amount) */\n      0xffffffff\n        /* \"contracts/Online/ERC20/WBTC.sol\":11553:11570  balances[_to].add */\n      tag_67\n        /* \"contracts/Online/ERC20/WBTC.sol\":11553:11579  balances[_to].add(_amount) */\n      and\n      jump\t// in\n    tag_75:\n      sub(exp(0x2, 0xa0), 0x1)\n        /* \"contracts/Online/ERC20/WBTC.sol\":11537:11550  balances[_to] */\n      dup5\n      and\n        /* \"contracts/Online/ERC20/WBTC.sol\":11537:11545  balances */\n      0x0\n        /* \"contracts/Online/ERC20/WBTC.sol\":11537:11550  balances[_to] */\n      dup2\n      dup2\n      mstore\n      0x20\n      dup2\n      dup2\n      mstore\n      0x40\n      swap2\n      dup3\n      swap1\n      keccak256\n        /* \"contracts/Online/ERC20/WBTC.sol\":11537:11579  balances[_to] = balances[_to].add(_amount) */\n      swap4\n      swap1\n      swap4\n      sstore\n        /* \"contracts/Online/ERC20/WBTC.sol\":11591:11609  Mint(_to, _amount) */\n      dup1\n      mload\n      dup6\n      dup2\n      mstore\n      swap1\n      mload\n        /* \"contracts/Online/ERC20/WBTC.sol\":11537:11550  balances[_to] */\n      swap2\n      swap3\n        /* \"contracts/Online/ERC20/WBTC.sol\":11591:11609  Mint(_to, _amount) */\n      0xf6798a560793a54c3bcfe86a93cde1e73087d944c0ea20544137d4121396885\n      swap3\n      swap2\n      dup3\n      swap1\n      sub\n      add\n      swap1\n      log2\n        /* \"contracts/Online/ERC20/WBTC.sol\":11621:11655  Transfer(address(0), _to, _amount) */\n      0x40\n      dup1\n      mload\n      dup4\n      dup2\n      mstore\n      swap1\n      mload\n      sub(exp(0x2, 0xa0), 0x1)\n      dup6\n      and\n      swap2\n        /* \"contracts/Online/ERC20/WBTC.sol\":11638:11639  0 */\n      0x0\n      swap2\n        /* \"contracts/Online/ERC20/WBTC.sol\":11621:11655  Transfer(address(0), _to, _amount) */\n      0xddf252ad1be2c89b69c2b068fc378daa952ba7f163c4a11628f55a4df523b3ef\n      swap2\n      dup2\n      swap1\n      sub\n      0x20\n      add\n      swap1\n      log3\n      pop\n        /* \"contracts/Online/ERC20/WBTC.sol\":11669:11673  true */\n      0x1\n        /* \"contracts/Online/ERC20/WBTC.sol\":11353:11679  function mint(\r... */\n      swap3\n      swap2\n      pop\n      pop\n      jump\t// out\n        /* \"contracts/Online/ERC20/WBTC.sol\":7675:8122  function decreaseApproval(\r... */\n    tag_33:\n        /* \"contracts/Online/ERC20/WBTC.sol\":7829:7839  msg.sender */\n      caller\n        /* \"contracts/Online/ERC20/WBTC.sol\":7786:7790  bool */\n      0x0\n        /* \"contracts/Online/ERC20/WBTC.sol\":7821:7840  allowed[msg.sender] */\n      swap1\n      dup2\n      mstore\n        /* \"contracts/Online/ERC20/WBTC.sol\":7821:7828  allowed */\n      0x2\n        /* \"contracts/Online/ERC20/WBTC.sol\":7821:7840  allowed[msg.sender] */\n      0x20\n      swap1\n      dup2\n      mstore\n      0x40\n      dup1\n      dup4\n      keccak256\n      sub(exp(0x2, 0xa0), 0x1)\n        /* \"contracts/Online/ERC20/WBTC.sol\":7821:7850  allowed[msg.sender][_spender] */\n      dup7\n      and\n      dup5\n      mstore\n      swap1\n      swap2\n      mstore\n      dup2\n      keccak256\n      sload\n        /* \"contracts/Online/ERC20/WBTC.sol\":7861:7889  _subtractedValue >= oldValue */\n      dup1\n      dup4\n      lt\n        /* \"contracts/Online/ERC20/WBTC.sol\":7857:8026  if (_subtractedValue >= oldValue) {\r... */\n      tag_77\n      jumpi\n        /* \"contracts/Online/ERC20/WBTC.sol\":7908:7918  msg.sender */\n      caller\n        /* \"contracts/Online/ERC20/WBTC.sol\":7932:7933  0 */\n      0x0\n        /* \"contracts/Online/ERC20/WBTC.sol\":7900:7919  allowed[msg.sender] */\n      swap1\n      dup2\n      mstore\n        /* \"contracts/Online/ERC20/WBTC.sol\":7900:7907  allowed */\n      0x2\n        /* \"contracts/Online/ERC20/WBTC.sol\":7900:7919  allowed[msg.sender] */\n      0x20\n      swap1\n      dup2\n      mstore\n      0x40\n      dup1\n      dup4\n      keccak256\n      sub(exp(0x2, 0xa0), 0x1)\n        /* \"contracts/Online/ERC20/WBTC.sol\":7900:7929  allowed[msg.sender][_spender] */\n      dup9\n      and\n      dup5\n      mstore\n      swap1\n      swap2\n      mstore\n      dup2\n      keccak256\n        /* \"contracts/Online/ERC20/WBTC.sol\":7900:7933  allowed[msg.sender][_spender] = 0 */\n      sstore\n        /* \"contracts/Online/ERC20/WBTC.sol\":7857:8026  if (_subtractedValue >= oldValue) {\r... */\n      jump(tag_78)\n    tag_77:\n        /* \"contracts/Online/ERC20/WBTC.sol\":7988:8018  oldValue.sub(_subtractedValue) */\n      tag_79\n        /* \"contracts/Online/ERC20/WBTC.sol\":7988:7996  oldValue */\n      dup2\n        /* \"contracts/Online/ERC20/WBTC.sol\":8001:8017  _subtractedValue */\n      dup5\n        /* \"contracts/Online/ERC20/WBTC.sol\":7988:8018  oldValue.sub(_subtractedValue) */\n      0xffffffff\n        /* \"contracts/Online/ERC20/WBTC.sol\":7988:8000  oldValue.sub */\n      tag_65\n        /* \"contracts/Online/ERC20/WBTC.sol\":7988:8018  oldValue.sub(_subtractedValue) */\n      and\n      jump\t// in\n    tag_79:\n        /* \"contracts/Online/ERC20/WBTC.sol\":7964:7974  msg.sender */\n      caller\n        /* \"contracts/Online/ERC20/WBTC.sol\":7956:7975  allowed[msg.sender] */\n      0x0\n      swap1\n      dup2\n      mstore\n        /* \"contracts/Online/ERC20/WBTC.sol\":7956:7963  allowed */\n      0x2\n        /* \"contracts/Online/ERC20/WBTC.sol\":7956:7975  allowed[msg.sender] */\n      0x20\n      swap1\n      dup2\n      mstore\n      0x40\n      dup1\n      dup4\n      keccak256\n      sub(exp(0x2, 0xa0), 0x1)\n        /* \"contracts/Online/ERC20/WBTC.sol\":7956:7985  allowed[msg.sender][_spender] */\n      dup10\n      and\n      dup5\n      mstore\n      swap1\n      swap2\n      mstore\n      swap1\n      keccak256\n        /* \"contracts/Online/ERC20/WBTC.sol\":7956:8018  allowed[msg.sender][_spender] = oldValue.sub(_subtractedValue) */\n      sstore\n        /* \"contracts/Online/ERC20/WBTC.sol\":7857:8026  if (_subtractedValue >= oldValue) {\r... */\n    tag_78:\n        /* \"contracts/Online/ERC20/WBTC.sol\":8046:8056  msg.sender */\n      caller\n        /* \"contracts/Online/ERC20/WBTC.sol\":8068:8087  allowed[msg.sender] */\n      0x0\n      dup2\n      dup2\n      mstore\n        /* \"contracts/Online/ERC20/WBTC.sol\":8068:8075  allowed */\n      0x2\n        /* \"contracts/Online/ERC20/WBTC.sol\":8068:8087  allowed[msg.sender] */\n      0x20\n      swap1\n      dup2\n      mstore\n      0x40\n      dup1\n      dup4\n      keccak256\n      sub(exp(0x2, 0xa0), 0x1)\n        /* \"contracts/Online/ERC20/WBTC.sol\":8037:8098  Approval(msg.sender, _spender, allowed[msg.sender][_spender]) */\n      dup10\n      and\n        /* \"contracts/Online/ERC20/WBTC.sol\":8068:8097  allowed[msg.sender][_spender] */\n      dup1\n      dup6\n      mstore\n      swap1\n      dup4\n      mstore\n      swap3\n      dup2\n      swap1\n      keccak256\n      sload\n        /* \"contracts/Online/ERC20/WBTC.sol\":8037:8098  Approval(msg.sender, _spender, allowed[msg.sender][_spender]) */\n      dup2\n      mload\n      swap1\n      dup2\n      mstore\n      swap1\n      mload\n      swap3\n      swap4\n        /* \"contracts/Online/ERC20/WBTC.sol\":8046:8056  msg.sender */\n      swap3\n        /* \"contracts/Online/ERC20/WBTC.sol\":8037:8098  Approval(msg.sender, _spender, allowed[msg.sender][_spender]) */\n      0x8c5be1e5ebec7d5bd14f71427d1e84f3dd0314c0f7b2291e5b200ac8c7c3b925\n      swap3\n      swap2\n      dup2\n      swap1\n      sub\n      swap1\n      swap2\n      add\n      swap1\n      log3\n      pop\n        /* \"contracts/Online/ERC20/WBTC.sol\":8112:8116  true */\n      0x1\n      swap4\n        /* \"contracts/Online/ERC20/WBTC.sol\":7675:8122  function decreaseApproval(\r... */\n      swap3\n      pop\n      pop\n      pop\n      jump\t// out\n        /* \"contracts/Online/ERC20/WBTC.sol\":3221:3322  function balanceOf(address _owner) public view returns (uint256) {\r... */\n    tag_36:\n      sub(exp(0x2, 0xa0), 0x1)\n        /* \"contracts/Online/ERC20/WBTC.sol\":3300:3316  balances[_owner] */\n      and\n        /* \"contracts/Online/ERC20/WBTC.sol\":3277:3284  uint256 */\n      0x0\n        /* \"contracts/Online/ERC20/WBTC.sol\":3300:3316  balances[_owner] */\n      swap1\n      dup2\n      mstore\n      0x20\n      dup2\n      swap1\n      mstore\n      0x40\n      swap1\n      keccak256\n      sload\n      swap1\n        /* \"contracts/Online/ERC20/WBTC.sol\":3221:3322  function balanceOf(address _owner) public view returns (uint256) {\r... */\n      jump\t// out\n        /* \"contracts/Online/ERC20/WBTC.sol\":9783:9897  function renounceOwnership() public onlyOwner {\r... */\n    tag_39:\n        /* \"contracts/Online/ERC20/WBTC.sol\":9491:9496  owner */\n      and(sub(exp(0x2, 0xa0), 0x1), sload(0x3))\n        /* \"contracts/Online/ERC20/WBTC.sol\":9477:9487  msg.sender */\n      caller\n        /* \"contracts/Online/ERC20/WBTC.sol\":9477:9496  msg.sender == owner */\n      eq\n        /* \"contracts/Online/ERC20/WBTC.sol\":9469:9497  require(msg.sender == owner) */\n      tag_82\n      jumpi\n      0x0\n      dup1\n      revert\n    tag_82:\n        /* \"contracts/Online/ERC20/WBTC.sol\":9860:9865  owner */\n      sload(0x3)\n        /* \"contracts/Online/ERC20/WBTC.sol\":9841:9866  OwnershipRenounced(owner) */\n      mload(0x40)\n      sub(exp(0x2, 0xa0), 0x1)\n        /* \"contracts/Online/ERC20/WBTC.sol\":9860:9865  owner */\n      swap1\n      swap2\n      and\n      swap1\n        /* \"contracts/Online/ERC20/WBTC.sol\":9841:9866  OwnershipRenounced(owner) */\n      0xf8df31144d9c2f0f6b59d69b8b98abd5459d07f2742c4df920b25aae33c64820\n      swap1\n        /* \"contracts/Online/ERC20/WBTC.sol\":9860:9865  owner */\n      0x0\n      swap1\n        /* \"contracts/Online/ERC20/WBTC.sol\":9841:9866  OwnershipRenounced(owner) */\n      log2\n        /* \"contracts/Online/ERC20/WBTC.sol\":9873:9878  owner */\n      0x3\n        /* \"contracts/Online/ERC20/WBTC.sol\":9873:9891  owner = address(0) */\n      dup1\n      sload\n      not(0xffffffffffffffffffffffffffffffffffffffff)\n      and\n      swap1\n      sstore\n        /* \"contracts/Online/ERC20/WBTC.sol\":9783:9897  function renounceOwnership() public onlyOwner {\r... */\n      jump\t// out\n        /* \"contracts/Online/ERC20/WBTC.sol\":11799:11943  function finishMinting() public onlyOwner canMint returns (bool) {\r... */\n    tag_42:\n        /* \"contracts/Online/ERC20/WBTC.sol\":9491:9496  owner */\n      sload(0x3)\n        /* \"contracts/Online/ERC20/WBTC.sol\":11858:11862  bool */\n      0x0\n      swap1\n      sub(exp(0x2, 0xa0), 0x1)\n        /* \"contracts/Online/ERC20/WBTC.sol\":9491:9496  owner */\n      and\n        /* \"contracts/Online/ERC20/WBTC.sol\":9477:9487  msg.sender */\n      caller\n        /* \"contracts/Online/ERC20/WBTC.sol\":9477:9496  msg.sender == owner */\n      eq\n        /* \"contracts/Online/ERC20/WBTC.sol\":9469:9497  require(msg.sender == owner) */\n      tag_85\n      jumpi\n      0x0\n      dup1\n      revert\n    tag_85:\n        /* \"contracts/Online/ERC20/WBTC.sol\":10995:11010  mintingFinished */\n      sload(0x3)\n      0x10000000000000000000000000000000000000000\n      swap1\n      div\n      0xff\n      and\n        /* \"contracts/Online/ERC20/WBTC.sol\":10994:11010  !mintingFinished */\n      iszero\n        /* \"contracts/Online/ERC20/WBTC.sol\":10986:11011  require(!mintingFinished) */\n      tag_87\n      jumpi\n      0x0\n      dup1\n      revert\n    tag_87:\n        /* \"contracts/Online/ERC20/WBTC.sol\":11871:11886  mintingFinished */\n      0x3\n        /* \"contracts/Online/ERC20/WBTC.sol\":11871:11893  mintingFinished = true */\n      dup1\n      sload\n      not(0xff0000000000000000000000000000000000000000)\n      and\n      0x10000000000000000000000000000000000000000\n      or\n      swap1\n      sstore\n        /* \"contracts/Online/ERC20/WBTC.sol\":11905:11919  MintFinished() */\n      mload(0x40)\n      0xae5184fba832cb2b1f702aca6117b8d265eaf03ad33eb133f19dde0f5920fa08\n      swap1\n        /* \"contracts/Online/ERC20/WBTC.sol\":11871:11893  mintingFinished = true */\n      0x0\n      swap1\n        /* \"contracts/Online/ERC20/WBTC.sol\":11905:11919  MintFinished() */\n      log1\n      pop\n        /* \"contracts/Online/ERC20/WBTC.sol\":11933:11937  true */\n      0x1\n        /* \"contracts/Online/ERC20/WBTC.sol\":11799:11943  function finishMinting() public onlyOwner canMint returns (bool) {\r... */\n      swap1\n      jump\t// out\n        /* \"contracts/Online/ERC20/WBTC.sol\":8988:9008  address public owner */\n    tag_45:\n      and(sub(exp(0x2, 0xa0), 0x1), sload(0x3))\n      dup2\n      jump\t// out\n        /* \"contracts/Online/ERC20/WBTC.sol\":2683:3012  function transfer(address _to, uint256 _value) public returns (bool) {\r... */\n    tag_48:\n        /* \"contracts/Online/ERC20/WBTC.sol\":2786:2796  msg.sender */\n      caller\n        /* \"contracts/Online/ERC20/WBTC.sol\":2746:2750  bool */\n      0x0\n        /* \"contracts/Online/ERC20/WBTC.sol\":2777:2797  balances[msg.sender] */\n      swap1\n      dup2\n      mstore\n      0x20\n      dup2\n      swap1\n      mstore\n      0x40\n      dup2\n      keccak256\n      sload\n        /* \"contracts/Online/ERC20/WBTC.sol\":2767:2797  _value <= balances[msg.sender] */\n      dup3\n      gt\n      iszero\n        /* \"contracts/Online/ERC20/WBTC.sol\":2759:2798  require(_value <= balances[msg.sender]) */\n      tag_90\n      jumpi\n      0x0\n      dup1\n      revert\n    tag_90:\n      sub(exp(0x2, 0xa0), 0x1)\n        /* \"contracts/Online/ERC20/WBTC.sol\":2813:2830  _to != address(0) */\n      dup4\n      and\n      iszero\n      iszero\n        /* \"contracts/Online/ERC20/WBTC.sol\":2805:2831  require(_to != address(0)) */\n      tag_91\n      jumpi\n      0x0\n      dup1\n      revert\n    tag_91:\n        /* \"contracts/Online/ERC20/WBTC.sol\":2872:2882  msg.sender */\n      caller\n        /* \"contracts/Online/ERC20/WBTC.sol\":2863:2871  balances */\n      0x0\n        /* \"contracts/Online/ERC20/WBTC.sol\":2863:2883  balances[msg.sender] */\n      swap1\n      dup2\n      mstore\n      0x20\n      dup2\n      swap1\n      mstore\n      0x40\n      swap1\n      keccak256\n      sload\n        /* \"contracts/Online/ERC20/WBTC.sol\":2863:2895  balances[msg.sender].sub(_value) */\n      tag_92\n      swap1\n        /* \"contracts/Online/ERC20/WBTC.sol\":2888:2894  _value */\n      dup4\n        /* \"contracts/Online/ERC20/WBTC.sol\":2863:2895  balances[msg.sender].sub(_value) */\n      0xffffffff\n        /* \"contracts/Online/ERC20/WBTC.sol\":2863:2887  balances[msg.sender].sub */\n      tag_65\n        /* \"contracts/Online/ERC20/WBTC.sol\":2863:2895  balances[msg.sender].sub(_value) */\n      and\n      jump\t// in\n    tag_92:\n        /* \"contracts/Online/ERC20/WBTC.sol\":2849:2859  msg.sender */\n      caller\n        /* \"contracts/Online/ERC20/WBTC.sol\":2840:2848  balances */\n      0x0\n        /* \"contracts/Online/ERC20/WBTC.sol\":2840:2860  balances[msg.sender] */\n      swap1\n      dup2\n      mstore\n      0x20\n      dup2\n      swap1\n      mstore\n      0x40\n      dup1\n      dup3\n      keccak256\n        /* \"contracts/Online/ERC20/WBTC.sol\":2840:2895  balances[msg.sender] = balances[msg.sender].sub(_value) */\n      swap3\n      swap1\n      swap3\n      sstore\n      sub(exp(0x2, 0xa0), 0x1)\n        /* \"contracts/Online/ERC20/WBTC.sol\":2918:2931  balances[_to] */\n      dup6\n      and\n      dup2\n      mstore\n      keccak256\n      sload\n        /* \"contracts/Online/ERC20/WBTC.sol\":2918:2943  balances[_to].add(_value) */\n      tag_93\n      swap1\n        /* \"contracts/Online/ERC20/WBTC.sol\":2936:2942  _value */\n      dup4\n        /* \"contracts/Online/ERC20/WBTC.sol\":2918:2943  balances[_to].add(_value) */\n      0xffffffff\n        /* \"contracts/Online/ERC20/WBTC.sol\":2918:2935  balances[_to].add */\n      tag_67\n        /* \"contracts/Online/ERC20/WBTC.sol\":2918:2943  balances[_to].add(_value) */\n      and\n      jump\t// in\n    tag_93:\n      sub(exp(0x2, 0xa0), 0x1)\n        /* \"contracts/Online/ERC20/WBTC.sol\":2902:2915  balances[_to] */\n      dup5\n      and\n        /* \"contracts/Online/ERC20/WBTC.sol\":2902:2910  balances */\n      0x0\n        /* \"contracts/Online/ERC20/WBTC.sol\":2902:2915  balances[_to] */\n      dup2\n      dup2\n      mstore\n      0x20\n      dup2\n      dup2\n      mstore\n      0x40\n      swap2\n      dup3\n      swap1\n      keccak256\n        /* \"contracts/Online/ERC20/WBTC.sol\":2902:2943  balances[_to] = balances[_to].add(_value) */\n      swap4\n      swap1\n      swap4\n      sstore\n        /* \"contracts/Online/ERC20/WBTC.sol\":2955:2988  Transfer(msg.sender, _to, _value) */\n      dup1\n      mload\n      dup6\n      dup2\n      mstore\n      swap1\n      mload\n        /* \"contracts/Online/ERC20/WBTC.sol\":2902:2915  balances[_to] */\n      swap2\n      swap3\n        /* \"contracts/Online/ERC20/WBTC.sol\":2964:2974  msg.sender */\n      caller\n      swap3\n        /* \"contracts/Online/ERC20/WBTC.sol\":2955:2988  Transfer(msg.sender, _to, _value) */\n      0xddf252ad1be2c89b69c2b068fc378daa952ba7f163c4a11628f55a4df523b3ef\n      swap3\n      dup2\n      swap1\n      sub\n      swap1\n      swap2\n      add\n      swap1\n      log3\n      pop\n        /* \"contracts/Online/ERC20/WBTC.sol\":3002:3006  true */\n      0x1\n        /* \"contracts/Online/ERC20/WBTC.sol\":2683:3012  function transfer(address _to, uint256 _value) public returns (bool) {\r... */\n      swap3\n      swap2\n      pop\n      pop\n      jump\t// out\n        /* \"contracts/Online/ERC20/WBTC.sol\":6900:7207  function increaseApproval(\r... */\n    tag_51:\n        /* \"contracts/Online/ERC20/WBTC.sol\":7071:7081  msg.sender */\n      caller\n        /* \"contracts/Online/ERC20/WBTC.sol\":7006:7010  bool */\n      0x0\n        /* \"contracts/Online/ERC20/WBTC.sol\":7063:7082  allowed[msg.sender] */\n      swap1\n      dup2\n      mstore\n        /* \"contracts/Online/ERC20/WBTC.sol\":7063:7070  allowed */\n      0x2\n        /* \"contracts/Online/ERC20/WBTC.sol\":7063:7082  allowed[msg.sender] */\n      0x20\n      swap1\n      dup2\n      mstore\n      0x40\n      dup1\n      dup4\n      keccak256\n      sub(exp(0x2, 0xa0), 0x1)\n        /* \"contracts/Online/ERC20/WBTC.sol\":7063:7092  allowed[msg.sender][_spender] */\n      dup7\n      and\n      dup5\n      mstore\n      swap1\n      swap2\n      mstore\n      dup2\n      keccak256\n      sload\n        /* \"contracts/Online/ERC20/WBTC.sol\":7063:7109  allowed[msg.sender][_spender].add(_addedValue) */\n      tag_95\n      swap1\n        /* \"contracts/Online/ERC20/WBTC.sol\":7097:7108  _addedValue */\n      dup4\n        /* \"contracts/Online/ERC20/WBTC.sol\":7063:7109  allowed[msg.sender][_spender].add(_addedValue) */\n      0xffffffff\n        /* \"contracts/Online/ERC20/WBTC.sol\":7063:7096  allowed[msg.sender][_spender].add */\n      tag_67\n        /* \"contracts/Online/ERC20/WBTC.sol\":7063:7109  allowed[msg.sender][_spender].add(_addedValue) */\n      and\n      jump\t// in\n    tag_95:\n        /* \"contracts/Online/ERC20/WBTC.sol\":7030:7040  msg.sender */\n      caller\n        /* \"contracts/Online/ERC20/WBTC.sol\":7022:7041  allowed[msg.sender] */\n      0x0\n      dup2\n      dup2\n      mstore\n        /* \"contracts/Online/ERC20/WBTC.sol\":7022:7029  allowed */\n      0x2\n        /* \"contracts/Online/ERC20/WBTC.sol\":7022:7041  allowed[msg.sender] */\n      0x20\n      swap1\n      dup2\n      mstore\n      0x40\n      dup1\n      dup4\n      keccak256\n      sub(exp(0x2, 0xa0), 0x1)\n        /* \"contracts/Online/ERC20/WBTC.sol\":7022:7051  allowed[msg.sender][_spender] */\n      dup10\n      and\n      dup1\n      dup6\n      mstore\n      swap1\n      dup4\n      mstore\n      swap3\n      dup2\n      swap1\n      keccak256\n        /* \"contracts/Online/ERC20/WBTC.sol\":7022:7110  allowed[msg.sender][_spender] = (\r... */\n      dup6\n      swap1\n      sstore\n        /* \"contracts/Online/ERC20/WBTC.sol\":7122:7183  Approval(msg.sender, _spender, allowed[msg.sender][_spender]) */\n      dup1\n      mload\n      swap5\n      dup6\n      mstore\n      mload\n        /* \"contracts/Online/ERC20/WBTC.sol\":7022:7051  allowed[msg.sender][_spender] */\n      swap2\n      swap4\n        /* \"contracts/Online/ERC20/WBTC.sol\":7122:7183  Approval(msg.sender, _spender, allowed[msg.sender][_spender]) */\n      0x8c5be1e5ebec7d5bd14f71427d1e84f3dd0314c0f7b2291e5b200ac8c7c3b925\n      swap3\n      swap1\n      dup2\n      swap1\n      sub\n      swap1\n      swap2\n      add\n      swap1\n      log3\n      pop\n        /* \"contracts/Online/ERC20/WBTC.sol\":7197:7201  true */\n      0x1\n        /* \"contracts/Online/ERC20/WBTC.sol\":6900:7207  function increaseApproval(\r... */\n      swap3\n      swap2\n      pop\n      pop\n      jump\t// out\n        /* \"contracts/Online/ERC20/WBTC.sol\":6275:6437  function allowance(\r... */\n    tag_54:\n      sub(exp(0x2, 0xa0), 0x1)\n        /* \"contracts/Online/ERC20/WBTC.sol\":6406:6421  allowed[_owner] */\n      swap2\n      dup3\n      and\n        /* \"contracts/Online/ERC20/WBTC.sol\":6380:6387  uint256 */\n      0x0\n        /* \"contracts/Online/ERC20/WBTC.sol\":6406:6421  allowed[_owner] */\n      swap1\n      dup2\n      mstore\n        /* \"contracts/Online/ERC20/WBTC.sol\":6406:6413  allowed */\n      0x2\n        /* \"contracts/Online/ERC20/WBTC.sol\":6406:6421  allowed[_owner] */\n      0x20\n      swap1\n      dup2\n      mstore\n      0x40\n      dup1\n      dup4\n      keccak256\n        /* \"contracts/Online/ERC20/WBTC.sol\":6406:6431  allowed[_owner][_spender] */\n      swap4\n      swap1\n      swap5\n      and\n      dup3\n      mstore\n      swap2\n      swap1\n      swap2\n      mstore\n      keccak256\n      sload\n      swap1\n        /* \"contracts/Online/ERC20/WBTC.sol\":6275:6437  function allowance(\r... */\n      jump\t// out\n        /* \"contracts/Online/ERC20/WBTC.sol\":10065:10170  function transferOwnership(address _newOwner) public onlyOwner {\r... */\n    tag_57:\n        /* \"contracts/Online/ERC20/WBTC.sol\":9491:9496  owner */\n      and(sub(exp(0x2, 0xa0), 0x1), sload(0x3))\n        /* \"contracts/Online/ERC20/WBTC.sol\":9477:9487  msg.sender */\n      caller\n        /* \"contracts/Online/ERC20/WBTC.sol\":9477:9496  msg.sender == owner */\n      eq\n        /* \"contracts/Online/ERC20/WBTC.sol\":9469:9497  require(msg.sender == owner) */\n      tag_98\n      jumpi\n      0x0\n      dup1\n      revert\n    tag_98:\n        /* \"contracts/Online/ERC20/WBTC.sol\":10135:10164  _transferOwnership(_newOwner) */\n      tag_100\n        /* \"contracts/Online/ERC20/WBTC.sol\":10154:10163  _newOwner */\n      dup2\n        /* \"contracts/Online/ERC20/WBTC.sol\":10135:10153  _transferOwnership */\n      tag_101\n        /* \"contracts/Online/ERC20/WBTC.sol\":10135:10164  _transferOwnership(_newOwner) */\n      jump\t// in\n    tag_100:\n        /* \"contracts/Online/ERC20/WBTC.sol\":10065:10170  function transferOwnership(address _newOwner) public onlyOwner {\r... */\n      pop\n      jump\t// out\n        /* \"contracts/Online/ERC20/WBTC.sol\":1728:1847  function sub(uint256 _a, uint256 _b) internal pure returns (uint256) {\r... */\n    tag_65:\n        /* \"contracts/Online/ERC20/WBTC.sol\":1788:1795  uint256 */\n      0x0\n        /* \"contracts/Online/ERC20/WBTC.sol\":1811:1819  _b <= _a */\n      dup3\n      dup3\n      gt\n      iszero\n        /* \"contracts/Online/ERC20/WBTC.sol\":1804:1820  assert(_b <= _a) */\n      tag_103\n      jumpi\n      invalid\n    tag_103:\n      pop\n        /* \"contracts/Online/ERC20/WBTC.sol\":1834:1841  _a - _b */\n      swap1\n      sub\n      swap1\n        /* \"contracts/Online/ERC20/WBTC.sol\":1728:1847  function sub(uint256 _a, uint256 _b) internal pure returns (uint256) {\r... */\n      jump\t// out\n        /* \"contracts/Online/ERC20/WBTC.sol\":1914:2046  function add(uint256 _a, uint256 _b) internal pure returns (uint256 c) {\r... */\n    tag_67:\n        /* \"contracts/Online/ERC20/WBTC.sol\":1996:2003  _a + _b */\n      dup2\n      dup2\n      add\n        /* \"contracts/Online/ERC20/WBTC.sol\":2017:2024  c >= _a */\n      dup3\n      dup2\n      lt\n      iszero\n        /* \"contracts/Online/ERC20/WBTC.sol\":2010:2025  assert(c >= _a) */\n      tag_105\n      jumpi\n      invalid\n    tag_105:\n        /* \"contracts/Online/ERC20/WBTC.sol\":1914:2046  function add(uint256 _a, uint256 _b) internal pure returns (uint256 c) {\r... */\n      swap3\n      swap2\n      pop\n      pop\n      jump\t// out\n        /* \"contracts/Online/ERC20/WBTC.sol\":10311:10486  function _transferOwnership(address _newOwner) internal {\r... */\n    tag_101:\n      sub(exp(0x2, 0xa0), 0x1)\n        /* \"contracts/Online/ERC20/WBTC.sol\":10382:10405  _newOwner != address(0) */\n      dup2\n      and\n      iszero\n      iszero\n        /* \"contracts/Online/ERC20/WBTC.sol\":10374:10406  require(_newOwner != address(0)) */\n      tag_107\n      jumpi\n      0x0\n      dup1\n      revert\n    tag_107:\n        /* \"contracts/Online/ERC20/WBTC.sol\":10439:10444  owner */\n      sload(0x3)\n        /* \"contracts/Online/ERC20/WBTC.sol\":10418:10456  OwnershipTransferred(owner, _newOwner) */\n      mload(0x40)\n      sub(exp(0x2, 0xa0), 0x1)\n      dup1\n      dup5\n      and\n      swap3\n        /* \"contracts/Online/ERC20/WBTC.sol\":10439:10444  owner */\n      and\n      swap1\n        /* \"contracts/Online/ERC20/WBTC.sol\":10418:10456  OwnershipTransferred(owner, _newOwner) */\n      0x8be0079c531659141344cd1fd0a4f28419497f9722a3daafe3b4186f6b6457e0\n      swap1\n        /* \"contracts/Online/ERC20/WBTC.sol\":10439:10444  owner */\n      0x0\n      swap1\n        /* \"contracts/Online/ERC20/WBTC.sol\":10418:10456  OwnershipTransferred(owner, _newOwner) */\n      log3\n        /* \"contracts/Online/ERC20/WBTC.sol\":10463:10468  owner */\n      0x3\n        /* \"contracts/Online/ERC20/WBTC.sol\":10463:10480  owner = _newOwner */\n      dup1\n      sload\n      not(0xffffffffffffffffffffffffffffffffffffffff)\n      and\n      sub(exp(0x2, 0xa0), 0x1)\n      swap3\n      swap1\n      swap3\n      and\n      swap2\n      swap1\n      swap2\n      or\n      swap1\n      sstore\n        /* \"contracts/Online/ERC20/WBTC.sol\":10311:10486  function _transferOwnership(address _newOwner) internal {\r... */\n      jump\t// out\n\n    auxdata: 0xa165627a7a72305820fe7cec4d1930534e8f6b9282c411b2a04d09ffacfcb425e477667429d4e0564f0029\n}\n",
				"bytecode": {
					"linkReferences": {},
					"object": "608060405260038054600160a860020a03191633179055610aa7806100256000396000f3006080604052600436106100cf5763ffffffff7c010000000000000000000000000000000000000000000000000000000060003504166305d2035b81146100d4578063095ea7b3146100fd57806318160ddd1461012157806323b872dd1461014857806340c10f1914610172578063661884631461019657806370a08231146101ba578063715018a6146101db5780637d64bcb4146101f25780638da5cb5b14610207578063a9059cbb14610238578063d73dd6231461025c578063dd62ed3e14610280578063f2fde38b146102a7575b600080fd5b3480156100e057600080fd5b506100e96102c8565b604080519115158252519081900360200190f35b34801561010957600080fd5b506100e9600160a060020a03600435166024356102e9565b34801561012d57600080fd5b5061013661034f565b60408051918252519081900360200190f35b34801561015457600080fd5b506100e9600160a060020a0360043581169060243516604435610355565b34801561017e57600080fd5b506100e9600160a060020a03600435166024356104ca565b3480156101a257600080fd5b506100e9600160a060020a03600435166024356105e5565b3480156101c657600080fd5b50610136600160a060020a03600435166106d4565b3480156101e757600080fd5b506101f06106ef565b005b3480156101fe57600080fd5b506100e961075d565b34801561021357600080fd5b5061021c610803565b60408051600160a060020a039092168252519081900360200190f35b34801561024457600080fd5b506100e9600160a060020a0360043516602435610812565b34801561026857600080fd5b506100e9600160a060020a03600435166024356108f1565b34801561028c57600080fd5b50610136600160a060020a036004358116906024351661098a565b3480156102b357600080fd5b506101f0600160a060020a03600435166109b5565b60035474010000000000000000000000000000000000000000900460ff1681565b336000818152600260209081526040808320600160a060020a038716808552908352818420869055815186815291519394909390927f8c5be1e5ebec7d5bd14f71427d1e84f3dd0314c0f7b2291e5b200ac8c7c3b925928290030190a350600192915050565b60015490565b600160a060020a03831660009081526020819052604081205482111561037a57600080fd5b600160a060020a03841660009081526002602090815260408083203384529091529020548211156103aa57600080fd5b600160a060020a03831615156103bf57600080fd5b600160a060020a0384166000908152602081905260409020546103e8908363ffffffff6109d816565b600160a060020a03808616600090815260208190526040808220939093559085168152205461041d908363ffffffff6109ea16565b600160a060020a0380851660009081526020818152604080832094909455918716815260028252828120338252909152205461045f908363ffffffff6109d816565b600160a060020a03808616600081815260026020908152604080832033845282529182902094909455805186815290519287169391927fddf252ad1be2c89b69c2b068fc378daa952ba7f163c4a11628f55a4df523b3ef929181900390910190a35060019392505050565b600354600090600160a060020a031633146104e457600080fd5b60035474010000000000000000000000000000000000000000900460ff161561050c57600080fd5b60015461051f908363ffffffff6109ea16565b600155600160a060020a03831660009081526020819052604090205461054b908363ffffffff6109ea16565b600160a060020a03841660008181526020818152604091829020939093558051858152905191927f0f6798a560793a54c3bcfe86a93cde1e73087d944c0ea20544137d412139688592918290030190a2604080518381529051600160a060020a038516916000917fddf252ad1be2c89b69c2b068fc378daa952ba7f163c4a11628f55a4df523b3ef9181900360200190a350600192915050565b336000908152600260209081526040808320600160a060020a038616845290915281205480831061063957336000908152600260209081526040808320600160a060020a038816845290915281205561066e565b610649818463ffffffff6109d816565b336000908152600260209081526040808320600160a060020a03891684529091529020555b336000818152600260209081526040808320600160a060020a0389168085529083529281902054815190815290519293927f8c5be1e5ebec7d5bd14f71427d1e84f3dd0314c0f7b2291e5b200ac8c7c3b925929181900390910190a35060019392505050565b600160a060020a031660009081526020819052604090205490565b600354600160a060020a0316331461070657600080fd5b600354604051600160a060020a03909116907ff8df31144d9c2f0f6b59d69b8b98abd5459d07f2742c4df920b25aae33c6482090600090a26003805473ffffffffffffffffffffffffffffffffffffffff19169055565b600354600090600160a060020a0316331461077757600080fd5b60035474010000000000000000000000000000000000000000900460ff161561079f57600080fd5b6003805474ff00000000000000000000000000000000000000001916740100000000000000000000000000000000000000001790556040517fae5184fba832cb2b1f702aca6117b8d265eaf03ad33eb133f19dde0f5920fa0890600090a150600190565b600354600160a060020a031681565b3360009081526020819052604081205482111561082e57600080fd5b600160a060020a038316151561084357600080fd5b33600090815260208190526040902054610863908363ffffffff6109d816565b3360009081526020819052604080822092909255600160a060020a03851681522054610895908363ffffffff6109ea16565b600160a060020a038416600081815260208181526040918290209390935580518581529051919233927fddf252ad1be2c89b69c2b068fc378daa952ba7f163c4a11628f55a4df523b3ef9281900390910190a350600192915050565b336000908152600260209081526040808320600160a060020a0386168452909152812054610925908363ffffffff6109ea16565b336000818152600260209081526040808320600160a060020a0389168085529083529281902085905580519485525191937f8c5be1e5ebec7d5bd14f71427d1e84f3dd0314c0f7b2291e5b200ac8c7c3b925929081900390910190a350600192915050565b600160a060020a03918216600090815260026020908152604080832093909416825291909152205490565b600354600160a060020a031633146109cc57600080fd5b6109d5816109fd565b50565b6000828211156109e457fe5b50900390565b818101828110156109f757fe5b92915050565b600160a060020a0381161515610a1257600080fd5b600354604051600160a060020a038084169216907f8be0079c531659141344cd1fd0a4f28419497f9722a3daafe3b4186f6b6457e090600090a36003805473ffffffffffffffffffffffffffffffffffffffff1916600160a060020a03929092169190911790555600a165627a7a72305820fe7cec4d1930534e8f6b9282c411b2a04d09ffacfcb425e477667429d4e0564f0029",
					"opcodes": "PUSH1 0x80 PUSH1 0x40 MSTORE PUSH1 0x3 DUP1 SLOAD PUSH1 0x1 PUSH1 0xA8 PUSH1 0x2 EXP SUB NOT AND CALLER OR SWAP1 SSTORE PUSH2 0xAA7 DUP1 PUSH2 0x25 PUSH1 0x0 CODECOPY PUSH1 0x0 RETURN STOP PUSH1 0x80 PUSH1 0x40 MSTORE PUSH1 0x4 CALLDATASIZE LT PUSH2 0xCF JUMPI PUSH4 0xFFFFFFFF PUSH29 0x100000000000000000000000000000000000000000000000000000000 PUSH1 0x0 CALLDATALOAD DIV AND PUSH4 0x5D2035B DUP2 EQ PUSH2 0xD4 JUMPI DUP1 PUSH4 0x95EA7B3 EQ PUSH2 0xFD JUMPI DUP1 PUSH4 0x18160DDD EQ PUSH2 0x121 JUMPI DUP1 PUSH4 0x23B872DD EQ PUSH2 0x148 JUMPI DUP1 PUSH4 0x40C10F19 EQ PUSH2 0x172 JUMPI DUP1 PUSH4 0x66188463 EQ PUSH2 0x196 JUMPI DUP1 PUSH4 0x70A08231 EQ PUSH2 0x1BA JUMPI DUP1 PUSH4 0x715018A6 EQ PUSH2 0x1DB JUMPI DUP1 PUSH4 0x7D64BCB4 EQ PUSH2 0x1F2 JUMPI DUP1 PUSH4 0x8DA5CB5B EQ PUSH2 0x207 JUMPI DUP1 PUSH4 0xA9059CBB EQ PUSH2 0x238 JUMPI DUP1 PUSH4 0xD73DD623 EQ PUSH2 0x25C JUMPI DUP1 PUSH4 0xDD62ED3E EQ PUSH2 0x280 JUMPI DUP1 PUSH4 0xF2FDE38B EQ PUSH2 0x2A7 JUMPI JUMPDEST PUSH1 0x0 DUP1 REVERT JUMPDEST CALLVALUE DUP1 ISZERO PUSH2 0xE0 JUMPI PUSH1 0x0 DUP1 REVERT JUMPDEST POP PUSH2 0xE9 PUSH2 0x2C8 JUMP JUMPDEST PUSH1 0x40 DUP1 MLOAD SWAP2 ISZERO ISZERO DUP3 MSTORE MLOAD SWAP1 DUP2 SWAP1 SUB PUSH1 0x20 ADD SWAP1 RETURN JUMPDEST CALLVALUE DUP1 ISZERO PUSH2 0x109 JUMPI PUSH1 0x0 DUP1 REVERT JUMPDEST POP PUSH2 0xE9 PUSH1 0x1 PUSH1 0xA0 PUSH1 0x2 EXP SUB PUSH1 0x4 CALLDATALOAD AND PUSH1 0x24 CALLDATALOAD PUSH2 0x2E9 JUMP JUMPDEST CALLVALUE DUP1 ISZERO PUSH2 0x12D JUMPI PUSH1 0x0 DUP1 REVERT JUMPDEST POP PUSH2 0x136 PUSH2 0x34F JUMP JUMPDEST PUSH1 0x40 DUP1 MLOAD SWAP2 DUP3 MSTORE MLOAD SWAP1 DUP2 SWAP1 SUB PUSH1 0x20 ADD SWAP1 RETURN JUMPDEST CALLVALUE DUP1 ISZERO PUSH2 0x154 JUMPI PUSH1 0x0 DUP1 REVERT JUMPDEST POP PUSH2 0xE9 PUSH1 0x1 PUSH1 0xA0 PUSH1 0x2 EXP SUB PUSH1 0x4 CALLDATALOAD DUP2 AND SWAP1 PUSH1 0x24 CALLDATALOAD AND PUSH1 0x44 CALLDATALOAD PUSH2 0x355 JUMP JUMPDEST CALLVALUE DUP1 ISZERO PUSH2 0x17E JUMPI PUSH1 0x0 DUP1 REVERT JUMPDEST POP PUSH2 0xE9 PUSH1 0x1 PUSH1 0xA0 PUSH1 0x2 EXP SUB PUSH1 0x4 CALLDATALOAD AND PUSH1 0x24 CALLDATALOAD PUSH2 0x4CA JUMP JUMPDEST CALLVALUE DUP1 ISZERO PUSH2 0x1A2 JUMPI PUSH1 0x0 DUP1 REVERT JUMPDEST POP PUSH2 0xE9 PUSH1 0x1 PUSH1 0xA0 PUSH1 0x2 EXP SUB PUSH1 0x4 CALLDATALOAD AND PUSH1 0x24 CALLDATALOAD PUSH2 0x5E5 JUMP JUMPDEST CALLVALUE DUP1 ISZERO PUSH2 0x1C6 JUMPI PUSH1 0x0 DUP1 REVERT JUMPDEST POP PUSH2 0x136 PUSH1 0x1 PUSH1 0xA0 PUSH1 0x2 EXP SUB PUSH1 0x4 CALLDATALOAD AND PUSH2 0x6D4 JUMP JUMPDEST CALLVALUE DUP1 ISZERO PUSH2 0x1E7 JUMPI PUSH1 0x0 DUP1 REVERT JUMPDEST POP PUSH2 0x1F0 PUSH2 0x6EF JUMP JUMPDEST STOP JUMPDEST CALLVALUE DUP1 ISZERO PUSH2 0x1FE JUMPI PUSH1 0x0 DUP1 REVERT JUMPDEST POP PUSH2 0xE9 PUSH2 0x75D JUMP JUMPDEST CALLVALUE DUP1 ISZERO PUSH2 0x213 JUMPI PUSH1 0x0 DUP1 REVERT JUMPDEST POP PUSH2 0x21C PUSH2 0x803 JUMP JUMPDEST PUSH1 0x40 DUP1 MLOAD PUSH1 0x1 PUSH1 0xA0 PUSH1 0x2 EXP SUB SWAP1 SWAP3 AND DUP3 MSTORE MLOAD SWAP1 DUP2 SWAP1 SUB PUSH1 0x20 ADD SWAP1 RETURN JUMPDEST CALLVALUE DUP1 ISZERO PUSH2 0x244 JUMPI PUSH1 0x0 DUP1 REVERT JUMPDEST POP PUSH2 0xE9 PUSH1 0x1 PUSH1 0xA0 PUSH1 0x2 EXP SUB PUSH1 0x4 CALLDATALOAD AND PUSH1 0x24 CALLDATALOAD PUSH2 0x812 JUMP JUMPDEST CALLVALUE DUP1 ISZERO PUSH2 0x268 JUMPI PUSH1 0x0 DUP1 REVERT JUMPDEST POP PUSH2 0xE9 PUSH1 0x1 PUSH1 0xA0 PUSH1 0x2 EXP SUB PUSH1 0x4 CALLDATALOAD AND PUSH1 0x24 CALLDATALOAD PUSH2 0x8F1 JUMP JUMPDEST CALLVALUE DUP1 ISZERO PUSH2 0x28C JUMPI PUSH1 0x0 DUP1 REVERT JUMPDEST POP PUSH2 0x136 PUSH1 0x1 PUSH1 0xA0 PUSH1 0x2 EXP SUB PUSH1 0x4 CALLDATALOAD DUP2 AND SWAP1 PUSH1 0x24 CALLDATALOAD AND PUSH2 0x98A JUMP JUMPDEST CALLVALUE DUP1 ISZERO PUSH2 0x2B3 JUMPI PUSH1 0x0 DUP1 REVERT JUMPDEST POP PUSH2 0x1F0 PUSH1 0x1 PUSH1 0xA0 PUSH1 0x2 EXP SUB PUSH1 0x4 CALLDATALOAD AND PUSH2 0x9B5 JUMP JUMPDEST PUSH1 0x3 SLOAD PUSH21 0x10000000000000000000000000000000000000000 SWAP1 DIV PUSH1 0xFF AND DUP2 JUMP JUMPDEST CALLER PUSH1 0x0 DUP2 DUP2 MSTORE PUSH1 0x2 PUSH1 0x20 SWAP1 DUP2 MSTORE PUSH1 0x40 DUP1 DUP4 KECCAK256 PUSH1 0x1 PUSH1 0xA0 PUSH1 0x2 EXP SUB DUP8 AND DUP1 DUP6 MSTORE SWAP1 DUP4 MSTORE DUP2 DUP5 KECCAK256 DUP7 SWAP1 SSTORE DUP2 MLOAD DUP7 DUP2 MSTORE SWAP2 MLOAD SWAP4 SWAP5 SWAP1 SWAP4 SWAP1 SWAP3 PUSH32 0x8C5BE1E5EBEC7D5BD14F71427D1E84F3DD0314C0F7B2291E5B200AC8C7C3B925 SWAP3 DUP3 SWAP1 SUB ADD SWAP1 LOG3 POP PUSH1 0x1 SWAP3 SWAP2 POP POP JUMP JUMPDEST PUSH1 0x1 SLOAD SWAP1 JUMP JUMPDEST PUSH1 0x1 PUSH1 0xA0 PUSH1 0x2 EXP SUB DUP4 AND PUSH1 0x0 SWAP1 DUP2 MSTORE PUSH1 0x20 DUP2 SWAP1 MSTORE PUSH1 0x40 DUP2 KECCAK256 SLOAD DUP3 GT ISZERO PUSH2 0x37A JUMPI PUSH1 0x0 DUP1 REVERT JUMPDEST PUSH1 0x1 PUSH1 0xA0 PUSH1 0x2 EXP SUB DUP5 AND PUSH1 0x0 SWAP1 DUP2 MSTORE PUSH1 0x2 PUSH1 0x20 SWAP1 DUP2 MSTORE PUSH1 0x40 DUP1 DUP4 KECCAK256 CALLER DUP5 MSTORE SWAP1 SWAP2 MSTORE SWAP1 KECCAK256 SLOAD DUP3 GT ISZERO PUSH2 0x3AA JUMPI PUSH1 0x0 DUP1 REVERT JUMPDEST PUSH1 0x1 PUSH1 0xA0 PUSH1 0x2 EXP SUB DUP4 AND ISZERO ISZERO PUSH2 0x3BF JUMPI PUSH1 0x0 DUP1 REVERT JUMPDEST PUSH1 0x1 PUSH1 0xA0 PUSH1 0x2 EXP SUB DUP5 AND PUSH1 0x0 SWAP1 DUP2 MSTORE PUSH1 0x20 DUP2 SWAP1 MSTORE PUSH1 0x40 SWAP1 KECCAK256 SLOAD PUSH2 0x3E8 SWAP1 DUP4 PUSH4 0xFFFFFFFF PUSH2 0x9D8 AND JUMP JUMPDEST PUSH1 0x1 PUSH1 0xA0 PUSH1 0x2 EXP SUB DUP1 DUP7 AND PUSH1 0x0 SWAP1 DUP2 MSTORE PUSH1 0x20 DUP2 SWAP1 MSTORE PUSH1 0x40 DUP1 DUP3 KECCAK256 SWAP4 SWAP1 SWAP4 SSTORE SWAP1 DUP6 AND DUP2 MSTORE KECCAK256 SLOAD PUSH2 0x41D SWAP1 DUP4 PUSH4 0xFFFFFFFF PUSH2 0x9EA AND JUMP JUMPDEST PUSH1 0x1 PUSH1 0xA0 PUSH1 0x2 EXP SUB DUP1 DUP6 AND PUSH1 0x0 SWAP1 DUP2 MSTORE PUSH1 0x20 DUP2 DUP2 MSTORE PUSH1 0x40 DUP1 DUP4 KECCAK256 SWAP5 SWAP1 SWAP5 SSTORE SWAP2 DUP8 AND DUP2 MSTORE PUSH1 0x2 DUP3 MSTORE DUP3 DUP2 KECCAK256 CALLER DUP3 MSTORE SWAP1 SWAP2 MSTORE KECCAK256 SLOAD PUSH2 0x45F SWAP1 DUP4 PUSH4 0xFFFFFFFF PUSH2 0x9D8 AND JUMP JUMPDEST PUSH1 0x1 PUSH1 0xA0 PUSH1 0x2 EXP SUB DUP1 DUP7 AND PUSH1 0x0 DUP2 DUP2 MSTORE PUSH1 0x2 PUSH1 0x20 SWAP1 DUP2 MSTORE PUSH1 0x40 DUP1 DUP4 KECCAK256 CALLER DUP5 MSTORE DUP3 MSTORE SWAP2 DUP3 SWAP1 KECCAK256 SWAP5 SWAP1 SWAP5 SSTORE DUP1 MLOAD DUP7 DUP2 MSTORE SWAP1 MLOAD SWAP3 DUP8 AND SWAP4 SWAP2 SWAP3 PUSH32 0xDDF252AD1BE2C89B69C2B068FC378DAA952BA7F163C4A11628F55A4DF523B3EF SWAP3 SWAP2 DUP2 SWAP1 SUB SWAP1 SWAP2 ADD SWAP1 LOG3 POP PUSH1 0x1 SWAP4 SWAP3 POP POP POP JUMP JUMPDEST PUSH1 0x3 SLOAD PUSH1 0x0 SWAP1 PUSH1 0x1 PUSH1 0xA0 PUSH1 0x2 EXP SUB AND CALLER EQ PUSH2 0x4E4 JUMPI PUSH1 0x0 DUP1 REVERT JUMPDEST PUSH1 0x3 SLOAD PUSH21 0x10000000000000000000000000000000000000000 SWAP1 DIV PUSH1 0xFF AND ISZERO PUSH2 0x50C JUMPI PUSH1 0x0 DUP1 REVERT JUMPDEST PUSH1 0x1 SLOAD PUSH2 0x51F SWAP1 DUP4 PUSH4 0xFFFFFFFF PUSH2 0x9EA AND JUMP JUMPDEST PUSH1 0x1 SSTORE PUSH1 0x1 PUSH1 0xA0 PUSH1 0x2 EXP SUB DUP4 AND PUSH1 0x0 SWAP1 DUP2 MSTORE PUSH1 0x20 DUP2 SWAP1 MSTORE PUSH1 0x40 SWAP1 KECCAK256 SLOAD PUSH2 0x54B SWAP1 DUP4 PUSH4 0xFFFFFFFF PUSH2 0x9EA AND JUMP JUMPDEST PUSH1 0x1 PUSH1 0xA0 PUSH1 0x2 EXP SUB DUP5 AND PUSH1 0x0 DUP2 DUP2 MSTORE PUSH1 0x20 DUP2 DUP2 MSTORE PUSH1 0x40 SWAP2 DUP3 SWAP1 KECCAK256 SWAP4 SWAP1 SWAP4 SSTORE DUP1 MLOAD DUP6 DUP2 MSTORE SWAP1 MLOAD SWAP2 SWAP3 PUSH32 0xF6798A560793A54C3BCFE86A93CDE1E73087D944C0EA20544137D4121396885 SWAP3 SWAP2 DUP3 SWAP1 SUB ADD SWAP1 LOG2 PUSH1 0x40 DUP1 MLOAD DUP4 DUP2 MSTORE SWAP1 MLOAD PUSH1 0x1 PUSH1 0xA0 PUSH1 0x2 EXP SUB DUP6 AND SWAP2 PUSH1 0x0 SWAP2 PUSH32 0xDDF252AD1BE2C89B69C2B068FC378DAA952BA7F163C4A11628F55A4DF523B3EF SWAP2 DUP2 SWAP1 SUB PUSH1 0x20 ADD SWAP1 LOG3 POP PUSH1 0x1 SWAP3 SWAP2 POP POP JUMP JUMPDEST CALLER PUSH1 0x0 SWAP1 DUP2 MSTORE PUSH1 0x2 PUSH1 0x20 SWAP1 DUP2 MSTORE PUSH1 0x40 DUP1 DUP4 KECCAK256 PUSH1 0x1 PUSH1 0xA0 PUSH1 0x2 EXP SUB DUP7 AND DUP5 MSTORE SWAP1 SWAP2 MSTORE DUP2 KECCAK256 SLOAD DUP1 DUP4 LT PUSH2 0x639 JUMPI CALLER PUSH1 0x0 SWAP1 DUP2 MSTORE PUSH1 0x2 PUSH1 0x20 SWAP1 DUP2 MSTORE PUSH1 0x40 DUP1 DUP4 KECCAK256 PUSH1 0x1 PUSH1 0xA0 PUSH1 0x2 EXP SUB DUP9 AND DUP5 MSTORE SWAP1 SWAP2 MSTORE DUP2 KECCAK256 SSTORE PUSH2 0x66E JUMP JUMPDEST PUSH2 0x649 DUP2 DUP5 PUSH4 0xFFFFFFFF PUSH2 0x9D8 AND JUMP JUMPDEST CALLER PUSH1 0x0 SWAP1 DUP2 MSTORE PUSH1 0x2 PUSH1 0x20 SWAP1 DUP2 MSTORE PUSH1 0x40 DUP1 DUP4 KECCAK256 PUSH1 0x1 PUSH1 0xA0 PUSH1 0x2 EXP SUB DUP10 AND DUP5 MSTORE SWAP1 SWAP2 MSTORE SWAP1 KECCAK256 SSTORE JUMPDEST CALLER PUSH1 0x0 DUP2 DUP2 MSTORE PUSH1 0x2 PUSH1 0x20 SWAP1 DUP2 MSTORE PUSH1 0x40 DUP1 DUP4 KECCAK256 PUSH1 0x1 PUSH1 0xA0 PUSH1 0x2 EXP SUB DUP10 AND DUP1 DUP6 MSTORE SWAP1 DUP4 MSTORE SWAP3 DUP2 SWAP1 KECCAK256 SLOAD DUP2 MLOAD SWAP1 DUP2 MSTORE SWAP1 MLOAD SWAP3 SWAP4 SWAP3 PUSH32 0x8C5BE1E5EBEC7D5BD14F71427D1E84F3DD0314C0F7B2291E5B200AC8C7C3B925 SWAP3 SWAP2 DUP2 SWAP1 SUB SWAP1 SWAP2 ADD SWAP1 LOG3 POP PUSH1 0x1 SWAP4 SWAP3 POP POP POP JUMP JUMPDEST PUSH1 0x1 PUSH1 0xA0 PUSH1 0x2 EXP SUB AND PUSH1 0x0 SWAP1 DUP2 MSTORE PUSH1 0x20 DUP2 SWAP1 MSTORE PUSH1 0x40 SWAP1 KECCAK256 SLOAD SWAP1 JUMP JUMPDEST PUSH1 0x3 SLOAD PUSH1 0x1 PUSH1 0xA0 PUSH1 0x2 EXP SUB AND CALLER EQ PUSH2 0x706 JUMPI PUSH1 0x0 DUP1 REVERT JUMPDEST PUSH1 0x3 SLOAD PUSH1 0x40 MLOAD PUSH1 0x1 PUSH1 0xA0 PUSH1 0x2 EXP SUB SWAP1 SWAP2 AND SWAP1 PUSH32 0xF8DF31144D9C2F0F6B59D69B8B98ABD5459D07F2742C4DF920B25AAE33C64820 SWAP1 PUSH1 0x0 SWAP1 LOG2 PUSH1 0x3 DUP1 SLOAD PUSH20 0xFFFFFFFFFFFFFFFFFFFFFFFFFFFFFFFFFFFFFFFF NOT AND SWAP1 SSTORE JUMP JUMPDEST PUSH1 0x3 SLOAD PUSH1 0x0 SWAP1 PUSH1 0x1 PUSH1 0xA0 PUSH1 0x2 EXP SUB AND CALLER EQ PUSH2 0x777 JUMPI PUSH1 0x0 DUP1 REVERT JUMPDEST PUSH1 0x3 SLOAD PUSH21 0x10000000000000000000000000000000000000000 SWAP1 DIV PUSH1 0xFF AND ISZERO PUSH2 0x79F JUMPI PUSH1 0x0 DUP1 REVERT JUMPDEST PUSH1 0x3 DUP1 SLOAD PUSH21 0xFF0000000000000000000000000000000000000000 NOT AND PUSH21 0x10000000000000000000000000000000000000000 OR SWAP1 SSTORE PUSH1 0x40 MLOAD PUSH32 0xAE5184FBA832CB2B1F702ACA6117B8D265EAF03AD33EB133F19DDE0F5920FA08 SWAP1 PUSH1 0x0 SWAP1 LOG1 POP PUSH1 0x1 SWAP1 JUMP JUMPDEST PUSH1 0x3 SLOAD PUSH1 0x1 PUSH1 0xA0 PUSH1 0x2 EXP SUB AND DUP2 JUMP JUMPDEST CALLER PUSH1 0x0 SWAP1 DUP2 MSTORE PUSH1 0x20 DUP2 SWAP1 MSTORE PUSH1 0x40 DUP2 KECCAK256 SLOAD DUP3 GT ISZERO PUSH2 0x82E JUMPI PUSH1 0x0 DUP1 REVERT JUMPDEST PUSH1 0x1 PUSH1 0xA0 PUSH1 0x2 EXP SUB DUP4 AND ISZERO ISZERO PUSH2 0x843 JUMPI PUSH1 0x0 DUP1 REVERT JUMPDEST CALLER PUSH1 0x0 SWAP1 DUP2 MSTORE PUSH1 0x20 DUP2 SWAP1 MSTORE PUSH1 0x40 SWAP1 KECCAK256 SLOAD PUSH2 0x863 SWAP1 DUP4 PUSH4 0xFFFFFFFF PUSH2 0x9D8 AND JUMP JUMPDEST CALLER PUSH1 0x0 SWAP1 DUP2 MSTORE PUSH1 0x20 DUP2 SWAP1 MSTORE PUSH1 0x40 DUP1 DUP3 KECCAK256 SWAP3 SWAP1 SWAP3 SSTORE PUSH1 0x1 PUSH1 0xA0 PUSH1 0x2 EXP SUB DUP6 AND DUP2 MSTORE KECCAK256 SLOAD PUSH2 0x895 SWAP1 DUP4 PUSH4 0xFFFFFFFF PUSH2 0x9EA AND JUMP JUMPDEST PUSH1 0x1 PUSH1 0xA0 PUSH1 0x2 EXP SUB DUP5 AND PUSH1 0x0 DUP2 DUP2 MSTORE PUSH1 0x20 DUP2 DUP2 MSTORE PUSH1 0x40 SWAP2 DUP3 SWAP1 KECCAK256 SWAP4 SWAP1 SWAP4 SSTORE DUP1 MLOAD DUP6 DUP2 MSTORE SWAP1 MLOAD SWAP2 SWAP3 CALLER SWAP3 PUSH32 0xDDF252AD1BE2C89B69C2B068FC378DAA952BA7F163C4A11628F55A4DF523B3EF SWAP3 DUP2 SWAP1 SUB SWAP1 SWAP2 ADD SWAP1 LOG3 POP PUSH1 0x1 SWAP3 SWAP2 POP POP JUMP JUMPDEST CALLER PUSH1 0x0 SWAP1 DUP2 MSTORE PUSH1 0x2 PUSH1 0x20 SWAP1 DUP2 MSTORE PUSH1 0x40 DUP1 DUP4 KECCAK256 PUSH1 0x1 PUSH1 0xA0 PUSH1 0x2 EXP SUB DUP7 AND DUP5 MSTORE SWAP1 SWAP2 MSTORE DUP2 KECCAK256 SLOAD PUSH2 0x925 SWAP1 DUP4 PUSH4 0xFFFFFFFF PUSH2 0x9EA AND JUMP JUMPDEST CALLER PUSH1 0x0 DUP2 DUP2 MSTORE PUSH1 0x2 PUSH1 0x20 SWAP1 DUP2 MSTORE PUSH1 0x40 DUP1 DUP4 KECCAK256 PUSH1 0x1 PUSH1 0xA0 PUSH1 0x2 EXP SUB DUP10 AND DUP1 DUP6 MSTORE SWAP1 DUP4 MSTORE SWAP3 DUP2 SWAP1 KECCAK256 DUP6 SWAP1 SSTORE DUP1 MLOAD SWAP5 DUP6 MSTORE MLOAD SWAP2 SWAP4 PUSH32 0x8C5BE1E5EBEC7D5BD14F71427D1E84F3DD0314C0F7B2291E5B200AC8C7C3B925 SWAP3 SWAP1 DUP2 SWAP1 SUB SWAP1 SWAP2 ADD SWAP1 LOG3 POP PUSH1 0x1 SWAP3 SWAP2 POP POP JUMP JUMPDEST PUSH1 0x1 PUSH1 0xA0 PUSH1 0x2 EXP SUB SWAP2 DUP3 AND PUSH1 0x0 SWAP1 DUP2 MSTORE PUSH1 0x2 PUSH1 0x20 SWAP1 DUP2 MSTORE PUSH1 0x40 DUP1 DUP4 KECCAK256 SWAP4 SWAP1 SWAP5 AND DUP3 MSTORE SWAP2 SWAP1 SWAP2 MSTORE KECCAK256 SLOAD SWAP1 JUMP JUMPDEST PUSH1 0x3 SLOAD PUSH1 0x1 PUSH1 0xA0 PUSH1 0x2 EXP SUB AND CALLER EQ PUSH2 0x9CC JUMPI PUSH1 0x0 DUP1 REVERT JUMPDEST PUSH2 0x9D5 DUP2 PUSH2 0x9FD JUMP JUMPDEST POP JUMP JUMPDEST PUSH1 0x0 DUP3 DUP3 GT ISZERO PUSH2 0x9E4 JUMPI INVALID JUMPDEST POP SWAP1 SUB SWAP1 JUMP JUMPDEST DUP2 DUP2 ADD DUP3 DUP2 LT ISZERO PUSH2 0x9F7 JUMPI INVALID JUMPDEST SWAP3 SWAP2 POP POP JUMP JUMPDEST PUSH1 0x1 PUSH1 0xA0 PUSH1 0x2 EXP SUB DUP2 AND ISZERO ISZERO PUSH2 0xA12 JUMPI PUSH1 0x0 DUP1 REVERT JUMPDEST PUSH1 0x3 SLOAD PUSH1 0x40 MLOAD PUSH1 0x1 PUSH1 0xA0 PUSH1 0x2 EXP SUB DUP1 DUP5 AND SWAP3 AND SWAP1 PUSH32 0x8BE0079C531659141344CD1FD0A4F28419497F9722A3DAAFE3B4186F6B6457E0 SWAP1 PUSH1 0x0 SWAP1 LOG3 PUSH1 0x3 DUP1 SLOAD PUSH20 0xFFFFFFFFFFFFFFFFFFFFFFFFFFFFFFFFFFFFFFFF NOT AND PUSH1 0x1 PUSH1 0xA0 PUSH1 0x2 EXP SUB SWAP3 SWAP1 SWAP3 AND SWAP2 SWAP1 SWAP2 OR SWAP1 SSTORE JUMP STOP LOG1 PUSH6 0x627A7A723058 KECCAK256 INVALID PUSH29 0xEC4D1930534E8F6B9282C411B2A04D09FFACFCB425E477667429D4E056 0x4f STOP 0x29 "
				},
				"gasEstimates": {
					"creation": {
						"codeDepositCost": "545400",
						"executionCost": "20849",
						"totalCost": "566249"
					},
					"external": {
						"allowance(address,address)": "972",
						"approve(address,uint256)": "22354",
						"balanceOf(address)": "741",
						"decreaseApproval(address,uint256)": "infinite",
						"finishMinting()": "21900",
						"increaseApproval(address,uint256)": "infinite",
						"mint(address,uint256)": "infinite",
						"mintingFinished()": "407",
						"owner()": "735",
						"renounceOwnership()": "22229",
						"totalSupply()": "428",
						"transfer(address,uint256)": "infinite",
						"transferFrom(address,address,uint256)": "infinite",
						"transferOwnership(address)": "23046"
					}
				},
				"methodIdentifiers": {
					"allowance(address,address)": "dd62ed3e",
					"approve(address,uint256)": "095ea7b3",
					"balanceOf(address)": "70a08231",
					"decreaseApproval(address,uint256)": "66188463",
					"finishMinting()": "7d64bcb4",
					"increaseApproval(address,uint256)": "d73dd623",
					"mint(address,uint256)": "40c10f19",
					"mintingFinished()": "05d2035b",
					"owner()": "8da5cb5b",
					"renounceOwnership()": "715018a6",
					"totalSupply()": "18160ddd",
					"transfer(address,uint256)": "a9059cbb",
					"transferFrom(address,address,uint256)": "23b872dd",
					"transferOwnership(address)": "f2fde38b"
				}
			},
			"userdoc": {
				"methods": {
					"renounceOwnership()": {
						"notice": "Renouncing to ownership will leave the contract without an owner.\r It will not be possible to call the functions with the `onlyOwner`\r modifier anymore.\r"
					}
				}
			}
		}
	}
}