{
	"contracts/Online/ERC20/WBTC.sol": {
		"Claimable": {
			"abi": [
				{
					"constant": false,
					"inputs": [],
					"name": "claimOwnership",
					"outputs": [],
					"payable": false,
					"stateMutability": "nonpayable",
					"type": "function"
				},
				{
					"constant": false,
					"inputs": [],
					"name": "renounceOwnership",
					"outputs": [],
					"payable": false,
					"stateMutability": "nonpayable",
					"type": "function"
				},
				{
					"constant": true,
					"inputs": [],
					"name": "owner",
					"outputs": [
						{
							"name": "",
							"type": "address"
						}
					],
					"payable": false,
					"stateMutability": "view",
					"type": "function"
				},
				{
					"constant": true,
					"inputs": [],
					"name": "pendingOwner",
					"outputs": [
						{
							"name": "",
							"type": "address"
						}
					],
					"payable": false,
					"stateMutability": "view",
					"type": "function"
				},
				{
					"constant": false,
					"inputs": [
						{
							"name": "newOwner",
							"type": "address"
						}
					],
					"name": "transferOwnership",
					"outputs": [],
					"payable": false,
					"stateMutability": "nonpayable",
					"type": "function"
				},
				{
					"anonymous": false,
					"inputs": [
						{
							"indexed": true,
							"name": "previousOwner",
							"type": "address"
						}
					],
					"name": "OwnershipRenounced",
					"type": "event"
				},
				{
					"anonymous": false,
					"inputs": [
						{
							"indexed": true,
							"name": "previousOwner",
							"type": "address"
						},
						{
							"indexed": true,
							"name": "newOwner",
							"type": "address"
						}
					],
					"name": "OwnershipTransferred",
					"type": "event"
				}
			],
			"devdoc": {
				"methods": {
					"claimOwnership()": {
						"details": "Allows the pendingOwner address to finalize the transfer.\r"
					},
					"renounceOwnership()": {
						"details": "Allows the current owner to relinquish control of the contract.\r"
					},
					"transferOwnership(address)": {
						"details": "Allows the current owner to set the pendingOwner address.\r",
						"params": {
							"newOwner": "The address to transfer ownership to.\r"
						}
					}
				},
				"title": "Claimable\r"
			},
			"evm": {
				"assembly": "    /* \"contracts/Online/ERC20/WBTC.sol\":15295:16050  contract Claimable is Ownable {\r... */\n  mstore(0x40, 0x80)\n    /* \"contracts/Online/ERC20/WBTC.sol\":9332:9337  owner */\n  0x0\n    /* \"contracts/Online/ERC20/WBTC.sol\":9332:9350  owner = msg.sender */\n  dup1\n  sload\n  not(sub(exp(0x2, 0xa0), 0x1))\n  and\n    /* \"contracts/Online/ERC20/WBTC.sol\":9340:9350  msg.sender */\n  caller\n    /* \"contracts/Online/ERC20/WBTC.sol\":9332:9350  owner = msg.sender */\n  or\n  swap1\n  sstore\n    /* \"contracts/Online/ERC20/WBTC.sol\":15295:16050  contract Claimable is Ownable {\r... */\n  dataSize(sub_0)\n  dup1\n  dataOffset(sub_0)\n  0x0\n  codecopy\n  0x0\n  return\nstop\n\nsub_0: assembly {\n        /* \"contracts/Online/ERC20/WBTC.sol\":15295:16050  contract Claimable is Ownable {\r... */\n      mstore(0x40, 0x80)\n      jumpi(tag_1, lt(calldatasize, 0x4))\n      and(div(calldataload(0x0), 0x100000000000000000000000000000000000000000000000000000000), 0xffffffff)\n      0x4e71e0c8\n      dup2\n      eq\n      tag_2\n      jumpi\n      dup1\n      0x715018a6\n      eq\n      tag_3\n      jumpi\n      dup1\n      0x8da5cb5b\n      eq\n      tag_4\n      jumpi\n      dup1\n      0xe30c3978\n      eq\n      tag_5\n      jumpi\n      dup1\n      0xf2fde38b\n      eq\n      tag_6\n      jumpi\n    tag_1:\n      0x0\n      dup1\n      revert\n        /* \"contracts/Online/ERC20/WBTC.sol\":15879:16047  function claimOwnership() public onlyPendingOwner {\r... */\n    tag_2:\n      callvalue\n        /* \"--CODEGEN--\":8:17   */\n      dup1\n        /* \"--CODEGEN--\":5:7   */\n      iszero\n      tag_7\n      jumpi\n        /* \"--CODEGEN--\":30:31   */\n      0x0\n        /* \"--CODEGEN--\":27:28   */\n      dup1\n        /* \"--CODEGEN--\":20:32   */\n      revert\n        /* \"--CODEGEN--\":5:7   */\n    tag_7:\n        /* \"contracts/Online/ERC20/WBTC.sol\":15879:16047  function claimOwnership() public onlyPendingOwner {\r... */\n      pop\n      tag_8\n      jump(tag_9)\n    tag_8:\n      stop\n        /* \"contracts/Online/ERC20/WBTC.sol\":9783:9897  function renounceOwnership() public onlyOwner {\r... */\n    tag_3:\n      callvalue\n        /* \"--CODEGEN--\":8:17   */\n      dup1\n        /* \"--CODEGEN--\":5:7   */\n      iszero\n      tag_10\n      jumpi\n        /* \"--CODEGEN--\":30:31   */\n      0x0\n        /* \"--CODEGEN--\":27:28   */\n      dup1\n        /* \"--CODEGEN--\":20:32   */\n      revert\n        /* \"--CODEGEN--\":5:7   */\n    tag_10:\n        /* \"contracts/Online/ERC20/WBTC.sol\":9783:9897  function renounceOwnership() public onlyOwner {\r... */\n      pop\n      tag_8\n      jump(tag_12)\n        /* \"contracts/Online/ERC20/WBTC.sol\":8988:9008  address public owner */\n    tag_4:\n      callvalue\n        /* \"--CODEGEN--\":8:17   */\n      dup1\n        /* \"--CODEGEN--\":5:7   */\n      iszero\n      tag_13\n      jumpi\n        /* \"--CODEGEN--\":30:31   */\n      0x0\n        /* \"--CODEGEN--\":27:28   */\n      dup1\n        /* \"--CODEGEN--\":20:32   */\n      revert\n        /* \"--CODEGEN--\":5:7   */\n    tag_13:\n        /* \"contracts/Online/ERC20/WBTC.sol\":8988:9008  address public owner */\n      pop\n      tag_14\n      jump(tag_15)\n    tag_14:\n      0x40\n      dup1\n      mload\n      sub(exp(0x2, 0xa0), 0x1)\n      swap1\n      swap3\n      and\n      dup3\n      mstore\n      mload\n      swap1\n      dup2\n      swap1\n      sub\n      0x20\n      add\n      swap1\n      return\n        /* \"contracts/Online/ERC20/WBTC.sol\":15330:15357  address public pendingOwner */\n    tag_5:\n      callvalue\n        /* \"--CODEGEN--\":8:17   */\n      dup1\n        /* \"--CODEGEN--\":5:7   */\n      iszero\n      tag_16\n      jumpi\n        /* \"--CODEGEN--\":30:31   */\n      0x0\n        /* \"--CODEGEN--\":27:28   */\n      dup1\n        /* \"--CODEGEN--\":20:32   */\n      revert\n        /* \"--CODEGEN--\":5:7   */\n    tag_16:\n        /* \"contracts/Online/ERC20/WBTC.sol\":15330:15357  address public pendingOwner */\n      pop\n      tag_14\n      jump(tag_18)\n        /* \"contracts/Online/ERC20/WBTC.sol\":15692:15790  function transferOwnership(address newOwner) public onlyOwner {\r... */\n    tag_6:\n      callvalue\n        /* \"--CODEGEN--\":8:17   */\n      dup1\n        /* \"--CODEGEN--\":5:7   */\n      iszero\n      tag_19\n      jumpi\n        /* \"--CODEGEN--\":30:31   */\n      0x0\n        /* \"--CODEGEN--\":27:28   */\n      dup1\n        /* \"--CODEGEN--\":20:32   */\n      revert\n        /* \"--CODEGEN--\":5:7   */\n    tag_19:\n      pop\n        /* \"contracts/Online/ERC20/WBTC.sol\":15692:15790  function transferOwnership(address newOwner) public onlyOwner {\r... */\n      tag_8\n      and(calldataload(0x4), sub(exp(0x2, 0xa0), 0x1))\n      jump(tag_21)\n        /* \"contracts/Online/ERC20/WBTC.sol\":15879:16047  function claimOwnership() public onlyPendingOwner {\r... */\n    tag_9:\n        /* \"contracts/Online/ERC20/WBTC.sol\":15516:15528  pendingOwner */\n      and(sub(exp(0x2, 0xa0), 0x1), sload(0x1))\n        /* \"contracts/Online/ERC20/WBTC.sol\":15502:15512  msg.sender */\n      caller\n        /* \"contracts/Online/ERC20/WBTC.sol\":15502:15528  msg.sender == pendingOwner */\n      eq\n        /* \"contracts/Online/ERC20/WBTC.sol\":15494:15529  require(msg.sender == pendingOwner) */\n      tag_23\n      jumpi\n      0x0\n      dup1\n      revert\n    tag_23:\n        /* \"contracts/Online/ERC20/WBTC.sol\":15969:15981  pendingOwner */\n      sload(0x1)\n      0x0\n        /* \"contracts/Online/ERC20/WBTC.sol\":15962:15967  owner */\n      dup1\n      sload\n        /* \"contracts/Online/ERC20/WBTC.sol\":15941:15982  OwnershipTransferred(owner, pendingOwner) */\n      mload(0x40)\n      sub(exp(0x2, 0xa0), 0x1)\n        /* \"contracts/Online/ERC20/WBTC.sol\":15969:15981  pendingOwner */\n      swap4\n      dup5\n      and\n      swap4\n        /* \"contracts/Online/ERC20/WBTC.sol\":15962:15967  owner */\n      swap1\n      swap2\n      and\n      swap2\n        /* \"contracts/Online/ERC20/WBTC.sol\":15941:15982  OwnershipTransferred(owner, pendingOwner) */\n      0x8be0079c531659141344cd1fd0a4f28419497f9722a3daafe3b4186f6b6457e0\n      swap2\n      log3\n        /* \"contracts/Online/ERC20/WBTC.sol\":15997:16009  pendingOwner */\n      0x1\n      dup1\n      sload\n      0x0\n        /* \"contracts/Online/ERC20/WBTC.sol\":15989:16009  owner = pendingOwner */\n      dup1\n      sload\n      not(0xffffffffffffffffffffffffffffffffffffffff)\n      swap1\n      dup2\n      and\n      sub(exp(0x2, 0xa0), 0x1)\n        /* \"contracts/Online/ERC20/WBTC.sol\":15997:16009  pendingOwner */\n      dup5\n      and\n        /* \"contracts/Online/ERC20/WBTC.sol\":15989:16009  owner = pendingOwner */\n      or\n      swap1\n      swap2\n      sstore\n        /* \"contracts/Online/ERC20/WBTC.sol\":16016:16041  pendingOwner = address(0) */\n      and\n      swap1\n      sstore\n        /* \"contracts/Online/ERC20/WBTC.sol\":15879:16047  function claimOwnership() public onlyPendingOwner {\r... */\n      jump\t// out\n        /* \"contracts/Online/ERC20/WBTC.sol\":9783:9897  function renounceOwnership() public onlyOwner {\r... */\n    tag_12:\n        /* \"contracts/Online/ERC20/WBTC.sol\":9491:9496  owner */\n      and(sub(exp(0x2, 0xa0), 0x1), sload(0x0))\n        /* \"contracts/Online/ERC20/WBTC.sol\":9477:9487  msg.sender */\n      caller\n        /* \"contracts/Online/ERC20/WBTC.sol\":9477:9496  msg.sender == owner */\n      eq\n        /* \"contracts/Online/ERC20/WBTC.sol\":9469:9497  require(msg.sender == owner) */\n      tag_26\n      jumpi\n      0x0\n      dup1\n      revert\n    tag_26:\n        /* \"contracts/Online/ERC20/WBTC.sol\":9860:9865  owner */\n      0x0\n      dup1\n      sload\n        /* \"contracts/Online/ERC20/WBTC.sol\":9841:9866  OwnershipRenounced(owner) */\n      mload(0x40)\n      sub(exp(0x2, 0xa0), 0x1)\n        /* \"contracts/Online/ERC20/WBTC.sol\":9860:9865  owner */\n      swap1\n      swap2\n      and\n      swap2\n        /* \"contracts/Online/ERC20/WBTC.sol\":9841:9866  OwnershipRenounced(owner) */\n      0xf8df31144d9c2f0f6b59d69b8b98abd5459d07f2742c4df920b25aae33c64820\n      swap2\n      log2\n        /* \"contracts/Online/ERC20/WBTC.sol\":9889:9890  0 */\n      0x0\n        /* \"contracts/Online/ERC20/WBTC.sol\":9873:9891  owner = address(0) */\n      dup1\n      sload\n      not(0xffffffffffffffffffffffffffffffffffffffff)\n      and\n      swap1\n      sstore\n        /* \"contracts/Online/ERC20/WBTC.sol\":9783:9897  function renounceOwnership() public onlyOwner {\r... */\n      jump\t// out\n        /* \"contracts/Online/ERC20/WBTC.sol\":8988:9008  address public owner */\n    tag_15:\n      and(sub(exp(0x2, 0xa0), 0x1), sload(0x0))\n      dup2\n      jump\t// out\n        /* \"contracts/Online/ERC20/WBTC.sol\":15330:15357  address public pendingOwner */\n    tag_18:\n      and(sub(exp(0x2, 0xa0), 0x1), sload(0x1))\n      dup2\n      jump\t// out\n        /* \"contracts/Online/ERC20/WBTC.sol\":15692:15790  function transferOwnership(address newOwner) public onlyOwner {\r... */\n    tag_21:\n        /* \"contracts/Online/ERC20/WBTC.sol\":9491:9496  owner */\n      and(sub(exp(0x2, 0xa0), 0x1), sload(0x0))\n        /* \"contracts/Online/ERC20/WBTC.sol\":9477:9487  msg.sender */\n      caller\n        /* \"contracts/Online/ERC20/WBTC.sol\":9477:9496  msg.sender == owner */\n      eq\n        /* \"contracts/Online/ERC20/WBTC.sol\":9469:9497  require(msg.sender == owner) */\n      tag_29\n      jumpi\n      0x0\n      dup1\n      revert\n    tag_29:\n        /* \"contracts/Online/ERC20/WBTC.sol\":15761:15773  pendingOwner */\n      0x1\n        /* \"contracts/Online/ERC20/WBTC.sol\":15761:15784  pendingOwner = newOwner */\n      dup1\n      sload\n      not(0xffffffffffffffffffffffffffffffffffffffff)\n      and\n      sub(exp(0x2, 0xa0), 0x1)\n      swap3\n      swap1\n      swap3\n      and\n      swap2\n      swap1\n      swap2\n      or\n      swap1\n      sstore\n        /* \"contracts/Online/ERC20/WBTC.sol\":15692:15790  function transferOwnership(address newOwner) public onlyOwner {\r... */\n      jump\t// out\n\n    auxdata: 0xa165627a7a723058200ef3320bd59a81cc16164d02ebb7b683be78858b74b7b5d1031e93b1ceba512c0029\n}\n",
				"bytecode": {
					"linkReferences": {},
					"object": "608060405260008054600160a060020a03191633179055610288806100256000396000f30060806040526004361061006c5763ffffffff7c01000000000000000000000000000000000000000000000000000000006000350416634e71e0c88114610071578063715018a6146100885780638da5cb5b1461009d578063e30c3978146100ce578063f2fde38b146100e3575b600080fd5b34801561007d57600080fd5b50610086610104565b005b34801561009457600080fd5b5061008661018c565b3480156100a957600080fd5b506100b26101f8565b60408051600160a060020a039092168252519081900360200190f35b3480156100da57600080fd5b506100b2610207565b3480156100ef57600080fd5b50610086600160a060020a0360043516610216565b600154600160a060020a0316331461011b57600080fd5b60015460008054604051600160a060020a0393841693909116917f8be0079c531659141344cd1fd0a4f28419497f9722a3daafe3b4186f6b6457e091a3600180546000805473ffffffffffffffffffffffffffffffffffffffff19908116600160a060020a03841617909155169055565b600054600160a060020a031633146101a357600080fd5b60008054604051600160a060020a03909116917ff8df31144d9c2f0f6b59d69b8b98abd5459d07f2742c4df920b25aae33c6482091a26000805473ffffffffffffffffffffffffffffffffffffffff19169055565b600054600160a060020a031681565b600154600160a060020a031681565b600054600160a060020a0316331461022d57600080fd5b6001805473ffffffffffffffffffffffffffffffffffffffff1916600160a060020a03929092169190911790555600a165627a7a723058200ef3320bd59a81cc16164d02ebb7b683be78858b74b7b5d1031e93b1ceba512c0029",
					"opcodes": "PUSH1 0x80 PUSH1 0x40 MSTORE PUSH1 0x0 DUP1 SLOAD PUSH1 0x1 PUSH1 0xA0 PUSH1 0x2 EXP SUB NOT AND CALLER OR SWAP1 SSTORE PUSH2 0x288 DUP1 PUSH2 0x25 PUSH1 0x0 CODECOPY PUSH1 0x0 RETURN STOP PUSH1 0x80 PUSH1 0x40 MSTORE PUSH1 0x4 CALLDATASIZE LT PUSH2 0x6C JUMPI PUSH4 0xFFFFFFFF PUSH29 0x100000000000000000000000000000000000000000000000000000000 PUSH1 0x0 CALLDATALOAD DIV AND PUSH4 0x4E71E0C8 DUP2 EQ PUSH2 0x71 JUMPI DUP1 PUSH4 0x715018A6 EQ PUSH2 0x88 JUMPI DUP1 PUSH4 0x8DA5CB5B EQ PUSH2 0x9D JUMPI DUP1 PUSH4 0xE30C3978 EQ PUSH2 0xCE JUMPI DUP1 PUSH4 0xF2FDE38B EQ PUSH2 0xE3 JUMPI JUMPDEST PUSH1 0x0 DUP1 REVERT JUMPDEST CALLVALUE DUP1 ISZERO PUSH2 0x7D JUMPI PUSH1 0x0 DUP1 REVERT JUMPDEST POP PUSH2 0x86 PUSH2 0x104 JUMP JUMPDEST STOP JUMPDEST CALLVALUE DUP1 ISZERO PUSH2 0x94 JUMPI PUSH1 0x0 DUP1 REVERT JUMPDEST POP PUSH2 0x86 PUSH2 0x18C JUMP JUMPDEST CALLVALUE DUP1 ISZERO PUSH2 0xA9 JUMPI PUSH1 0x0 DUP1 REVERT JUMPDEST POP PUSH2 0xB2 PUSH2 0x1F8 JUMP JUMPDEST PUSH1 0x40 DUP1 MLOAD PUSH1 0x1 PUSH1 0xA0 PUSH1 0x2 EXP SUB SWAP1 SWAP3 AND DUP3 MSTORE MLOAD SWAP1 DUP2 SWAP1 SUB PUSH1 0x20 ADD SWAP1 RETURN JUMPDEST CALLVALUE DUP1 ISZERO PUSH2 0xDA JUMPI PUSH1 0x0 DUP1 REVERT JUMPDEST POP PUSH2 0xB2 PUSH2 0x207 JUMP JUMPDEST CALLVALUE DUP1 ISZERO PUSH2 0xEF JUMPI PUSH1 0x0 DUP1 REVERT JUMPDEST POP PUSH2 0x86 PUSH1 0x1 PUSH1 0xA0 PUSH1 0x2 EXP SUB PUSH1 0x4 CALLDATALOAD AND PUSH2 0x216 JUMP JUMPDEST PUSH1 0x1 SLOAD PUSH1 0x1 PUSH1 0xA0 PUSH1 0x2 EXP SUB AND CALLER EQ PUSH2 0x11B JUMPI PUSH1 0x0 DUP1 REVERT JUMPDEST PUSH1 0x1 SLOAD PUSH1 0x0 DUP1 SLOAD PUSH1 0x40 MLOAD PUSH1 0x1 PUSH1 0xA0 PUSH1 0x2 EXP SUB SWAP4 DUP5 AND SWAP4 SWAP1 SWAP2 AND SWAP2 PUSH32 0x8BE0079C531659141344CD1FD0A4F28419497F9722A3DAAFE3B4186F6B6457E0 SWAP2 LOG3 PUSH1 0x1 DUP1 SLOAD PUSH1 0x0 DUP1 SLOAD PUSH20 0xFFFFFFFFFFFFFFFFFFFFFFFFFFFFFFFFFFFFFFFF NOT SWAP1 DUP2 AND PUSH1 0x1 PUSH1 0xA0 PUSH1 0x2 EXP SUB DUP5 AND OR SWAP1 SWAP2 SSTORE AND SWAP1 SSTORE JUMP JUMPDEST PUSH1 0x0 SLOAD PUSH1 0x1 PUSH1 0xA0 PUSH1 0x2 EXP SUB AND CALLER EQ PUSH2 0x1A3 JUMPI PUSH1 0x0 DUP1 REVERT JUMPDEST PUSH1 0x0 DUP1 SLOAD PUSH1 0x40 MLOAD PUSH1 0x1 PUSH1 0xA0 PUSH1 0x2 EXP SUB SWAP1 SWAP2 AND SWAP2 PUSH32 0xF8DF31144D9C2F0F6B59D69B8B98ABD5459D07F2742C4DF920B25AAE33C64820 SWAP2 LOG2 PUSH1 0x0 DUP1 SLOAD PUSH20 0xFFFFFFFFFFFFFFFFFFFFFFFFFFFFFFFFFFFFFFFF NOT AND SWAP1 SSTORE JUMP JUMPDEST PUSH1 0x0 SLOAD PUSH1 0x1 PUSH1 0xA0 PUSH1 0x2 EXP SUB AND DUP2 JUMP JUMPDEST PUSH1 0x1 SLOAD PUSH1 0x1 PUSH1 0xA0 PUSH1 0x2 EXP SUB AND DUP2 JUMP JUMPDEST PUSH1 0x0 SLOAD PUSH1 0x1 PUSH1 0xA0 PUSH1 0x2 EXP SUB AND CALLER EQ PUSH2 0x22D JUMPI PUSH1 0x0 DUP1 REVERT JUMPDEST PUSH1 0x1 DUP1 SLOAD PUSH20 0xFFFFFFFFFFFFFFFFFFFFFFFFFFFFFFFFFFFFFFFF NOT AND PUSH1 0x1 PUSH1 0xA0 PUSH1 0x2 EXP SUB SWAP3 SWAP1 SWAP3 AND SWAP2 SWAP1 SWAP2 OR SWAP1 SSTORE JUMP STOP LOG1 PUSH6 0x627A7A723058 KECCAK256 0xe RETURN ORIGIN SIGNEXTEND 0xd5 SWAP11 DUP2 0xcc AND AND 0x4d MUL 0xeb 0xb7 0xb6 DUP4 0xbe PUSH25 0x858B74B7B5D1031E93B1CEBA512C0029000000000000000000 "
				},
				"gasEstimates": {
					"creation": {
						"codeDepositCost": "129600",
						"executionCost": "20445",
						"totalCost": "150045"
					},
					"external": {
						"claimOwnership()": "42964",
						"owner()": "581",
						"pendingOwner()": "603",
						"renounceOwnership()": "22094",
						"transferOwnership(address)": "20910"
					}
				},
				"methodIdentifiers": {
					"claimOwnership()": "4e71e0c8",
					"owner()": "8da5cb5b",
					"pendingOwner()": "e30c3978",
					"renounceOwnership()": "715018a6",
					"transferOwnership(address)": "f2fde38b"
				}
			},
			"userdoc": {
				"methods": {
					"renounceOwnership()": {
						"notice": "Renouncing to ownership will leave the contract without an owner.\r It will not be possible to call the functions with the `onlyOwner`\r modifier anymore.\r"
					}
				}
			}
		}
	}
}