{
	"contracts/Online/ERC20/WBTC.sol": {
		"CanReclaimToken": {
			"abi": [
				{
					"constant": false,
					"inputs": [
						{
							"name": "_token",
							"type": "address"
						}
					],
					"name": "reclaimToken",
					"outputs": [],
					"payable": false,
					"stateMutability": "nonpayable",
					"type": "function"
				},
				{
					"constant": false,
					"inputs": [],
					"name": "renounceOwnership",
					"outputs": [],
					"payable": false,
					"stateMutability": "nonpayable",
					"type": "function"
				},
				{
					"constant": true,
					"inputs": [],
					"name": "owner",
					"outputs": [
						{
							"name": "",
							"type": "address"
						}
					],
					"payable": false,
					"stateMutability": "view",
					"type": "function"
				},
				{
					"constant": false,
					"inputs": [
						{
							"name": "_newOwner",
							"type": "address"
						}
					],
					"name": "transferOwnership",
					"outputs": [],
					"payable": false,
					"stateMutability": "nonpayable",
					"type": "function"
				},
				{
					"anonymous": false,
					"inputs": [
						{
							"indexed": true,
							"name": "previousOwner",
							"type": "address"
						}
					],
					"name": "OwnershipRenounced",
					"type": "event"
				},
				{
					"anonymous": false,
					"inputs": [
						{
							"indexed": true,
							"name": "previousOwner",
							"type": "address"
						},
						{
							"indexed": true,
							"name": "newOwner",
							"type": "address"
						}
					],
					"name": "OwnershipTransferred",
					"type": "event"
				}
			],
			"devdoc": {
				"author": "SylTi\r",
				"methods": {
					"reclaimToken(address)": {
						"details": "Reclaim all ERC20Basic compatible tokens\r",
						"params": {
							"_token": "ERC20Basic The address of the token contract\r"
						}
					},
					"renounceOwnership()": {
						"details": "Allows the current owner to relinquish control of the contract.\r"
					},
					"transferOwnership(address)": {
						"details": "Allows the current owner to transfer control of the contract to a newOwner.\r",
						"params": {
							"_newOwner": "The address to transfer ownership to.\r"
						}
					}
				},
				"title": "Contracts that should be able to recover tokens\r"
			},
			"evm": {
				"assembly": "    /* \"contracts/Online/ERC20/WBTC.sol\":17291:17660  contract CanReclaimToken is Ownable {\r... */\n  mstore(0x40, 0x80)\n    /* \"contracts/Online/ERC20/WBTC.sol\":9332:9337  owner */\n  0x0\n    /* \"contracts/Online/ERC20/WBTC.sol\":9332:9350  owner = msg.sender */\n  dup1\n  sload\n  not(sub(exp(0x2, 0xa0), 0x1))\n  and\n    /* \"contracts/Online/ERC20/WBTC.sol\":9340:9350  msg.sender */\n  caller\n    /* \"contracts/Online/ERC20/WBTC.sol\":9332:9350  owner = msg.sender */\n  or\n  swap1\n  sstore\n    /* \"contracts/Online/ERC20/WBTC.sol\":17291:17660  contract CanReclaimToken is Ownable {\r... */\n  dataSize(sub_0)\n  dup1\n  dataOffset(sub_0)\n  0x0\n  codecopy\n  0x0\n  return\nstop\n\nsub_0: assembly {\n        /* \"contracts/Online/ERC20/WBTC.sol\":17291:17660  contract CanReclaimToken is Ownable {\r... */\n      mstore(0x40, 0x80)\n      jumpi(tag_1, lt(calldatasize, 0x4))\n      and(div(calldataload(0x0), 0x100000000000000000000000000000000000000000000000000000000), 0xffffffff)\n      0x17ffc320\n      dup2\n      eq\n      tag_2\n      jumpi\n      dup1\n      0x715018a6\n      eq\n      tag_3\n      jumpi\n      dup1\n      0x8da5cb5b\n      eq\n      tag_4\n      jumpi\n      dup1\n      0xf2fde38b\n      eq\n      tag_5\n      jumpi\n    tag_1:\n      0x0\n      dup1\n      revert\n        /* \"contracts/Online/ERC20/WBTC.sol\":17500:17655  function reclaimToken(ERC20Basic _token) external onlyOwner {\r... */\n    tag_2:\n      callvalue\n        /* \"--CODEGEN--\":8:17   */\n      dup1\n        /* \"--CODEGEN--\":5:7   */\n      iszero\n      tag_6\n      jumpi\n        /* \"--CODEGEN--\":30:31   */\n      0x0\n        /* \"--CODEGEN--\":27:28   */\n      dup1\n        /* \"--CODEGEN--\":20:32   */\n      revert\n        /* \"--CODEGEN--\":5:7   */\n    tag_6:\n      pop\n        /* \"contracts/Online/ERC20/WBTC.sol\":17500:17655  function reclaimToken(ERC20Basic _token) external onlyOwner {\r... */\n      tag_7\n      and(calldataload(0x4), sub(exp(0x2, 0xa0), 0x1))\n      jump(tag_8)\n    tag_7:\n      stop\n        /* \"contracts/Online/ERC20/WBTC.sol\":9783:9897  function renounceOwnership() public onlyOwner {\r... */\n    tag_3:\n      callvalue\n        /* \"--CODEGEN--\":8:17   */\n      dup1\n        /* \"--CODEGEN--\":5:7   */\n      iszero\n      tag_9\n      jumpi\n        /* \"--CODEGEN--\":30:31   */\n      0x0\n        /* \"--CODEGEN--\":27:28   */\n      dup1\n        /* \"--CODEGEN--\":20:32   */\n      revert\n        /* \"--CODEGEN--\":5:7   */\n    tag_9:\n        /* \"contracts/Online/ERC20/WBTC.sol\":9783:9897  function renounceOwnership() public onlyOwner {\r... */\n      pop\n      tag_7\n      jump(tag_11)\n        /* \"contracts/Online/ERC20/WBTC.sol\":8988:9008  address public owner */\n    tag_4:\n      callvalue\n        /* \"--CODEGEN--\":8:17   */\n      dup1\n        /* \"--CODEGEN--\":5:7   */\n      iszero\n      tag_12\n      jumpi\n        /* \"--CODEGEN--\":30:31   */\n      0x0\n        /* \"--CODEGEN--\":27:28   */\n      dup1\n        /* \"--CODEGEN--\":20:32   */\n      revert\n        /* \"--CODEGEN--\":5:7   */\n    tag_12:\n        /* \"contracts/Online/ERC20/WBTC.sol\":8988:9008  address public owner */\n      pop\n      tag_13\n      jump(tag_14)\n    tag_13:\n      0x40\n      dup1\n      mload\n      sub(exp(0x2, 0xa0), 0x1)\n      swap1\n      swap3\n      and\n      dup3\n      mstore\n      mload\n      swap1\n      dup2\n      swap1\n      sub\n      0x20\n      add\n      swap1\n      return\n        /* \"contracts/Online/ERC20/WBTC.sol\":10065:10170  function transferOwnership(address _newOwner) public onlyOwner {\r... */\n    tag_5:\n      callvalue\n        /* \"--CODEGEN--\":8:17   */\n      dup1\n        /* \"--CODEGEN--\":5:7   */\n      iszero\n      tag_15\n      jumpi\n        /* \"--CODEGEN--\":30:31   */\n      0x0\n        /* \"--CODEGEN--\":27:28   */\n      dup1\n        /* \"--CODEGEN--\":20:32   */\n      revert\n        /* \"--CODEGEN--\":5:7   */\n    tag_15:\n      pop\n        /* \"contracts/Online/ERC20/WBTC.sol\":10065:10170  function transferOwnership(address _newOwner) public onlyOwner {\r... */\n      tag_7\n      and(calldataload(0x4), sub(exp(0x2, 0xa0), 0x1))\n      jump(tag_17)\n        /* \"contracts/Online/ERC20/WBTC.sol\":17500:17655  function reclaimToken(ERC20Basic _token) external onlyOwner {\r... */\n    tag_8:\n        /* \"contracts/Online/ERC20/WBTC.sol\":17567:17582  uint256 balance */\n      0x0\n        /* \"contracts/Online/ERC20/WBTC.sol\":9491:9496  owner */\n      dup1\n      sload\n      sub(exp(0x2, 0xa0), 0x1)\n      and\n        /* \"contracts/Online/ERC20/WBTC.sol\":9477:9487  msg.sender */\n      caller\n        /* \"contracts/Online/ERC20/WBTC.sol\":9477:9496  msg.sender == owner */\n      eq\n        /* \"contracts/Online/ERC20/WBTC.sol\":9469:9497  require(msg.sender == owner) */\n      tag_19\n      jumpi\n      0x0\n      dup1\n      revert\n    tag_19:\n        /* \"contracts/Online/ERC20/WBTC.sol\":17585:17607  _token.balanceOf(this) */\n      0x40\n      dup1\n      mload\n      0x70a0823100000000000000000000000000000000000000000000000000000000\n      dup2\n      mstore\n        /* \"contracts/Online/ERC20/WBTC.sol\":17602:17606  this */\n      address\n        /* \"contracts/Online/ERC20/WBTC.sol\":17585:17607  _token.balanceOf(this) */\n      0x4\n      dup3\n      add\n      mstore\n      swap1\n      mload\n      sub(exp(0x2, 0xa0), 0x1)\n        /* \"contracts/Online/ERC20/WBTC.sol\":17585:17601  _token.balanceOf */\n      dup5\n      and\n      swap2\n      0x70a08231\n      swap2\n        /* \"contracts/Online/ERC20/WBTC.sol\":17585:17607  _token.balanceOf(this) */\n      0x24\n      dup1\n      dup4\n      add\n      swap3\n      0x20\n      swap3\n      swap2\n      swap1\n      dup3\n      swap1\n      sub\n      add\n      dup2\n      0x0\n        /* \"contracts/Online/ERC20/WBTC.sol\":17585:17601  _token.balanceOf */\n      dup8\n        /* \"contracts/Online/ERC20/WBTC.sol\":17585:17607  _token.balanceOf(this) */\n      dup1\n      extcodesize\n      iszero\n        /* \"--CODEGEN--\":5:7   */\n      dup1\n      iszero\n      tag_21\n      jumpi\n        /* \"--CODEGEN--\":30:31   */\n      0x0\n        /* \"--CODEGEN--\":27:28   */\n      dup1\n        /* \"--CODEGEN--\":20:32   */\n      revert\n        /* \"--CODEGEN--\":5:7   */\n    tag_21:\n        /* \"contracts/Online/ERC20/WBTC.sol\":17585:17607  _token.balanceOf(this) */\n      pop\n      gas\n      call\n      iszero\n        /* \"--CODEGEN--\":8:17   */\n      dup1\n        /* \"--CODEGEN--\":5:7   */\n      iszero\n      tag_22\n      jumpi\n        /* \"--CODEGEN--\":45:61   */\n      returndatasize\n        /* \"--CODEGEN--\":42:43   */\n      0x0\n        /* \"--CODEGEN--\":39:40   */\n      dup1\n        /* \"--CODEGEN--\":24:62   */\n      returndatacopy\n        /* \"--CODEGEN--\":77:93   */\n      returndatasize\n        /* \"--CODEGEN--\":74:75   */\n      0x0\n        /* \"--CODEGEN--\":67:94   */\n      revert\n        /* \"--CODEGEN--\":5:7   */\n    tag_22:\n        /* \"contracts/Online/ERC20/WBTC.sol\":17585:17607  _token.balanceOf(this) */\n      pop\n      pop\n      pop\n      pop\n      mload(0x40)\n      returndatasize\n        /* \"--CODEGEN--\":13:15   */\n      0x20\n        /* \"--CODEGEN--\":8:11   */\n      dup2\n        /* \"--CODEGEN--\":5:16   */\n      lt\n        /* \"--CODEGEN--\":2:4   */\n      iszero\n      tag_23\n      jumpi\n        /* \"--CODEGEN--\":29:30   */\n      0x0\n        /* \"--CODEGEN--\":26:27   */\n      dup1\n        /* \"--CODEGEN--\":19:31   */\n      revert\n        /* \"--CODEGEN--\":2:4   */\n    tag_23:\n      pop\n        /* \"contracts/Online/ERC20/WBTC.sol\":17585:17607  _token.balanceOf(this) */\n      mload\n        /* \"contracts/Online/ERC20/WBTC.sol\":17634:17639  owner */\n      sload(0x0)\n        /* \"contracts/Online/ERC20/WBTC.sol\":17585:17607  _token.balanceOf(this) */\n      swap1\n      swap2\n      pop\n        /* \"contracts/Online/ERC20/WBTC.sol\":17614:17649  _token.safeTransfer(owner, balance) */\n      tag_24\n      swap1\n      sub(exp(0x2, 0xa0), 0x1)\n        /* \"contracts/Online/ERC20/WBTC.sol\":17614:17633  _token.safeTransfer */\n      dup5\n      dup2\n      and\n      swap2\n        /* \"contracts/Online/ERC20/WBTC.sol\":17634:17639  owner */\n      and\n        /* \"contracts/Online/ERC20/WBTC.sol\":17585:17607  _token.balanceOf(this) */\n      dup4\n        /* \"contracts/Online/ERC20/WBTC.sol\":17614:17649  _token.safeTransfer(owner, balance) */\n      0xffffffff\n        /* \"contracts/Online/ERC20/WBTC.sol\":17614:17633  _token.safeTransfer */\n      tag_25\n        /* \"contracts/Online/ERC20/WBTC.sol\":17614:17649  _token.safeTransfer(owner, balance) */\n      and\n      jump\t// in\n    tag_24:\n        /* \"contracts/Online/ERC20/WBTC.sol\":17500:17655  function reclaimToken(ERC20Basic _token) external onlyOwner {\r... */\n      pop\n      pop\n      jump\t// out\n        /* \"contracts/Online/ERC20/WBTC.sol\":9783:9897  function renounceOwnership() public onlyOwner {\r... */\n    tag_11:\n        /* \"contracts/Online/ERC20/WBTC.sol\":9491:9496  owner */\n      and(sub(exp(0x2, 0xa0), 0x1), sload(0x0))\n        /* \"contracts/Online/ERC20/WBTC.sol\":9477:9487  msg.sender */\n      caller\n        /* \"contracts/Online/ERC20/WBTC.sol\":9477:9496  msg.sender == owner */\n      eq\n        /* \"contracts/Online/ERC20/WBTC.sol\":9469:9497  require(msg.sender == owner) */\n      tag_27\n      jumpi\n      0x0\n      dup1\n      revert\n    tag_27:\n        /* \"contracts/Online/ERC20/WBTC.sol\":9860:9865  owner */\n      0x0\n      dup1\n      sload\n        /* \"contracts/Online/ERC20/WBTC.sol\":9841:9866  OwnershipRenounced(owner) */\n      mload(0x40)\n      sub(exp(0x2, 0xa0), 0x1)\n        /* \"contracts/Online/ERC20/WBTC.sol\":9860:9865  owner */\n      swap1\n      swap2\n      and\n      swap2\n        /* \"contracts/Online/ERC20/WBTC.sol\":9841:9866  OwnershipRenounced(owner) */\n      0xf8df31144d9c2f0f6b59d69b8b98abd5459d07f2742c4df920b25aae33c64820\n      swap2\n      log2\n        /* \"contracts/Online/ERC20/WBTC.sol\":9889:9890  0 */\n      0x0\n        /* \"contracts/Online/ERC20/WBTC.sol\":9873:9891  owner = address(0) */\n      dup1\n      sload\n      not(0xffffffffffffffffffffffffffffffffffffffff)\n      and\n      swap1\n      sstore\n        /* \"contracts/Online/ERC20/WBTC.sol\":9783:9897  function renounceOwnership() public onlyOwner {\r... */\n      jump\t// out\n        /* \"contracts/Online/ERC20/WBTC.sol\":8988:9008  address public owner */\n    tag_14:\n      and(sub(exp(0x2, 0xa0), 0x1), sload(0x0))\n      dup2\n      jump\t// out\n        /* \"contracts/Online/ERC20/WBTC.sol\":10065:10170  function transferOwnership(address _newOwner) public onlyOwner {\r... */\n    tag_17:\n        /* \"contracts/Online/ERC20/WBTC.sol\":9491:9496  owner */\n      and(sub(exp(0x2, 0xa0), 0x1), sload(0x0))\n        /* \"contracts/Online/ERC20/WBTC.sol\":9477:9487  msg.sender */\n      caller\n        /* \"contracts/Online/ERC20/WBTC.sol\":9477:9496  msg.sender == owner */\n      eq\n        /* \"contracts/Online/ERC20/WBTC.sol\":9469:9497  require(msg.sender == owner) */\n      tag_30\n      jumpi\n      0x0\n      dup1\n      revert\n    tag_30:\n        /* \"contracts/Online/ERC20/WBTC.sol\":10135:10164  _transferOwnership(_newOwner) */\n      tag_32\n        /* \"contracts/Online/ERC20/WBTC.sol\":10154:10163  _newOwner */\n      dup2\n        /* \"contracts/Online/ERC20/WBTC.sol\":10135:10153  _transferOwnership */\n      tag_33\n        /* \"contracts/Online/ERC20/WBTC.sol\":10135:10164  _transferOwnership(_newOwner) */\n      jump\t// in\n    tag_32:\n        /* \"contracts/Online/ERC20/WBTC.sol\":10065:10170  function transferOwnership(address _newOwner) public onlyOwner {\r... */\n      pop\n      jump\t// out\n        /* \"contracts/Online/ERC20/WBTC.sol\":16422:16579  function safeTransfer(\r... */\n    tag_25:\n        /* \"contracts/Online/ERC20/WBTC.sol\":16544:16550  _token */\n      dup3\n      sub(exp(0x2, 0xa0), 0x1)\n        /* \"contracts/Online/ERC20/WBTC.sol\":16544:16559  _token.transfer */\n      and\n      0xa9059cbb\n        /* \"contracts/Online/ERC20/WBTC.sol\":16560:16563  _to */\n      dup4\n        /* \"contracts/Online/ERC20/WBTC.sol\":16565:16571  _value */\n      dup4\n        /* \"contracts/Online/ERC20/WBTC.sol\":16544:16572  _token.transfer(_to, _value) */\n      mload(0x40)\n      dup4\n      0xffffffff\n      and\n      0x100000000000000000000000000000000000000000000000000000000\n      mul\n      dup2\n      mstore\n      0x4\n      add\n      dup1\n      dup4\n      sub(exp(0x2, 0xa0), 0x1)\n      and\n      sub(exp(0x2, 0xa0), 0x1)\n      and\n      dup2\n      mstore\n      0x20\n      add\n      dup3\n      dup2\n      mstore\n      0x20\n      add\n      swap3\n      pop\n      pop\n      pop\n      0x20\n      mload(0x40)\n      dup1\n      dup4\n      sub\n      dup2\n      0x0\n      dup8\n      dup1\n      extcodesize\n      iszero\n        /* \"--CODEGEN--\":8:17   */\n      dup1\n        /* \"--CODEGEN--\":5:7   */\n      iszero\n      tag_35\n      jumpi\n        /* \"--CODEGEN--\":30:31   */\n      0x0\n        /* \"--CODEGEN--\":27:28   */\n      dup1\n        /* \"--CODEGEN--\":20:32   */\n      revert\n        /* \"--CODEGEN--\":5:7   */\n    tag_35:\n        /* \"contracts/Online/ERC20/WBTC.sol\":16544:16572  _token.transfer(_to, _value) */\n      pop\n      gas\n      call\n      iszero\n        /* \"--CODEGEN--\":8:17   */\n      dup1\n        /* \"--CODEGEN--\":5:7   */\n      iszero\n      tag_36\n      jumpi\n        /* \"--CODEGEN--\":45:61   */\n      returndatasize\n        /* \"--CODEGEN--\":42:43   */\n      0x0\n        /* \"--CODEGEN--\":39:40   */\n      dup1\n        /* \"--CODEGEN--\":24:62   */\n      returndatacopy\n        /* \"--CODEGEN--\":77:93   */\n      returndatasize\n        /* \"--CODEGEN--\":74:75   */\n      0x0\n        /* \"--CODEGEN--\":67:94   */\n      revert\n        /* \"--CODEGEN--\":5:7   */\n    tag_36:\n        /* \"contracts/Online/ERC20/WBTC.sol\":16544:16572  _token.transfer(_to, _value) */\n      pop\n      pop\n      pop\n      pop\n      mload(0x40)\n      returndatasize\n        /* \"--CODEGEN--\":13:15   */\n      0x20\n        /* \"--CODEGEN--\":8:11   */\n      dup2\n        /* \"--CODEGEN--\":5:16   */\n      lt\n        /* \"--CODEGEN--\":2:4   */\n      iszero\n      tag_37\n      jumpi\n        /* \"--CODEGEN--\":29:30   */\n      0x0\n        /* \"--CODEGEN--\":26:27   */\n      dup1\n        /* \"--CODEGEN--\":19:31   */\n      revert\n        /* \"--CODEGEN--\":2:4   */\n    tag_37:\n      pop\n        /* \"contracts/Online/ERC20/WBTC.sol\":16544:16572  _token.transfer(_to, _value) */\n      mload\n        /* \"contracts/Online/ERC20/WBTC.sol\":16536:16573  require(_token.transfer(_to, _value)) */\n      iszero\n      iszero\n      tag_38\n      jumpi\n      0x0\n      dup1\n      revert\n    tag_38:\n        /* \"contracts/Online/ERC20/WBTC.sol\":16422:16579  function safeTransfer(\r... */\n      pop\n      pop\n      pop\n      jump\t// out\n        /* \"contracts/Online/ERC20/WBTC.sol\":10311:10486  function _transferOwnership(address _newOwner) internal {\r... */\n    tag_33:\n      sub(exp(0x2, 0xa0), 0x1)\n        /* \"contracts/Online/ERC20/WBTC.sol\":10382:10405  _newOwner != address(0) */\n      dup2\n      and\n      iszero\n      iszero\n        /* \"contracts/Online/ERC20/WBTC.sol\":10374:10406  require(_newOwner != address(0)) */\n      tag_40\n      jumpi\n      0x0\n      dup1\n      revert\n    tag_40:\n        /* \"contracts/Online/ERC20/WBTC.sol\":10439:10444  owner */\n      0x0\n      dup1\n      sload\n        /* \"contracts/Online/ERC20/WBTC.sol\":10418:10456  OwnershipTransferred(owner, _newOwner) */\n      mload(0x40)\n      sub(exp(0x2, 0xa0), 0x1)\n      dup1\n      dup6\n      and\n      swap4\n        /* \"contracts/Online/ERC20/WBTC.sol\":10439:10444  owner */\n      swap3\n      and\n      swap2\n        /* \"contracts/Online/ERC20/WBTC.sol\":10418:10456  OwnershipTransferred(owner, _newOwner) */\n      0x8be0079c531659141344cd1fd0a4f28419497f9722a3daafe3b4186f6b6457e0\n      swap2\n      log3\n        /* \"contracts/Online/ERC20/WBTC.sol\":10463:10468  owner */\n      0x0\n        /* \"contracts/Online/ERC20/WBTC.sol\":10463:10480  owner = _newOwner */\n      dup1\n      sload\n      not(0xffffffffffffffffffffffffffffffffffffffff)\n      and\n      sub(exp(0x2, 0xa0), 0x1)\n      swap3\n      swap1\n      swap3\n      and\n      swap2\n      swap1\n      swap2\n      or\n      swap1\n      sstore\n        /* \"contracts/Online/ERC20/WBTC.sol\":10311:10486  function _transferOwnership(address _newOwner) internal {\r... */\n      jump\t// out\n\n    auxdata: 0xa165627a7a72305820bf4ed395fc954f6bcae725559f0d6458fa37e2fcfe57938deffa981e51c3b01e0029\n}\n",
				"bytecode": {
					"linkReferences": {},
					"object": "608060405260008054600160a060020a031916331790556103bb806100256000396000f3006080604052600436106100615763ffffffff7c010000000000000000000000000000000000000000000000000000000060003504166317ffc3208114610066578063715018a6146100895780638da5cb5b1461009e578063f2fde38b146100cf575b600080fd5b34801561007257600080fd5b50610087600160a060020a03600435166100f0565b005b34801561009557600080fd5b506100876101bc565b3480156100aa57600080fd5b506100b3610228565b60408051600160a060020a039092168252519081900360200190f35b3480156100db57600080fd5b50610087600160a060020a0360043516610237565b60008054600160a060020a0316331461010857600080fd5b604080517f70a082310000000000000000000000000000000000000000000000000000000081523060048201529051600160a060020a038416916370a082319160248083019260209291908290030181600087803b15801561016957600080fd5b505af115801561017d573d6000803e3d6000fd5b505050506040513d602081101561019357600080fd5b50516000549091506101b890600160a060020a0384811691168363ffffffff61025a16565b5050565b600054600160a060020a031633146101d357600080fd5b60008054604051600160a060020a03909116917ff8df31144d9c2f0f6b59d69b8b98abd5459d07f2742c4df920b25aae33c6482091a26000805473ffffffffffffffffffffffffffffffffffffffff19169055565b600054600160a060020a031681565b600054600160a060020a0316331461024e57600080fd5b61025781610312565b50565b82600160a060020a031663a9059cbb83836040518363ffffffff167c01000000000000000000000000000000000000000000000000000000000281526004018083600160a060020a0316600160a060020a0316815260200182815260200192505050602060405180830381600087803b1580156102d657600080fd5b505af11580156102ea573d6000803e3d6000fd5b505050506040513d602081101561030057600080fd5b5051151561030d57600080fd5b505050565b600160a060020a038116151561032757600080fd5b60008054604051600160a060020a03808516939216917f8be0079c531659141344cd1fd0a4f28419497f9722a3daafe3b4186f6b6457e091a36000805473ffffffffffffffffffffffffffffffffffffffff1916600160a060020a03929092169190911790555600a165627a7a72305820bf4ed395fc954f6bcae725559f0d6458fa37e2fcfe57938deffa981e51c3b01e0029",
					"opcodes": "PUSH1 0x80 PUSH1 0x40 MSTORE PUSH1 0x0 DUP1 SLOAD PUSH1 0x1 PUSH1 0xA0 PUSH1 0x2 EXP SUB NOT AND CALLER OR SWAP1 SSTORE PUSH2 0x3BB DUP1 PUSH2 0x25 PUSH1 0x0 CODECOPY PUSH1 0x0 RETURN STOP PUSH1 0x80 PUSH1 0x40 MSTORE PUSH1 0x4 CALLDATASIZE LT PUSH2 0x61 JUMPI PUSH4 0xFFFFFFFF PUSH29 0x100000000000000000000000000000000000000000000000000000000 PUSH1 0x0 CALLDATALOAD DIV AND PUSH4 0x17FFC320 DUP2 EQ PUSH2 0x66 JUMPI DUP1 PUSH4 0x715018A6 EQ PUSH2 0x89 JUMPI DUP1 PUSH4 0x8DA5CB5B EQ PUSH2 0x9E JUMPI DUP1 PUSH4 0xF2FDE38B EQ PUSH2 0xCF JUMPI JUMPDEST PUSH1 0x0 DUP1 REVERT JUMPDEST CALLVALUE DUP1 ISZERO PUSH2 0x72 JUMPI PUSH1 0x0 DUP1 REVERT JUMPDEST POP PUSH2 0x87 PUSH1 0x1 PUSH1 0xA0 PUSH1 0x2 EXP SUB PUSH1 0x4 CALLDATALOAD AND PUSH2 0xF0 JUMP JUMPDEST STOP JUMPDEST CALLVALUE DUP1 ISZERO PUSH2 0x95 JUMPI PUSH1 0x0 DUP1 REVERT JUMPDEST POP PUSH2 0x87 PUSH2 0x1BC JUMP JUMPDEST CALLVALUE DUP1 ISZERO PUSH2 0xAA JUMPI PUSH1 0x0 DUP1 REVERT JUMPDEST POP PUSH2 0xB3 PUSH2 0x228 JUMP JUMPDEST PUSH1 0x40 DUP1 MLOAD PUSH1 0x1 PUSH1 0xA0 PUSH1 0x2 EXP SUB SWAP1 SWAP3 AND DUP3 MSTORE MLOAD SWAP1 DUP2 SWAP1 SUB PUSH1 0x20 ADD SWAP1 RETURN JUMPDEST CALLVALUE DUP1 ISZERO PUSH2 0xDB JUMPI PUSH1 0x0 DUP1 REVERT JUMPDEST POP PUSH2 0x87 PUSH1 0x1 PUSH1 0xA0 PUSH1 0x2 EXP SUB PUSH1 0x4 CALLDATALOAD AND PUSH2 0x237 JUMP JUMPDEST PUSH1 0x0 DUP1 SLOAD PUSH1 0x1 PUSH1 0xA0 PUSH1 0x2 EXP SUB AND CALLER EQ PUSH2 0x108 JUMPI PUSH1 0x0 DUP1 REVERT JUMPDEST PUSH1 0x40 DUP1 MLOAD PUSH32 0x70A0823100000000000000000000000000000000000000000000000000000000 DUP2 MSTORE ADDRESS PUSH1 0x4 DUP3 ADD MSTORE SWAP1 MLOAD PUSH1 0x1 PUSH1 0xA0 PUSH1 0x2 EXP SUB DUP5 AND SWAP2 PUSH4 0x70A08231 SWAP2 PUSH1 0x24 DUP1 DUP4 ADD SWAP3 PUSH1 0x20 SWAP3 SWAP2 SWAP1 DUP3 SWAP1 SUB ADD DUP2 PUSH1 0x0 DUP8 DUP1 EXTCODESIZE ISZERO DUP1 ISZERO PUSH2 0x169 JUMPI PUSH1 0x0 DUP1 REVERT JUMPDEST POP GAS CALL ISZERO DUP1 ISZERO PUSH2 0x17D JUMPI RETURNDATASIZE PUSH1 0x0 DUP1 RETURNDATACOPY RETURNDATASIZE PUSH1 0x0 REVERT JUMPDEST POP POP POP POP PUSH1 0x40 MLOAD RETURNDATASIZE PUSH1 0x20 DUP2 LT ISZERO PUSH2 0x193 JUMPI PUSH1 0x0 DUP1 REVERT JUMPDEST POP MLOAD PUSH1 0x0 SLOAD SWAP1 SWAP2 POP PUSH2 0x1B8 SWAP1 PUSH1 0x1 PUSH1 0xA0 PUSH1 0x2 EXP SUB DUP5 DUP2 AND SWAP2 AND DUP4 PUSH4 0xFFFFFFFF PUSH2 0x25A AND JUMP JUMPDEST POP POP JUMP JUMPDEST PUSH1 0x0 SLOAD PUSH1 0x1 PUSH1 0xA0 PUSH1 0x2 EXP SUB AND CALLER EQ PUSH2 0x1D3 JUMPI PUSH1 0x0 DUP1 REVERT JUMPDEST PUSH1 0x0 DUP1 SLOAD PUSH1 0x40 MLOAD PUSH1 0x1 PUSH1 0xA0 PUSH1 0x2 EXP SUB SWAP1 SWAP2 AND SWAP2 PUSH32 0xF8DF31144D9C2F0F6B59D69B8B98ABD5459D07F2742C4DF920B25AAE33C64820 SWAP2 LOG2 PUSH1 0x0 DUP1 SLOAD PUSH20 0xFFFFFFFFFFFFFFFFFFFFFFFFFFFFFFFFFFFFFFFF NOT AND SWAP1 SSTORE JUMP JUMPDEST PUSH1 0x0 SLOAD PUSH1 0x1 PUSH1 0xA0 PUSH1 0x2 EXP SUB AND DUP2 JUMP JUMPDEST PUSH1 0x0 SLOAD PUSH1 0x1 PUSH1 0xA0 PUSH1 0x2 EXP SUB AND CALLER EQ PUSH2 0x24E JUMPI PUSH1 0x0 DUP1 REVERT JUMPDEST PUSH2 0x257 DUP2 PUSH2 0x312 JUMP JUMPDEST POP JUMP JUMPDEST DUP3 PUSH1 0x1 PUSH1 0xA0 PUSH1 0x2 EXP SUB AND PUSH4 0xA9059CBB DUP4 DUP4 PUSH1 0x40 MLOAD DUP4 PUSH4 0xFFFFFFFF AND PUSH29 0x100000000000000000000000000000000000000000000000000000000 MUL DUP2 MSTORE PUSH1 0x4 ADD DUP1 DUP4 PUSH1 0x1 PUSH1 0xA0 PUSH1 0x2 EXP SUB AND PUSH1 0x1 PUSH1 0xA0 PUSH1 0x2 EXP SUB AND DUP2 MSTORE PUSH1 0x20 ADD DUP3 DUP2 MSTORE PUSH1 0x20 ADD SWAP3 POP POP POP PUSH1 0x20 PUSH1 0x40 MLOAD DUP1 DUP4 SUB DUP2 PUSH1 0x0 DUP8 DUP1 EXTCODESIZE ISZERO DUP1 ISZERO PUSH2 0x2D6 JUMPI PUSH1 0x0 DUP1 REVERT JUMPDEST POP GAS CALL ISZERO DUP1 ISZERO PUSH2 0x2EA JUMPI RETURNDATASIZE PUSH1 0x0 DUP1 RETURNDATACOPY RETURNDATASIZE PUSH1 0x0 REVERT JUMPDEST POP POP POP POP PUSH1 0x40 MLOAD RETURNDATASIZE PUSH1 0x20 DUP2 LT ISZERO PUSH2 0x300 JUMPI PUSH1 0x0 DUP1 REVERT JUMPDEST POP MLOAD ISZERO ISZERO PUSH2 0x30D JUMPI PUSH1 0x0 DUP1 REVERT JUMPDEST POP POP POP JUMP JUMPDEST PUSH1 0x1 PUSH1 0xA0 PUSH1 0x2 EXP SUB DUP2 AND ISZERO ISZERO PUSH2 0x327 JUMPI PUSH1 0x0 DUP1 REVERT JUMPDEST PUSH1 0x0 DUP1 SLOAD PUSH1 0x40 MLOAD PUSH1 0x1 PUSH1 0xA0 PUSH1 0x2 EXP SUB DUP1 DUP6 AND SWAP4 SWAP3 AND SWAP2 PUSH32 0x8BE0079C531659141344CD1FD0A4F28419497F9722A3DAAFE3B4186F6B6457E0 SWAP2 LOG3 PUSH1 0x0 DUP1 SLOAD PUSH20 0xFFFFFFFFFFFFFFFFFFFFFFFFFFFFFFFFFFFFFFFF NOT AND PUSH1 0x1 PUSH1 0xA0 PUSH1 0x2 EXP SUB SWAP3 SWAP1 SWAP3 AND SWAP2 SWAP1 SWAP2 OR SWAP1 SSTORE JUMP STOP LOG1 PUSH6 0x627A7A723058 KECCAK256 0xbf 0x4e 0xd3 SWAP6 0xfc SWAP6 0x4f PUSH12 0xCAE725559F0D6458FA37E2FC INVALID JUMPI SWAP4 DUP14 0xef STATICCALL SWAP9 0x1e MLOAD 0xc3 0xb0 0x1e STOP 0x29 "
				},
				"gasEstimates": {
					"creation": {
						"codeDepositCost": "191000",
						"executionCost": "20500",
						"totalCost": "211500"
					},
					"external": {
						"owner()": "581",
						"reclaimToken(address)": "infinite",
						"renounceOwnership()": "22094",
						"transferOwnership(address)": "22826"
					}
				},
				"methodIdentifiers": {
					"owner()": "8da5cb5b",
					"reclaimToken(address)": "17ffc320",
					"renounceOwnership()": "715018a6",
					"transferOwnership(address)": "f2fde38b"
				}
			},
			"userdoc": {
				"methods": {
					"renounceOwnership()": {
						"notice": "Renouncing to ownership will leave the contract without an owner.\r It will not be possible to call the functions with the `onlyOwner`\r modifier anymore.\r"
					}
				}
			}
		}
	}
}