{
	"contracts/Online/ERC20/Dai.sol": {
		"Dai": {
			"abi": [
				{
					"inputs": [
						{
							"internalType": "uint256",
							"name": "chainId_",
							"type": "uint256"
						}
					],
					"stateMutability": "nonpayable",
					"type": "constructor"
				},
				{
					"anonymous": false,
					"inputs": [
						{
							"indexed": true,
							"internalType": "address",
							"name": "src",
							"type": "address"
						},
						{
							"indexed": true,
							"internalType": "address",
							"name": "guy",
							"type": "address"
						},
						{
							"indexed": false,
							"internalType": "uint256",
							"name": "wad",
							"type": "uint256"
						}
					],
					"name": "Approval",
					"type": "event"
				},
				{
					"anonymous": true,
					"inputs": [
						{
							"indexed": true,
							"internalType": "bytes4",
							"name": "sig",
							"type": "bytes4"
						},
						{
							"indexed": true,
							"internalType": "address",
							"name": "usr",
							"type": "address"
						},
						{
							"indexed": true,
							"internalType": "bytes32",
							"name": "arg1",
							"type": "bytes32"
						},
						{
							"indexed": true,
							"internalType": "bytes32",
							"name": "arg2",
							"type": "bytes32"
						},
						{
							"indexed": false,
							"internalType": "bytes",
							"name": "data",
							"type": "bytes"
						}
					],
					"name": "LogNote",
					"type": "event"
				},
				{
					"anonymous": false,
					"inputs": [
						{
							"indexed": true,
							"internalType": "address",
							"name": "src",
							"type": "address"
						},
						{
							"indexed": true,
							"internalType": "address",
							"name": "dst",
							"type": "address"
						},
						{
							"indexed": false,
							"internalType": "uint256",
							"name": "wad",
							"type": "uint256"
						}
					],
					"name": "Transfer",
					"type": "event"
				},
				{
					"inputs": [],
					"name": "DOMAIN_SEPARATOR",
					"outputs": [
						{
							"internalType": "bytes32",
							"name": "",
							"type": "bytes32"
						}
					],
					"stateMutability": "view",
					"type": "function"
				},
				{
					"inputs": [],
					"name": "PERMIT_TYPEHASH",
					"outputs": [
						{
							"internalType": "bytes32",
							"name": "",
							"type": "bytes32"
						}
					],
					"stateMutability": "view",
					"type": "function"
				},
				{
					"inputs": [
						{
							"internalType": "address",
							"name": "",
							"type": "address"
						},
						{
							"internalType": "address",
							"name": "",
							"type": "address"
						}
					],
					"name": "allowance",
					"outputs": [
						{
							"internalType": "uint256",
							"name": "",
							"type": "uint256"
						}
					],
					"stateMutability": "view",
					"type": "function"
				},
				{
					"inputs": [
						{
							"internalType": "address",
							"name": "usr",
							"type": "address"
						},
						{
							"internalType": "uint256",
							"name": "wad",
							"type": "uint256"
						}
					],
					"name": "approve",
					"outputs": [
						{
							"internalType": "bool",
							"name": "",
							"type": "bool"
						}
					],
					"stateMutability": "nonpayable",
					"type": "function"
				},
				{
					"inputs": [
						{
							"internalType": "address",
							"name": "",
							"type": "address"
						}
					],
					"name": "balanceOf",
					"outputs": [
						{
							"internalType": "uint256",
							"name": "",
							"type": "uint256"
						}
					],
					"stateMutability": "view",
					"type": "function"
				},
				{
					"inputs": [
						{
							"internalType": "address",
							"name": "usr",
							"type": "address"
						},
						{
							"internalType": "uint256",
							"name": "wad",
							"type": "uint256"
						}
					],
					"name": "burn",
					"outputs": [],
					"stateMutability": "nonpayable",
					"type": "function"
				},
				{
					"inputs": [],
					"name": "decimals",
					"outputs": [
						{
							"internalType": "uint8",
							"name": "",
							"type": "uint8"
						}
					],
					"stateMutability": "view",
					"type": "function"
				},
				{
					"inputs": [
						{
							"internalType": "address",
							"name": "guy",
							"type": "address"
						}
					],
					"name": "deny",
					"outputs": [],
					"stateMutability": "nonpayable",
					"type": "function"
				},
				{
					"inputs": [
						{
							"internalType": "address",
							"name": "usr",
							"type": "address"
						},
						{
							"internalType": "uint256",
							"name": "wad",
							"type": "uint256"
						}
					],
					"name": "mint",
					"outputs": [],
					"stateMutability": "nonpayable",
					"type": "function"
				},
				{
					"inputs": [
						{
							"internalType": "address",
							"name": "src",
							"type": "address"
						},
						{
							"internalType": "address",
							"name": "dst",
							"type": "address"
						},
						{
							"internalType": "uint256",
							"name": "wad",
							"type": "uint256"
						}
					],
					"name": "move",
					"outputs": [],
					"stateMutability": "nonpayable",
					"type": "function"
				},
				{
					"inputs": [],
					"name": "name",
					"outputs": [
						{
							"internalType": "string",
							"name": "",
							"type": "string"
						}
					],
					"stateMutability": "view",
					"type": "function"
				},
				{
					"inputs": [
						{
							"internalType": "address",
							"name": "",
							"type": "address"
						}
					],
					"name": "nonces",
					"outputs": [
						{
							"internalType": "uint256",
							"name": "",
							"type": "uint256"
						}
					],
					"stateMutability": "view",
					"type": "function"
				},
				{
					"inputs": [
						{
							"internalType": "address",
							"name": "holder",
							"type": "address"
						},
						{
							"internalType": "address",
							"name": "spender",
							"type": "address"
						},
						{
							"internalType": "uint256",
							"name": "nonce",
							"type": "uint256"
						},
						{
							"internalType": "uint256",
							"name": "expiry",
							"type": "uint256"
						},
						{
							"internalType": "bool",
							"name": "allowed",
							"type": "bool"
						},
						{
							"internalType": "uint8",
							"name": "v",
							"type": "uint8"
						},
						{
							"internalType": "bytes32",
							"name": "r",
							"type": "bytes32"
						},
						{
							"internalType": "bytes32",
							"name": "s",
							"type": "bytes32"
						}
					],
					"name": "permit",
					"outputs": [],
					"stateMutability": "nonpayable",
					"type": "function"
				},
				{
					"inputs": [
						{
							"internalType": "address",
							"name": "usr",
							"type": "address"
						},
						{
							"internalType": "uint256",
							"name": "wad",
							"type": "uint256"
						}
					],
					"name": "pull",
					"outputs": [],
					"stateMutability": "nonpayable",
					"type": "function"
				},
				{
					"inputs": [
						{
							"internalType": "address",
							"name": "usr",
							"type": "address"
						},
						{
							"internalType": "uint256",
							"name": "wad",
							"type": "uint256"
						}
					],
					"name": "push",
					"outputs": [],
					"stateMutability": "nonpayable",
					"type": "function"
				},
				{
					"inputs": [
						{
							"internalType": "address",
							"name": "guy",
							"type": "address"
						}
					],
					"name": "rely",
					"outputs": [],
					"stateMutability": "nonpayable",
					"type": "function"
				},
				{
					"inputs": [],
					"name": "symbol",
					"outputs": [
						{
							"internalType": "string",
							"name": "",
							"type": "string"
						}
					],
					"stateMutability": "view",
					"type": "function"
				},
				{
					"inputs": [],
					"name": "totalSupply",
					"outputs": [
						{
							"internalType": "uint256",
							"name": "",
							"type": "uint256"
						}
					],
					"stateMutability": "view",
					"type": "function"
				},
				{
					"inputs": [
						{
							"internalType": "address",
							"name": "dst",
							"type": "address"
						},
						{
							"internalType": "uint256",
							"name": "wad",
							"type": "uint256"
						}
					],
					"name": "transfer",
					"outputs": [
						{
							"internalType": "bool",
							"name": "",
							"type": "bool"
						}
					],
					"stateMutability": "nonpayable",
					"type": "function"
				},
				{
					"inputs": [
						{
							"internalType": "address",
							"name": "src",
							"type": "address"
						},
						{
							"internalType": "address",
							"name": "dst",
							"type": "address"
						},
						{
							"internalType": "uint256",
							"name": "wad",
							"type": "uint256"
						}
					],
					"name": "transferFrom",
					"outputs": [
						{
							"internalType": "bool",
							"name": "",
							"type": "bool"
						}
					],
					"stateMutability": "nonpayable",
					"type": "function"
				},
				{
					"inputs": [],
					"name": "version",
					"outputs": [
						{
							"internalType": "string",
							"name": "",
							"type": "string"
						}
					],
					"stateMutability": "view",
					"type": "function"
				},
				{
					"inputs": [
						{
							"internalType": "address",
							"name": "",
							"type": "address"
						}
					],
					"name": "wards",
					"outputs": [
						{
							"internalType": "uint256",
							"name": "",
							"type": "uint256"
						}
					],
					"stateMutability": "view",
					"type": "function"
				}
			],
			"devdoc": {
				"kind": "dev",
				"methods": {},
				"version": 1
			},
			"evm": {
				"assembly": "    /* \"contracts/Online/ERC20/Dai.sol\":3079:8073  contract Dai is LibNote {... */\n  mstore(0x40, 0x80)\n    /* \"contracts/Online/ERC20/Dai.sol\":4612:4982  constructor(uint256 chainId_) {... */\n  callvalue\n  dup1\n  iszero\n  tag_1\n  jumpi\n  0x00\n  dup1\n  revert\ntag_1:\n  pop\n  mload(0x40)\n  sub(codesize, bytecodeSize)\n  dup1\n  bytecodeSize\n  dup4\n  codecopy\n  dup2\n  add\n  0x40\n  dup2\n  swap1\n  mstore\n  tag_2\n  swap2\n  tag_3\n  jump\t// in\ntag_2:\n    /* \"contracts/Online/ERC20/Dai.sol\":4659:4669  msg.sender */\n  caller\n    /* \"contracts/Online/ERC20/Dai.sol\":4653:4658  wards */\n  0x00\n    /* \"contracts/Online/ERC20/Dai.sol\":4653:4670  wards[msg.sender] */\n  swap1\n  dup2\n  mstore\n  0x20\n  dup2\n  dup2\n  mstore\n  0x40\n  swap2\n  dup3\n  swap1\n  keccak256\n    /* \"contracts/Online/ERC20/Dai.sol\":4673:4674  1 */\n  0x01\n    /* \"contracts/Online/ERC20/Dai.sol\":4653:4674  wards[msg.sender] = 1 */\n  swap1\n  dup2\n  swap1\n  sstore\n    /* \"contracts/Online/ERC20/Dai.sol\":4865:4869  name */\n  dup3\n  mload\n  dup1\n  dup5\n  add\n  dup5\n  mstore\n  0x0e\n  dup2\n  mstore\n  shl(0x91, 0x2230b49029ba30b13632b1b7b4b7)\n  swap1\n  dup4\n  add\n  mstore\n    /* \"contracts/Online/ERC20/Dai.sol\":4902:4909  version */\n  dup3\n  mload\n  dup1\n  dup5\n  add\n  dup5\n  mstore\n  swap1\n  dup2\n  mstore\n  shl(0xf8, 0x31)\n  swap1\n  dup3\n  add\n  mstore\n    /* \"contracts/Online/ERC20/Dai.sol\":4714:4973  abi.encode(... */\n  dup2\n  mload\n    /* \"contracts/Online/ERC20/Dai.sol\":4739:4834  keccak256(\"EIP712Domain(string name,string version,uint256 chainId,address verifyingContract)\") */\n  0x8b73c3c69bb8fe3d512ecc4cf759cc79239f7b179b0ffacaa9a75d522b39400f\n    /* \"contracts/Online/ERC20/Dai.sol\":4714:4973  abi.encode(... */\n  dup2\n  dup4\n  add\n    /* \"#utility.yul\":462:487   */\n  mstore\n    /* \"contracts/Online/ERC20/Dai.sol\":4849:4871  keccak256(bytes(name)) */\n  0x0b1461ddc0c1d5ded79a1db0f74dae949050a7c0b28728c724b24958c27a328b\n    /* \"#utility.yul\":503:521   */\n  dup2\n  dup5\n  add\n    /* \"#utility.yul\":496:530   */\n  mstore\n    /* \"contracts/Online/ERC20/Dai.sol\":4886:4911  keccak256(bytes(version)) */\n  0xc89efdaa54c0f20c7adf612882df0950f5a951637e0307cdcb4c672f298b8bc6\n    /* \"#utility.yul\":546:564   */\n  0x60\n  dup3\n  add\n    /* \"#utility.yul\":539:573   */\n  mstore\n    /* \"#utility.yul\":589:607   */\n  0x80\n  dup2\n  add\n    /* \"#utility.yul\":582:616   */\n  swap4\n  swap1\n  swap4\n  mstore\n    /* \"contracts/Online/ERC20/Dai.sol\":4957:4961  this */\n  address\n    /* \"#utility.yul\":632:651   */\n  0xa0\n  dup1\n  dup6\n  add\n    /* \"#utility.yul\":625:686   */\n  swap2\n  swap1\n  swap2\n  mstore\n    /* \"contracts/Online/ERC20/Dai.sol\":4714:4973  abi.encode(... */\n  dup3\n  mload\n  dup1\n  dup6\n  sub\n  swap1\n  swap2\n  add\n  dup2\n  mstore\n    /* \"#utility.yul\":434:453   */\n  0xc0\n  swap1\n  swap4\n  add\n    /* \"contracts/Online/ERC20/Dai.sol\":4714:4973  abi.encode(... */\n  swap1\n  swap2\n  mstore\n    /* \"contracts/Online/ERC20/Dai.sol\":4704:4974  keccak256(abi.encode(... */\n  dup2\n  mload\n  swap2\n  add\n  keccak256\n    /* \"contracts/Online/ERC20/Dai.sol\":4685:4701  DOMAIN_SEPARATOR */\n  0x05\n    /* \"contracts/Online/ERC20/Dai.sol\":4685:4974  DOMAIN_SEPARATOR = keccak256(abi.encode(... */\n  sstore\n    /* \"contracts/Online/ERC20/Dai.sol\":3079:8073  contract Dai is LibNote {... */\n  jump(tag_9)\n    /* \"#utility.yul\":14:198   */\ntag_3:\n    /* \"#utility.yul\":84:90   */\n  0x00\n    /* \"#utility.yul\":137:139   */\n  0x20\n    /* \"#utility.yul\":125:134   */\n  dup3\n    /* \"#utility.yul\":116:123   */\n  dup5\n    /* \"#utility.yul\":112:135   */\n  sub\n    /* \"#utility.yul\":108:140   */\n  slt\n    /* \"#utility.yul\":105:157   */\n  iszero\n  tag_11\n  jumpi\n    /* \"#utility.yul\":153:154   */\n  0x00\n    /* \"#utility.yul\":150:151   */\n  dup1\n    /* \"#utility.yul\":143:155   */\n  revert\n    /* \"#utility.yul\":105:157   */\ntag_11:\n  pop\n    /* \"#utility.yul\":176:192   */\n  mload\n  swap2\n    /* \"#utility.yul\":14:198   */\n  swap1\n  pop\n  jump\t// out\n    /* \"#utility.yul\":203:692   */\ntag_9:\n    /* \"contracts/Online/ERC20/Dai.sol\":3079:8073  contract Dai is LibNote {... */\n  dataSize(sub_0)\n  dup1\n  dataOffset(sub_0)\n  0x00\n  codecopy\n  0x00\n  return\nstop\n\nsub_0: assembly {\n        /* \"contracts/Online/ERC20/Dai.sol\":3079:8073  contract Dai is LibNote {... */\n      mstore(0x40, 0x80)\n      callvalue\n      dup1\n      iszero\n      tag_1\n      jumpi\n      0x00\n      dup1\n      revert\n    tag_1:\n      pop\n      jumpi(tag_2, lt(calldatasize, 0x04))\n      shr(0xe0, calldataload(0x00))\n      dup1\n      0x7ecebe00\n      gt\n      tag_25\n      jumpi\n      dup1\n      0xa9059cbb\n      gt\n      tag_26\n      jumpi\n      dup1\n      0xa9059cbb\n      eq\n      tag_19\n      jumpi\n      dup1\n      0xb753a98c\n      eq\n      tag_20\n      jumpi\n      dup1\n      0xbb35783b\n      eq\n      tag_21\n      jumpi\n      dup1\n      0xbf353dbb\n      eq\n      tag_22\n      jumpi\n      dup1\n      0xdd62ed3e\n      eq\n      tag_23\n      jumpi\n      dup1\n      0xf2d5d56b\n      eq\n      tag_24\n      jumpi\n      0x00\n      dup1\n      revert\n    tag_26:\n      dup1\n      0x7ecebe00\n      eq\n      tag_14\n      jumpi\n      dup1\n      0x8fcbaf0c\n      eq\n      tag_15\n      jumpi\n      dup1\n      0x95d89b41\n      eq\n      tag_16\n      jumpi\n      dup1\n      0x9c52a7f1\n      eq\n      tag_17\n      jumpi\n      dup1\n      0x9dc29fac\n      eq\n      tag_18\n      jumpi\n      0x00\n      dup1\n      revert\n    tag_25:\n      dup1\n      0x313ce567\n      gt\n      tag_27\n      jumpi\n      dup1\n      0x313ce567\n      eq\n      tag_8\n      jumpi\n      dup1\n      0x3644e515\n      eq\n      tag_9\n      jumpi\n      dup1\n      0x40c10f19\n      eq\n      tag_10\n      jumpi\n      dup1\n      0x54fd4d50\n      eq\n      tag_11\n      jumpi\n      dup1\n      0x65fae35e\n      eq\n      tag_12\n      jumpi\n      dup1\n      0x70a08231\n      eq\n      tag_13\n      jumpi\n      0x00\n      dup1\n      revert\n    tag_27:\n      dup1\n      0x06fdde03\n      eq\n      tag_3\n      jumpi\n      dup1\n      0x095ea7b3\n      eq\n      tag_4\n      jumpi\n      dup1\n      0x18160ddd\n      eq\n      tag_5\n      jumpi\n      dup1\n      0x23b872dd\n      eq\n      tag_6\n      jumpi\n      dup1\n      0x30adf81f\n      eq\n      tag_7\n      jumpi\n    tag_2:\n      0x00\n      dup1\n      revert\n        /* \"contracts/Online/ERC20/Dai.sol\":3451:3502  string  public constant name     = \"Dai Stablecoin\" */\n    tag_3:\n      tag_28\n      mload(0x40)\n      dup1\n      0x40\n      add\n      0x40\n      mstore\n      dup1\n      0x0e\n      dup2\n      mstore\n      0x20\n      add\n      shl(0x91, 0x2230b49029ba30b13632b1b7b4b7)\n      dup2\n      mstore\n      pop\n      dup2\n      jump\n    tag_28:\n      mload(0x40)\n      tag_30\n      swap2\n      swap1\n      tag_31\n      jump\t// in\n    tag_30:\n      mload(0x40)\n      dup1\n      swap2\n      sub\n      swap1\n      return\n        /* \"contracts/Online/ERC20/Dai.sol\":6479:6662  function approve(address usr, uint wad) external returns (bool) {... */\n    tag_4:\n      tag_32\n      tag_33\n      calldatasize\n      0x04\n      tag_34\n      jump\t// in\n    tag_33:\n      tag_35\n      jump\t// in\n    tag_32:\n      mload(0x40)\n        /* \"#utility.yul\":1085:1099   */\n      swap1\n      iszero\n        /* \"#utility.yul\":1078:1100   */\n      iszero\n        /* \"#utility.yul\":1060:1101   */\n      dup2\n      mstore\n        /* \"#utility.yul\":1048:1050   */\n      0x20\n        /* \"#utility.yul\":1033:1051   */\n      add\n        /* \"contracts/Online/ERC20/Dai.sol\":6479:6662  function approve(address usr, uint wad) external returns (bool) {... */\n      tag_30\n        /* \"#utility.yul\":920:1107   */\n      jump\n        /* \"contracts/Online/ERC20/Dai.sol\":3645:3671  uint256 public totalSupply */\n    tag_5:\n      tag_38\n      sload(0x01)\n      dup2\n      jump\n    tag_38:\n      mload(0x40)\n        /* \"#utility.yul\":1258:1283   */\n      swap1\n      dup2\n      mstore\n        /* \"#utility.yul\":1246:1248   */\n      0x20\n        /* \"#utility.yul\":1231:1249   */\n      add\n        /* \"contracts/Online/ERC20/Dai.sol\":3645:3671  uint256 public totalSupply */\n      tag_30\n        /* \"#utility.yul\":1112:1289   */\n      jump\n        /* \"contracts/Online/ERC20/Dai.sol\":5143:5732  function transferFrom(address src, address dst, uint wad)... */\n    tag_6:\n      tag_32\n      tag_43\n      calldatasize\n      0x04\n      tag_44\n      jump\t// in\n    tag_43:\n      tag_45\n      jump\t// in\n        /* \"contracts/Online/ERC20/Dai.sol\":4495:4603  bytes32 public constant PERMIT_TYPEHASH = 0xea2aa0a1be11a07ed86d755c93467f4f82362b452371d1ba94d1715123511acb */\n    tag_7:\n      tag_38\n        /* \"contracts/Online/ERC20/Dai.sol\":4537:4603  0xea2aa0a1be11a07ed86d755c93467f4f82362b452371d1ba94d1715123511acb */\n      0xea2aa0a1be11a07ed86d755c93467f4f82362b452371d1ba94d1715123511acb\n        /* \"contracts/Online/ERC20/Dai.sol\":4495:4603  bytes32 public constant PERMIT_TYPEHASH = 0xea2aa0a1be11a07ed86d755c93467f4f82362b452371d1ba94d1715123511acb */\n      dup2\n      jump\n        /* \"contracts/Online/ERC20/Dai.sol\":3601:3638  uint8   public constant decimals = 18 */\n    tag_8:\n      tag_51\n        /* \"contracts/Online/ERC20/Dai.sol\":3636:3638  18 */\n      0x12\n        /* \"contracts/Online/ERC20/Dai.sol\":3601:3638  uint8   public constant decimals = 18 */\n      dup2\n      jump\n    tag_51:\n      mload(0x40)\n        /* \"#utility.yul\":2027:2031   */\n      0xff\n        /* \"#utility.yul\":2015:2032   */\n      swap1\n      swap2\n      and\n        /* \"#utility.yul\":1997:2033   */\n      dup2\n      mstore\n        /* \"#utility.yul\":1985:1987   */\n      0x20\n        /* \"#utility.yul\":1970:1988   */\n      add\n        /* \"contracts/Online/ERC20/Dai.sol\":3601:3638  uint8   public constant decimals = 18 */\n      tag_30\n        /* \"#utility.yul\":1855:2039   */\n      jump\n        /* \"contracts/Online/ERC20/Dai.sol\":4312:4343  bytes32 public DOMAIN_SEPARATOR */\n    tag_9:\n      tag_38\n      sload(0x05)\n      dup2\n      jump\n        /* \"contracts/Online/ERC20/Dai.sol\":5738:5944  function mint(address usr, uint wad) external auth {... */\n    tag_10:\n      tag_58\n      tag_59\n      calldatasize\n      0x04\n      tag_34\n      jump\t// in\n    tag_59:\n      tag_60\n      jump\t// in\n    tag_58:\n      stop\n        /* \"contracts/Online/ERC20/Dai.sol\":3556:3594  string  public constant version  = \"1\" */\n    tag_11:\n      tag_28\n      mload(0x40)\n      dup1\n      0x40\n      add\n      0x40\n      mstore\n      dup1\n      0x01\n      dup2\n      mstore\n      0x20\n      add\n      shl(0xf8, 0x31)\n      dup2\n      mstore\n      pop\n      dup2\n      jump\n        /* \"contracts/Online/ERC20/Dai.sol\":3176:3241  function rely(address guy) external note auth { wards[guy] = 1; } */\n    tag_12:\n      tag_58\n      tag_65\n      calldatasize\n      0x04\n      tag_66\n      jump\t// in\n    tag_65:\n      tag_67\n      jump\t// in\n        /* \"contracts/Online/ERC20/Dai.sol\":3680:3743  mapping (address => uint)                      public balanceOf */\n    tag_13:\n      tag_38\n      tag_69\n      calldatasize\n      0x04\n      tag_66\n      jump\t// in\n    tag_69:\n      mstore(0x20, 0x02)\n      0x00\n      swap1\n      dup2\n      mstore\n      0x40\n      swap1\n      keccak256\n      sload\n      dup2\n      jump\n        /* \"contracts/Online/ERC20/Dai.sol\":3820:3880  mapping (address => uint)                      public nonces */\n    tag_14:\n      tag_38\n      tag_73\n      calldatasize\n      0x04\n      tag_66\n      jump\t// in\n    tag_73:\n      mstore(0x20, 0x04)\n      0x00\n      swap1\n      dup2\n      mstore\n      0x40\n      swap1\n      keccak256\n      sload\n      dup2\n      jump\n        /* \"contracts/Online/ERC20/Dai.sol\":7052:8070  function permit(address holder, address spender, uint256 nonce, uint256 expiry,... */\n    tag_15:\n      tag_58\n      tag_77\n      calldatasize\n      0x04\n      tag_78\n      jump\t// in\n    tag_77:\n      tag_79\n      jump\t// in\n        /* \"contracts/Online/ERC20/Dai.sol\":3509:3549  string  public constant symbol   = \"DAI\" */\n    tag_16:\n      tag_28\n      mload(0x40)\n      dup1\n      0x40\n      add\n      0x40\n      mstore\n      dup1\n      0x03\n      dup2\n      mstore\n      0x20\n      add\n      shl(0xe8, 0x444149)\n      dup2\n      mstore\n      pop\n      dup2\n      jump\n        /* \"contracts/Online/ERC20/Dai.sol\":3247:3312  function deny(address guy) external note auth { wards[guy] = 0; } */\n    tag_17:\n      tag_58\n      tag_84\n      calldatasize\n      0x04\n      tag_66\n      jump\t// in\n    tag_84:\n      tag_85\n      jump\t// in\n        /* \"contracts/Online/ERC20/Dai.sol\":5950:6473  function burn(address usr, uint wad) external {... */\n    tag_18:\n      tag_58\n      tag_87\n      calldatasize\n      0x04\n      tag_34\n      jump\t// in\n    tag_87:\n      tag_88\n      jump\t// in\n        /* \"contracts/Online/ERC20/Dai.sol\":5012:5137  function transfer(address dst, uint wad) external returns (bool) {... */\n    tag_19:\n      tag_32\n      tag_90\n      calldatasize\n      0x04\n      tag_34\n      jump\t// in\n    tag_90:\n      tag_91\n      jump\t// in\n        /* \"contracts/Online/ERC20/Dai.sol\":6692:6791  function push(address usr, uint wad) external {... */\n    tag_20:\n      tag_58\n      tag_94\n      calldatasize\n      0x04\n      tag_34\n      jump\t// in\n    tag_94:\n      tag_95\n      jump\t// in\n        /* \"contracts/Online/ERC20/Dai.sol\":6902:7007  function move(address src, address dst, uint wad) external {... */\n    tag_21:\n      tag_58\n      tag_97\n      calldatasize\n      0x04\n      tag_44\n      jump\t// in\n    tag_97:\n      tag_98\n      jump\t// in\n        /* \"contracts/Online/ERC20/Dai.sol\":3131:3169  mapping (address => uint) public wards */\n    tag_22:\n      tag_38\n      tag_100\n      calldatasize\n      0x04\n      tag_66\n      jump\t// in\n    tag_100:\n      0x00\n      0x20\n      dup2\n      swap1\n      mstore\n      swap1\n      dup2\n      mstore\n      0x40\n      swap1\n      keccak256\n      sload\n      dup2\n      jump\n        /* \"contracts/Online/ERC20/Dai.sol\":3750:3813  mapping (address => mapping (address => uint)) public allowance */\n    tag_23:\n      tag_38\n      tag_104\n      calldatasize\n      0x04\n      tag_105\n      jump\t// in\n    tag_104:\n      0x03\n      0x20\n      swap1\n      dup2\n      mstore\n      0x00\n      swap3\n      dup4\n      mstore\n      0x40\n      dup1\n      dup5\n      keccak256\n      swap1\n      swap2\n      mstore\n      swap1\n      dup3\n      mstore\n      swap1\n      keccak256\n      sload\n      dup2\n      jump\n        /* \"contracts/Online/ERC20/Dai.sol\":6797:6896  function pull(address usr, uint wad) external {... */\n    tag_24:\n      tag_58\n      tag_109\n      calldatasize\n      0x04\n      tag_34\n      jump\t// in\n    tag_109:\n      tag_110\n      jump\t// in\n        /* \"contracts/Online/ERC20/Dai.sol\":6479:6662  function approve(address usr, uint wad) external returns (bool) {... */\n    tag_35:\n        /* \"contracts/Online/ERC20/Dai.sol\":6564:6574  msg.sender */\n      caller\n        /* \"contracts/Online/ERC20/Dai.sol\":6537:6541  bool */\n      0x00\n        /* \"contracts/Online/ERC20/Dai.sol\":6554:6575  allowance[msg.sender] */\n      dup2\n      dup2\n      mstore\n        /* \"contracts/Online/ERC20/Dai.sol\":6554:6563  allowance */\n      0x03\n        /* \"contracts/Online/ERC20/Dai.sol\":6554:6575  allowance[msg.sender] */\n      0x20\n      swap1\n      dup2\n      mstore\n      0x40\n      dup1\n      dup4\n      keccak256\n      sub(shl(0xa0, 0x01), 0x01)\n        /* \"contracts/Online/ERC20/Dai.sol\":6554:6580  allowance[msg.sender][usr] */\n      dup8\n      and\n      dup1\n      dup6\n      mstore\n      swap3\n      mstore\n      dup1\n      dup4\n      keccak256\n        /* \"contracts/Online/ERC20/Dai.sol\":6554:6586  allowance[msg.sender][usr] = wad */\n      dup6\n      swap1\n      sstore\n        /* \"contracts/Online/ERC20/Dai.sol\":6602:6632  Approval(msg.sender, usr, wad) */\n      mload\n        /* \"contracts/Online/ERC20/Dai.sol\":6537:6541  bool */\n      swap2\n      swap3\n        /* \"contracts/Online/ERC20/Dai.sol\":6554:6580  allowance[msg.sender][usr] */\n      swap1\n      swap2\n        /* \"contracts/Online/ERC20/Dai.sol\":6602:6632  Approval(msg.sender, usr, wad) */\n      0x8c5be1e5ebec7d5bd14f71427d1e84f3dd0314c0f7b2291e5b200ac8c7c3b925\n      swap1\n      tag_112\n      swap1\n        /* \"contracts/Online/ERC20/Dai.sol\":6583:6586  wad */\n      dup7\n        /* \"#utility.yul\":1258:1283   */\n      dup2\n      mstore\n        /* \"#utility.yul\":1246:1248   */\n      0x20\n        /* \"#utility.yul\":1231:1249   */\n      add\n      swap1\n        /* \"#utility.yul\":1112:1289   */\n      jump\n        /* \"contracts/Online/ERC20/Dai.sol\":6602:6632  Approval(msg.sender, usr, wad) */\n    tag_112:\n      mload(0x40)\n      dup1\n      swap2\n      sub\n      swap1\n      log3\n      pop\n        /* \"contracts/Online/ERC20/Dai.sol\":6650:6654  true */\n      0x01\n        /* \"contracts/Online/ERC20/Dai.sol\":6479:6662  function approve(address usr, uint wad) external returns (bool) {... */\n    tag_111:\n      swap3\n      swap2\n      pop\n      pop\n      jump\t// out\n        /* \"contracts/Online/ERC20/Dai.sol\":5143:5732  function transferFrom(address src, address dst, uint wad)... */\n    tag_45:\n      sub(shl(0xa0, 0x01), 0x01)\n        /* \"contracts/Online/ERC20/Dai.sol\":5256:5270  balanceOf[src] */\n      dup4\n      and\n        /* \"contracts/Online/ERC20/Dai.sol\":5226:5230  bool */\n      0x00\n        /* \"contracts/Online/ERC20/Dai.sol\":5256:5270  balanceOf[src] */\n      swap1\n      dup2\n      mstore\n        /* \"contracts/Online/ERC20/Dai.sol\":5256:5265  balanceOf */\n      0x02\n        /* \"contracts/Online/ERC20/Dai.sol\":5256:5270  balanceOf[src] */\n      0x20\n      mstore\n      0x40\n      dup2\n      keccak256\n      sload\n        /* \"contracts/Online/ERC20/Dai.sol\":5256:5277  balanceOf[src] >= wad */\n      dup3\n      gt\n      iszero\n        /* \"contracts/Online/ERC20/Dai.sol\":5248:5306  require(balanceOf[src] >= wad, \"Dai/insufficient-balance\") */\n      tag_114\n      jumpi\n      mload(0x40)\n      shl(0xe5, 0x461bcd)\n      dup2\n      mstore\n        /* \"#utility.yul\":3780:3782   */\n      0x20\n        /* \"contracts/Online/ERC20/Dai.sol\":5248:5306  require(balanceOf[src] >= wad, \"Dai/insufficient-balance\") */\n      0x04\n      dup3\n      add\n        /* \"#utility.yul\":3762:3783   */\n      mstore\n        /* \"#utility.yul\":3819:3821   */\n      0x18\n        /* \"#utility.yul\":3799:3817   */\n      0x24\n      dup3\n      add\n        /* \"#utility.yul\":3792:3822   */\n      mstore\n      shl(0x40, 0x4461692f696e73756666696369656e742d62616c616e6365)\n        /* \"#utility.yul\":3838:3856   */\n      0x44\n      dup3\n      add\n        /* \"#utility.yul\":3831:3885   */\n      mstore\n        /* \"#utility.yul\":3902:3920   */\n      0x64\n      add\n        /* \"contracts/Online/ERC20/Dai.sol\":5248:5306  require(balanceOf[src] >= wad, \"Dai/insufficient-balance\") */\n    tag_115:\n      mload(0x40)\n      dup1\n      swap2\n      sub\n      swap1\n      revert\n    tag_114:\n      sub(shl(0xa0, 0x01), 0x01)\n        /* \"contracts/Online/ERC20/Dai.sol\":5321:5338  src != msg.sender */\n      dup5\n      and\n        /* \"contracts/Online/ERC20/Dai.sol\":5328:5338  msg.sender */\n      caller\n        /* \"contracts/Online/ERC20/Dai.sol\":5321:5338  src != msg.sender */\n      eq\n      dup1\n      iszero\n      swap1\n        /* \"contracts/Online/ERC20/Dai.sol\":5321:5379  src != msg.sender && allowance[src][msg.sender] != uint(0) */\n      tag_117\n      jumpi\n      pop\n      sub(shl(0xa0, 0x01), 0x01)\n        /* \"contracts/Online/ERC20/Dai.sol\":5342:5356  allowance[src] */\n      dup5\n      and\n        /* \"contracts/Online/ERC20/Dai.sol\":5377:5378  0 */\n      0x00\n        /* \"contracts/Online/ERC20/Dai.sol\":5342:5356  allowance[src] */\n      swap1\n      dup2\n      mstore\n        /* \"contracts/Online/ERC20/Dai.sol\":5342:5351  allowance */\n      0x03\n        /* \"contracts/Online/ERC20/Dai.sol\":5342:5356  allowance[src] */\n      0x20\n      swap1\n      dup2\n      mstore\n      0x40\n      dup1\n      dup4\n      keccak256\n        /* \"contracts/Online/ERC20/Dai.sol\":5357:5367  msg.sender */\n      caller\n        /* \"contracts/Online/ERC20/Dai.sol\":5342:5368  allowance[src][msg.sender] */\n      dup5\n      mstore\n      swap1\n      swap2\n      mstore\n      swap1\n      keccak256\n      sload\n        /* \"contracts/Online/ERC20/Dai.sol\":5342:5379  allowance[src][msg.sender] != uint(0) */\n      iszero\n      iszero\n        /* \"contracts/Online/ERC20/Dai.sol\":5321:5379  src != msg.sender && allowance[src][msg.sender] != uint(0) */\n    tag_117:\n        /* \"contracts/Online/ERC20/Dai.sol\":5317:5560  if (src != msg.sender && allowance[src][msg.sender] != uint(0)) {... */\n      iszero\n      tag_118\n      jumpi\n      sub(shl(0xa0, 0x01), 0x01)\n        /* \"contracts/Online/ERC20/Dai.sol\":5404:5418  allowance[src] */\n      dup5\n      and\n      0x00\n      swap1\n      dup2\n      mstore\n        /* \"contracts/Online/ERC20/Dai.sol\":5404:5413  allowance */\n      0x03\n        /* \"contracts/Online/ERC20/Dai.sol\":5404:5418  allowance[src] */\n      0x20\n      swap1\n      dup2\n      mstore\n      0x40\n      dup1\n      dup4\n      keccak256\n        /* \"contracts/Online/ERC20/Dai.sol\":5419:5429  msg.sender */\n      caller\n        /* \"contracts/Online/ERC20/Dai.sol\":5404:5430  allowance[src][msg.sender] */\n      dup5\n      mstore\n      swap1\n      swap2\n      mstore\n      swap1\n      keccak256\n      sload\n        /* \"contracts/Online/ERC20/Dai.sol\":5404:5437  allowance[src][msg.sender] >= wad */\n      dup3\n      gt\n      iszero\n        /* \"contracts/Online/ERC20/Dai.sol\":5396:5468  require(allowance[src][msg.sender] >= wad, \"Dai/insufficient-allowance\") */\n      tag_119\n      jumpi\n      mload(0x40)\n      shl(0xe5, 0x461bcd)\n      dup2\n      mstore\n        /* \"#utility.yul\":4133:4135   */\n      0x20\n        /* \"contracts/Online/ERC20/Dai.sol\":5396:5468  require(allowance[src][msg.sender] >= wad, \"Dai/insufficient-allowance\") */\n      0x04\n      dup3\n      add\n        /* \"#utility.yul\":4115:4136   */\n      mstore\n        /* \"#utility.yul\":4172:4174   */\n      0x1a\n        /* \"#utility.yul\":4152:4170   */\n      0x24\n      dup3\n      add\n        /* \"#utility.yul\":4145:4175   */\n      mstore\n        /* \"#utility.yul\":4211:4239   */\n      0x4461692f696e73756666696369656e742d616c6c6f77616e6365000000000000\n        /* \"#utility.yul\":4191:4209   */\n      0x44\n      dup3\n      add\n        /* \"#utility.yul\":4184:4240   */\n      mstore\n        /* \"#utility.yul\":4257:4275   */\n      0x64\n      add\n        /* \"contracts/Online/ERC20/Dai.sol\":5396:5468  require(allowance[src][msg.sender] >= wad, \"Dai/insufficient-allowance\") */\n      tag_115\n        /* \"#utility.yul\":3931:4281   */\n      jump\n        /* \"contracts/Online/ERC20/Dai.sol\":5396:5468  require(allowance[src][msg.sender] >= wad, \"Dai/insufficient-allowance\") */\n    tag_119:\n      sub(shl(0xa0, 0x01), 0x01)\n        /* \"contracts/Online/ERC20/Dai.sol\":5516:5530  allowance[src] */\n      dup5\n      and\n      0x00\n      swap1\n      dup2\n      mstore\n        /* \"contracts/Online/ERC20/Dai.sol\":5516:5525  allowance */\n      0x03\n        /* \"contracts/Online/ERC20/Dai.sol\":5516:5530  allowance[src] */\n      0x20\n      swap1\n      dup2\n      mstore\n      0x40\n      dup1\n      dup4\n      keccak256\n        /* \"contracts/Online/ERC20/Dai.sol\":5531:5541  msg.sender */\n      caller\n        /* \"contracts/Online/ERC20/Dai.sol\":5516:5542  allowance[src][msg.sender] */\n      dup5\n      mstore\n      swap1\n      swap2\n      mstore\n      swap1\n      keccak256\n      sload\n        /* \"contracts/Online/ERC20/Dai.sol\":5512:5548  sub(allowance[src][msg.sender], wad) */\n      tag_122\n      swap1\n        /* \"contracts/Online/ERC20/Dai.sol\":5544:5547  wad */\n      dup4\n        /* \"contracts/Online/ERC20/Dai.sol\":5512:5515  sub */\n      tag_123\n        /* \"contracts/Online/ERC20/Dai.sol\":5512:5548  sub(allowance[src][msg.sender], wad) */\n      jump\t// in\n    tag_122:\n      sub(shl(0xa0, 0x01), 0x01)\n        /* \"contracts/Online/ERC20/Dai.sol\":5483:5497  allowance[src] */\n      dup6\n      and\n      0x00\n      swap1\n      dup2\n      mstore\n        /* \"contracts/Online/ERC20/Dai.sol\":5483:5492  allowance */\n      0x03\n        /* \"contracts/Online/ERC20/Dai.sol\":5483:5497  allowance[src] */\n      0x20\n      swap1\n      dup2\n      mstore\n      0x40\n      dup1\n      dup4\n      keccak256\n        /* \"contracts/Online/ERC20/Dai.sol\":5498:5508  msg.sender */\n      caller\n        /* \"contracts/Online/ERC20/Dai.sol\":5483:5509  allowance[src][msg.sender] */\n      dup5\n      mstore\n      swap1\n      swap2\n      mstore\n      swap1\n      keccak256\n        /* \"contracts/Online/ERC20/Dai.sol\":5483:5548  allowance[src][msg.sender] = sub(allowance[src][msg.sender], wad) */\n      sstore\n        /* \"contracts/Online/ERC20/Dai.sol\":5317:5560  if (src != msg.sender && allowance[src][msg.sender] != uint(0)) {... */\n    tag_118:\n      sub(shl(0xa0, 0x01), 0x01)\n        /* \"contracts/Online/ERC20/Dai.sol\":5591:5605  balanceOf[src] */\n      dup5\n      and\n      0x00\n      swap1\n      dup2\n      mstore\n        /* \"contracts/Online/ERC20/Dai.sol\":5591:5600  balanceOf */\n      0x02\n        /* \"contracts/Online/ERC20/Dai.sol\":5591:5605  balanceOf[src] */\n      0x20\n      mstore\n      0x40\n      swap1\n      keccak256\n      sload\n        /* \"contracts/Online/ERC20/Dai.sol\":5587:5611  sub(balanceOf[src], wad) */\n      tag_124\n      swap1\n        /* \"contracts/Online/ERC20/Dai.sol\":5607:5610  wad */\n      dup4\n        /* \"contracts/Online/ERC20/Dai.sol\":5587:5590  sub */\n      tag_123\n        /* \"contracts/Online/ERC20/Dai.sol\":5587:5611  sub(balanceOf[src], wad) */\n      jump\t// in\n    tag_124:\n      sub(shl(0xa0, 0x01), 0x01)\n        /* \"contracts/Online/ERC20/Dai.sol\":5570:5584  balanceOf[src] */\n      dup1\n      dup7\n      and\n      0x00\n      swap1\n      dup2\n      mstore\n        /* \"contracts/Online/ERC20/Dai.sol\":5570:5579  balanceOf */\n      0x02\n        /* \"contracts/Online/ERC20/Dai.sol\":5570:5584  balanceOf[src] */\n      0x20\n      mstore\n      0x40\n      dup1\n      dup3\n      keccak256\n        /* \"contracts/Online/ERC20/Dai.sol\":5570:5611  balanceOf[src] = sub(balanceOf[src], wad) */\n      swap4\n      swap1\n      swap4\n      sstore\n        /* \"contracts/Online/ERC20/Dai.sol\":5643:5657  balanceOf[dst] */\n      swap1\n      dup6\n      and\n      dup2\n      mstore\n      keccak256\n      sload\n        /* \"contracts/Online/ERC20/Dai.sol\":5639:5663  add(balanceOf[dst], wad) */\n      tag_125\n      swap1\n        /* \"contracts/Online/ERC20/Dai.sol\":5659:5662  wad */\n      dup4\n        /* \"contracts/Online/ERC20/Dai.sol\":5639:5642  add */\n      tag_126\n        /* \"contracts/Online/ERC20/Dai.sol\":5639:5663  add(balanceOf[dst], wad) */\n      jump\t// in\n    tag_125:\n      sub(shl(0xa0, 0x01), 0x01)\n        /* \"contracts/Online/ERC20/Dai.sol\":5622:5636  balanceOf[dst] */\n      dup1\n      dup6\n      and\n      0x00\n      dup2\n      dup2\n      mstore\n        /* \"contracts/Online/ERC20/Dai.sol\":5622:5631  balanceOf */\n      0x02\n        /* \"contracts/Online/ERC20/Dai.sol\":5622:5636  balanceOf[dst] */\n      0x20\n      mstore\n      0x40\n      swap1\n      dup2\n      swap1\n      keccak256\n        /* \"contracts/Online/ERC20/Dai.sol\":5622:5663  balanceOf[dst] = add(balanceOf[dst], wad) */\n      swap4\n      swap1\n      swap4\n      sstore\n        /* \"contracts/Online/ERC20/Dai.sol\":5679:5702  Transfer(src, dst, wad) */\n      swap2\n      mload\n      swap1\n      dup7\n      and\n      swap1\n      0xddf252ad1be2c89b69c2b068fc378daa952ba7f163c4a11628f55a4df523b3ef\n      swap1\n      tag_127\n      swap1\n        /* \"contracts/Online/ERC20/Dai.sol\":5698:5701  wad */\n      dup7\n        /* \"#utility.yul\":1258:1283   */\n      dup2\n      mstore\n        /* \"#utility.yul\":1246:1248   */\n      0x20\n        /* \"#utility.yul\":1231:1249   */\n      add\n      swap1\n        /* \"#utility.yul\":1112:1289   */\n      jump\n        /* \"contracts/Online/ERC20/Dai.sol\":5679:5702  Transfer(src, dst, wad) */\n    tag_127:\n      mload(0x40)\n      dup1\n      swap2\n      sub\n      swap1\n      log3\n      pop\n        /* \"contracts/Online/ERC20/Dai.sol\":5720:5724  true */\n      0x01\n        /* \"contracts/Online/ERC20/Dai.sol\":5143:5732  function transferFrom(address src, address dst, uint wad)... */\n      swap4\n      swap3\n      pop\n      pop\n      pop\n      jump\t// out\n        /* \"contracts/Online/ERC20/Dai.sol\":5738:5944  function mint(address usr, uint wad) external auth {... */\n    tag_60:\n        /* \"contracts/Online/ERC20/Dai.sol\":3357:3367  msg.sender */\n      caller\n        /* \"contracts/Online/ERC20/Dai.sol\":3351:3356  wards */\n      0x00\n        /* \"contracts/Online/ERC20/Dai.sol\":3351:3368  wards[msg.sender] */\n      swap1\n      dup2\n      mstore\n      0x20\n      dup2\n      swap1\n      mstore\n      0x40\n      swap1\n      keccak256\n      sload\n        /* \"contracts/Online/ERC20/Dai.sol\":3372:3373  1 */\n      0x01\n        /* \"contracts/Online/ERC20/Dai.sol\":3351:3373  wards[msg.sender] == 1 */\n      eq\n        /* \"contracts/Online/ERC20/Dai.sol\":3343:3396  require(wards[msg.sender] == 1, \"Dai/not-authorized\") */\n      tag_129\n      jumpi\n      mload(0x40)\n      shl(0xe5, 0x461bcd)\n      dup2\n      mstore\n      0x04\n      add\n      tag_115\n      swap1\n      tag_131\n      jump\t// in\n    tag_129:\n      sub(shl(0xa0, 0x01), 0x01)\n        /* \"contracts/Online/ERC20/Dai.sol\":5821:5835  balanceOf[usr] */\n      dup3\n      and\n      0x00\n      swap1\n      dup2\n      mstore\n        /* \"contracts/Online/ERC20/Dai.sol\":5821:5830  balanceOf */\n      0x02\n        /* \"contracts/Online/ERC20/Dai.sol\":5821:5835  balanceOf[usr] */\n      0x20\n      mstore\n      0x40\n      swap1\n      keccak256\n      sload\n        /* \"contracts/Online/ERC20/Dai.sol\":5817:5841  add(balanceOf[usr], wad) */\n      tag_133\n      swap1\n        /* \"contracts/Online/ERC20/Dai.sol\":5837:5840  wad */\n      dup3\n        /* \"contracts/Online/ERC20/Dai.sol\":5817:5820  add */\n      tag_126\n        /* \"contracts/Online/ERC20/Dai.sol\":5817:5841  add(balanceOf[usr], wad) */\n      jump\t// in\n    tag_133:\n      sub(shl(0xa0, 0x01), 0x01)\n        /* \"contracts/Online/ERC20/Dai.sol\":5800:5814  balanceOf[usr] */\n      dup4\n      and\n      0x00\n      swap1\n      dup2\n      mstore\n        /* \"contracts/Online/ERC20/Dai.sol\":5800:5809  balanceOf */\n      0x02\n        /* \"contracts/Online/ERC20/Dai.sol\":5800:5814  balanceOf[usr] */\n      0x20\n      mstore\n      0x40\n      swap1\n      keccak256\n        /* \"contracts/Online/ERC20/Dai.sol\":5800:5841  balanceOf[usr] = add(balanceOf[usr], wad) */\n      sstore\n        /* \"contracts/Online/ERC20/Dai.sol\":5873:5884  totalSupply */\n      sload(0x01)\n        /* \"contracts/Online/ERC20/Dai.sol\":5869:5890  add(totalSupply, wad) */\n      tag_134\n      swap1\n        /* \"contracts/Online/ERC20/Dai.sol\":5886:5889  wad */\n      dup3\n        /* \"contracts/Online/ERC20/Dai.sol\":5869:5872  add */\n      tag_126\n        /* \"contracts/Online/ERC20/Dai.sol\":5869:5890  add(totalSupply, wad) */\n      jump\t// in\n    tag_134:\n        /* \"contracts/Online/ERC20/Dai.sol\":5852:5863  totalSupply */\n      0x01\n        /* \"contracts/Online/ERC20/Dai.sol\":5852:5890  totalSupply    = add(totalSupply, wad) */\n      sstore\n        /* \"contracts/Online/ERC20/Dai.sol\":5906:5936  Transfer(address(0), usr, wad) */\n      mload(0x40)\n        /* \"#utility.yul\":1258:1283   */\n      dup2\n      dup2\n      mstore\n      sub(shl(0xa0, 0x01), 0x01)\n        /* \"contracts/Online/ERC20/Dai.sol\":5906:5936  Transfer(address(0), usr, wad) */\n      dup4\n      and\n      swap1\n        /* \"contracts/Online/ERC20/Dai.sol\":5923:5924  0 */\n      0x00\n      swap1\n        /* \"contracts/Online/ERC20/Dai.sol\":5906:5936  Transfer(address(0), usr, wad) */\n      0xddf252ad1be2c89b69c2b068fc378daa952ba7f163c4a11628f55a4df523b3ef\n      swap1\n        /* \"#utility.yul\":1246:1248   */\n      0x20\n        /* \"#utility.yul\":1231:1249   */\n      add\n        /* \"contracts/Online/ERC20/Dai.sol\":5906:5936  Transfer(address(0), usr, wad) */\n    tag_135:\n      mload(0x40)\n      dup1\n      swap2\n      sub\n      swap1\n      log3\n        /* \"contracts/Online/ERC20/Dai.sol\":5738:5944  function mint(address usr, uint wad) external auth {... */\n      pop\n      pop\n      jump\t// out\n        /* \"contracts/Online/ERC20/Dai.sol\":3176:3241  function rely(address guy) external note auth { wards[guy] = 1; } */\n    tag_67:\n        /* \"contracts/Online/ERC20/Dai.sol\":3357:3367  msg.sender */\n      caller\n        /* \"contracts/Online/ERC20/Dai.sol\":3351:3356  wards */\n      0x00\n        /* \"contracts/Online/ERC20/Dai.sol\":3351:3368  wards[msg.sender] */\n      swap1\n      dup2\n      mstore\n      0x20\n      dup2\n      swap1\n      mstore\n      0x40\n      swap1\n      keccak256\n      sload\n        /* \"contracts/Online/ERC20/Dai.sol\":3372:3373  1 */\n      0x01\n        /* \"contracts/Online/ERC20/Dai.sol\":3351:3373  wards[msg.sender] == 1 */\n      eq\n        /* \"contracts/Online/ERC20/Dai.sol\":3343:3396  require(wards[msg.sender] == 1, \"Dai/not-authorized\") */\n      tag_138\n      jumpi\n      mload(0x40)\n      shl(0xe5, 0x461bcd)\n      dup2\n      mstore\n      0x04\n      add\n      tag_115\n      swap1\n      tag_131\n      jump\t// in\n    tag_138:\n      sub(shl(0xa0, 0x01), 0x01)\n        /* \"contracts/Online/ERC20/Dai.sol\":3224:3234  wards[guy] */\n      dup2\n      and\n        /* \"contracts/Online/ERC20/Dai.sol\":3224:3229  wards */\n      0x00\n        /* \"contracts/Online/ERC20/Dai.sol\":3224:3234  wards[guy] */\n      swap1\n      dup2\n      mstore\n      0x20\n      dup2\n      dup2\n      mstore\n      0x40\n      dup1\n      dup4\n      keccak256\n        /* \"contracts/Online/ERC20/Dai.sol\":3237:3238  1 */\n      0x01\n        /* \"contracts/Online/ERC20/Dai.sol\":3224:3238  wards[guy] = 1 */\n      swap1\n      sstore\n        /* \"contracts/Online/ERC20/Dai.sol\":1442:1456  calldatasize() */\n      calldatasize\n        /* \"contracts/Online/ERC20/Dai.sol\":1547:1550  288 */\n      0x0120\n        /* \"contracts/Online/ERC20/Dai.sol\":1537:1551  add(mark, 288) */\n      dup2\n      add\n        /* \"contracts/Online/ERC20/Dai.sol\":1524:1552  mstore(0x40, add(mark, 288)) */\n      dup3\n      mstore\n        /* \"contracts/Online/ERC20/Dai.sol\":1609:1627  mstore(mark, 0x20) */\n      dup3\n      dup2\n      mstore\n        /* \"contracts/Online/ERC20/Dai.sol\":1714:1717  224 */\n      0xe0\n        /* \"contracts/Online/ERC20/Dai.sol\":1697:1712  add(mark, 0x20) */\n      swap3\n      dup2\n      add\n        /* \"contracts/Online/ERC20/Dai.sol\":1690:1718  mstore(add(mark, 0x20), 224) */\n      dup4\n      swap1\n      mstore\n        /* \"contracts/Online/ERC20/Dai.sol\":1714:1717  224 */\n      swap2\n      swap3\n        /* \"contracts/Online/ERC20/Dai.sol\":3224:3229  wards */\n      swap2\n        /* \"contracts/Online/ERC20/Dai.sol\":1781:1796  add(mark, 0x40) */\n      add\n        /* \"contracts/Online/ERC20/Dai.sol\":1768:1805  calldatacopy(add(mark, 0x40), 0, 224) */\n      calldatacopy\n        /* \"contracts/Online/ERC20/Dai.sol\":2125:2127  36 */\n      0x24\n        /* \"contracts/Online/ERC20/Dai.sol\":2112:2128  calldataload(36) */\n      calldataload\n        /* \"contracts/Online/ERC20/Dai.sol\":2062:2063  4 */\n      0x04\n        /* \"contracts/Online/ERC20/Dai.sol\":2049:2064  calldataload(4) */\n      calldataload\n        /* \"contracts/Online/ERC20/Dai.sol\":1978:1986  caller() */\n      caller\n        /* \"contracts/Online/ERC20/Dai.sol\":1798:1799  0 */\n      0x00\n        /* \"contracts/Online/ERC20/Dai.sol\":1930:1945  calldataload(0) */\n      calldataload\n      not(sub(shl(0xe0, 0x01), 0x01))\n        /* \"contracts/Online/ERC20/Dai.sol\":1912:1947  shl(224, shr(224, calldataload(0))) */\n      and\n        /* \"contracts/Online/ERC20/Dai.sol\":1547:1550  288 */\n      0x0120\n        /* \"contracts/Online/ERC20/Dai.sol\":1442:1456  calldatasize() */\n      calldatasize\n        /* \"contracts/Online/ERC20/Dai.sol\":1840:2175  log4(mark, 288,                           // calldata... */\n      log4\n        /* \"contracts/Online/ERC20/Dai.sol\":3176:3241  function rely(address guy) external note auth { wards[guy] = 1; } */\n      pop\n      jump\t// out\n        /* \"contracts/Online/ERC20/Dai.sol\":7052:8070  function permit(address holder, address spender, uint256 nonce, uint256 expiry,... */\n    tag_79:\n        /* \"contracts/Online/ERC20/Dai.sol\":7327:7343  DOMAIN_SEPARATOR */\n      sload(0x05)\n        /* \"contracts/Online/ERC20/Dai.sol\":7372:7630  abi.encode(PERMIT_TYPEHASH,... */\n      0x40\n      dup1\n      mload\n        /* \"contracts/Online/ERC20/Dai.sol\":4537:4603  0xea2aa0a1be11a07ed86d755c93467f4f82362b452371d1ba94d1715123511acb */\n      0xea2aa0a1be11a07ed86d755c93467f4f82362b452371d1ba94d1715123511acb\n        /* \"contracts/Online/ERC20/Dai.sol\":7372:7630  abi.encode(PERMIT_TYPEHASH,... */\n      0x20\n      dup3\n      add\n        /* \"#utility.yul\":4914:4939   */\n      mstore\n      sub(shl(0xa0, 0x01), 0x01)\n        /* \"#utility.yul\":4975:5007   */\n      dup1\n      dup13\n      and\n        /* \"#utility.yul\":4955:4973   */\n      swap3\n      dup3\n      add\n        /* \"#utility.yul\":4948:5008   */\n      swap3\n      swap1\n      swap3\n      mstore\n        /* \"#utility.yul\":5044:5076   */\n      swap1\n      dup10\n      and\n        /* \"#utility.yul\":5024:5042   */\n      0x60\n      dup3\n      add\n        /* \"#utility.yul\":5017:5077   */\n      mstore\n        /* \"#utility.yul\":5093:5111   */\n      0x80\n      dup2\n      add\n        /* \"#utility.yul\":5086:5120   */\n      dup9\n      swap1\n      mstore\n        /* \"#utility.yul\":5136:5155   */\n      0xa0\n      dup2\n      add\n        /* \"#utility.yul\":5129:5164   */\n      dup8\n      swap1\n      mstore\n        /* \"#utility.yul\":5208:5222   */\n      dup6\n      iszero\n        /* \"#utility.yul\":5201:5223   */\n      iszero\n        /* \"#utility.yul\":5180:5199   */\n      0xc0\n      dup3\n      add\n        /* \"#utility.yul\":5173:5224   */\n      mstore\n        /* \"contracts/Online/ERC20/Dai.sol\":7223:7237  bytes32 digest */\n      0x00\n      swap2\n        /* \"contracts/Online/ERC20/Dai.sol\":7327:7343  DOMAIN_SEPARATOR */\n      swap1\n        /* \"#utility.yul\":4886:4905   */\n      0xe0\n      add\n        /* \"contracts/Online/ERC20/Dai.sol\":7372:7630  abi.encode(PERMIT_TYPEHASH,... */\n      mload(0x40)\n      0x20\n      dup2\n      dup4\n      sub\n      sub\n      dup2\n      mstore\n      swap1\n      0x40\n      mstore\n        /* \"contracts/Online/ERC20/Dai.sol\":7362:7631  keccak256(abi.encode(PERMIT_TYPEHASH,... */\n      dup1\n      mload\n      swap1\n      0x20\n      add\n      keccak256\n        /* \"contracts/Online/ERC20/Dai.sol\":7263:7642  abi.encodePacked(... */\n      add(0x20, mload(0x40))\n      tag_144\n      swap3\n      swap2\n      swap1\n      shl(0xf0, 0x1901)\n        /* \"#utility.yul\":5493:5520   */\n      dup2\n      mstore\n        /* \"#utility.yul\":5545:5546   */\n      0x02\n        /* \"#utility.yul\":5536:5547   */\n      dup2\n      add\n        /* \"#utility.yul\":5529:5556   */\n      swap3\n      swap1\n      swap3\n      mstore\n        /* \"#utility.yul\":5581:5583   */\n      0x22\n        /* \"#utility.yul\":5572:5584   */\n      dup3\n      add\n        /* \"#utility.yul\":5565:5593   */\n      mstore\n        /* \"#utility.yul\":5618:5620   */\n      0x42\n        /* \"#utility.yul\":5609:5621   */\n      add\n      swap1\n        /* \"#utility.yul\":5235:5627   */\n      jump\n        /* \"contracts/Online/ERC20/Dai.sol\":7263:7642  abi.encodePacked(... */\n    tag_144:\n      0x40\n      dup1\n      mload\n      not(0x1f)\n      dup2\n      dup5\n      sub\n      add\n      dup2\n      mstore\n      swap2\n      swap1\n      mstore\n        /* \"contracts/Online/ERC20/Dai.sol\":7253:7643  keccak256(abi.encodePacked(... */\n      dup1\n      mload\n        /* \"contracts/Online/ERC20/Dai.sol\":7263:7642  abi.encodePacked(... */\n      0x20\n        /* \"contracts/Online/ERC20/Dai.sol\":7253:7643  keccak256(abi.encodePacked(... */\n      swap1\n      swap2\n      add\n      keccak256\n      swap1\n      pop\n      sub(shl(0xa0, 0x01), 0x01)\n        /* \"contracts/Online/ERC20/Dai.sol\":7664:7684  holder != address(0) */\n      dup10\n      and\n        /* \"contracts/Online/ERC20/Dai.sol\":7656:7710  require(holder != address(0), \"Dai/invalid-address-0\") */\n      tag_146\n      jumpi\n      mload(0x40)\n      shl(0xe5, 0x461bcd)\n      dup2\n      mstore\n        /* \"#utility.yul\":5834:5836   */\n      0x20\n        /* \"contracts/Online/ERC20/Dai.sol\":7656:7710  require(holder != address(0), \"Dai/invalid-address-0\") */\n      0x04\n      dup3\n      add\n        /* \"#utility.yul\":5816:5837   */\n      mstore\n        /* \"#utility.yul\":5873:5875   */\n      0x15\n        /* \"#utility.yul\":5853:5871   */\n      0x24\n      dup3\n      add\n        /* \"#utility.yul\":5846:5876   */\n      mstore\n      shl(0x5c, 0x04461692f696e76616c69642d616464726573732d3)\n        /* \"#utility.yul\":5892:5910   */\n      0x44\n      dup3\n      add\n        /* \"#utility.yul\":5885:5936   */\n      mstore\n        /* \"#utility.yul\":5953:5971   */\n      0x64\n      add\n        /* \"contracts/Online/ERC20/Dai.sol\":7656:7710  require(holder != address(0), \"Dai/invalid-address-0\") */\n      tag_115\n        /* \"#utility.yul\":5632:5977   */\n      jump\n        /* \"contracts/Online/ERC20/Dai.sol\":7656:7710  require(holder != address(0), \"Dai/invalid-address-0\") */\n    tag_146:\n        /* \"contracts/Online/ERC20/Dai.sol\":7739:7765  ecrecover(digest, v, r, s) */\n      0x40\n      dup1\n      mload\n      0x00\n      dup2\n      mstore\n      0x20\n      dup2\n      add\n      dup1\n      dup4\n      mstore\n        /* \"#utility.yul\":6209:6234   */\n      dup4\n      swap1\n      mstore\n        /* \"#utility.yul\":6282:6286   */\n      0xff\n        /* \"#utility.yul\":6270:6287   */\n      dup7\n      and\n        /* \"#utility.yul\":6250:6268   */\n      swap2\n      dup2\n      add\n        /* \"#utility.yul\":6243:6288   */\n      swap2\n      swap1\n      swap2\n      mstore\n        /* \"#utility.yul\":6304:6322   */\n      0x60\n      dup2\n      add\n        /* \"#utility.yul\":6297:6331   */\n      dup5\n      swap1\n      mstore\n        /* \"#utility.yul\":6347:6365   */\n      0x80\n      dup2\n      add\n        /* \"#utility.yul\":6340:6374   */\n      dup4\n      swap1\n      mstore\n        /* \"contracts/Online/ERC20/Dai.sol\":7739:7765  ecrecover(digest, v, r, s) */\n      0x01\n      swap1\n        /* \"#utility.yul\":6181:6200   */\n      0xa0\n      add\n        /* \"contracts/Online/ERC20/Dai.sol\":7739:7765  ecrecover(digest, v, r, s) */\n      0x20\n      mload(0x40)\n      0x20\n      dup2\n      sub\n      swap1\n      dup1\n      dup5\n      sub\n      swap1\n      dup6\n      gas\n      staticcall\n      iszero\n      dup1\n      iszero\n      tag_152\n      jumpi\n      returndatasize\n      0x00\n      dup1\n      returndatacopy\n      revert(0x00, returndatasize)\n    tag_152:\n      pop\n      pop\n      pop\n      mload(sub(mload(0x40), 0x20))\n      sub(shl(0xa0, 0x01), 0x01)\n        /* \"contracts/Online/ERC20/Dai.sol\":7729:7765  holder == ecrecover(digest, v, r, s) */\n      and\n        /* \"contracts/Online/ERC20/Dai.sol\":7729:7735  holder */\n      dup10\n      sub(shl(0xa0, 0x01), 0x01)\n        /* \"contracts/Online/ERC20/Dai.sol\":7729:7765  holder == ecrecover(digest, v, r, s) */\n      and\n      eq\n        /* \"contracts/Online/ERC20/Dai.sol\":7721:7788  require(holder == ecrecover(digest, v, r, s), \"Dai/invalid-permit\") */\n      tag_153\n      jumpi\n      mload(0x40)\n      shl(0xe5, 0x461bcd)\n      dup2\n      mstore\n        /* \"#utility.yul\":6587:6589   */\n      0x20\n        /* \"contracts/Online/ERC20/Dai.sol\":7721:7788  require(holder == ecrecover(digest, v, r, s), \"Dai/invalid-permit\") */\n      0x04\n      dup3\n      add\n        /* \"#utility.yul\":6569:6590   */\n      mstore\n        /* \"#utility.yul\":6626:6628   */\n      0x12\n        /* \"#utility.yul\":6606:6624   */\n      0x24\n      dup3\n      add\n        /* \"#utility.yul\":6599:6629   */\n      mstore\n      shl(0x72, 0x11185a4bda5b9d985b1a590b5c195c9b5a5d)\n        /* \"#utility.yul\":6645:6663   */\n      0x44\n      dup3\n      add\n        /* \"#utility.yul\":6638:6686   */\n      mstore\n        /* \"#utility.yul\":6703:6721   */\n      0x64\n      add\n        /* \"contracts/Online/ERC20/Dai.sol\":7721:7788  require(holder == ecrecover(digest, v, r, s), \"Dai/invalid-permit\") */\n      tag_115\n        /* \"#utility.yul\":6385:6727   */\n      jump\n        /* \"contracts/Online/ERC20/Dai.sol\":7721:7788  require(holder == ecrecover(digest, v, r, s), \"Dai/invalid-permit\") */\n    tag_153:\n        /* \"contracts/Online/ERC20/Dai.sol\":7807:7818  expiry == 0 */\n      dup6\n      iszero\n      dup1\n        /* \"contracts/Online/ERC20/Dai.sol\":7807:7847  expiry == 0 || block.timestamp <= expiry */\n      tag_156\n      jumpi\n      pop\n        /* \"contracts/Online/ERC20/Dai.sol\":7841:7847  expiry */\n      dup6\n        /* \"contracts/Online/ERC20/Dai.sol\":7822:7837  block.timestamp */\n      timestamp\n        /* \"contracts/Online/ERC20/Dai.sol\":7822:7847  block.timestamp <= expiry */\n      gt\n      iszero\n        /* \"contracts/Online/ERC20/Dai.sol\":7807:7847  expiry == 0 || block.timestamp <= expiry */\n    tag_156:\n        /* \"contracts/Online/ERC20/Dai.sol\":7799:7870  require(expiry == 0 || block.timestamp <= expiry, \"Dai/permit-expired\") */\n      tag_157\n      jumpi\n      mload(0x40)\n      shl(0xe5, 0x461bcd)\n      dup2\n      mstore\n        /* \"#utility.yul\":6934:6936   */\n      0x20\n        /* \"contracts/Online/ERC20/Dai.sol\":7799:7870  require(expiry == 0 || block.timestamp <= expiry, \"Dai/permit-expired\") */\n      0x04\n      dup3\n      add\n        /* \"#utility.yul\":6916:6937   */\n      mstore\n        /* \"#utility.yul\":6973:6975   */\n      0x12\n        /* \"#utility.yul\":6953:6971   */\n      0x24\n      dup3\n      add\n        /* \"#utility.yul\":6946:6976   */\n      mstore\n      shl(0x72, 0x11185a4bdc195c9b5a5d0b595e1c1a5c9959)\n        /* \"#utility.yul\":6992:7010   */\n      0x44\n      dup3\n      add\n        /* \"#utility.yul\":6985:7033   */\n      mstore\n        /* \"#utility.yul\":7050:7068   */\n      0x64\n      add\n        /* \"contracts/Online/ERC20/Dai.sol\":7799:7870  require(expiry == 0 || block.timestamp <= expiry, \"Dai/permit-expired\") */\n      tag_115\n        /* \"#utility.yul\":6732:7074   */\n      jump\n        /* \"contracts/Online/ERC20/Dai.sol\":7799:7870  require(expiry == 0 || block.timestamp <= expiry, \"Dai/permit-expired\") */\n    tag_157:\n      sub(shl(0xa0, 0x01), 0x01)\n        /* \"contracts/Online/ERC20/Dai.sol\":7898:7912  nonces[holder] */\n      dup10\n      and\n      0x00\n      swap1\n      dup2\n      mstore\n        /* \"contracts/Online/ERC20/Dai.sol\":7898:7904  nonces */\n      0x04\n        /* \"contracts/Online/ERC20/Dai.sol\":7898:7912  nonces[holder] */\n      0x20\n      mstore\n      0x40\n      dup2\n      keccak256\n        /* \"contracts/Online/ERC20/Dai.sol\":7898:7914  nonces[holder]++ */\n      dup1\n      sload\n      swap2\n      tag_160\n      dup4\n      tag_161\n      jump\t// in\n    tag_160:\n      swap2\n      swap1\n      pop\n      sstore\n        /* \"contracts/Online/ERC20/Dai.sol\":7889:7894  nonce */\n      dup8\n        /* \"contracts/Online/ERC20/Dai.sol\":7889:7914  nonce == nonces[holder]++ */\n      eq\n        /* \"contracts/Online/ERC20/Dai.sol\":7881:7936  require(nonce == nonces[holder]++, \"Dai/invalid-nonce\") */\n      tag_162\n      jumpi\n      mload(0x40)\n      shl(0xe5, 0x461bcd)\n      dup2\n      mstore\n        /* \"#utility.yul\":7553:7555   */\n      0x20\n        /* \"contracts/Online/ERC20/Dai.sol\":7881:7936  require(nonce == nonces[holder]++, \"Dai/invalid-nonce\") */\n      0x04\n      dup3\n      add\n        /* \"#utility.yul\":7535:7556   */\n      mstore\n        /* \"#utility.yul\":7592:7594   */\n      0x11\n        /* \"#utility.yul\":7572:7590   */\n      0x24\n      dup3\n      add\n        /* \"#utility.yul\":7565:7595   */\n      mstore\n      shl(0x78, 0x4461692f696e76616c69642d6e6f6e6365)\n        /* \"#utility.yul\":7611:7629   */\n      0x44\n      dup3\n      add\n        /* \"#utility.yul\":7604:7651   */\n      mstore\n        /* \"#utility.yul\":7668:7686   */\n      0x64\n      add\n        /* \"contracts/Online/ERC20/Dai.sol\":7881:7936  require(nonce == nonces[holder]++, \"Dai/invalid-nonce\") */\n      tag_115\n        /* \"#utility.yul\":7351:7692   */\n      jump\n        /* \"contracts/Online/ERC20/Dai.sol\":7881:7936  require(nonce == nonces[holder]++, \"Dai/invalid-nonce\") */\n    tag_162:\n        /* \"contracts/Online/ERC20/Dai.sol\":7947:7955  uint wad */\n      0x00\n        /* \"contracts/Online/ERC20/Dai.sol\":7958:7965  allowed */\n      dup6\n        /* \"contracts/Online/ERC20/Dai.sol\":7958:7973  allowed ? 1 : 0 */\n      tag_165\n      jumpi\n        /* \"contracts/Online/ERC20/Dai.sol\":7972:7973  0 */\n      0x00\n        /* \"contracts/Online/ERC20/Dai.sol\":7958:7973  allowed ? 1 : 0 */\n      jump(tag_166)\n    tag_165:\n        /* \"contracts/Online/ERC20/Dai.sol\":7968:7969  1 */\n      0x01\n        /* \"contracts/Online/ERC20/Dai.sol\":7958:7973  allowed ? 1 : 0 */\n    tag_166:\n      sub(shl(0xa0, 0x01), 0x01)\n        /* \"contracts/Online/ERC20/Dai.sol\":7984:8001  allowance[holder] */\n      dup12\n      dup2\n      and\n      0x00\n      dup2\n      dup2\n      mstore\n        /* \"contracts/Online/ERC20/Dai.sol\":7984:7993  allowance */\n      0x03\n        /* \"contracts/Online/ERC20/Dai.sol\":7984:8001  allowance[holder] */\n      0x20\n      swap1\n      dup2\n      mstore\n      0x40\n      dup1\n      dup4\n      keccak256\n        /* \"contracts/Online/ERC20/Dai.sol\":7984:8010  allowance[holder][spender] */\n      swap5\n      dup16\n      and\n      dup1\n      dup5\n      mstore\n      swap5\n      dup3\n      mstore\n      swap2\n      dup3\n      swap1\n      keccak256\n        /* \"contracts/Online/ERC20/Dai.sol\":7947:7973  uint wad = allowed ? 1 : 0 */\n      0xff\n      swap6\n      swap1\n      swap6\n      and\n        /* \"contracts/Online/ERC20/Dai.sol\":7984:8016  allowance[holder][spender] = wad */\n      swap5\n      dup6\n      swap1\n      sstore\n        /* \"contracts/Online/ERC20/Dai.sol\":8032:8062  Approval(holder, spender, wad) */\n      swap1\n      mload\n        /* \"#utility.yul\":1258:1283   */\n      dup5\n      dup2\n      mstore\n        /* \"contracts/Online/ERC20/Dai.sol\":7947:7973  uint wad = allowed ? 1 : 0 */\n      swap4\n      swap5\n      pop\n        /* \"contracts/Online/ERC20/Dai.sol\":7984:8010  allowance[holder][spender] */\n      swap2\n      swap3\n        /* \"contracts/Online/ERC20/Dai.sol\":7984:8001  allowance[holder] */\n      swap1\n      swap2\n        /* \"contracts/Online/ERC20/Dai.sol\":8032:8062  Approval(holder, spender, wad) */\n      0x8c5be1e5ebec7d5bd14f71427d1e84f3dd0314c0f7b2291e5b200ac8c7c3b925\n      swap2\n        /* \"#utility.yul\":1231:1249   */\n      add\n        /* \"contracts/Online/ERC20/Dai.sol\":8032:8062  Approval(holder, spender, wad) */\n      mload(0x40)\n      dup1\n      swap2\n      sub\n      swap1\n      log3\n        /* \"contracts/Online/ERC20/Dai.sol\":7212:8070  {... */\n      pop\n      pop\n        /* \"contracts/Online/ERC20/Dai.sol\":7052:8070  function permit(address holder, address spender, uint256 nonce, uint256 expiry,... */\n      pop\n      pop\n      pop\n      pop\n      pop\n      pop\n      pop\n      pop\n      jump\t// out\n        /* \"contracts/Online/ERC20/Dai.sol\":3247:3312  function deny(address guy) external note auth { wards[guy] = 0; } */\n    tag_85:\n        /* \"contracts/Online/ERC20/Dai.sol\":3357:3367  msg.sender */\n      caller\n        /* \"contracts/Online/ERC20/Dai.sol\":3351:3356  wards */\n      0x00\n        /* \"contracts/Online/ERC20/Dai.sol\":3351:3368  wards[msg.sender] */\n      swap1\n      dup2\n      mstore\n      0x20\n      dup2\n      swap1\n      mstore\n      0x40\n      swap1\n      keccak256\n      sload\n        /* \"contracts/Online/ERC20/Dai.sol\":3372:3373  1 */\n      0x01\n        /* \"contracts/Online/ERC20/Dai.sol\":3351:3373  wards[msg.sender] == 1 */\n      eq\n        /* \"contracts/Online/ERC20/Dai.sol\":3343:3396  require(wards[msg.sender] == 1, \"Dai/not-authorized\") */\n      tag_170\n      jumpi\n      mload(0x40)\n      shl(0xe5, 0x461bcd)\n      dup2\n      mstore\n      0x04\n      add\n      tag_115\n      swap1\n      tag_131\n      jump\t// in\n    tag_170:\n      sub(shl(0xa0, 0x01), 0x01)\n        /* \"contracts/Online/ERC20/Dai.sol\":3295:3305  wards[guy] */\n      dup2\n      and\n        /* \"contracts/Online/ERC20/Dai.sol\":3308:3309  0 */\n      0x00\n        /* \"contracts/Online/ERC20/Dai.sol\":3295:3305  wards[guy] */\n      swap1\n      dup2\n      mstore\n      0x20\n      dup2\n      dup2\n      mstore\n      0x40\n      dup1\n      dup4\n      keccak256\n        /* \"contracts/Online/ERC20/Dai.sol\":3295:3309  wards[guy] = 0 */\n      dup4\n      swap1\n      sstore\n        /* \"contracts/Online/ERC20/Dai.sol\":1442:1456  calldatasize() */\n      calldatasize\n        /* \"contracts/Online/ERC20/Dai.sol\":1547:1550  288 */\n      0x0120\n        /* \"contracts/Online/ERC20/Dai.sol\":1537:1551  add(mark, 288) */\n      dup2\n      add\n        /* \"contracts/Online/ERC20/Dai.sol\":1524:1552  mstore(0x40, add(mark, 288)) */\n      dup3\n      mstore\n        /* \"contracts/Online/ERC20/Dai.sol\":1609:1627  mstore(mark, 0x20) */\n      dup3\n      dup2\n      mstore\n        /* \"contracts/Online/ERC20/Dai.sol\":1714:1717  224 */\n      0xe0\n        /* \"contracts/Online/ERC20/Dai.sol\":1697:1712  add(mark, 0x20) */\n      swap3\n      dup2\n      add\n        /* \"contracts/Online/ERC20/Dai.sol\":1690:1718  mstore(add(mark, 0x20), 224) */\n      dup4\n      swap1\n      mstore\n        /* \"contracts/Online/ERC20/Dai.sol\":1714:1717  224 */\n      swap2\n      swap3\n        /* \"contracts/Online/ERC20/Dai.sol\":3308:3309  0 */\n      swap2\n        /* \"contracts/Online/ERC20/Dai.sol\":1781:1796  add(mark, 0x40) */\n      add\n        /* \"contracts/Online/ERC20/Dai.sol\":1768:1805  calldatacopy(add(mark, 0x40), 0, 224) */\n      calldatacopy\n        /* \"contracts/Online/ERC20/Dai.sol\":2125:2127  36 */\n      0x24\n        /* \"contracts/Online/ERC20/Dai.sol\":2112:2128  calldataload(36) */\n      calldataload\n        /* \"contracts/Online/ERC20/Dai.sol\":2062:2063  4 */\n      0x04\n        /* \"contracts/Online/ERC20/Dai.sol\":2049:2064  calldataload(4) */\n      calldataload\n        /* \"contracts/Online/ERC20/Dai.sol\":1978:1986  caller() */\n      caller\n        /* \"contracts/Online/ERC20/Dai.sol\":1798:1799  0 */\n      0x00\n        /* \"contracts/Online/ERC20/Dai.sol\":1930:1945  calldataload(0) */\n      calldataload\n      not(sub(shl(0xe0, 0x01), 0x01))\n        /* \"contracts/Online/ERC20/Dai.sol\":1912:1947  shl(224, shr(224, calldataload(0))) */\n      and\n        /* \"contracts/Online/ERC20/Dai.sol\":1547:1550  288 */\n      0x0120\n        /* \"contracts/Online/ERC20/Dai.sol\":1442:1456  calldatasize() */\n      calldatasize\n        /* \"contracts/Online/ERC20/Dai.sol\":1840:2175  log4(mark, 288,                           // calldata... */\n      log4\n        /* \"contracts/Online/ERC20/Dai.sol\":3247:3312  function deny(address guy) external note auth { wards[guy] = 0; } */\n      pop\n      jump\t// out\n        /* \"contracts/Online/ERC20/Dai.sol\":5950:6473  function burn(address usr, uint wad) external {... */\n    tag_88:\n      sub(shl(0xa0, 0x01), 0x01)\n        /* \"contracts/Online/ERC20/Dai.sol\":6015:6029  balanceOf[usr] */\n      dup3\n      and\n      0x00\n      swap1\n      dup2\n      mstore\n        /* \"contracts/Online/ERC20/Dai.sol\":6015:6024  balanceOf */\n      0x02\n        /* \"contracts/Online/ERC20/Dai.sol\":6015:6029  balanceOf[usr] */\n      0x20\n      mstore\n      0x40\n      swap1\n      keccak256\n      sload\n        /* \"contracts/Online/ERC20/Dai.sol\":6015:6036  balanceOf[usr] >= wad */\n      dup2\n      gt\n      iszero\n        /* \"contracts/Online/ERC20/Dai.sol\":6007:6065  require(balanceOf[usr] >= wad, \"Dai/insufficient-balance\") */\n      tag_174\n      jumpi\n      mload(0x40)\n      shl(0xe5, 0x461bcd)\n      dup2\n      mstore\n        /* \"#utility.yul\":3780:3782   */\n      0x20\n        /* \"contracts/Online/ERC20/Dai.sol\":6007:6065  require(balanceOf[usr] >= wad, \"Dai/insufficient-balance\") */\n      0x04\n      dup3\n      add\n        /* \"#utility.yul\":3762:3783   */\n      mstore\n        /* \"#utility.yul\":3819:3821   */\n      0x18\n        /* \"#utility.yul\":3799:3817   */\n      0x24\n      dup3\n      add\n        /* \"#utility.yul\":3792:3822   */\n      mstore\n      shl(0x40, 0x4461692f696e73756666696369656e742d62616c616e6365)\n        /* \"#utility.yul\":3838:3856   */\n      0x44\n      dup3\n      add\n        /* \"#utility.yul\":3831:3885   */\n      mstore\n        /* \"#utility.yul\":3902:3920   */\n      0x64\n      add\n        /* \"contracts/Online/ERC20/Dai.sol\":6007:6065  require(balanceOf[usr] >= wad, \"Dai/insufficient-balance\") */\n      tag_115\n        /* \"#utility.yul\":3578:3926   */\n      jump\n        /* \"contracts/Online/ERC20/Dai.sol\":6007:6065  require(balanceOf[usr] >= wad, \"Dai/insufficient-balance\") */\n    tag_174:\n      sub(shl(0xa0, 0x01), 0x01)\n        /* \"contracts/Online/ERC20/Dai.sol\":6080:6097  usr != msg.sender */\n      dup3\n      and\n        /* \"contracts/Online/ERC20/Dai.sol\":6087:6097  msg.sender */\n      caller\n        /* \"contracts/Online/ERC20/Dai.sol\":6080:6097  usr != msg.sender */\n      eq\n      dup1\n      iszero\n      swap1\n        /* \"contracts/Online/ERC20/Dai.sol\":6080:6138  usr != msg.sender && allowance[usr][msg.sender] != uint(0) */\n      tag_176\n      jumpi\n      pop\n      sub(shl(0xa0, 0x01), 0x01)\n        /* \"contracts/Online/ERC20/Dai.sol\":6101:6115  allowance[usr] */\n      dup3\n      and\n        /* \"contracts/Online/ERC20/Dai.sol\":6136:6137  0 */\n      0x00\n        /* \"contracts/Online/ERC20/Dai.sol\":6101:6115  allowance[usr] */\n      swap1\n      dup2\n      mstore\n        /* \"contracts/Online/ERC20/Dai.sol\":6101:6110  allowance */\n      0x03\n        /* \"contracts/Online/ERC20/Dai.sol\":6101:6115  allowance[usr] */\n      0x20\n      swap1\n      dup2\n      mstore\n      0x40\n      dup1\n      dup4\n      keccak256\n        /* \"contracts/Online/ERC20/Dai.sol\":6116:6126  msg.sender */\n      caller\n        /* \"contracts/Online/ERC20/Dai.sol\":6101:6127  allowance[usr][msg.sender] */\n      dup5\n      mstore\n      swap1\n      swap2\n      mstore\n      swap1\n      keccak256\n      sload\n        /* \"contracts/Online/ERC20/Dai.sol\":6101:6138  allowance[usr][msg.sender] != uint(0) */\n      iszero\n      iszero\n        /* \"contracts/Online/ERC20/Dai.sol\":6080:6138  usr != msg.sender && allowance[usr][msg.sender] != uint(0) */\n    tag_176:\n        /* \"contracts/Online/ERC20/Dai.sol\":6076:6319  if (usr != msg.sender && allowance[usr][msg.sender] != uint(0)) {... */\n      iszero\n      tag_177\n      jumpi\n      sub(shl(0xa0, 0x01), 0x01)\n        /* \"contracts/Online/ERC20/Dai.sol\":6163:6177  allowance[usr] */\n      dup3\n      and\n      0x00\n      swap1\n      dup2\n      mstore\n        /* \"contracts/Online/ERC20/Dai.sol\":6163:6172  allowance */\n      0x03\n        /* \"contracts/Online/ERC20/Dai.sol\":6163:6177  allowance[usr] */\n      0x20\n      swap1\n      dup2\n      mstore\n      0x40\n      dup1\n      dup4\n      keccak256\n        /* \"contracts/Online/ERC20/Dai.sol\":6178:6188  msg.sender */\n      caller\n        /* \"contracts/Online/ERC20/Dai.sol\":6163:6189  allowance[usr][msg.sender] */\n      dup5\n      mstore\n      swap1\n      swap2\n      mstore\n      swap1\n      keccak256\n      sload\n        /* \"contracts/Online/ERC20/Dai.sol\":6163:6196  allowance[usr][msg.sender] >= wad */\n      dup2\n      gt\n      iszero\n        /* \"contracts/Online/ERC20/Dai.sol\":6155:6227  require(allowance[usr][msg.sender] >= wad, \"Dai/insufficient-allowance\") */\n      tag_178\n      jumpi\n      mload(0x40)\n      shl(0xe5, 0x461bcd)\n      dup2\n      mstore\n        /* \"#utility.yul\":4133:4135   */\n      0x20\n        /* \"contracts/Online/ERC20/Dai.sol\":6155:6227  require(allowance[usr][msg.sender] >= wad, \"Dai/insufficient-allowance\") */\n      0x04\n      dup3\n      add\n        /* \"#utility.yul\":4115:4136   */\n      mstore\n        /* \"#utility.yul\":4172:4174   */\n      0x1a\n        /* \"#utility.yul\":4152:4170   */\n      0x24\n      dup3\n      add\n        /* \"#utility.yul\":4145:4175   */\n      mstore\n        /* \"#utility.yul\":4211:4239   */\n      0x4461692f696e73756666696369656e742d616c6c6f77616e6365000000000000\n        /* \"#utility.yul\":4191:4209   */\n      0x44\n      dup3\n      add\n        /* \"#utility.yul\":4184:4240   */\n      mstore\n        /* \"#utility.yul\":4257:4275   */\n      0x64\n      add\n        /* \"contracts/Online/ERC20/Dai.sol\":6155:6227  require(allowance[usr][msg.sender] >= wad, \"Dai/insufficient-allowance\") */\n      tag_115\n        /* \"#utility.yul\":3931:4281   */\n      jump\n        /* \"contracts/Online/ERC20/Dai.sol\":6155:6227  require(allowance[usr][msg.sender] >= wad, \"Dai/insufficient-allowance\") */\n    tag_178:\n      sub(shl(0xa0, 0x01), 0x01)\n        /* \"contracts/Online/ERC20/Dai.sol\":6275:6289  allowance[usr] */\n      dup3\n      and\n      0x00\n      swap1\n      dup2\n      mstore\n        /* \"contracts/Online/ERC20/Dai.sol\":6275:6284  allowance */\n      0x03\n        /* \"contracts/Online/ERC20/Dai.sol\":6275:6289  allowance[usr] */\n      0x20\n      swap1\n      dup2\n      mstore\n      0x40\n      dup1\n      dup4\n      keccak256\n        /* \"contracts/Online/ERC20/Dai.sol\":6290:6300  msg.sender */\n      caller\n        /* \"contracts/Online/ERC20/Dai.sol\":6275:6301  allowance[usr][msg.sender] */\n      dup5\n      mstore\n      swap1\n      swap2\n      mstore\n      swap1\n      keccak256\n      sload\n        /* \"contracts/Online/ERC20/Dai.sol\":6271:6307  sub(allowance[usr][msg.sender], wad) */\n      tag_180\n      swap1\n        /* \"contracts/Online/ERC20/Dai.sol\":6303:6306  wad */\n      dup3\n        /* \"contracts/Online/ERC20/Dai.sol\":6271:6274  sub */\n      tag_123\n        /* \"contracts/Online/ERC20/Dai.sol\":6271:6307  sub(allowance[usr][msg.sender], wad) */\n      jump\t// in\n    tag_180:\n      sub(shl(0xa0, 0x01), 0x01)\n        /* \"contracts/Online/ERC20/Dai.sol\":6242:6256  allowance[usr] */\n      dup4\n      and\n      0x00\n      swap1\n      dup2\n      mstore\n        /* \"contracts/Online/ERC20/Dai.sol\":6242:6251  allowance */\n      0x03\n        /* \"contracts/Online/ERC20/Dai.sol\":6242:6256  allowance[usr] */\n      0x20\n      swap1\n      dup2\n      mstore\n      0x40\n      dup1\n      dup4\n      keccak256\n        /* \"contracts/Online/ERC20/Dai.sol\":6257:6267  msg.sender */\n      caller\n        /* \"contracts/Online/ERC20/Dai.sol\":6242:6268  allowance[usr][msg.sender] */\n      dup5\n      mstore\n      swap1\n      swap2\n      mstore\n      swap1\n      keccak256\n        /* \"contracts/Online/ERC20/Dai.sol\":6242:6307  allowance[usr][msg.sender] = sub(allowance[usr][msg.sender], wad) */\n      sstore\n        /* \"contracts/Online/ERC20/Dai.sol\":6076:6319  if (usr != msg.sender && allowance[usr][msg.sender] != uint(0)) {... */\n    tag_177:\n      sub(shl(0xa0, 0x01), 0x01)\n        /* \"contracts/Online/ERC20/Dai.sol\":6350:6364  balanceOf[usr] */\n      dup3\n      and\n      0x00\n      swap1\n      dup2\n      mstore\n        /* \"contracts/Online/ERC20/Dai.sol\":6350:6359  balanceOf */\n      0x02\n        /* \"contracts/Online/ERC20/Dai.sol\":6350:6364  balanceOf[usr] */\n      0x20\n      mstore\n      0x40\n      swap1\n      keccak256\n      sload\n        /* \"contracts/Online/ERC20/Dai.sol\":6346:6370  sub(balanceOf[usr], wad) */\n      tag_181\n      swap1\n        /* \"contracts/Online/ERC20/Dai.sol\":6366:6369  wad */\n      dup3\n        /* \"contracts/Online/ERC20/Dai.sol\":6346:6349  sub */\n      tag_123\n        /* \"contracts/Online/ERC20/Dai.sol\":6346:6370  sub(balanceOf[usr], wad) */\n      jump\t// in\n    tag_181:\n      sub(shl(0xa0, 0x01), 0x01)\n        /* \"contracts/Online/ERC20/Dai.sol\":6329:6343  balanceOf[usr] */\n      dup4\n      and\n      0x00\n      swap1\n      dup2\n      mstore\n        /* \"contracts/Online/ERC20/Dai.sol\":6329:6338  balanceOf */\n      0x02\n        /* \"contracts/Online/ERC20/Dai.sol\":6329:6343  balanceOf[usr] */\n      0x20\n      mstore\n      0x40\n      swap1\n      keccak256\n        /* \"contracts/Online/ERC20/Dai.sol\":6329:6370  balanceOf[usr] = sub(balanceOf[usr], wad) */\n      sstore\n        /* \"contracts/Online/ERC20/Dai.sol\":6402:6413  totalSupply */\n      sload(0x01)\n        /* \"contracts/Online/ERC20/Dai.sol\":6398:6419  sub(totalSupply, wad) */\n      tag_182\n      swap1\n        /* \"contracts/Online/ERC20/Dai.sol\":6415:6418  wad */\n      dup3\n        /* \"contracts/Online/ERC20/Dai.sol\":6398:6401  sub */\n      tag_123\n        /* \"contracts/Online/ERC20/Dai.sol\":6398:6419  sub(totalSupply, wad) */\n      jump\t// in\n    tag_182:\n        /* \"contracts/Online/ERC20/Dai.sol\":6381:6392  totalSupply */\n      0x01\n        /* \"contracts/Online/ERC20/Dai.sol\":6381:6419  totalSupply    = sub(totalSupply, wad) */\n      sstore\n        /* \"contracts/Online/ERC20/Dai.sol\":6435:6465  Transfer(usr, address(0), wad) */\n      mload(0x40)\n        /* \"#utility.yul\":1258:1283   */\n      dup2\n      dup2\n      mstore\n        /* \"contracts/Online/ERC20/Dai.sol\":6457:6458  0 */\n      0x00\n      swap1\n      sub(shl(0xa0, 0x01), 0x01)\n        /* \"contracts/Online/ERC20/Dai.sol\":6435:6465  Transfer(usr, address(0), wad) */\n      dup5\n      and\n      swap1\n      0xddf252ad1be2c89b69c2b068fc378daa952ba7f163c4a11628f55a4df523b3ef\n      swap1\n        /* \"#utility.yul\":1246:1248   */\n      0x20\n        /* \"#utility.yul\":1231:1249   */\n      add\n        /* \"contracts/Online/ERC20/Dai.sol\":6435:6465  Transfer(usr, address(0), wad) */\n      tag_135\n        /* \"#utility.yul\":1112:1289   */\n      jump\n        /* \"contracts/Online/ERC20/Dai.sol\":5012:5137  function transfer(address dst, uint wad) external returns (bool) {... */\n    tag_91:\n        /* \"contracts/Online/ERC20/Dai.sol\":5071:5075  bool */\n      0x00\n        /* \"contracts/Online/ERC20/Dai.sol\":5095:5129  transferFrom(msg.sender, dst, wad) */\n      tag_185\n        /* \"contracts/Online/ERC20/Dai.sol\":5108:5118  msg.sender */\n      caller\n        /* \"contracts/Online/ERC20/Dai.sol\":5120:5123  dst */\n      dup5\n        /* \"contracts/Online/ERC20/Dai.sol\":5125:5128  wad */\n      dup5\n        /* \"contracts/Online/ERC20/Dai.sol\":5095:5107  transferFrom */\n      tag_45\n        /* \"contracts/Online/ERC20/Dai.sol\":5095:5129  transferFrom(msg.sender, dst, wad) */\n      jump\t// in\n    tag_185:\n        /* \"contracts/Online/ERC20/Dai.sol\":5088:5129  return transferFrom(msg.sender, dst, wad) */\n      swap4\n        /* \"contracts/Online/ERC20/Dai.sol\":5012:5137  function transfer(address dst, uint wad) external returns (bool) {... */\n      swap3\n      pop\n      pop\n      pop\n      jump\t// out\n        /* \"contracts/Online/ERC20/Dai.sol\":6692:6791  function push(address usr, uint wad) external {... */\n    tag_95:\n        /* \"contracts/Online/ERC20/Dai.sol\":6749:6783  transferFrom(msg.sender, usr, wad) */\n      tag_187\n        /* \"contracts/Online/ERC20/Dai.sol\":6762:6772  msg.sender */\n      caller\n        /* \"contracts/Online/ERC20/Dai.sol\":6774:6777  usr */\n      dup4\n        /* \"contracts/Online/ERC20/Dai.sol\":6779:6782  wad */\n      dup4\n        /* \"contracts/Online/ERC20/Dai.sol\":6749:6761  transferFrom */\n      tag_45\n        /* \"contracts/Online/ERC20/Dai.sol\":6749:6783  transferFrom(msg.sender, usr, wad) */\n      jump\t// in\n    tag_187:\n      pop\n        /* \"contracts/Online/ERC20/Dai.sol\":6692:6791  function push(address usr, uint wad) external {... */\n      pop\n      pop\n      jump\t// out\n        /* \"contracts/Online/ERC20/Dai.sol\":6902:7007  function move(address src, address dst, uint wad) external {... */\n    tag_98:\n        /* \"contracts/Online/ERC20/Dai.sol\":6972:6999  transferFrom(src, dst, wad) */\n      tag_189\n        /* \"contracts/Online/ERC20/Dai.sol\":6985:6988  src */\n      dup4\n        /* \"contracts/Online/ERC20/Dai.sol\":6990:6993  dst */\n      dup4\n        /* \"contracts/Online/ERC20/Dai.sol\":6995:6998  wad */\n      dup4\n        /* \"contracts/Online/ERC20/Dai.sol\":6972:6984  transferFrom */\n      tag_45\n        /* \"contracts/Online/ERC20/Dai.sol\":6972:6999  transferFrom(src, dst, wad) */\n      jump\t// in\n    tag_189:\n      pop\n        /* \"contracts/Online/ERC20/Dai.sol\":6902:7007  function move(address src, address dst, uint wad) external {... */\n      pop\n      pop\n      pop\n      jump\t// out\n        /* \"contracts/Online/ERC20/Dai.sol\":6797:6896  function pull(address usr, uint wad) external {... */\n    tag_110:\n        /* \"contracts/Online/ERC20/Dai.sol\":6854:6888  transferFrom(usr, msg.sender, wad) */\n      tag_187\n        /* \"contracts/Online/ERC20/Dai.sol\":6867:6870  usr */\n      dup3\n        /* \"contracts/Online/ERC20/Dai.sol\":6872:6882  msg.sender */\n      caller\n        /* \"contracts/Online/ERC20/Dai.sol\":6884:6887  wad */\n      dup4\n        /* \"contracts/Online/ERC20/Dai.sol\":6854:6866  transferFrom */\n      tag_45\n        /* \"contracts/Online/ERC20/Dai.sol\":6854:6888  transferFrom(usr, msg.sender, wad) */\n      jump\t// in\n        /* \"contracts/Online/ERC20/Dai.sol\":4168:4272  function sub(uint x, uint y) internal pure returns (uint z) {... */\n    tag_123:\n        /* \"contracts/Online/ERC20/Dai.sol\":4220:4226  uint z */\n      0x00\n        /* \"contracts/Online/ERC20/Dai.sol\":4262:4263  x */\n      dup3\n        /* \"contracts/Online/ERC20/Dai.sol\":4252:4257  x - y */\n      tag_193\n        /* \"contracts/Online/ERC20/Dai.sol\":4256:4257  y */\n      dup4\n        /* \"contracts/Online/ERC20/Dai.sol\":4262:4263  x */\n      dup3\n        /* \"contracts/Online/ERC20/Dai.sol\":4252:4257  x - y */\n      tag_194\n      jump\t// in\n    tag_193:\n        /* \"contracts/Online/ERC20/Dai.sol\":4248:4257  z = x - y */\n      swap2\n      pop\n      dup2\n        /* \"contracts/Online/ERC20/Dai.sol\":4247:4263  (z = x - y) <= x */\n      gt\n      iszero\n        /* \"contracts/Online/ERC20/Dai.sol\":4239:4264  require((z = x - y) <= x) */\n      tag_111\n      jumpi\n      0x00\n      dup1\n      revert\n        /* \"contracts/Online/ERC20/Dai.sol\":4058:4162  function add(uint x, uint y) internal pure returns (uint z) {... */\n    tag_126:\n        /* \"contracts/Online/ERC20/Dai.sol\":4110:4116  uint z */\n      0x00\n        /* \"contracts/Online/ERC20/Dai.sol\":4152:4153  x */\n      dup3\n        /* \"contracts/Online/ERC20/Dai.sol\":4142:4147  x + y */\n      tag_197\n        /* \"contracts/Online/ERC20/Dai.sol\":4146:4147  y */\n      dup4\n        /* \"contracts/Online/ERC20/Dai.sol\":4152:4153  x */\n      dup3\n        /* \"contracts/Online/ERC20/Dai.sol\":4142:4147  x + y */\n      tag_198\n      jump\t// in\n    tag_197:\n        /* \"contracts/Online/ERC20/Dai.sol\":4138:4147  z = x + y */\n      swap2\n      pop\n      dup2\n        /* \"contracts/Online/ERC20/Dai.sol\":4137:4153  (z = x + y) >= x */\n      lt\n      iszero\n        /* \"contracts/Online/ERC20/Dai.sol\":4129:4154  require((z = x + y) >= x) */\n      tag_111\n      jumpi\n      0x00\n      dup1\n      revert\n        /* \"#utility.yul\":14:432   */\n    tag_31:\n        /* \"#utility.yul\":163:165   */\n      0x20\n        /* \"#utility.yul\":152:161   */\n      dup2\n        /* \"#utility.yul\":145:166   */\n      mstore\n        /* \"#utility.yul\":126:130   */\n      0x00\n        /* \"#utility.yul\":195:201   */\n      dup3\n        /* \"#utility.yul\":189:202   */\n      mload\n        /* \"#utility.yul\":238:244   */\n      dup1\n        /* \"#utility.yul\":233:235   */\n      0x20\n        /* \"#utility.yul\":222:231   */\n      dup5\n        /* \"#utility.yul\":218:236   */\n      add\n        /* \"#utility.yul\":211:245   */\n      mstore\n        /* \"#utility.yul\":297:303   */\n      dup1\n        /* \"#utility.yul\":292:294   */\n      0x20\n        /* \"#utility.yul\":284:290   */\n      dup6\n        /* \"#utility.yul\":280:295   */\n      add\n        /* \"#utility.yul\":275:277   */\n      0x40\n        /* \"#utility.yul\":264:273   */\n      dup6\n        /* \"#utility.yul\":260:278   */\n      add\n        /* \"#utility.yul\":254:304   */\n      mcopy\n        /* \"#utility.yul\":353:354   */\n      0x00\n        /* \"#utility.yul\":348:350   */\n      0x40\n        /* \"#utility.yul\":339:345   */\n      dup3\n        /* \"#utility.yul\":328:337   */\n      dup6\n        /* \"#utility.yul\":324:346   */\n      add\n        /* \"#utility.yul\":320:351   */\n      add\n        /* \"#utility.yul\":313:355   */\n      mstore\n        /* \"#utility.yul\":423:425   */\n      0x40\n        /* \"#utility.yul\":416:418   */\n      0x1f\n        /* \"#utility.yul\":412:419   */\n      not\n        /* \"#utility.yul\":407:409   */\n      0x1f\n        /* \"#utility.yul\":399:405   */\n      dup4\n        /* \"#utility.yul\":395:410   */\n      add\n        /* \"#utility.yul\":391:420   */\n      and\n        /* \"#utility.yul\":380:389   */\n      dup5\n        /* \"#utility.yul\":376:421   */\n      add\n        /* \"#utility.yul\":372:426   */\n      add\n        /* \"#utility.yul\":364:426   */\n      swap2\n      pop\n      pop\n        /* \"#utility.yul\":14:432   */\n      swap3\n      swap2\n      pop\n      pop\n      jump\t// out\n        /* \"#utility.yul\":437:610   */\n    tag_200:\n        /* \"#utility.yul\":505:525   */\n      dup1\n      calldataload\n      sub(shl(0xa0, 0x01), 0x01)\n        /* \"#utility.yul\":554:585   */\n      dup2\n      and\n        /* \"#utility.yul\":544:586   */\n      dup2\n      eq\n        /* \"#utility.yul\":534:604   */\n      tag_205\n      jumpi\n        /* \"#utility.yul\":600:601   */\n      0x00\n        /* \"#utility.yul\":597:598   */\n      dup1\n        /* \"#utility.yul\":590:602   */\n      revert\n        /* \"#utility.yul\":534:604   */\n    tag_205:\n        /* \"#utility.yul\":437:610   */\n      swap2\n      swap1\n      pop\n      jump\t// out\n        /* \"#utility.yul\":615:915   */\n    tag_34:\n        /* \"#utility.yul\":683:689   */\n      0x00\n        /* \"#utility.yul\":691:697   */\n      dup1\n        /* \"#utility.yul\":744:746   */\n      0x40\n        /* \"#utility.yul\":732:741   */\n      dup4\n        /* \"#utility.yul\":723:730   */\n      dup6\n        /* \"#utility.yul\":719:742   */\n      sub\n        /* \"#utility.yul\":715:747   */\n      slt\n        /* \"#utility.yul\":712:764   */\n      iszero\n      tag_207\n      jumpi\n        /* \"#utility.yul\":760:761   */\n      0x00\n        /* \"#utility.yul\":757:758   */\n      dup1\n        /* \"#utility.yul\":750:762   */\n      revert\n        /* \"#utility.yul\":712:764   */\n    tag_207:\n        /* \"#utility.yul\":783:812   */\n      tag_208\n        /* \"#utility.yul\":802:811   */\n      dup4\n        /* \"#utility.yul\":783:812   */\n      tag_200\n      jump\t// in\n    tag_208:\n        /* \"#utility.yul\":773:812   */\n      swap5\n        /* \"#utility.yul\":881:883   */\n      0x20\n        /* \"#utility.yul\":866:884   */\n      swap4\n      swap1\n      swap4\n      add\n        /* \"#utility.yul\":853:885   */\n      calldataload\n      swap4\n      pop\n      pop\n      pop\n        /* \"#utility.yul\":615:915   */\n      jump\t// out\n        /* \"#utility.yul\":1294:1668   */\n    tag_44:\n        /* \"#utility.yul\":1371:1377   */\n      0x00\n        /* \"#utility.yul\":1379:1385   */\n      dup1\n        /* \"#utility.yul\":1387:1393   */\n      0x00\n        /* \"#utility.yul\":1440:1442   */\n      0x60\n        /* \"#utility.yul\":1428:1437   */\n      dup5\n        /* \"#utility.yul\":1419:1426   */\n      dup7\n        /* \"#utility.yul\":1415:1438   */\n      sub\n        /* \"#utility.yul\":1411:1443   */\n      slt\n        /* \"#utility.yul\":1408:1460   */\n      iszero\n      tag_212\n      jumpi\n        /* \"#utility.yul\":1456:1457   */\n      0x00\n        /* \"#utility.yul\":1453:1454   */\n      dup1\n        /* \"#utility.yul\":1446:1458   */\n      revert\n        /* \"#utility.yul\":1408:1460   */\n    tag_212:\n        /* \"#utility.yul\":1479:1508   */\n      tag_213\n        /* \"#utility.yul\":1498:1507   */\n      dup5\n        /* \"#utility.yul\":1479:1508   */\n      tag_200\n      jump\t// in\n    tag_213:\n        /* \"#utility.yul\":1469:1508   */\n      swap3\n      pop\n        /* \"#utility.yul\":1527:1565   */\n      tag_214\n        /* \"#utility.yul\":1561:1563   */\n      0x20\n        /* \"#utility.yul\":1550:1559   */\n      dup6\n        /* \"#utility.yul\":1546:1564   */\n      add\n        /* \"#utility.yul\":1527:1565   */\n      tag_200\n      jump\t// in\n    tag_214:\n        /* \"#utility.yul\":1294:1668   */\n      swap3\n      swap6\n        /* \"#utility.yul\":1517:1565   */\n      swap3\n      swap5\n      pop\n      pop\n      pop\n        /* \"#utility.yul\":1634:1636   */\n      0x40\n        /* \"#utility.yul\":1619:1637   */\n      swap2\n      swap1\n      swap2\n      add\n        /* \"#utility.yul\":1606:1638   */\n      calldataload\n      swap1\n        /* \"#utility.yul\":1294:1668   */\n      jump\t// out\n        /* \"#utility.yul\":2044:2230   */\n    tag_66:\n        /* \"#utility.yul\":2103:2109   */\n      0x00\n        /* \"#utility.yul\":2156:2158   */\n      0x20\n        /* \"#utility.yul\":2144:2153   */\n      dup3\n        /* \"#utility.yul\":2135:2142   */\n      dup5\n        /* \"#utility.yul\":2131:2154   */\n      sub\n        /* \"#utility.yul\":2127:2159   */\n      slt\n        /* \"#utility.yul\":2124:2176   */\n      iszero\n      tag_218\n      jumpi\n        /* \"#utility.yul\":2172:2173   */\n      0x00\n        /* \"#utility.yul\":2169:2170   */\n      dup1\n        /* \"#utility.yul\":2162:2174   */\n      revert\n        /* \"#utility.yul\":2124:2176   */\n    tag_218:\n        /* \"#utility.yul\":2195:2224   */\n      tag_185\n        /* \"#utility.yul\":2214:2223   */\n      dup3\n        /* \"#utility.yul\":2195:2224   */\n      tag_200\n      jump\t// in\n        /* \"#utility.yul\":2235:3308   */\n    tag_78:\n        /* \"#utility.yul\":2352:2358   */\n      0x00\n        /* \"#utility.yul\":2360:2366   */\n      dup1\n        /* \"#utility.yul\":2368:2374   */\n      0x00\n        /* \"#utility.yul\":2376:2382   */\n      dup1\n        /* \"#utility.yul\":2384:2390   */\n      0x00\n        /* \"#utility.yul\":2392:2398   */\n      dup1\n        /* \"#utility.yul\":2400:2406   */\n      0x00\n        /* \"#utility.yul\":2408:2414   */\n      dup1\n        /* \"#utility.yul\":2461:2464   */\n      0x0100\n        /* \"#utility.yul\":2449:2458   */\n      dup10\n        /* \"#utility.yul\":2440:2447   */\n      dup12\n        /* \"#utility.yul\":2436:2459   */\n      sub\n        /* \"#utility.yul\":2432:2465   */\n      slt\n        /* \"#utility.yul\":2429:2482   */\n      iszero\n      tag_221\n      jumpi\n        /* \"#utility.yul\":2478:2479   */\n      0x00\n        /* \"#utility.yul\":2475:2476   */\n      dup1\n        /* \"#utility.yul\":2468:2480   */\n      revert\n        /* \"#utility.yul\":2429:2482   */\n    tag_221:\n        /* \"#utility.yul\":2501:2530   */\n      tag_222\n        /* \"#utility.yul\":2520:2529   */\n      dup10\n        /* \"#utility.yul\":2501:2530   */\n      tag_200\n      jump\t// in\n    tag_222:\n        /* \"#utility.yul\":2491:2530   */\n      swap8\n      pop\n        /* \"#utility.yul\":2549:2587   */\n      tag_223\n        /* \"#utility.yul\":2583:2585   */\n      0x20\n        /* \"#utility.yul\":2572:2581   */\n      dup11\n        /* \"#utility.yul\":2568:2586   */\n      add\n        /* \"#utility.yul\":2549:2587   */\n      tag_200\n      jump\t// in\n    tag_223:\n        /* \"#utility.yul\":2539:2587   */\n      swap7\n      pop\n        /* \"#utility.yul\":2656:2658   */\n      0x40\n        /* \"#utility.yul\":2641:2659   */\n      dup10\n      add\n        /* \"#utility.yul\":2628:2660   */\n      calldataload\n      swap6\n      pop\n        /* \"#utility.yul\":2757:2759   */\n      0x60\n        /* \"#utility.yul\":2742:2760   */\n      dup10\n      add\n        /* \"#utility.yul\":2729:2761   */\n      calldataload\n      swap5\n      pop\n        /* \"#utility.yul\":2839:2842   */\n      0x80\n        /* \"#utility.yul\":2824:2843   */\n      dup10\n      add\n        /* \"#utility.yul\":2811:2844   */\n      calldataload\n        /* \"#utility.yul\":2882:2897   */\n      dup1\n      iszero\n        /* \"#utility.yul\":2875:2898   */\n      iszero\n        /* \"#utility.yul\":2863:2899   */\n      dup2\n      eq\n        /* \"#utility.yul\":2853:2917   */\n      tag_224\n      jumpi\n        /* \"#utility.yul\":2913:2914   */\n      0x00\n        /* \"#utility.yul\":2910:2911   */\n      dup1\n        /* \"#utility.yul\":2903:2915   */\n      revert\n        /* \"#utility.yul\":2853:2917   */\n    tag_224:\n        /* \"#utility.yul\":2936:2943   */\n      swap4\n      pop\n        /* \"#utility.yul\":2995:2998   */\n      0xa0\n        /* \"#utility.yul\":2980:2999   */\n      dup10\n      add\n        /* \"#utility.yul\":2967:3000   */\n      calldataload\n        /* \"#utility.yul\":3044:3048   */\n      0xff\n        /* \"#utility.yul\":3031:3049   */\n      dup2\n      and\n        /* \"#utility.yul\":3019:3050   */\n      dup2\n      eq\n        /* \"#utility.yul\":3009:3068   */\n      tag_225\n      jumpi\n        /* \"#utility.yul\":3064:3065   */\n      0x00\n        /* \"#utility.yul\":3061:3062   */\n      dup1\n        /* \"#utility.yul\":3054:3066   */\n      revert\n        /* \"#utility.yul\":3009:3068   */\n    tag_225:\n        /* \"#utility.yul\":2235:3308   */\n      swap8\n      swap11\n      swap7\n      swap10\n      pop\n      swap5\n      swap8\n      swap4\n      swap7\n      swap3\n      swap6\n        /* \"#utility.yul\":3087:3094   */\n      swap3\n      swap5\n      pop\n      pop\n      pop\n        /* \"#utility.yul\":3167:3170   */\n      0xc0\n        /* \"#utility.yul\":3152:3171   */\n      dup3\n      add\n        /* \"#utility.yul\":3139:3172   */\n      calldataload\n      swap2\n        /* \"#utility.yul\":3271:3274   */\n      0xe0\n        /* \"#utility.yul\":3256:3275   */\n      add\n        /* \"#utility.yul\":3243:3276   */\n      calldataload\n      swap1\n        /* \"#utility.yul\":2235:3308   */\n      jump\t// out\n        /* \"#utility.yul\":3313:3573   */\n    tag_105:\n        /* \"#utility.yul\":3381:3387   */\n      0x00\n        /* \"#utility.yul\":3389:3395   */\n      dup1\n        /* \"#utility.yul\":3442:3444   */\n      0x40\n        /* \"#utility.yul\":3430:3439   */\n      dup4\n        /* \"#utility.yul\":3421:3428   */\n      dup6\n        /* \"#utility.yul\":3417:3440   */\n      sub\n        /* \"#utility.yul\":3413:3445   */\n      slt\n        /* \"#utility.yul\":3410:3462   */\n      iszero\n      tag_227\n      jumpi\n        /* \"#utility.yul\":3458:3459   */\n      0x00\n        /* \"#utility.yul\":3455:3456   */\n      dup1\n        /* \"#utility.yul\":3448:3460   */\n      revert\n        /* \"#utility.yul\":3410:3462   */\n    tag_227:\n        /* \"#utility.yul\":3481:3510   */\n      tag_228\n        /* \"#utility.yul\":3500:3509   */\n      dup4\n        /* \"#utility.yul\":3481:3510   */\n      tag_200\n      jump\t// in\n    tag_228:\n        /* \"#utility.yul\":3471:3510   */\n      swap2\n      pop\n        /* \"#utility.yul\":3529:3567   */\n      tag_229\n        /* \"#utility.yul\":3563:3565   */\n      0x20\n        /* \"#utility.yul\":3552:3561   */\n      dup5\n        /* \"#utility.yul\":3548:3566   */\n      add\n        /* \"#utility.yul\":3529:3567   */\n      tag_200\n      jump\t// in\n    tag_229:\n        /* \"#utility.yul\":3519:3567   */\n      swap1\n      pop\n        /* \"#utility.yul\":3313:3573   */\n      swap3\n      pop\n      swap3\n      swap1\n      pop\n      jump\t// out\n        /* \"#utility.yul\":4286:4628   */\n    tag_131:\n        /* \"#utility.yul\":4488:4490   */\n      0x20\n        /* \"#utility.yul\":4470:4491   */\n      dup1\n      dup3\n      mstore\n        /* \"#utility.yul\":4527:4529   */\n      0x12\n        /* \"#utility.yul\":4507:4525   */\n      swap1\n      dup3\n      add\n        /* \"#utility.yul\":4500:4530   */\n      mstore\n      shl(0x72, 0x11185a4bdb9bdd0b585d5d1a1bdc9a5e9959)\n        /* \"#utility.yul\":4561:4563   */\n      0x40\n        /* \"#utility.yul\":4546:4564   */\n      dup3\n      add\n        /* \"#utility.yul\":4539:4587   */\n      mstore\n        /* \"#utility.yul\":4619:4621   */\n      0x60\n        /* \"#utility.yul\":4604:4622   */\n      add\n      swap1\n        /* \"#utility.yul\":4286:4628   */\n      jump\t// out\n        /* \"#utility.yul\":7079:7206   */\n    tag_201:\n        /* \"#utility.yul\":7140:7150   */\n      0x4e487b71\n        /* \"#utility.yul\":7135:7138   */\n      0xe0\n        /* \"#utility.yul\":7131:7151   */\n      shl\n        /* \"#utility.yul\":7128:7129   */\n      0x00\n        /* \"#utility.yul\":7121:7152   */\n      mstore\n        /* \"#utility.yul\":7171:7175   */\n      0x11\n        /* \"#utility.yul\":7168:7169   */\n      0x04\n        /* \"#utility.yul\":7161:7176   */\n      mstore\n        /* \"#utility.yul\":7195:7199   */\n      0x24\n        /* \"#utility.yul\":7192:7193   */\n      0x00\n        /* \"#utility.yul\":7185:7200   */\n      revert\n        /* \"#utility.yul\":7211:7346   */\n    tag_161:\n        /* \"#utility.yul\":7250:7253   */\n      0x00\n        /* \"#utility.yul\":7271:7288   */\n      0x01\n      dup3\n      add\n        /* \"#utility.yul\":7268:7311   */\n      tag_242\n      jumpi\n        /* \"#utility.yul\":7291:7309   */\n      tag_242\n      tag_201\n      jump\t// in\n    tag_242:\n      pop\n        /* \"#utility.yul\":7338:7339   */\n      0x01\n        /* \"#utility.yul\":7327:7340   */\n      add\n      swap1\n        /* \"#utility.yul\":7211:7346   */\n      jump\t// out\n        /* \"#utility.yul\":7697:7825   */\n    tag_194:\n        /* \"#utility.yul\":7764:7773   */\n      dup2\n      dup2\n      sub\n        /* \"#utility.yul\":7785:7796   */\n      dup2\n      dup2\n      gt\n        /* \"#utility.yul\":7782:7819   */\n      iszero\n      tag_111\n      jumpi\n        /* \"#utility.yul\":7799:7817   */\n      tag_111\n      tag_201\n      jump\t// in\n        /* \"#utility.yul\":7830:7955   */\n    tag_198:\n        /* \"#utility.yul\":7895:7904   */\n      dup1\n      dup3\n      add\n        /* \"#utility.yul\":7916:7926   */\n      dup1\n      dup3\n      gt\n        /* \"#utility.yul\":7913:7949   */\n      iszero\n      tag_111\n      jumpi\n        /* \"#utility.yul\":7929:7947   */\n      tag_111\n      tag_201\n      jump\t// in\n\n    auxdata: 0xa2646970667358221220a1d143789768769b66de8c53fd21dcbd7d0d8c20b7fb48df6fdda1e8652a789564736f6c634300081a0033\n}\n",
				"bytecode": {
					"linkReferences": {},
					"object": "608060405234801561000f575f80fd5b5060405161109138038061109183398101604081905261002e9161011b565b335f908152602081815260409182902060019081905582518084018452600e81526d2230b49029ba30b13632b1b7b4b760911b9083015282518084018452908152603160f81b9082015281517f8b73c3c69bb8fe3d512ecc4cf759cc79239f7b179b0ffacaa9a75d522b39400f818301527f0b1461ddc0c1d5ded79a1db0f74dae949050a7c0b28728c724b24958c27a328b818401527fc89efdaa54c0f20c7adf612882df0950f5a951637e0307cdcb4c672f298b8bc6606082015260808101939093523060a0808501919091528251808503909101815260c09093019091528151910120600555610132565b5f6020828403121561012b575f80fd5b5051919050565b610f528061013f5f395ff3fe608060405234801561000f575f80fd5b506004361061013d575f3560e01c80637ecebe00116100b4578063a9059cbb11610079578063a9059cbb146102fc578063b753a98c1461030f578063bb35783b14610322578063bf353dbb14610335578063dd62ed3e14610354578063f2d5d56b1461037e575f80fd5b80637ecebe00146102825780638fcbaf0c146102a157806395d89b41146102b45780639c52a7f1146102d65780639dc29fac146102e9575f80fd5b8063313ce56711610105578063313ce567146101f85780633644e5151461021257806340c10f191461021b57806354fd4d501461023057806365fae35e1461025057806370a0823114610263575f80fd5b806306fdde0314610141578063095ea7b31461018457806318160ddd146101a757806323b872dd146101be57806330adf81f146101d1575b5f80fd5b61016e6040518060400160405280600e81526020016d2230b49029ba30b13632b1b7b4b760911b81525081565b60405161017b9190610d1f565b60405180910390f35b610197610192366004610d6f565b610391565b604051901515815260200161017b565b6101b060015481565b60405190815260200161017b565b6101976101cc366004610d97565b6103fd565b6101b07fea2aa0a1be11a07ed86d755c93467f4f82362b452371d1ba94d1715123511acb81565b610200601281565b60405160ff909116815260200161017b565b6101b060055481565b61022e610229366004610d6f565b61061b565b005b61016e604051806040016040528060018152602001603160f81b81525081565b61022e61025e366004610dd1565b6106d8565b6101b0610271366004610dd1565b60026020525f908152604090205481565b6101b0610290366004610dd1565b60046020525f908152604090205481565b61022e6102af366004610dea565b610755565b61016e6040518060400160405280600381526020016244414960e81b81525081565b61022e6102e4366004610dd1565b610a47565b61022e6102f7366004610d6f565b610ac3565b61019761030a366004610d6f565b610cae565b61022e61031d366004610d6f565b610cc1565b61022e610330366004610d97565b610cd1565b6101b0610343366004610dd1565b5f6020819052908152604090205481565b6101b0610362366004610e6d565b600360209081525f928352604080842090915290825290205481565b61022e61038c366004610d6f565b610ce2565b335f8181526003602090815260408083206001600160a01b038716808552925280832085905551919290917f8c5be1e5ebec7d5bd14f71427d1e84f3dd0314c0f7b2291e5b200ac8c7c3b925906103eb9086815260200190565b60405180910390a35060015b92915050565b6001600160a01b0383165f908152600260205260408120548211156104645760405162461bcd60e51b81526020600482015260186024820152774461692f696e73756666696369656e742d62616c616e636560401b60448201526064015b60405180910390fd5b6001600160a01b038416331480159061049e57506001600160a01b0384165f90815260036020908152604080832033845290915290205415155b15610566576001600160a01b0384165f9081526003602090815260408083203384529091529020548211156105155760405162461bcd60e51b815260206004820152601a60248201527f4461692f696e73756666696369656e742d616c6c6f77616e6365000000000000604482015260640161045b565b6001600160a01b0384165f9081526003602090815260408083203384529091529020546105429083610ced565b6001600160a01b0385165f9081526003602090815260408083203384529091529020555b6001600160a01b0384165f908152600260205260409020546105889083610ced565b6001600160a01b038086165f9081526002602052604080822093909355908516815220546105b69083610d06565b6001600160a01b038085165f8181526002602052604090819020939093559151908616907fddf252ad1be2c89b69c2b068fc378daa952ba7f163c4a11628f55a4df523b3ef906106099086815260200190565b60405180910390a35060019392505050565b335f908152602081905260409020546001146106495760405162461bcd60e51b815260040161045b90610e9e565b6001600160a01b0382165f9081526002602052604090205461066b9082610d06565b6001600160a01b0383165f908152600260205260409020556001546106909082610d06565b6001556040518181526001600160a01b038316905f907fddf252ad1be2c89b69c2b068fc378daa952ba7f163c4a11628f55a4df523b3ef906020015b60405180910390a35050565b335f908152602081905260409020546001146107065760405162461bcd60e51b815260040161045b90610e9e565b6001600160a01b0381165f9081526020818152604080832060019055366101208101825282815260e09281018390529192910137602435600435335f356001600160e01b03191661012036a450565b600554604080517fea2aa0a1be11a07ed86d755c93467f4f82362b452371d1ba94d1715123511acb60208201526001600160a01b03808c169282019290925290891660608201526080810188905260a0810187905285151560c08201525f919060e001604051602081830303815290604052805190602001206040516020016107f592919061190160f01b81526002810192909252602282015260420190565b60408051601f19818403018152919052805160209091012090506001600160a01b03891661085d5760405162461bcd60e51b815260206004820152601560248201527404461692f696e76616c69642d616464726573732d3605c1b604482015260640161045b565b604080515f81526020810180835283905260ff861691810191909152606081018490526080810183905260019060a0016020604051602081039080840390855afa1580156108ad573d5f803e3d5ffd5b505050602060405103516001600160a01b0316896001600160a01b03161461090c5760405162461bcd60e51b815260206004820152601260248201527111185a4bda5b9d985b1a590b5c195c9b5a5d60721b604482015260640161045b565b8515806109195750854211155b61095a5760405162461bcd60e51b815260206004820152601260248201527111185a4bdc195c9b5a5d0b595e1c1a5c995960721b604482015260640161045b565b6001600160a01b0389165f90815260046020526040812080549161097d83610ede565b9190505587146109c35760405162461bcd60e51b81526020600482015260116024820152704461692f696e76616c69642d6e6f6e636560781b604482015260640161045b565b5f856109cf575f6109d2565b60015b6001600160a01b038b81165f818152600360209081526040808320948f168084529482529182902060ff95909516948590559051848152939450919290917f8c5be1e5ebec7d5bd14f71427d1e84f3dd0314c0f7b2291e5b200ac8c7c3b925910160405180910390a350505050505050505050565b335f90815260208190526040902054600114610a755760405162461bcd60e51b815260040161045b90610e9e565b6001600160a01b0381165f90815260208181526040808320839055366101208101825282815260e09281018390529192910137602435600435335f356001600160e01b03191661012036a450565b6001600160a01b0382165f90815260026020526040902054811115610b255760405162461bcd60e51b81526020600482015260186024820152774461692f696e73756666696369656e742d62616c616e636560401b604482015260640161045b565b6001600160a01b0382163314801590610b5f57506001600160a01b0382165f90815260036020908152604080832033845290915290205415155b15610c27576001600160a01b0382165f908152600360209081526040808320338452909152902054811115610bd65760405162461bcd60e51b815260206004820152601a60248201527f4461692f696e73756666696369656e742d616c6c6f77616e6365000000000000604482015260640161045b565b6001600160a01b0382165f908152600360209081526040808320338452909152902054610c039082610ced565b6001600160a01b0383165f9081526003602090815260408083203384529091529020555b6001600160a01b0382165f90815260026020526040902054610c499082610ced565b6001600160a01b0383165f90815260026020526040902055600154610c6e9082610ced565b6001556040518181525f906001600160a01b038416907fddf252ad1be2c89b69c2b068fc378daa952ba7f163c4a11628f55a4df523b3ef906020016106cc565b5f610cba3384846103fd565b9392505050565b610ccc3383836103fd565b505050565b610cdc8383836103fd565b50505050565b610ccc8233836103fd565b5f82610cf98382610ef6565b91508111156103f7575f80fd5b5f82610d128382610f09565b91508110156103f7575f80fd5b602081525f82518060208401528060208501604085015e5f604082850101526040601f19601f83011684010191505092915050565b80356001600160a01b0381168114610d6a575f80fd5b919050565b5f8060408385031215610d80575f80fd5b610d8983610d54565b946020939093013593505050565b5f805f60608486031215610da9575f80fd5b610db284610d54565b9250610dc060208501610d54565b929592945050506040919091013590565b5f60208284031215610de1575f80fd5b610cba82610d54565b5f805f805f805f80610100898b031215610e02575f80fd5b610e0b89610d54565b9750610e1960208a01610d54565b9650604089013595506060890135945060808901358015158114610e3b575f80fd5b935060a089013560ff81168114610e50575f80fd5b979a969950949793969295929450505060c08201359160e0013590565b5f8060408385031215610e7e575f80fd5b610e8783610d54565b9150610e9560208401610d54565b90509250929050565b60208082526012908201527111185a4bdb9bdd0b585d5d1a1bdc9a5e995960721b604082015260600190565b634e487b7160e01b5f52601160045260245ffd5b5f60018201610eef57610eef610eca565b5060010190565b818103818111156103f7576103f7610eca565b808201808211156103f7576103f7610eca56fea2646970667358221220a1d143789768769b66de8c53fd21dcbd7d0d8c20b7fb48df6fdda1e8652a789564736f6c634300081a0033",
					"opcodes": "PUSH1 0x80 PUSH1 0x40 MSTORE CALLVALUE DUP1 ISZERO PUSH2 0xF JUMPI PUSH0 DUP1 REVERT JUMPDEST POP PUSH1 0x40 MLOAD PUSH2 0x1091 CODESIZE SUB DUP1 PUSH2 0x1091 DUP4 CODECOPY DUP2 ADD PUSH1 0x40 DUP2 SWAP1 MSTORE PUSH2 0x2E SWAP2 PUSH2 0x11B JUMP JUMPDEST CALLER PUSH0 SWAP1 DUP2 MSTORE PUSH1 0x20 DUP2 DUP2 MSTORE PUSH1 0x40 SWAP2 DUP3 SWAP1 KECCAK256 PUSH1 0x1 SWAP1 DUP2 SWAP1 SSTORE DUP3 MLOAD DUP1 DUP5 ADD DUP5 MSTORE PUSH1 0xE DUP2 MSTORE PUSH14 0x2230B49029BA30B13632B1B7B4B7 PUSH1 0x91 SHL SWAP1 DUP4 ADD MSTORE DUP3 MLOAD DUP1 DUP5 ADD DUP5 MSTORE SWAP1 DUP2 MSTORE PUSH1 0x31 PUSH1 0xF8 SHL SWAP1 DUP3 ADD MSTORE DUP2 MLOAD PUSH32 0x8B73C3C69BB8FE3D512ECC4CF759CC79239F7B179B0FFACAA9A75D522B39400F DUP2 DUP4 ADD MSTORE PUSH32 0xB1461DDC0C1D5DED79A1DB0F74DAE949050A7C0B28728C724B24958C27A328B DUP2 DUP5 ADD MSTORE PUSH32 0xC89EFDAA54C0F20C7ADF612882DF0950F5A951637E0307CDCB4C672F298B8BC6 PUSH1 0x60 DUP3 ADD MSTORE PUSH1 0x80 DUP2 ADD SWAP4 SWAP1 SWAP4 MSTORE ADDRESS PUSH1 0xA0 DUP1 DUP6 ADD SWAP2 SWAP1 SWAP2 MSTORE DUP3 MLOAD DUP1 DUP6 SUB SWAP1 SWAP2 ADD DUP2 MSTORE PUSH1 0xC0 SWAP1 SWAP4 ADD SWAP1 SWAP2 MSTORE DUP2 MLOAD SWAP2 ADD KECCAK256 PUSH1 0x5 SSTORE PUSH2 0x132 JUMP JUMPDEST PUSH0 PUSH1 0x20 DUP3 DUP5 SUB SLT ISZERO PUSH2 0x12B JUMPI PUSH0 DUP1 REVERT JUMPDEST POP MLOAD SWAP2 SWAP1 POP JUMP JUMPDEST PUSH2 0xF52 DUP1 PUSH2 0x13F PUSH0 CODECOPY PUSH0 RETURN INVALID PUSH1 0x80 PUSH1 0x40 MSTORE CALLVALUE DUP1 ISZERO PUSH2 0xF JUMPI PUSH0 DUP1 REVERT JUMPDEST POP PUSH1 0x4 CALLDATASIZE LT PUSH2 0x13D JUMPI PUSH0 CALLDATALOAD PUSH1 0xE0 SHR DUP1 PUSH4 0x7ECEBE00 GT PUSH2 0xB4 JUMPI DUP1 PUSH4 0xA9059CBB GT PUSH2 0x79 JUMPI DUP1 PUSH4 0xA9059CBB EQ PUSH2 0x2FC JUMPI DUP1 PUSH4 0xB753A98C EQ PUSH2 0x30F JUMPI DUP1 PUSH4 0xBB35783B EQ PUSH2 0x322 JUMPI DUP1 PUSH4 0xBF353DBB EQ PUSH2 0x335 JUMPI DUP1 PUSH4 0xDD62ED3E EQ PUSH2 0x354 JUMPI DUP1 PUSH4 0xF2D5D56B EQ PUSH2 0x37E JUMPI PUSH0 DUP1 REVERT JUMPDEST DUP1 PUSH4 0x7ECEBE00 EQ PUSH2 0x282 JUMPI DUP1 PUSH4 0x8FCBAF0C EQ PUSH2 0x2A1 JUMPI DUP1 PUSH4 0x95D89B41 EQ PUSH2 0x2B4 JUMPI DUP1 PUSH4 0x9C52A7F1 EQ PUSH2 0x2D6 JUMPI DUP1 PUSH4 0x9DC29FAC EQ PUSH2 0x2E9 JUMPI PUSH0 DUP1 REVERT JUMPDEST DUP1 PUSH4 0x313CE567 GT PUSH2 0x105 JUMPI DUP1 PUSH4 0x313CE567 EQ PUSH2 0x1F8 JUMPI DUP1 PUSH4 0x3644E515 EQ PUSH2 0x212 JUMPI DUP1 PUSH4 0x40C10F19 EQ PUSH2 0x21B JUMPI DUP1 PUSH4 0x54FD4D50 EQ PUSH2 0x230 JUMPI DUP1 PUSH4 0x65FAE35E EQ PUSH2 0x250 JUMPI DUP1 PUSH4 0x70A08231 EQ PUSH2 0x263 JUMPI PUSH0 DUP1 REVERT JUMPDEST DUP1 PUSH4 0x6FDDE03 EQ PUSH2 0x141 JUMPI DUP1 PUSH4 0x95EA7B3 EQ PUSH2 0x184 JUMPI DUP1 PUSH4 0x18160DDD EQ PUSH2 0x1A7 JUMPI DUP1 PUSH4 0x23B872DD EQ PUSH2 0x1BE JUMPI DUP1 PUSH4 0x30ADF81F EQ PUSH2 0x1D1 JUMPI JUMPDEST PUSH0 DUP1 REVERT JUMPDEST PUSH2 0x16E PUSH1 0x40 MLOAD DUP1 PUSH1 0x40 ADD PUSH1 0x40 MSTORE DUP1 PUSH1 0xE DUP2 MSTORE PUSH1 0x20 ADD PUSH14 0x2230B49029BA30B13632B1B7B4B7 PUSH1 0x91 SHL DUP2 MSTORE POP DUP2 JUMP JUMPDEST PUSH1 0x40 MLOAD PUSH2 0x17B SWAP2 SWAP1 PUSH2 0xD1F JUMP JUMPDEST PUSH1 0x40 MLOAD DUP1 SWAP2 SUB SWAP1 RETURN JUMPDEST PUSH2 0x197 PUSH2 0x192 CALLDATASIZE PUSH1 0x4 PUSH2 0xD6F JUMP JUMPDEST PUSH2 0x391 JUMP JUMPDEST PUSH1 0x40 MLOAD SWAP1 ISZERO ISZERO DUP2 MSTORE PUSH1 0x20 ADD PUSH2 0x17B JUMP JUMPDEST PUSH2 0x1B0 PUSH1 0x1 SLOAD DUP2 JUMP JUMPDEST PUSH1 0x40 MLOAD SWAP1 DUP2 MSTORE PUSH1 0x20 ADD PUSH2 0x17B JUMP JUMPDEST PUSH2 0x197 PUSH2 0x1CC CALLDATASIZE PUSH1 0x4 PUSH2 0xD97 JUMP JUMPDEST PUSH2 0x3FD JUMP JUMPDEST PUSH2 0x1B0 PUSH32 0xEA2AA0A1BE11A07ED86D755C93467F4F82362B452371D1BA94D1715123511ACB DUP2 JUMP JUMPDEST PUSH2 0x200 PUSH1 0x12 DUP2 JUMP JUMPDEST PUSH1 0x40 MLOAD PUSH1 0xFF SWAP1 SWAP2 AND DUP2 MSTORE PUSH1 0x20 ADD PUSH2 0x17B JUMP JUMPDEST PUSH2 0x1B0 PUSH1 0x5 SLOAD DUP2 JUMP JUMPDEST PUSH2 0x22E PUSH2 0x229 CALLDATASIZE PUSH1 0x4 PUSH2 0xD6F JUMP JUMPDEST PUSH2 0x61B JUMP JUMPDEST STOP JUMPDEST PUSH2 0x16E PUSH1 0x40 MLOAD DUP1 PUSH1 0x40 ADD PUSH1 0x40 MSTORE DUP1 PUSH1 0x1 DUP2 MSTORE PUSH1 0x20 ADD PUSH1 0x31 PUSH1 0xF8 SHL DUP2 MSTORE POP DUP2 JUMP JUMPDEST PUSH2 0x22E PUSH2 0x25E CALLDATASIZE PUSH1 0x4 PUSH2 0xDD1 JUMP JUMPDEST PUSH2 0x6D8 JUMP JUMPDEST PUSH2 0x1B0 PUSH2 0x271 CALLDATASIZE PUSH1 0x4 PUSH2 0xDD1 JUMP JUMPDEST PUSH1 0x2 PUSH1 0x20 MSTORE PUSH0 SWAP1 DUP2 MSTORE PUSH1 0x40 SWAP1 KECCAK256 SLOAD DUP2 JUMP JUMPDEST PUSH2 0x1B0 PUSH2 0x290 CALLDATASIZE PUSH1 0x4 PUSH2 0xDD1 JUMP JUMPDEST PUSH1 0x4 PUSH1 0x20 MSTORE PUSH0 SWAP1 DUP2 MSTORE PUSH1 0x40 SWAP1 KECCAK256 SLOAD DUP2 JUMP JUMPDEST PUSH2 0x22E PUSH2 0x2AF CALLDATASIZE PUSH1 0x4 PUSH2 0xDEA JUMP JUMPDEST PUSH2 0x755 JUMP JUMPDEST PUSH2 0x16E PUSH1 0x40 MLOAD DUP1 PUSH1 0x40 ADD PUSH1 0x40 MSTORE DUP1 PUSH1 0x3 DUP2 MSTORE PUSH1 0x20 ADD PUSH3 0x444149 PUSH1 0xE8 SHL DUP2 MSTORE POP DUP2 JUMP JUMPDEST PUSH2 0x22E PUSH2 0x2E4 CALLDATASIZE PUSH1 0x4 PUSH2 0xDD1 JUMP JUMPDEST PUSH2 0xA47 JUMP JUMPDEST PUSH2 0x22E PUSH2 0x2F7 CALLDATASIZE PUSH1 0x4 PUSH2 0xD6F JUMP JUMPDEST PUSH2 0xAC3 JUMP JUMPDEST PUSH2 0x197 PUSH2 0x30A CALLDATASIZE PUSH1 0x4 PUSH2 0xD6F JUMP JUMPDEST PUSH2 0xCAE JUMP JUMPDEST PUSH2 0x22E PUSH2 0x31D CALLDATASIZE PUSH1 0x4 PUSH2 0xD6F JUMP JUMPDEST PUSH2 0xCC1 JUMP JUMPDEST PUSH2 0x22E PUSH2 0x330 CALLDATASIZE PUSH1 0x4 PUSH2 0xD97 JUMP JUMPDEST PUSH2 0xCD1 JUMP JUMPDEST PUSH2 0x1B0 PUSH2 0x343 CALLDATASIZE PUSH1 0x4 PUSH2 0xDD1 JUMP JUMPDEST PUSH0 PUSH1 0x20 DUP2 SWAP1 MSTORE SWAP1 DUP2 MSTORE PUSH1 0x40 SWAP1 KECCAK256 SLOAD DUP2 JUMP JUMPDEST PUSH2 0x1B0 PUSH2 0x362 CALLDATASIZE PUSH1 0x4 PUSH2 0xE6D JUMP JUMPDEST PUSH1 0x3 PUSH1 0x20 SWAP1 DUP2 MSTORE PUSH0 SWAP3 DUP4 MSTORE PUSH1 0x40 DUP1 DUP5 KECCAK256 SWAP1 SWAP2 MSTORE SWAP1 DUP3 MSTORE SWAP1 KECCAK256 SLOAD DUP2 JUMP JUMPDEST PUSH2 0x22E PUSH2 0x38C CALLDATASIZE PUSH1 0x4 PUSH2 0xD6F JUMP JUMPDEST PUSH2 0xCE2 JUMP JUMPDEST CALLER PUSH0 DUP2 DUP2 MSTORE PUSH1 0x3 PUSH1 0x20 SWAP1 DUP2 MSTORE PUSH1 0x40 DUP1 DUP4 KECCAK256 PUSH1 0x1 PUSH1 0x1 PUSH1 0xA0 SHL SUB DUP8 AND DUP1 DUP6 MSTORE SWAP3 MSTORE DUP1 DUP4 KECCAK256 DUP6 SWAP1 SSTORE MLOAD SWAP2 SWAP3 SWAP1 SWAP2 PUSH32 0x8C5BE1E5EBEC7D5BD14F71427D1E84F3DD0314C0F7B2291E5B200AC8C7C3B925 SWAP1 PUSH2 0x3EB SWAP1 DUP7 DUP2 MSTORE PUSH1 0x20 ADD SWAP1 JUMP JUMPDEST PUSH1 0x40 MLOAD DUP1 SWAP2 SUB SWAP1 LOG3 POP PUSH1 0x1 JUMPDEST SWAP3 SWAP2 POP POP JUMP JUMPDEST PUSH1 0x1 PUSH1 0x1 PUSH1 0xA0 SHL SUB DUP4 AND PUSH0 SWAP1 DUP2 MSTORE PUSH1 0x2 PUSH1 0x20 MSTORE PUSH1 0x40 DUP2 KECCAK256 SLOAD DUP3 GT ISZERO PUSH2 0x464 JUMPI PUSH1 0x40 MLOAD PUSH3 0x461BCD PUSH1 0xE5 SHL DUP2 MSTORE PUSH1 0x20 PUSH1 0x4 DUP3 ADD MSTORE PUSH1 0x18 PUSH1 0x24 DUP3 ADD MSTORE PUSH24 0x4461692F696E73756666696369656E742D62616C616E6365 PUSH1 0x40 SHL PUSH1 0x44 DUP3 ADD MSTORE PUSH1 0x64 ADD JUMPDEST PUSH1 0x40 MLOAD DUP1 SWAP2 SUB SWAP1 REVERT JUMPDEST PUSH1 0x1 PUSH1 0x1 PUSH1 0xA0 SHL SUB DUP5 AND CALLER EQ DUP1 ISZERO SWAP1 PUSH2 0x49E JUMPI POP PUSH1 0x1 PUSH1 0x1 PUSH1 0xA0 SHL SUB DUP5 AND PUSH0 SWAP1 DUP2 MSTORE PUSH1 0x3 PUSH1 0x20 SWAP1 DUP2 MSTORE PUSH1 0x40 DUP1 DUP4 KECCAK256 CALLER DUP5 MSTORE SWAP1 SWAP2 MSTORE SWAP1 KECCAK256 SLOAD ISZERO ISZERO JUMPDEST ISZERO PUSH2 0x566 JUMPI PUSH1 0x1 PUSH1 0x1 PUSH1 0xA0 SHL SUB DUP5 AND PUSH0 SWAP1 DUP2 MSTORE PUSH1 0x3 PUSH1 0x20 SWAP1 DUP2 MSTORE PUSH1 0x40 DUP1 DUP4 KECCAK256 CALLER DUP5 MSTORE SWAP1 SWAP2 MSTORE SWAP1 KECCAK256 SLOAD DUP3 GT ISZERO PUSH2 0x515 JUMPI PUSH1 0x40 MLOAD PUSH3 0x461BCD PUSH1 0xE5 SHL DUP2 MSTORE PUSH1 0x20 PUSH1 0x4 DUP3 ADD MSTORE PUSH1 0x1A PUSH1 0x24 DUP3 ADD MSTORE PUSH32 0x4461692F696E73756666696369656E742D616C6C6F77616E6365000000000000 PUSH1 0x44 DUP3 ADD MSTORE PUSH1 0x64 ADD PUSH2 0x45B JUMP JUMPDEST PUSH1 0x1 PUSH1 0x1 PUSH1 0xA0 SHL SUB DUP5 AND PUSH0 SWAP1 DUP2 MSTORE PUSH1 0x3 PUSH1 0x20 SWAP1 DUP2 MSTORE PUSH1 0x40 DUP1 DUP4 KECCAK256 CALLER DUP5 MSTORE SWAP1 SWAP2 MSTORE SWAP1 KECCAK256 SLOAD PUSH2 0x542 SWAP1 DUP4 PUSH2 0xCED JUMP JUMPDEST PUSH1 0x1 PUSH1 0x1 PUSH1 0xA0 SHL SUB DUP6 AND PUSH0 SWAP1 DUP2 MSTORE PUSH1 0x3 PUSH1 0x20 SWAP1 DUP2 MSTORE PUSH1 0x40 DUP1 DUP4 KECCAK256 CALLER DUP5 MSTORE SWAP1 SWAP2 MSTORE SWAP1 KECCAK256 SSTORE JUMPDEST PUSH1 0x1 PUSH1 0x1 PUSH1 0xA0 SHL SUB DUP5 AND PUSH0 SWAP1 DUP2 MSTORE PUSH1 0x2 PUSH1 0x20 MSTORE PUSH1 0x40 SWAP1 KECCAK256 SLOAD PUSH2 0x588 SWAP1 DUP4 PUSH2 0xCED JUMP JUMPDEST PUSH1 0x1 PUSH1 0x1 PUSH1 0xA0 SHL SUB DUP1 DUP7 AND PUSH0 SWAP1 DUP2 MSTORE PUSH1 0x2 PUSH1 0x20 MSTORE PUSH1 0x40 DUP1 DUP3 KECCAK256 SWAP4 SWAP1 SWAP4 SSTORE SWAP1 DUP6 AND DUP2 MSTORE KECCAK256 SLOAD PUSH2 0x5B6 SWAP1 DUP4 PUSH2 0xD06 JUMP JUMPDEST PUSH1 0x1 PUSH1 0x1 PUSH1 0xA0 SHL SUB DUP1 DUP6 AND PUSH0 DUP2 DUP2 MSTORE PUSH1 0x2 PUSH1 0x20 MSTORE PUSH1 0x40 SWAP1 DUP2 SWAP1 KECCAK256 SWAP4 SWAP1 SWAP4 SSTORE SWAP2 MLOAD SWAP1 DUP7 AND SWAP1 PUSH32 0xDDF252AD1BE2C89B69C2B068FC378DAA952BA7F163C4A11628F55A4DF523B3EF SWAP1 PUSH2 0x609 SWAP1 DUP7 DUP2 MSTORE PUSH1 0x20 ADD SWAP1 JUMP JUMPDEST PUSH1 0x40 MLOAD DUP1 SWAP2 SUB SWAP1 LOG3 POP PUSH1 0x1 SWAP4 SWAP3 POP POP POP JUMP JUMPDEST CALLER PUSH0 SWAP1 DUP2 MSTORE PUSH1 0x20 DUP2 SWAP1 MSTORE PUSH1 0x40 SWAP1 KECCAK256 SLOAD PUSH1 0x1 EQ PUSH2 0x649 JUMPI PUSH1 0x40 MLOAD PUSH3 0x461BCD PUSH1 0xE5 SHL DUP2 MSTORE PUSH1 0x4 ADD PUSH2 0x45B SWAP1 PUSH2 0xE9E JUMP JUMPDEST PUSH1 0x1 PUSH1 0x1 PUSH1 0xA0 SHL SUB DUP3 AND PUSH0 SWAP1 DUP2 MSTORE PUSH1 0x2 PUSH1 0x20 MSTORE PUSH1 0x40 SWAP1 KECCAK256 SLOAD PUSH2 0x66B SWAP1 DUP3 PUSH2 0xD06 JUMP JUMPDEST PUSH1 0x1 PUSH1 0x1 PUSH1 0xA0 SHL SUB DUP4 AND PUSH0 SWAP1 DUP2 MSTORE PUSH1 0x2 PUSH1 0x20 MSTORE PUSH1 0x40 SWAP1 KECCAK256 SSTORE PUSH1 0x1 SLOAD PUSH2 0x690 SWAP1 DUP3 PUSH2 0xD06 JUMP JUMPDEST PUSH1 0x1 SSTORE PUSH1 0x40 MLOAD DUP2 DUP2 MSTORE PUSH1 0x1 PUSH1 0x1 PUSH1 0xA0 SHL SUB DUP4 AND SWAP1 PUSH0 SWAP1 PUSH32 0xDDF252AD1BE2C89B69C2B068FC378DAA952BA7F163C4A11628F55A4DF523B3EF SWAP1 PUSH1 0x20 ADD JUMPDEST PUSH1 0x40 MLOAD DUP1 SWAP2 SUB SWAP1 LOG3 POP POP JUMP JUMPDEST CALLER PUSH0 SWAP1 DUP2 MSTORE PUSH1 0x20 DUP2 SWAP1 MSTORE PUSH1 0x40 SWAP1 KECCAK256 SLOAD PUSH1 0x1 EQ PUSH2 0x706 JUMPI PUSH1 0x40 MLOAD PUSH3 0x461BCD PUSH1 0xE5 SHL DUP2 MSTORE PUSH1 0x4 ADD PUSH2 0x45B SWAP1 PUSH2 0xE9E JUMP JUMPDEST PUSH1 0x1 PUSH1 0x1 PUSH1 0xA0 SHL SUB DUP2 AND PUSH0 SWAP1 DUP2 MSTORE PUSH1 0x20 DUP2 DUP2 MSTORE PUSH1 0x40 DUP1 DUP4 KECCAK256 PUSH1 0x1 SWAP1 SSTORE CALLDATASIZE PUSH2 0x120 DUP2 ADD DUP3 MSTORE DUP3 DUP2 MSTORE PUSH1 0xE0 SWAP3 DUP2 ADD DUP4 SWAP1 MSTORE SWAP2 SWAP3 SWAP2 ADD CALLDATACOPY PUSH1 0x24 CALLDATALOAD PUSH1 0x4 CALLDATALOAD CALLER PUSH0 CALLDATALOAD PUSH1 0x1 PUSH1 0x1 PUSH1 0xE0 SHL SUB NOT AND PUSH2 0x120 CALLDATASIZE LOG4 POP JUMP JUMPDEST PUSH1 0x5 SLOAD PUSH1 0x40 DUP1 MLOAD PUSH32 0xEA2AA0A1BE11A07ED86D755C93467F4F82362B452371D1BA94D1715123511ACB PUSH1 0x20 DUP3 ADD MSTORE PUSH1 0x1 PUSH1 0x1 PUSH1 0xA0 SHL SUB DUP1 DUP13 AND SWAP3 DUP3 ADD SWAP3 SWAP1 SWAP3 MSTORE SWAP1 DUP10 AND PUSH1 0x60 DUP3 ADD MSTORE PUSH1 0x80 DUP2 ADD DUP9 SWAP1 MSTORE PUSH1 0xA0 DUP2 ADD DUP8 SWAP1 MSTORE DUP6 ISZERO ISZERO PUSH1 0xC0 DUP3 ADD MSTORE PUSH0 SWAP2 SWAP1 PUSH1 0xE0 ADD PUSH1 0x40 MLOAD PUSH1 0x20 DUP2 DUP4 SUB SUB DUP2 MSTORE SWAP1 PUSH1 0x40 MSTORE DUP1 MLOAD SWAP1 PUSH1 0x20 ADD KECCAK256 PUSH1 0x40 MLOAD PUSH1 0x20 ADD PUSH2 0x7F5 SWAP3 SWAP2 SWAP1 PUSH2 0x1901 PUSH1 0xF0 SHL DUP2 MSTORE PUSH1 0x2 DUP2 ADD SWAP3 SWAP1 SWAP3 MSTORE PUSH1 0x22 DUP3 ADD MSTORE PUSH1 0x42 ADD SWAP1 JUMP JUMPDEST PUSH1 0x40 DUP1 MLOAD PUSH1 0x1F NOT DUP2 DUP5 SUB ADD DUP2 MSTORE SWAP2 SWAP1 MSTORE DUP1 MLOAD PUSH1 0x20 SWAP1 SWAP2 ADD KECCAK256 SWAP1 POP PUSH1 0x1 PUSH1 0x1 PUSH1 0xA0 SHL SUB DUP10 AND PUSH2 0x85D JUMPI PUSH1 0x40 MLOAD PUSH3 0x461BCD PUSH1 0xE5 SHL DUP2 MSTORE PUSH1 0x20 PUSH1 0x4 DUP3 ADD MSTORE PUSH1 0x15 PUSH1 0x24 DUP3 ADD MSTORE PUSH21 0x4461692F696E76616C69642D616464726573732D3 PUSH1 0x5C SHL PUSH1 0x44 DUP3 ADD MSTORE PUSH1 0x64 ADD PUSH2 0x45B JUMP JUMPDEST PUSH1 0x40 DUP1 MLOAD PUSH0 DUP2 MSTORE PUSH1 0x20 DUP2 ADD DUP1 DUP4 MSTORE DUP4 SWAP1 MSTORE PUSH1 0xFF DUP7 AND SWAP2 DUP2 ADD SWAP2 SWAP1 SWAP2 MSTORE PUSH1 0x60 DUP2 ADD DUP5 SWAP1 MSTORE PUSH1 0x80 DUP2 ADD DUP4 SWAP1 MSTORE PUSH1 0x1 SWAP1 PUSH1 0xA0 ADD PUSH1 0x20 PUSH1 0x40 MLOAD PUSH1 0x20 DUP2 SUB SWAP1 DUP1 DUP5 SUB SWAP1 DUP6 GAS STATICCALL ISZERO DUP1 ISZERO PUSH2 0x8AD JUMPI RETURNDATASIZE PUSH0 DUP1 RETURNDATACOPY RETURNDATASIZE PUSH0 REVERT JUMPDEST POP POP POP PUSH1 0x20 PUSH1 0x40 MLOAD SUB MLOAD PUSH1 0x1 PUSH1 0x1 PUSH1 0xA0 SHL SUB AND DUP10 PUSH1 0x1 PUSH1 0x1 PUSH1 0xA0 SHL SUB AND EQ PUSH2 0x90C JUMPI PUSH1 0x40 MLOAD PUSH3 0x461BCD PUSH1 0xE5 SHL DUP2 MSTORE PUSH1 0x20 PUSH1 0x4 DUP3 ADD MSTORE PUSH1 0x12 PUSH1 0x24 DUP3 ADD MSTORE PUSH18 0x11185A4BDA5B9D985B1A590B5C195C9B5A5D PUSH1 0x72 SHL PUSH1 0x44 DUP3 ADD MSTORE PUSH1 0x64 ADD PUSH2 0x45B JUMP JUMPDEST DUP6 ISZERO DUP1 PUSH2 0x919 JUMPI POP DUP6 TIMESTAMP GT ISZERO JUMPDEST PUSH2 0x95A JUMPI PUSH1 0x40 MLOAD PUSH3 0x461BCD PUSH1 0xE5 SHL DUP2 MSTORE PUSH1 0x20 PUSH1 0x4 DUP3 ADD MSTORE PUSH1 0x12 PUSH1 0x24 DUP3 ADD MSTORE PUSH18 0x11185A4BDC195C9B5A5D0B595E1C1A5C9959 PUSH1 0x72 SHL PUSH1 0x44 DUP3 ADD MSTORE PUSH1 0x64 ADD PUSH2 0x45B JUMP JUMPDEST PUSH1 0x1 PUSH1 0x1 PUSH1 0xA0 SHL SUB DUP10 AND PUSH0 SWAP1 DUP2 MSTORE PUSH1 0x4 PUSH1 0x20 MSTORE PUSH1 0x40 DUP2 KECCAK256 DUP1 SLOAD SWAP2 PUSH2 0x97D DUP4 PUSH2 0xEDE JUMP JUMPDEST SWAP2 SWAP1 POP SSTORE DUP8 EQ PUSH2 0x9C3 JUMPI PUSH1 0x40 MLOAD PUSH3 0x461BCD PUSH1 0xE5 SHL DUP2 MSTORE PUSH1 0x20 PUSH1 0x4 DUP3 ADD MSTORE PUSH1 0x11 PUSH1 0x24 DUP3 ADD MSTORE PUSH17 0x4461692F696E76616C69642D6E6F6E6365 PUSH1 0x78 SHL PUSH1 0x44 DUP3 ADD MSTORE PUSH1 0x64 ADD PUSH2 0x45B JUMP JUMPDEST PUSH0 DUP6 PUSH2 0x9CF JUMPI PUSH0 PUSH2 0x9D2 JUMP JUMPDEST PUSH1 0x1 JUMPDEST PUSH1 0x1 PUSH1 0x1 PUSH1 0xA0 SHL SUB DUP12 DUP2 AND PUSH0 DUP2 DUP2 MSTORE PUSH1 0x3 PUSH1 0x20 SWAP1 DUP2 MSTORE PUSH1 0x40 DUP1 DUP4 KECCAK256 SWAP5 DUP16 AND DUP1 DUP5 MSTORE SWAP5 DUP3 MSTORE SWAP2 DUP3 SWAP1 KECCAK256 PUSH1 0xFF SWAP6 SWAP1 SWAP6 AND SWAP5 DUP6 SWAP1 SSTORE SWAP1 MLOAD DUP5 DUP2 MSTORE SWAP4 SWAP5 POP SWAP2 SWAP3 SWAP1 SWAP2 PUSH32 0x8C5BE1E5EBEC7D5BD14F71427D1E84F3DD0314C0F7B2291E5B200AC8C7C3B925 SWAP2 ADD PUSH1 0x40 MLOAD DUP1 SWAP2 SUB SWAP1 LOG3 POP POP POP POP POP POP POP POP POP POP JUMP JUMPDEST CALLER PUSH0 SWAP1 DUP2 MSTORE PUSH1 0x20 DUP2 SWAP1 MSTORE PUSH1 0x40 SWAP1 KECCAK256 SLOAD PUSH1 0x1 EQ PUSH2 0xA75 JUMPI PUSH1 0x40 MLOAD PUSH3 0x461BCD PUSH1 0xE5 SHL DUP2 MSTORE PUSH1 0x4 ADD PUSH2 0x45B SWAP1 PUSH2 0xE9E JUMP JUMPDEST PUSH1 0x1 PUSH1 0x1 PUSH1 0xA0 SHL SUB DUP2 AND PUSH0 SWAP1 DUP2 MSTORE PUSH1 0x20 DUP2 DUP2 MSTORE PUSH1 0x40 DUP1 DUP4 KECCAK256 DUP4 SWAP1 SSTORE CALLDATASIZE PUSH2 0x120 DUP2 ADD DUP3 MSTORE DUP3 DUP2 MSTORE PUSH1 0xE0 SWAP3 DUP2 ADD DUP4 SWAP1 MSTORE SWAP2 SWAP3 SWAP2 ADD CALLDATACOPY PUSH1 0x24 CALLDATALOAD PUSH1 0x4 CALLDATALOAD CALLER PUSH0 CALLDATALOAD PUSH1 0x1 PUSH1 0x1 PUSH1 0xE0 SHL SUB NOT AND PUSH2 0x120 CALLDATASIZE LOG4 POP JUMP JUMPDEST PUSH1 0x1 PUSH1 0x1 PUSH1 0xA0 SHL SUB DUP3 AND PUSH0 SWAP1 DUP2 MSTORE PUSH1 0x2 PUSH1 0x20 MSTORE PUSH1 0x40 SWAP1 KECCAK256 SLOAD DUP2 GT ISZERO PUSH2 0xB25 JUMPI PUSH1 0x40 MLOAD PUSH3 0x461BCD PUSH1 0xE5 SHL DUP2 MSTORE PUSH1 0x20 PUSH1 0x4 DUP3 ADD MSTORE PUSH1 0x18 PUSH1 0x24 DUP3 ADD MSTORE PUSH24 0x4461692F696E73756666696369656E742D62616C616E6365 PUSH1 0x40 SHL PUSH1 0x44 DUP3 ADD MSTORE PUSH1 0x64 ADD PUSH2 0x45B JUMP JUMPDEST PUSH1 0x1 PUSH1 0x1 PUSH1 0xA0 SHL SUB DUP3 AND CALLER EQ DUP1 ISZERO SWAP1 PUSH2 0xB5F JUMPI POP PUSH1 0x1 PUSH1 0x1 PUSH1 0xA0 SHL SUB DUP3 AND PUSH0 SWAP1 DUP2 MSTORE PUSH1 0x3 PUSH1 0x20 SWAP1 DUP2 MSTORE PUSH1 0x40 DUP1 DUP4 KECCAK256 CALLER DUP5 MSTORE SWAP1 SWAP2 MSTORE SWAP1 KECCAK256 SLOAD ISZERO ISZERO JUMPDEST ISZERO PUSH2 0xC27 JUMPI PUSH1 0x1 PUSH1 0x1 PUSH1 0xA0 SHL SUB DUP3 AND PUSH0 SWAP1 DUP2 MSTORE PUSH1 0x3 PUSH1 0x20 SWAP1 DUP2 MSTORE PUSH1 0x40 DUP1 DUP4 KECCAK256 CALLER DUP5 MSTORE SWAP1 SWAP2 MSTORE SWAP1 KECCAK256 SLOAD DUP2 GT ISZERO PUSH2 0xBD6 JUMPI PUSH1 0x40 MLOAD PUSH3 0x461BCD PUSH1 0xE5 SHL DUP2 MSTORE PUSH1 0x20 PUSH1 0x4 DUP3 ADD MSTORE PUSH1 0x1A PUSH1 0x24 DUP3 ADD MSTORE PUSH32 0x4461692F696E73756666696369656E742D616C6C6F77616E6365000000000000 PUSH1 0x44 DUP3 ADD MSTORE PUSH1 0x64 ADD PUSH2 0x45B JUMP JUMPDEST PUSH1 0x1 PUSH1 0x1 PUSH1 0xA0 SHL SUB DUP3 AND PUSH0 SWAP1 DUP2 MSTORE PUSH1 0x3 PUSH1 0x20 SWAP1 DUP2 MSTORE PUSH1 0x40 DUP1 DUP4 KECCAK256 CALLER DUP5 MSTORE SWAP1 SWAP2 MSTORE SWAP1 KECCAK256 SLOAD PUSH2 0xC03 SWAP1 DUP3 PUSH2 0xCED JUMP JUMPDEST PUSH1 0x1 PUSH1 0x1 PUSH1 0xA0 SHL SUB DUP4 AND PUSH0 SWAP1 DUP2 MSTORE PUSH1 0x3 PUSH1 0x20 SWAP1 DUP2 MSTORE PUSH1 0x40 DUP1 DUP4 KECCAK256 CALLER DUP5 MSTORE SWAP1 SWAP2 MSTORE SWAP1 KECCAK256 SSTORE JUMPDEST PUSH1 0x1 PUSH1 0x1 PUSH1 0xA0 SHL SUB DUP3 AND PUSH0 SWAP1 DUP2 MSTORE PUSH1 0x2 PUSH1 0x20 MSTORE PUSH1 0x40 SWAP1 KECCAK256 SLOAD PUSH2 0xC49 SWAP1 DUP3 PUSH2 0xCED JUMP JUMPDEST PUSH1 0x1 PUSH1 0x1 PUSH1 0xA0 SHL SUB DUP4 AND PUSH0 SWAP1 DUP2 MSTORE PUSH1 0x2 PUSH1 0x20 MSTORE PUSH1 0x40 SWAP1 KECCAK256 SSTORE PUSH1 0x1 SLOAD PUSH2 0xC6E SWAP1 DUP3 PUSH2 0xCED JUMP JUMPDEST PUSH1 0x1 SSTORE PUSH1 0x40 MLOAD DUP2 DUP2 MSTORE PUSH0 SWAP1 PUSH1 0x1 PUSH1 0x1 PUSH1 0xA0 SHL SUB DUP5 AND SWAP1 PUSH32 0xDDF252AD1BE2C89B69C2B068FC378DAA952BA7F163C4A11628F55A4DF523B3EF SWAP1 PUSH1 0x20 ADD PUSH2 0x6CC JUMP JUMPDEST PUSH0 PUSH2 0xCBA CALLER DUP5 DUP5 PUSH2 0x3FD JUMP JUMPDEST SWAP4 SWAP3 POP POP POP JUMP JUMPDEST PUSH2 0xCCC CALLER DUP4 DUP4 PUSH2 0x3FD JUMP JUMPDEST POP POP POP JUMP JUMPDEST PUSH2 0xCDC DUP4 DUP4 DUP4 PUSH2 0x3FD JUMP JUMPDEST POP POP POP POP JUMP JUMPDEST PUSH2 0xCCC DUP3 CALLER DUP4 PUSH2 0x3FD JUMP JUMPDEST PUSH0 DUP3 PUSH2 0xCF9 DUP4 DUP3 PUSH2 0xEF6 JUMP JUMPDEST SWAP2 POP DUP2 GT ISZERO PUSH2 0x3F7 JUMPI PUSH0 DUP1 REVERT JUMPDEST PUSH0 DUP3 PUSH2 0xD12 DUP4 DUP3 PUSH2 0xF09 JUMP JUMPDEST SWAP2 POP DUP2 LT ISZERO PUSH2 0x3F7 JUMPI PUSH0 DUP1 REVERT JUMPDEST PUSH1 0x20 DUP2 MSTORE PUSH0 DUP3 MLOAD DUP1 PUSH1 0x20 DUP5 ADD MSTORE DUP1 PUSH1 0x20 DUP6 ADD PUSH1 0x40 DUP6 ADD MCOPY PUSH0 PUSH1 0x40 DUP3 DUP6 ADD ADD MSTORE PUSH1 0x40 PUSH1 0x1F NOT PUSH1 0x1F DUP4 ADD AND DUP5 ADD ADD SWAP2 POP POP SWAP3 SWAP2 POP POP JUMP JUMPDEST DUP1 CALLDATALOAD PUSH1 0x1 PUSH1 0x1 PUSH1 0xA0 SHL SUB DUP2 AND DUP2 EQ PUSH2 0xD6A JUMPI PUSH0 DUP1 REVERT JUMPDEST SWAP2 SWAP1 POP JUMP JUMPDEST PUSH0 DUP1 PUSH1 0x40 DUP4 DUP6 SUB SLT ISZERO PUSH2 0xD80 JUMPI PUSH0 DUP1 REVERT JUMPDEST PUSH2 0xD89 DUP4 PUSH2 0xD54 JUMP JUMPDEST SWAP5 PUSH1 0x20 SWAP4 SWAP1 SWAP4 ADD CALLDATALOAD SWAP4 POP POP POP JUMP JUMPDEST PUSH0 DUP1 PUSH0 PUSH1 0x60 DUP5 DUP7 SUB SLT ISZERO PUSH2 0xDA9 JUMPI PUSH0 DUP1 REVERT JUMPDEST PUSH2 0xDB2 DUP5 PUSH2 0xD54 JUMP JUMPDEST SWAP3 POP PUSH2 0xDC0 PUSH1 0x20 DUP6 ADD PUSH2 0xD54 JUMP JUMPDEST SWAP3 SWAP6 SWAP3 SWAP5 POP POP POP PUSH1 0x40 SWAP2 SWAP1 SWAP2 ADD CALLDATALOAD SWAP1 JUMP JUMPDEST PUSH0 PUSH1 0x20 DUP3 DUP5 SUB SLT ISZERO PUSH2 0xDE1 JUMPI PUSH0 DUP1 REVERT JUMPDEST PUSH2 0xCBA DUP3 PUSH2 0xD54 JUMP JUMPDEST PUSH0 DUP1 PUSH0 DUP1 PUSH0 DUP1 PUSH0 DUP1 PUSH2 0x100 DUP10 DUP12 SUB SLT ISZERO PUSH2 0xE02 JUMPI PUSH0 DUP1 REVERT JUMPDEST PUSH2 0xE0B DUP10 PUSH2 0xD54 JUMP JUMPDEST SWAP8 POP PUSH2 0xE19 PUSH1 0x20 DUP11 ADD PUSH2 0xD54 JUMP JUMPDEST SWAP7 POP PUSH1 0x40 DUP10 ADD CALLDATALOAD SWAP6 POP PUSH1 0x60 DUP10 ADD CALLDATALOAD SWAP5 POP PUSH1 0x80 DUP10 ADD CALLDATALOAD DUP1 ISZERO ISZERO DUP2 EQ PUSH2 0xE3B JUMPI PUSH0 DUP1 REVERT JUMPDEST SWAP4 POP PUSH1 0xA0 DUP10 ADD CALLDATALOAD PUSH1 0xFF DUP2 AND DUP2 EQ PUSH2 0xE50 JUMPI PUSH0 DUP1 REVERT JUMPDEST SWAP8 SWAP11 SWAP7 SWAP10 POP SWAP5 SWAP8 SWAP4 SWAP7 SWAP3 SWAP6 SWAP3 SWAP5 POP POP POP PUSH1 0xC0 DUP3 ADD CALLDATALOAD SWAP2 PUSH1 0xE0 ADD CALLDATALOAD SWAP1 JUMP JUMPDEST PUSH0 DUP1 PUSH1 0x40 DUP4 DUP6 SUB SLT ISZERO PUSH2 0xE7E JUMPI PUSH0 DUP1 REVERT JUMPDEST PUSH2 0xE87 DUP4 PUSH2 0xD54 JUMP JUMPDEST SWAP2 POP PUSH2 0xE95 PUSH1 0x20 DUP5 ADD PUSH2 0xD54 JUMP JUMPDEST SWAP1 POP SWAP3 POP SWAP3 SWAP1 POP JUMP JUMPDEST PUSH1 0x20 DUP1 DUP3 MSTORE PUSH1 0x12 SWAP1 DUP3 ADD MSTORE PUSH18 0x11185A4BDB9BDD0B585D5D1A1BDC9A5E9959 PUSH1 0x72 SHL PUSH1 0x40 DUP3 ADD MSTORE PUSH1 0x60 ADD SWAP1 JUMP JUMPDEST PUSH4 0x4E487B71 PUSH1 0xE0 SHL PUSH0 MSTORE PUSH1 0x11 PUSH1 0x4 MSTORE PUSH1 0x24 PUSH0 REVERT JUMPDEST PUSH0 PUSH1 0x1 DUP3 ADD PUSH2 0xEEF JUMPI PUSH2 0xEEF PUSH2 0xECA JUMP JUMPDEST POP PUSH1 0x1 ADD SWAP1 JUMP JUMPDEST DUP2 DUP2 SUB DUP2 DUP2 GT ISZERO PUSH2 0x3F7 JUMPI PUSH2 0x3F7 PUSH2 0xECA JUMP JUMPDEST DUP1 DUP3 ADD DUP1 DUP3 GT ISZERO PUSH2 0x3F7 JUMPI PUSH2 0x3F7 PUSH2 0xECA JUMP INVALID LOG2 PUSH5 0x6970667358 0x22 SLT KECCAK256 LOG1 0xD1 NUMBER PUSH25 0x9768769B66DE8C53FD21DCBD7D0D8C20B7FB48DF6FDDA1E865 0x2A PUSH25 0x9564736F6C634300081A003300000000000000000000000000 "
				},
				"gasEstimates": {
					"creation": {
						"codeDepositCost": "784400",
						"executionCost": "infinite",
						"totalCost": "infinite"
					},
					"external": {
						"DOMAIN_SEPARATOR()": "2339",
						"PERMIT_TYPEHASH()": "306",
						"allowance(address,address)": "infinite",
						"approve(address,uint256)": "24543",
						"balanceOf(address)": "2649",
						"burn(address,uint256)": "infinite",
						"decimals()": "226",
						"deny(address)": "infinite",
						"mint(address,uint256)": "infinite",
						"move(address,address,uint256)": "infinite",
						"name()": "infinite",
						"nonces(address)": "2539",
						"permit(address,address,uint256,uint256,bool,uint8,bytes32,bytes32)": "infinite",
						"pull(address,uint256)": "infinite",
						"push(address,uint256)": "infinite",
						"rely(address)": "infinite",
						"symbol()": "infinite",
						"totalSupply()": "2362",
						"transfer(address,uint256)": "infinite",
						"transferFrom(address,address,uint256)": "infinite",
						"version()": "infinite",
						"wards(address)": "2607"
					},
					"internal": {
						"add(uint256,uint256)": "infinite",
						"sub(uint256,uint256)": "infinite"
					}
				},
				"methodIdentifiers": {
					"DOMAIN_SEPARATOR()": "3644e515",
					"PERMIT_TYPEHASH()": "30adf81f",
					"allowance(address,address)": "dd62ed3e",
					"approve(address,uint256)": "095ea7b3",
					"balanceOf(address)": "70a08231",
					"burn(address,uint256)": "9dc29fac",
					"decimals()": "313ce567",
					"deny(address)": "9c52a7f1",
					"mint(address,uint256)": "40c10f19",
					"move(address,address,uint256)": "bb35783b",
					"name()": "06fdde03",
					"nonces(address)": "7ecebe00",
					"permit(address,address,uint256,uint256,bool,uint8,bytes32,bytes32)": "8fcbaf0c",
					"pull(address,uint256)": "f2d5d56b",
					"push(address,uint256)": "b753a98c",
					"rely(address)": "65fae35e",
					"symbol()": "95d89b41",
					"totalSupply()": "18160ddd",
					"transfer(address,uint256)": "a9059cbb",
					"transferFrom(address,address,uint256)": "23b872dd",
					"version()": "54fd4d50",
					"wards(address)": "bf353dbb"
				}
			},
			"storageLayout": {
				"storage": [
					{
						"astId": 25,
						"contract": "contracts/Online/ERC20/Dai.sol:Dai",
						"label": "wards",
						"offset": 0,
						"slot": "0",
						"type": "t_mapping(t_address,t_uint256)"
					},
					{
						"astId": 85,
						"contract": "contracts/Online/ERC20/Dai.sol:Dai",
						"label": "totalSupply",
						"offset": 0,
						"slot": "1",
						"type": "t_uint256"
					},
					{
						"astId": 89,
						"contract": "contracts/Online/ERC20/Dai.sol:Dai",
						"label": "balanceOf",
						"offset": 0,
						"slot": "2",
						"type": "t_mapping(t_address,t_uint256)"
					},
					{
						"astId": 95,
						"contract": "contracts/Online/ERC20/Dai.sol:Dai",
						"label": "allowance",
						"offset": 0,
						"slot": "3",
						"type": "t_mapping(t_address,t_mapping(t_address,t_uint256))"
					},
					{
						"astId": 99,
						"contract": "contracts/Online/ERC20/Dai.sol:Dai",
						"label": "nonces",
						"offset": 0,
						"slot": "4",
						"type": "t_mapping(t_address,t_uint256)"
					},
					{
						"astId": 159,
						"contract": "contracts/Online/ERC20/Dai.sol:Dai",
						"label": "DOMAIN_SEPARATOR",
						"offset": 0,
						"slot": "5",
						"type": "t_bytes32"
					}
				],
				"types": {
					"t_address": {
						"encoding": "inplace",
						"label": "address",
						"numberOfBytes": "20"
					},
					"t_bytes32": {
						"encoding": "inplace",
						"label": "bytes32",
						"numberOfBytes": "32"
					},
					"t_mapping(t_address,t_mapping(t_address,t_uint256))": {
						"encoding": "mapping",
						"key": "t_address",
						"label": "mapping(address => mapping(address => uint256))",
						"numberOfBytes": "32",
						"value": "t_mapping(t_address,t_uint256)"
					},
					"t_mapping(t_address,t_uint256)": {
						"encoding": "mapping",
						"key": "t_address",
						"label": "mapping(address => uint256)",
						"numberOfBytes": "32",
						"value": "t_uint256"
					},
					"t_uint256": {
						"encoding": "inplace",
						"label": "uint256",
						"numberOfBytes": "32"
					}
				}
			},
			"userdoc": {
				"kind": "user",
				"methods": {},
				"version": 1
			}
		}
	}
}