{
	"data": {
		"bytecode": {
			"linkReferences": {},
			"object": "6080604052348015600e575f80fd5b5060c580601a5f395ff3fe6080604052348015600e575f80fd5b50600436106030575f3560e01c806306661abd146034578063371303c014604d575b5f80fd5b603b5f5481565b60405190815260200160405180910390f35b603b5f60015f80828254605f9190606b565b90915550505f54919050565b80820180821115608957634e487b7160e01b5f52601160045260245ffd5b9291505056fea26469706673582212208f750376853ef1dc19740918dec5d692bc7cd964b6d15ce6813882ff26a86b5364736f6c634300081a0033",
			"opcodes": "PUSH1 0x80 PUSH1 0x40 MSTORE CALLVALUE DUP1 ISZERO PUSH1 0xE JUMPI PUSH0 DUP1 REVERT JUMPDEST POP PUSH1 0xC5 DUP1 PUSH1 0x1A PUSH0 CODECOPY PUSH0 RETURN INVALID PUSH1 0x80 PUSH1 0x40 MSTORE CALLVALUE DUP1 ISZERO PUSH1 0xE JUMPI PUSH0 DUP1 REVERT JUMPDEST POP PUSH1 0x4 CALLDATASIZE LT PUSH1 0x30 JUMPI PUSH0 CALLDATALOAD PUSH1 0xE0 SHR DUP1 PUSH4 0x6661ABD EQ PUSH1 0x34 JUMPI DUP1 PUSH4 0x371303C0 EQ PUSH1 0x4D JUMPI JUMPDEST PUSH0 DUP1 REVERT JUMPDEST PUSH1 0x3B PUSH0 SLOAD DUP2 JUMP JUMPDEST PUSH1 0x40 MLOAD SWAP1 DUP2 MSTORE PUSH1 0x20 ADD PUSH1 0x40 MLOAD DUP1 SWAP2 SUB SWAP1 RETURN JUMPDEST PUSH1 0x3B PUSH0 PUSH1 0x1 PUSH0 DUP1 DUP3 DUP3 SLOAD PUSH1 0x5F SWAP2 SWAP1 PUSH1 0x6B JUMP JUMPDEST SWAP1 SWAP2 SSTORE POP POP PUSH0 SLOAD SWAP2 SWAP1 POP JUMP JUMPDEST DUP1 DUP3 ADD DUP1 DUP3 GT ISZERO PUSH1 0x89 JUMPI PUSH4 0x4E487B71 PUSH1 0xE0 SHL PUSH0 MSTORE PUSH1 0x11 PUSH1 0x4 MSTORE PUSH1 0x24 PUSH0 REVERT JUMPDEST SWAP3 SWAP2 POP POP JUMP INVALID LOG2 PUSH5 0x6970667358 0x22 SLT KECCAK256 DUP16 PUSH22 0x376853EF1DC19740918DEC5D692BC7CD964B6D15CE6 DUP2 CODESIZE DUP3 SELFDESTRUCT 0x26 0xA8 PUSH12 0x5364736F6C634300081A0033 "
		},
		"gasEstimates": {
			"creation": {
				"codeDepositCost": "39400",
				"executionCost": "91",
				"totalCost": "39491"
			},
			"external": {
				"count()": "2259",
				"inc()": "26587"
			}
		},
		"methodIdentifiers": {
			"count()": "06661abd",
			"inc()": "371303c0"
		}
	},
	"abi": [
		{
			"inputs": [],
			"name": "count",
			"outputs": [
				{
					"internalType": "uint256",
					"name": "",
					"type": "uint256"
				}
			],
			"stateMutability": "view",
			"type": "function"
		},
		{
			"inputs": [],
			"name": "inc",
			"outputs": [
				{
					"internalType": "uint256",
					"name": "",
					"type": "uint256"
				}
			],
			"stateMutability": "nonpayable",
			"type": "function"
		}
	]
}