{
	"data": {
		"bytecode": {
			"linkReferences": {},
			"object": "6080604052348015600e575f80fd5b505f80546001600160a01b031916331790556108d08061002d5f395ff3fe608060405260043610610092575f3560e01c80638da5cb5b116100575780638da5cb5b146101575780639f81aed71461018d578063b0f8b142146101a1578063c1a287e2146100e0578063c4d252f5146101c1575f80fd5b8063228250c91461009d5780634125ff90146100e05780634b9915a5146101035780636b874205146101245780638a1ce0b614610138575f80fd5b3661009957005b5f80fd5b3480156100a8575f80fd5b506100cb6100b7366004610647565b60016020525f908152604090205460ff1681565b60405190151581526020015b60405180910390f35b3480156100eb575f80fd5b506100f56103e881565b6040519081526020016100d7565b34801561010e575f80fd5b5061012261011d3660046106a3565b6101e0565b005b34801561012f575f80fd5b506100f5610310565b348015610143575f80fd5b506100f56101523660046106a3565b610322565b348015610162575f80fd5b505f54610175906001600160a01b031681565b6040516001600160a01b0390911681526020016100d7565b348015610198575f80fd5b506100f5600a81565b6101b46101af3660046106a3565b610363565b6040516100d79190610741565b3480156101cc575f80fd5b506101226101db366004610647565b6105ad565b5f546001600160a01b0316331461020a576040516374a2152760e01b815260040160405180910390fd5b5f61021a88888888888888610322565b5f8181526001602052604090205490915060ff161561025457604051634ca8215f60e11b8152600481018290526024015b60405180910390fd5b61025f600a42610776565b82108061027657506102736103e842610776565b82115b1561029d57604051630d4b0b6160e11b81524260048201526024810183905260440161024b565b5f81815260016020819052604091829020805460ff19169091179055516001600160a01b0389169082907f3c22f47140594040d205a5533cfedd86c9ab8622c39ead03affb2d97052c794c906102fe908b908b908b908b908b908b906107c3565b60405180910390a35050505050505050565b5f61031d6103e842610776565b905090565b5f878787878787876040516020016103409796959493929190610803565b604051602081830303815290604052805190602001209050979650505050505050565b5f546060906001600160a01b03163314610390576040516374a2152760e01b815260040160405180910390fd5b5f6103a089898989898989610322565b5f8181526001602052604090205490915060ff166103d457604051630995c9d560e01b81526004810182905260240161024b565b824210156103fe5760405163035fce5b60e01b81524260048201526024810184905260440161024b565b61040a6103e884610776565b421115610440574261041e6103e885610776565b6040516392ae26d160e01b81526004810192909252602482015260440161024b565b5f818152600160205260409020805460ff191690556060861561049c57878760405161046d929190610852565b6040519081900381206104869188908890602001610861565b60405160208183030381529060405290506104d5565b85858080601f0160208091040260200160405190810160405280939291908181526020018383808284375f920191909152509293505050505b5f808b6001600160a01b03168b846040516104f09190610884565b5f6040518083038185875af1925050503d805f811461052a576040519150601f19603f3d011682016040523d82523d5f602084013e61052f565b606091505b50915091508161055257604051636cda7c0f60e11b815260040160405180910390fd5b8b6001600160a01b0316847fd1d5c3c892c18716bd88852091d1b63dc6849e9d7c37f69d566884bf954d4bd98d8d8d8d8d8d604051610596969594939291906107c3565b60405180910390a39b9a5050505050505050505050565b5f546001600160a01b031633146105d7576040516374a2152760e01b815260040160405180910390fd5b5f8181526001602052604090205460ff1661060857604051630995c9d560e01b81526004810182905260240161024b565b5f81815260016020526040808220805460ff191690555182917fe8d9861dbc9c663ed3accd261bbe2fe01e0d3d9e5f51fa38523b265c7757a93a91a250565b5f60208284031215610657575f80fd5b5035919050565b5f8083601f84011261066e575f80fd5b50813567ffffffffffffffff811115610685575f80fd5b60208301915083602082850101111561069c575f80fd5b9250929050565b5f805f805f805f60a0888a0312156106b9575f80fd5b87356001600160a01b03811681146106cf575f80fd5b965060208801359550604088013567ffffffffffffffff8111156106f1575f80fd5b6106fd8a828b0161065e565b909650945050606088013567ffffffffffffffff81111561071c575f80fd5b6107288a828b0161065e565b989b979a50959894979596608090950135949350505050565b602081525f82518060208401528060208501604085015e5f604082850101526040601f19601f83011684010191505092915050565b8082018082111561079557634e487b7160e01b5f52601160045260245ffd5b92915050565b81835281816020850137505f828201602090810191909152601f909101601f19169091010190565b868152608060208201525f6107dc60808301878961079b565b82810360408401526107ef81868861079b565b915050826060830152979650505050505050565b60018060a01b038816815286602082015260a060408201525f61082a60a08301878961079b565b828103606084015261083d81868861079b565b91505082608083015298975050505050505050565b818382375f9101908152919050565b6001600160e01b031984168152818360048301375f910160040190815292915050565b5f82518060208501845e5f92019182525091905056fea264697066735822122055dd434500247698b468be3c6bc3ce530e46f92d2b75d5bd3c6e9987e721cb6b64736f6c634300081a0033",
			"opcodes": "PUSH1 0x80 PUSH1 0x40 MSTORE CALLVALUE DUP1 ISZERO PUSH1 0xE JUMPI PUSH0 DUP1 REVERT JUMPDEST POP PUSH0 DUP1 SLOAD PUSH1 0x1 PUSH1 0x1 PUSH1 0xA0 SHL SUB NOT AND CALLER OR SWAP1 SSTORE PUSH2 0x8D0 DUP1 PUSH2 0x2D PUSH0 CODECOPY PUSH0 RETURN INVALID PUSH1 0x80 PUSH1 0x40 MSTORE PUSH1 0x4 CALLDATASIZE LT PUSH2 0x92 JUMPI PUSH0 CALLDATALOAD PUSH1 0xE0 SHR DUP1 PUSH4 0x8DA5CB5B GT PUSH2 0x57 JUMPI DUP1 PUSH4 0x8DA5CB5B EQ PUSH2 0x157 JUMPI DUP1 PUSH4 0x9F81AED7 EQ PUSH2 0x18D JUMPI DUP1 PUSH4 0xB0F8B142 EQ PUSH2 0x1A1 JUMPI DUP1 PUSH4 0xC1A287E2 EQ PUSH2 0xE0 JUMPI DUP1 PUSH4 0xC4D252F5 EQ PUSH2 0x1C1 JUMPI PUSH0 DUP1 REVERT JUMPDEST DUP1 PUSH4 0x228250C9 EQ PUSH2 0x9D JUMPI DUP1 PUSH4 0x4125FF90 EQ PUSH2 0xE0 JUMPI DUP1 PUSH4 0x4B9915A5 EQ PUSH2 0x103 JUMPI DUP1 PUSH4 0x6B874205 EQ PUSH2 0x124 JUMPI DUP1 PUSH4 0x8A1CE0B6 EQ PUSH2 0x138 JUMPI PUSH0 DUP1 REVERT JUMPDEST CALLDATASIZE PUSH2 0x99 JUMPI STOP JUMPDEST PUSH0 DUP1 REVERT JUMPDEST CALLVALUE DUP1 ISZERO PUSH2 0xA8 JUMPI PUSH0 DUP1 REVERT JUMPDEST POP PUSH2 0xCB PUSH2 0xB7 CALLDATASIZE PUSH1 0x4 PUSH2 0x647 JUMP JUMPDEST PUSH1 0x1 PUSH1 0x20 MSTORE PUSH0 SWAP1 DUP2 MSTORE PUSH1 0x40 SWAP1 KECCAK256 SLOAD PUSH1 0xFF AND DUP2 JUMP JUMPDEST PUSH1 0x40 MLOAD SWAP1 ISZERO ISZERO DUP2 MSTORE PUSH1 0x20 ADD JUMPDEST PUSH1 0x40 MLOAD DUP1 SWAP2 SUB SWAP1 RETURN JUMPDEST CALLVALUE DUP1 ISZERO PUSH2 0xEB JUMPI PUSH0 DUP1 REVERT JUMPDEST POP PUSH2 0xF5 PUSH2 0x3E8 DUP2 JUMP JUMPDEST PUSH1 0x40 MLOAD SWAP1 DUP2 MSTORE PUSH1 0x20 ADD PUSH2 0xD7 JUMP JUMPDEST CALLVALUE DUP1 ISZERO PUSH2 0x10E JUMPI PUSH0 DUP1 REVERT JUMPDEST POP PUSH2 0x122 PUSH2 0x11D CALLDATASIZE PUSH1 0x4 PUSH2 0x6A3 JUMP JUMPDEST PUSH2 0x1E0 JUMP JUMPDEST STOP JUMPDEST CALLVALUE DUP1 ISZERO PUSH2 0x12F JUMPI PUSH0 DUP1 REVERT JUMPDEST POP PUSH2 0xF5 PUSH2 0x310 JUMP JUMPDEST CALLVALUE DUP1 ISZERO PUSH2 0x143 JUMPI PUSH0 DUP1 REVERT JUMPDEST POP PUSH2 0xF5 PUSH2 0x152 CALLDATASIZE PUSH1 0x4 PUSH2 0x6A3 JUMP JUMPDEST PUSH2 0x322 JUMP JUMPDEST CALLVALUE DUP1 ISZERO PUSH2 0x162 JUMPI PUSH0 DUP1 REVERT JUMPDEST POP PUSH0 SLOAD PUSH2 0x175 SWAP1 PUSH1 0x1 PUSH1 0x1 PUSH1 0xA0 SHL SUB AND DUP2 JUMP JUMPDEST PUSH1 0x40 MLOAD PUSH1 0x1 PUSH1 0x1 PUSH1 0xA0 SHL SUB SWAP1 SWAP2 AND DUP2 MSTORE PUSH1 0x20 ADD PUSH2 0xD7 JUMP JUMPDEST CALLVALUE DUP1 ISZERO PUSH2 0x198 JUMPI PUSH0 DUP1 REVERT JUMPDEST POP PUSH2 0xF5 PUSH1 0xA DUP2 JUMP JUMPDEST PUSH2 0x1B4 PUSH2 0x1AF CALLDATASIZE PUSH1 0x4 PUSH2 0x6A3 JUMP JUMPDEST PUSH2 0x363 JUMP JUMPDEST PUSH1 0x40 MLOAD PUSH2 0xD7 SWAP2 SWAP1 PUSH2 0x741 JUMP JUMPDEST CALLVALUE DUP1 ISZERO PUSH2 0x1CC JUMPI PUSH0 DUP1 REVERT JUMPDEST POP PUSH2 0x122 PUSH2 0x1DB CALLDATASIZE PUSH1 0x4 PUSH2 0x647 JUMP JUMPDEST PUSH2 0x5AD JUMP JUMPDEST PUSH0 SLOAD PUSH1 0x1 PUSH1 0x1 PUSH1 0xA0 SHL SUB AND CALLER EQ PUSH2 0x20A JUMPI PUSH1 0x40 MLOAD PUSH4 0x74A21527 PUSH1 0xE0 SHL DUP2 MSTORE PUSH1 0x4 ADD PUSH1 0x40 MLOAD DUP1 SWAP2 SUB SWAP1 REVERT JUMPDEST PUSH0 PUSH2 0x21A DUP9 DUP9 DUP9 DUP9 DUP9 DUP9 DUP9 PUSH2 0x322 JUMP JUMPDEST PUSH0 DUP2 DUP2 MSTORE PUSH1 0x1 PUSH1 0x20 MSTORE PUSH1 0x40 SWAP1 KECCAK256 SLOAD SWAP1 SWAP2 POP PUSH1 0xFF AND ISZERO PUSH2 0x254 JUMPI PUSH1 0x40 MLOAD PUSH4 0x4CA8215F PUSH1 0xE1 SHL DUP2 MSTORE PUSH1 0x4 DUP2 ADD DUP3 SWAP1 MSTORE PUSH1 0x24 ADD JUMPDEST PUSH1 0x40 MLOAD DUP1 SWAP2 SUB SWAP1 REVERT JUMPDEST PUSH2 0x25F PUSH1 0xA TIMESTAMP PUSH2 0x776 JUMP JUMPDEST DUP3 LT DUP1 PUSH2 0x276 JUMPI POP PUSH2 0x273 PUSH2 0x3E8 TIMESTAMP PUSH2 0x776 JUMP JUMPDEST DUP3 GT JUMPDEST ISZERO PUSH2 0x29D JUMPI PUSH1 0x40 MLOAD PUSH4 0xD4B0B61 PUSH1 0xE1 SHL DUP2 MSTORE TIMESTAMP PUSH1 0x4 DUP3 ADD MSTORE PUSH1 0x24 DUP2 ADD DUP4 SWAP1 MSTORE PUSH1 0x44 ADD PUSH2 0x24B JUMP JUMPDEST PUSH0 DUP2 DUP2 MSTORE PUSH1 0x1 PUSH1 0x20 DUP2 SWAP1 MSTORE PUSH1 0x40 SWAP2 DUP3 SWAP1 KECCAK256 DUP1 SLOAD PUSH1 0xFF NOT AND SWAP1 SWAP2 OR SWAP1 SSTORE MLOAD PUSH1 0x1 PUSH1 0x1 PUSH1 0xA0 SHL SUB DUP10 AND SWAP1 DUP3 SWAP1 PUSH32 0x3C22F47140594040D205A5533CFEDD86C9AB8622C39EAD03AFFB2D97052C794C SWAP1 PUSH2 0x2FE SWAP1 DUP12 SWAP1 DUP12 SWAP1 DUP12 SWAP1 DUP12 SWAP1 DUP12 SWAP1 DUP12 SWAP1 PUSH2 0x7C3 JUMP JUMPDEST PUSH1 0x40 MLOAD DUP1 SWAP2 SUB SWAP1 LOG3 POP POP POP POP POP POP POP POP JUMP JUMPDEST PUSH0 PUSH2 0x31D PUSH2 0x3E8 TIMESTAMP PUSH2 0x776 JUMP JUMPDEST SWAP1 POP SWAP1 JUMP JUMPDEST PUSH0 DUP8 DUP8 DUP8 DUP8 DUP8 DUP8 DUP8 PUSH1 0x40 MLOAD PUSH1 0x20 ADD PUSH2 0x340 SWAP8 SWAP7 SWAP6 SWAP5 SWAP4 SWAP3 SWAP2 SWAP1 PUSH2 0x803 JUMP JUMPDEST PUSH1 0x40 MLOAD PUSH1 0x20 DUP2 DUP4 SUB SUB DUP2 MSTORE SWAP1 PUSH1 0x40 MSTORE DUP1 MLOAD SWAP1 PUSH1 0x20 ADD KECCAK256 SWAP1 POP SWAP8 SWAP7 POP POP POP POP POP POP POP JUMP JUMPDEST PUSH0 SLOAD PUSH1 0x60 SWAP1 PUSH1 0x1 PUSH1 0x1 PUSH1 0xA0 SHL SUB AND CALLER EQ PUSH2 0x390 JUMPI PUSH1 0x40 MLOAD PUSH4 0x74A21527 PUSH1 0xE0 SHL DUP2 MSTORE PUSH1 0x4 ADD PUSH1 0x40 MLOAD DUP1 SWAP2 SUB SWAP1 REVERT JUMPDEST PUSH0 PUSH2 0x3A0 DUP10 DUP10 DUP10 DUP10 DUP10 DUP10 DUP10 PUSH2 0x322 JUMP JUMPDEST PUSH0 DUP2 DUP2 MSTORE PUSH1 0x1 PUSH1 0x20 MSTORE PUSH1 0x40 SWAP1 KECCAK256 SLOAD SWAP1 SWAP2 POP PUSH1 0xFF AND PUSH2 0x3D4 JUMPI PUSH1 0x40 MLOAD PUSH4 0x995C9D5 PUSH1 0xE0 SHL DUP2 MSTORE PUSH1 0x4 DUP2 ADD DUP3 SWAP1 MSTORE PUSH1 0x24 ADD PUSH2 0x24B JUMP JUMPDEST DUP3 TIMESTAMP LT ISZERO PUSH2 0x3FE JUMPI PUSH1 0x40 MLOAD PUSH4 0x35FCE5B PUSH1 0xE0 SHL DUP2 MSTORE TIMESTAMP PUSH1 0x4 DUP3 ADD MSTORE PUSH1 0x24 DUP2 ADD DUP5 SWAP1 MSTORE PUSH1 0x44 ADD PUSH2 0x24B JUMP JUMPDEST PUSH2 0x40A PUSH2 0x3E8 DUP5 PUSH2 0x776 JUMP JUMPDEST TIMESTAMP GT ISZERO PUSH2 0x440 JUMPI TIMESTAMP PUSH2 0x41E PUSH2 0x3E8 DUP6 PUSH2 0x776 JUMP JUMPDEST PUSH1 0x40 MLOAD PUSH4 0x92AE26D1 PUSH1 0xE0 SHL DUP2 MSTORE PUSH1 0x4 DUP2 ADD SWAP3 SWAP1 SWAP3 MSTORE PUSH1 0x24 DUP3 ADD MSTORE PUSH1 0x44 ADD PUSH2 0x24B JUMP JUMPDEST PUSH0 DUP2 DUP2 MSTORE PUSH1 0x1 PUSH1 0x20 MSTORE PUSH1 0x40 SWAP1 KECCAK256 DUP1 SLOAD PUSH1 0xFF NOT AND SWAP1 SSTORE PUSH1 0x60 DUP7 ISZERO PUSH2 0x49C JUMPI DUP8 DUP8 PUSH1 0x40 MLOAD PUSH2 0x46D SWAP3 SWAP2 SWAP1 PUSH2 0x852 JUMP JUMPDEST PUSH1 0x40 MLOAD SWAP1 DUP2 SWAP1 SUB DUP2 KECCAK256 PUSH2 0x486 SWAP2 DUP9 SWAP1 DUP9 SWAP1 PUSH1 0x20 ADD PUSH2 0x861 JUMP JUMPDEST PUSH1 0x40 MLOAD PUSH1 0x20 DUP2 DUP4 SUB SUB DUP2 MSTORE SWAP1 PUSH1 0x40 MSTORE SWAP1 POP PUSH2 0x4D5 JUMP JUMPDEST DUP6 DUP6 DUP1 DUP1 PUSH1 0x1F ADD PUSH1 0x20 DUP1 SWAP2 DIV MUL PUSH1 0x20 ADD PUSH1 0x40 MLOAD SWAP1 DUP2 ADD PUSH1 0x40 MSTORE DUP1 SWAP4 SWAP3 SWAP2 SWAP1 DUP2 DUP2 MSTORE PUSH1 0x20 ADD DUP4 DUP4 DUP1 DUP3 DUP5 CALLDATACOPY PUSH0 SWAP3 ADD SWAP2 SWAP1 SWAP2 MSTORE POP SWAP3 SWAP4 POP POP POP POP JUMPDEST PUSH0 DUP1 DUP12 PUSH1 0x1 PUSH1 0x1 PUSH1 0xA0 SHL SUB AND DUP12 DUP5 PUSH1 0x40 MLOAD PUSH2 0x4F0 SWAP2 SWAP1 PUSH2 0x884 JUMP JUMPDEST PUSH0 PUSH1 0x40 MLOAD DUP1 DUP4 SUB DUP2 DUP6 DUP8 GAS CALL SWAP3 POP POP POP RETURNDATASIZE DUP1 PUSH0 DUP2 EQ PUSH2 0x52A JUMPI PUSH1 0x40 MLOAD SWAP2 POP PUSH1 0x1F NOT PUSH1 0x3F RETURNDATASIZE ADD AND DUP3 ADD PUSH1 0x40 MSTORE RETURNDATASIZE DUP3 MSTORE RETURNDATASIZE PUSH0 PUSH1 0x20 DUP5 ADD RETURNDATACOPY PUSH2 0x52F JUMP JUMPDEST PUSH1 0x60 SWAP2 POP JUMPDEST POP SWAP2 POP SWAP2 POP DUP2 PUSH2 0x552 JUMPI PUSH1 0x40 MLOAD PUSH4 0x6CDA7C0F PUSH1 0xE1 SHL DUP2 MSTORE PUSH1 0x4 ADD PUSH1 0x40 MLOAD DUP1 SWAP2 SUB SWAP1 REVERT JUMPDEST DUP12 PUSH1 0x1 PUSH1 0x1 PUSH1 0xA0 SHL SUB AND DUP5 PUSH32 0xD1D5C3C892C18716BD88852091D1B63DC6849E9D7C37F69D566884BF954D4BD9 DUP14 DUP14 DUP14 DUP14 DUP14 DUP14 PUSH1 0x40 MLOAD PUSH2 0x596 SWAP7 SWAP6 SWAP5 SWAP4 SWAP3 SWAP2 SWAP1 PUSH2 0x7C3 JUMP JUMPDEST PUSH1 0x40 MLOAD DUP1 SWAP2 SUB SWAP1 LOG3 SWAP12 SWAP11 POP POP POP POP POP POP POP POP POP POP POP JUMP JUMPDEST PUSH0 SLOAD PUSH1 0x1 PUSH1 0x1 PUSH1 0xA0 SHL SUB AND CALLER EQ PUSH2 0x5D7 JUMPI PUSH1 0x40 MLOAD PUSH4 0x74A21527 PUSH1 0xE0 SHL DUP2 MSTORE PUSH1 0x4 ADD PUSH1 0x40 MLOAD DUP1 SWAP2 SUB SWAP1 REVERT JUMPDEST PUSH0 DUP2 DUP2 MSTORE PUSH1 0x1 PUSH1 0x20 MSTORE PUSH1 0x40 SWAP1 KECCAK256 SLOAD PUSH1 0xFF AND PUSH2 0x608 JUMPI PUSH1 0x40 MLOAD PUSH4 0x995C9D5 PUSH1 0xE0 SHL DUP2 MSTORE PUSH1 0x4 DUP2 ADD DUP3 SWAP1 MSTORE PUSH1 0x24 ADD PUSH2 0x24B JUMP JUMPDEST PUSH0 DUP2 DUP2 MSTORE PUSH1 0x1 PUSH1 0x20 MSTORE PUSH1 0x40 DUP1 DUP3 KECCAK256 DUP1 SLOAD PUSH1 0xFF NOT AND SWAP1 SSTORE MLOAD DUP3 SWAP2 PUSH32 0xE8D9861DBC9C663ED3ACCD261BBE2FE01E0D3D9E5F51FA38523B265C7757A93A SWAP2 LOG2 POP JUMP JUMPDEST PUSH0 PUSH1 0x20 DUP3 DUP5 SUB SLT ISZERO PUSH2 0x657 JUMPI PUSH0 DUP1 REVERT JUMPDEST POP CALLDATALOAD SWAP2 SWAP1 POP JUMP JUMPDEST PUSH0 DUP1 DUP4 PUSH1 0x1F DUP5 ADD SLT PUSH2 0x66E JUMPI PUSH0 DUP1 REVERT JUMPDEST POP DUP2 CALLDATALOAD PUSH8 0xFFFFFFFFFFFFFFFF DUP2 GT ISZERO PUSH2 0x685 JUMPI PUSH0 DUP1 REVERT JUMPDEST PUSH1 0x20 DUP4 ADD SWAP2 POP DUP4 PUSH1 0x20 DUP3 DUP6 ADD ADD GT ISZERO PUSH2 0x69C JUMPI PUSH0 DUP1 REVERT JUMPDEST SWAP3 POP SWAP3 SWAP1 POP JUMP JUMPDEST PUSH0 DUP1 PUSH0 DUP1 PUSH0 DUP1 PUSH0 PUSH1 0xA0 DUP9 DUP11 SUB SLT ISZERO PUSH2 0x6B9 JUMPI PUSH0 DUP1 REVERT JUMPDEST DUP8 CALLDATALOAD PUSH1 0x1 PUSH1 0x1 PUSH1 0xA0 SHL SUB DUP2 AND DUP2 EQ PUSH2 0x6CF JUMPI PUSH0 DUP1 REVERT JUMPDEST SWAP7 POP PUSH1 0x20 DUP9 ADD CALLDATALOAD SWAP6 POP PUSH1 0x40 DUP9 ADD CALLDATALOAD PUSH8 0xFFFFFFFFFFFFFFFF DUP2 GT ISZERO PUSH2 0x6F1 JUMPI PUSH0 DUP1 REVERT JUMPDEST PUSH2 0x6FD DUP11 DUP3 DUP12 ADD PUSH2 0x65E JUMP JUMPDEST SWAP1 SWAP7 POP SWAP5 POP POP PUSH1 0x60 DUP9 ADD CALLDATALOAD PUSH8 0xFFFFFFFFFFFFFFFF DUP2 GT ISZERO PUSH2 0x71C JUMPI PUSH0 DUP1 REVERT JUMPDEST PUSH2 0x728 DUP11 DUP3 DUP12 ADD PUSH2 0x65E JUMP JUMPDEST SWAP9 SWAP12 SWAP8 SWAP11 POP SWAP6 SWAP9 SWAP5 SWAP8 SWAP6 SWAP7 PUSH1 0x80 SWAP1 SWAP6 ADD CALLDATALOAD SWAP5 SWAP4 POP POP POP POP JUMP JUMPDEST PUSH1 0x20 DUP2 MSTORE PUSH0 DUP3 MLOAD DUP1 PUSH1 0x20 DUP5 ADD MSTORE DUP1 PUSH1 0x20 DUP6 ADD PUSH1 0x40 DUP6 ADD MCOPY PUSH0 PUSH1 0x40 DUP3 DUP6 ADD ADD MSTORE PUSH1 0x40 PUSH1 0x1F NOT PUSH1 0x1F DUP4 ADD AND DUP5 ADD ADD SWAP2 POP POP SWAP3 SWAP2 POP POP JUMP JUMPDEST DUP1 DUP3 ADD DUP1 DUP3 GT ISZERO PUSH2 0x795 JUMPI PUSH4 0x4E487B71 PUSH1 0xE0 SHL PUSH0 MSTORE PUSH1 0x11 PUSH1 0x4 MSTORE PUSH1 0x24 PUSH0 REVERT JUMPDEST SWAP3 SWAP2 POP POP JUMP JUMPDEST DUP2 DUP4 MSTORE DUP2 DUP2 PUSH1 0x20 DUP6 ADD CALLDATACOPY POP PUSH0 DUP3 DUP3 ADD PUSH1 0x20 SWAP1 DUP2 ADD SWAP2 SWAP1 SWAP2 MSTORE PUSH1 0x1F SWAP1 SWAP2 ADD PUSH1 0x1F NOT AND SWAP1 SWAP2 ADD ADD SWAP1 JUMP JUMPDEST DUP7 DUP2 MSTORE PUSH1 0x80 PUSH1 0x20 DUP3 ADD MSTORE PUSH0 PUSH2 0x7DC PUSH1 0x80 DUP4 ADD DUP8 DUP10 PUSH2 0x79B JUMP JUMPDEST DUP3 DUP2 SUB PUSH1 0x40 DUP5 ADD MSTORE PUSH2 0x7EF DUP2 DUP7 DUP9 PUSH2 0x79B JUMP JUMPDEST SWAP2 POP POP DUP3 PUSH1 0x60 DUP4 ADD MSTORE SWAP8 SWAP7 POP POP POP POP POP POP POP JUMP JUMPDEST PUSH1 0x1 DUP1 PUSH1 0xA0 SHL SUB DUP9 AND DUP2 MSTORE DUP7 PUSH1 0x20 DUP3 ADD MSTORE PUSH1 0xA0 PUSH1 0x40 DUP3 ADD MSTORE PUSH0 PUSH2 0x82A PUSH1 0xA0 DUP4 ADD DUP8 DUP10 PUSH2 0x79B JUMP JUMPDEST DUP3 DUP2 SUB PUSH1 0x60 DUP5 ADD MSTORE PUSH2 0x83D DUP2 DUP7 DUP9 PUSH2 0x79B JUMP JUMPDEST SWAP2 POP POP DUP3 PUSH1 0x80 DUP4 ADD MSTORE SWAP9 SWAP8 POP POP POP POP POP POP POP POP JUMP JUMPDEST DUP2 DUP4 DUP3 CALLDATACOPY PUSH0 SWAP2 ADD SWAP1 DUP2 MSTORE SWAP2 SWAP1 POP JUMP JUMPDEST PUSH1 0x1 PUSH1 0x1 PUSH1 0xE0 SHL SUB NOT DUP5 AND DUP2 MSTORE DUP2 DUP4 PUSH1 0x4 DUP4 ADD CALLDATACOPY PUSH0 SWAP2 ADD PUSH1 0x4 ADD SWAP1 DUP2 MSTORE SWAP3 SWAP2 POP POP JUMP JUMPDEST PUSH0 DUP3 MLOAD DUP1 PUSH1 0x20 DUP6 ADD DUP5 MCOPY PUSH0 SWAP3 ADD SWAP2 DUP3 MSTORE POP SWAP2 SWAP1 POP JUMP INVALID LOG2 PUSH5 0x6970667358 0x22 SLT KECCAK256 SSTORE 0xDD NUMBER GASLIMIT STOP 0x24 PUSH23 0x98B468BE3C6BC3CE530E46F92D2B75D5BD3C6E9987E721 0xCB PUSH12 0x64736F6C634300081A003300 "
		},
		"gasEstimates": {
			"creation": {
				"codeDepositCost": "451200",
				"executionCost": "24718",
				"totalCost": "475918"
			},
			"external": {
				"GRACE_PERIOD()": "260",
				"MAX_DELAY()": "217",
				"MIN_DELAY()": "216",
				"cancel(bytes32)": "30062",
				"execute(address,uint256,string,bytes,uint256)": "infinite",
				"getTimestame()": "351",
				"getTxId(address,uint256,string,bytes,uint256)": "infinite",
				"owner()": "2335",
				"queue(address,uint256,string,bytes,uint256)": "infinite",
				"queued(bytes32)": "2437"
			}
		},
		"methodIdentifiers": {
			"GRACE_PERIOD()": "c1a287e2",
			"MAX_DELAY()": "4125ff90",
			"MIN_DELAY()": "9f81aed7",
			"cancel(bytes32)": "c4d252f5",
			"execute(address,uint256,string,bytes,uint256)": "b0f8b142",
			"getTimestame()": "6b874205",
			"getTxId(address,uint256,string,bytes,uint256)": "8a1ce0b6",
			"owner()": "8da5cb5b",
			"queue(address,uint256,string,bytes,uint256)": "4b9915a5",
			"queued(bytes32)": "228250c9"
		}
	},
	"abi": [
		{
			"inputs": [],
			"stateMutability": "nonpayable",
			"type": "constructor"
		},
		{
			"inputs": [
				{
					"internalType": "bytes32",
					"name": "txId",
					"type": "bytes32"
				}
			],
			"name": "AlreadyQueuedError",
			"type": "error"
		},
		{
			"inputs": [],
			"name": "NotOwnerError",
			"type": "error"
		},
		{
			"inputs": [
				{
					"internalType": "bytes32",
					"name": "txId",
					"type": "bytes32"
				}
			],
			"name": "NotQueuedError",
			"type": "error"
		},
		{
			"inputs": [
				{
					"internalType": "uint256",
					"name": "blockTimestamp",
					"type": "uint256"
				},
				{
					"internalType": "uint256",
					"name": "expiredAt",
					"type": "uint256"
				}
			],
			"name": "TimestampExpiredError",
			"type": "error"
		},
		{
			"inputs": [
				{
					"internalType": "uint256",
					"name": "blockTimestamp",
					"type": "uint256"
				},
				{
					"internalType": "uint256",
					"name": "timestamp",
					"type": "uint256"
				}
			],
			"name": "TimestampNotInRangeError",
			"type": "error"
		},
		{
			"inputs": [
				{
					"internalType": "uint256",
					"name": "blockTimestamp",
					"type": "uint256"
				},
				{
					"internalType": "uint256",
					"name": "timestamp",
					"type": "uint256"
				}
			],
			"name": "TimestampNotPassedError",
			"type": "error"
		},
		{
			"inputs": [],
			"name": "TxFailedError",
			"type": "error"
		},
		{
			"anonymous": false,
			"inputs": [
				{
					"indexed": true,
					"internalType": "bytes32",
					"name": "txId",
					"type": "bytes32"
				}
			],
			"name": "Cancel",
			"type": "event"
		},
		{
			"anonymous": false,
			"inputs": [
				{
					"indexed": true,
					"internalType": "bytes32",
					"name": "txId",
					"type": "bytes32"
				},
				{
					"indexed": true,
					"internalType": "address",
					"name": "target",
					"type": "address"
				},
				{
					"indexed": false,
					"internalType": "uint256",
					"name": "value",
					"type": "uint256"
				},
				{
					"indexed": false,
					"internalType": "string",
					"name": "func",
					"type": "string"
				},
				{
					"indexed": false,
					"internalType": "bytes",
					"name": "data",
					"type": "bytes"
				},
				{
					"indexed": false,
					"internalType": "uint256",
					"name": "timestamp",
					"type": "uint256"
				}
			],
			"name": "Execute",
			"type": "event"
		},
		{
			"anonymous": false,
			"inputs": [
				{
					"indexed": true,
					"internalType": "bytes32",
					"name": "txId",
					"type": "bytes32"
				},
				{
					"indexed": true,
					"internalType": "address",
					"name": "target",
					"type": "address"
				},
				{
					"indexed": false,
					"internalType": "uint256",
					"name": "value",
					"type": "uint256"
				},
				{
					"indexed": false,
					"internalType": "string",
					"name": "func",
					"type": "string"
				},
				{
					"indexed": false,
					"internalType": "bytes",
					"name": "data",
					"type": "bytes"
				},
				{
					"indexed": false,
					"internalType": "uint256",
					"name": "timestamp",
					"type": "uint256"
				}
			],
			"name": "Queue",
			"type": "event"
		},
		{
			"inputs": [],
			"name": "GRACE_PERIOD",
			"outputs": [
				{
					"internalType": "uint256",
					"name": "",
					"type": "uint256"
				}
			],
			"stateMutability": "view",
			"type": "function"
		},
		{
			"inputs": [],
			"name": "MAX_DELAY",
			"outputs": [
				{
					"internalType": "uint256",
					"name": "",
					"type": "uint256"
				}
			],
			"stateMutability": "view",
			"type": "function"
		},
		{
			"inputs": [],
			"name": "MIN_DELAY",
			"outputs": [
				{
					"internalType": "uint256",
					"name": "",
					"type": "uint256"
				}
			],
			"stateMutability": "view",
			"type": "function"
		},
		{
			"inputs": [
				{
					"internalType": "bytes32",
					"name": "_txId",
					"type": "bytes32"
				}
			],
			"name": "cancel",
			"outputs": [],
			"stateMutability": "nonpayable",
			"type": "function"
		},
		{
			"inputs": [
				{
					"internalType": "address",
					"name": "_target",
					"type": "address"
				},
				{
					"internalType": "uint256",
					"name": "_value",
					"type": "uint256"
				},
				{
					"internalType": "string",
					"name": "_func",
					"type": "string"
				},
				{
					"internalType": "bytes",
					"name": "_data",
					"type": "bytes"
				},
				{
					"internalType": "uint256",
					"name": "_timestamp",
					"type": "uint256"
				}
			],
			"name": "execute",
			"outputs": [
				{
					"internalType": "bytes",
					"name": "",
					"type": "bytes"
				}
			],
			"stateMutability": "payable",
			"type": "function"
		},
		{
			"inputs": [],
			"name": "getTimestame",
			"outputs": [
				{
					"internalType": "uint256",
					"name": "",
					"type": "uint256"
				}
			],
			"stateMutability": "view",
			"type": "function"
		},
		{
			"inputs": [
				{
					"internalType": "address",
					"name": "_target",
					"type": "address"
				},
				{
					"internalType": "uint256",
					"name": "_value",
					"type": "uint256"
				},
				{
					"internalType": "string",
					"name": "_func",
					"type": "string"
				},
				{
					"internalType": "bytes",
					"name": "_data",
					"type": "bytes"
				},
				{
					"internalType": "uint256",
					"name": "_timestamp",
					"type": "uint256"
				}
			],
			"name": "getTxId",
			"outputs": [
				{
					"internalType": "bytes32",
					"name": "txId",
					"type": "bytes32"
				}
			],
			"stateMutability": "pure",
			"type": "function"
		},
		{
			"inputs": [],
			"name": "owner",
			"outputs": [
				{
					"internalType": "address",
					"name": "",
					"type": "address"
				}
			],
			"stateMutability": "view",
			"type": "function"
		},
		{
			"inputs": [
				{
					"internalType": "address",
					"name": "_target",
					"type": "address"
				},
				{
					"internalType": "uint256",
					"name": "_value",
					"type": "uint256"
				},
				{
					"internalType": "string",
					"name": "_func",
					"type": "string"
				},
				{
					"internalType": "bytes",
					"name": "_data",
					"type": "bytes"
				},
				{
					"internalType": "uint256",
					"name": "_timestamp",
					"type": "uint256"
				}
			],
			"name": "queue",
			"outputs": [],
			"stateMutability": "nonpayable",
			"type": "function"
		},
		{
			"inputs": [
				{
					"internalType": "bytes32",
					"name": "",
					"type": "bytes32"
				}
			],
			"name": "queued",
			"outputs": [
				{
					"internalType": "bool",
					"name": "",
					"type": "bool"
				}
			],
			"stateMutability": "view",
			"type": "function"
		},
		{
			"stateMutability": "payable",
			"type": "receive"
		}
	]
}