{
	"demo/CrowdFund.sol": {
		"CrowdFund": {
			"abi": [
				{
					"inputs": [
						{
							"internalType": "address",
							"name": "_token",
							"type": "address"
						}
					],
					"stateMutability": "nonpayable",
					"type": "constructor"
				},
				{
					"inputs": [
						{
							"internalType": "uint256",
							"name": "",
							"type": "uint256"
						}
					],
					"name": "campaigns",
					"outputs": [
						{
							"internalType": "address",
							"name": "creator",
							"type": "address"
						},
						{
							"internalType": "uint256",
							"name": "goal",
							"type": "uint256"
						},
						{
							"internalType": "uint32",
							"name": "startAt",
							"type": "uint32"
						},
						{
							"internalType": "uint32",
							"name": "endAt",
							"type": "uint32"
						},
						{
							"internalType": "bool",
							"name": "claimed",
							"type": "bool"
						},
						{
							"internalType": "uint256",
							"name": "pledged",
							"type": "uint256"
						}
					],
					"stateMutability": "view",
					"type": "function"
				},
				{
					"inputs": [],
					"name": "count",
					"outputs": [
						{
							"internalType": "uint256",
							"name": "",
							"type": "uint256"
						}
					],
					"stateMutability": "view",
					"type": "function"
				},
				{
					"inputs": [
						{
							"internalType": "uint256",
							"name": "_id",
							"type": "uint256"
						},
						{
							"internalType": "uint256",
							"name": "_amount",
							"type": "uint256"
						}
					],
					"name": "pledge",
					"outputs": [],
					"stateMutability": "nonpayable",
					"type": "function"
				},
				{
					"inputs": [
						{
							"internalType": "uint256",
							"name": "",
							"type": "uint256"
						},
						{
							"internalType": "address",
							"name": "",
							"type": "address"
						}
					],
					"name": "pledgedAmount",
					"outputs": [
						{
							"internalType": "uint256",
							"name": "",
							"type": "uint256"
						}
					],
					"stateMutability": "view",
					"type": "function"
				},
				{
					"inputs": [],
					"name": "token",
					"outputs": [
						{
							"internalType": "contract IERC20",
							"name": "",
							"type": "address"
						}
					],
					"stateMutability": "view",
					"type": "function"
				},
				{
					"inputs": [
						{
							"internalType": "uint256",
							"name": "_id",
							"type": "uint256"
						},
						{
							"internalType": "uint256",
							"name": "_amount",
							"type": "uint256"
						}
					],
					"name": "unpledge",
					"outputs": [],
					"stateMutability": "nonpayable",
					"type": "function"
				}
			],
			"devdoc": {
				"author": "zhagnhony",
				"details": "创建众筹活动,取消众筹活动,⽀持者参与和取消参与众筹,领取众筹成功的代币,退款失败的众筹代币",
				"kind": "dev",
				"methods": {
					"constructor": {
						"params": {
							"_token": "初始化代币地址"
						}
					},
					"pledge(uint256,uint256)": {
						"details": "验证活动已开始且未结束",
						"params": {
							"_amount": "a parameter just like in doxygen (must be followed by parameter name)",
							"_id": "a parameter just like in doxygen (must be followed by parameter name)"
						}
					},
					"unpledge(uint256,uint256)": {
						"details": "验证活动未结束",
						"params": {
							"_amount": "a parameter just like in doxygen (must be followed by parameter name)",
							"_id": "a parameter just like in doxygen (must be followed by parameter name)"
						}
					}
				},
				"title": "基于ERC20代币创建众筹合约",
				"version": 1
			},
			"evm": {
				"assembly": "    /* \"demo/CrowdFund.sol\":456:2763  contract CrowdFund {... */\n  mstore(0x40, 0xa0)\n    /* \"demo/CrowdFund.sol\":1360:1429  constructor(address _token) {... */\n  callvalue\n  dup1\n  iszero\n  tag_1\n  jumpi\n  0x00\n  dup1\n  revert\ntag_1:\n  pop\n  mload(0x40)\n  sub(codesize, bytecodeSize)\n  dup1\n  bytecodeSize\n  dup4\n  codecopy\n  dup2\n  dup2\n  add\n  0x40\n  mstore\n  dup2\n  add\n  swap1\n  tag_2\n  swap2\n  swap1\n  tag_3\n  jump\t// in\ntag_2:\n    /* \"demo/CrowdFund.sol\":1414:1420  _token */\n  dup1\n    /* \"demo/CrowdFund.sol\":1399:1421  token = IERC20(_token) */\n  0xffffffffffffffffffffffffffffffffffffffff\n  and\n  0x80\n  dup2\n  0xffffffffffffffffffffffffffffffffffffffff\n  and\n  dup2\n  mstore\n  pop\n  pop\n    /* \"demo/CrowdFund.sol\":1360:1429  constructor(address _token) {... */\n  pop\n    /* \"demo/CrowdFund.sol\":456:2763  contract CrowdFund {... */\n  jump(tag_6)\n    /* \"#utility.yul\":88:205   */\ntag_8:\n    /* \"#utility.yul\":197:198   */\n  0x00\n    /* \"#utility.yul\":194:195   */\n  dup1\n    /* \"#utility.yul\":187:199   */\n  revert\n    /* \"#utility.yul\":334:460   */\ntag_10:\n    /* \"#utility.yul\":371:378   */\n  0x00\n    /* \"#utility.yul\":411:453   */\n  0xffffffffffffffffffffffffffffffffffffffff\n    /* \"#utility.yul\":404:409   */\n  dup3\n    /* \"#utility.yul\":400:454   */\n  and\n    /* \"#utility.yul\":389:454   */\n  swap1\n  pop\n    /* \"#utility.yul\":334:460   */\n  swap2\n  swap1\n  pop\n  jump\t// out\n    /* \"#utility.yul\":466:562   */\ntag_11:\n    /* \"#utility.yul\":503:510   */\n  0x00\n    /* \"#utility.yul\":532:556   */\n  tag_20\n    /* \"#utility.yul\":550:555   */\n  dup3\n    /* \"#utility.yul\":532:556   */\n  tag_10\n  jump\t// in\ntag_20:\n    /* \"#utility.yul\":521:556   */\n  swap1\n  pop\n    /* \"#utility.yul\":466:562   */\n  swap2\n  swap1\n  pop\n  jump\t// out\n    /* \"#utility.yul\":568:690   */\ntag_12:\n    /* \"#utility.yul\":641:665   */\n  tag_22\n    /* \"#utility.yul\":659:664   */\n  dup2\n    /* \"#utility.yul\":641:665   */\n  tag_11\n  jump\t// in\ntag_22:\n    /* \"#utility.yul\":634:639   */\n  dup2\n    /* \"#utility.yul\":631:666   */\n  eq\n    /* \"#utility.yul\":621:684   */\n  tag_23\n  jumpi\n    /* \"#utility.yul\":680:681   */\n  0x00\n    /* \"#utility.yul\":677:678   */\n  dup1\n    /* \"#utility.yul\":670:682   */\n  revert\n    /* \"#utility.yul\":621:684   */\ntag_23:\n    /* \"#utility.yul\":568:690   */\n  pop\n  jump\t// out\n    /* \"#utility.yul\":696:839   */\ntag_13:\n    /* \"#utility.yul\":753:758   */\n  0x00\n    /* \"#utility.yul\":784:790   */\n  dup2\n    /* \"#utility.yul\":778:791   */\n  mload\n    /* \"#utility.yul\":769:791   */\n  swap1\n  pop\n    /* \"#utility.yul\":800:833   */\n  tag_25\n    /* \"#utility.yul\":827:832   */\n  dup2\n    /* \"#utility.yul\":800:833   */\n  tag_12\n  jump\t// in\ntag_25:\n    /* \"#utility.yul\":696:839   */\n  swap3\n  swap2\n  pop\n  pop\n  jump\t// out\n    /* \"#utility.yul\":845:1196   */\ntag_3:\n    /* \"#utility.yul\":915:921   */\n  0x00\n    /* \"#utility.yul\":964:966   */\n  0x20\n    /* \"#utility.yul\":952:961   */\n  dup3\n    /* \"#utility.yul\":943:950   */\n  dup5\n    /* \"#utility.yul\":939:962   */\n  sub\n    /* \"#utility.yul\":935:967   */\n  slt\n    /* \"#utility.yul\":932:1051   */\n  iszero\n  tag_27\n  jumpi\n    /* \"#utility.yul\":970:1049   */\n  tag_28\n  tag_8\n  jump\t// in\ntag_28:\n    /* \"#utility.yul\":932:1051   */\ntag_27:\n    /* \"#utility.yul\":1090:1091   */\n  0x00\n    /* \"#utility.yul\":1115:1179   */\n  tag_29\n    /* \"#utility.yul\":1171:1178   */\n  dup5\n    /* \"#utility.yul\":1162:1168   */\n  dup3\n    /* \"#utility.yul\":1151:1160   */\n  dup6\n    /* \"#utility.yul\":1147:1169   */\n  add\n    /* \"#utility.yul\":1115:1179   */\n  tag_13\n  jump\t// in\ntag_29:\n    /* \"#utility.yul\":1105:1179   */\n  swap2\n  pop\n    /* \"#utility.yul\":1061:1189   */\n  pop\n    /* \"#utility.yul\":845:1196   */\n  swap3\n  swap2\n  pop\n  pop\n  jump\t// out\n    /* \"demo/CrowdFund.sol\":456:2763  contract CrowdFund {... */\ntag_6:\n  mload(0x80)\n  codecopy(0x00, dataOffset(sub_0), dataSize(sub_0))\n  0x00\n  assignImmutable(\"0x2e5129c19be59da29ff89133759e8d7e21d926bf22eda9cdfd27c0cd8774b8c2\")\n  return(0x00, dataSize(sub_0))\nstop\n\nsub_0: assembly {\n        /* \"demo/CrowdFund.sol\":456:2763  contract CrowdFund {... */\n      mstore(0x40, 0x80)\n      callvalue\n      dup1\n      iszero\n      tag_1\n      jumpi\n      0x00\n      dup1\n      revert\n    tag_1:\n      pop\n      jumpi(tag_2, lt(calldatasize, 0x04))\n      shr(0xe0, calldataload(0x00))\n      dup1\n      0x06661abd\n      eq\n      tag_3\n      jumpi\n      dup1\n      0x141961bc\n      eq\n      tag_4\n      jumpi\n      dup1\n      0x711853ab\n      eq\n      tag_5\n      jumpi\n      dup1\n      0xaa4fb63a\n      eq\n      tag_6\n      jumpi\n      dup1\n      0xfc0c546a\n      eq\n      tag_7\n      jumpi\n      dup1\n      0xfde327be\n      eq\n      tag_8\n      jumpi\n    tag_2:\n      0x00\n      dup1\n      revert\n        /* \"demo/CrowdFund.sol\":1126:1146  uint256 public count */\n    tag_3:\n      tag_9\n      tag_10\n      jump\t// in\n    tag_9:\n      mload(0x40)\n      tag_11\n      swap2\n      swap1\n      tag_12\n      jump\t// in\n    tag_11:\n      mload(0x40)\n      dup1\n      swap2\n      sub\n      swap1\n      return\n        /* \"demo/CrowdFund.sol\":1035:1080  mapping(uint256 => Campaign) public campaigns */\n    tag_4:\n      tag_13\n      0x04\n      dup1\n      calldatasize\n      sub\n      dup2\n      add\n      swap1\n      tag_14\n      swap2\n      swap1\n      tag_15\n      jump\t// in\n    tag_14:\n      tag_16\n      jump\t// in\n    tag_13:\n      mload(0x40)\n      tag_17\n      swap7\n      swap6\n      swap5\n      swap4\n      swap3\n      swap2\n      swap1\n      tag_18\n      jump\t// in\n    tag_17:\n      mload(0x40)\n      dup1\n      swap2\n      sub\n      swap1\n      return\n        /* \"demo/CrowdFund.sol\":2435:2760  function unpledge(uint256 _id, uint256 _amount) external {... */\n    tag_5:\n      tag_19\n      0x04\n      dup1\n      calldatasize\n      sub\n      dup2\n      add\n      swap1\n      tag_20\n      swap2\n      swap1\n      tag_21\n      jump\t// in\n    tag_20:\n      tag_22\n      jump\t// in\n    tag_19:\n      stop\n        /* \"demo/CrowdFund.sol\":1216:1284  mapping(uint256 => mapping(address => uint256)) public pledgedAmount */\n    tag_6:\n      tag_23\n      0x04\n      dup1\n      calldatasize\n      sub\n      dup2\n      add\n      swap1\n      tag_24\n      swap2\n      swap1\n      tag_25\n      jump\t// in\n    tag_24:\n      tag_26\n      jump\t// in\n    tag_23:\n      mload(0x40)\n      tag_27\n      swap2\n      swap1\n      tag_12\n      jump\t// in\n    tag_27:\n      mload(0x40)\n      dup1\n      swap2\n      sub\n      swap1\n      return\n        /* \"demo/CrowdFund.sol\":963:992  IERC20 public immutable token */\n    tag_7:\n      tag_28\n      tag_29\n      jump\t// in\n    tag_28:\n      mload(0x40)\n      tag_30\n      swap2\n      swap1\n      tag_31\n      jump\t// in\n    tag_30:\n      mload(0x40)\n      dup1\n      swap2\n      sub\n      swap1\n      return\n        /* \"demo/CrowdFund.sol\":1720:2141  function pledge(uint256 _id, uint256 _amount) external {... */\n    tag_8:\n      tag_32\n      0x04\n      dup1\n      calldatasize\n      sub\n      dup2\n      add\n      swap1\n      tag_33\n      swap2\n      swap1\n      tag_21\n      jump\t// in\n    tag_33:\n      tag_34\n      jump\t// in\n    tag_32:\n      stop\n        /* \"demo/CrowdFund.sol\":1126:1146  uint256 public count */\n    tag_10:\n      sload(0x01)\n      dup2\n      jump\t// out\n        /* \"demo/CrowdFund.sol\":1035:1080  mapping(uint256 => Campaign) public campaigns */\n    tag_16:\n      mstore(0x20, 0x00)\n      dup1\n      0x00\n      mstore\n      keccak256(0x00, 0x40)\n      0x00\n      swap2\n      pop\n      swap1\n      pop\n      dup1\n      0x00\n      add\n      0x00\n      swap1\n      sload\n      swap1\n      0x0100\n      exp\n      swap1\n      div\n      0xffffffffffffffffffffffffffffffffffffffff\n      and\n      swap1\n      dup1\n      0x01\n      add\n      sload\n      swap1\n      dup1\n      0x02\n      add\n      0x00\n      swap1\n      sload\n      swap1\n      0x0100\n      exp\n      swap1\n      div\n      0xffffffff\n      and\n      swap1\n      dup1\n      0x02\n      add\n      0x04\n      swap1\n      sload\n      swap1\n      0x0100\n      exp\n      swap1\n      div\n      0xffffffff\n      and\n      swap1\n      dup1\n      0x02\n      add\n      0x08\n      swap1\n      sload\n      swap1\n      0x0100\n      exp\n      swap1\n      div\n      0xff\n      and\n      swap1\n      dup1\n      0x03\n      add\n      sload\n      swap1\n      pop\n      dup7\n      jump\t// out\n        /* \"demo/CrowdFund.sol\":2435:2760  function unpledge(uint256 _id, uint256 _amount) external {... */\n    tag_22:\n        /* \"demo/CrowdFund.sol\":2503:2528  Campaign storage campaign */\n      0x00\n        /* \"demo/CrowdFund.sol\":2531:2540  campaigns */\n      dup1\n        /* \"demo/CrowdFund.sol\":2531:2545  campaigns[_id] */\n      0x00\n        /* \"demo/CrowdFund.sol\":2541:2544  _id */\n      dup5\n        /* \"demo/CrowdFund.sol\":2531:2545  campaigns[_id] */\n      dup2\n      mstore\n      0x20\n      add\n      swap1\n      dup2\n      mstore\n      0x20\n      add\n      0x00\n      keccak256\n        /* \"demo/CrowdFund.sol\":2503:2545  Campaign storage campaign = campaigns[_id] */\n      swap1\n      pop\n        /* \"demo/CrowdFund.sol\":2583:2591  campaign */\n      dup1\n        /* \"demo/CrowdFund.sol\":2583:2597  campaign.endAt */\n      0x02\n      add\n      0x04\n      swap1\n      sload\n      swap1\n      0x0100\n      exp\n      swap1\n      div\n      0xffffffff\n      and\n        /* \"demo/CrowdFund.sol\":2564:2597  block.timestamp <= campaign.endAt */\n      0xffffffff\n      and\n        /* \"demo/CrowdFund.sol\":2564:2579  block.timestamp */\n      timestamp\n        /* \"demo/CrowdFund.sol\":2564:2597  block.timestamp <= campaign.endAt */\n      gt\n      iszero\n        /* \"demo/CrowdFund.sol\":2556:2616  require(block.timestamp <= campaign.endAt, \"Campaign ended\") */\n      tag_36\n      jumpi\n      mload(0x40)\n      0x08c379a000000000000000000000000000000000000000000000000000000000\n      dup2\n      mstore\n      0x04\n      add\n      tag_37\n      swap1\n      tag_38\n      jump\t// in\n    tag_37:\n      mload(0x40)\n      dup1\n      swap2\n      sub\n      swap1\n      revert\n    tag_36:\n        /* \"demo/CrowdFund.sol\":2647:2654  _amount */\n      dup2\n        /* \"demo/CrowdFund.sol\":2627:2635  campaign */\n      dup2\n        /* \"demo/CrowdFund.sol\":2627:2643  campaign.pledged */\n      0x03\n      add\n      0x00\n        /* \"demo/CrowdFund.sol\":2627:2654  campaign.pledged -= _amount */\n      dup3\n      dup3\n      sload\n      tag_39\n      swap2\n      swap1\n      tag_40\n      jump\t// in\n    tag_39:\n      swap3\n      pop\n      pop\n      dup2\n      swap1\n      sstore\n      pop\n        /* \"demo/CrowdFund.sol\":2699:2706  _amount */\n      dup2\n        /* \"demo/CrowdFund.sol\":2665:2678  pledgedAmount */\n      0x02\n        /* \"demo/CrowdFund.sol\":2665:2683  pledgedAmount[_id] */\n      0x00\n        /* \"demo/CrowdFund.sol\":2679:2682  _id */\n      dup6\n        /* \"demo/CrowdFund.sol\":2665:2683  pledgedAmount[_id] */\n      dup2\n      mstore\n      0x20\n      add\n      swap1\n      dup2\n      mstore\n      0x20\n      add\n      0x00\n      keccak256\n        /* \"demo/CrowdFund.sol\":2665:2695  pledgedAmount[_id][msg.sender] */\n      0x00\n        /* \"demo/CrowdFund.sol\":2684:2694  msg.sender */\n      caller\n        /* \"demo/CrowdFund.sol\":2665:2695  pledgedAmount[_id][msg.sender] */\n      0xffffffffffffffffffffffffffffffffffffffff\n      and\n      0xffffffffffffffffffffffffffffffffffffffff\n      and\n      dup2\n      mstore\n      0x20\n      add\n      swap1\n      dup2\n      mstore\n      0x20\n      add\n      0x00\n      keccak256\n      0x00\n        /* \"demo/CrowdFund.sol\":2665:2706  pledgedAmount[_id][msg.sender] -= _amount */\n      dup3\n      dup3\n      sload\n      tag_41\n      swap2\n      swap1\n      tag_40\n      jump\t// in\n    tag_41:\n      swap3\n      pop\n      pop\n      dup2\n      swap1\n      sstore\n      pop\n        /* \"demo/CrowdFund.sol\":2717:2722  token */\n      immutable(\"0x2e5129c19be59da29ff89133759e8d7e21d926bf22eda9cdfd27c0cd8774b8c2\")\n        /* \"demo/CrowdFund.sol\":2717:2731  token.transfer */\n      0xffffffffffffffffffffffffffffffffffffffff\n      and\n      0xa9059cbb\n        /* \"demo/CrowdFund.sol\":2732:2742  msg.sender */\n      caller\n        /* \"demo/CrowdFund.sol\":2744:2751  _amount */\n      dup5\n        /* \"demo/CrowdFund.sol\":2717:2752  token.transfer(msg.sender, _amount) */\n      mload(0x40)\n      dup4\n      0xffffffff\n      and\n      0xe0\n      shl\n      dup2\n      mstore\n      0x04\n      add\n      tag_42\n      swap3\n      swap2\n      swap1\n      tag_43\n      jump\t// in\n    tag_42:\n      0x20\n      mload(0x40)\n      dup1\n      dup4\n      sub\n      dup2\n      0x00\n      dup8\n      gas\n      call\n      iszero\n      dup1\n      iszero\n      tag_45\n      jumpi\n      returndatasize\n      0x00\n      dup1\n      returndatacopy\n      revert(0x00, returndatasize)\n    tag_45:\n      pop\n      pop\n      pop\n      pop\n      mload(0x40)\n      returndatasize\n      not(0x1f)\n      0x1f\n      dup3\n      add\n      and\n      dup3\n      add\n      dup1\n      0x40\n      mstore\n      pop\n      dup2\n      add\n      swap1\n      tag_46\n      swap2\n      swap1\n      tag_47\n      jump\t// in\n    tag_46:\n      pop\n        /* \"demo/CrowdFund.sol\":2492:2760  {... */\n      pop\n        /* \"demo/CrowdFund.sol\":2435:2760  function unpledge(uint256 _id, uint256 _amount) external {... */\n      pop\n      pop\n      jump\t// out\n        /* \"demo/CrowdFund.sol\":1216:1284  mapping(uint256 => mapping(address => uint256)) public pledgedAmount */\n    tag_26:\n      mstore(0x20, 0x02)\n      dup2\n      0x00\n      mstore\n      mstore(0x20, keccak256(0x00, 0x40))\n      dup1\n      0x00\n      mstore\n      keccak256(0x00, 0x40)\n      0x00\n      swap2\n      pop\n      swap2\n      pop\n      pop\n      sload\n      dup2\n      jump\t// out\n        /* \"demo/CrowdFund.sol\":963:992  IERC20 public immutable token */\n    tag_29:\n      immutable(\"0x2e5129c19be59da29ff89133759e8d7e21d926bf22eda9cdfd27c0cd8774b8c2\")\n      dup2\n      jump\t// out\n        /* \"demo/CrowdFund.sol\":1720:2141  function pledge(uint256 _id, uint256 _amount) external {... */\n    tag_34:\n        /* \"demo/CrowdFund.sol\":1786:1811  Campaign storage campaign */\n      0x00\n        /* \"demo/CrowdFund.sol\":1814:1823  campaigns */\n      dup1\n        /* \"demo/CrowdFund.sol\":1814:1828  campaigns[_id] */\n      0x00\n        /* \"demo/CrowdFund.sol\":1824:1827  _id */\n      dup5\n        /* \"demo/CrowdFund.sol\":1814:1828  campaigns[_id] */\n      dup2\n      mstore\n      0x20\n      add\n      swap1\n      dup2\n      mstore\n      0x20\n      add\n      0x00\n      keccak256\n        /* \"demo/CrowdFund.sol\":1786:1828  Campaign storage campaign = campaigns[_id] */\n      swap1\n      pop\n        /* \"demo/CrowdFund.sol\":1866:1874  campaign */\n      dup1\n        /* \"demo/CrowdFund.sol\":1866:1882  campaign.startAt */\n      0x02\n      add\n      0x00\n      swap1\n      sload\n      swap1\n      0x0100\n      exp\n      swap1\n      div\n      0xffffffff\n      and\n        /* \"demo/CrowdFund.sol\":1847:1882  block.timestamp >= campaign.startAt */\n      0xffffffff\n      and\n        /* \"demo/CrowdFund.sol\":1847:1862  block.timestamp */\n      timestamp\n        /* \"demo/CrowdFund.sol\":1847:1882  block.timestamp >= campaign.startAt */\n      lt\n      iszero\n        /* \"demo/CrowdFund.sol\":1839:1907  require(block.timestamp >= campaign.startAt, \"Campaign not started\") */\n      tag_49\n      jumpi\n      mload(0x40)\n      0x08c379a000000000000000000000000000000000000000000000000000000000\n      dup2\n      mstore\n      0x04\n      add\n      tag_50\n      swap1\n      tag_51\n      jump\t// in\n    tag_50:\n      mload(0x40)\n      dup1\n      swap2\n      sub\n      swap1\n      revert\n    tag_49:\n        /* \"demo/CrowdFund.sol\":1945:1953  campaign */\n      dup1\n        /* \"demo/CrowdFund.sol\":1945:1959  campaign.endAt */\n      0x02\n      add\n      0x04\n      swap1\n      sload\n      swap1\n      0x0100\n      exp\n      swap1\n      div\n      0xffffffff\n      and\n        /* \"demo/CrowdFund.sol\":1926:1959  block.timestamp <= campaign.endAt */\n      0xffffffff\n      and\n        /* \"demo/CrowdFund.sol\":1926:1941  block.timestamp */\n      timestamp\n        /* \"demo/CrowdFund.sol\":1926:1959  block.timestamp <= campaign.endAt */\n      gt\n      iszero\n        /* \"demo/CrowdFund.sol\":1918:1978  require(block.timestamp <= campaign.endAt, \"Campaign ended\") */\n      tag_52\n      jumpi\n      mload(0x40)\n      0x08c379a000000000000000000000000000000000000000000000000000000000\n      dup2\n      mstore\n      0x04\n      add\n      tag_53\n      swap1\n      tag_38\n      jump\t// in\n    tag_53:\n      mload(0x40)\n      dup1\n      swap2\n      sub\n      swap1\n      revert\n    tag_52:\n        /* \"demo/CrowdFund.sol\":2009:2016  _amount */\n      dup2\n        /* \"demo/CrowdFund.sol\":1989:1997  campaign */\n      dup2\n        /* \"demo/CrowdFund.sol\":1989:2005  campaign.pledged */\n      0x03\n      add\n      0x00\n        /* \"demo/CrowdFund.sol\":1989:2016  campaign.pledged += _amount */\n      dup3\n      dup3\n      sload\n      tag_54\n      swap2\n      swap1\n      tag_55\n      jump\t// in\n    tag_54:\n      swap3\n      pop\n      pop\n      dup2\n      swap1\n      sstore\n      pop\n        /* \"demo/CrowdFund.sol\":2061:2068  _amount */\n      dup2\n        /* \"demo/CrowdFund.sol\":2027:2040  pledgedAmount */\n      0x02\n        /* \"demo/CrowdFund.sol\":2027:2045  pledgedAmount[_id] */\n      0x00\n        /* \"demo/CrowdFund.sol\":2041:2044  _id */\n      dup6\n        /* \"demo/CrowdFund.sol\":2027:2045  pledgedAmount[_id] */\n      dup2\n      mstore\n      0x20\n      add\n      swap1\n      dup2\n      mstore\n      0x20\n      add\n      0x00\n      keccak256\n        /* \"demo/CrowdFund.sol\":2027:2057  pledgedAmount[_id][msg.sender] */\n      0x00\n        /* \"demo/CrowdFund.sol\":2046:2056  msg.sender */\n      caller\n        /* \"demo/CrowdFund.sol\":2027:2057  pledgedAmount[_id][msg.sender] */\n      0xffffffffffffffffffffffffffffffffffffffff\n      and\n      0xffffffffffffffffffffffffffffffffffffffff\n      and\n      dup2\n      mstore\n      0x20\n      add\n      swap1\n      dup2\n      mstore\n      0x20\n      add\n      0x00\n      keccak256\n      0x00\n        /* \"demo/CrowdFund.sol\":2027:2068  pledgedAmount[_id][msg.sender] += _amount */\n      dup3\n      dup3\n      sload\n      tag_56\n      swap2\n      swap1\n      tag_55\n      jump\t// in\n    tag_56:\n      swap3\n      pop\n      pop\n      dup2\n      swap1\n      sstore\n      pop\n        /* \"demo/CrowdFund.sol\":2079:2084  token */\n      immutable(\"0x2e5129c19be59da29ff89133759e8d7e21d926bf22eda9cdfd27c0cd8774b8c2\")\n        /* \"demo/CrowdFund.sol\":2079:2097  token.transferFrom */\n      0xffffffffffffffffffffffffffffffffffffffff\n      and\n      0x23b872dd\n        /* \"demo/CrowdFund.sol\":2098:2108  msg.sender */\n      caller\n        /* \"demo/CrowdFund.sol\":2118:2122  this */\n      address\n        /* \"demo/CrowdFund.sol\":2125:2132  _amount */\n      dup6\n        /* \"demo/CrowdFund.sol\":2079:2133  token.transferFrom(msg.sender, address(this), _amount) */\n      mload(0x40)\n      dup5\n      0xffffffff\n      and\n      0xe0\n      shl\n      dup2\n      mstore\n      0x04\n      add\n      tag_57\n      swap4\n      swap3\n      swap2\n      swap1\n      tag_58\n      jump\t// in\n    tag_57:\n      0x20\n      mload(0x40)\n      dup1\n      dup4\n      sub\n      dup2\n      0x00\n      dup8\n      gas\n      call\n      iszero\n      dup1\n      iszero\n      tag_60\n      jumpi\n      returndatasize\n      0x00\n      dup1\n      returndatacopy\n      revert(0x00, returndatasize)\n    tag_60:\n      pop\n      pop\n      pop\n      pop\n      mload(0x40)\n      returndatasize\n      not(0x1f)\n      0x1f\n      dup3\n      add\n      and\n      dup3\n      add\n      dup1\n      0x40\n      mstore\n      pop\n      dup2\n      add\n      swap1\n      tag_61\n      swap2\n      swap1\n      tag_47\n      jump\t// in\n    tag_61:\n      pop\n        /* \"demo/CrowdFund.sol\":1775:2141  {... */\n      pop\n        /* \"demo/CrowdFund.sol\":1720:2141  function pledge(uint256 _id, uint256 _amount) external {... */\n      pop\n      pop\n      jump\t// out\n        /* \"#utility.yul\":7:84   */\n    tag_62:\n        /* \"#utility.yul\":44:51   */\n      0x00\n        /* \"#utility.yul\":73:78   */\n      dup2\n        /* \"#utility.yul\":62:78   */\n      swap1\n      pop\n        /* \"#utility.yul\":7:84   */\n      swap2\n      swap1\n      pop\n      jump\t// out\n        /* \"#utility.yul\":90:208   */\n    tag_63:\n        /* \"#utility.yul\":177:201   */\n      tag_94\n        /* \"#utility.yul\":195:200   */\n      dup2\n        /* \"#utility.yul\":177:201   */\n      tag_62\n      jump\t// in\n    tag_94:\n        /* \"#utility.yul\":172:175   */\n      dup3\n        /* \"#utility.yul\":165:202   */\n      mstore\n        /* \"#utility.yul\":90:208   */\n      pop\n      pop\n      jump\t// out\n        /* \"#utility.yul\":214:436   */\n    tag_12:\n        /* \"#utility.yul\":307:311   */\n      0x00\n        /* \"#utility.yul\":345:347   */\n      0x20\n        /* \"#utility.yul\":334:343   */\n      dup3\n        /* \"#utility.yul\":330:348   */\n      add\n        /* \"#utility.yul\":322:348   */\n      swap1\n      pop\n        /* \"#utility.yul\":358:429   */\n      tag_96\n        /* \"#utility.yul\":426:427   */\n      0x00\n        /* \"#utility.yul\":415:424   */\n      dup4\n        /* \"#utility.yul\":411:428   */\n      add\n        /* \"#utility.yul\":402:408   */\n      dup5\n        /* \"#utility.yul\":358:429   */\n      tag_63\n      jump\t// in\n    tag_96:\n        /* \"#utility.yul\":214:436   */\n      swap3\n      swap2\n      pop\n      pop\n      jump\t// out\n        /* \"#utility.yul\":523:640   */\n    tag_65:\n        /* \"#utility.yul\":632:633   */\n      0x00\n        /* \"#utility.yul\":629:630   */\n      dup1\n        /* \"#utility.yul\":622:634   */\n      revert\n        /* \"#utility.yul\":769:891   */\n    tag_67:\n        /* \"#utility.yul\":842:866   */\n      tag_101\n        /* \"#utility.yul\":860:865   */\n      dup2\n        /* \"#utility.yul\":842:866   */\n      tag_62\n      jump\t// in\n    tag_101:\n        /* \"#utility.yul\":835:840   */\n      dup2\n        /* \"#utility.yul\":832:867   */\n      eq\n        /* \"#utility.yul\":822:885   */\n      tag_102\n      jumpi\n        /* \"#utility.yul\":881:882   */\n      0x00\n        /* \"#utility.yul\":878:879   */\n      dup1\n        /* \"#utility.yul\":871:883   */\n      revert\n        /* \"#utility.yul\":822:885   */\n    tag_102:\n        /* \"#utility.yul\":769:891   */\n      pop\n      jump\t// out\n        /* \"#utility.yul\":897:1036   */\n    tag_68:\n        /* \"#utility.yul\":943:948   */\n      0x00\n        /* \"#utility.yul\":981:987   */\n      dup2\n        /* \"#utility.yul\":968:988   */\n      calldataload\n        /* \"#utility.yul\":959:988   */\n      swap1\n      pop\n        /* \"#utility.yul\":997:1030   */\n      tag_104\n        /* \"#utility.yul\":1024:1029   */\n      dup2\n        /* \"#utility.yul\":997:1030   */\n      tag_67\n      jump\t// in\n    tag_104:\n        /* \"#utility.yul\":897:1036   */\n      swap3\n      swap2\n      pop\n      pop\n      jump\t// out\n        /* \"#utility.yul\":1042:1371   */\n    tag_15:\n        /* \"#utility.yul\":1101:1107   */\n      0x00\n        /* \"#utility.yul\":1150:1152   */\n      0x20\n        /* \"#utility.yul\":1138:1147   */\n      dup3\n        /* \"#utility.yul\":1129:1136   */\n      dup5\n        /* \"#utility.yul\":1125:1148   */\n      sub\n        /* \"#utility.yul\":1121:1153   */\n      slt\n        /* \"#utility.yul\":1118:1237   */\n      iszero\n      tag_106\n      jumpi\n        /* \"#utility.yul\":1156:1235   */\n      tag_107\n      tag_65\n      jump\t// in\n    tag_107:\n        /* \"#utility.yul\":1118:1237   */\n    tag_106:\n        /* \"#utility.yul\":1276:1277   */\n      0x00\n        /* \"#utility.yul\":1301:1354   */\n      tag_108\n        /* \"#utility.yul\":1346:1353   */\n      dup5\n        /* \"#utility.yul\":1337:1343   */\n      dup3\n        /* \"#utility.yul\":1326:1335   */\n      dup6\n        /* \"#utility.yul\":1322:1344   */\n      add\n        /* \"#utility.yul\":1301:1354   */\n      tag_68\n      jump\t// in\n    tag_108:\n        /* \"#utility.yul\":1291:1354   */\n      swap2\n      pop\n        /* \"#utility.yul\":1247:1364   */\n      pop\n        /* \"#utility.yul\":1042:1371   */\n      swap3\n      swap2\n      pop\n      pop\n      jump\t// out\n        /* \"#utility.yul\":1377:1503   */\n    tag_69:\n        /* \"#utility.yul\":1414:1421   */\n      0x00\n        /* \"#utility.yul\":1454:1496   */\n      0xffffffffffffffffffffffffffffffffffffffff\n        /* \"#utility.yul\":1447:1452   */\n      dup3\n        /* \"#utility.yul\":1443:1497   */\n      and\n        /* \"#utility.yul\":1432:1497   */\n      swap1\n      pop\n        /* \"#utility.yul\":1377:1503   */\n      swap2\n      swap1\n      pop\n      jump\t// out\n        /* \"#utility.yul\":1509:1605   */\n    tag_70:\n        /* \"#utility.yul\":1546:1553   */\n      0x00\n        /* \"#utility.yul\":1575:1599   */\n      tag_111\n        /* \"#utility.yul\":1593:1598   */\n      dup3\n        /* \"#utility.yul\":1575:1599   */\n      tag_69\n      jump\t// in\n    tag_111:\n        /* \"#utility.yul\":1564:1599   */\n      swap1\n      pop\n        /* \"#utility.yul\":1509:1605   */\n      swap2\n      swap1\n      pop\n      jump\t// out\n        /* \"#utility.yul\":1611:1729   */\n    tag_71:\n        /* \"#utility.yul\":1698:1722   */\n      tag_113\n        /* \"#utility.yul\":1716:1721   */\n      dup2\n        /* \"#utility.yul\":1698:1722   */\n      tag_70\n      jump\t// in\n    tag_113:\n        /* \"#utility.yul\":1693:1696   */\n      dup3\n        /* \"#utility.yul\":1686:1723   */\n      mstore\n        /* \"#utility.yul\":1611:1729   */\n      pop\n      pop\n      jump\t// out\n        /* \"#utility.yul\":1735:1828   */\n    tag_72:\n        /* \"#utility.yul\":1771:1778   */\n      0x00\n        /* \"#utility.yul\":1811:1821   */\n      0xffffffff\n        /* \"#utility.yul\":1804:1809   */\n      dup3\n        /* \"#utility.yul\":1800:1822   */\n      and\n        /* \"#utility.yul\":1789:1822   */\n      swap1\n      pop\n        /* \"#utility.yul\":1735:1828   */\n      swap2\n      swap1\n      pop\n      jump\t// out\n        /* \"#utility.yul\":1834:1949   */\n    tag_73:\n        /* \"#utility.yul\":1919:1942   */\n      tag_116\n        /* \"#utility.yul\":1936:1941   */\n      dup2\n        /* \"#utility.yul\":1919:1942   */\n      tag_72\n      jump\t// in\n    tag_116:\n        /* \"#utility.yul\":1914:1917   */\n      dup3\n        /* \"#utility.yul\":1907:1943   */\n      mstore\n        /* \"#utility.yul\":1834:1949   */\n      pop\n      pop\n      jump\t// out\n        /* \"#utility.yul\":1955:2045   */\n    tag_74:\n        /* \"#utility.yul\":1989:1996   */\n      0x00\n        /* \"#utility.yul\":2032:2037   */\n      dup2\n        /* \"#utility.yul\":2025:2038   */\n      iszero\n        /* \"#utility.yul\":2018:2039   */\n      iszero\n        /* \"#utility.yul\":2007:2039   */\n      swap1\n      pop\n        /* \"#utility.yul\":1955:2045   */\n      swap2\n      swap1\n      pop\n      jump\t// out\n        /* \"#utility.yul\":2051:2160   */\n    tag_75:\n        /* \"#utility.yul\":2132:2153   */\n      tag_119\n        /* \"#utility.yul\":2147:2152   */\n      dup2\n        /* \"#utility.yul\":2132:2153   */\n      tag_74\n      jump\t// in\n    tag_119:\n        /* \"#utility.yul\":2127:2130   */\n      dup3\n        /* \"#utility.yul\":2120:2154   */\n      mstore\n        /* \"#utility.yul\":2051:2160   */\n      pop\n      pop\n      jump\t// out\n        /* \"#utility.yul\":2166:2921   */\n    tag_18:\n        /* \"#utility.yul\":2389:2393   */\n      0x00\n        /* \"#utility.yul\":2427:2430   */\n      0xc0\n        /* \"#utility.yul\":2416:2425   */\n      dup3\n        /* \"#utility.yul\":2412:2431   */\n      add\n        /* \"#utility.yul\":2404:2431   */\n      swap1\n      pop\n        /* \"#utility.yul\":2441:2512   */\n      tag_121\n        /* \"#utility.yul\":2509:2510   */\n      0x00\n        /* \"#utility.yul\":2498:2507   */\n      dup4\n        /* \"#utility.yul\":2494:2511   */\n      add\n        /* \"#utility.yul\":2485:2491   */\n      dup10\n        /* \"#utility.yul\":2441:2512   */\n      tag_71\n      jump\t// in\n    tag_121:\n        /* \"#utility.yul\":2522:2594   */\n      tag_122\n        /* \"#utility.yul\":2590:2592   */\n      0x20\n        /* \"#utility.yul\":2579:2588   */\n      dup4\n        /* \"#utility.yul\":2575:2593   */\n      add\n        /* \"#utility.yul\":2566:2572   */\n      dup9\n        /* \"#utility.yul\":2522:2594   */\n      tag_63\n      jump\t// in\n    tag_122:\n        /* \"#utility.yul\":2604:2674   */\n      tag_123\n        /* \"#utility.yul\":2670:2672   */\n      0x40\n        /* \"#utility.yul\":2659:2668   */\n      dup4\n        /* \"#utility.yul\":2655:2673   */\n      add\n        /* \"#utility.yul\":2646:2652   */\n      dup8\n        /* \"#utility.yul\":2604:2674   */\n      tag_73\n      jump\t// in\n    tag_123:\n        /* \"#utility.yul\":2684:2754   */\n      tag_124\n        /* \"#utility.yul\":2750:2752   */\n      0x60\n        /* \"#utility.yul\":2739:2748   */\n      dup4\n        /* \"#utility.yul\":2735:2753   */\n      add\n        /* \"#utility.yul\":2726:2732   */\n      dup7\n        /* \"#utility.yul\":2684:2754   */\n      tag_73\n      jump\t// in\n    tag_124:\n        /* \"#utility.yul\":2764:2831   */\n      tag_125\n        /* \"#utility.yul\":2826:2829   */\n      0x80\n        /* \"#utility.yul\":2815:2824   */\n      dup4\n        /* \"#utility.yul\":2811:2830   */\n      add\n        /* \"#utility.yul\":2802:2808   */\n      dup6\n        /* \"#utility.yul\":2764:2831   */\n      tag_75\n      jump\t// in\n    tag_125:\n        /* \"#utility.yul\":2841:2914   */\n      tag_126\n        /* \"#utility.yul\":2909:2912   */\n      0xa0\n        /* \"#utility.yul\":2898:2907   */\n      dup4\n        /* \"#utility.yul\":2894:2913   */\n      add\n        /* \"#utility.yul\":2885:2891   */\n      dup5\n        /* \"#utility.yul\":2841:2914   */\n      tag_63\n      jump\t// in\n    tag_126:\n        /* \"#utility.yul\":2166:2921   */\n      swap8\n      swap7\n      pop\n      pop\n      pop\n      pop\n      pop\n      pop\n      pop\n      jump\t// out\n        /* \"#utility.yul\":2927:3401   */\n    tag_21:\n        /* \"#utility.yul\":2995:3001   */\n      0x00\n        /* \"#utility.yul\":3003:3009   */\n      dup1\n        /* \"#utility.yul\":3052:3054   */\n      0x40\n        /* \"#utility.yul\":3040:3049   */\n      dup4\n        /* \"#utility.yul\":3031:3038   */\n      dup6\n        /* \"#utility.yul\":3027:3050   */\n      sub\n        /* \"#utility.yul\":3023:3055   */\n      slt\n        /* \"#utility.yul\":3020:3139   */\n      iszero\n      tag_128\n      jumpi\n        /* \"#utility.yul\":3058:3137   */\n      tag_129\n      tag_65\n      jump\t// in\n    tag_129:\n        /* \"#utility.yul\":3020:3139   */\n    tag_128:\n        /* \"#utility.yul\":3178:3179   */\n      0x00\n        /* \"#utility.yul\":3203:3256   */\n      tag_130\n        /* \"#utility.yul\":3248:3255   */\n      dup6\n        /* \"#utility.yul\":3239:3245   */\n      dup3\n        /* \"#utility.yul\":3228:3237   */\n      dup7\n        /* \"#utility.yul\":3224:3246   */\n      add\n        /* \"#utility.yul\":3203:3256   */\n      tag_68\n      jump\t// in\n    tag_130:\n        /* \"#utility.yul\":3193:3256   */\n      swap3\n      pop\n        /* \"#utility.yul\":3149:3266   */\n      pop\n        /* \"#utility.yul\":3305:3307   */\n      0x20\n        /* \"#utility.yul\":3331:3384   */\n      tag_131\n        /* \"#utility.yul\":3376:3383   */\n      dup6\n        /* \"#utility.yul\":3367:3373   */\n      dup3\n        /* \"#utility.yul\":3356:3365   */\n      dup7\n        /* \"#utility.yul\":3352:3374   */\n      add\n        /* \"#utility.yul\":3331:3384   */\n      tag_68\n      jump\t// in\n    tag_131:\n        /* \"#utility.yul\":3321:3384   */\n      swap2\n      pop\n        /* \"#utility.yul\":3276:3394   */\n      pop\n        /* \"#utility.yul\":2927:3401   */\n      swap3\n      pop\n      swap3\n      swap1\n      pop\n      jump\t// out\n        /* \"#utility.yul\":3407:3529   */\n    tag_76:\n        /* \"#utility.yul\":3480:3504   */\n      tag_133\n        /* \"#utility.yul\":3498:3503   */\n      dup2\n        /* \"#utility.yul\":3480:3504   */\n      tag_70\n      jump\t// in\n    tag_133:\n        /* \"#utility.yul\":3473:3478   */\n      dup2\n        /* \"#utility.yul\":3470:3505   */\n      eq\n        /* \"#utility.yul\":3460:3523   */\n      tag_134\n      jumpi\n        /* \"#utility.yul\":3519:3520   */\n      0x00\n        /* \"#utility.yul\":3516:3517   */\n      dup1\n        /* \"#utility.yul\":3509:3521   */\n      revert\n        /* \"#utility.yul\":3460:3523   */\n    tag_134:\n        /* \"#utility.yul\":3407:3529   */\n      pop\n      jump\t// out\n        /* \"#utility.yul\":3535:3674   */\n    tag_77:\n        /* \"#utility.yul\":3581:3586   */\n      0x00\n        /* \"#utility.yul\":3619:3625   */\n      dup2\n        /* \"#utility.yul\":3606:3626   */\n      calldataload\n        /* \"#utility.yul\":3597:3626   */\n      swap1\n      pop\n        /* \"#utility.yul\":3635:3668   */\n      tag_136\n        /* \"#utility.yul\":3662:3667   */\n      dup2\n        /* \"#utility.yul\":3635:3668   */\n      tag_76\n      jump\t// in\n    tag_136:\n        /* \"#utility.yul\":3535:3674   */\n      swap3\n      swap2\n      pop\n      pop\n      jump\t// out\n        /* \"#utility.yul\":3680:4154   */\n    tag_25:\n        /* \"#utility.yul\":3748:3754   */\n      0x00\n        /* \"#utility.yul\":3756:3762   */\n      dup1\n        /* \"#utility.yul\":3805:3807   */\n      0x40\n        /* \"#utility.yul\":3793:3802   */\n      dup4\n        /* \"#utility.yul\":3784:3791   */\n      dup6\n        /* \"#utility.yul\":3780:3803   */\n      sub\n        /* \"#utility.yul\":3776:3808   */\n      slt\n        /* \"#utility.yul\":3773:3892   */\n      iszero\n      tag_138\n      jumpi\n        /* \"#utility.yul\":3811:3890   */\n      tag_139\n      tag_65\n      jump\t// in\n    tag_139:\n        /* \"#utility.yul\":3773:3892   */\n    tag_138:\n        /* \"#utility.yul\":3931:3932   */\n      0x00\n        /* \"#utility.yul\":3956:4009   */\n      tag_140\n        /* \"#utility.yul\":4001:4008   */\n      dup6\n        /* \"#utility.yul\":3992:3998   */\n      dup3\n        /* \"#utility.yul\":3981:3990   */\n      dup7\n        /* \"#utility.yul\":3977:3999   */\n      add\n        /* \"#utility.yul\":3956:4009   */\n      tag_68\n      jump\t// in\n    tag_140:\n        /* \"#utility.yul\":3946:4009   */\n      swap3\n      pop\n        /* \"#utility.yul\":3902:4019   */\n      pop\n        /* \"#utility.yul\":4058:4060   */\n      0x20\n        /* \"#utility.yul\":4084:4137   */\n      tag_141\n        /* \"#utility.yul\":4129:4136   */\n      dup6\n        /* \"#utility.yul\":4120:4126   */\n      dup3\n        /* \"#utility.yul\":4109:4118   */\n      dup7\n        /* \"#utility.yul\":4105:4127   */\n      add\n        /* \"#utility.yul\":4084:4137   */\n      tag_77\n      jump\t// in\n    tag_141:\n        /* \"#utility.yul\":4074:4137   */\n      swap2\n      pop\n        /* \"#utility.yul\":4029:4147   */\n      pop\n        /* \"#utility.yul\":3680:4154   */\n      swap3\n      pop\n      swap3\n      swap1\n      pop\n      jump\t// out\n        /* \"#utility.yul\":4160:4220   */\n    tag_78:\n        /* \"#utility.yul\":4188:4191   */\n      0x00\n        /* \"#utility.yul\":4209:4214   */\n      dup2\n        /* \"#utility.yul\":4202:4214   */\n      swap1\n      pop\n        /* \"#utility.yul\":4160:4220   */\n      swap2\n      swap1\n      pop\n      jump\t// out\n        /* \"#utility.yul\":4226:4368   */\n    tag_79:\n        /* \"#utility.yul\":4276:4285   */\n      0x00\n        /* \"#utility.yul\":4309:4362   */\n      tag_144\n        /* \"#utility.yul\":4327:4361   */\n      tag_145\n        /* \"#utility.yul\":4336:4360   */\n      tag_146\n        /* \"#utility.yul\":4354:4359   */\n      dup5\n        /* \"#utility.yul\":4336:4360   */\n      tag_69\n      jump\t// in\n    tag_146:\n        /* \"#utility.yul\":4327:4361   */\n      tag_78\n      jump\t// in\n    tag_145:\n        /* \"#utility.yul\":4309:4362   */\n      tag_69\n      jump\t// in\n    tag_144:\n        /* \"#utility.yul\":4296:4362   */\n      swap1\n      pop\n        /* \"#utility.yul\":4226:4368   */\n      swap2\n      swap1\n      pop\n      jump\t// out\n        /* \"#utility.yul\":4374:4500   */\n    tag_80:\n        /* \"#utility.yul\":4424:4433   */\n      0x00\n        /* \"#utility.yul\":4457:4494   */\n      tag_148\n        /* \"#utility.yul\":4488:4493   */\n      dup3\n        /* \"#utility.yul\":4457:4494   */\n      tag_79\n      jump\t// in\n    tag_148:\n        /* \"#utility.yul\":4444:4494   */\n      swap1\n      pop\n        /* \"#utility.yul\":4374:4500   */\n      swap2\n      swap1\n      pop\n      jump\t// out\n        /* \"#utility.yul\":4506:4645   */\n    tag_81:\n        /* \"#utility.yul\":4569:4578   */\n      0x00\n        /* \"#utility.yul\":4602:4639   */\n      tag_150\n        /* \"#utility.yul\":4633:4638   */\n      dup3\n        /* \"#utility.yul\":4602:4639   */\n      tag_80\n      jump\t// in\n    tag_150:\n        /* \"#utility.yul\":4589:4639   */\n      swap1\n      pop\n        /* \"#utility.yul\":4506:4645   */\n      swap2\n      swap1\n      pop\n      jump\t// out\n        /* \"#utility.yul\":4651:4808   */\n    tag_82:\n        /* \"#utility.yul\":4751:4801   */\n      tag_152\n        /* \"#utility.yul\":4795:4800   */\n      dup2\n        /* \"#utility.yul\":4751:4801   */\n      tag_81\n      jump\t// in\n    tag_152:\n        /* \"#utility.yul\":4746:4749   */\n      dup3\n        /* \"#utility.yul\":4739:4802   */\n      mstore\n        /* \"#utility.yul\":4651:4808   */\n      pop\n      pop\n      jump\t// out\n        /* \"#utility.yul\":4814:5062   */\n    tag_31:\n        /* \"#utility.yul\":4920:4924   */\n      0x00\n        /* \"#utility.yul\":4958:4960   */\n      0x20\n        /* \"#utility.yul\":4947:4956   */\n      dup3\n        /* \"#utility.yul\":4943:4961   */\n      add\n        /* \"#utility.yul\":4935:4961   */\n      swap1\n      pop\n        /* \"#utility.yul\":4971:5055   */\n      tag_154\n        /* \"#utility.yul\":5052:5053   */\n      0x00\n        /* \"#utility.yul\":5041:5050   */\n      dup4\n        /* \"#utility.yul\":5037:5054   */\n      add\n        /* \"#utility.yul\":5028:5034   */\n      dup5\n        /* \"#utility.yul\":4971:5055   */\n      tag_82\n      jump\t// in\n    tag_154:\n        /* \"#utility.yul\":4814:5062   */\n      swap3\n      swap2\n      pop\n      pop\n      jump\t// out\n        /* \"#utility.yul\":5068:5237   */\n    tag_83:\n        /* \"#utility.yul\":5152:5163   */\n      0x00\n        /* \"#utility.yul\":5186:5192   */\n      dup3\n        /* \"#utility.yul\":5181:5184   */\n      dup3\n        /* \"#utility.yul\":5174:5193   */\n      mstore\n        /* \"#utility.yul\":5226:5230   */\n      0x20\n        /* \"#utility.yul\":5221:5224   */\n      dup3\n        /* \"#utility.yul\":5217:5231   */\n      add\n        /* \"#utility.yul\":5202:5231   */\n      swap1\n      pop\n        /* \"#utility.yul\":5068:5237   */\n      swap3\n      swap2\n      pop\n      pop\n      jump\t// out\n        /* \"#utility.yul\":5243:5407   */\n    tag_84:\n        /* \"#utility.yul\":5383:5399   */\n      0x43616d706169676e20656e646564000000000000000000000000000000000000\n        /* \"#utility.yul\":5379:5380   */\n      0x00\n        /* \"#utility.yul\":5371:5377   */\n      dup3\n        /* \"#utility.yul\":5367:5381   */\n      add\n        /* \"#utility.yul\":5360:5400   */\n      mstore\n        /* \"#utility.yul\":5243:5407   */\n      pop\n      jump\t// out\n        /* \"#utility.yul\":5413:5779   */\n    tag_85:\n        /* \"#utility.yul\":5555:5558   */\n      0x00\n        /* \"#utility.yul\":5576:5643   */\n      tag_158\n        /* \"#utility.yul\":5640:5642   */\n      0x0e\n        /* \"#utility.yul\":5635:5638   */\n      dup4\n        /* \"#utility.yul\":5576:5643   */\n      tag_83\n      jump\t// in\n    tag_158:\n        /* \"#utility.yul\":5569:5643   */\n      swap2\n      pop\n        /* \"#utility.yul\":5652:5745   */\n      tag_159\n        /* \"#utility.yul\":5741:5744   */\n      dup3\n        /* \"#utility.yul\":5652:5745   */\n      tag_84\n      jump\t// in\n    tag_159:\n        /* \"#utility.yul\":5770:5772   */\n      0x20\n        /* \"#utility.yul\":5765:5768   */\n      dup3\n        /* \"#utility.yul\":5761:5773   */\n      add\n        /* \"#utility.yul\":5754:5773   */\n      swap1\n      pop\n        /* \"#utility.yul\":5413:5779   */\n      swap2\n      swap1\n      pop\n      jump\t// out\n        /* \"#utility.yul\":5785:6204   */\n    tag_38:\n        /* \"#utility.yul\":5951:5955   */\n      0x00\n        /* \"#utility.yul\":5989:5991   */\n      0x20\n        /* \"#utility.yul\":5978:5987   */\n      dup3\n        /* \"#utility.yul\":5974:5992   */\n      add\n        /* \"#utility.yul\":5966:5992   */\n      swap1\n      pop\n        /* \"#utility.yul\":6038:6047   */\n      dup2\n        /* \"#utility.yul\":6032:6036   */\n      dup2\n        /* \"#utility.yul\":6028:6048   */\n      sub\n        /* \"#utility.yul\":6024:6025   */\n      0x00\n        /* \"#utility.yul\":6013:6022   */\n      dup4\n        /* \"#utility.yul\":6009:6026   */\n      add\n        /* \"#utility.yul\":6002:6049   */\n      mstore\n        /* \"#utility.yul\":6066:6197   */\n      tag_161\n        /* \"#utility.yul\":6192:6196   */\n      dup2\n        /* \"#utility.yul\":6066:6197   */\n      tag_85\n      jump\t// in\n    tag_161:\n        /* \"#utility.yul\":6058:6197   */\n      swap1\n      pop\n        /* \"#utility.yul\":5785:6204   */\n      swap2\n      swap1\n      pop\n      jump\t// out\n        /* \"#utility.yul\":6210:6390   */\n    tag_86:\n        /* \"#utility.yul\":6258:6335   */\n      0x4e487b7100000000000000000000000000000000000000000000000000000000\n        /* \"#utility.yul\":6255:6256   */\n      0x00\n        /* \"#utility.yul\":6248:6336   */\n      mstore\n        /* \"#utility.yul\":6355:6359   */\n      0x11\n        /* \"#utility.yul\":6352:6353   */\n      0x04\n        /* \"#utility.yul\":6345:6360   */\n      mstore\n        /* \"#utility.yul\":6379:6383   */\n      0x24\n        /* \"#utility.yul\":6376:6377   */\n      0x00\n        /* \"#utility.yul\":6369:6384   */\n      revert\n        /* \"#utility.yul\":6396:6590   */\n    tag_40:\n        /* \"#utility.yul\":6436:6440   */\n      0x00\n        /* \"#utility.yul\":6456:6476   */\n      tag_164\n        /* \"#utility.yul\":6474:6475   */\n      dup3\n        /* \"#utility.yul\":6456:6476   */\n      tag_62\n      jump\t// in\n    tag_164:\n        /* \"#utility.yul\":6451:6476   */\n      swap2\n      pop\n        /* \"#utility.yul\":6490:6510   */\n      tag_165\n        /* \"#utility.yul\":6508:6509   */\n      dup4\n        /* \"#utility.yul\":6490:6510   */\n      tag_62\n      jump\t// in\n    tag_165:\n        /* \"#utility.yul\":6485:6510   */\n      swap3\n      pop\n        /* \"#utility.yul\":6534:6535   */\n      dup3\n        /* \"#utility.yul\":6531:6532   */\n      dup3\n        /* \"#utility.yul\":6527:6536   */\n      sub\n        /* \"#utility.yul\":6519:6536   */\n      swap1\n      pop\n        /* \"#utility.yul\":6558:6559   */\n      dup2\n        /* \"#utility.yul\":6552:6556   */\n      dup2\n        /* \"#utility.yul\":6549:6560   */\n      gt\n        /* \"#utility.yul\":6546:6583   */\n      iszero\n      tag_166\n      jumpi\n        /* \"#utility.yul\":6563:6581   */\n      tag_167\n      tag_86\n      jump\t// in\n    tag_167:\n        /* \"#utility.yul\":6546:6583   */\n    tag_166:\n        /* \"#utility.yul\":6396:6590   */\n      swap3\n      swap2\n      pop\n      pop\n      jump\t// out\n        /* \"#utility.yul\":6596:6928   */\n    tag_43:\n        /* \"#utility.yul\":6717:6721   */\n      0x00\n        /* \"#utility.yul\":6755:6757   */\n      0x40\n        /* \"#utility.yul\":6744:6753   */\n      dup3\n        /* \"#utility.yul\":6740:6758   */\n      add\n        /* \"#utility.yul\":6732:6758   */\n      swap1\n      pop\n        /* \"#utility.yul\":6768:6839   */\n      tag_169\n        /* \"#utility.yul\":6836:6837   */\n      0x00\n        /* \"#utility.yul\":6825:6834   */\n      dup4\n        /* \"#utility.yul\":6821:6838   */\n      add\n        /* \"#utility.yul\":6812:6818   */\n      dup6\n        /* \"#utility.yul\":6768:6839   */\n      tag_71\n      jump\t// in\n    tag_169:\n        /* \"#utility.yul\":6849:6921   */\n      tag_170\n        /* \"#utility.yul\":6917:6919   */\n      0x20\n        /* \"#utility.yul\":6906:6915   */\n      dup4\n        /* \"#utility.yul\":6902:6920   */\n      add\n        /* \"#utility.yul\":6893:6899   */\n      dup5\n        /* \"#utility.yul\":6849:6921   */\n      tag_63\n      jump\t// in\n    tag_170:\n        /* \"#utility.yul\":6596:6928   */\n      swap4\n      swap3\n      pop\n      pop\n      pop\n      jump\t// out\n        /* \"#utility.yul\":6934:7050   */\n    tag_87:\n        /* \"#utility.yul\":7004:7025   */\n      tag_172\n        /* \"#utility.yul\":7019:7024   */\n      dup2\n        /* \"#utility.yul\":7004:7025   */\n      tag_74\n      jump\t// in\n    tag_172:\n        /* \"#utility.yul\":6997:7002   */\n      dup2\n        /* \"#utility.yul\":6994:7026   */\n      eq\n        /* \"#utility.yul\":6984:7044   */\n      tag_173\n      jumpi\n        /* \"#utility.yul\":7040:7041   */\n      0x00\n        /* \"#utility.yul\":7037:7038   */\n      dup1\n        /* \"#utility.yul\":7030:7042   */\n      revert\n        /* \"#utility.yul\":6984:7044   */\n    tag_173:\n        /* \"#utility.yul\":6934:7050   */\n      pop\n      jump\t// out\n        /* \"#utility.yul\":7056:7193   */\n    tag_88:\n        /* \"#utility.yul\":7110:7115   */\n      0x00\n        /* \"#utility.yul\":7141:7147   */\n      dup2\n        /* \"#utility.yul\":7135:7148   */\n      mload\n        /* \"#utility.yul\":7126:7148   */\n      swap1\n      pop\n        /* \"#utility.yul\":7157:7187   */\n      tag_175\n        /* \"#utility.yul\":7181:7186   */\n      dup2\n        /* \"#utility.yul\":7157:7187   */\n      tag_87\n      jump\t// in\n    tag_175:\n        /* \"#utility.yul\":7056:7193   */\n      swap3\n      swap2\n      pop\n      pop\n      jump\t// out\n        /* \"#utility.yul\":7199:7544   */\n    tag_47:\n        /* \"#utility.yul\":7266:7272   */\n      0x00\n        /* \"#utility.yul\":7315:7317   */\n      0x20\n        /* \"#utility.yul\":7303:7312   */\n      dup3\n        /* \"#utility.yul\":7294:7301   */\n      dup5\n        /* \"#utility.yul\":7290:7313   */\n      sub\n        /* \"#utility.yul\":7286:7318   */\n      slt\n        /* \"#utility.yul\":7283:7402   */\n      iszero\n      tag_177\n      jumpi\n        /* \"#utility.yul\":7321:7400   */\n      tag_178\n      tag_65\n      jump\t// in\n    tag_178:\n        /* \"#utility.yul\":7283:7402   */\n    tag_177:\n        /* \"#utility.yul\":7441:7442   */\n      0x00\n        /* \"#utility.yul\":7466:7527   */\n      tag_179\n        /* \"#utility.yul\":7519:7526   */\n      dup5\n        /* \"#utility.yul\":7510:7516   */\n      dup3\n        /* \"#utility.yul\":7499:7508   */\n      dup6\n        /* \"#utility.yul\":7495:7517   */\n      add\n        /* \"#utility.yul\":7466:7527   */\n      tag_88\n      jump\t// in\n    tag_179:\n        /* \"#utility.yul\":7456:7527   */\n      swap2\n      pop\n        /* \"#utility.yul\":7412:7537   */\n      pop\n        /* \"#utility.yul\":7199:7544   */\n      swap3\n      swap2\n      pop\n      pop\n      jump\t// out\n        /* \"#utility.yul\":7550:7720   */\n    tag_89:\n        /* \"#utility.yul\":7690:7712   */\n      0x43616d706169676e206e6f742073746172746564000000000000000000000000\n        /* \"#utility.yul\":7686:7687   */\n      0x00\n        /* \"#utility.yul\":7678:7684   */\n      dup3\n        /* \"#utility.yul\":7674:7688   */\n      add\n        /* \"#utility.yul\":7667:7713   */\n      mstore\n        /* \"#utility.yul\":7550:7720   */\n      pop\n      jump\t// out\n        /* \"#utility.yul\":7726:8092   */\n    tag_90:\n        /* \"#utility.yul\":7868:7871   */\n      0x00\n        /* \"#utility.yul\":7889:7956   */\n      tag_182\n        /* \"#utility.yul\":7953:7955   */\n      0x14\n        /* \"#utility.yul\":7948:7951   */\n      dup4\n        /* \"#utility.yul\":7889:7956   */\n      tag_83\n      jump\t// in\n    tag_182:\n        /* \"#utility.yul\":7882:7956   */\n      swap2\n      pop\n        /* \"#utility.yul\":7965:8058   */\n      tag_183\n        /* \"#utility.yul\":8054:8057   */\n      dup3\n        /* \"#utility.yul\":7965:8058   */\n      tag_89\n      jump\t// in\n    tag_183:\n        /* \"#utility.yul\":8083:8085   */\n      0x20\n        /* \"#utility.yul\":8078:8081   */\n      dup3\n        /* \"#utility.yul\":8074:8086   */\n      add\n        /* \"#utility.yul\":8067:8086   */\n      swap1\n      pop\n        /* \"#utility.yul\":7726:8092   */\n      swap2\n      swap1\n      pop\n      jump\t// out\n        /* \"#utility.yul\":8098:8517   */\n    tag_51:\n        /* \"#utility.yul\":8264:8268   */\n      0x00\n        /* \"#utility.yul\":8302:8304   */\n      0x20\n        /* \"#utility.yul\":8291:8300   */\n      dup3\n        /* \"#utility.yul\":8287:8305   */\n      add\n        /* \"#utility.yul\":8279:8305   */\n      swap1\n      pop\n        /* \"#utility.yul\":8351:8360   */\n      dup2\n        /* \"#utility.yul\":8345:8349   */\n      dup2\n        /* \"#utility.yul\":8341:8361   */\n      sub\n        /* \"#utility.yul\":8337:8338   */\n      0x00\n        /* \"#utility.yul\":8326:8335   */\n      dup4\n        /* \"#utility.yul\":8322:8339   */\n      add\n        /* \"#utility.yul\":8315:8362   */\n      mstore\n        /* \"#utility.yul\":8379:8510   */\n      tag_185\n        /* \"#utility.yul\":8505:8509   */\n      dup2\n        /* \"#utility.yul\":8379:8510   */\n      tag_90\n      jump\t// in\n    tag_185:\n        /* \"#utility.yul\":8371:8510   */\n      swap1\n      pop\n        /* \"#utility.yul\":8098:8517   */\n      swap2\n      swap1\n      pop\n      jump\t// out\n        /* \"#utility.yul\":8523:8714   */\n    tag_55:\n        /* \"#utility.yul\":8563:8566   */\n      0x00\n        /* \"#utility.yul\":8582:8602   */\n      tag_187\n        /* \"#utility.yul\":8600:8601   */\n      dup3\n        /* \"#utility.yul\":8582:8602   */\n      tag_62\n      jump\t// in\n    tag_187:\n        /* \"#utility.yul\":8577:8602   */\n      swap2\n      pop\n        /* \"#utility.yul\":8616:8636   */\n      tag_188\n        /* \"#utility.yul\":8634:8635   */\n      dup4\n        /* \"#utility.yul\":8616:8636   */\n      tag_62\n      jump\t// in\n    tag_188:\n        /* \"#utility.yul\":8611:8636   */\n      swap3\n      pop\n        /* \"#utility.yul\":8659:8660   */\n      dup3\n        /* \"#utility.yul\":8656:8657   */\n      dup3\n        /* \"#utility.yul\":8652:8661   */\n      add\n        /* \"#utility.yul\":8645:8661   */\n      swap1\n      pop\n        /* \"#utility.yul\":8680:8683   */\n      dup1\n        /* \"#utility.yul\":8677:8678   */\n      dup3\n        /* \"#utility.yul\":8674:8684   */\n      gt\n        /* \"#utility.yul\":8671:8707   */\n      iszero\n      tag_189\n      jumpi\n        /* \"#utility.yul\":8687:8705   */\n      tag_190\n      tag_86\n      jump\t// in\n    tag_190:\n        /* \"#utility.yul\":8671:8707   */\n    tag_189:\n        /* \"#utility.yul\":8523:8714   */\n      swap3\n      swap2\n      pop\n      pop\n      jump\t// out\n        /* \"#utility.yul\":8720:9162   */\n    tag_58:\n        /* \"#utility.yul\":8869:8873   */\n      0x00\n        /* \"#utility.yul\":8907:8909   */\n      0x60\n        /* \"#utility.yul\":8896:8905   */\n      dup3\n        /* \"#utility.yul\":8892:8910   */\n      add\n        /* \"#utility.yul\":8884:8910   */\n      swap1\n      pop\n        /* \"#utility.yul\":8920:8991   */\n      tag_192\n        /* \"#utility.yul\":8988:8989   */\n      0x00\n        /* \"#utility.yul\":8977:8986   */\n      dup4\n        /* \"#utility.yul\":8973:8990   */\n      add\n        /* \"#utility.yul\":8964:8970   */\n      dup7\n        /* \"#utility.yul\":8920:8991   */\n      tag_71\n      jump\t// in\n    tag_192:\n        /* \"#utility.yul\":9001:9073   */\n      tag_193\n        /* \"#utility.yul\":9069:9071   */\n      0x20\n        /* \"#utility.yul\":9058:9067   */\n      dup4\n        /* \"#utility.yul\":9054:9072   */\n      add\n        /* \"#utility.yul\":9045:9051   */\n      dup6\n        /* \"#utility.yul\":9001:9073   */\n      tag_71\n      jump\t// in\n    tag_193:\n        /* \"#utility.yul\":9083:9155   */\n      tag_194\n        /* \"#utility.yul\":9151:9153   */\n      0x40\n        /* \"#utility.yul\":9140:9149   */\n      dup4\n        /* \"#utility.yul\":9136:9154   */\n      add\n        /* \"#utility.yul\":9127:9133   */\n      dup5\n        /* \"#utility.yul\":9083:9155   */\n      tag_63\n      jump\t// in\n    tag_194:\n        /* \"#utility.yul\":8720:9162   */\n      swap5\n      swap4\n      pop\n      pop\n      pop\n      pop\n      jump\t// out\n\n    auxdata: 0xa2646970667358221220e7ffc14442ddd15d26bf89578548fef62b4d4982b8d71adf5822518a8da7195064736f6c634300081a0033\n}\n",
				"bytecode": {
					"linkReferences": {},
					"object": "60a060405234801561000f575f80fd5b50604051610b6f380380610b6f833981810160405281019061003191906100c9565b8073ffffffffffffffffffffffffffffffffffffffff1660808173ffffffffffffffffffffffffffffffffffffffff1681525050506100f4565b5f80fd5b5f73ffffffffffffffffffffffffffffffffffffffff82169050919050565b5f6100988261006f565b9050919050565b6100a88161008e565b81146100b2575f80fd5b50565b5f815190506100c38161009f565b92915050565b5f602082840312156100de576100dd61006b565b5b5f6100eb848285016100b5565b91505092915050565b608051610a5561011a5f395f81816102b30152818161037401526104e00152610a555ff3fe608060405234801561000f575f80fd5b5060043610610060575f3560e01c806306661abd14610064578063141961bc14610082578063711853ab146100b7578063aa4fb63a146100d3578063fc0c546a14610103578063fde327be14610121575b5f80fd5b61006c61013d565b6040516100799190610599565b60405180910390f35b61009c600480360381019061009791906105e0565b610143565b6040516100ae96959493929190610682565b60405180910390f35b6100d160048036038101906100cc91906106e1565b6101c5565b005b6100ed60048036038101906100e89190610749565b610352565b6040516100fa9190610599565b60405180910390f35b61010b610372565b60405161011891906107e2565b60405180910390f35b61013b600480360381019061013691906106e1565b610396565b005b60015481565b5f602052805f5260405f205f91509050805f015f9054906101000a900473ffffffffffffffffffffffffffffffffffffffff1690806001015490806002015f9054906101000a900463ffffffff16908060020160049054906101000a900463ffffffff16908060020160089054906101000a900460ff16908060030154905086565b5f805f8481526020019081526020015f2090508060020160049054906101000a900463ffffffff1663ffffffff16421115610235576040517f08c379a000000000000000000000000000000000000000000000000000000000815260040161022c90610855565b60405180910390fd5b81816003015f82825461024891906108a0565b925050819055508160025f8581526020019081526020015f205f3373ffffffffffffffffffffffffffffffffffffffff1673ffffffffffffffffffffffffffffffffffffffff1681526020019081526020015f205f8282546102aa91906108a0565b925050819055507f000000000000000000000000000000000000000000000000000000000000000073ffffffffffffffffffffffffffffffffffffffff1663a9059cbb33846040518363ffffffff1660e01b815260040161030c9291906108d3565b6020604051808303815f875af1158015610328573d5f803e3d5ffd5b505050506040513d601f19601f8201168201806040525081019061034c9190610924565b50505050565b6002602052815f5260405f20602052805f5260405f205f91509150505481565b7f000000000000000000000000000000000000000000000000000000000000000081565b5f805f8481526020019081526020015f209050806002015f9054906101000a900463ffffffff1663ffffffff16421015610405576040517f08c379a00000000000000000000000000000000000000000000000000000000081526004016103fc90610999565b60405180910390fd5b8060020160049054906101000a900463ffffffff1663ffffffff16421115610462576040517f08c379a000000000000000000000000000000000000000000000000000000000815260040161045990610855565b60405180910390fd5b81816003015f82825461047591906109b7565b925050819055508160025f8581526020019081526020015f205f3373ffffffffffffffffffffffffffffffffffffffff1673ffffffffffffffffffffffffffffffffffffffff1681526020019081526020015f205f8282546104d791906109b7565b925050819055507f000000000000000000000000000000000000000000000000000000000000000073ffffffffffffffffffffffffffffffffffffffff166323b872dd3330856040518463ffffffff1660e01b815260040161053b939291906109ea565b6020604051808303815f875af1158015610557573d5f803e3d5ffd5b505050506040513d601f19601f8201168201806040525081019061057b9190610924565b50505050565b5f819050919050565b61059381610581565b82525050565b5f6020820190506105ac5f83018461058a565b92915050565b5f80fd5b6105bf81610581565b81146105c9575f80fd5b50565b5f813590506105da816105b6565b92915050565b5f602082840312156105f5576105f46105b2565b5b5f610602848285016105cc565b91505092915050565b5f73ffffffffffffffffffffffffffffffffffffffff82169050919050565b5f6106348261060b565b9050919050565b6106448161062a565b82525050565b5f63ffffffff82169050919050565b6106628161064a565b82525050565b5f8115159050919050565b61067c81610668565b82525050565b5f60c0820190506106955f83018961063b565b6106a2602083018861058a565b6106af6040830187610659565b6106bc6060830186610659565b6106c96080830185610673565b6106d660a083018461058a565b979650505050505050565b5f80604083850312156106f7576106f66105b2565b5b5f610704858286016105cc565b9250506020610715858286016105cc565b9150509250929050565b6107288161062a565b8114610732575f80fd5b50565b5f813590506107438161071f565b92915050565b5f806040838503121561075f5761075e6105b2565b5b5f61076c858286016105cc565b925050602061077d85828601610735565b9150509250929050565b5f819050919050565b5f6107aa6107a56107a08461060b565b610787565b61060b565b9050919050565b5f6107bb82610790565b9050919050565b5f6107cc826107b1565b9050919050565b6107dc816107c2565b82525050565b5f6020820190506107f55f8301846107d3565b92915050565b5f82825260208201905092915050565b7f43616d706169676e20656e6465640000000000000000000000000000000000005f82015250565b5f61083f600e836107fb565b915061084a8261080b565b602082019050919050565b5f6020820190508181035f83015261086c81610833565b9050919050565b7f4e487b71000000000000000000000000000000000000000000000000000000005f52601160045260245ffd5b5f6108aa82610581565b91506108b583610581565b92508282039050818111156108cd576108cc610873565b5b92915050565b5f6040820190506108e65f83018561063b565b6108f3602083018461058a565b9392505050565b61090381610668565b811461090d575f80fd5b50565b5f8151905061091e816108fa565b92915050565b5f60208284031215610939576109386105b2565b5b5f61094684828501610910565b91505092915050565b7f43616d706169676e206e6f7420737461727465640000000000000000000000005f82015250565b5f6109836014836107fb565b915061098e8261094f565b602082019050919050565b5f6020820190508181035f8301526109b081610977565b9050919050565b5f6109c182610581565b91506109cc83610581565b92508282019050808211156109e4576109e3610873565b5b92915050565b5f6060820190506109fd5f83018661063b565b610a0a602083018561063b565b610a17604083018461058a565b94935050505056fea2646970667358221220e7ffc14442ddd15d26bf89578548fef62b4d4982b8d71adf5822518a8da7195064736f6c634300081a0033",
					"opcodes": "PUSH1 0xA0 PUSH1 0x40 MSTORE CALLVALUE DUP1 ISZERO PUSH2 0xF JUMPI PUSH0 DUP1 REVERT JUMPDEST POP PUSH1 0x40 MLOAD PUSH2 0xB6F CODESIZE SUB DUP1 PUSH2 0xB6F DUP4 CODECOPY DUP2 DUP2 ADD PUSH1 0x40 MSTORE DUP2 ADD SWAP1 PUSH2 0x31 SWAP2 SWAP1 PUSH2 0xC9 JUMP JUMPDEST DUP1 PUSH20 0xFFFFFFFFFFFFFFFFFFFFFFFFFFFFFFFFFFFFFFFF AND PUSH1 0x80 DUP2 PUSH20 0xFFFFFFFFFFFFFFFFFFFFFFFFFFFFFFFFFFFFFFFF AND DUP2 MSTORE POP POP POP PUSH2 0xF4 JUMP JUMPDEST PUSH0 DUP1 REVERT JUMPDEST PUSH0 PUSH20 0xFFFFFFFFFFFFFFFFFFFFFFFFFFFFFFFFFFFFFFFF DUP3 AND SWAP1 POP SWAP2 SWAP1 POP JUMP JUMPDEST PUSH0 PUSH2 0x98 DUP3 PUSH2 0x6F JUMP JUMPDEST SWAP1 POP SWAP2 SWAP1 POP JUMP JUMPDEST PUSH2 0xA8 DUP2 PUSH2 0x8E JUMP JUMPDEST DUP2 EQ PUSH2 0xB2 JUMPI PUSH0 DUP1 REVERT JUMPDEST POP JUMP JUMPDEST PUSH0 DUP2 MLOAD SWAP1 POP PUSH2 0xC3 DUP2 PUSH2 0x9F JUMP JUMPDEST SWAP3 SWAP2 POP POP JUMP JUMPDEST PUSH0 PUSH1 0x20 DUP3 DUP5 SUB SLT ISZERO PUSH2 0xDE JUMPI PUSH2 0xDD PUSH2 0x6B JUMP JUMPDEST JUMPDEST PUSH0 PUSH2 0xEB DUP5 DUP3 DUP6 ADD PUSH2 0xB5 JUMP JUMPDEST SWAP2 POP POP SWAP3 SWAP2 POP POP JUMP JUMPDEST PUSH1 0x80 MLOAD PUSH2 0xA55 PUSH2 0x11A PUSH0 CODECOPY PUSH0 DUP2 DUP2 PUSH2 0x2B3 ADD MSTORE DUP2 DUP2 PUSH2 0x374 ADD MSTORE PUSH2 0x4E0 ADD MSTORE PUSH2 0xA55 PUSH0 RETURN INVALID PUSH1 0x80 PUSH1 0x40 MSTORE CALLVALUE DUP1 ISZERO PUSH2 0xF JUMPI PUSH0 DUP1 REVERT JUMPDEST POP PUSH1 0x4 CALLDATASIZE LT PUSH2 0x60 JUMPI PUSH0 CALLDATALOAD PUSH1 0xE0 SHR DUP1 PUSH4 0x6661ABD EQ PUSH2 0x64 JUMPI DUP1 PUSH4 0x141961BC EQ PUSH2 0x82 JUMPI DUP1 PUSH4 0x711853AB EQ PUSH2 0xB7 JUMPI DUP1 PUSH4 0xAA4FB63A EQ PUSH2 0xD3 JUMPI DUP1 PUSH4 0xFC0C546A EQ PUSH2 0x103 JUMPI DUP1 PUSH4 0xFDE327BE EQ PUSH2 0x121 JUMPI JUMPDEST PUSH0 DUP1 REVERT JUMPDEST PUSH2 0x6C PUSH2 0x13D JUMP JUMPDEST PUSH1 0x40 MLOAD PUSH2 0x79 SWAP2 SWAP1 PUSH2 0x599 JUMP JUMPDEST PUSH1 0x40 MLOAD DUP1 SWAP2 SUB SWAP1 RETURN JUMPDEST PUSH2 0x9C PUSH1 0x4 DUP1 CALLDATASIZE SUB DUP2 ADD SWAP1 PUSH2 0x97 SWAP2 SWAP1 PUSH2 0x5E0 JUMP JUMPDEST PUSH2 0x143 JUMP JUMPDEST PUSH1 0x40 MLOAD PUSH2 0xAE SWAP7 SWAP6 SWAP5 SWAP4 SWAP3 SWAP2 SWAP1 PUSH2 0x682 JUMP JUMPDEST PUSH1 0x40 MLOAD DUP1 SWAP2 SUB SWAP1 RETURN JUMPDEST PUSH2 0xD1 PUSH1 0x4 DUP1 CALLDATASIZE SUB DUP2 ADD SWAP1 PUSH2 0xCC SWAP2 SWAP1 PUSH2 0x6E1 JUMP JUMPDEST PUSH2 0x1C5 JUMP JUMPDEST STOP JUMPDEST PUSH2 0xED PUSH1 0x4 DUP1 CALLDATASIZE SUB DUP2 ADD SWAP1 PUSH2 0xE8 SWAP2 SWAP1 PUSH2 0x749 JUMP JUMPDEST PUSH2 0x352 JUMP JUMPDEST PUSH1 0x40 MLOAD PUSH2 0xFA SWAP2 SWAP1 PUSH2 0x599 JUMP JUMPDEST PUSH1 0x40 MLOAD DUP1 SWAP2 SUB SWAP1 RETURN JUMPDEST PUSH2 0x10B PUSH2 0x372 JUMP JUMPDEST PUSH1 0x40 MLOAD PUSH2 0x118 SWAP2 SWAP1 PUSH2 0x7E2 JUMP JUMPDEST PUSH1 0x40 MLOAD DUP1 SWAP2 SUB SWAP1 RETURN JUMPDEST PUSH2 0x13B PUSH1 0x4 DUP1 CALLDATASIZE SUB DUP2 ADD SWAP1 PUSH2 0x136 SWAP2 SWAP1 PUSH2 0x6E1 JUMP JUMPDEST PUSH2 0x396 JUMP JUMPDEST STOP JUMPDEST PUSH1 0x1 SLOAD DUP2 JUMP JUMPDEST PUSH0 PUSH1 0x20 MSTORE DUP1 PUSH0 MSTORE PUSH1 0x40 PUSH0 KECCAK256 PUSH0 SWAP2 POP SWAP1 POP DUP1 PUSH0 ADD PUSH0 SWAP1 SLOAD SWAP1 PUSH2 0x100 EXP SWAP1 DIV PUSH20 0xFFFFFFFFFFFFFFFFFFFFFFFFFFFFFFFFFFFFFFFF AND SWAP1 DUP1 PUSH1 0x1 ADD SLOAD SWAP1 DUP1 PUSH1 0x2 ADD PUSH0 SWAP1 SLOAD SWAP1 PUSH2 0x100 EXP SWAP1 DIV PUSH4 0xFFFFFFFF AND SWAP1 DUP1 PUSH1 0x2 ADD PUSH1 0x4 SWAP1 SLOAD SWAP1 PUSH2 0x100 EXP SWAP1 DIV PUSH4 0xFFFFFFFF AND SWAP1 DUP1 PUSH1 0x2 ADD PUSH1 0x8 SWAP1 SLOAD SWAP1 PUSH2 0x100 EXP SWAP1 DIV PUSH1 0xFF AND SWAP1 DUP1 PUSH1 0x3 ADD SLOAD SWAP1 POP DUP7 JUMP JUMPDEST PUSH0 DUP1 PUSH0 DUP5 DUP2 MSTORE PUSH1 0x20 ADD SWAP1 DUP2 MSTORE PUSH1 0x20 ADD PUSH0 KECCAK256 SWAP1 POP DUP1 PUSH1 0x2 ADD PUSH1 0x4 SWAP1 SLOAD SWAP1 PUSH2 0x100 EXP SWAP1 DIV PUSH4 0xFFFFFFFF AND PUSH4 0xFFFFFFFF AND TIMESTAMP GT ISZERO PUSH2 0x235 JUMPI PUSH1 0x40 MLOAD PUSH32 0x8C379A000000000000000000000000000000000000000000000000000000000 DUP2 MSTORE PUSH1 0x4 ADD PUSH2 0x22C SWAP1 PUSH2 0x855 JUMP JUMPDEST PUSH1 0x40 MLOAD DUP1 SWAP2 SUB SWAP1 REVERT JUMPDEST DUP2 DUP2 PUSH1 0x3 ADD PUSH0 DUP3 DUP3 SLOAD PUSH2 0x248 SWAP2 SWAP1 PUSH2 0x8A0 JUMP JUMPDEST SWAP3 POP POP DUP2 SWAP1 SSTORE POP DUP2 PUSH1 0x2 PUSH0 DUP6 DUP2 MSTORE PUSH1 0x20 ADD SWAP1 DUP2 MSTORE PUSH1 0x20 ADD PUSH0 KECCAK256 PUSH0 CALLER PUSH20 0xFFFFFFFFFFFFFFFFFFFFFFFFFFFFFFFFFFFFFFFF AND PUSH20 0xFFFFFFFFFFFFFFFFFFFFFFFFFFFFFFFFFFFFFFFF AND DUP2 MSTORE PUSH1 0x20 ADD SWAP1 DUP2 MSTORE PUSH1 0x20 ADD PUSH0 KECCAK256 PUSH0 DUP3 DUP3 SLOAD PUSH2 0x2AA SWAP2 SWAP1 PUSH2 0x8A0 JUMP JUMPDEST SWAP3 POP POP DUP2 SWAP1 SSTORE POP PUSH32 0x0 PUSH20 0xFFFFFFFFFFFFFFFFFFFFFFFFFFFFFFFFFFFFFFFF AND PUSH4 0xA9059CBB CALLER DUP5 PUSH1 0x40 MLOAD DUP4 PUSH4 0xFFFFFFFF AND PUSH1 0xE0 SHL DUP2 MSTORE PUSH1 0x4 ADD PUSH2 0x30C SWAP3 SWAP2 SWAP1 PUSH2 0x8D3 JUMP JUMPDEST PUSH1 0x20 PUSH1 0x40 MLOAD DUP1 DUP4 SUB DUP2 PUSH0 DUP8 GAS CALL ISZERO DUP1 ISZERO PUSH2 0x328 JUMPI RETURNDATASIZE PUSH0 DUP1 RETURNDATACOPY RETURNDATASIZE PUSH0 REVERT JUMPDEST POP POP POP POP PUSH1 0x40 MLOAD RETURNDATASIZE PUSH1 0x1F NOT PUSH1 0x1F DUP3 ADD AND DUP3 ADD DUP1 PUSH1 0x40 MSTORE POP DUP2 ADD SWAP1 PUSH2 0x34C SWAP2 SWAP1 PUSH2 0x924 JUMP JUMPDEST POP POP POP POP JUMP JUMPDEST PUSH1 0x2 PUSH1 0x20 MSTORE DUP2 PUSH0 MSTORE PUSH1 0x40 PUSH0 KECCAK256 PUSH1 0x20 MSTORE DUP1 PUSH0 MSTORE PUSH1 0x40 PUSH0 KECCAK256 PUSH0 SWAP2 POP SWAP2 POP POP SLOAD DUP2 JUMP JUMPDEST PUSH32 0x0 DUP2 JUMP JUMPDEST PUSH0 DUP1 PUSH0 DUP5 DUP2 MSTORE PUSH1 0x20 ADD SWAP1 DUP2 MSTORE PUSH1 0x20 ADD PUSH0 KECCAK256 SWAP1 POP DUP1 PUSH1 0x2 ADD PUSH0 SWAP1 SLOAD SWAP1 PUSH2 0x100 EXP SWAP1 DIV PUSH4 0xFFFFFFFF AND PUSH4 0xFFFFFFFF AND TIMESTAMP LT ISZERO PUSH2 0x405 JUMPI PUSH1 0x40 MLOAD PUSH32 0x8C379A000000000000000000000000000000000000000000000000000000000 DUP2 MSTORE PUSH1 0x4 ADD PUSH2 0x3FC SWAP1 PUSH2 0x999 JUMP JUMPDEST PUSH1 0x40 MLOAD DUP1 SWAP2 SUB SWAP1 REVERT JUMPDEST DUP1 PUSH1 0x2 ADD PUSH1 0x4 SWAP1 SLOAD SWAP1 PUSH2 0x100 EXP SWAP1 DIV PUSH4 0xFFFFFFFF AND PUSH4 0xFFFFFFFF AND TIMESTAMP GT ISZERO PUSH2 0x462 JUMPI PUSH1 0x40 MLOAD PUSH32 0x8C379A000000000000000000000000000000000000000000000000000000000 DUP2 MSTORE PUSH1 0x4 ADD PUSH2 0x459 SWAP1 PUSH2 0x855 JUMP JUMPDEST PUSH1 0x40 MLOAD DUP1 SWAP2 SUB SWAP1 REVERT JUMPDEST DUP2 DUP2 PUSH1 0x3 ADD PUSH0 DUP3 DUP3 SLOAD PUSH2 0x475 SWAP2 SWAP1 PUSH2 0x9B7 JUMP JUMPDEST SWAP3 POP POP DUP2 SWAP1 SSTORE POP DUP2 PUSH1 0x2 PUSH0 DUP6 DUP2 MSTORE PUSH1 0x20 ADD SWAP1 DUP2 MSTORE PUSH1 0x20 ADD PUSH0 KECCAK256 PUSH0 CALLER PUSH20 0xFFFFFFFFFFFFFFFFFFFFFFFFFFFFFFFFFFFFFFFF AND PUSH20 0xFFFFFFFFFFFFFFFFFFFFFFFFFFFFFFFFFFFFFFFF AND DUP2 MSTORE PUSH1 0x20 ADD SWAP1 DUP2 MSTORE PUSH1 0x20 ADD PUSH0 KECCAK256 PUSH0 DUP3 DUP3 SLOAD PUSH2 0x4D7 SWAP2 SWAP1 PUSH2 0x9B7 JUMP JUMPDEST SWAP3 POP POP DUP2 SWAP1 SSTORE POP PUSH32 0x0 PUSH20 0xFFFFFFFFFFFFFFFFFFFFFFFFFFFFFFFFFFFFFFFF AND PUSH4 0x23B872DD CALLER ADDRESS DUP6 PUSH1 0x40 MLOAD DUP5 PUSH4 0xFFFFFFFF AND PUSH1 0xE0 SHL DUP2 MSTORE PUSH1 0x4 ADD PUSH2 0x53B SWAP4 SWAP3 SWAP2 SWAP1 PUSH2 0x9EA JUMP JUMPDEST PUSH1 0x20 PUSH1 0x40 MLOAD DUP1 DUP4 SUB DUP2 PUSH0 DUP8 GAS CALL ISZERO DUP1 ISZERO PUSH2 0x557 JUMPI RETURNDATASIZE PUSH0 DUP1 RETURNDATACOPY RETURNDATASIZE PUSH0 REVERT JUMPDEST POP POP POP POP PUSH1 0x40 MLOAD RETURNDATASIZE PUSH1 0x1F NOT PUSH1 0x1F DUP3 ADD AND DUP3 ADD DUP1 PUSH1 0x40 MSTORE POP DUP2 ADD SWAP1 PUSH2 0x57B SWAP2 SWAP1 PUSH2 0x924 JUMP JUMPDEST POP POP POP POP JUMP JUMPDEST PUSH0 DUP2 SWAP1 POP SWAP2 SWAP1 POP JUMP JUMPDEST PUSH2 0x593 DUP2 PUSH2 0x581 JUMP JUMPDEST DUP3 MSTORE POP POP JUMP JUMPDEST PUSH0 PUSH1 0x20 DUP3 ADD SWAP1 POP PUSH2 0x5AC PUSH0 DUP4 ADD DUP5 PUSH2 0x58A JUMP JUMPDEST SWAP3 SWAP2 POP POP JUMP JUMPDEST PUSH0 DUP1 REVERT JUMPDEST PUSH2 0x5BF DUP2 PUSH2 0x581 JUMP JUMPDEST DUP2 EQ PUSH2 0x5C9 JUMPI PUSH0 DUP1 REVERT JUMPDEST POP JUMP JUMPDEST PUSH0 DUP2 CALLDATALOAD SWAP1 POP PUSH2 0x5DA DUP2 PUSH2 0x5B6 JUMP JUMPDEST SWAP3 SWAP2 POP POP JUMP JUMPDEST PUSH0 PUSH1 0x20 DUP3 DUP5 SUB SLT ISZERO PUSH2 0x5F5 JUMPI PUSH2 0x5F4 PUSH2 0x5B2 JUMP JUMPDEST JUMPDEST PUSH0 PUSH2 0x602 DUP5 DUP3 DUP6 ADD PUSH2 0x5CC JUMP JUMPDEST SWAP2 POP POP SWAP3 SWAP2 POP POP JUMP JUMPDEST PUSH0 PUSH20 0xFFFFFFFFFFFFFFFFFFFFFFFFFFFFFFFFFFFFFFFF DUP3 AND SWAP1 POP SWAP2 SWAP1 POP JUMP JUMPDEST PUSH0 PUSH2 0x634 DUP3 PUSH2 0x60B JUMP JUMPDEST SWAP1 POP SWAP2 SWAP1 POP JUMP JUMPDEST PUSH2 0x644 DUP2 PUSH2 0x62A JUMP JUMPDEST DUP3 MSTORE POP POP JUMP JUMPDEST PUSH0 PUSH4 0xFFFFFFFF DUP3 AND SWAP1 POP SWAP2 SWAP1 POP JUMP JUMPDEST PUSH2 0x662 DUP2 PUSH2 0x64A JUMP JUMPDEST DUP3 MSTORE POP POP JUMP JUMPDEST PUSH0 DUP2 ISZERO ISZERO SWAP1 POP SWAP2 SWAP1 POP JUMP JUMPDEST PUSH2 0x67C DUP2 PUSH2 0x668 JUMP JUMPDEST DUP3 MSTORE POP POP JUMP JUMPDEST PUSH0 PUSH1 0xC0 DUP3 ADD SWAP1 POP PUSH2 0x695 PUSH0 DUP4 ADD DUP10 PUSH2 0x63B JUMP JUMPDEST PUSH2 0x6A2 PUSH1 0x20 DUP4 ADD DUP9 PUSH2 0x58A JUMP JUMPDEST PUSH2 0x6AF PUSH1 0x40 DUP4 ADD DUP8 PUSH2 0x659 JUMP JUMPDEST PUSH2 0x6BC PUSH1 0x60 DUP4 ADD DUP7 PUSH2 0x659 JUMP JUMPDEST PUSH2 0x6C9 PUSH1 0x80 DUP4 ADD DUP6 PUSH2 0x673 JUMP JUMPDEST PUSH2 0x6D6 PUSH1 0xA0 DUP4 ADD DUP5 PUSH2 0x58A JUMP JUMPDEST SWAP8 SWAP7 POP POP POP POP POP POP POP JUMP JUMPDEST PUSH0 DUP1 PUSH1 0x40 DUP4 DUP6 SUB SLT ISZERO PUSH2 0x6F7 JUMPI PUSH2 0x6F6 PUSH2 0x5B2 JUMP JUMPDEST JUMPDEST PUSH0 PUSH2 0x704 DUP6 DUP3 DUP7 ADD PUSH2 0x5CC JUMP JUMPDEST SWAP3 POP POP PUSH1 0x20 PUSH2 0x715 DUP6 DUP3 DUP7 ADD PUSH2 0x5CC JUMP JUMPDEST SWAP2 POP POP SWAP3 POP SWAP3 SWAP1 POP JUMP JUMPDEST PUSH2 0x728 DUP2 PUSH2 0x62A JUMP JUMPDEST DUP2 EQ PUSH2 0x732 JUMPI PUSH0 DUP1 REVERT JUMPDEST POP JUMP JUMPDEST PUSH0 DUP2 CALLDATALOAD SWAP1 POP PUSH2 0x743 DUP2 PUSH2 0x71F JUMP JUMPDEST SWAP3 SWAP2 POP POP JUMP JUMPDEST PUSH0 DUP1 PUSH1 0x40 DUP4 DUP6 SUB SLT ISZERO PUSH2 0x75F JUMPI PUSH2 0x75E PUSH2 0x5B2 JUMP JUMPDEST JUMPDEST PUSH0 PUSH2 0x76C DUP6 DUP3 DUP7 ADD PUSH2 0x5CC JUMP JUMPDEST SWAP3 POP POP PUSH1 0x20 PUSH2 0x77D DUP6 DUP3 DUP7 ADD PUSH2 0x735 JUMP JUMPDEST SWAP2 POP POP SWAP3 POP SWAP3 SWAP1 POP JUMP JUMPDEST PUSH0 DUP2 SWAP1 POP SWAP2 SWAP1 POP JUMP JUMPDEST PUSH0 PUSH2 0x7AA PUSH2 0x7A5 PUSH2 0x7A0 DUP5 PUSH2 0x60B JUMP JUMPDEST PUSH2 0x787 JUMP JUMPDEST PUSH2 0x60B JUMP JUMPDEST SWAP1 POP SWAP2 SWAP1 POP JUMP JUMPDEST PUSH0 PUSH2 0x7BB DUP3 PUSH2 0x790 JUMP JUMPDEST SWAP1 POP SWAP2 SWAP1 POP JUMP JUMPDEST PUSH0 PUSH2 0x7CC DUP3 PUSH2 0x7B1 JUMP JUMPDEST SWAP1 POP SWAP2 SWAP1 POP JUMP JUMPDEST PUSH2 0x7DC DUP2 PUSH2 0x7C2 JUMP JUMPDEST DUP3 MSTORE POP POP JUMP JUMPDEST PUSH0 PUSH1 0x20 DUP3 ADD SWAP1 POP PUSH2 0x7F5 PUSH0 DUP4 ADD DUP5 PUSH2 0x7D3 JUMP JUMPDEST SWAP3 SWAP2 POP POP JUMP JUMPDEST PUSH0 DUP3 DUP3 MSTORE PUSH1 0x20 DUP3 ADD SWAP1 POP SWAP3 SWAP2 POP POP JUMP JUMPDEST PUSH32 0x43616D706169676E20656E646564000000000000000000000000000000000000 PUSH0 DUP3 ADD MSTORE POP JUMP JUMPDEST PUSH0 PUSH2 0x83F PUSH1 0xE DUP4 PUSH2 0x7FB JUMP JUMPDEST SWAP2 POP PUSH2 0x84A DUP3 PUSH2 0x80B JUMP JUMPDEST PUSH1 0x20 DUP3 ADD SWAP1 POP SWAP2 SWAP1 POP JUMP JUMPDEST PUSH0 PUSH1 0x20 DUP3 ADD SWAP1 POP DUP2 DUP2 SUB PUSH0 DUP4 ADD MSTORE PUSH2 0x86C DUP2 PUSH2 0x833 JUMP JUMPDEST SWAP1 POP SWAP2 SWAP1 POP JUMP JUMPDEST PUSH32 0x4E487B7100000000000000000000000000000000000000000000000000000000 PUSH0 MSTORE PUSH1 0x11 PUSH1 0x4 MSTORE PUSH1 0x24 PUSH0 REVERT JUMPDEST PUSH0 PUSH2 0x8AA DUP3 PUSH2 0x581 JUMP JUMPDEST SWAP2 POP PUSH2 0x8B5 DUP4 PUSH2 0x581 JUMP JUMPDEST SWAP3 POP DUP3 DUP3 SUB SWAP1 POP DUP2 DUP2 GT ISZERO PUSH2 0x8CD JUMPI PUSH2 0x8CC PUSH2 0x873 JUMP JUMPDEST JUMPDEST SWAP3 SWAP2 POP POP JUMP JUMPDEST PUSH0 PUSH1 0x40 DUP3 ADD SWAP1 POP PUSH2 0x8E6 PUSH0 DUP4 ADD DUP6 PUSH2 0x63B JUMP JUMPDEST PUSH2 0x8F3 PUSH1 0x20 DUP4 ADD DUP5 PUSH2 0x58A JUMP JUMPDEST SWAP4 SWAP3 POP POP POP JUMP JUMPDEST PUSH2 0x903 DUP2 PUSH2 0x668 JUMP JUMPDEST DUP2 EQ PUSH2 0x90D JUMPI PUSH0 DUP1 REVERT JUMPDEST POP JUMP JUMPDEST PUSH0 DUP2 MLOAD SWAP1 POP PUSH2 0x91E DUP2 PUSH2 0x8FA JUMP JUMPDEST SWAP3 SWAP2 POP POP JUMP JUMPDEST PUSH0 PUSH1 0x20 DUP3 DUP5 SUB SLT ISZERO PUSH2 0x939 JUMPI PUSH2 0x938 PUSH2 0x5B2 JUMP JUMPDEST JUMPDEST PUSH0 PUSH2 0x946 DUP5 DUP3 DUP6 ADD PUSH2 0x910 JUMP JUMPDEST SWAP2 POP POP SWAP3 SWAP2 POP POP JUMP JUMPDEST PUSH32 0x43616D706169676E206E6F742073746172746564000000000000000000000000 PUSH0 DUP3 ADD MSTORE POP JUMP JUMPDEST PUSH0 PUSH2 0x983 PUSH1 0x14 DUP4 PUSH2 0x7FB JUMP JUMPDEST SWAP2 POP PUSH2 0x98E DUP3 PUSH2 0x94F JUMP JUMPDEST PUSH1 0x20 DUP3 ADD SWAP1 POP SWAP2 SWAP1 POP JUMP JUMPDEST PUSH0 PUSH1 0x20 DUP3 ADD SWAP1 POP DUP2 DUP2 SUB PUSH0 DUP4 ADD MSTORE PUSH2 0x9B0 DUP2 PUSH2 0x977 JUMP JUMPDEST SWAP1 POP SWAP2 SWAP1 POP JUMP JUMPDEST PUSH0 PUSH2 0x9C1 DUP3 PUSH2 0x581 JUMP JUMPDEST SWAP2 POP PUSH2 0x9CC DUP4 PUSH2 0x581 JUMP JUMPDEST SWAP3 POP DUP3 DUP3 ADD SWAP1 POP DUP1 DUP3 GT ISZERO PUSH2 0x9E4 JUMPI PUSH2 0x9E3 PUSH2 0x873 JUMP JUMPDEST JUMPDEST SWAP3 SWAP2 POP POP JUMP JUMPDEST PUSH0 PUSH1 0x60 DUP3 ADD SWAP1 POP PUSH2 0x9FD PUSH0 DUP4 ADD DUP7 PUSH2 0x63B JUMP JUMPDEST PUSH2 0xA0A PUSH1 0x20 DUP4 ADD DUP6 PUSH2 0x63B JUMP JUMPDEST PUSH2 0xA17 PUSH1 0x40 DUP4 ADD DUP5 PUSH2 0x58A JUMP JUMPDEST SWAP5 SWAP4 POP POP POP POP JUMP INVALID LOG2 PUSH5 0x6970667358 0x22 SLT KECCAK256 0xE7 SELFDESTRUCT 0xC1 PREVRANDAO TIMESTAMP 0xDD 0xD1 TSTORE 0x26 0xBF DUP10 JUMPI DUP6 BASEFEE INVALID 0xF6 0x2B 0x4D BLOBHASH DUP3 0xB8 0xD7 BYTE 0xDF PC 0x22 MLOAD DUP11 DUP14 0xA7 NOT POP PUSH5 0x736F6C6343 STOP ADDMOD BYTE STOP CALLER "
				},
				"gasEstimates": {
					"creation": {
						"codeDepositCost": "529000",
						"executionCost": "infinite",
						"totalCost": "infinite"
					},
					"external": {
						"campaigns(uint256)": "infinite",
						"count()": "2403",
						"pledge(uint256,uint256)": "infinite",
						"pledgedAmount(uint256,address)": "infinite",
						"token()": "infinite",
						"unpledge(uint256,uint256)": "infinite"
					}
				},
				"methodIdentifiers": {
					"campaigns(uint256)": "141961bc",
					"count()": "06661abd",
					"pledge(uint256,uint256)": "fde327be",
					"pledgedAmount(uint256,address)": "aa4fb63a",
					"token()": "fc0c546a",
					"unpledge(uint256,uint256)": "711853ab"
				}
			},
			"storageLayout": {
				"storage": [
					{
						"astId": 110,
						"contract": "demo/CrowdFund.sol:CrowdFund",
						"label": "campaigns",
						"offset": 0,
						"slot": "0",
						"type": "t_mapping(t_uint256,t_struct(Campaign)100_storage)"
					},
					{
						"astId": 113,
						"contract": "demo/CrowdFund.sol:CrowdFund",
						"label": "count",
						"offset": 0,
						"slot": "1",
						"type": "t_uint256"
					},
					{
						"astId": 120,
						"contract": "demo/CrowdFund.sol:CrowdFund",
						"label": "pledgedAmount",
						"offset": 0,
						"slot": "2",
						"type": "t_mapping(t_uint256,t_mapping(t_address,t_uint256))"
					}
				],
				"types": {
					"t_address": {
						"encoding": "inplace",
						"label": "address",
						"numberOfBytes": "20"
					},
					"t_bool": {
						"encoding": "inplace",
						"label": "bool",
						"numberOfBytes": "1"
					},
					"t_mapping(t_address,t_uint256)": {
						"encoding": "mapping",
						"key": "t_address",
						"label": "mapping(address => uint256)",
						"numberOfBytes": "32",
						"value": "t_uint256"
					},
					"t_mapping(t_uint256,t_mapping(t_address,t_uint256))": {
						"encoding": "mapping",
						"key": "t_uint256",
						"label": "mapping(uint256 => mapping(address => uint256))",
						"numberOfBytes": "32",
						"value": "t_mapping(t_address,t_uint256)"
					},
					"t_mapping(t_uint256,t_struct(Campaign)100_storage)": {
						"encoding": "mapping",
						"key": "t_uint256",
						"label": "mapping(uint256 => struct CrowdFund.Campaign)",
						"numberOfBytes": "32",
						"value": "t_struct(Campaign)100_storage"
					},
					"t_struct(Campaign)100_storage": {
						"encoding": "inplace",
						"label": "struct CrowdFund.Campaign",
						"members": [
							{
								"astId": 84,
								"contract": "demo/CrowdFund.sol:CrowdFund",
								"label": "creator",
								"offset": 0,
								"slot": "0",
								"type": "t_address"
							},
							{
								"astId": 87,
								"contract": "demo/CrowdFund.sol:CrowdFund",
								"label": "goal",
								"offset": 0,
								"slot": "1",
								"type": "t_uint256"
							},
							{
								"astId": 90,
								"contract": "demo/CrowdFund.sol:CrowdFund",
								"label": "startAt",
								"offset": 0,
								"slot": "2",
								"type": "t_uint32"
							},
							{
								"astId": 93,
								"contract": "demo/CrowdFund.sol:CrowdFund",
								"label": "endAt",
								"offset": 4,
								"slot": "2",
								"type": "t_uint32"
							},
							{
								"astId": 96,
								"contract": "demo/CrowdFund.sol:CrowdFund",
								"label": "claimed",
								"offset": 8,
								"slot": "2",
								"type": "t_bool"
							},
							{
								"astId": 99,
								"contract": "demo/CrowdFund.sol:CrowdFund",
								"label": "pledged",
								"offset": 0,
								"slot": "3",
								"type": "t_uint256"
							}
						],
						"numberOfBytes": "128"
					},
					"t_uint256": {
						"encoding": "inplace",
						"label": "uint256",
						"numberOfBytes": "32"
					},
					"t_uint32": {
						"encoding": "inplace",
						"label": "uint32",
						"numberOfBytes": "4"
					}
				}
			},
			"userdoc": {
				"kind": "user",
				"methods": {
					"campaigns(uint256)": {
						"notice": "存储众筹活动"
					},
					"constructor": {
						"notice": "构造函数"
					},
					"count()": {
						"notice": "众筹活动计数器"
					},
					"pledge(uint256,uint256)": {
						"notice": "⽤⼾参与众筹，出资代币"
					},
					"pledgedAmount(uint256,address)": {
						"notice": "⽤⼾在特定众筹活动中的出资记录"
					},
					"token()": {
						"notice": "众筹使⽤的ERC20代币"
					},
					"unpledge(uint256,uint256)": {
						"notice": "⽤⼾取消参与众筹，退还出资的代币"
					}
				},
				"notice": "掌握如何使⽤Solidity0.8开发众筹合约",
				"version": 1
			}
		}
	}
}