{
	"contracts/demo/Balances.sol": {
		"Token": {
			"abi": [
				{
					"anonymous": false,
					"inputs": [
						{
							"indexed": false,
							"internalType": "address",
							"name": "owner",
							"type": "address"
						},
						{
							"indexed": false,
							"internalType": "address",
							"name": "spender",
							"type": "address"
						},
						{
							"indexed": false,
							"internalType": "uint256",
							"name": "amount",
							"type": "uint256"
						}
					],
					"name": "Approval",
					"type": "event"
				},
				{
					"anonymous": false,
					"inputs": [
						{
							"indexed": false,
							"internalType": "address",
							"name": "from",
							"type": "address"
						},
						{
							"indexed": false,
							"internalType": "address",
							"name": "to",
							"type": "address"
						},
						{
							"indexed": false,
							"internalType": "uint256",
							"name": "amount",
							"type": "uint256"
						}
					],
					"name": "Transfer",
					"type": "event"
				},
				{
					"inputs": [
						{
							"internalType": "address",
							"name": "spender",
							"type": "address"
						},
						{
							"internalType": "uint256",
							"name": "tokens",
							"type": "uint256"
						}
					],
					"name": "approve",
					"outputs": [
						{
							"internalType": "bool",
							"name": "success",
							"type": "bool"
						}
					],
					"stateMutability": "nonpayable",
					"type": "function"
				},
				{
					"inputs": [
						{
							"internalType": "address",
							"name": "tokenOwner",
							"type": "address"
						}
					],
					"name": "balanceOf",
					"outputs": [
						{
							"internalType": "uint256",
							"name": "balance",
							"type": "uint256"
						}
					],
					"stateMutability": "view",
					"type": "function"
				},
				{
					"inputs": [
						{
							"internalType": "address",
							"name": "to",
							"type": "address"
						},
						{
							"internalType": "uint256",
							"name": "amount",
							"type": "uint256"
						}
					],
					"name": "transfer",
					"outputs": [
						{
							"internalType": "bool",
							"name": "success",
							"type": "bool"
						}
					],
					"stateMutability": "nonpayable",
					"type": "function"
				},
				{
					"inputs": [
						{
							"internalType": "address",
							"name": "from",
							"type": "address"
						},
						{
							"internalType": "address",
							"name": "to",
							"type": "address"
						},
						{
							"internalType": "uint256",
							"name": "amount",
							"type": "uint256"
						}
					],
					"name": "transferFrom",
					"outputs": [
						{
							"internalType": "bool",
							"name": "success",
							"type": "bool"
						}
					],
					"stateMutability": "nonpayable",
					"type": "function"
				}
			],
			"devdoc": {
				"kind": "dev",
				"methods": {},
				"version": 1
			},
			"evm": {
				"assembly": "    /* \"contracts/demo/Balances.sol\":388:1600  contract Token {\r... */\n  mstore(0x40, 0x80)\n  callvalue\n  dup1\n  iszero\n  tag_1\n  jumpi\n  0x00\n  dup1\n  revert\ntag_1:\n  pop\n  dataSize(sub_0)\n  dup1\n  dataOffset(sub_0)\n  0x00\n  codecopy\n  0x00\n  return\nstop\n\nsub_0: assembly {\n        /* \"contracts/demo/Balances.sol\":388:1600  contract Token {\r... */\n      mstore(0x40, 0x80)\n      callvalue\n      dup1\n      iszero\n      tag_1\n      jumpi\n      0x00\n      dup1\n      revert\n    tag_1:\n      pop\n      jumpi(tag_2, lt(calldatasize, 0x04))\n      shr(0xe0, calldataload(0x00))\n      dup1\n      0x095ea7b3\n      eq\n      tag_3\n      jumpi\n      dup1\n      0x23b872dd\n      eq\n      tag_4\n      jumpi\n      dup1\n      0x70a08231\n      eq\n      tag_5\n      jumpi\n      dup1\n      0xa9059cbb\n      eq\n      tag_6\n      jumpi\n    tag_2:\n      0x00\n      dup1\n      revert\n        /* \"contracts/demo/Balances.sol\":1200:1467  function approve(address spender, uint tokens) external returns (bool success) {\r... */\n    tag_3:\n      tag_7\n      tag_8\n      calldatasize\n      0x04\n      tag_9\n      jump\t// in\n    tag_8:\n      tag_10\n      jump\t// in\n    tag_7:\n      mload(0x40)\n      tag_11\n      swap2\n      swap1\n      tag_12\n      jump\t// in\n    tag_11:\n      mload(0x40)\n      dup1\n      swap2\n      sub\n      swap1\n      return\n        /* \"contracts/demo/Balances.sol\":884:1192  function transferFrom(address from, address to, uint amount) external returns (bool success) {\r... */\n    tag_4:\n      tag_7\n      tag_14\n      calldatasize\n      0x04\n      tag_15\n      jump\t// in\n    tag_14:\n      tag_16\n      jump\t// in\n        /* \"contracts/demo/Balances.sol\":1475:1597  function balanceOf(address tokenOwner) external view returns (uint balance) {\r... */\n    tag_5:\n      tag_18\n      tag_19\n      calldatasize\n      0x04\n      tag_20\n      jump\t// in\n    tag_19:\n      tag_21\n      jump\t// in\n    tag_18:\n      mload(0x40)\n      tag_11\n      swap2\n      swap1\n      tag_23\n      jump\t// in\n        /* \"contracts/demo/Balances.sol\":673:876  function transfer(address to, uint amount) external returns (bool success) {\r... */\n    tag_6:\n      tag_7\n      tag_25\n      calldatasize\n      0x04\n      tag_9\n      jump\t// in\n    tag_25:\n      tag_26\n      jump\t// in\n        /* \"contracts/demo/Balances.sol\":1200:1467  function approve(address spender, uint tokens) external returns (bool success) {\r... */\n    tag_10:\n        /* \"contracts/demo/Balances.sol\":1306:1316  msg.sender */\n      caller\n        /* \"contracts/demo/Balances.sol\":1265:1277  bool success */\n      0x00\n        /* \"contracts/demo/Balances.sol\":1298:1317  allowed[msg.sender] */\n      swap1\n      dup2\n      mstore\n        /* \"contracts/demo/Balances.sol\":1298:1305  allowed */\n      0x01\n        /* \"contracts/demo/Balances.sol\":1298:1317  allowed[msg.sender] */\n      0x20\n      swap1\n      dup2\n      mstore\n      0x40\n      dup1\n      dup4\n      keccak256\n      sub(shl(0xa0, 0x01), 0x01)\n        /* \"contracts/demo/Balances.sol\":1298:1326  allowed[msg.sender][spender] */\n      dup7\n      and\n      dup5\n      mstore\n      swap1\n      swap2\n      mstore\n      dup2\n      keccak256\n      sload\n        /* \"contracts/demo/Balances.sol\":1298:1331  allowed[msg.sender][spender] == 0 */\n      iszero\n        /* \"contracts/demo/Balances.sol\":1290:1336  require(allowed[msg.sender][spender] == 0, \"\") */\n      tag_29\n      jumpi\n      mload(0x40)\n      shl(0xe5, 0x461bcd)\n      dup2\n      mstore\n      0x04\n      add\n      tag_30\n      swap1\n      tag_31\n      jump\t// in\n    tag_30:\n      mload(0x40)\n      dup1\n      swap2\n      sub\n      swap1\n      revert\n    tag_29:\n        /* \"contracts/demo/Balances.sol\":1355:1365  msg.sender */\n      caller\n        /* \"contracts/demo/Balances.sol\":1347:1366  allowed[msg.sender] */\n      0x00\n      dup2\n      dup2\n      mstore\n        /* \"contracts/demo/Balances.sol\":1347:1354  allowed */\n      0x01\n        /* \"contracts/demo/Balances.sol\":1347:1366  allowed[msg.sender] */\n      0x20\n      swap1\n      dup2\n      mstore\n      0x40\n      dup1\n      dup4\n      keccak256\n      sub(shl(0xa0, 0x01), 0x01)\n        /* \"contracts/demo/Balances.sol\":1347:1375  allowed[msg.sender][spender] */\n      dup9\n      and\n      dup5\n      mstore\n      swap1\n      swap2\n      mstore\n      swap1\n      dup2\n      swap1\n      keccak256\n        /* \"contracts/demo/Balances.sol\":1347:1384  allowed[msg.sender][spender] = tokens */\n      dup5\n      swap1\n      sstore\n        /* \"contracts/demo/Balances.sol\":1400:1437  Approval(msg.sender, spender, tokens) */\n      mload\n      0x8c5be1e5ebec7d5bd14f71427d1e84f3dd0314c0f7b2291e5b200ac8c7c3b925\n      swap2\n      tag_32\n      swap2\n        /* \"contracts/demo/Balances.sol\":1367:1374  spender */\n      dup7\n      swap1\n        /* \"contracts/demo/Balances.sol\":1378:1384  tokens */\n      dup7\n      swap1\n        /* \"contracts/demo/Balances.sol\":1400:1437  Approval(msg.sender, spender, tokens) */\n      tag_33\n      jump\t// in\n    tag_32:\n      mload(0x40)\n      dup1\n      swap2\n      sub\n      swap1\n      log1\n      pop\n        /* \"contracts/demo/Balances.sol\":1455:1459  true */\n      0x01\n        /* \"contracts/demo/Balances.sol\":1200:1467  function approve(address spender, uint tokens) external returns (bool success) {\r... */\n      swap3\n      swap2\n      pop\n      pop\n      jump\t// out\n        /* \"contracts/demo/Balances.sol\":884:1192  function transferFrom(address from, address to, uint amount) external returns (bool success) {\r... */\n    tag_16:\n      sub(shl(0xa0, 0x01), 0x01)\n        /* \"contracts/demo/Balances.sol\":996:1009  allowed[from] */\n      dup4\n      and\n        /* \"contracts/demo/Balances.sol\":963:975  bool success */\n      0x00\n        /* \"contracts/demo/Balances.sol\":996:1009  allowed[from] */\n      swap1\n      dup2\n      mstore\n        /* \"contracts/demo/Balances.sol\":996:1003  allowed */\n      0x01\n        /* \"contracts/demo/Balances.sol\":996:1009  allowed[from] */\n      0x20\n      swap1\n      dup2\n      mstore\n      0x40\n      dup1\n      dup4\n      keccak256\n        /* \"contracts/demo/Balances.sol\":1010:1020  msg.sender */\n      caller\n        /* \"contracts/demo/Balances.sol\":996:1021  allowed[from][msg.sender] */\n      dup5\n      mstore\n      swap1\n      swap2\n      mstore\n      dup2\n      keccak256\n      sload\n        /* \"contracts/demo/Balances.sol\":996:1031  allowed[from][msg.sender] >= amount */\n      dup3\n      gt\n      iszero\n        /* \"contracts/demo/Balances.sol\":988:1032  require(allowed[from][msg.sender] >= amount) */\n      tag_35\n      jumpi\n      0x00\n      dup1\n      revert\n    tag_35:\n      sub(shl(0xa0, 0x01), 0x01)\n        /* \"contracts/demo/Balances.sol\":1043:1056  allowed[from] */\n      dup5\n      and\n      0x00\n      swap1\n      dup2\n      mstore\n        /* \"contracts/demo/Balances.sol\":1043:1050  allowed */\n      0x01\n        /* \"contracts/demo/Balances.sol\":1043:1056  allowed[from] */\n      0x20\n      swap1\n      dup2\n      mstore\n      0x40\n      dup1\n      dup4\n      keccak256\n        /* \"contracts/demo/Balances.sol\":1057:1067  msg.sender */\n      caller\n        /* \"contracts/demo/Balances.sol\":1043:1068  allowed[from][msg.sender] */\n      dup5\n      mstore\n      swap1\n      swap2\n      mstore\n      dup2\n      keccak256\n        /* \"contracts/demo/Balances.sol\":1043:1078  allowed[from][msg.sender] -= amount */\n      dup1\n      sload\n        /* \"contracts/demo/Balances.sol\":1072:1078  amount */\n      dup5\n      swap3\n        /* \"contracts/demo/Balances.sol\":1043:1056  allowed[from] */\n      swap1\n        /* \"contracts/demo/Balances.sol\":1043:1078  allowed[from][msg.sender] -= amount */\n      tag_36\n      swap1\n        /* \"contracts/demo/Balances.sol\":1072:1078  amount */\n      dup5\n      swap1\n        /* \"contracts/demo/Balances.sol\":1043:1078  allowed[from][msg.sender] -= amount */\n      tag_37\n      jump\t// in\n    tag_36:\n      swap1\n      swap2\n      sstore\n      pop\n        /* \"contracts/demo/Balances.sol\":1089:1120  balances.move(from, to, amount) */\n      tag_38\n      swap1\n      pop\n        /* \"contracts/demo/Balances.sol\":1089:1097  balances */\n      0x00\n        /* \"contracts/demo/Balances.sol\":1103:1107  from */\n      dup6\n        /* \"contracts/demo/Balances.sol\":1109:1111  to */\n      dup6\n        /* \"contracts/demo/Balances.sol\":1113:1119  amount */\n      dup6\n        /* \"contracts/demo/Balances.sol\":1089:1102  balances.move */\n      tag_39\n        /* \"contracts/demo/Balances.sol\":1089:1120  balances.move(from, to, amount) */\n      jump\t// in\n    tag_38:\n        /* \"contracts/demo/Balances.sol\":1136:1162  Transfer(from, to, amount) */\n      0xddf252ad1be2c89b69c2b068fc378daa952ba7f163c4a11628f55a4df523b3ef\n        /* \"contracts/demo/Balances.sol\":1145:1149  from */\n      dup5\n        /* \"contracts/demo/Balances.sol\":1151:1153  to */\n      dup5\n        /* \"contracts/demo/Balances.sol\":1155:1161  amount */\n      dup5\n        /* \"contracts/demo/Balances.sol\":1136:1162  Transfer(from, to, amount) */\n      mload(0x40)\n      tag_40\n      swap4\n      swap3\n      swap2\n      swap1\n      tag_33\n      jump\t// in\n    tag_40:\n      mload(0x40)\n      dup1\n      swap2\n      sub\n      swap1\n      log1\n      pop\n        /* \"contracts/demo/Balances.sol\":1180:1184  true */\n      0x01\n        /* \"contracts/demo/Balances.sol\":884:1192  function transferFrom(address from, address to, uint amount) external returns (bool success) {\r... */\n      swap4\n      swap3\n      pop\n      pop\n      pop\n      jump\t// out\n        /* \"contracts/demo/Balances.sol\":1475:1597  function balanceOf(address tokenOwner) external view returns (uint balance) {\r... */\n    tag_21:\n      sub(shl(0xa0, 0x01), 0x01)\n        /* \"contracts/demo/Balances.sol\":1569:1589  balances[tokenOwner] */\n      dup2\n      and\n        /* \"contracts/demo/Balances.sol\":1537:1549  uint balance */\n      0x00\n        /* \"contracts/demo/Balances.sol\":1569:1589  balances[tokenOwner] */\n      swap1\n      dup2\n      mstore\n      0x20\n      dup2\n      swap1\n      mstore\n      0x40\n      swap1\n      keccak256\n      sload\n        /* \"contracts/demo/Balances.sol\":1475:1597  function balanceOf(address tokenOwner) external view returns (uint balance) {\r... */\n    tag_41:\n      swap2\n      swap1\n      pop\n      jump\t// out\n        /* \"contracts/demo/Balances.sol\":673:876  function transfer(address to, uint amount) external returns (bool success) {\r... */\n    tag_26:\n        /* \"contracts/demo/Balances.sol\":734:746  bool success */\n      0x00\n        /* \"contracts/demo/Balances.sol\":759:796  balances.move(msg.sender, to, amount) */\n      tag_43\n        /* \"contracts/demo/Balances.sol\":734:746  bool success */\n      dup2\n        /* \"contracts/demo/Balances.sol\":773:783  msg.sender */\n      caller\n        /* \"contracts/demo/Balances.sol\":785:787  to */\n      dup6\n        /* \"contracts/demo/Balances.sol\":789:795  amount */\n      dup6\n        /* \"contracts/demo/Balances.sol\":759:772  balances.move */\n      tag_39\n        /* \"contracts/demo/Balances.sol\":759:796  balances.move(msg.sender, to, amount) */\n      jump\t// in\n    tag_43:\n        /* \"contracts/demo/Balances.sol\":812:844  Transfer(msg.sender, to, amount) */\n      0xddf252ad1be2c89b69c2b068fc378daa952ba7f163c4a11628f55a4df523b3ef\n        /* \"contracts/demo/Balances.sol\":821:831  msg.sender */\n      caller\n        /* \"contracts/demo/Balances.sol\":833:835  to */\n      dup5\n        /* \"contracts/demo/Balances.sol\":837:843  amount */\n      dup5\n        /* \"contracts/demo/Balances.sol\":812:844  Transfer(msg.sender, to, amount) */\n      mload(0x40)\n      tag_32\n      swap4\n      swap3\n      swap2\n      swap1\n      tag_33\n      jump\t// in\n        /* \"contracts/demo/Balances.sol\":96:381  function move(mapping(address => uint256) storage balances, address from, address to, uint amount) internal {\r... */\n    tag_39:\n      sub(shl(0xa0, 0x01), 0x01)\n        /* \"contracts/demo/Balances.sol\":223:237  balances[from] */\n      dup4\n      and\n      0x00\n      swap1\n      dup2\n      mstore\n      0x20\n      dup6\n      swap1\n      mstore\n      0x40\n      swap1\n      keccak256\n      sload\n        /* \"contracts/demo/Balances.sol\":223:247  balances[from] >= amount */\n      dup2\n      gt\n      iszero\n        /* \"contracts/demo/Balances.sol\":215:248  require(balances[from] >= amount) */\n      tag_46\n      jumpi\n      0x00\n      dup1\n      revert\n    tag_46:\n      sub(shl(0xa0, 0x01), 0x01)\n        /* \"contracts/demo/Balances.sol\":292:304  balances[to] */\n      dup3\n      and\n      0x00\n      swap1\n      dup2\n      mstore\n      0x20\n      dup6\n      swap1\n      mstore\n      0x40\n      swap1\n      keccak256\n      sload\n        /* \"contracts/demo/Balances.sol\":267:288  balances[to] + amount */\n      tag_47\n        /* \"contracts/demo/Balances.sol\":282:288  amount */\n      dup3\n        /* \"contracts/demo/Balances.sol\":292:304  balances[to] */\n      dup3\n        /* \"contracts/demo/Balances.sol\":267:288  balances[to] + amount */\n      tag_48\n      jump\t// in\n    tag_47:\n        /* \"contracts/demo/Balances.sol\":267:304  balances[to] + amount >= balances[to] */\n      lt\n      iszero\n        /* \"contracts/demo/Balances.sol\":259:305  require(balances[to] + amount >= balances[to]) */\n      tag_49\n      jumpi\n      0x00\n      dup1\n      revert\n    tag_49:\n      sub(shl(0xa0, 0x01), 0x01)\n        /* \"contracts/demo/Balances.sol\":316:330  balances[from] */\n      dup4\n      and\n      0x00\n      swap1\n      dup2\n      mstore\n      0x20\n      dup6\n      swap1\n      mstore\n      0x40\n      dup2\n      keccak256\n        /* \"contracts/demo/Balances.sol\":316:340  balances[from] -= amount */\n      dup1\n      sload\n        /* \"contracts/demo/Balances.sol\":334:340  amount */\n      dup4\n      swap3\n        /* \"contracts/demo/Balances.sol\":316:330  balances[from] */\n      swap1\n        /* \"contracts/demo/Balances.sol\":316:340  balances[from] -= amount */\n      tag_50\n      swap1\n        /* \"contracts/demo/Balances.sol\":334:340  amount */\n      dup5\n      swap1\n        /* \"contracts/demo/Balances.sol\":316:340  balances[from] -= amount */\n      tag_37\n      jump\t// in\n    tag_50:\n      swap1\n      swap2\n      sstore\n      pop\n      pop\n      sub(shl(0xa0, 0x01), 0x01)\n        /* \"contracts/demo/Balances.sol\":351:363  balances[to] */\n      dup3\n      and\n      0x00\n      swap1\n      dup2\n      mstore\n      0x20\n      dup6\n      swap1\n      mstore\n      0x40\n      dup2\n      keccak256\n        /* \"contracts/demo/Balances.sol\":351:373  balances[to] += amount */\n      dup1\n      sload\n        /* \"contracts/demo/Balances.sol\":367:373  amount */\n      dup4\n      swap3\n        /* \"contracts/demo/Balances.sol\":351:363  balances[to] */\n      swap1\n        /* \"contracts/demo/Balances.sol\":351:373  balances[to] += amount */\n      tag_51\n      swap1\n        /* \"contracts/demo/Balances.sol\":367:373  amount */\n      dup5\n      swap1\n        /* \"contracts/demo/Balances.sol\":351:373  balances[to] += amount */\n      tag_48\n      jump\t// in\n    tag_51:\n      swap1\n      swap2\n      sstore\n      pop\n      pop\n      pop\n      pop\n      pop\n      pop\n        /* \"contracts/demo/Balances.sol\":96:381  function move(mapping(address => uint256) storage balances, address from, address to, uint amount) internal {\r... */\n      jump\t// out\n        /* \"#utility.yul\":14:189   */\n    tag_53:\n        /* \"#utility.yul\":84:104   */\n      dup1\n      calldataload\n      sub(shl(0xa0, 0x01), 0x01)\n        /* \"#utility.yul\":133:164   */\n      dup2\n      and\n        /* \"#utility.yul\":123:165   */\n      dup2\n      eq\n        /* \"#utility.yul\":113:115   */\n      tag_41\n      jumpi\n        /* \"#utility.yul\":179:180   */\n      0x00\n        /* \"#utility.yul\":176:177   */\n      dup1\n        /* \"#utility.yul\":169:181   */\n      revert\n        /* \"#utility.yul\":194:392   */\n    tag_20:\n      0x00\n        /* \"#utility.yul\":306:308   */\n      0x20\n        /* \"#utility.yul\":294:303   */\n      dup3\n        /* \"#utility.yul\":285:292   */\n      dup5\n        /* \"#utility.yul\":281:304   */\n      sub\n        /* \"#utility.yul\":277:309   */\n      slt\n        /* \"#utility.yul\":274:276   */\n      iszero\n      tag_57\n      jumpi\n        /* \"#utility.yul\":327:333   */\n      dup1\n        /* \"#utility.yul\":319:325   */\n      dup2\n        /* \"#utility.yul\":312:334   */\n      revert\n        /* \"#utility.yul\":274:276   */\n    tag_57:\n        /* \"#utility.yul\":355:386   */\n      tag_58\n        /* \"#utility.yul\":376:385   */\n      dup3\n        /* \"#utility.yul\":355:386   */\n      tag_53\n      jump\t// in\n    tag_58:\n        /* \"#utility.yul\":345:386   */\n      swap4\n        /* \"#utility.yul\":264:392   */\n      swap3\n      pop\n      pop\n      pop\n      jump\t// out\n        /* \"#utility.yul\":397:739   */\n    tag_15:\n      0x00\n      dup1\n      0x00\n        /* \"#utility.yul\":543:545   */\n      0x60\n        /* \"#utility.yul\":531:540   */\n      dup5\n        /* \"#utility.yul\":522:529   */\n      dup7\n        /* \"#utility.yul\":518:541   */\n      sub\n        /* \"#utility.yul\":514:546   */\n      slt\n        /* \"#utility.yul\":511:513   */\n      iszero\n      tag_60\n      jumpi\n        /* \"#utility.yul\":564:570   */\n      dup2\n        /* \"#utility.yul\":556:562   */\n      dup3\n        /* \"#utility.yul\":549:571   */\n      revert\n        /* \"#utility.yul\":511:513   */\n    tag_60:\n        /* \"#utility.yul\":592:623   */\n      tag_61\n        /* \"#utility.yul\":613:622   */\n      dup5\n        /* \"#utility.yul\":592:623   */\n      tag_53\n      jump\t// in\n    tag_61:\n        /* \"#utility.yul\":582:623   */\n      swap3\n      pop\n        /* \"#utility.yul\":642:682   */\n      tag_62\n        /* \"#utility.yul\":678:680   */\n      0x20\n        /* \"#utility.yul\":667:676   */\n      dup6\n        /* \"#utility.yul\":663:681   */\n      add\n        /* \"#utility.yul\":642:682   */\n      tag_53\n      jump\t// in\n    tag_62:\n        /* \"#utility.yul\":632:682   */\n      swap2\n      pop\n        /* \"#utility.yul\":729:731   */\n      0x40\n        /* \"#utility.yul\":718:727   */\n      dup5\n        /* \"#utility.yul\":714:732   */\n      add\n        /* \"#utility.yul\":701:733   */\n      calldataload\n        /* \"#utility.yul\":691:733   */\n      swap1\n      pop\n        /* \"#utility.yul\":501:739   */\n      swap3\n      pop\n      swap3\n      pop\n      swap3\n      jump\t// out\n        /* \"#utility.yul\":744:1010   */\n    tag_9:\n      0x00\n      dup1\n        /* \"#utility.yul\":873:875   */\n      0x40\n        /* \"#utility.yul\":861:870   */\n      dup4\n        /* \"#utility.yul\":852:859   */\n      dup6\n        /* \"#utility.yul\":848:871   */\n      sub\n        /* \"#utility.yul\":844:876   */\n      slt\n        /* \"#utility.yul\":841:843   */\n      iszero\n      tag_64\n      jumpi\n        /* \"#utility.yul\":894:900   */\n      dup2\n        /* \"#utility.yul\":886:892   */\n      dup3\n        /* \"#utility.yul\":879:901   */\n      revert\n        /* \"#utility.yul\":841:843   */\n    tag_64:\n        /* \"#utility.yul\":922:953   */\n      tag_65\n        /* \"#utility.yul\":943:952   */\n      dup4\n        /* \"#utility.yul\":922:953   */\n      tag_53\n      jump\t// in\n    tag_65:\n        /* \"#utility.yul\":912:953   */\n      swap5\n        /* \"#utility.yul\":1000:1002   */\n      0x20\n        /* \"#utility.yul\":985:1003   */\n      swap4\n      swap1\n      swap4\n      add\n        /* \"#utility.yul\":972:1004   */\n      calldataload\n      swap4\n      pop\n      pop\n      pop\n        /* \"#utility.yul\":831:1010   */\n      jump\t// out\n        /* \"#utility.yul\":1015:1390   */\n    tag_33:\n      sub(shl(0xa0, 0x01), 0x01)\n        /* \"#utility.yul\":1273:1288   */\n      swap4\n      dup5\n      and\n        /* \"#utility.yul\":1255:1289   */\n      dup2\n      mstore\n        /* \"#utility.yul\":1325:1340   */\n      swap2\n      swap1\n      swap3\n      and\n        /* \"#utility.yul\":1320:1322   */\n      0x20\n        /* \"#utility.yul\":1305:1323   */\n      dup3\n      add\n        /* \"#utility.yul\":1298:1341   */\n      mstore\n        /* \"#utility.yul\":1372:1374   */\n      0x40\n        /* \"#utility.yul\":1357:1375   */\n      dup2\n      add\n        /* \"#utility.yul\":1350:1384   */\n      swap2\n      swap1\n      swap2\n      mstore\n        /* \"#utility.yul\":1205:1207   */\n      0x60\n        /* \"#utility.yul\":1190:1208   */\n      add\n      swap1\n        /* \"#utility.yul\":1172:1390   */\n      jump\t// out\n        /* \"#utility.yul\":1395:1582   */\n    tag_12:\n        /* \"#utility.yul\":1560:1574   */\n      swap1\n      iszero\n        /* \"#utility.yul\":1553:1575   */\n      iszero\n        /* \"#utility.yul\":1535:1576   */\n      dup2\n      mstore\n        /* \"#utility.yul\":1523:1525   */\n      0x20\n        /* \"#utility.yul\":1508:1526   */\n      add\n      swap1\n        /* \"#utility.yul\":1490:1582   */\n      jump\t// out\n        /* \"#utility.yul\":1587:1874   */\n    tag_31:\n        /* \"#utility.yul\":1789:1791   */\n      0x20\n        /* \"#utility.yul\":1771:1792   */\n      dup1\n      dup3\n      mstore\n        /* \"#utility.yul\":1587:1874   */\n      0x00\n        /* \"#utility.yul\":1808:1826   */\n      swap1\n      dup3\n      add\n        /* \"#utility.yul\":1801:1833   */\n      mstore\n        /* \"#utility.yul\":1865:1867   */\n      0x40\n        /* \"#utility.yul\":1850:1868   */\n      add\n      swap1\n        /* \"#utility.yul\":1761:1874   */\n      jump\t// out\n        /* \"#utility.yul\":1879:2056   */\n    tag_23:\n        /* \"#utility.yul\":2025:2050   */\n      swap1\n      dup2\n      mstore\n        /* \"#utility.yul\":2013:2015   */\n      0x20\n        /* \"#utility.yul\":1998:2016   */\n      add\n      swap1\n        /* \"#utility.yul\":1980:2056   */\n      jump\t// out\n        /* \"#utility.yul\":2061:2189   */\n    tag_48:\n      0x00\n        /* \"#utility.yul\":2132:2133   */\n      dup3\n        /* \"#utility.yul\":2128:2134   */\n      not\n        /* \"#utility.yul\":2125:2126   */\n      dup3\n        /* \"#utility.yul\":2122:2135   */\n      gt\n        /* \"#utility.yul\":2119:2121   */\n      iszero\n      tag_72\n      jumpi\n        /* \"#utility.yul\":2138:2156   */\n      tag_72\n      tag_73\n      jump\t// in\n    tag_72:\n      pop\n        /* \"#utility.yul\":2174:2183   */\n      add\n      swap1\n        /* \"#utility.yul\":2109:2189   */\n      jump\t// out\n        /* \"#utility.yul\":2194:2319   */\n    tag_37:\n      0x00\n        /* \"#utility.yul\":2262:2263   */\n      dup3\n        /* \"#utility.yul\":2259:2260   */\n      dup3\n        /* \"#utility.yul\":2256:2264   */\n      lt\n        /* \"#utility.yul\":2253:2255   */\n      iszero\n      tag_76\n      jumpi\n        /* \"#utility.yul\":2267:2285   */\n      tag_76\n      tag_73\n      jump\t// in\n    tag_76:\n      pop\n        /* \"#utility.yul\":2304:2313   */\n      sub\n      swap1\n        /* \"#utility.yul\":2243:2319   */\n      jump\t// out\n        /* \"#utility.yul\":2324:2451   */\n    tag_73:\n        /* \"#utility.yul\":2385:2395   */\n      0x4e487b71\n        /* \"#utility.yul\":2380:2383   */\n      0xe0\n        /* \"#utility.yul\":2376:2396   */\n      shl\n        /* \"#utility.yul\":2373:2374   */\n      0x00\n        /* \"#utility.yul\":2366:2397   */\n      mstore\n        /* \"#utility.yul\":2416:2420   */\n      0x11\n        /* \"#utility.yul\":2413:2414   */\n      0x04\n        /* \"#utility.yul\":2406:2421   */\n      mstore\n        /* \"#utility.yul\":2440:2444   */\n      0x24\n        /* \"#utility.yul\":2437:2438   */\n      0x00\n        /* \"#utility.yul\":2430:2445   */\n      revert\n\n    auxdata: 0xa264697066735822122014fd9519376807cbc7bffb6c5ca2f1c014f0e3c7bf619a7c6cc90854311d93e664736f6c63430008000033\n}\n",
				"bytecode": {
					"linkReferences": {},
					"object": "608060405234801561001057600080fd5b506104a1806100206000396000f3fe608060405234801561001057600080fd5b506004361061004c5760003560e01c8063095ea7b31461005157806323b872dd1461007a57806370a082311461008d578063a9059cbb146100ad575b600080fd5b61006461005f3660046103b4565b6100c0565b6040516100719190610401565b60405180910390f35b610064610088366004610379565b610173565b6100a061009b366004610358565b61022e565b604051610071919061041d565b6100646100bb3660046103b4565b61024d565b3360009081526001602090815260408083206001600160a01b03861684529091528120541561010a5760405162461bcd60e51b81526004016101019061040c565b60405180910390fd5b3360008181526001602090815260408083206001600160a01b038816845290915290819020849055517f8c5be1e5ebec7d5bd14f71427d1e84f3dd0314c0f7b2291e5b200ac8c7c3b9259161016291869086906103dd565b60405180910390a150600192915050565b6001600160a01b03831660009081526001602090815260408083203384529091528120548211156101a357600080fd5b6001600160a01b0384166000908152600160209081526040808320338452909152812080548492906101d690849061043e565b909155506101e99050600085858561028e565b7fddf252ad1be2c89b69c2b068fc378daa952ba7f163c4a11628f55a4df523b3ef84848460405161021c939291906103dd565b60405180910390a15060019392505050565b6001600160a01b0381166000908152602081905260409020545b919050565b600061025b8133858561028e565b7fddf252ad1be2c89b69c2b068fc378daa952ba7f163c4a11628f55a4df523b3ef338484604051610162939291906103dd565b6001600160a01b0383166000908152602085905260409020548111156102b357600080fd5b6001600160a01b0382166000908152602085905260409020546102d68282610426565b10156102e157600080fd5b6001600160a01b0383166000908152602085905260408120805483929061030990849061043e565b90915550506001600160a01b03821660009081526020859052604081208054839290610336908490610426565b909155505050505050565b80356001600160a01b038116811461024857600080fd5b600060208284031215610369578081fd5b61037282610341565b9392505050565b60008060006060848603121561038d578182fd5b61039684610341565b92506103a460208501610341565b9150604084013590509250925092565b600080604083850312156103c6578182fd5b6103cf83610341565b946020939093013593505050565b6001600160a01b039384168152919092166020820152604081019190915260600190565b901515815260200190565b602080825260009082015260400190565b90815260200190565b6000821982111561043957610439610455565b500190565b60008282101561045057610450610455565b500390565b634e487b7160e01b600052601160045260246000fdfea264697066735822122014fd9519376807cbc7bffb6c5ca2f1c014f0e3c7bf619a7c6cc90854311d93e664736f6c63430008000033",
					"opcodes": "PUSH1 0x80 PUSH1 0x40 MSTORE CALLVALUE DUP1 ISZERO PUSH2 0x10 JUMPI PUSH1 0x0 DUP1 REVERT JUMPDEST POP PUSH2 0x4A1 DUP1 PUSH2 0x20 PUSH1 0x0 CODECOPY PUSH1 0x0 RETURN INVALID PUSH1 0x80 PUSH1 0x40 MSTORE CALLVALUE DUP1 ISZERO PUSH2 0x10 JUMPI PUSH1 0x0 DUP1 REVERT JUMPDEST POP PUSH1 0x4 CALLDATASIZE LT PUSH2 0x4C JUMPI PUSH1 0x0 CALLDATALOAD PUSH1 0xE0 SHR DUP1 PUSH4 0x95EA7B3 EQ PUSH2 0x51 JUMPI DUP1 PUSH4 0x23B872DD EQ PUSH2 0x7A JUMPI DUP1 PUSH4 0x70A08231 EQ PUSH2 0x8D JUMPI DUP1 PUSH4 0xA9059CBB EQ PUSH2 0xAD JUMPI JUMPDEST PUSH1 0x0 DUP1 REVERT JUMPDEST PUSH2 0x64 PUSH2 0x5F CALLDATASIZE PUSH1 0x4 PUSH2 0x3B4 JUMP JUMPDEST PUSH2 0xC0 JUMP JUMPDEST PUSH1 0x40 MLOAD PUSH2 0x71 SWAP2 SWAP1 PUSH2 0x401 JUMP JUMPDEST PUSH1 0x40 MLOAD DUP1 SWAP2 SUB SWAP1 RETURN JUMPDEST PUSH2 0x64 PUSH2 0x88 CALLDATASIZE PUSH1 0x4 PUSH2 0x379 JUMP JUMPDEST PUSH2 0x173 JUMP JUMPDEST PUSH2 0xA0 PUSH2 0x9B CALLDATASIZE PUSH1 0x4 PUSH2 0x358 JUMP JUMPDEST PUSH2 0x22E JUMP JUMPDEST PUSH1 0x40 MLOAD PUSH2 0x71 SWAP2 SWAP1 PUSH2 0x41D JUMP JUMPDEST PUSH2 0x64 PUSH2 0xBB CALLDATASIZE PUSH1 0x4 PUSH2 0x3B4 JUMP JUMPDEST PUSH2 0x24D JUMP JUMPDEST CALLER PUSH1 0x0 SWAP1 DUP2 MSTORE PUSH1 0x1 PUSH1 0x20 SWAP1 DUP2 MSTORE PUSH1 0x40 DUP1 DUP4 KECCAK256 PUSH1 0x1 PUSH1 0x1 PUSH1 0xA0 SHL SUB DUP7 AND DUP5 MSTORE SWAP1 SWAP2 MSTORE DUP2 KECCAK256 SLOAD ISZERO PUSH2 0x10A JUMPI PUSH1 0x40 MLOAD PUSH3 0x461BCD PUSH1 0xE5 SHL DUP2 MSTORE PUSH1 0x4 ADD PUSH2 0x101 SWAP1 PUSH2 0x40C JUMP JUMPDEST PUSH1 0x40 MLOAD DUP1 SWAP2 SUB SWAP1 REVERT JUMPDEST CALLER PUSH1 0x0 DUP2 DUP2 MSTORE PUSH1 0x1 PUSH1 0x20 SWAP1 DUP2 MSTORE PUSH1 0x40 DUP1 DUP4 KECCAK256 PUSH1 0x1 PUSH1 0x1 PUSH1 0xA0 SHL SUB DUP9 AND DUP5 MSTORE SWAP1 SWAP2 MSTORE SWAP1 DUP2 SWAP1 KECCAK256 DUP5 SWAP1 SSTORE MLOAD PUSH32 0x8C5BE1E5EBEC7D5BD14F71427D1E84F3DD0314C0F7B2291E5B200AC8C7C3B925 SWAP2 PUSH2 0x162 SWAP2 DUP7 SWAP1 DUP7 SWAP1 PUSH2 0x3DD JUMP JUMPDEST PUSH1 0x40 MLOAD DUP1 SWAP2 SUB SWAP1 LOG1 POP PUSH1 0x1 SWAP3 SWAP2 POP POP JUMP JUMPDEST PUSH1 0x1 PUSH1 0x1 PUSH1 0xA0 SHL SUB DUP4 AND PUSH1 0x0 SWAP1 DUP2 MSTORE PUSH1 0x1 PUSH1 0x20 SWAP1 DUP2 MSTORE PUSH1 0x40 DUP1 DUP4 KECCAK256 CALLER DUP5 MSTORE SWAP1 SWAP2 MSTORE DUP2 KECCAK256 SLOAD DUP3 GT ISZERO PUSH2 0x1A3 JUMPI PUSH1 0x0 DUP1 REVERT JUMPDEST PUSH1 0x1 PUSH1 0x1 PUSH1 0xA0 SHL SUB DUP5 AND PUSH1 0x0 SWAP1 DUP2 MSTORE PUSH1 0x1 PUSH1 0x20 SWAP1 DUP2 MSTORE PUSH1 0x40 DUP1 DUP4 KECCAK256 CALLER DUP5 MSTORE SWAP1 SWAP2 MSTORE DUP2 KECCAK256 DUP1 SLOAD DUP5 SWAP3 SWAP1 PUSH2 0x1D6 SWAP1 DUP5 SWAP1 PUSH2 0x43E JUMP JUMPDEST SWAP1 SWAP2 SSTORE POP PUSH2 0x1E9 SWAP1 POP PUSH1 0x0 DUP6 DUP6 DUP6 PUSH2 0x28E JUMP JUMPDEST PUSH32 0xDDF252AD1BE2C89B69C2B068FC378DAA952BA7F163C4A11628F55A4DF523B3EF DUP5 DUP5 DUP5 PUSH1 0x40 MLOAD PUSH2 0x21C SWAP4 SWAP3 SWAP2 SWAP1 PUSH2 0x3DD JUMP JUMPDEST PUSH1 0x40 MLOAD DUP1 SWAP2 SUB SWAP1 LOG1 POP PUSH1 0x1 SWAP4 SWAP3 POP POP POP JUMP JUMPDEST PUSH1 0x1 PUSH1 0x1 PUSH1 0xA0 SHL SUB DUP2 AND PUSH1 0x0 SWAP1 DUP2 MSTORE PUSH1 0x20 DUP2 SWAP1 MSTORE PUSH1 0x40 SWAP1 KECCAK256 SLOAD JUMPDEST SWAP2 SWAP1 POP JUMP JUMPDEST PUSH1 0x0 PUSH2 0x25B DUP2 CALLER DUP6 DUP6 PUSH2 0x28E JUMP JUMPDEST PUSH32 0xDDF252AD1BE2C89B69C2B068FC378DAA952BA7F163C4A11628F55A4DF523B3EF CALLER DUP5 DUP5 PUSH1 0x40 MLOAD PUSH2 0x162 SWAP4 SWAP3 SWAP2 SWAP1 PUSH2 0x3DD JUMP JUMPDEST PUSH1 0x1 PUSH1 0x1 PUSH1 0xA0 SHL SUB DUP4 AND PUSH1 0x0 SWAP1 DUP2 MSTORE PUSH1 0x20 DUP6 SWAP1 MSTORE PUSH1 0x40 SWAP1 KECCAK256 SLOAD DUP2 GT ISZERO PUSH2 0x2B3 JUMPI PUSH1 0x0 DUP1 REVERT JUMPDEST PUSH1 0x1 PUSH1 0x1 PUSH1 0xA0 SHL SUB DUP3 AND PUSH1 0x0 SWAP1 DUP2 MSTORE PUSH1 0x20 DUP6 SWAP1 MSTORE PUSH1 0x40 SWAP1 KECCAK256 SLOAD PUSH2 0x2D6 DUP3 DUP3 PUSH2 0x426 JUMP JUMPDEST LT ISZERO PUSH2 0x2E1 JUMPI PUSH1 0x0 DUP1 REVERT JUMPDEST PUSH1 0x1 PUSH1 0x1 PUSH1 0xA0 SHL SUB DUP4 AND PUSH1 0x0 SWAP1 DUP2 MSTORE PUSH1 0x20 DUP6 SWAP1 MSTORE PUSH1 0x40 DUP2 KECCAK256 DUP1 SLOAD DUP4 SWAP3 SWAP1 PUSH2 0x309 SWAP1 DUP5 SWAP1 PUSH2 0x43E JUMP JUMPDEST SWAP1 SWAP2 SSTORE POP POP PUSH1 0x1 PUSH1 0x1 PUSH1 0xA0 SHL SUB DUP3 AND PUSH1 0x0 SWAP1 DUP2 MSTORE PUSH1 0x20 DUP6 SWAP1 MSTORE PUSH1 0x40 DUP2 KECCAK256 DUP1 SLOAD DUP4 SWAP3 SWAP1 PUSH2 0x336 SWAP1 DUP5 SWAP1 PUSH2 0x426 JUMP JUMPDEST SWAP1 SWAP2 SSTORE POP POP POP POP POP POP JUMP JUMPDEST DUP1 CALLDATALOAD PUSH1 0x1 PUSH1 0x1 PUSH1 0xA0 SHL SUB DUP2 AND DUP2 EQ PUSH2 0x248 JUMPI PUSH1 0x0 DUP1 REVERT JUMPDEST PUSH1 0x0 PUSH1 0x20 DUP3 DUP5 SUB SLT ISZERO PUSH2 0x369 JUMPI DUP1 DUP2 REVERT JUMPDEST PUSH2 0x372 DUP3 PUSH2 0x341 JUMP JUMPDEST SWAP4 SWAP3 POP POP POP JUMP JUMPDEST PUSH1 0x0 DUP1 PUSH1 0x0 PUSH1 0x60 DUP5 DUP7 SUB SLT ISZERO PUSH2 0x38D JUMPI DUP2 DUP3 REVERT JUMPDEST PUSH2 0x396 DUP5 PUSH2 0x341 JUMP JUMPDEST SWAP3 POP PUSH2 0x3A4 PUSH1 0x20 DUP6 ADD PUSH2 0x341 JUMP JUMPDEST SWAP2 POP PUSH1 0x40 DUP5 ADD CALLDATALOAD SWAP1 POP SWAP3 POP SWAP3 POP SWAP3 JUMP JUMPDEST PUSH1 0x0 DUP1 PUSH1 0x40 DUP4 DUP6 SUB SLT ISZERO PUSH2 0x3C6 JUMPI DUP2 DUP3 REVERT JUMPDEST PUSH2 0x3CF DUP4 PUSH2 0x341 JUMP JUMPDEST SWAP5 PUSH1 0x20 SWAP4 SWAP1 SWAP4 ADD CALLDATALOAD SWAP4 POP POP POP JUMP JUMPDEST PUSH1 0x1 PUSH1 0x1 PUSH1 0xA0 SHL SUB SWAP4 DUP5 AND DUP2 MSTORE SWAP2 SWAP1 SWAP3 AND PUSH1 0x20 DUP3 ADD MSTORE PUSH1 0x40 DUP2 ADD SWAP2 SWAP1 SWAP2 MSTORE PUSH1 0x60 ADD SWAP1 JUMP JUMPDEST SWAP1 ISZERO ISZERO DUP2 MSTORE PUSH1 0x20 ADD SWAP1 JUMP JUMPDEST PUSH1 0x20 DUP1 DUP3 MSTORE PUSH1 0x0 SWAP1 DUP3 ADD MSTORE PUSH1 0x40 ADD SWAP1 JUMP JUMPDEST SWAP1 DUP2 MSTORE PUSH1 0x20 ADD SWAP1 JUMP JUMPDEST PUSH1 0x0 DUP3 NOT DUP3 GT ISZERO PUSH2 0x439 JUMPI PUSH2 0x439 PUSH2 0x455 JUMP JUMPDEST POP ADD SWAP1 JUMP JUMPDEST PUSH1 0x0 DUP3 DUP3 LT ISZERO PUSH2 0x450 JUMPI PUSH2 0x450 PUSH2 0x455 JUMP JUMPDEST POP SUB SWAP1 JUMP JUMPDEST PUSH4 0x4E487B71 PUSH1 0xE0 SHL PUSH1 0x0 MSTORE PUSH1 0x11 PUSH1 0x4 MSTORE PUSH1 0x24 PUSH1 0x0 REVERT INVALID LOG2 PUSH5 0x6970667358 0x22 SLT KECCAK256 EQ REVERT SWAP6 NOT CALLDATACOPY PUSH9 0x7CBC7BFFB6C5CA2F1 0xC0 EQ CREATE 0xE3 0xC7 0xBF PUSH2 0x9A7C PUSH13 0xC90854311D93E664736F6C6343 STOP ADDMOD STOP STOP CALLER "
				},
				"gasEstimates": {
					"creation": {
						"codeDepositCost": "237000",
						"executionCost": "281",
						"totalCost": "237281"
					},
					"external": {
						"approve(address,uint256)": "23225",
						"balanceOf(address)": "infinite",
						"transfer(address,uint256)": "infinite",
						"transferFrom(address,address,uint256)": "infinite"
					}
				},
				"methodIdentifiers": {
					"approve(address,uint256)": "095ea7b3",
					"balanceOf(address)": "70a08231",
					"transfer(address,uint256)": "a9059cbb",
					"transferFrom(address,address,uint256)": "23b872dd"
				}
			},
			"storageLayout": {
				"storage": [
					{
						"astId": 52,
						"contract": "contracts/demo/Balances.sol:Token",
						"label": "balances",
						"offset": 0,
						"slot": "0",
						"type": "t_mapping(t_address,t_uint256)"
					},
					{
						"astId": 60,
						"contract": "contracts/demo/Balances.sol:Token",
						"label": "allowed",
						"offset": 0,
						"slot": "1",
						"type": "t_mapping(t_address,t_mapping(t_address,t_uint256))"
					}
				],
				"types": {
					"t_address": {
						"encoding": "inplace",
						"label": "address",
						"numberOfBytes": "20"
					},
					"t_mapping(t_address,t_mapping(t_address,t_uint256))": {
						"encoding": "mapping",
						"key": "t_address",
						"label": "mapping(address => mapping(address => uint256))",
						"numberOfBytes": "32",
						"value": "t_mapping(t_address,t_uint256)"
					},
					"t_mapping(t_address,t_uint256)": {
						"encoding": "mapping",
						"key": "t_address",
						"label": "mapping(address => uint256)",
						"numberOfBytes": "32",
						"value": "t_uint256"
					},
					"t_uint256": {
						"encoding": "inplace",
						"label": "uint256",
						"numberOfBytes": "32"
					}
				}
			},
			"userdoc": {
				"kind": "user",
				"methods": {},
				"version": 1
			}
		}
	}
}