{
	"contracts/demo/callOther.sol": {
		"callOther": {
			"abi": [
				{
					"anonymous": false,
					"inputs": [
						{
							"indexed": false,
							"internalType": "string",
							"name": "funName",
							"type": "string"
						},
						{
							"indexed": false,
							"internalType": "address",
							"name": "from",
							"type": "address"
						},
						{
							"indexed": false,
							"internalType": "uint256",
							"name": "value",
							"type": "uint256"
						},
						{
							"indexed": false,
							"internalType": "bytes",
							"name": "data",
							"type": "bytes"
						}
					],
					"name": "Log",
					"type": "event"
				},
				{
					"stateMutability": "payable",
					"type": "fallback"
				},
				{
					"inputs": [
						{
							"internalType": "address",
							"name": "_addr",
							"type": "address"
						},
						{
							"internalType": "bytes",
							"name": "data",
							"type": "bytes"
						}
					],
					"name": "call1",
					"outputs": [],
					"stateMutability": "payable",
					"type": "function"
				},
				{
					"inputs": [
						{
							"internalType": "address",
							"name": "_addr",
							"type": "address"
						},
						{
							"internalType": "string",
							"name": "_name",
							"type": "string"
						},
						{
							"internalType": "uint256",
							"name": "_age",
							"type": "uint256"
						}
					],
					"name": "call2",
					"outputs": [],
					"stateMutability": "payable",
					"type": "function"
				},
				{
					"inputs": [
						{
							"internalType": "address",
							"name": "_addr",
							"type": "address"
						}
					],
					"name": "delegatecall",
					"outputs": [],
					"stateMutability": "nonpayable",
					"type": "function"
				},
				{
					"inputs": [],
					"name": "getBalance",
					"outputs": [
						{
							"internalType": "uint256",
							"name": "",
							"type": "uint256"
						}
					],
					"stateMutability": "view",
					"type": "function"
				},
				{
					"inputs": [],
					"name": "getGasleft",
					"outputs": [
						{
							"internalType": "uint256",
							"name": "",
							"type": "uint256"
						}
					],
					"stateMutability": "view",
					"type": "function"
				},
				{
					"inputs": [
						{
							"internalType": "address",
							"name": "_addr",
							"type": "address"
						}
					],
					"name": "staticcall",
					"outputs": [
						{
							"internalType": "string",
							"name": "",
							"type": "string"
						}
					],
					"stateMutability": "view",
					"type": "function"
				},
				{
					"inputs": [
						{
							"internalType": "uint256",
							"name": "_num",
							"type": "uint256"
						}
					],
					"name": "test",
					"outputs": [
						{
							"internalType": "uint256",
							"name": "",
							"type": "uint256"
						}
					],
					"stateMutability": "pure",
					"type": "function"
				},
				{
					"stateMutability": "payable",
					"type": "receive"
				}
			],
			"devdoc": {
				"kind": "dev",
				"methods": {},
				"version": 1
			},
			"evm": {
				"assembly": "    /* \"contracts/demo/callOther.sol\":922:5119  contract callOther {\r... */\n  mstore(0x40, 0x80)\n  callvalue\n  dup1\n  iszero\n  tag_1\n  jumpi\n  0x00\n  dup1\n  revert\ntag_1:\n  pop\n  dataSize(sub_0)\n  dup1\n  dataOffset(sub_0)\n  0x00\n  codecopy\n  0x00\n  return\nstop\n\nsub_0: assembly {\n        /* \"contracts/demo/callOther.sol\":922:5119  contract callOther {\r... */\n      mstore(0x40, 0x80)\n      jumpi(tag_1, lt(calldatasize, 0x04))\n      shr(0xe0, calldataload(0x00))\n      dup1\n      0x57b9fad3\n      gt\n      tag_10\n      jumpi\n      dup1\n      0x57b9fad3\n      eq\n      tag_6\n      jumpi\n      dup1\n      0x5b6b7b86\n      eq\n      tag_7\n      jumpi\n      dup1\n      0xe108938b\n      eq\n      tag_8\n      jumpi\n      dup1\n      0xedb4b865\n      eq\n      tag_9\n      jumpi\n      jump(tag_2)\n    tag_10:\n      dup1\n      0x12065fe0\n      eq\n      tag_3\n      jumpi\n      dup1\n      0x29a20bca\n      eq\n      tag_4\n      jumpi\n      dup1\n      0x29e99f07\n      eq\n      tag_5\n      jumpi\n      jump(tag_2)\n    tag_1:\n      jumpi(tag_2, calldatasize)\n        /* \"contracts/demo/callOther.sol\":1174:1215  Log(\"receive\", msg.sender, msg.value, \"\") */\n      0xf7f75251dee7d7fc22deac3247729ebe7c86541f35930bf10c2a4207479a3b6c\n        /* \"contracts/demo/callOther.sol\":1189:1199  msg.sender */\n      caller\n        /* \"contracts/demo/callOther.sol\":1201:1210  msg.value */\n      callvalue\n        /* \"contracts/demo/callOther.sol\":1174:1215  Log(\"receive\", msg.sender, msg.value, \"\") */\n      mload(0x40)\n      tag_13\n      swap3\n      swap2\n      swap1\n      tag_14\n      jump\t// in\n    tag_13:\n      mload(0x40)\n      dup1\n      swap2\n      sub\n      swap1\n      log1\n        /* \"contracts/demo/callOther.sol\":922:5119  contract callOther {\r... */\n      stop\n    tag_2:\n        /* \"contracts/demo/callOther.sol\":1067:1115  Log(\"fallback\", msg.sender, msg.value, msg.data) */\n      0xf7f75251dee7d7fc22deac3247729ebe7c86541f35930bf10c2a4207479a3b6c\n        /* \"contracts/demo/callOther.sol\":1083:1093  msg.sender */\n      caller\n        /* \"contracts/demo/callOther.sol\":1095:1104  msg.value */\n      callvalue\n        /* \"contracts/demo/callOther.sol\":1106:1114  msg.data */\n      0x00\n      calldatasize\n        /* \"contracts/demo/callOther.sol\":1067:1115  Log(\"fallback\", msg.sender, msg.value, msg.data) */\n      mload(0x40)\n      tag_17\n      swap5\n      swap4\n      swap3\n      swap2\n      swap1\n      tag_18\n      jump\t// in\n    tag_17:\n      mload(0x40)\n      dup1\n      swap2\n      sub\n      swap1\n      log1\n        /* \"contracts/demo/callOther.sol\":922:5119  contract callOther {\r... */\n      stop\n        /* \"contracts/demo/callOther.sol\":1231:1332  function getBalance() external view returns (uint256) {\r... */\n    tag_3:\n      callvalue\n      dup1\n      iszero\n      tag_19\n      jumpi\n      0x00\n      dup1\n      revert\n    tag_19:\n      pop\n      tag_20\n      tag_21\n      jump\t// in\n    tag_20:\n      mload(0x40)\n      tag_22\n      swap2\n      swap1\n      tag_23\n      jump\t// in\n    tag_22:\n      mload(0x40)\n      dup1\n      swap2\n      sub\n      swap1\n      return\n        /* \"contracts/demo/callOther.sol\":2343:2695  function call1(address _addr, bytes memory data) external payable {\r... */\n    tag_4:\n      tag_24\n      0x04\n      dup1\n      calldatasize\n      sub\n      dup2\n      add\n      swap1\n      tag_25\n      swap2\n      swap1\n      tag_26\n      jump\t// in\n    tag_25:\n      tag_27\n      jump\t// in\n    tag_24:\n      stop\n        /* \"contracts/demo/callOther.sol\":1340:1430  function test(uint256 _num) external pure returns (uint256) {\r... */\n    tag_5:\n      callvalue\n      dup1\n      iszero\n      tag_28\n      jumpi\n      0x00\n      dup1\n      revert\n    tag_28:\n      pop\n      tag_29\n      0x04\n      dup1\n      calldatasize\n      sub\n      dup2\n      add\n      swap1\n      tag_30\n      swap2\n      swap1\n      tag_31\n      jump\t// in\n    tag_30:\n      tag_32\n      jump\t// in\n    tag_29:\n      mload(0x40)\n      tag_33\n      swap2\n      swap1\n      tag_23\n      jump\t// in\n    tag_33:\n      mload(0x40)\n      dup1\n      swap2\n      sub\n      swap1\n      return\n        /* \"contracts/demo/callOther.sol\":4647:5110  function staticcall(address _addr) external view returns (string memory) {\r... */\n    tag_6:\n      callvalue\n      dup1\n      iszero\n      tag_34\n      jumpi\n      0x00\n      dup1\n      revert\n    tag_34:\n      pop\n      tag_35\n      0x04\n      dup1\n      calldatasize\n      sub\n      dup2\n      add\n      swap1\n      tag_36\n      swap2\n      swap1\n      tag_37\n      jump\t// in\n    tag_36:\n      tag_38\n      jump\t// in\n    tag_35:\n      mload(0x40)\n      tag_39\n      swap2\n      swap1\n      tag_40\n      jump\t// in\n    tag_39:\n      mload(0x40)\n      dup1\n      swap2\n      sub\n      swap1\n      return\n        /* \"contracts/demo/callOther.sol\":2703:3100  function call2(\r... */\n    tag_7:\n      tag_41\n      0x04\n      dup1\n      calldatasize\n      sub\n      dup2\n      add\n      swap1\n      tag_42\n      swap2\n      swap1\n      tag_43\n      jump\t// in\n    tag_42:\n      tag_44\n      jump\t// in\n    tag_41:\n      stop\n        /* \"contracts/demo/callOther.sol\":3985:4469  function delegatecall(address _addr) external {\r... */\n    tag_8:\n      callvalue\n      dup1\n      iszero\n      tag_45\n      jumpi\n      0x00\n      dup1\n      revert\n    tag_45:\n      pop\n      tag_46\n      0x04\n      dup1\n      calldatasize\n      sub\n      dup2\n      add\n      swap1\n      tag_47\n      swap2\n      swap1\n      tag_37\n      jump\t// in\n    tag_47:\n      tag_48\n      jump\t// in\n    tag_46:\n      stop\n        /* \"contracts/demo/callOther.sol\":1438:1530  function getGasleft() external  view   returns (uint256) {\r... */\n    tag_9:\n      callvalue\n      dup1\n      iszero\n      tag_49\n      jumpi\n      0x00\n      dup1\n      revert\n    tag_49:\n      pop\n      tag_50\n      tag_51\n      jump\t// in\n    tag_50:\n      mload(0x40)\n      tag_52\n      swap2\n      swap1\n      tag_23\n      jump\t// in\n    tag_52:\n      mload(0x40)\n      dup1\n      swap2\n      sub\n      swap1\n      return\n        /* \"contracts/demo/callOther.sol\":1231:1332  function getBalance() external view returns (uint256) {\r... */\n    tag_21:\n        /* \"contracts/demo/callOther.sol\":1276:1283  uint256 */\n      0x00\n        /* \"contracts/demo/callOther.sol\":1303:1324  address(this).balance */\n      selfbalance\n        /* \"contracts/demo/callOther.sol\":1296:1324  return address(this).balance */\n      swap1\n      pop\n        /* \"contracts/demo/callOther.sol\":1231:1332  function getBalance() external view returns (uint256) {\r... */\n      swap1\n      jump\t// out\n        /* \"contracts/demo/callOther.sol\":2343:2695  function call1(address _addr, bytes memory data) external payable {\r... */\n    tag_27:\n        /* \"contracts/demo/callOther.sol\":2438:2450  bool success */\n      0x00\n        /* \"contracts/demo/callOther.sol\":2456:2461  _addr */\n      dup3\n        /* \"contracts/demo/callOther.sol\":2456:2466  _addr.call */\n      0xffffffffffffffffffffffffffffffffffffffff\n      and\n        /* \"contracts/demo/callOther.sol\":2474:2477  100 */\n      0x64\n        /* \"contracts/demo/callOther.sol\":2479:2483  data */\n      dup4\n        /* \"contracts/demo/callOther.sol\":2456:2484  _addr.call{value: 100}(data) */\n      mload(0x40)\n      tag_55\n      swap2\n      swap1\n      tag_56\n      jump\t// in\n    tag_55:\n      0x00\n      mload(0x40)\n      dup1\n      dup4\n      sub\n      dup2\n      dup6\n      dup8\n      gas\n      call\n      swap3\n      pop\n      pop\n      pop\n      returndatasize\n      dup1\n      0x00\n      dup2\n      eq\n      tag_59\n      jumpi\n      mload(0x40)\n      swap2\n      pop\n      and(add(returndatasize, 0x3f), not(0x1f))\n      dup3\n      add\n      0x40\n      mstore\n      returndatasize\n      dup3\n      mstore\n      returndatasize\n      0x00\n      0x20\n      dup5\n      add\n      returndatacopy\n      jump(tag_58)\n    tag_59:\n      0x60\n      swap2\n      pop\n    tag_58:\n      pop\n        /* \"contracts/demo/callOther.sol\":2437:2484  (bool success, ) = _addr.call{value: 100}(data) */\n      pop\n      swap1\n      pop\n        /* \"contracts/demo/callOther.sol\":2608:2615  success */\n      dup1\n        /* \"contracts/demo/callOther.sol\":2600:2630  require(success, \"call Faied\") */\n      tag_60\n      jumpi\n      mload(0x40)\n      0x08c379a000000000000000000000000000000000000000000000000000000000\n      dup2\n      mstore\n      0x04\n      add\n      tag_61\n      swap1\n      tag_62\n      jump\t// in\n    tag_61:\n      mload(0x40)\n      dup1\n      swap2\n      sub\n      swap1\n      revert\n    tag_60:\n        /* \"contracts/demo/callOther.sol\":2343:2695  function call1(address _addr, bytes memory data) external payable {\r... */\n      pop\n      pop\n      pop\n      jump\t// out\n        /* \"contracts/demo/callOther.sol\":1340:1430  function test(uint256 _num) external pure returns (uint256) {\r... */\n    tag_32:\n        /* \"contracts/demo/callOther.sol\":1391:1398  uint256 */\n      0x00\n        /* \"contracts/demo/callOther.sol\":1418:1422  _num */\n      dup2\n        /* \"contracts/demo/callOther.sol\":1411:1422  return _num */\n      swap1\n      pop\n        /* \"contracts/demo/callOther.sol\":1340:1430  function test(uint256 _num) external pure returns (uint256) {\r... */\n      swap2\n      swap1\n      pop\n      jump\t// out\n        /* \"contracts/demo/callOther.sol\":4647:5110  function staticcall(address _addr) external view returns (string memory) {\r... */\n    tag_38:\n        /* \"contracts/demo/callOther.sol\":4705:4718  string memory */\n      0x60\n        /* \"contracts/demo/callOther.sol\":4777:4792  bytes4 methodId */\n      0x00\n        /* \"contracts/demo/callOther.sol\":4802:4821  keccak256(\"echo()\") */\n      0x29f4acb0ed8a5b2201afd96e6e3bcbca8f3ea01c1a7ccdacf8c292a92d60067f\n        /* \"contracts/demo/callOther.sol\":4777:4822  bytes4 methodId = bytes4(keccak256(\"echo()\")) */\n      swap1\n      pop\n        /* \"contracts/demo/callOther.sol\":4859:4871  bool success */\n      0x00\n        /* \"contracts/demo/callOther.sol\":4873:4890  bytes memory data */\n      dup1\n        /* \"contracts/demo/callOther.sol\":4894:4899  _addr */\n      dup5\n        /* \"contracts/demo/callOther.sol\":4894:4910  _addr.staticcall */\n      0xffffffffffffffffffffffffffffffffffffffff\n      and\n        /* \"contracts/demo/callOther.sol\":4948:4956  methodId */\n      dup4\n        /* \"contracts/demo/callOther.sol\":4925:4957  abi.encodeWithSelector(methodId) */\n      add(0x24, mload(0x40))\n      mload(0x40)\n      0x20\n      dup2\n      dup4\n      sub\n      sub\n      dup2\n      mstore\n      swap1\n      0x40\n      mstore\n      swap1\n      not(0xffffffffffffffffffffffffffffffffffffffffffffffffffffffff)\n      and\n      0x20\n      dup3\n      add\n      dup1\n      mload\n      0xffffffffffffffffffffffffffffffffffffffffffffffffffffffff\n      dup4\n      dup2\n      dup4\n      and\n      or\n      dup4\n      mstore\n      pop\n      pop\n      pop\n      pop\n        /* \"contracts/demo/callOther.sol\":4894:4968  _addr.staticcall(\r... */\n      mload(0x40)\n      tag_65\n      swap2\n      swap1\n      tag_56\n      jump\t// in\n    tag_65:\n      0x00\n      mload(0x40)\n      dup1\n      dup4\n      sub\n      dup2\n      dup6\n      gas\n      staticcall\n      swap2\n      pop\n      pop\n      returndatasize\n      dup1\n      0x00\n      dup2\n      eq\n      tag_68\n      jumpi\n      mload(0x40)\n      swap2\n      pop\n      and(add(returndatasize, 0x3f), not(0x1f))\n      dup3\n      add\n      0x40\n      mstore\n      returndatasize\n      dup3\n      mstore\n      returndatasize\n      0x00\n      0x20\n      dup5\n      add\n      returndatacopy\n      jump(tag_67)\n    tag_68:\n      0x60\n      swap2\n      pop\n    tag_67:\n      pop\n        /* \"contracts/demo/callOther.sol\":4858:4968  (bool success, bytes memory data) = _addr.staticcall(\r... */\n      swap2\n      pop\n      swap2\n      pop\n        /* \"contracts/demo/callOther.sol\":4985:4992  success */\n      dup2\n        /* \"contracts/demo/callOther.sol\":4981:5101  if (success) {\r... */\n      iszero\n      tag_69\n      jumpi\n        /* \"contracts/demo/callOther.sol\":5027:5031  data */\n      dup1\n        /* \"contracts/demo/callOther.sol\":5016:5042  abi.decode(data, (string)) */\n      dup1\n      0x20\n      add\n      swap1\n      mload\n      dup2\n      add\n      swap1\n      tag_70\n      swap2\n      swap1\n      tag_71\n      jump\t// in\n    tag_70:\n        /* \"contracts/demo/callOther.sol\":5009:5042  return abi.decode(data, (string)) */\n      swap4\n      pop\n      pop\n      pop\n      pop\n      jump(tag_64)\n        /* \"contracts/demo/callOther.sol\":4981:5101  if (success) {\r... */\n    tag_69:\n        /* \"contracts/demo/callOther.sol\":5075:5089  return \"error\" */\n      mload(0x40)\n      dup1\n      0x40\n      add\n      0x40\n      mstore\n      dup1\n      0x05\n      dup2\n      mstore\n      0x20\n      add\n      0x6572726f72000000000000000000000000000000000000000000000000000000\n      dup2\n      mstore\n      pop\n      swap4\n      pop\n      pop\n      pop\n      pop\n        /* \"contracts/demo/callOther.sol\":4647:5110  function staticcall(address _addr) external view returns (string memory) {\r... */\n    tag_64:\n      swap2\n      swap1\n      pop\n      jump\t// out\n        /* \"contracts/demo/callOther.sol\":2703:3100  function call2(\r... */\n    tag_44:\n        /* \"contracts/demo/callOther.sol\":2830:2847  bytes memory data */\n      0x00\n        /* \"contracts/demo/callOther.sol\":2934:2939  _name */\n      dup3\n        /* \"contracts/demo/callOther.sol\":2954:2958  _age */\n      dup3\n        /* \"contracts/demo/callOther.sol\":2850:2969  abi.encodeWithSignature(\r... */\n      add(0x24, mload(0x40))\n      tag_74\n      swap3\n      swap2\n      swap1\n      tag_75\n      jump\t// in\n    tag_74:\n      mload(0x40)\n      0x20\n      dup2\n      dup4\n      sub\n      sub\n      dup2\n      mstore\n      swap1\n      0x40\n      mstore\n      and(not(0xffffffffffffffffffffffffffffffffffffffffffffffffffffffff), 0x9cf3460100000000000000000000000000000000000000000000000000000000)\n      0x20\n      dup3\n      add\n      dup1\n      mload\n      0xffffffffffffffffffffffffffffffffffffffffffffffffffffffff\n      dup4\n      dup2\n      dup4\n      and\n      or\n      dup4\n      mstore\n      pop\n      pop\n      pop\n      pop\n        /* \"contracts/demo/callOther.sol\":2830:2969  bytes memory data = abi.encodeWithSignature(\r... */\n      swap1\n      pop\n        /* \"contracts/demo/callOther.sol\":2981:2993  bool success */\n      0x00\n        /* \"contracts/demo/callOther.sol\":2995:3012  bytes memory _bys */\n      dup1\n        /* \"contracts/demo/callOther.sol\":3016:3021  _addr */\n      dup6\n        /* \"contracts/demo/callOther.sol\":3016:3026  _addr.call */\n      0xffffffffffffffffffffffffffffffffffffffff\n      and\n        /* \"contracts/demo/callOther.sol\":3034:3043  msg.value */\n      callvalue\n        /* \"contracts/demo/callOther.sol\":3045:3049  data */\n      dup5\n        /* \"contracts/demo/callOther.sol\":3016:3050  _addr.call{value: msg.value}(data) */\n      mload(0x40)\n      tag_76\n      swap2\n      swap1\n      tag_56\n      jump\t// in\n    tag_76:\n      0x00\n      mload(0x40)\n      dup1\n      dup4\n      sub\n      dup2\n      dup6\n      dup8\n      gas\n      call\n      swap3\n      pop\n      pop\n      pop\n      returndatasize\n      dup1\n      0x00\n      dup2\n      eq\n      tag_79\n      jumpi\n      mload(0x40)\n      swap2\n      pop\n      and(add(returndatasize, 0x3f), not(0x1f))\n      dup3\n      add\n      0x40\n      mstore\n      returndatasize\n      dup3\n      mstore\n      returndatasize\n      0x00\n      0x20\n      dup5\n      add\n      returndatacopy\n      jump(tag_78)\n    tag_79:\n      0x60\n      swap2\n      pop\n    tag_78:\n      pop\n        /* \"contracts/demo/callOther.sol\":2980:3050  (bool success, bytes memory _bys) = _addr.call{value: msg.value}(data) */\n      swap2\n      pop\n      swap2\n      pop\n        /* \"contracts/demo/callOther.sol\":3069:3076  success */\n      dup2\n        /* \"contracts/demo/callOther.sol\":3061:3092  require(success, \"Call Failed\") */\n      tag_80\n      jumpi\n      mload(0x40)\n      0x08c379a000000000000000000000000000000000000000000000000000000000\n      dup2\n      mstore\n      0x04\n      add\n      tag_81\n      swap1\n      tag_82\n      jump\t// in\n    tag_81:\n      mload(0x40)\n      dup1\n      swap2\n      sub\n      swap1\n      revert\n    tag_80:\n        /* \"contracts/demo/callOther.sol\":2703:3100  function call2(\r... */\n      pop\n      pop\n      pop\n      pop\n      pop\n      pop\n      jump\t// out\n        /* \"contracts/demo/callOther.sol\":3985:4469  function delegatecall(address _addr) external {\r... */\n    tag_48:\n        /* \"contracts/demo/callOther.sol\":4042:4054  uint256 _num */\n      0x00\n        /* \"contracts/demo/callOther.sol\":4057:4059  23 */\n      0x17\n        /* \"contracts/demo/callOther.sol\":4042:4059  uint256 _num = 23 */\n      swap1\n      pop\n        /* \"contracts/demo/callOther.sol\":4131:4149  bytes memory data1 */\n      0x00\n        /* \"contracts/demo/callOther.sol\":4192:4196  _num */\n      dup2\n        /* \"contracts/demo/callOther.sol\":4152:4197  abi.encodeWithSignature(\"set(uint256)\", _num) */\n      add(0x24, mload(0x40))\n      tag_84\n      swap2\n      swap1\n      tag_23\n      jump\t// in\n    tag_84:\n      mload(0x40)\n      0x20\n      dup2\n      dup4\n      sub\n      sub\n      dup2\n      mstore\n      swap1\n      0x40\n      mstore\n      and(not(0xffffffffffffffffffffffffffffffffffffffffffffffffffffffff), 0x60fe47b100000000000000000000000000000000000000000000000000000000)\n      0x20\n      dup3\n      add\n      dup1\n      mload\n      0xffffffffffffffffffffffffffffffffffffffffffffffffffffffff\n      dup4\n      dup2\n      dup4\n      and\n      or\n      dup4\n      mstore\n      pop\n      pop\n      pop\n      pop\n        /* \"contracts/demo/callOther.sol\":4131:4197  bytes memory data1 = abi.encodeWithSignature(\"set(uint256)\", _num) */\n      swap1\n      pop\n        /* \"contracts/demo/callOther.sol\":4277:4295  bytes memory data2 */\n      0x00\n        /* \"contracts/demo/callOther.sol\":4335:4358  callOther.test.selector */\n      shl(0xe0, 0x29e99f07)\n        /* \"contracts/demo/callOther.sol\":4373:4377  _num */\n      dup4\n        /* \"contracts/demo/callOther.sol\":4298:4388  abi.encodeWithSelector(\r... */\n      add(0x24, mload(0x40))\n      tag_85\n      swap2\n      swap1\n      tag_23\n      jump\t// in\n    tag_85:\n      mload(0x40)\n      0x20\n      dup2\n      dup4\n      sub\n      sub\n      dup2\n      mstore\n      swap1\n      0x40\n      mstore\n      swap1\n      not(0xffffffffffffffffffffffffffffffffffffffffffffffffffffffff)\n      and\n      0x20\n      dup3\n      add\n      dup1\n      mload\n      0xffffffffffffffffffffffffffffffffffffffffffffffffffffffff\n      dup4\n      dup2\n      dup4\n      and\n      or\n      dup4\n      mstore\n      pop\n      pop\n      pop\n      pop\n        /* \"contracts/demo/callOther.sol\":4277:4388  bytes memory data2 = abi.encodeWithSelector(\r... */\n      swap1\n      pop\n        /* \"contracts/demo/callOther.sol\":4400:4412  bool success */\n      0x00\n        /* \"contracts/demo/callOther.sol\":4414:4432  bytes memory _data */\n      dup1\n        /* \"contracts/demo/callOther.sol\":4436:4441  _addr */\n      dup6\n        /* \"contracts/demo/callOther.sol\":4436:4454  _addr.delegatecall */\n      0xffffffffffffffffffffffffffffffffffffffff\n      and\n        /* \"contracts/demo/callOther.sol\":4455:4460  data2 */\n      dup4\n        /* \"contracts/demo/callOther.sol\":4436:4461  _addr.delegatecall(data2) */\n      mload(0x40)\n      tag_86\n      swap2\n      swap1\n      tag_56\n      jump\t// in\n    tag_86:\n      0x00\n      mload(0x40)\n      dup1\n      dup4\n      sub\n      dup2\n      dup6\n      gas\n      delegatecall\n      swap2\n      pop\n      pop\n      returndatasize\n      dup1\n      0x00\n      dup2\n      eq\n      tag_89\n      jumpi\n      mload(0x40)\n      swap2\n      pop\n      and(add(returndatasize, 0x3f), not(0x1f))\n      dup3\n      add\n      0x40\n      mstore\n      returndatasize\n      dup3\n      mstore\n      returndatasize\n      0x00\n      0x20\n      dup5\n      add\n      returndatacopy\n      jump(tag_88)\n    tag_89:\n      0x60\n      swap2\n      pop\n    tag_88:\n      pop\n        /* \"contracts/demo/callOther.sol\":4399:4461  (bool success, bytes memory _data) = _addr.delegatecall(data2) */\n      swap2\n      pop\n      swap2\n      pop\n        /* \"contracts/demo/callOther.sol\":3985:4469  function delegatecall(address _addr) external {\r... */\n      pop\n      pop\n      pop\n      pop\n      pop\n      pop\n      jump\t// out\n        /* \"contracts/demo/callOther.sol\":1438:1530  function getGasleft() external  view   returns (uint256) {\r... */\n    tag_51:\n        /* \"contracts/demo/callOther.sol\":1486:1493  uint256 */\n      0x00\n        /* \"contracts/demo/callOther.sol\":1513:1522  gasleft() */\n      gas\n        /* \"contracts/demo/callOther.sol\":1506:1522  return gasleft() */\n      swap1\n      pop\n        /* \"contracts/demo/callOther.sol\":1438:1530  function getGasleft() external  view   returns (uint256) {\r... */\n      swap1\n      jump\t// out\n        /* \"#utility.yul\":7:349   */\n    tag_92:\n      0x00\n        /* \"#utility.yul\":109:173   */\n      tag_94\n        /* \"#utility.yul\":124:172   */\n      tag_95\n        /* \"#utility.yul\":165:171   */\n      dup5\n        /* \"#utility.yul\":124:172   */\n      tag_96\n      jump\t// in\n    tag_95:\n        /* \"#utility.yul\":109:173   */\n      tag_97\n      jump\t// in\n    tag_94:\n        /* \"#utility.yul\":100:173   */\n      swap1\n      pop\n        /* \"#utility.yul\":196:202   */\n      dup3\n        /* \"#utility.yul\":189:194   */\n      dup2\n        /* \"#utility.yul\":182:203   */\n      mstore\n        /* \"#utility.yul\":234:238   */\n      0x20\n        /* \"#utility.yul\":227:232   */\n      dup2\n        /* \"#utility.yul\":223:239   */\n      add\n        /* \"#utility.yul\":272:275   */\n      dup5\n        /* \"#utility.yul\":263:269   */\n      dup5\n        /* \"#utility.yul\":258:261   */\n      dup5\n        /* \"#utility.yul\":254:270   */\n      add\n        /* \"#utility.yul\":251:276   */\n      gt\n        /* \"#utility.yul\":248:250   */\n      iszero\n      tag_98\n      jumpi\n        /* \"#utility.yul\":289:290   */\n      0x00\n        /* \"#utility.yul\":286:287   */\n      dup1\n        /* \"#utility.yul\":279:291   */\n      revert\n        /* \"#utility.yul\":248:250   */\n    tag_98:\n        /* \"#utility.yul\":302:343   */\n      tag_99\n        /* \"#utility.yul\":336:342   */\n      dup5\n        /* \"#utility.yul\":331:334   */\n      dup3\n        /* \"#utility.yul\":326:329   */\n      dup6\n        /* \"#utility.yul\":302:343   */\n      tag_100\n      jump\t// in\n    tag_99:\n        /* \"#utility.yul\":90:349   */\n      pop\n      swap4\n      swap3\n      pop\n      pop\n      pop\n      jump\t// out\n        /* \"#utility.yul\":355:699   */\n    tag_101:\n      0x00\n        /* \"#utility.yul\":458:523   */\n      tag_103\n        /* \"#utility.yul\":473:522   */\n      tag_104\n        /* \"#utility.yul\":515:521   */\n      dup5\n        /* \"#utility.yul\":473:522   */\n      tag_105\n      jump\t// in\n    tag_104:\n        /* \"#utility.yul\":458:523   */\n      tag_97\n      jump\t// in\n    tag_103:\n        /* \"#utility.yul\":449:523   */\n      swap1\n      pop\n        /* \"#utility.yul\":546:552   */\n      dup3\n        /* \"#utility.yul\":539:544   */\n      dup2\n        /* \"#utility.yul\":532:553   */\n      mstore\n        /* \"#utility.yul\":584:588   */\n      0x20\n        /* \"#utility.yul\":577:582   */\n      dup2\n        /* \"#utility.yul\":573:589   */\n      add\n        /* \"#utility.yul\":622:625   */\n      dup5\n        /* \"#utility.yul\":613:619   */\n      dup5\n        /* \"#utility.yul\":608:611   */\n      dup5\n        /* \"#utility.yul\":604:620   */\n      add\n        /* \"#utility.yul\":601:626   */\n      gt\n        /* \"#utility.yul\":598:600   */\n      iszero\n      tag_106\n      jumpi\n        /* \"#utility.yul\":639:640   */\n      0x00\n        /* \"#utility.yul\":636:637   */\n      dup1\n        /* \"#utility.yul\":629:641   */\n      revert\n        /* \"#utility.yul\":598:600   */\n    tag_106:\n        /* \"#utility.yul\":652:693   */\n      tag_107\n        /* \"#utility.yul\":686:692   */\n      dup5\n        /* \"#utility.yul\":681:684   */\n      dup3\n        /* \"#utility.yul\":676:679   */\n      dup6\n        /* \"#utility.yul\":652:693   */\n      tag_100\n      jump\t// in\n    tag_107:\n        /* \"#utility.yul\":439:699   */\n      pop\n      swap4\n      swap3\n      pop\n      pop\n      pop\n      jump\t// out\n        /* \"#utility.yul\":705:1058   */\n    tag_108:\n      0x00\n        /* \"#utility.yul\":819:884   */\n      tag_110\n        /* \"#utility.yul\":834:883   */\n      tag_111\n        /* \"#utility.yul\":876:882   */\n      dup5\n        /* \"#utility.yul\":834:883   */\n      tag_105\n      jump\t// in\n    tag_111:\n        /* \"#utility.yul\":819:884   */\n      tag_97\n      jump\t// in\n    tag_110:\n        /* \"#utility.yul\":810:884   */\n      swap1\n      pop\n        /* \"#utility.yul\":907:913   */\n      dup3\n        /* \"#utility.yul\":900:905   */\n      dup2\n        /* \"#utility.yul\":893:914   */\n      mstore\n        /* \"#utility.yul\":945:949   */\n      0x20\n        /* \"#utility.yul\":938:943   */\n      dup2\n        /* \"#utility.yul\":934:950   */\n      add\n        /* \"#utility.yul\":983:986   */\n      dup5\n        /* \"#utility.yul\":974:980   */\n      dup5\n        /* \"#utility.yul\":969:972   */\n      dup5\n        /* \"#utility.yul\":965:981   */\n      add\n        /* \"#utility.yul\":962:987   */\n      gt\n        /* \"#utility.yul\":959:961   */\n      iszero\n      tag_112\n      jumpi\n        /* \"#utility.yul\":1000:1001   */\n      0x00\n        /* \"#utility.yul\":997:998   */\n      dup1\n        /* \"#utility.yul\":990:1002   */\n      revert\n        /* \"#utility.yul\":959:961   */\n    tag_112:\n        /* \"#utility.yul\":1013:1052   */\n      tag_113\n        /* \"#utility.yul\":1045:1051   */\n      dup5\n        /* \"#utility.yul\":1040:1043   */\n      dup3\n        /* \"#utility.yul\":1035:1038   */\n      dup6\n        /* \"#utility.yul\":1013:1052   */\n      tag_114\n      jump\t// in\n    tag_113:\n        /* \"#utility.yul\":800:1058   */\n      pop\n      swap4\n      swap3\n      pop\n      pop\n      pop\n      jump\t// out\n        /* \"#utility.yul\":1064:1203   */\n    tag_115:\n      0x00\n        /* \"#utility.yul\":1148:1154   */\n      dup2\n        /* \"#utility.yul\":1135:1155   */\n      calldataload\n        /* \"#utility.yul\":1126:1155   */\n      swap1\n      pop\n        /* \"#utility.yul\":1164:1197   */\n      tag_117\n        /* \"#utility.yul\":1191:1196   */\n      dup2\n        /* \"#utility.yul\":1164:1197   */\n      tag_118\n      jump\t// in\n    tag_117:\n        /* \"#utility.yul\":1116:1203   */\n      swap3\n      swap2\n      pop\n      pop\n      jump\t// out\n        /* \"#utility.yul\":1222:1493   */\n    tag_119:\n      0x00\n        /* \"#utility.yul\":1326:1329   */\n      dup3\n        /* \"#utility.yul\":1319:1323   */\n      0x1f\n        /* \"#utility.yul\":1311:1317   */\n      dup4\n        /* \"#utility.yul\":1307:1324   */\n      add\n        /* \"#utility.yul\":1303:1330   */\n      slt\n        /* \"#utility.yul\":1293:1295   */\n      tag_121\n      jumpi\n        /* \"#utility.yul\":1344:1345   */\n      0x00\n        /* \"#utility.yul\":1341:1342   */\n      dup1\n        /* \"#utility.yul\":1334:1346   */\n      revert\n        /* \"#utility.yul\":1293:1295   */\n    tag_121:\n        /* \"#utility.yul\":1384:1390   */\n      dup2\n        /* \"#utility.yul\":1371:1391   */\n      calldataload\n        /* \"#utility.yul\":1409:1487   */\n      tag_122\n        /* \"#utility.yul\":1483:1486   */\n      dup5\n        /* \"#utility.yul\":1475:1481   */\n      dup3\n        /* \"#utility.yul\":1468:1472   */\n      0x20\n        /* \"#utility.yul\":1460:1466   */\n      dup7\n        /* \"#utility.yul\":1456:1473   */\n      add\n        /* \"#utility.yul\":1409:1487   */\n      tag_92\n      jump\t// in\n    tag_122:\n        /* \"#utility.yul\":1400:1487   */\n      swap2\n      pop\n        /* \"#utility.yul\":1283:1493   */\n      pop\n      swap3\n      swap2\n      pop\n      pop\n      jump\t// out\n        /* \"#utility.yul\":1513:1786   */\n    tag_123:\n      0x00\n        /* \"#utility.yul\":1618:1621   */\n      dup3\n        /* \"#utility.yul\":1611:1615   */\n      0x1f\n        /* \"#utility.yul\":1603:1609   */\n      dup4\n        /* \"#utility.yul\":1599:1616   */\n      add\n        /* \"#utility.yul\":1595:1622   */\n      slt\n        /* \"#utility.yul\":1585:1587   */\n      tag_125\n      jumpi\n        /* \"#utility.yul\":1636:1637   */\n      0x00\n        /* \"#utility.yul\":1633:1634   */\n      dup1\n        /* \"#utility.yul\":1626:1638   */\n      revert\n        /* \"#utility.yul\":1585:1587   */\n    tag_125:\n        /* \"#utility.yul\":1676:1682   */\n      dup2\n        /* \"#utility.yul\":1663:1683   */\n      calldataload\n        /* \"#utility.yul\":1701:1780   */\n      tag_126\n        /* \"#utility.yul\":1776:1779   */\n      dup5\n        /* \"#utility.yul\":1768:1774   */\n      dup3\n        /* \"#utility.yul\":1761:1765   */\n      0x20\n        /* \"#utility.yul\":1753:1759   */\n      dup7\n        /* \"#utility.yul\":1749:1766   */\n      add\n        /* \"#utility.yul\":1701:1780   */\n      tag_101\n      jump\t// in\n    tag_126:\n        /* \"#utility.yul\":1692:1780   */\n      swap2\n      pop\n        /* \"#utility.yul\":1575:1786   */\n      pop\n      swap3\n      swap2\n      pop\n      pop\n      jump\t// out\n        /* \"#utility.yul\":1806:2094   */\n    tag_127:\n      0x00\n        /* \"#utility.yul\":1922:1925   */\n      dup3\n        /* \"#utility.yul\":1915:1919   */\n      0x1f\n        /* \"#utility.yul\":1907:1913   */\n      dup4\n        /* \"#utility.yul\":1903:1920   */\n      add\n        /* \"#utility.yul\":1899:1926   */\n      slt\n        /* \"#utility.yul\":1889:1891   */\n      tag_129\n      jumpi\n        /* \"#utility.yul\":1940:1941   */\n      0x00\n        /* \"#utility.yul\":1937:1938   */\n      dup1\n        /* \"#utility.yul\":1930:1942   */\n      revert\n        /* \"#utility.yul\":1889:1891   */\n    tag_129:\n        /* \"#utility.yul\":1973:1979   */\n      dup2\n        /* \"#utility.yul\":1967:1980   */\n      mload\n        /* \"#utility.yul\":1998:2088   */\n      tag_130\n        /* \"#utility.yul\":2084:2087   */\n      dup5\n        /* \"#utility.yul\":2076:2082   */\n      dup3\n        /* \"#utility.yul\":2069:2073   */\n      0x20\n        /* \"#utility.yul\":2061:2067   */\n      dup7\n        /* \"#utility.yul\":2057:2074   */\n      add\n        /* \"#utility.yul\":1998:2088   */\n      tag_108\n      jump\t// in\n    tag_130:\n        /* \"#utility.yul\":1989:2088   */\n      swap2\n      pop\n        /* \"#utility.yul\":1879:2094   */\n      pop\n      swap3\n      swap2\n      pop\n      pop\n      jump\t// out\n        /* \"#utility.yul\":2100:2239   */\n    tag_131:\n      0x00\n        /* \"#utility.yul\":2184:2190   */\n      dup2\n        /* \"#utility.yul\":2171:2191   */\n      calldataload\n        /* \"#utility.yul\":2162:2191   */\n      swap1\n      pop\n        /* \"#utility.yul\":2200:2233   */\n      tag_133\n        /* \"#utility.yul\":2227:2232   */\n      dup2\n        /* \"#utility.yul\":2200:2233   */\n      tag_134\n      jump\t// in\n    tag_133:\n        /* \"#utility.yul\":2152:2239   */\n      swap3\n      swap2\n      pop\n      pop\n      jump\t// out\n        /* \"#utility.yul\":2245:2507   */\n    tag_37:\n      0x00\n        /* \"#utility.yul\":2353:2355   */\n      0x20\n        /* \"#utility.yul\":2341:2350   */\n      dup3\n        /* \"#utility.yul\":2332:2339   */\n      dup5\n        /* \"#utility.yul\":2328:2351   */\n      sub\n        /* \"#utility.yul\":2324:2356   */\n      slt\n        /* \"#utility.yul\":2321:2323   */\n      iszero\n      tag_136\n      jumpi\n        /* \"#utility.yul\":2369:2370   */\n      0x00\n        /* \"#utility.yul\":2366:2367   */\n      dup1\n        /* \"#utility.yul\":2359:2371   */\n      revert\n        /* \"#utility.yul\":2321:2323   */\n    tag_136:\n        /* \"#utility.yul\":2412:2413   */\n      0x00\n        /* \"#utility.yul\":2437:2490   */\n      tag_137\n        /* \"#utility.yul\":2482:2489   */\n      dup5\n        /* \"#utility.yul\":2473:2479   */\n      dup3\n        /* \"#utility.yul\":2462:2471   */\n      dup6\n        /* \"#utility.yul\":2458:2480   */\n      add\n        /* \"#utility.yul\":2437:2490   */\n      tag_115\n      jump\t// in\n    tag_137:\n        /* \"#utility.yul\":2427:2490   */\n      swap2\n      pop\n        /* \"#utility.yul\":2383:2500   */\n      pop\n        /* \"#utility.yul\":2311:2507   */\n      swap3\n      swap2\n      pop\n      pop\n      jump\t// out\n        /* \"#utility.yul\":2513:3031   */\n    tag_26:\n      0x00\n      dup1\n        /* \"#utility.yul\":2647:2649   */\n      0x40\n        /* \"#utility.yul\":2635:2644   */\n      dup4\n        /* \"#utility.yul\":2626:2633   */\n      dup6\n        /* \"#utility.yul\":2622:2645   */\n      sub\n        /* \"#utility.yul\":2618:2650   */\n      slt\n        /* \"#utility.yul\":2615:2617   */\n      iszero\n      tag_139\n      jumpi\n        /* \"#utility.yul\":2663:2664   */\n      0x00\n        /* \"#utility.yul\":2660:2661   */\n      dup1\n        /* \"#utility.yul\":2653:2665   */\n      revert\n        /* \"#utility.yul\":2615:2617   */\n    tag_139:\n        /* \"#utility.yul\":2706:2707   */\n      0x00\n        /* \"#utility.yul\":2731:2784   */\n      tag_140\n        /* \"#utility.yul\":2776:2783   */\n      dup6\n        /* \"#utility.yul\":2767:2773   */\n      dup3\n        /* \"#utility.yul\":2756:2765   */\n      dup7\n        /* \"#utility.yul\":2752:2774   */\n      add\n        /* \"#utility.yul\":2731:2784   */\n      tag_115\n      jump\t// in\n    tag_140:\n        /* \"#utility.yul\":2721:2784   */\n      swap3\n      pop\n        /* \"#utility.yul\":2677:2794   */\n      pop\n        /* \"#utility.yul\":2861:2863   */\n      0x20\n        /* \"#utility.yul\":2850:2859   */\n      dup4\n        /* \"#utility.yul\":2846:2864   */\n      add\n        /* \"#utility.yul\":2833:2865   */\n      calldataload\n        /* \"#utility.yul\":2892:2910   */\n      0xffffffffffffffff\n        /* \"#utility.yul\":2884:2890   */\n      dup2\n        /* \"#utility.yul\":2881:2911   */\n      gt\n        /* \"#utility.yul\":2878:2880   */\n      iszero\n      tag_141\n      jumpi\n        /* \"#utility.yul\":2924:2925   */\n      0x00\n        /* \"#utility.yul\":2921:2922   */\n      dup1\n        /* \"#utility.yul\":2914:2926   */\n      revert\n        /* \"#utility.yul\":2878:2880   */\n    tag_141:\n        /* \"#utility.yul\":2952:3014   */\n      tag_142\n        /* \"#utility.yul\":3006:3013   */\n      dup6\n        /* \"#utility.yul\":2997:3003   */\n      dup3\n        /* \"#utility.yul\":2986:2995   */\n      dup7\n        /* \"#utility.yul\":2982:3004   */\n      add\n        /* \"#utility.yul\":2952:3014   */\n      tag_119\n      jump\t// in\n    tag_142:\n        /* \"#utility.yul\":2942:3014   */\n      swap2\n      pop\n        /* \"#utility.yul\":2804:3024   */\n      pop\n        /* \"#utility.yul\":2605:3031   */\n      swap3\n      pop\n      swap3\n      swap1\n      pop\n      jump\t// out\n        /* \"#utility.yul\":3037:3702   */\n    tag_43:\n      0x00\n      dup1\n      0x00\n        /* \"#utility.yul\":3189:3191   */\n      0x60\n        /* \"#utility.yul\":3177:3186   */\n      dup5\n        /* \"#utility.yul\":3168:3175   */\n      dup7\n        /* \"#utility.yul\":3164:3187   */\n      sub\n        /* \"#utility.yul\":3160:3192   */\n      slt\n        /* \"#utility.yul\":3157:3159   */\n      iszero\n      tag_144\n      jumpi\n        /* \"#utility.yul\":3205:3206   */\n      0x00\n        /* \"#utility.yul\":3202:3203   */\n      dup1\n        /* \"#utility.yul\":3195:3207   */\n      revert\n        /* \"#utility.yul\":3157:3159   */\n    tag_144:\n        /* \"#utility.yul\":3248:3249   */\n      0x00\n        /* \"#utility.yul\":3273:3326   */\n      tag_145\n        /* \"#utility.yul\":3318:3325   */\n      dup7\n        /* \"#utility.yul\":3309:3315   */\n      dup3\n        /* \"#utility.yul\":3298:3307   */\n      dup8\n        /* \"#utility.yul\":3294:3316   */\n      add\n        /* \"#utility.yul\":3273:3326   */\n      tag_115\n      jump\t// in\n    tag_145:\n        /* \"#utility.yul\":3263:3326   */\n      swap4\n      pop\n        /* \"#utility.yul\":3219:3336   */\n      pop\n        /* \"#utility.yul\":3403:3405   */\n      0x20\n        /* \"#utility.yul\":3392:3401   */\n      dup5\n        /* \"#utility.yul\":3388:3406   */\n      add\n        /* \"#utility.yul\":3375:3407   */\n      calldataload\n        /* \"#utility.yul\":3434:3452   */\n      0xffffffffffffffff\n        /* \"#utility.yul\":3426:3432   */\n      dup2\n        /* \"#utility.yul\":3423:3453   */\n      gt\n        /* \"#utility.yul\":3420:3422   */\n      iszero\n      tag_146\n      jumpi\n        /* \"#utility.yul\":3466:3467   */\n      0x00\n        /* \"#utility.yul\":3463:3464   */\n      dup1\n        /* \"#utility.yul\":3456:3468   */\n      revert\n        /* \"#utility.yul\":3420:3422   */\n    tag_146:\n        /* \"#utility.yul\":3494:3557   */\n      tag_147\n        /* \"#utility.yul\":3549:3556   */\n      dup7\n        /* \"#utility.yul\":3540:3546   */\n      dup3\n        /* \"#utility.yul\":3529:3538   */\n      dup8\n        /* \"#utility.yul\":3525:3547   */\n      add\n        /* \"#utility.yul\":3494:3557   */\n      tag_123\n      jump\t// in\n    tag_147:\n        /* \"#utility.yul\":3484:3557   */\n      swap3\n      pop\n        /* \"#utility.yul\":3346:3567   */\n      pop\n        /* \"#utility.yul\":3606:3608   */\n      0x40\n        /* \"#utility.yul\":3632:3685   */\n      tag_148\n        /* \"#utility.yul\":3677:3684   */\n      dup7\n        /* \"#utility.yul\":3668:3674   */\n      dup3\n        /* \"#utility.yul\":3657:3666   */\n      dup8\n        /* \"#utility.yul\":3653:3675   */\n      add\n        /* \"#utility.yul\":3632:3685   */\n      tag_131\n      jump\t// in\n    tag_148:\n        /* \"#utility.yul\":3622:3685   */\n      swap2\n      pop\n        /* \"#utility.yul\":3577:3695   */\n      pop\n        /* \"#utility.yul\":3147:3702   */\n      swap3\n      pop\n      swap3\n      pop\n      swap3\n      jump\t// out\n        /* \"#utility.yul\":3708:4098   */\n    tag_71:\n      0x00\n        /* \"#utility.yul\":3837:3839   */\n      0x20\n        /* \"#utility.yul\":3825:3834   */\n      dup3\n        /* \"#utility.yul\":3816:3823   */\n      dup5\n        /* \"#utility.yul\":3812:3835   */\n      sub\n        /* \"#utility.yul\":3808:3840   */\n      slt\n        /* \"#utility.yul\":3805:3807   */\n      iszero\n      tag_150\n      jumpi\n        /* \"#utility.yul\":3853:3854   */\n      0x00\n        /* \"#utility.yul\":3850:3851   */\n      dup1\n        /* \"#utility.yul\":3843:3855   */\n      revert\n        /* \"#utility.yul\":3805:3807   */\n    tag_150:\n        /* \"#utility.yul\":3917:3918   */\n      0x00\n        /* \"#utility.yul\":3906:3915   */\n      dup3\n        /* \"#utility.yul\":3902:3919   */\n      add\n        /* \"#utility.yul\":3896:3920   */\n      mload\n        /* \"#utility.yul\":3947:3965   */\n      0xffffffffffffffff\n        /* \"#utility.yul\":3939:3945   */\n      dup2\n        /* \"#utility.yul\":3936:3966   */\n      gt\n        /* \"#utility.yul\":3933:3935   */\n      iszero\n      tag_151\n      jumpi\n        /* \"#utility.yul\":3979:3980   */\n      0x00\n        /* \"#utility.yul\":3976:3977   */\n      dup1\n        /* \"#utility.yul\":3969:3981   */\n      revert\n        /* \"#utility.yul\":3933:3935   */\n    tag_151:\n        /* \"#utility.yul\":4007:4081   */\n      tag_152\n        /* \"#utility.yul\":4073:4080   */\n      dup5\n        /* \"#utility.yul\":4064:4070   */\n      dup3\n        /* \"#utility.yul\":4053:4062   */\n      dup6\n        /* \"#utility.yul\":4049:4071   */\n      add\n        /* \"#utility.yul\":4007:4081   */\n      tag_127\n      jump\t// in\n    tag_152:\n        /* \"#utility.yul\":3997:4081   */\n      swap2\n      pop\n        /* \"#utility.yul\":3867:4091   */\n      pop\n        /* \"#utility.yul\":3795:4098   */\n      swap3\n      swap2\n      pop\n      pop\n      jump\t// out\n        /* \"#utility.yul\":4104:4366   */\n    tag_31:\n      0x00\n        /* \"#utility.yul\":4212:4214   */\n      0x20\n        /* \"#utility.yul\":4200:4209   */\n      dup3\n        /* \"#utility.yul\":4191:4198   */\n      dup5\n        /* \"#utility.yul\":4187:4210   */\n      sub\n        /* \"#utility.yul\":4183:4215   */\n      slt\n        /* \"#utility.yul\":4180:4182   */\n      iszero\n      tag_154\n      jumpi\n        /* \"#utility.yul\":4228:4229   */\n      0x00\n        /* \"#utility.yul\":4225:4226   */\n      dup1\n        /* \"#utility.yul\":4218:4230   */\n      revert\n        /* \"#utility.yul\":4180:4182   */\n    tag_154:\n        /* \"#utility.yul\":4271:4272   */\n      0x00\n        /* \"#utility.yul\":4296:4349   */\n      tag_155\n        /* \"#utility.yul\":4341:4348   */\n      dup5\n        /* \"#utility.yul\":4332:4338   */\n      dup3\n        /* \"#utility.yul\":4321:4330   */\n      dup6\n        /* \"#utility.yul\":4317:4339   */\n      add\n        /* \"#utility.yul\":4296:4349   */\n      tag_131\n      jump\t// in\n    tag_155:\n        /* \"#utility.yul\":4286:4349   */\n      swap2\n      pop\n        /* \"#utility.yul\":4242:4359   */\n      pop\n        /* \"#utility.yul\":4170:4366   */\n      swap3\n      swap2\n      pop\n      pop\n      jump\t// out\n        /* \"#utility.yul\":4372:4490   */\n    tag_156:\n        /* \"#utility.yul\":4459:4483   */\n      tag_158\n        /* \"#utility.yul\":4477:4482   */\n      dup2\n        /* \"#utility.yul\":4459:4483   */\n      tag_159\n      jump\t// in\n    tag_158:\n        /* \"#utility.yul\":4454:4457   */\n      dup3\n        /* \"#utility.yul\":4447:4484   */\n      mstore\n        /* \"#utility.yul\":4437:4490   */\n      pop\n      pop\n      jump\t// out\n        /* \"#utility.yul\":4518:4819   */\n    tag_160:\n      0x00\n        /* \"#utility.yul\":4635:4705   */\n      tag_162\n        /* \"#utility.yul\":4698:4704   */\n      dup4\n        /* \"#utility.yul\":4693:4696   */\n      dup6\n        /* \"#utility.yul\":4635:4705   */\n      tag_163\n      jump\t// in\n    tag_162:\n        /* \"#utility.yul\":4628:4705   */\n      swap4\n      pop\n        /* \"#utility.yul\":4715:4758   */\n      tag_164\n        /* \"#utility.yul\":4751:4757   */\n      dup4\n        /* \"#utility.yul\":4746:4749   */\n      dup6\n        /* \"#utility.yul\":4739:4744   */\n      dup5\n        /* \"#utility.yul\":4715:4758   */\n      tag_100\n      jump\t// in\n    tag_164:\n        /* \"#utility.yul\":4783:4812   */\n      tag_165\n        /* \"#utility.yul\":4805:4811   */\n      dup4\n        /* \"#utility.yul\":4783:4812   */\n      tag_166\n      jump\t// in\n    tag_165:\n        /* \"#utility.yul\":4778:4781   */\n      dup5\n        /* \"#utility.yul\":4774:4813   */\n      add\n        /* \"#utility.yul\":4767:4813   */\n      swap1\n      pop\n        /* \"#utility.yul\":4618:4819   */\n      swap4\n      swap3\n      pop\n      pop\n      pop\n      jump\t// out\n        /* \"#utility.yul\":4825:5198   */\n    tag_167:\n      0x00\n        /* \"#utility.yul\":4957:4995   */\n      tag_169\n        /* \"#utility.yul\":4989:4994   */\n      dup3\n        /* \"#utility.yul\":4957:4995   */\n      tag_170\n      jump\t// in\n    tag_169:\n        /* \"#utility.yul\":5011:5099   */\n      tag_171\n        /* \"#utility.yul\":5092:5098   */\n      dup2\n        /* \"#utility.yul\":5087:5090   */\n      dup6\n        /* \"#utility.yul\":5011:5099   */\n      tag_172\n      jump\t// in\n    tag_171:\n        /* \"#utility.yul\":5004:5099   */\n      swap4\n      pop\n        /* \"#utility.yul\":5108:5160   */\n      tag_173\n        /* \"#utility.yul\":5153:5159   */\n      dup2\n        /* \"#utility.yul\":5148:5151   */\n      dup6\n        /* \"#utility.yul\":5141:5145   */\n      0x20\n        /* \"#utility.yul\":5134:5139   */\n      dup7\n        /* \"#utility.yul\":5130:5146   */\n      add\n        /* \"#utility.yul\":5108:5160   */\n      tag_114\n      jump\t// in\n    tag_173:\n        /* \"#utility.yul\":5185:5191   */\n      dup1\n        /* \"#utility.yul\":5180:5183   */\n      dup5\n        /* \"#utility.yul\":5176:5192   */\n      add\n        /* \"#utility.yul\":5169:5192   */\n      swap2\n      pop\n        /* \"#utility.yul\":4933:5198   */\n      pop\n      swap3\n      swap2\n      pop\n      pop\n      jump\t// out\n        /* \"#utility.yul\":5204:5568   */\n    tag_174:\n      0x00\n        /* \"#utility.yul\":5320:5359   */\n      tag_176\n        /* \"#utility.yul\":5353:5358   */\n      dup3\n        /* \"#utility.yul\":5320:5359   */\n      tag_177\n      jump\t// in\n    tag_176:\n        /* \"#utility.yul\":5375:5446   */\n      tag_178\n        /* \"#utility.yul\":5439:5445   */\n      dup2\n        /* \"#utility.yul\":5434:5437   */\n      dup6\n        /* \"#utility.yul\":5375:5446   */\n      tag_179\n      jump\t// in\n    tag_178:\n        /* \"#utility.yul\":5368:5446   */\n      swap4\n      pop\n        /* \"#utility.yul\":5455:5507   */\n      tag_180\n        /* \"#utility.yul\":5500:5506   */\n      dup2\n        /* \"#utility.yul\":5495:5498   */\n      dup6\n        /* \"#utility.yul\":5488:5492   */\n      0x20\n        /* \"#utility.yul\":5481:5486   */\n      dup7\n        /* \"#utility.yul\":5477:5493   */\n      add\n        /* \"#utility.yul\":5455:5507   */\n      tag_114\n      jump\t// in\n    tag_180:\n        /* \"#utility.yul\":5532:5561   */\n      tag_181\n        /* \"#utility.yul\":5554:5560   */\n      dup2\n        /* \"#utility.yul\":5532:5561   */\n      tag_166\n      jump\t// in\n    tag_181:\n        /* \"#utility.yul\":5527:5530   */\n      dup5\n        /* \"#utility.yul\":5523:5562   */\n      add\n        /* \"#utility.yul\":5516:5562   */\n      swap2\n      pop\n        /* \"#utility.yul\":5296:5568   */\n      pop\n      swap3\n      swap2\n      pop\n      pop\n      jump\t// out\n        /* \"#utility.yul\":5574:5882   */\n    tag_182:\n      0x00\n        /* \"#utility.yul\":5737:5804   */\n      tag_184\n        /* \"#utility.yul\":5801:5803   */\n      0x0a\n        /* \"#utility.yul\":5796:5799   */\n      dup4\n        /* \"#utility.yul\":5737:5804   */\n      tag_179\n      jump\t// in\n    tag_184:\n        /* \"#utility.yul\":5730:5804   */\n      swap2\n      pop\n        /* \"#utility.yul\":5834:5846   */\n      0x63616c6c20466169656400000000000000000000000000000000000000000000\n        /* \"#utility.yul\":5830:5831   */\n      0x00\n        /* \"#utility.yul\":5825:5828   */\n      dup4\n        /* \"#utility.yul\":5821:5832   */\n      add\n        /* \"#utility.yul\":5814:5847   */\n      mstore\n        /* \"#utility.yul\":5873:5875   */\n      0x20\n        /* \"#utility.yul\":5868:5871   */\n      dup3\n        /* \"#utility.yul\":5864:5876   */\n      add\n        /* \"#utility.yul\":5857:5876   */\n      swap1\n      pop\n        /* \"#utility.yul\":5720:5882   */\n      swap2\n      swap1\n      pop\n      jump\t// out\n        /* \"#utility.yul\":5888:6193   */\n    tag_185:\n      0x00\n        /* \"#utility.yul\":6051:6117   */\n      tag_187\n        /* \"#utility.yul\":6115:6116   */\n      0x08\n        /* \"#utility.yul\":6110:6113   */\n      dup4\n        /* \"#utility.yul\":6051:6117   */\n      tag_179\n      jump\t// in\n    tag_187:\n        /* \"#utility.yul\":6044:6117   */\n      swap2\n      pop\n        /* \"#utility.yul\":6147:6157   */\n      0x66616c6c6261636b000000000000000000000000000000000000000000000000\n        /* \"#utility.yul\":6143:6144   */\n      0x00\n        /* \"#utility.yul\":6138:6141   */\n      dup4\n        /* \"#utility.yul\":6134:6145   */\n      add\n        /* \"#utility.yul\":6127:6158   */\n      mstore\n        /* \"#utility.yul\":6184:6186   */\n      0x20\n        /* \"#utility.yul\":6179:6182   */\n      dup3\n        /* \"#utility.yul\":6175:6187   */\n      add\n        /* \"#utility.yul\":6168:6187   */\n      swap1\n      pop\n        /* \"#utility.yul\":6034:6193   */\n      swap2\n      swap1\n      pop\n      jump\t// out\n        /* \"#utility.yul\":6199:6460   */\n    tag_188:\n      0x00\n        /* \"#utility.yul\":6361:6426   */\n      tag_190\n        /* \"#utility.yul\":6424:6425   */\n      0x00\n        /* \"#utility.yul\":6419:6422   */\n      dup4\n        /* \"#utility.yul\":6361:6426   */\n      tag_163\n      jump\t// in\n    tag_190:\n        /* \"#utility.yul\":6354:6426   */\n      swap2\n      pop\n        /* \"#utility.yul\":6452:6453   */\n      0x00\n        /* \"#utility.yul\":6447:6450   */\n      dup3\n        /* \"#utility.yul\":6443:6454   */\n      add\n        /* \"#utility.yul\":6436:6454   */\n      swap1\n      pop\n        /* \"#utility.yul\":6344:6460   */\n      swap2\n      swap1\n      pop\n      jump\t// out\n        /* \"#utility.yul\":6466:6770   */\n    tag_191:\n      0x00\n        /* \"#utility.yul\":6629:6695   */\n      tag_193\n        /* \"#utility.yul\":6693:6694   */\n      0x07\n        /* \"#utility.yul\":6688:6691   */\n      dup4\n        /* \"#utility.yul\":6629:6695   */\n      tag_179\n      jump\t// in\n    tag_193:\n        /* \"#utility.yul\":6622:6695   */\n      swap2\n      pop\n        /* \"#utility.yul\":6725:6734   */\n      0x7265636569766500000000000000000000000000000000000000000000000000\n        /* \"#utility.yul\":6721:6722   */\n      0x00\n        /* \"#utility.yul\":6716:6719   */\n      dup4\n        /* \"#utility.yul\":6712:6723   */\n      add\n        /* \"#utility.yul\":6705:6735   */\n      mstore\n        /* \"#utility.yul\":6761:6763   */\n      0x20\n        /* \"#utility.yul\":6756:6759   */\n      dup3\n        /* \"#utility.yul\":6752:6764   */\n      add\n        /* \"#utility.yul\":6745:6764   */\n      swap1\n      pop\n        /* \"#utility.yul\":6612:6770   */\n      swap2\n      swap1\n      pop\n      jump\t// out\n        /* \"#utility.yul\":6776:7085   */\n    tag_194:\n      0x00\n        /* \"#utility.yul\":6939:7006   */\n      tag_196\n        /* \"#utility.yul\":7003:7005   */\n      0x0b\n        /* \"#utility.yul\":6998:7001   */\n      dup4\n        /* \"#utility.yul\":6939:7006   */\n      tag_179\n      jump\t// in\n    tag_196:\n        /* \"#utility.yul\":6932:7006   */\n      swap2\n      pop\n        /* \"#utility.yul\":7036:7049   */\n      0x43616c6c204661696c6564000000000000000000000000000000000000000000\n        /* \"#utility.yul\":7032:7033   */\n      0x00\n        /* \"#utility.yul\":7027:7030   */\n      dup4\n        /* \"#utility.yul\":7023:7034   */\n      add\n        /* \"#utility.yul\":7016:7050   */\n      mstore\n        /* \"#utility.yul\":7076:7078   */\n      0x20\n        /* \"#utility.yul\":7071:7074   */\n      dup3\n        /* \"#utility.yul\":7067:7079   */\n      add\n        /* \"#utility.yul\":7060:7079   */\n      swap1\n      pop\n        /* \"#utility.yul\":6922:7085   */\n      swap2\n      swap1\n      pop\n      jump\t// out\n        /* \"#utility.yul\":7091:7209   */\n    tag_197:\n        /* \"#utility.yul\":7178:7202   */\n      tag_199\n        /* \"#utility.yul\":7196:7201   */\n      dup2\n        /* \"#utility.yul\":7178:7202   */\n      tag_200\n      jump\t// in\n    tag_199:\n        /* \"#utility.yul\":7173:7176   */\n      dup3\n        /* \"#utility.yul\":7166:7203   */\n      mstore\n        /* \"#utility.yul\":7156:7209   */\n      pop\n      pop\n      jump\t// out\n        /* \"#utility.yul\":7215:7486   */\n    tag_56:\n      0x00\n        /* \"#utility.yul\":7367:7460   */\n      tag_202\n        /* \"#utility.yul\":7456:7459   */\n      dup3\n        /* \"#utility.yul\":7447:7453   */\n      dup5\n        /* \"#utility.yul\":7367:7460   */\n      tag_167\n      jump\t// in\n    tag_202:\n        /* \"#utility.yul\":7360:7460   */\n      swap2\n      pop\n        /* \"#utility.yul\":7477:7480   */\n      dup2\n        /* \"#utility.yul\":7470:7480   */\n      swap1\n      pop\n        /* \"#utility.yul\":7349:7486   */\n      swap3\n      swap2\n      pop\n      pop\n      jump\t// out\n        /* \"#utility.yul\":7492:7805   */\n    tag_40:\n      0x00\n        /* \"#utility.yul\":7643:7645   */\n      0x20\n        /* \"#utility.yul\":7632:7641   */\n      dup3\n        /* \"#utility.yul\":7628:7646   */\n      add\n        /* \"#utility.yul\":7620:7646   */\n      swap1\n      pop\n        /* \"#utility.yul\":7692:7701   */\n      dup2\n        /* \"#utility.yul\":7686:7690   */\n      dup2\n        /* \"#utility.yul\":7682:7702   */\n      sub\n        /* \"#utility.yul\":7678:7679   */\n      0x00\n        /* \"#utility.yul\":7667:7676   */\n      dup4\n        /* \"#utility.yul\":7663:7680   */\n      add\n        /* \"#utility.yul\":7656:7703   */\n      mstore\n        /* \"#utility.yul\":7720:7798   */\n      tag_204\n        /* \"#utility.yul\":7793:7797   */\n      dup2\n        /* \"#utility.yul\":7784:7790   */\n      dup5\n        /* \"#utility.yul\":7720:7798   */\n      tag_174\n      jump\t// in\n    tag_204:\n        /* \"#utility.yul\":7712:7798   */\n      swap1\n      pop\n        /* \"#utility.yul\":7610:7805   */\n      swap3\n      swap2\n      pop\n      pop\n      jump\t// out\n        /* \"#utility.yul\":7811:8234   */\n    tag_75:\n      0x00\n        /* \"#utility.yul\":7990:7992   */\n      0x40\n        /* \"#utility.yul\":7979:7988   */\n      dup3\n        /* \"#utility.yul\":7975:7993   */\n      add\n        /* \"#utility.yul\":7967:7993   */\n      swap1\n      pop\n        /* \"#utility.yul\":8039:8048   */\n      dup2\n        /* \"#utility.yul\":8033:8037   */\n      dup2\n        /* \"#utility.yul\":8029:8049   */\n      sub\n        /* \"#utility.yul\":8025:8026   */\n      0x00\n        /* \"#utility.yul\":8014:8023   */\n      dup4\n        /* \"#utility.yul\":8010:8027   */\n      add\n        /* \"#utility.yul\":8003:8050   */\n      mstore\n        /* \"#utility.yul\":8067:8145   */\n      tag_206\n        /* \"#utility.yul\":8140:8144   */\n      dup2\n        /* \"#utility.yul\":8131:8137   */\n      dup6\n        /* \"#utility.yul\":8067:8145   */\n      tag_174\n      jump\t// in\n    tag_206:\n        /* \"#utility.yul\":8059:8145   */\n      swap1\n      pop\n        /* \"#utility.yul\":8155:8227   */\n      tag_207\n        /* \"#utility.yul\":8223:8225   */\n      0x20\n        /* \"#utility.yul\":8212:8221   */\n      dup4\n        /* \"#utility.yul\":8208:8226   */\n      add\n        /* \"#utility.yul\":8199:8205   */\n      dup5\n        /* \"#utility.yul\":8155:8227   */\n      tag_197\n      jump\t// in\n    tag_207:\n        /* \"#utility.yul\":7957:8234   */\n      swap4\n      swap3\n      pop\n      pop\n      pop\n      jump\t// out\n        /* \"#utility.yul\":8240:8659   */\n    tag_62:\n      0x00\n        /* \"#utility.yul\":8444:8446   */\n      0x20\n        /* \"#utility.yul\":8433:8442   */\n      dup3\n        /* \"#utility.yul\":8429:8447   */\n      add\n        /* \"#utility.yul\":8421:8447   */\n      swap1\n      pop\n        /* \"#utility.yul\":8493:8502   */\n      dup2\n        /* \"#utility.yul\":8487:8491   */\n      dup2\n        /* \"#utility.yul\":8483:8503   */\n      sub\n        /* \"#utility.yul\":8479:8480   */\n      0x00\n        /* \"#utility.yul\":8468:8477   */\n      dup4\n        /* \"#utility.yul\":8464:8481   */\n      add\n        /* \"#utility.yul\":8457:8504   */\n      mstore\n        /* \"#utility.yul\":8521:8652   */\n      tag_209\n        /* \"#utility.yul\":8647:8651   */\n      dup2\n        /* \"#utility.yul\":8521:8652   */\n      tag_182\n      jump\t// in\n    tag_209:\n        /* \"#utility.yul\":8513:8652   */\n      swap1\n      pop\n        /* \"#utility.yul\":8411:8659   */\n      swap2\n      swap1\n      pop\n      jump\t// out\n        /* \"#utility.yul\":8665:9522   */\n    tag_18:\n      0x00\n        /* \"#utility.yul\":8981:8984   */\n      0x80\n        /* \"#utility.yul\":8970:8979   */\n      dup3\n        /* \"#utility.yul\":8966:8985   */\n      add\n        /* \"#utility.yul\":8958:8985   */\n      swap1\n      pop\n        /* \"#utility.yul\":9031:9040   */\n      dup2\n        /* \"#utility.yul\":9025:9029   */\n      dup2\n        /* \"#utility.yul\":9021:9041   */\n      sub\n        /* \"#utility.yul\":9017:9018   */\n      0x00\n        /* \"#utility.yul\":9006:9015   */\n      dup4\n        /* \"#utility.yul\":9002:9019   */\n      add\n        /* \"#utility.yul\":8995:9042   */\n      mstore\n        /* \"#utility.yul\":9059:9190   */\n      tag_211\n        /* \"#utility.yul\":9185:9189   */\n      dup2\n        /* \"#utility.yul\":9059:9190   */\n      tag_185\n      jump\t// in\n    tag_211:\n        /* \"#utility.yul\":9051:9190   */\n      swap1\n      pop\n        /* \"#utility.yul\":9200:9272   */\n      tag_212\n        /* \"#utility.yul\":9268:9270   */\n      0x20\n        /* \"#utility.yul\":9257:9266   */\n      dup4\n        /* \"#utility.yul\":9253:9271   */\n      add\n        /* \"#utility.yul\":9244:9250   */\n      dup8\n        /* \"#utility.yul\":9200:9272   */\n      tag_156\n      jump\t// in\n    tag_212:\n        /* \"#utility.yul\":9282:9354   */\n      tag_213\n        /* \"#utility.yul\":9350:9352   */\n      0x40\n        /* \"#utility.yul\":9339:9348   */\n      dup4\n        /* \"#utility.yul\":9335:9353   */\n      add\n        /* \"#utility.yul\":9326:9332   */\n      dup7\n        /* \"#utility.yul\":9282:9354   */\n      tag_197\n      jump\t// in\n    tag_213:\n        /* \"#utility.yul\":9401:9410   */\n      dup2\n        /* \"#utility.yul\":9395:9399   */\n      dup2\n        /* \"#utility.yul\":9391:9411   */\n      sub\n        /* \"#utility.yul\":9386:9388   */\n      0x60\n        /* \"#utility.yul\":9375:9384   */\n      dup4\n        /* \"#utility.yul\":9371:9389   */\n      add\n        /* \"#utility.yul\":9364:9412   */\n      mstore\n        /* \"#utility.yul\":9429:9515   */\n      tag_214\n        /* \"#utility.yul\":9510:9514   */\n      dup2\n        /* \"#utility.yul\":9501:9507   */\n      dup5\n        /* \"#utility.yul\":9493:9499   */\n      dup7\n        /* \"#utility.yul\":9429:9515   */\n      tag_160\n      jump\t// in\n    tag_214:\n        /* \"#utility.yul\":9421:9515   */\n      swap1\n      pop\n        /* \"#utility.yul\":8948:9522   */\n      swap6\n      swap5\n      pop\n      pop\n      pop\n      pop\n      pop\n      jump\t// out\n        /* \"#utility.yul\":9528:10473   */\n    tag_14:\n      0x00\n        /* \"#utility.yul\":9888:9891   */\n      0x80\n        /* \"#utility.yul\":9877:9886   */\n      dup3\n        /* \"#utility.yul\":9873:9892   */\n      add\n        /* \"#utility.yul\":9865:9892   */\n      swap1\n      pop\n        /* \"#utility.yul\":9938:9947   */\n      dup2\n        /* \"#utility.yul\":9932:9936   */\n      dup2\n        /* \"#utility.yul\":9928:9948   */\n      sub\n        /* \"#utility.yul\":9924:9925   */\n      0x00\n        /* \"#utility.yul\":9913:9922   */\n      dup4\n        /* \"#utility.yul\":9909:9926   */\n      add\n        /* \"#utility.yul\":9902:9949   */\n      mstore\n        /* \"#utility.yul\":9966:10097   */\n      tag_216\n        /* \"#utility.yul\":10092:10096   */\n      dup2\n        /* \"#utility.yul\":9966:10097   */\n      tag_191\n      jump\t// in\n    tag_216:\n        /* \"#utility.yul\":9958:10097   */\n      swap1\n      pop\n        /* \"#utility.yul\":10107:10179   */\n      tag_217\n        /* \"#utility.yul\":10175:10177   */\n      0x20\n        /* \"#utility.yul\":10164:10173   */\n      dup4\n        /* \"#utility.yul\":10160:10178   */\n      add\n        /* \"#utility.yul\":10151:10157   */\n      dup6\n        /* \"#utility.yul\":10107:10179   */\n      tag_156\n      jump\t// in\n    tag_217:\n        /* \"#utility.yul\":10189:10261   */\n      tag_218\n        /* \"#utility.yul\":10257:10259   */\n      0x40\n        /* \"#utility.yul\":10246:10255   */\n      dup4\n        /* \"#utility.yul\":10242:10260   */\n      add\n        /* \"#utility.yul\":10233:10239   */\n      dup5\n        /* \"#utility.yul\":10189:10261   */\n      tag_197\n      jump\t// in\n    tag_218:\n        /* \"#utility.yul\":10308:10317   */\n      dup2\n        /* \"#utility.yul\":10302:10306   */\n      dup2\n        /* \"#utility.yul\":10298:10318   */\n      sub\n        /* \"#utility.yul\":10293:10295   */\n      0x60\n        /* \"#utility.yul\":10282:10291   */\n      dup4\n        /* \"#utility.yul\":10278:10296   */\n      add\n        /* \"#utility.yul\":10271:10319   */\n      mstore\n        /* \"#utility.yul\":10336:10466   */\n      tag_219\n        /* \"#utility.yul\":10461:10465   */\n      dup2\n        /* \"#utility.yul\":10336:10466   */\n      tag_188\n      jump\t// in\n    tag_219:\n        /* \"#utility.yul\":10328:10466   */\n      swap1\n      pop\n        /* \"#utility.yul\":9855:10473   */\n      swap4\n      swap3\n      pop\n      pop\n      pop\n      jump\t// out\n        /* \"#utility.yul\":10479:10898   */\n    tag_82:\n      0x00\n        /* \"#utility.yul\":10683:10685   */\n      0x20\n        /* \"#utility.yul\":10672:10681   */\n      dup3\n        /* \"#utility.yul\":10668:10686   */\n      add\n        /* \"#utility.yul\":10660:10686   */\n      swap1\n      pop\n        /* \"#utility.yul\":10732:10741   */\n      dup2\n        /* \"#utility.yul\":10726:10730   */\n      dup2\n        /* \"#utility.yul\":10722:10742   */\n      sub\n        /* \"#utility.yul\":10718:10719   */\n      0x00\n        /* \"#utility.yul\":10707:10716   */\n      dup4\n        /* \"#utility.yul\":10703:10720   */\n      add\n        /* \"#utility.yul\":10696:10743   */\n      mstore\n        /* \"#utility.yul\":10760:10891   */\n      tag_221\n        /* \"#utility.yul\":10886:10890   */\n      dup2\n        /* \"#utility.yul\":10760:10891   */\n      tag_194\n      jump\t// in\n    tag_221:\n        /* \"#utility.yul\":10752:10891   */\n      swap1\n      pop\n        /* \"#utility.yul\":10650:10898   */\n      swap2\n      swap1\n      pop\n      jump\t// out\n        /* \"#utility.yul\":10904:11126   */\n    tag_23:\n      0x00\n        /* \"#utility.yul\":11035:11037   */\n      0x20\n        /* \"#utility.yul\":11024:11033   */\n      dup3\n        /* \"#utility.yul\":11020:11038   */\n      add\n        /* \"#utility.yul\":11012:11038   */\n      swap1\n      pop\n        /* \"#utility.yul\":11048:11119   */\n      tag_223\n        /* \"#utility.yul\":11116:11117   */\n      0x00\n        /* \"#utility.yul\":11105:11114   */\n      dup4\n        /* \"#utility.yul\":11101:11118   */\n      add\n        /* \"#utility.yul\":11092:11098   */\n      dup5\n        /* \"#utility.yul\":11048:11119   */\n      tag_197\n      jump\t// in\n    tag_223:\n        /* \"#utility.yul\":11002:11126   */\n      swap3\n      swap2\n      pop\n      pop\n      jump\t// out\n        /* \"#utility.yul\":11132:11415   */\n    tag_97:\n      0x00\n        /* \"#utility.yul\":11198:11200   */\n      0x40\n        /* \"#utility.yul\":11192:11201   */\n      mload\n        /* \"#utility.yul\":11182:11201   */\n      swap1\n      pop\n        /* \"#utility.yul\":11240:11244   */\n      dup2\n        /* \"#utility.yul\":11232:11238   */\n      dup2\n        /* \"#utility.yul\":11228:11245   */\n      add\n        /* \"#utility.yul\":11347:11353   */\n      dup2\n        /* \"#utility.yul\":11335:11345   */\n      dup2\n        /* \"#utility.yul\":11332:11354   */\n      lt\n        /* \"#utility.yul\":11311:11329   */\n      0xffffffffffffffff\n        /* \"#utility.yul\":11299:11309   */\n      dup3\n        /* \"#utility.yul\":11296:11330   */\n      gt\n        /* \"#utility.yul\":11293:11355   */\n      or\n        /* \"#utility.yul\":11290:11292   */\n      iszero\n      tag_225\n      jumpi\n        /* \"#utility.yul\":11358:11376   */\n      tag_226\n      tag_227\n      jump\t// in\n    tag_226:\n        /* \"#utility.yul\":11290:11292   */\n    tag_225:\n        /* \"#utility.yul\":11398:11408   */\n      dup1\n        /* \"#utility.yul\":11394:11396   */\n      0x40\n        /* \"#utility.yul\":11387:11409   */\n      mstore\n        /* \"#utility.yul\":11172:11415   */\n      pop\n      swap2\n      swap1\n      pop\n      jump\t// out\n        /* \"#utility.yul\":11421:11752   */\n    tag_96:\n      0x00\n        /* \"#utility.yul\":11572:11590   */\n      0xffffffffffffffff\n        /* \"#utility.yul\":11564:11570   */\n      dup3\n        /* \"#utility.yul\":11561:11591   */\n      gt\n        /* \"#utility.yul\":11558:11560   */\n      iszero\n      tag_229\n      jumpi\n        /* \"#utility.yul\":11594:11612   */\n      tag_230\n      tag_227\n      jump\t// in\n    tag_230:\n        /* \"#utility.yul\":11558:11560   */\n    tag_229:\n        /* \"#utility.yul\":11679:11683   */\n      0x1f\n        /* \"#utility.yul\":11675:11684   */\n      not\n        /* \"#utility.yul\":11668:11672   */\n      0x1f\n        /* \"#utility.yul\":11660:11666   */\n      dup4\n        /* \"#utility.yul\":11656:11673   */\n      add\n        /* \"#utility.yul\":11652:11685   */\n      and\n        /* \"#utility.yul\":11644:11685   */\n      swap1\n      pop\n        /* \"#utility.yul\":11740:11744   */\n      0x20\n        /* \"#utility.yul\":11734:11738   */\n      dup2\n        /* \"#utility.yul\":11730:11745   */\n      add\n        /* \"#utility.yul\":11722:11745   */\n      swap1\n      pop\n        /* \"#utility.yul\":11487:11752   */\n      swap2\n      swap1\n      pop\n      jump\t// out\n        /* \"#utility.yul\":11758:12090   */\n    tag_105:\n      0x00\n        /* \"#utility.yul\":11910:11928   */\n      0xffffffffffffffff\n        /* \"#utility.yul\":11902:11908   */\n      dup3\n        /* \"#utility.yul\":11899:11929   */\n      gt\n        /* \"#utility.yul\":11896:11898   */\n      iszero\n      tag_232\n      jumpi\n        /* \"#utility.yul\":11932:11950   */\n      tag_233\n      tag_227\n      jump\t// in\n    tag_233:\n        /* \"#utility.yul\":11896:11898   */\n    tag_232:\n        /* \"#utility.yul\":12017:12021   */\n      0x1f\n        /* \"#utility.yul\":12013:12022   */\n      not\n        /* \"#utility.yul\":12006:12010   */\n      0x1f\n        /* \"#utility.yul\":11998:12004   */\n      dup4\n        /* \"#utility.yul\":11994:12011   */\n      add\n        /* \"#utility.yul\":11990:12023   */\n      and\n        /* \"#utility.yul\":11982:12023   */\n      swap1\n      pop\n        /* \"#utility.yul\":12078:12082   */\n      0x20\n        /* \"#utility.yul\":12072:12076   */\n      dup2\n        /* \"#utility.yul\":12068:12083   */\n      add\n        /* \"#utility.yul\":12060:12083   */\n      swap1\n      pop\n        /* \"#utility.yul\":11825:12090   */\n      swap2\n      swap1\n      pop\n      jump\t// out\n        /* \"#utility.yul\":12096:12194   */\n    tag_170:\n      0x00\n        /* \"#utility.yul\":12181:12186   */\n      dup2\n        /* \"#utility.yul\":12175:12187   */\n      mload\n        /* \"#utility.yul\":12165:12187   */\n      swap1\n      pop\n        /* \"#utility.yul\":12154:12194   */\n      swap2\n      swap1\n      pop\n      jump\t// out\n        /* \"#utility.yul\":12200:12299   */\n    tag_177:\n      0x00\n        /* \"#utility.yul\":12286:12291   */\n      dup2\n        /* \"#utility.yul\":12280:12292   */\n      mload\n        /* \"#utility.yul\":12270:12292   */\n      swap1\n      pop\n        /* \"#utility.yul\":12259:12299   */\n      swap2\n      swap1\n      pop\n      jump\t// out\n        /* \"#utility.yul\":12305:12473   */\n    tag_163:\n      0x00\n        /* \"#utility.yul\":12422:12428   */\n      dup3\n        /* \"#utility.yul\":12417:12420   */\n      dup3\n        /* \"#utility.yul\":12410:12429   */\n      mstore\n        /* \"#utility.yul\":12462:12466   */\n      0x20\n        /* \"#utility.yul\":12457:12460   */\n      dup3\n        /* \"#utility.yul\":12453:12467   */\n      add\n        /* \"#utility.yul\":12438:12467   */\n      swap1\n      pop\n        /* \"#utility.yul\":12400:12473   */\n      swap3\n      swap2\n      pop\n      pop\n      jump\t// out\n        /* \"#utility.yul\":12479:12626   */\n    tag_172:\n      0x00\n        /* \"#utility.yul\":12617:12620   */\n      dup2\n        /* \"#utility.yul\":12602:12620   */\n      swap1\n      pop\n        /* \"#utility.yul\":12592:12626   */\n      swap3\n      swap2\n      pop\n      pop\n      jump\t// out\n        /* \"#utility.yul\":12632:12801   */\n    tag_179:\n      0x00\n        /* \"#utility.yul\":12750:12756   */\n      dup3\n        /* \"#utility.yul\":12745:12748   */\n      dup3\n        /* \"#utility.yul\":12738:12757   */\n      mstore\n        /* \"#utility.yul\":12790:12794   */\n      0x20\n        /* \"#utility.yul\":12785:12788   */\n      dup3\n        /* \"#utility.yul\":12781:12795   */\n      add\n        /* \"#utility.yul\":12766:12795   */\n      swap1\n      pop\n        /* \"#utility.yul\":12728:12801   */\n      swap3\n      swap2\n      pop\n      pop\n      jump\t// out\n        /* \"#utility.yul\":12807:12903   */\n    tag_159:\n      0x00\n        /* \"#utility.yul\":12873:12897   */\n      tag_240\n        /* \"#utility.yul\":12891:12896   */\n      dup3\n        /* \"#utility.yul\":12873:12897   */\n      tag_241\n      jump\t// in\n    tag_240:\n        /* \"#utility.yul\":12862:12897   */\n      swap1\n      pop\n        /* \"#utility.yul\":12852:12903   */\n      swap2\n      swap1\n      pop\n      jump\t// out\n        /* \"#utility.yul\":12909:13035   */\n    tag_241:\n      0x00\n        /* \"#utility.yul\":12986:13028   */\n      0xffffffffffffffffffffffffffffffffffffffff\n        /* \"#utility.yul\":12979:12984   */\n      dup3\n        /* \"#utility.yul\":12975:13029   */\n      and\n        /* \"#utility.yul\":12964:13029   */\n      swap1\n      pop\n        /* \"#utility.yul\":12954:13035   */\n      swap2\n      swap1\n      pop\n      jump\t// out\n        /* \"#utility.yul\":13041:13118   */\n    tag_200:\n      0x00\n        /* \"#utility.yul\":13107:13112   */\n      dup2\n        /* \"#utility.yul\":13096:13112   */\n      swap1\n      pop\n        /* \"#utility.yul\":13086:13118   */\n      swap2\n      swap1\n      pop\n      jump\t// out\n        /* \"#utility.yul\":13124:13278   */\n    tag_100:\n        /* \"#utility.yul\":13208:13214   */\n      dup3\n        /* \"#utility.yul\":13203:13206   */\n      dup2\n        /* \"#utility.yul\":13198:13201   */\n      dup4\n        /* \"#utility.yul\":13185:13215   */\n      calldatacopy\n        /* \"#utility.yul\":13270:13271   */\n      0x00\n        /* \"#utility.yul\":13261:13267   */\n      dup4\n        /* \"#utility.yul\":13256:13259   */\n      dup4\n        /* \"#utility.yul\":13252:13268   */\n      add\n        /* \"#utility.yul\":13245:13272   */\n      mstore\n        /* \"#utility.yul\":13175:13278   */\n      pop\n      pop\n      pop\n      jump\t// out\n        /* \"#utility.yul\":13284:13591   */\n    tag_114:\n        /* \"#utility.yul\":13352:13353   */\n      0x00\n        /* \"#utility.yul\":13362:13475   */\n    tag_246:\n        /* \"#utility.yul\":13376:13382   */\n      dup4\n        /* \"#utility.yul\":13373:13374   */\n      dup2\n        /* \"#utility.yul\":13370:13383   */\n      lt\n        /* \"#utility.yul\":13362:13475   */\n      iszero\n      tag_248\n      jumpi\n        /* \"#utility.yul\":13461:13462   */\n      dup1\n        /* \"#utility.yul\":13456:13459   */\n      dup3\n        /* \"#utility.yul\":13452:13463   */\n      add\n        /* \"#utility.yul\":13446:13464   */\n      mload\n        /* \"#utility.yul\":13442:13443   */\n      dup2\n        /* \"#utility.yul\":13437:13440   */\n      dup5\n        /* \"#utility.yul\":13433:13444   */\n      add\n        /* \"#utility.yul\":13426:13465   */\n      mstore\n        /* \"#utility.yul\":13398:13400   */\n      0x20\n        /* \"#utility.yul\":13395:13396   */\n      dup2\n        /* \"#utility.yul\":13391:13401   */\n      add\n        /* \"#utility.yul\":13386:13401   */\n      swap1\n      pop\n        /* \"#utility.yul\":13362:13475   */\n      jump(tag_246)\n    tag_248:\n        /* \"#utility.yul\":13493:13499   */\n      dup4\n        /* \"#utility.yul\":13490:13491   */\n      dup2\n        /* \"#utility.yul\":13487:13500   */\n      gt\n        /* \"#utility.yul\":13484:13486   */\n      iszero\n      tag_249\n      jumpi\n        /* \"#utility.yul\":13573:13574   */\n      0x00\n        /* \"#utility.yul\":13564:13570   */\n      dup5\n        /* \"#utility.yul\":13559:13562   */\n      dup5\n        /* \"#utility.yul\":13555:13571   */\n      add\n        /* \"#utility.yul\":13548:13575   */\n      mstore\n        /* \"#utility.yul\":13484:13486   */\n    tag_249:\n        /* \"#utility.yul\":13333:13591   */\n      pop\n      pop\n      pop\n      pop\n      jump\t// out\n        /* \"#utility.yul\":13597:13777   */\n    tag_227:\n        /* \"#utility.yul\":13645:13722   */\n      0x4e487b7100000000000000000000000000000000000000000000000000000000\n        /* \"#utility.yul\":13642:13643   */\n      0x00\n        /* \"#utility.yul\":13635:13723   */\n      mstore\n        /* \"#utility.yul\":13742:13746   */\n      0x41\n        /* \"#utility.yul\":13739:13740   */\n      0x04\n        /* \"#utility.yul\":13732:13747   */\n      mstore\n        /* \"#utility.yul\":13766:13770   */\n      0x24\n        /* \"#utility.yul\":13763:13764   */\n      0x00\n        /* \"#utility.yul\":13756:13771   */\n      revert\n        /* \"#utility.yul\":13783:13885   */\n    tag_166:\n      0x00\n        /* \"#utility.yul\":13875:13877   */\n      0x1f\n        /* \"#utility.yul\":13871:13878   */\n      not\n        /* \"#utility.yul\":13866:13868   */\n      0x1f\n        /* \"#utility.yul\":13859:13864   */\n      dup4\n        /* \"#utility.yul\":13855:13869   */\n      add\n        /* \"#utility.yul\":13851:13879   */\n      and\n        /* \"#utility.yul\":13841:13879   */\n      swap1\n      pop\n        /* \"#utility.yul\":13831:13885   */\n      swap2\n      swap1\n      pop\n      jump\t// out\n        /* \"#utility.yul\":13891:14013   */\n    tag_118:\n        /* \"#utility.yul\":13964:13988   */\n      tag_253\n        /* \"#utility.yul\":13982:13987   */\n      dup2\n        /* \"#utility.yul\":13964:13988   */\n      tag_159\n      jump\t// in\n    tag_253:\n        /* \"#utility.yul\":13957:13962   */\n      dup2\n        /* \"#utility.yul\":13954:13989   */\n      eq\n        /* \"#utility.yul\":13944:13946   */\n      tag_254\n      jumpi\n        /* \"#utility.yul\":14003:14004   */\n      0x00\n        /* \"#utility.yul\":14000:14001   */\n      dup1\n        /* \"#utility.yul\":13993:14005   */\n      revert\n        /* \"#utility.yul\":13944:13946   */\n    tag_254:\n        /* \"#utility.yul\":13934:14013   */\n      pop\n      jump\t// out\n        /* \"#utility.yul\":14019:14141   */\n    tag_134:\n        /* \"#utility.yul\":14092:14116   */\n      tag_256\n        /* \"#utility.yul\":14110:14115   */\n      dup2\n        /* \"#utility.yul\":14092:14116   */\n      tag_200\n      jump\t// in\n    tag_256:\n        /* \"#utility.yul\":14085:14090   */\n      dup2\n        /* \"#utility.yul\":14082:14117   */\n      eq\n        /* \"#utility.yul\":14072:14074   */\n      tag_257\n      jumpi\n        /* \"#utility.yul\":14131:14132   */\n      0x00\n        /* \"#utility.yul\":14128:14129   */\n      dup1\n        /* \"#utility.yul\":14121:14133   */\n      revert\n        /* \"#utility.yul\":14072:14074   */\n    tag_257:\n        /* \"#utility.yul\":14062:14141   */\n      pop\n      jump\t// out\n\n    auxdata: 0xa2646970667358221220efe26dd20ed237f0579493ae53850e57ff72137f9df9c5dea0ff999587e6d51964736f6c63430008000033\n}\n",
				"bytecode": {
					"linkReferences": {},
					"object": "608060405234801561001057600080fd5b50610efd806100206000396000f3fe6080604052600436106100745760003560e01c806357b9fad31161004e57806357b9fad3146101785780635b6b7b86146101b5578063e108938b146101d1578063edb4b865146101fa576100b4565b806312065fe0146100f457806329a20bca1461011f57806329e99f071461013b576100b4565b366100b4577ff7f75251dee7d7fc22deac3247729ebe7c86541f35930bf10c2a4207479a3b6c33346040516100aa929190610c7d565b60405180910390a1005b7ff7f75251dee7d7fc22deac3247729ebe7c86541f35930bf10c2a4207479a3b6c33346000366040516100ea9493929190610c2a565b60405180910390a1005b34801561010057600080fd5b50610109610225565b6040516101169190610cec565b60405180910390f35b610139600480360381019061013491906108ad565b61022d565b005b34801561014757600080fd5b50610162600480360381019061015d91906109a9565b6102e1565b60405161016f9190610cec565b60405180910390f35b34801561018457600080fd5b5061019f600480360381019061019a9190610884565b6102eb565b6040516101ac9190610bb8565b60405180910390f35b6101cf60048036038101906101ca9190610901565b610447565b005b3480156101dd57600080fd5b506101f860048036038101906101f39190610884565b610593565b005b34801561020657600080fd5b5061020f61071a565b60405161021c9190610cec565b60405180910390f35b600047905090565b60008273ffffffffffffffffffffffffffffffffffffffff166064836040516102569190610ba1565b60006040518083038185875af1925050503d8060008114610293576040519150601f19603f3d011682016040523d82523d6000602084013e610298565b606091505b50509050806102dc576040517f08c379a00000000000000000000000000000000000000000000000000000000081526004016102d390610c0a565b60405180910390fd5b505050565b6000819050919050565b606060007f29f4acb0ed8a5b2201afd96e6e3bcbca8f3ea01c1a7ccdacf8c292a92d60067f90506000808473ffffffffffffffffffffffffffffffffffffffff1683604051602401604051602081830303815290604052907bffffffffffffffffffffffffffffffffffffffffffffffffffffffff19166020820180517bffffffffffffffffffffffffffffffffffffffffffffffffffffffff838183161783525050505060405161039d9190610ba1565b600060405180830381855afa9150503d80600081146103d8576040519150601f19603f3d011682016040523d82523d6000602084013e6103dd565b606091505b5091509150811561040657808060200190518101906103fc9190610968565b9350505050610442565b6040518060400160405280600581526020017f6572726f7200000000000000000000000000000000000000000000000000000081525093505050505b919050565b6000828260405160240161045c929190610bda565b6040516020818303038152906040527f9cf34601000000000000000000000000000000000000000000000000000000007bffffffffffffffffffffffffffffffffffffffffffffffffffffffff19166020820180517bffffffffffffffffffffffffffffffffffffffffffffffffffffffff838183161783525050505090506000808573ffffffffffffffffffffffffffffffffffffffff1634846040516105049190610ba1565b60006040518083038185875af1925050503d8060008114610541576040519150601f19603f3d011682016040523d82523d6000602084013e610546565b606091505b50915091508161058b576040517f08c379a000000000000000000000000000000000000000000000000000000000815260040161058290610ccc565b60405180910390fd5b505050505050565b6000601790506000816040516024016105ac9190610cec565b6040516020818303038152906040527f60fe47b1000000000000000000000000000000000000000000000000000000007bffffffffffffffffffffffffffffffffffffffffffffffffffffffff19166020820180517bffffffffffffffffffffffffffffffffffffffffffffffffffffffff8381831617835250505050905060006329e99f0760e01b836040516024016106469190610cec565b604051602081830303815290604052907bffffffffffffffffffffffffffffffffffffffffffffffffffffffff19166020820180517bffffffffffffffffffffffffffffffffffffffffffffffffffffffff838183161783525050505090506000808573ffffffffffffffffffffffffffffffffffffffff16836040516106cd9190610ba1565b600060405180830381855af49150503d8060008114610708576040519150601f19603f3d011682016040523d82523d6000602084013e61070d565b606091505b5091509150505050505050565b60005a905090565b600061073561073084610d38565b610d07565b90508281526020810184848401111561074d57600080fd5b610758848285610e17565b509392505050565b600061077361076e84610d68565b610d07565b90508281526020810184848401111561078b57600080fd5b610796848285610e17565b509392505050565b60006107b16107ac84610d68565b610d07565b9050828152602081018484840111156107c957600080fd5b6107d4848285610e26565b509392505050565b6000813590506107eb81610e99565b92915050565b600082601f83011261080257600080fd5b8135610812848260208601610722565b91505092915050565b600082601f83011261082c57600080fd5b813561083c848260208601610760565b91505092915050565b600082601f83011261085657600080fd5b815161086684826020860161079e565b91505092915050565b60008135905061087e81610eb0565b92915050565b60006020828403121561089657600080fd5b60006108a4848285016107dc565b91505092915050565b600080604083850312156108c057600080fd5b60006108ce858286016107dc565b925050602083013567ffffffffffffffff8111156108eb57600080fd5b6108f7858286016107f1565b9150509250929050565b60008060006060848603121561091657600080fd5b6000610924868287016107dc565b935050602084013567ffffffffffffffff81111561094157600080fd5b61094d8682870161081b565b925050604061095e8682870161086f565b9150509250925092565b60006020828403121561097a57600080fd5b600082015167ffffffffffffffff81111561099457600080fd5b6109a084828501610845565b91505092915050565b6000602082840312156109bb57600080fd5b60006109c98482850161086f565b91505092915050565b6109db81610ddb565b82525050565b60006109ed8385610dae565b93506109fa838584610e17565b610a0383610e88565b840190509392505050565b6000610a1982610d98565b610a238185610dbf565b9350610a33818560208601610e26565b80840191505092915050565b6000610a4a82610da3565b610a548185610dca565b9350610a64818560208601610e26565b610a6d81610e88565b840191505092915050565b6000610a85600a83610dca565b91507f63616c6c204661696564000000000000000000000000000000000000000000006000830152602082019050919050565b6000610ac5600883610dca565b91507f66616c6c6261636b0000000000000000000000000000000000000000000000006000830152602082019050919050565b6000610b05600083610dae565b9150600082019050919050565b6000610b1f600783610dca565b91507f72656365697665000000000000000000000000000000000000000000000000006000830152602082019050919050565b6000610b5f600b83610dca565b91507f43616c6c204661696c65640000000000000000000000000000000000000000006000830152602082019050919050565b610b9b81610e0d565b82525050565b6000610bad8284610a0e565b915081905092915050565b60006020820190508181036000830152610bd28184610a3f565b905092915050565b60006040820190508181036000830152610bf48185610a3f565b9050610c036020830184610b92565b9392505050565b60006020820190508181036000830152610c2381610a78565b9050919050565b60006080820190508181036000830152610c4381610ab8565b9050610c5260208301876109d2565b610c5f6040830186610b92565b8181036060830152610c728184866109e1565b905095945050505050565b60006080820190508181036000830152610c9681610b12565b9050610ca560208301856109d2565b610cb26040830184610b92565b8181036060830152610cc381610af8565b90509392505050565b60006020820190508181036000830152610ce581610b52565b9050919050565b6000602082019050610d016000830184610b92565b92915050565b6000604051905081810181811067ffffffffffffffff82111715610d2e57610d2d610e59565b5b8060405250919050565b600067ffffffffffffffff821115610d5357610d52610e59565b5b601f19601f8301169050602081019050919050565b600067ffffffffffffffff821115610d8357610d82610e59565b5b601f19601f8301169050602081019050919050565b600081519050919050565b600081519050919050565b600082825260208201905092915050565b600081905092915050565b600082825260208201905092915050565b6000610de682610ded565b9050919050565b600073ffffffffffffffffffffffffffffffffffffffff82169050919050565b6000819050919050565b82818337600083830152505050565b60005b83811015610e44578082015181840152602081019050610e29565b83811115610e53576000848401525b50505050565b7f4e487b7100000000000000000000000000000000000000000000000000000000600052604160045260246000fd5b6000601f19601f8301169050919050565b610ea281610ddb565b8114610ead57600080fd5b50565b610eb981610e0d565b8114610ec457600080fd5b5056fea2646970667358221220efe26dd20ed237f0579493ae53850e57ff72137f9df9c5dea0ff999587e6d51964736f6c63430008000033",
					"opcodes": "PUSH1 0x80 PUSH1 0x40 MSTORE CALLVALUE DUP1 ISZERO PUSH2 0x10 JUMPI PUSH1 0x0 DUP1 REVERT JUMPDEST POP PUSH2 0xEFD DUP1 PUSH2 0x20 PUSH1 0x0 CODECOPY PUSH1 0x0 RETURN INVALID PUSH1 0x80 PUSH1 0x40 MSTORE PUSH1 0x4 CALLDATASIZE LT PUSH2 0x74 JUMPI PUSH1 0x0 CALLDATALOAD PUSH1 0xE0 SHR DUP1 PUSH4 0x57B9FAD3 GT PUSH2 0x4E JUMPI DUP1 PUSH4 0x57B9FAD3 EQ PUSH2 0x178 JUMPI DUP1 PUSH4 0x5B6B7B86 EQ PUSH2 0x1B5 JUMPI DUP1 PUSH4 0xE108938B EQ PUSH2 0x1D1 JUMPI DUP1 PUSH4 0xEDB4B865 EQ PUSH2 0x1FA JUMPI PUSH2 0xB4 JUMP JUMPDEST DUP1 PUSH4 0x12065FE0 EQ PUSH2 0xF4 JUMPI DUP1 PUSH4 0x29A20BCA EQ PUSH2 0x11F JUMPI DUP1 PUSH4 0x29E99F07 EQ PUSH2 0x13B JUMPI PUSH2 0xB4 JUMP JUMPDEST CALLDATASIZE PUSH2 0xB4 JUMPI PUSH32 0xF7F75251DEE7D7FC22DEAC3247729EBE7C86541F35930BF10C2A4207479A3B6C CALLER CALLVALUE PUSH1 0x40 MLOAD PUSH2 0xAA SWAP3 SWAP2 SWAP1 PUSH2 0xC7D JUMP JUMPDEST PUSH1 0x40 MLOAD DUP1 SWAP2 SUB SWAP1 LOG1 STOP JUMPDEST PUSH32 0xF7F75251DEE7D7FC22DEAC3247729EBE7C86541F35930BF10C2A4207479A3B6C CALLER CALLVALUE PUSH1 0x0 CALLDATASIZE PUSH1 0x40 MLOAD PUSH2 0xEA SWAP5 SWAP4 SWAP3 SWAP2 SWAP1 PUSH2 0xC2A JUMP JUMPDEST PUSH1 0x40 MLOAD DUP1 SWAP2 SUB SWAP1 LOG1 STOP JUMPDEST CALLVALUE DUP1 ISZERO PUSH2 0x100 JUMPI PUSH1 0x0 DUP1 REVERT JUMPDEST POP PUSH2 0x109 PUSH2 0x225 JUMP JUMPDEST PUSH1 0x40 MLOAD PUSH2 0x116 SWAP2 SWAP1 PUSH2 0xCEC JUMP JUMPDEST PUSH1 0x40 MLOAD DUP1 SWAP2 SUB SWAP1 RETURN JUMPDEST PUSH2 0x139 PUSH1 0x4 DUP1 CALLDATASIZE SUB DUP2 ADD SWAP1 PUSH2 0x134 SWAP2 SWAP1 PUSH2 0x8AD JUMP JUMPDEST PUSH2 0x22D JUMP JUMPDEST STOP JUMPDEST CALLVALUE DUP1 ISZERO PUSH2 0x147 JUMPI PUSH1 0x0 DUP1 REVERT JUMPDEST POP PUSH2 0x162 PUSH1 0x4 DUP1 CALLDATASIZE SUB DUP2 ADD SWAP1 PUSH2 0x15D SWAP2 SWAP1 PUSH2 0x9A9 JUMP JUMPDEST PUSH2 0x2E1 JUMP JUMPDEST PUSH1 0x40 MLOAD PUSH2 0x16F SWAP2 SWAP1 PUSH2 0xCEC JUMP JUMPDEST PUSH1 0x40 MLOAD DUP1 SWAP2 SUB SWAP1 RETURN JUMPDEST CALLVALUE DUP1 ISZERO PUSH2 0x184 JUMPI PUSH1 0x0 DUP1 REVERT JUMPDEST POP PUSH2 0x19F PUSH1 0x4 DUP1 CALLDATASIZE SUB DUP2 ADD SWAP1 PUSH2 0x19A SWAP2 SWAP1 PUSH2 0x884 JUMP JUMPDEST PUSH2 0x2EB JUMP JUMPDEST PUSH1 0x40 MLOAD PUSH2 0x1AC SWAP2 SWAP1 PUSH2 0xBB8 JUMP JUMPDEST PUSH1 0x40 MLOAD DUP1 SWAP2 SUB SWAP1 RETURN JUMPDEST PUSH2 0x1CF PUSH1 0x4 DUP1 CALLDATASIZE SUB DUP2 ADD SWAP1 PUSH2 0x1CA SWAP2 SWAP1 PUSH2 0x901 JUMP JUMPDEST PUSH2 0x447 JUMP JUMPDEST STOP JUMPDEST CALLVALUE DUP1 ISZERO PUSH2 0x1DD JUMPI PUSH1 0x0 DUP1 REVERT JUMPDEST POP PUSH2 0x1F8 PUSH1 0x4 DUP1 CALLDATASIZE SUB DUP2 ADD SWAP1 PUSH2 0x1F3 SWAP2 SWAP1 PUSH2 0x884 JUMP JUMPDEST PUSH2 0x593 JUMP JUMPDEST STOP JUMPDEST CALLVALUE DUP1 ISZERO PUSH2 0x206 JUMPI PUSH1 0x0 DUP1 REVERT JUMPDEST POP PUSH2 0x20F PUSH2 0x71A JUMP JUMPDEST PUSH1 0x40 MLOAD PUSH2 0x21C SWAP2 SWAP1 PUSH2 0xCEC JUMP JUMPDEST PUSH1 0x40 MLOAD DUP1 SWAP2 SUB SWAP1 RETURN JUMPDEST PUSH1 0x0 SELFBALANCE SWAP1 POP SWAP1 JUMP JUMPDEST PUSH1 0x0 DUP3 PUSH20 0xFFFFFFFFFFFFFFFFFFFFFFFFFFFFFFFFFFFFFFFF AND PUSH1 0x64 DUP4 PUSH1 0x40 MLOAD PUSH2 0x256 SWAP2 SWAP1 PUSH2 0xBA1 JUMP JUMPDEST PUSH1 0x0 PUSH1 0x40 MLOAD DUP1 DUP4 SUB DUP2 DUP6 DUP8 GAS CALL SWAP3 POP POP POP RETURNDATASIZE DUP1 PUSH1 0x0 DUP2 EQ PUSH2 0x293 JUMPI PUSH1 0x40 MLOAD SWAP2 POP PUSH1 0x1F NOT PUSH1 0x3F RETURNDATASIZE ADD AND DUP3 ADD PUSH1 0x40 MSTORE RETURNDATASIZE DUP3 MSTORE RETURNDATASIZE PUSH1 0x0 PUSH1 0x20 DUP5 ADD RETURNDATACOPY PUSH2 0x298 JUMP JUMPDEST PUSH1 0x60 SWAP2 POP JUMPDEST POP POP SWAP1 POP DUP1 PUSH2 0x2DC JUMPI PUSH1 0x40 MLOAD PUSH32 0x8C379A000000000000000000000000000000000000000000000000000000000 DUP2 MSTORE PUSH1 0x4 ADD PUSH2 0x2D3 SWAP1 PUSH2 0xC0A JUMP JUMPDEST PUSH1 0x40 MLOAD DUP1 SWAP2 SUB SWAP1 REVERT JUMPDEST POP POP POP JUMP JUMPDEST PUSH1 0x0 DUP2 SWAP1 POP SWAP2 SWAP1 POP JUMP JUMPDEST PUSH1 0x60 PUSH1 0x0 PUSH32 0x29F4ACB0ED8A5B2201AFD96E6E3BCBCA8F3EA01C1A7CCDACF8C292A92D60067F SWAP1 POP PUSH1 0x0 DUP1 DUP5 PUSH20 0xFFFFFFFFFFFFFFFFFFFFFFFFFFFFFFFFFFFFFFFF AND DUP4 PUSH1 0x40 MLOAD PUSH1 0x24 ADD PUSH1 0x40 MLOAD PUSH1 0x20 DUP2 DUP4 SUB SUB DUP2 MSTORE SWAP1 PUSH1 0x40 MSTORE SWAP1 PUSH28 0xFFFFFFFFFFFFFFFFFFFFFFFFFFFFFFFFFFFFFFFFFFFFFFFFFFFFFFFF NOT AND PUSH1 0x20 DUP3 ADD DUP1 MLOAD PUSH28 0xFFFFFFFFFFFFFFFFFFFFFFFFFFFFFFFFFFFFFFFFFFFFFFFFFFFFFFFF DUP4 DUP2 DUP4 AND OR DUP4 MSTORE POP POP POP POP PUSH1 0x40 MLOAD PUSH2 0x39D SWAP2 SWAP1 PUSH2 0xBA1 JUMP JUMPDEST PUSH1 0x0 PUSH1 0x40 MLOAD DUP1 DUP4 SUB DUP2 DUP6 GAS STATICCALL SWAP2 POP POP RETURNDATASIZE DUP1 PUSH1 0x0 DUP2 EQ PUSH2 0x3D8 JUMPI PUSH1 0x40 MLOAD SWAP2 POP PUSH1 0x1F NOT PUSH1 0x3F RETURNDATASIZE ADD AND DUP3 ADD PUSH1 0x40 MSTORE RETURNDATASIZE DUP3 MSTORE RETURNDATASIZE PUSH1 0x0 PUSH1 0x20 DUP5 ADD RETURNDATACOPY PUSH2 0x3DD JUMP JUMPDEST PUSH1 0x60 SWAP2 POP JUMPDEST POP SWAP2 POP SWAP2 POP DUP2 ISZERO PUSH2 0x406 JUMPI DUP1 DUP1 PUSH1 0x20 ADD SWAP1 MLOAD DUP2 ADD SWAP1 PUSH2 0x3FC SWAP2 SWAP1 PUSH2 0x968 JUMP JUMPDEST SWAP4 POP POP POP POP PUSH2 0x442 JUMP JUMPDEST PUSH1 0x40 MLOAD DUP1 PUSH1 0x40 ADD PUSH1 0x40 MSTORE DUP1 PUSH1 0x5 DUP2 MSTORE PUSH1 0x20 ADD PUSH32 0x6572726F72000000000000000000000000000000000000000000000000000000 DUP2 MSTORE POP SWAP4 POP POP POP POP JUMPDEST SWAP2 SWAP1 POP JUMP JUMPDEST PUSH1 0x0 DUP3 DUP3 PUSH1 0x40 MLOAD PUSH1 0x24 ADD PUSH2 0x45C SWAP3 SWAP2 SWAP1 PUSH2 0xBDA JUMP JUMPDEST PUSH1 0x40 MLOAD PUSH1 0x20 DUP2 DUP4 SUB SUB DUP2 MSTORE SWAP1 PUSH1 0x40 MSTORE PUSH32 0x9CF3460100000000000000000000000000000000000000000000000000000000 PUSH28 0xFFFFFFFFFFFFFFFFFFFFFFFFFFFFFFFFFFFFFFFFFFFFFFFFFFFFFFFF NOT AND PUSH1 0x20 DUP3 ADD DUP1 MLOAD PUSH28 0xFFFFFFFFFFFFFFFFFFFFFFFFFFFFFFFFFFFFFFFFFFFFFFFFFFFFFFFF DUP4 DUP2 DUP4 AND OR DUP4 MSTORE POP POP POP POP SWAP1 POP PUSH1 0x0 DUP1 DUP6 PUSH20 0xFFFFFFFFFFFFFFFFFFFFFFFFFFFFFFFFFFFFFFFF AND CALLVALUE DUP5 PUSH1 0x40 MLOAD PUSH2 0x504 SWAP2 SWAP1 PUSH2 0xBA1 JUMP JUMPDEST PUSH1 0x0 PUSH1 0x40 MLOAD DUP1 DUP4 SUB DUP2 DUP6 DUP8 GAS CALL SWAP3 POP POP POP RETURNDATASIZE DUP1 PUSH1 0x0 DUP2 EQ PUSH2 0x541 JUMPI PUSH1 0x40 MLOAD SWAP2 POP PUSH1 0x1F NOT PUSH1 0x3F RETURNDATASIZE ADD AND DUP3 ADD PUSH1 0x40 MSTORE RETURNDATASIZE DUP3 MSTORE RETURNDATASIZE PUSH1 0x0 PUSH1 0x20 DUP5 ADD RETURNDATACOPY PUSH2 0x546 JUMP JUMPDEST PUSH1 0x60 SWAP2 POP JUMPDEST POP SWAP2 POP SWAP2 POP DUP2 PUSH2 0x58B JUMPI PUSH1 0x40 MLOAD PUSH32 0x8C379A000000000000000000000000000000000000000000000000000000000 DUP2 MSTORE PUSH1 0x4 ADD PUSH2 0x582 SWAP1 PUSH2 0xCCC JUMP JUMPDEST PUSH1 0x40 MLOAD DUP1 SWAP2 SUB SWAP1 REVERT JUMPDEST POP POP POP POP POP POP JUMP JUMPDEST PUSH1 0x0 PUSH1 0x17 SWAP1 POP PUSH1 0x0 DUP2 PUSH1 0x40 MLOAD PUSH1 0x24 ADD PUSH2 0x5AC SWAP2 SWAP1 PUSH2 0xCEC JUMP JUMPDEST PUSH1 0x40 MLOAD PUSH1 0x20 DUP2 DUP4 SUB SUB DUP2 MSTORE SWAP1 PUSH1 0x40 MSTORE PUSH32 0x60FE47B100000000000000000000000000000000000000000000000000000000 PUSH28 0xFFFFFFFFFFFFFFFFFFFFFFFFFFFFFFFFFFFFFFFFFFFFFFFFFFFFFFFF NOT AND PUSH1 0x20 DUP3 ADD DUP1 MLOAD PUSH28 0xFFFFFFFFFFFFFFFFFFFFFFFFFFFFFFFFFFFFFFFFFFFFFFFFFFFFFFFF DUP4 DUP2 DUP4 AND OR DUP4 MSTORE POP POP POP POP SWAP1 POP PUSH1 0x0 PUSH4 0x29E99F07 PUSH1 0xE0 SHL DUP4 PUSH1 0x40 MLOAD PUSH1 0x24 ADD PUSH2 0x646 SWAP2 SWAP1 PUSH2 0xCEC JUMP JUMPDEST PUSH1 0x40 MLOAD PUSH1 0x20 DUP2 DUP4 SUB SUB DUP2 MSTORE SWAP1 PUSH1 0x40 MSTORE SWAP1 PUSH28 0xFFFFFFFFFFFFFFFFFFFFFFFFFFFFFFFFFFFFFFFFFFFFFFFFFFFFFFFF NOT AND PUSH1 0x20 DUP3 ADD DUP1 MLOAD PUSH28 0xFFFFFFFFFFFFFFFFFFFFFFFFFFFFFFFFFFFFFFFFFFFFFFFFFFFFFFFF DUP4 DUP2 DUP4 AND OR DUP4 MSTORE POP POP POP POP SWAP1 POP PUSH1 0x0 DUP1 DUP6 PUSH20 0xFFFFFFFFFFFFFFFFFFFFFFFFFFFFFFFFFFFFFFFF AND DUP4 PUSH1 0x40 MLOAD PUSH2 0x6CD SWAP2 SWAP1 PUSH2 0xBA1 JUMP JUMPDEST PUSH1 0x0 PUSH1 0x40 MLOAD DUP1 DUP4 SUB DUP2 DUP6 GAS DELEGATECALL SWAP2 POP POP RETURNDATASIZE DUP1 PUSH1 0x0 DUP2 EQ PUSH2 0x708 JUMPI PUSH1 0x40 MLOAD SWAP2 POP PUSH1 0x1F NOT PUSH1 0x3F RETURNDATASIZE ADD AND DUP3 ADD PUSH1 0x40 MSTORE RETURNDATASIZE DUP3 MSTORE RETURNDATASIZE PUSH1 0x0 PUSH1 0x20 DUP5 ADD RETURNDATACOPY PUSH2 0x70D JUMP JUMPDEST PUSH1 0x60 SWAP2 POP JUMPDEST POP SWAP2 POP SWAP2 POP POP POP POP POP POP POP JUMP JUMPDEST PUSH1 0x0 GAS SWAP1 POP SWAP1 JUMP JUMPDEST PUSH1 0x0 PUSH2 0x735 PUSH2 0x730 DUP5 PUSH2 0xD38 JUMP JUMPDEST PUSH2 0xD07 JUMP JUMPDEST SWAP1 POP DUP3 DUP2 MSTORE PUSH1 0x20 DUP2 ADD DUP5 DUP5 DUP5 ADD GT ISZERO PUSH2 0x74D JUMPI PUSH1 0x0 DUP1 REVERT JUMPDEST PUSH2 0x758 DUP5 DUP3 DUP6 PUSH2 0xE17 JUMP JUMPDEST POP SWAP4 SWAP3 POP POP POP JUMP JUMPDEST PUSH1 0x0 PUSH2 0x773 PUSH2 0x76E DUP5 PUSH2 0xD68 JUMP JUMPDEST PUSH2 0xD07 JUMP JUMPDEST SWAP1 POP DUP3 DUP2 MSTORE PUSH1 0x20 DUP2 ADD DUP5 DUP5 DUP5 ADD GT ISZERO PUSH2 0x78B JUMPI PUSH1 0x0 DUP1 REVERT JUMPDEST PUSH2 0x796 DUP5 DUP3 DUP6 PUSH2 0xE17 JUMP JUMPDEST POP SWAP4 SWAP3 POP POP POP JUMP JUMPDEST PUSH1 0x0 PUSH2 0x7B1 PUSH2 0x7AC DUP5 PUSH2 0xD68 JUMP JUMPDEST PUSH2 0xD07 JUMP JUMPDEST SWAP1 POP DUP3 DUP2 MSTORE PUSH1 0x20 DUP2 ADD DUP5 DUP5 DUP5 ADD GT ISZERO PUSH2 0x7C9 JUMPI PUSH1 0x0 DUP1 REVERT JUMPDEST PUSH2 0x7D4 DUP5 DUP3 DUP6 PUSH2 0xE26 JUMP JUMPDEST POP SWAP4 SWAP3 POP POP POP JUMP JUMPDEST PUSH1 0x0 DUP2 CALLDATALOAD SWAP1 POP PUSH2 0x7EB DUP2 PUSH2 0xE99 JUMP JUMPDEST SWAP3 SWAP2 POP POP JUMP JUMPDEST PUSH1 0x0 DUP3 PUSH1 0x1F DUP4 ADD SLT PUSH2 0x802 JUMPI PUSH1 0x0 DUP1 REVERT JUMPDEST DUP2 CALLDATALOAD PUSH2 0x812 DUP5 DUP3 PUSH1 0x20 DUP7 ADD PUSH2 0x722 JUMP JUMPDEST SWAP2 POP POP SWAP3 SWAP2 POP POP JUMP JUMPDEST PUSH1 0x0 DUP3 PUSH1 0x1F DUP4 ADD SLT PUSH2 0x82C JUMPI PUSH1 0x0 DUP1 REVERT JUMPDEST DUP2 CALLDATALOAD PUSH2 0x83C DUP5 DUP3 PUSH1 0x20 DUP7 ADD PUSH2 0x760 JUMP JUMPDEST SWAP2 POP POP SWAP3 SWAP2 POP POP JUMP JUMPDEST PUSH1 0x0 DUP3 PUSH1 0x1F DUP4 ADD SLT PUSH2 0x856 JUMPI PUSH1 0x0 DUP1 REVERT JUMPDEST DUP2 MLOAD PUSH2 0x866 DUP5 DUP3 PUSH1 0x20 DUP7 ADD PUSH2 0x79E JUMP JUMPDEST SWAP2 POP POP SWAP3 SWAP2 POP POP JUMP JUMPDEST PUSH1 0x0 DUP2 CALLDATALOAD SWAP1 POP PUSH2 0x87E DUP2 PUSH2 0xEB0 JUMP JUMPDEST SWAP3 SWAP2 POP POP JUMP JUMPDEST PUSH1 0x0 PUSH1 0x20 DUP3 DUP5 SUB SLT ISZERO PUSH2 0x896 JUMPI PUSH1 0x0 DUP1 REVERT JUMPDEST PUSH1 0x0 PUSH2 0x8A4 DUP5 DUP3 DUP6 ADD PUSH2 0x7DC JUMP JUMPDEST SWAP2 POP POP SWAP3 SWAP2 POP POP JUMP JUMPDEST PUSH1 0x0 DUP1 PUSH1 0x40 DUP4 DUP6 SUB SLT ISZERO PUSH2 0x8C0 JUMPI PUSH1 0x0 DUP1 REVERT JUMPDEST PUSH1 0x0 PUSH2 0x8CE DUP6 DUP3 DUP7 ADD PUSH2 0x7DC JUMP JUMPDEST SWAP3 POP POP PUSH1 0x20 DUP4 ADD CALLDATALOAD PUSH8 0xFFFFFFFFFFFFFFFF DUP2 GT ISZERO PUSH2 0x8EB JUMPI PUSH1 0x0 DUP1 REVERT JUMPDEST PUSH2 0x8F7 DUP6 DUP3 DUP7 ADD PUSH2 0x7F1 JUMP JUMPDEST SWAP2 POP POP SWAP3 POP SWAP3 SWAP1 POP JUMP JUMPDEST PUSH1 0x0 DUP1 PUSH1 0x0 PUSH1 0x60 DUP5 DUP7 SUB SLT ISZERO PUSH2 0x916 JUMPI PUSH1 0x0 DUP1 REVERT JUMPDEST PUSH1 0x0 PUSH2 0x924 DUP7 DUP3 DUP8 ADD PUSH2 0x7DC JUMP JUMPDEST SWAP4 POP POP PUSH1 0x20 DUP5 ADD CALLDATALOAD PUSH8 0xFFFFFFFFFFFFFFFF DUP2 GT ISZERO PUSH2 0x941 JUMPI PUSH1 0x0 DUP1 REVERT JUMPDEST PUSH2 0x94D DUP7 DUP3 DUP8 ADD PUSH2 0x81B JUMP JUMPDEST SWAP3 POP POP PUSH1 0x40 PUSH2 0x95E DUP7 DUP3 DUP8 ADD PUSH2 0x86F JUMP JUMPDEST SWAP2 POP POP SWAP3 POP SWAP3 POP SWAP3 JUMP JUMPDEST PUSH1 0x0 PUSH1 0x20 DUP3 DUP5 SUB SLT ISZERO PUSH2 0x97A JUMPI PUSH1 0x0 DUP1 REVERT JUMPDEST PUSH1 0x0 DUP3 ADD MLOAD PUSH8 0xFFFFFFFFFFFFFFFF DUP2 GT ISZERO PUSH2 0x994 JUMPI PUSH1 0x0 DUP1 REVERT JUMPDEST PUSH2 0x9A0 DUP5 DUP3 DUP6 ADD PUSH2 0x845 JUMP JUMPDEST SWAP2 POP POP SWAP3 SWAP2 POP POP JUMP JUMPDEST PUSH1 0x0 PUSH1 0x20 DUP3 DUP5 SUB SLT ISZERO PUSH2 0x9BB JUMPI PUSH1 0x0 DUP1 REVERT JUMPDEST PUSH1 0x0 PUSH2 0x9C9 DUP5 DUP3 DUP6 ADD PUSH2 0x86F JUMP JUMPDEST SWAP2 POP POP SWAP3 SWAP2 POP POP JUMP JUMPDEST PUSH2 0x9DB DUP2 PUSH2 0xDDB JUMP JUMPDEST DUP3 MSTORE POP POP JUMP JUMPDEST PUSH1 0x0 PUSH2 0x9ED DUP4 DUP6 PUSH2 0xDAE JUMP JUMPDEST SWAP4 POP PUSH2 0x9FA DUP4 DUP6 DUP5 PUSH2 0xE17 JUMP JUMPDEST PUSH2 0xA03 DUP4 PUSH2 0xE88 JUMP JUMPDEST DUP5 ADD SWAP1 POP SWAP4 SWAP3 POP POP POP JUMP JUMPDEST PUSH1 0x0 PUSH2 0xA19 DUP3 PUSH2 0xD98 JUMP JUMPDEST PUSH2 0xA23 DUP2 DUP6 PUSH2 0xDBF JUMP JUMPDEST SWAP4 POP PUSH2 0xA33 DUP2 DUP6 PUSH1 0x20 DUP7 ADD PUSH2 0xE26 JUMP JUMPDEST DUP1 DUP5 ADD SWAP2 POP POP SWAP3 SWAP2 POP POP JUMP JUMPDEST PUSH1 0x0 PUSH2 0xA4A DUP3 PUSH2 0xDA3 JUMP JUMPDEST PUSH2 0xA54 DUP2 DUP6 PUSH2 0xDCA JUMP JUMPDEST SWAP4 POP PUSH2 0xA64 DUP2 DUP6 PUSH1 0x20 DUP7 ADD PUSH2 0xE26 JUMP JUMPDEST PUSH2 0xA6D DUP2 PUSH2 0xE88 JUMP JUMPDEST DUP5 ADD SWAP2 POP POP SWAP3 SWAP2 POP POP JUMP JUMPDEST PUSH1 0x0 PUSH2 0xA85 PUSH1 0xA DUP4 PUSH2 0xDCA JUMP JUMPDEST SWAP2 POP PUSH32 0x63616C6C20466169656400000000000000000000000000000000000000000000 PUSH1 0x0 DUP4 ADD MSTORE PUSH1 0x20 DUP3 ADD SWAP1 POP SWAP2 SWAP1 POP JUMP JUMPDEST PUSH1 0x0 PUSH2 0xAC5 PUSH1 0x8 DUP4 PUSH2 0xDCA JUMP JUMPDEST SWAP2 POP PUSH32 0x66616C6C6261636B000000000000000000000000000000000000000000000000 PUSH1 0x0 DUP4 ADD MSTORE PUSH1 0x20 DUP3 ADD SWAP1 POP SWAP2 SWAP1 POP JUMP JUMPDEST PUSH1 0x0 PUSH2 0xB05 PUSH1 0x0 DUP4 PUSH2 0xDAE JUMP JUMPDEST SWAP2 POP PUSH1 0x0 DUP3 ADD SWAP1 POP SWAP2 SWAP1 POP JUMP JUMPDEST PUSH1 0x0 PUSH2 0xB1F PUSH1 0x7 DUP4 PUSH2 0xDCA JUMP JUMPDEST SWAP2 POP PUSH32 0x7265636569766500000000000000000000000000000000000000000000000000 PUSH1 0x0 DUP4 ADD MSTORE PUSH1 0x20 DUP3 ADD SWAP1 POP SWAP2 SWAP1 POP JUMP JUMPDEST PUSH1 0x0 PUSH2 0xB5F PUSH1 0xB DUP4 PUSH2 0xDCA JUMP JUMPDEST SWAP2 POP PUSH32 0x43616C6C204661696C6564000000000000000000000000000000000000000000 PUSH1 0x0 DUP4 ADD MSTORE PUSH1 0x20 DUP3 ADD SWAP1 POP SWAP2 SWAP1 POP JUMP JUMPDEST PUSH2 0xB9B DUP2 PUSH2 0xE0D JUMP JUMPDEST DUP3 MSTORE POP POP JUMP JUMPDEST PUSH1 0x0 PUSH2 0xBAD DUP3 DUP5 PUSH2 0xA0E JUMP JUMPDEST SWAP2 POP DUP2 SWAP1 POP SWAP3 SWAP2 POP POP JUMP JUMPDEST PUSH1 0x0 PUSH1 0x20 DUP3 ADD SWAP1 POP DUP2 DUP2 SUB PUSH1 0x0 DUP4 ADD MSTORE PUSH2 0xBD2 DUP2 DUP5 PUSH2 0xA3F JUMP JUMPDEST SWAP1 POP SWAP3 SWAP2 POP POP JUMP JUMPDEST PUSH1 0x0 PUSH1 0x40 DUP3 ADD SWAP1 POP DUP2 DUP2 SUB PUSH1 0x0 DUP4 ADD MSTORE PUSH2 0xBF4 DUP2 DUP6 PUSH2 0xA3F JUMP JUMPDEST SWAP1 POP PUSH2 0xC03 PUSH1 0x20 DUP4 ADD DUP5 PUSH2 0xB92 JUMP JUMPDEST SWAP4 SWAP3 POP POP POP JUMP JUMPDEST PUSH1 0x0 PUSH1 0x20 DUP3 ADD SWAP1 POP DUP2 DUP2 SUB PUSH1 0x0 DUP4 ADD MSTORE PUSH2 0xC23 DUP2 PUSH2 0xA78 JUMP JUMPDEST SWAP1 POP SWAP2 SWAP1 POP JUMP JUMPDEST PUSH1 0x0 PUSH1 0x80 DUP3 ADD SWAP1 POP DUP2 DUP2 SUB PUSH1 0x0 DUP4 ADD MSTORE PUSH2 0xC43 DUP2 PUSH2 0xAB8 JUMP JUMPDEST SWAP1 POP PUSH2 0xC52 PUSH1 0x20 DUP4 ADD DUP8 PUSH2 0x9D2 JUMP JUMPDEST PUSH2 0xC5F PUSH1 0x40 DUP4 ADD DUP7 PUSH2 0xB92 JUMP JUMPDEST DUP2 DUP2 SUB PUSH1 0x60 DUP4 ADD MSTORE PUSH2 0xC72 DUP2 DUP5 DUP7 PUSH2 0x9E1 JUMP JUMPDEST SWAP1 POP SWAP6 SWAP5 POP POP POP POP POP JUMP JUMPDEST PUSH1 0x0 PUSH1 0x80 DUP3 ADD SWAP1 POP DUP2 DUP2 SUB PUSH1 0x0 DUP4 ADD MSTORE PUSH2 0xC96 DUP2 PUSH2 0xB12 JUMP JUMPDEST SWAP1 POP PUSH2 0xCA5 PUSH1 0x20 DUP4 ADD DUP6 PUSH2 0x9D2 JUMP JUMPDEST PUSH2 0xCB2 PUSH1 0x40 DUP4 ADD DUP5 PUSH2 0xB92 JUMP JUMPDEST DUP2 DUP2 SUB PUSH1 0x60 DUP4 ADD MSTORE PUSH2 0xCC3 DUP2 PUSH2 0xAF8 JUMP JUMPDEST SWAP1 POP SWAP4 SWAP3 POP POP POP JUMP JUMPDEST PUSH1 0x0 PUSH1 0x20 DUP3 ADD SWAP1 POP DUP2 DUP2 SUB PUSH1 0x0 DUP4 ADD MSTORE PUSH2 0xCE5 DUP2 PUSH2 0xB52 JUMP JUMPDEST SWAP1 POP SWAP2 SWAP1 POP JUMP JUMPDEST PUSH1 0x0 PUSH1 0x20 DUP3 ADD SWAP1 POP PUSH2 0xD01 PUSH1 0x0 DUP4 ADD DUP5 PUSH2 0xB92 JUMP JUMPDEST SWAP3 SWAP2 POP POP JUMP JUMPDEST PUSH1 0x0 PUSH1 0x40 MLOAD SWAP1 POP DUP2 DUP2 ADD DUP2 DUP2 LT PUSH8 0xFFFFFFFFFFFFFFFF DUP3 GT OR ISZERO PUSH2 0xD2E JUMPI PUSH2 0xD2D PUSH2 0xE59 JUMP JUMPDEST JUMPDEST DUP1 PUSH1 0x40 MSTORE POP SWAP2 SWAP1 POP JUMP JUMPDEST PUSH1 0x0 PUSH8 0xFFFFFFFFFFFFFFFF DUP3 GT ISZERO PUSH2 0xD53 JUMPI PUSH2 0xD52 PUSH2 0xE59 JUMP JUMPDEST JUMPDEST PUSH1 0x1F NOT PUSH1 0x1F DUP4 ADD AND SWAP1 POP PUSH1 0x20 DUP2 ADD SWAP1 POP SWAP2 SWAP1 POP JUMP JUMPDEST PUSH1 0x0 PUSH8 0xFFFFFFFFFFFFFFFF DUP3 GT ISZERO PUSH2 0xD83 JUMPI PUSH2 0xD82 PUSH2 0xE59 JUMP JUMPDEST JUMPDEST PUSH1 0x1F NOT PUSH1 0x1F DUP4 ADD AND SWAP1 POP PUSH1 0x20 DUP2 ADD SWAP1 POP SWAP2 SWAP1 POP JUMP JUMPDEST PUSH1 0x0 DUP2 MLOAD SWAP1 POP SWAP2 SWAP1 POP JUMP JUMPDEST PUSH1 0x0 DUP2 MLOAD SWAP1 POP SWAP2 SWAP1 POP JUMP JUMPDEST PUSH1 0x0 DUP3 DUP3 MSTORE PUSH1 0x20 DUP3 ADD SWAP1 POP SWAP3 SWAP2 POP POP JUMP JUMPDEST PUSH1 0x0 DUP2 SWAP1 POP SWAP3 SWAP2 POP POP JUMP JUMPDEST PUSH1 0x0 DUP3 DUP3 MSTORE PUSH1 0x20 DUP3 ADD SWAP1 POP SWAP3 SWAP2 POP POP JUMP JUMPDEST PUSH1 0x0 PUSH2 0xDE6 DUP3 PUSH2 0xDED JUMP JUMPDEST SWAP1 POP SWAP2 SWAP1 POP JUMP JUMPDEST PUSH1 0x0 PUSH20 0xFFFFFFFFFFFFFFFFFFFFFFFFFFFFFFFFFFFFFFFF DUP3 AND SWAP1 POP SWAP2 SWAP1 POP JUMP JUMPDEST PUSH1 0x0 DUP2 SWAP1 POP SWAP2 SWAP1 POP JUMP JUMPDEST DUP3 DUP2 DUP4 CALLDATACOPY PUSH1 0x0 DUP4 DUP4 ADD MSTORE POP POP POP JUMP JUMPDEST PUSH1 0x0 JUMPDEST DUP4 DUP2 LT ISZERO PUSH2 0xE44 JUMPI DUP1 DUP3 ADD MLOAD DUP2 DUP5 ADD MSTORE PUSH1 0x20 DUP2 ADD SWAP1 POP PUSH2 0xE29 JUMP JUMPDEST DUP4 DUP2 GT ISZERO PUSH2 0xE53 JUMPI PUSH1 0x0 DUP5 DUP5 ADD MSTORE JUMPDEST POP POP POP POP JUMP JUMPDEST PUSH32 0x4E487B7100000000000000000000000000000000000000000000000000000000 PUSH1 0x0 MSTORE PUSH1 0x41 PUSH1 0x4 MSTORE PUSH1 0x24 PUSH1 0x0 REVERT JUMPDEST PUSH1 0x0 PUSH1 0x1F NOT PUSH1 0x1F DUP4 ADD AND SWAP1 POP SWAP2 SWAP1 POP JUMP JUMPDEST PUSH2 0xEA2 DUP2 PUSH2 0xDDB JUMP JUMPDEST DUP2 EQ PUSH2 0xEAD JUMPI PUSH1 0x0 DUP1 REVERT JUMPDEST POP JUMP JUMPDEST PUSH2 0xEB9 DUP2 PUSH2 0xE0D JUMP JUMPDEST DUP2 EQ PUSH2 0xEC4 JUMPI PUSH1 0x0 DUP1 REVERT JUMPDEST POP JUMP INVALID LOG2 PUSH5 0x6970667358 0x22 SLT KECCAK256 0xEF 0xE2 PUSH14 0xD20ED237F0579493AE53850E57FF PUSH19 0x137F9DF9C5DEA0FF999587E6D51964736F6C63 NUMBER STOP ADDMOD STOP STOP CALLER "
				},
				"gasEstimates": {
					"creation": {
						"codeDepositCost": "767400",
						"executionCost": "799",
						"totalCost": "768199"
					},
					"external": {
						"": "infinite",
						"call1(address,bytes)": "infinite",
						"call2(address,string,uint256)": "infinite",
						"delegatecall(address)": "infinite",
						"getBalance()": "340",
						"getGasleft()": "402",
						"staticcall(address)": "infinite",
						"test(uint256)": "infinite"
					}
				},
				"methodIdentifiers": {
					"call1(address,bytes)": "29a20bca",
					"call2(address,string,uint256)": "5b6b7b86",
					"delegatecall(address)": "e108938b",
					"getBalance()": "12065fe0",
					"getGasleft()": "edb4b865",
					"staticcall(address)": "57b9fad3",
					"test(uint256)": "29e99f07"
				}
			},
			"storageLayout": {
				"storage": [],
				"types": null
			},
			"userdoc": {
				"kind": "user",
				"methods": {},
				"version": 1
			}
		}
	}
}