{
	"contracts/demo/TimeLock.sol": {
		"TestTimeLock": {
			"abi": [
				{
					"inputs": [
						{
							"internalType": "address",
							"name": "_timeLock",
							"type": "address"
						}
					],
					"stateMutability": "nonpayable",
					"type": "constructor"
				},
				{
					"inputs": [],
					"name": "getTimestamp",
					"outputs": [
						{
							"internalType": "uint256",
							"name": "",
							"type": "uint256"
						}
					],
					"stateMutability": "view",
					"type": "function"
				},
				{
					"inputs": [],
					"name": "test",
					"outputs": [],
					"stateMutability": "view",
					"type": "function"
				},
				{
					"inputs": [],
					"name": "timeLock",
					"outputs": [
						{
							"internalType": "address",
							"name": "",
							"type": "address"
						}
					],
					"stateMutability": "view",
					"type": "function"
				}
			],
			"devdoc": {
				"kind": "dev",
				"methods": {},
				"version": 1
			},
			"evm": {
				"assembly": "    /* \"contracts/demo/TimeLock.sol\":4020:4449  contract TestTimeLock {... */\n  mstore(0x40, 0x80)\n    /* \"contracts/demo/TimeLock.sol\":4078:4146  constructor(address _timeLock) {... */\n  callvalue\n  dup1\n  iszero\n  tag_1\n  jumpi\n  0x00\n  dup1\n  revert\ntag_1:\n  pop\n  mload(0x40)\n  sub(codesize, bytecodeSize)\n  dup1\n  bytecodeSize\n  dup4\n  codecopy\n  dup2\n  add\n  0x40\n  dup2\n  swap1\n  mstore\n  tag_2\n  swap2\n  tag_3\n  jump\t// in\ntag_2:\n    /* \"contracts/demo/TimeLock.sol\":4119:4127  timeLock */\n  0x00\n    /* \"contracts/demo/TimeLock.sol\":4119:4139  timeLock = _timeLock */\n  dup1\n  sload\n  not(sub(shl(0xa0, 0x01), 0x01))\n  and\n  sub(shl(0xa0, 0x01), 0x01)\n  swap3\n  swap1\n  swap3\n  and\n  swap2\n  swap1\n  swap2\n  or\n  swap1\n  sstore\n    /* \"contracts/demo/TimeLock.sol\":4020:4449  contract TestTimeLock {... */\n  jump(tag_7)\n    /* \"#utility.yul\":14:304   */\ntag_3:\n    /* \"#utility.yul\":84:90   */\n  0x00\n    /* \"#utility.yul\":137:139   */\n  0x20\n    /* \"#utility.yul\":125:134   */\n  dup3\n    /* \"#utility.yul\":116:123   */\n  dup5\n    /* \"#utility.yul\":112:135   */\n  sub\n    /* \"#utility.yul\":108:140   */\n  slt\n    /* \"#utility.yul\":105:157   */\n  iszero\n  tag_9\n  jumpi\n    /* \"#utility.yul\":153:154   */\n  0x00\n    /* \"#utility.yul\":150:151   */\n  dup1\n    /* \"#utility.yul\":143:155   */\n  revert\n    /* \"#utility.yul\":105:157   */\ntag_9:\n    /* \"#utility.yul\":179:195   */\n  dup2\n  mload\n  sub(shl(0xa0, 0x01), 0x01)\n    /* \"#utility.yul\":224:255   */\n  dup2\n  and\n    /* \"#utility.yul\":214:256   */\n  dup2\n  eq\n    /* \"#utility.yul\":204:274   */\n  tag_10\n  jumpi\n    /* \"#utility.yul\":270:271   */\n  0x00\n    /* \"#utility.yul\":267:268   */\n  dup1\n    /* \"#utility.yul\":260:272   */\n  revert\n    /* \"#utility.yul\":204:274   */\ntag_10:\n    /* \"#utility.yul\":293:298   */\n  swap4\n    /* \"#utility.yul\":14:304   */\n  swap3\n  pop\n  pop\n  pop\n  jump\t// out\ntag_7:\n    /* \"contracts/demo/TimeLock.sol\":4020:4449  contract TestTimeLock {... */\n  dataSize(sub_0)\n  dup1\n  dataOffset(sub_0)\n  0x00\n  codecopy\n  0x00\n  return\nstop\n\nsub_0: assembly {\n        /* \"contracts/demo/TimeLock.sol\":4020:4449  contract TestTimeLock {... */\n      mstore(0x40, 0x80)\n      callvalue\n      dup1\n      iszero\n      tag_1\n      jumpi\n      0x00\n      dup1\n      revert\n    tag_1:\n      pop\n      jumpi(tag_2, lt(calldatasize, 0x04))\n      shr(0xe0, calldataload(0x00))\n      dup1\n      0x188ec356\n      eq\n      tag_3\n      jumpi\n      dup1\n      0xd085835a\n      eq\n      tag_4\n      jumpi\n      dup1\n      0xf8a8fd6d\n      eq\n      tag_5\n      jumpi\n    tag_2:\n      0x00\n      dup1\n      revert\n        /* \"contracts/demo/TimeLock.sol\":4346:4447  function getTimestamp() external view returns (uint256) {... */\n    tag_3:\n      tag_6\n      tag_7\n      jump\t// in\n    tag_6:\n      mload(0x40)\n        /* \"#utility.yul\":160:185   */\n      swap1\n      dup2\n      mstore\n        /* \"#utility.yul\":148:150   */\n      0x20\n        /* \"#utility.yul\":133:151   */\n      add\n        /* \"contracts/demo/TimeLock.sol\":4346:4447  function getTimestamp() external view returns (uint256) {... */\n    tag_8:\n      mload(0x40)\n      dup1\n      swap2\n      sub\n      swap1\n      return\n        /* \"contracts/demo/TimeLock.sol\":4048:4071  address public timeLock */\n    tag_4:\n      sload(0x00)\n      tag_10\n      swap1\n      sub(shl(0xa0, 0x01), 0x01)\n      and\n      dup2\n      jump\n    tag_10:\n      mload(0x40)\n      sub(shl(0xa0, 0x01), 0x01)\n        /* \"#utility.yul\":360:392   */\n      swap1\n      swap2\n      and\n        /* \"#utility.yul\":342:393   */\n      dup2\n      mstore\n        /* \"#utility.yul\":330:332   */\n      0x20\n        /* \"#utility.yul\":315:333   */\n      add\n        /* \"contracts/demo/TimeLock.sol\":4048:4071  address public timeLock */\n      tag_8\n        /* \"#utility.yul\":196:399   */\n      jump\n        /* \"contracts/demo/TimeLock.sol\":4152:4340  function test() external view {... */\n    tag_5:\n      tag_14\n      tag_15\n      jump\t// in\n    tag_14:\n      stop\n        /* \"contracts/demo/TimeLock.sol\":4346:4447  function getTimestamp() external view returns (uint256) {... */\n    tag_7:\n        /* \"contracts/demo/TimeLock.sol\":4393:4400  uint256 */\n      0x00\n        /* \"contracts/demo/TimeLock.sol\":4419:4440  block.timestamp + 100 */\n      tag_17\n        /* \"contracts/demo/TimeLock.sol\":4419:4434  block.timestamp */\n      timestamp\n        /* \"contracts/demo/TimeLock.sol\":4437:4440  100 */\n      0x64\n        /* \"contracts/demo/TimeLock.sol\":4419:4440  block.timestamp + 100 */\n      tag_18\n      jump\t// in\n    tag_17:\n        /* \"contracts/demo/TimeLock.sol\":4412:4440  return block.timestamp + 100 */\n      swap1\n      pop\n        /* \"contracts/demo/TimeLock.sol\":4346:4447  function getTimestamp() external view returns (uint256) {... */\n      swap1\n      jump\t// out\n        /* \"contracts/demo/TimeLock.sol\":4152:4340  function test() external view {... */\n    tag_15:\n        /* \"contracts/demo/TimeLock.sol\":4214:4222  timeLock */\n      and(sub(shl(0xa0, 0x01), 0x01), sload(0x00))\n        /* \"contracts/demo/TimeLock.sol\":4200:4210  msg.sender */\n      caller\n        /* \"contracts/demo/TimeLock.sol\":4200:4222  msg.sender == timeLock */\n      eq\n        /* \"contracts/demo/TimeLock.sol\":4192:4223  require(msg.sender == timeLock) */\n      tag_20\n      jumpi\n      0x00\n      dup1\n      revert\n    tag_20:\n        /* \"contracts/demo/TimeLock.sol\":4152:4340  function test() external view {... */\n      jump\t// out\n        /* \"#utility.yul\":404:626   */\n    tag_18:\n        /* \"#utility.yul\":469:478   */\n      dup1\n      dup3\n      add\n        /* \"#utility.yul\":490:500   */\n      dup1\n      dup3\n      gt\n        /* \"#utility.yul\":487:620   */\n      iszero\n      tag_25\n      jumpi\n        /* \"#utility.yul\":542:552   */\n      0x4e487b71\n        /* \"#utility.yul\":537:540   */\n      0xe0\n        /* \"#utility.yul\":533:553   */\n      shl\n        /* \"#utility.yul\":530:531   */\n      0x00\n        /* \"#utility.yul\":523:554   */\n      mstore\n        /* \"#utility.yul\":577:581   */\n      0x11\n        /* \"#utility.yul\":574:575   */\n      0x04\n        /* \"#utility.yul\":567:582   */\n      mstore\n        /* \"#utility.yul\":605:609   */\n      0x24\n        /* \"#utility.yul\":602:603   */\n      0x00\n        /* \"#utility.yul\":595:610   */\n      revert\n        /* \"#utility.yul\":487:620   */\n    tag_25:\n        /* \"#utility.yul\":404:626   */\n      swap3\n      swap2\n      pop\n      pop\n      jump\t// out\n\n    auxdata: 0xa2646970667358221220b0a37fb838f24dad7d20871ca31b4a80ea5a5c7493282e248ae1d15c17d518e664736f6c634300081a0033\n}\n",
				"bytecode": {
					"linkReferences": {},
					"object": "6080604052348015600e575f80fd5b5060405161018c38038061018c833981016040819052602b91604e565b5f80546001600160a01b0319166001600160a01b03929092169190911790556079565b5f60208284031215605d575f80fd5b81516001600160a01b03811681146072575f80fd5b9392505050565b610106806100865f395ff3fe6080604052348015600e575f80fd5b5060043610603a575f3560e01c8063188ec35614603e578063d085835a146057578063f8a8fd6d14607f575b5f80fd5b60446087565b6040519081526020015b60405180910390f35b5f546068906001600160a01b031681565b6040516001600160a01b039091168152602001604e565b60856096565b005b5f609142606460ac565b905090565b5f546001600160a01b0316331460aa575f80fd5b565b8082018082111560ca57634e487b7160e01b5f52601160045260245ffd5b9291505056fea2646970667358221220b0a37fb838f24dad7d20871ca31b4a80ea5a5c7493282e248ae1d15c17d518e664736f6c634300081a0033",
					"opcodes": "PUSH1 0x80 PUSH1 0x40 MSTORE CALLVALUE DUP1 ISZERO PUSH1 0xE JUMPI PUSH0 DUP1 REVERT JUMPDEST POP PUSH1 0x40 MLOAD PUSH2 0x18C CODESIZE SUB DUP1 PUSH2 0x18C DUP4 CODECOPY DUP2 ADD PUSH1 0x40 DUP2 SWAP1 MSTORE PUSH1 0x2B SWAP2 PUSH1 0x4E JUMP JUMPDEST PUSH0 DUP1 SLOAD PUSH1 0x1 PUSH1 0x1 PUSH1 0xA0 SHL SUB NOT AND PUSH1 0x1 PUSH1 0x1 PUSH1 0xA0 SHL SUB SWAP3 SWAP1 SWAP3 AND SWAP2 SWAP1 SWAP2 OR SWAP1 SSTORE PUSH1 0x79 JUMP JUMPDEST PUSH0 PUSH1 0x20 DUP3 DUP5 SUB SLT ISZERO PUSH1 0x5D JUMPI PUSH0 DUP1 REVERT JUMPDEST DUP2 MLOAD PUSH1 0x1 PUSH1 0x1 PUSH1 0xA0 SHL SUB DUP2 AND DUP2 EQ PUSH1 0x72 JUMPI PUSH0 DUP1 REVERT JUMPDEST SWAP4 SWAP3 POP POP POP JUMP JUMPDEST PUSH2 0x106 DUP1 PUSH2 0x86 PUSH0 CODECOPY PUSH0 RETURN INVALID PUSH1 0x80 PUSH1 0x40 MSTORE CALLVALUE DUP1 ISZERO PUSH1 0xE JUMPI PUSH0 DUP1 REVERT JUMPDEST POP PUSH1 0x4 CALLDATASIZE LT PUSH1 0x3A JUMPI PUSH0 CALLDATALOAD PUSH1 0xE0 SHR DUP1 PUSH4 0x188EC356 EQ PUSH1 0x3E JUMPI DUP1 PUSH4 0xD085835A EQ PUSH1 0x57 JUMPI DUP1 PUSH4 0xF8A8FD6D EQ PUSH1 0x7F JUMPI JUMPDEST PUSH0 DUP1 REVERT JUMPDEST PUSH1 0x44 PUSH1 0x87 JUMP JUMPDEST PUSH1 0x40 MLOAD SWAP1 DUP2 MSTORE PUSH1 0x20 ADD JUMPDEST PUSH1 0x40 MLOAD DUP1 SWAP2 SUB SWAP1 RETURN JUMPDEST PUSH0 SLOAD PUSH1 0x68 SWAP1 PUSH1 0x1 PUSH1 0x1 PUSH1 0xA0 SHL SUB AND DUP2 JUMP JUMPDEST PUSH1 0x40 MLOAD PUSH1 0x1 PUSH1 0x1 PUSH1 0xA0 SHL SUB SWAP1 SWAP2 AND DUP2 MSTORE PUSH1 0x20 ADD PUSH1 0x4E JUMP JUMPDEST PUSH1 0x85 PUSH1 0x96 JUMP JUMPDEST STOP JUMPDEST PUSH0 PUSH1 0x91 TIMESTAMP PUSH1 0x64 PUSH1 0xAC JUMP JUMPDEST SWAP1 POP SWAP1 JUMP JUMPDEST PUSH0 SLOAD PUSH1 0x1 PUSH1 0x1 PUSH1 0xA0 SHL SUB AND CALLER EQ PUSH1 0xAA JUMPI PUSH0 DUP1 REVERT JUMPDEST JUMP JUMPDEST DUP1 DUP3 ADD DUP1 DUP3 GT ISZERO PUSH1 0xCA JUMPI PUSH4 0x4E487B71 PUSH1 0xE0 SHL PUSH0 MSTORE PUSH1 0x11 PUSH1 0x4 MSTORE PUSH1 0x24 PUSH0 REVERT JUMPDEST SWAP3 SWAP2 POP POP JUMP INVALID LOG2 PUSH5 0x6970667358 0x22 SLT KECCAK256 0xB0 LOG3 PUSH32 0xB838F24DAD7D20871CA31B4A80EA5A5C7493282E248AE1D15C17D518E664736F PUSH13 0x634300081A0033000000000000 "
				},
				"gasEstimates": {
					"creation": {
						"codeDepositCost": "52400",
						"executionCost": "infinite",
						"totalCost": "infinite"
					},
					"external": {
						"getTimestamp()": "251",
						"test()": "2304",
						"timeLock()": "2335"
					}
				},
				"methodIdentifiers": {
					"getTimestamp()": "188ec356",
					"test()": "f8a8fd6d",
					"timeLock()": "d085835a"
				}
			},
			"storageLayout": {
				"storage": [
					{
						"astId": 378,
						"contract": "contracts/demo/TimeLock.sol:TestTimeLock",
						"label": "timeLock",
						"offset": 0,
						"slot": "0",
						"type": "t_address"
					}
				],
				"types": {
					"t_address": {
						"encoding": "inplace",
						"label": "address",
						"numberOfBytes": "20"
					}
				}
			},
			"userdoc": {
				"kind": "user",
				"methods": {},
				"version": 1
			}
		}
	}
}