{
	"contracts/demo/TimeLock.sol": {
		"TimeLock": {
			"abi": [
				{
					"inputs": [],
					"stateMutability": "nonpayable",
					"type": "constructor"
				},
				{
					"inputs": [
						{
							"internalType": "bytes32",
							"name": "txId",
							"type": "bytes32"
						}
					],
					"name": "AlreadyQueuedError",
					"type": "error"
				},
				{
					"inputs": [],
					"name": "NotOwnerError",
					"type": "error"
				},
				{
					"inputs": [
						{
							"internalType": "bytes32",
							"name": "txId",
							"type": "bytes32"
						}
					],
					"name": "NotQueuedError",
					"type": "error"
				},
				{
					"inputs": [
						{
							"internalType": "uint256",
							"name": "blockTimestamp",
							"type": "uint256"
						},
						{
							"internalType": "uint256",
							"name": "expiredAt",
							"type": "uint256"
						}
					],
					"name": "TimestampExpiredError",
					"type": "error"
				},
				{
					"inputs": [
						{
							"internalType": "uint256",
							"name": "blockTimestamp",
							"type": "uint256"
						},
						{
							"internalType": "uint256",
							"name": "timestamp",
							"type": "uint256"
						}
					],
					"name": "TimestampNotInRangeError",
					"type": "error"
				},
				{
					"inputs": [
						{
							"internalType": "uint256",
							"name": "blockTimestamp",
							"type": "uint256"
						},
						{
							"internalType": "uint256",
							"name": "timestamp",
							"type": "uint256"
						}
					],
					"name": "TimestampNotPassedError",
					"type": "error"
				},
				{
					"inputs": [],
					"name": "TxFailedError",
					"type": "error"
				},
				{
					"anonymous": false,
					"inputs": [
						{
							"indexed": true,
							"internalType": "bytes32",
							"name": "txId",
							"type": "bytes32"
						}
					],
					"name": "Cancel",
					"type": "event"
				},
				{
					"anonymous": false,
					"inputs": [
						{
							"indexed": true,
							"internalType": "bytes32",
							"name": "txId",
							"type": "bytes32"
						},
						{
							"indexed": true,
							"internalType": "address",
							"name": "target",
							"type": "address"
						},
						{
							"indexed": false,
							"internalType": "uint256",
							"name": "value",
							"type": "uint256"
						},
						{
							"indexed": false,
							"internalType": "string",
							"name": "func",
							"type": "string"
						},
						{
							"indexed": false,
							"internalType": "bytes",
							"name": "data",
							"type": "bytes"
						},
						{
							"indexed": false,
							"internalType": "uint256",
							"name": "timestamp",
							"type": "uint256"
						}
					],
					"name": "Execute",
					"type": "event"
				},
				{
					"anonymous": false,
					"inputs": [
						{
							"indexed": true,
							"internalType": "bytes32",
							"name": "txId",
							"type": "bytes32"
						},
						{
							"indexed": true,
							"internalType": "address",
							"name": "target",
							"type": "address"
						},
						{
							"indexed": false,
							"internalType": "uint256",
							"name": "value",
							"type": "uint256"
						},
						{
							"indexed": false,
							"internalType": "string",
							"name": "func",
							"type": "string"
						},
						{
							"indexed": false,
							"internalType": "bytes",
							"name": "data",
							"type": "bytes"
						},
						{
							"indexed": false,
							"internalType": "uint256",
							"name": "timestamp",
							"type": "uint256"
						}
					],
					"name": "Queue",
					"type": "event"
				},
				{
					"inputs": [],
					"name": "GRACE_PERIOD",
					"outputs": [
						{
							"internalType": "uint256",
							"name": "",
							"type": "uint256"
						}
					],
					"stateMutability": "view",
					"type": "function"
				},
				{
					"inputs": [],
					"name": "MAX_DELAY",
					"outputs": [
						{
							"internalType": "uint256",
							"name": "",
							"type": "uint256"
						}
					],
					"stateMutability": "view",
					"type": "function"
				},
				{
					"inputs": [],
					"name": "MIN_DELAY",
					"outputs": [
						{
							"internalType": "uint256",
							"name": "",
							"type": "uint256"
						}
					],
					"stateMutability": "view",
					"type": "function"
				},
				{
					"inputs": [
						{
							"internalType": "bytes32",
							"name": "_txId",
							"type": "bytes32"
						}
					],
					"name": "cancel",
					"outputs": [],
					"stateMutability": "nonpayable",
					"type": "function"
				},
				{
					"inputs": [
						{
							"internalType": "address",
							"name": "_target",
							"type": "address"
						},
						{
							"internalType": "uint256",
							"name": "_value",
							"type": "uint256"
						},
						{
							"internalType": "string",
							"name": "_func",
							"type": "string"
						},
						{
							"internalType": "bytes",
							"name": "_data",
							"type": "bytes"
						},
						{
							"internalType": "uint256",
							"name": "_timestamp",
							"type": "uint256"
						}
					],
					"name": "execute",
					"outputs": [
						{
							"internalType": "bytes",
							"name": "",
							"type": "bytes"
						}
					],
					"stateMutability": "payable",
					"type": "function"
				},
				{
					"inputs": [],
					"name": "getTimestame",
					"outputs": [
						{
							"internalType": "uint256",
							"name": "",
							"type": "uint256"
						}
					],
					"stateMutability": "view",
					"type": "function"
				},
				{
					"inputs": [
						{
							"internalType": "address",
							"name": "_target",
							"type": "address"
						},
						{
							"internalType": "uint256",
							"name": "_value",
							"type": "uint256"
						},
						{
							"internalType": "string",
							"name": "_func",
							"type": "string"
						},
						{
							"internalType": "bytes",
							"name": "_data",
							"type": "bytes"
						},
						{
							"internalType": "uint256",
							"name": "_timestamp",
							"type": "uint256"
						}
					],
					"name": "getTxId",
					"outputs": [
						{
							"internalType": "bytes32",
							"name": "txId",
							"type": "bytes32"
						}
					],
					"stateMutability": "pure",
					"type": "function"
				},
				{
					"inputs": [],
					"name": "owner",
					"outputs": [
						{
							"internalType": "address",
							"name": "",
							"type": "address"
						}
					],
					"stateMutability": "view",
					"type": "function"
				},
				{
					"inputs": [
						{
							"internalType": "address",
							"name": "_target",
							"type": "address"
						},
						{
							"internalType": "uint256",
							"name": "_value",
							"type": "uint256"
						},
						{
							"internalType": "string",
							"name": "_func",
							"type": "string"
						},
						{
							"internalType": "bytes",
							"name": "_data",
							"type": "bytes"
						},
						{
							"internalType": "uint256",
							"name": "_timestamp",
							"type": "uint256"
						}
					],
					"name": "queue",
					"outputs": [],
					"stateMutability": "nonpayable",
					"type": "function"
				},
				{
					"inputs": [
						{
							"internalType": "bytes32",
							"name": "",
							"type": "bytes32"
						}
					],
					"name": "queued",
					"outputs": [
						{
							"internalType": "bool",
							"name": "",
							"type": "bool"
						}
					],
					"stateMutability": "view",
					"type": "function"
				},
				{
					"stateMutability": "payable",
					"type": "receive"
				}
			],
			"devdoc": {
				"kind": "dev",
				"methods": {},
				"version": 1
			},
			"evm": {
				"assembly": "    /* \"contracts/demo/TimeLock.sol\":57:4023  contract TimeLock {... */\n  mstore(0x40, 0x80)\n    /* \"contracts/demo/TimeLock.sol\":1061:1110  constructor() {... */\n  callvalue\n  dup1\n  iszero\n  tag_1\n  jumpi\n  0x00\n  dup1\n  revert\ntag_1:\n  pop\n    /* \"contracts/demo/TimeLock.sol\":1085:1090  owner */\n  0x00\n    /* \"contracts/demo/TimeLock.sol\":1085:1103  owner = msg.sender */\n  dup1\n  sload\n  not(sub(shl(0xa0, 0x01), 0x01))\n  and\n    /* \"contracts/demo/TimeLock.sol\":1093:1103  msg.sender */\n  caller\n    /* \"contracts/demo/TimeLock.sol\":1085:1103  owner = msg.sender */\n  or\n  swap1\n  sstore\n    /* \"contracts/demo/TimeLock.sol\":57:4023  contract TimeLock {... */\n  dataSize(sub_0)\n  dup1\n  dataOffset(sub_0)\n  0x00\n  codecopy\n  0x00\n  return\nstop\n\nsub_0: assembly {\n        /* \"contracts/demo/TimeLock.sol\":57:4023  contract TimeLock {... */\n      mstore(0x40, 0x80)\n      jumpi(tag_1, lt(calldatasize, 0x04))\n      shr(0xe0, calldataload(0x00))\n      dup1\n      0x8da5cb5b\n      gt\n      tag_13\n      jumpi\n      dup1\n      0x8da5cb5b\n      eq\n      tag_8\n      jumpi\n      dup1\n      0x9f81aed7\n      eq\n      tag_9\n      jumpi\n      dup1\n      0xb0f8b142\n      eq\n      tag_10\n      jumpi\n      dup1\n      0xc1a287e2\n      eq\n      tag_4\n      jumpi\n      dup1\n      0xc4d252f5\n      eq\n      tag_12\n      jumpi\n      0x00\n      dup1\n      revert\n    tag_13:\n      dup1\n      0x228250c9\n      eq\n      tag_3\n      jumpi\n      dup1\n      0x4125ff90\n      eq\n      tag_4\n      jumpi\n      dup1\n      0x4b9915a5\n      eq\n      tag_5\n      jumpi\n      dup1\n      0x6b874205\n      eq\n      tag_6\n      jumpi\n      dup1\n      0x8a1ce0b6\n      eq\n      tag_7\n      jumpi\n      0x00\n      dup1\n      revert\n    tag_1:\n      jumpi(tag_2, calldatasize)\n      stop\n    tag_2:\n      0x00\n      dup1\n      revert\n        /* \"contracts/demo/TimeLock.sol\":1016:1054  mapping(bytes32 => bool) public queued */\n    tag_3:\n      callvalue\n      dup1\n      iszero\n      tag_16\n      jumpi\n      0x00\n      dup1\n      revert\n    tag_16:\n      pop\n      tag_17\n      tag_18\n      calldatasize\n      0x04\n      tag_19\n      jump\t// in\n    tag_18:\n      mstore(0x20, 0x01)\n      0x00\n      swap1\n      dup2\n      mstore\n      0x40\n      swap1\n      keccak256\n      sload\n      0xff\n      and\n      dup2\n      jump\n    tag_17:\n      mload(0x40)\n        /* \"#utility.yul\":3838:3852   */\n      swap1\n      iszero\n        /* \"#utility.yul\":3831:3853   */\n      iszero\n        /* \"#utility.yul\":3813:3854   */\n      dup2\n      mstore\n        /* \"#utility.yul\":3801:3803   */\n      0x20\n        /* \"#utility.yul\":3786:3804   */\n      add\n        /* \"contracts/demo/TimeLock.sol\":1016:1054  mapping(bytes32 => bool) public queued */\n    tag_21:\n      mload(0x40)\n      dup1\n      swap2\n      sub\n      swap1\n      return\n        /* \"contracts/demo/TimeLock.sol\":895:935  uint256 public constant MAX_DELAY = 1000 */\n    tag_4:\n      callvalue\n      dup1\n      iszero\n      tag_23\n      jumpi\n      0x00\n      dup1\n      revert\n    tag_23:\n      pop\n      tag_24\n        /* \"contracts/demo/TimeLock.sol\":931:935  1000 */\n      0x03e8\n        /* \"contracts/demo/TimeLock.sol\":895:935  uint256 public constant MAX_DELAY = 1000 */\n      dup2\n      jump\n    tag_24:\n      mload(0x40)\n        /* \"#utility.yul\":4011:4036   */\n      swap1\n      dup2\n      mstore\n        /* \"#utility.yul\":3999:4001   */\n      0x20\n        /* \"#utility.yul\":3984:4002   */\n      add\n        /* \"contracts/demo/TimeLock.sol\":895:935  uint256 public constant MAX_DELAY = 1000 */\n      tag_21\n        /* \"#utility.yul\":3865:4042   */\n      jump\n        /* \"contracts/demo/TimeLock.sol\":1567:2347  function queue(... */\n    tag_5:\n      callvalue\n      dup1\n      iszero\n      tag_28\n      jumpi\n      0x00\n      dup1\n      revert\n    tag_28:\n      pop\n      tag_29\n      tag_30\n      calldatasize\n      0x04\n      tag_31\n      jump\t// in\n    tag_30:\n      tag_32\n      jump\t// in\n    tag_29:\n      stop\n        /* \"contracts/demo/TimeLock.sol\":3914:4021  function getTimestame() external view returns (uint256) {... */\n    tag_6:\n      callvalue\n      dup1\n      iszero\n      tag_33\n      jumpi\n      0x00\n      dup1\n      revert\n    tag_33:\n      pop\n      tag_24\n      tag_35\n      jump\t// in\n        /* \"contracts/demo/TimeLock.sol\":1277:1561  function getTxId(... */\n    tag_7:\n      callvalue\n      dup1\n      iszero\n      tag_37\n      jumpi\n      0x00\n      dup1\n      revert\n    tag_37:\n      pop\n      tag_24\n      tag_39\n      calldatasize\n      0x04\n      tag_31\n      jump\t// in\n    tag_39:\n      tag_40\n      jump\t// in\n        /* \"contracts/demo/TimeLock.sol\":990:1010  address public owner */\n    tag_8:\n      callvalue\n      dup1\n      iszero\n      tag_43\n      jumpi\n      0x00\n      dup1\n      revert\n    tag_43:\n      pop\n      sload(0x00)\n      tag_44\n      swap1\n      sub(shl(0xa0, 0x01), 0x01)\n      and\n      dup2\n      jump\n    tag_44:\n      mload(0x40)\n      sub(shl(0xa0, 0x01), 0x01)\n        /* \"#utility.yul\":2949:2981   */\n      swap1\n      swap2\n      and\n        /* \"#utility.yul\":2931:2982   */\n      dup2\n      mstore\n        /* \"#utility.yul\":2919:2921   */\n      0x20\n        /* \"#utility.yul\":2904:2922   */\n      add\n        /* \"contracts/demo/TimeLock.sol\":990:1010  address public owner */\n      tag_21\n        /* \"#utility.yul\":2785:2988   */\n      jump\n        /* \"contracts/demo/TimeLock.sol\":851:889  uint256 public constant MIN_DELAY = 10 */\n    tag_9:\n      callvalue\n      dup1\n      iszero\n      tag_48\n      jumpi\n      0x00\n      dup1\n      revert\n    tag_48:\n      pop\n      tag_24\n        /* \"contracts/demo/TimeLock.sol\":887:889  10 */\n      0x0a\n        /* \"contracts/demo/TimeLock.sol\":851:889  uint256 public constant MIN_DELAY = 10 */\n      dup2\n      jump\n        /* \"contracts/demo/TimeLock.sol\":2353:3704  function execute(... */\n    tag_10:\n      tag_52\n      tag_53\n      calldatasize\n      0x04\n      tag_31\n      jump\t// in\n    tag_53:\n      tag_54\n      jump\t// in\n    tag_52:\n      mload(0x40)\n      tag_21\n      swap2\n      swap1\n      tag_56\n      jump\t// in\n        /* \"contracts/demo/TimeLock.sol\":3710:3908  function cancel(bytes32 _txId) external onlyOwner {... */\n    tag_12:\n      callvalue\n      dup1\n      iszero\n      tag_61\n      jumpi\n      0x00\n      dup1\n      revert\n    tag_61:\n      pop\n      tag_29\n      tag_63\n      calldatasize\n      0x04\n      tag_19\n      jump\t// in\n    tag_63:\n      tag_64\n      jump\t// in\n        /* \"contracts/demo/TimeLock.sol\":1567:2347  function queue(... */\n    tag_32:\n        /* \"contracts/demo/TimeLock.sol\":1200:1205  owner */\n      and(sub(shl(0xa0, 0x01), 0x01), sload(0x00))\n        /* \"contracts/demo/TimeLock.sol\":1186:1196  msg.sender */\n      caller\n        /* \"contracts/demo/TimeLock.sol\":1186:1205  msg.sender != owner */\n      eq\n        /* \"contracts/demo/TimeLock.sol\":1182:1254  if (msg.sender != owner) {... */\n      tag_66\n      jumpi\n        /* \"contracts/demo/TimeLock.sol\":1228:1243  NotOwnerError() */\n      mload(0x40)\n      shl(0xe0, 0x74a21527)\n      dup2\n      mstore\n      0x04\n      add\n      mload(0x40)\n      dup1\n      swap2\n      sub\n      swap1\n      revert\n        /* \"contracts/demo/TimeLock.sol\":1182:1254  if (msg.sender != owner) {... */\n    tag_66:\n        /* \"contracts/demo/TimeLock.sol\":1755:1767  bytes32 txId */\n      0x00\n        /* \"contracts/demo/TimeLock.sol\":1770:1820  getTxId(_target, _value, _func, _data, _timestamp) */\n      tag_68\n        /* \"contracts/demo/TimeLock.sol\":1778:1785  _target */\n      dup9\n        /* \"contracts/demo/TimeLock.sol\":1787:1793  _value */\n      dup9\n        /* \"contracts/demo/TimeLock.sol\":1795:1800  _func */\n      dup9\n      dup9\n        /* \"contracts/demo/TimeLock.sol\":1802:1807  _data */\n      dup9\n      dup9\n        /* \"contracts/demo/TimeLock.sol\":1809:1819  _timestamp */\n      dup9\n        /* \"contracts/demo/TimeLock.sol\":1770:1777  getTxId */\n      tag_40\n        /* \"contracts/demo/TimeLock.sol\":1770:1820  getTxId(_target, _value, _func, _data, _timestamp) */\n      jump\t// in\n    tag_68:\n        /* \"contracts/demo/TimeLock.sol\":1834:1846  queued[txId] */\n      0x00\n      dup2\n      dup2\n      mstore\n        /* \"contracts/demo/TimeLock.sol\":1834:1840  queued */\n      0x01\n        /* \"contracts/demo/TimeLock.sol\":1834:1846  queued[txId] */\n      0x20\n      mstore\n      0x40\n      swap1\n      keccak256\n      sload\n        /* \"contracts/demo/TimeLock.sol\":1755:1820  bytes32 txId = getTxId(_target, _value, _func, _data, _timestamp) */\n      swap1\n      swap2\n      pop\n        /* \"contracts/demo/TimeLock.sol\":1834:1846  queued[txId] */\n      0xff\n      and\n        /* \"contracts/demo/TimeLock.sol\":1830:1904  if (queued[txId]) {... */\n      iszero\n      tag_69\n      jumpi\n        /* \"contracts/demo/TimeLock.sol\":1869:1893  AlreadyQueuedError(txId) */\n      mload(0x40)\n      shl(0xe1, 0x4ca8215f)\n      dup2\n      mstore\n      0x04\n      dup2\n      add\n        /* \"#utility.yul\":4011:4036   */\n      dup3\n      swap1\n      mstore\n        /* \"#utility.yul\":3984:4002   */\n      0x24\n      add\n        /* \"contracts/demo/TimeLock.sol\":1869:1893  AlreadyQueuedError(txId) */\n    tag_70:\n      mload(0x40)\n      dup1\n      swap2\n      sub\n      swap1\n      revert\n        /* \"contracts/demo/TimeLock.sol\":1830:1904  if (queued[txId]) {... */\n    tag_69:\n        /* \"contracts/demo/TimeLock.sol\":2043:2070  block.timestamp + MIN_DELAY */\n      tag_71\n        /* \"contracts/demo/TimeLock.sol\":887:889  10 */\n      0x0a\n        /* \"contracts/demo/TimeLock.sol\":2043:2058  block.timestamp */\n      timestamp\n        /* \"contracts/demo/TimeLock.sol\":2043:2070  block.timestamp + MIN_DELAY */\n      tag_72\n      jump\t// in\n    tag_71:\n        /* \"contracts/demo/TimeLock.sol\":2030:2040  _timestamp */\n      dup3\n        /* \"contracts/demo/TimeLock.sol\":2030:2070  _timestamp < block.timestamp + MIN_DELAY */\n      lt\n        /* \"contracts/demo/TimeLock.sol\":2030:2126  _timestamp < block.timestamp + MIN_DELAY ||... */\n      dup1\n      tag_73\n      jumpi\n      pop\n        /* \"contracts/demo/TimeLock.sol\":2099:2126  block.timestamp + MAX_DELAY */\n      tag_74\n        /* \"contracts/demo/TimeLock.sol\":931:935  1000 */\n      0x03e8\n        /* \"contracts/demo/TimeLock.sol\":2099:2114  block.timestamp */\n      timestamp\n        /* \"contracts/demo/TimeLock.sol\":2099:2126  block.timestamp + MAX_DELAY */\n      tag_72\n      jump\t// in\n    tag_74:\n        /* \"contracts/demo/TimeLock.sol\":2086:2096  _timestamp */\n      dup3\n        /* \"contracts/demo/TimeLock.sol\":2086:2126  _timestamp > block.timestamp + MAX_DELAY */\n      gt\n        /* \"contracts/demo/TimeLock.sol\":2030:2126  _timestamp < block.timestamp + MIN_DELAY ||... */\n    tag_73:\n        /* \"contracts/demo/TimeLock.sol\":2013:2222  if (... */\n      iszero\n      tag_75\n      jumpi\n        /* \"contracts/demo/TimeLock.sol\":2158:2211  TimestampNotInRangeError(block.timestamp, _timestamp) */\n      mload(0x40)\n      shl(0xe1, 0x0d4b0b61)\n      dup2\n      mstore\n        /* \"contracts/demo/TimeLock.sol\":2183:2198  block.timestamp */\n      timestamp\n        /* \"contracts/demo/TimeLock.sol\":2158:2211  TimestampNotInRangeError(block.timestamp, _timestamp) */\n      0x04\n      dup3\n      add\n        /* \"#utility.yul\":5371:5396   */\n      mstore\n        /* \"#utility.yul\":5412:5430   */\n      0x24\n      dup2\n      add\n        /* \"#utility.yul\":5405:5439   */\n      dup4\n      swap1\n      mstore\n        /* \"#utility.yul\":5344:5362   */\n      0x44\n      add\n        /* \"contracts/demo/TimeLock.sol\":2158:2211  TimestampNotInRangeError(block.timestamp, _timestamp) */\n      tag_70\n        /* \"#utility.yul\":5197:5445   */\n      jump\n        /* \"contracts/demo/TimeLock.sol\":2013:2222  if (... */\n    tag_75:\n        /* \"contracts/demo/TimeLock.sol\":2252:2264  queued[txId] */\n      0x00\n      dup2\n      dup2\n      mstore\n        /* \"contracts/demo/TimeLock.sol\":2267:2271  true */\n      0x01\n        /* \"contracts/demo/TimeLock.sol\":2252:2264  queued[txId] */\n      0x20\n      dup2\n      swap1\n      mstore\n      0x40\n      swap2\n      dup3\n      swap1\n      keccak256\n        /* \"contracts/demo/TimeLock.sol\":2252:2271  queued[txId] = true */\n      dup1\n      sload\n      not(0xff)\n      and\n      swap1\n      swap2\n      or\n      swap1\n      sstore\n        /* \"contracts/demo/TimeLock.sol\":2286:2340  Queue(txId, _target, _value, _func, _data, _timestamp) */\n      mload\n      sub(shl(0xa0, 0x01), 0x01)\n      dup10\n      and\n      swap1\n        /* \"contracts/demo/TimeLock.sol\":2259:2263  txId */\n      dup3\n      swap1\n        /* \"contracts/demo/TimeLock.sol\":2286:2340  Queue(txId, _target, _value, _func, _data, _timestamp) */\n      0x3c22f47140594040d205a5533cfedd86c9ab8622c39ead03affb2d97052c794c\n      swap1\n      tag_78\n      swap1\n        /* \"contracts/demo/TimeLock.sol\":2307:2313  _value */\n      dup12\n      swap1\n        /* \"contracts/demo/TimeLock.sol\":2315:2320  _func */\n      dup12\n      swap1\n      dup12\n      swap1\n        /* \"contracts/demo/TimeLock.sol\":2322:2327  _data */\n      dup12\n      swap1\n      dup12\n      swap1\n        /* \"contracts/demo/TimeLock.sol\":2329:2339  _timestamp */\n      dup12\n      swap1\n        /* \"contracts/demo/TimeLock.sol\":2286:2340  Queue(txId, _target, _value, _func, _data, _timestamp) */\n      tag_79\n      jump\t// in\n    tag_78:\n      mload(0x40)\n      dup1\n      swap2\n      sub\n      swap1\n      log3\n        /* \"contracts/demo/TimeLock.sol\":1745:2347  {... */\n      pop\n        /* \"contracts/demo/TimeLock.sol\":1567:2347  function queue(... */\n      pop\n      pop\n      pop\n      pop\n      pop\n      pop\n      pop\n      jump\t// out\n        /* \"contracts/demo/TimeLock.sol\":3914:4021  function getTimestame() external view returns (uint256) {... */\n    tag_35:\n        /* \"contracts/demo/TimeLock.sol\":3961:3968  uint256 */\n      0x00\n        /* \"contracts/demo/TimeLock.sol\":3987:4014  block.timestamp + MAX_DELAY */\n      tag_81\n        /* \"contracts/demo/TimeLock.sol\":931:935  1000 */\n      0x03e8\n        /* \"contracts/demo/TimeLock.sol\":3987:4002  block.timestamp */\n      timestamp\n        /* \"contracts/demo/TimeLock.sol\":3987:4014  block.timestamp + MAX_DELAY */\n      tag_72\n      jump\t// in\n    tag_81:\n        /* \"contracts/demo/TimeLock.sol\":3980:4014  return block.timestamp + MAX_DELAY */\n      swap1\n      pop\n        /* \"contracts/demo/TimeLock.sol\":3914:4021  function getTimestame() external view returns (uint256) {... */\n      swap1\n      jump\t// out\n        /* \"contracts/demo/TimeLock.sol\":1277:1561  function getTxId(... */\n    tag_40:\n        /* \"contracts/demo/TimeLock.sol\":1459:1471  bytes32 txId */\n      0x00\n        /* \"contracts/demo/TimeLock.sol\":1511:1518  _target */\n      dup8\n        /* \"contracts/demo/TimeLock.sol\":1520:1526  _value */\n      dup8\n        /* \"contracts/demo/TimeLock.sol\":1528:1533  _func */\n      dup8\n      dup8\n        /* \"contracts/demo/TimeLock.sol\":1535:1540  _data */\n      dup8\n      dup8\n        /* \"contracts/demo/TimeLock.sol\":1542:1552  _timestamp */\n      dup8\n        /* \"contracts/demo/TimeLock.sol\":1500:1553  abi.encode(_target, _value, _func, _data, _timestamp) */\n      add(0x20, mload(0x40))\n      tag_83\n      swap8\n      swap7\n      swap6\n      swap5\n      swap4\n      swap3\n      swap2\n      swap1\n      tag_84\n      jump\t// in\n    tag_83:\n      mload(0x40)\n      0x20\n      dup2\n      dup4\n      sub\n      sub\n      dup2\n      mstore\n      swap1\n      0x40\n      mstore\n        /* \"contracts/demo/TimeLock.sol\":1490:1554  keccak256(abi.encode(_target, _value, _func, _data, _timestamp)) */\n      dup1\n      mload\n      swap1\n      0x20\n      add\n      keccak256\n        /* \"contracts/demo/TimeLock.sol\":1483:1554  return keccak256(abi.encode(_target, _value, _func, _data, _timestamp)) */\n      swap1\n      pop\n        /* \"contracts/demo/TimeLock.sol\":1277:1561  function getTxId(... */\n      swap8\n      swap7\n      pop\n      pop\n      pop\n      pop\n      pop\n      pop\n      pop\n      jump\t// out\n        /* \"contracts/demo/TimeLock.sol\":2353:3704  function execute(... */\n    tag_54:\n        /* \"contracts/demo/TimeLock.sol\":1200:1205  owner */\n      sload(0x00)\n        /* \"contracts/demo/TimeLock.sol\":2550:2562  bytes memory */\n      0x60\n      swap1\n      sub(shl(0xa0, 0x01), 0x01)\n        /* \"contracts/demo/TimeLock.sol\":1200:1205  owner */\n      and\n        /* \"contracts/demo/TimeLock.sol\":1186:1196  msg.sender */\n      caller\n        /* \"contracts/demo/TimeLock.sol\":1186:1205  msg.sender != owner */\n      eq\n        /* \"contracts/demo/TimeLock.sol\":1182:1254  if (msg.sender != owner) {... */\n      tag_86\n      jumpi\n        /* \"contracts/demo/TimeLock.sol\":1228:1243  NotOwnerError() */\n      mload(0x40)\n      shl(0xe0, 0x74a21527)\n      dup2\n      mstore\n      0x04\n      add\n      mload(0x40)\n      dup1\n      swap2\n      sub\n      swap1\n      revert\n        /* \"contracts/demo/TimeLock.sol\":1182:1254  if (msg.sender != owner) {... */\n    tag_86:\n        /* \"contracts/demo/TimeLock.sol\":2574:2586  bytes32 txId */\n      0x00\n        /* \"contracts/demo/TimeLock.sol\":2589:2639  getTxId(_target, _value, _func, _data, _timestamp) */\n      tag_88\n        /* \"contracts/demo/TimeLock.sol\":2597:2604  _target */\n      dup10\n        /* \"contracts/demo/TimeLock.sol\":2606:2612  _value */\n      dup10\n        /* \"contracts/demo/TimeLock.sol\":2614:2619  _func */\n      dup10\n      dup10\n        /* \"contracts/demo/TimeLock.sol\":2621:2626  _data */\n      dup10\n      dup10\n        /* \"contracts/demo/TimeLock.sol\":2628:2638  _timestamp */\n      dup10\n        /* \"contracts/demo/TimeLock.sol\":2589:2596  getTxId */\n      tag_40\n        /* \"contracts/demo/TimeLock.sol\":2589:2639  getTxId(_target, _value, _func, _data, _timestamp) */\n      jump\t// in\n    tag_88:\n        /* \"contracts/demo/TimeLock.sol\":2684:2696  queued[txId] */\n      0x00\n      dup2\n      dup2\n      mstore\n        /* \"contracts/demo/TimeLock.sol\":2684:2690  queued */\n      0x01\n        /* \"contracts/demo/TimeLock.sol\":2684:2696  queued[txId] */\n      0x20\n      mstore\n      0x40\n      swap1\n      keccak256\n      sload\n        /* \"contracts/demo/TimeLock.sol\":2574:2639  bytes32 txId = getTxId(_target, _value, _func, _data, _timestamp) */\n      swap1\n      swap2\n      pop\n        /* \"contracts/demo/TimeLock.sol\":2684:2696  queued[txId] */\n      0xff\n      and\n        /* \"contracts/demo/TimeLock.sol\":2679:2750  if (!queued[txId]) {... */\n      tag_89\n      jumpi\n        /* \"contracts/demo/TimeLock.sol\":2719:2739  NotQueuedError(txId) */\n      mload(0x40)\n      shl(0xe0, 0x0995c9d5)\n      dup2\n      mstore\n      0x04\n      dup2\n      add\n        /* \"#utility.yul\":4011:4036   */\n      dup3\n      swap1\n      mstore\n        /* \"#utility.yul\":3984:4002   */\n      0x24\n      add\n        /* \"contracts/demo/TimeLock.sol\":2719:2739  NotQueuedError(txId) */\n      tag_70\n        /* \"#utility.yul\":3865:4042   */\n      jump\n        /* \"contracts/demo/TimeLock.sol\":2679:2750  if (!queued[txId]) {... */\n    tag_89:\n        /* \"contracts/demo/TimeLock.sol\":2827:2837  _timestamp */\n      dup3\n        /* \"contracts/demo/TimeLock.sol\":2809:2824  block.timestamp */\n      timestamp\n        /* \"contracts/demo/TimeLock.sol\":2809:2837  block.timestamp < _timestamp */\n      lt\n        /* \"contracts/demo/TimeLock.sol\":2805:2923  if (block.timestamp < _timestamp) {... */\n      iszero\n      tag_91\n      jumpi\n        /* \"contracts/demo/TimeLock.sol\":2860:2912  TimestampNotPassedError(block.timestamp, _timestamp) */\n      mload(0x40)\n      shl(0xe0, 0x035fce5b)\n      dup2\n      mstore\n        /* \"contracts/demo/TimeLock.sol\":2884:2899  block.timestamp */\n      timestamp\n        /* \"contracts/demo/TimeLock.sol\":2860:2912  TimestampNotPassedError(block.timestamp, _timestamp) */\n      0x04\n      dup3\n      add\n        /* \"#utility.yul\":5371:5396   */\n      mstore\n        /* \"#utility.yul\":5412:5430   */\n      0x24\n      dup2\n      add\n        /* \"#utility.yul\":5405:5439   */\n      dup5\n      swap1\n      mstore\n        /* \"#utility.yul\":5344:5362   */\n      0x44\n      add\n        /* \"contracts/demo/TimeLock.sol\":2860:2912  TimestampNotPassedError(block.timestamp, _timestamp) */\n      tag_70\n        /* \"#utility.yul\":5197:5445   */\n      jump\n        /* \"contracts/demo/TimeLock.sol\":2805:2923  if (block.timestamp < _timestamp) {... */\n    tag_91:\n        /* \"contracts/demo/TimeLock.sol\":3047:3072  _timestamp + GRACE_PERIOD */\n      tag_93\n        /* \"contracts/demo/TimeLock.sol\":980:984  1000 */\n      0x03e8\n        /* \"contracts/demo/TimeLock.sol\":3047:3057  _timestamp */\n      dup5\n        /* \"contracts/demo/TimeLock.sol\":3047:3072  _timestamp + GRACE_PERIOD */\n      tag_72\n      jump\t// in\n    tag_93:\n        /* \"contracts/demo/TimeLock.sol\":3029:3044  block.timestamp */\n      timestamp\n        /* \"contracts/demo/TimeLock.sol\":3029:3072  block.timestamp > _timestamp + GRACE_PERIOD */\n      gt\n        /* \"contracts/demo/TimeLock.sol\":3025:3217  if (block.timestamp > _timestamp + GRACE_PERIOD) {... */\n      iszero\n      tag_94\n      jumpi\n        /* \"contracts/demo/TimeLock.sol\":3134:3149  block.timestamp */\n      timestamp\n        /* \"contracts/demo/TimeLock.sol\":3167:3192  _timestamp + GRACE_PERIOD */\n      tag_95\n        /* \"contracts/demo/TimeLock.sol\":980:984  1000 */\n      0x03e8\n        /* \"contracts/demo/TimeLock.sol\":3167:3177  _timestamp */\n      dup6\n        /* \"contracts/demo/TimeLock.sol\":3167:3192  _timestamp + GRACE_PERIOD */\n      tag_72\n      jump\t// in\n    tag_95:\n        /* \"contracts/demo/TimeLock.sol\":3095:3206  TimestampExpiredError(... */\n      mload(0x40)\n      shl(0xe0, 0x92ae26d1)\n      dup2\n      mstore\n      0x04\n      dup2\n      add\n        /* \"#utility.yul\":5371:5396   */\n      swap3\n      swap1\n      swap3\n      mstore\n        /* \"#utility.yul\":5412:5430   */\n      0x24\n      dup3\n      add\n        /* \"#utility.yul\":5405:5439   */\n      mstore\n        /* \"#utility.yul\":5344:5362   */\n      0x44\n      add\n        /* \"contracts/demo/TimeLock.sol\":3095:3206  TimestampExpiredError(... */\n      tag_70\n        /* \"#utility.yul\":5197:5445   */\n      jump\n        /* \"contracts/demo/TimeLock.sol\":3025:3217  if (block.timestamp > _timestamp + GRACE_PERIOD) {... */\n    tag_94:\n        /* \"contracts/demo/TimeLock.sol\":3241:3246  false */\n      0x00\n        /* \"contracts/demo/TimeLock.sol\":3226:3238  queued[txId] */\n      dup2\n      dup2\n      mstore\n        /* \"contracts/demo/TimeLock.sol\":3226:3232  queued */\n      0x01\n        /* \"contracts/demo/TimeLock.sol\":3226:3238  queued[txId] */\n      0x20\n      mstore\n      0x40\n      swap1\n      keccak256\n        /* \"contracts/demo/TimeLock.sol\":3226:3246  queued[txId] = false */\n      dup1\n      sload\n      not(0xff)\n      and\n      swap1\n      sstore\n        /* \"contracts/demo/TimeLock.sol\":3256:3273  bytes memory data */\n      0x60\n        /* \"contracts/demo/TimeLock.sol\":3287:3310  bytes(_func).length > 0 */\n      dup7\n      iszero\n        /* \"contracts/demo/TimeLock.sol\":3283:3443  if (bytes(_func).length > 0) {... */\n      tag_97\n      jumpi\n        /* \"contracts/demo/TimeLock.sol\":3373:3378  _func */\n      dup8\n      dup8\n        /* \"contracts/demo/TimeLock.sol\":3357:3380  keccak256(bytes(_func)) */\n      mload(0x40)\n      tag_98\n      swap3\n      swap2\n      swap1\n      tag_99\n      jump\t// in\n    tag_98:\n      mload(0x40)\n      swap1\n      dup2\n      swap1\n      sub\n      dup2\n      keccak256\n        /* \"contracts/demo/TimeLock.sol\":3333:3389  abi.encodePacked(bytes4(keccak256(bytes(_func))), _data) */\n      tag_100\n      swap2\n        /* \"contracts/demo/TimeLock.sol\":3383:3388  _data */\n      dup9\n      swap1\n      dup9\n      swap1\n        /* \"contracts/demo/TimeLock.sol\":3333:3389  abi.encodePacked(bytes4(keccak256(bytes(_func))), _data) */\n      0x20\n      add\n      tag_101\n      jump\t// in\n    tag_100:\n      mload(0x40)\n      0x20\n      dup2\n      dup4\n      sub\n      sub\n      dup2\n      mstore\n      swap1\n      0x40\n      mstore\n        /* \"contracts/demo/TimeLock.sol\":3326:3389  data = abi.encodePacked(bytes4(keccak256(bytes(_func))), _data) */\n      swap1\n      pop\n        /* \"contracts/demo/TimeLock.sol\":3283:3443  if (bytes(_func).length > 0) {... */\n      jump(tag_102)\n    tag_97:\n        /* \"contracts/demo/TimeLock.sol\":3427:3432  _data */\n      dup6\n      dup6\n        /* \"contracts/demo/TimeLock.sol\":3420:3432  data = _data */\n      dup1\n      dup1\n      0x1f\n      add\n      0x20\n      dup1\n      swap2\n      div\n      mul\n      0x20\n      add\n      mload(0x40)\n      swap1\n      dup2\n      add\n      0x40\n      mstore\n      dup1\n      swap4\n      swap3\n      swap2\n      swap1\n      dup2\n      dup2\n      mstore\n      0x20\n      add\n      dup4\n      dup4\n      dup1\n      dup3\n      dup5\n      calldatacopy\n      0x00\n      swap3\n      add\n      swap2\n      swap1\n      swap2\n      mstore\n      pop\n      swap3\n      swap4\n      pop\n      pop\n      pop\n      pop\n        /* \"contracts/demo/TimeLock.sol\":3283:3443  if (bytes(_func).length > 0) {... */\n    tag_102:\n        /* \"contracts/demo/TimeLock.sol\":3479:3486  bool ok */\n      0x00\n        /* \"contracts/demo/TimeLock.sol\":3488:3504  bytes memory res */\n      dup1\n        /* \"contracts/demo/TimeLock.sol\":3508:3515  _target */\n      dup12\n      sub(shl(0xa0, 0x01), 0x01)\n        /* \"contracts/demo/TimeLock.sol\":3508:3520  _target.call */\n      and\n        /* \"contracts/demo/TimeLock.sol\":3528:3534  _value */\n      dup12\n        /* \"contracts/demo/TimeLock.sol\":3536:3540  data */\n      dup5\n        /* \"contracts/demo/TimeLock.sol\":3508:3541  _target.call{value: _value}(data) */\n      mload(0x40)\n      tag_103\n      swap2\n      swap1\n      tag_104\n      jump\t// in\n    tag_103:\n      0x00\n      mload(0x40)\n      dup1\n      dup4\n      sub\n      dup2\n      dup6\n      dup8\n      gas\n      call\n      swap3\n      pop\n      pop\n      pop\n      returndatasize\n      dup1\n      0x00\n      dup2\n      eq\n      tag_107\n      jumpi\n      mload(0x40)\n      swap2\n      pop\n      and(add(returndatasize, 0x3f), not(0x1f))\n      dup3\n      add\n      0x40\n      mstore\n      returndatasize\n      dup3\n      mstore\n      returndatasize\n      0x00\n      0x20\n      dup5\n      add\n      returndatacopy\n      jump(tag_106)\n    tag_107:\n      0x60\n      swap2\n      pop\n    tag_106:\n      pop\n        /* \"contracts/demo/TimeLock.sol\":3478:3541  (bool ok, bytes memory res) = _target.call{value: _value}(data) */\n      swap2\n      pop\n      swap2\n      pop\n        /* \"contracts/demo/TimeLock.sol\":3556:3558  ok */\n      dup2\n        /* \"contracts/demo/TimeLock.sol\":3551:3607  if (!ok) {... */\n      tag_108\n      jumpi\n        /* \"contracts/demo/TimeLock.sol\":3581:3596  TxFailedError() */\n      mload(0x40)\n      shl(0xe1, 0x6cda7c0f)\n      dup2\n      mstore\n      0x04\n      add\n      mload(0x40)\n      dup1\n      swap2\n      sub\n      swap1\n      revert\n        /* \"contracts/demo/TimeLock.sol\":3551:3607  if (!ok) {... */\n    tag_108:\n        /* \"contracts/demo/TimeLock.sol\":3635:3642  _target */\n      dup12\n      sub(shl(0xa0, 0x01), 0x01)\n        /* \"contracts/demo/TimeLock.sol\":3621:3677  Execute(txId, _target, _value, _func, _data, _timestamp) */\n      and\n        /* \"contracts/demo/TimeLock.sol\":3629:3633  txId */\n      dup5\n        /* \"contracts/demo/TimeLock.sol\":3621:3677  Execute(txId, _target, _value, _func, _data, _timestamp) */\n      0xd1d5c3c892c18716bd88852091d1b63dc6849e9d7c37f69d566884bf954d4bd9\n        /* \"contracts/demo/TimeLock.sol\":3644:3650  _value */\n      dup14\n        /* \"contracts/demo/TimeLock.sol\":3652:3657  _func */\n      dup14\n      dup14\n        /* \"contracts/demo/TimeLock.sol\":3659:3664  _data */\n      dup14\n      dup14\n        /* \"contracts/demo/TimeLock.sol\":3666:3676  _timestamp */\n      dup14\n        /* \"contracts/demo/TimeLock.sol\":3621:3677  Execute(txId, _target, _value, _func, _data, _timestamp) */\n      mload(0x40)\n      tag_109\n      swap7\n      swap6\n      swap5\n      swap4\n      swap3\n      swap2\n      swap1\n      tag_79\n      jump\t// in\n    tag_109:\n      mload(0x40)\n      dup1\n      swap2\n      sub\n      swap1\n      log3\n        /* \"contracts/demo/TimeLock.sol\":3694:3697  res */\n      swap12\n        /* \"contracts/demo/TimeLock.sol\":2353:3704  function execute(... */\n      swap11\n      pop\n      pop\n      pop\n      pop\n      pop\n      pop\n      pop\n      pop\n      pop\n      pop\n      pop\n      jump\t// out\n        /* \"contracts/demo/TimeLock.sol\":3710:3908  function cancel(bytes32 _txId) external onlyOwner {... */\n    tag_64:\n        /* \"contracts/demo/TimeLock.sol\":1200:1205  owner */\n      and(sub(shl(0xa0, 0x01), 0x01), sload(0x00))\n        /* \"contracts/demo/TimeLock.sol\":1186:1196  msg.sender */\n      caller\n        /* \"contracts/demo/TimeLock.sol\":1186:1205  msg.sender != owner */\n      eq\n        /* \"contracts/demo/TimeLock.sol\":1182:1254  if (msg.sender != owner) {... */\n      tag_111\n      jumpi\n        /* \"contracts/demo/TimeLock.sol\":1228:1243  NotOwnerError() */\n      mload(0x40)\n      shl(0xe0, 0x74a21527)\n      dup2\n      mstore\n      0x04\n      add\n      mload(0x40)\n      dup1\n      swap2\n      sub\n      swap1\n      revert\n        /* \"contracts/demo/TimeLock.sol\":1182:1254  if (msg.sender != owner) {... */\n    tag_111:\n        /* \"contracts/demo/TimeLock.sol\":3775:3788  queued[_txId] */\n      0x00\n      dup2\n      dup2\n      mstore\n        /* \"contracts/demo/TimeLock.sol\":3775:3781  queued */\n      0x01\n        /* \"contracts/demo/TimeLock.sol\":3775:3788  queued[_txId] */\n      0x20\n      mstore\n      0x40\n      swap1\n      keccak256\n      sload\n      0xff\n      and\n        /* \"contracts/demo/TimeLock.sol\":3770:3843  if (!queued[_txId]) {... */\n      tag_113\n      jumpi\n        /* \"contracts/demo/TimeLock.sol\":3811:3832  NotQueuedError(_txId) */\n      mload(0x40)\n      shl(0xe0, 0x0995c9d5)\n      dup2\n      mstore\n      0x04\n      dup2\n      add\n        /* \"#utility.yul\":4011:4036   */\n      dup3\n      swap1\n      mstore\n        /* \"#utility.yul\":3984:4002   */\n      0x24\n      add\n        /* \"contracts/demo/TimeLock.sol\":3811:3832  NotQueuedError(_txId) */\n      tag_70\n        /* \"#utility.yul\":3865:4042   */\n      jump\n        /* \"contracts/demo/TimeLock.sol\":3770:3843  if (!queued[_txId]) {... */\n    tag_113:\n        /* \"contracts/demo/TimeLock.sol\":3868:3873  false */\n      0x00\n        /* \"contracts/demo/TimeLock.sol\":3852:3865  queued[_txId] */\n      dup2\n      dup2\n      mstore\n        /* \"contracts/demo/TimeLock.sol\":3852:3858  queued */\n      0x01\n        /* \"contracts/demo/TimeLock.sol\":3852:3865  queued[_txId] */\n      0x20\n      mstore\n      0x40\n      dup1\n      dup3\n      keccak256\n        /* \"contracts/demo/TimeLock.sol\":3852:3873  queued[_txId] = false */\n      dup1\n      sload\n      not(0xff)\n      and\n      swap1\n      sstore\n        /* \"contracts/demo/TimeLock.sol\":3888:3901  Cancel(_txId) */\n      mload\n        /* \"contracts/demo/TimeLock.sol\":3859:3864  _txId */\n      dup3\n      swap2\n        /* \"contracts/demo/TimeLock.sol\":3888:3901  Cancel(_txId) */\n      0xe8d9861dbc9c663ed3accd261bbe2fe01e0d3d9e5f51fa38523b265c7757a93a\n      swap2\n      log2\n        /* \"contracts/demo/TimeLock.sol\":3710:3908  function cancel(bytes32 _txId) external onlyOwner {... */\n      pop\n      jump\t// out\n        /* \"#utility.yul\":14:361   */\n    tag_116:\n        /* \"#utility.yul\":65:73   */\n      0x00\n        /* \"#utility.yul\":75:81   */\n      dup1\n        /* \"#utility.yul\":129:132   */\n      dup4\n        /* \"#utility.yul\":122:126   */\n      0x1f\n        /* \"#utility.yul\":114:120   */\n      dup5\n        /* \"#utility.yul\":110:127   */\n      add\n        /* \"#utility.yul\":106:133   */\n      slt\n        /* \"#utility.yul\":96:151   */\n      tag_118\n      jumpi\n        /* \"#utility.yul\":147:148   */\n      0x00\n        /* \"#utility.yul\":144:145   */\n      dup1\n        /* \"#utility.yul\":137:149   */\n      revert\n        /* \"#utility.yul\":96:151   */\n    tag_118:\n      pop\n        /* \"#utility.yul\":170:190   */\n      dup2\n      calldataload\n        /* \"#utility.yul\":213:231   */\n      0xffffffffffffffff\n        /* \"#utility.yul\":202:232   */\n      dup2\n      gt\n        /* \"#utility.yul\":199:249   */\n      iszero\n      tag_119\n      jumpi\n        /* \"#utility.yul\":245:246   */\n      0x00\n        /* \"#utility.yul\":242:243   */\n      dup1\n        /* \"#utility.yul\":235:247   */\n      revert\n        /* \"#utility.yul\":199:249   */\n    tag_119:\n        /* \"#utility.yul\":282:286   */\n      0x20\n        /* \"#utility.yul\":274:280   */\n      dup4\n        /* \"#utility.yul\":270:287   */\n      add\n        /* \"#utility.yul\":258:287   */\n      swap2\n      pop\n        /* \"#utility.yul\":334:337   */\n      dup4\n        /* \"#utility.yul\":327:331   */\n      0x20\n        /* \"#utility.yul\":318:324   */\n      dup3\n        /* \"#utility.yul\":310:316   */\n      dup6\n        /* \"#utility.yul\":306:325   */\n      add\n        /* \"#utility.yul\":302:332   */\n      add\n        /* \"#utility.yul\":299:338   */\n      gt\n        /* \"#utility.yul\":296:355   */\n      iszero\n      tag_120\n      jumpi\n        /* \"#utility.yul\":351:352   */\n      0x00\n        /* \"#utility.yul\":348:349   */\n      dup1\n        /* \"#utility.yul\":341:353   */\n      revert\n        /* \"#utility.yul\":296:355   */\n    tag_120:\n        /* \"#utility.yul\":14:361   */\n      swap3\n      pop\n      swap3\n      swap1\n      pop\n      jump\t// out\n        /* \"#utility.yul\":366:1396   */\n    tag_31:\n        /* \"#utility.yul\":484:490   */\n      0x00\n        /* \"#utility.yul\":492:498   */\n      dup1\n        /* \"#utility.yul\":500:506   */\n      0x00\n        /* \"#utility.yul\":508:514   */\n      dup1\n        /* \"#utility.yul\":516:522   */\n      0x00\n        /* \"#utility.yul\":524:530   */\n      dup1\n        /* \"#utility.yul\":532:538   */\n      0x00\n        /* \"#utility.yul\":585:588   */\n      0xa0\n        /* \"#utility.yul\":573:582   */\n      dup9\n        /* \"#utility.yul\":564:571   */\n      dup11\n        /* \"#utility.yul\":560:583   */\n      sub\n        /* \"#utility.yul\":556:589   */\n      slt\n        /* \"#utility.yul\":553:606   */\n      iszero\n      tag_122\n      jumpi\n        /* \"#utility.yul\":602:603   */\n      0x00\n        /* \"#utility.yul\":599:600   */\n      dup1\n        /* \"#utility.yul\":592:604   */\n      revert\n        /* \"#utility.yul\":553:606   */\n    tag_122:\n        /* \"#utility.yul\":628:651   */\n      dup8\n      calldataload\n      sub(shl(0xa0, 0x01), 0x01)\n        /* \"#utility.yul\":680:711   */\n      dup2\n      and\n        /* \"#utility.yul\":670:712   */\n      dup2\n      eq\n        /* \"#utility.yul\":660:730   */\n      tag_123\n      jumpi\n        /* \"#utility.yul\":726:727   */\n      0x00\n        /* \"#utility.yul\":723:724   */\n      dup1\n        /* \"#utility.yul\":716:728   */\n      revert\n        /* \"#utility.yul\":660:730   */\n    tag_123:\n        /* \"#utility.yul\":749:754   */\n      swap7\n      pop\n        /* \"#utility.yul\":801:803   */\n      0x20\n        /* \"#utility.yul\":786:804   */\n      dup9\n      add\n        /* \"#utility.yul\":773:805   */\n      calldataload\n      swap6\n      pop\n        /* \"#utility.yul\":856:858   */\n      0x40\n        /* \"#utility.yul\":841:859   */\n      dup9\n      add\n        /* \"#utility.yul\":828:860   */\n      calldataload\n        /* \"#utility.yul\":879:897   */\n      0xffffffffffffffff\n        /* \"#utility.yul\":909:923   */\n      dup1\n      dup3\n      gt\n        /* \"#utility.yul\":906:940   */\n      iszero\n      tag_124\n      jumpi\n        /* \"#utility.yul\":936:937   */\n      0x00\n        /* \"#utility.yul\":933:934   */\n      dup1\n        /* \"#utility.yul\":926:938   */\n      revert\n        /* \"#utility.yul\":906:940   */\n    tag_124:\n        /* \"#utility.yul\":975:1033   */\n      tag_125\n        /* \"#utility.yul\":1025:1032   */\n      dup12\n        /* \"#utility.yul\":1016:1022   */\n      dup4\n        /* \"#utility.yul\":1005:1014   */\n      dup13\n        /* \"#utility.yul\":1001:1023   */\n      add\n        /* \"#utility.yul\":975:1033   */\n      tag_116\n      jump\t// in\n    tag_125:\n        /* \"#utility.yul\":1052:1060   */\n      swap1\n      swap8\n      pop\n        /* \"#utility.yul\":949:1033   */\n      swap6\n      pop\n        /* \"#utility.yul\":1140:1142   */\n      0x60\n        /* \"#utility.yul\":1125:1143   */\n      dup11\n      add\n        /* \"#utility.yul\":1112:1144   */\n      calldataload\n      swap2\n      pop\n        /* \"#utility.yul\":1156:1172   */\n      dup1\n      dup3\n      gt\n        /* \"#utility.yul\":1153:1189   */\n      iszero\n      tag_126\n      jumpi\n        /* \"#utility.yul\":1185:1186   */\n      0x00\n        /* \"#utility.yul\":1182:1183   */\n      dup1\n        /* \"#utility.yul\":1175:1187   */\n      revert\n        /* \"#utility.yul\":1153:1189   */\n    tag_126:\n      pop\n        /* \"#utility.yul\":1224:1284   */\n      tag_127\n        /* \"#utility.yul\":1276:1283   */\n      dup11\n        /* \"#utility.yul\":1265:1273   */\n      dup3\n        /* \"#utility.yul\":1254:1263   */\n      dup12\n        /* \"#utility.yul\":1250:1274   */\n      add\n        /* \"#utility.yul\":1224:1284   */\n      tag_116\n      jump\t// in\n    tag_127:\n        /* \"#utility.yul\":366:1396   */\n      swap9\n      swap12\n      swap8\n      swap11\n      pop\n      swap6\n      swap9\n      swap5\n      swap8\n      swap6\n      swap7\n        /* \"#utility.yul\":1385:1388   */\n      0x80\n        /* \"#utility.yul\":1370:1389   */\n      swap1\n      swap6\n      add\n        /* \"#utility.yul\":1357:1390   */\n      calldataload\n      swap5\n        /* \"#utility.yul\":366:1396   */\n      swap4\n      pop\n      pop\n      pop\n      pop\n      jump\t// out\n        /* \"#utility.yul\":1401:1581   */\n    tag_19:\n        /* \"#utility.yul\":1460:1466   */\n      0x00\n        /* \"#utility.yul\":1513:1515   */\n      0x20\n        /* \"#utility.yul\":1501:1510   */\n      dup3\n        /* \"#utility.yul\":1492:1499   */\n      dup5\n        /* \"#utility.yul\":1488:1511   */\n      sub\n        /* \"#utility.yul\":1484:1516   */\n      slt\n        /* \"#utility.yul\":1481:1533   */\n      iszero\n      tag_129\n      jumpi\n        /* \"#utility.yul\":1529:1530   */\n      0x00\n        /* \"#utility.yul\":1526:1527   */\n      dup1\n        /* \"#utility.yul\":1519:1531   */\n      revert\n        /* \"#utility.yul\":1481:1533   */\n    tag_129:\n      pop\n        /* \"#utility.yul\":1552:1575   */\n      calldataload\n      swap2\n        /* \"#utility.yul\":1401:1581   */\n      swap1\n      pop\n      jump\t// out\n        /* \"#utility.yul\":1586:1852   */\n    tag_130:\n        /* \"#utility.yul\":1674:1680   */\n      dup2\n        /* \"#utility.yul\":1669:1672   */\n      dup4\n        /* \"#utility.yul\":1662:1681   */\n      mstore\n        /* \"#utility.yul\":1726:1732   */\n      dup2\n        /* \"#utility.yul\":1719:1724   */\n      dup2\n        /* \"#utility.yul\":1712:1716   */\n      0x20\n        /* \"#utility.yul\":1707:1710   */\n      dup6\n        /* \"#utility.yul\":1703:1717   */\n      add\n        /* \"#utility.yul\":1690:1733   */\n      calldatacopy\n      pop\n        /* \"#utility.yul\":1778:1779   */\n      0x00\n        /* \"#utility.yul\":1753:1769   */\n      dup3\n      dup3\n      add\n        /* \"#utility.yul\":1771:1775   */\n      0x20\n        /* \"#utility.yul\":1749:1776   */\n      swap1\n      dup2\n      add\n        /* \"#utility.yul\":1742:1780   */\n      swap2\n      swap1\n      swap2\n      mstore\n        /* \"#utility.yul\":1834:1836   */\n      0x1f\n        /* \"#utility.yul\":1813:1828   */\n      swap1\n      swap2\n      add\n      not(0x1f)\n        /* \"#utility.yul\":1809:1838   */\n      and\n        /* \"#utility.yul\":1800:1839   */\n      swap1\n      swap2\n      add\n        /* \"#utility.yul\":1796:1846   */\n      add\n      swap1\n        /* \"#utility.yul\":1586:1852   */\n      jump\t// out\n        /* \"#utility.yul\":1857:2225   */\n    tag_101:\n      not(sub(shl(0xe0, 0x01), 0x01))\n        /* \"#utility.yul\":2052:2085   */\n      dup5\n      and\n        /* \"#utility.yul\":2040:2086   */\n      dup2\n      mstore\n        /* \"#utility.yul\":2129:2135   */\n      dup2\n        /* \"#utility.yul\":2121:2127   */\n      dup4\n        /* \"#utility.yul\":2117:2118   */\n      0x04\n        /* \"#utility.yul\":2108:2119   */\n      dup4\n      add\n        /* \"#utility.yul\":2095:2136   */\n      calldatacopy\n        /* \"#utility.yul\":2022:2025   */\n      0x00\n        /* \"#utility.yul\":2159:2175   */\n      swap2\n      add\n        /* \"#utility.yul\":2177:2178   */\n      0x04\n        /* \"#utility.yul\":2155:2179   */\n      add\n        /* \"#utility.yul\":2188:2201   */\n      swap1\n      dup2\n      mstore\n        /* \"#utility.yul\":2155:2179   */\n      swap3\n        /* \"#utility.yul\":1857:2225   */\n      swap2\n      pop\n      pop\n      jump\t// out\n        /* \"#utility.yul\":2230:2501   */\n    tag_99:\n        /* \"#utility.yul\":2413:2419   */\n      dup2\n        /* \"#utility.yul\":2405:2411   */\n      dup4\n        /* \"#utility.yul\":2400:2403   */\n      dup3\n        /* \"#utility.yul\":2387:2420   */\n      calldatacopy\n        /* \"#utility.yul\":2369:2372   */\n      0x00\n        /* \"#utility.yul\":2439:2455   */\n      swap2\n      add\n        /* \"#utility.yul\":2464:2477   */\n      swap1\n      dup2\n      mstore\n        /* \"#utility.yul\":2439:2455   */\n      swap2\n        /* \"#utility.yul\":2230:2501   */\n      swap1\n      pop\n      jump\t// out\n        /* \"#utility.yul\":2506:2780   */\n    tag_104:\n        /* \"#utility.yul\":2635:2638   */\n      0x00\n        /* \"#utility.yul\":2673:2679   */\n      dup3\n        /* \"#utility.yul\":2667:2680   */\n      mload\n        /* \"#utility.yul\":2689:2742   */\n      tag_135\n        /* \"#utility.yul\":2735:2741   */\n      dup2\n        /* \"#utility.yul\":2730:2733   */\n      dup5\n        /* \"#utility.yul\":2723:2727   */\n      0x20\n        /* \"#utility.yul\":2715:2721   */\n      dup8\n        /* \"#utility.yul\":2711:2728   */\n      add\n        /* \"#utility.yul\":2689:2742   */\n      tag_136\n      jump\t// in\n    tag_135:\n        /* \"#utility.yul\":2758:2774   */\n      swap2\n      swap1\n      swap2\n      add\n      swap3\n        /* \"#utility.yul\":2506:2780   */\n      swap2\n      pop\n      pop\n      jump\t// out\n        /* \"#utility.yul\":2993:3668   */\n    tag_84:\n        /* \"#utility.yul\":3321:3322   */\n      0x01\n        /* \"#utility.yul\":3317:3318   */\n      dup1\n        /* \"#utility.yul\":3312:3315   */\n      0xa0\n        /* \"#utility.yul\":3308:3319   */\n      shl\n        /* \"#utility.yul\":3304:3323   */\n      sub\n        /* \"#utility.yul\":3296:3302   */\n      dup9\n        /* \"#utility.yul\":3292:3324   */\n      and\n        /* \"#utility.yul\":3281:3290   */\n      dup2\n        /* \"#utility.yul\":3274:3325   */\n      mstore\n        /* \"#utility.yul\":3361:3367   */\n      dup7\n        /* \"#utility.yul\":3356:3358   */\n      0x20\n        /* \"#utility.yul\":3345:3354   */\n      dup3\n        /* \"#utility.yul\":3341:3359   */\n      add\n        /* \"#utility.yul\":3334:3368   */\n      mstore\n        /* \"#utility.yul\":3404:3407   */\n      0xa0\n        /* \"#utility.yul\":3399:3401   */\n      0x40\n        /* \"#utility.yul\":3388:3397   */\n      dup3\n        /* \"#utility.yul\":3384:3402   */\n      add\n        /* \"#utility.yul\":3377:3408   */\n      mstore\n        /* \"#utility.yul\":3255:3259   */\n      0x00\n        /* \"#utility.yul\":3431:3493   */\n      tag_139\n        /* \"#utility.yul\":3488:3491   */\n      0xa0\n        /* \"#utility.yul\":3477:3486   */\n      dup4\n        /* \"#utility.yul\":3473:3492   */\n      add\n        /* \"#utility.yul\":3465:3471   */\n      dup8\n        /* \"#utility.yul\":3457:3463   */\n      dup10\n        /* \"#utility.yul\":3431:3493   */\n      tag_130\n      jump\t// in\n    tag_139:\n        /* \"#utility.yul\":3541:3550   */\n      dup3\n        /* \"#utility.yul\":3533:3539   */\n      dup2\n        /* \"#utility.yul\":3529:3551   */\n      sub\n        /* \"#utility.yul\":3524:3526   */\n      0x60\n        /* \"#utility.yul\":3513:3522   */\n      dup5\n        /* \"#utility.yul\":3509:3527   */\n      add\n        /* \"#utility.yul\":3502:3552   */\n      mstore\n        /* \"#utility.yul\":3569:3618   */\n      tag_140\n        /* \"#utility.yul\":3611:3617   */\n      dup2\n        /* \"#utility.yul\":3603:3609   */\n      dup7\n        /* \"#utility.yul\":3595:3601   */\n      dup9\n        /* \"#utility.yul\":3569:3618   */\n      tag_130\n      jump\t// in\n    tag_140:\n        /* \"#utility.yul\":3561:3618   */\n      swap2\n      pop\n      pop\n        /* \"#utility.yul\":3655:3661   */\n      dup3\n        /* \"#utility.yul\":3649:3652   */\n      0x80\n        /* \"#utility.yul\":3638:3647   */\n      dup4\n        /* \"#utility.yul\":3634:3653   */\n      add\n        /* \"#utility.yul\":3627:3662   */\n      mstore\n        /* \"#utility.yul\":2993:3668   */\n      swap9\n      swap8\n      pop\n      pop\n      pop\n      pop\n      pop\n      pop\n      pop\n      pop\n      jump\t// out\n        /* \"#utility.yul\":4047:4428   */\n    tag_56:\n        /* \"#utility.yul\":4194:4196   */\n      0x20\n        /* \"#utility.yul\":4183:4192   */\n      dup2\n        /* \"#utility.yul\":4176:4197   */\n      mstore\n        /* \"#utility.yul\":4157:4161   */\n      0x00\n        /* \"#utility.yul\":4226:4232   */\n      dup3\n        /* \"#utility.yul\":4220:4233   */\n      mload\n        /* \"#utility.yul\":4269:4275   */\n      dup1\n        /* \"#utility.yul\":4264:4266   */\n      0x20\n        /* \"#utility.yul\":4253:4262   */\n      dup5\n        /* \"#utility.yul\":4249:4267   */\n      add\n        /* \"#utility.yul\":4242:4276   */\n      mstore\n        /* \"#utility.yul\":4285:4351   */\n      tag_144\n        /* \"#utility.yul\":4344:4350   */\n      dup2\n        /* \"#utility.yul\":4339:4341   */\n      0x40\n        /* \"#utility.yul\":4328:4337   */\n      dup6\n        /* \"#utility.yul\":4324:4342   */\n      add\n        /* \"#utility.yul\":4319:4321   */\n      0x20\n        /* \"#utility.yul\":4311:4317   */\n      dup8\n        /* \"#utility.yul\":4307:4322   */\n      add\n        /* \"#utility.yul\":4285:4351   */\n      tag_136\n      jump\t// in\n    tag_144:\n        /* \"#utility.yul\":4412:4414   */\n      0x1f\n        /* \"#utility.yul\":4391:4406   */\n      add\n      not(0x1f)\n        /* \"#utility.yul\":4387:4416   */\n      and\n        /* \"#utility.yul\":4372:4417   */\n      swap2\n      swap1\n      swap2\n      add\n        /* \"#utility.yul\":4419:4421   */\n      0x40\n        /* \"#utility.yul\":4368:4422   */\n      add\n      swap3\n        /* \"#utility.yul\":4047:4428   */\n      swap2\n      pop\n      pop\n      jump\t// out\n        /* \"#utility.yul\":4615:5192   */\n    tag_79:\n        /* \"#utility.yul\":4886:4892   */\n      dup7\n        /* \"#utility.yul\":4875:4884   */\n      dup2\n        /* \"#utility.yul\":4868:4893   */\n      mstore\n        /* \"#utility.yul\":4929:4932   */\n      0x80\n        /* \"#utility.yul\":4924:4926   */\n      0x20\n        /* \"#utility.yul\":4913:4922   */\n      dup3\n        /* \"#utility.yul\":4909:4927   */\n      add\n        /* \"#utility.yul\":4902:4933   */\n      mstore\n        /* \"#utility.yul\":4849:4853   */\n      0x00\n        /* \"#utility.yul\":4956:5018   */\n      tag_147\n        /* \"#utility.yul\":5013:5016   */\n      0x80\n        /* \"#utility.yul\":5002:5011   */\n      dup4\n        /* \"#utility.yul\":4998:5017   */\n      add\n        /* \"#utility.yul\":4990:4996   */\n      dup8\n        /* \"#utility.yul\":4982:4988   */\n      dup10\n        /* \"#utility.yul\":4956:5018   */\n      tag_130\n      jump\t// in\n    tag_147:\n        /* \"#utility.yul\":5066:5075   */\n      dup3\n        /* \"#utility.yul\":5058:5064   */\n      dup2\n        /* \"#utility.yul\":5054:5076   */\n      sub\n        /* \"#utility.yul\":5049:5051   */\n      0x40\n        /* \"#utility.yul\":5038:5047   */\n      dup5\n        /* \"#utility.yul\":5034:5052   */\n      add\n        /* \"#utility.yul\":5027:5077   */\n      mstore\n        /* \"#utility.yul\":5094:5143   */\n      tag_148\n        /* \"#utility.yul\":5136:5142   */\n      dup2\n        /* \"#utility.yul\":5128:5134   */\n      dup7\n        /* \"#utility.yul\":5120:5126   */\n      dup9\n        /* \"#utility.yul\":5094:5143   */\n      tag_130\n      jump\t// in\n    tag_148:\n        /* \"#utility.yul\":5086:5143   */\n      swap2\n      pop\n      pop\n        /* \"#utility.yul\":5179:5185   */\n      dup3\n        /* \"#utility.yul\":5174:5176   */\n      0x60\n        /* \"#utility.yul\":5163:5172   */\n      dup4\n        /* \"#utility.yul\":5159:5177   */\n      add\n        /* \"#utility.yul\":5152:5186   */\n      mstore\n        /* \"#utility.yul\":4615:5192   */\n      swap8\n      swap7\n      pop\n      pop\n      pop\n      pop\n      pop\n      pop\n      pop\n      jump\t// out\n        /* \"#utility.yul\":5450:5675   */\n    tag_72:\n        /* \"#utility.yul\":5490:5493   */\n      0x00\n        /* \"#utility.yul\":5521:5522   */\n      dup3\n        /* \"#utility.yul\":5517:5523   */\n      not\n        /* \"#utility.yul\":5514:5515   */\n      dup3\n        /* \"#utility.yul\":5511:5524   */\n      gt\n        /* \"#utility.yul\":5508:5644   */\n      iszero\n      tag_151\n      jumpi\n        /* \"#utility.yul\":5566:5576   */\n      0x4e487b71\n        /* \"#utility.yul\":5561:5564   */\n      0xe0\n        /* \"#utility.yul\":5557:5577   */\n      shl\n        /* \"#utility.yul\":5554:5555   */\n      0x00\n        /* \"#utility.yul\":5547:5578   */\n      mstore\n        /* \"#utility.yul\":5601:5605   */\n      0x11\n        /* \"#utility.yul\":5598:5599   */\n      0x04\n        /* \"#utility.yul\":5591:5606   */\n      mstore\n        /* \"#utility.yul\":5629:5633   */\n      0x24\n        /* \"#utility.yul\":5626:5627   */\n      0x00\n        /* \"#utility.yul\":5619:5634   */\n      revert\n        /* \"#utility.yul\":5508:5644   */\n    tag_151:\n      pop\n        /* \"#utility.yul\":5660:5669   */\n      add\n      swap1\n        /* \"#utility.yul\":5450:5675   */\n      jump\t// out\n        /* \"#utility.yul\":5680:5938   */\n    tag_136:\n        /* \"#utility.yul\":5752:5753   */\n      0x00\n        /* \"#utility.yul\":5762:5875   */\n    tag_153:\n        /* \"#utility.yul\":5776:5782   */\n      dup4\n        /* \"#utility.yul\":5773:5774   */\n      dup2\n        /* \"#utility.yul\":5770:5783   */\n      lt\n        /* \"#utility.yul\":5762:5875   */\n      iszero\n      tag_155\n      jumpi\n        /* \"#utility.yul\":5852:5863   */\n      dup2\n      dup2\n      add\n        /* \"#utility.yul\":5846:5864   */\n      mload\n        /* \"#utility.yul\":5833:5844   */\n      dup4\n      dup3\n      add\n        /* \"#utility.yul\":5826:5865   */\n      mstore\n        /* \"#utility.yul\":5798:5800   */\n      0x20\n        /* \"#utility.yul\":5791:5801   */\n      add\n        /* \"#utility.yul\":5762:5875   */\n      jump(tag_153)\n    tag_155:\n        /* \"#utility.yul\":5893:5899   */\n      dup4\n        /* \"#utility.yul\":5890:5891   */\n      dup2\n        /* \"#utility.yul\":5887:5900   */\n      gt\n        /* \"#utility.yul\":5884:5932   */\n      iszero\n      tag_156\n      jumpi\n        /* \"#utility.yul\":5928:5929   */\n      0x00\n        /* \"#utility.yul\":5919:5925   */\n      dup5\n        /* \"#utility.yul\":5914:5917   */\n      dup5\n        /* \"#utility.yul\":5910:5926   */\n      add\n        /* \"#utility.yul\":5903:5930   */\n      mstore\n        /* \"#utility.yul\":5884:5932   */\n    tag_156:\n      pop\n        /* \"#utility.yul\":5680:5938   */\n      pop\n      pop\n      pop\n      jump\t// out\n\n    auxdata: 0xa2646970667358221220d9ee4aac5788d7cc57f9649fcbc1cd89f6d825fd2c2952809c65d3d97c509e6664736f6c63430008070033\n}\n",
				"bytecode": {
					"linkReferences": {},
					"object": "608060405234801561001057600080fd5b50600080546001600160a01b03191633179055610933806100326000396000f3fe6080604052600436106100955760003560e01c80638da5cb5b116100595780638da5cb5b146101615780639f81aed714610199578063b0f8b142146101ae578063c1a287e2146100e6578063c4d252f5146101ce57600080fd5b8063228250c9146100a15780634125ff90146100e65780634b9915a51461010a5780636b8742051461012c5780638a1ce0b61461014157600080fd5b3661009c57005b600080fd5b3480156100ad57600080fd5b506100d16100bc366004610751565b60016020526000908152604090205460ff1681565b60405190151581526020015b60405180910390f35b3480156100f257600080fd5b506100fc6103e881565b6040519081526020016100dd565b34801561011657600080fd5b5061012a6101253660046106b0565b6101ee565b005b34801561013857600080fd5b506100fc610322565b34801561014d57600080fd5b506100fc61015c3660046106b0565b610335565b34801561016d57600080fd5b50600054610181906001600160a01b031681565b6040516001600160a01b0390911681526020016100dd565b3480156101a557600080fd5b506100fc600a81565b6101c16101bc3660046106b0565b610377565b6040516100dd9190610833565b3480156101da57600080fd5b5061012a6101e9366004610751565b6105ca565b6000546001600160a01b03163314610219576040516374a2152760e01b815260040160405180910390fd5b600061022a88888888888888610335565b60008181526001602052604090205490915060ff161561026557604051634ca8215f60e11b8152600481018290526024015b60405180910390fd5b610270600a426108a7565b82108061028757506102846103e8426108a7565b82115b156102ae57604051630d4b0b6160e11b81524260048201526024810183905260440161025c565b600081815260016020819052604091829020805460ff19169091179055516001600160a01b0389169082907f3c22f47140594040d205a5533cfedd86c9ab8622c39ead03affb2d97052c794c90610310908b908b908b908b908b908b90610866565b60405180910390a35050505050505050565b60006103306103e8426108a7565b905090565b60008787878787878760405160200161035497969594939291906107e3565b604051602081830303815290604052805190602001209050979650505050505050565b6000546060906001600160a01b031633146103a5576040516374a2152760e01b815260040160405180910390fd5b60006103b689898989898989610335565b60008181526001602052604090205490915060ff166103eb57604051630995c9d560e01b81526004810182905260240161025c565b824210156104155760405163035fce5b60e01b81524260048201526024810184905260440161025c565b6104216103e8846108a7565b42111561045757426104356103e8856108a7565b6040516392ae26d160e01b81526004810192909252602482015260440161025c565b6000818152600160205260409020805460ff19169055606086156104b45787876040516104859291906107b7565b60405190819003812061049e9188908890602001610793565b60405160208183030381529060405290506104ee565b85858080601f0160208091040260200160405190810160405280939291908181526020018383808284376000920191909152509293505050505b6000808b6001600160a01b03168b8460405161050a91906107c7565b60006040518083038185875af1925050503d8060008114610547576040519150601f19603f3d011682016040523d82523d6000602084013e61054c565b606091505b50915091508161056f57604051636cda7c0f60e11b815260040160405180910390fd5b8b6001600160a01b0316847fd1d5c3c892c18716bd88852091d1b63dc6849e9d7c37f69d566884bf954d4bd98d8d8d8d8d8d6040516105b396959493929190610866565b60405180910390a39b9a5050505050505050505050565b6000546001600160a01b031633146105f5576040516374a2152760e01b815260040160405180910390fd5b60008181526001602052604090205460ff1661062757604051630995c9d560e01b81526004810182905260240161025c565b600081815260016020526040808220805460ff191690555182917fe8d9861dbc9c663ed3accd261bbe2fe01e0d3d9e5f51fa38523b265c7757a93a91a250565b60008083601f84011261067957600080fd5b50813567ffffffffffffffff81111561069157600080fd5b6020830191508360208285010111156106a957600080fd5b9250929050565b600080600080600080600060a0888a0312156106cb57600080fd5b87356001600160a01b03811681146106e257600080fd5b965060208801359550604088013567ffffffffffffffff8082111561070657600080fd5b6107128b838c01610667565b909750955060608a013591508082111561072b57600080fd5b506107388a828b01610667565b989b979a50959894979596608090950135949350505050565b60006020828403121561076357600080fd5b5035919050565b81835281816020850137506000828201602090810191909152601f909101601f19169091010190565b6001600160e01b031984168152818360048301376000910160040190815292915050565b8183823760009101908152919050565b600082516107d98184602087016108cd565b9190910192915050565b60018060a01b038816815286602082015260a06040820152600061080b60a08301878961076a565b828103606084015261081e81868861076a565b91505082608083015298975050505050505050565b60208152600082518060208401526108528160408501602087016108cd565b601f01601f19169190910160400192915050565b86815260806020820152600061088060808301878961076a565b828103604084015261089381868861076a565b915050826060830152979650505050505050565b600082198211156108c857634e487b7160e01b600052601160045260246000fd5b500190565b60005b838110156108e85781810151838201526020016108d0565b838111156108f7576000848401525b5050505056fea2646970667358221220d9ee4aac5788d7cc57f9649fcbc1cd89f6d825fd2c2952809c65d3d97c509e6664736f6c63430008070033",
					"opcodes": "PUSH1 0x80 PUSH1 0x40 MSTORE CALLVALUE DUP1 ISZERO PUSH2 0x10 JUMPI PUSH1 0x0 DUP1 REVERT JUMPDEST POP PUSH1 0x0 DUP1 SLOAD PUSH1 0x1 PUSH1 0x1 PUSH1 0xA0 SHL SUB NOT AND CALLER OR SWAP1 SSTORE PUSH2 0x933 DUP1 PUSH2 0x32 PUSH1 0x0 CODECOPY PUSH1 0x0 RETURN INVALID PUSH1 0x80 PUSH1 0x40 MSTORE PUSH1 0x4 CALLDATASIZE LT PUSH2 0x95 JUMPI PUSH1 0x0 CALLDATALOAD PUSH1 0xE0 SHR DUP1 PUSH4 0x8DA5CB5B GT PUSH2 0x59 JUMPI DUP1 PUSH4 0x8DA5CB5B EQ PUSH2 0x161 JUMPI DUP1 PUSH4 0x9F81AED7 EQ PUSH2 0x199 JUMPI DUP1 PUSH4 0xB0F8B142 EQ PUSH2 0x1AE JUMPI DUP1 PUSH4 0xC1A287E2 EQ PUSH2 0xE6 JUMPI DUP1 PUSH4 0xC4D252F5 EQ PUSH2 0x1CE JUMPI PUSH1 0x0 DUP1 REVERT JUMPDEST DUP1 PUSH4 0x228250C9 EQ PUSH2 0xA1 JUMPI DUP1 PUSH4 0x4125FF90 EQ PUSH2 0xE6 JUMPI DUP1 PUSH4 0x4B9915A5 EQ PUSH2 0x10A JUMPI DUP1 PUSH4 0x6B874205 EQ PUSH2 0x12C JUMPI DUP1 PUSH4 0x8A1CE0B6 EQ PUSH2 0x141 JUMPI PUSH1 0x0 DUP1 REVERT JUMPDEST CALLDATASIZE PUSH2 0x9C JUMPI STOP JUMPDEST PUSH1 0x0 DUP1 REVERT JUMPDEST CALLVALUE DUP1 ISZERO PUSH2 0xAD JUMPI PUSH1 0x0 DUP1 REVERT JUMPDEST POP PUSH2 0xD1 PUSH2 0xBC CALLDATASIZE PUSH1 0x4 PUSH2 0x751 JUMP JUMPDEST PUSH1 0x1 PUSH1 0x20 MSTORE PUSH1 0x0 SWAP1 DUP2 MSTORE PUSH1 0x40 SWAP1 KECCAK256 SLOAD PUSH1 0xFF AND DUP2 JUMP JUMPDEST PUSH1 0x40 MLOAD SWAP1 ISZERO ISZERO DUP2 MSTORE PUSH1 0x20 ADD JUMPDEST PUSH1 0x40 MLOAD DUP1 SWAP2 SUB SWAP1 RETURN JUMPDEST CALLVALUE DUP1 ISZERO PUSH2 0xF2 JUMPI PUSH1 0x0 DUP1 REVERT JUMPDEST POP PUSH2 0xFC PUSH2 0x3E8 DUP2 JUMP JUMPDEST PUSH1 0x40 MLOAD SWAP1 DUP2 MSTORE PUSH1 0x20 ADD PUSH2 0xDD JUMP JUMPDEST CALLVALUE DUP1 ISZERO PUSH2 0x116 JUMPI PUSH1 0x0 DUP1 REVERT JUMPDEST POP PUSH2 0x12A PUSH2 0x125 CALLDATASIZE PUSH1 0x4 PUSH2 0x6B0 JUMP JUMPDEST PUSH2 0x1EE JUMP JUMPDEST STOP JUMPDEST CALLVALUE DUP1 ISZERO PUSH2 0x138 JUMPI PUSH1 0x0 DUP1 REVERT JUMPDEST POP PUSH2 0xFC PUSH2 0x322 JUMP JUMPDEST CALLVALUE DUP1 ISZERO PUSH2 0x14D JUMPI PUSH1 0x0 DUP1 REVERT JUMPDEST POP PUSH2 0xFC PUSH2 0x15C CALLDATASIZE PUSH1 0x4 PUSH2 0x6B0 JUMP JUMPDEST PUSH2 0x335 JUMP JUMPDEST CALLVALUE DUP1 ISZERO PUSH2 0x16D JUMPI PUSH1 0x0 DUP1 REVERT JUMPDEST POP PUSH1 0x0 SLOAD PUSH2 0x181 SWAP1 PUSH1 0x1 PUSH1 0x1 PUSH1 0xA0 SHL SUB AND DUP2 JUMP JUMPDEST PUSH1 0x40 MLOAD PUSH1 0x1 PUSH1 0x1 PUSH1 0xA0 SHL SUB SWAP1 SWAP2 AND DUP2 MSTORE PUSH1 0x20 ADD PUSH2 0xDD JUMP JUMPDEST CALLVALUE DUP1 ISZERO PUSH2 0x1A5 JUMPI PUSH1 0x0 DUP1 REVERT JUMPDEST POP PUSH2 0xFC PUSH1 0xA DUP2 JUMP JUMPDEST PUSH2 0x1C1 PUSH2 0x1BC CALLDATASIZE PUSH1 0x4 PUSH2 0x6B0 JUMP JUMPDEST PUSH2 0x377 JUMP JUMPDEST PUSH1 0x40 MLOAD PUSH2 0xDD SWAP2 SWAP1 PUSH2 0x833 JUMP JUMPDEST CALLVALUE DUP1 ISZERO PUSH2 0x1DA JUMPI PUSH1 0x0 DUP1 REVERT JUMPDEST POP PUSH2 0x12A PUSH2 0x1E9 CALLDATASIZE PUSH1 0x4 PUSH2 0x751 JUMP JUMPDEST PUSH2 0x5CA JUMP JUMPDEST PUSH1 0x0 SLOAD PUSH1 0x1 PUSH1 0x1 PUSH1 0xA0 SHL SUB AND CALLER EQ PUSH2 0x219 JUMPI PUSH1 0x40 MLOAD PUSH4 0x74A21527 PUSH1 0xE0 SHL DUP2 MSTORE PUSH1 0x4 ADD PUSH1 0x40 MLOAD DUP1 SWAP2 SUB SWAP1 REVERT JUMPDEST PUSH1 0x0 PUSH2 0x22A DUP9 DUP9 DUP9 DUP9 DUP9 DUP9 DUP9 PUSH2 0x335 JUMP JUMPDEST PUSH1 0x0 DUP2 DUP2 MSTORE PUSH1 0x1 PUSH1 0x20 MSTORE PUSH1 0x40 SWAP1 KECCAK256 SLOAD SWAP1 SWAP2 POP PUSH1 0xFF AND ISZERO PUSH2 0x265 JUMPI PUSH1 0x40 MLOAD PUSH4 0x4CA8215F PUSH1 0xE1 SHL DUP2 MSTORE PUSH1 0x4 DUP2 ADD DUP3 SWAP1 MSTORE PUSH1 0x24 ADD JUMPDEST PUSH1 0x40 MLOAD DUP1 SWAP2 SUB SWAP1 REVERT JUMPDEST PUSH2 0x270 PUSH1 0xA TIMESTAMP PUSH2 0x8A7 JUMP JUMPDEST DUP3 LT DUP1 PUSH2 0x287 JUMPI POP PUSH2 0x284 PUSH2 0x3E8 TIMESTAMP PUSH2 0x8A7 JUMP JUMPDEST DUP3 GT JUMPDEST ISZERO PUSH2 0x2AE JUMPI PUSH1 0x40 MLOAD PUSH4 0xD4B0B61 PUSH1 0xE1 SHL DUP2 MSTORE TIMESTAMP PUSH1 0x4 DUP3 ADD MSTORE PUSH1 0x24 DUP2 ADD DUP4 SWAP1 MSTORE PUSH1 0x44 ADD PUSH2 0x25C JUMP JUMPDEST PUSH1 0x0 DUP2 DUP2 MSTORE PUSH1 0x1 PUSH1 0x20 DUP2 SWAP1 MSTORE PUSH1 0x40 SWAP2 DUP3 SWAP1 KECCAK256 DUP1 SLOAD PUSH1 0xFF NOT AND SWAP1 SWAP2 OR SWAP1 SSTORE MLOAD PUSH1 0x1 PUSH1 0x1 PUSH1 0xA0 SHL SUB DUP10 AND SWAP1 DUP3 SWAP1 PUSH32 0x3C22F47140594040D205A5533CFEDD86C9AB8622C39EAD03AFFB2D97052C794C SWAP1 PUSH2 0x310 SWAP1 DUP12 SWAP1 DUP12 SWAP1 DUP12 SWAP1 DUP12 SWAP1 DUP12 SWAP1 DUP12 SWAP1 PUSH2 0x866 JUMP JUMPDEST PUSH1 0x40 MLOAD DUP1 SWAP2 SUB SWAP1 LOG3 POP POP POP POP POP POP POP POP JUMP JUMPDEST PUSH1 0x0 PUSH2 0x330 PUSH2 0x3E8 TIMESTAMP PUSH2 0x8A7 JUMP JUMPDEST SWAP1 POP SWAP1 JUMP JUMPDEST PUSH1 0x0 DUP8 DUP8 DUP8 DUP8 DUP8 DUP8 DUP8 PUSH1 0x40 MLOAD PUSH1 0x20 ADD PUSH2 0x354 SWAP8 SWAP7 SWAP6 SWAP5 SWAP4 SWAP3 SWAP2 SWAP1 PUSH2 0x7E3 JUMP JUMPDEST PUSH1 0x40 MLOAD PUSH1 0x20 DUP2 DUP4 SUB SUB DUP2 MSTORE SWAP1 PUSH1 0x40 MSTORE DUP1 MLOAD SWAP1 PUSH1 0x20 ADD KECCAK256 SWAP1 POP SWAP8 SWAP7 POP POP POP POP POP POP POP JUMP JUMPDEST PUSH1 0x0 SLOAD PUSH1 0x60 SWAP1 PUSH1 0x1 PUSH1 0x1 PUSH1 0xA0 SHL SUB AND CALLER EQ PUSH2 0x3A5 JUMPI PUSH1 0x40 MLOAD PUSH4 0x74A21527 PUSH1 0xE0 SHL DUP2 MSTORE PUSH1 0x4 ADD PUSH1 0x40 MLOAD DUP1 SWAP2 SUB SWAP1 REVERT JUMPDEST PUSH1 0x0 PUSH2 0x3B6 DUP10 DUP10 DUP10 DUP10 DUP10 DUP10 DUP10 PUSH2 0x335 JUMP JUMPDEST PUSH1 0x0 DUP2 DUP2 MSTORE PUSH1 0x1 PUSH1 0x20 MSTORE PUSH1 0x40 SWAP1 KECCAK256 SLOAD SWAP1 SWAP2 POP PUSH1 0xFF AND PUSH2 0x3EB JUMPI PUSH1 0x40 MLOAD PUSH4 0x995C9D5 PUSH1 0xE0 SHL DUP2 MSTORE PUSH1 0x4 DUP2 ADD DUP3 SWAP1 MSTORE PUSH1 0x24 ADD PUSH2 0x25C JUMP JUMPDEST DUP3 TIMESTAMP LT ISZERO PUSH2 0x415 JUMPI PUSH1 0x40 MLOAD PUSH4 0x35FCE5B PUSH1 0xE0 SHL DUP2 MSTORE TIMESTAMP PUSH1 0x4 DUP3 ADD MSTORE PUSH1 0x24 DUP2 ADD DUP5 SWAP1 MSTORE PUSH1 0x44 ADD PUSH2 0x25C JUMP JUMPDEST PUSH2 0x421 PUSH2 0x3E8 DUP5 PUSH2 0x8A7 JUMP JUMPDEST TIMESTAMP GT ISZERO PUSH2 0x457 JUMPI TIMESTAMP PUSH2 0x435 PUSH2 0x3E8 DUP6 PUSH2 0x8A7 JUMP JUMPDEST PUSH1 0x40 MLOAD PUSH4 0x92AE26D1 PUSH1 0xE0 SHL DUP2 MSTORE PUSH1 0x4 DUP2 ADD SWAP3 SWAP1 SWAP3 MSTORE PUSH1 0x24 DUP3 ADD MSTORE PUSH1 0x44 ADD PUSH2 0x25C JUMP JUMPDEST PUSH1 0x0 DUP2 DUP2 MSTORE PUSH1 0x1 PUSH1 0x20 MSTORE PUSH1 0x40 SWAP1 KECCAK256 DUP1 SLOAD PUSH1 0xFF NOT AND SWAP1 SSTORE PUSH1 0x60 DUP7 ISZERO PUSH2 0x4B4 JUMPI DUP8 DUP8 PUSH1 0x40 MLOAD PUSH2 0x485 SWAP3 SWAP2 SWAP1 PUSH2 0x7B7 JUMP JUMPDEST PUSH1 0x40 MLOAD SWAP1 DUP2 SWAP1 SUB DUP2 KECCAK256 PUSH2 0x49E SWAP2 DUP9 SWAP1 DUP9 SWAP1 PUSH1 0x20 ADD PUSH2 0x793 JUMP JUMPDEST PUSH1 0x40 MLOAD PUSH1 0x20 DUP2 DUP4 SUB SUB DUP2 MSTORE SWAP1 PUSH1 0x40 MSTORE SWAP1 POP PUSH2 0x4EE JUMP JUMPDEST DUP6 DUP6 DUP1 DUP1 PUSH1 0x1F ADD PUSH1 0x20 DUP1 SWAP2 DIV MUL PUSH1 0x20 ADD PUSH1 0x40 MLOAD SWAP1 DUP2 ADD PUSH1 0x40 MSTORE DUP1 SWAP4 SWAP3 SWAP2 SWAP1 DUP2 DUP2 MSTORE PUSH1 0x20 ADD DUP4 DUP4 DUP1 DUP3 DUP5 CALLDATACOPY PUSH1 0x0 SWAP3 ADD SWAP2 SWAP1 SWAP2 MSTORE POP SWAP3 SWAP4 POP POP POP POP JUMPDEST PUSH1 0x0 DUP1 DUP12 PUSH1 0x1 PUSH1 0x1 PUSH1 0xA0 SHL SUB AND DUP12 DUP5 PUSH1 0x40 MLOAD PUSH2 0x50A SWAP2 SWAP1 PUSH2 0x7C7 JUMP JUMPDEST PUSH1 0x0 PUSH1 0x40 MLOAD DUP1 DUP4 SUB DUP2 DUP6 DUP8 GAS CALL SWAP3 POP POP POP RETURNDATASIZE DUP1 PUSH1 0x0 DUP2 EQ PUSH2 0x547 JUMPI PUSH1 0x40 MLOAD SWAP2 POP PUSH1 0x1F NOT PUSH1 0x3F RETURNDATASIZE ADD AND DUP3 ADD PUSH1 0x40 MSTORE RETURNDATASIZE DUP3 MSTORE RETURNDATASIZE PUSH1 0x0 PUSH1 0x20 DUP5 ADD RETURNDATACOPY PUSH2 0x54C JUMP JUMPDEST PUSH1 0x60 SWAP2 POP JUMPDEST POP SWAP2 POP SWAP2 POP DUP2 PUSH2 0x56F JUMPI PUSH1 0x40 MLOAD PUSH4 0x6CDA7C0F PUSH1 0xE1 SHL DUP2 MSTORE PUSH1 0x4 ADD PUSH1 0x40 MLOAD DUP1 SWAP2 SUB SWAP1 REVERT JUMPDEST DUP12 PUSH1 0x1 PUSH1 0x1 PUSH1 0xA0 SHL SUB AND DUP5 PUSH32 0xD1D5C3C892C18716BD88852091D1B63DC6849E9D7C37F69D566884BF954D4BD9 DUP14 DUP14 DUP14 DUP14 DUP14 DUP14 PUSH1 0x40 MLOAD PUSH2 0x5B3 SWAP7 SWAP6 SWAP5 SWAP4 SWAP3 SWAP2 SWAP1 PUSH2 0x866 JUMP JUMPDEST PUSH1 0x40 MLOAD DUP1 SWAP2 SUB SWAP1 LOG3 SWAP12 SWAP11 POP POP POP POP POP POP POP POP POP POP POP JUMP JUMPDEST PUSH1 0x0 SLOAD PUSH1 0x1 PUSH1 0x1 PUSH1 0xA0 SHL SUB AND CALLER EQ PUSH2 0x5F5 JUMPI PUSH1 0x40 MLOAD PUSH4 0x74A21527 PUSH1 0xE0 SHL DUP2 MSTORE PUSH1 0x4 ADD PUSH1 0x40 MLOAD DUP1 SWAP2 SUB SWAP1 REVERT JUMPDEST PUSH1 0x0 DUP2 DUP2 MSTORE PUSH1 0x1 PUSH1 0x20 MSTORE PUSH1 0x40 SWAP1 KECCAK256 SLOAD PUSH1 0xFF AND PUSH2 0x627 JUMPI PUSH1 0x40 MLOAD PUSH4 0x995C9D5 PUSH1 0xE0 SHL DUP2 MSTORE PUSH1 0x4 DUP2 ADD DUP3 SWAP1 MSTORE PUSH1 0x24 ADD PUSH2 0x25C JUMP JUMPDEST PUSH1 0x0 DUP2 DUP2 MSTORE PUSH1 0x1 PUSH1 0x20 MSTORE PUSH1 0x40 DUP1 DUP3 KECCAK256 DUP1 SLOAD PUSH1 0xFF NOT AND SWAP1 SSTORE MLOAD DUP3 SWAP2 PUSH32 0xE8D9861DBC9C663ED3ACCD261BBE2FE01E0D3D9E5F51FA38523B265C7757A93A SWAP2 LOG2 POP JUMP JUMPDEST PUSH1 0x0 DUP1 DUP4 PUSH1 0x1F DUP5 ADD SLT PUSH2 0x679 JUMPI PUSH1 0x0 DUP1 REVERT JUMPDEST POP DUP2 CALLDATALOAD PUSH8 0xFFFFFFFFFFFFFFFF DUP2 GT ISZERO PUSH2 0x691 JUMPI PUSH1 0x0 DUP1 REVERT JUMPDEST PUSH1 0x20 DUP4 ADD SWAP2 POP DUP4 PUSH1 0x20 DUP3 DUP6 ADD ADD GT ISZERO PUSH2 0x6A9 JUMPI PUSH1 0x0 DUP1 REVERT JUMPDEST SWAP3 POP SWAP3 SWAP1 POP JUMP JUMPDEST PUSH1 0x0 DUP1 PUSH1 0x0 DUP1 PUSH1 0x0 DUP1 PUSH1 0x0 PUSH1 0xA0 DUP9 DUP11 SUB SLT ISZERO PUSH2 0x6CB JUMPI PUSH1 0x0 DUP1 REVERT JUMPDEST DUP8 CALLDATALOAD PUSH1 0x1 PUSH1 0x1 PUSH1 0xA0 SHL SUB DUP2 AND DUP2 EQ PUSH2 0x6E2 JUMPI PUSH1 0x0 DUP1 REVERT JUMPDEST SWAP7 POP PUSH1 0x20 DUP9 ADD CALLDATALOAD SWAP6 POP PUSH1 0x40 DUP9 ADD CALLDATALOAD PUSH8 0xFFFFFFFFFFFFFFFF DUP1 DUP3 GT ISZERO PUSH2 0x706 JUMPI PUSH1 0x0 DUP1 REVERT JUMPDEST PUSH2 0x712 DUP12 DUP4 DUP13 ADD PUSH2 0x667 JUMP JUMPDEST SWAP1 SWAP8 POP SWAP6 POP PUSH1 0x60 DUP11 ADD CALLDATALOAD SWAP2 POP DUP1 DUP3 GT ISZERO PUSH2 0x72B JUMPI PUSH1 0x0 DUP1 REVERT JUMPDEST POP PUSH2 0x738 DUP11 DUP3 DUP12 ADD PUSH2 0x667 JUMP JUMPDEST SWAP9 SWAP12 SWAP8 SWAP11 POP SWAP6 SWAP9 SWAP5 SWAP8 SWAP6 SWAP7 PUSH1 0x80 SWAP1 SWAP6 ADD CALLDATALOAD SWAP5 SWAP4 POP POP POP POP JUMP JUMPDEST PUSH1 0x0 PUSH1 0x20 DUP3 DUP5 SUB SLT ISZERO PUSH2 0x763 JUMPI PUSH1 0x0 DUP1 REVERT JUMPDEST POP CALLDATALOAD SWAP2 SWAP1 POP JUMP JUMPDEST DUP2 DUP4 MSTORE DUP2 DUP2 PUSH1 0x20 DUP6 ADD CALLDATACOPY POP PUSH1 0x0 DUP3 DUP3 ADD PUSH1 0x20 SWAP1 DUP2 ADD SWAP2 SWAP1 SWAP2 MSTORE PUSH1 0x1F SWAP1 SWAP2 ADD PUSH1 0x1F NOT AND SWAP1 SWAP2 ADD ADD SWAP1 JUMP JUMPDEST PUSH1 0x1 PUSH1 0x1 PUSH1 0xE0 SHL SUB NOT DUP5 AND DUP2 MSTORE DUP2 DUP4 PUSH1 0x4 DUP4 ADD CALLDATACOPY PUSH1 0x0 SWAP2 ADD PUSH1 0x4 ADD SWAP1 DUP2 MSTORE SWAP3 SWAP2 POP POP JUMP JUMPDEST DUP2 DUP4 DUP3 CALLDATACOPY PUSH1 0x0 SWAP2 ADD SWAP1 DUP2 MSTORE SWAP2 SWAP1 POP JUMP JUMPDEST PUSH1 0x0 DUP3 MLOAD PUSH2 0x7D9 DUP2 DUP5 PUSH1 0x20 DUP8 ADD PUSH2 0x8CD JUMP JUMPDEST SWAP2 SWAP1 SWAP2 ADD SWAP3 SWAP2 POP POP JUMP JUMPDEST PUSH1 0x1 DUP1 PUSH1 0xA0 SHL SUB DUP9 AND DUP2 MSTORE DUP7 PUSH1 0x20 DUP3 ADD MSTORE PUSH1 0xA0 PUSH1 0x40 DUP3 ADD MSTORE PUSH1 0x0 PUSH2 0x80B PUSH1 0xA0 DUP4 ADD DUP8 DUP10 PUSH2 0x76A JUMP JUMPDEST DUP3 DUP2 SUB PUSH1 0x60 DUP5 ADD MSTORE PUSH2 0x81E DUP2 DUP7 DUP9 PUSH2 0x76A JUMP JUMPDEST SWAP2 POP POP DUP3 PUSH1 0x80 DUP4 ADD MSTORE SWAP9 SWAP8 POP POP POP POP POP POP POP POP JUMP JUMPDEST PUSH1 0x20 DUP2 MSTORE PUSH1 0x0 DUP3 MLOAD DUP1 PUSH1 0x20 DUP5 ADD MSTORE PUSH2 0x852 DUP2 PUSH1 0x40 DUP6 ADD PUSH1 0x20 DUP8 ADD PUSH2 0x8CD JUMP JUMPDEST PUSH1 0x1F ADD PUSH1 0x1F NOT AND SWAP2 SWAP1 SWAP2 ADD PUSH1 0x40 ADD SWAP3 SWAP2 POP POP JUMP JUMPDEST DUP7 DUP2 MSTORE PUSH1 0x80 PUSH1 0x20 DUP3 ADD MSTORE PUSH1 0x0 PUSH2 0x880 PUSH1 0x80 DUP4 ADD DUP8 DUP10 PUSH2 0x76A JUMP JUMPDEST DUP3 DUP2 SUB PUSH1 0x40 DUP5 ADD MSTORE PUSH2 0x893 DUP2 DUP7 DUP9 PUSH2 0x76A JUMP JUMPDEST SWAP2 POP POP DUP3 PUSH1 0x60 DUP4 ADD MSTORE SWAP8 SWAP7 POP POP POP POP POP POP POP JUMP JUMPDEST PUSH1 0x0 DUP3 NOT DUP3 GT ISZERO PUSH2 0x8C8 JUMPI PUSH4 0x4E487B71 PUSH1 0xE0 SHL PUSH1 0x0 MSTORE PUSH1 0x11 PUSH1 0x4 MSTORE PUSH1 0x24 PUSH1 0x0 REVERT JUMPDEST POP ADD SWAP1 JUMP JUMPDEST PUSH1 0x0 JUMPDEST DUP4 DUP2 LT ISZERO PUSH2 0x8E8 JUMPI DUP2 DUP2 ADD MLOAD DUP4 DUP3 ADD MSTORE PUSH1 0x20 ADD PUSH2 0x8D0 JUMP JUMPDEST DUP4 DUP2 GT ISZERO PUSH2 0x8F7 JUMPI PUSH1 0x0 DUP5 DUP5 ADD MSTORE JUMPDEST POP POP POP POP JUMP INVALID LOG2 PUSH5 0x6970667358 0x22 SLT KECCAK256 0xD9 0xEE 0x4A 0xAC JUMPI DUP9 0xD7 0xCC JUMPI 0xF9 PUSH5 0x9FCBC1CD89 0xF6 0xD8 0x25 REVERT 0x2C 0x29 MSTORE DUP1 SWAP13 PUSH6 0xD3D97C509E66 PUSH5 0x736F6C6343 STOP ADDMOD SMOD STOP CALLER "
				},
				"gasEstimates": {
					"creation": {
						"codeDepositCost": "471000",
						"executionCost": "24740",
						"totalCost": "495740"
					},
					"external": {
						"GRACE_PERIOD()": "261",
						"MAX_DELAY()": "218",
						"MIN_DELAY()": "217",
						"cancel(bytes32)": "30067",
						"execute(address,uint256,string,bytes,uint256)": "infinite",
						"getTimestame()": "348",
						"getTxId(address,uint256,string,bytes,uint256)": "infinite",
						"owner()": "2337",
						"queue(address,uint256,string,bytes,uint256)": "infinite",
						"queued(bytes32)": "2440"
					}
				},
				"methodIdentifiers": {
					"GRACE_PERIOD()": "c1a287e2",
					"MAX_DELAY()": "4125ff90",
					"MIN_DELAY()": "9f81aed7",
					"cancel(bytes32)": "c4d252f5",
					"execute(address,uint256,string,bytes,uint256)": "b0f8b142",
					"getTimestame()": "6b874205",
					"getTxId(address,uint256,string,bytes,uint256)": "8a1ce0b6",
					"owner()": "8da5cb5b",
					"queue(address,uint256,string,bytes,uint256)": "4b9915a5",
					"queued(bytes32)": "228250c9"
				}
			},
			"storageLayout": {
				"storage": [
					{
						"astId": 74,
						"contract": "contracts/demo/TimeLock.sol:TimeLock",
						"label": "owner",
						"offset": 0,
						"slot": "0",
						"type": "t_address"
					},
					{
						"astId": 78,
						"contract": "contracts/demo/TimeLock.sol:TimeLock",
						"label": "queued",
						"offset": 0,
						"slot": "1",
						"type": "t_mapping(t_bytes32,t_bool)"
					}
				],
				"types": {
					"t_address": {
						"encoding": "inplace",
						"label": "address",
						"numberOfBytes": "20"
					},
					"t_bool": {
						"encoding": "inplace",
						"label": "bool",
						"numberOfBytes": "1"
					},
					"t_bytes32": {
						"encoding": "inplace",
						"label": "bytes32",
						"numberOfBytes": "32"
					},
					"t_mapping(t_bytes32,t_bool)": {
						"encoding": "mapping",
						"key": "t_bytes32",
						"label": "mapping(bytes32 => bool)",
						"numberOfBytes": "32",
						"value": "t_bool"
					}
				}
			},
			"userdoc": {
				"kind": "user",
				"methods": {},
				"version": 1
			}
		}
	}
}