{
	"contracts/demo/ReceiverPays.sol": {
		"ReceiverPays": {
			"abi": [
				{
					"inputs": [],
					"stateMutability": "payable",
					"type": "constructor"
				},
				{
					"inputs": [
						{
							"internalType": "uint256",
							"name": "amount",
							"type": "uint256"
						},
						{
							"internalType": "uint256",
							"name": "nonce",
							"type": "uint256"
						},
						{
							"internalType": "bytes",
							"name": "signature",
							"type": "bytes"
						}
					],
					"name": "claimPayment",
					"outputs": [],
					"stateMutability": "nonpayable",
					"type": "function"
				},
				{
					"inputs": [],
					"name": "shutdown",
					"outputs": [],
					"stateMutability": "nonpayable",
					"type": "function"
				}
			],
			"devdoc": {
				"kind": "dev",
				"methods": {},
				"version": 1
			},
			"evm": {
				"assembly": "    /* \"contracts/demo/ReceiverPays.sol\":70:1886  contract ReceiverPays {\r... */\n  mstore(0x40, 0x80)\n    /* \"contracts/demo/ReceiverPays.sol\":99:125  address owner = msg.sender */\n  0x00\n  dup1\n  sload\n  not(sub(shl(0xa0, 0x01), 0x01))\n  and\n    /* \"contracts/demo/ReceiverPays.sol\":115:125  msg.sender */\n  caller\n    /* \"contracts/demo/ReceiverPays.sol\":99:125  address owner = msg.sender */\n  or\n  swap1\n  sstore\n    /* \"contracts/demo/ReceiverPays.sol\":70:1886  contract ReceiverPays {\r... */\n  dataSize(sub_0)\n  dup1\n  dataOffset(sub_0)\n  0x00\n  codecopy\n  0x00\n  return\nstop\n\nsub_0: assembly {\n        /* \"contracts/demo/ReceiverPays.sol\":70:1886  contract ReceiverPays {\r... */\n      mstore(0x40, 0x80)\n      callvalue\n      dup1\n      iszero\n      tag_1\n      jumpi\n      0x00\n      dup1\n      revert\n    tag_1:\n      pop\n      jumpi(tag_2, lt(calldatasize, 0x04))\n      shr(0xe0, calldataload(0x00))\n      dup1\n      0xa90ae887\n      eq\n      tag_3\n      jumpi\n      dup1\n      0xfc0e74d1\n      eq\n      tag_4\n      jumpi\n    tag_2:\n      0x00\n      dup1\n      revert\n        /* \"contracts/demo/ReceiverPays.sol\":210:655  function claimPayment(uint256 amount, uint256 nonce, bytes memory signature) external {\r... */\n    tag_3:\n      tag_5\n      tag_6\n      calldatasize\n      0x04\n      tag_7\n      jump\t// in\n    tag_6:\n      tag_8\n      jump\t// in\n    tag_5:\n      stop\n        /* \"contracts/demo/ReceiverPays.sol\":712:832  function shutdown() external {\r... */\n    tag_4:\n      tag_5\n      tag_10\n      jump\t// in\n        /* \"contracts/demo/ReceiverPays.sol\":210:655  function claimPayment(uint256 amount, uint256 nonce, bytes memory signature) external {\r... */\n    tag_8:\n        /* \"contracts/demo/ReceiverPays.sol\":316:333  usedNonces[nonce] */\n      0x00\n      dup3\n      dup2\n      mstore\n        /* \"contracts/demo/ReceiverPays.sol\":316:326  usedNonces */\n      0x01\n        /* \"contracts/demo/ReceiverPays.sol\":316:333  usedNonces[nonce] */\n      0x20\n      mstore\n      0x40\n      swap1\n      keccak256\n      sload\n      0xff\n      and\n        /* \"contracts/demo/ReceiverPays.sol\":315:333  !usedNonces[nonce] */\n      iszero\n        /* \"contracts/demo/ReceiverPays.sol\":307:334  require(!usedNonces[nonce]) */\n      tag_12\n      jumpi\n      0x00\n      dup1\n      revert\n    tag_12:\n        /* \"contracts/demo/ReceiverPays.sol\":345:362  usedNonces[nonce] */\n      0x00\n      dup3\n      dup2\n      mstore\n        /* \"contracts/demo/ReceiverPays.sol\":365:369  true */\n      0x01\n        /* \"contracts/demo/ReceiverPays.sol\":345:362  usedNonces[nonce] */\n      0x20\n      dup2\n      dup2\n      mstore\n      0x40\n      dup1\n      dup5\n      keccak256\n        /* \"contracts/demo/ReceiverPays.sol\":345:369  usedNonces[nonce] = true */\n      dup1\n      sload\n      not(0xff)\n      and\n      swap1\n      swap4\n      or\n      swap1\n      swap3\n      sstore\n        /* \"contracts/demo/ReceiverPays.sol\":483:532  abi.encodePacked(msg.sender, amount, nonce, this) */\n      swap1\n      mload\n        /* \"contracts/demo/ReceiverPays.sol\":464:534  prefixed(keccak256(abi.encodePacked(msg.sender, amount, nonce, this))) */\n      tag_13\n      swap2\n        /* \"contracts/demo/ReceiverPays.sol\":483:532  abi.encodePacked(msg.sender, amount, nonce, this) */\n      tag_14\n      swap2\n        /* \"contracts/demo/ReceiverPays.sol\":500:510  msg.sender */\n      caller\n      swap2\n        /* \"contracts/demo/ReceiverPays.sol\":512:518  amount */\n      dup9\n      swap2\n        /* \"contracts/demo/ReceiverPays.sol\":356:361  nonce */\n      dup9\n      swap2\n        /* \"contracts/demo/ReceiverPays.sol\":527:531  this */\n      address\n      swap2\n        /* \"contracts/demo/ReceiverPays.sol\":483:532  abi.encodePacked(msg.sender, amount, nonce, this) */\n      add\n      tag_15\n      jump\t// in\n    tag_14:\n      mload(0x40)\n      0x20\n      dup2\n      dup4\n      sub\n      sub\n      dup2\n      mstore\n      swap1\n      0x40\n      mstore\n        /* \"contracts/demo/ReceiverPays.sol\":473:533  keccak256(abi.encodePacked(msg.sender, amount, nonce, this)) */\n      dup1\n      mload\n      swap1\n      0x20\n      add\n      keccak256\n        /* \"contracts/demo/ReceiverPays.sol\":464:472  prefixed */\n      tag_16\n        /* \"contracts/demo/ReceiverPays.sol\":464:534  prefixed(keccak256(abi.encodePacked(msg.sender, amount, nonce, this))) */\n      jump\t// in\n    tag_13:\n        /* \"contracts/demo/ReceiverPays.sol\":592:597  owner */\n      sload(0x00)\n        /* \"contracts/demo/ReceiverPays.sol\":446:534  bytes32 message = prefixed(keccak256(abi.encodePacked(msg.sender, amount, nonce, this))) */\n      swap1\n      swap2\n      pop\n      sub(shl(0xa0, 0x01), 0x01)\n        /* \"contracts/demo/ReceiverPays.sol\":592:597  owner */\n      and\n        /* \"contracts/demo/ReceiverPays.sol\":555:588  recoverSigner(message, signature) */\n      tag_17\n        /* \"contracts/demo/ReceiverPays.sol\":446:534  bytes32 message = prefixed(keccak256(abi.encodePacked(msg.sender, amount, nonce, this))) */\n      dup3\n        /* \"contracts/demo/ReceiverPays.sol\":578:587  signature */\n      dup5\n        /* \"contracts/demo/ReceiverPays.sol\":555:568  recoverSigner */\n      tag_18\n        /* \"contracts/demo/ReceiverPays.sol\":555:588  recoverSigner(message, signature) */\n      jump\t// in\n    tag_17:\n      sub(shl(0xa0, 0x01), 0x01)\n        /* \"contracts/demo/ReceiverPays.sol\":555:597  recoverSigner(message, signature) == owner */\n      and\n      eq\n        /* \"contracts/demo/ReceiverPays.sol\":547:598  require(recoverSigner(message, signature) == owner) */\n      tag_19\n      jumpi\n      0x00\n      dup1\n      revert\n    tag_19:\n        /* \"contracts/demo/ReceiverPays.sol\":611:647  payable(msg.sender).transfer(amount) */\n      mload(0x40)\n        /* \"contracts/demo/ReceiverPays.sol\":619:629  msg.sender */\n      caller\n      swap1\n        /* \"contracts/demo/ReceiverPays.sol\":611:647  payable(msg.sender).transfer(amount) */\n      dup6\n      iszero\n      0x08fc\n      mul\n      swap1\n        /* \"contracts/demo/ReceiverPays.sol\":640:646  amount */\n      dup7\n      swap1\n        /* \"contracts/demo/ReceiverPays.sol\":611:647  payable(msg.sender).transfer(amount) */\n      0x00\n      dup2\n      dup2\n      dup2\n        /* \"contracts/demo/ReceiverPays.sol\":640:646  amount */\n      dup6\n        /* \"contracts/demo/ReceiverPays.sol\":619:629  msg.sender */\n      dup9\n        /* \"contracts/demo/ReceiverPays.sol\":611:647  payable(msg.sender).transfer(amount) */\n      dup9\n      call\n      swap4\n      pop\n      pop\n      pop\n      pop\n      iszero\n      dup1\n      iszero\n      tag_21\n      jumpi\n      returndatasize\n      0x00\n      dup1\n      returndatacopy\n      revert(0x00, returndatasize)\n    tag_21:\n      pop\n        /* \"contracts/demo/ReceiverPays.sol\":210:655  function claimPayment(uint256 amount, uint256 nonce, bytes memory signature) external {\r... */\n      pop\n      pop\n      pop\n      pop\n      jump\t// out\n        /* \"contracts/demo/ReceiverPays.sol\":712:832  function shutdown() external {\r... */\n    tag_10:\n        /* \"contracts/demo/ReceiverPays.sol\":774:779  owner */\n      and(sub(shl(0xa0, 0x01), 0x01), sload(0x00))\n        /* \"contracts/demo/ReceiverPays.sol\":760:770  msg.sender */\n      caller\n        /* \"contracts/demo/ReceiverPays.sol\":760:779  msg.sender == owner */\n      eq\n        /* \"contracts/demo/ReceiverPays.sol\":752:780  require(msg.sender == owner) */\n      tag_23\n      jumpi\n      0x00\n      dup1\n      revert\n    tag_23:\n        /* \"contracts/demo/ReceiverPays.sol\":812:822  msg.sender */\n      caller\n        /* \"contracts/demo/ReceiverPays.sol\":791:824  selfdestruct(payable(msg.sender)) */\n      selfdestruct\n        /* \"contracts/demo/ReceiverPays.sol\":1724:1883  function prefixed(bytes32 hash) internal pure returns (bytes32) {\r... */\n    tag_16:\n        /* \"contracts/demo/ReceiverPays.sol\":1779:1786  bytes32 */\n      0x00\n        /* \"contracts/demo/ReceiverPays.sol\":1869:1873  hash */\n      dup2\n        /* \"contracts/demo/ReceiverPays.sol\":1816:1874  abi.encodePacked(\"\\x19Ethereum Signed Message:\\n32\", hash) */\n      add(0x20, mload(0x40))\n      tag_25\n      swap2\n      swap1\n      tag_26\n      jump\t// in\n    tag_25:\n      mload(0x40)\n      0x20\n      dup2\n      dup4\n      sub\n      sub\n      dup2\n      mstore\n      swap1\n      0x40\n      mstore\n        /* \"contracts/demo/ReceiverPays.sol\":1806:1875  keccak256(abi.encodePacked(\"\\x19Ethereum Signed Message:\\n32\", hash)) */\n      dup1\n      mload\n      swap1\n      0x20\n      add\n      keccak256\n        /* \"contracts/demo/ReceiverPays.sol\":1799:1875  return keccak256(abi.encodePacked(\"\\x19Ethereum Signed Message:\\n32\", hash)) */\n      swap1\n      pop\n        /* \"contracts/demo/ReceiverPays.sol\":1724:1883  function prefixed(bytes32 hash) internal pure returns (bytes32) {\r... */\n      swap2\n      swap1\n      pop\n      jump\t// out\n        /* \"contracts/demo/ReceiverPays.sol\":1404:1645  function recoverSigner(bytes32 message, bytes memory sig)\r... */\n    tag_18:\n        /* \"contracts/demo/ReceiverPays.sol\":1512:1519  address */\n      0x00\n        /* \"contracts/demo/ReceiverPays.sol\":1538:1545  uint8 v */\n      dup1\n        /* \"contracts/demo/ReceiverPays.sol\":1547:1556  bytes32 r */\n      0x00\n        /* \"contracts/demo/ReceiverPays.sol\":1558:1567  bytes32 s */\n      dup1\n        /* \"contracts/demo/ReceiverPays.sol\":1571:1590  splitSignature(sig) */\n      tag_28\n        /* \"contracts/demo/ReceiverPays.sol\":1586:1589  sig */\n      dup6\n        /* \"contracts/demo/ReceiverPays.sol\":1571:1585  splitSignature */\n      tag_29\n        /* \"contracts/demo/ReceiverPays.sol\":1571:1590  splitSignature(sig) */\n      jump\t// in\n    tag_28:\n        /* \"contracts/demo/ReceiverPays.sol\":1537:1590  (uint8 v, bytes32 r, bytes32 s) = splitSignature(sig) */\n      swap3\n      pop\n      swap3\n      pop\n      swap3\n      pop\n        /* \"contracts/demo/ReceiverPays.sol\":1610:1637  ecrecover(message, v, r, s) */\n      0x01\n        /* \"contracts/demo/ReceiverPays.sol\":1620:1627  message */\n      dup7\n        /* \"contracts/demo/ReceiverPays.sol\":1629:1630  v */\n      dup5\n        /* \"contracts/demo/ReceiverPays.sol\":1632:1633  r */\n      dup5\n        /* \"contracts/demo/ReceiverPays.sol\":1635:1636  s */\n      dup5\n        /* \"contracts/demo/ReceiverPays.sol\":1610:1637  ecrecover(message, v, r, s) */\n      mload(0x40)\n      0x00\n      dup2\n      mstore\n      0x20\n      add\n      0x40\n      mstore\n      mload(0x40)\n      tag_30\n      swap5\n      swap4\n      swap3\n      swap2\n      swap1\n      tag_31\n      jump\t// in\n    tag_30:\n      0x20\n      mload(0x40)\n      0x20\n      dup2\n      sub\n      swap1\n      dup1\n      dup5\n      sub\n      swap1\n      dup6\n      gas\n      staticcall\n      iszero\n      dup1\n      iszero\n      tag_33\n      jumpi\n      returndatasize\n      0x00\n      dup1\n      returndatacopy\n      revert(0x00, returndatasize)\n    tag_33:\n      pop\n      pop\n      mload(add(not(0x1f), mload(0x40)))\n      swap8\n        /* \"contracts/demo/ReceiverPays.sol\":1404:1645  function recoverSigner(bytes32 message, bytes memory sig)\r... */\n      swap7\n      pop\n      pop\n      pop\n      pop\n      pop\n      pop\n      pop\n      jump\t// out\n        /* \"contracts/demo/ReceiverPays.sol\":865:1396  function splitSignature(bytes memory sig)\r... */\n    tag_29:\n        /* \"contracts/demo/ReceiverPays.sol\":957:964  uint8 v */\n      0x00\n        /* \"contracts/demo/ReceiverPays.sol\":966:975  bytes32 r */\n      dup1\n        /* \"contracts/demo/ReceiverPays.sol\":977:986  bytes32 s */\n      0x00\n        /* \"contracts/demo/ReceiverPays.sol\":1012:1015  sig */\n      dup4\n        /* \"contracts/demo/ReceiverPays.sol\":1012:1022  sig.length */\n      mload\n        /* \"contracts/demo/ReceiverPays.sol\":1026:1028  65 */\n      0x41\n        /* \"contracts/demo/ReceiverPays.sol\":1012:1028  sig.length == 65 */\n      eq\n        /* \"contracts/demo/ReceiverPays.sol\":1004:1029  require(sig.length == 65) */\n      tag_35\n      jumpi\n      0x00\n      dup1\n      revert\n    tag_35:\n      pop\n      pop\n      pop\n        /* \"contracts/demo/ReceiverPays.sol\":1144:1146  32 */\n      0x20\n        /* \"contracts/demo/ReceiverPays.sol\":1135:1147  add(sig, 32) */\n      dup2\n      add\n        /* \"contracts/demo/ReceiverPays.sol\":1129:1148  mload(add(sig, 32)) */\n      mload\n        /* \"contracts/demo/ReceiverPays.sol\":1219:1221  64 */\n      0x40\n        /* \"contracts/demo/ReceiverPays.sol\":1210:1222  add(sig, 64) */\n      dup3\n      add\n        /* \"contracts/demo/ReceiverPays.sol\":1204:1223  mload(add(sig, 64)) */\n      mload\n        /* \"contracts/demo/ReceiverPays.sol\":1344:1346  96 */\n      0x60\n        /* \"contracts/demo/ReceiverPays.sol\":1335:1347  add(sig, 96) */\n      swap1\n      swap3\n      add\n        /* \"contracts/demo/ReceiverPays.sol\":1329:1348  mload(add(sig, 96)) */\n      mload\n        /* \"contracts/demo/ReceiverPays.sol\":1326:1327  0 */\n      0x00\n        /* \"contracts/demo/ReceiverPays.sol\":1321:1349  byte(0, mload(add(sig, 96))) */\n      byte\n      swap3\n        /* \"contracts/demo/ReceiverPays.sol\":1129:1148  mload(add(sig, 32)) */\n      swap1\n      swap2\n        /* \"contracts/demo/ReceiverPays.sol\":1204:1223  mload(add(sig, 64)) */\n      swap1\n        /* \"contracts/demo/ReceiverPays.sol\":865:1396  function splitSignature(bytes memory sig)\r... */\n      jump\t// out\n        /* \"#utility.yul\":14:1107   */\n    tag_7:\n      0x00\n      dup1\n      0x00\n        /* \"#utility.yul\":169:171   */\n      0x60\n        /* \"#utility.yul\":157:166   */\n      dup5\n        /* \"#utility.yul\":148:155   */\n      dup7\n        /* \"#utility.yul\":144:167   */\n      sub\n        /* \"#utility.yul\":140:172   */\n      slt\n        /* \"#utility.yul\":137:139   */\n      iszero\n      tag_38\n      jumpi\n        /* \"#utility.yul\":190:196   */\n      dup3\n        /* \"#utility.yul\":182:188   */\n      dup4\n        /* \"#utility.yul\":175:197   */\n      revert\n        /* \"#utility.yul\":137:139   */\n    tag_38:\n        /* \"#utility.yul\":231:240   */\n      dup4\n        /* \"#utility.yul\":218:241   */\n      calldataload\n        /* \"#utility.yul\":208:241   */\n      swap3\n      pop\n        /* \"#utility.yul\":260:262   */\n      0x20\n        /* \"#utility.yul\":309:311   */\n      dup1\n        /* \"#utility.yul\":298:307   */\n      dup6\n        /* \"#utility.yul\":294:312   */\n      add\n        /* \"#utility.yul\":281:313   */\n      calldataload\n        /* \"#utility.yul\":271:313   */\n      swap3\n      pop\n        /* \"#utility.yul\":364:366   */\n      0x40\n        /* \"#utility.yul\":353:362   */\n      dup6\n        /* \"#utility.yul\":349:367   */\n      add\n        /* \"#utility.yul\":336:368   */\n      calldataload\n        /* \"#utility.yul\":387:405   */\n      0xffffffffffffffff\n        /* \"#utility.yul\":428:430   */\n      dup1\n        /* \"#utility.yul\":420:426   */\n      dup3\n        /* \"#utility.yul\":417:431   */\n      gt\n        /* \"#utility.yul\":414:416   */\n      iszero\n      tag_39\n      jumpi\n        /* \"#utility.yul\":449:455   */\n      dup4\n        /* \"#utility.yul\":441:447   */\n      dup5\n        /* \"#utility.yul\":434:456   */\n      revert\n        /* \"#utility.yul\":414:416   */\n    tag_39:\n        /* \"#utility.yul\":492:498   */\n      dup2\n        /* \"#utility.yul\":481:490   */\n      dup8\n        /* \"#utility.yul\":477:499   */\n      add\n        /* \"#utility.yul\":467:499   */\n      swap2\n      pop\n        /* \"#utility.yul\":537:544   */\n      dup8\n        /* \"#utility.yul\":530:534   */\n      0x1f\n        /* \"#utility.yul\":526:528   */\n      dup4\n        /* \"#utility.yul\":522:535   */\n      add\n        /* \"#utility.yul\":518:545   */\n      slt\n        /* \"#utility.yul\":508:510   */\n      tag_40\n      jumpi\n        /* \"#utility.yul\":564:570   */\n      dup4\n        /* \"#utility.yul\":556:562   */\n      dup5\n        /* \"#utility.yul\":549:571   */\n      revert\n        /* \"#utility.yul\":508:510   */\n    tag_40:\n        /* \"#utility.yul\":605:607   */\n      dup2\n        /* \"#utility.yul\":592:608   */\n      calldataload\n        /* \"#utility.yul\":627:629   */\n      dup2\n        /* \"#utility.yul\":623:625   */\n      dup2\n        /* \"#utility.yul\":620:630   */\n      gt\n        /* \"#utility.yul\":617:619   */\n      iszero\n      tag_42\n      jumpi\n        /* \"#utility.yul\":633:651   */\n      tag_42\n      tag_43\n      jump\t// in\n    tag_42:\n        /* \"#utility.yul\":682:684   */\n      0x40\n        /* \"#utility.yul\":676:685   */\n      mload\n        /* \"#utility.yul\":751:753   */\n      0x1f\n        /* \"#utility.yul\":732:745   */\n      dup3\n      add\n      not(0x1f)\n        /* \"#utility.yul\":728:755   */\n      and\n        /* \"#utility.yul\":716:756   */\n      dup2\n      add\n        /* \"#utility.yul\":712:761   */\n      dup6\n      add\n        /* \"#utility.yul\":776:794   */\n      dup4\n      dup2\n      gt\n        /* \"#utility.yul\":796:818   */\n      dup3\n      dup3\n      lt\n        /* \"#utility.yul\":773:819   */\n      or\n        /* \"#utility.yul\":770:772   */\n      iszero\n      tag_45\n      jumpi\n        /* \"#utility.yul\":822:840   */\n      tag_45\n      tag_43\n      jump\t// in\n    tag_45:\n        /* \"#utility.yul\":858:860   */\n      0x40\n        /* \"#utility.yul\":851:873   */\n      mstore\n        /* \"#utility.yul\":882:900   */\n      dup2\n      dup2\n      mstore\n        /* \"#utility.yul\":919:930   */\n      dup4\n      dup3\n      add\n        /* \"#utility.yul\":915:935   */\n      dup6\n      add\n        /* \"#utility.yul\":912:945   */\n      dup11\n      lt\n        /* \"#utility.yul\":909:911   */\n      iszero\n      tag_46\n      jumpi\n        /* \"#utility.yul\":963:969   */\n      dup6\n        /* \"#utility.yul\":955:961   */\n      dup7\n        /* \"#utility.yul\":948:970   */\n      revert\n        /* \"#utility.yul\":909:911   */\n    tag_46:\n        /* \"#utility.yul\":1024:1026   */\n      dup2\n        /* \"#utility.yul\":1019:1021   */\n      dup6\n        /* \"#utility.yul\":1015:1017   */\n      dup6\n        /* \"#utility.yul\":1011:1022   */\n      add\n        /* \"#utility.yul\":1006:1008   */\n      dup7\n        /* \"#utility.yul\":998:1004   */\n      dup4\n        /* \"#utility.yul\":994:1009   */\n      add\n        /* \"#utility.yul\":981:1027   */\n      calldatacopy\n        /* \"#utility.yul\":1069:1075   */\n      dup6\n        /* \"#utility.yul\":1064:1066   */\n      dup6\n        /* \"#utility.yul\":1059:1061   */\n      dup4\n        /* \"#utility.yul\":1051:1057   */\n      dup4\n        /* \"#utility.yul\":1047:1062   */\n      add\n        /* \"#utility.yul\":1043:1067   */\n      add\n        /* \"#utility.yul\":1036:1076   */\n      mstore\n        /* \"#utility.yul\":1095:1101   */\n      dup1\n        /* \"#utility.yul\":1085:1101   */\n      swap6\n      pop\n      pop\n      pop\n      pop\n      pop\n      pop\n        /* \"#utility.yul\":127:1107   */\n      swap3\n      pop\n      swap3\n      pop\n      swap3\n      jump\t// out\n        /* \"#utility.yul\":1112:1596   */\n    tag_15:\n      not(0xffffffffffffffffffffffff)\n        /* \"#utility.yul\":1415:1417   */\n      0x60\n        /* \"#utility.yul\":1411:1426   */\n      swap6\n      dup7\n      shl\n        /* \"#utility.yul\":1407:1431   */\n      dup2\n      and\n        /* \"#utility.yul\":1395:1432   */\n      dup3\n      mstore\n        /* \"#utility.yul\":1457:1459   */\n      0x14\n        /* \"#utility.yul\":1448:1460   */\n      dup3\n      add\n        /* \"#utility.yul\":1441:1469   */\n      swap5\n      swap1\n      swap5\n      mstore\n        /* \"#utility.yul\":1494:1496   */\n      0x34\n        /* \"#utility.yul\":1485:1497   */\n      dup2\n      add\n        /* \"#utility.yul\":1478:1506   */\n      swap3\n      swap1\n      swap3\n      mstore\n        /* \"#utility.yul\":1540:1555   */\n      swap1\n      swap3\n      shl\n        /* \"#utility.yul\":1536:1560   */\n      and\n        /* \"#utility.yul\":1531:1533   */\n      0x54\n        /* \"#utility.yul\":1522:1534   */\n      dup3\n      add\n        /* \"#utility.yul\":1515:1561   */\n      mstore\n        /* \"#utility.yul\":1586:1589   */\n      0x68\n        /* \"#utility.yul\":1577:1590   */\n      add\n      swap1\n        /* \"#utility.yul\":1335:1596   */\n      jump\t// out\n        /* \"#utility.yul\":1601:1981   */\n    tag_26:\n        /* \"#utility.yul\":1843:1909   */\n      0x19457468657265756d205369676e6564204d6573736167653a0a333200000000\n        /* \"#utility.yul\":1831:1910   */\n      dup2\n      mstore\n        /* \"#utility.yul\":1935:1937   */\n      0x1c\n        /* \"#utility.yul\":1926:1938   */\n      dup2\n      add\n        /* \"#utility.yul\":1919:1947   */\n      swap2\n      swap1\n      swap2\n      mstore\n        /* \"#utility.yul\":1972:1974   */\n      0x3c\n        /* \"#utility.yul\":1963:1975   */\n      add\n      swap1\n        /* \"#utility.yul\":1821:1981   */\n      jump\t// out\n        /* \"#utility.yul\":1986:2384   */\n    tag_31:\n        /* \"#utility.yul\":2213:2238   */\n      swap4\n      dup5\n      mstore\n        /* \"#utility.yul\":2286:2290   */\n      0xff\n        /* \"#utility.yul\":2274:2291   */\n      swap3\n      swap1\n      swap3\n      and\n        /* \"#utility.yul\":2269:2271   */\n      0x20\n        /* \"#utility.yul\":2254:2272   */\n      dup5\n      add\n        /* \"#utility.yul\":2247:2292   */\n      mstore\n        /* \"#utility.yul\":2323:2325   */\n      0x40\n        /* \"#utility.yul\":2308:2326   */\n      dup4\n      add\n        /* \"#utility.yul\":2301:2335   */\n      mstore\n        /* \"#utility.yul\":2366:2368   */\n      0x60\n        /* \"#utility.yul\":2351:2369   */\n      dup3\n      add\n        /* \"#utility.yul\":2344:2378   */\n      mstore\n        /* \"#utility.yul\":2200:2203   */\n      0x80\n        /* \"#utility.yul\":2185:2204   */\n      add\n      swap1\n        /* \"#utility.yul\":2167:2384   */\n      jump\t// out\n        /* \"#utility.yul\":2389:2516   */\n    tag_43:\n        /* \"#utility.yul\":2450:2460   */\n      0x4e487b71\n        /* \"#utility.yul\":2445:2448   */\n      0xe0\n        /* \"#utility.yul\":2441:2461   */\n      shl\n        /* \"#utility.yul\":2438:2439   */\n      0x00\n        /* \"#utility.yul\":2431:2462   */\n      mstore\n        /* \"#utility.yul\":2481:2485   */\n      0x41\n        /* \"#utility.yul\":2478:2479   */\n      0x04\n        /* \"#utility.yul\":2471:2486   */\n      mstore\n        /* \"#utility.yul\":2505:2509   */\n      0x24\n        /* \"#utility.yul\":2502:2503   */\n      0x00\n        /* \"#utility.yul\":2495:2510   */\n      revert\n\n    auxdata: 0xa26469706673582212204e336bfe7c3cf5a1cb984713d081195676fdf215e796380e3654cfac6e9f206864736f6c63430008000033\n}\n",
				"bytecode": {
					"linkReferences": {},
					"object": "6080604052600080546001600160a01b03191633179055610393806100256000396000f3fe608060405234801561001057600080fd5b50600436106100365760003560e01c8063a90ae8871461003b578063fc0e74d114610050575b600080fd5b61004e61004936600461020c565b610058565b005b61004e610124565b60008281526001602052604090205460ff161561007457600080fd5b6000828152600160208181526040808420805460ff191690931790925590516100c4916100a9913391889188913091016102c2565b6040516020818303038152906040528051906020012061013e565b6000549091506001600160a01b03166100dd828461016e565b6001600160a01b0316146100f057600080fd5b604051339085156108fc029086906000818181858888f1935050505015801561011d573d6000803e3d6000fd5b5050505050565b6000546001600160a01b0316331461013b57600080fd5b33ff5b60008160405160200161015191906102f8565b604051602081830303815290604052805190602001209050919050565b60008060008061017d856101dd565b925092509250600186848484604051600081526020016040526040516101a69493929190610329565b6020604051602081039080840390855afa1580156101c8573d6000803e3d6000fd5b5050604051601f190151979650505050505050565b600080600083516041146101f057600080fd5b5050506020810151604082015160609092015160001a92909190565b600080600060608486031215610220578283fd5b833592506020808501359250604085013567ffffffffffffffff80821115610246578384fd5b818701915087601f830112610259578384fd5b81358181111561026b5761026b610347565b604051601f8201601f191681018501838111828210171561028e5761028e610347565b60405281815283820185018a10156102a4578586fd5b81858501868301378585838301015280955050505050509250925092565b6bffffffffffffffffffffffff19606095861b811682526014820194909452603481019290925290921b16605482015260680190565b7f19457468657265756d205369676e6564204d6573736167653a0a3332000000008152601c810191909152603c0190565b93845260ff9290921660208401526040830152606082015260800190565b634e487b7160e01b600052604160045260246000fdfea26469706673582212204e336bfe7c3cf5a1cb984713d081195676fdf215e796380e3654cfac6e9f206864736f6c63430008000033",
					"opcodes": "PUSH1 0x80 PUSH1 0x40 MSTORE PUSH1 0x0 DUP1 SLOAD PUSH1 0x1 PUSH1 0x1 PUSH1 0xA0 SHL SUB NOT AND CALLER OR SWAP1 SSTORE PUSH2 0x393 DUP1 PUSH2 0x25 PUSH1 0x0 CODECOPY PUSH1 0x0 RETURN INVALID PUSH1 0x80 PUSH1 0x40 MSTORE CALLVALUE DUP1 ISZERO PUSH2 0x10 JUMPI PUSH1 0x0 DUP1 REVERT JUMPDEST POP PUSH1 0x4 CALLDATASIZE LT PUSH2 0x36 JUMPI PUSH1 0x0 CALLDATALOAD PUSH1 0xE0 SHR DUP1 PUSH4 0xA90AE887 EQ PUSH2 0x3B JUMPI DUP1 PUSH4 0xFC0E74D1 EQ PUSH2 0x50 JUMPI JUMPDEST PUSH1 0x0 DUP1 REVERT JUMPDEST PUSH2 0x4E PUSH2 0x49 CALLDATASIZE PUSH1 0x4 PUSH2 0x20C JUMP JUMPDEST PUSH2 0x58 JUMP JUMPDEST STOP JUMPDEST PUSH2 0x4E PUSH2 0x124 JUMP JUMPDEST PUSH1 0x0 DUP3 DUP2 MSTORE PUSH1 0x1 PUSH1 0x20 MSTORE PUSH1 0x40 SWAP1 KECCAK256 SLOAD PUSH1 0xFF AND ISZERO PUSH2 0x74 JUMPI PUSH1 0x0 DUP1 REVERT JUMPDEST PUSH1 0x0 DUP3 DUP2 MSTORE PUSH1 0x1 PUSH1 0x20 DUP2 DUP2 MSTORE PUSH1 0x40 DUP1 DUP5 KECCAK256 DUP1 SLOAD PUSH1 0xFF NOT AND SWAP1 SWAP4 OR SWAP1 SWAP3 SSTORE SWAP1 MLOAD PUSH2 0xC4 SWAP2 PUSH2 0xA9 SWAP2 CALLER SWAP2 DUP9 SWAP2 DUP9 SWAP2 ADDRESS SWAP2 ADD PUSH2 0x2C2 JUMP JUMPDEST PUSH1 0x40 MLOAD PUSH1 0x20 DUP2 DUP4 SUB SUB DUP2 MSTORE SWAP1 PUSH1 0x40 MSTORE DUP1 MLOAD SWAP1 PUSH1 0x20 ADD KECCAK256 PUSH2 0x13E JUMP JUMPDEST PUSH1 0x0 SLOAD SWAP1 SWAP2 POP PUSH1 0x1 PUSH1 0x1 PUSH1 0xA0 SHL SUB AND PUSH2 0xDD DUP3 DUP5 PUSH2 0x16E JUMP JUMPDEST PUSH1 0x1 PUSH1 0x1 PUSH1 0xA0 SHL SUB AND EQ PUSH2 0xF0 JUMPI PUSH1 0x0 DUP1 REVERT JUMPDEST PUSH1 0x40 MLOAD CALLER SWAP1 DUP6 ISZERO PUSH2 0x8FC MUL SWAP1 DUP7 SWAP1 PUSH1 0x0 DUP2 DUP2 DUP2 DUP6 DUP9 DUP9 CALL SWAP4 POP POP POP POP ISZERO DUP1 ISZERO PUSH2 0x11D JUMPI RETURNDATASIZE PUSH1 0x0 DUP1 RETURNDATACOPY RETURNDATASIZE PUSH1 0x0 REVERT JUMPDEST POP POP POP POP POP JUMP JUMPDEST PUSH1 0x0 SLOAD PUSH1 0x1 PUSH1 0x1 PUSH1 0xA0 SHL SUB AND CALLER EQ PUSH2 0x13B JUMPI PUSH1 0x0 DUP1 REVERT JUMPDEST CALLER SELFDESTRUCT JUMPDEST PUSH1 0x0 DUP2 PUSH1 0x40 MLOAD PUSH1 0x20 ADD PUSH2 0x151 SWAP2 SWAP1 PUSH2 0x2F8 JUMP JUMPDEST PUSH1 0x40 MLOAD PUSH1 0x20 DUP2 DUP4 SUB SUB DUP2 MSTORE SWAP1 PUSH1 0x40 MSTORE DUP1 MLOAD SWAP1 PUSH1 0x20 ADD KECCAK256 SWAP1 POP SWAP2 SWAP1 POP JUMP JUMPDEST PUSH1 0x0 DUP1 PUSH1 0x0 DUP1 PUSH2 0x17D DUP6 PUSH2 0x1DD JUMP JUMPDEST SWAP3 POP SWAP3 POP SWAP3 POP PUSH1 0x1 DUP7 DUP5 DUP5 DUP5 PUSH1 0x40 MLOAD PUSH1 0x0 DUP2 MSTORE PUSH1 0x20 ADD PUSH1 0x40 MSTORE PUSH1 0x40 MLOAD PUSH2 0x1A6 SWAP5 SWAP4 SWAP3 SWAP2 SWAP1 PUSH2 0x329 JUMP JUMPDEST PUSH1 0x20 PUSH1 0x40 MLOAD PUSH1 0x20 DUP2 SUB SWAP1 DUP1 DUP5 SUB SWAP1 DUP6 GAS STATICCALL ISZERO DUP1 ISZERO PUSH2 0x1C8 JUMPI RETURNDATASIZE PUSH1 0x0 DUP1 RETURNDATACOPY RETURNDATASIZE PUSH1 0x0 REVERT JUMPDEST POP POP PUSH1 0x40 MLOAD PUSH1 0x1F NOT ADD MLOAD SWAP8 SWAP7 POP POP POP POP POP POP POP JUMP JUMPDEST PUSH1 0x0 DUP1 PUSH1 0x0 DUP4 MLOAD PUSH1 0x41 EQ PUSH2 0x1F0 JUMPI PUSH1 0x0 DUP1 REVERT JUMPDEST POP POP POP PUSH1 0x20 DUP2 ADD MLOAD PUSH1 0x40 DUP3 ADD MLOAD PUSH1 0x60 SWAP1 SWAP3 ADD MLOAD PUSH1 0x0 BYTE SWAP3 SWAP1 SWAP2 SWAP1 JUMP JUMPDEST PUSH1 0x0 DUP1 PUSH1 0x0 PUSH1 0x60 DUP5 DUP7 SUB SLT ISZERO PUSH2 0x220 JUMPI DUP3 DUP4 REVERT JUMPDEST DUP4 CALLDATALOAD SWAP3 POP PUSH1 0x20 DUP1 DUP6 ADD CALLDATALOAD SWAP3 POP PUSH1 0x40 DUP6 ADD CALLDATALOAD PUSH8 0xFFFFFFFFFFFFFFFF DUP1 DUP3 GT ISZERO PUSH2 0x246 JUMPI DUP4 DUP5 REVERT JUMPDEST DUP2 DUP8 ADD SWAP2 POP DUP8 PUSH1 0x1F DUP4 ADD SLT PUSH2 0x259 JUMPI DUP4 DUP5 REVERT JUMPDEST DUP2 CALLDATALOAD DUP2 DUP2 GT ISZERO PUSH2 0x26B JUMPI PUSH2 0x26B PUSH2 0x347 JUMP JUMPDEST PUSH1 0x40 MLOAD PUSH1 0x1F DUP3 ADD PUSH1 0x1F NOT AND DUP2 ADD DUP6 ADD DUP4 DUP2 GT DUP3 DUP3 LT OR ISZERO PUSH2 0x28E JUMPI PUSH2 0x28E PUSH2 0x347 JUMP JUMPDEST PUSH1 0x40 MSTORE DUP2 DUP2 MSTORE DUP4 DUP3 ADD DUP6 ADD DUP11 LT ISZERO PUSH2 0x2A4 JUMPI DUP6 DUP7 REVERT JUMPDEST DUP2 DUP6 DUP6 ADD DUP7 DUP4 ADD CALLDATACOPY DUP6 DUP6 DUP4 DUP4 ADD ADD MSTORE DUP1 SWAP6 POP POP POP POP POP POP SWAP3 POP SWAP3 POP SWAP3 JUMP JUMPDEST PUSH12 0xFFFFFFFFFFFFFFFFFFFFFFFF NOT PUSH1 0x60 SWAP6 DUP7 SHL DUP2 AND DUP3 MSTORE PUSH1 0x14 DUP3 ADD SWAP5 SWAP1 SWAP5 MSTORE PUSH1 0x34 DUP2 ADD SWAP3 SWAP1 SWAP3 MSTORE SWAP1 SWAP3 SHL AND PUSH1 0x54 DUP3 ADD MSTORE PUSH1 0x68 ADD SWAP1 JUMP JUMPDEST PUSH32 0x19457468657265756D205369676E6564204D6573736167653A0A333200000000 DUP2 MSTORE PUSH1 0x1C DUP2 ADD SWAP2 SWAP1 SWAP2 MSTORE PUSH1 0x3C ADD SWAP1 JUMP JUMPDEST SWAP4 DUP5 MSTORE PUSH1 0xFF SWAP3 SWAP1 SWAP3 AND PUSH1 0x20 DUP5 ADD MSTORE PUSH1 0x40 DUP4 ADD MSTORE PUSH1 0x60 DUP3 ADD MSTORE PUSH1 0x80 ADD SWAP1 JUMP JUMPDEST PUSH4 0x4E487B71 PUSH1 0xE0 SHL PUSH1 0x0 MSTORE PUSH1 0x41 PUSH1 0x4 MSTORE PUSH1 0x24 PUSH1 0x0 REVERT INVALID LOG2 PUSH5 0x6970667358 0x22 SLT KECCAK256 0x4E CALLER PUSH12 0xFE7C3CF5A1CB984713D08119 JUMP PUSH23 0xFDF215E796380E3654CFAC6E9F206864736F6C63430008 STOP STOP CALLER "
				},
				"gasEstimates": {
					"creation": {
						"codeDepositCost": "183000",
						"executionCost": "21037",
						"totalCost": "204037"
					},
					"external": {
						"claimPayment(uint256,uint256,bytes)": "infinite",
						"shutdown()": "30977"
					},
					"internal": {
						"prefixed(bytes32)": "infinite",
						"recoverSigner(bytes32,bytes memory)": "infinite",
						"splitSignature(bytes memory)": "infinite"
					}
				},
				"methodIdentifiers": {
					"claimPayment(uint256,uint256,bytes)": "a90ae887",
					"shutdown()": "fc0e74d1"
				}
			},
			"storageLayout": {
				"storage": [
					{
						"astId": 5,
						"contract": "contracts/demo/ReceiverPays.sol:ReceiverPays",
						"label": "owner",
						"offset": 0,
						"slot": "0",
						"type": "t_address"
					},
					{
						"astId": 9,
						"contract": "contracts/demo/ReceiverPays.sol:ReceiverPays",
						"label": "usedNonces",
						"offset": 0,
						"slot": "1",
						"type": "t_mapping(t_uint256,t_bool)"
					}
				],
				"types": {
					"t_address": {
						"encoding": "inplace",
						"label": "address",
						"numberOfBytes": "20"
					},
					"t_bool": {
						"encoding": "inplace",
						"label": "bool",
						"numberOfBytes": "1"
					},
					"t_mapping(t_uint256,t_bool)": {
						"encoding": "mapping",
						"key": "t_uint256",
						"label": "mapping(uint256 => bool)",
						"numberOfBytes": "32",
						"value": "t_bool"
					},
					"t_uint256": {
						"encoding": "inplace",
						"label": "uint256",
						"numberOfBytes": "32"
					}
				}
			},
			"userdoc": {
				"kind": "user",
				"methods": {
					"shutdown()": {
						"notice": "销毁合约并收回剩余的资金。"
					}
				},
				"version": 1
			}
		}
	}
}