{
	"contracts/demo/abi.sol": {
		"ABICoder": {
			"abi": [
				{
					"inputs": [
						{
							"internalType": "bytes",
							"name": "data",
							"type": "bytes"
						}
					],
					"name": "decodeData",
					"outputs": [
						{
							"internalType": "uint256",
							"name": "",
							"type": "uint256"
						},
						{
							"internalType": "address",
							"name": "",
							"type": "address"
						},
						{
							"internalType": "uint256[]",
							"name": "",
							"type": "uint256[]"
						},
						{
							"components": [
								{
									"internalType": "string",
									"name": "name",
									"type": "string"
								},
								{
									"internalType": "uint256[2]",
									"name": "numbers",
									"type": "uint256[2]"
								}
							],
							"internalType": "struct ABICoder.MyStruct",
							"name": "",
							"type": "tuple"
						}
					],
					"stateMutability": "pure",
					"type": "function"
				},
				{
					"inputs": [
						{
							"internalType": "uint256",
							"name": "x",
							"type": "uint256"
						},
						{
							"internalType": "address",
							"name": "addr",
							"type": "address"
						},
						{
							"internalType": "uint256[]",
							"name": "r",
							"type": "uint256[]"
						},
						{
							"components": [
								{
									"internalType": "string",
									"name": "name",
									"type": "string"
								},
								{
									"internalType": "uint256[2]",
									"name": "numbers",
									"type": "uint256[2]"
								}
							],
							"internalType": "struct ABICoder.MyStruct",
							"name": "myStruct",
							"type": "tuple"
						}
					],
					"name": "encodeData",
					"outputs": [
						{
							"internalType": "bytes",
							"name": "",
							"type": "bytes"
						}
					],
					"stateMutability": "pure",
					"type": "function"
				},
				{
					"inputs": [],
					"name": "encodeWithSignature",
					"outputs": [
						{
							"internalType": "bytes",
							"name": "",
							"type": "bytes"
						}
					],
					"stateMutability": "pure",
					"type": "function"
				}
			],
			"devdoc": {
				"kind": "dev",
				"methods": {},
				"version": 1
			},
			"evm": {
				"assembly": "    /* \"contracts/demo/abi.sol\":231:1238  contract ABICoder {... */\n  mstore(0x40, 0x80)\n  callvalue\n  dup1\n  iszero\n  tag_1\n  jumpi\n  0x00\n  dup1\n  revert\ntag_1:\n  pop\n  dataSize(sub_0)\n  dup1\n  dataOffset(sub_0)\n  0x00\n  codecopy\n  0x00\n  return\nstop\n\nsub_0: assembly {\n        /* \"contracts/demo/abi.sol\":231:1238  contract ABICoder {... */\n      mstore(0x40, 0x80)\n      callvalue\n      dup1\n      iszero\n      tag_1\n      jumpi\n      0x00\n      dup1\n      revert\n    tag_1:\n      pop\n      jumpi(tag_2, lt(calldatasize, 0x04))\n      shr(0xe0, calldataload(0x00))\n      dup1\n      0x447a06f5\n      eq\n      tag_3\n      jumpi\n      dup1\n      0x985f36f4\n      eq\n      tag_4\n      jumpi\n      dup1\n      0xe4f2a84a\n      eq\n      tag_5\n      jumpi\n    tag_2:\n      0x00\n      dup1\n      revert\n        /* \"contracts/demo/abi.sol\":634:1095  function decodeData(bytes memory data)... */\n    tag_3:\n      tag_6\n      tag_7\n      calldatasize\n      0x04\n      tag_8\n      jump\t// in\n    tag_7:\n      tag_9\n      jump\t// in\n    tag_6:\n      mload(0x40)\n      tag_10\n      swap5\n      swap4\n      swap3\n      swap2\n      swap1\n      tag_11\n      jump\t// in\n    tag_10:\n      mload(0x40)\n      dup1\n      swap2\n      sub\n      swap1\n      return\n        /* \"contracts/demo/abi.sol\":369:596  function encodeData(... */\n    tag_4:\n      tag_12\n      tag_13\n      calldatasize\n      0x04\n      tag_14\n      jump\t// in\n    tag_13:\n      tag_15\n      jump\t// in\n    tag_12:\n      mload(0x40)\n      tag_10\n      swap2\n      swap1\n      tag_17\n      jump\t// in\n        /* \"contracts/demo/abi.sol\":1103:1229  function encodeWithSignature() external pure returns (bytes memory) {... */\n    tag_5:\n      tag_12\n        /* \"contracts/demo/abi.sol\":1189:1221  abi.encodeWithSignature(\"inc()\") */\n      0x40\n      dup1\n      mload\n      0x04\n      dup2\n      mstore\n      0x24\n      dup2\n      add\n      swap1\n      swap2\n      mstore\n      0x20\n      dup2\n      add\n      dup1\n      mload\n      sub(shl(0xe0, 0x01), 0x01)\n      and\n      shl(0xe6, 0xdc4c0f)\n      or\n      swap1\n      mstore\n      swap1\n        /* \"contracts/demo/abi.sol\":1103:1229  function encodeWithSignature() external pure returns (bytes memory) {... */\n      jump\n        /* \"contracts/demo/abi.sol\":634:1095  function decodeData(bytes memory data)... */\n    tag_9:\n        /* \"contracts/demo/abi.sol\":735:742  uint256 */\n      0x00\n        /* \"contracts/demo/abi.sol\":757:764  address */\n      dup1\n        /* \"contracts/demo/abi.sol\":779:795  uint256[] memory */\n      0x60\n        /* \"contracts/demo/abi.sol\":810:825  MyStruct memory */\n      tag_21\n      tag_22\n      jump\t// in\n    tag_21:\n        /* \"contracts/demo/abi.sol\":868:877  uint256 x */\n      0x00\n        /* \"contracts/demo/abi.sol\":892:904  address addr */\n      dup1\n        /* \"contracts/demo/abi.sol\":919:937  uint256[] memory r */\n      0x00\n        /* \"contracts/demo/abi.sol\":952:976  MyStruct memory myStruct */\n      dup1\n        /* \"contracts/demo/abi.sol\":1001:1005  data */\n      dup9\n        /* \"contracts/demo/abi.sol\":990:1047  abi.decode(data, (uint256, address, uint256[], MyStruct)) */\n      dup1\n      0x20\n      add\n      swap1\n      mload\n      dup2\n      add\n      swap1\n      tag_24\n      swap2\n      swap1\n      tag_25\n      jump\t// in\n    tag_24:\n        /* \"contracts/demo/abi.sol\":853:1047  (... */\n      swap3\n      swap13\n      swap2\n      swap12\n      pop\n      swap10\n      pop\n      swap1\n      swap8\n      pop\n        /* \"contracts/demo/abi.sol\":634:1095  function decodeData(bytes memory data)... */\n      swap6\n      pop\n      pop\n      pop\n      pop\n      pop\n      pop\n      jump\t// out\n        /* \"contracts/demo/abi.sol\":369:596  function encodeData(... */\n    tag_15:\n        /* \"contracts/demo/abi.sol\":524:536  bytes memory */\n      0x60\n        /* \"contracts/demo/abi.sol\":567:568  x */\n      dup5\n        /* \"contracts/demo/abi.sol\":570:574  addr */\n      dup5\n        /* \"contracts/demo/abi.sol\":576:577  r */\n      dup5\n        /* \"contracts/demo/abi.sol\":579:587  myStruct */\n      dup5\n        /* \"contracts/demo/abi.sol\":556:588  abi.encode(x, addr, r, myStruct) */\n      add(0x20, mload(0x40))\n      tag_27\n      swap5\n      swap4\n      swap3\n      swap2\n      swap1\n      tag_11\n      jump\t// in\n    tag_27:\n      mload(0x40)\n      0x20\n      dup2\n      dup4\n      sub\n      sub\n      dup2\n      mstore\n      swap1\n      0x40\n      mstore\n        /* \"contracts/demo/abi.sol\":549:588  return abi.encode(x, addr, r, myStruct) */\n      swap1\n      pop\n        /* \"contracts/demo/abi.sol\":369:596  function encodeData(... */\n      swap5\n      swap4\n      pop\n      pop\n      pop\n      pop\n      jump\t// out\n    tag_22:\n      mload(0x40)\n      dup1\n      0x40\n      add\n      0x40\n      mstore\n      dup1\n      0x60\n      dup2\n      mstore\n      0x20\n      add\n      tag_29\n      tag_30\n      jump\t// in\n    tag_29:\n      swap1\n      mstore\n      swap1\n      jump\t// out\n    tag_30:\n      mload(0x40)\n      dup1\n      0x40\n      add\n      0x40\n      mstore\n      dup1\n      0x02\n      swap1\n      0x20\n      dup3\n      mul\n      dup1\n      calldatasize\n      dup4\n      calldatacopy\n      pop\n      swap2\n      swap3\n      swap2\n      pop\n      pop\n      jump\t// out\n        /* \"#utility.yul\":14:141   */\n    tag_31:\n        /* \"#utility.yul\":75:85   */\n      0x4e487b71\n        /* \"#utility.yul\":70:73   */\n      0xe0\n        /* \"#utility.yul\":66:86   */\n      shl\n        /* \"#utility.yul\":63:64   */\n      0x00\n        /* \"#utility.yul\":56:87   */\n      mstore\n        /* \"#utility.yul\":106:110   */\n      0x41\n        /* \"#utility.yul\":103:104   */\n      0x04\n        /* \"#utility.yul\":96:111   */\n      mstore\n        /* \"#utility.yul\":130:134   */\n      0x24\n        /* \"#utility.yul\":127:128   */\n      0x00\n        /* \"#utility.yul\":120:135   */\n      revert\n        /* \"#utility.yul\":146:403   */\n    tag_32:\n        /* \"#utility.yul\":218:222   */\n      0x40\n        /* \"#utility.yul\":212:223   */\n      dup1\n      mload\n      swap1\n        /* \"#utility.yul\":250:267   */\n      dup2\n      add\n        /* \"#utility.yul\":297:315   */\n      0xffffffffffffffff\n        /* \"#utility.yul\":282:316   */\n      dup2\n      gt\n        /* \"#utility.yul\":318:340   */\n      dup3\n      dup3\n      lt\n        /* \"#utility.yul\":279:341   */\n      or\n        /* \"#utility.yul\":276:364   */\n      iszero\n      tag_45\n      jumpi\n        /* \"#utility.yul\":344:362   */\n      tag_45\n      tag_31\n      jump\t// in\n    tag_45:\n        /* \"#utility.yul\":380:384   */\n      0x40\n        /* \"#utility.yul\":373:397   */\n      mstore\n        /* \"#utility.yul\":146:403   */\n      swap1\n      jump\t// out\n        /* \"#utility.yul\":408:683   */\n    tag_33:\n        /* \"#utility.yul\":479:481   */\n      0x40\n        /* \"#utility.yul\":473:482   */\n      mload\n        /* \"#utility.yul\":544:546   */\n      0x1f\n        /* \"#utility.yul\":525:538   */\n      dup3\n      add\n      not(0x1f)\n        /* \"#utility.yul\":521:548   */\n      and\n        /* \"#utility.yul\":509:549   */\n      dup2\n      add\n        /* \"#utility.yul\":579:597   */\n      0xffffffffffffffff\n        /* \"#utility.yul\":564:598   */\n      dup2\n      gt\n        /* \"#utility.yul\":600:622   */\n      dup3\n      dup3\n      lt\n        /* \"#utility.yul\":561:623   */\n      or\n        /* \"#utility.yul\":558:646   */\n      iszero\n      tag_48\n      jumpi\n        /* \"#utility.yul\":626:644   */\n      tag_48\n      tag_31\n      jump\t// in\n    tag_48:\n        /* \"#utility.yul\":662:664   */\n      0x40\n        /* \"#utility.yul\":655:677   */\n      mstore\n        /* \"#utility.yul\":408:683   */\n      swap2\n      swap1\n      pop\n      jump\t// out\n        /* \"#utility.yul\":688:874   */\n    tag_34:\n        /* \"#utility.yul\":736:740   */\n      0x00\n        /* \"#utility.yul\":769:787   */\n      0xffffffffffffffff\n        /* \"#utility.yul\":761:767   */\n      dup3\n        /* \"#utility.yul\":758:788   */\n      gt\n        /* \"#utility.yul\":755:811   */\n      iszero\n      tag_51\n      jumpi\n        /* \"#utility.yul\":791:809   */\n      tag_51\n      tag_31\n      jump\t// in\n    tag_51:\n      pop\n        /* \"#utility.yul\":857:859   */\n      0x1f\n        /* \"#utility.yul\":836:851   */\n      add\n      not(0x1f)\n        /* \"#utility.yul\":832:861   */\n      and\n        /* \"#utility.yul\":863:867   */\n      0x20\n        /* \"#utility.yul\":828:868   */\n      add\n      swap1\n        /* \"#utility.yul\":688:874   */\n      jump\t// out\n        /* \"#utility.yul\":879:1215   */\n    tag_35:\n        /* \"#utility.yul\":943:948   */\n      0x00\n        /* \"#utility.yul\":972:1024   */\n      tag_53\n        /* \"#utility.yul\":988:1023   */\n      tag_54\n        /* \"#utility.yul\":1016:1022   */\n      dup5\n        /* \"#utility.yul\":988:1023   */\n      tag_34\n      jump\t// in\n    tag_54:\n        /* \"#utility.yul\":972:1024   */\n      tag_33\n      jump\t// in\n    tag_53:\n        /* \"#utility.yul\":963:1024   */\n      swap1\n      pop\n        /* \"#utility.yul\":1047:1053   */\n      dup3\n        /* \"#utility.yul\":1040:1045   */\n      dup2\n        /* \"#utility.yul\":1033:1054   */\n      mstore\n        /* \"#utility.yul\":1087:1090   */\n      dup4\n        /* \"#utility.yul\":1078:1084   */\n      dup4\n        /* \"#utility.yul\":1073:1076   */\n      dup4\n        /* \"#utility.yul\":1069:1085   */\n      add\n        /* \"#utility.yul\":1066:1091   */\n      gt\n        /* \"#utility.yul\":1063:1108   */\n      iszero\n      tag_55\n      jumpi\n        /* \"#utility.yul\":1104:1105   */\n      0x00\n        /* \"#utility.yul\":1101:1102   */\n      dup1\n        /* \"#utility.yul\":1094:1106   */\n      revert\n        /* \"#utility.yul\":1063:1108   */\n    tag_55:\n        /* \"#utility.yul\":1153:1159   */\n      dup3\n        /* \"#utility.yul\":1148:1151   */\n      dup3\n        /* \"#utility.yul\":1141:1145   */\n      0x20\n        /* \"#utility.yul\":1134:1139   */\n      dup4\n        /* \"#utility.yul\":1130:1146   */\n      add\n        /* \"#utility.yul\":1117:1160   */\n      calldatacopy\n        /* \"#utility.yul\":1207:1208   */\n      0x00\n        /* \"#utility.yul\":1200:1204   */\n      0x20\n        /* \"#utility.yul\":1191:1197   */\n      dup5\n        /* \"#utility.yul\":1184:1189   */\n      dup4\n        /* \"#utility.yul\":1180:1198   */\n      add\n        /* \"#utility.yul\":1176:1205   */\n      add\n        /* \"#utility.yul\":1169:1209   */\n      mstore\n        /* \"#utility.yul\":879:1215   */\n      swap4\n      swap3\n      pop\n      pop\n      pop\n      jump\t// out\n        /* \"#utility.yul\":1220:1669   */\n    tag_8:\n        /* \"#utility.yul\":1288:1294   */\n      0x00\n        /* \"#utility.yul\":1341:1343   */\n      0x20\n        /* \"#utility.yul\":1329:1338   */\n      dup3\n        /* \"#utility.yul\":1320:1327   */\n      dup5\n        /* \"#utility.yul\":1316:1339   */\n      sub\n        /* \"#utility.yul\":1312:1344   */\n      slt\n        /* \"#utility.yul\":1309:1361   */\n      iszero\n      tag_57\n      jumpi\n        /* \"#utility.yul\":1357:1358   */\n      0x00\n        /* \"#utility.yul\":1354:1355   */\n      dup1\n        /* \"#utility.yul\":1347:1359   */\n      revert\n        /* \"#utility.yul\":1309:1361   */\n    tag_57:\n        /* \"#utility.yul\":1397:1406   */\n      dup2\n        /* \"#utility.yul\":1384:1407   */\n      calldataload\n        /* \"#utility.yul\":1430:1448   */\n      0xffffffffffffffff\n        /* \"#utility.yul\":1422:1428   */\n      dup2\n        /* \"#utility.yul\":1419:1449   */\n      gt\n        /* \"#utility.yul\":1416:1466   */\n      iszero\n      tag_58\n      jumpi\n        /* \"#utility.yul\":1462:1463   */\n      0x00\n        /* \"#utility.yul\":1459:1460   */\n      dup1\n        /* \"#utility.yul\":1452:1464   */\n      revert\n        /* \"#utility.yul\":1416:1466   */\n    tag_58:\n        /* \"#utility.yul\":1485:1507   */\n      dup3\n      add\n        /* \"#utility.yul\":1538:1542   */\n      0x1f\n        /* \"#utility.yul\":1530:1543   */\n      dup2\n      add\n        /* \"#utility.yul\":1526:1553   */\n      dup5\n      sgt\n        /* \"#utility.yul\":1516:1571   */\n      tag_59\n      jumpi\n        /* \"#utility.yul\":1567:1568   */\n      0x00\n        /* \"#utility.yul\":1564:1565   */\n      dup1\n        /* \"#utility.yul\":1557:1569   */\n      revert\n        /* \"#utility.yul\":1516:1571   */\n    tag_59:\n        /* \"#utility.yul\":1590:1663   */\n      tag_60\n        /* \"#utility.yul\":1655:1662   */\n      dup5\n        /* \"#utility.yul\":1650:1652   */\n      dup3\n        /* \"#utility.yul\":1637:1653   */\n      calldataload\n        /* \"#utility.yul\":1632:1634   */\n      0x20\n        /* \"#utility.yul\":1628:1630   */\n      dup5\n        /* \"#utility.yul\":1624:1635   */\n      add\n        /* \"#utility.yul\":1590:1663   */\n      tag_35\n      jump\t// in\n    tag_60:\n        /* \"#utility.yul\":1580:1663   */\n      swap5\n        /* \"#utility.yul\":1220:1669   */\n      swap4\n      pop\n      pop\n      pop\n      pop\n      jump\t// out\n        /* \"#utility.yul\":1674:1963   */\n    tag_36:\n        /* \"#utility.yul\":1716:1719   */\n      0x00\n        /* \"#utility.yul\":1754:1759   */\n      dup2\n        /* \"#utility.yul\":1748:1760   */\n      mload\n        /* \"#utility.yul\":1781:1787   */\n      dup1\n        /* \"#utility.yul\":1776:1779   */\n      dup5\n        /* \"#utility.yul\":1769:1788   */\n      mstore\n        /* \"#utility.yul\":1837:1843   */\n      dup1\n        /* \"#utility.yul\":1830:1834   */\n      0x20\n        /* \"#utility.yul\":1823:1828   */\n      dup5\n        /* \"#utility.yul\":1819:1835   */\n      add\n        /* \"#utility.yul\":1812:1816   */\n      0x20\n        /* \"#utility.yul\":1807:1810   */\n      dup7\n        /* \"#utility.yul\":1803:1817   */\n      add\n        /* \"#utility.yul\":1797:1844   */\n      mcopy\n        /* \"#utility.yul\":1889:1890   */\n      0x00\n        /* \"#utility.yul\":1882:1886   */\n      0x20\n        /* \"#utility.yul\":1873:1879   */\n      dup3\n        /* \"#utility.yul\":1868:1871   */\n      dup7\n        /* \"#utility.yul\":1864:1880   */\n      add\n        /* \"#utility.yul\":1860:1887   */\n      add\n        /* \"#utility.yul\":1853:1891   */\n      mstore\n        /* \"#utility.yul\":1952:1956   */\n      0x20\n        /* \"#utility.yul\":1945:1947   */\n      0x1f\n        /* \"#utility.yul\":1941:1948   */\n      not\n        /* \"#utility.yul\":1936:1938   */\n      0x1f\n        /* \"#utility.yul\":1928:1934   */\n      dup4\n        /* \"#utility.yul\":1924:1939   */\n      add\n        /* \"#utility.yul\":1920:1949   */\n      and\n        /* \"#utility.yul\":1915:1918   */\n      dup6\n        /* \"#utility.yul\":1911:1950   */\n      add\n        /* \"#utility.yul\":1907:1957   */\n      add\n        /* \"#utility.yul\":1900:1957   */\n      swap2\n      pop\n      pop\n        /* \"#utility.yul\":1674:1963   */\n      swap3\n      swap2\n      pop\n      pop\n      jump\t// out\n        /* \"#utility.yul\":1968:3383   */\n    tag_11:\n        /* \"#utility.yul\":2303:2328   */\n      dup5\n      dup2\n      mstore\n      sub(shl(0xa0, 0x01), 0x01)\n        /* \"#utility.yul\":2364:2396   */\n      dup5\n      and\n        /* \"#utility.yul\":2359:2361   */\n      0x20\n        /* \"#utility.yul\":2344:2362   */\n      dup1\n      dup4\n      add\n        /* \"#utility.yul\":2337:2397   */\n      swap2\n      swap1\n      swap2\n      mstore\n        /* \"#utility.yul\":2290:2293   */\n      0x80\n        /* \"#utility.yul\":2428:2430   */\n      0x40\n        /* \"#utility.yul\":2413:2431   */\n      dup4\n      add\n        /* \"#utility.yul\":2406:2437   */\n      dup2\n      swap1\n      mstore\n        /* \"#utility.yul\":2486:2499   */\n      dup5\n      mload\n        /* \"#utility.yul\":2275:2294   */\n      swap1\n      dup4\n      add\n        /* \"#utility.yul\":2508:2530   */\n      dup2\n      swap1\n      mstore\n        /* \"#utility.yul\":2242:2246   */\n      0x00\n      swap2\n        /* \"#utility.yul\":2588:2603   */\n      dup6\n      add\n      swap1\n        /* \"#utility.yul\":2384:2387   */\n      0xa0\n        /* \"#utility.yul\":2546:2565   */\n      dup5\n      add\n      swap1\n        /* \"#utility.yul\":2242:2246   */\n      dup4\n        /* \"#utility.yul\":2631:2800   */\n    tag_63:\n        /* \"#utility.yul\":2645:2651   */\n      dup2\n        /* \"#utility.yul\":2642:2643   */\n      dup2\n        /* \"#utility.yul\":2639:2652   */\n      lt\n        /* \"#utility.yul\":2631:2800   */\n      iszero\n      tag_65\n      jumpi\n        /* \"#utility.yul\":2706:2719   */\n      dup4\n      mload\n        /* \"#utility.yul\":2694:2720   */\n      dup4\n      mstore\n        /* \"#utility.yul\":2749:2751   */\n      0x20\n        /* \"#utility.yul\":2775:2790   */\n      swap4\n      dup5\n      add\n      swap4\n        /* \"#utility.yul\":2740:2752   */\n      swap1\n      swap3\n      add\n      swap2\n        /* \"#utility.yul\":2667:2668   */\n      0x01\n        /* \"#utility.yul\":2660:2669   */\n      add\n        /* \"#utility.yul\":2631:2800   */\n      jump(tag_63)\n    tag_65:\n        /* \"#utility.yul\":2635:2638   */\n      pop\n      pop\n        /* \"#utility.yul\":2845:2854   */\n      dup4\n        /* \"#utility.yul\":2840:2843   */\n      dup2\n        /* \"#utility.yul\":2836:2855   */\n      sub\n        /* \"#utility.yul\":2831:2833   */\n      0x60\n        /* \"#utility.yul\":2820:2829   */\n      dup6\n        /* \"#utility.yul\":2816:2834   */\n      add\n        /* \"#utility.yul\":2809:2856   */\n      mstore\n        /* \"#utility.yul\":2891:2897   */\n      dup5\n        /* \"#utility.yul\":2885:2898   */\n      mload\n        /* \"#utility.yul\":2865:2898   */\n      swap2\n      pop\n        /* \"#utility.yul\":2919:2921   */\n      0x60\n        /* \"#utility.yul\":2914:2917   */\n      dup2\n        /* \"#utility.yul\":2907:2922   */\n      mstore\n        /* \"#utility.yul\":2945:2990   */\n      tag_66\n        /* \"#utility.yul\":2986:2988   */\n      0x60\n        /* \"#utility.yul\":2981:2984   */\n      dup3\n        /* \"#utility.yul\":2977:2989   */\n      add\n        /* \"#utility.yul\":2963:2975   */\n      dup4\n        /* \"#utility.yul\":2945:2990   */\n      tag_36\n      jump\t// in\n    tag_66:\n        /* \"#utility.yul\":2931:2990   */\n      swap2\n      pop\n        /* \"#utility.yul\":3039:3041   */\n      0x20\n        /* \"#utility.yul\":3031:3037   */\n      dup6\n        /* \"#utility.yul\":3027:3042   */\n      add\n        /* \"#utility.yul\":3021:3043   */\n      mload\n        /* \"#utility.yul\":3074:3076   */\n      0x20\n        /* \"#utility.yul\":3069:3072   */\n      dup3\n        /* \"#utility.yul\":3065:3077   */\n      add\n        /* \"#utility.yul\":3052:3077   */\n      swap2\n      pop\n        /* \"#utility.yul\":3159:3160   */\n      0x00\n        /* \"#utility.yul\":3169:3354   */\n    tag_67:\n        /* \"#utility.yul\":3185:3189   */\n      0x02\n        /* \"#utility.yul\":3180:3183   */\n      dup2\n        /* \"#utility.yul\":3177:3190   */\n      lt\n        /* \"#utility.yul\":3169:3354   */\n      iszero\n      tag_69\n      jumpi\n        /* \"#utility.yul\":3250:3265   */\n      dup2\n      mload\n        /* \"#utility.yul\":3236:3266   */\n      dup4\n      mstore\n        /* \"#utility.yul\":3299:3301   */\n      0x20\n        /* \"#utility.yul\":3288:3302   */\n      swap3\n      dup4\n      add\n      swap3\n        /* \"#utility.yul\":3327:3344   */\n      swap1\n      swap2\n      add\n      swap1\n        /* \"#utility.yul\":3209:3210   */\n      0x01\n        /* \"#utility.yul\":3200:3211   */\n      add\n        /* \"#utility.yul\":3169:3354   */\n      jump(tag_67)\n    tag_69:\n      pop\n        /* \"#utility.yul\":3371:3377   */\n      swap2\n      swap9\n        /* \"#utility.yul\":1968:3383   */\n      swap8\n      pop\n      pop\n      pop\n      pop\n      pop\n      pop\n      pop\n      pop\n      jump\t// out\n        /* \"#utility.yul\":3388:3519   */\n    tag_37:\n      sub(shl(0xa0, 0x01), 0x01)\n        /* \"#utility.yul\":3463:3494   */\n      dup2\n      and\n        /* \"#utility.yul\":3453:3495   */\n      dup2\n      eq\n        /* \"#utility.yul\":3443:3513   */\n      tag_71\n      jumpi\n        /* \"#utility.yul\":3509:3510   */\n      0x00\n        /* \"#utility.yul\":3506:3507   */\n      dup1\n        /* \"#utility.yul\":3499:3511   */\n      revert\n        /* \"#utility.yul\":3443:3513   */\n    tag_71:\n        /* \"#utility.yul\":3388:3519   */\n      pop\n      jump\t// out\n        /* \"#utility.yul\":3524:3707   */\n    tag_38:\n        /* \"#utility.yul\":3584:3588   */\n      0x00\n        /* \"#utility.yul\":3617:3635   */\n      0xffffffffffffffff\n        /* \"#utility.yul\":3609:3615   */\n      dup3\n        /* \"#utility.yul\":3606:3636   */\n      gt\n        /* \"#utility.yul\":3603:3659   */\n      iszero\n      tag_74\n      jumpi\n        /* \"#utility.yul\":3639:3657   */\n      tag_74\n      tag_31\n      jump\t// in\n    tag_74:\n      pop\n        /* \"#utility.yul\":3684:3685   */\n      0x05\n        /* \"#utility.yul\":3680:3694   */\n      shl\n        /* \"#utility.yul\":3696:3700   */\n      0x20\n        /* \"#utility.yul\":3676:3701   */\n      add\n      swap1\n        /* \"#utility.yul\":3524:3707   */\n      jump\t// out\n        /* \"#utility.yul\":3712:4772   */\n    tag_39:\n        /* \"#utility.yul\":3767:3772   */\n      0x00\n        /* \"#utility.yul\":3815:3819   */\n      0x60\n        /* \"#utility.yul\":3803:3812   */\n      dup3\n        /* \"#utility.yul\":3798:3801   */\n      dup5\n        /* \"#utility.yul\":3794:3813   */\n      sub\n        /* \"#utility.yul\":3790:3820   */\n      slt\n        /* \"#utility.yul\":3787:3837   */\n      iszero\n      tag_76\n      jumpi\n        /* \"#utility.yul\":3833:3834   */\n      0x00\n        /* \"#utility.yul\":3830:3831   */\n      dup1\n        /* \"#utility.yul\":3823:3835   */\n      revert\n        /* \"#utility.yul\":3787:3837   */\n    tag_76:\n        /* \"#utility.yul\":3855:3877   */\n      tag_77\n      tag_32\n      jump\t// in\n    tag_77:\n        /* \"#utility.yul\":3846:3877   */\n      swap1\n      pop\n        /* \"#utility.yul\":3913:3922   */\n      dup2\n        /* \"#utility.yul\":3900:3923   */\n      calldataload\n        /* \"#utility.yul\":3946:3964   */\n      0xffffffffffffffff\n        /* \"#utility.yul\":3938:3944   */\n      dup2\n        /* \"#utility.yul\":3935:3965   */\n      gt\n        /* \"#utility.yul\":3932:3982   */\n      iszero\n      tag_78\n      jumpi\n        /* \"#utility.yul\":3978:3979   */\n      0x00\n        /* \"#utility.yul\":3975:3976   */\n      dup1\n        /* \"#utility.yul\":3968:3980   */\n      revert\n        /* \"#utility.yul\":3932:3982   */\n    tag_78:\n        /* \"#utility.yul\":4001:4023   */\n      dup3\n      add\n        /* \"#utility.yul\":4054:4058   */\n      0x1f\n        /* \"#utility.yul\":4046:4059   */\n      dup2\n      add\n        /* \"#utility.yul\":4042:4065   */\n      dup5\n      sgt\n        /* \"#utility.yul\":4032:4083   */\n      tag_79\n      jumpi\n        /* \"#utility.yul\":4079:4080   */\n      0x00\n        /* \"#utility.yul\":4076:4077   */\n      dup1\n        /* \"#utility.yul\":4069:4081   */\n      revert\n        /* \"#utility.yul\":4032:4083   */\n    tag_79:\n        /* \"#utility.yul\":4106:4177   */\n      tag_80\n        /* \"#utility.yul\":4173:4176   */\n      dup5\n        /* \"#utility.yul\":4168:4170   */\n      dup3\n        /* \"#utility.yul\":4155:4171   */\n      calldataload\n        /* \"#utility.yul\":4148:4152   */\n      0x20\n        /* \"#utility.yul\":4144:4146   */\n      dup5\n        /* \"#utility.yul\":4140:4153   */\n      add\n        /* \"#utility.yul\":4106:4177   */\n      tag_35\n      jump\t// in\n    tag_80:\n        /* \"#utility.yul\":4099:4104   */\n      dup3\n        /* \"#utility.yul\":4092:4178   */\n      mstore\n      pop\n        /* \"#utility.yul\":4221:4224   */\n      dup3\n        /* \"#utility.yul\":4216:4218   */\n      0x3f\n        /* \"#utility.yul\":4205:4214   */\n      dup4\n        /* \"#utility.yul\":4201:4219   */\n      add\n        /* \"#utility.yul\":4197:4225   */\n      slt\n        /* \"#utility.yul\":4187:4243   */\n      tag_81\n      jumpi\n        /* \"#utility.yul\":4239:4240   */\n      0x00\n        /* \"#utility.yul\":4236:4237   */\n      dup1\n        /* \"#utility.yul\":4229:4241   */\n      revert\n        /* \"#utility.yul\":4187:4243   */\n    tag_81:\n        /* \"#utility.yul\":4340:4359   */\n      tag_82\n        /* \"#utility.yul\":4318:4320   */\n      0x40\n        /* \"#utility.yul\":4340:4359   */\n      tag_33\n      jump\t// in\n    tag_82:\n        /* \"#utility.yul\":4381:4384   */\n      dup1\n        /* \"#utility.yul\":4422:4426   */\n      0x60\n        /* \"#utility.yul\":4411:4420   */\n      dup5\n        /* \"#utility.yul\":4407:4427   */\n      add\n        /* \"#utility.yul\":4450:4453   */\n      dup6\n        /* \"#utility.yul\":4442:4448   */\n      dup2\n        /* \"#utility.yul\":4439:4454   */\n      gt\n        /* \"#utility.yul\":4436:4471   */\n      iszero\n      tag_83\n      jumpi\n        /* \"#utility.yul\":4467:4468   */\n      0x00\n        /* \"#utility.yul\":4464:4465   */\n      dup1\n        /* \"#utility.yul\":4457:4469   */\n      revert\n        /* \"#utility.yul\":4436:4471   */\n    tag_83:\n        /* \"#utility.yul\":4506:4510   */\n      0x20\n        /* \"#utility.yul\":4495:4504   */\n      dup6\n        /* \"#utility.yul\":4491:4511   */\n      add\n        /* \"#utility.yul\":4520:4726   */\n    tag_84:\n        /* \"#utility.yul\":4536:4542   */\n      dup2\n        /* \"#utility.yul\":4531:4534   */\n      dup2\n        /* \"#utility.yul\":4528:4543   */\n      lt\n        /* \"#utility.yul\":4520:4726   */\n      iszero\n      tag_86\n      jumpi\n        /* \"#utility.yul\":4632:4649   */\n      dup1\n      calldataload\n        /* \"#utility.yul\":4662:4682   */\n      dup5\n      mstore\n        /* \"#utility.yul\":4711:4715   */\n      0x20\n        /* \"#utility.yul\":4702:4716   */\n      swap4\n      dup5\n      add\n      swap4\n        /* \"#utility.yul\":4553:4567   */\n      add\n        /* \"#utility.yul\":4520:4726   */\n      jump(tag_84)\n    tag_86:\n      pop\n      pop\n        /* \"#utility.yul\":4753:4757   */\n      0x20\n        /* \"#utility.yul\":4742:4758   */\n      dup4\n      add\n        /* \"#utility.yul\":4735:4766   */\n      mstore\n      pop\n        /* \"#utility.yul\":4746:4751   */\n      swap3\n        /* \"#utility.yul\":3712:4772   */\n      swap2\n      pop\n      pop\n      jump\t// out\n        /* \"#utility.yul\":4777:6218   */\n    tag_14:\n        /* \"#utility.yul\":4912:4918   */\n      0x00\n        /* \"#utility.yul\":4920:4926   */\n      dup1\n        /* \"#utility.yul\":4928:4934   */\n      0x00\n        /* \"#utility.yul\":4936:4942   */\n      dup1\n        /* \"#utility.yul\":4989:4992   */\n      0x80\n        /* \"#utility.yul\":4977:4986   */\n      dup6\n        /* \"#utility.yul\":4968:4975   */\n      dup8\n        /* \"#utility.yul\":4964:4987   */\n      sub\n        /* \"#utility.yul\":4960:4993   */\n      slt\n        /* \"#utility.yul\":4957:5010   */\n      iszero\n      tag_88\n      jumpi\n        /* \"#utility.yul\":5006:5007   */\n      0x00\n        /* \"#utility.yul\":5003:5004   */\n      dup1\n        /* \"#utility.yul\":4996:5008   */\n      revert\n        /* \"#utility.yul\":4957:5010   */\n    tag_88:\n        /* \"#utility.yul\":5051:5074   */\n      dup5\n      calldataload\n      swap4\n      pop\n        /* \"#utility.yul\":5150:5152   */\n      0x20\n        /* \"#utility.yul\":5135:5153   */\n      dup6\n      add\n        /* \"#utility.yul\":5122:5154   */\n      calldataload\n        /* \"#utility.yul\":5163:5196   */\n      tag_89\n        /* \"#utility.yul\":5122:5154   */\n      dup2\n        /* \"#utility.yul\":5163:5196   */\n      tag_37\n      jump\t// in\n    tag_89:\n        /* \"#utility.yul\":5215:5222   */\n      swap3\n      pop\n        /* \"#utility.yul\":5273:5275   */\n      0x40\n        /* \"#utility.yul\":5258:5276   */\n      dup6\n      add\n        /* \"#utility.yul\":5245:5277   */\n      calldataload\n        /* \"#utility.yul\":5300:5318   */\n      0xffffffffffffffff\n        /* \"#utility.yul\":5289:5319   */\n      dup2\n      gt\n        /* \"#utility.yul\":5286:5336   */\n      iszero\n      tag_90\n      jumpi\n        /* \"#utility.yul\":5332:5333   */\n      0x00\n        /* \"#utility.yul\":5329:5330   */\n      dup1\n        /* \"#utility.yul\":5322:5334   */\n      revert\n        /* \"#utility.yul\":5286:5336   */\n    tag_90:\n        /* \"#utility.yul\":5355:5377   */\n      dup6\n      add\n        /* \"#utility.yul\":5408:5412   */\n      0x1f\n        /* \"#utility.yul\":5400:5413   */\n      dup2\n      add\n        /* \"#utility.yul\":5396:5423   */\n      dup8\n      sgt\n        /* \"#utility.yul\":5386:5441   */\n      tag_91\n      jumpi\n        /* \"#utility.yul\":5437:5438   */\n      0x00\n        /* \"#utility.yul\":5434:5435   */\n      dup1\n        /* \"#utility.yul\":5427:5439   */\n      revert\n        /* \"#utility.yul\":5386:5441   */\n    tag_91:\n        /* \"#utility.yul\":5477:5479   */\n      dup1\n        /* \"#utility.yul\":5464:5480   */\n      calldataload\n        /* \"#utility.yul\":5500:5564   */\n      tag_92\n        /* \"#utility.yul\":5516:5563   */\n      tag_54\n        /* \"#utility.yul\":5556:5562   */\n      dup3\n        /* \"#utility.yul\":5516:5563   */\n      tag_38\n      jump\t// in\n        /* \"#utility.yul\":5500:5564   */\n    tag_92:\n        /* \"#utility.yul\":5586:5589   */\n      dup1\n        /* \"#utility.yul\":5610:5616   */\n      dup3\n        /* \"#utility.yul\":5605:5608   */\n      dup3\n        /* \"#utility.yul\":5598:5617   */\n      mstore\n        /* \"#utility.yul\":5642:5644   */\n      0x20\n        /* \"#utility.yul\":5637:5640   */\n      dup3\n        /* \"#utility.yul\":5633:5645   */\n      add\n        /* \"#utility.yul\":5626:5645   */\n      swap2\n      pop\n        /* \"#utility.yul\":5697:5699   */\n      0x20\n        /* \"#utility.yul\":5687:5693   */\n      dup4\n        /* \"#utility.yul\":5684:5685   */\n      0x05\n        /* \"#utility.yul\":5680:5694   */\n      shl\n        /* \"#utility.yul\":5676:5678   */\n      dup6\n        /* \"#utility.yul\":5672:5695   */\n      add\n        /* \"#utility.yul\":5668:5700   */\n      add\n        /* \"#utility.yul\":5654:5700   */\n      swap3\n      pop\n        /* \"#utility.yul\":5723:5730   */\n      dup10\n        /* \"#utility.yul\":5715:5721   */\n      dup4\n        /* \"#utility.yul\":5712:5731   */\n      gt\n        /* \"#utility.yul\":5709:5748   */\n      iszero\n      tag_94\n      jumpi\n        /* \"#utility.yul\":5744:5745   */\n      0x00\n        /* \"#utility.yul\":5741:5742   */\n      dup1\n        /* \"#utility.yul\":5734:5746   */\n      revert\n        /* \"#utility.yul\":5709:5748   */\n    tag_94:\n        /* \"#utility.yul\":5776:5778   */\n      0x20\n        /* \"#utility.yul\":5772:5774   */\n      dup5\n        /* \"#utility.yul\":5768:5779   */\n      add\n        /* \"#utility.yul\":5757:5779   */\n      swap4\n      pop\n        /* \"#utility.yul\":5788:5990   */\n    tag_95:\n        /* \"#utility.yul\":5804:5810   */\n      dup3\n        /* \"#utility.yul\":5799:5802   */\n      dup5\n        /* \"#utility.yul\":5796:5811   */\n      lt\n        /* \"#utility.yul\":5788:5990   */\n      iszero\n      tag_97\n      jumpi\n        /* \"#utility.yul\":5898:5915   */\n      dup4\n      calldataload\n        /* \"#utility.yul\":5928:5948   */\n      dup3\n      mstore\n        /* \"#utility.yul\":5977:5979   */\n      0x20\n        /* \"#utility.yul\":5821:5833   */\n      swap4\n      dup5\n      add\n      swap4\n        /* \"#utility.yul\":5968:5980   */\n      swap1\n      swap2\n      add\n      swap1\n        /* \"#utility.yul\":5788:5990   */\n      jump(tag_95)\n    tag_97:\n        /* \"#utility.yul\":6009:6014   */\n      swap5\n      pop\n      pop\n      pop\n      pop\n        /* \"#utility.yul\":6067:6069   */\n      0x60\n        /* \"#utility.yul\":6052:6070   */\n      dup6\n      add\n        /* \"#utility.yul\":6039:6071   */\n      calldataload\n        /* \"#utility.yul\":6096:6114   */\n      0xffffffffffffffff\n        /* \"#utility.yul\":6083:6115   */\n      dup2\n      gt\n        /* \"#utility.yul\":6080:6132   */\n      iszero\n      tag_98\n      jumpi\n        /* \"#utility.yul\":6128:6129   */\n      0x00\n        /* \"#utility.yul\":6125:6126   */\n      dup1\n        /* \"#utility.yul\":6118:6130   */\n      revert\n        /* \"#utility.yul\":6080:6132   */\n    tag_98:\n        /* \"#utility.yul\":6151:6212   */\n      tag_99\n        /* \"#utility.yul\":6204:6211   */\n      dup8\n        /* \"#utility.yul\":6193:6201   */\n      dup3\n        /* \"#utility.yul\":6182:6191   */\n      dup9\n        /* \"#utility.yul\":6178:6202   */\n      add\n        /* \"#utility.yul\":6151:6212   */\n      tag_39\n      jump\t// in\n    tag_99:\n        /* \"#utility.yul\":6141:6212   */\n      swap2\n      pop\n      pop\n        /* \"#utility.yul\":4777:6218   */\n      swap3\n      swap6\n      swap2\n      swap5\n      pop\n      swap3\n      pop\n      jump\t// out\n        /* \"#utility.yul\":6223:6441   */\n    tag_17:\n        /* \"#utility.yul\":6370:6372   */\n      0x20\n        /* \"#utility.yul\":6359:6368   */\n      dup2\n        /* \"#utility.yul\":6352:6373   */\n      mstore\n        /* \"#utility.yul\":6333:6337   */\n      0x00\n        /* \"#utility.yul\":6390:6435   */\n      tag_101\n        /* \"#utility.yul\":6431:6433   */\n      0x20\n        /* \"#utility.yul\":6420:6429   */\n      dup4\n        /* \"#utility.yul\":6416:6434   */\n      add\n        /* \"#utility.yul\":6408:6414   */\n      dup5\n        /* \"#utility.yul\":6390:6435   */\n      tag_36\n      jump\t// in\n    tag_101:\n        /* \"#utility.yul\":6382:6435   */\n      swap4\n        /* \"#utility.yul\":6223:6441   */\n      swap3\n      pop\n      pop\n      pop\n      jump\t// out\n        /* \"#utility.yul\":6446:7745   */\n    tag_40:\n        /* \"#utility.yul\":6512:6517   */\n      0x00\n        /* \"#utility.yul\":6560:6564   */\n      0x60\n        /* \"#utility.yul\":6548:6557   */\n      dup3\n        /* \"#utility.yul\":6543:6546   */\n      dup5\n        /* \"#utility.yul\":6539:6558   */\n      sub\n        /* \"#utility.yul\":6535:6565   */\n      slt\n        /* \"#utility.yul\":6532:6582   */\n      iszero\n      tag_103\n      jumpi\n        /* \"#utility.yul\":6578:6579   */\n      0x00\n        /* \"#utility.yul\":6575:6576   */\n      dup1\n        /* \"#utility.yul\":6568:6580   */\n      revert\n        /* \"#utility.yul\":6532:6582   */\n    tag_103:\n        /* \"#utility.yul\":6600:6622   */\n      tag_104\n      tag_32\n      jump\t// in\n    tag_104:\n        /* \"#utility.yul\":6591:6622   */\n      swap1\n      pop\n        /* \"#utility.yul\":6651:6660   */\n      dup2\n        /* \"#utility.yul\":6645:6661   */\n      mload\n        /* \"#utility.yul\":6684:6702   */\n      0xffffffffffffffff\n        /* \"#utility.yul\":6676:6682   */\n      dup2\n        /* \"#utility.yul\":6673:6703   */\n      gt\n        /* \"#utility.yul\":6670:6720   */\n      iszero\n      tag_105\n      jumpi\n        /* \"#utility.yul\":6716:6717   */\n      0x00\n        /* \"#utility.yul\":6713:6714   */\n      dup1\n        /* \"#utility.yul\":6706:6718   */\n      revert\n        /* \"#utility.yul\":6670:6720   */\n    tag_105:\n        /* \"#utility.yul\":6739:6761   */\n      dup3\n      add\n        /* \"#utility.yul\":6792:6796   */\n      0x1f\n        /* \"#utility.yul\":6784:6797   */\n      dup2\n      add\n        /* \"#utility.yul\":6780:6803   */\n      dup5\n      sgt\n        /* \"#utility.yul\":6770:6821   */\n      tag_106\n      jumpi\n        /* \"#utility.yul\":6817:6818   */\n      0x00\n        /* \"#utility.yul\":6814:6815   */\n      dup1\n        /* \"#utility.yul\":6807:6819   */\n      revert\n        /* \"#utility.yul\":6770:6821   */\n    tag_106:\n        /* \"#utility.yul\":6850:6852   */\n      dup1\n        /* \"#utility.yul\":6844:6853   */\n      mload\n        /* \"#utility.yul\":6875:6927   */\n      tag_107\n        /* \"#utility.yul\":6891:6926   */\n      tag_54\n        /* \"#utility.yul\":6919:6925   */\n      dup3\n        /* \"#utility.yul\":6891:6926   */\n      tag_34\n      jump\t// in\n        /* \"#utility.yul\":6875:6927   */\n    tag_107:\n        /* \"#utility.yul\":6950:6956   */\n      dup2\n        /* \"#utility.yul\":6943:6948   */\n      dup2\n        /* \"#utility.yul\":6936:6957   */\n      mstore\n        /* \"#utility.yul\":7000:7003   */\n      dup6\n        /* \"#utility.yul\":6993:6997   */\n      0x20\n        /* \"#utility.yul\":6984:6990   */\n      dup4\n        /* \"#utility.yul\":6980:6982   */\n      dup6\n        /* \"#utility.yul\":6976:6991   */\n      add\n        /* \"#utility.yul\":6972:6998   */\n      add\n        /* \"#utility.yul\":6969:7004   */\n      gt\n        /* \"#utility.yul\":6966:7021   */\n      iszero\n      tag_109\n      jumpi\n        /* \"#utility.yul\":7017:7018   */\n      0x00\n        /* \"#utility.yul\":7014:7015   */\n      dup1\n        /* \"#utility.yul\":7007:7019   */\n      revert\n        /* \"#utility.yul\":6966:7021   */\n    tag_109:\n        /* \"#utility.yul\":7069:7075   */\n      dup2\n        /* \"#utility.yul\":7062:7066   */\n      0x20\n        /* \"#utility.yul\":7058:7060   */\n      dup5\n        /* \"#utility.yul\":7054:7067   */\n      add\n        /* \"#utility.yul\":7047:7051   */\n      0x20\n        /* \"#utility.yul\":7040:7045   */\n      dup4\n        /* \"#utility.yul\":7036:7052   */\n      add\n        /* \"#utility.yul\":7030:7076   */\n      mcopy\n        /* \"#utility.yul\":7123:7124   */\n      0x00\n        /* \"#utility.yul\":7116:7120   */\n      0x20\n        /* \"#utility.yul\":7107:7113   */\n      dup4\n        /* \"#utility.yul\":7100:7105   */\n      dup4\n        /* \"#utility.yul\":7096:7114   */\n      add\n        /* \"#utility.yul\":7092:7121   */\n      add\n        /* \"#utility.yul\":7085:7125   */\n      mstore\n        /* \"#utility.yul\":7148:7153   */\n      dup1\n        /* \"#utility.yul\":7141:7146   */\n      dup5\n        /* \"#utility.yul\":7134:7154   */\n      mstore\n      pop\n      pop\n      pop\n        /* \"#utility.yul\":7197:7200   */\n      dup3\n        /* \"#utility.yul\":7192:7194   */\n      0x3f\n        /* \"#utility.yul\":7181:7190   */\n      dup4\n        /* \"#utility.yul\":7177:7195   */\n      add\n        /* \"#utility.yul\":7173:7201   */\n      slt\n        /* \"#utility.yul\":7163:7219   */\n      tag_110\n      jumpi\n        /* \"#utility.yul\":7215:7216   */\n      0x00\n        /* \"#utility.yul\":7212:7213   */\n      dup1\n        /* \"#utility.yul\":7205:7217   */\n      revert\n        /* \"#utility.yul\":7163:7219   */\n    tag_110:\n        /* \"#utility.yul\":7316:7335   */\n      tag_111\n        /* \"#utility.yul\":7294:7296   */\n      0x40\n        /* \"#utility.yul\":7316:7335   */\n      tag_33\n      jump\t// in\n    tag_111:\n        /* \"#utility.yul\":7359:7362   */\n      dup1\n        /* \"#utility.yul\":7400:7404   */\n      0x60\n        /* \"#utility.yul\":7389:7398   */\n      dup5\n        /* \"#utility.yul\":7385:7405   */\n      add\n        /* \"#utility.yul\":7428:7431   */\n      dup6\n        /* \"#utility.yul\":7420:7426   */\n      dup2\n        /* \"#utility.yul\":7417:7432   */\n      gt\n        /* \"#utility.yul\":7414:7449   */\n      iszero\n      tag_112\n      jumpi\n        /* \"#utility.yul\":7445:7446   */\n      0x00\n        /* \"#utility.yul\":7442:7443   */\n      dup1\n        /* \"#utility.yul\":7435:7447   */\n      revert\n        /* \"#utility.yul\":7414:7449   */\n    tag_112:\n        /* \"#utility.yul\":7484:7488   */\n      0x20\n        /* \"#utility.yul\":7473:7482   */\n      dup6\n        /* \"#utility.yul\":7469:7489   */\n      add\n        /* \"#utility.yul\":7498:7697   */\n    tag_113:\n        /* \"#utility.yul\":7514:7520   */\n      dup2\n        /* \"#utility.yul\":7509:7512   */\n      dup2\n        /* \"#utility.yul\":7506:7521   */\n      lt\n        /* \"#utility.yul\":7498:7697   */\n      iszero\n      tag_86\n      jumpi\n        /* \"#utility.yul\":7610:7620   */\n      dup1\n      mload\n        /* \"#utility.yul\":7633:7653   */\n      dup5\n      mstore\n        /* \"#utility.yul\":7682:7686   */\n      0x20\n        /* \"#utility.yul\":7673:7687   */\n      swap4\n      dup5\n      add\n      swap4\n        /* \"#utility.yul\":7531:7545   */\n      add\n        /* \"#utility.yul\":7498:7697   */\n      jump(tag_113)\n        /* \"#utility.yul\":7750:9179   */\n    tag_25:\n        /* \"#utility.yul\":7904:7910   */\n      0x00\n        /* \"#utility.yul\":7912:7918   */\n      dup1\n        /* \"#utility.yul\":7920:7926   */\n      0x00\n        /* \"#utility.yul\":7928:7934   */\n      dup1\n        /* \"#utility.yul\":7981:7984   */\n      0x80\n        /* \"#utility.yul\":7969:7978   */\n      dup6\n        /* \"#utility.yul\":7960:7967   */\n      dup8\n        /* \"#utility.yul\":7956:7979   */\n      sub\n        /* \"#utility.yul\":7952:7985   */\n      slt\n        /* \"#utility.yul\":7949:8002   */\n      iszero\n      tag_117\n      jumpi\n        /* \"#utility.yul\":7998:7999   */\n      0x00\n        /* \"#utility.yul\":7995:7996   */\n      dup1\n        /* \"#utility.yul\":7988:8000   */\n      revert\n        /* \"#utility.yul\":7949:8002   */\n    tag_117:\n        /* \"#utility.yul\":8043:8059   */\n      dup5\n      mload\n        /* \"#utility.yul\":8128:8130   */\n      0x20\n        /* \"#utility.yul\":8113:8131   */\n      dup7\n      add\n        /* \"#utility.yul\":8107:8132   */\n      mload\n        /* \"#utility.yul\":8043:8059   */\n      swap1\n      swap5\n      pop\n        /* \"#utility.yul\":8141:8174   */\n      tag_118\n        /* \"#utility.yul\":8107:8132   */\n      dup2\n        /* \"#utility.yul\":8141:8174   */\n      tag_37\n      jump\t// in\n    tag_118:\n        /* \"#utility.yul\":8244:8246   */\n      0x40\n        /* \"#utility.yul\":8229:8247   */\n      dup7\n      add\n        /* \"#utility.yul\":8223:8248   */\n      mload\n        /* \"#utility.yul\":8193:8200   */\n      swap1\n      swap4\n      pop\n        /* \"#utility.yul\":8271:8289   */\n      0xffffffffffffffff\n        /* \"#utility.yul\":8260:8290   */\n      dup2\n      gt\n        /* \"#utility.yul\":8257:8307   */\n      iszero\n      tag_119\n      jumpi\n        /* \"#utility.yul\":8303:8304   */\n      0x00\n        /* \"#utility.yul\":8300:8301   */\n      dup1\n        /* \"#utility.yul\":8293:8305   */\n      revert\n        /* \"#utility.yul\":8257:8307   */\n    tag_119:\n        /* \"#utility.yul\":8326:8348   */\n      dup6\n      add\n        /* \"#utility.yul\":8379:8383   */\n      0x1f\n        /* \"#utility.yul\":8371:8384   */\n      dup2\n      add\n        /* \"#utility.yul\":8367:8394   */\n      dup8\n      sgt\n        /* \"#utility.yul\":8357:8412   */\n      tag_120\n      jumpi\n        /* \"#utility.yul\":8408:8409   */\n      0x00\n        /* \"#utility.yul\":8405:8406   */\n      dup1\n        /* \"#utility.yul\":8398:8410   */\n      revert\n        /* \"#utility.yul\":8357:8412   */\n    tag_120:\n        /* \"#utility.yul\":8441:8443   */\n      dup1\n        /* \"#utility.yul\":8435:8444   */\n      mload\n        /* \"#utility.yul\":8464:8528   */\n      tag_121\n        /* \"#utility.yul\":8480:8527   */\n      tag_54\n        /* \"#utility.yul\":8520:8526   */\n      dup3\n        /* \"#utility.yul\":8480:8527   */\n      tag_38\n      jump\t// in\n        /* \"#utility.yul\":8464:8528   */\n    tag_121:\n        /* \"#utility.yul\":8550:8553   */\n      dup1\n        /* \"#utility.yul\":8574:8580   */\n      dup3\n        /* \"#utility.yul\":8569:8572   */\n      dup3\n        /* \"#utility.yul\":8562:8581   */\n      mstore\n        /* \"#utility.yul\":8606:8608   */\n      0x20\n        /* \"#utility.yul\":8601:8604   */\n      dup3\n        /* \"#utility.yul\":8597:8609   */\n      add\n        /* \"#utility.yul\":8590:8609   */\n      swap2\n      pop\n        /* \"#utility.yul\":8661:8663   */\n      0x20\n        /* \"#utility.yul\":8651:8657   */\n      dup4\n        /* \"#utility.yul\":8648:8649   */\n      0x05\n        /* \"#utility.yul\":8644:8658   */\n      shl\n        /* \"#utility.yul\":8640:8642   */\n      dup6\n        /* \"#utility.yul\":8636:8659   */\n      add\n        /* \"#utility.yul\":8632:8664   */\n      add\n        /* \"#utility.yul\":8618:8664   */\n      swap3\n      pop\n        /* \"#utility.yul\":8687:8694   */\n      dup10\n        /* \"#utility.yul\":8679:8685   */\n      dup4\n        /* \"#utility.yul\":8676:8695   */\n      gt\n        /* \"#utility.yul\":8673:8712   */\n      iszero\n      tag_123\n      jumpi\n        /* \"#utility.yul\":8708:8709   */\n      0x00\n        /* \"#utility.yul\":8705:8706   */\n      dup1\n        /* \"#utility.yul\":8698:8710   */\n      revert\n        /* \"#utility.yul\":8673:8712   */\n    tag_123:\n        /* \"#utility.yul\":8740:8742   */\n      0x20\n        /* \"#utility.yul\":8736:8738   */\n      dup5\n        /* \"#utility.yul\":8732:8743   */\n      add\n        /* \"#utility.yul\":8721:8743   */\n      swap4\n      pop\n        /* \"#utility.yul\":8752:8947   */\n    tag_124:\n        /* \"#utility.yul\":8768:8774   */\n      dup3\n        /* \"#utility.yul\":8763:8766   */\n      dup5\n        /* \"#utility.yul\":8760:8775   */\n      lt\n        /* \"#utility.yul\":8752:8947   */\n      iszero\n      tag_126\n      jumpi\n        /* \"#utility.yul\":8862:8872   */\n      dup4\n      mload\n        /* \"#utility.yul\":8885:8905   */\n      dup3\n      mstore\n        /* \"#utility.yul\":8934:8936   */\n      0x20\n        /* \"#utility.yul\":8785:8797   */\n      swap4\n      dup5\n      add\n      swap4\n        /* \"#utility.yul\":8925:8937   */\n      swap1\n      swap2\n      add\n      swap1\n        /* \"#utility.yul\":8752:8947   */\n      jump(tag_124)\n    tag_126:\n        /* \"#utility.yul\":8966:8971   */\n      dup1\n        /* \"#utility.yul\":8956:8971   */\n      swap6\n      pop\n      pop\n      pop\n      pop\n      pop\n        /* \"#utility.yul\":9017:9019   */\n      0x60\n        /* \"#utility.yul\":9006:9015   */\n      dup6\n        /* \"#utility.yul\":9002:9020   */\n      add\n        /* \"#utility.yul\":8996:9021   */\n      mload\n        /* \"#utility.yul\":9046:9064   */\n      0xffffffffffffffff\n        /* \"#utility.yul\":9036:9044   */\n      dup2\n        /* \"#utility.yul\":9033:9065   */\n      gt\n        /* \"#utility.yul\":9030:9082   */\n      iszero\n      tag_127\n      jumpi\n        /* \"#utility.yul\":9078:9079   */\n      0x00\n        /* \"#utility.yul\":9075:9076   */\n      dup1\n        /* \"#utility.yul\":9068:9080   */\n      revert\n        /* \"#utility.yul\":9030:9082   */\n    tag_127:\n        /* \"#utility.yul\":9101:9173   */\n      tag_99\n        /* \"#utility.yul\":9165:9172   */\n      dup8\n        /* \"#utility.yul\":9154:9162   */\n      dup3\n        /* \"#utility.yul\":9143:9152   */\n      dup9\n        /* \"#utility.yul\":9139:9163   */\n      add\n        /* \"#utility.yul\":9101:9173   */\n      tag_40\n      jump\t// in\n\n    auxdata: 0xa2646970667358221220f9df7966aed72a991b2b2337be2c135742906dc07c2338fd7aadbf0535ceaa4464736f6c634300081a0033\n}\n",
				"bytecode": {
					"linkReferences": {},
					"object": "6080604052348015600e575f80fd5b506106ef8061001c5f395ff3fe608060405234801561000f575f80fd5b506004361061003f575f3560e01c8063447a06f514610043578063985f36f41461006f578063e4f2a84a1461008f575b5f80fd5b610056610051366004610233565b6100bd565b60405161006694939291906102ae565b60405180910390f35b61008261007d36600461043a565b6100f4565b6040516100669190610511565b6100826040805160048152602481019091526020810180516001600160e01b031662dc4c0f60e61b17905290565b5f8060606100c9610126565b5f805f80888060200190518101906100e191906105ea565b929c919b50995090975095505050505050565b60608484848460405160200161010d94939291906102ae565b6040516020818303038152906040529050949350505050565b604051806040016040528060608152602001610140610145565b905290565b60405180604001604052806002906020820280368337509192915050565b634e487b7160e01b5f52604160045260245ffd5b6040805190810167ffffffffffffffff8111828210171561019a5761019a610163565b60405290565b604051601f8201601f1916810167ffffffffffffffff811182821017156101c9576101c9610163565b604052919050565b5f67ffffffffffffffff8211156101ea576101ea610163565b50601f01601f191660200190565b5f61020a610205846101d1565b6101a0565b905082815283838301111561021d575f80fd5b828260208301375f602084830101529392505050565b5f60208284031215610243575f80fd5b813567ffffffffffffffff811115610259575f80fd5b8201601f81018413610269575f80fd5b610278848235602084016101f8565b949350505050565b5f81518084528060208401602086015e5f602082860101526020601f19601f83011685010191505092915050565b8481526001600160a01b03841660208083019190915260806040830181905284519083018190525f9185019060a0840190835b818110156102ff5783518352602093840193909201916001016102e1565b50508381036060850152845191506060815261031e6060820183610280565b915060208501516020820191505f5b600281101561034c57815183526020928301929091019060010161032d565b509198975050505050505050565b6001600160a01b038116811461036e575f80fd5b50565b5f67ffffffffffffffff82111561038a5761038a610163565b5060051b60200190565b5f606082840312156103a4575f80fd5b6103ac610177565b9050813567ffffffffffffffff8111156103c4575f80fd5b8201601f810184136103d4575f80fd5b6103e3848235602084016101f8565b82525082603f8301126103f4575f80fd5b6103fe60406101a0565b80606084018581111561040f575f80fd5b602085015b8181101561042c578035845260209384019301610414565b505060208301525092915050565b5f805f806080858703121561044d575f80fd5b84359350602085013561045f8161035a565b9250604085013567ffffffffffffffff81111561047a575f80fd5b8501601f8101871361048a575f80fd5b803561049861020582610371565b8082825260208201915060208360051b8501019250898311156104b9575f80fd5b6020840193505b828410156104db5783358252602093840193909101906104c0565b9450505050606085013567ffffffffffffffff8111156104f9575f80fd5b61050587828801610394565b91505092959194509250565b602081525f6105236020830184610280565b9392505050565b5f6060828403121561053a575f80fd5b610542610177565b9050815167ffffffffffffffff81111561055a575f80fd5b8201601f8101841361056a575f80fd5b8051610578610205826101d1565b81815285602083850101111561058c575f80fd5b8160208401602083015e5f6020838301015280845250505082603f8301126105b2575f80fd5b6105bc60406101a0565b8060608401858111156105cd575f80fd5b602085015b8181101561042c5780518452602093840193016105d2565b5f805f80608085870312156105fd575f80fd5b845160208601519094506106108161035a565b604086015190935067ffffffffffffffff81111561062c575f80fd5b8501601f8101871361063c575f80fd5b805161064a61020582610371565b8082825260208201915060208360051b85010192508983111561066b575f80fd5b6020840193505b8284101561068d578351825260209384019390910190610672565b80955050505050606085015167ffffffffffffffff8111156106ad575f80fd5b6105058782880161052a56fea2646970667358221220f9df7966aed72a991b2b2337be2c135742906dc07c2338fd7aadbf0535ceaa4464736f6c634300081a0033",
					"opcodes": "PUSH1 0x80 PUSH1 0x40 MSTORE CALLVALUE DUP1 ISZERO PUSH1 0xE JUMPI PUSH0 DUP1 REVERT JUMPDEST POP PUSH2 0x6EF DUP1 PUSH2 0x1C PUSH0 CODECOPY PUSH0 RETURN INVALID PUSH1 0x80 PUSH1 0x40 MSTORE CALLVALUE DUP1 ISZERO PUSH2 0xF JUMPI PUSH0 DUP1 REVERT JUMPDEST POP PUSH1 0x4 CALLDATASIZE LT PUSH2 0x3F JUMPI PUSH0 CALLDATALOAD PUSH1 0xE0 SHR DUP1 PUSH4 0x447A06F5 EQ PUSH2 0x43 JUMPI DUP1 PUSH4 0x985F36F4 EQ PUSH2 0x6F JUMPI DUP1 PUSH4 0xE4F2A84A EQ PUSH2 0x8F JUMPI JUMPDEST PUSH0 DUP1 REVERT JUMPDEST PUSH2 0x56 PUSH2 0x51 CALLDATASIZE PUSH1 0x4 PUSH2 0x233 JUMP JUMPDEST PUSH2 0xBD JUMP JUMPDEST PUSH1 0x40 MLOAD PUSH2 0x66 SWAP5 SWAP4 SWAP3 SWAP2 SWAP1 PUSH2 0x2AE JUMP JUMPDEST PUSH1 0x40 MLOAD DUP1 SWAP2 SUB SWAP1 RETURN JUMPDEST PUSH2 0x82 PUSH2 0x7D CALLDATASIZE PUSH1 0x4 PUSH2 0x43A JUMP JUMPDEST PUSH2 0xF4 JUMP JUMPDEST PUSH1 0x40 MLOAD PUSH2 0x66 SWAP2 SWAP1 PUSH2 0x511 JUMP JUMPDEST PUSH2 0x82 PUSH1 0x40 DUP1 MLOAD PUSH1 0x4 DUP2 MSTORE PUSH1 0x24 DUP2 ADD SWAP1 SWAP2 MSTORE PUSH1 0x20 DUP2 ADD DUP1 MLOAD PUSH1 0x1 PUSH1 0x1 PUSH1 0xE0 SHL SUB AND PUSH3 0xDC4C0F PUSH1 0xE6 SHL OR SWAP1 MSTORE SWAP1 JUMP JUMPDEST PUSH0 DUP1 PUSH1 0x60 PUSH2 0xC9 PUSH2 0x126 JUMP JUMPDEST PUSH0 DUP1 PUSH0 DUP1 DUP9 DUP1 PUSH1 0x20 ADD SWAP1 MLOAD DUP2 ADD SWAP1 PUSH2 0xE1 SWAP2 SWAP1 PUSH2 0x5EA JUMP JUMPDEST SWAP3 SWAP13 SWAP2 SWAP12 POP SWAP10 POP SWAP1 SWAP8 POP SWAP6 POP POP POP POP POP POP JUMP JUMPDEST PUSH1 0x60 DUP5 DUP5 DUP5 DUP5 PUSH1 0x40 MLOAD PUSH1 0x20 ADD PUSH2 0x10D SWAP5 SWAP4 SWAP3 SWAP2 SWAP1 PUSH2 0x2AE JUMP JUMPDEST PUSH1 0x40 MLOAD PUSH1 0x20 DUP2 DUP4 SUB SUB DUP2 MSTORE SWAP1 PUSH1 0x40 MSTORE SWAP1 POP SWAP5 SWAP4 POP POP POP POP JUMP JUMPDEST PUSH1 0x40 MLOAD DUP1 PUSH1 0x40 ADD PUSH1 0x40 MSTORE DUP1 PUSH1 0x60 DUP2 MSTORE PUSH1 0x20 ADD PUSH2 0x140 PUSH2 0x145 JUMP JUMPDEST SWAP1 MSTORE SWAP1 JUMP JUMPDEST PUSH1 0x40 MLOAD DUP1 PUSH1 0x40 ADD PUSH1 0x40 MSTORE DUP1 PUSH1 0x2 SWAP1 PUSH1 0x20 DUP3 MUL DUP1 CALLDATASIZE DUP4 CALLDATACOPY POP SWAP2 SWAP3 SWAP2 POP POP JUMP JUMPDEST PUSH4 0x4E487B71 PUSH1 0xE0 SHL PUSH0 MSTORE PUSH1 0x41 PUSH1 0x4 MSTORE PUSH1 0x24 PUSH0 REVERT JUMPDEST PUSH1 0x40 DUP1 MLOAD SWAP1 DUP2 ADD PUSH8 0xFFFFFFFFFFFFFFFF DUP2 GT DUP3 DUP3 LT OR ISZERO PUSH2 0x19A JUMPI PUSH2 0x19A PUSH2 0x163 JUMP JUMPDEST PUSH1 0x40 MSTORE SWAP1 JUMP JUMPDEST PUSH1 0x40 MLOAD PUSH1 0x1F DUP3 ADD PUSH1 0x1F NOT AND DUP2 ADD PUSH8 0xFFFFFFFFFFFFFFFF DUP2 GT DUP3 DUP3 LT OR ISZERO PUSH2 0x1C9 JUMPI PUSH2 0x1C9 PUSH2 0x163 JUMP JUMPDEST PUSH1 0x40 MSTORE SWAP2 SWAP1 POP JUMP JUMPDEST PUSH0 PUSH8 0xFFFFFFFFFFFFFFFF DUP3 GT ISZERO PUSH2 0x1EA JUMPI PUSH2 0x1EA PUSH2 0x163 JUMP JUMPDEST POP PUSH1 0x1F ADD PUSH1 0x1F NOT AND PUSH1 0x20 ADD SWAP1 JUMP JUMPDEST PUSH0 PUSH2 0x20A PUSH2 0x205 DUP5 PUSH2 0x1D1 JUMP JUMPDEST PUSH2 0x1A0 JUMP JUMPDEST SWAP1 POP DUP3 DUP2 MSTORE DUP4 DUP4 DUP4 ADD GT ISZERO PUSH2 0x21D JUMPI PUSH0 DUP1 REVERT JUMPDEST DUP3 DUP3 PUSH1 0x20 DUP4 ADD CALLDATACOPY PUSH0 PUSH1 0x20 DUP5 DUP4 ADD ADD MSTORE SWAP4 SWAP3 POP POP POP JUMP JUMPDEST PUSH0 PUSH1 0x20 DUP3 DUP5 SUB SLT ISZERO PUSH2 0x243 JUMPI PUSH0 DUP1 REVERT JUMPDEST DUP2 CALLDATALOAD PUSH8 0xFFFFFFFFFFFFFFFF DUP2 GT ISZERO PUSH2 0x259 JUMPI PUSH0 DUP1 REVERT JUMPDEST DUP3 ADD PUSH1 0x1F DUP2 ADD DUP5 SGT PUSH2 0x269 JUMPI PUSH0 DUP1 REVERT JUMPDEST PUSH2 0x278 DUP5 DUP3 CALLDATALOAD PUSH1 0x20 DUP5 ADD PUSH2 0x1F8 JUMP JUMPDEST SWAP5 SWAP4 POP POP POP POP JUMP JUMPDEST PUSH0 DUP2 MLOAD DUP1 DUP5 MSTORE DUP1 PUSH1 0x20 DUP5 ADD PUSH1 0x20 DUP7 ADD MCOPY PUSH0 PUSH1 0x20 DUP3 DUP7 ADD ADD MSTORE PUSH1 0x20 PUSH1 0x1F NOT PUSH1 0x1F DUP4 ADD AND DUP6 ADD ADD SWAP2 POP POP SWAP3 SWAP2 POP POP JUMP JUMPDEST DUP5 DUP2 MSTORE PUSH1 0x1 PUSH1 0x1 PUSH1 0xA0 SHL SUB DUP5 AND PUSH1 0x20 DUP1 DUP4 ADD SWAP2 SWAP1 SWAP2 MSTORE PUSH1 0x80 PUSH1 0x40 DUP4 ADD DUP2 SWAP1 MSTORE DUP5 MLOAD SWAP1 DUP4 ADD DUP2 SWAP1 MSTORE PUSH0 SWAP2 DUP6 ADD SWAP1 PUSH1 0xA0 DUP5 ADD SWAP1 DUP4 JUMPDEST DUP2 DUP2 LT ISZERO PUSH2 0x2FF JUMPI DUP4 MLOAD DUP4 MSTORE PUSH1 0x20 SWAP4 DUP5 ADD SWAP4 SWAP1 SWAP3 ADD SWAP2 PUSH1 0x1 ADD PUSH2 0x2E1 JUMP JUMPDEST POP POP DUP4 DUP2 SUB PUSH1 0x60 DUP6 ADD MSTORE DUP5 MLOAD SWAP2 POP PUSH1 0x60 DUP2 MSTORE PUSH2 0x31E PUSH1 0x60 DUP3 ADD DUP4 PUSH2 0x280 JUMP JUMPDEST SWAP2 POP PUSH1 0x20 DUP6 ADD MLOAD PUSH1 0x20 DUP3 ADD SWAP2 POP PUSH0 JUMPDEST PUSH1 0x2 DUP2 LT ISZERO PUSH2 0x34C JUMPI DUP2 MLOAD DUP4 MSTORE PUSH1 0x20 SWAP3 DUP4 ADD SWAP3 SWAP1 SWAP2 ADD SWAP1 PUSH1 0x1 ADD PUSH2 0x32D JUMP JUMPDEST POP SWAP2 SWAP9 SWAP8 POP POP POP POP POP POP POP POP JUMP JUMPDEST PUSH1 0x1 PUSH1 0x1 PUSH1 0xA0 SHL SUB DUP2 AND DUP2 EQ PUSH2 0x36E JUMPI PUSH0 DUP1 REVERT JUMPDEST POP JUMP JUMPDEST PUSH0 PUSH8 0xFFFFFFFFFFFFFFFF DUP3 GT ISZERO PUSH2 0x38A JUMPI PUSH2 0x38A PUSH2 0x163 JUMP JUMPDEST POP PUSH1 0x5 SHL PUSH1 0x20 ADD SWAP1 JUMP JUMPDEST PUSH0 PUSH1 0x60 DUP3 DUP5 SUB SLT ISZERO PUSH2 0x3A4 JUMPI PUSH0 DUP1 REVERT JUMPDEST PUSH2 0x3AC PUSH2 0x177 JUMP JUMPDEST SWAP1 POP DUP2 CALLDATALOAD PUSH8 0xFFFFFFFFFFFFFFFF DUP2 GT ISZERO PUSH2 0x3C4 JUMPI PUSH0 DUP1 REVERT JUMPDEST DUP3 ADD PUSH1 0x1F DUP2 ADD DUP5 SGT PUSH2 0x3D4 JUMPI PUSH0 DUP1 REVERT JUMPDEST PUSH2 0x3E3 DUP5 DUP3 CALLDATALOAD PUSH1 0x20 DUP5 ADD PUSH2 0x1F8 JUMP JUMPDEST DUP3 MSTORE POP DUP3 PUSH1 0x3F DUP4 ADD SLT PUSH2 0x3F4 JUMPI PUSH0 DUP1 REVERT JUMPDEST PUSH2 0x3FE PUSH1 0x40 PUSH2 0x1A0 JUMP JUMPDEST DUP1 PUSH1 0x60 DUP5 ADD DUP6 DUP2 GT ISZERO PUSH2 0x40F JUMPI PUSH0 DUP1 REVERT JUMPDEST PUSH1 0x20 DUP6 ADD JUMPDEST DUP2 DUP2 LT ISZERO PUSH2 0x42C JUMPI DUP1 CALLDATALOAD DUP5 MSTORE PUSH1 0x20 SWAP4 DUP5 ADD SWAP4 ADD PUSH2 0x414 JUMP JUMPDEST POP POP PUSH1 0x20 DUP4 ADD MSTORE POP SWAP3 SWAP2 POP POP JUMP JUMPDEST PUSH0 DUP1 PUSH0 DUP1 PUSH1 0x80 DUP6 DUP8 SUB SLT ISZERO PUSH2 0x44D JUMPI PUSH0 DUP1 REVERT JUMPDEST DUP5 CALLDATALOAD SWAP4 POP PUSH1 0x20 DUP6 ADD CALLDATALOAD PUSH2 0x45F DUP2 PUSH2 0x35A JUMP JUMPDEST SWAP3 POP PUSH1 0x40 DUP6 ADD CALLDATALOAD PUSH8 0xFFFFFFFFFFFFFFFF DUP2 GT ISZERO PUSH2 0x47A JUMPI PUSH0 DUP1 REVERT JUMPDEST DUP6 ADD PUSH1 0x1F DUP2 ADD DUP8 SGT PUSH2 0x48A JUMPI PUSH0 DUP1 REVERT JUMPDEST DUP1 CALLDATALOAD PUSH2 0x498 PUSH2 0x205 DUP3 PUSH2 0x371 JUMP JUMPDEST DUP1 DUP3 DUP3 MSTORE PUSH1 0x20 DUP3 ADD SWAP2 POP PUSH1 0x20 DUP4 PUSH1 0x5 SHL DUP6 ADD ADD SWAP3 POP DUP10 DUP4 GT ISZERO PUSH2 0x4B9 JUMPI PUSH0 DUP1 REVERT JUMPDEST PUSH1 0x20 DUP5 ADD SWAP4 POP JUMPDEST DUP3 DUP5 LT ISZERO PUSH2 0x4DB JUMPI DUP4 CALLDATALOAD DUP3 MSTORE PUSH1 0x20 SWAP4 DUP5 ADD SWAP4 SWAP1 SWAP2 ADD SWAP1 PUSH2 0x4C0 JUMP JUMPDEST SWAP5 POP POP POP POP PUSH1 0x60 DUP6 ADD CALLDATALOAD PUSH8 0xFFFFFFFFFFFFFFFF DUP2 GT ISZERO PUSH2 0x4F9 JUMPI PUSH0 DUP1 REVERT JUMPDEST PUSH2 0x505 DUP8 DUP3 DUP9 ADD PUSH2 0x394 JUMP JUMPDEST SWAP2 POP POP SWAP3 SWAP6 SWAP2 SWAP5 POP SWAP3 POP JUMP JUMPDEST PUSH1 0x20 DUP2 MSTORE PUSH0 PUSH2 0x523 PUSH1 0x20 DUP4 ADD DUP5 PUSH2 0x280 JUMP JUMPDEST SWAP4 SWAP3 POP POP POP JUMP JUMPDEST PUSH0 PUSH1 0x60 DUP3 DUP5 SUB SLT ISZERO PUSH2 0x53A JUMPI PUSH0 DUP1 REVERT JUMPDEST PUSH2 0x542 PUSH2 0x177 JUMP JUMPDEST SWAP1 POP DUP2 MLOAD PUSH8 0xFFFFFFFFFFFFFFFF DUP2 GT ISZERO PUSH2 0x55A JUMPI PUSH0 DUP1 REVERT JUMPDEST DUP3 ADD PUSH1 0x1F DUP2 ADD DUP5 SGT PUSH2 0x56A JUMPI PUSH0 DUP1 REVERT JUMPDEST DUP1 MLOAD PUSH2 0x578 PUSH2 0x205 DUP3 PUSH2 0x1D1 JUMP JUMPDEST DUP2 DUP2 MSTORE DUP6 PUSH1 0x20 DUP4 DUP6 ADD ADD GT ISZERO PUSH2 0x58C JUMPI PUSH0 DUP1 REVERT JUMPDEST DUP2 PUSH1 0x20 DUP5 ADD PUSH1 0x20 DUP4 ADD MCOPY PUSH0 PUSH1 0x20 DUP4 DUP4 ADD ADD MSTORE DUP1 DUP5 MSTORE POP POP POP DUP3 PUSH1 0x3F DUP4 ADD SLT PUSH2 0x5B2 JUMPI PUSH0 DUP1 REVERT JUMPDEST PUSH2 0x5BC PUSH1 0x40 PUSH2 0x1A0 JUMP JUMPDEST DUP1 PUSH1 0x60 DUP5 ADD DUP6 DUP2 GT ISZERO PUSH2 0x5CD JUMPI PUSH0 DUP1 REVERT JUMPDEST PUSH1 0x20 DUP6 ADD JUMPDEST DUP2 DUP2 LT ISZERO PUSH2 0x42C JUMPI DUP1 MLOAD DUP5 MSTORE PUSH1 0x20 SWAP4 DUP5 ADD SWAP4 ADD PUSH2 0x5D2 JUMP JUMPDEST PUSH0 DUP1 PUSH0 DUP1 PUSH1 0x80 DUP6 DUP8 SUB SLT ISZERO PUSH2 0x5FD JUMPI PUSH0 DUP1 REVERT JUMPDEST DUP5 MLOAD PUSH1 0x20 DUP7 ADD MLOAD SWAP1 SWAP5 POP PUSH2 0x610 DUP2 PUSH2 0x35A JUMP JUMPDEST PUSH1 0x40 DUP7 ADD MLOAD SWAP1 SWAP4 POP PUSH8 0xFFFFFFFFFFFFFFFF DUP2 GT ISZERO PUSH2 0x62C JUMPI PUSH0 DUP1 REVERT JUMPDEST DUP6 ADD PUSH1 0x1F DUP2 ADD DUP8 SGT PUSH2 0x63C JUMPI PUSH0 DUP1 REVERT JUMPDEST DUP1 MLOAD PUSH2 0x64A PUSH2 0x205 DUP3 PUSH2 0x371 JUMP JUMPDEST DUP1 DUP3 DUP3 MSTORE PUSH1 0x20 DUP3 ADD SWAP2 POP PUSH1 0x20 DUP4 PUSH1 0x5 SHL DUP6 ADD ADD SWAP3 POP DUP10 DUP4 GT ISZERO PUSH2 0x66B JUMPI PUSH0 DUP1 REVERT JUMPDEST PUSH1 0x20 DUP5 ADD SWAP4 POP JUMPDEST DUP3 DUP5 LT ISZERO PUSH2 0x68D JUMPI DUP4 MLOAD DUP3 MSTORE PUSH1 0x20 SWAP4 DUP5 ADD SWAP4 SWAP1 SWAP2 ADD SWAP1 PUSH2 0x672 JUMP JUMPDEST DUP1 SWAP6 POP POP POP POP POP PUSH1 0x60 DUP6 ADD MLOAD PUSH8 0xFFFFFFFFFFFFFFFF DUP2 GT ISZERO PUSH2 0x6AD JUMPI PUSH0 DUP1 REVERT JUMPDEST PUSH2 0x505 DUP8 DUP3 DUP9 ADD PUSH2 0x52A JUMP INVALID LOG2 PUSH5 0x6970667358 0x22 SLT KECCAK256 0xF9 0xDF PUSH26 0x66AED72A991B2B2337BE2C135742906DC07C2338FD7AADBF0535 0xCE 0xAA PREVRANDAO PUSH5 0x736F6C6343 STOP ADDMOD BYTE STOP CALLER "
				},
				"gasEstimates": {
					"creation": {
						"codeDepositCost": "355000",
						"executionCost": "391",
						"totalCost": "355391"
					},
					"external": {
						"decodeData(bytes)": "infinite",
						"encodeData(uint256,address,uint256[],(string,uint256[2]))": "infinite",
						"encodeWithSignature()": "infinite"
					}
				},
				"methodIdentifiers": {
					"decodeData(bytes)": "447a06f5",
					"encodeData(uint256,address,uint256[],(string,uint256[2]))": "985f36f4",
					"encodeWithSignature()": "e4f2a84a"
				}
			},
			"storageLayout": {
				"storage": [],
				"types": null
			},
			"userdoc": {
				"kind": "user",
				"methods": {
					"decodeData(bytes)": {
						"notice": "解码数据"
					},
					"encodeData(uint256,address,uint256[],(string,uint256[2]))": {
						"notice": "编码数据"
					}
				},
				"version": 1
			}
		}
	}
}