{
	"contracts/demo/MerkleTree.sol": {
		"MerkleTree": {
			"abi": [
				{
					"inputs": [],
					"stateMutability": "nonpayable",
					"type": "constructor"
				},
				{
					"anonymous": false,
					"inputs": [
						{
							"indexed": true,
							"internalType": "address",
							"name": "previousOwner",
							"type": "address"
						},
						{
							"indexed": true,
							"internalType": "address",
							"name": "newOwner",
							"type": "address"
						}
					],
					"name": "OwnershipTransferred",
					"type": "event"
				},
				{
					"inputs": [],
					"name": "owner",
					"outputs": [
						{
							"internalType": "address",
							"name": "",
							"type": "address"
						}
					],
					"stateMutability": "view",
					"type": "function"
				},
				{
					"inputs": [],
					"name": "renounceOwnership",
					"outputs": [],
					"stateMutability": "nonpayable",
					"type": "function"
				},
				{
					"inputs": [
						{
							"internalType": "bytes32",
							"name": "_root",
							"type": "bytes32"
						}
					],
					"name": "setRoot",
					"outputs": [],
					"stateMutability": "nonpayable",
					"type": "function"
				},
				{
					"inputs": [
						{
							"internalType": "address",
							"name": "newOwner",
							"type": "address"
						}
					],
					"name": "transferOwnership",
					"outputs": [],
					"stateMutability": "nonpayable",
					"type": "function"
				},
				{
					"inputs": [
						{
							"internalType": "address",
							"name": "_address",
							"type": "address"
						},
						{
							"internalType": "bytes32[]",
							"name": "_proof",
							"type": "bytes32[]"
						}
					],
					"name": "valid",
					"outputs": [
						{
							"internalType": "bool",
							"name": "",
							"type": "bool"
						}
					],
					"stateMutability": "view",
					"type": "function"
				}
			],
			"devdoc": {
				"author": "The name of the author",
				"details": "Explain to a developer any extra details",
				"kind": "dev",
				"methods": {
					"owner()": {
						"details": "Returns the address of the current owner."
					},
					"renounceOwnership()": {
						"details": "Leaves the contract without owner. It will not be possible to call `onlyOwner` functions. Can only be called by the current owner. NOTE: Renouncing ownership will leave the contract without an owner, thereby disabling any functionality that is only available to the owner."
					},
					"transferOwnership(address)": {
						"details": "Transfers ownership of the contract to a new account (`newOwner`). Can only be called by the current owner."
					}
				},
				"title": "默克尔树",
				"version": 1
			},
			"evm": {
				"assembly": "    /* \"contracts/demo/MerkleTree.sol\":349:832  contract MerkleTree is Ownable {... */\n  mstore(0x40, 0x80)\n    /* \"contracts/demo/MerkleTree.sol\":416:449  constructor() Ownable(){... */\n  callvalue\n  dup1\n  iszero\n  tag_1\n  jumpi\n  0x00\n  dup1\n  revert\ntag_1:\n  pop\n    /* \"@openzeppelin/contracts/access/Ownable.sol\":936:968  _transferOwnership(_msgSender()) */\n  tag_5\n    /* \"@openzeppelin/contracts/utils/Context.sol\":734:744  msg.sender */\n  caller\n    /* \"@openzeppelin/contracts/access/Ownable.sol\":936:954  _transferOwnership */\n  tag_8\n    /* \"@openzeppelin/contracts/access/Ownable.sol\":936:968  _transferOwnership(_msgSender()) */\n  jump\t// in\ntag_5:\n    /* \"contracts/demo/MerkleTree.sol\":349:832  contract MerkleTree is Ownable {... */\n  jump(tag_10)\n    /* \"@openzeppelin/contracts/access/Ownable.sol\":2426:2613  function _transferOwnership(address newOwner) internal virtual {... */\ntag_8:\n    /* \"@openzeppelin/contracts/access/Ownable.sol\":2499:2515  address oldOwner */\n  0x00\n    /* \"@openzeppelin/contracts/access/Ownable.sol\":2518:2524  _owner */\n  dup1\n  sload\n  sub(shl(0xa0, 0x01), 0x01)\n    /* \"@openzeppelin/contracts/access/Ownable.sol\":2534:2551  _owner = newOwner */\n  dup4\n  dup2\n  and\n  not(sub(shl(0xa0, 0x01), 0x01))\n  dup4\n  and\n  dup2\n  or\n  dup5\n  sstore\n    /* \"@openzeppelin/contracts/access/Ownable.sol\":2566:2606  OwnershipTransferred(oldOwner, newOwner) */\n  mload(0x40)\n    /* \"@openzeppelin/contracts/access/Ownable.sol\":2518:2524  _owner */\n  swap2\n  swap1\n  swap3\n  and\n  swap3\n  dup4\n  swap2\n    /* \"@openzeppelin/contracts/access/Ownable.sol\":2566:2606  OwnershipTransferred(oldOwner, newOwner) */\n  0x8be0079c531659141344cd1fd0a4f28419497f9722a3daafe3b4186f6b6457e0\n  swap2\n    /* \"@openzeppelin/contracts/access/Ownable.sol\":2499:2515  address oldOwner */\n  swap1\n    /* \"@openzeppelin/contracts/access/Ownable.sol\":2566:2606  OwnershipTransferred(oldOwner, newOwner) */\n  log3\n    /* \"@openzeppelin/contracts/access/Ownable.sol\":2489:2613  {... */\n  pop\n    /* \"@openzeppelin/contracts/access/Ownable.sol\":2426:2613  function _transferOwnership(address newOwner) internal virtual {... */\n  pop\n  jump\t// out\n    /* \"contracts/demo/MerkleTree.sol\":349:832  contract MerkleTree is Ownable {... */\ntag_10:\n  dataSize(sub_0)\n  dup1\n  dataOffset(sub_0)\n  0x00\n  codecopy\n  0x00\n  return\nstop\n\nsub_0: assembly {\n        /* \"contracts/demo/MerkleTree.sol\":349:832  contract MerkleTree is Ownable {... */\n      mstore(0x40, 0x80)\n      callvalue\n      dup1\n      iszero\n      tag_1\n      jumpi\n      0x00\n      dup1\n      revert\n    tag_1:\n      pop\n      jumpi(tag_2, lt(calldatasize, 0x04))\n      shr(0xe0, calldataload(0x00))\n      dup1\n      0x715018a6\n      eq\n      tag_3\n      jumpi\n      dup1\n      0x8da5cb5b\n      eq\n      tag_4\n      jumpi\n      dup1\n      0xb416813e\n      eq\n      tag_5\n      jumpi\n      dup1\n      0xdab5f340\n      eq\n      tag_6\n      jumpi\n      dup1\n      0xf2fde38b\n      eq\n      tag_7\n      jumpi\n    tag_2:\n      0x00\n      dup1\n      revert\n        /* \"@openzeppelin/contracts/access/Ownable.sol\":1824:1925  function renounceOwnership() public virtual onlyOwner {... */\n    tag_3:\n      tag_8\n      tag_9\n      jump\t// in\n    tag_8:\n      stop\n        /* \"@openzeppelin/contracts/access/Ownable.sol\":1201:1286  function owner() public view virtual returns (address) {... */\n    tag_4:\n        /* \"@openzeppelin/contracts/access/Ownable.sol\":1247:1254  address */\n      0x00\n        /* \"@openzeppelin/contracts/access/Ownable.sol\":1273:1279  _owner */\n      sload\n        /* \"@openzeppelin/contracts/access/Ownable.sol\":1201:1286  function owner() public view virtual returns (address) {... */\n      mload(0x40)\n      sub(shl(0xa0, 0x01), 0x01)\n        /* \"@openzeppelin/contracts/access/Ownable.sol\":1273:1279  _owner */\n      swap1\n      swap2\n      and\n        /* \"#utility.yul\":160:211   */\n      dup2\n      mstore\n        /* \"#utility.yul\":148:150   */\n      0x20\n        /* \"#utility.yul\":133:151   */\n      add\n        /* \"@openzeppelin/contracts/access/Ownable.sol\":1201:1286  function owner() public view virtual returns (address) {... */\n    tag_12:\n      mload(0x40)\n      dup1\n      swap2\n      sub\n      swap1\n      return\n        /* \"contracts/demo/MerkleTree.sol\":458:741  function valid(address _address, bytes32[] calldata _proof)... */\n    tag_5:\n      tag_14\n      tag_15\n      calldatasize\n      0x04\n      tag_16\n      jump\t// in\n    tag_15:\n      tag_17\n      jump\t// in\n    tag_14:\n      mload(0x40)\n        /* \"#utility.yul\":1254:1268   */\n      swap1\n      iszero\n        /* \"#utility.yul\":1247:1269   */\n      iszero\n        /* \"#utility.yul\":1229:1270   */\n      dup2\n      mstore\n        /* \"#utility.yul\":1217:1219   */\n      0x20\n        /* \"#utility.yul\":1202:1220   */\n      add\n        /* \"contracts/demo/MerkleTree.sol\":458:741  function valid(address _address, bytes32[] calldata _proof)... */\n      tag_12\n        /* \"#utility.yul\":1089:1276   */\n      jump\n        /* \"contracts/demo/MerkleTree.sol\":749:829  function setRoot(bytes32 _root) public onlyOwner {... */\n    tag_6:\n      tag_8\n      tag_21\n      calldatasize\n      0x04\n      tag_22\n      jump\t// in\n    tag_21:\n      tag_23\n      jump\t// in\n        /* \"@openzeppelin/contracts/access/Ownable.sol\":2074:2272  function transferOwnership(address newOwner) public virtual onlyOwner {... */\n    tag_7:\n      tag_8\n      tag_25\n      calldatasize\n      0x04\n      tag_26\n      jump\t// in\n    tag_25:\n      tag_27\n      jump\t// in\n        /* \"@openzeppelin/contracts/access/Ownable.sol\":1824:1925  function renounceOwnership() public virtual onlyOwner {... */\n    tag_9:\n        /* \"@openzeppelin/contracts/access/Ownable.sol\":1094:1107  _checkOwner() */\n      tag_29\n        /* \"@openzeppelin/contracts/access/Ownable.sol\":1094:1105  _checkOwner */\n      tag_30\n        /* \"@openzeppelin/contracts/access/Ownable.sol\":1094:1107  _checkOwner() */\n      jump\t// in\n    tag_29:\n        /* \"@openzeppelin/contracts/access/Ownable.sol\":1888:1918  _transferOwnership(address(0)) */\n      tag_32\n        /* \"@openzeppelin/contracts/access/Ownable.sol\":1915:1916  0 */\n      0x00\n        /* \"@openzeppelin/contracts/access/Ownable.sol\":1888:1906  _transferOwnership */\n      tag_33\n        /* \"@openzeppelin/contracts/access/Ownable.sol\":1888:1918  _transferOwnership(address(0)) */\n      jump\t// in\n    tag_32:\n        /* \"@openzeppelin/contracts/access/Ownable.sol\":1824:1925  function renounceOwnership() public virtual onlyOwner {... */\n      jump\t// out\n        /* \"contracts/demo/MerkleTree.sol\":458:741  function valid(address _address, bytes32[] calldata _proof)... */\n    tag_17:\n        /* \"contracts/demo/MerkleTree.sol\":613:639  abi.encodePacked(_address) */\n      mload(0x40)\n      not(0xffffffffffffffffffffffff)\n        /* \"#utility.yul\":1806:1808   */\n      0x60\n        /* \"#utility.yul\":1802:1817   */\n      dup6\n      swap1\n      shl\n        /* \"#utility.yul\":1798:1851   */\n      and\n        /* \"contracts/demo/MerkleTree.sol\":613:639  abi.encodePacked(_address) */\n      0x20\n      dup3\n      add\n        /* \"#utility.yul\":1786:1852   */\n      mstore\n        /* \"contracts/demo/MerkleTree.sol\":566:570  bool */\n      0x00\n      swap1\n      dup2\n      swap1\n        /* \"#utility.yul\":1868:1880   */\n      0x34\n      add\n        /* \"contracts/demo/MerkleTree.sol\":613:639  abi.encodePacked(_address) */\n      mload(0x40)\n      0x20\n      dup2\n      dup4\n      sub\n      sub\n      dup2\n      mstore\n      swap1\n      0x40\n      mstore\n        /* \"contracts/demo/MerkleTree.sol\":603:640  keccak256(abi.encodePacked(_address)) */\n      dup1\n      mload\n      swap1\n      0x20\n      add\n      keccak256\n        /* \"contracts/demo/MerkleTree.sol\":588:640  bytes32 leaf = keccak256(abi.encodePacked(_address)) */\n      swap1\n      pop\n        /* \"contracts/demo/MerkleTree.sol\":659:697  MerkleProof.verify(_proof, root, leaf) */\n      tag_38\n        /* \"contracts/demo/MerkleTree.sol\":678:684  _proof */\n      dup5\n      dup5\n        /* \"contracts/demo/MerkleTree.sol\":659:697  MerkleProof.verify(_proof, root, leaf) */\n      dup1\n      dup1\n      0x20\n      mul\n      0x20\n      add\n      mload(0x40)\n      swap1\n      dup2\n      add\n      0x40\n      mstore\n      dup1\n      swap4\n      swap3\n      swap2\n      swap1\n      dup2\n      dup2\n      mstore\n      0x20\n      add\n      dup4\n      dup4\n      0x20\n      mul\n      dup1\n      dup3\n      dup5\n      calldatacopy\n      0x00\n      swap3\n      add\n      swap2\n      swap1\n      swap2\n      mstore\n      pop\n      pop\n        /* \"contracts/demo/MerkleTree.sol\":686:690  root */\n      sload(0x01)\n      swap2\n      pop\n        /* \"contracts/demo/MerkleTree.sol\":692:696  leaf */\n      dup5\n      swap1\n      pop\n        /* \"contracts/demo/MerkleTree.sol\":659:677  MerkleProof.verify */\n      tag_39\n        /* \"contracts/demo/MerkleTree.sol\":659:697  MerkleProof.verify(_proof, root, leaf) */\n      jump\t// in\n    tag_38:\n        /* \"contracts/demo/MerkleTree.sol\":651:709  require(MerkleProof.verify(_proof, root, leaf), \"Invalid\") */\n      tag_40\n      jumpi\n      mload(0x40)\n      shl(0xe5, 0x461bcd)\n      dup2\n      mstore\n        /* \"#utility.yul\":2093:2095   */\n      0x20\n        /* \"contracts/demo/MerkleTree.sol\":651:709  require(MerkleProof.verify(_proof, root, leaf), \"Invalid\") */\n      0x04\n      dup3\n      add\n        /* \"#utility.yul\":2075:2096   */\n      mstore\n        /* \"#utility.yul\":2132:2133   */\n      0x07\n        /* \"#utility.yul\":2112:2130   */\n      0x24\n      dup3\n      add\n        /* \"#utility.yul\":2105:2134   */\n      mstore\n      shl(0xca, 0x125b9d985b1a59)\n        /* \"#utility.yul\":2150:2168   */\n      0x44\n      dup3\n      add\n        /* \"#utility.yul\":2143:2180   */\n      mstore\n        /* \"#utility.yul\":2197:2215   */\n      0x64\n      add\n        /* \"contracts/demo/MerkleTree.sol\":651:709  require(MerkleProof.verify(_proof, root, leaf), \"Invalid\") */\n    tag_41:\n      mload(0x40)\n      dup1\n      swap2\n      sub\n      swap1\n      revert\n    tag_40:\n      pop\n        /* \"contracts/demo/MerkleTree.sol\":729:733  true */\n      0x01\n      swap5\n        /* \"contracts/demo/MerkleTree.sol\":458:741  function valid(address _address, bytes32[] calldata _proof)... */\n      swap4\n      pop\n      pop\n      pop\n      pop\n      jump\t// out\n        /* \"contracts/demo/MerkleTree.sol\":749:829  function setRoot(bytes32 _root) public onlyOwner {... */\n    tag_23:\n        /* \"@openzeppelin/contracts/access/Ownable.sol\":1094:1107  _checkOwner() */\n      tag_44\n        /* \"@openzeppelin/contracts/access/Ownable.sol\":1094:1105  _checkOwner */\n      tag_30\n        /* \"@openzeppelin/contracts/access/Ownable.sol\":1094:1107  _checkOwner() */\n      jump\t// in\n    tag_44:\n        /* \"contracts/demo/MerkleTree.sol\":809:813  root */\n      0x01\n        /* \"contracts/demo/MerkleTree.sol\":809:821  root = _root */\n      sstore\n        /* \"contracts/demo/MerkleTree.sol\":749:829  function setRoot(bytes32 _root) public onlyOwner {... */\n      jump\t// out\n        /* \"@openzeppelin/contracts/access/Ownable.sol\":2074:2272  function transferOwnership(address newOwner) public virtual onlyOwner {... */\n    tag_27:\n        /* \"@openzeppelin/contracts/access/Ownable.sol\":1094:1107  _checkOwner() */\n      tag_47\n        /* \"@openzeppelin/contracts/access/Ownable.sol\":1094:1105  _checkOwner */\n      tag_30\n        /* \"@openzeppelin/contracts/access/Ownable.sol\":1094:1107  _checkOwner() */\n      jump\t// in\n    tag_47:\n      sub(shl(0xa0, 0x01), 0x01)\n        /* \"@openzeppelin/contracts/access/Ownable.sol\":2162:2184  newOwner != address(0) */\n      dup2\n      and\n        /* \"@openzeppelin/contracts/access/Ownable.sol\":2154:2227  require(newOwner != address(0), \"Ownable: new owner is the zero address\") */\n      tag_49\n      jumpi\n      mload(0x40)\n      shl(0xe5, 0x461bcd)\n      dup2\n      mstore\n        /* \"#utility.yul\":2428:2430   */\n      0x20\n        /* \"@openzeppelin/contracts/access/Ownable.sol\":2154:2227  require(newOwner != address(0), \"Ownable: new owner is the zero address\") */\n      0x04\n      dup3\n      add\n        /* \"#utility.yul\":2410:2431   */\n      mstore\n        /* \"#utility.yul\":2467:2469   */\n      0x26\n        /* \"#utility.yul\":2447:2465   */\n      0x24\n      dup3\n      add\n        /* \"#utility.yul\":2440:2470   */\n      mstore\n        /* \"#utility.yul\":2506:2540   */\n      0x4f776e61626c653a206e6577206f776e657220697320746865207a65726f2061\n        /* \"#utility.yul\":2486:2504   */\n      0x44\n      dup3\n      add\n        /* \"#utility.yul\":2479:2541   */\n      mstore\n      shl(0xd0, 0x646472657373)\n        /* \"#utility.yul\":2557:2575   */\n      0x64\n      dup3\n      add\n        /* \"#utility.yul\":2550:2586   */\n      mstore\n        /* \"#utility.yul\":2603:2622   */\n      0x84\n      add\n        /* \"@openzeppelin/contracts/access/Ownable.sol\":2154:2227  require(newOwner != address(0), \"Ownable: new owner is the zero address\") */\n      tag_41\n        /* \"#utility.yul\":2226:2628   */\n      jump\n        /* \"@openzeppelin/contracts/access/Ownable.sol\":2154:2227  require(newOwner != address(0), \"Ownable: new owner is the zero address\") */\n    tag_49:\n        /* \"@openzeppelin/contracts/access/Ownable.sol\":2237:2265  _transferOwnership(newOwner) */\n      tag_52\n        /* \"@openzeppelin/contracts/access/Ownable.sol\":2256:2264  newOwner */\n      dup2\n        /* \"@openzeppelin/contracts/access/Ownable.sol\":2237:2255  _transferOwnership */\n      tag_33\n        /* \"@openzeppelin/contracts/access/Ownable.sol\":2237:2265  _transferOwnership(newOwner) */\n      jump\t// in\n    tag_52:\n        /* \"@openzeppelin/contracts/access/Ownable.sol\":2074:2272  function transferOwnership(address newOwner) public virtual onlyOwner {... */\n      pop\n      jump\t// out\n        /* \"@openzeppelin/contracts/access/Ownable.sol\":1359:1489  function _checkOwner() internal view virtual {... */\n    tag_30:\n        /* \"@openzeppelin/contracts/access/Ownable.sol\":1247:1254  address */\n      0x00\n        /* \"@openzeppelin/contracts/access/Ownable.sol\":1273:1279  _owner */\n      sload\n      sub(shl(0xa0, 0x01), 0x01)\n      and\n        /* \"@openzeppelin/contracts/utils/Context.sol\":734:744  msg.sender */\n      caller\n        /* \"@openzeppelin/contracts/access/Ownable.sol\":1422:1445  owner() == _msgSender() */\n      eq\n        /* \"@openzeppelin/contracts/access/Ownable.sol\":1414:1482  require(owner() == _msgSender(), \"Ownable: caller is not the owner\") */\n      tag_32\n      jumpi\n      mload(0x40)\n      shl(0xe5, 0x461bcd)\n      dup2\n      mstore\n        /* \"#utility.yul\":2835:2837   */\n      0x20\n        /* \"@openzeppelin/contracts/access/Ownable.sol\":1414:1482  require(owner() == _msgSender(), \"Ownable: caller is not the owner\") */\n      0x04\n      dup3\n      add\n        /* \"#utility.yul\":2817:2838   */\n      dup2\n      swap1\n      mstore\n        /* \"#utility.yul\":2854:2872   */\n      0x24\n      dup3\n      add\n        /* \"#utility.yul\":2847:2877   */\n      mstore\n        /* \"#utility.yul\":2913:2947   */\n      0x4f776e61626c653a2063616c6c6572206973206e6f7420746865206f776e6572\n        /* \"#utility.yul\":2893:2911   */\n      0x44\n      dup3\n      add\n        /* \"#utility.yul\":2886:2948   */\n      mstore\n        /* \"#utility.yul\":2965:2983   */\n      0x64\n      add\n        /* \"@openzeppelin/contracts/access/Ownable.sol\":1414:1482  require(owner() == _msgSender(), \"Ownable: caller is not the owner\") */\n      tag_41\n        /* \"#utility.yul\":2633:2989   */\n      jump\n        /* \"@openzeppelin/contracts/access/Ownable.sol\":2426:2613  function _transferOwnership(address newOwner) internal virtual {... */\n    tag_33:\n        /* \"@openzeppelin/contracts/access/Ownable.sol\":2499:2515  address oldOwner */\n      0x00\n        /* \"@openzeppelin/contracts/access/Ownable.sol\":2518:2524  _owner */\n      dup1\n      sload\n      sub(shl(0xa0, 0x01), 0x01)\n        /* \"@openzeppelin/contracts/access/Ownable.sol\":2534:2551  _owner = newOwner */\n      dup4\n      dup2\n      and\n      not(sub(shl(0xa0, 0x01), 0x01))\n      dup4\n      and\n      dup2\n      or\n      dup5\n      sstore\n        /* \"@openzeppelin/contracts/access/Ownable.sol\":2566:2606  OwnershipTransferred(oldOwner, newOwner) */\n      mload(0x40)\n        /* \"@openzeppelin/contracts/access/Ownable.sol\":2518:2524  _owner */\n      swap2\n      swap1\n      swap3\n      and\n      swap3\n      dup4\n      swap2\n        /* \"@openzeppelin/contracts/access/Ownable.sol\":2566:2606  OwnershipTransferred(oldOwner, newOwner) */\n      0x8be0079c531659141344cd1fd0a4f28419497f9722a3daafe3b4186f6b6457e0\n      swap2\n        /* \"@openzeppelin/contracts/access/Ownable.sol\":2499:2515  address oldOwner */\n      swap1\n        /* \"@openzeppelin/contracts/access/Ownable.sol\":2566:2606  OwnershipTransferred(oldOwner, newOwner) */\n      log3\n        /* \"@openzeppelin/contracts/access/Ownable.sol\":2489:2613  {... */\n      pop\n        /* \"@openzeppelin/contracts/access/Ownable.sol\":2426:2613  function _transferOwnership(address newOwner) internal virtual {... */\n      pop\n      jump\t// out\n        /* \"@openzeppelin/contracts/utils/cryptography/MerkleProof.sol\":1156:1310  function verify(bytes32[] memory proof, bytes32 root, bytes32 leaf) internal pure returns (bool) {... */\n    tag_39:\n        /* \"@openzeppelin/contracts/utils/cryptography/MerkleProof.sol\":1247:1251  bool */\n      0x00\n        /* \"@openzeppelin/contracts/utils/cryptography/MerkleProof.sol\":1299:1303  root */\n      dup3\n        /* \"@openzeppelin/contracts/utils/cryptography/MerkleProof.sol\":1270:1295  processProof(proof, leaf) */\n      tag_62\n        /* \"@openzeppelin/contracts/utils/cryptography/MerkleProof.sol\":1283:1288  proof */\n      dup6\n        /* \"@openzeppelin/contracts/utils/cryptography/MerkleProof.sol\":1290:1294  leaf */\n      dup5\n        /* \"@openzeppelin/contracts/utils/cryptography/MerkleProof.sol\":1270:1282  processProof */\n      tag_63\n        /* \"@openzeppelin/contracts/utils/cryptography/MerkleProof.sol\":1270:1295  processProof(proof, leaf) */\n      jump\t// in\n    tag_62:\n        /* \"@openzeppelin/contracts/utils/cryptography/MerkleProof.sol\":1270:1303  processProof(proof, leaf) == root */\n      eq\n      swap5\n        /* \"@openzeppelin/contracts/utils/cryptography/MerkleProof.sol\":1156:1310  function verify(bytes32[] memory proof, bytes32 root, bytes32 leaf) internal pure returns (bool) {... */\n      swap4\n      pop\n      pop\n      pop\n      pop\n      jump\t// out\n        /* \"@openzeppelin/contracts/utils/cryptography/MerkleProof.sol\":1934:2224  function processProof(bytes32[] memory proof, bytes32 leaf) internal pure returns (bytes32) {... */\n    tag_63:\n        /* \"@openzeppelin/contracts/utils/cryptography/MerkleProof.sol\":2017:2024  bytes32 */\n      0x00\n        /* \"@openzeppelin/contracts/utils/cryptography/MerkleProof.sol\":2059:2063  leaf */\n      dup2\n        /* \"@openzeppelin/contracts/utils/cryptography/MerkleProof.sol\":2017:2024  bytes32 */\n      dup2\n        /* \"@openzeppelin/contracts/utils/cryptography/MerkleProof.sol\":2073:2189  for (uint256 i = 0; i < proof.length; i++) {... */\n    tag_66:\n        /* \"@openzeppelin/contracts/utils/cryptography/MerkleProof.sol\":2097:2102  proof */\n      dup5\n        /* \"@openzeppelin/contracts/utils/cryptography/MerkleProof.sol\":2097:2109  proof.length */\n      mload\n        /* \"@openzeppelin/contracts/utils/cryptography/MerkleProof.sol\":2093:2094  i */\n      dup2\n        /* \"@openzeppelin/contracts/utils/cryptography/MerkleProof.sol\":2093:2109  i < proof.length */\n      lt\n        /* \"@openzeppelin/contracts/utils/cryptography/MerkleProof.sol\":2073:2189  for (uint256 i = 0; i < proof.length; i++) {... */\n      iszero\n      tag_67\n      jumpi\n        /* \"@openzeppelin/contracts/utils/cryptography/MerkleProof.sol\":2145:2178  _hashPair(computedHash, proof[i]) */\n      tag_69\n        /* \"@openzeppelin/contracts/utils/cryptography/MerkleProof.sol\":2155:2167  computedHash */\n      dup3\n        /* \"@openzeppelin/contracts/utils/cryptography/MerkleProof.sol\":2169:2174  proof */\n      dup7\n        /* \"@openzeppelin/contracts/utils/cryptography/MerkleProof.sol\":2175:2176  i */\n      dup4\n        /* \"@openzeppelin/contracts/utils/cryptography/MerkleProof.sol\":2169:2177  proof[i] */\n      dup2\n      mload\n      dup2\n      lt\n      tag_71\n      jumpi\n      tag_71\n      tag_72\n      jump\t// in\n    tag_71:\n      0x20\n      mul\n      0x20\n      add\n      add\n      mload\n        /* \"@openzeppelin/contracts/utils/cryptography/MerkleProof.sol\":2145:2154  _hashPair */\n      tag_73\n        /* \"@openzeppelin/contracts/utils/cryptography/MerkleProof.sol\":2145:2178  _hashPair(computedHash, proof[i]) */\n      jump\t// in\n    tag_69:\n        /* \"@openzeppelin/contracts/utils/cryptography/MerkleProof.sol\":2130:2178  computedHash = _hashPair(computedHash, proof[i]) */\n      swap2\n      pop\n        /* \"@openzeppelin/contracts/utils/cryptography/MerkleProof.sol\":2111:2114  i++ */\n      0x01\n      add\n        /* \"@openzeppelin/contracts/utils/cryptography/MerkleProof.sol\":2073:2189  for (uint256 i = 0; i < proof.length; i++) {... */\n      jump(tag_66)\n    tag_67:\n      pop\n        /* \"@openzeppelin/contracts/utils/cryptography/MerkleProof.sol\":2205:2217  computedHash */\n      swap4\n        /* \"@openzeppelin/contracts/utils/cryptography/MerkleProof.sol\":1934:2224  function processProof(bytes32[] memory proof, bytes32 leaf) internal pure returns (bytes32) {... */\n      swap3\n      pop\n      pop\n      pop\n      jump\t// out\n        /* \"@openzeppelin/contracts/utils/cryptography/MerkleProof.sol\":9205:9352  function _hashPair(bytes32 a, bytes32 b) private pure returns (bytes32) {... */\n    tag_73:\n        /* \"@openzeppelin/contracts/utils/cryptography/MerkleProof.sol\":9268:9275  bytes32 */\n      0x00\n        /* \"@openzeppelin/contracts/utils/cryptography/MerkleProof.sol\":9298:9299  b */\n      dup2\n        /* \"@openzeppelin/contracts/utils/cryptography/MerkleProof.sol\":9294:9295  a */\n      dup4\n        /* \"@openzeppelin/contracts/utils/cryptography/MerkleProof.sol\":9294:9299  a < b */\n      lt\n        /* \"@openzeppelin/contracts/utils/cryptography/MerkleProof.sol\":9294:9345  a < b ? _efficientHash(a, b) : _efficientHash(b, a) */\n      tag_75\n      jumpi\n        /* \"@openzeppelin/contracts/utils/cryptography/MerkleProof.sol\":9426:9439  bytes32 value */\n      0x00\n        /* \"@openzeppelin/contracts/utils/cryptography/MerkleProof.sol\":9517:9532  mstore(0x00, a) */\n      dup3\n      dup2\n      mstore\n        /* \"@openzeppelin/contracts/utils/cryptography/MerkleProof.sol\":9552:9556  0x20 */\n      0x20\n        /* \"@openzeppelin/contracts/utils/cryptography/MerkleProof.sol\":9545:9560  mstore(0x20, b) */\n      dup5\n      swap1\n      mstore\n        /* \"@openzeppelin/contracts/utils/cryptography/MerkleProof.sol\":9598:9602  0x40 */\n      0x40\n        /* \"@openzeppelin/contracts/utils/cryptography/MerkleProof.sol\":9582:9603  keccak256(0x00, 0x40) */\n      swap1\n      keccak256\n        /* \"@openzeppelin/contracts/utils/cryptography/MerkleProof.sol\":9294:9345  a < b ? _efficientHash(a, b) : _efficientHash(b, a) */\n      jump(tag_79)\n    tag_75:\n        /* \"@openzeppelin/contracts/utils/cryptography/MerkleProof.sol\":9426:9439  bytes32 value */\n      0x00\n        /* \"@openzeppelin/contracts/utils/cryptography/MerkleProof.sol\":9517:9532  mstore(0x00, a) */\n      dup4\n      dup2\n      mstore\n        /* \"@openzeppelin/contracts/utils/cryptography/MerkleProof.sol\":9552:9556  0x20 */\n      0x20\n        /* \"@openzeppelin/contracts/utils/cryptography/MerkleProof.sol\":9545:9560  mstore(0x20, b) */\n      dup4\n      swap1\n      mstore\n        /* \"@openzeppelin/contracts/utils/cryptography/MerkleProof.sol\":9598:9602  0x40 */\n      0x40\n        /* \"@openzeppelin/contracts/utils/cryptography/MerkleProof.sol\":9582:9603  keccak256(0x00, 0x40) */\n      swap1\n      keccak256\n        /* \"@openzeppelin/contracts/utils/cryptography/MerkleProof.sol\":9302:9322  _efficientHash(a, b) */\n    tag_79:\n        /* \"@openzeppelin/contracts/utils/cryptography/MerkleProof.sol\":9287:9345  return a < b ? _efficientHash(a, b) : _efficientHash(b, a) */\n      swap4\n        /* \"@openzeppelin/contracts/utils/cryptography/MerkleProof.sol\":9205:9352  function _hashPair(bytes32 a, bytes32 b) private pure returns (bytes32) {... */\n      swap3\n      pop\n      pop\n      pop\n      jump\t// out\n        /* \"#utility.yul\":222:395   */\n    tag_81:\n        /* \"#utility.yul\":290:310   */\n      dup1\n      calldataload\n      sub(shl(0xa0, 0x01), 0x01)\n        /* \"#utility.yul\":339:370   */\n      dup2\n      and\n        /* \"#utility.yul\":329:371   */\n      dup2\n      eq\n        /* \"#utility.yul\":319:389   */\n      tag_85\n      jumpi\n        /* \"#utility.yul\":385:386   */\n      0x00\n        /* \"#utility.yul\":382:383   */\n      dup1\n        /* \"#utility.yul\":375:387   */\n      revert\n        /* \"#utility.yul\":319:389   */\n    tag_85:\n        /* \"#utility.yul\":222:395   */\n      swap2\n      swap1\n      pop\n      jump\t// out\n        /* \"#utility.yul\":400:1084   */\n    tag_16:\n        /* \"#utility.yul\":495:501   */\n      0x00\n        /* \"#utility.yul\":503:509   */\n      dup1\n        /* \"#utility.yul\":511:517   */\n      0x00\n        /* \"#utility.yul\":564:566   */\n      0x40\n        /* \"#utility.yul\":552:561   */\n      dup5\n        /* \"#utility.yul\":543:550   */\n      dup7\n        /* \"#utility.yul\":539:562   */\n      sub\n        /* \"#utility.yul\":535:567   */\n      slt\n        /* \"#utility.yul\":532:584   */\n      iszero\n      tag_87\n      jumpi\n        /* \"#utility.yul\":580:581   */\n      0x00\n        /* \"#utility.yul\":577:578   */\n      dup1\n        /* \"#utility.yul\":570:582   */\n      revert\n        /* \"#utility.yul\":532:584   */\n    tag_87:\n        /* \"#utility.yul\":603:632   */\n      tag_88\n        /* \"#utility.yul\":622:631   */\n      dup5\n        /* \"#utility.yul\":603:632   */\n      tag_81\n      jump\t// in\n    tag_88:\n        /* \"#utility.yul\":593:632   */\n      swap3\n      pop\n        /* \"#utility.yul\":683:685   */\n      0x20\n        /* \"#utility.yul\":672:681   */\n      dup5\n        /* \"#utility.yul\":668:686   */\n      add\n        /* \"#utility.yul\":655:687   */\n      calldataload\n        /* \"#utility.yul\":710:728   */\n      0xffffffffffffffff\n        /* \"#utility.yul\":702:708   */\n      dup2\n        /* \"#utility.yul\":699:729   */\n      gt\n        /* \"#utility.yul\":696:746   */\n      iszero\n      tag_89\n      jumpi\n        /* \"#utility.yul\":742:743   */\n      0x00\n        /* \"#utility.yul\":739:740   */\n      dup1\n        /* \"#utility.yul\":732:744   */\n      revert\n        /* \"#utility.yul\":696:746   */\n    tag_89:\n        /* \"#utility.yul\":765:787   */\n      dup5\n      add\n        /* \"#utility.yul\":818:822   */\n      0x1f\n        /* \"#utility.yul\":810:823   */\n      dup2\n      add\n        /* \"#utility.yul\":806:833   */\n      dup7\n      sgt\n        /* \"#utility.yul\":796:851   */\n      tag_90\n      jumpi\n        /* \"#utility.yul\":847:848   */\n      0x00\n        /* \"#utility.yul\":844:845   */\n      dup1\n        /* \"#utility.yul\":837:849   */\n      revert\n        /* \"#utility.yul\":796:851   */\n    tag_90:\n        /* \"#utility.yul\":887:889   */\n      dup1\n        /* \"#utility.yul\":874:890   */\n      calldataload\n        /* \"#utility.yul\":913:931   */\n      0xffffffffffffffff\n        /* \"#utility.yul\":905:911   */\n      dup2\n        /* \"#utility.yul\":902:932   */\n      gt\n        /* \"#utility.yul\":899:949   */\n      iszero\n      tag_91\n      jumpi\n        /* \"#utility.yul\":945:946   */\n      0x00\n        /* \"#utility.yul\":942:943   */\n      dup1\n        /* \"#utility.yul\":935:947   */\n      revert\n        /* \"#utility.yul\":899:949   */\n    tag_91:\n        /* \"#utility.yul\":998:1005   */\n      dup7\n        /* \"#utility.yul\":993:995   */\n      0x20\n        /* \"#utility.yul\":983:989   */\n      dup3\n        /* \"#utility.yul\":980:981   */\n      0x05\n        /* \"#utility.yul\":976:990   */\n      shl\n        /* \"#utility.yul\":972:974   */\n      dup5\n        /* \"#utility.yul\":968:991   */\n      add\n        /* \"#utility.yul\":964:996   */\n      add\n        /* \"#utility.yul\":961:1006   */\n      gt\n        /* \"#utility.yul\":958:1023   */\n      iszero\n      tag_92\n      jumpi\n        /* \"#utility.yul\":1019:1020   */\n      0x00\n        /* \"#utility.yul\":1016:1017   */\n      dup1\n        /* \"#utility.yul\":1009:1021   */\n      revert\n        /* \"#utility.yul\":958:1023   */\n    tag_92:\n        /* \"#utility.yul\":400:1084   */\n      swap4\n      swap7\n        /* \"#utility.yul\":1050:1052   */\n      0x20\n        /* \"#utility.yul\":1042:1053   */\n      swap2\n      swap1\n      swap2\n      add\n      swap6\n      pop\n        /* \"#utility.yul\":1072:1078   */\n      swap3\n      swap4\n      pop\n      pop\n      pop\n        /* \"#utility.yul\":400:1084   */\n      jump\t// out\n        /* \"#utility.yul\":1281:1461   */\n    tag_22:\n        /* \"#utility.yul\":1340:1346   */\n      0x00\n        /* \"#utility.yul\":1393:1395   */\n      0x20\n        /* \"#utility.yul\":1381:1390   */\n      dup3\n        /* \"#utility.yul\":1372:1379   */\n      dup5\n        /* \"#utility.yul\":1368:1391   */\n      sub\n        /* \"#utility.yul\":1364:1396   */\n      slt\n        /* \"#utility.yul\":1361:1413   */\n      iszero\n      tag_95\n      jumpi\n        /* \"#utility.yul\":1409:1410   */\n      0x00\n        /* \"#utility.yul\":1406:1407   */\n      dup1\n        /* \"#utility.yul\":1399:1411   */\n      revert\n        /* \"#utility.yul\":1361:1413   */\n    tag_95:\n      pop\n        /* \"#utility.yul\":1432:1455   */\n      calldataload\n      swap2\n        /* \"#utility.yul\":1281:1461   */\n      swap1\n      pop\n      jump\t// out\n        /* \"#utility.yul\":1466:1652   */\n    tag_26:\n        /* \"#utility.yul\":1525:1531   */\n      0x00\n        /* \"#utility.yul\":1578:1580   */\n      0x20\n        /* \"#utility.yul\":1566:1575   */\n      dup3\n        /* \"#utility.yul\":1557:1564   */\n      dup5\n        /* \"#utility.yul\":1553:1576   */\n      sub\n        /* \"#utility.yul\":1549:1581   */\n      slt\n        /* \"#utility.yul\":1546:1598   */\n      iszero\n      tag_97\n      jumpi\n        /* \"#utility.yul\":1594:1595   */\n      0x00\n        /* \"#utility.yul\":1591:1592   */\n      dup1\n        /* \"#utility.yul\":1584:1596   */\n      revert\n        /* \"#utility.yul\":1546:1598   */\n    tag_97:\n        /* \"#utility.yul\":1617:1646   */\n      tag_79\n        /* \"#utility.yul\":1636:1645   */\n      dup3\n        /* \"#utility.yul\":1617:1646   */\n      tag_81\n      jump\t// in\n        /* \"#utility.yul\":2994:3121   */\n    tag_72:\n        /* \"#utility.yul\":3055:3065   */\n      0x4e487b71\n        /* \"#utility.yul\":3050:3053   */\n      0xe0\n        /* \"#utility.yul\":3046:3066   */\n      shl\n        /* \"#utility.yul\":3043:3044   */\n      0x00\n        /* \"#utility.yul\":3036:3067   */\n      mstore\n        /* \"#utility.yul\":3086:3090   */\n      0x32\n        /* \"#utility.yul\":3083:3084   */\n      0x04\n        /* \"#utility.yul\":3076:3091   */\n      mstore\n        /* \"#utility.yul\":3110:3114   */\n      0x24\n        /* \"#utility.yul\":3107:3108   */\n      0x00\n        /* \"#utility.yul\":3100:3115   */\n      revert\n\n    auxdata: 0xa26469706673582212200eb244697baaff9dfb7c86464fe225d146c46ec4c66ee811038aef40f9ee8c8264736f6c634300081a0033\n}\n",
				"bytecode": {
					"linkReferences": {},
					"object": "6080604052348015600e575f80fd5b50601633601a565b6069565b5f80546001600160a01b038381166001600160a01b0319831681178455604051919092169283917f8be0079c531659141344cd1fd0a4f28419497f9722a3daafe3b4186f6b6457e09190a35050565b610469806100765f395ff3fe608060405234801561000f575f80fd5b5060043610610055575f3560e01c8063715018a6146100595780638da5cb5b14610063578063b416813e14610082578063dab5f340146100a5578063f2fde38b146100b8575b5f80fd5b6100616100cb565b005b5f546040516001600160a01b0390911681526020015b60405180910390f35b61009561009036600461036e565b6100de565b6040519015158152602001610079565b6100616100b33660046103ef565b61019f565b6100616100c6366004610406565b6101ac565b6100d3610225565b6100dc5f61027e565b565b6040516bffffffffffffffffffffffff19606085901b1660208201525f9081906034016040516020818303038152906040528051906020012090506101598484808060200260200160405190810160405280939291908181526020018383602002808284375f920191909152505060015491508490506102cd565b6101945760405162461bcd60e51b8152602060048201526007602482015266125b9d985b1a5960ca1b60448201526064015b60405180910390fd5b506001949350505050565b6101a7610225565b600155565b6101b4610225565b6001600160a01b0381166102195760405162461bcd60e51b815260206004820152602660248201527f4f776e61626c653a206e6577206f776e657220697320746865207a65726f206160448201526564647265737360d01b606482015260840161018b565b6102228161027e565b50565b5f546001600160a01b031633146100dc5760405162461bcd60e51b815260206004820181905260248201527f4f776e61626c653a2063616c6c6572206973206e6f7420746865206f776e6572604482015260640161018b565b5f80546001600160a01b038381166001600160a01b0319831681178455604051919092169283917f8be0079c531659141344cd1fd0a4f28419497f9722a3daafe3b4186f6b6457e09190a35050565b5f826102d985846102e2565b14949350505050565b5f81815b845181101561031c57610312828683815181106103055761030561041f565b6020026020010151610324565b91506001016102e6565b509392505050565b5f81831061033e575f82815260208490526040902061034c565b5f8381526020839052604090205b9392505050565b80356001600160a01b0381168114610369575f80fd5b919050565b5f805f60408486031215610380575f80fd5b61038984610353565b9250602084013567ffffffffffffffff8111156103a4575f80fd5b8401601f810186136103b4575f80fd5b803567ffffffffffffffff8111156103ca575f80fd5b8660208260051b84010111156103de575f80fd5b939660209190910195509293505050565b5f602082840312156103ff575f80fd5b5035919050565b5f60208284031215610416575f80fd5b61034c82610353565b634e487b7160e01b5f52603260045260245ffdfea26469706673582212200eb244697baaff9dfb7c86464fe225d146c46ec4c66ee811038aef40f9ee8c8264736f6c634300081a0033",
					"opcodes": "PUSH1 0x80 PUSH1 0x40 MSTORE CALLVALUE DUP1 ISZERO PUSH1 0xE JUMPI PUSH0 DUP1 REVERT JUMPDEST POP PUSH1 0x16 CALLER PUSH1 0x1A JUMP JUMPDEST PUSH1 0x69 JUMP JUMPDEST PUSH0 DUP1 SLOAD PUSH1 0x1 PUSH1 0x1 PUSH1 0xA0 SHL SUB DUP4 DUP2 AND PUSH1 0x1 PUSH1 0x1 PUSH1 0xA0 SHL SUB NOT DUP4 AND DUP2 OR DUP5 SSTORE PUSH1 0x40 MLOAD SWAP2 SWAP1 SWAP3 AND SWAP3 DUP4 SWAP2 PUSH32 0x8BE0079C531659141344CD1FD0A4F28419497F9722A3DAAFE3B4186F6B6457E0 SWAP2 SWAP1 LOG3 POP POP JUMP JUMPDEST PUSH2 0x469 DUP1 PUSH2 0x76 PUSH0 CODECOPY PUSH0 RETURN INVALID PUSH1 0x80 PUSH1 0x40 MSTORE CALLVALUE DUP1 ISZERO PUSH2 0xF JUMPI PUSH0 DUP1 REVERT JUMPDEST POP PUSH1 0x4 CALLDATASIZE LT PUSH2 0x55 JUMPI PUSH0 CALLDATALOAD PUSH1 0xE0 SHR DUP1 PUSH4 0x715018A6 EQ PUSH2 0x59 JUMPI DUP1 PUSH4 0x8DA5CB5B EQ PUSH2 0x63 JUMPI DUP1 PUSH4 0xB416813E EQ PUSH2 0x82 JUMPI DUP1 PUSH4 0xDAB5F340 EQ PUSH2 0xA5 JUMPI DUP1 PUSH4 0xF2FDE38B EQ PUSH2 0xB8 JUMPI JUMPDEST PUSH0 DUP1 REVERT JUMPDEST PUSH2 0x61 PUSH2 0xCB JUMP JUMPDEST STOP JUMPDEST PUSH0 SLOAD PUSH1 0x40 MLOAD PUSH1 0x1 PUSH1 0x1 PUSH1 0xA0 SHL SUB SWAP1 SWAP2 AND DUP2 MSTORE PUSH1 0x20 ADD JUMPDEST PUSH1 0x40 MLOAD DUP1 SWAP2 SUB SWAP1 RETURN JUMPDEST PUSH2 0x95 PUSH2 0x90 CALLDATASIZE PUSH1 0x4 PUSH2 0x36E JUMP JUMPDEST PUSH2 0xDE JUMP JUMPDEST PUSH1 0x40 MLOAD SWAP1 ISZERO ISZERO DUP2 MSTORE PUSH1 0x20 ADD PUSH2 0x79 JUMP JUMPDEST PUSH2 0x61 PUSH2 0xB3 CALLDATASIZE PUSH1 0x4 PUSH2 0x3EF JUMP JUMPDEST PUSH2 0x19F JUMP JUMPDEST PUSH2 0x61 PUSH2 0xC6 CALLDATASIZE PUSH1 0x4 PUSH2 0x406 JUMP JUMPDEST PUSH2 0x1AC JUMP JUMPDEST PUSH2 0xD3 PUSH2 0x225 JUMP JUMPDEST PUSH2 0xDC PUSH0 PUSH2 0x27E JUMP JUMPDEST JUMP JUMPDEST PUSH1 0x40 MLOAD PUSH12 0xFFFFFFFFFFFFFFFFFFFFFFFF NOT PUSH1 0x60 DUP6 SWAP1 SHL AND PUSH1 0x20 DUP3 ADD MSTORE PUSH0 SWAP1 DUP2 SWAP1 PUSH1 0x34 ADD PUSH1 0x40 MLOAD PUSH1 0x20 DUP2 DUP4 SUB SUB DUP2 MSTORE SWAP1 PUSH1 0x40 MSTORE DUP1 MLOAD SWAP1 PUSH1 0x20 ADD KECCAK256 SWAP1 POP PUSH2 0x159 DUP5 DUP5 DUP1 DUP1 PUSH1 0x20 MUL PUSH1 0x20 ADD PUSH1 0x40 MLOAD SWAP1 DUP2 ADD PUSH1 0x40 MSTORE DUP1 SWAP4 SWAP3 SWAP2 SWAP1 DUP2 DUP2 MSTORE PUSH1 0x20 ADD DUP4 DUP4 PUSH1 0x20 MUL DUP1 DUP3 DUP5 CALLDATACOPY PUSH0 SWAP3 ADD SWAP2 SWAP1 SWAP2 MSTORE POP POP PUSH1 0x1 SLOAD SWAP2 POP DUP5 SWAP1 POP PUSH2 0x2CD JUMP JUMPDEST PUSH2 0x194 JUMPI PUSH1 0x40 MLOAD PUSH3 0x461BCD PUSH1 0xE5 SHL DUP2 MSTORE PUSH1 0x20 PUSH1 0x4 DUP3 ADD MSTORE PUSH1 0x7 PUSH1 0x24 DUP3 ADD MSTORE PUSH7 0x125B9D985B1A59 PUSH1 0xCA SHL PUSH1 0x44 DUP3 ADD MSTORE PUSH1 0x64 ADD JUMPDEST PUSH1 0x40 MLOAD DUP1 SWAP2 SUB SWAP1 REVERT JUMPDEST POP PUSH1 0x1 SWAP5 SWAP4 POP POP POP POP JUMP JUMPDEST PUSH2 0x1A7 PUSH2 0x225 JUMP JUMPDEST PUSH1 0x1 SSTORE JUMP JUMPDEST PUSH2 0x1B4 PUSH2 0x225 JUMP JUMPDEST PUSH1 0x1 PUSH1 0x1 PUSH1 0xA0 SHL SUB DUP2 AND PUSH2 0x219 JUMPI PUSH1 0x40 MLOAD PUSH3 0x461BCD PUSH1 0xE5 SHL DUP2 MSTORE PUSH1 0x20 PUSH1 0x4 DUP3 ADD MSTORE PUSH1 0x26 PUSH1 0x24 DUP3 ADD MSTORE PUSH32 0x4F776E61626C653A206E6577206F776E657220697320746865207A65726F2061 PUSH1 0x44 DUP3 ADD MSTORE PUSH6 0x646472657373 PUSH1 0xD0 SHL PUSH1 0x64 DUP3 ADD MSTORE PUSH1 0x84 ADD PUSH2 0x18B JUMP JUMPDEST PUSH2 0x222 DUP2 PUSH2 0x27E JUMP JUMPDEST POP JUMP JUMPDEST PUSH0 SLOAD PUSH1 0x1 PUSH1 0x1 PUSH1 0xA0 SHL SUB AND CALLER EQ PUSH2 0xDC JUMPI PUSH1 0x40 MLOAD PUSH3 0x461BCD PUSH1 0xE5 SHL DUP2 MSTORE PUSH1 0x20 PUSH1 0x4 DUP3 ADD DUP2 SWAP1 MSTORE PUSH1 0x24 DUP3 ADD MSTORE PUSH32 0x4F776E61626C653A2063616C6C6572206973206E6F7420746865206F776E6572 PUSH1 0x44 DUP3 ADD MSTORE PUSH1 0x64 ADD PUSH2 0x18B JUMP JUMPDEST PUSH0 DUP1 SLOAD PUSH1 0x1 PUSH1 0x1 PUSH1 0xA0 SHL SUB DUP4 DUP2 AND PUSH1 0x1 PUSH1 0x1 PUSH1 0xA0 SHL SUB NOT DUP4 AND DUP2 OR DUP5 SSTORE PUSH1 0x40 MLOAD SWAP2 SWAP1 SWAP3 AND SWAP3 DUP4 SWAP2 PUSH32 0x8BE0079C531659141344CD1FD0A4F28419497F9722A3DAAFE3B4186F6B6457E0 SWAP2 SWAP1 LOG3 POP POP JUMP JUMPDEST PUSH0 DUP3 PUSH2 0x2D9 DUP6 DUP5 PUSH2 0x2E2 JUMP JUMPDEST EQ SWAP5 SWAP4 POP POP POP POP JUMP JUMPDEST PUSH0 DUP2 DUP2 JUMPDEST DUP5 MLOAD DUP2 LT ISZERO PUSH2 0x31C JUMPI PUSH2 0x312 DUP3 DUP7 DUP4 DUP2 MLOAD DUP2 LT PUSH2 0x305 JUMPI PUSH2 0x305 PUSH2 0x41F JUMP JUMPDEST PUSH1 0x20 MUL PUSH1 0x20 ADD ADD MLOAD PUSH2 0x324 JUMP JUMPDEST SWAP2 POP PUSH1 0x1 ADD PUSH2 0x2E6 JUMP JUMPDEST POP SWAP4 SWAP3 POP POP POP JUMP JUMPDEST PUSH0 DUP2 DUP4 LT PUSH2 0x33E JUMPI PUSH0 DUP3 DUP2 MSTORE PUSH1 0x20 DUP5 SWAP1 MSTORE PUSH1 0x40 SWAP1 KECCAK256 PUSH2 0x34C JUMP JUMPDEST PUSH0 DUP4 DUP2 MSTORE PUSH1 0x20 DUP4 SWAP1 MSTORE PUSH1 0x40 SWAP1 KECCAK256 JUMPDEST SWAP4 SWAP3 POP POP POP JUMP JUMPDEST DUP1 CALLDATALOAD PUSH1 0x1 PUSH1 0x1 PUSH1 0xA0 SHL SUB DUP2 AND DUP2 EQ PUSH2 0x369 JUMPI PUSH0 DUP1 REVERT JUMPDEST SWAP2 SWAP1 POP JUMP JUMPDEST PUSH0 DUP1 PUSH0 PUSH1 0x40 DUP5 DUP7 SUB SLT ISZERO PUSH2 0x380 JUMPI PUSH0 DUP1 REVERT JUMPDEST PUSH2 0x389 DUP5 PUSH2 0x353 JUMP JUMPDEST SWAP3 POP PUSH1 0x20 DUP5 ADD CALLDATALOAD PUSH8 0xFFFFFFFFFFFFFFFF DUP2 GT ISZERO PUSH2 0x3A4 JUMPI PUSH0 DUP1 REVERT JUMPDEST DUP5 ADD PUSH1 0x1F DUP2 ADD DUP7 SGT PUSH2 0x3B4 JUMPI PUSH0 DUP1 REVERT JUMPDEST DUP1 CALLDATALOAD PUSH8 0xFFFFFFFFFFFFFFFF DUP2 GT ISZERO PUSH2 0x3CA JUMPI PUSH0 DUP1 REVERT JUMPDEST DUP7 PUSH1 0x20 DUP3 PUSH1 0x5 SHL DUP5 ADD ADD GT ISZERO PUSH2 0x3DE JUMPI PUSH0 DUP1 REVERT JUMPDEST SWAP4 SWAP7 PUSH1 0x20 SWAP2 SWAP1 SWAP2 ADD SWAP6 POP SWAP3 SWAP4 POP POP POP JUMP JUMPDEST PUSH0 PUSH1 0x20 DUP3 DUP5 SUB SLT ISZERO PUSH2 0x3FF JUMPI PUSH0 DUP1 REVERT JUMPDEST POP CALLDATALOAD SWAP2 SWAP1 POP JUMP JUMPDEST PUSH0 PUSH1 0x20 DUP3 DUP5 SUB SLT ISZERO PUSH2 0x416 JUMPI PUSH0 DUP1 REVERT JUMPDEST PUSH2 0x34C DUP3 PUSH2 0x353 JUMP JUMPDEST PUSH4 0x4E487B71 PUSH1 0xE0 SHL PUSH0 MSTORE PUSH1 0x32 PUSH1 0x4 MSTORE PUSH1 0x24 PUSH0 REVERT INVALID LOG2 PUSH5 0x6970667358 0x22 SLT KECCAK256 0xE 0xB2 PREVRANDAO PUSH10 0x7BAAFF9DFB7C86464FE2 0x25 0xD1 CHAINID 0xC4 PUSH15 0xC4C66EE811038AEF40F9EE8C826473 PUSH16 0x6C634300081A00330000000000000000 "
				},
				"gasEstimates": {
					"creation": {
						"codeDepositCost": "225800",
						"executionCost": "26107",
						"totalCost": "251907"
					},
					"external": {
						"owner()": "2288",
						"renounceOwnership()": "infinite",
						"setRoot(bytes32)": "24529",
						"transferOwnership(address)": "28395",
						"valid(address,bytes32[])": "infinite"
					}
				},
				"methodIdentifiers": {
					"owner()": "8da5cb5b",
					"renounceOwnership()": "715018a6",
					"setRoot(bytes32)": "dab5f340",
					"transferOwnership(address)": "f2fde38b",
					"valid(address,bytes32[])": "b416813e"
				}
			},
			"storageLayout": {
				"storage": [
					{
						"astId": 7,
						"contract": "contracts/demo/MerkleTree.sol:MerkleTree",
						"label": "_owner",
						"offset": 0,
						"slot": "0",
						"type": "t_address"
					},
					{
						"astId": 679,
						"contract": "contracts/demo/MerkleTree.sol:MerkleTree",
						"label": "root",
						"offset": 0,
						"slot": "1",
						"type": "t_bytes32"
					}
				],
				"types": {
					"t_address": {
						"encoding": "inplace",
						"label": "address",
						"numberOfBytes": "20"
					},
					"t_bytes32": {
						"encoding": "inplace",
						"label": "bytes32",
						"numberOfBytes": "32"
					}
				}
			},
			"userdoc": {
				"kind": "user",
				"methods": {},
				"notice": "Explain to an end user what this does",
				"version": 1
			}
		}
	}
}