{
	"demo/TypeOfData.sol": {
		"TypeOfData": {
			"abi": [
				{
					"inputs": [
						{
							"internalType": "bytes32",
							"name": "_a",
							"type": "bytes32"
						}
					],
					"name": "bytes32ToAddress",
					"outputs": [
						{
							"internalType": "address",
							"name": "",
							"type": "address"
						}
					],
					"stateMutability": "pure",
					"type": "function"
				},
				{
					"inputs": [
						{
							"internalType": "address",
							"name": "_addr",
							"type": "address"
						}
					],
					"name": "demoAddress",
					"outputs": [
						{
							"internalType": "uint256",
							"name": "balance",
							"type": "uint256"
						},
						{
							"internalType": "bytes",
							"name": "code",
							"type": "bytes"
						},
						{
							"internalType": "bytes32",
							"name": "codehash",
							"type": "bytes32"
						}
					],
					"stateMutability": "view",
					"type": "function"
				},
				{
					"inputs": [
						{
							"internalType": "bytes",
							"name": "bytecode",
							"type": "bytes"
						},
						{
							"internalType": "uint256",
							"name": "_salt",
							"type": "uint256"
						}
					],
					"name": "getAddress",
					"outputs": [
						{
							"internalType": "address",
							"name": "",
							"type": "address"
						}
					],
					"stateMutability": "view",
					"type": "function"
				},
				{
					"inputs": [],
					"name": "getDefaultStatus",
					"outputs": [
						{
							"internalType": "uint256",
							"name": "",
							"type": "uint256"
						}
					],
					"stateMutability": "view",
					"type": "function"
				},
				{
					"inputs": [],
					"name": "getHex",
					"outputs": [],
					"stateMutability": "pure",
					"type": "function"
				},
				{
					"inputs": [],
					"name": "getLargestValue",
					"outputs": [
						{
							"internalType": "enum TypeOfData.Status",
							"name": "",
							"type": "uint8"
						}
					],
					"stateMutability": "pure",
					"type": "function"
				},
				{
					"inputs": [],
					"name": "getMax",
					"outputs": [
						{
							"internalType": "uint256",
							"name": "",
							"type": "uint256"
						}
					],
					"stateMutability": "pure",
					"type": "function"
				},
				{
					"inputs": [],
					"name": "getMin",
					"outputs": [
						{
							"internalType": "uint256",
							"name": "",
							"type": "uint256"
						}
					],
					"stateMutability": "pure",
					"type": "function"
				},
				{
					"inputs": [],
					"name": "getSmallestValue",
					"outputs": [
						{
							"internalType": "enum TypeOfData.Status",
							"name": "",
							"type": "uint8"
						}
					],
					"stateMutability": "pure",
					"type": "function"
				},
				{
					"inputs": [],
					"name": "getStatus",
					"outputs": [
						{
							"internalType": "enum TypeOfData.Status",
							"name": "",
							"type": "uint8"
						}
					],
					"stateMutability": "view",
					"type": "function"
				},
				{
					"inputs": [],
					"name": "getString",
					"outputs": [
						{
							"internalType": "string",
							"name": "a",
							"type": "string"
						}
					],
					"stateMutability": "pure",
					"type": "function"
				},
				{
					"inputs": [],
					"name": "reset",
					"outputs": [],
					"stateMutability": "nonpayable",
					"type": "function"
				},
				{
					"inputs": [
						{
							"internalType": "enum TypeOfData.Status",
							"name": "_status",
							"type": "uint8"
						}
					],
					"name": "set",
					"outputs": [],
					"stateMutability": "nonpayable",
					"type": "function"
				},
				{
					"inputs": [],
					"name": "ship",
					"outputs": [],
					"stateMutability": "nonpayable",
					"type": "function"
				},
				{
					"inputs": [],
					"name": "status",
					"outputs": [
						{
							"internalType": "enum TypeOfData.Status",
							"name": "",
							"type": "uint8"
						}
					],
					"stateMutability": "view",
					"type": "function"
				}
			],
			"devdoc": {
				"kind": "dev",
				"methods": {
					"bytes32ToAddress(bytes32)": {
						"params": {
							"_a": "bytes32"
						}
					}
				},
				"version": 1
			},
			"evm": {
				"assembly": "    /* \"demo/TypeOfData.sol\":1480:6069  contract TypeOfData {... */\n  mstore(0x40, 0x80)\n  callvalue\n  dup1\n  iszero\n  tag_1\n  jumpi\n  0x00\n  dup1\n  revert\ntag_1:\n  pop\n  dataSize(sub_0)\n  dup1\n  dataOffset(sub_0)\n  0x00\n  codecopy\n  0x00\n  return\nstop\n\nsub_0: assembly {\n        /* \"demo/TypeOfData.sol\":1480:6069  contract TypeOfData {... */\n      mstore(0x40, 0x80)\n      callvalue\n      dup1\n      iszero\n      tag_1\n      jumpi\n      0x00\n      dup1\n      revert\n    tag_1:\n      pop\n      jumpi(tag_2, lt(calldatasize, 0x04))\n      shr(0xe0, calldataload(0x00))\n      dup1\n      0x5ced058e\n      gt\n      tag_18\n      jumpi\n      dup1\n      0x94ca2cb5\n      gt\n      tag_19\n      jumpi\n      dup1\n      0x94ca2cb5\n      eq\n      tag_14\n      jumpi\n      dup1\n      0xb6bef7b3\n      eq\n      tag_15\n      jumpi\n      dup1\n      0xd6362e97\n      eq\n      tag_16\n      jumpi\n      dup1\n      0xd826f88f\n      eq\n      tag_17\n      jumpi\n      jump(tag_2)\n    tag_19:\n      dup1\n      0x5ced058e\n      eq\n      tag_10\n      jumpi\n      dup1\n      0x627264e9\n      eq\n      tag_11\n      jumpi\n      dup1\n      0x85f73fe9\n      eq\n      tag_12\n      jumpi\n      dup1\n      0x89ea642f\n      eq\n      tag_13\n      jumpi\n      jump(tag_2)\n    tag_18:\n      dup1\n      0x3075f552\n      gt\n      tag_20\n      jumpi\n      dup1\n      0x3075f552\n      eq\n      tag_6\n      jumpi\n      dup1\n      0x485d498a\n      eq\n      tag_7\n      jumpi\n      dup1\n      0x4d9dd966\n      eq\n      tag_8\n      jumpi\n      dup1\n      0x4e69d560\n      eq\n      tag_9\n      jumpi\n      jump(tag_2)\n    tag_20:\n      dup1\n      0x200d2ed2\n      eq\n      tag_3\n      jumpi\n      dup1\n      0x24b8ba5f\n      eq\n      tag_4\n      jumpi\n      dup1\n      0x2e63c301\n      eq\n      tag_5\n      jumpi\n    tag_2:\n      0x00\n      dup1\n      revert\n        /* \"demo/TypeOfData.sol\":1725:1745  Status public status */\n    tag_3:\n      tag_21\n      tag_22\n      jump\t// in\n    tag_21:\n      mload(0x40)\n      tag_23\n      swap2\n      swap1\n      tag_24\n      jump\t// in\n    tag_23:\n      mload(0x40)\n      dup1\n      swap2\n      sub\n      swap1\n      return\n        /* \"demo/TypeOfData.sol\":1775:1846  function set(Status _status) external {... */\n    tag_4:\n      tag_25\n      0x04\n      dup1\n      calldatasize\n      sub\n      dup2\n      add\n      swap1\n      tag_26\n      swap2\n      swap1\n      tag_27\n      jump\t// in\n    tag_26:\n      tag_28\n      jump\t// in\n    tag_25:\n      stop\n        /* \"demo/TypeOfData.sol\":2394:2490  function getLargestValue() public pure returns (Status) {... */\n    tag_5:\n      tag_29\n      tag_30\n      jump\t// in\n    tag_29:\n      mload(0x40)\n      tag_31\n      swap2\n      swap1\n      tag_24\n      jump\t// in\n    tag_31:\n      mload(0x40)\n      dup1\n      swap2\n      sub\n      swap1\n      return\n        /* \"demo/TypeOfData.sol\":3016:3107  function getMax() external pure returns (uint256) {... */\n    tag_6:\n      tag_32\n      tag_33\n      jump\t// in\n    tag_32:\n      mload(0x40)\n      tag_34\n      swap2\n      swap1\n      tag_35\n      jump\t// in\n    tag_34:\n      mload(0x40)\n      dup1\n      swap2\n      sub\n      swap1\n      return\n        /* \"demo/TypeOfData.sol\":2127:2224  function getDefaultStatus() public view returns (uint256) {... */\n    tag_7:\n      tag_36\n      tag_37\n      jump\t// in\n    tag_36:\n      mload(0x40)\n      tag_38\n      swap2\n      swap1\n      tag_35\n      jump\t// in\n    tag_38:\n      mload(0x40)\n      dup1\n      swap2\n      sub\n      swap1\n      return\n        /* \"demo/TypeOfData.sol\":3328:3614  function getHex() external pure {... */\n    tag_8:\n      tag_39\n      tag_40\n      jump\t// in\n    tag_39:\n      stop\n        /* \"demo/TypeOfData.sol\":2041:2121  function getStatus() public view returns (Status) {... */\n    tag_9:\n      tag_41\n      tag_42\n      jump\t// in\n    tag_41:\n      mload(0x40)\n      tag_43\n      swap2\n      swap1\n      tag_24\n      jump\t// in\n    tag_43:\n      mload(0x40)\n      dup1\n      swap2\n      sub\n      swap1\n      return\n        /* \"demo/TypeOfData.sol\":4046:4218  function bytes32ToAddress(bytes32 _a) external pure returns (address) {... */\n    tag_10:\n      tag_44\n      0x04\n      dup1\n      calldatasize\n      sub\n      dup2\n      add\n      swap1\n      tag_45\n      swap2\n      swap1\n      tag_46\n      jump\t// in\n    tag_45:\n      tag_47\n      jump\t// in\n    tag_44:\n      mload(0x40)\n      tag_48\n      swap2\n      swap1\n      tag_49\n      jump\t// in\n    tag_48:\n      mload(0x40)\n      dup1\n      swap2\n      sub\n      swap1\n      return\n        /* \"demo/TypeOfData.sol\":4243:5562  function demoAddress(address _addr)... */\n    tag_11:\n      tag_50\n      0x04\n      dup1\n      calldatasize\n      sub\n      dup2\n      add\n      swap1\n      tag_51\n      swap2\n      swap1\n      tag_52\n      jump\t// in\n    tag_51:\n      tag_53\n      jump\t// in\n    tag_50:\n      mload(0x40)\n      tag_54\n      swap4\n      swap3\n      swap2\n      swap1\n      tag_55\n      jump\t// in\n    tag_54:\n      mload(0x40)\n      dup1\n      swap2\n      sub\n      swap1\n      return\n        /* \"demo/TypeOfData.sol\":2496:2593  function getSmallestValue() public pure returns (Status) {... */\n    tag_12:\n      tag_56\n      tag_57\n      jump\t// in\n    tag_56:\n      mload(0x40)\n      tag_58\n      swap2\n      swap1\n      tag_24\n      jump\t// in\n    tag_58:\n      mload(0x40)\n      dup1\n      swap2\n      sub\n      swap1\n      return\n        /* \"demo/TypeOfData.sol\":3113:3322  function getString() external pure returns (string memory a) {... */\n    tag_13:\n      tag_59\n      tag_60\n      jump\t// in\n    tag_59:\n      mload(0x40)\n      tag_61\n      swap2\n      swap1\n      tag_62\n      jump\t// in\n    tag_61:\n      mload(0x40)\n      dup1\n      swap2\n      sub\n      swap1\n      return\n        /* \"demo/TypeOfData.sol\":5603:6067  function getAddress(bytes memory bytecode, uint256 _salt)... */\n    tag_14:\n      tag_63\n      0x04\n      dup1\n      calldatasize\n      sub\n      dup2\n      add\n      swap1\n      tag_64\n      swap2\n      swap1\n      tag_65\n      jump\t// in\n    tag_64:\n      tag_66\n      jump\t// in\n    tag_63:\n      mload(0x40)\n      tag_67\n      swap2\n      swap1\n      tag_49\n      jump\t// in\n    tag_67:\n      mload(0x40)\n      dup1\n      swap2\n      sub\n      swap1\n      return\n        /* \"demo/TypeOfData.sol\":2244:2308  function ship() external {... */\n    tag_15:\n      tag_68\n      tag_69\n      jump\t// in\n    tag_68:\n      stop\n        /* \"demo/TypeOfData.sol\":2919:3010  function getMin() external pure returns (uint256) {... */\n    tag_16:\n      tag_70\n      tag_71\n      jump\t// in\n    tag_70:\n      mload(0x40)\n      tag_72\n      swap2\n      swap1\n      tag_35\n      jump\t// in\n    tag_72:\n      mload(0x40)\n      dup1\n      swap2\n      sub\n      swap1\n      return\n        /* \"demo/TypeOfData.sol\":2332:2388  function reset() external {... */\n    tag_17:\n      tag_73\n      tag_74\n      jump\t// in\n    tag_73:\n      stop\n        /* \"demo/TypeOfData.sol\":1725:1745  Status public status */\n    tag_22:\n      0x00\n      dup1\n      sload\n      swap1\n      0x0100\n      exp\n      swap1\n      div\n      0xff\n      and\n      dup2\n      jump\t// out\n        /* \"demo/TypeOfData.sol\":1775:1846  function set(Status _status) external {... */\n    tag_28:\n        /* \"demo/TypeOfData.sol\":1832:1839  _status */\n      dup1\n        /* \"demo/TypeOfData.sol\":1823:1829  status */\n      0x00\n      dup1\n        /* \"demo/TypeOfData.sol\":1823:1839  status = _status */\n      0x0100\n      exp\n      dup2\n      sload\n      dup2\n      0xff\n      mul\n      not\n      and\n      swap1\n      dup4\n      0x05\n      dup2\n      gt\n      iszero\n      tag_76\n      jumpi\n      tag_77\n      tag_78\n      jump\t// in\n    tag_77:\n    tag_76:\n      mul\n      or\n      swap1\n      sstore\n      pop\n        /* \"demo/TypeOfData.sol\":1775:1846  function set(Status _status) external {... */\n      pop\n      jump\t// out\n        /* \"demo/TypeOfData.sol\":2394:2490  function getLargestValue() public pure returns (Status) {... */\n    tag_30:\n        /* \"demo/TypeOfData.sol\":2442:2448  Status */\n      0x00\n        /* \"demo/TypeOfData.sol\":2467:2483  type(Status).max */\n      0x05\n        /* \"demo/TypeOfData.sol\":2460:2483  return type(Status).max */\n      swap1\n      pop\n        /* \"demo/TypeOfData.sol\":2394:2490  function getLargestValue() public pure returns (Status) {... */\n      swap1\n      jump\t// out\n        /* \"demo/TypeOfData.sol\":3016:3107  function getMax() external pure returns (uint256) {... */\n    tag_33:\n        /* \"demo/TypeOfData.sol\":3057:3064  uint256 */\n      0x00\n        /* \"demo/TypeOfData.sol\":3083:3100  type(uint256).max */\n      0xffffffffffffffffffffffffffffffffffffffffffffffffffffffffffffffff\n        /* \"demo/TypeOfData.sol\":3076:3100  return type(uint256).max */\n      swap1\n      pop\n        /* \"demo/TypeOfData.sol\":3016:3107  function getMax() external pure returns (uint256) {... */\n      swap1\n      jump\t// out\n        /* \"demo/TypeOfData.sol\":2127:2224  function getDefaultStatus() public view returns (uint256) {... */\n    tag_37:\n        /* \"demo/TypeOfData.sol\":2176:2183  uint256 */\n      0x00\n        /* \"demo/TypeOfData.sol\":2210:2216  status */\n      dup1\n      0x00\n      swap1\n      sload\n      swap1\n      0x0100\n      exp\n      swap1\n      div\n      0xff\n      and\n        /* \"demo/TypeOfData.sol\":2202:2217  uint256(status) */\n      0x05\n      dup2\n      gt\n      iszero\n      tag_82\n      jumpi\n      tag_83\n      tag_78\n      jump\t// in\n    tag_83:\n    tag_82:\n        /* \"demo/TypeOfData.sol\":2195:2217  return uint256(status) */\n      swap1\n      pop\n        /* \"demo/TypeOfData.sol\":2127:2224  function getDefaultStatus() public view returns (uint256) {... */\n      swap1\n      jump\t// out\n        /* \"demo/TypeOfData.sol\":3328:3614  function getHex() external pure {... */\n    tag_40:\n      jump\t// out\n        /* \"demo/TypeOfData.sol\":2041:2121  function getStatus() public view returns (Status) {... */\n    tag_42:\n        /* \"demo/TypeOfData.sol\":2083:2089  Status */\n      0x00\n        /* \"demo/TypeOfData.sol\":2108:2114  status */\n      dup1\n      0x00\n      swap1\n      sload\n      swap1\n      0x0100\n      exp\n      swap1\n      div\n      0xff\n      and\n        /* \"demo/TypeOfData.sol\":2101:2114  return status */\n      swap1\n      pop\n        /* \"demo/TypeOfData.sol\":2041:2121  function getStatus() public view returns (Status) {... */\n      swap1\n      jump\t// out\n        /* \"demo/TypeOfData.sol\":4046:4218  function bytes32ToAddress(bytes32 _a) external pure returns (address) {... */\n    tag_47:\n        /* \"demo/TypeOfData.sol\":4107:4114  address */\n      0x00\n        /* \"demo/TypeOfData.sol\":4206:4208  _a */\n      dup2\n        /* \"demo/TypeOfData.sol\":4198:4209  uint256(_a) */\n      0x00\n      shr\n        /* \"demo/TypeOfData.sol\":4175:4211  return address(uint160(uint256(_a))) */\n      swap1\n      pop\n        /* \"demo/TypeOfData.sol\":4046:4218  function bytes32ToAddress(bytes32 _a) external pure returns (address) {... */\n      swap2\n      swap1\n      pop\n      jump\t// out\n        /* \"demo/TypeOfData.sol\":4243:5562  function demoAddress(address _addr)... */\n    tag_53:\n        /* \"demo/TypeOfData.sol\":4339:4354  uint256 balance */\n      0x00\n        /* \"demo/TypeOfData.sol\":4368:4385  bytes memory code */\n      0x60\n        /* \"demo/TypeOfData.sol\":4399:4415  bytes32 codehash */\n      0x00\n        /* \"demo/TypeOfData.sol\":4488:4493  _addr */\n      dup4\n        /* \"demo/TypeOfData.sol\":4488:4501  _addr.balance */\n      0xffffffffffffffffffffffffffffffffffffffff\n      and\n      balance\n        /* \"demo/TypeOfData.sol\":4478:4501  balance = _addr.balance */\n      swap3\n      pop\n        /* \"demo/TypeOfData.sol\":4593:4598  _addr */\n      dup4\n        /* \"demo/TypeOfData.sol\":4593:4603  _addr.code */\n      0xffffffffffffffffffffffffffffffffffffffff\n      and\n      dup1\n      extcodesize\n      dup1\n      0x20\n      add\n      mload(0x40)\n      swap1\n      dup2\n      add\n      0x40\n      mstore\n      dup2\n      dup2\n      mstore\n      0x00\n      swap1\n      dup1\n      0x20\n      add\n      swap1\n      swap4\n      extcodecopy\n        /* \"demo/TypeOfData.sol\":4586:4603  code = _addr.code */\n      swap2\n      pop\n        /* \"demo/TypeOfData.sol\":4625:4630  _addr */\n      dup4\n        /* \"demo/TypeOfData.sol\":4625:4639  _addr.codehash */\n      0xffffffffffffffffffffffffffffffffffffffff\n      and\n      extcodehash\n        /* \"demo/TypeOfData.sol\":4614:4639  codehash = _addr.codehash */\n      swap1\n      pop\n        /* \"demo/TypeOfData.sol\":4243:5562  function demoAddress(address _addr)... */\n      swap2\n      swap4\n      swap1\n      swap3\n      pop\n      jump\t// out\n        /* \"demo/TypeOfData.sol\":2496:2593  function getSmallestValue() public pure returns (Status) {... */\n    tag_57:\n        /* \"demo/TypeOfData.sol\":2545:2551  Status */\n      0x00\n        /* \"demo/TypeOfData.sol\":2496:2593  function getSmallestValue() public pure returns (Status) {... */\n      swap1\n      jump\t// out\n        /* \"demo/TypeOfData.sol\":3113:3322  function getString() external pure returns (string memory a) {... */\n    tag_60:\n        /* \"demo/TypeOfData.sol\":3157:3172  string memory a */\n      0x60\n        /* \"demo/TypeOfData.sol\":3184:3200  string memory s1 */\n      0x00\n        /* \"demo/TypeOfData.sol\":3184:3224  string memory s1 = unicode\"同志们好\" */\n      mload(0x40)\n      dup1\n      0x40\n      add\n      0x40\n      mstore\n      dup1\n      0x0c\n      dup2\n      mstore\n      0x20\n      add\n      0xe5908ce5bf97e4bbace5a5bd0000000000000000000000000000000000000000\n      dup2\n      mstore\n      pop\n      swap1\n      pop\n        /* \"demo/TypeOfData.sol\":3234:3248  s1 = \"sfsfsdf\" */\n      mload(0x40)\n      dup1\n      0x40\n      add\n      0x40\n      mstore\n      dup1\n      0x07\n      dup2\n      mstore\n      0x20\n      add\n      0x7366736673646600000000000000000000000000000000000000000000000000\n      dup2\n      mstore\n      pop\n      swap1\n      pop\n        /* \"demo/TypeOfData.sol\":3296:3315  a = \"a\"... */\n      mload(0x40)\n      dup1\n      0x40\n      add\n      0x40\n      mstore\n      dup1\n      0x02\n      dup2\n      mstore\n      0x20\n      add\n      0x6162000000000000000000000000000000000000000000000000000000000000\n      dup2\n      mstore\n      pop\n      swap2\n      pop\n        /* \"demo/TypeOfData.sol\":3174:3322  {... */\n      pop\n        /* \"demo/TypeOfData.sol\":3113:3322  function getString() external pure returns (string memory a) {... */\n      swap1\n      jump\t// out\n        /* \"demo/TypeOfData.sol\":5603:6067  function getAddress(bytes memory bytecode, uint256 _salt)... */\n    tag_66:\n        /* \"demo/TypeOfData.sol\":5708:5715  address */\n      0x00\n        /* \"demo/TypeOfData.sol\":5731:5743  bytes32 hash */\n      dup1\n        /* \"demo/TypeOfData.sol\":5810:5814  0xff */\n      0xff\n        /* \"demo/TypeOfData.sol\":5803:5815  bytes1(0xff) */\n      0xf8\n      shl\n        /* \"demo/TypeOfData.sol\":5860:5864  this */\n      address\n        /* \"demo/TypeOfData.sol\":5911:5916  _salt */\n      dup5\n        /* \"demo/TypeOfData.sol\":5952:5960  bytecode */\n      dup7\n        /* \"demo/TypeOfData.sol\":5942:5961  keccak256(bytecode) */\n      dup1\n      mload\n      swap1\n      0x20\n      add\n      keccak256\n        /* \"demo/TypeOfData.sol\":5769:6002  abi.encodePacked(... */\n      add(0x20, mload(0x40))\n      tag_91\n      swap5\n      swap4\n      swap3\n      swap2\n      swap1\n      tag_92\n      jump\t// in\n    tag_91:\n      mload(0x40)\n      0x20\n      dup2\n      dup4\n      sub\n      sub\n      dup2\n      mstore\n      swap1\n      0x40\n      mstore\n        /* \"demo/TypeOfData.sol\":5746:6012  keccak256(... */\n      dup1\n      mload\n      swap1\n      0x20\n      add\n      keccak256\n        /* \"demo/TypeOfData.sol\":5731:6012  bytes32 hash = keccak256(... */\n      swap1\n      pop\n        /* \"demo/TypeOfData.sol\":6053:6057  hash */\n      dup1\n        /* \"demo/TypeOfData.sol\":6045:6058  uint256(hash) */\n      0x00\n      shr\n        /* \"demo/TypeOfData.sol\":6022:6060  return address(uint160(uint256(hash))) */\n      swap2\n      pop\n      pop\n        /* \"demo/TypeOfData.sol\":5603:6067  function getAddress(bytes memory bytecode, uint256 _salt)... */\n      swap3\n      swap2\n      pop\n      pop\n      jump\t// out\n        /* \"demo/TypeOfData.sol\":2244:2308  function ship() external {... */\n    tag_69:\n        /* \"demo/TypeOfData.sol\":2288:2301  Status.Shiped */\n      0x02\n        /* \"demo/TypeOfData.sol\":2279:2285  status */\n      0x00\n      dup1\n        /* \"demo/TypeOfData.sol\":2279:2301  status = Status.Shiped */\n      0x0100\n      exp\n      dup2\n      sload\n      dup2\n      0xff\n      mul\n      not\n      and\n      swap1\n      dup4\n      0x05\n      dup2\n      gt\n      iszero\n      tag_94\n      jumpi\n      tag_95\n      tag_78\n      jump\t// in\n    tag_95:\n    tag_94:\n      mul\n      or\n      swap1\n      sstore\n      pop\n        /* \"demo/TypeOfData.sol\":2244:2308  function ship() external {... */\n      jump\t// out\n        /* \"demo/TypeOfData.sol\":2919:3010  function getMin() external pure returns (uint256) {... */\n    tag_71:\n        /* \"demo/TypeOfData.sol\":2960:2967  uint256 */\n      0x00\n        /* \"demo/TypeOfData.sol\":2919:3010  function getMin() external pure returns (uint256) {... */\n      swap1\n      jump\t// out\n        /* \"demo/TypeOfData.sol\":2332:2388  function reset() external {... */\n    tag_74:\n        /* \"demo/TypeOfData.sol\":2375:2381  status */\n      0x00\n      dup1\n        /* \"demo/TypeOfData.sol\":2368:2381  delete status */\n      0x0100\n      exp\n      dup2\n      sload\n      swap1\n      0xff\n      mul\n      not\n      and\n      swap1\n      sstore\n        /* \"demo/TypeOfData.sol\":2332:2388  function reset() external {... */\n      jump\t// out\n        /* \"#utility.yul\":7:187   */\n    tag_78:\n        /* \"#utility.yul\":55:132   */\n      0x4e487b7100000000000000000000000000000000000000000000000000000000\n        /* \"#utility.yul\":52:53   */\n      0x00\n        /* \"#utility.yul\":45:133   */\n      mstore\n        /* \"#utility.yul\":152:156   */\n      0x21\n        /* \"#utility.yul\":149:150   */\n      0x04\n        /* \"#utility.yul\":142:157   */\n      mstore\n        /* \"#utility.yul\":176:180   */\n      0x24\n        /* \"#utility.yul\":173:174   */\n      0x00\n        /* \"#utility.yul\":166:181   */\n      revert\n        /* \"#utility.yul\":193:308   */\n    tag_98:\n        /* \"#utility.yul\":276:277   */\n      0x06\n        /* \"#utility.yul\":269:274   */\n      dup2\n        /* \"#utility.yul\":266:278   */\n      lt\n        /* \"#utility.yul\":256:302   */\n      tag_151\n      jumpi\n        /* \"#utility.yul\":282:300   */\n      tag_152\n      tag_78\n      jump\t// in\n    tag_152:\n        /* \"#utility.yul\":256:302   */\n    tag_151:\n        /* \"#utility.yul\":193:308   */\n      pop\n      jump\t// out\n        /* \"#utility.yul\":314:445   */\n    tag_99:\n        /* \"#utility.yul\":361:368   */\n      0x00\n        /* \"#utility.yul\":390:395   */\n      dup2\n        /* \"#utility.yul\":379:395   */\n      swap1\n      pop\n        /* \"#utility.yul\":396:439   */\n      tag_154\n        /* \"#utility.yul\":433:438   */\n      dup3\n        /* \"#utility.yul\":396:439   */\n      tag_98\n      jump\t// in\n    tag_154:\n        /* \"#utility.yul\":314:445   */\n      swap2\n      swap1\n      pop\n      jump\t// out\n        /* \"#utility.yul\":451:582   */\n    tag_100:\n        /* \"#utility.yul\":509:518   */\n      0x00\n        /* \"#utility.yul\":542:576   */\n      tag_156\n        /* \"#utility.yul\":570:575   */\n      dup3\n        /* \"#utility.yul\":542:576   */\n      tag_99\n      jump\t// in\n    tag_156:\n        /* \"#utility.yul\":529:576   */\n      swap1\n      pop\n        /* \"#utility.yul\":451:582   */\n      swap2\n      swap1\n      pop\n      jump\t// out\n        /* \"#utility.yul\":588:735   */\n    tag_101:\n        /* \"#utility.yul\":683:728   */\n      tag_158\n        /* \"#utility.yul\":722:727   */\n      dup2\n        /* \"#utility.yul\":683:728   */\n      tag_100\n      jump\t// in\n    tag_158:\n        /* \"#utility.yul\":678:681   */\n      dup3\n        /* \"#utility.yul\":671:729   */\n      mstore\n        /* \"#utility.yul\":588:735   */\n      pop\n      pop\n      jump\t// out\n        /* \"#utility.yul\":741:979   */\n    tag_24:\n        /* \"#utility.yul\":842:846   */\n      0x00\n        /* \"#utility.yul\":880:882   */\n      0x20\n        /* \"#utility.yul\":869:878   */\n      dup3\n        /* \"#utility.yul\":865:883   */\n      add\n        /* \"#utility.yul\":857:883   */\n      swap1\n      pop\n        /* \"#utility.yul\":893:972   */\n      tag_160\n        /* \"#utility.yul\":969:970   */\n      0x00\n        /* \"#utility.yul\":958:967   */\n      dup4\n        /* \"#utility.yul\":954:971   */\n      add\n        /* \"#utility.yul\":945:951   */\n      dup5\n        /* \"#utility.yul\":893:972   */\n      tag_101\n      jump\t// in\n    tag_160:\n        /* \"#utility.yul\":741:979   */\n      swap3\n      swap2\n      pop\n      pop\n      jump\t// out\n        /* \"#utility.yul\":985:1060   */\n    tag_102:\n        /* \"#utility.yul\":1018:1024   */\n      0x00\n        /* \"#utility.yul\":1051:1053   */\n      0x40\n        /* \"#utility.yul\":1045:1054   */\n      mload\n        /* \"#utility.yul\":1035:1054   */\n      swap1\n      pop\n        /* \"#utility.yul\":985:1060   */\n      swap1\n      jump\t// out\n        /* \"#utility.yul\":1066:1183   */\n    tag_103:\n        /* \"#utility.yul\":1175:1176   */\n      0x00\n        /* \"#utility.yul\":1172:1173   */\n      dup1\n        /* \"#utility.yul\":1165:1177   */\n      revert\n        /* \"#utility.yul\":1189:1306   */\n    tag_104:\n        /* \"#utility.yul\":1298:1299   */\n      0x00\n        /* \"#utility.yul\":1295:1296   */\n      dup1\n        /* \"#utility.yul\":1288:1300   */\n      revert\n        /* \"#utility.yul\":1312:1421   */\n    tag_105:\n        /* \"#utility.yul\":1395:1396   */\n      0x06\n        /* \"#utility.yul\":1388:1393   */\n      dup2\n        /* \"#utility.yul\":1385:1397   */\n      lt\n        /* \"#utility.yul\":1375:1415   */\n      tag_165\n      jumpi\n        /* \"#utility.yul\":1411:1412   */\n      0x00\n        /* \"#utility.yul\":1408:1409   */\n      dup1\n        /* \"#utility.yul\":1401:1413   */\n      revert\n        /* \"#utility.yul\":1375:1415   */\n    tag_165:\n        /* \"#utility.yul\":1312:1421   */\n      pop\n      jump\t// out\n        /* \"#utility.yul\":1427:1586   */\n    tag_106:\n        /* \"#utility.yul\":1483:1488   */\n      0x00\n        /* \"#utility.yul\":1521:1527   */\n      dup2\n        /* \"#utility.yul\":1508:1528   */\n      calldataload\n        /* \"#utility.yul\":1499:1528   */\n      swap1\n      pop\n        /* \"#utility.yul\":1537:1580   */\n      tag_167\n        /* \"#utility.yul\":1574:1579   */\n      dup2\n        /* \"#utility.yul\":1537:1580   */\n      tag_105\n      jump\t// in\n    tag_167:\n        /* \"#utility.yul\":1427:1586   */\n      swap3\n      swap2\n      pop\n      pop\n      jump\t// out\n        /* \"#utility.yul\":1592:1941   */\n    tag_27:\n        /* \"#utility.yul\":1661:1667   */\n      0x00\n        /* \"#utility.yul\":1710:1712   */\n      0x20\n        /* \"#utility.yul\":1698:1707   */\n      dup3\n        /* \"#utility.yul\":1689:1696   */\n      dup5\n        /* \"#utility.yul\":1685:1708   */\n      sub\n        /* \"#utility.yul\":1681:1713   */\n      slt\n        /* \"#utility.yul\":1678:1797   */\n      iszero\n      tag_169\n      jumpi\n        /* \"#utility.yul\":1716:1795   */\n      tag_170\n      tag_103\n      jump\t// in\n    tag_170:\n        /* \"#utility.yul\":1678:1797   */\n    tag_169:\n        /* \"#utility.yul\":1836:1837   */\n      0x00\n        /* \"#utility.yul\":1861:1924   */\n      tag_171\n        /* \"#utility.yul\":1916:1923   */\n      dup5\n        /* \"#utility.yul\":1907:1913   */\n      dup3\n        /* \"#utility.yul\":1896:1905   */\n      dup6\n        /* \"#utility.yul\":1892:1914   */\n      add\n        /* \"#utility.yul\":1861:1924   */\n      tag_106\n      jump\t// in\n    tag_171:\n        /* \"#utility.yul\":1851:1924   */\n      swap2\n      pop\n        /* \"#utility.yul\":1807:1934   */\n      pop\n        /* \"#utility.yul\":1592:1941   */\n      swap3\n      swap2\n      pop\n      pop\n      jump\t// out\n        /* \"#utility.yul\":1947:2024   */\n    tag_107:\n        /* \"#utility.yul\":1984:1991   */\n      0x00\n        /* \"#utility.yul\":2013:2018   */\n      dup2\n        /* \"#utility.yul\":2002:2018   */\n      swap1\n      pop\n        /* \"#utility.yul\":1947:2024   */\n      swap2\n      swap1\n      pop\n      jump\t// out\n        /* \"#utility.yul\":2030:2148   */\n    tag_108:\n        /* \"#utility.yul\":2117:2141   */\n      tag_174\n        /* \"#utility.yul\":2135:2140   */\n      dup2\n        /* \"#utility.yul\":2117:2141   */\n      tag_107\n      jump\t// in\n    tag_174:\n        /* \"#utility.yul\":2112:2115   */\n      dup3\n        /* \"#utility.yul\":2105:2142   */\n      mstore\n        /* \"#utility.yul\":2030:2148   */\n      pop\n      pop\n      jump\t// out\n        /* \"#utility.yul\":2154:2376   */\n    tag_35:\n        /* \"#utility.yul\":2247:2251   */\n      0x00\n        /* \"#utility.yul\":2285:2287   */\n      0x20\n        /* \"#utility.yul\":2274:2283   */\n      dup3\n        /* \"#utility.yul\":2270:2288   */\n      add\n        /* \"#utility.yul\":2262:2288   */\n      swap1\n      pop\n        /* \"#utility.yul\":2298:2369   */\n      tag_176\n        /* \"#utility.yul\":2366:2367   */\n      0x00\n        /* \"#utility.yul\":2355:2364   */\n      dup4\n        /* \"#utility.yul\":2351:2368   */\n      add\n        /* \"#utility.yul\":2342:2348   */\n      dup5\n        /* \"#utility.yul\":2298:2369   */\n      tag_108\n      jump\t// in\n    tag_176:\n        /* \"#utility.yul\":2154:2376   */\n      swap3\n      swap2\n      pop\n      pop\n      jump\t// out\n        /* \"#utility.yul\":2382:2459   */\n    tag_109:\n        /* \"#utility.yul\":2419:2426   */\n      0x00\n        /* \"#utility.yul\":2448:2453   */\n      dup2\n        /* \"#utility.yul\":2437:2453   */\n      swap1\n      pop\n        /* \"#utility.yul\":2382:2459   */\n      swap2\n      swap1\n      pop\n      jump\t// out\n        /* \"#utility.yul\":2465:2587   */\n    tag_110:\n        /* \"#utility.yul\":2538:2562   */\n      tag_179\n        /* \"#utility.yul\":2556:2561   */\n      dup2\n        /* \"#utility.yul\":2538:2562   */\n      tag_109\n      jump\t// in\n    tag_179:\n        /* \"#utility.yul\":2531:2536   */\n      dup2\n        /* \"#utility.yul\":2528:2563   */\n      eq\n        /* \"#utility.yul\":2518:2581   */\n      tag_180\n      jumpi\n        /* \"#utility.yul\":2577:2578   */\n      0x00\n        /* \"#utility.yul\":2574:2575   */\n      dup1\n        /* \"#utility.yul\":2567:2579   */\n      revert\n        /* \"#utility.yul\":2518:2581   */\n    tag_180:\n        /* \"#utility.yul\":2465:2587   */\n      pop\n      jump\t// out\n        /* \"#utility.yul\":2593:2732   */\n    tag_111:\n        /* \"#utility.yul\":2639:2644   */\n      0x00\n        /* \"#utility.yul\":2677:2683   */\n      dup2\n        /* \"#utility.yul\":2664:2684   */\n      calldataload\n        /* \"#utility.yul\":2655:2684   */\n      swap1\n      pop\n        /* \"#utility.yul\":2693:2726   */\n      tag_182\n        /* \"#utility.yul\":2720:2725   */\n      dup2\n        /* \"#utility.yul\":2693:2726   */\n      tag_110\n      jump\t// in\n    tag_182:\n        /* \"#utility.yul\":2593:2732   */\n      swap3\n      swap2\n      pop\n      pop\n      jump\t// out\n        /* \"#utility.yul\":2738:3067   */\n    tag_46:\n        /* \"#utility.yul\":2797:2803   */\n      0x00\n        /* \"#utility.yul\":2846:2848   */\n      0x20\n        /* \"#utility.yul\":2834:2843   */\n      dup3\n        /* \"#utility.yul\":2825:2832   */\n      dup5\n        /* \"#utility.yul\":2821:2844   */\n      sub\n        /* \"#utility.yul\":2817:2849   */\n      slt\n        /* \"#utility.yul\":2814:2933   */\n      iszero\n      tag_184\n      jumpi\n        /* \"#utility.yul\":2852:2931   */\n      tag_185\n      tag_103\n      jump\t// in\n    tag_185:\n        /* \"#utility.yul\":2814:2933   */\n    tag_184:\n        /* \"#utility.yul\":2972:2973   */\n      0x00\n        /* \"#utility.yul\":2997:3050   */\n      tag_186\n        /* \"#utility.yul\":3042:3049   */\n      dup5\n        /* \"#utility.yul\":3033:3039   */\n      dup3\n        /* \"#utility.yul\":3022:3031   */\n      dup6\n        /* \"#utility.yul\":3018:3040   */\n      add\n        /* \"#utility.yul\":2997:3050   */\n      tag_111\n      jump\t// in\n    tag_186:\n        /* \"#utility.yul\":2987:3050   */\n      swap2\n      pop\n        /* \"#utility.yul\":2943:3060   */\n      pop\n        /* \"#utility.yul\":2738:3067   */\n      swap3\n      swap2\n      pop\n      pop\n      jump\t// out\n        /* \"#utility.yul\":3073:3199   */\n    tag_112:\n        /* \"#utility.yul\":3110:3117   */\n      0x00\n        /* \"#utility.yul\":3150:3192   */\n      0xffffffffffffffffffffffffffffffffffffffff\n        /* \"#utility.yul\":3143:3148   */\n      dup3\n        /* \"#utility.yul\":3139:3193   */\n      and\n        /* \"#utility.yul\":3128:3193   */\n      swap1\n      pop\n        /* \"#utility.yul\":3073:3199   */\n      swap2\n      swap1\n      pop\n      jump\t// out\n        /* \"#utility.yul\":3205:3301   */\n    tag_113:\n        /* \"#utility.yul\":3242:3249   */\n      0x00\n        /* \"#utility.yul\":3271:3295   */\n      tag_189\n        /* \"#utility.yul\":3289:3294   */\n      dup3\n        /* \"#utility.yul\":3271:3295   */\n      tag_112\n      jump\t// in\n    tag_189:\n        /* \"#utility.yul\":3260:3295   */\n      swap1\n      pop\n        /* \"#utility.yul\":3205:3301   */\n      swap2\n      swap1\n      pop\n      jump\t// out\n        /* \"#utility.yul\":3307:3425   */\n    tag_114:\n        /* \"#utility.yul\":3394:3418   */\n      tag_191\n        /* \"#utility.yul\":3412:3417   */\n      dup2\n        /* \"#utility.yul\":3394:3418   */\n      tag_113\n      jump\t// in\n    tag_191:\n        /* \"#utility.yul\":3389:3392   */\n      dup3\n        /* \"#utility.yul\":3382:3419   */\n      mstore\n        /* \"#utility.yul\":3307:3425   */\n      pop\n      pop\n      jump\t// out\n        /* \"#utility.yul\":3431:3653   */\n    tag_49:\n        /* \"#utility.yul\":3524:3528   */\n      0x00\n        /* \"#utility.yul\":3562:3564   */\n      0x20\n        /* \"#utility.yul\":3551:3560   */\n      dup3\n        /* \"#utility.yul\":3547:3565   */\n      add\n        /* \"#utility.yul\":3539:3565   */\n      swap1\n      pop\n        /* \"#utility.yul\":3575:3646   */\n      tag_193\n        /* \"#utility.yul\":3643:3644   */\n      0x00\n        /* \"#utility.yul\":3632:3641   */\n      dup4\n        /* \"#utility.yul\":3628:3645   */\n      add\n        /* \"#utility.yul\":3619:3625   */\n      dup5\n        /* \"#utility.yul\":3575:3646   */\n      tag_114\n      jump\t// in\n    tag_193:\n        /* \"#utility.yul\":3431:3653   */\n      swap3\n      swap2\n      pop\n      pop\n      jump\t// out\n        /* \"#utility.yul\":3659:3781   */\n    tag_115:\n        /* \"#utility.yul\":3732:3756   */\n      tag_195\n        /* \"#utility.yul\":3750:3755   */\n      dup2\n        /* \"#utility.yul\":3732:3756   */\n      tag_113\n      jump\t// in\n    tag_195:\n        /* \"#utility.yul\":3725:3730   */\n      dup2\n        /* \"#utility.yul\":3722:3757   */\n      eq\n        /* \"#utility.yul\":3712:3775   */\n      tag_196\n      jumpi\n        /* \"#utility.yul\":3771:3772   */\n      0x00\n        /* \"#utility.yul\":3768:3769   */\n      dup1\n        /* \"#utility.yul\":3761:3773   */\n      revert\n        /* \"#utility.yul\":3712:3775   */\n    tag_196:\n        /* \"#utility.yul\":3659:3781   */\n      pop\n      jump\t// out\n        /* \"#utility.yul\":3787:3926   */\n    tag_116:\n        /* \"#utility.yul\":3833:3838   */\n      0x00\n        /* \"#utility.yul\":3871:3877   */\n      dup2\n        /* \"#utility.yul\":3858:3878   */\n      calldataload\n        /* \"#utility.yul\":3849:3878   */\n      swap1\n      pop\n        /* \"#utility.yul\":3887:3920   */\n      tag_198\n        /* \"#utility.yul\":3914:3919   */\n      dup2\n        /* \"#utility.yul\":3887:3920   */\n      tag_115\n      jump\t// in\n    tag_198:\n        /* \"#utility.yul\":3787:3926   */\n      swap3\n      swap2\n      pop\n      pop\n      jump\t// out\n        /* \"#utility.yul\":3932:4261   */\n    tag_52:\n        /* \"#utility.yul\":3991:3997   */\n      0x00\n        /* \"#utility.yul\":4040:4042   */\n      0x20\n        /* \"#utility.yul\":4028:4037   */\n      dup3\n        /* \"#utility.yul\":4019:4026   */\n      dup5\n        /* \"#utility.yul\":4015:4038   */\n      sub\n        /* \"#utility.yul\":4011:4043   */\n      slt\n        /* \"#utility.yul\":4008:4127   */\n      iszero\n      tag_200\n      jumpi\n        /* \"#utility.yul\":4046:4125   */\n      tag_201\n      tag_103\n      jump\t// in\n    tag_201:\n        /* \"#utility.yul\":4008:4127   */\n    tag_200:\n        /* \"#utility.yul\":4166:4167   */\n      0x00\n        /* \"#utility.yul\":4191:4244   */\n      tag_202\n        /* \"#utility.yul\":4236:4243   */\n      dup5\n        /* \"#utility.yul\":4227:4233   */\n      dup3\n        /* \"#utility.yul\":4216:4225   */\n      dup6\n        /* \"#utility.yul\":4212:4234   */\n      add\n        /* \"#utility.yul\":4191:4244   */\n      tag_116\n      jump\t// in\n    tag_202:\n        /* \"#utility.yul\":4181:4244   */\n      swap2\n      pop\n        /* \"#utility.yul\":4137:4254   */\n      pop\n        /* \"#utility.yul\":3932:4261   */\n      swap3\n      swap2\n      pop\n      pop\n      jump\t// out\n        /* \"#utility.yul\":4267:4365   */\n    tag_117:\n        /* \"#utility.yul\":4318:4324   */\n      0x00\n        /* \"#utility.yul\":4352:4357   */\n      dup2\n        /* \"#utility.yul\":4346:4358   */\n      mload\n        /* \"#utility.yul\":4336:4358   */\n      swap1\n      pop\n        /* \"#utility.yul\":4267:4365   */\n      swap2\n      swap1\n      pop\n      jump\t// out\n        /* \"#utility.yul\":4371:4539   */\n    tag_118:\n        /* \"#utility.yul\":4454:4465   */\n      0x00\n        /* \"#utility.yul\":4488:4494   */\n      dup3\n        /* \"#utility.yul\":4483:4486   */\n      dup3\n        /* \"#utility.yul\":4476:4495   */\n      mstore\n        /* \"#utility.yul\":4528:4532   */\n      0x20\n        /* \"#utility.yul\":4523:4526   */\n      dup3\n        /* \"#utility.yul\":4519:4533   */\n      add\n        /* \"#utility.yul\":4504:4533   */\n      swap1\n      pop\n        /* \"#utility.yul\":4371:4539   */\n      swap3\n      swap2\n      pop\n      pop\n      jump\t// out\n        /* \"#utility.yul\":4545:4684   */\n    tag_119:\n        /* \"#utility.yul\":4634:4640   */\n      dup3\n        /* \"#utility.yul\":4629:4632   */\n      dup2\n        /* \"#utility.yul\":4624:4627   */\n      dup4\n        /* \"#utility.yul\":4618:4641   */\n      mcopy\n        /* \"#utility.yul\":4675:4676   */\n      0x00\n        /* \"#utility.yul\":4666:4672   */\n      dup4\n        /* \"#utility.yul\":4661:4664   */\n      dup4\n        /* \"#utility.yul\":4657:4673   */\n      add\n        /* \"#utility.yul\":4650:4677   */\n      mstore\n        /* \"#utility.yul\":4545:4684   */\n      pop\n      pop\n      pop\n      jump\t// out\n        /* \"#utility.yul\":4690:4792   */\n    tag_120:\n        /* \"#utility.yul\":4731:4737   */\n      0x00\n        /* \"#utility.yul\":4782:4784   */\n      0x1f\n        /* \"#utility.yul\":4778:4785   */\n      not\n        /* \"#utility.yul\":4773:4775   */\n      0x1f\n        /* \"#utility.yul\":4766:4771   */\n      dup4\n        /* \"#utility.yul\":4762:4776   */\n      add\n        /* \"#utility.yul\":4758:4786   */\n      and\n        /* \"#utility.yul\":4748:4786   */\n      swap1\n      pop\n        /* \"#utility.yul\":4690:4792   */\n      swap2\n      swap1\n      pop\n      jump\t// out\n        /* \"#utility.yul\":4798:5171   */\n    tag_121:\n        /* \"#utility.yul\":4884:4887   */\n      0x00\n        /* \"#utility.yul\":4912:4950   */\n      tag_208\n        /* \"#utility.yul\":4944:4949   */\n      dup3\n        /* \"#utility.yul\":4912:4950   */\n      tag_117\n      jump\t// in\n    tag_208:\n        /* \"#utility.yul\":4966:5036   */\n      tag_209\n        /* \"#utility.yul\":5029:5035   */\n      dup2\n        /* \"#utility.yul\":5024:5027   */\n      dup6\n        /* \"#utility.yul\":4966:5036   */\n      tag_118\n      jump\t// in\n    tag_209:\n        /* \"#utility.yul\":4959:5036   */\n      swap4\n      pop\n        /* \"#utility.yul\":5045:5110   */\n      tag_210\n        /* \"#utility.yul\":5103:5109   */\n      dup2\n        /* \"#utility.yul\":5098:5101   */\n      dup6\n        /* \"#utility.yul\":5091:5095   */\n      0x20\n        /* \"#utility.yul\":5084:5089   */\n      dup7\n        /* \"#utility.yul\":5080:5096   */\n      add\n        /* \"#utility.yul\":5045:5110   */\n      tag_119\n      jump\t// in\n    tag_210:\n        /* \"#utility.yul\":5135:5164   */\n      tag_211\n        /* \"#utility.yul\":5157:5163   */\n      dup2\n        /* \"#utility.yul\":5135:5164   */\n      tag_120\n      jump\t// in\n    tag_211:\n        /* \"#utility.yul\":5130:5133   */\n      dup5\n        /* \"#utility.yul\":5126:5165   */\n      add\n        /* \"#utility.yul\":5119:5165   */\n      swap2\n      pop\n        /* \"#utility.yul\":4888:5171   */\n      pop\n        /* \"#utility.yul\":4798:5171   */\n      swap3\n      swap2\n      pop\n      pop\n      jump\t// out\n        /* \"#utility.yul\":5177:5295   */\n    tag_122:\n        /* \"#utility.yul\":5264:5288   */\n      tag_213\n        /* \"#utility.yul\":5282:5287   */\n      dup2\n        /* \"#utility.yul\":5264:5288   */\n      tag_109\n      jump\t// in\n    tag_213:\n        /* \"#utility.yul\":5259:5262   */\n      dup3\n        /* \"#utility.yul\":5252:5289   */\n      mstore\n        /* \"#utility.yul\":5177:5295   */\n      pop\n      pop\n      jump\t// out\n        /* \"#utility.yul\":5301:5830   */\n    tag_55:\n        /* \"#utility.yul\":5468:5472   */\n      0x00\n        /* \"#utility.yul\":5506:5508   */\n      0x60\n        /* \"#utility.yul\":5495:5504   */\n      dup3\n        /* \"#utility.yul\":5491:5509   */\n      add\n        /* \"#utility.yul\":5483:5509   */\n      swap1\n      pop\n        /* \"#utility.yul\":5519:5590   */\n      tag_215\n        /* \"#utility.yul\":5587:5588   */\n      0x00\n        /* \"#utility.yul\":5576:5585   */\n      dup4\n        /* \"#utility.yul\":5572:5589   */\n      add\n        /* \"#utility.yul\":5563:5569   */\n      dup7\n        /* \"#utility.yul\":5519:5590   */\n      tag_108\n      jump\t// in\n    tag_215:\n        /* \"#utility.yul\":5637:5646   */\n      dup2\n        /* \"#utility.yul\":5631:5635   */\n      dup2\n        /* \"#utility.yul\":5627:5647   */\n      sub\n        /* \"#utility.yul\":5622:5624   */\n      0x20\n        /* \"#utility.yul\":5611:5620   */\n      dup4\n        /* \"#utility.yul\":5607:5625   */\n      add\n        /* \"#utility.yul\":5600:5648   */\n      mstore\n        /* \"#utility.yul\":5665:5741   */\n      tag_216\n        /* \"#utility.yul\":5736:5740   */\n      dup2\n        /* \"#utility.yul\":5727:5733   */\n      dup6\n        /* \"#utility.yul\":5665:5741   */\n      tag_121\n      jump\t// in\n    tag_216:\n        /* \"#utility.yul\":5657:5741   */\n      swap1\n      pop\n        /* \"#utility.yul\":5751:5823   */\n      tag_217\n        /* \"#utility.yul\":5819:5821   */\n      0x40\n        /* \"#utility.yul\":5808:5817   */\n      dup4\n        /* \"#utility.yul\":5804:5822   */\n      add\n        /* \"#utility.yul\":5795:5801   */\n      dup5\n        /* \"#utility.yul\":5751:5823   */\n      tag_122\n      jump\t// in\n    tag_217:\n        /* \"#utility.yul\":5301:5830   */\n      swap5\n      swap4\n      pop\n      pop\n      pop\n      pop\n      jump\t// out\n        /* \"#utility.yul\":5836:5935   */\n    tag_123:\n        /* \"#utility.yul\":5888:5894   */\n      0x00\n        /* \"#utility.yul\":5922:5927   */\n      dup2\n        /* \"#utility.yul\":5916:5928   */\n      mload\n        /* \"#utility.yul\":5906:5928   */\n      swap1\n      pop\n        /* \"#utility.yul\":5836:5935   */\n      swap2\n      swap1\n      pop\n      jump\t// out\n        /* \"#utility.yul\":5941:6110   */\n    tag_124:\n        /* \"#utility.yul\":6025:6036   */\n      0x00\n        /* \"#utility.yul\":6059:6065   */\n      dup3\n        /* \"#utility.yul\":6054:6057   */\n      dup3\n        /* \"#utility.yul\":6047:6066   */\n      mstore\n        /* \"#utility.yul\":6099:6103   */\n      0x20\n        /* \"#utility.yul\":6094:6097   */\n      dup3\n        /* \"#utility.yul\":6090:6104   */\n      add\n        /* \"#utility.yul\":6075:6104   */\n      swap1\n      pop\n        /* \"#utility.yul\":5941:6110   */\n      swap3\n      swap2\n      pop\n      pop\n      jump\t// out\n        /* \"#utility.yul\":6116:6493   */\n    tag_125:\n        /* \"#utility.yul\":6204:6207   */\n      0x00\n        /* \"#utility.yul\":6232:6271   */\n      tag_221\n        /* \"#utility.yul\":6265:6270   */\n      dup3\n        /* \"#utility.yul\":6232:6271   */\n      tag_123\n      jump\t// in\n    tag_221:\n        /* \"#utility.yul\":6287:6358   */\n      tag_222\n        /* \"#utility.yul\":6351:6357   */\n      dup2\n        /* \"#utility.yul\":6346:6349   */\n      dup6\n        /* \"#utility.yul\":6287:6358   */\n      tag_124\n      jump\t// in\n    tag_222:\n        /* \"#utility.yul\":6280:6358   */\n      swap4\n      pop\n        /* \"#utility.yul\":6367:6432   */\n      tag_223\n        /* \"#utility.yul\":6425:6431   */\n      dup2\n        /* \"#utility.yul\":6420:6423   */\n      dup6\n        /* \"#utility.yul\":6413:6417   */\n      0x20\n        /* \"#utility.yul\":6406:6411   */\n      dup7\n        /* \"#utility.yul\":6402:6418   */\n      add\n        /* \"#utility.yul\":6367:6432   */\n      tag_119\n      jump\t// in\n    tag_223:\n        /* \"#utility.yul\":6457:6486   */\n      tag_224\n        /* \"#utility.yul\":6479:6485   */\n      dup2\n        /* \"#utility.yul\":6457:6486   */\n      tag_120\n      jump\t// in\n    tag_224:\n        /* \"#utility.yul\":6452:6455   */\n      dup5\n        /* \"#utility.yul\":6448:6487   */\n      add\n        /* \"#utility.yul\":6441:6487   */\n      swap2\n      pop\n        /* \"#utility.yul\":6208:6493   */\n      pop\n        /* \"#utility.yul\":6116:6493   */\n      swap3\n      swap2\n      pop\n      pop\n      jump\t// out\n        /* \"#utility.yul\":6499:6812   */\n    tag_62:\n        /* \"#utility.yul\":6612:6616   */\n      0x00\n        /* \"#utility.yul\":6650:6652   */\n      0x20\n        /* \"#utility.yul\":6639:6648   */\n      dup3\n        /* \"#utility.yul\":6635:6653   */\n      add\n        /* \"#utility.yul\":6627:6653   */\n      swap1\n      pop\n        /* \"#utility.yul\":6699:6708   */\n      dup2\n        /* \"#utility.yul\":6693:6697   */\n      dup2\n        /* \"#utility.yul\":6689:6709   */\n      sub\n        /* \"#utility.yul\":6685:6686   */\n      0x00\n        /* \"#utility.yul\":6674:6683   */\n      dup4\n        /* \"#utility.yul\":6670:6687   */\n      add\n        /* \"#utility.yul\":6663:6710   */\n      mstore\n        /* \"#utility.yul\":6727:6805   */\n      tag_226\n        /* \"#utility.yul\":6800:6804   */\n      dup2\n        /* \"#utility.yul\":6791:6797   */\n      dup5\n        /* \"#utility.yul\":6727:6805   */\n      tag_125\n      jump\t// in\n    tag_226:\n        /* \"#utility.yul\":6719:6805   */\n      swap1\n      pop\n        /* \"#utility.yul\":6499:6812   */\n      swap3\n      swap2\n      pop\n      pop\n      jump\t// out\n        /* \"#utility.yul\":6818:6935   */\n    tag_126:\n        /* \"#utility.yul\":6927:6928   */\n      0x00\n        /* \"#utility.yul\":6924:6925   */\n      dup1\n        /* \"#utility.yul\":6917:6929   */\n      revert\n        /* \"#utility.yul\":6941:7058   */\n    tag_127:\n        /* \"#utility.yul\":7050:7051   */\n      0x00\n        /* \"#utility.yul\":7047:7048   */\n      dup1\n        /* \"#utility.yul\":7040:7052   */\n      revert\n        /* \"#utility.yul\":7064:7244   */\n    tag_128:\n        /* \"#utility.yul\":7112:7189   */\n      0x4e487b7100000000000000000000000000000000000000000000000000000000\n        /* \"#utility.yul\":7109:7110   */\n      0x00\n        /* \"#utility.yul\":7102:7190   */\n      mstore\n        /* \"#utility.yul\":7209:7213   */\n      0x41\n        /* \"#utility.yul\":7206:7207   */\n      0x04\n        /* \"#utility.yul\":7199:7214   */\n      mstore\n        /* \"#utility.yul\":7233:7237   */\n      0x24\n        /* \"#utility.yul\":7230:7231   */\n      0x00\n        /* \"#utility.yul\":7223:7238   */\n      revert\n        /* \"#utility.yul\":7250:7531   */\n    tag_129:\n        /* \"#utility.yul\":7333:7360   */\n      tag_231\n        /* \"#utility.yul\":7355:7359   */\n      dup3\n        /* \"#utility.yul\":7333:7360   */\n      tag_120\n      jump\t// in\n    tag_231:\n        /* \"#utility.yul\":7325:7331   */\n      dup2\n        /* \"#utility.yul\":7321:7361   */\n      add\n        /* \"#utility.yul\":7463:7469   */\n      dup2\n        /* \"#utility.yul\":7451:7461   */\n      dup2\n        /* \"#utility.yul\":7448:7470   */\n      lt\n        /* \"#utility.yul\":7427:7445   */\n      0xffffffffffffffff\n        /* \"#utility.yul\":7415:7425   */\n      dup3\n        /* \"#utility.yul\":7412:7446   */\n      gt\n        /* \"#utility.yul\":7409:7471   */\n      or\n        /* \"#utility.yul\":7406:7494   */\n      iszero\n      tag_232\n      jumpi\n        /* \"#utility.yul\":7474:7492   */\n      tag_233\n      tag_128\n      jump\t// in\n    tag_233:\n        /* \"#utility.yul\":7406:7494   */\n    tag_232:\n        /* \"#utility.yul\":7514:7524   */\n      dup1\n        /* \"#utility.yul\":7510:7512   */\n      0x40\n        /* \"#utility.yul\":7503:7525   */\n      mstore\n        /* \"#utility.yul\":7293:7531   */\n      pop\n        /* \"#utility.yul\":7250:7531   */\n      pop\n      pop\n      jump\t// out\n        /* \"#utility.yul\":7537:7666   */\n    tag_130:\n        /* \"#utility.yul\":7571:7577   */\n      0x00\n        /* \"#utility.yul\":7598:7618   */\n      tag_235\n      tag_102\n      jump\t// in\n    tag_235:\n        /* \"#utility.yul\":7588:7618   */\n      swap1\n      pop\n        /* \"#utility.yul\":7627:7660   */\n      tag_236\n        /* \"#utility.yul\":7655:7659   */\n      dup3\n        /* \"#utility.yul\":7647:7653   */\n      dup3\n        /* \"#utility.yul\":7627:7660   */\n      tag_129\n      jump\t// in\n    tag_236:\n        /* \"#utility.yul\":7537:7666   */\n      swap2\n      swap1\n      pop\n      jump\t// out\n        /* \"#utility.yul\":7672:7979   */\n    tag_131:\n        /* \"#utility.yul\":7733:7737   */\n      0x00\n        /* \"#utility.yul\":7823:7841   */\n      0xffffffffffffffff\n        /* \"#utility.yul\":7815:7821   */\n      dup3\n        /* \"#utility.yul\":7812:7842   */\n      gt\n        /* \"#utility.yul\":7809:7865   */\n      iszero\n      tag_238\n      jumpi\n        /* \"#utility.yul\":7845:7863   */\n      tag_239\n      tag_128\n      jump\t// in\n    tag_239:\n        /* \"#utility.yul\":7809:7865   */\n    tag_238:\n        /* \"#utility.yul\":7883:7912   */\n      tag_240\n        /* \"#utility.yul\":7905:7911   */\n      dup3\n        /* \"#utility.yul\":7883:7912   */\n      tag_120\n      jump\t// in\n    tag_240:\n        /* \"#utility.yul\":7875:7912   */\n      swap1\n      pop\n        /* \"#utility.yul\":7967:7971   */\n      0x20\n        /* \"#utility.yul\":7961:7965   */\n      dup2\n        /* \"#utility.yul\":7957:7972   */\n      add\n        /* \"#utility.yul\":7949:7972   */\n      swap1\n      pop\n        /* \"#utility.yul\":7672:7979   */\n      swap2\n      swap1\n      pop\n      jump\t// out\n        /* \"#utility.yul\":7985:8133   */\n    tag_132:\n        /* \"#utility.yul\":8083:8089   */\n      dup3\n        /* \"#utility.yul\":8078:8081   */\n      dup2\n        /* \"#utility.yul\":8073:8076   */\n      dup4\n        /* \"#utility.yul\":8060:8090   */\n      calldatacopy\n        /* \"#utility.yul\":8124:8125   */\n      0x00\n        /* \"#utility.yul\":8115:8121   */\n      dup4\n        /* \"#utility.yul\":8110:8113   */\n      dup4\n        /* \"#utility.yul\":8106:8122   */\n      add\n        /* \"#utility.yul\":8099:8126   */\n      mstore\n        /* \"#utility.yul\":7985:8133   */\n      pop\n      pop\n      pop\n      jump\t// out\n        /* \"#utility.yul\":8139:8562   */\n    tag_133:\n        /* \"#utility.yul\":8216:8221   */\n      0x00\n        /* \"#utility.yul\":8241:8306   */\n      tag_243\n        /* \"#utility.yul\":8257:8305   */\n      tag_244\n        /* \"#utility.yul\":8298:8304   */\n      dup5\n        /* \"#utility.yul\":8257:8305   */\n      tag_131\n      jump\t// in\n    tag_244:\n        /* \"#utility.yul\":8241:8306   */\n      tag_130\n      jump\t// in\n    tag_243:\n        /* \"#utility.yul\":8232:8306   */\n      swap1\n      pop\n        /* \"#utility.yul\":8329:8335   */\n      dup3\n        /* \"#utility.yul\":8322:8327   */\n      dup2\n        /* \"#utility.yul\":8315:8336   */\n      mstore\n        /* \"#utility.yul\":8367:8371   */\n      0x20\n        /* \"#utility.yul\":8360:8365   */\n      dup2\n        /* \"#utility.yul\":8356:8372   */\n      add\n        /* \"#utility.yul\":8405:8408   */\n      dup5\n        /* \"#utility.yul\":8396:8402   */\n      dup5\n        /* \"#utility.yul\":8391:8394   */\n      dup5\n        /* \"#utility.yul\":8387:8403   */\n      add\n        /* \"#utility.yul\":8384:8409   */\n      gt\n        /* \"#utility.yul\":8381:8493   */\n      iszero\n      tag_245\n      jumpi\n        /* \"#utility.yul\":8412:8491   */\n      tag_246\n      tag_127\n      jump\t// in\n    tag_246:\n        /* \"#utility.yul\":8381:8493   */\n    tag_245:\n        /* \"#utility.yul\":8502:8556   */\n      tag_247\n        /* \"#utility.yul\":8549:8555   */\n      dup5\n        /* \"#utility.yul\":8544:8547   */\n      dup3\n        /* \"#utility.yul\":8539:8542   */\n      dup6\n        /* \"#utility.yul\":8502:8556   */\n      tag_132\n      jump\t// in\n    tag_247:\n        /* \"#utility.yul\":8222:8562   */\n      pop\n        /* \"#utility.yul\":8139:8562   */\n      swap4\n      swap3\n      pop\n      pop\n      pop\n      jump\t// out\n        /* \"#utility.yul\":8581:8919   */\n    tag_134:\n        /* \"#utility.yul\":8636:8641   */\n      0x00\n        /* \"#utility.yul\":8685:8688   */\n      dup3\n        /* \"#utility.yul\":8678:8682   */\n      0x1f\n        /* \"#utility.yul\":8670:8676   */\n      dup4\n        /* \"#utility.yul\":8666:8683   */\n      add\n        /* \"#utility.yul\":8662:8689   */\n      slt\n        /* \"#utility.yul\":8652:8774   */\n      tag_249\n      jumpi\n        /* \"#utility.yul\":8693:8772   */\n      tag_250\n      tag_126\n      jump\t// in\n    tag_250:\n        /* \"#utility.yul\":8652:8774   */\n    tag_249:\n        /* \"#utility.yul\":8810:8816   */\n      dup2\n        /* \"#utility.yul\":8797:8817   */\n      calldataload\n        /* \"#utility.yul\":8835:8913   */\n      tag_251\n        /* \"#utility.yul\":8909:8912   */\n      dup5\n        /* \"#utility.yul\":8901:8907   */\n      dup3\n        /* \"#utility.yul\":8894:8898   */\n      0x20\n        /* \"#utility.yul\":8886:8892   */\n      dup7\n        /* \"#utility.yul\":8882:8899   */\n      add\n        /* \"#utility.yul\":8835:8913   */\n      tag_133\n      jump\t// in\n    tag_251:\n        /* \"#utility.yul\":8826:8913   */\n      swap2\n      pop\n        /* \"#utility.yul\":8642:8919   */\n      pop\n        /* \"#utility.yul\":8581:8919   */\n      swap3\n      swap2\n      pop\n      pop\n      jump\t// out\n        /* \"#utility.yul\":8925:9047   */\n    tag_135:\n        /* \"#utility.yul\":8998:9022   */\n      tag_253\n        /* \"#utility.yul\":9016:9021   */\n      dup2\n        /* \"#utility.yul\":8998:9022   */\n      tag_107\n      jump\t// in\n    tag_253:\n        /* \"#utility.yul\":8991:8996   */\n      dup2\n        /* \"#utility.yul\":8988:9023   */\n      eq\n        /* \"#utility.yul\":8978:9041   */\n      tag_254\n      jumpi\n        /* \"#utility.yul\":9037:9038   */\n      0x00\n        /* \"#utility.yul\":9034:9035   */\n      dup1\n        /* \"#utility.yul\":9027:9039   */\n      revert\n        /* \"#utility.yul\":8978:9041   */\n    tag_254:\n        /* \"#utility.yul\":8925:9047   */\n      pop\n      jump\t// out\n        /* \"#utility.yul\":9053:9192   */\n    tag_136:\n        /* \"#utility.yul\":9099:9104   */\n      0x00\n        /* \"#utility.yul\":9137:9143   */\n      dup2\n        /* \"#utility.yul\":9124:9144   */\n      calldataload\n        /* \"#utility.yul\":9115:9144   */\n      swap1\n      pop\n        /* \"#utility.yul\":9153:9186   */\n      tag_256\n        /* \"#utility.yul\":9180:9185   */\n      dup2\n        /* \"#utility.yul\":9153:9186   */\n      tag_135\n      jump\t// in\n    tag_256:\n        /* \"#utility.yul\":9053:9192   */\n      swap3\n      swap2\n      pop\n      pop\n      jump\t// out\n        /* \"#utility.yul\":9198:9850   */\n    tag_65:\n        /* \"#utility.yul\":9275:9281   */\n      0x00\n        /* \"#utility.yul\":9283:9289   */\n      dup1\n        /* \"#utility.yul\":9332:9334   */\n      0x40\n        /* \"#utility.yul\":9320:9329   */\n      dup4\n        /* \"#utility.yul\":9311:9318   */\n      dup6\n        /* \"#utility.yul\":9307:9330   */\n      sub\n        /* \"#utility.yul\":9303:9335   */\n      slt\n        /* \"#utility.yul\":9300:9419   */\n      iszero\n      tag_258\n      jumpi\n        /* \"#utility.yul\":9338:9417   */\n      tag_259\n      tag_103\n      jump\t// in\n    tag_259:\n        /* \"#utility.yul\":9300:9419   */\n    tag_258:\n        /* \"#utility.yul\":9486:9487   */\n      0x00\n        /* \"#utility.yul\":9475:9484   */\n      dup4\n        /* \"#utility.yul\":9471:9488   */\n      add\n        /* \"#utility.yul\":9458:9489   */\n      calldataload\n        /* \"#utility.yul\":9516:9534   */\n      0xffffffffffffffff\n        /* \"#utility.yul\":9508:9514   */\n      dup2\n        /* \"#utility.yul\":9505:9535   */\n      gt\n        /* \"#utility.yul\":9502:9619   */\n      iszero\n      tag_260\n      jumpi\n        /* \"#utility.yul\":9538:9617   */\n      tag_261\n      tag_104\n      jump\t// in\n    tag_261:\n        /* \"#utility.yul\":9502:9619   */\n    tag_260:\n        /* \"#utility.yul\":9643:9705   */\n      tag_262\n        /* \"#utility.yul\":9697:9704   */\n      dup6\n        /* \"#utility.yul\":9688:9694   */\n      dup3\n        /* \"#utility.yul\":9677:9686   */\n      dup7\n        /* \"#utility.yul\":9673:9695   */\n      add\n        /* \"#utility.yul\":9643:9705   */\n      tag_134\n      jump\t// in\n    tag_262:\n        /* \"#utility.yul\":9633:9705   */\n      swap3\n      pop\n        /* \"#utility.yul\":9429:9715   */\n      pop\n        /* \"#utility.yul\":9754:9756   */\n      0x20\n        /* \"#utility.yul\":9780:9833   */\n      tag_263\n        /* \"#utility.yul\":9825:9832   */\n      dup6\n        /* \"#utility.yul\":9816:9822   */\n      dup3\n        /* \"#utility.yul\":9805:9814   */\n      dup7\n        /* \"#utility.yul\":9801:9823   */\n      add\n        /* \"#utility.yul\":9780:9833   */\n      tag_136\n      jump\t// in\n    tag_263:\n        /* \"#utility.yul\":9770:9833   */\n      swap2\n      pop\n        /* \"#utility.yul\":9725:9843   */\n      pop\n        /* \"#utility.yul\":9198:9850   */\n      swap3\n      pop\n      swap3\n      swap1\n      pop\n      jump\t// out\n        /* \"#utility.yul\":9856:10005   */\n    tag_137:\n        /* \"#utility.yul\":9892:9899   */\n      0x00\n        /* \"#utility.yul\":9932:9998   */\n      0xff00000000000000000000000000000000000000000000000000000000000000\n        /* \"#utility.yul\":9925:9930   */\n      dup3\n        /* \"#utility.yul\":9921:9999   */\n      and\n        /* \"#utility.yul\":9910:9999   */\n      swap1\n      pop\n        /* \"#utility.yul\":9856:10005   */\n      swap2\n      swap1\n      pop\n      jump\t// out\n        /* \"#utility.yul\":10011:10089   */\n    tag_138:\n        /* \"#utility.yul\":10049:10056   */\n      0x00\n        /* \"#utility.yul\":10078:10083   */\n      dup2\n        /* \"#utility.yul\":10067:10083   */\n      swap1\n      pop\n        /* \"#utility.yul\":10011:10089   */\n      swap2\n      swap1\n      pop\n      jump\t// out\n        /* \"#utility.yul\":10095:10248   */\n    tag_139:\n        /* \"#utility.yul\":10198:10241   */\n      tag_267\n        /* \"#utility.yul\":10217:10240   */\n      tag_268\n        /* \"#utility.yul\":10234:10239   */\n      dup3\n        /* \"#utility.yul\":10217:10240   */\n      tag_137\n      jump\t// in\n    tag_268:\n        /* \"#utility.yul\":10198:10241   */\n      tag_138\n      jump\t// in\n    tag_267:\n        /* \"#utility.yul\":10193:10196   */\n      dup3\n        /* \"#utility.yul\":10186:10242   */\n      mstore\n        /* \"#utility.yul\":10095:10248   */\n      pop\n      pop\n      jump\t// out\n        /* \"#utility.yul\":10254:10348   */\n    tag_140:\n        /* \"#utility.yul\":10287:10295   */\n      0x00\n        /* \"#utility.yul\":10335:10340   */\n      dup2\n        /* \"#utility.yul\":10331:10333   */\n      0x60\n        /* \"#utility.yul\":10327:10341   */\n      shl\n        /* \"#utility.yul\":10306:10341   */\n      swap1\n      pop\n        /* \"#utility.yul\":10254:10348   */\n      swap2\n      swap1\n      pop\n      jump\t// out\n        /* \"#utility.yul\":10354:10448   */\n    tag_141:\n        /* \"#utility.yul\":10393:10400   */\n      0x00\n        /* \"#utility.yul\":10422:10442   */\n      tag_271\n        /* \"#utility.yul\":10436:10441   */\n      dup3\n        /* \"#utility.yul\":10422:10442   */\n      tag_140\n      jump\t// in\n    tag_271:\n        /* \"#utility.yul\":10411:10442   */\n      swap1\n      pop\n        /* \"#utility.yul\":10354:10448   */\n      swap2\n      swap1\n      pop\n      jump\t// out\n        /* \"#utility.yul\":10454:10554   */\n    tag_142:\n        /* \"#utility.yul\":10493:10500   */\n      0x00\n        /* \"#utility.yul\":10522:10548   */\n      tag_273\n        /* \"#utility.yul\":10542:10547   */\n      dup3\n        /* \"#utility.yul\":10522:10548   */\n      tag_141\n      jump\t// in\n    tag_273:\n        /* \"#utility.yul\":10511:10548   */\n      swap1\n      pop\n        /* \"#utility.yul\":10454:10554   */\n      swap2\n      swap1\n      pop\n      jump\t// out\n        /* \"#utility.yul\":10560:10717   */\n    tag_143:\n        /* \"#utility.yul\":10665:10710   */\n      tag_275\n        /* \"#utility.yul\":10685:10709   */\n      tag_276\n        /* \"#utility.yul\":10703:10708   */\n      dup3\n        /* \"#utility.yul\":10685:10709   */\n      tag_113\n      jump\t// in\n    tag_276:\n        /* \"#utility.yul\":10665:10710   */\n      tag_142\n      jump\t// in\n    tag_275:\n        /* \"#utility.yul\":10660:10663   */\n      dup3\n        /* \"#utility.yul\":10653:10711   */\n      mstore\n        /* \"#utility.yul\":10560:10717   */\n      pop\n      pop\n      jump\t// out\n        /* \"#utility.yul\":10723:10802   */\n    tag_144:\n        /* \"#utility.yul\":10762:10769   */\n      0x00\n        /* \"#utility.yul\":10791:10796   */\n      dup2\n        /* \"#utility.yul\":10780:10796   */\n      swap1\n      pop\n        /* \"#utility.yul\":10723:10802   */\n      swap2\n      swap1\n      pop\n      jump\t// out\n        /* \"#utility.yul\":10808:10965   */\n    tag_145:\n        /* \"#utility.yul\":10913:10958   */\n      tag_279\n        /* \"#utility.yul\":10933:10957   */\n      tag_280\n        /* \"#utility.yul\":10951:10956   */\n      dup3\n        /* \"#utility.yul\":10933:10957   */\n      tag_107\n      jump\t// in\n    tag_280:\n        /* \"#utility.yul\":10913:10958   */\n      tag_144\n      jump\t// in\n    tag_279:\n        /* \"#utility.yul\":10908:10911   */\n      dup3\n        /* \"#utility.yul\":10901:10959   */\n      mstore\n        /* \"#utility.yul\":10808:10965   */\n      pop\n      pop\n      jump\t// out\n        /* \"#utility.yul\":10971:11050   */\n    tag_146:\n        /* \"#utility.yul\":11010:11017   */\n      0x00\n        /* \"#utility.yul\":11039:11044   */\n      dup2\n        /* \"#utility.yul\":11028:11044   */\n      swap1\n      pop\n        /* \"#utility.yul\":10971:11050   */\n      swap2\n      swap1\n      pop\n      jump\t// out\n        /* \"#utility.yul\":11056:11213   */\n    tag_147:\n        /* \"#utility.yul\":11161:11206   */\n      tag_283\n        /* \"#utility.yul\":11181:11205   */\n      tag_284\n        /* \"#utility.yul\":11199:11204   */\n      dup3\n        /* \"#utility.yul\":11181:11205   */\n      tag_109\n      jump\t// in\n    tag_284:\n        /* \"#utility.yul\":11161:11206   */\n      tag_146\n      jump\t// in\n    tag_283:\n        /* \"#utility.yul\":11156:11159   */\n      dup3\n        /* \"#utility.yul\":11149:11207   */\n      mstore\n        /* \"#utility.yul\":11056:11213   */\n      pop\n      pop\n      jump\t// out\n        /* \"#utility.yul\":11219:11893   */\n    tag_92:\n        /* \"#utility.yul\":11413:11416   */\n      0x00\n        /* \"#utility.yul\":11428:11501   */\n      tag_286\n        /* \"#utility.yul\":11497:11500   */\n      dup3\n        /* \"#utility.yul\":11488:11494   */\n      dup8\n        /* \"#utility.yul\":11428:11501   */\n      tag_139\n      jump\t// in\n    tag_286:\n        /* \"#utility.yul\":11526:11527   */\n      0x01\n        /* \"#utility.yul\":11521:11524   */\n      dup3\n        /* \"#utility.yul\":11517:11528   */\n      add\n        /* \"#utility.yul\":11510:11528   */\n      swap2\n      pop\n        /* \"#utility.yul\":11538:11613   */\n      tag_287\n        /* \"#utility.yul\":11609:11612   */\n      dup3\n        /* \"#utility.yul\":11600:11606   */\n      dup7\n        /* \"#utility.yul\":11538:11613   */\n      tag_143\n      jump\t// in\n    tag_287:\n        /* \"#utility.yul\":11638:11640   */\n      0x14\n        /* \"#utility.yul\":11633:11636   */\n      dup3\n        /* \"#utility.yul\":11629:11641   */\n      add\n        /* \"#utility.yul\":11622:11641   */\n      swap2\n      pop\n        /* \"#utility.yul\":11651:11726   */\n      tag_288\n        /* \"#utility.yul\":11722:11725   */\n      dup3\n        /* \"#utility.yul\":11713:11719   */\n      dup6\n        /* \"#utility.yul\":11651:11726   */\n      tag_145\n      jump\t// in\n    tag_288:\n        /* \"#utility.yul\":11751:11753   */\n      0x20\n        /* \"#utility.yul\":11746:11749   */\n      dup3\n        /* \"#utility.yul\":11742:11754   */\n      add\n        /* \"#utility.yul\":11735:11754   */\n      swap2\n      pop\n        /* \"#utility.yul\":11764:11839   */\n      tag_289\n        /* \"#utility.yul\":11835:11838   */\n      dup3\n        /* \"#utility.yul\":11826:11832   */\n      dup5\n        /* \"#utility.yul\":11764:11839   */\n      tag_147\n      jump\t// in\n    tag_289:\n        /* \"#utility.yul\":11864:11866   */\n      0x20\n        /* \"#utility.yul\":11859:11862   */\n      dup3\n        /* \"#utility.yul\":11855:11867   */\n      add\n        /* \"#utility.yul\":11848:11867   */\n      swap2\n      pop\n        /* \"#utility.yul\":11884:11887   */\n      dup2\n        /* \"#utility.yul\":11877:11887   */\n      swap1\n      pop\n        /* \"#utility.yul\":11219:11893   */\n      swap6\n      swap5\n      pop\n      pop\n      pop\n      pop\n      pop\n      jump\t// out\n\n    auxdata: 0xa2646970667358221220bdca861a84b57686214d20ecb75d607b846e1ad38cdfb05429f90a604ffa34d764736f6c634300081a0033\n}\n",
				"bytecode": {
					"linkReferences": {},
					"object": "6080604052348015600e575f80fd5b50610b6a8061001c5f395ff3fe608060405234801561000f575f80fd5b50600436106100f3575f3560e01c80635ced058e1161009557806394ca2cb51161006457806394ca2cb514610251578063b6bef7b314610281578063d6362e971461028b578063d826f88f146102a9576100f3565b80635ced058e146101b3578063627264e9146101e357806385f73fe91461021557806389ea642f14610233576100f3565b80633075f552116100d15780633075f5521461014f578063485d498a1461016d5780634d9dd9661461018b5780634e69d56014610195576100f3565b8063200d2ed2146100f757806324b8ba5f146101155780632e63c30114610131575b5f80fd5b6100ff6102b3565b60405161010c9190610586565b60405180910390f35b61012f600480360381019061012a91906105d3565b6102c3565b005b6101396102ee565b6040516101469190610586565b60405180910390f35b6101576102f6565b6040516101649190610616565b60405180910390f35b61017561031d565b6040516101829190610616565b60405180910390f35b610193610343565b005b61019d610345565b6040516101aa9190610586565b60405180910390f35b6101cd60048036038101906101c89190610662565b610359565b6040516101da91906106cc565b60405180910390f35b6101fd60048036038101906101f8919061070f565b610364565b60405161020c939291906107b9565b60405180910390f35b61021d6103d7565b60405161022a9190610586565b60405180910390f35b61023b6103db565b6040516102489190610847565b60405180910390f35b61026b600480360381019061026691906109bd565b61048a565b60405161027891906106cc565b60405180910390f35b6102896104d2565b005b6102936104fd565b6040516102a09190610616565b60405180910390f35b6102b1610501565b005b5f8054906101000a900460ff1681565b805f806101000a81548160ff021916908360058111156102e6576102e5610513565b5b021790555050565b5f6005905090565b5f7fffffffffffffffffffffffffffffffffffffffffffffffffffffffffffffffff905090565b5f805f9054906101000a900460ff16600581111561033e5761033d610513565b5b905090565b565b5f805f9054906101000a900460ff16905090565b5f815f1c9050919050565b5f60605f8373ffffffffffffffffffffffffffffffffffffffff163192508373ffffffffffffffffffffffffffffffffffffffff16803b806020016040519081016040528181525f908060200190933c91508373ffffffffffffffffffffffffffffffffffffffff163f90509193909250565b5f90565b60605f6040518060400160405280600c81526020017fe5908ce5bf97e4bbace5a5bd000000000000000000000000000000000000000081525090506040518060400160405280600781526020017f736673667364660000000000000000000000000000000000000000000000000081525090506040518060400160405280600281526020017f616200000000000000000000000000000000000000000000000000000000000081525091505090565b5f8060ff60f81b308486805190602001206040516020016104ae9493929190610ae7565b604051602081830303815290604052805190602001209050805f1c91505092915050565b60025f806101000a81548160ff021916908360058111156104f6576104f5610513565b5b0217905550565b5f90565b5f806101000a81549060ff0219169055565b7f4e487b71000000000000000000000000000000000000000000000000000000005f52602160045260245ffd5b6006811061055157610550610513565b5b50565b5f81905061056182610540565b919050565b5f61057082610554565b9050919050565b61058081610566565b82525050565b5f6020820190506105995f830184610577565b92915050565b5f604051905090565b5f80fd5b5f80fd5b600681106105bc575f80fd5b50565b5f813590506105cd816105b0565b92915050565b5f602082840312156105e8576105e76105a8565b5b5f6105f5848285016105bf565b91505092915050565b5f819050919050565b610610816105fe565b82525050565b5f6020820190506106295f830184610607565b92915050565b5f819050919050565b6106418161062f565b811461064b575f80fd5b50565b5f8135905061065c81610638565b92915050565b5f60208284031215610677576106766105a8565b5b5f6106848482850161064e565b91505092915050565b5f73ffffffffffffffffffffffffffffffffffffffff82169050919050565b5f6106b68261068d565b9050919050565b6106c6816106ac565b82525050565b5f6020820190506106df5f8301846106bd565b92915050565b6106ee816106ac565b81146106f8575f80fd5b50565b5f81359050610709816106e5565b92915050565b5f60208284031215610724576107236105a8565b5b5f610731848285016106fb565b91505092915050565b5f81519050919050565b5f82825260208201905092915050565b8281835e5f83830152505050565b5f601f19601f8301169050919050565b5f61077c8261073a565b6107868185610744565b9350610796818560208601610754565b61079f81610762565b840191505092915050565b6107b38161062f565b82525050565b5f6060820190506107cc5f830186610607565b81810360208301526107de8185610772565b90506107ed60408301846107aa565b949350505050565b5f81519050919050565b5f82825260208201905092915050565b5f610819826107f5565b61082381856107ff565b9350610833818560208601610754565b61083c81610762565b840191505092915050565b5f6020820190508181035f83015261085f818461080f565b905092915050565b5f80fd5b5f80fd5b7f4e487b71000000000000000000000000000000000000000000000000000000005f52604160045260245ffd5b6108a582610762565b810181811067ffffffffffffffff821117156108c4576108c361086f565b5b80604052505050565b5f6108d661059f565b90506108e2828261089c565b919050565b5f67ffffffffffffffff8211156109015761090061086f565b5b61090a82610762565b9050602081019050919050565b828183375f83830152505050565b5f610937610932846108e7565b6108cd565b9050828152602081018484840111156109535761095261086b565b5b61095e848285610917565b509392505050565b5f82601f83011261097a57610979610867565b5b813561098a848260208601610925565b91505092915050565b61099c816105fe565b81146109a6575f80fd5b50565b5f813590506109b781610993565b92915050565b5f80604083850312156109d3576109d26105a8565b5b5f83013567ffffffffffffffff8111156109f0576109ef6105ac565b5b6109fc85828601610966565b9250506020610a0d858286016109a9565b9150509250929050565b5f7fff0000000000000000000000000000000000000000000000000000000000000082169050919050565b5f819050919050565b610a5c610a5782610a17565b610a42565b82525050565b5f8160601b9050919050565b5f610a7882610a62565b9050919050565b5f610a8982610a6e565b9050919050565b610aa1610a9c826106ac565b610a7f565b82525050565b5f819050919050565b610ac1610abc826105fe565b610aa7565b82525050565b5f819050919050565b610ae1610adc8261062f565b610ac7565b82525050565b5f610af28287610a4b565b600182019150610b028286610a90565b601482019150610b128285610ab0565b602082019150610b228284610ad0565b6020820191508190509594505050505056fea2646970667358221220bdca861a84b57686214d20ecb75d607b846e1ad38cdfb05429f90a604ffa34d764736f6c634300081a0033",
					"opcodes": "PUSH1 0x80 PUSH1 0x40 MSTORE CALLVALUE DUP1 ISZERO PUSH1 0xE JUMPI PUSH0 DUP1 REVERT JUMPDEST POP PUSH2 0xB6A DUP1 PUSH2 0x1C PUSH0 CODECOPY PUSH0 RETURN INVALID PUSH1 0x80 PUSH1 0x40 MSTORE CALLVALUE DUP1 ISZERO PUSH2 0xF JUMPI PUSH0 DUP1 REVERT JUMPDEST POP PUSH1 0x4 CALLDATASIZE LT PUSH2 0xF3 JUMPI PUSH0 CALLDATALOAD PUSH1 0xE0 SHR DUP1 PUSH4 0x5CED058E GT PUSH2 0x95 JUMPI DUP1 PUSH4 0x94CA2CB5 GT PUSH2 0x64 JUMPI DUP1 PUSH4 0x94CA2CB5 EQ PUSH2 0x251 JUMPI DUP1 PUSH4 0xB6BEF7B3 EQ PUSH2 0x281 JUMPI DUP1 PUSH4 0xD6362E97 EQ PUSH2 0x28B JUMPI DUP1 PUSH4 0xD826F88F EQ PUSH2 0x2A9 JUMPI PUSH2 0xF3 JUMP JUMPDEST DUP1 PUSH4 0x5CED058E EQ PUSH2 0x1B3 JUMPI DUP1 PUSH4 0x627264E9 EQ PUSH2 0x1E3 JUMPI DUP1 PUSH4 0x85F73FE9 EQ PUSH2 0x215 JUMPI DUP1 PUSH4 0x89EA642F EQ PUSH2 0x233 JUMPI PUSH2 0xF3 JUMP JUMPDEST DUP1 PUSH4 0x3075F552 GT PUSH2 0xD1 JUMPI DUP1 PUSH4 0x3075F552 EQ PUSH2 0x14F JUMPI DUP1 PUSH4 0x485D498A EQ PUSH2 0x16D JUMPI DUP1 PUSH4 0x4D9DD966 EQ PUSH2 0x18B JUMPI DUP1 PUSH4 0x4E69D560 EQ PUSH2 0x195 JUMPI PUSH2 0xF3 JUMP JUMPDEST DUP1 PUSH4 0x200D2ED2 EQ PUSH2 0xF7 JUMPI DUP1 PUSH4 0x24B8BA5F EQ PUSH2 0x115 JUMPI DUP1 PUSH4 0x2E63C301 EQ PUSH2 0x131 JUMPI JUMPDEST PUSH0 DUP1 REVERT JUMPDEST PUSH2 0xFF PUSH2 0x2B3 JUMP JUMPDEST PUSH1 0x40 MLOAD PUSH2 0x10C SWAP2 SWAP1 PUSH2 0x586 JUMP JUMPDEST PUSH1 0x40 MLOAD DUP1 SWAP2 SUB SWAP1 RETURN JUMPDEST PUSH2 0x12F PUSH1 0x4 DUP1 CALLDATASIZE SUB DUP2 ADD SWAP1 PUSH2 0x12A SWAP2 SWAP1 PUSH2 0x5D3 JUMP JUMPDEST PUSH2 0x2C3 JUMP JUMPDEST STOP JUMPDEST PUSH2 0x139 PUSH2 0x2EE JUMP JUMPDEST PUSH1 0x40 MLOAD PUSH2 0x146 SWAP2 SWAP1 PUSH2 0x586 JUMP JUMPDEST PUSH1 0x40 MLOAD DUP1 SWAP2 SUB SWAP1 RETURN JUMPDEST PUSH2 0x157 PUSH2 0x2F6 JUMP JUMPDEST PUSH1 0x40 MLOAD PUSH2 0x164 SWAP2 SWAP1 PUSH2 0x616 JUMP JUMPDEST PUSH1 0x40 MLOAD DUP1 SWAP2 SUB SWAP1 RETURN JUMPDEST PUSH2 0x175 PUSH2 0x31D JUMP JUMPDEST PUSH1 0x40 MLOAD PUSH2 0x182 SWAP2 SWAP1 PUSH2 0x616 JUMP JUMPDEST PUSH1 0x40 MLOAD DUP1 SWAP2 SUB SWAP1 RETURN JUMPDEST PUSH2 0x193 PUSH2 0x343 JUMP JUMPDEST STOP JUMPDEST PUSH2 0x19D PUSH2 0x345 JUMP JUMPDEST PUSH1 0x40 MLOAD PUSH2 0x1AA SWAP2 SWAP1 PUSH2 0x586 JUMP JUMPDEST PUSH1 0x40 MLOAD DUP1 SWAP2 SUB SWAP1 RETURN JUMPDEST PUSH2 0x1CD PUSH1 0x4 DUP1 CALLDATASIZE SUB DUP2 ADD SWAP1 PUSH2 0x1C8 SWAP2 SWAP1 PUSH2 0x662 JUMP JUMPDEST PUSH2 0x359 JUMP JUMPDEST PUSH1 0x40 MLOAD PUSH2 0x1DA SWAP2 SWAP1 PUSH2 0x6CC JUMP JUMPDEST PUSH1 0x40 MLOAD DUP1 SWAP2 SUB SWAP1 RETURN JUMPDEST PUSH2 0x1FD PUSH1 0x4 DUP1 CALLDATASIZE SUB DUP2 ADD SWAP1 PUSH2 0x1F8 SWAP2 SWAP1 PUSH2 0x70F JUMP JUMPDEST PUSH2 0x364 JUMP JUMPDEST PUSH1 0x40 MLOAD PUSH2 0x20C SWAP4 SWAP3 SWAP2 SWAP1 PUSH2 0x7B9 JUMP JUMPDEST PUSH1 0x40 MLOAD DUP1 SWAP2 SUB SWAP1 RETURN JUMPDEST PUSH2 0x21D PUSH2 0x3D7 JUMP JUMPDEST PUSH1 0x40 MLOAD PUSH2 0x22A SWAP2 SWAP1 PUSH2 0x586 JUMP JUMPDEST PUSH1 0x40 MLOAD DUP1 SWAP2 SUB SWAP1 RETURN JUMPDEST PUSH2 0x23B PUSH2 0x3DB JUMP JUMPDEST PUSH1 0x40 MLOAD PUSH2 0x248 SWAP2 SWAP1 PUSH2 0x847 JUMP JUMPDEST PUSH1 0x40 MLOAD DUP1 SWAP2 SUB SWAP1 RETURN JUMPDEST PUSH2 0x26B PUSH1 0x4 DUP1 CALLDATASIZE SUB DUP2 ADD SWAP1 PUSH2 0x266 SWAP2 SWAP1 PUSH2 0x9BD JUMP JUMPDEST PUSH2 0x48A JUMP JUMPDEST PUSH1 0x40 MLOAD PUSH2 0x278 SWAP2 SWAP1 PUSH2 0x6CC JUMP JUMPDEST PUSH1 0x40 MLOAD DUP1 SWAP2 SUB SWAP1 RETURN JUMPDEST PUSH2 0x289 PUSH2 0x4D2 JUMP JUMPDEST STOP JUMPDEST PUSH2 0x293 PUSH2 0x4FD JUMP JUMPDEST PUSH1 0x40 MLOAD PUSH2 0x2A0 SWAP2 SWAP1 PUSH2 0x616 JUMP JUMPDEST PUSH1 0x40 MLOAD DUP1 SWAP2 SUB SWAP1 RETURN JUMPDEST PUSH2 0x2B1 PUSH2 0x501 JUMP JUMPDEST STOP JUMPDEST PUSH0 DUP1 SLOAD SWAP1 PUSH2 0x100 EXP SWAP1 DIV PUSH1 0xFF AND DUP2 JUMP JUMPDEST DUP1 PUSH0 DUP1 PUSH2 0x100 EXP DUP2 SLOAD DUP2 PUSH1 0xFF MUL NOT AND SWAP1 DUP4 PUSH1 0x5 DUP2 GT ISZERO PUSH2 0x2E6 JUMPI PUSH2 0x2E5 PUSH2 0x513 JUMP JUMPDEST JUMPDEST MUL OR SWAP1 SSTORE POP POP JUMP JUMPDEST PUSH0 PUSH1 0x5 SWAP1 POP SWAP1 JUMP JUMPDEST PUSH0 PUSH32 0xFFFFFFFFFFFFFFFFFFFFFFFFFFFFFFFFFFFFFFFFFFFFFFFFFFFFFFFFFFFFFFFF SWAP1 POP SWAP1 JUMP JUMPDEST PUSH0 DUP1 PUSH0 SWAP1 SLOAD SWAP1 PUSH2 0x100 EXP SWAP1 DIV PUSH1 0xFF AND PUSH1 0x5 DUP2 GT ISZERO PUSH2 0x33E JUMPI PUSH2 0x33D PUSH2 0x513 JUMP JUMPDEST JUMPDEST SWAP1 POP SWAP1 JUMP JUMPDEST JUMP JUMPDEST PUSH0 DUP1 PUSH0 SWAP1 SLOAD SWAP1 PUSH2 0x100 EXP SWAP1 DIV PUSH1 0xFF AND SWAP1 POP SWAP1 JUMP JUMPDEST PUSH0 DUP2 PUSH0 SHR SWAP1 POP SWAP2 SWAP1 POP JUMP JUMPDEST PUSH0 PUSH1 0x60 PUSH0 DUP4 PUSH20 0xFFFFFFFFFFFFFFFFFFFFFFFFFFFFFFFFFFFFFFFF AND BALANCE SWAP3 POP DUP4 PUSH20 0xFFFFFFFFFFFFFFFFFFFFFFFFFFFFFFFFFFFFFFFF AND DUP1 EXTCODESIZE DUP1 PUSH1 0x20 ADD PUSH1 0x40 MLOAD SWAP1 DUP2 ADD PUSH1 0x40 MSTORE DUP2 DUP2 MSTORE PUSH0 SWAP1 DUP1 PUSH1 0x20 ADD SWAP1 SWAP4 EXTCODECOPY SWAP2 POP DUP4 PUSH20 0xFFFFFFFFFFFFFFFFFFFFFFFFFFFFFFFFFFFFFFFF AND EXTCODEHASH SWAP1 POP SWAP2 SWAP4 SWAP1 SWAP3 POP JUMP JUMPDEST PUSH0 SWAP1 JUMP JUMPDEST PUSH1 0x60 PUSH0 PUSH1 0x40 MLOAD DUP1 PUSH1 0x40 ADD PUSH1 0x40 MSTORE DUP1 PUSH1 0xC DUP2 MSTORE PUSH1 0x20 ADD PUSH32 0xE5908CE5BF97E4BBACE5A5BD0000000000000000000000000000000000000000 DUP2 MSTORE POP SWAP1 POP PUSH1 0x40 MLOAD DUP1 PUSH1 0x40 ADD PUSH1 0x40 MSTORE DUP1 PUSH1 0x7 DUP2 MSTORE PUSH1 0x20 ADD PUSH32 0x7366736673646600000000000000000000000000000000000000000000000000 DUP2 MSTORE POP SWAP1 POP PUSH1 0x40 MLOAD DUP1 PUSH1 0x40 ADD PUSH1 0x40 MSTORE DUP1 PUSH1 0x2 DUP2 MSTORE PUSH1 0x20 ADD PUSH32 0x6162000000000000000000000000000000000000000000000000000000000000 DUP2 MSTORE POP SWAP2 POP POP SWAP1 JUMP JUMPDEST PUSH0 DUP1 PUSH1 0xFF PUSH1 0xF8 SHL ADDRESS DUP5 DUP7 DUP1 MLOAD SWAP1 PUSH1 0x20 ADD KECCAK256 PUSH1 0x40 MLOAD PUSH1 0x20 ADD PUSH2 0x4AE SWAP5 SWAP4 SWAP3 SWAP2 SWAP1 PUSH2 0xAE7 JUMP JUMPDEST PUSH1 0x40 MLOAD PUSH1 0x20 DUP2 DUP4 SUB SUB DUP2 MSTORE SWAP1 PUSH1 0x40 MSTORE DUP1 MLOAD SWAP1 PUSH1 0x20 ADD KECCAK256 SWAP1 POP DUP1 PUSH0 SHR SWAP2 POP POP SWAP3 SWAP2 POP POP JUMP JUMPDEST PUSH1 0x2 PUSH0 DUP1 PUSH2 0x100 EXP DUP2 SLOAD DUP2 PUSH1 0xFF MUL NOT AND SWAP1 DUP4 PUSH1 0x5 DUP2 GT ISZERO PUSH2 0x4F6 JUMPI PUSH2 0x4F5 PUSH2 0x513 JUMP JUMPDEST JUMPDEST MUL OR SWAP1 SSTORE POP JUMP JUMPDEST PUSH0 SWAP1 JUMP JUMPDEST PUSH0 DUP1 PUSH2 0x100 EXP DUP2 SLOAD SWAP1 PUSH1 0xFF MUL NOT AND SWAP1 SSTORE JUMP JUMPDEST PUSH32 0x4E487B7100000000000000000000000000000000000000000000000000000000 PUSH0 MSTORE PUSH1 0x21 PUSH1 0x4 MSTORE PUSH1 0x24 PUSH0 REVERT JUMPDEST PUSH1 0x6 DUP2 LT PUSH2 0x551 JUMPI PUSH2 0x550 PUSH2 0x513 JUMP JUMPDEST JUMPDEST POP JUMP JUMPDEST PUSH0 DUP2 SWAP1 POP PUSH2 0x561 DUP3 PUSH2 0x540 JUMP JUMPDEST SWAP2 SWAP1 POP JUMP JUMPDEST PUSH0 PUSH2 0x570 DUP3 PUSH2 0x554 JUMP JUMPDEST SWAP1 POP SWAP2 SWAP1 POP JUMP JUMPDEST PUSH2 0x580 DUP2 PUSH2 0x566 JUMP JUMPDEST DUP3 MSTORE POP POP JUMP JUMPDEST PUSH0 PUSH1 0x20 DUP3 ADD SWAP1 POP PUSH2 0x599 PUSH0 DUP4 ADD DUP5 PUSH2 0x577 JUMP JUMPDEST SWAP3 SWAP2 POP POP JUMP JUMPDEST PUSH0 PUSH1 0x40 MLOAD SWAP1 POP SWAP1 JUMP JUMPDEST PUSH0 DUP1 REVERT JUMPDEST PUSH0 DUP1 REVERT JUMPDEST PUSH1 0x6 DUP2 LT PUSH2 0x5BC JUMPI PUSH0 DUP1 REVERT JUMPDEST POP JUMP JUMPDEST PUSH0 DUP2 CALLDATALOAD SWAP1 POP PUSH2 0x5CD DUP2 PUSH2 0x5B0 JUMP JUMPDEST SWAP3 SWAP2 POP POP JUMP JUMPDEST PUSH0 PUSH1 0x20 DUP3 DUP5 SUB SLT ISZERO PUSH2 0x5E8 JUMPI PUSH2 0x5E7 PUSH2 0x5A8 JUMP JUMPDEST JUMPDEST PUSH0 PUSH2 0x5F5 DUP5 DUP3 DUP6 ADD PUSH2 0x5BF JUMP JUMPDEST SWAP2 POP POP SWAP3 SWAP2 POP POP JUMP JUMPDEST PUSH0 DUP2 SWAP1 POP SWAP2 SWAP1 POP JUMP JUMPDEST PUSH2 0x610 DUP2 PUSH2 0x5FE JUMP JUMPDEST DUP3 MSTORE POP POP JUMP JUMPDEST PUSH0 PUSH1 0x20 DUP3 ADD SWAP1 POP PUSH2 0x629 PUSH0 DUP4 ADD DUP5 PUSH2 0x607 JUMP JUMPDEST SWAP3 SWAP2 POP POP JUMP JUMPDEST PUSH0 DUP2 SWAP1 POP SWAP2 SWAP1 POP JUMP JUMPDEST PUSH2 0x641 DUP2 PUSH2 0x62F JUMP JUMPDEST DUP2 EQ PUSH2 0x64B JUMPI PUSH0 DUP1 REVERT JUMPDEST POP JUMP JUMPDEST PUSH0 DUP2 CALLDATALOAD SWAP1 POP PUSH2 0x65C DUP2 PUSH2 0x638 JUMP JUMPDEST SWAP3 SWAP2 POP POP JUMP JUMPDEST PUSH0 PUSH1 0x20 DUP3 DUP5 SUB SLT ISZERO PUSH2 0x677 JUMPI PUSH2 0x676 PUSH2 0x5A8 JUMP JUMPDEST JUMPDEST PUSH0 PUSH2 0x684 DUP5 DUP3 DUP6 ADD PUSH2 0x64E JUMP JUMPDEST SWAP2 POP POP SWAP3 SWAP2 POP POP JUMP JUMPDEST PUSH0 PUSH20 0xFFFFFFFFFFFFFFFFFFFFFFFFFFFFFFFFFFFFFFFF DUP3 AND SWAP1 POP SWAP2 SWAP1 POP JUMP JUMPDEST PUSH0 PUSH2 0x6B6 DUP3 PUSH2 0x68D JUMP JUMPDEST SWAP1 POP SWAP2 SWAP1 POP JUMP JUMPDEST PUSH2 0x6C6 DUP2 PUSH2 0x6AC JUMP JUMPDEST DUP3 MSTORE POP POP JUMP JUMPDEST PUSH0 PUSH1 0x20 DUP3 ADD SWAP1 POP PUSH2 0x6DF PUSH0 DUP4 ADD DUP5 PUSH2 0x6BD JUMP JUMPDEST SWAP3 SWAP2 POP POP JUMP JUMPDEST PUSH2 0x6EE DUP2 PUSH2 0x6AC JUMP JUMPDEST DUP2 EQ PUSH2 0x6F8 JUMPI PUSH0 DUP1 REVERT JUMPDEST POP JUMP JUMPDEST PUSH0 DUP2 CALLDATALOAD SWAP1 POP PUSH2 0x709 DUP2 PUSH2 0x6E5 JUMP JUMPDEST SWAP3 SWAP2 POP POP JUMP JUMPDEST PUSH0 PUSH1 0x20 DUP3 DUP5 SUB SLT ISZERO PUSH2 0x724 JUMPI PUSH2 0x723 PUSH2 0x5A8 JUMP JUMPDEST JUMPDEST PUSH0 PUSH2 0x731 DUP5 DUP3 DUP6 ADD PUSH2 0x6FB JUMP JUMPDEST SWAP2 POP POP SWAP3 SWAP2 POP POP JUMP JUMPDEST PUSH0 DUP2 MLOAD SWAP1 POP SWAP2 SWAP1 POP JUMP JUMPDEST PUSH0 DUP3 DUP3 MSTORE PUSH1 0x20 DUP3 ADD SWAP1 POP SWAP3 SWAP2 POP POP JUMP JUMPDEST DUP3 DUP2 DUP4 MCOPY PUSH0 DUP4 DUP4 ADD MSTORE POP POP POP JUMP JUMPDEST PUSH0 PUSH1 0x1F NOT PUSH1 0x1F DUP4 ADD AND SWAP1 POP SWAP2 SWAP1 POP JUMP JUMPDEST PUSH0 PUSH2 0x77C DUP3 PUSH2 0x73A JUMP JUMPDEST PUSH2 0x786 DUP2 DUP6 PUSH2 0x744 JUMP JUMPDEST SWAP4 POP PUSH2 0x796 DUP2 DUP6 PUSH1 0x20 DUP7 ADD PUSH2 0x754 JUMP JUMPDEST PUSH2 0x79F DUP2 PUSH2 0x762 JUMP JUMPDEST DUP5 ADD SWAP2 POP POP SWAP3 SWAP2 POP POP JUMP JUMPDEST PUSH2 0x7B3 DUP2 PUSH2 0x62F JUMP JUMPDEST DUP3 MSTORE POP POP JUMP JUMPDEST PUSH0 PUSH1 0x60 DUP3 ADD SWAP1 POP PUSH2 0x7CC PUSH0 DUP4 ADD DUP7 PUSH2 0x607 JUMP JUMPDEST DUP2 DUP2 SUB PUSH1 0x20 DUP4 ADD MSTORE PUSH2 0x7DE DUP2 DUP6 PUSH2 0x772 JUMP JUMPDEST SWAP1 POP PUSH2 0x7ED PUSH1 0x40 DUP4 ADD DUP5 PUSH2 0x7AA JUMP JUMPDEST SWAP5 SWAP4 POP POP POP POP JUMP JUMPDEST PUSH0 DUP2 MLOAD SWAP1 POP SWAP2 SWAP1 POP JUMP JUMPDEST PUSH0 DUP3 DUP3 MSTORE PUSH1 0x20 DUP3 ADD SWAP1 POP SWAP3 SWAP2 POP POP JUMP JUMPDEST PUSH0 PUSH2 0x819 DUP3 PUSH2 0x7F5 JUMP JUMPDEST PUSH2 0x823 DUP2 DUP6 PUSH2 0x7FF JUMP JUMPDEST SWAP4 POP PUSH2 0x833 DUP2 DUP6 PUSH1 0x20 DUP7 ADD PUSH2 0x754 JUMP JUMPDEST PUSH2 0x83C DUP2 PUSH2 0x762 JUMP JUMPDEST DUP5 ADD SWAP2 POP POP SWAP3 SWAP2 POP POP JUMP JUMPDEST PUSH0 PUSH1 0x20 DUP3 ADD SWAP1 POP DUP2 DUP2 SUB PUSH0 DUP4 ADD MSTORE PUSH2 0x85F DUP2 DUP5 PUSH2 0x80F JUMP JUMPDEST SWAP1 POP SWAP3 SWAP2 POP POP JUMP JUMPDEST PUSH0 DUP1 REVERT JUMPDEST PUSH0 DUP1 REVERT JUMPDEST PUSH32 0x4E487B7100000000000000000000000000000000000000000000000000000000 PUSH0 MSTORE PUSH1 0x41 PUSH1 0x4 MSTORE PUSH1 0x24 PUSH0 REVERT JUMPDEST PUSH2 0x8A5 DUP3 PUSH2 0x762 JUMP JUMPDEST DUP2 ADD DUP2 DUP2 LT PUSH8 0xFFFFFFFFFFFFFFFF DUP3 GT OR ISZERO PUSH2 0x8C4 JUMPI PUSH2 0x8C3 PUSH2 0x86F JUMP JUMPDEST JUMPDEST DUP1 PUSH1 0x40 MSTORE POP POP POP JUMP JUMPDEST PUSH0 PUSH2 0x8D6 PUSH2 0x59F JUMP JUMPDEST SWAP1 POP PUSH2 0x8E2 DUP3 DUP3 PUSH2 0x89C JUMP JUMPDEST SWAP2 SWAP1 POP JUMP JUMPDEST PUSH0 PUSH8 0xFFFFFFFFFFFFFFFF DUP3 GT ISZERO PUSH2 0x901 JUMPI PUSH2 0x900 PUSH2 0x86F JUMP JUMPDEST JUMPDEST PUSH2 0x90A DUP3 PUSH2 0x762 JUMP JUMPDEST SWAP1 POP PUSH1 0x20 DUP2 ADD SWAP1 POP SWAP2 SWAP1 POP JUMP JUMPDEST DUP3 DUP2 DUP4 CALLDATACOPY PUSH0 DUP4 DUP4 ADD MSTORE POP POP POP JUMP JUMPDEST PUSH0 PUSH2 0x937 PUSH2 0x932 DUP5 PUSH2 0x8E7 JUMP JUMPDEST PUSH2 0x8CD JUMP JUMPDEST SWAP1 POP DUP3 DUP2 MSTORE PUSH1 0x20 DUP2 ADD DUP5 DUP5 DUP5 ADD GT ISZERO PUSH2 0x953 JUMPI PUSH2 0x952 PUSH2 0x86B JUMP JUMPDEST JUMPDEST PUSH2 0x95E DUP5 DUP3 DUP6 PUSH2 0x917 JUMP JUMPDEST POP SWAP4 SWAP3 POP POP POP JUMP JUMPDEST PUSH0 DUP3 PUSH1 0x1F DUP4 ADD SLT PUSH2 0x97A JUMPI PUSH2 0x979 PUSH2 0x867 JUMP JUMPDEST JUMPDEST DUP2 CALLDATALOAD PUSH2 0x98A DUP5 DUP3 PUSH1 0x20 DUP7 ADD PUSH2 0x925 JUMP JUMPDEST SWAP2 POP POP SWAP3 SWAP2 POP POP JUMP JUMPDEST PUSH2 0x99C DUP2 PUSH2 0x5FE JUMP JUMPDEST DUP2 EQ PUSH2 0x9A6 JUMPI PUSH0 DUP1 REVERT JUMPDEST POP JUMP JUMPDEST PUSH0 DUP2 CALLDATALOAD SWAP1 POP PUSH2 0x9B7 DUP2 PUSH2 0x993 JUMP JUMPDEST SWAP3 SWAP2 POP POP JUMP JUMPDEST PUSH0 DUP1 PUSH1 0x40 DUP4 DUP6 SUB SLT ISZERO PUSH2 0x9D3 JUMPI PUSH2 0x9D2 PUSH2 0x5A8 JUMP JUMPDEST JUMPDEST PUSH0 DUP4 ADD CALLDATALOAD PUSH8 0xFFFFFFFFFFFFFFFF DUP2 GT ISZERO PUSH2 0x9F0 JUMPI PUSH2 0x9EF PUSH2 0x5AC JUMP JUMPDEST JUMPDEST PUSH2 0x9FC DUP6 DUP3 DUP7 ADD PUSH2 0x966 JUMP JUMPDEST SWAP3 POP POP PUSH1 0x20 PUSH2 0xA0D DUP6 DUP3 DUP7 ADD PUSH2 0x9A9 JUMP JUMPDEST SWAP2 POP POP SWAP3 POP SWAP3 SWAP1 POP JUMP JUMPDEST PUSH0 PUSH32 0xFF00000000000000000000000000000000000000000000000000000000000000 DUP3 AND SWAP1 POP SWAP2 SWAP1 POP JUMP JUMPDEST PUSH0 DUP2 SWAP1 POP SWAP2 SWAP1 POP JUMP JUMPDEST PUSH2 0xA5C PUSH2 0xA57 DUP3 PUSH2 0xA17 JUMP JUMPDEST PUSH2 0xA42 JUMP JUMPDEST DUP3 MSTORE POP POP JUMP JUMPDEST PUSH0 DUP2 PUSH1 0x60 SHL SWAP1 POP SWAP2 SWAP1 POP JUMP JUMPDEST PUSH0 PUSH2 0xA78 DUP3 PUSH2 0xA62 JUMP JUMPDEST SWAP1 POP SWAP2 SWAP1 POP JUMP JUMPDEST PUSH0 PUSH2 0xA89 DUP3 PUSH2 0xA6E JUMP JUMPDEST SWAP1 POP SWAP2 SWAP1 POP JUMP JUMPDEST PUSH2 0xAA1 PUSH2 0xA9C DUP3 PUSH2 0x6AC JUMP JUMPDEST PUSH2 0xA7F JUMP JUMPDEST DUP3 MSTORE POP POP JUMP JUMPDEST PUSH0 DUP2 SWAP1 POP SWAP2 SWAP1 POP JUMP JUMPDEST PUSH2 0xAC1 PUSH2 0xABC DUP3 PUSH2 0x5FE JUMP JUMPDEST PUSH2 0xAA7 JUMP JUMPDEST DUP3 MSTORE POP POP JUMP JUMPDEST PUSH0 DUP2 SWAP1 POP SWAP2 SWAP1 POP JUMP JUMPDEST PUSH2 0xAE1 PUSH2 0xADC DUP3 PUSH2 0x62F JUMP JUMPDEST PUSH2 0xAC7 JUMP JUMPDEST DUP3 MSTORE POP POP JUMP JUMPDEST PUSH0 PUSH2 0xAF2 DUP3 DUP8 PUSH2 0xA4B JUMP JUMPDEST PUSH1 0x1 DUP3 ADD SWAP2 POP PUSH2 0xB02 DUP3 DUP7 PUSH2 0xA90 JUMP JUMPDEST PUSH1 0x14 DUP3 ADD SWAP2 POP PUSH2 0xB12 DUP3 DUP6 PUSH2 0xAB0 JUMP JUMPDEST PUSH1 0x20 DUP3 ADD SWAP2 POP PUSH2 0xB22 DUP3 DUP5 PUSH2 0xAD0 JUMP JUMPDEST PUSH1 0x20 DUP3 ADD SWAP2 POP DUP2 SWAP1 POP SWAP6 SWAP5 POP POP POP POP POP JUMP INVALID LOG2 PUSH5 0x6970667358 0x22 SLT KECCAK256 0xBD 0xCA DUP7 BYTE DUP5 0xB5 PUSH23 0x86214D20ECB75D607B846E1AD38CDFB05429F90A604FFA CALLVALUE 0xD7 PUSH5 0x736F6C6343 STOP ADDMOD BYTE STOP CALLER "
				},
				"gasEstimates": {
					"creation": {
						"codeDepositCost": "584400",
						"executionCost": "617",
						"totalCost": "585017"
					},
					"external": {
						"bytes32ToAddress(bytes32)": "669",
						"demoAddress(address)": "infinite",
						"getAddress(bytes,uint256)": "infinite",
						"getDefaultStatus()": "2538",
						"getHex()": "210",
						"getLargestValue()": "494",
						"getMax()": "355",
						"getMin()": "390",
						"getSmallestValue()": "485",
						"getStatus()": "2650",
						"getString()": "infinite",
						"reset()": "24472",
						"set(uint8)": "24691",
						"ship()": "24473",
						"status()": "2575"
					}
				},
				"methodIdentifiers": {
					"bytes32ToAddress(bytes32)": "5ced058e",
					"demoAddress(address)": "627264e9",
					"getAddress(bytes,uint256)": "94ca2cb5",
					"getDefaultStatus()": "485d498a",
					"getHex()": "4d9dd966",
					"getLargestValue()": "2e63c301",
					"getMax()": "3075f552",
					"getMin()": "d6362e97",
					"getSmallestValue()": "85f73fe9",
					"getStatus()": "4e69d560",
					"getString()": "89ea642f",
					"reset()": "d826f88f",
					"set(uint8)": "24b8ba5f",
					"ship()": "b6bef7b3",
					"status()": "200d2ed2"
				}
			},
			"storageLayout": {
				"storage": [
					{
						"astId": 104,
						"contract": "demo/TypeOfData.sol:TypeOfData",
						"label": "status",
						"offset": 0,
						"slot": "0",
						"type": "t_enum(Status)101"
					}
				],
				"types": {
					"t_enum(Status)101": {
						"encoding": "inplace",
						"label": "enum TypeOfData.Status",
						"numberOfBytes": "1"
					}
				}
			},
			"userdoc": {
				"kind": "user",
				"methods": {
					"bytes32ToAddress(bytes32)": {
						"notice": "1 字节 8 位，一个 address 是 20 个字节，是 160 位，所以 address 可以用 uint160 表示。 1 字节可以表示为两个连续的十六进制数字，所以 address 可以用连续的 40 个十六进制数字表示。"
					}
				},
				"version": 1
			}
		}
	}
}