{
	"contracts/demo/abi.sol": {
		"ABICoder": {
			"abi": [
				{
					"inputs": [
						{
							"internalType": "bytes",
							"name": "data",
							"type": "bytes"
						}
					],
					"name": "decodeData",
					"outputs": [
						{
							"internalType": "uint256",
							"name": "",
							"type": "uint256"
						},
						{
							"internalType": "address",
							"name": "",
							"type": "address"
						},
						{
							"internalType": "uint256[]",
							"name": "",
							"type": "uint256[]"
						},
						{
							"components": [
								{
									"internalType": "string",
									"name": "name",
									"type": "string"
								},
								{
									"internalType": "uint256[2]",
									"name": "numbers",
									"type": "uint256[2]"
								}
							],
							"internalType": "struct ABICoder.MyStruct",
							"name": "",
							"type": "tuple"
						}
					],
					"stateMutability": "pure",
					"type": "function"
				},
				{
					"inputs": [
						{
							"internalType": "uint256",
							"name": "x",
							"type": "uint256"
						},
						{
							"internalType": "address",
							"name": "addr",
							"type": "address"
						},
						{
							"internalType": "uint256[]",
							"name": "r",
							"type": "uint256[]"
						},
						{
							"components": [
								{
									"internalType": "string",
									"name": "name",
									"type": "string"
								},
								{
									"internalType": "uint256[2]",
									"name": "numbers",
									"type": "uint256[2]"
								}
							],
							"internalType": "struct ABICoder.MyStruct",
							"name": "myStruct",
							"type": "tuple"
						}
					],
					"name": "encodeData",
					"outputs": [
						{
							"internalType": "bytes",
							"name": "",
							"type": "bytes"
						}
					],
					"stateMutability": "pure",
					"type": "function"
				},
				{
					"inputs": [],
					"name": "encodeWithSignature",
					"outputs": [
						{
							"internalType": "bytes",
							"name": "",
							"type": "bytes"
						}
					],
					"stateMutability": "pure",
					"type": "function"
				}
			],
			"devdoc": {
				"kind": "dev",
				"methods": {},
				"version": 1
			},
			"evm": {
				"assembly": "    /* \"contracts/demo/abi.sol\":231:1238  contract ABICoder {\r... */\n  mstore(0x40, 0x80)\n  callvalue\n  dup1\n  iszero\n  tag_1\n  jumpi\n  0x00\n  dup1\n  revert\ntag_1:\n  pop\n  dataSize(sub_0)\n  dup1\n  dataOffset(sub_0)\n  0x00\n  codecopy\n  0x00\n  return\nstop\n\nsub_0: assembly {\n        /* \"contracts/demo/abi.sol\":231:1238  contract ABICoder {\r... */\n      mstore(0x40, 0x80)\n      callvalue\n      dup1\n      iszero\n      tag_1\n      jumpi\n      0x00\n      dup1\n      revert\n    tag_1:\n      pop\n      jumpi(tag_2, lt(calldatasize, 0x04))\n      shr(0xe0, calldataload(0x00))\n      dup1\n      0x447a06f5\n      eq\n      tag_3\n      jumpi\n      dup1\n      0x985f36f4\n      eq\n      tag_4\n      jumpi\n      dup1\n      0xe4f2a84a\n      eq\n      tag_5\n      jumpi\n    tag_2:\n      0x00\n      dup1\n      revert\n        /* \"contracts/demo/abi.sol\":634:1095  function decodeData(bytes memory data)\r... */\n    tag_3:\n      tag_6\n      0x04\n      dup1\n      calldatasize\n      sub\n      dup2\n      add\n      swap1\n      tag_7\n      swap2\n      swap1\n      tag_8\n      jump\t// in\n    tag_7:\n      tag_9\n      jump\t// in\n    tag_6:\n      mload(0x40)\n      tag_10\n      swap5\n      swap4\n      swap3\n      swap2\n      swap1\n      tag_11\n      jump\t// in\n    tag_10:\n      mload(0x40)\n      dup1\n      swap2\n      sub\n      swap1\n      return\n        /* \"contracts/demo/abi.sol\":369:596  function encodeData(\r... */\n    tag_4:\n      tag_12\n      0x04\n      dup1\n      calldatasize\n      sub\n      dup2\n      add\n      swap1\n      tag_13\n      swap2\n      swap1\n      tag_14\n      jump\t// in\n    tag_13:\n      tag_15\n      jump\t// in\n    tag_12:\n      mload(0x40)\n      tag_16\n      swap2\n      swap1\n      tag_17\n      jump\t// in\n    tag_16:\n      mload(0x40)\n      dup1\n      swap2\n      sub\n      swap1\n      return\n        /* \"contracts/demo/abi.sol\":1103:1229  function encodeWithSignature() external pure returns (bytes memory) {\r... */\n    tag_5:\n      tag_18\n      tag_19\n      jump\t// in\n    tag_18:\n      mload(0x40)\n      tag_20\n      swap2\n      swap1\n      tag_17\n      jump\t// in\n    tag_20:\n      mload(0x40)\n      dup1\n      swap2\n      sub\n      swap1\n      return\n        /* \"contracts/demo/abi.sol\":634:1095  function decodeData(bytes memory data)\r... */\n    tag_9:\n        /* \"contracts/demo/abi.sol\":735:742  uint256 */\n      0x00\n        /* \"contracts/demo/abi.sol\":757:764  address */\n      dup1\n        /* \"contracts/demo/abi.sol\":779:795  uint256[] memory */\n      0x60\n        /* \"contracts/demo/abi.sol\":810:825  MyStruct memory */\n      tag_21\n      tag_22\n      jump\t// in\n    tag_21:\n        /* \"contracts/demo/abi.sol\":868:877  uint256 x */\n      0x00\n        /* \"contracts/demo/abi.sol\":892:904  address addr */\n      dup1\n        /* \"contracts/demo/abi.sol\":919:937  uint256[] memory r */\n      0x00\n        /* \"contracts/demo/abi.sol\":952:976  MyStruct memory myStruct */\n      dup1\n        /* \"contracts/demo/abi.sol\":1001:1005  data */\n      dup9\n        /* \"contracts/demo/abi.sol\":990:1047  abi.decode(data, (uint256, address, uint256[], MyStruct)) */\n      dup1\n      0x20\n      add\n      swap1\n      mload\n      dup2\n      add\n      swap1\n      tag_24\n      swap2\n      swap1\n      tag_25\n      jump\t// in\n    tag_24:\n        /* \"contracts/demo/abi.sol\":853:1047  (\r... */\n      swap4\n      pop\n      swap4\n      pop\n      swap4\n      pop\n      swap4\n      pop\n        /* \"contracts/demo/abi.sol\":1066:1067  x */\n      dup4\n        /* \"contracts/demo/abi.sol\":1069:1073  addr */\n      dup4\n        /* \"contracts/demo/abi.sol\":1075:1076  r */\n      dup4\n        /* \"contracts/demo/abi.sol\":1078:1086  myStruct */\n      dup4\n        /* \"contracts/demo/abi.sol\":1058:1087  return (x, addr, r, myStruct) */\n      swap8\n      pop\n      swap8\n      pop\n      swap8\n      pop\n      swap8\n      pop\n      pop\n      pop\n      pop\n      pop\n        /* \"contracts/demo/abi.sol\":634:1095  function decodeData(bytes memory data)\r... */\n      swap2\n      swap4\n      pop\n      swap2\n      swap4\n      jump\t// out\n        /* \"contracts/demo/abi.sol\":369:596  function encodeData(\r... */\n    tag_15:\n        /* \"contracts/demo/abi.sol\":524:536  bytes memory */\n      0x60\n        /* \"contracts/demo/abi.sol\":567:568  x */\n      dup5\n        /* \"contracts/demo/abi.sol\":570:574  addr */\n      dup5\n        /* \"contracts/demo/abi.sol\":576:577  r */\n      dup5\n        /* \"contracts/demo/abi.sol\":579:587  myStruct */\n      dup5\n        /* \"contracts/demo/abi.sol\":556:588  abi.encode(x, addr, r, myStruct) */\n      add(0x20, mload(0x40))\n      tag_27\n      swap5\n      swap4\n      swap3\n      swap2\n      swap1\n      tag_11\n      jump\t// in\n    tag_27:\n      mload(0x40)\n      0x20\n      dup2\n      dup4\n      sub\n      sub\n      dup2\n      mstore\n      swap1\n      0x40\n      mstore\n        /* \"contracts/demo/abi.sol\":549:588  return abi.encode(x, addr, r, myStruct) */\n      swap1\n      pop\n        /* \"contracts/demo/abi.sol\":369:596  function encodeData(\r... */\n      swap5\n      swap4\n      pop\n      pop\n      pop\n      pop\n      jump\t// out\n        /* \"contracts/demo/abi.sol\":1103:1229  function encodeWithSignature() external pure returns (bytes memory) {\r... */\n    tag_19:\n        /* \"contracts/demo/abi.sol\":1157:1169  bytes memory */\n      0x60\n        /* \"contracts/demo/abi.sol\":1189:1221  abi.encodeWithSignature(\"inc()\") */\n      add(0x24, mload(0x40))\n      mload(0x40)\n      0x20\n      dup2\n      dup4\n      sub\n      sub\n      dup2\n      mstore\n      swap1\n      0x40\n      mstore\n      and(not(0xffffffffffffffffffffffffffffffffffffffffffffffffffffffff), 0x371303c000000000000000000000000000000000000000000000000000000000)\n      0x20\n      dup3\n      add\n      dup1\n      mload\n      0xffffffffffffffffffffffffffffffffffffffffffffffffffffffff\n      dup4\n      dup2\n      dup4\n      and\n      or\n      dup4\n      mstore\n      pop\n      pop\n      pop\n      pop\n        /* \"contracts/demo/abi.sol\":1182:1221  return abi.encodeWithSignature(\"inc()\") */\n      swap1\n      pop\n        /* \"contracts/demo/abi.sol\":1103:1229  function encodeWithSignature() external pure returns (bytes memory) {\r... */\n      swap1\n      jump\t// out\n    tag_22:\n      mload(0x40)\n      dup1\n      0x40\n      add\n      0x40\n      mstore\n      dup1\n      0x60\n      dup2\n      mstore\n      0x20\n      add\n      tag_29\n      tag_30\n      jump\t// in\n    tag_29:\n      dup2\n      mstore\n      pop\n      swap1\n      jump\t// out\n    tag_30:\n      mload(0x40)\n      dup1\n      0x40\n      add\n      0x40\n      mstore\n      dup1\n      0x02\n      swap1\n      0x20\n      dup3\n      mul\n      dup1\n      calldatasize\n      dup4\n      calldatacopy\n      dup1\n      dup3\n      add\n      swap2\n      pop\n      pop\n      swap1\n      pop\n      pop\n      swap1\n      jump\t// out\n        /* \"#utility.yul\":25:590   */\n    tag_32:\n      0x00\n        /* \"#utility.yul\":144:222   */\n      tag_34\n        /* \"#utility.yul\":159:221   */\n      tag_35\n        /* \"#utility.yul\":214:220   */\n      dup5\n        /* \"#utility.yul\":159:221   */\n      tag_36\n      jump\t// in\n    tag_35:\n        /* \"#utility.yul\":144:222   */\n      tag_37\n      jump\t// in\n    tag_34:\n        /* \"#utility.yul\":135:222   */\n      swap1\n      pop\n        /* \"#utility.yul\":242:247   */\n      dup1\n        /* \"#utility.yul\":268:274   */\n      dup3\n        /* \"#utility.yul\":318:321   */\n      dup6\n        /* \"#utility.yul\":310:314   */\n      0x20\n        /* \"#utility.yul\":302:308   */\n      dup7\n        /* \"#utility.yul\":298:315   */\n      mul\n        /* \"#utility.yul\":293:296   */\n      dup3\n        /* \"#utility.yul\":289:316   */\n      add\n        /* \"#utility.yul\":286:322   */\n      gt\n        /* \"#utility.yul\":283:285   */\n      iszero\n      tag_38\n      jumpi\n        /* \"#utility.yul\":335:336   */\n      0x00\n        /* \"#utility.yul\":332:333   */\n      dup1\n        /* \"#utility.yul\":325:337   */\n      revert\n        /* \"#utility.yul\":283:285   */\n    tag_38:\n        /* \"#utility.yul\":363:364   */\n      0x00\n        /* \"#utility.yul\":348:584   */\n    tag_39:\n        /* \"#utility.yul\":373:379   */\n      dup6\n        /* \"#utility.yul\":370:371   */\n      dup2\n        /* \"#utility.yul\":367:380   */\n      lt\n        /* \"#utility.yul\":348:584   */\n      iszero\n      tag_41\n      jumpi\n        /* \"#utility.yul\":440:443   */\n      dup2\n        /* \"#utility.yul\":468:505   */\n      tag_42\n        /* \"#utility.yul\":501:504   */\n      dup9\n        /* \"#utility.yul\":489:499   */\n      dup3\n        /* \"#utility.yul\":468:505   */\n      tag_43\n      jump\t// in\n    tag_42:\n        /* \"#utility.yul\":463:466   */\n      dup5\n        /* \"#utility.yul\":456:506   */\n      mstore\n        /* \"#utility.yul\":535:539   */\n      0x20\n        /* \"#utility.yul\":530:533   */\n      dup5\n        /* \"#utility.yul\":526:540   */\n      add\n        /* \"#utility.yul\":519:540   */\n      swap4\n      pop\n        /* \"#utility.yul\":569:573   */\n      0x20\n        /* \"#utility.yul\":564:567   */\n      dup4\n        /* \"#utility.yul\":560:574   */\n      add\n        /* \"#utility.yul\":553:574   */\n      swap3\n      pop\n        /* \"#utility.yul\":408:584   */\n      pop\n        /* \"#utility.yul\":395:396   */\n      0x01\n        /* \"#utility.yul\":392:393   */\n      dup2\n        /* \"#utility.yul\":388:397   */\n      add\n        /* \"#utility.yul\":383:397   */\n      swap1\n      pop\n        /* \"#utility.yul\":348:584   */\n      jump(tag_39)\n    tag_41:\n        /* \"#utility.yul\":352:366   */\n      pop\n        /* \"#utility.yul\":125:590   */\n      pop\n      pop\n      swap4\n      swap3\n      pop\n      pop\n      pop\n      jump\t// out\n        /* \"#utility.yul\":614:1201   */\n    tag_44:\n      0x00\n        /* \"#utility.yul\":744:822   */\n      tag_46\n        /* \"#utility.yul\":759:821   */\n      tag_47\n        /* \"#utility.yul\":814:820   */\n      dup5\n        /* \"#utility.yul\":759:821   */\n      tag_36\n      jump\t// in\n    tag_47:\n        /* \"#utility.yul\":744:822   */\n      tag_37\n      jump\t// in\n    tag_46:\n        /* \"#utility.yul\":735:822   */\n      swap1\n      pop\n        /* \"#utility.yul\":842:847   */\n      dup1\n        /* \"#utility.yul\":868:874   */\n      dup3\n        /* \"#utility.yul\":918:921   */\n      dup6\n        /* \"#utility.yul\":910:914   */\n      0x20\n        /* \"#utility.yul\":902:908   */\n      dup7\n        /* \"#utility.yul\":898:915   */\n      mul\n        /* \"#utility.yul\":893:896   */\n      dup3\n        /* \"#utility.yul\":889:916   */\n      add\n        /* \"#utility.yul\":886:922   */\n      gt\n        /* \"#utility.yul\":883:885   */\n      iszero\n      tag_48\n      jumpi\n        /* \"#utility.yul\":935:936   */\n      0x00\n        /* \"#utility.yul\":932:933   */\n      dup1\n        /* \"#utility.yul\":925:937   */\n      revert\n        /* \"#utility.yul\":883:885   */\n    tag_48:\n        /* \"#utility.yul\":963:964   */\n      0x00\n        /* \"#utility.yul\":948:1195   */\n    tag_49:\n        /* \"#utility.yul\":973:979   */\n      dup6\n        /* \"#utility.yul\":970:971   */\n      dup2\n        /* \"#utility.yul\":967:980   */\n      lt\n        /* \"#utility.yul\":948:1195   */\n      iszero\n      tag_51\n      jumpi\n        /* \"#utility.yul\":1040:1043   */\n      dup2\n        /* \"#utility.yul\":1068:1116   */\n      tag_52\n        /* \"#utility.yul\":1112:1115   */\n      dup9\n        /* \"#utility.yul\":1100:1110   */\n      dup3\n        /* \"#utility.yul\":1068:1116   */\n      tag_53\n      jump\t// in\n    tag_52:\n        /* \"#utility.yul\":1063:1066   */\n      dup5\n        /* \"#utility.yul\":1056:1117   */\n      mstore\n        /* \"#utility.yul\":1146:1150   */\n      0x20\n        /* \"#utility.yul\":1141:1144   */\n      dup5\n        /* \"#utility.yul\":1137:1151   */\n      add\n        /* \"#utility.yul\":1130:1151   */\n      swap4\n      pop\n        /* \"#utility.yul\":1180:1184   */\n      0x20\n        /* \"#utility.yul\":1175:1178   */\n      dup4\n        /* \"#utility.yul\":1171:1185   */\n      add\n        /* \"#utility.yul\":1164:1185   */\n      swap3\n      pop\n        /* \"#utility.yul\":1008:1195   */\n      pop\n        /* \"#utility.yul\":995:996   */\n      0x01\n        /* \"#utility.yul\":992:993   */\n      dup2\n        /* \"#utility.yul\":988:997   */\n      add\n        /* \"#utility.yul\":983:997   */\n      swap1\n      pop\n        /* \"#utility.yul\":948:1195   */\n      jump(tag_49)\n    tag_51:\n        /* \"#utility.yul\":952:966   */\n      pop\n        /* \"#utility.yul\":725:1201   */\n      pop\n      pop\n      swap4\n      swap3\n      pop\n      pop\n      pop\n      jump\t// out\n        /* \"#utility.yul\":1224:1846   */\n    tag_54:\n      0x00\n        /* \"#utility.yul\":1345:1425   */\n      tag_56\n        /* \"#utility.yul\":1360:1424   */\n      tag_57\n        /* \"#utility.yul\":1417:1423   */\n      dup5\n        /* \"#utility.yul\":1360:1424   */\n      tag_58\n      jump\t// in\n    tag_57:\n        /* \"#utility.yul\":1345:1425   */\n      tag_37\n      jump\t// in\n    tag_56:\n        /* \"#utility.yul\":1336:1425   */\n      swap1\n      pop\n        /* \"#utility.yul\":1445:1450   */\n      dup1\n        /* \"#utility.yul\":1473:1479   */\n      dup4\n        /* \"#utility.yul\":1466:1471   */\n      dup3\n        /* \"#utility.yul\":1459:1480   */\n      mstore\n        /* \"#utility.yul\":1499:1503   */\n      0x20\n        /* \"#utility.yul\":1492:1497   */\n      dup3\n        /* \"#utility.yul\":1488:1504   */\n      add\n        /* \"#utility.yul\":1481:1504   */\n      swap1\n      pop\n        /* \"#utility.yul\":1524:1530   */\n      dup3\n        /* \"#utility.yul\":1574:1577   */\n      dup6\n        /* \"#utility.yul\":1566:1570   */\n      0x20\n        /* \"#utility.yul\":1558:1564   */\n      dup7\n        /* \"#utility.yul\":1554:1571   */\n      mul\n        /* \"#utility.yul\":1549:1552   */\n      dup3\n        /* \"#utility.yul\":1545:1572   */\n      add\n        /* \"#utility.yul\":1542:1578   */\n      gt\n        /* \"#utility.yul\":1539:1541   */\n      iszero\n      tag_59\n      jumpi\n        /* \"#utility.yul\":1591:1592   */\n      0x00\n        /* \"#utility.yul\":1588:1589   */\n      dup1\n        /* \"#utility.yul\":1581:1593   */\n      revert\n        /* \"#utility.yul\":1539:1541   */\n    tag_59:\n        /* \"#utility.yul\":1619:1620   */\n      0x00\n        /* \"#utility.yul\":1604:1840   */\n    tag_60:\n        /* \"#utility.yul\":1629:1635   */\n      dup6\n        /* \"#utility.yul\":1626:1627   */\n      dup2\n        /* \"#utility.yul\":1623:1636   */\n      lt\n        /* \"#utility.yul\":1604:1840   */\n      iszero\n      tag_62\n      jumpi\n        /* \"#utility.yul\":1696:1699   */\n      dup2\n        /* \"#utility.yul\":1724:1761   */\n      tag_63\n        /* \"#utility.yul\":1757:1760   */\n      dup9\n        /* \"#utility.yul\":1745:1755   */\n      dup3\n        /* \"#utility.yul\":1724:1761   */\n      tag_43\n      jump\t// in\n    tag_63:\n        /* \"#utility.yul\":1719:1722   */\n      dup5\n        /* \"#utility.yul\":1712:1762   */\n      mstore\n        /* \"#utility.yul\":1791:1795   */\n      0x20\n        /* \"#utility.yul\":1786:1789   */\n      dup5\n        /* \"#utility.yul\":1782:1796   */\n      add\n        /* \"#utility.yul\":1775:1796   */\n      swap4\n      pop\n        /* \"#utility.yul\":1825:1829   */\n      0x20\n        /* \"#utility.yul\":1820:1823   */\n      dup4\n        /* \"#utility.yul\":1816:1830   */\n      add\n        /* \"#utility.yul\":1809:1830   */\n      swap3\n      pop\n        /* \"#utility.yul\":1664:1840   */\n      pop\n        /* \"#utility.yul\":1651:1652   */\n      0x01\n        /* \"#utility.yul\":1648:1649   */\n      dup2\n        /* \"#utility.yul\":1644:1653   */\n      add\n        /* \"#utility.yul\":1639:1653   */\n      swap1\n      pop\n        /* \"#utility.yul\":1604:1840   */\n      jump(tag_60)\n    tag_62:\n        /* \"#utility.yul\":1608:1622   */\n      pop\n        /* \"#utility.yul\":1326:1846   */\n      pop\n      pop\n      swap4\n      swap3\n      pop\n      pop\n      pop\n      jump\t// out\n        /* \"#utility.yul\":1869:2513   */\n    tag_64:\n      0x00\n        /* \"#utility.yul\":2001:2081   */\n      tag_66\n        /* \"#utility.yul\":2016:2080   */\n      tag_67\n        /* \"#utility.yul\":2073:2079   */\n      dup5\n        /* \"#utility.yul\":2016:2080   */\n      tag_58\n      jump\t// in\n    tag_67:\n        /* \"#utility.yul\":2001:2081   */\n      tag_37\n      jump\t// in\n    tag_66:\n        /* \"#utility.yul\":1992:2081   */\n      swap1\n      pop\n        /* \"#utility.yul\":2101:2106   */\n      dup1\n        /* \"#utility.yul\":2129:2135   */\n      dup4\n        /* \"#utility.yul\":2122:2127   */\n      dup3\n        /* \"#utility.yul\":2115:2136   */\n      mstore\n        /* \"#utility.yul\":2155:2159   */\n      0x20\n        /* \"#utility.yul\":2148:2153   */\n      dup3\n        /* \"#utility.yul\":2144:2160   */\n      add\n        /* \"#utility.yul\":2137:2160   */\n      swap1\n      pop\n        /* \"#utility.yul\":2180:2186   */\n      dup3\n        /* \"#utility.yul\":2230:2233   */\n      dup6\n        /* \"#utility.yul\":2222:2226   */\n      0x20\n        /* \"#utility.yul\":2214:2220   */\n      dup7\n        /* \"#utility.yul\":2210:2227   */\n      mul\n        /* \"#utility.yul\":2205:2208   */\n      dup3\n        /* \"#utility.yul\":2201:2228   */\n      add\n        /* \"#utility.yul\":2198:2234   */\n      gt\n        /* \"#utility.yul\":2195:2197   */\n      iszero\n      tag_68\n      jumpi\n        /* \"#utility.yul\":2247:2248   */\n      0x00\n        /* \"#utility.yul\":2244:2245   */\n      dup1\n        /* \"#utility.yul\":2237:2249   */\n      revert\n        /* \"#utility.yul\":2195:2197   */\n    tag_68:\n        /* \"#utility.yul\":2275:2276   */\n      0x00\n        /* \"#utility.yul\":2260:2507   */\n    tag_69:\n        /* \"#utility.yul\":2285:2291   */\n      dup6\n        /* \"#utility.yul\":2282:2283   */\n      dup2\n        /* \"#utility.yul\":2279:2292   */\n      lt\n        /* \"#utility.yul\":2260:2507   */\n      iszero\n      tag_71\n      jumpi\n        /* \"#utility.yul\":2352:2355   */\n      dup2\n        /* \"#utility.yul\":2380:2428   */\n      tag_72\n        /* \"#utility.yul\":2424:2427   */\n      dup9\n        /* \"#utility.yul\":2412:2422   */\n      dup3\n        /* \"#utility.yul\":2380:2428   */\n      tag_53\n      jump\t// in\n    tag_72:\n        /* \"#utility.yul\":2375:2378   */\n      dup5\n        /* \"#utility.yul\":2368:2429   */\n      mstore\n        /* \"#utility.yul\":2458:2462   */\n      0x20\n        /* \"#utility.yul\":2453:2456   */\n      dup5\n        /* \"#utility.yul\":2449:2463   */\n      add\n        /* \"#utility.yul\":2442:2463   */\n      swap4\n      pop\n        /* \"#utility.yul\":2492:2496   */\n      0x20\n        /* \"#utility.yul\":2487:2490   */\n      dup4\n        /* \"#utility.yul\":2483:2497   */\n      add\n        /* \"#utility.yul\":2476:2497   */\n      swap3\n      pop\n        /* \"#utility.yul\":2320:2507   */\n      pop\n        /* \"#utility.yul\":2307:2308   */\n      0x01\n        /* \"#utility.yul\":2304:2305   */\n      dup2\n        /* \"#utility.yul\":2300:2309   */\n      add\n        /* \"#utility.yul\":2295:2309   */\n      swap1\n      pop\n        /* \"#utility.yul\":2260:2507   */\n      jump(tag_69)\n    tag_71:\n        /* \"#utility.yul\":2264:2278   */\n      pop\n        /* \"#utility.yul\":1982:2513   */\n      pop\n      pop\n      swap4\n      swap3\n      pop\n      pop\n      pop\n      jump\t// out\n        /* \"#utility.yul\":2519:2861   */\n    tag_73:\n      0x00\n        /* \"#utility.yul\":2621:2685   */\n      tag_75\n        /* \"#utility.yul\":2636:2684   */\n      tag_76\n        /* \"#utility.yul\":2677:2683   */\n      dup5\n        /* \"#utility.yul\":2636:2684   */\n      tag_77\n      jump\t// in\n    tag_76:\n        /* \"#utility.yul\":2621:2685   */\n      tag_37\n      jump\t// in\n    tag_75:\n        /* \"#utility.yul\":2612:2685   */\n      swap1\n      pop\n        /* \"#utility.yul\":2708:2714   */\n      dup3\n        /* \"#utility.yul\":2701:2706   */\n      dup2\n        /* \"#utility.yul\":2694:2715   */\n      mstore\n        /* \"#utility.yul\":2746:2750   */\n      0x20\n        /* \"#utility.yul\":2739:2744   */\n      dup2\n        /* \"#utility.yul\":2735:2751   */\n      add\n        /* \"#utility.yul\":2784:2787   */\n      dup5\n        /* \"#utility.yul\":2775:2781   */\n      dup5\n        /* \"#utility.yul\":2770:2773   */\n      dup5\n        /* \"#utility.yul\":2766:2782   */\n      add\n        /* \"#utility.yul\":2763:2788   */\n      gt\n        /* \"#utility.yul\":2760:2762   */\n      iszero\n      tag_78\n      jumpi\n        /* \"#utility.yul\":2801:2802   */\n      0x00\n        /* \"#utility.yul\":2798:2799   */\n      dup1\n        /* \"#utility.yul\":2791:2803   */\n      revert\n        /* \"#utility.yul\":2760:2762   */\n    tag_78:\n        /* \"#utility.yul\":2814:2855   */\n      tag_79\n        /* \"#utility.yul\":2848:2854   */\n      dup5\n        /* \"#utility.yul\":2843:2846   */\n      dup3\n        /* \"#utility.yul\":2838:2841   */\n      dup6\n        /* \"#utility.yul\":2814:2855   */\n      tag_80\n      jump\t// in\n    tag_79:\n        /* \"#utility.yul\":2602:2861   */\n      pop\n      swap4\n      swap3\n      pop\n      pop\n      pop\n      jump\t// out\n        /* \"#utility.yul\":2867:3211   */\n    tag_81:\n      0x00\n        /* \"#utility.yul\":2970:3035   */\n      tag_83\n        /* \"#utility.yul\":2985:3034   */\n      tag_84\n        /* \"#utility.yul\":3027:3033   */\n      dup5\n        /* \"#utility.yul\":2985:3034   */\n      tag_85\n      jump\t// in\n    tag_84:\n        /* \"#utility.yul\":2970:3035   */\n      tag_37\n      jump\t// in\n    tag_83:\n        /* \"#utility.yul\":2961:3035   */\n      swap1\n      pop\n        /* \"#utility.yul\":3058:3064   */\n      dup3\n        /* \"#utility.yul\":3051:3056   */\n      dup2\n        /* \"#utility.yul\":3044:3065   */\n      mstore\n        /* \"#utility.yul\":3096:3100   */\n      0x20\n        /* \"#utility.yul\":3089:3094   */\n      dup2\n        /* \"#utility.yul\":3085:3101   */\n      add\n        /* \"#utility.yul\":3134:3137   */\n      dup5\n        /* \"#utility.yul\":3125:3131   */\n      dup5\n        /* \"#utility.yul\":3120:3123   */\n      dup5\n        /* \"#utility.yul\":3116:3132   */\n      add\n        /* \"#utility.yul\":3113:3138   */\n      gt\n        /* \"#utility.yul\":3110:3112   */\n      iszero\n      tag_86\n      jumpi\n        /* \"#utility.yul\":3151:3152   */\n      0x00\n        /* \"#utility.yul\":3148:3149   */\n      dup1\n        /* \"#utility.yul\":3141:3153   */\n      revert\n        /* \"#utility.yul\":3110:3112   */\n    tag_86:\n        /* \"#utility.yul\":3164:3205   */\n      tag_87\n        /* \"#utility.yul\":3198:3204   */\n      dup5\n        /* \"#utility.yul\":3193:3196   */\n      dup3\n        /* \"#utility.yul\":3188:3191   */\n      dup6\n        /* \"#utility.yul\":3164:3205   */\n      tag_80\n      jump\t// in\n    tag_87:\n        /* \"#utility.yul\":2951:3211   */\n      pop\n      swap4\n      swap3\n      pop\n      pop\n      pop\n      jump\t// out\n        /* \"#utility.yul\":3217:3570   */\n    tag_88:\n      0x00\n        /* \"#utility.yul\":3331:3396   */\n      tag_90\n        /* \"#utility.yul\":3346:3395   */\n      tag_91\n        /* \"#utility.yul\":3388:3394   */\n      dup5\n        /* \"#utility.yul\":3346:3395   */\n      tag_85\n      jump\t// in\n    tag_91:\n        /* \"#utility.yul\":3331:3396   */\n      tag_37\n      jump\t// in\n    tag_90:\n        /* \"#utility.yul\":3322:3396   */\n      swap1\n      pop\n        /* \"#utility.yul\":3419:3425   */\n      dup3\n        /* \"#utility.yul\":3412:3417   */\n      dup2\n        /* \"#utility.yul\":3405:3426   */\n      mstore\n        /* \"#utility.yul\":3457:3461   */\n      0x20\n        /* \"#utility.yul\":3450:3455   */\n      dup2\n        /* \"#utility.yul\":3446:3462   */\n      add\n        /* \"#utility.yul\":3495:3498   */\n      dup5\n        /* \"#utility.yul\":3486:3492   */\n      dup5\n        /* \"#utility.yul\":3481:3484   */\n      dup5\n        /* \"#utility.yul\":3477:3493   */\n      add\n        /* \"#utility.yul\":3474:3499   */\n      gt\n        /* \"#utility.yul\":3471:3473   */\n      iszero\n      tag_92\n      jumpi\n        /* \"#utility.yul\":3512:3513   */\n      0x00\n        /* \"#utility.yul\":3509:3510   */\n      dup1\n        /* \"#utility.yul\":3502:3514   */\n      revert\n        /* \"#utility.yul\":3471:3473   */\n    tag_92:\n        /* \"#utility.yul\":3525:3564   */\n      tag_93\n        /* \"#utility.yul\":3557:3563   */\n      dup5\n        /* \"#utility.yul\":3552:3555   */\n      dup3\n        /* \"#utility.yul\":3547:3550   */\n      dup6\n        /* \"#utility.yul\":3525:3564   */\n      tag_94\n      jump\t// in\n    tag_93:\n        /* \"#utility.yul\":3312:3570   */\n      pop\n      swap4\n      swap3\n      pop\n      pop\n      pop\n      jump\t// out\n        /* \"#utility.yul\":3576:3715   */\n    tag_95:\n      0x00\n        /* \"#utility.yul\":3660:3666   */\n      dup2\n        /* \"#utility.yul\":3647:3667   */\n      calldataload\n        /* \"#utility.yul\":3638:3667   */\n      swap1\n      pop\n        /* \"#utility.yul\":3676:3709   */\n      tag_97\n        /* \"#utility.yul\":3703:3708   */\n      dup2\n        /* \"#utility.yul\":3676:3709   */\n      tag_98\n      jump\t// in\n    tag_97:\n        /* \"#utility.yul\":3628:3715   */\n      swap3\n      swap2\n      pop\n      pop\n      jump\t// out\n        /* \"#utility.yul\":3721:3880   */\n    tag_99:\n      0x00\n        /* \"#utility.yul\":3817:3823   */\n      dup2\n        /* \"#utility.yul\":3811:3824   */\n      mload\n        /* \"#utility.yul\":3802:3824   */\n      swap1\n      pop\n        /* \"#utility.yul\":3833:3874   */\n      tag_101\n        /* \"#utility.yul\":3868:3873   */\n      dup2\n        /* \"#utility.yul\":3833:3874   */\n      tag_102\n      jump\t// in\n    tag_101:\n        /* \"#utility.yul\":3792:3880   */\n      swap3\n      swap2\n      pop\n      pop\n      jump\t// out\n        /* \"#utility.yul\":3904:4176   */\n    tag_103:\n      0x00\n        /* \"#utility.yul\":4022:4025   */\n      dup3\n        /* \"#utility.yul\":4015:4019   */\n      0x1f\n        /* \"#utility.yul\":4007:4013   */\n      dup4\n        /* \"#utility.yul\":4003:4020   */\n      add\n        /* \"#utility.yul\":3999:4026   */\n      slt\n        /* \"#utility.yul\":3989:3991   */\n      tag_105\n      jumpi\n        /* \"#utility.yul\":4040:4041   */\n      0x00\n        /* \"#utility.yul\":4037:4038   */\n      dup1\n        /* \"#utility.yul\":4030:4042   */\n      revert\n        /* \"#utility.yul\":3989:3991   */\n    tag_105:\n        /* \"#utility.yul\":4067:4071   */\n      0x02\n        /* \"#utility.yul\":4089:4170   */\n      tag_106\n        /* \"#utility.yul\":4166:4169   */\n      dup5\n        /* \"#utility.yul\":4158:4164   */\n      dup3\n        /* \"#utility.yul\":4150:4156   */\n      dup6\n        /* \"#utility.yul\":4089:4170   */\n      tag_32\n      jump\t// in\n    tag_106:\n        /* \"#utility.yul\":4080:4170   */\n      swap2\n      pop\n        /* \"#utility.yul\":3979:4176   */\n      pop\n      swap3\n      swap2\n      pop\n      pop\n      jump\t// out\n        /* \"#utility.yul\":4200:4494   */\n    tag_107:\n      0x00\n        /* \"#utility.yul\":4329:4332   */\n      dup3\n        /* \"#utility.yul\":4322:4326   */\n      0x1f\n        /* \"#utility.yul\":4314:4320   */\n      dup4\n        /* \"#utility.yul\":4310:4327   */\n      add\n        /* \"#utility.yul\":4306:4333   */\n      slt\n        /* \"#utility.yul\":4296:4298   */\n      tag_109\n      jumpi\n        /* \"#utility.yul\":4347:4348   */\n      0x00\n        /* \"#utility.yul\":4344:4345   */\n      dup1\n        /* \"#utility.yul\":4337:4349   */\n      revert\n        /* \"#utility.yul\":4296:4298   */\n    tag_109:\n        /* \"#utility.yul\":4374:4378   */\n      0x02\n        /* \"#utility.yul\":4396:4488   */\n      tag_110\n        /* \"#utility.yul\":4484:4487   */\n      dup5\n        /* \"#utility.yul\":4476:4482   */\n      dup3\n        /* \"#utility.yul\":4468:4474   */\n      dup6\n        /* \"#utility.yul\":4396:4488   */\n      tag_44\n      jump\t// in\n    tag_110:\n        /* \"#utility.yul\":4387:4488   */\n      swap2\n      pop\n        /* \"#utility.yul\":4286:4494   */\n      pop\n      swap3\n      swap2\n      pop\n      pop\n      jump\t// out\n        /* \"#utility.yul\":4517:4820   */\n    tag_111:\n      0x00\n        /* \"#utility.yul\":4637:4640   */\n      dup3\n        /* \"#utility.yul\":4630:4634   */\n      0x1f\n        /* \"#utility.yul\":4622:4628   */\n      dup4\n        /* \"#utility.yul\":4618:4635   */\n      add\n        /* \"#utility.yul\":4614:4641   */\n      slt\n        /* \"#utility.yul\":4604:4606   */\n      tag_113\n      jumpi\n        /* \"#utility.yul\":4655:4656   */\n      0x00\n        /* \"#utility.yul\":4652:4653   */\n      dup1\n        /* \"#utility.yul\":4645:4657   */\n      revert\n        /* \"#utility.yul\":4604:4606   */\n    tag_113:\n        /* \"#utility.yul\":4695:4701   */\n      dup2\n        /* \"#utility.yul\":4682:4702   */\n      calldataload\n        /* \"#utility.yul\":4720:4814   */\n      tag_114\n        /* \"#utility.yul\":4810:4813   */\n      dup5\n        /* \"#utility.yul\":4802:4808   */\n      dup3\n        /* \"#utility.yul\":4795:4799   */\n      0x20\n        /* \"#utility.yul\":4787:4793   */\n      dup7\n        /* \"#utility.yul\":4783:4800   */\n      add\n        /* \"#utility.yul\":4720:4814   */\n      tag_54\n      jump\t// in\n    tag_114:\n        /* \"#utility.yul\":4711:4814   */\n      swap2\n      pop\n        /* \"#utility.yul\":4594:4820   */\n      pop\n      swap3\n      swap2\n      pop\n      pop\n      jump\t// out\n        /* \"#utility.yul\":4843:5161   */\n    tag_115:\n      0x00\n        /* \"#utility.yul\":4974:4977   */\n      dup3\n        /* \"#utility.yul\":4967:4971   */\n      0x1f\n        /* \"#utility.yul\":4959:4965   */\n      dup4\n        /* \"#utility.yul\":4955:4972   */\n      add\n        /* \"#utility.yul\":4951:4978   */\n      slt\n        /* \"#utility.yul\":4941:4943   */\n      tag_117\n      jumpi\n        /* \"#utility.yul\":4992:4993   */\n      0x00\n        /* \"#utility.yul\":4989:4990   */\n      dup1\n        /* \"#utility.yul\":4982:4994   */\n      revert\n        /* \"#utility.yul\":4941:4943   */\n    tag_117:\n        /* \"#utility.yul\":5025:5031   */\n      dup2\n        /* \"#utility.yul\":5019:5032   */\n      mload\n        /* \"#utility.yul\":5050:5155   */\n      tag_118\n        /* \"#utility.yul\":5151:5154   */\n      dup5\n        /* \"#utility.yul\":5143:5149   */\n      dup3\n        /* \"#utility.yul\":5136:5140   */\n      0x20\n        /* \"#utility.yul\":5128:5134   */\n      dup7\n        /* \"#utility.yul\":5124:5141   */\n      add\n        /* \"#utility.yul\":5050:5155   */\n      tag_64\n      jump\t// in\n    tag_118:\n        /* \"#utility.yul\":5041:5155   */\n      swap2\n      pop\n        /* \"#utility.yul\":4931:5161   */\n      pop\n      swap3\n      swap2\n      pop\n      pop\n      jump\t// out\n        /* \"#utility.yul\":5180:5451   */\n    tag_119:\n      0x00\n        /* \"#utility.yul\":5284:5287   */\n      dup3\n        /* \"#utility.yul\":5277:5281   */\n      0x1f\n        /* \"#utility.yul\":5269:5275   */\n      dup4\n        /* \"#utility.yul\":5265:5282   */\n      add\n        /* \"#utility.yul\":5261:5288   */\n      slt\n        /* \"#utility.yul\":5251:5253   */\n      tag_121\n      jumpi\n        /* \"#utility.yul\":5302:5303   */\n      0x00\n        /* \"#utility.yul\":5299:5300   */\n      dup1\n        /* \"#utility.yul\":5292:5304   */\n      revert\n        /* \"#utility.yul\":5251:5253   */\n    tag_121:\n        /* \"#utility.yul\":5342:5348   */\n      dup2\n        /* \"#utility.yul\":5329:5349   */\n      calldataload\n        /* \"#utility.yul\":5367:5445   */\n      tag_122\n        /* \"#utility.yul\":5441:5444   */\n      dup5\n        /* \"#utility.yul\":5433:5439   */\n      dup3\n        /* \"#utility.yul\":5426:5430   */\n      0x20\n        /* \"#utility.yul\":5418:5424   */\n      dup7\n        /* \"#utility.yul\":5414:5431   */\n      add\n        /* \"#utility.yul\":5367:5445   */\n      tag_73\n      jump\t// in\n    tag_122:\n        /* \"#utility.yul\":5358:5445   */\n      swap2\n      pop\n        /* \"#utility.yul\":5241:5451   */\n      pop\n      swap3\n      swap2\n      pop\n      pop\n      jump\t// out\n        /* \"#utility.yul\":5471:5744   */\n    tag_123:\n      0x00\n        /* \"#utility.yul\":5576:5579   */\n      dup3\n        /* \"#utility.yul\":5569:5573   */\n      0x1f\n        /* \"#utility.yul\":5561:5567   */\n      dup4\n        /* \"#utility.yul\":5557:5574   */\n      add\n        /* \"#utility.yul\":5553:5580   */\n      slt\n        /* \"#utility.yul\":5543:5545   */\n      tag_125\n      jumpi\n        /* \"#utility.yul\":5594:5595   */\n      0x00\n        /* \"#utility.yul\":5591:5592   */\n      dup1\n        /* \"#utility.yul\":5584:5596   */\n      revert\n        /* \"#utility.yul\":5543:5545   */\n    tag_125:\n        /* \"#utility.yul\":5634:5640   */\n      dup2\n        /* \"#utility.yul\":5621:5641   */\n      calldataload\n        /* \"#utility.yul\":5659:5738   */\n      tag_126\n        /* \"#utility.yul\":5734:5737   */\n      dup5\n        /* \"#utility.yul\":5726:5732   */\n      dup3\n        /* \"#utility.yul\":5719:5723   */\n      0x20\n        /* \"#utility.yul\":5711:5717   */\n      dup7\n        /* \"#utility.yul\":5707:5724   */\n      add\n        /* \"#utility.yul\":5659:5738   */\n      tag_81\n      jump\t// in\n    tag_126:\n        /* \"#utility.yul\":5650:5738   */\n      swap2\n      pop\n        /* \"#utility.yul\":5533:5744   */\n      pop\n      swap3\n      swap2\n      pop\n      pop\n      jump\t// out\n        /* \"#utility.yul\":5764:6052   */\n    tag_127:\n      0x00\n        /* \"#utility.yul\":5880:5883   */\n      dup3\n        /* \"#utility.yul\":5873:5877   */\n      0x1f\n        /* \"#utility.yul\":5865:5871   */\n      dup4\n        /* \"#utility.yul\":5861:5878   */\n      add\n        /* \"#utility.yul\":5857:5884   */\n      slt\n        /* \"#utility.yul\":5847:5849   */\n      tag_129\n      jumpi\n        /* \"#utility.yul\":5898:5899   */\n      0x00\n        /* \"#utility.yul\":5895:5896   */\n      dup1\n        /* \"#utility.yul\":5888:5900   */\n      revert\n        /* \"#utility.yul\":5847:5849   */\n    tag_129:\n        /* \"#utility.yul\":5931:5937   */\n      dup2\n        /* \"#utility.yul\":5925:5938   */\n      mload\n        /* \"#utility.yul\":5956:6046   */\n      tag_130\n        /* \"#utility.yul\":6042:6045   */\n      dup5\n        /* \"#utility.yul\":6034:6040   */\n      dup3\n        /* \"#utility.yul\":6027:6031   */\n      0x20\n        /* \"#utility.yul\":6019:6025   */\n      dup7\n        /* \"#utility.yul\":6015:6032   */\n      add\n        /* \"#utility.yul\":5956:6046   */\n      tag_88\n      jump\t// in\n    tag_130:\n        /* \"#utility.yul\":5947:6046   */\n      swap2\n      pop\n        /* \"#utility.yul\":5837:6052   */\n      pop\n      swap3\n      swap2\n      pop\n      pop\n      jump\t// out\n        /* \"#utility.yul\":6090:6724   */\n    tag_131:\n      0x00\n        /* \"#utility.yul\":6207:6211   */\n      0x60\n        /* \"#utility.yul\":6195:6204   */\n      dup3\n        /* \"#utility.yul\":6190:6193   */\n      dup5\n        /* \"#utility.yul\":6186:6205   */\n      sub\n        /* \"#utility.yul\":6182:6212   */\n      slt\n        /* \"#utility.yul\":6179:6181   */\n      iszero\n      tag_133\n      jumpi\n        /* \"#utility.yul\":6225:6226   */\n      0x00\n        /* \"#utility.yul\":6222:6223   */\n      dup1\n        /* \"#utility.yul\":6215:6227   */\n      revert\n        /* \"#utility.yul\":6179:6181   */\n    tag_133:\n        /* \"#utility.yul\":6247:6267   */\n      tag_134\n        /* \"#utility.yul\":6262:6266   */\n      0x40\n        /* \"#utility.yul\":6247:6267   */\n      tag_37\n      jump\t// in\n    tag_134:\n        /* \"#utility.yul\":6238:6267   */\n      swap1\n      pop\n        /* \"#utility.yul\":6354:6355   */\n      0x00\n        /* \"#utility.yul\":6343:6352   */\n      dup3\n        /* \"#utility.yul\":6339:6356   */\n      add\n        /* \"#utility.yul\":6326:6357   */\n      calldataload\n        /* \"#utility.yul\":6384:6402   */\n      0xffffffffffffffff\n        /* \"#utility.yul\":6376:6382   */\n      dup2\n        /* \"#utility.yul\":6373:6403   */\n      gt\n        /* \"#utility.yul\":6370:6372   */\n      iszero\n      tag_135\n      jumpi\n        /* \"#utility.yul\":6416:6417   */\n      0x00\n        /* \"#utility.yul\":6413:6414   */\n      dup1\n        /* \"#utility.yul\":6406:6418   */\n      revert\n        /* \"#utility.yul\":6370:6372   */\n    tag_135:\n        /* \"#utility.yul\":6459:6518   */\n      tag_136\n        /* \"#utility.yul\":6514:6517   */\n      dup5\n        /* \"#utility.yul\":6505:6511   */\n      dup3\n        /* \"#utility.yul\":6494:6503   */\n      dup6\n        /* \"#utility.yul\":6490:6512   */\n      add\n        /* \"#utility.yul\":6459:6518   */\n      tag_123\n      jump\t// in\n    tag_136:\n        /* \"#utility.yul\":6452:6456   */\n      0x00\n        /* \"#utility.yul\":6445:6450   */\n      dup4\n        /* \"#utility.yul\":6441:6457   */\n      add\n        /* \"#utility.yul\":6434:6519   */\n      mstore\n        /* \"#utility.yul\":6277:6530   */\n      pop\n        /* \"#utility.yul\":6592:6594   */\n      0x20\n        /* \"#utility.yul\":6633:6705   */\n      tag_137\n        /* \"#utility.yul\":6701:6704   */\n      dup5\n        /* \"#utility.yul\":6692:6698   */\n      dup3\n        /* \"#utility.yul\":6681:6690   */\n      dup6\n        /* \"#utility.yul\":6677:6699   */\n      add\n        /* \"#utility.yul\":6633:6705   */\n      tag_103\n      jump\t// in\n    tag_137:\n        /* \"#utility.yul\":6626:6630   */\n      0x20\n        /* \"#utility.yul\":6619:6624   */\n      dup4\n        /* \"#utility.yul\":6615:6631   */\n      add\n        /* \"#utility.yul\":6608:6706   */\n      mstore\n        /* \"#utility.yul\":6540:6717   */\n      pop\n        /* \"#utility.yul\":6169:6724   */\n      swap3\n      swap2\n      pop\n      pop\n      jump\t// out\n        /* \"#utility.yul\":6762:7422   */\n    tag_138:\n      0x00\n        /* \"#utility.yul\":6890:6894   */\n      0x60\n        /* \"#utility.yul\":6878:6887   */\n      dup3\n        /* \"#utility.yul\":6873:6876   */\n      dup5\n        /* \"#utility.yul\":6869:6888   */\n      sub\n        /* \"#utility.yul\":6865:6895   */\n      slt\n        /* \"#utility.yul\":6862:6864   */\n      iszero\n      tag_140\n      jumpi\n        /* \"#utility.yul\":6908:6909   */\n      0x00\n        /* \"#utility.yul\":6905:6906   */\n      dup1\n        /* \"#utility.yul\":6898:6910   */\n      revert\n        /* \"#utility.yul\":6862:6864   */\n    tag_140:\n        /* \"#utility.yul\":6930:6950   */\n      tag_141\n        /* \"#utility.yul\":6945:6949   */\n      0x40\n        /* \"#utility.yul\":6930:6950   */\n      tag_37\n      jump\t// in\n    tag_141:\n        /* \"#utility.yul\":6921:6950   */\n      swap1\n      pop\n        /* \"#utility.yul\":7030:7031   */\n      0x00\n        /* \"#utility.yul\":7019:7028   */\n      dup3\n        /* \"#utility.yul\":7015:7032   */\n      add\n        /* \"#utility.yul\":7009:7033   */\n      mload\n        /* \"#utility.yul\":7060:7078   */\n      0xffffffffffffffff\n        /* \"#utility.yul\":7052:7058   */\n      dup2\n        /* \"#utility.yul\":7049:7079   */\n      gt\n        /* \"#utility.yul\":7046:7048   */\n      iszero\n      tag_142\n      jumpi\n        /* \"#utility.yul\":7092:7093   */\n      0x00\n        /* \"#utility.yul\":7089:7090   */\n      dup1\n        /* \"#utility.yul\":7082:7094   */\n      revert\n        /* \"#utility.yul\":7046:7048   */\n    tag_142:\n        /* \"#utility.yul\":7135:7205   */\n      tag_143\n        /* \"#utility.yul\":7201:7204   */\n      dup5\n        /* \"#utility.yul\":7192:7198   */\n      dup3\n        /* \"#utility.yul\":7181:7190   */\n      dup6\n        /* \"#utility.yul\":7177:7199   */\n      add\n        /* \"#utility.yul\":7135:7205   */\n      tag_127\n      jump\t// in\n    tag_143:\n        /* \"#utility.yul\":7128:7132   */\n      0x00\n        /* \"#utility.yul\":7121:7126   */\n      dup4\n        /* \"#utility.yul\":7117:7133   */\n      add\n        /* \"#utility.yul\":7110:7206   */\n      mstore\n        /* \"#utility.yul\":6960:7217   */\n      pop\n        /* \"#utility.yul\":7279:7281   */\n      0x20\n        /* \"#utility.yul\":7320:7403   */\n      tag_144\n        /* \"#utility.yul\":7399:7402   */\n      dup5\n        /* \"#utility.yul\":7390:7396   */\n      dup3\n        /* \"#utility.yul\":7379:7388   */\n      dup6\n        /* \"#utility.yul\":7375:7397   */\n      add\n        /* \"#utility.yul\":7320:7403   */\n      tag_107\n      jump\t// in\n    tag_144:\n        /* \"#utility.yul\":7313:7317   */\n      0x20\n        /* \"#utility.yul\":7306:7311   */\n      dup4\n        /* \"#utility.yul\":7302:7318   */\n      add\n        /* \"#utility.yul\":7295:7404   */\n      mstore\n        /* \"#utility.yul\":7227:7415   */\n      pop\n        /* \"#utility.yul\":6852:7422   */\n      swap3\n      swap2\n      pop\n      pop\n      jump\t// out\n        /* \"#utility.yul\":7428:7567   */\n    tag_43:\n      0x00\n        /* \"#utility.yul\":7512:7518   */\n      dup2\n        /* \"#utility.yul\":7499:7519   */\n      calldataload\n        /* \"#utility.yul\":7490:7519   */\n      swap1\n      pop\n        /* \"#utility.yul\":7528:7561   */\n      tag_146\n        /* \"#utility.yul\":7555:7560   */\n      dup2\n        /* \"#utility.yul\":7528:7561   */\n      tag_147\n      jump\t// in\n    tag_146:\n        /* \"#utility.yul\":7480:7567   */\n      swap3\n      swap2\n      pop\n      pop\n      jump\t// out\n        /* \"#utility.yul\":7573:7716   */\n    tag_53:\n      0x00\n        /* \"#utility.yul\":7661:7667   */\n      dup2\n        /* \"#utility.yul\":7655:7668   */\n      mload\n        /* \"#utility.yul\":7646:7668   */\n      swap1\n      pop\n        /* \"#utility.yul\":7677:7710   */\n      tag_149\n        /* \"#utility.yul\":7704:7709   */\n      dup2\n        /* \"#utility.yul\":7677:7710   */\n      tag_147\n      jump\t// in\n    tag_149:\n        /* \"#utility.yul\":7636:7716   */\n      swap3\n      swap2\n      pop\n      pop\n      jump\t// out\n        /* \"#utility.yul\":7722:8095   */\n    tag_8:\n      0x00\n        /* \"#utility.yul\":7839:7841   */\n      0x20\n        /* \"#utility.yul\":7827:7836   */\n      dup3\n        /* \"#utility.yul\":7818:7825   */\n      dup5\n        /* \"#utility.yul\":7814:7837   */\n      sub\n        /* \"#utility.yul\":7810:7842   */\n      slt\n        /* \"#utility.yul\":7807:7809   */\n      iszero\n      tag_151\n      jumpi\n        /* \"#utility.yul\":7855:7856   */\n      0x00\n        /* \"#utility.yul\":7852:7853   */\n      dup1\n        /* \"#utility.yul\":7845:7857   */\n      revert\n        /* \"#utility.yul\":7807:7809   */\n    tag_151:\n        /* \"#utility.yul\":7926:7927   */\n      0x00\n        /* \"#utility.yul\":7915:7924   */\n      dup3\n        /* \"#utility.yul\":7911:7928   */\n      add\n        /* \"#utility.yul\":7898:7929   */\n      calldataload\n        /* \"#utility.yul\":7956:7974   */\n      0xffffffffffffffff\n        /* \"#utility.yul\":7948:7954   */\n      dup2\n        /* \"#utility.yul\":7945:7975   */\n      gt\n        /* \"#utility.yul\":7942:7944   */\n      iszero\n      tag_152\n      jumpi\n        /* \"#utility.yul\":7988:7989   */\n      0x00\n        /* \"#utility.yul\":7985:7986   */\n      dup1\n        /* \"#utility.yul\":7978:7990   */\n      revert\n        /* \"#utility.yul\":7942:7944   */\n    tag_152:\n        /* \"#utility.yul\":8016:8078   */\n      tag_153\n        /* \"#utility.yul\":8070:8077   */\n      dup5\n        /* \"#utility.yul\":8061:8067   */\n      dup3\n        /* \"#utility.yul\":8050:8059   */\n      dup6\n        /* \"#utility.yul\":8046:8068   */\n      add\n        /* \"#utility.yul\":8016:8078   */\n      tag_119\n      jump\t// in\n    tag_153:\n        /* \"#utility.yul\":8006:8078   */\n      swap2\n      pop\n        /* \"#utility.yul\":7869:8088   */\n      pop\n        /* \"#utility.yul\":7797:8095   */\n      swap3\n      swap2\n      pop\n      pop\n      jump\t// out\n        /* \"#utility.yul\":8101:9140   */\n    tag_25:\n      0x00\n      dup1\n      0x00\n      dup1\n        /* \"#utility.yul\":8328:8331   */\n      0x80\n        /* \"#utility.yul\":8316:8325   */\n      dup6\n        /* \"#utility.yul\":8307:8314   */\n      dup8\n        /* \"#utility.yul\":8303:8326   */\n      sub\n        /* \"#utility.yul\":8299:8332   */\n      slt\n        /* \"#utility.yul\":8296:8298   */\n      iszero\n      tag_155\n      jumpi\n        /* \"#utility.yul\":8345:8346   */\n      0x00\n        /* \"#utility.yul\":8342:8343   */\n      dup1\n        /* \"#utility.yul\":8335:8347   */\n      revert\n        /* \"#utility.yul\":8296:8298   */\n    tag_155:\n        /* \"#utility.yul\":8388:8389   */\n      0x00\n        /* \"#utility.yul\":8413:8477   */\n      tag_156\n        /* \"#utility.yul\":8469:8476   */\n      dup8\n        /* \"#utility.yul\":8460:8466   */\n      dup3\n        /* \"#utility.yul\":8449:8458   */\n      dup9\n        /* \"#utility.yul\":8445:8467   */\n      add\n        /* \"#utility.yul\":8413:8477   */\n      tag_53\n      jump\t// in\n    tag_156:\n        /* \"#utility.yul\":8403:8477   */\n      swap5\n      pop\n        /* \"#utility.yul\":8359:8487   */\n      pop\n        /* \"#utility.yul\":8526:8528   */\n      0x20\n        /* \"#utility.yul\":8552:8624   */\n      tag_157\n        /* \"#utility.yul\":8616:8623   */\n      dup8\n        /* \"#utility.yul\":8607:8613   */\n      dup3\n        /* \"#utility.yul\":8596:8605   */\n      dup9\n        /* \"#utility.yul\":8592:8614   */\n      add\n        /* \"#utility.yul\":8552:8624   */\n      tag_99\n      jump\t// in\n    tag_157:\n        /* \"#utility.yul\":8542:8624   */\n      swap4\n      pop\n        /* \"#utility.yul\":8497:8634   */\n      pop\n        /* \"#utility.yul\":8694:8696   */\n      0x40\n        /* \"#utility.yul\":8683:8692   */\n      dup6\n        /* \"#utility.yul\":8679:8697   */\n      add\n        /* \"#utility.yul\":8673:8698   */\n      mload\n        /* \"#utility.yul\":8725:8743   */\n      0xffffffffffffffff\n        /* \"#utility.yul\":8717:8723   */\n      dup2\n        /* \"#utility.yul\":8714:8744   */\n      gt\n        /* \"#utility.yul\":8711:8713   */\n      iszero\n      tag_158\n      jumpi\n        /* \"#utility.yul\":8757:8758   */\n      0x00\n        /* \"#utility.yul\":8754:8755   */\n      dup1\n        /* \"#utility.yul\":8747:8759   */\n      revert\n        /* \"#utility.yul\":8711:8713   */\n    tag_158:\n        /* \"#utility.yul\":8785:8874   */\n      tag_159\n        /* \"#utility.yul\":8866:8873   */\n      dup8\n        /* \"#utility.yul\":8857:8863   */\n      dup3\n        /* \"#utility.yul\":8846:8855   */\n      dup9\n        /* \"#utility.yul\":8842:8864   */\n      add\n        /* \"#utility.yul\":8785:8874   */\n      tag_115\n      jump\t// in\n    tag_159:\n        /* \"#utility.yul\":8775:8874   */\n      swap3\n      pop\n        /* \"#utility.yul\":8644:8884   */\n      pop\n        /* \"#utility.yul\":8944:8946   */\n      0x60\n        /* \"#utility.yul\":8933:8942   */\n      dup6\n        /* \"#utility.yul\":8929:8947   */\n      add\n        /* \"#utility.yul\":8923:8948   */\n      mload\n        /* \"#utility.yul\":8975:8993   */\n      0xffffffffffffffff\n        /* \"#utility.yul\":8967:8973   */\n      dup2\n        /* \"#utility.yul\":8964:8994   */\n      gt\n        /* \"#utility.yul\":8961:8963   */\n      iszero\n      tag_160\n      jumpi\n        /* \"#utility.yul\":9007:9008   */\n      0x00\n        /* \"#utility.yul\":9004:9005   */\n      dup1\n        /* \"#utility.yul\":8997:9009   */\n      revert\n        /* \"#utility.yul\":8961:8963   */\n    tag_160:\n        /* \"#utility.yul\":9035:9123   */\n      tag_161\n        /* \"#utility.yul\":9115:9122   */\n      dup8\n        /* \"#utility.yul\":9106:9112   */\n      dup3\n        /* \"#utility.yul\":9095:9104   */\n      dup9\n        /* \"#utility.yul\":9091:9113   */\n      add\n        /* \"#utility.yul\":9035:9123   */\n      tag_138\n      jump\t// in\n    tag_161:\n        /* \"#utility.yul\":9025:9123   */\n      swap2\n      pop\n        /* \"#utility.yul\":8894:9133   */\n      pop\n        /* \"#utility.yul\":8286:9140   */\n      swap3\n      swap6\n      swap2\n      swap5\n      pop\n      swap3\n      pop\n      jump\t// out\n        /* \"#utility.yul\":9146:10128   */\n    tag_14:\n      0x00\n      dup1\n      0x00\n      dup1\n        /* \"#utility.yul\":9354:9357   */\n      0x80\n        /* \"#utility.yul\":9342:9351   */\n      dup6\n        /* \"#utility.yul\":9333:9340   */\n      dup8\n        /* \"#utility.yul\":9329:9352   */\n      sub\n        /* \"#utility.yul\":9325:9358   */\n      slt\n        /* \"#utility.yul\":9322:9324   */\n      iszero\n      tag_163\n      jumpi\n        /* \"#utility.yul\":9371:9372   */\n      0x00\n        /* \"#utility.yul\":9368:9369   */\n      dup1\n        /* \"#utility.yul\":9361:9373   */\n      revert\n        /* \"#utility.yul\":9322:9324   */\n    tag_163:\n        /* \"#utility.yul\":9414:9415   */\n      0x00\n        /* \"#utility.yul\":9439:9492   */\n      tag_164\n        /* \"#utility.yul\":9484:9491   */\n      dup8\n        /* \"#utility.yul\":9475:9481   */\n      dup3\n        /* \"#utility.yul\":9464:9473   */\n      dup9\n        /* \"#utility.yul\":9460:9482   */\n      add\n        /* \"#utility.yul\":9439:9492   */\n      tag_43\n      jump\t// in\n    tag_164:\n        /* \"#utility.yul\":9429:9492   */\n      swap5\n      pop\n        /* \"#utility.yul\":9385:9502   */\n      pop\n        /* \"#utility.yul\":9541:9543   */\n      0x20\n        /* \"#utility.yul\":9567:9620   */\n      tag_165\n        /* \"#utility.yul\":9612:9619   */\n      dup8\n        /* \"#utility.yul\":9603:9609   */\n      dup3\n        /* \"#utility.yul\":9592:9601   */\n      dup9\n        /* \"#utility.yul\":9588:9610   */\n      add\n        /* \"#utility.yul\":9567:9620   */\n      tag_95\n      jump\t// in\n    tag_165:\n        /* \"#utility.yul\":9557:9620   */\n      swap4\n      pop\n        /* \"#utility.yul\":9512:9630   */\n      pop\n        /* \"#utility.yul\":9697:9699   */\n      0x40\n        /* \"#utility.yul\":9686:9695   */\n      dup6\n        /* \"#utility.yul\":9682:9700   */\n      add\n        /* \"#utility.yul\":9669:9701   */\n      calldataload\n        /* \"#utility.yul\":9728:9746   */\n      0xffffffffffffffff\n        /* \"#utility.yul\":9720:9726   */\n      dup2\n        /* \"#utility.yul\":9717:9747   */\n      gt\n        /* \"#utility.yul\":9714:9716   */\n      iszero\n      tag_166\n      jumpi\n        /* \"#utility.yul\":9760:9761   */\n      0x00\n        /* \"#utility.yul\":9757:9758   */\n      dup1\n        /* \"#utility.yul\":9750:9762   */\n      revert\n        /* \"#utility.yul\":9714:9716   */\n    tag_166:\n        /* \"#utility.yul\":9788:9866   */\n      tag_167\n        /* \"#utility.yul\":9858:9865   */\n      dup8\n        /* \"#utility.yul\":9849:9855   */\n      dup3\n        /* \"#utility.yul\":9838:9847   */\n      dup9\n        /* \"#utility.yul\":9834:9856   */\n      add\n        /* \"#utility.yul\":9788:9866   */\n      tag_111\n      jump\t// in\n    tag_167:\n        /* \"#utility.yul\":9778:9866   */\n      swap3\n      pop\n        /* \"#utility.yul\":9640:9876   */\n      pop\n        /* \"#utility.yul\":9943:9945   */\n      0x60\n        /* \"#utility.yul\":9932:9941   */\n      dup6\n        /* \"#utility.yul\":9928:9946   */\n      add\n        /* \"#utility.yul\":9915:9947   */\n      calldataload\n        /* \"#utility.yul\":9974:9992   */\n      0xffffffffffffffff\n        /* \"#utility.yul\":9966:9972   */\n      dup2\n        /* \"#utility.yul\":9963:9993   */\n      gt\n        /* \"#utility.yul\":9960:9962   */\n      iszero\n      tag_168\n      jumpi\n        /* \"#utility.yul\":10006:10007   */\n      0x00\n        /* \"#utility.yul\":10003:10004   */\n      dup1\n        /* \"#utility.yul\":9996:10008   */\n      revert\n        /* \"#utility.yul\":9960:9962   */\n    tag_168:\n        /* \"#utility.yul\":10034:10111   */\n      tag_169\n        /* \"#utility.yul\":10103:10110   */\n      dup8\n        /* \"#utility.yul\":10094:10100   */\n      dup3\n        /* \"#utility.yul\":10083:10092   */\n      dup9\n        /* \"#utility.yul\":10079:10101   */\n      add\n        /* \"#utility.yul\":10034:10111   */\n      tag_131\n      jump\t// in\n    tag_169:\n        /* \"#utility.yul\":10024:10111   */\n      swap2\n      pop\n        /* \"#utility.yul\":9886:10121   */\n      pop\n        /* \"#utility.yul\":9312:10128   */\n      swap3\n      swap6\n      swap2\n      swap5\n      pop\n      swap3\n      pop\n      jump\t// out\n        /* \"#utility.yul\":10134:10313   */\n    tag_170:\n      0x00\n        /* \"#utility.yul\":10224:10270   */\n      tag_172\n        /* \"#utility.yul\":10266:10269   */\n      dup4\n        /* \"#utility.yul\":10258:10264   */\n      dup4\n        /* \"#utility.yul\":10224:10270   */\n      tag_173\n      jump\t// in\n    tag_172:\n        /* \"#utility.yul\":10302:10306   */\n      0x20\n        /* \"#utility.yul\":10297:10300   */\n      dup4\n        /* \"#utility.yul\":10293:10307   */\n      add\n        /* \"#utility.yul\":10279:10307   */\n      swap1\n      pop\n        /* \"#utility.yul\":10214:10313   */\n      swap3\n      swap2\n      pop\n      pop\n      jump\t// out\n        /* \"#utility.yul\":10319:10437   */\n    tag_174:\n        /* \"#utility.yul\":10406:10430   */\n      tag_176\n        /* \"#utility.yul\":10424:10429   */\n      dup2\n        /* \"#utility.yul\":10406:10430   */\n      tag_177\n      jump\t// in\n    tag_176:\n        /* \"#utility.yul\":10401:10404   */\n      dup3\n        /* \"#utility.yul\":10394:10431   */\n      mstore\n        /* \"#utility.yul\":10384:10437   */\n      pop\n      pop\n      jump\t// out\n        /* \"#utility.yul\":10475:11149   */\n    tag_178:\n        /* \"#utility.yul\":10601:10653   */\n      tag_180\n        /* \"#utility.yul\":10647:10652   */\n      dup2\n        /* \"#utility.yul\":10601:10653   */\n      tag_181\n      jump\t// in\n    tag_180:\n        /* \"#utility.yul\":10669:10743   */\n      tag_182\n        /* \"#utility.yul\":10736:10742   */\n      dup2\n        /* \"#utility.yul\":10731:10734   */\n      dup5\n        /* \"#utility.yul\":10669:10743   */\n      tag_183\n      jump\t// in\n    tag_182:\n        /* \"#utility.yul\":10662:10743   */\n      swap3\n      pop\n        /* \"#utility.yul\":10767:10821   */\n      tag_184\n        /* \"#utility.yul\":10815:10820   */\n      dup3\n        /* \"#utility.yul\":10767:10821   */\n      tag_185\n      jump\t// in\n    tag_184:\n        /* \"#utility.yul\":10844:10851   */\n      dup1\n        /* \"#utility.yul\":10875:10876   */\n      0x00\n        /* \"#utility.yul\":10860:11142   */\n    tag_186:\n        /* \"#utility.yul\":10885:10891   */\n      dup4\n        /* \"#utility.yul\":10882:10883   */\n      dup2\n        /* \"#utility.yul\":10879:10892   */\n      lt\n        /* \"#utility.yul\":10860:11142   */\n      iszero\n      tag_188\n      jumpi\n        /* \"#utility.yul\":10961:10967   */\n      dup2\n        /* \"#utility.yul\":10955:10968   */\n      mload\n        /* \"#utility.yul\":10988:11051   */\n      tag_189\n        /* \"#utility.yul\":11047:11050   */\n      dup8\n        /* \"#utility.yul\":11032:11045   */\n      dup3\n        /* \"#utility.yul\":10988:11051   */\n      tag_170\n      jump\t// in\n    tag_189:\n        /* \"#utility.yul\":10981:11051   */\n      swap7\n      pop\n        /* \"#utility.yul\":11074:11132   */\n      tag_190\n        /* \"#utility.yul\":11125:11131   */\n      dup4\n        /* \"#utility.yul\":11074:11132   */\n      tag_191\n      jump\t// in\n    tag_190:\n        /* \"#utility.yul\":11064:11132   */\n      swap3\n      pop\n        /* \"#utility.yul\":10920:11142   */\n      pop\n        /* \"#utility.yul\":10907:10908   */\n      0x01\n        /* \"#utility.yul\":10904:10905   */\n      dup2\n        /* \"#utility.yul\":10900:10909   */\n      add\n        /* \"#utility.yul\":10895:10909   */\n      swap1\n      pop\n        /* \"#utility.yul\":10860:11142   */\n      jump(tag_186)\n    tag_188:\n        /* \"#utility.yul\":10864:10878   */\n      pop\n        /* \"#utility.yul\":10577:11149   */\n      pop\n      pop\n      pop\n      pop\n      pop\n      jump\t// out\n        /* \"#utility.yul\":11185:11917   */\n    tag_192:\n      0x00\n        /* \"#utility.yul\":11333:11387   */\n      tag_194\n        /* \"#utility.yul\":11381:11386   */\n      dup3\n        /* \"#utility.yul\":11333:11387   */\n      tag_195\n      jump\t// in\n    tag_194:\n        /* \"#utility.yul\":11403:11489   */\n      tag_196\n        /* \"#utility.yul\":11482:11488   */\n      dup2\n        /* \"#utility.yul\":11477:11480   */\n      dup6\n        /* \"#utility.yul\":11403:11489   */\n      tag_197\n      jump\t// in\n    tag_196:\n        /* \"#utility.yul\":11396:11489   */\n      swap4\n      pop\n        /* \"#utility.yul\":11513:11569   */\n      tag_198\n        /* \"#utility.yul\":11563:11568   */\n      dup4\n        /* \"#utility.yul\":11513:11569   */\n      tag_199\n      jump\t// in\n    tag_198:\n        /* \"#utility.yul\":11592:11599   */\n      dup1\n        /* \"#utility.yul\":11623:11624   */\n      0x00\n        /* \"#utility.yul\":11608:11892   */\n    tag_200:\n        /* \"#utility.yul\":11633:11639   */\n      dup4\n        /* \"#utility.yul\":11630:11631   */\n      dup2\n        /* \"#utility.yul\":11627:11640   */\n      lt\n        /* \"#utility.yul\":11608:11892   */\n      iszero\n      tag_202\n      jumpi\n        /* \"#utility.yul\":11709:11715   */\n      dup2\n        /* \"#utility.yul\":11703:11716   */\n      mload\n        /* \"#utility.yul\":11736:11799   */\n      tag_203\n        /* \"#utility.yul\":11795:11798   */\n      dup9\n        /* \"#utility.yul\":11780:11793   */\n      dup3\n        /* \"#utility.yul\":11736:11799   */\n      tag_170\n      jump\t// in\n    tag_203:\n        /* \"#utility.yul\":11729:11799   */\n      swap8\n      pop\n        /* \"#utility.yul\":11822:11882   */\n      tag_204\n        /* \"#utility.yul\":11875:11881   */\n      dup4\n        /* \"#utility.yul\":11822:11882   */\n      tag_205\n      jump\t// in\n    tag_204:\n        /* \"#utility.yul\":11812:11882   */\n      swap3\n      pop\n        /* \"#utility.yul\":11668:11892   */\n      pop\n        /* \"#utility.yul\":11655:11656   */\n      0x01\n        /* \"#utility.yul\":11652:11653   */\n      dup2\n        /* \"#utility.yul\":11648:11657   */\n      add\n        /* \"#utility.yul\":11643:11657   */\n      swap1\n      pop\n        /* \"#utility.yul\":11608:11892   */\n      jump(tag_200)\n    tag_202:\n        /* \"#utility.yul\":11612:11626   */\n      pop\n        /* \"#utility.yul\":11908:11911   */\n      dup6\n        /* \"#utility.yul\":11901:11911   */\n      swap4\n      pop\n        /* \"#utility.yul\":11309:11917   */\n      pop\n      pop\n      pop\n      swap3\n      swap2\n      pop\n      pop\n      jump\t// out\n        /* \"#utility.yul\":11923:12283   */\n    tag_206:\n      0x00\n        /* \"#utility.yul\":12037:12075   */\n      tag_208\n        /* \"#utility.yul\":12069:12074   */\n      dup3\n        /* \"#utility.yul\":12037:12075   */\n      tag_209\n      jump\t// in\n    tag_208:\n        /* \"#utility.yul\":12091:12161   */\n      tag_210\n        /* \"#utility.yul\":12154:12160   */\n      dup2\n        /* \"#utility.yul\":12149:12152   */\n      dup6\n        /* \"#utility.yul\":12091:12161   */\n      tag_211\n      jump\t// in\n    tag_210:\n        /* \"#utility.yul\":12084:12161   */\n      swap4\n      pop\n        /* \"#utility.yul\":12170:12222   */\n      tag_212\n        /* \"#utility.yul\":12215:12221   */\n      dup2\n        /* \"#utility.yul\":12210:12213   */\n      dup6\n        /* \"#utility.yul\":12203:12207   */\n      0x20\n        /* \"#utility.yul\":12196:12201   */\n      dup7\n        /* \"#utility.yul\":12192:12208   */\n      add\n        /* \"#utility.yul\":12170:12222   */\n      tag_94\n      jump\t// in\n    tag_212:\n        /* \"#utility.yul\":12247:12276   */\n      tag_213\n        /* \"#utility.yul\":12269:12275   */\n      dup2\n        /* \"#utility.yul\":12247:12276   */\n      tag_214\n      jump\t// in\n    tag_213:\n        /* \"#utility.yul\":12242:12245   */\n      dup5\n        /* \"#utility.yul\":12238:12277   */\n      add\n        /* \"#utility.yul\":12231:12277   */\n      swap2\n      pop\n        /* \"#utility.yul\":12013:12283   */\n      pop\n      swap3\n      swap2\n      pop\n      pop\n      jump\t// out\n        /* \"#utility.yul\":12289:12633   */\n    tag_215:\n      0x00\n        /* \"#utility.yul\":12395:12434   */\n      tag_217\n        /* \"#utility.yul\":12428:12433   */\n      dup3\n        /* \"#utility.yul\":12395:12434   */\n      tag_218\n      jump\t// in\n    tag_217:\n        /* \"#utility.yul\":12450:12511   */\n      tag_219\n        /* \"#utility.yul\":12504:12510   */\n      dup2\n        /* \"#utility.yul\":12499:12502   */\n      dup6\n        /* \"#utility.yul\":12450:12511   */\n      tag_220\n      jump\t// in\n    tag_219:\n        /* \"#utility.yul\":12443:12511   */\n      swap4\n      pop\n        /* \"#utility.yul\":12520:12572   */\n      tag_221\n        /* \"#utility.yul\":12565:12571   */\n      dup2\n        /* \"#utility.yul\":12560:12563   */\n      dup6\n        /* \"#utility.yul\":12553:12557   */\n      0x20\n        /* \"#utility.yul\":12546:12551   */\n      dup7\n        /* \"#utility.yul\":12542:12558   */\n      add\n        /* \"#utility.yul\":12520:12572   */\n      tag_94\n      jump\t// in\n    tag_221:\n        /* \"#utility.yul\":12597:12626   */\n      tag_222\n        /* \"#utility.yul\":12619:12625   */\n      dup2\n        /* \"#utility.yul\":12597:12626   */\n      tag_214\n      jump\t// in\n    tag_222:\n        /* \"#utility.yul\":12592:12595   */\n      dup5\n        /* \"#utility.yul\":12588:12627   */\n      add\n        /* \"#utility.yul\":12581:12627   */\n      swap2\n      pop\n        /* \"#utility.yul\":12371:12633   */\n      pop\n      swap3\n      swap2\n      pop\n      pop\n      jump\t// out\n        /* \"#utility.yul\":12699:13352   */\n    tag_223:\n      0x00\n        /* \"#utility.yul\":12852:12856   */\n      0x60\n        /* \"#utility.yul\":12847:12850   */\n      dup4\n        /* \"#utility.yul\":12843:12857   */\n      add\n        /* \"#utility.yul\":12939:12943   */\n      0x00\n        /* \"#utility.yul\":12932:12937   */\n      dup4\n        /* \"#utility.yul\":12928:12944   */\n      add\n        /* \"#utility.yul\":12922:12945   */\n      mload\n        /* \"#utility.yul\":12992:12995   */\n      dup5\n        /* \"#utility.yul\":12986:12990   */\n      dup3\n        /* \"#utility.yul\":12982:12996   */\n      sub\n        /* \"#utility.yul\":12975:12979   */\n      0x00\n        /* \"#utility.yul\":12970:12973   */\n      dup7\n        /* \"#utility.yul\":12966:12980   */\n      add\n        /* \"#utility.yul\":12959:12997   */\n      mstore\n        /* \"#utility.yul\":13018:13091   */\n      tag_225\n        /* \"#utility.yul\":13086:13090   */\n      dup3\n        /* \"#utility.yul\":13072:13084   */\n      dup3\n        /* \"#utility.yul\":13018:13091   */\n      tag_215\n      jump\t// in\n    tag_225:\n        /* \"#utility.yul\":13010:13091   */\n      swap2\n      pop\n        /* \"#utility.yul\":12867:13102   */\n      pop\n        /* \"#utility.yul\":13187:13191   */\n      0x20\n        /* \"#utility.yul\":13180:13185   */\n      dup4\n        /* \"#utility.yul\":13176:13192   */\n      add\n        /* \"#utility.yul\":13170:13193   */\n      mload\n        /* \"#utility.yul\":13206:13315   */\n      tag_226\n        /* \"#utility.yul\":13309:13313   */\n      0x20\n        /* \"#utility.yul\":13304:13307   */\n      dup7\n        /* \"#utility.yul\":13300:13314   */\n      add\n        /* \"#utility.yul\":13286:13298   */\n      dup3\n        /* \"#utility.yul\":13206:13315   */\n      tag_178\n      jump\t// in\n    tag_226:\n        /* \"#utility.yul\":13112:13325   */\n      pop\n        /* \"#utility.yul\":13342:13346   */\n      dup1\n        /* \"#utility.yul\":13335:13346   */\n      swap2\n      pop\n        /* \"#utility.yul\":12821:13352   */\n      pop\n      swap3\n      swap2\n      pop\n      pop\n      jump\t// out\n        /* \"#utility.yul\":13358:13466   */\n    tag_173:\n        /* \"#utility.yul\":13435:13459   */\n      tag_228\n        /* \"#utility.yul\":13453:13458   */\n      dup2\n        /* \"#utility.yul\":13435:13459   */\n      tag_229\n      jump\t// in\n    tag_228:\n        /* \"#utility.yul\":13430:13433   */\n      dup3\n        /* \"#utility.yul\":13423:13460   */\n      mstore\n        /* \"#utility.yul\":13413:13466   */\n      pop\n      pop\n      jump\t// out\n        /* \"#utility.yul\":13472:13590   */\n    tag_230:\n        /* \"#utility.yul\":13559:13583   */\n      tag_232\n        /* \"#utility.yul\":13577:13582   */\n      dup2\n        /* \"#utility.yul\":13559:13583   */\n      tag_229\n      jump\t// in\n    tag_232:\n        /* \"#utility.yul\":13554:13557   */\n      dup3\n        /* \"#utility.yul\":13547:13584   */\n      mstore\n        /* \"#utility.yul\":13537:13590   */\n      pop\n      pop\n      jump\t// out\n        /* \"#utility.yul\":13596:13905   */\n    tag_17:\n      0x00\n        /* \"#utility.yul\":13745:13747   */\n      0x20\n        /* \"#utility.yul\":13734:13743   */\n      dup3\n        /* \"#utility.yul\":13730:13748   */\n      add\n        /* \"#utility.yul\":13722:13748   */\n      swap1\n      pop\n        /* \"#utility.yul\":13794:13803   */\n      dup2\n        /* \"#utility.yul\":13788:13792   */\n      dup2\n        /* \"#utility.yul\":13784:13804   */\n      sub\n        /* \"#utility.yul\":13780:13781   */\n      0x00\n        /* \"#utility.yul\":13769:13778   */\n      dup4\n        /* \"#utility.yul\":13765:13782   */\n      add\n        /* \"#utility.yul\":13758:13805   */\n      mstore\n        /* \"#utility.yul\":13822:13898   */\n      tag_234\n        /* \"#utility.yul\":13893:13897   */\n      dup2\n        /* \"#utility.yul\":13884:13890   */\n      dup5\n        /* \"#utility.yul\":13822:13898   */\n      tag_206\n      jump\t// in\n    tag_234:\n        /* \"#utility.yul\":13814:13898   */\n      swap1\n      pop\n        /* \"#utility.yul\":13712:13905   */\n      swap3\n      swap2\n      pop\n      pop\n      jump\t// out\n        /* \"#utility.yul\":13911:14762   */\n    tag_11:\n      0x00\n        /* \"#utility.yul\":14224:14227   */\n      0x80\n        /* \"#utility.yul\":14213:14222   */\n      dup3\n        /* \"#utility.yul\":14209:14228   */\n      add\n        /* \"#utility.yul\":14201:14228   */\n      swap1\n      pop\n        /* \"#utility.yul\":14238:14309   */\n      tag_236\n        /* \"#utility.yul\":14306:14307   */\n      0x00\n        /* \"#utility.yul\":14295:14304   */\n      dup4\n        /* \"#utility.yul\":14291:14308   */\n      add\n        /* \"#utility.yul\":14282:14288   */\n      dup8\n        /* \"#utility.yul\":14238:14309   */\n      tag_230\n      jump\t// in\n    tag_236:\n        /* \"#utility.yul\":14319:14391   */\n      tag_237\n        /* \"#utility.yul\":14387:14389   */\n      0x20\n        /* \"#utility.yul\":14376:14385   */\n      dup4\n        /* \"#utility.yul\":14372:14390   */\n      add\n        /* \"#utility.yul\":14363:14369   */\n      dup7\n        /* \"#utility.yul\":14319:14391   */\n      tag_174\n      jump\t// in\n    tag_237:\n        /* \"#utility.yul\":14438:14447   */\n      dup2\n        /* \"#utility.yul\":14432:14436   */\n      dup2\n        /* \"#utility.yul\":14428:14448   */\n      sub\n        /* \"#utility.yul\":14423:14425   */\n      0x40\n        /* \"#utility.yul\":14412:14421   */\n      dup4\n        /* \"#utility.yul\":14408:14426   */\n      add\n        /* \"#utility.yul\":14401:14449   */\n      mstore\n        /* \"#utility.yul\":14466:14574   */\n      tag_238\n        /* \"#utility.yul\":14569:14573   */\n      dup2\n        /* \"#utility.yul\":14560:14566   */\n      dup6\n        /* \"#utility.yul\":14466:14574   */\n      tag_192\n      jump\t// in\n    tag_238:\n        /* \"#utility.yul\":14458:14574   */\n      swap1\n      pop\n        /* \"#utility.yul\":14621:14630   */\n      dup2\n        /* \"#utility.yul\":14615:14619   */\n      dup2\n        /* \"#utility.yul\":14611:14631   */\n      sub\n        /* \"#utility.yul\":14606:14608   */\n      0x60\n        /* \"#utility.yul\":14595:14604   */\n      dup4\n        /* \"#utility.yul\":14591:14609   */\n      add\n        /* \"#utility.yul\":14584:14632   */\n      mstore\n        /* \"#utility.yul\":14649:14755   */\n      tag_239\n        /* \"#utility.yul\":14750:14754   */\n      dup2\n        /* \"#utility.yul\":14741:14747   */\n      dup5\n        /* \"#utility.yul\":14649:14755   */\n      tag_223\n      jump\t// in\n    tag_239:\n        /* \"#utility.yul\":14641:14755   */\n      swap1\n      pop\n        /* \"#utility.yul\":14191:14762   */\n      swap6\n      swap5\n      pop\n      pop\n      pop\n      pop\n      pop\n      jump\t// out\n        /* \"#utility.yul\":14768:15051   */\n    tag_37:\n      0x00\n        /* \"#utility.yul\":14834:14836   */\n      0x40\n        /* \"#utility.yul\":14828:14837   */\n      mload\n        /* \"#utility.yul\":14818:14837   */\n      swap1\n      pop\n        /* \"#utility.yul\":14876:14880   */\n      dup2\n        /* \"#utility.yul\":14868:14874   */\n      dup2\n        /* \"#utility.yul\":14864:14881   */\n      add\n        /* \"#utility.yul\":14983:14989   */\n      dup2\n        /* \"#utility.yul\":14971:14981   */\n      dup2\n        /* \"#utility.yul\":14968:14990   */\n      lt\n        /* \"#utility.yul\":14947:14965   */\n      0xffffffffffffffff\n        /* \"#utility.yul\":14935:14945   */\n      dup3\n        /* \"#utility.yul\":14932:14966   */\n      gt\n        /* \"#utility.yul\":14929:14991   */\n      or\n        /* \"#utility.yul\":14926:14928   */\n      iszero\n      tag_241\n      jumpi\n        /* \"#utility.yul\":14994:15012   */\n      tag_242\n      tag_243\n      jump\t// in\n    tag_242:\n        /* \"#utility.yul\":14926:14928   */\n    tag_241:\n        /* \"#utility.yul\":15034:15044   */\n      dup1\n        /* \"#utility.yul\":15030:15032   */\n      0x40\n        /* \"#utility.yul\":15023:15045   */\n      mstore\n        /* \"#utility.yul\":14808:15051   */\n      pop\n      swap2\n      swap1\n      pop\n      jump\t// out\n        /* \"#utility.yul\":15057:15306   */\n    tag_36:\n      0x00\n        /* \"#utility.yul\":15222:15240   */\n      0xffffffffffffffff\n        /* \"#utility.yul\":15214:15220   */\n      dup3\n        /* \"#utility.yul\":15211:15241   */\n      gt\n        /* \"#utility.yul\":15208:15210   */\n      iszero\n      tag_245\n      jumpi\n        /* \"#utility.yul\":15244:15262   */\n      tag_246\n      tag_243\n      jump\t// in\n    tag_246:\n        /* \"#utility.yul\":15208:15210   */\n    tag_245:\n        /* \"#utility.yul\":15294:15298   */\n      0x20\n        /* \"#utility.yul\":15286:15292   */\n      dup3\n        /* \"#utility.yul\":15282:15299   */\n      mul\n        /* \"#utility.yul\":15274:15299   */\n      swap1\n      pop\n        /* \"#utility.yul\":15137:15306   */\n      swap2\n      swap1\n      pop\n      jump\t// out\n        /* \"#utility.yul\":15312:15623   */\n    tag_58:\n      0x00\n        /* \"#utility.yul\":15479:15497   */\n      0xffffffffffffffff\n        /* \"#utility.yul\":15471:15477   */\n      dup3\n        /* \"#utility.yul\":15468:15498   */\n      gt\n        /* \"#utility.yul\":15465:15467   */\n      iszero\n      tag_248\n      jumpi\n        /* \"#utility.yul\":15501:15519   */\n      tag_249\n      tag_243\n      jump\t// in\n    tag_249:\n        /* \"#utility.yul\":15465:15467   */\n    tag_248:\n        /* \"#utility.yul\":15551:15555   */\n      0x20\n        /* \"#utility.yul\":15543:15549   */\n      dup3\n        /* \"#utility.yul\":15539:15556   */\n      mul\n        /* \"#utility.yul\":15531:15556   */\n      swap1\n      pop\n        /* \"#utility.yul\":15611:15615   */\n      0x20\n        /* \"#utility.yul\":15605:15609   */\n      dup2\n        /* \"#utility.yul\":15601:15616   */\n      add\n        /* \"#utility.yul\":15593:15616   */\n      swap1\n      pop\n        /* \"#utility.yul\":15394:15623   */\n      swap2\n      swap1\n      pop\n      jump\t// out\n        /* \"#utility.yul\":15629:15960   */\n    tag_77:\n      0x00\n        /* \"#utility.yul\":15780:15798   */\n      0xffffffffffffffff\n        /* \"#utility.yul\":15772:15778   */\n      dup3\n        /* \"#utility.yul\":15769:15799   */\n      gt\n        /* \"#utility.yul\":15766:15768   */\n      iszero\n      tag_251\n      jumpi\n        /* \"#utility.yul\":15802:15820   */\n      tag_252\n      tag_243\n      jump\t// in\n    tag_252:\n        /* \"#utility.yul\":15766:15768   */\n    tag_251:\n        /* \"#utility.yul\":15887:15891   */\n      0x1f\n        /* \"#utility.yul\":15883:15892   */\n      not\n        /* \"#utility.yul\":15876:15880   */\n      0x1f\n        /* \"#utility.yul\":15868:15874   */\n      dup4\n        /* \"#utility.yul\":15864:15881   */\n      add\n        /* \"#utility.yul\":15860:15893   */\n      and\n        /* \"#utility.yul\":15852:15893   */\n      swap1\n      pop\n        /* \"#utility.yul\":15948:15952   */\n      0x20\n        /* \"#utility.yul\":15942:15946   */\n      dup2\n        /* \"#utility.yul\":15938:15953   */\n      add\n        /* \"#utility.yul\":15930:15953   */\n      swap1\n      pop\n        /* \"#utility.yul\":15695:15960   */\n      swap2\n      swap1\n      pop\n      jump\t// out\n        /* \"#utility.yul\":15966:16298   */\n    tag_85:\n      0x00\n        /* \"#utility.yul\":16118:16136   */\n      0xffffffffffffffff\n        /* \"#utility.yul\":16110:16116   */\n      dup3\n        /* \"#utility.yul\":16107:16137   */\n      gt\n        /* \"#utility.yul\":16104:16106   */\n      iszero\n      tag_254\n      jumpi\n        /* \"#utility.yul\":16140:16158   */\n      tag_255\n      tag_243\n      jump\t// in\n    tag_255:\n        /* \"#utility.yul\":16104:16106   */\n    tag_254:\n        /* \"#utility.yul\":16225:16229   */\n      0x1f\n        /* \"#utility.yul\":16221:16230   */\n      not\n        /* \"#utility.yul\":16214:16218   */\n      0x1f\n        /* \"#utility.yul\":16206:16212   */\n      dup4\n        /* \"#utility.yul\":16202:16219   */\n      add\n        /* \"#utility.yul\":16198:16231   */\n      and\n        /* \"#utility.yul\":16190:16231   */\n      swap1\n      pop\n        /* \"#utility.yul\":16286:16290   */\n      0x20\n        /* \"#utility.yul\":16280:16284   */\n      dup2\n        /* \"#utility.yul\":16276:16291   */\n      add\n        /* \"#utility.yul\":16268:16291   */\n      swap1\n      pop\n        /* \"#utility.yul\":16033:16298   */\n      swap2\n      swap1\n      pop\n      jump\t// out\n        /* \"#utility.yul\":16304:16402   */\n    tag_185:\n      0x00\n        /* \"#utility.yul\":16392:16395   */\n      dup2\n        /* \"#utility.yul\":16384:16395   */\n      swap1\n      pop\n        /* \"#utility.yul\":16374:16402   */\n      swap2\n      swap1\n      pop\n      jump\t// out\n        /* \"#utility.yul\":16408:16540   */\n    tag_199:\n      0x00\n        /* \"#utility.yul\":16498:16501   */\n      dup2\n        /* \"#utility.yul\":16490:16501   */\n      swap1\n      pop\n        /* \"#utility.yul\":16528:16532   */\n      0x20\n        /* \"#utility.yul\":16523:16526   */\n      dup3\n        /* \"#utility.yul\":16519:16533   */\n      add\n        /* \"#utility.yul\":16511:16533   */\n      swap1\n      pop\n        /* \"#utility.yul\":16480:16540   */\n      swap2\n      swap1\n      pop\n      jump\t// out\n        /* \"#utility.yul\":16546:16650   */\n    tag_181:\n      0x00\n        /* \"#utility.yul\":16639:16643   */\n      0x02\n        /* \"#utility.yul\":16629:16643   */\n      swap1\n      pop\n        /* \"#utility.yul\":16618:16650   */\n      swap2\n      swap1\n      pop\n      jump\t// out\n        /* \"#utility.yul\":16656:16770   */\n    tag_195:\n      0x00\n        /* \"#utility.yul\":16757:16762   */\n      dup2\n        /* \"#utility.yul\":16751:16763   */\n      mload\n        /* \"#utility.yul\":16741:16763   */\n      swap1\n      pop\n        /* \"#utility.yul\":16730:16770   */\n      swap2\n      swap1\n      pop\n      jump\t// out\n        /* \"#utility.yul\":16776:16874   */\n    tag_209:\n      0x00\n        /* \"#utility.yul\":16861:16866   */\n      dup2\n        /* \"#utility.yul\":16855:16867   */\n      mload\n        /* \"#utility.yul\":16845:16867   */\n      swap1\n      pop\n        /* \"#utility.yul\":16834:16874   */\n      swap2\n      swap1\n      pop\n      jump\t// out\n        /* \"#utility.yul\":16880:16979   */\n    tag_218:\n      0x00\n        /* \"#utility.yul\":16966:16971   */\n      dup2\n        /* \"#utility.yul\":16960:16972   */\n      mload\n        /* \"#utility.yul\":16950:16972   */\n      swap1\n      pop\n        /* \"#utility.yul\":16939:16979   */\n      swap2\n      swap1\n      pop\n      jump\t// out\n        /* \"#utility.yul\":16985:17096   */\n    tag_191:\n      0x00\n        /* \"#utility.yul\":17085:17089   */\n      0x20\n        /* \"#utility.yul\":17080:17083   */\n      dup3\n        /* \"#utility.yul\":17076:17090   */\n      add\n        /* \"#utility.yul\":17068:17090   */\n      swap1\n      pop\n        /* \"#utility.yul\":17058:17096   */\n      swap2\n      swap1\n      pop\n      jump\t// out\n        /* \"#utility.yul\":17102:17215   */\n    tag_205:\n      0x00\n        /* \"#utility.yul\":17204:17208   */\n      0x20\n        /* \"#utility.yul\":17199:17202   */\n      dup3\n        /* \"#utility.yul\":17195:17209   */\n      add\n        /* \"#utility.yul\":17187:17209   */\n      swap1\n      pop\n        /* \"#utility.yul\":17177:17215   */\n      swap2\n      swap1\n      pop\n      jump\t// out\n        /* \"#utility.yul\":17221:17354   */\n    tag_183:\n      0x00\n        /* \"#utility.yul\":17345:17348   */\n      dup2\n        /* \"#utility.yul\":17330:17348   */\n      swap1\n      pop\n        /* \"#utility.yul\":17320:17354   */\n      swap3\n      swap2\n      pop\n      pop\n      jump\t// out\n        /* \"#utility.yul\":17360:17544   */\n    tag_197:\n      0x00\n        /* \"#utility.yul\":17493:17499   */\n      dup3\n        /* \"#utility.yul\":17488:17491   */\n      dup3\n        /* \"#utility.yul\":17481:17500   */\n      mstore\n        /* \"#utility.yul\":17533:17537   */\n      0x20\n        /* \"#utility.yul\":17528:17531   */\n      dup3\n        /* \"#utility.yul\":17524:17538   */\n      add\n        /* \"#utility.yul\":17509:17538   */\n      swap1\n      pop\n        /* \"#utility.yul\":17471:17544   */\n      swap3\n      swap2\n      pop\n      pop\n      jump\t// out\n        /* \"#utility.yul\":17550:17718   */\n    tag_211:\n      0x00\n        /* \"#utility.yul\":17667:17673   */\n      dup3\n        /* \"#utility.yul\":17662:17665   */\n      dup3\n        /* \"#utility.yul\":17655:17674   */\n      mstore\n        /* \"#utility.yul\":17707:17711   */\n      0x20\n        /* \"#utility.yul\":17702:17705   */\n      dup3\n        /* \"#utility.yul\":17698:17712   */\n      add\n        /* \"#utility.yul\":17683:17712   */\n      swap1\n      pop\n        /* \"#utility.yul\":17645:17718   */\n      swap3\n      swap2\n      pop\n      pop\n      jump\t// out\n        /* \"#utility.yul\":17724:17883   */\n    tag_220:\n      0x00\n        /* \"#utility.yul\":17832:17838   */\n      dup3\n        /* \"#utility.yul\":17827:17830   */\n      dup3\n        /* \"#utility.yul\":17820:17839   */\n      mstore\n        /* \"#utility.yul\":17872:17876   */\n      0x20\n        /* \"#utility.yul\":17867:17870   */\n      dup3\n        /* \"#utility.yul\":17863:17877   */\n      add\n        /* \"#utility.yul\":17848:17877   */\n      swap1\n      pop\n        /* \"#utility.yul\":17810:17883   */\n      swap3\n      swap2\n      pop\n      pop\n      jump\t// out\n        /* \"#utility.yul\":17889:17985   */\n    tag_177:\n      0x00\n        /* \"#utility.yul\":17955:17979   */\n      tag_269\n        /* \"#utility.yul\":17973:17978   */\n      dup3\n        /* \"#utility.yul\":17955:17979   */\n      tag_270\n      jump\t// in\n    tag_269:\n        /* \"#utility.yul\":17944:17979   */\n      swap1\n      pop\n        /* \"#utility.yul\":17934:17985   */\n      swap2\n      swap1\n      pop\n      jump\t// out\n        /* \"#utility.yul\":17991:18095   */\n    tag_271:\n      0x00\n        /* \"#utility.yul\":18065:18089   */\n      tag_273\n        /* \"#utility.yul\":18083:18088   */\n      dup3\n        /* \"#utility.yul\":18065:18089   */\n      tag_270\n      jump\t// in\n    tag_273:\n        /* \"#utility.yul\":18054:18089   */\n      swap1\n      pop\n        /* \"#utility.yul\":18044:18095   */\n      swap2\n      swap1\n      pop\n      jump\t// out\n        /* \"#utility.yul\":18101:18227   */\n    tag_270:\n      0x00\n        /* \"#utility.yul\":18178:18220   */\n      0xffffffffffffffffffffffffffffffffffffffff\n        /* \"#utility.yul\":18171:18176   */\n      dup3\n        /* \"#utility.yul\":18167:18221   */\n      and\n        /* \"#utility.yul\":18156:18221   */\n      swap1\n      pop\n        /* \"#utility.yul\":18146:18227   */\n      swap2\n      swap1\n      pop\n      jump\t// out\n        /* \"#utility.yul\":18233:18310   */\n    tag_229:\n      0x00\n        /* \"#utility.yul\":18299:18304   */\n      dup2\n        /* \"#utility.yul\":18288:18304   */\n      swap1\n      pop\n        /* \"#utility.yul\":18278:18310   */\n      swap2\n      swap1\n      pop\n      jump\t// out\n        /* \"#utility.yul\":18316:18470   */\n    tag_80:\n        /* \"#utility.yul\":18400:18406   */\n      dup3\n        /* \"#utility.yul\":18395:18398   */\n      dup2\n        /* \"#utility.yul\":18390:18393   */\n      dup4\n        /* \"#utility.yul\":18377:18407   */\n      calldatacopy\n        /* \"#utility.yul\":18462:18463   */\n      0x00\n        /* \"#utility.yul\":18453:18459   */\n      dup4\n        /* \"#utility.yul\":18448:18451   */\n      dup4\n        /* \"#utility.yul\":18444:18460   */\n      add\n        /* \"#utility.yul\":18437:18464   */\n      mstore\n        /* \"#utility.yul\":18367:18470   */\n      pop\n      pop\n      pop\n      jump\t// out\n        /* \"#utility.yul\":18476:18783   */\n    tag_94:\n        /* \"#utility.yul\":18544:18545   */\n      0x00\n        /* \"#utility.yul\":18554:18667   */\n    tag_278:\n        /* \"#utility.yul\":18568:18574   */\n      dup4\n        /* \"#utility.yul\":18565:18566   */\n      dup2\n        /* \"#utility.yul\":18562:18575   */\n      lt\n        /* \"#utility.yul\":18554:18667   */\n      iszero\n      tag_280\n      jumpi\n        /* \"#utility.yul\":18653:18654   */\n      dup1\n        /* \"#utility.yul\":18648:18651   */\n      dup3\n        /* \"#utility.yul\":18644:18655   */\n      add\n        /* \"#utility.yul\":18638:18656   */\n      mload\n        /* \"#utility.yul\":18634:18635   */\n      dup2\n        /* \"#utility.yul\":18629:18632   */\n      dup5\n        /* \"#utility.yul\":18625:18636   */\n      add\n        /* \"#utility.yul\":18618:18657   */\n      mstore\n        /* \"#utility.yul\":18590:18592   */\n      0x20\n        /* \"#utility.yul\":18587:18588   */\n      dup2\n        /* \"#utility.yul\":18583:18593   */\n      add\n        /* \"#utility.yul\":18578:18593   */\n      swap1\n      pop\n        /* \"#utility.yul\":18554:18667   */\n      jump(tag_278)\n    tag_280:\n        /* \"#utility.yul\":18685:18691   */\n      dup4\n        /* \"#utility.yul\":18682:18683   */\n      dup2\n        /* \"#utility.yul\":18679:18692   */\n      gt\n        /* \"#utility.yul\":18676:18678   */\n      iszero\n      tag_281\n      jumpi\n        /* \"#utility.yul\":18765:18766   */\n      0x00\n        /* \"#utility.yul\":18756:18762   */\n      dup5\n        /* \"#utility.yul\":18751:18754   */\n      dup5\n        /* \"#utility.yul\":18747:18763   */\n      add\n        /* \"#utility.yul\":18740:18767   */\n      mstore\n        /* \"#utility.yul\":18676:18678   */\n    tag_281:\n        /* \"#utility.yul\":18525:18783   */\n      pop\n      pop\n      pop\n      pop\n      jump\t// out\n        /* \"#utility.yul\":18789:18969   */\n    tag_243:\n        /* \"#utility.yul\":18837:18914   */\n      0x4e487b7100000000000000000000000000000000000000000000000000000000\n        /* \"#utility.yul\":18834:18835   */\n      0x00\n        /* \"#utility.yul\":18827:18915   */\n      mstore\n        /* \"#utility.yul\":18934:18938   */\n      0x41\n        /* \"#utility.yul\":18931:18932   */\n      0x04\n        /* \"#utility.yul\":18924:18939   */\n      mstore\n        /* \"#utility.yul\":18958:18962   */\n      0x24\n        /* \"#utility.yul\":18955:18956   */\n      0x00\n        /* \"#utility.yul\":18948:18963   */\n      revert\n        /* \"#utility.yul\":18975:19077   */\n    tag_214:\n      0x00\n        /* \"#utility.yul\":19067:19069   */\n      0x1f\n        /* \"#utility.yul\":19063:19070   */\n      not\n        /* \"#utility.yul\":19058:19060   */\n      0x1f\n        /* \"#utility.yul\":19051:19056   */\n      dup4\n        /* \"#utility.yul\":19047:19061   */\n      add\n        /* \"#utility.yul\":19043:19071   */\n      and\n        /* \"#utility.yul\":19033:19071   */\n      swap1\n      pop\n        /* \"#utility.yul\":19023:19077   */\n      swap2\n      swap1\n      pop\n      jump\t// out\n        /* \"#utility.yul\":19083:19205   */\n    tag_98:\n        /* \"#utility.yul\":19156:19180   */\n      tag_285\n        /* \"#utility.yul\":19174:19179   */\n      dup2\n        /* \"#utility.yul\":19156:19180   */\n      tag_177\n      jump\t// in\n    tag_285:\n        /* \"#utility.yul\":19149:19154   */\n      dup2\n        /* \"#utility.yul\":19146:19181   */\n      eq\n        /* \"#utility.yul\":19136:19138   */\n      tag_286\n      jumpi\n        /* \"#utility.yul\":19195:19196   */\n      0x00\n        /* \"#utility.yul\":19192:19193   */\n      dup1\n        /* \"#utility.yul\":19185:19197   */\n      revert\n        /* \"#utility.yul\":19136:19138   */\n    tag_286:\n        /* \"#utility.yul\":19126:19205   */\n      pop\n      jump\t// out\n        /* \"#utility.yul\":19211:19349   */\n    tag_102:\n        /* \"#utility.yul\":19292:19324   */\n      tag_288\n        /* \"#utility.yul\":19318:19323   */\n      dup2\n        /* \"#utility.yul\":19292:19324   */\n      tag_271\n      jump\t// in\n    tag_288:\n        /* \"#utility.yul\":19285:19290   */\n      dup2\n        /* \"#utility.yul\":19282:19325   */\n      eq\n        /* \"#utility.yul\":19272:19274   */\n      tag_289\n      jumpi\n        /* \"#utility.yul\":19339:19340   */\n      0x00\n        /* \"#utility.yul\":19336:19337   */\n      dup1\n        /* \"#utility.yul\":19329:19341   */\n      revert\n        /* \"#utility.yul\":19272:19274   */\n    tag_289:\n        /* \"#utility.yul\":19262:19349   */\n      pop\n      jump\t// out\n        /* \"#utility.yul\":19355:19477   */\n    tag_147:\n        /* \"#utility.yul\":19428:19452   */\n      tag_291\n        /* \"#utility.yul\":19446:19451   */\n      dup2\n        /* \"#utility.yul\":19428:19452   */\n      tag_229\n      jump\t// in\n    tag_291:\n        /* \"#utility.yul\":19421:19426   */\n      dup2\n        /* \"#utility.yul\":19418:19453   */\n      eq\n        /* \"#utility.yul\":19408:19410   */\n      tag_292\n      jumpi\n        /* \"#utility.yul\":19467:19468   */\n      0x00\n        /* \"#utility.yul\":19464:19465   */\n      dup1\n        /* \"#utility.yul\":19457:19469   */\n      revert\n        /* \"#utility.yul\":19408:19410   */\n    tag_292:\n        /* \"#utility.yul\":19398:19477   */\n      pop\n      jump\t// out\n\n    auxdata: 0xa2646970667358221220f2adbce6d94b3a2005ed5e6d2ea5bce87dd7583a54196f10b1ceddfe7a58ccaf64736f6c63430008000033\n}\n",
				"bytecode": {
					"linkReferences": {},
					"object": "608060405234801561001057600080fd5b50610cf0806100206000396000f3fe608060405234801561001057600080fd5b50600436106100415760003560e01c8063447a06f514610046578063985f36f414610079578063e4f2a84a146100a9575b600080fd5b610060600480360381019061005b919061069f565b6100c7565b60405161007094939291906109d1565b60405180910390f35b610093600480360381019061008e9190610773565b61010d565b6040516100a091906109af565b60405180910390f35b6100b161013f565b6040516100be91906109af565b60405180910390f35b60008060606100d46101c9565b600080600080888060200190518101906100ee91906106e0565b9350935093509350838383839750975097509750505050509193509193565b60608484848460405160200161012694939291906109d1565b6040516020818303038152906040529050949350505050565b60606040516024016040516020818303038152906040527f371303c0000000000000000000000000000000000000000000000000000000007bffffffffffffffffffffffffffffffffffffffffffffffffffffffff19166020820180517bffffffffffffffffffffffffffffffffffffffffffffffffffffffff8381831617835250505050905090565b6040518060400160405280606081526020016101e36101e9565b81525090565b6040518060400160405280600290602082028036833780820191505090505090565b600061021e61021984610a55565b610a24565b9050808285602086028201111561023457600080fd5b60005b85811015610264578161024a8882610675565b845260208401935060208301925050600181019050610237565b5050509392505050565b600061028161027c84610a55565b610a24565b9050808285602086028201111561029757600080fd5b60005b858110156102c757816102ad888261068a565b84526020840193506020830192505060018101905061029a565b5050509392505050565b60006102e46102df84610a7b565b610a24565b9050808382526020820190508285602086028201111561030357600080fd5b60005b8581101561033357816103198882610675565b845260208401935060208301925050600181019050610306565b5050509392505050565b600061035061034b84610a7b565b610a24565b9050808382526020820190508285602086028201111561036f57600080fd5b60005b8581101561039f5781610385888261068a565b845260208401935060208301925050600181019050610372565b5050509392505050565b60006103bc6103b784610aa7565b610a24565b9050828152602081018484840111156103d457600080fd5b6103df848285610bf3565b509392505050565b60006103fa6103f584610ad7565b610a24565b90508281526020810184848401111561041257600080fd5b61041d848285610bf3565b509392505050565b600061043861043384610ad7565b610a24565b90508281526020810184848401111561045057600080fd5b61045b848285610c02565b509392505050565b60008135905061047281610c75565b92915050565b60008151905061048781610c8c565b92915050565b600082601f83011261049e57600080fd5b60026104ab84828561020b565b91505092915050565b600082601f8301126104c557600080fd5b60026104d284828561026e565b91505092915050565b600082601f8301126104ec57600080fd5b81356104fc8482602086016102d1565b91505092915050565b600082601f83011261051657600080fd5b815161052684826020860161033d565b91505092915050565b600082601f83011261054057600080fd5b81356105508482602086016103a9565b91505092915050565b600082601f83011261056a57600080fd5b813561057a8482602086016103e7565b91505092915050565b600082601f83011261059457600080fd5b81516105a4848260208601610425565b91505092915050565b6000606082840312156105bf57600080fd5b6105c96040610a24565b9050600082013567ffffffffffffffff8111156105e557600080fd5b6105f184828501610559565b60008301525060206106058482850161048d565b60208301525092915050565b60006060828403121561062357600080fd5b61062d6040610a24565b9050600082015167ffffffffffffffff81111561064957600080fd5b61065584828501610583565b6000830152506020610669848285016104b4565b60208301525092915050565b60008135905061068481610ca3565b92915050565b60008151905061069981610ca3565b92915050565b6000602082840312156106b157600080fd5b600082013567ffffffffffffffff8111156106cb57600080fd5b6106d78482850161052f565b91505092915050565b600080600080608085870312156106f657600080fd5b60006107048782880161068a565b945050602061071587828801610478565b935050604085015167ffffffffffffffff81111561073257600080fd5b61073e87828801610505565b925050606085015167ffffffffffffffff81111561075b57600080fd5b61076787828801610611565b91505092959194509250565b6000806000806080858703121561078957600080fd5b600061079787828801610675565b94505060206107a887828801610463565b935050604085013567ffffffffffffffff8111156107c557600080fd5b6107d1878288016104db565b925050606085013567ffffffffffffffff8111156107ee57600080fd5b6107fa878288016105ad565b91505092959194509250565b60006108128383610991565b60208301905092915050565b61082781610ba5565b82525050565b61083681610b21565b6108408184610b67565b925061084b82610b07565b8060005b8381101561087c5781516108638782610806565b965061086e83610b4d565b92505060018101905061084f565b505050505050565b600061088f82610b2c565b6108998185610b72565b93506108a483610b11565b8060005b838110156108d55781516108bc8882610806565b97506108c783610b5a565b9250506001810190506108a8565b5085935050505092915050565b60006108ed82610b37565b6108f78185610b83565b9350610907818560208601610c02565b61091081610c64565b840191505092915050565b600061092682610b42565b6109308185610b94565b9350610940818560208601610c02565b61094981610c64565b840191505092915050565b60006060830160008301518482036000860152610971828261091b565b9150506020830151610986602086018261082d565b508091505092915050565b61099a81610be9565b82525050565b6109a981610be9565b82525050565b600060208201905081810360008301526109c981846108e2565b905092915050565b60006080820190506109e660008301876109a0565b6109f3602083018661081e565b8181036040830152610a058185610884565b90508181036060830152610a198184610954565b905095945050505050565b6000604051905081810181811067ffffffffffffffff82111715610a4b57610a4a610c35565b5b8060405250919050565b600067ffffffffffffffff821115610a7057610a6f610c35565b5b602082029050919050565b600067ffffffffffffffff821115610a9657610a95610c35565b5b602082029050602081019050919050565b600067ffffffffffffffff821115610ac257610ac1610c35565b5b601f19601f8301169050602081019050919050565b600067ffffffffffffffff821115610af257610af1610c35565b5b601f19601f8301169050602081019050919050565b6000819050919050565b6000819050602082019050919050565b600060029050919050565b600081519050919050565b600081519050919050565b600081519050919050565b6000602082019050919050565b6000602082019050919050565b600081905092915050565b600082825260208201905092915050565b600082825260208201905092915050565b600082825260208201905092915050565b6000610bb082610bc9565b9050919050565b6000610bc282610bc9565b9050919050565b600073ffffffffffffffffffffffffffffffffffffffff82169050919050565b6000819050919050565b82818337600083830152505050565b60005b83811015610c20578082015181840152602081019050610c05565b83811115610c2f576000848401525b50505050565b7f4e487b7100000000000000000000000000000000000000000000000000000000600052604160045260246000fd5b6000601f19601f8301169050919050565b610c7e81610ba5565b8114610c8957600080fd5b50565b610c9581610bb7565b8114610ca057600080fd5b50565b610cac81610be9565b8114610cb757600080fd5b5056fea2646970667358221220f2adbce6d94b3a2005ed5e6d2ea5bce87dd7583a54196f10b1ceddfe7a58ccaf64736f6c63430008000033",
					"opcodes": "PUSH1 0x80 PUSH1 0x40 MSTORE CALLVALUE DUP1 ISZERO PUSH2 0x10 JUMPI PUSH1 0x0 DUP1 REVERT JUMPDEST POP PUSH2 0xCF0 DUP1 PUSH2 0x20 PUSH1 0x0 CODECOPY PUSH1 0x0 RETURN INVALID PUSH1 0x80 PUSH1 0x40 MSTORE CALLVALUE DUP1 ISZERO PUSH2 0x10 JUMPI PUSH1 0x0 DUP1 REVERT JUMPDEST POP PUSH1 0x4 CALLDATASIZE LT PUSH2 0x41 JUMPI PUSH1 0x0 CALLDATALOAD PUSH1 0xE0 SHR DUP1 PUSH4 0x447A06F5 EQ PUSH2 0x46 JUMPI DUP1 PUSH4 0x985F36F4 EQ PUSH2 0x79 JUMPI DUP1 PUSH4 0xE4F2A84A EQ PUSH2 0xA9 JUMPI JUMPDEST PUSH1 0x0 DUP1 REVERT JUMPDEST PUSH2 0x60 PUSH1 0x4 DUP1 CALLDATASIZE SUB DUP2 ADD SWAP1 PUSH2 0x5B SWAP2 SWAP1 PUSH2 0x69F JUMP JUMPDEST PUSH2 0xC7 JUMP JUMPDEST PUSH1 0x40 MLOAD PUSH2 0x70 SWAP5 SWAP4 SWAP3 SWAP2 SWAP1 PUSH2 0x9D1 JUMP JUMPDEST PUSH1 0x40 MLOAD DUP1 SWAP2 SUB SWAP1 RETURN JUMPDEST PUSH2 0x93 PUSH1 0x4 DUP1 CALLDATASIZE SUB DUP2 ADD SWAP1 PUSH2 0x8E SWAP2 SWAP1 PUSH2 0x773 JUMP JUMPDEST PUSH2 0x10D JUMP JUMPDEST PUSH1 0x40 MLOAD PUSH2 0xA0 SWAP2 SWAP1 PUSH2 0x9AF JUMP JUMPDEST PUSH1 0x40 MLOAD DUP1 SWAP2 SUB SWAP1 RETURN JUMPDEST PUSH2 0xB1 PUSH2 0x13F JUMP JUMPDEST PUSH1 0x40 MLOAD PUSH2 0xBE SWAP2 SWAP1 PUSH2 0x9AF JUMP JUMPDEST PUSH1 0x40 MLOAD DUP1 SWAP2 SUB SWAP1 RETURN JUMPDEST PUSH1 0x0 DUP1 PUSH1 0x60 PUSH2 0xD4 PUSH2 0x1C9 JUMP JUMPDEST PUSH1 0x0 DUP1 PUSH1 0x0 DUP1 DUP9 DUP1 PUSH1 0x20 ADD SWAP1 MLOAD DUP2 ADD SWAP1 PUSH2 0xEE SWAP2 SWAP1 PUSH2 0x6E0 JUMP JUMPDEST SWAP4 POP SWAP4 POP SWAP4 POP SWAP4 POP DUP4 DUP4 DUP4 DUP4 SWAP8 POP SWAP8 POP SWAP8 POP SWAP8 POP POP POP POP POP SWAP2 SWAP4 POP SWAP2 SWAP4 JUMP JUMPDEST PUSH1 0x60 DUP5 DUP5 DUP5 DUP5 PUSH1 0x40 MLOAD PUSH1 0x20 ADD PUSH2 0x126 SWAP5 SWAP4 SWAP3 SWAP2 SWAP1 PUSH2 0x9D1 JUMP JUMPDEST PUSH1 0x40 MLOAD PUSH1 0x20 DUP2 DUP4 SUB SUB DUP2 MSTORE SWAP1 PUSH1 0x40 MSTORE SWAP1 POP SWAP5 SWAP4 POP POP POP POP JUMP JUMPDEST PUSH1 0x60 PUSH1 0x40 MLOAD PUSH1 0x24 ADD PUSH1 0x40 MLOAD PUSH1 0x20 DUP2 DUP4 SUB SUB DUP2 MSTORE SWAP1 PUSH1 0x40 MSTORE PUSH32 0x371303C000000000000000000000000000000000000000000000000000000000 PUSH28 0xFFFFFFFFFFFFFFFFFFFFFFFFFFFFFFFFFFFFFFFFFFFFFFFFFFFFFFFF NOT AND PUSH1 0x20 DUP3 ADD DUP1 MLOAD PUSH28 0xFFFFFFFFFFFFFFFFFFFFFFFFFFFFFFFFFFFFFFFFFFFFFFFFFFFFFFFF DUP4 DUP2 DUP4 AND OR DUP4 MSTORE POP POP POP POP SWAP1 POP SWAP1 JUMP JUMPDEST PUSH1 0x40 MLOAD DUP1 PUSH1 0x40 ADD PUSH1 0x40 MSTORE DUP1 PUSH1 0x60 DUP2 MSTORE PUSH1 0x20 ADD PUSH2 0x1E3 PUSH2 0x1E9 JUMP JUMPDEST DUP2 MSTORE POP SWAP1 JUMP JUMPDEST PUSH1 0x40 MLOAD DUP1 PUSH1 0x40 ADD PUSH1 0x40 MSTORE DUP1 PUSH1 0x2 SWAP1 PUSH1 0x20 DUP3 MUL DUP1 CALLDATASIZE DUP4 CALLDATACOPY DUP1 DUP3 ADD SWAP2 POP POP SWAP1 POP POP SWAP1 JUMP JUMPDEST PUSH1 0x0 PUSH2 0x21E PUSH2 0x219 DUP5 PUSH2 0xA55 JUMP JUMPDEST PUSH2 0xA24 JUMP JUMPDEST SWAP1 POP DUP1 DUP3 DUP6 PUSH1 0x20 DUP7 MUL DUP3 ADD GT ISZERO PUSH2 0x234 JUMPI PUSH1 0x0 DUP1 REVERT JUMPDEST PUSH1 0x0 JUMPDEST DUP6 DUP2 LT ISZERO PUSH2 0x264 JUMPI DUP2 PUSH2 0x24A DUP9 DUP3 PUSH2 0x675 JUMP JUMPDEST DUP5 MSTORE PUSH1 0x20 DUP5 ADD SWAP4 POP PUSH1 0x20 DUP4 ADD SWAP3 POP POP PUSH1 0x1 DUP2 ADD SWAP1 POP PUSH2 0x237 JUMP JUMPDEST POP POP POP SWAP4 SWAP3 POP POP POP JUMP JUMPDEST PUSH1 0x0 PUSH2 0x281 PUSH2 0x27C DUP5 PUSH2 0xA55 JUMP JUMPDEST PUSH2 0xA24 JUMP JUMPDEST SWAP1 POP DUP1 DUP3 DUP6 PUSH1 0x20 DUP7 MUL DUP3 ADD GT ISZERO PUSH2 0x297 JUMPI PUSH1 0x0 DUP1 REVERT JUMPDEST PUSH1 0x0 JUMPDEST DUP6 DUP2 LT ISZERO PUSH2 0x2C7 JUMPI DUP2 PUSH2 0x2AD DUP9 DUP3 PUSH2 0x68A JUMP JUMPDEST DUP5 MSTORE PUSH1 0x20 DUP5 ADD SWAP4 POP PUSH1 0x20 DUP4 ADD SWAP3 POP POP PUSH1 0x1 DUP2 ADD SWAP1 POP PUSH2 0x29A JUMP JUMPDEST POP POP POP SWAP4 SWAP3 POP POP POP JUMP JUMPDEST PUSH1 0x0 PUSH2 0x2E4 PUSH2 0x2DF DUP5 PUSH2 0xA7B JUMP JUMPDEST PUSH2 0xA24 JUMP JUMPDEST SWAP1 POP DUP1 DUP4 DUP3 MSTORE PUSH1 0x20 DUP3 ADD SWAP1 POP DUP3 DUP6 PUSH1 0x20 DUP7 MUL DUP3 ADD GT ISZERO PUSH2 0x303 JUMPI PUSH1 0x0 DUP1 REVERT JUMPDEST PUSH1 0x0 JUMPDEST DUP6 DUP2 LT ISZERO PUSH2 0x333 JUMPI DUP2 PUSH2 0x319 DUP9 DUP3 PUSH2 0x675 JUMP JUMPDEST DUP5 MSTORE PUSH1 0x20 DUP5 ADD SWAP4 POP PUSH1 0x20 DUP4 ADD SWAP3 POP POP PUSH1 0x1 DUP2 ADD SWAP1 POP PUSH2 0x306 JUMP JUMPDEST POP POP POP SWAP4 SWAP3 POP POP POP JUMP JUMPDEST PUSH1 0x0 PUSH2 0x350 PUSH2 0x34B DUP5 PUSH2 0xA7B JUMP JUMPDEST PUSH2 0xA24 JUMP JUMPDEST SWAP1 POP DUP1 DUP4 DUP3 MSTORE PUSH1 0x20 DUP3 ADD SWAP1 POP DUP3 DUP6 PUSH1 0x20 DUP7 MUL DUP3 ADD GT ISZERO PUSH2 0x36F JUMPI PUSH1 0x0 DUP1 REVERT JUMPDEST PUSH1 0x0 JUMPDEST DUP6 DUP2 LT ISZERO PUSH2 0x39F JUMPI DUP2 PUSH2 0x385 DUP9 DUP3 PUSH2 0x68A JUMP JUMPDEST DUP5 MSTORE PUSH1 0x20 DUP5 ADD SWAP4 POP PUSH1 0x20 DUP4 ADD SWAP3 POP POP PUSH1 0x1 DUP2 ADD SWAP1 POP PUSH2 0x372 JUMP JUMPDEST POP POP POP SWAP4 SWAP3 POP POP POP JUMP JUMPDEST PUSH1 0x0 PUSH2 0x3BC PUSH2 0x3B7 DUP5 PUSH2 0xAA7 JUMP JUMPDEST PUSH2 0xA24 JUMP JUMPDEST SWAP1 POP DUP3 DUP2 MSTORE PUSH1 0x20 DUP2 ADD DUP5 DUP5 DUP5 ADD GT ISZERO PUSH2 0x3D4 JUMPI PUSH1 0x0 DUP1 REVERT JUMPDEST PUSH2 0x3DF DUP5 DUP3 DUP6 PUSH2 0xBF3 JUMP JUMPDEST POP SWAP4 SWAP3 POP POP POP JUMP JUMPDEST PUSH1 0x0 PUSH2 0x3FA PUSH2 0x3F5 DUP5 PUSH2 0xAD7 JUMP JUMPDEST PUSH2 0xA24 JUMP JUMPDEST SWAP1 POP DUP3 DUP2 MSTORE PUSH1 0x20 DUP2 ADD DUP5 DUP5 DUP5 ADD GT ISZERO PUSH2 0x412 JUMPI PUSH1 0x0 DUP1 REVERT JUMPDEST PUSH2 0x41D DUP5 DUP3 DUP6 PUSH2 0xBF3 JUMP JUMPDEST POP SWAP4 SWAP3 POP POP POP JUMP JUMPDEST PUSH1 0x0 PUSH2 0x438 PUSH2 0x433 DUP5 PUSH2 0xAD7 JUMP JUMPDEST PUSH2 0xA24 JUMP JUMPDEST SWAP1 POP DUP3 DUP2 MSTORE PUSH1 0x20 DUP2 ADD DUP5 DUP5 DUP5 ADD GT ISZERO PUSH2 0x450 JUMPI PUSH1 0x0 DUP1 REVERT JUMPDEST PUSH2 0x45B DUP5 DUP3 DUP6 PUSH2 0xC02 JUMP JUMPDEST POP SWAP4 SWAP3 POP POP POP JUMP JUMPDEST PUSH1 0x0 DUP2 CALLDATALOAD SWAP1 POP PUSH2 0x472 DUP2 PUSH2 0xC75 JUMP JUMPDEST SWAP3 SWAP2 POP POP JUMP JUMPDEST PUSH1 0x0 DUP2 MLOAD SWAP1 POP PUSH2 0x487 DUP2 PUSH2 0xC8C JUMP JUMPDEST SWAP3 SWAP2 POP POP JUMP JUMPDEST PUSH1 0x0 DUP3 PUSH1 0x1F DUP4 ADD SLT PUSH2 0x49E JUMPI PUSH1 0x0 DUP1 REVERT JUMPDEST PUSH1 0x2 PUSH2 0x4AB DUP5 DUP3 DUP6 PUSH2 0x20B JUMP JUMPDEST SWAP2 POP POP SWAP3 SWAP2 POP POP JUMP JUMPDEST PUSH1 0x0 DUP3 PUSH1 0x1F DUP4 ADD SLT PUSH2 0x4C5 JUMPI PUSH1 0x0 DUP1 REVERT JUMPDEST PUSH1 0x2 PUSH2 0x4D2 DUP5 DUP3 DUP6 PUSH2 0x26E JUMP JUMPDEST SWAP2 POP POP SWAP3 SWAP2 POP POP JUMP JUMPDEST PUSH1 0x0 DUP3 PUSH1 0x1F DUP4 ADD SLT PUSH2 0x4EC JUMPI PUSH1 0x0 DUP1 REVERT JUMPDEST DUP2 CALLDATALOAD PUSH2 0x4FC DUP5 DUP3 PUSH1 0x20 DUP7 ADD PUSH2 0x2D1 JUMP JUMPDEST SWAP2 POP POP SWAP3 SWAP2 POP POP JUMP JUMPDEST PUSH1 0x0 DUP3 PUSH1 0x1F DUP4 ADD SLT PUSH2 0x516 JUMPI PUSH1 0x0 DUP1 REVERT JUMPDEST DUP2 MLOAD PUSH2 0x526 DUP5 DUP3 PUSH1 0x20 DUP7 ADD PUSH2 0x33D JUMP JUMPDEST SWAP2 POP POP SWAP3 SWAP2 POP POP JUMP JUMPDEST PUSH1 0x0 DUP3 PUSH1 0x1F DUP4 ADD SLT PUSH2 0x540 JUMPI PUSH1 0x0 DUP1 REVERT JUMPDEST DUP2 CALLDATALOAD PUSH2 0x550 DUP5 DUP3 PUSH1 0x20 DUP7 ADD PUSH2 0x3A9 JUMP JUMPDEST SWAP2 POP POP SWAP3 SWAP2 POP POP JUMP JUMPDEST PUSH1 0x0 DUP3 PUSH1 0x1F DUP4 ADD SLT PUSH2 0x56A JUMPI PUSH1 0x0 DUP1 REVERT JUMPDEST DUP2 CALLDATALOAD PUSH2 0x57A DUP5 DUP3 PUSH1 0x20 DUP7 ADD PUSH2 0x3E7 JUMP JUMPDEST SWAP2 POP POP SWAP3 SWAP2 POP POP JUMP JUMPDEST PUSH1 0x0 DUP3 PUSH1 0x1F DUP4 ADD SLT PUSH2 0x594 JUMPI PUSH1 0x0 DUP1 REVERT JUMPDEST DUP2 MLOAD PUSH2 0x5A4 DUP5 DUP3 PUSH1 0x20 DUP7 ADD PUSH2 0x425 JUMP JUMPDEST SWAP2 POP POP SWAP3 SWAP2 POP POP JUMP JUMPDEST PUSH1 0x0 PUSH1 0x60 DUP3 DUP5 SUB SLT ISZERO PUSH2 0x5BF JUMPI PUSH1 0x0 DUP1 REVERT JUMPDEST PUSH2 0x5C9 PUSH1 0x40 PUSH2 0xA24 JUMP JUMPDEST SWAP1 POP PUSH1 0x0 DUP3 ADD CALLDATALOAD PUSH8 0xFFFFFFFFFFFFFFFF DUP2 GT ISZERO PUSH2 0x5E5 JUMPI PUSH1 0x0 DUP1 REVERT JUMPDEST PUSH2 0x5F1 DUP5 DUP3 DUP6 ADD PUSH2 0x559 JUMP JUMPDEST PUSH1 0x0 DUP4 ADD MSTORE POP PUSH1 0x20 PUSH2 0x605 DUP5 DUP3 DUP6 ADD PUSH2 0x48D JUMP JUMPDEST PUSH1 0x20 DUP4 ADD MSTORE POP SWAP3 SWAP2 POP POP JUMP JUMPDEST PUSH1 0x0 PUSH1 0x60 DUP3 DUP5 SUB SLT ISZERO PUSH2 0x623 JUMPI PUSH1 0x0 DUP1 REVERT JUMPDEST PUSH2 0x62D PUSH1 0x40 PUSH2 0xA24 JUMP JUMPDEST SWAP1 POP PUSH1 0x0 DUP3 ADD MLOAD PUSH8 0xFFFFFFFFFFFFFFFF DUP2 GT ISZERO PUSH2 0x649 JUMPI PUSH1 0x0 DUP1 REVERT JUMPDEST PUSH2 0x655 DUP5 DUP3 DUP6 ADD PUSH2 0x583 JUMP JUMPDEST PUSH1 0x0 DUP4 ADD MSTORE POP PUSH1 0x20 PUSH2 0x669 DUP5 DUP3 DUP6 ADD PUSH2 0x4B4 JUMP JUMPDEST PUSH1 0x20 DUP4 ADD MSTORE POP SWAP3 SWAP2 POP POP JUMP JUMPDEST PUSH1 0x0 DUP2 CALLDATALOAD SWAP1 POP PUSH2 0x684 DUP2 PUSH2 0xCA3 JUMP JUMPDEST SWAP3 SWAP2 POP POP JUMP JUMPDEST PUSH1 0x0 DUP2 MLOAD SWAP1 POP PUSH2 0x699 DUP2 PUSH2 0xCA3 JUMP JUMPDEST SWAP3 SWAP2 POP POP JUMP JUMPDEST PUSH1 0x0 PUSH1 0x20 DUP3 DUP5 SUB SLT ISZERO PUSH2 0x6B1 JUMPI PUSH1 0x0 DUP1 REVERT JUMPDEST PUSH1 0x0 DUP3 ADD CALLDATALOAD PUSH8 0xFFFFFFFFFFFFFFFF DUP2 GT ISZERO PUSH2 0x6CB JUMPI PUSH1 0x0 DUP1 REVERT JUMPDEST PUSH2 0x6D7 DUP5 DUP3 DUP6 ADD PUSH2 0x52F JUMP JUMPDEST SWAP2 POP POP SWAP3 SWAP2 POP POP JUMP JUMPDEST PUSH1 0x0 DUP1 PUSH1 0x0 DUP1 PUSH1 0x80 DUP6 DUP8 SUB SLT ISZERO PUSH2 0x6F6 JUMPI PUSH1 0x0 DUP1 REVERT JUMPDEST PUSH1 0x0 PUSH2 0x704 DUP8 DUP3 DUP9 ADD PUSH2 0x68A JUMP JUMPDEST SWAP5 POP POP PUSH1 0x20 PUSH2 0x715 DUP8 DUP3 DUP9 ADD PUSH2 0x478 JUMP JUMPDEST SWAP4 POP POP PUSH1 0x40 DUP6 ADD MLOAD PUSH8 0xFFFFFFFFFFFFFFFF DUP2 GT ISZERO PUSH2 0x732 JUMPI PUSH1 0x0 DUP1 REVERT JUMPDEST PUSH2 0x73E DUP8 DUP3 DUP9 ADD PUSH2 0x505 JUMP JUMPDEST SWAP3 POP POP PUSH1 0x60 DUP6 ADD MLOAD PUSH8 0xFFFFFFFFFFFFFFFF DUP2 GT ISZERO PUSH2 0x75B JUMPI PUSH1 0x0 DUP1 REVERT JUMPDEST PUSH2 0x767 DUP8 DUP3 DUP9 ADD PUSH2 0x611 JUMP JUMPDEST SWAP2 POP POP SWAP3 SWAP6 SWAP2 SWAP5 POP SWAP3 POP JUMP JUMPDEST PUSH1 0x0 DUP1 PUSH1 0x0 DUP1 PUSH1 0x80 DUP6 DUP8 SUB SLT ISZERO PUSH2 0x789 JUMPI PUSH1 0x0 DUP1 REVERT JUMPDEST PUSH1 0x0 PUSH2 0x797 DUP8 DUP3 DUP9 ADD PUSH2 0x675 JUMP JUMPDEST SWAP5 POP POP PUSH1 0x20 PUSH2 0x7A8 DUP8 DUP3 DUP9 ADD PUSH2 0x463 JUMP JUMPDEST SWAP4 POP POP PUSH1 0x40 DUP6 ADD CALLDATALOAD PUSH8 0xFFFFFFFFFFFFFFFF DUP2 GT ISZERO PUSH2 0x7C5 JUMPI PUSH1 0x0 DUP1 REVERT JUMPDEST PUSH2 0x7D1 DUP8 DUP3 DUP9 ADD PUSH2 0x4DB JUMP JUMPDEST SWAP3 POP POP PUSH1 0x60 DUP6 ADD CALLDATALOAD PUSH8 0xFFFFFFFFFFFFFFFF DUP2 GT ISZERO PUSH2 0x7EE JUMPI PUSH1 0x0 DUP1 REVERT JUMPDEST PUSH2 0x7FA DUP8 DUP3 DUP9 ADD PUSH2 0x5AD JUMP JUMPDEST SWAP2 POP POP SWAP3 SWAP6 SWAP2 SWAP5 POP SWAP3 POP JUMP JUMPDEST PUSH1 0x0 PUSH2 0x812 DUP4 DUP4 PUSH2 0x991 JUMP JUMPDEST PUSH1 0x20 DUP4 ADD SWAP1 POP SWAP3 SWAP2 POP POP JUMP JUMPDEST PUSH2 0x827 DUP2 PUSH2 0xBA5 JUMP JUMPDEST DUP3 MSTORE POP POP JUMP JUMPDEST PUSH2 0x836 DUP2 PUSH2 0xB21 JUMP JUMPDEST PUSH2 0x840 DUP2 DUP5 PUSH2 0xB67 JUMP JUMPDEST SWAP3 POP PUSH2 0x84B DUP3 PUSH2 0xB07 JUMP JUMPDEST DUP1 PUSH1 0x0 JUMPDEST DUP4 DUP2 LT ISZERO PUSH2 0x87C JUMPI DUP2 MLOAD PUSH2 0x863 DUP8 DUP3 PUSH2 0x806 JUMP JUMPDEST SWAP7 POP PUSH2 0x86E DUP4 PUSH2 0xB4D JUMP JUMPDEST SWAP3 POP POP PUSH1 0x1 DUP2 ADD SWAP1 POP PUSH2 0x84F JUMP JUMPDEST POP POP POP POP POP POP JUMP JUMPDEST PUSH1 0x0 PUSH2 0x88F DUP3 PUSH2 0xB2C JUMP JUMPDEST PUSH2 0x899 DUP2 DUP6 PUSH2 0xB72 JUMP JUMPDEST SWAP4 POP PUSH2 0x8A4 DUP4 PUSH2 0xB11 JUMP JUMPDEST DUP1 PUSH1 0x0 JUMPDEST DUP4 DUP2 LT ISZERO PUSH2 0x8D5 JUMPI DUP2 MLOAD PUSH2 0x8BC DUP9 DUP3 PUSH2 0x806 JUMP JUMPDEST SWAP8 POP PUSH2 0x8C7 DUP4 PUSH2 0xB5A JUMP JUMPDEST SWAP3 POP POP PUSH1 0x1 DUP2 ADD SWAP1 POP PUSH2 0x8A8 JUMP JUMPDEST POP DUP6 SWAP4 POP POP POP POP SWAP3 SWAP2 POP POP JUMP JUMPDEST PUSH1 0x0 PUSH2 0x8ED DUP3 PUSH2 0xB37 JUMP JUMPDEST PUSH2 0x8F7 DUP2 DUP6 PUSH2 0xB83 JUMP JUMPDEST SWAP4 POP PUSH2 0x907 DUP2 DUP6 PUSH1 0x20 DUP7 ADD PUSH2 0xC02 JUMP JUMPDEST PUSH2 0x910 DUP2 PUSH2 0xC64 JUMP JUMPDEST DUP5 ADD SWAP2 POP POP SWAP3 SWAP2 POP POP JUMP JUMPDEST PUSH1 0x0 PUSH2 0x926 DUP3 PUSH2 0xB42 JUMP JUMPDEST PUSH2 0x930 DUP2 DUP6 PUSH2 0xB94 JUMP JUMPDEST SWAP4 POP PUSH2 0x940 DUP2 DUP6 PUSH1 0x20 DUP7 ADD PUSH2 0xC02 JUMP JUMPDEST PUSH2 0x949 DUP2 PUSH2 0xC64 JUMP JUMPDEST DUP5 ADD SWAP2 POP POP SWAP3 SWAP2 POP POP JUMP JUMPDEST PUSH1 0x0 PUSH1 0x60 DUP4 ADD PUSH1 0x0 DUP4 ADD MLOAD DUP5 DUP3 SUB PUSH1 0x0 DUP7 ADD MSTORE PUSH2 0x971 DUP3 DUP3 PUSH2 0x91B JUMP JUMPDEST SWAP2 POP POP PUSH1 0x20 DUP4 ADD MLOAD PUSH2 0x986 PUSH1 0x20 DUP7 ADD DUP3 PUSH2 0x82D JUMP JUMPDEST POP DUP1 SWAP2 POP POP SWAP3 SWAP2 POP POP JUMP JUMPDEST PUSH2 0x99A DUP2 PUSH2 0xBE9 JUMP JUMPDEST DUP3 MSTORE POP POP JUMP JUMPDEST PUSH2 0x9A9 DUP2 PUSH2 0xBE9 JUMP JUMPDEST DUP3 MSTORE POP POP JUMP JUMPDEST PUSH1 0x0 PUSH1 0x20 DUP3 ADD SWAP1 POP DUP2 DUP2 SUB PUSH1 0x0 DUP4 ADD MSTORE PUSH2 0x9C9 DUP2 DUP5 PUSH2 0x8E2 JUMP JUMPDEST SWAP1 POP SWAP3 SWAP2 POP POP JUMP JUMPDEST PUSH1 0x0 PUSH1 0x80 DUP3 ADD SWAP1 POP PUSH2 0x9E6 PUSH1 0x0 DUP4 ADD DUP8 PUSH2 0x9A0 JUMP JUMPDEST PUSH2 0x9F3 PUSH1 0x20 DUP4 ADD DUP7 PUSH2 0x81E JUMP JUMPDEST DUP2 DUP2 SUB PUSH1 0x40 DUP4 ADD MSTORE PUSH2 0xA05 DUP2 DUP6 PUSH2 0x884 JUMP JUMPDEST SWAP1 POP DUP2 DUP2 SUB PUSH1 0x60 DUP4 ADD MSTORE PUSH2 0xA19 DUP2 DUP5 PUSH2 0x954 JUMP JUMPDEST SWAP1 POP SWAP6 SWAP5 POP POP POP POP POP JUMP JUMPDEST PUSH1 0x0 PUSH1 0x40 MLOAD SWAP1 POP DUP2 DUP2 ADD DUP2 DUP2 LT PUSH8 0xFFFFFFFFFFFFFFFF DUP3 GT OR ISZERO PUSH2 0xA4B JUMPI PUSH2 0xA4A PUSH2 0xC35 JUMP JUMPDEST JUMPDEST DUP1 PUSH1 0x40 MSTORE POP SWAP2 SWAP1 POP JUMP JUMPDEST PUSH1 0x0 PUSH8 0xFFFFFFFFFFFFFFFF DUP3 GT ISZERO PUSH2 0xA70 JUMPI PUSH2 0xA6F PUSH2 0xC35 JUMP JUMPDEST JUMPDEST PUSH1 0x20 DUP3 MUL SWAP1 POP SWAP2 SWAP1 POP JUMP JUMPDEST PUSH1 0x0 PUSH8 0xFFFFFFFFFFFFFFFF DUP3 GT ISZERO PUSH2 0xA96 JUMPI PUSH2 0xA95 PUSH2 0xC35 JUMP JUMPDEST JUMPDEST PUSH1 0x20 DUP3 MUL SWAP1 POP PUSH1 0x20 DUP2 ADD SWAP1 POP SWAP2 SWAP1 POP JUMP JUMPDEST PUSH1 0x0 PUSH8 0xFFFFFFFFFFFFFFFF DUP3 GT ISZERO PUSH2 0xAC2 JUMPI PUSH2 0xAC1 PUSH2 0xC35 JUMP JUMPDEST JUMPDEST PUSH1 0x1F NOT PUSH1 0x1F DUP4 ADD AND SWAP1 POP PUSH1 0x20 DUP2 ADD SWAP1 POP SWAP2 SWAP1 POP JUMP JUMPDEST PUSH1 0x0 PUSH8 0xFFFFFFFFFFFFFFFF DUP3 GT ISZERO PUSH2 0xAF2 JUMPI PUSH2 0xAF1 PUSH2 0xC35 JUMP JUMPDEST JUMPDEST PUSH1 0x1F NOT PUSH1 0x1F DUP4 ADD AND SWAP1 POP PUSH1 0x20 DUP2 ADD SWAP1 POP SWAP2 SWAP1 POP JUMP JUMPDEST PUSH1 0x0 DUP2 SWAP1 POP SWAP2 SWAP1 POP JUMP JUMPDEST PUSH1 0x0 DUP2 SWAP1 POP PUSH1 0x20 DUP3 ADD SWAP1 POP SWAP2 SWAP1 POP JUMP JUMPDEST PUSH1 0x0 PUSH1 0x2 SWAP1 POP SWAP2 SWAP1 POP JUMP JUMPDEST PUSH1 0x0 DUP2 MLOAD SWAP1 POP SWAP2 SWAP1 POP JUMP JUMPDEST PUSH1 0x0 DUP2 MLOAD SWAP1 POP SWAP2 SWAP1 POP JUMP JUMPDEST PUSH1 0x0 DUP2 MLOAD SWAP1 POP SWAP2 SWAP1 POP JUMP JUMPDEST PUSH1 0x0 PUSH1 0x20 DUP3 ADD SWAP1 POP SWAP2 SWAP1 POP JUMP JUMPDEST PUSH1 0x0 PUSH1 0x20 DUP3 ADD SWAP1 POP SWAP2 SWAP1 POP JUMP JUMPDEST PUSH1 0x0 DUP2 SWAP1 POP SWAP3 SWAP2 POP POP JUMP JUMPDEST PUSH1 0x0 DUP3 DUP3 MSTORE PUSH1 0x20 DUP3 ADD SWAP1 POP SWAP3 SWAP2 POP POP JUMP JUMPDEST PUSH1 0x0 DUP3 DUP3 MSTORE PUSH1 0x20 DUP3 ADD SWAP1 POP SWAP3 SWAP2 POP POP JUMP JUMPDEST PUSH1 0x0 DUP3 DUP3 MSTORE PUSH1 0x20 DUP3 ADD SWAP1 POP SWAP3 SWAP2 POP POP JUMP JUMPDEST PUSH1 0x0 PUSH2 0xBB0 DUP3 PUSH2 0xBC9 JUMP JUMPDEST SWAP1 POP SWAP2 SWAP1 POP JUMP JUMPDEST PUSH1 0x0 PUSH2 0xBC2 DUP3 PUSH2 0xBC9 JUMP JUMPDEST SWAP1 POP SWAP2 SWAP1 POP JUMP JUMPDEST PUSH1 0x0 PUSH20 0xFFFFFFFFFFFFFFFFFFFFFFFFFFFFFFFFFFFFFFFF DUP3 AND SWAP1 POP SWAP2 SWAP1 POP JUMP JUMPDEST PUSH1 0x0 DUP2 SWAP1 POP SWAP2 SWAP1 POP JUMP JUMPDEST DUP3 DUP2 DUP4 CALLDATACOPY PUSH1 0x0 DUP4 DUP4 ADD MSTORE POP POP POP JUMP JUMPDEST PUSH1 0x0 JUMPDEST DUP4 DUP2 LT ISZERO PUSH2 0xC20 JUMPI DUP1 DUP3 ADD MLOAD DUP2 DUP5 ADD MSTORE PUSH1 0x20 DUP2 ADD SWAP1 POP PUSH2 0xC05 JUMP JUMPDEST DUP4 DUP2 GT ISZERO PUSH2 0xC2F JUMPI PUSH1 0x0 DUP5 DUP5 ADD MSTORE JUMPDEST POP POP POP POP JUMP JUMPDEST PUSH32 0x4E487B7100000000000000000000000000000000000000000000000000000000 PUSH1 0x0 MSTORE PUSH1 0x41 PUSH1 0x4 MSTORE PUSH1 0x24 PUSH1 0x0 REVERT JUMPDEST PUSH1 0x0 PUSH1 0x1F NOT PUSH1 0x1F DUP4 ADD AND SWAP1 POP SWAP2 SWAP1 POP JUMP JUMPDEST PUSH2 0xC7E DUP2 PUSH2 0xBA5 JUMP JUMPDEST DUP2 EQ PUSH2 0xC89 JUMPI PUSH1 0x0 DUP1 REVERT JUMPDEST POP JUMP JUMPDEST PUSH2 0xC95 DUP2 PUSH2 0xBB7 JUMP JUMPDEST DUP2 EQ PUSH2 0xCA0 JUMPI PUSH1 0x0 DUP1 REVERT JUMPDEST POP JUMP JUMPDEST PUSH2 0xCAC DUP2 PUSH2 0xBE9 JUMP JUMPDEST DUP2 EQ PUSH2 0xCB7 JUMPI PUSH1 0x0 DUP1 REVERT JUMPDEST POP JUMP INVALID LOG2 PUSH5 0x6970667358 0x22 SLT KECCAK256 CALLCODE 0xAD 0xBC 0xE6 0xD9 0x4B GASPRICE KECCAK256 SDIV 0xED 0x5E PUSH14 0x2EA5BCE87DD7583A54196F10B1CE 0xDD INVALID PUSH27 0x58CCAF64736F6C6343000800003300000000000000000000000000 "
				},
				"gasEstimates": {
					"creation": {
						"codeDepositCost": "662400",
						"executionCost": "696",
						"totalCost": "663096"
					},
					"external": {
						"decodeData(bytes)": "infinite",
						"encodeData(uint256,address,uint256[],(string,uint256[2]))": "infinite",
						"encodeWithSignature()": "infinite"
					}
				},
				"methodIdentifiers": {
					"decodeData(bytes)": "447a06f5",
					"encodeData(uint256,address,uint256[],(string,uint256[2]))": "985f36f4",
					"encodeWithSignature()": "e4f2a84a"
				}
			},
			"storageLayout": {
				"storage": [],
				"types": null
			},
			"userdoc": {
				"kind": "user",
				"methods": {
					"decodeData(bytes)": {
						"notice": "解码数据"
					},
					"encodeData(uint256,address,uint256[],(string,uint256[2]))": {
						"notice": "编码数据"
					}
				},
				"version": 1
			}
		}
	}
}