{
	"contracts/demo/Ballot.sol": {
		"Ballot": {
			"abi": [
				{
					"inputs": [
						{
							"internalType": "bytes32[]",
							"name": "proposalNames",
							"type": "bytes32[]"
						}
					],
					"stateMutability": "nonpayable",
					"type": "constructor"
				},
				{
					"inputs": [],
					"name": "chairperson",
					"outputs": [
						{
							"internalType": "address",
							"name": "",
							"type": "address"
						}
					],
					"stateMutability": "view",
					"type": "function"
				},
				{
					"inputs": [
						{
							"internalType": "address",
							"name": "to",
							"type": "address"
						}
					],
					"name": "delegate",
					"outputs": [],
					"stateMutability": "nonpayable",
					"type": "function"
				},
				{
					"inputs": [
						{
							"internalType": "address",
							"name": "voter",
							"type": "address"
						}
					],
					"name": "giveRightToVote",
					"outputs": [],
					"stateMutability": "nonpayable",
					"type": "function"
				},
				{
					"inputs": [
						{
							"internalType": "uint256",
							"name": "",
							"type": "uint256"
						}
					],
					"name": "proposals",
					"outputs": [
						{
							"internalType": "bytes32",
							"name": "name",
							"type": "bytes32"
						},
						{
							"internalType": "uint256",
							"name": "voteCount",
							"type": "uint256"
						}
					],
					"stateMutability": "view",
					"type": "function"
				},
				{
					"inputs": [
						{
							"internalType": "uint256",
							"name": "proposal",
							"type": "uint256"
						}
					],
					"name": "vote",
					"outputs": [],
					"stateMutability": "nonpayable",
					"type": "function"
				},
				{
					"inputs": [
						{
							"internalType": "address",
							"name": "",
							"type": "address"
						}
					],
					"name": "voters",
					"outputs": [
						{
							"internalType": "uint256",
							"name": "weight",
							"type": "uint256"
						},
						{
							"internalType": "bool",
							"name": "voted",
							"type": "bool"
						},
						{
							"internalType": "address",
							"name": "delegate",
							"type": "address"
						},
						{
							"internalType": "uint256",
							"name": "vote",
							"type": "uint256"
						}
					],
					"stateMutability": "view",
					"type": "function"
				},
				{
					"inputs": [],
					"name": "winnerName",
					"outputs": [
						{
							"internalType": "bytes32",
							"name": "winnerName_",
							"type": "bytes32"
						}
					],
					"stateMutability": "view",
					"type": "function"
				},
				{
					"inputs": [],
					"name": "winningProposal",
					"outputs": [
						{
							"internalType": "uint256",
							"name": "winningProposal_",
							"type": "uint256"
						}
					],
					"stateMutability": "view",
					"type": "function"
				}
			],
			"devdoc": {
				"author": "zhanghony",
				"details": "vote 加上截至时间  当前，为了把投票权分配给所有参与者，需要执行很多交易。 此外，如果两个或更多的提案有相同的票数， winningProposal() 无法登记平局。",
				"kind": "dev",
				"methods": {
					"winningProposal()": {
						"details": "结合之前所有投票的情况下，计算出获胜的提案。"
					}
				},
				"title": "投票合约",
				"version": 1
			},
			"evm": {
				"assembly": "    /* \"contracts/demo/Ballot.sol\":643:5900  contract Ballot {\r... */\n  mstore(0x40, 0x80)\n    /* \"contracts/demo/Ballot.sol\":1490:2046  constructor(bytes32[] memory proposalNames) {\r... */\n  callvalue\n  dup1\n  iszero\n  tag_1\n  jumpi\n  0x00\n  dup1\n  revert\ntag_1:\n  pop\n  mload(0x40)\n  sub(codesize, bytecodeSize)\n  dup1\n  bytecodeSize\n  dup4\n  codecopy\n  dup2\n  dup2\n  add\n  0x40\n  mstore\n  dup2\n  add\n  swap1\n  tag_2\n  swap2\n  swap1\n  tag_3\n  jump\t// in\ntag_2:\n    /* \"contracts/demo/Ballot.sol\":1559:1569  msg.sender */\n  caller\n    /* \"contracts/demo/Ballot.sol\":1545:1556  chairperson */\n  0x00\n  dup1\n    /* \"contracts/demo/Ballot.sol\":1545:1569  chairperson = msg.sender */\n  0x0100\n  exp\n  dup2\n  sload\n  dup2\n  0xffffffffffffffffffffffffffffffffffffffff\n  mul\n  not\n  and\n  swap1\n  dup4\n  0xffffffffffffffffffffffffffffffffffffffff\n  and\n  mul\n  or\n  swap1\n  sstore\n  pop\n    /* \"contracts/demo/Ballot.sol\":1609:1610  1 */\n  0x01\n    /* \"contracts/demo/Ballot.sol\":1580:1586  voters */\n  dup1\n    /* \"contracts/demo/Ballot.sol\":1580:1599  voters[chairperson] */\n  0x00\n    /* \"contracts/demo/Ballot.sol\":1587:1598  chairperson */\n  dup1\n  0x00\n  swap1\n  sload\n  swap1\n  0x0100\n  exp\n  swap1\n  div\n  0xffffffffffffffffffffffffffffffffffffffff\n  and\n    /* \"contracts/demo/Ballot.sol\":1580:1599  voters[chairperson] */\n  0xffffffffffffffffffffffffffffffffffffffff\n  and\n  0xffffffffffffffffffffffffffffffffffffffff\n  and\n  dup2\n  mstore\n  0x20\n  add\n  swap1\n  dup2\n  mstore\n  0x20\n  add\n  0x00\n  keccak256\n    /* \"contracts/demo/Ballot.sol\":1580:1606  voters[chairperson].weight */\n  0x00\n  add\n    /* \"contracts/demo/Ballot.sol\":1580:1610  voters[chairperson].weight = 1 */\n  dup2\n  swap1\n  sstore\n  pop\n    /* \"contracts/demo/Ballot.sol\":1760:1766  uint i */\n  0x00\n    /* \"contracts/demo/Ballot.sol\":1755:2039  for (uint i = 0; i < proposalNames.length; i++) {\r... */\ntag_6:\n    /* \"contracts/demo/Ballot.sol\":1776:1789  proposalNames */\n  dup2\n    /* \"contracts/demo/Ballot.sol\":1776:1796  proposalNames.length */\n  mload\n    /* \"contracts/demo/Ballot.sol\":1772:1773  i */\n  dup2\n    /* \"contracts/demo/Ballot.sol\":1772:1796  i < proposalNames.length */\n  lt\n    /* \"contracts/demo/Ballot.sol\":1755:2039  for (uint i = 0; i < proposalNames.length; i++) {\r... */\n  iszero\n  tag_7\n  jumpi\n    /* \"contracts/demo/Ballot.sol\":1963:1972  proposals */\n  0x02\n    /* \"contracts/demo/Ballot.sol\":1978:2026  Proposal({name: proposalNames[i], voteCount: 0}) */\n  mload(0x40)\n  dup1\n  0x40\n  add\n  0x40\n  mstore\n  dup1\n    /* \"contracts/demo/Ballot.sol\":1994:2007  proposalNames */\n  dup5\n    /* \"contracts/demo/Ballot.sol\":2008:2009  i */\n  dup5\n    /* \"contracts/demo/Ballot.sol\":1994:2010  proposalNames[i] */\n  dup2\n  mload\n  dup2\n  lt\n  tag_9\n  jumpi\n  mstore(0x00, 0x4e487b7100000000000000000000000000000000000000000000000000000000)\n  mstore(0x04, 0x32)\n  revert(0x00, 0x24)\ntag_9:\n  0x20\n  mul\n  0x20\n  add\n  add\n  mload\n    /* \"contracts/demo/Ballot.sol\":1978:2026  Proposal({name: proposalNames[i], voteCount: 0}) */\n  dup2\n  mstore\n  0x20\n  add\n    /* \"contracts/demo/Ballot.sol\":2023:2024  0 */\n  0x00\n    /* \"contracts/demo/Ballot.sol\":1978:2026  Proposal({name: proposalNames[i], voteCount: 0}) */\n  dup2\n  mstore\n  pop\n    /* \"contracts/demo/Ballot.sol\":1963:2027  proposals.push(Proposal({name: proposalNames[i], voteCount: 0})) */\n  swap1\n  dup1\n  0x01\n  dup2\n  sload\n  add\n  dup1\n  dup3\n  sstore\n  dup1\n  swap2\n  pop\n  pop\n  0x01\n  swap1\n  sub\n  swap1\n  0x00\n  mstore\n  keccak256(0x00, 0x20)\n  swap1\n  0x02\n  mul\n  add\n  0x00\n  swap1\n  swap2\n  swap1\n  swap2\n  swap1\n  swap2\n  pop\n  0x00\n  dup3\n  add\n  mload\n  dup2\n  0x00\n  add\n  sstore\n  0x20\n  dup3\n  add\n  mload\n  dup2\n  0x01\n  add\n  sstore\n  pop\n  pop\n    /* \"contracts/demo/Ballot.sol\":1798:1801  i++ */\n  dup1\n  dup1\n  tag_11\n  swap1\n  tag_12\n  jump\t// in\ntag_11:\n  swap2\n  pop\n  pop\n    /* \"contracts/demo/Ballot.sol\":1755:2039  for (uint i = 0; i < proposalNames.length; i++) {\r... */\n  jump(tag_6)\ntag_7:\n  pop\n    /* \"contracts/demo/Ballot.sol\":1490:2046  constructor(bytes32[] memory proposalNames) {\r... */\n  pop\n    /* \"contracts/demo/Ballot.sol\":643:5900  contract Ballot {\r... */\n  jump(tag_13)\n    /* \"#utility.yul\":24:668   */\ntag_15:\n  0x00\n    /* \"#utility.yul\":156:236   */\n  tag_17\n    /* \"#utility.yul\":171:235   */\n  tag_18\n    /* \"#utility.yul\":228:234   */\n  dup5\n    /* \"#utility.yul\":171:235   */\n  tag_19\n  jump\t// in\ntag_18:\n    /* \"#utility.yul\":156:236   */\n  tag_20\n  jump\t// in\ntag_17:\n    /* \"#utility.yul\":147:236   */\n  swap1\n  pop\n    /* \"#utility.yul\":256:261   */\n  dup1\n    /* \"#utility.yul\":284:290   */\n  dup4\n    /* \"#utility.yul\":277:282   */\n  dup3\n    /* \"#utility.yul\":270:291   */\n  mstore\n    /* \"#utility.yul\":310:314   */\n  0x20\n    /* \"#utility.yul\":303:308   */\n  dup3\n    /* \"#utility.yul\":299:315   */\n  add\n    /* \"#utility.yul\":292:315   */\n  swap1\n  pop\n    /* \"#utility.yul\":335:341   */\n  dup3\n    /* \"#utility.yul\":385:388   */\n  dup6\n    /* \"#utility.yul\":377:381   */\n  0x20\n    /* \"#utility.yul\":369:375   */\n  dup7\n    /* \"#utility.yul\":365:382   */\n  mul\n    /* \"#utility.yul\":360:363   */\n  dup3\n    /* \"#utility.yul\":356:383   */\n  add\n    /* \"#utility.yul\":353:389   */\n  gt\n    /* \"#utility.yul\":350:352   */\n  iszero\n  tag_21\n  jumpi\n    /* \"#utility.yul\":402:403   */\n  0x00\n    /* \"#utility.yul\":399:400   */\n  dup1\n    /* \"#utility.yul\":392:404   */\n  revert\n    /* \"#utility.yul\":350:352   */\ntag_21:\n    /* \"#utility.yul\":430:431   */\n  0x00\n    /* \"#utility.yul\":415:662   */\ntag_22:\n    /* \"#utility.yul\":440:446   */\n  dup6\n    /* \"#utility.yul\":437:438   */\n  dup2\n    /* \"#utility.yul\":434:447   */\n  lt\n    /* \"#utility.yul\":415:662   */\n  iszero\n  tag_24\n  jumpi\n    /* \"#utility.yul\":507:510   */\n  dup2\n    /* \"#utility.yul\":535:583   */\n  tag_25\n    /* \"#utility.yul\":579:582   */\n  dup9\n    /* \"#utility.yul\":567:577   */\n  dup3\n    /* \"#utility.yul\":535:583   */\n  tag_26\n  jump\t// in\ntag_25:\n    /* \"#utility.yul\":530:533   */\n  dup5\n    /* \"#utility.yul\":523:584   */\n  mstore\n    /* \"#utility.yul\":613:617   */\n  0x20\n    /* \"#utility.yul\":608:611   */\n  dup5\n    /* \"#utility.yul\":604:618   */\n  add\n    /* \"#utility.yul\":597:618   */\n  swap4\n  pop\n    /* \"#utility.yul\":647:651   */\n  0x20\n    /* \"#utility.yul\":642:645   */\n  dup4\n    /* \"#utility.yul\":638:652   */\n  add\n    /* \"#utility.yul\":631:652   */\n  swap3\n  pop\n    /* \"#utility.yul\":475:662   */\n  pop\n    /* \"#utility.yul\":462:463   */\n  0x01\n    /* \"#utility.yul\":459:460   */\n  dup2\n    /* \"#utility.yul\":455:464   */\n  add\n    /* \"#utility.yul\":450:464   */\n  swap1\n  pop\n    /* \"#utility.yul\":415:662   */\n  jump(tag_22)\ntag_24:\n    /* \"#utility.yul\":419:433   */\n  pop\n    /* \"#utility.yul\":137:668   */\n  pop\n  pop\n  swap4\n  swap3\n  pop\n  pop\n  pop\n  jump\t// out\n    /* \"#utility.yul\":691:1009   */\ntag_27:\n  0x00\n    /* \"#utility.yul\":822:825   */\n  dup3\n    /* \"#utility.yul\":815:819   */\n  0x1f\n    /* \"#utility.yul\":807:813   */\n  dup4\n    /* \"#utility.yul\":803:820   */\n  add\n    /* \"#utility.yul\":799:826   */\n  slt\n    /* \"#utility.yul\":789:791   */\n  tag_29\n  jumpi\n    /* \"#utility.yul\":840:841   */\n  0x00\n    /* \"#utility.yul\":837:838   */\n  dup1\n    /* \"#utility.yul\":830:842   */\n  revert\n    /* \"#utility.yul\":789:791   */\ntag_29:\n    /* \"#utility.yul\":873:879   */\n  dup2\n    /* \"#utility.yul\":867:880   */\n  mload\n    /* \"#utility.yul\":898:1003   */\n  tag_30\n    /* \"#utility.yul\":999:1002   */\n  dup5\n    /* \"#utility.yul\":991:997   */\n  dup3\n    /* \"#utility.yul\":984:988   */\n  0x20\n    /* \"#utility.yul\":976:982   */\n  dup7\n    /* \"#utility.yul\":972:989   */\n  add\n    /* \"#utility.yul\":898:1003   */\n  tag_15\n  jump\t// in\ntag_30:\n    /* \"#utility.yul\":889:1003   */\n  swap2\n  pop\n    /* \"#utility.yul\":779:1009   */\n  pop\n  swap3\n  swap2\n  pop\n  pop\n  jump\t// out\n    /* \"#utility.yul\":1015:1158   */\ntag_26:\n  0x00\n    /* \"#utility.yul\":1103:1109   */\n  dup2\n    /* \"#utility.yul\":1097:1110   */\n  mload\n    /* \"#utility.yul\":1088:1110   */\n  swap1\n  pop\n    /* \"#utility.yul\":1119:1152   */\n  tag_32\n    /* \"#utility.yul\":1146:1151   */\n  dup2\n    /* \"#utility.yul\":1119:1152   */\n  tag_33\n  jump\t// in\ntag_32:\n    /* \"#utility.yul\":1078:1158   */\n  swap3\n  swap2\n  pop\n  pop\n  jump\t// out\n    /* \"#utility.yul\":1164:1584   */\ntag_3:\n  0x00\n    /* \"#utility.yul\":1308:1310   */\n  0x20\n    /* \"#utility.yul\":1296:1305   */\n  dup3\n    /* \"#utility.yul\":1287:1294   */\n  dup5\n    /* \"#utility.yul\":1283:1306   */\n  sub\n    /* \"#utility.yul\":1279:1311   */\n  slt\n    /* \"#utility.yul\":1276:1278   */\n  iszero\n  tag_35\n  jumpi\n    /* \"#utility.yul\":1324:1325   */\n  0x00\n    /* \"#utility.yul\":1321:1322   */\n  dup1\n    /* \"#utility.yul\":1314:1326   */\n  revert\n    /* \"#utility.yul\":1276:1278   */\ntag_35:\n    /* \"#utility.yul\":1388:1389   */\n  0x00\n    /* \"#utility.yul\":1377:1386   */\n  dup3\n    /* \"#utility.yul\":1373:1390   */\n  add\n    /* \"#utility.yul\":1367:1391   */\n  mload\n    /* \"#utility.yul\":1418:1436   */\n  0xffffffffffffffff\n    /* \"#utility.yul\":1410:1416   */\n  dup2\n    /* \"#utility.yul\":1407:1437   */\n  gt\n    /* \"#utility.yul\":1404:1406   */\n  iszero\n  tag_36\n  jumpi\n    /* \"#utility.yul\":1450:1451   */\n  0x00\n    /* \"#utility.yul\":1447:1448   */\n  dup1\n    /* \"#utility.yul\":1440:1452   */\n  revert\n    /* \"#utility.yul\":1404:1406   */\ntag_36:\n    /* \"#utility.yul\":1478:1567   */\n  tag_37\n    /* \"#utility.yul\":1559:1566   */\n  dup5\n    /* \"#utility.yul\":1550:1556   */\n  dup3\n    /* \"#utility.yul\":1539:1548   */\n  dup6\n    /* \"#utility.yul\":1535:1557   */\n  add\n    /* \"#utility.yul\":1478:1567   */\n  tag_27\n  jump\t// in\ntag_37:\n    /* \"#utility.yul\":1468:1567   */\n  swap2\n  pop\n    /* \"#utility.yul\":1338:1577   */\n  pop\n    /* \"#utility.yul\":1266:1584   */\n  swap3\n  swap2\n  pop\n  pop\n  jump\t// out\n    /* \"#utility.yul\":1590:1873   */\ntag_20:\n  0x00\n    /* \"#utility.yul\":1656:1658   */\n  0x40\n    /* \"#utility.yul\":1650:1659   */\n  mload\n    /* \"#utility.yul\":1640:1659   */\n  swap1\n  pop\n    /* \"#utility.yul\":1698:1702   */\n  dup2\n    /* \"#utility.yul\":1690:1696   */\n  dup2\n    /* \"#utility.yul\":1686:1703   */\n  add\n    /* \"#utility.yul\":1805:1811   */\n  dup2\n    /* \"#utility.yul\":1793:1803   */\n  dup2\n    /* \"#utility.yul\":1790:1812   */\n  lt\n    /* \"#utility.yul\":1769:1787   */\n  0xffffffffffffffff\n    /* \"#utility.yul\":1757:1767   */\n  dup3\n    /* \"#utility.yul\":1754:1788   */\n  gt\n    /* \"#utility.yul\":1751:1813   */\n  or\n    /* \"#utility.yul\":1748:1750   */\n  iszero\n  tag_39\n  jumpi\n    /* \"#utility.yul\":1816:1834   */\n  tag_40\n  tag_41\n  jump\t// in\ntag_40:\n    /* \"#utility.yul\":1748:1750   */\ntag_39:\n    /* \"#utility.yul\":1856:1866   */\n  dup1\n    /* \"#utility.yul\":1852:1854   */\n  0x40\n    /* \"#utility.yul\":1845:1867   */\n  mstore\n    /* \"#utility.yul\":1630:1873   */\n  pop\n  swap2\n  swap1\n  pop\n  jump\t// out\n    /* \"#utility.yul\":1879:2190   */\ntag_19:\n  0x00\n    /* \"#utility.yul\":2046:2064   */\n  0xffffffffffffffff\n    /* \"#utility.yul\":2038:2044   */\n  dup3\n    /* \"#utility.yul\":2035:2065   */\n  gt\n    /* \"#utility.yul\":2032:2034   */\n  iszero\n  tag_43\n  jumpi\n    /* \"#utility.yul\":2068:2086   */\n  tag_44\n  tag_41\n  jump\t// in\ntag_44:\n    /* \"#utility.yul\":2032:2034   */\ntag_43:\n    /* \"#utility.yul\":2118:2122   */\n  0x20\n    /* \"#utility.yul\":2110:2116   */\n  dup3\n    /* \"#utility.yul\":2106:2123   */\n  mul\n    /* \"#utility.yul\":2098:2123   */\n  swap1\n  pop\n    /* \"#utility.yul\":2178:2182   */\n  0x20\n    /* \"#utility.yul\":2172:2176   */\n  dup2\n    /* \"#utility.yul\":2168:2183   */\n  add\n    /* \"#utility.yul\":2160:2183   */\n  swap1\n  pop\n    /* \"#utility.yul\":1961:2190   */\n  swap2\n  swap1\n  pop\n  jump\t// out\n    /* \"#utility.yul\":2196:2273   */\ntag_45:\n  0x00\n    /* \"#utility.yul\":2262:2267   */\n  dup2\n    /* \"#utility.yul\":2251:2267   */\n  swap1\n  pop\n    /* \"#utility.yul\":2241:2273   */\n  swap2\n  swap1\n  pop\n  jump\t// out\n    /* \"#utility.yul\":2279:2356   */\ntag_47:\n  0x00\n    /* \"#utility.yul\":2345:2350   */\n  dup2\n    /* \"#utility.yul\":2334:2350   */\n  swap1\n  pop\n    /* \"#utility.yul\":2324:2356   */\n  swap2\n  swap1\n  pop\n  jump\t// out\n    /* \"#utility.yul\":2362:2595   */\ntag_12:\n  0x00\n    /* \"#utility.yul\":2424:2448   */\n  tag_50\n    /* \"#utility.yul\":2442:2447   */\n  dup3\n    /* \"#utility.yul\":2424:2448   */\n  tag_47\n  jump\t// in\ntag_50:\n    /* \"#utility.yul\":2415:2448   */\n  swap2\n  pop\n    /* \"#utility.yul\":2470:2536   */\n  0xffffffffffffffffffffffffffffffffffffffffffffffffffffffffffffffff\n    /* \"#utility.yul\":2463:2468   */\n  dup3\n    /* \"#utility.yul\":2460:2537   */\n  eq\n    /* \"#utility.yul\":2457:2459   */\n  iszero\n  tag_51\n  jumpi\n    /* \"#utility.yul\":2540:2558   */\n  tag_52\n  tag_53\n  jump\t// in\ntag_52:\n    /* \"#utility.yul\":2457:2459   */\ntag_51:\n    /* \"#utility.yul\":2587:2588   */\n  0x01\n    /* \"#utility.yul\":2580:2585   */\n  dup3\n    /* \"#utility.yul\":2576:2589   */\n  add\n    /* \"#utility.yul\":2569:2589   */\n  swap1\n  pop\n    /* \"#utility.yul\":2405:2595   */\n  swap2\n  swap1\n  pop\n  jump\t// out\n    /* \"#utility.yul\":2601:2781   */\ntag_53:\n    /* \"#utility.yul\":2649:2726   */\n  0x4e487b7100000000000000000000000000000000000000000000000000000000\n    /* \"#utility.yul\":2646:2647   */\n  0x00\n    /* \"#utility.yul\":2639:2727   */\n  mstore\n    /* \"#utility.yul\":2746:2750   */\n  0x11\n    /* \"#utility.yul\":2743:2744   */\n  0x04\n    /* \"#utility.yul\":2736:2751   */\n  mstore\n    /* \"#utility.yul\":2770:2774   */\n  0x24\n    /* \"#utility.yul\":2767:2768   */\n  0x00\n    /* \"#utility.yul\":2760:2775   */\n  revert\n    /* \"#utility.yul\":2787:2967   */\ntag_41:\n    /* \"#utility.yul\":2835:2912   */\n  0x4e487b7100000000000000000000000000000000000000000000000000000000\n    /* \"#utility.yul\":2832:2833   */\n  0x00\n    /* \"#utility.yul\":2825:2913   */\n  mstore\n    /* \"#utility.yul\":2932:2936   */\n  0x41\n    /* \"#utility.yul\":2929:2930   */\n  0x04\n    /* \"#utility.yul\":2922:2937   */\n  mstore\n    /* \"#utility.yul\":2956:2960   */\n  0x24\n    /* \"#utility.yul\":2953:2954   */\n  0x00\n    /* \"#utility.yul\":2946:2961   */\n  revert\n    /* \"#utility.yul\":2973:3095   */\ntag_33:\n    /* \"#utility.yul\":3046:3070   */\n  tag_57\n    /* \"#utility.yul\":3064:3069   */\n  dup2\n    /* \"#utility.yul\":3046:3070   */\n  tag_45\n  jump\t// in\ntag_57:\n    /* \"#utility.yul\":3039:3044   */\n  dup2\n    /* \"#utility.yul\":3036:3071   */\n  eq\n    /* \"#utility.yul\":3026:3028   */\n  tag_58\n  jumpi\n    /* \"#utility.yul\":3085:3086   */\n  0x00\n    /* \"#utility.yul\":3082:3083   */\n  dup1\n    /* \"#utility.yul\":3075:3087   */\n  revert\n    /* \"#utility.yul\":3026:3028   */\ntag_58:\n    /* \"#utility.yul\":3016:3095   */\n  pop\n  jump\t// out\n    /* \"contracts/demo/Ballot.sol\":643:5900  contract Ballot {\r... */\ntag_13:\n  dataSize(sub_0)\n  dup1\n  dataOffset(sub_0)\n  0x00\n  codecopy\n  0x00\n  return\nstop\n\nsub_0: assembly {\n        /* \"contracts/demo/Ballot.sol\":643:5900  contract Ballot {\r... */\n      mstore(0x40, 0x80)\n      callvalue\n      dup1\n      iszero\n      tag_1\n      jumpi\n      0x00\n      dup1\n      revert\n    tag_1:\n      pop\n      jumpi(tag_2, lt(calldatasize, 0x04))\n      shr(0xe0, calldataload(0x00))\n      dup1\n      0x609ff1bd\n      gt\n      tag_11\n      jumpi\n      dup1\n      0x609ff1bd\n      eq\n      tag_7\n      jumpi\n      dup1\n      0x9e7b8d61\n      eq\n      tag_8\n      jumpi\n      dup1\n      0xa3ec138d\n      eq\n      tag_9\n      jumpi\n      dup1\n      0xe2ba53f0\n      eq\n      tag_10\n      jumpi\n      jump(tag_2)\n    tag_11:\n      dup1\n      0x0121b93f\n      eq\n      tag_3\n      jumpi\n      dup1\n      0x013cf08b\n      eq\n      tag_4\n      jumpi\n      dup1\n      0x2e4176cf\n      eq\n      tag_5\n      jumpi\n      dup1\n      0x5c19a95c\n      eq\n      tag_6\n      jumpi\n    tag_2:\n      0x00\n      dup1\n      revert\n        /* \"contracts/demo/Ballot.sol\":4721:5179  function vote(uint proposal) external {\r... */\n    tag_3:\n      tag_12\n      0x04\n      dup1\n      calldatasize\n      sub\n      dup2\n      add\n      swap1\n      tag_13\n      swap2\n      swap1\n      tag_14\n      jump\t// in\n    tag_13:\n      tag_15\n      jump\t// in\n    tag_12:\n      stop\n        /* \"contracts/demo/Ballot.sol\":1367:1394  Proposal[] public proposals */\n    tag_4:\n      tag_16\n      0x04\n      dup1\n      calldatasize\n      sub\n      dup2\n      add\n      swap1\n      tag_17\n      swap2\n      swap1\n      tag_14\n      jump\t// in\n    tag_17:\n      tag_18\n      jump\t// in\n    tag_16:\n      mload(0x40)\n      tag_19\n      swap3\n      swap2\n      swap1\n      tag_20\n      jump\t// in\n    tag_19:\n      mload(0x40)\n      dup1\n      swap2\n      sub\n      swap1\n      return\n        /* \"contracts/demo/Ballot.sol\":1140:1166  address public chairperson */\n    tag_5:\n      tag_21\n      tag_22\n      jump\t// in\n    tag_21:\n      mload(0x40)\n      tag_23\n      swap2\n      swap1\n      tag_24\n      jump\t// in\n    tag_23:\n      mload(0x40)\n      dup1\n      swap2\n      sub\n      swap1\n      return\n        /* \"contracts/demo/Ballot.sol\":2994:4610  function delegate(address to) external {\r... */\n    tag_6:\n      tag_25\n      0x04\n      dup1\n      calldatasize\n      sub\n      dup2\n      add\n      swap1\n      tag_26\n      swap2\n      swap1\n      tag_27\n      jump\t// in\n    tag_26:\n      tag_28\n      jump\t// in\n    tag_25:\n      stop\n        /* \"contracts/demo/Ballot.sol\":5268:5625  function winningProposal() public view returns (uint winningProposal_) {\r... */\n    tag_7:\n      tag_29\n      tag_30\n      jump\t// in\n    tag_29:\n      mload(0x40)\n      tag_31\n      swap2\n      swap1\n      tag_32\n      jump\t// in\n    tag_31:\n      mload(0x40)\n      dup1\n      swap2\n      sub\n      swap1\n      return\n        /* \"contracts/demo/Ballot.sol\":2168:2935  function giveRightToVote(address voter) external {\r... */\n    tag_8:\n      tag_33\n      0x04\n      dup1\n      calldatasize\n      sub\n      dup2\n      add\n      swap1\n      tag_34\n      swap2\n      swap1\n      tag_27\n      jump\t// in\n    tag_34:\n      tag_35\n      jump\t// in\n    tag_33:\n      stop\n        /* \"contracts/demo/Ballot.sol\":1262:1301  mapping(address => Voter) public voters */\n    tag_9:\n      tag_36\n      0x04\n      dup1\n      calldatasize\n      sub\n      dup2\n      add\n      swap1\n      tag_37\n      swap2\n      swap1\n      tag_27\n      jump\t// in\n    tag_37:\n      tag_38\n      jump\t// in\n    tag_36:\n      mload(0x40)\n      tag_39\n      swap5\n      swap4\n      swap3\n      swap2\n      swap1\n      tag_40\n      jump\t// in\n    tag_39:\n      mload(0x40)\n      dup1\n      swap2\n      sub\n      swap1\n      return\n        /* \"contracts/demo/Ballot.sol\":5765:5897  function winnerName() external view returns (bytes32 winnerName_) {\r... */\n    tag_10:\n      tag_41\n      tag_42\n      jump\t// in\n    tag_41:\n      mload(0x40)\n      tag_43\n      swap2\n      swap1\n      tag_44\n      jump\t// in\n    tag_43:\n      mload(0x40)\n      dup1\n      swap2\n      sub\n      swap1\n      return\n        /* \"contracts/demo/Ballot.sol\":4721:5179  function vote(uint proposal) external {\r... */\n    tag_15:\n        /* \"contracts/demo/Ballot.sol\":4770:4790  Voter storage sender */\n      0x00\n        /* \"contracts/demo/Ballot.sol\":4793:4799  voters */\n      0x01\n        /* \"contracts/demo/Ballot.sol\":4793:4811  voters[msg.sender] */\n      0x00\n        /* \"contracts/demo/Ballot.sol\":4800:4810  msg.sender */\n      caller\n        /* \"contracts/demo/Ballot.sol\":4793:4811  voters[msg.sender] */\n      0xffffffffffffffffffffffffffffffffffffffff\n      and\n      0xffffffffffffffffffffffffffffffffffffffff\n      and\n      dup2\n      mstore\n      0x20\n      add\n      swap1\n      dup2\n      mstore\n      0x20\n      add\n      0x00\n      keccak256\n        /* \"contracts/demo/Ballot.sol\":4770:4811  Voter storage sender = voters[msg.sender] */\n      swap1\n      pop\n        /* \"contracts/demo/Ballot.sol\":4847:4848  0 */\n      0x00\n        /* \"contracts/demo/Ballot.sol\":4830:4836  sender */\n      dup2\n        /* \"contracts/demo/Ballot.sol\":4830:4843  sender.weight */\n      0x00\n      add\n      sload\n        /* \"contracts/demo/Ballot.sol\":4830:4848  sender.weight != 0 */\n      eq\n      iszero\n        /* \"contracts/demo/Ballot.sol\":4822:4873  require(sender.weight != 0, \"Has no right to vote\") */\n      tag_46\n      jumpi\n      mload(0x40)\n      0x08c379a000000000000000000000000000000000000000000000000000000000\n      dup2\n      mstore\n      0x04\n      add\n      tag_47\n      swap1\n      tag_48\n      jump\t// in\n    tag_47:\n      mload(0x40)\n      dup1\n      swap2\n      sub\n      swap1\n      revert\n    tag_46:\n        /* \"contracts/demo/Ballot.sol\":4893:4899  sender */\n      dup1\n        /* \"contracts/demo/Ballot.sol\":4893:4905  sender.voted */\n      0x01\n      add\n      0x00\n      swap1\n      sload\n      swap1\n      0x0100\n      exp\n      swap1\n      div\n      0xff\n      and\n        /* \"contracts/demo/Ballot.sol\":4892:4905  !sender.voted */\n      iszero\n        /* \"contracts/demo/Ballot.sol\":4884:4924  require(!sender.voted, \"Already voted.\") */\n      tag_49\n      jumpi\n      mload(0x40)\n      0x08c379a000000000000000000000000000000000000000000000000000000000\n      dup2\n      mstore\n      0x04\n      add\n      tag_50\n      swap1\n      tag_51\n      jump\t// in\n    tag_50:\n      mload(0x40)\n      dup1\n      swap2\n      sub\n      swap1\n      revert\n    tag_49:\n        /* \"contracts/demo/Ballot.sol\":4950:4954  true */\n      0x01\n        /* \"contracts/demo/Ballot.sol\":4935:4941  sender */\n      dup2\n        /* \"contracts/demo/Ballot.sol\":4935:4947  sender.voted */\n      0x01\n      add\n      0x00\n        /* \"contracts/demo/Ballot.sol\":4935:4954  sender.voted = true */\n      0x0100\n      exp\n      dup2\n      sload\n      dup2\n      0xff\n      mul\n      not\n      and\n      swap1\n      dup4\n      iszero\n      iszero\n      mul\n      or\n      swap1\n      sstore\n      pop\n        /* \"contracts/demo/Ballot.sol\":4979:4987  proposal */\n      dup2\n        /* \"contracts/demo/Ballot.sol\":4965:4971  sender */\n      dup2\n        /* \"contracts/demo/Ballot.sol\":4965:4976  sender.vote */\n      0x02\n      add\n        /* \"contracts/demo/Ballot.sol\":4965:4987  sender.vote = proposal */\n      dup2\n      swap1\n      sstore\n      pop\n        /* \"contracts/demo/Ballot.sol\":5158:5164  sender */\n      dup1\n        /* \"contracts/demo/Ballot.sol\":5158:5171  sender.weight */\n      0x00\n      add\n      sload\n        /* \"contracts/demo/Ballot.sol\":5125:5134  proposals */\n      0x02\n        /* \"contracts/demo/Ballot.sol\":5135:5143  proposal */\n      dup4\n        /* \"contracts/demo/Ballot.sol\":5125:5144  proposals[proposal] */\n      dup2\n      sload\n      dup2\n      lt\n      tag_52\n      jumpi\n      mstore(0x00, 0x4e487b7100000000000000000000000000000000000000000000000000000000)\n      mstore(0x04, 0x32)\n      revert(0x00, 0x24)\n    tag_52:\n      swap1\n      0x00\n      mstore\n      keccak256(0x00, 0x20)\n      swap1\n      0x02\n      mul\n      add\n        /* \"contracts/demo/Ballot.sol\":5125:5154  proposals[proposal].voteCount */\n      0x01\n      add\n      0x00\n        /* \"contracts/demo/Ballot.sol\":5125:5171  proposals[proposal].voteCount += sender.weight */\n      dup3\n      dup3\n      sload\n      tag_54\n      swap2\n      swap1\n      tag_55\n      jump\t// in\n    tag_54:\n      swap3\n      pop\n      pop\n      dup2\n      swap1\n      sstore\n      pop\n        /* \"contracts/demo/Ballot.sol\":4721:5179  function vote(uint proposal) external {\r... */\n      pop\n      pop\n      jump\t// out\n        /* \"contracts/demo/Ballot.sol\":1367:1394  Proposal[] public proposals */\n    tag_18:\n      0x02\n      dup2\n      dup2\n      sload\n      dup2\n      lt\n      tag_56\n      jumpi\n      0x00\n      dup1\n      revert\n    tag_56:\n      swap1\n      0x00\n      mstore\n      keccak256(0x00, 0x20)\n      swap1\n      0x02\n      mul\n      add\n      0x00\n      swap2\n      pop\n      swap1\n      pop\n      dup1\n      0x00\n      add\n      sload\n      swap1\n      dup1\n      0x01\n      add\n      sload\n      swap1\n      pop\n      dup3\n      jump\t// out\n        /* \"contracts/demo/Ballot.sol\":1140:1166  address public chairperson */\n    tag_22:\n      0x00\n      dup1\n      sload\n      swap1\n      0x0100\n      exp\n      swap1\n      div\n      0xffffffffffffffffffffffffffffffffffffffff\n      and\n      dup2\n      jump\t// out\n        /* \"contracts/demo/Ballot.sol\":2994:4610  function delegate(address to) external {\r... */\n    tag_28:\n        /* \"contracts/demo/Ballot.sol\":3069:3089  Voter storage sender */\n      0x00\n        /* \"contracts/demo/Ballot.sol\":3092:3098  voters */\n      0x01\n        /* \"contracts/demo/Ballot.sol\":3092:3110  voters[msg.sender] */\n      0x00\n        /* \"contracts/demo/Ballot.sol\":3099:3109  msg.sender */\n      caller\n        /* \"contracts/demo/Ballot.sol\":3092:3110  voters[msg.sender] */\n      0xffffffffffffffffffffffffffffffffffffffff\n      and\n      0xffffffffffffffffffffffffffffffffffffffff\n      and\n      dup2\n      mstore\n      0x20\n      add\n      swap1\n      dup2\n      mstore\n      0x20\n      add\n      0x00\n      keccak256\n        /* \"contracts/demo/Ballot.sol\":3069:3110  Voter storage sender = voters[msg.sender] */\n      swap1\n      pop\n        /* \"contracts/demo/Ballot.sol\":3146:3147  0 */\n      0x00\n        /* \"contracts/demo/Ballot.sol\":3129:3135  sender */\n      dup2\n        /* \"contracts/demo/Ballot.sol\":3129:3142  sender.weight */\n      0x00\n      add\n      sload\n        /* \"contracts/demo/Ballot.sol\":3129:3147  sender.weight != 0 */\n      eq\n      iszero\n        /* \"contracts/demo/Ballot.sol\":3121:3177  require(sender.weight != 0, \"You have no right to vote\") */\n      tag_59\n      jumpi\n      mload(0x40)\n      0x08c379a000000000000000000000000000000000000000000000000000000000\n      dup2\n      mstore\n      0x04\n      add\n      tag_60\n      swap1\n      tag_61\n      jump\t// in\n    tag_60:\n      mload(0x40)\n      dup1\n      swap2\n      sub\n      swap1\n      revert\n    tag_59:\n        /* \"contracts/demo/Ballot.sol\":3197:3203  sender */\n      dup1\n        /* \"contracts/demo/Ballot.sol\":3197:3209  sender.voted */\n      0x01\n      add\n      0x00\n      swap1\n      sload\n      swap1\n      0x0100\n      exp\n      swap1\n      div\n      0xff\n      and\n        /* \"contracts/demo/Ballot.sol\":3196:3209  !sender.voted */\n      iszero\n        /* \"contracts/demo/Ballot.sol\":3188:3232  require(!sender.voted, \"You already voted.\") */\n      tag_62\n      jumpi\n      mload(0x40)\n      0x08c379a000000000000000000000000000000000000000000000000000000000\n      dup2\n      mstore\n      0x04\n      add\n      tag_63\n      swap1\n      tag_64\n      jump\t// in\n    tag_63:\n      mload(0x40)\n      dup1\n      swap2\n      sub\n      swap1\n      revert\n    tag_62:\n        /* \"contracts/demo/Ballot.sol\":3259:3269  msg.sender */\n      caller\n        /* \"contracts/demo/Ballot.sol\":3253:3269  to != msg.sender */\n      0xffffffffffffffffffffffffffffffffffffffff\n      and\n        /* \"contracts/demo/Ballot.sol\":3253:3255  to */\n      dup3\n        /* \"contracts/demo/Ballot.sol\":3253:3269  to != msg.sender */\n      0xffffffffffffffffffffffffffffffffffffffff\n      and\n      eq\n      iszero\n        /* \"contracts/demo/Ballot.sol\":3245:3304  require(to != msg.sender, \"Self-delegation is disallowed.\") */\n      tag_65\n      jumpi\n      mload(0x40)\n      0x08c379a000000000000000000000000000000000000000000000000000000000\n      dup2\n      mstore\n      0x04\n      add\n      tag_66\n      swap1\n      tag_67\n      jump\t// in\n    tag_66:\n      mload(0x40)\n      dup1\n      swap2\n      sub\n      swap1\n      revert\n    tag_65:\n        /* \"contracts/demo/Ballot.sol\":3742:3944  while (voters[to].delegate != address(0)) {\r... */\n    tag_68:\n        /* \"contracts/demo/Ballot.sol\":3780:3781  0 */\n      0x00\n        /* \"contracts/demo/Ballot.sol\":3749:3782  voters[to].delegate != address(0) */\n      0xffffffffffffffffffffffffffffffffffffffff\n      and\n        /* \"contracts/demo/Ballot.sol\":3749:3755  voters */\n      0x01\n        /* \"contracts/demo/Ballot.sol\":3749:3759  voters[to] */\n      0x00\n        /* \"contracts/demo/Ballot.sol\":3756:3758  to */\n      dup5\n        /* \"contracts/demo/Ballot.sol\":3749:3759  voters[to] */\n      0xffffffffffffffffffffffffffffffffffffffff\n      and\n      0xffffffffffffffffffffffffffffffffffffffff\n      and\n      dup2\n      mstore\n      0x20\n      add\n      swap1\n      dup2\n      mstore\n      0x20\n      add\n      0x00\n      keccak256\n        /* \"contracts/demo/Ballot.sol\":3749:3768  voters[to].delegate */\n      0x01\n      add\n      0x01\n      swap1\n      sload\n      swap1\n      0x0100\n      exp\n      swap1\n      div\n      0xffffffffffffffffffffffffffffffffffffffff\n      and\n        /* \"contracts/demo/Ballot.sol\":3749:3782  voters[to].delegate != address(0) */\n      0xffffffffffffffffffffffffffffffffffffffff\n      and\n      eq\n        /* \"contracts/demo/Ballot.sol\":3742:3944  while (voters[to].delegate != address(0)) {\r... */\n      tag_69\n      jumpi\n        /* \"contracts/demo/Ballot.sol\":3804:3810  voters */\n      0x01\n        /* \"contracts/demo/Ballot.sol\":3804:3814  voters[to] */\n      0x00\n        /* \"contracts/demo/Ballot.sol\":3811:3813  to */\n      dup4\n        /* \"contracts/demo/Ballot.sol\":3804:3814  voters[to] */\n      0xffffffffffffffffffffffffffffffffffffffff\n      and\n      0xffffffffffffffffffffffffffffffffffffffff\n      and\n      dup2\n      mstore\n      0x20\n      add\n      swap1\n      dup2\n      mstore\n      0x20\n      add\n      0x00\n      keccak256\n        /* \"contracts/demo/Ballot.sol\":3804:3823  voters[to].delegate */\n      0x01\n      add\n      0x01\n      swap1\n      sload\n      swap1\n      0x0100\n      exp\n      swap1\n      div\n      0xffffffffffffffffffffffffffffffffffffffff\n      and\n        /* \"contracts/demo/Ballot.sol\":3799:3823  to = voters[to].delegate */\n      swap2\n      pop\n        /* \"contracts/demo/Ballot.sol\":3892:3902  msg.sender */\n      caller\n        /* \"contracts/demo/Ballot.sol\":3886:3902  to != msg.sender */\n      0xffffffffffffffffffffffffffffffffffffffff\n      and\n        /* \"contracts/demo/Ballot.sol\":3886:3888  to */\n      dup3\n        /* \"contracts/demo/Ballot.sol\":3886:3902  to != msg.sender */\n      0xffffffffffffffffffffffffffffffffffffffff\n      and\n      eq\n      iszero\n        /* \"contracts/demo/Ballot.sol\":3878:3932  require(to != msg.sender, \"Found loop in delegation.\") */\n      tag_70\n      jumpi\n      mload(0x40)\n      0x08c379a000000000000000000000000000000000000000000000000000000000\n      dup2\n      mstore\n      0x04\n      add\n      tag_71\n      swap1\n      tag_72\n      jump\t// in\n    tag_71:\n      mload(0x40)\n      dup1\n      swap2\n      sub\n      swap1\n      revert\n    tag_70:\n        /* \"contracts/demo/Ballot.sol\":3742:3944  while (voters[to].delegate != address(0)) {\r... */\n      jump(tag_68)\n    tag_69:\n        /* \"contracts/demo/Ballot.sol\":3956:3979  Voter storage delegate_ */\n      0x00\n        /* \"contracts/demo/Ballot.sol\":3982:3988  voters */\n      0x01\n        /* \"contracts/demo/Ballot.sol\":3982:3992  voters[to] */\n      0x00\n        /* \"contracts/demo/Ballot.sol\":3989:3991  to */\n      dup5\n        /* \"contracts/demo/Ballot.sol\":3982:3992  voters[to] */\n      0xffffffffffffffffffffffffffffffffffffffff\n      and\n      0xffffffffffffffffffffffffffffffffffffffff\n      and\n      dup2\n      mstore\n      0x20\n      add\n      swap1\n      dup2\n      mstore\n      0x20\n      add\n      0x00\n      keccak256\n        /* \"contracts/demo/Ballot.sol\":3956:3992  Voter storage delegate_ = voters[to] */\n      swap1\n      pop\n        /* \"contracts/demo/Ballot.sol\":4106:4107  1 */\n      0x01\n        /* \"contracts/demo/Ballot.sol\":4086:4095  delegate_ */\n      dup2\n        /* \"contracts/demo/Ballot.sol\":4086:4102  delegate_.weight */\n      0x00\n      add\n      sload\n        /* \"contracts/demo/Ballot.sol\":4086:4107  delegate_.weight >= 1 */\n      lt\n      iszero\n        /* \"contracts/demo/Ballot.sol\":4078:4108  require(delegate_.weight >= 1) */\n      tag_73\n      jumpi\n      0x00\n      dup1\n      revert\n    tag_73:\n        /* \"contracts/demo/Ballot.sol\":4238:4242  true */\n      0x01\n        /* \"contracts/demo/Ballot.sol\":4223:4229  sender */\n      dup3\n        /* \"contracts/demo/Ballot.sol\":4223:4235  sender.voted */\n      0x01\n      add\n      0x00\n        /* \"contracts/demo/Ballot.sol\":4223:4242  sender.voted = true */\n      0x0100\n      exp\n      dup2\n      sload\n      dup2\n      0xff\n      mul\n      not\n      and\n      swap1\n      dup4\n      iszero\n      iszero\n      mul\n      or\n      swap1\n      sstore\n      pop\n        /* \"contracts/demo/Ballot.sol\":4271:4273  to */\n      dup3\n        /* \"contracts/demo/Ballot.sol\":4253:4259  sender */\n      dup3\n        /* \"contracts/demo/Ballot.sol\":4253:4268  sender.delegate */\n      0x01\n      add\n      0x01\n        /* \"contracts/demo/Ballot.sol\":4253:4273  sender.delegate = to */\n      0x0100\n      exp\n      dup2\n      sload\n      dup2\n      0xffffffffffffffffffffffffffffffffffffffff\n      mul\n      not\n      and\n      swap1\n      dup4\n      0xffffffffffffffffffffffffffffffffffffffff\n      and\n      mul\n      or\n      swap1\n      sstore\n      pop\n        /* \"contracts/demo/Ballot.sol\":4290:4299  delegate_ */\n      dup1\n        /* \"contracts/demo/Ballot.sol\":4290:4305  delegate_.voted */\n      0x01\n      add\n      0x00\n      swap1\n      sload\n      swap1\n      0x0100\n      exp\n      swap1\n      div\n      0xff\n      and\n        /* \"contracts/demo/Ballot.sol\":4286:4603  if (delegate_.voted) {\r... */\n      iszero\n      tag_74\n      jumpi\n        /* \"contracts/demo/Ballot.sol\":4438:4444  sender */\n      dup2\n        /* \"contracts/demo/Ballot.sol\":4438:4451  sender.weight */\n      0x00\n      add\n      sload\n        /* \"contracts/demo/Ballot.sol\":4399:4408  proposals */\n      0x02\n        /* \"contracts/demo/Ballot.sol\":4409:4418  delegate_ */\n      dup3\n        /* \"contracts/demo/Ballot.sol\":4409:4423  delegate_.vote */\n      0x02\n      add\n      sload\n        /* \"contracts/demo/Ballot.sol\":4399:4424  proposals[delegate_.vote] */\n      dup2\n      sload\n      dup2\n      lt\n      tag_75\n      jumpi\n      mstore(0x00, 0x4e487b7100000000000000000000000000000000000000000000000000000000)\n      mstore(0x04, 0x32)\n      revert(0x00, 0x24)\n    tag_75:\n      swap1\n      0x00\n      mstore\n      keccak256(0x00, 0x20)\n      swap1\n      0x02\n      mul\n      add\n        /* \"contracts/demo/Ballot.sol\":4399:4434  proposals[delegate_.vote].voteCount */\n      0x01\n      add\n      0x00\n        /* \"contracts/demo/Ballot.sol\":4399:4451  proposals[delegate_.vote].voteCount += sender.weight */\n      dup3\n      dup3\n      sload\n      tag_77\n      swap2\n      swap1\n      tag_55\n      jump\t// in\n    tag_77:\n      swap3\n      pop\n      pop\n      dup2\n      swap1\n      sstore\n      pop\n        /* \"contracts/demo/Ballot.sol\":4286:4603  if (delegate_.voted) {\r... */\n      jump(tag_78)\n    tag_74:\n        /* \"contracts/demo/Ballot.sol\":4578:4584  sender */\n      dup2\n        /* \"contracts/demo/Ballot.sol\":4578:4591  sender.weight */\n      0x00\n      add\n      sload\n        /* \"contracts/demo/Ballot.sol\":4558:4567  delegate_ */\n      dup2\n        /* \"contracts/demo/Ballot.sol\":4558:4574  delegate_.weight */\n      0x00\n      add\n      0x00\n        /* \"contracts/demo/Ballot.sol\":4558:4591  delegate_.weight += sender.weight */\n      dup3\n      dup3\n      sload\n      tag_79\n      swap2\n      swap1\n      tag_55\n      jump\t// in\n    tag_79:\n      swap3\n      pop\n      pop\n      dup2\n      swap1\n      sstore\n      pop\n        /* \"contracts/demo/Ballot.sol\":4286:4603  if (delegate_.voted) {\r... */\n    tag_78:\n        /* \"contracts/demo/Ballot.sol\":2994:4610  function delegate(address to) external {\r... */\n      pop\n      pop\n      pop\n      jump\t// out\n        /* \"contracts/demo/Ballot.sol\":5268:5625  function winningProposal() public view returns (uint winningProposal_) {\r... */\n    tag_30:\n        /* \"contracts/demo/Ballot.sol\":5316:5337  uint winningProposal_ */\n      0x00\n        /* \"contracts/demo/Ballot.sol\":5350:5371  uint winningVoteCount */\n      dup1\n        /* \"contracts/demo/Ballot.sol\":5374:5375  0 */\n      0x00\n        /* \"contracts/demo/Ballot.sol\":5350:5375  uint winningVoteCount = 0 */\n      swap1\n      pop\n        /* \"contracts/demo/Ballot.sol\":5391:5397  uint p */\n      0x00\n        /* \"contracts/demo/Ballot.sol\":5386:5618  for (uint p = 0; p < proposals.length; p++) {\r... */\n    tag_81:\n        /* \"contracts/demo/Ballot.sol\":5407:5416  proposals */\n      0x02\n        /* \"contracts/demo/Ballot.sol\":5407:5423  proposals.length */\n      dup1\n      sload\n      swap1\n      pop\n        /* \"contracts/demo/Ballot.sol\":5403:5404  p */\n      dup2\n        /* \"contracts/demo/Ballot.sol\":5403:5423  p < proposals.length */\n      lt\n        /* \"contracts/demo/Ballot.sol\":5386:5618  for (uint p = 0; p < proposals.length; p++) {\r... */\n      iszero\n      tag_82\n      jumpi\n        /* \"contracts/demo/Ballot.sol\":5474:5490  winningVoteCount */\n      dup2\n        /* \"contracts/demo/Ballot.sol\":5449:5458  proposals */\n      0x02\n        /* \"contracts/demo/Ballot.sol\":5459:5460  p */\n      dup3\n        /* \"contracts/demo/Ballot.sol\":5449:5461  proposals[p] */\n      dup2\n      sload\n      dup2\n      lt\n      tag_84\n      jumpi\n      mstore(0x00, 0x4e487b7100000000000000000000000000000000000000000000000000000000)\n      mstore(0x04, 0x32)\n      revert(0x00, 0x24)\n    tag_84:\n      swap1\n      0x00\n      mstore\n      keccak256(0x00, 0x20)\n      swap1\n      0x02\n      mul\n      add\n        /* \"contracts/demo/Ballot.sol\":5449:5471  proposals[p].voteCount */\n      0x01\n      add\n      sload\n        /* \"contracts/demo/Ballot.sol\":5449:5490  proposals[p].voteCount > winningVoteCount */\n      gt\n        /* \"contracts/demo/Ballot.sol\":5445:5607  if (proposals[p].voteCount > winningVoteCount) {\r... */\n      iszero\n      tag_86\n      jumpi\n        /* \"contracts/demo/Ballot.sol\":5530:5539  proposals */\n      0x02\n        /* \"contracts/demo/Ballot.sol\":5540:5541  p */\n      dup2\n        /* \"contracts/demo/Ballot.sol\":5530:5542  proposals[p] */\n      dup2\n      sload\n      dup2\n      lt\n      tag_87\n      jumpi\n      mstore(0x00, 0x4e487b7100000000000000000000000000000000000000000000000000000000)\n      mstore(0x04, 0x32)\n      revert(0x00, 0x24)\n    tag_87:\n      swap1\n      0x00\n      mstore\n      keccak256(0x00, 0x20)\n      swap1\n      0x02\n      mul\n      add\n        /* \"contracts/demo/Ballot.sol\":5530:5552  proposals[p].voteCount */\n      0x01\n      add\n      sload\n        /* \"contracts/demo/Ballot.sol\":5511:5552  winningVoteCount = proposals[p].voteCount */\n      swap2\n      pop\n        /* \"contracts/demo/Ballot.sol\":5590:5591  p */\n      dup1\n        /* \"contracts/demo/Ballot.sol\":5571:5591  winningProposal_ = p */\n      swap3\n      pop\n        /* \"contracts/demo/Ballot.sol\":5445:5607  if (proposals[p].voteCount > winningVoteCount) {\r... */\n    tag_86:\n        /* \"contracts/demo/Ballot.sol\":5425:5428  p++ */\n      dup1\n      dup1\n      tag_89\n      swap1\n      tag_90\n      jump\t// in\n    tag_89:\n      swap2\n      pop\n      pop\n        /* \"contracts/demo/Ballot.sol\":5386:5618  for (uint p = 0; p < proposals.length; p++) {\r... */\n      jump(tag_81)\n    tag_82:\n      pop\n        /* \"contracts/demo/Ballot.sol\":5268:5625  function winningProposal() public view returns (uint winningProposal_) {\r... */\n      pop\n      swap1\n      jump\t// out\n        /* \"contracts/demo/Ballot.sol\":2168:2935  function giveRightToVote(address voter) external {\r... */\n    tag_35:\n        /* \"contracts/demo/Ballot.sol\":2700:2711  chairperson */\n      0x00\n      dup1\n      sload\n      swap1\n      0x0100\n      exp\n      swap1\n      div\n      0xffffffffffffffffffffffffffffffffffffffff\n      and\n        /* \"contracts/demo/Ballot.sol\":2686:2711  msg.sender == chairperson */\n      0xffffffffffffffffffffffffffffffffffffffff\n      and\n        /* \"contracts/demo/Ballot.sol\":2686:2696  msg.sender */\n      caller\n        /* \"contracts/demo/Ballot.sol\":2686:2711  msg.sender == chairperson */\n      0xffffffffffffffffffffffffffffffffffffffff\n      and\n      eq\n        /* \"contracts/demo/Ballot.sol\":2664:2779  require(\r... */\n      tag_92\n      jumpi\n      mload(0x40)\n      0x08c379a000000000000000000000000000000000000000000000000000000000\n      dup2\n      mstore\n      0x04\n      add\n      tag_93\n      swap1\n      tag_94\n      jump\t// in\n    tag_93:\n      mload(0x40)\n      dup1\n      swap2\n      sub\n      swap1\n      revert\n    tag_92:\n        /* \"contracts/demo/Ballot.sol\":2799:2805  voters */\n      0x01\n        /* \"contracts/demo/Ballot.sol\":2799:2812  voters[voter] */\n      0x00\n        /* \"contracts/demo/Ballot.sol\":2806:2811  voter */\n      dup3\n        /* \"contracts/demo/Ballot.sol\":2799:2812  voters[voter] */\n      0xffffffffffffffffffffffffffffffffffffffff\n      and\n      0xffffffffffffffffffffffffffffffffffffffff\n      and\n      dup2\n      mstore\n      0x20\n      add\n      swap1\n      dup2\n      mstore\n      0x20\n      add\n      0x00\n      keccak256\n        /* \"contracts/demo/Ballot.sol\":2799:2818  voters[voter].voted */\n      0x01\n      add\n      0x00\n      swap1\n      sload\n      swap1\n      0x0100\n      exp\n      swap1\n      div\n      0xff\n      and\n        /* \"contracts/demo/Ballot.sol\":2798:2818  !voters[voter].voted */\n      iszero\n        /* \"contracts/demo/Ballot.sol\":2790:2847  require(!voters[voter].voted, \"The voter already voted.\") */\n      tag_95\n      jumpi\n      mload(0x40)\n      0x08c379a000000000000000000000000000000000000000000000000000000000\n      dup2\n      mstore\n      0x04\n      add\n      tag_96\n      swap1\n      tag_97\n      jump\t// in\n    tag_96:\n      mload(0x40)\n      dup1\n      swap2\n      sub\n      swap1\n      revert\n    tag_95:\n        /* \"contracts/demo/Ballot.sol\":2890:2891  0 */\n      0x00\n        /* \"contracts/demo/Ballot.sol\":2866:2872  voters */\n      0x01\n        /* \"contracts/demo/Ballot.sol\":2866:2879  voters[voter] */\n      0x00\n        /* \"contracts/demo/Ballot.sol\":2873:2878  voter */\n      dup4\n        /* \"contracts/demo/Ballot.sol\":2866:2879  voters[voter] */\n      0xffffffffffffffffffffffffffffffffffffffff\n      and\n      0xffffffffffffffffffffffffffffffffffffffff\n      and\n      dup2\n      mstore\n      0x20\n      add\n      swap1\n      dup2\n      mstore\n      0x20\n      add\n      0x00\n      keccak256\n        /* \"contracts/demo/Ballot.sol\":2866:2886  voters[voter].weight */\n      0x00\n      add\n      sload\n        /* \"contracts/demo/Ballot.sol\":2866:2891  voters[voter].weight == 0 */\n      eq\n        /* \"contracts/demo/Ballot.sol\":2858:2892  require(voters[voter].weight == 0) */\n      tag_98\n      jumpi\n      0x00\n      dup1\n      revert\n    tag_98:\n        /* \"contracts/demo/Ballot.sol\":2926:2927  1 */\n      0x01\n        /* \"contracts/demo/Ballot.sol\":2903:2909  voters */\n      dup1\n        /* \"contracts/demo/Ballot.sol\":2903:2916  voters[voter] */\n      0x00\n        /* \"contracts/demo/Ballot.sol\":2910:2915  voter */\n      dup4\n        /* \"contracts/demo/Ballot.sol\":2903:2916  voters[voter] */\n      0xffffffffffffffffffffffffffffffffffffffff\n      and\n      0xffffffffffffffffffffffffffffffffffffffff\n      and\n      dup2\n      mstore\n      0x20\n      add\n      swap1\n      dup2\n      mstore\n      0x20\n      add\n      0x00\n      keccak256\n        /* \"contracts/demo/Ballot.sol\":2903:2923  voters[voter].weight */\n      0x00\n      add\n        /* \"contracts/demo/Ballot.sol\":2903:2927  voters[voter].weight = 1 */\n      dup2\n      swap1\n      sstore\n      pop\n        /* \"contracts/demo/Ballot.sol\":2168:2935  function giveRightToVote(address voter) external {\r... */\n      pop\n      jump\t// out\n        /* \"contracts/demo/Ballot.sol\":1262:1301  mapping(address => Voter) public voters */\n    tag_38:\n      mstore(0x20, 0x01)\n      dup1\n      0x00\n      mstore\n      keccak256(0x00, 0x40)\n      0x00\n      swap2\n      pop\n      swap1\n      pop\n      dup1\n      0x00\n      add\n      sload\n      swap1\n      dup1\n      0x01\n      add\n      0x00\n      swap1\n      sload\n      swap1\n      0x0100\n      exp\n      swap1\n      div\n      0xff\n      and\n      swap1\n      dup1\n      0x01\n      add\n      0x01\n      swap1\n      sload\n      swap1\n      0x0100\n      exp\n      swap1\n      div\n      0xffffffffffffffffffffffffffffffffffffffff\n      and\n      swap1\n      dup1\n      0x02\n      add\n      sload\n      swap1\n      pop\n      dup5\n      jump\t// out\n        /* \"contracts/demo/Ballot.sol\":5765:5897  function winnerName() external view returns (bytes32 winnerName_) {\r... */\n    tag_42:\n        /* \"contracts/demo/Ballot.sol\":5810:5829  bytes32 winnerName_ */\n      0x00\n        /* \"contracts/demo/Ballot.sol\":5856:5865  proposals */\n      0x02\n        /* \"contracts/demo/Ballot.sol\":5866:5883  winningProposal() */\n      tag_100\n        /* \"contracts/demo/Ballot.sol\":5866:5881  winningProposal */\n      tag_30\n        /* \"contracts/demo/Ballot.sol\":5866:5883  winningProposal() */\n      jump\t// in\n    tag_100:\n        /* \"contracts/demo/Ballot.sol\":5856:5884  proposals[winningProposal()] */\n      dup2\n      sload\n      dup2\n      lt\n      tag_101\n      jumpi\n      mstore(0x00, 0x4e487b7100000000000000000000000000000000000000000000000000000000)\n      mstore(0x04, 0x32)\n      revert(0x00, 0x24)\n    tag_101:\n      swap1\n      0x00\n      mstore\n      keccak256(0x00, 0x20)\n      swap1\n      0x02\n      mul\n      add\n        /* \"contracts/demo/Ballot.sol\":5856:5889  proposals[winningProposal()].name */\n      0x00\n      add\n      sload\n        /* \"contracts/demo/Ballot.sol\":5842:5889  winnerName_ = proposals[winningProposal()].name */\n      swap1\n      pop\n        /* \"contracts/demo/Ballot.sol\":5765:5897  function winnerName() external view returns (bytes32 winnerName_) {\r... */\n      swap1\n      jump\t// out\n        /* \"#utility.yul\":7:146   */\n    tag_104:\n      0x00\n        /* \"#utility.yul\":91:97   */\n      dup2\n        /* \"#utility.yul\":78:98   */\n      calldataload\n        /* \"#utility.yul\":69:98   */\n      swap1\n      pop\n        /* \"#utility.yul\":107:140   */\n      tag_106\n        /* \"#utility.yul\":134:139   */\n      dup2\n        /* \"#utility.yul\":107:140   */\n      tag_107\n      jump\t// in\n    tag_106:\n        /* \"#utility.yul\":59:146   */\n      swap3\n      swap2\n      pop\n      pop\n      jump\t// out\n        /* \"#utility.yul\":152:291   */\n    tag_108:\n      0x00\n        /* \"#utility.yul\":236:242   */\n      dup2\n        /* \"#utility.yul\":223:243   */\n      calldataload\n        /* \"#utility.yul\":214:243   */\n      swap1\n      pop\n        /* \"#utility.yul\":252:285   */\n      tag_110\n        /* \"#utility.yul\":279:284   */\n      dup2\n        /* \"#utility.yul\":252:285   */\n      tag_111\n      jump\t// in\n    tag_110:\n        /* \"#utility.yul\":204:291   */\n      swap3\n      swap2\n      pop\n      pop\n      jump\t// out\n        /* \"#utility.yul\":297:559   */\n    tag_27:\n      0x00\n        /* \"#utility.yul\":405:407   */\n      0x20\n        /* \"#utility.yul\":393:402   */\n      dup3\n        /* \"#utility.yul\":384:391   */\n      dup5\n        /* \"#utility.yul\":380:403   */\n      sub\n        /* \"#utility.yul\":376:408   */\n      slt\n        /* \"#utility.yul\":373:375   */\n      iszero\n      tag_113\n      jumpi\n        /* \"#utility.yul\":421:422   */\n      0x00\n        /* \"#utility.yul\":418:419   */\n      dup1\n        /* \"#utility.yul\":411:423   */\n      revert\n        /* \"#utility.yul\":373:375   */\n    tag_113:\n        /* \"#utility.yul\":464:465   */\n      0x00\n        /* \"#utility.yul\":489:542   */\n      tag_114\n        /* \"#utility.yul\":534:541   */\n      dup5\n        /* \"#utility.yul\":525:531   */\n      dup3\n        /* \"#utility.yul\":514:523   */\n      dup6\n        /* \"#utility.yul\":510:532   */\n      add\n        /* \"#utility.yul\":489:542   */\n      tag_104\n      jump\t// in\n    tag_114:\n        /* \"#utility.yul\":479:542   */\n      swap2\n      pop\n        /* \"#utility.yul\":435:552   */\n      pop\n        /* \"#utility.yul\":363:559   */\n      swap3\n      swap2\n      pop\n      pop\n      jump\t// out\n        /* \"#utility.yul\":565:827   */\n    tag_14:\n      0x00\n        /* \"#utility.yul\":673:675   */\n      0x20\n        /* \"#utility.yul\":661:670   */\n      dup3\n        /* \"#utility.yul\":652:659   */\n      dup5\n        /* \"#utility.yul\":648:671   */\n      sub\n        /* \"#utility.yul\":644:676   */\n      slt\n        /* \"#utility.yul\":641:643   */\n      iszero\n      tag_116\n      jumpi\n        /* \"#utility.yul\":689:690   */\n      0x00\n        /* \"#utility.yul\":686:687   */\n      dup1\n        /* \"#utility.yul\":679:691   */\n      revert\n        /* \"#utility.yul\":641:643   */\n    tag_116:\n        /* \"#utility.yul\":732:733   */\n      0x00\n        /* \"#utility.yul\":757:810   */\n      tag_117\n        /* \"#utility.yul\":802:809   */\n      dup5\n        /* \"#utility.yul\":793:799   */\n      dup3\n        /* \"#utility.yul\":782:791   */\n      dup6\n        /* \"#utility.yul\":778:800   */\n      add\n        /* \"#utility.yul\":757:810   */\n      tag_108\n      jump\t// in\n    tag_117:\n        /* \"#utility.yul\":747:810   */\n      swap2\n      pop\n        /* \"#utility.yul\":703:820   */\n      pop\n        /* \"#utility.yul\":631:827   */\n      swap3\n      swap2\n      pop\n      pop\n      jump\t// out\n        /* \"#utility.yul\":833:951   */\n    tag_118:\n        /* \"#utility.yul\":920:944   */\n      tag_120\n        /* \"#utility.yul\":938:943   */\n      dup2\n        /* \"#utility.yul\":920:944   */\n      tag_121\n      jump\t// in\n    tag_120:\n        /* \"#utility.yul\":915:918   */\n      dup3\n        /* \"#utility.yul\":908:945   */\n      mstore\n        /* \"#utility.yul\":898:951   */\n      pop\n      pop\n      jump\t// out\n        /* \"#utility.yul\":957:1066   */\n    tag_122:\n        /* \"#utility.yul\":1038:1059   */\n      tag_124\n        /* \"#utility.yul\":1053:1058   */\n      dup2\n        /* \"#utility.yul\":1038:1059   */\n      tag_125\n      jump\t// in\n    tag_124:\n        /* \"#utility.yul\":1033:1036   */\n      dup3\n        /* \"#utility.yul\":1026:1060   */\n      mstore\n        /* \"#utility.yul\":1016:1066   */\n      pop\n      pop\n      jump\t// out\n        /* \"#utility.yul\":1072:1190   */\n    tag_126:\n        /* \"#utility.yul\":1159:1183   */\n      tag_128\n        /* \"#utility.yul\":1177:1182   */\n      dup2\n        /* \"#utility.yul\":1159:1183   */\n      tag_129\n      jump\t// in\n    tag_128:\n        /* \"#utility.yul\":1154:1157   */\n      dup3\n        /* \"#utility.yul\":1147:1184   */\n      mstore\n        /* \"#utility.yul\":1137:1190   */\n      pop\n      pop\n      jump\t// out\n        /* \"#utility.yul\":1196:1514   */\n    tag_130:\n      0x00\n        /* \"#utility.yul\":1359:1426   */\n      tag_132\n        /* \"#utility.yul\":1423:1425   */\n      0x14\n        /* \"#utility.yul\":1418:1421   */\n      dup4\n        /* \"#utility.yul\":1359:1426   */\n      tag_133\n      jump\t// in\n    tag_132:\n        /* \"#utility.yul\":1352:1426   */\n      swap2\n      pop\n        /* \"#utility.yul\":1456:1478   */\n      0x486173206e6f20726967687420746f20766f7465000000000000000000000000\n        /* \"#utility.yul\":1452:1453   */\n      0x00\n        /* \"#utility.yul\":1447:1450   */\n      dup4\n        /* \"#utility.yul\":1443:1454   */\n      add\n        /* \"#utility.yul\":1436:1479   */\n      mstore\n        /* \"#utility.yul\":1505:1507   */\n      0x20\n        /* \"#utility.yul\":1500:1503   */\n      dup3\n        /* \"#utility.yul\":1496:1508   */\n      add\n        /* \"#utility.yul\":1489:1508   */\n      swap1\n      pop\n        /* \"#utility.yul\":1342:1514   */\n      swap2\n      swap1\n      pop\n      jump\t// out\n        /* \"#utility.yul\":1520:1843   */\n    tag_134:\n      0x00\n        /* \"#utility.yul\":1683:1750   */\n      tag_136\n        /* \"#utility.yul\":1747:1749   */\n      0x19\n        /* \"#utility.yul\":1742:1745   */\n      dup4\n        /* \"#utility.yul\":1683:1750   */\n      tag_133\n      jump\t// in\n    tag_136:\n        /* \"#utility.yul\":1676:1750   */\n      swap2\n      pop\n        /* \"#utility.yul\":1780:1807   */\n      0x596f752068617665206e6f20726967687420746f20766f746500000000000000\n        /* \"#utility.yul\":1776:1777   */\n      0x00\n        /* \"#utility.yul\":1771:1774   */\n      dup4\n        /* \"#utility.yul\":1767:1778   */\n      add\n        /* \"#utility.yul\":1760:1808   */\n      mstore\n        /* \"#utility.yul\":1834:1836   */\n      0x20\n        /* \"#utility.yul\":1829:1832   */\n      dup3\n        /* \"#utility.yul\":1825:1837   */\n      add\n        /* \"#utility.yul\":1818:1837   */\n      swap1\n      pop\n        /* \"#utility.yul\":1666:1843   */\n      swap2\n      swap1\n      pop\n      jump\t// out\n        /* \"#utility.yul\":1849:2161   */\n    tag_137:\n      0x00\n        /* \"#utility.yul\":2012:2079   */\n      tag_139\n        /* \"#utility.yul\":2076:2078   */\n      0x0e\n        /* \"#utility.yul\":2071:2074   */\n      dup4\n        /* \"#utility.yul\":2012:2079   */\n      tag_133\n      jump\t// in\n    tag_139:\n        /* \"#utility.yul\":2005:2079   */\n      swap2\n      pop\n        /* \"#utility.yul\":2109:2125   */\n      0x416c726561647920766f7465642e000000000000000000000000000000000000\n        /* \"#utility.yul\":2105:2106   */\n      0x00\n        /* \"#utility.yul\":2100:2103   */\n      dup4\n        /* \"#utility.yul\":2096:2107   */\n      add\n        /* \"#utility.yul\":2089:2126   */\n      mstore\n        /* \"#utility.yul\":2152:2154   */\n      0x20\n        /* \"#utility.yul\":2147:2150   */\n      dup3\n        /* \"#utility.yul\":2143:2155   */\n      add\n        /* \"#utility.yul\":2136:2155   */\n      swap1\n      pop\n        /* \"#utility.yul\":1995:2161   */\n      swap2\n      swap1\n      pop\n      jump\t// out\n        /* \"#utility.yul\":2167:2483   */\n    tag_140:\n      0x00\n        /* \"#utility.yul\":2330:2397   */\n      tag_142\n        /* \"#utility.yul\":2394:2396   */\n      0x12\n        /* \"#utility.yul\":2389:2392   */\n      dup4\n        /* \"#utility.yul\":2330:2397   */\n      tag_133\n      jump\t// in\n    tag_142:\n        /* \"#utility.yul\":2323:2397   */\n      swap2\n      pop\n        /* \"#utility.yul\":2427:2447   */\n      0x596f7520616c726561647920766f7465642e0000000000000000000000000000\n        /* \"#utility.yul\":2423:2424   */\n      0x00\n        /* \"#utility.yul\":2418:2421   */\n      dup4\n        /* \"#utility.yul\":2414:2425   */\n      add\n        /* \"#utility.yul\":2407:2448   */\n      mstore\n        /* \"#utility.yul\":2474:2476   */\n      0x20\n        /* \"#utility.yul\":2469:2472   */\n      dup3\n        /* \"#utility.yul\":2465:2477   */\n      add\n        /* \"#utility.yul\":2458:2477   */\n      swap1\n      pop\n        /* \"#utility.yul\":2313:2483   */\n      swap2\n      swap1\n      pop\n      jump\t// out\n        /* \"#utility.yul\":2489:2861   */\n    tag_143:\n      0x00\n        /* \"#utility.yul\":2652:2719   */\n      tag_145\n        /* \"#utility.yul\":2716:2718   */\n      0x28\n        /* \"#utility.yul\":2711:2714   */\n      dup4\n        /* \"#utility.yul\":2652:2719   */\n      tag_133\n      jump\t// in\n    tag_145:\n        /* \"#utility.yul\":2645:2719   */\n      swap2\n      pop\n        /* \"#utility.yul\":2749:2783   */\n      0x4f6e6c79206368616972706572736f6e2063616e206769766520726967687420\n        /* \"#utility.yul\":2745:2746   */\n      0x00\n        /* \"#utility.yul\":2740:2743   */\n      dup4\n        /* \"#utility.yul\":2736:2747   */\n      add\n        /* \"#utility.yul\":2729:2784   */\n      mstore\n        /* \"#utility.yul\":2815:2825   */\n      0x746f20766f74652e000000000000000000000000000000000000000000000000\n        /* \"#utility.yul\":2810:2812   */\n      0x20\n        /* \"#utility.yul\":2805:2808   */\n      dup4\n        /* \"#utility.yul\":2801:2813   */\n      add\n        /* \"#utility.yul\":2794:2826   */\n      mstore\n        /* \"#utility.yul\":2852:2854   */\n      0x40\n        /* \"#utility.yul\":2847:2850   */\n      dup3\n        /* \"#utility.yul\":2843:2855   */\n      add\n        /* \"#utility.yul\":2836:2855   */\n      swap1\n      pop\n        /* \"#utility.yul\":2635:2861   */\n      swap2\n      swap1\n      pop\n      jump\t// out\n        /* \"#utility.yul\":2867:3190   */\n    tag_146:\n      0x00\n        /* \"#utility.yul\":3030:3097   */\n      tag_148\n        /* \"#utility.yul\":3094:3096   */\n      0x19\n        /* \"#utility.yul\":3089:3092   */\n      dup4\n        /* \"#utility.yul\":3030:3097   */\n      tag_133\n      jump\t// in\n    tag_148:\n        /* \"#utility.yul\":3023:3097   */\n      swap2\n      pop\n        /* \"#utility.yul\":3127:3154   */\n      0x466f756e64206c6f6f7020696e2064656c65676174696f6e2e00000000000000\n        /* \"#utility.yul\":3123:3124   */\n      0x00\n        /* \"#utility.yul\":3118:3121   */\n      dup4\n        /* \"#utility.yul\":3114:3125   */\n      add\n        /* \"#utility.yul\":3107:3155   */\n      mstore\n        /* \"#utility.yul\":3181:3183   */\n      0x20\n        /* \"#utility.yul\":3176:3179   */\n      dup3\n        /* \"#utility.yul\":3172:3184   */\n      add\n        /* \"#utility.yul\":3165:3184   */\n      swap1\n      pop\n        /* \"#utility.yul\":3013:3190   */\n      swap2\n      swap1\n      pop\n      jump\t// out\n        /* \"#utility.yul\":3196:3518   */\n    tag_149:\n      0x00\n        /* \"#utility.yul\":3359:3426   */\n      tag_151\n        /* \"#utility.yul\":3423:3425   */\n      0x18\n        /* \"#utility.yul\":3418:3421   */\n      dup4\n        /* \"#utility.yul\":3359:3426   */\n      tag_133\n      jump\t// in\n    tag_151:\n        /* \"#utility.yul\":3352:3426   */\n      swap2\n      pop\n        /* \"#utility.yul\":3456:3482   */\n      0x54686520766f74657220616c726561647920766f7465642e0000000000000000\n        /* \"#utility.yul\":3452:3453   */\n      0x00\n        /* \"#utility.yul\":3447:3450   */\n      dup4\n        /* \"#utility.yul\":3443:3454   */\n      add\n        /* \"#utility.yul\":3436:3483   */\n      mstore\n        /* \"#utility.yul\":3509:3511   */\n      0x20\n        /* \"#utility.yul\":3504:3507   */\n      dup3\n        /* \"#utility.yul\":3500:3512   */\n      add\n        /* \"#utility.yul\":3493:3512   */\n      swap1\n      pop\n        /* \"#utility.yul\":3342:3518   */\n      swap2\n      swap1\n      pop\n      jump\t// out\n        /* \"#utility.yul\":3524:3852   */\n    tag_152:\n      0x00\n        /* \"#utility.yul\":3687:3754   */\n      tag_154\n        /* \"#utility.yul\":3751:3753   */\n      0x1e\n        /* \"#utility.yul\":3746:3749   */\n      dup4\n        /* \"#utility.yul\":3687:3754   */\n      tag_133\n      jump\t// in\n    tag_154:\n        /* \"#utility.yul\":3680:3754   */\n      swap2\n      pop\n        /* \"#utility.yul\":3784:3816   */\n      0x53656c662d64656c65676174696f6e20697320646973616c6c6f7765642e0000\n        /* \"#utility.yul\":3780:3781   */\n      0x00\n        /* \"#utility.yul\":3775:3778   */\n      dup4\n        /* \"#utility.yul\":3771:3782   */\n      add\n        /* \"#utility.yul\":3764:3817   */\n      mstore\n        /* \"#utility.yul\":3843:3845   */\n      0x20\n        /* \"#utility.yul\":3838:3841   */\n      dup3\n        /* \"#utility.yul\":3834:3846   */\n      add\n        /* \"#utility.yul\":3827:3846   */\n      swap1\n      pop\n        /* \"#utility.yul\":3670:3852   */\n      swap2\n      swap1\n      pop\n      jump\t// out\n        /* \"#utility.yul\":3858:3976   */\n    tag_155:\n        /* \"#utility.yul\":3945:3969   */\n      tag_157\n        /* \"#utility.yul\":3963:3968   */\n      dup2\n        /* \"#utility.yul\":3945:3969   */\n      tag_158\n      jump\t// in\n    tag_157:\n        /* \"#utility.yul\":3940:3943   */\n      dup3\n        /* \"#utility.yul\":3933:3970   */\n      mstore\n        /* \"#utility.yul\":3923:3976   */\n      pop\n      pop\n      jump\t// out\n        /* \"#utility.yul\":3982:4204   */\n    tag_24:\n      0x00\n        /* \"#utility.yul\":4113:4115   */\n      0x20\n        /* \"#utility.yul\":4102:4111   */\n      dup3\n        /* \"#utility.yul\":4098:4116   */\n      add\n        /* \"#utility.yul\":4090:4116   */\n      swap1\n      pop\n        /* \"#utility.yul\":4126:4197   */\n      tag_160\n        /* \"#utility.yul\":4194:4195   */\n      0x00\n        /* \"#utility.yul\":4183:4192   */\n      dup4\n        /* \"#utility.yul\":4179:4196   */\n      add\n        /* \"#utility.yul\":4170:4176   */\n      dup5\n        /* \"#utility.yul\":4126:4197   */\n      tag_118\n      jump\t// in\n    tag_160:\n        /* \"#utility.yul\":4080:4204   */\n      swap3\n      swap2\n      pop\n      pop\n      jump\t// out\n        /* \"#utility.yul\":4210:4432   */\n    tag_44:\n      0x00\n        /* \"#utility.yul\":4341:4343   */\n      0x20\n        /* \"#utility.yul\":4330:4339   */\n      dup3\n        /* \"#utility.yul\":4326:4344   */\n      add\n        /* \"#utility.yul\":4318:4344   */\n      swap1\n      pop\n        /* \"#utility.yul\":4354:4425   */\n      tag_162\n        /* \"#utility.yul\":4422:4423   */\n      0x00\n        /* \"#utility.yul\":4411:4420   */\n      dup4\n        /* \"#utility.yul\":4407:4424   */\n      add\n        /* \"#utility.yul\":4398:4404   */\n      dup5\n        /* \"#utility.yul\":4354:4425   */\n      tag_126\n      jump\t// in\n    tag_162:\n        /* \"#utility.yul\":4308:4432   */\n      swap3\n      swap2\n      pop\n      pop\n      jump\t// out\n        /* \"#utility.yul\":4438:4770   */\n    tag_20:\n      0x00\n        /* \"#utility.yul\":4597:4599   */\n      0x40\n        /* \"#utility.yul\":4586:4595   */\n      dup3\n        /* \"#utility.yul\":4582:4600   */\n      add\n        /* \"#utility.yul\":4574:4600   */\n      swap1\n      pop\n        /* \"#utility.yul\":4610:4681   */\n      tag_164\n        /* \"#utility.yul\":4678:4679   */\n      0x00\n        /* \"#utility.yul\":4667:4676   */\n      dup4\n        /* \"#utility.yul\":4663:4680   */\n      add\n        /* \"#utility.yul\":4654:4660   */\n      dup6\n        /* \"#utility.yul\":4610:4681   */\n      tag_126\n      jump\t// in\n    tag_164:\n        /* \"#utility.yul\":4691:4763   */\n      tag_165\n        /* \"#utility.yul\":4759:4761   */\n      0x20\n        /* \"#utility.yul\":4748:4757   */\n      dup4\n        /* \"#utility.yul\":4744:4762   */\n      add\n        /* \"#utility.yul\":4735:4741   */\n      dup5\n        /* \"#utility.yul\":4691:4763   */\n      tag_155\n      jump\t// in\n    tag_165:\n        /* \"#utility.yul\":4564:4770   */\n      swap4\n      swap3\n      pop\n      pop\n      pop\n      jump\t// out\n        /* \"#utility.yul\":4776:5195   */\n    tag_48:\n      0x00\n        /* \"#utility.yul\":4980:4982   */\n      0x20\n        /* \"#utility.yul\":4969:4978   */\n      dup3\n        /* \"#utility.yul\":4965:4983   */\n      add\n        /* \"#utility.yul\":4957:4983   */\n      swap1\n      pop\n        /* \"#utility.yul\":5029:5038   */\n      dup2\n        /* \"#utility.yul\":5023:5027   */\n      dup2\n        /* \"#utility.yul\":5019:5039   */\n      sub\n        /* \"#utility.yul\":5015:5016   */\n      0x00\n        /* \"#utility.yul\":5004:5013   */\n      dup4\n        /* \"#utility.yul\":5000:5017   */\n      add\n        /* \"#utility.yul\":4993:5040   */\n      mstore\n        /* \"#utility.yul\":5057:5188   */\n      tag_167\n        /* \"#utility.yul\":5183:5187   */\n      dup2\n        /* \"#utility.yul\":5057:5188   */\n      tag_130\n      jump\t// in\n    tag_167:\n        /* \"#utility.yul\":5049:5188   */\n      swap1\n      pop\n        /* \"#utility.yul\":4947:5195   */\n      swap2\n      swap1\n      pop\n      jump\t// out\n        /* \"#utility.yul\":5201:5620   */\n    tag_61:\n      0x00\n        /* \"#utility.yul\":5405:5407   */\n      0x20\n        /* \"#utility.yul\":5394:5403   */\n      dup3\n        /* \"#utility.yul\":5390:5408   */\n      add\n        /* \"#utility.yul\":5382:5408   */\n      swap1\n      pop\n        /* \"#utility.yul\":5454:5463   */\n      dup2\n        /* \"#utility.yul\":5448:5452   */\n      dup2\n        /* \"#utility.yul\":5444:5464   */\n      sub\n        /* \"#utility.yul\":5440:5441   */\n      0x00\n        /* \"#utility.yul\":5429:5438   */\n      dup4\n        /* \"#utility.yul\":5425:5442   */\n      add\n        /* \"#utility.yul\":5418:5465   */\n      mstore\n        /* \"#utility.yul\":5482:5613   */\n      tag_169\n        /* \"#utility.yul\":5608:5612   */\n      dup2\n        /* \"#utility.yul\":5482:5613   */\n      tag_134\n      jump\t// in\n    tag_169:\n        /* \"#utility.yul\":5474:5613   */\n      swap1\n      pop\n        /* \"#utility.yul\":5372:5620   */\n      swap2\n      swap1\n      pop\n      jump\t// out\n        /* \"#utility.yul\":5626:6045   */\n    tag_51:\n      0x00\n        /* \"#utility.yul\":5830:5832   */\n      0x20\n        /* \"#utility.yul\":5819:5828   */\n      dup3\n        /* \"#utility.yul\":5815:5833   */\n      add\n        /* \"#utility.yul\":5807:5833   */\n      swap1\n      pop\n        /* \"#utility.yul\":5879:5888   */\n      dup2\n        /* \"#utility.yul\":5873:5877   */\n      dup2\n        /* \"#utility.yul\":5869:5889   */\n      sub\n        /* \"#utility.yul\":5865:5866   */\n      0x00\n        /* \"#utility.yul\":5854:5863   */\n      dup4\n        /* \"#utility.yul\":5850:5867   */\n      add\n        /* \"#utility.yul\":5843:5890   */\n      mstore\n        /* \"#utility.yul\":5907:6038   */\n      tag_171\n        /* \"#utility.yul\":6033:6037   */\n      dup2\n        /* \"#utility.yul\":5907:6038   */\n      tag_137\n      jump\t// in\n    tag_171:\n        /* \"#utility.yul\":5899:6038   */\n      swap1\n      pop\n        /* \"#utility.yul\":5797:6045   */\n      swap2\n      swap1\n      pop\n      jump\t// out\n        /* \"#utility.yul\":6051:6470   */\n    tag_64:\n      0x00\n        /* \"#utility.yul\":6255:6257   */\n      0x20\n        /* \"#utility.yul\":6244:6253   */\n      dup3\n        /* \"#utility.yul\":6240:6258   */\n      add\n        /* \"#utility.yul\":6232:6258   */\n      swap1\n      pop\n        /* \"#utility.yul\":6304:6313   */\n      dup2\n        /* \"#utility.yul\":6298:6302   */\n      dup2\n        /* \"#utility.yul\":6294:6314   */\n      sub\n        /* \"#utility.yul\":6290:6291   */\n      0x00\n        /* \"#utility.yul\":6279:6288   */\n      dup4\n        /* \"#utility.yul\":6275:6292   */\n      add\n        /* \"#utility.yul\":6268:6315   */\n      mstore\n        /* \"#utility.yul\":6332:6463   */\n      tag_173\n        /* \"#utility.yul\":6458:6462   */\n      dup2\n        /* \"#utility.yul\":6332:6463   */\n      tag_140\n      jump\t// in\n    tag_173:\n        /* \"#utility.yul\":6324:6463   */\n      swap1\n      pop\n        /* \"#utility.yul\":6222:6470   */\n      swap2\n      swap1\n      pop\n      jump\t// out\n        /* \"#utility.yul\":6476:6895   */\n    tag_94:\n      0x00\n        /* \"#utility.yul\":6680:6682   */\n      0x20\n        /* \"#utility.yul\":6669:6678   */\n      dup3\n        /* \"#utility.yul\":6665:6683   */\n      add\n        /* \"#utility.yul\":6657:6683   */\n      swap1\n      pop\n        /* \"#utility.yul\":6729:6738   */\n      dup2\n        /* \"#utility.yul\":6723:6727   */\n      dup2\n        /* \"#utility.yul\":6719:6739   */\n      sub\n        /* \"#utility.yul\":6715:6716   */\n      0x00\n        /* \"#utility.yul\":6704:6713   */\n      dup4\n        /* \"#utility.yul\":6700:6717   */\n      add\n        /* \"#utility.yul\":6693:6740   */\n      mstore\n        /* \"#utility.yul\":6757:6888   */\n      tag_175\n        /* \"#utility.yul\":6883:6887   */\n      dup2\n        /* \"#utility.yul\":6757:6888   */\n      tag_143\n      jump\t// in\n    tag_175:\n        /* \"#utility.yul\":6749:6888   */\n      swap1\n      pop\n        /* \"#utility.yul\":6647:6895   */\n      swap2\n      swap1\n      pop\n      jump\t// out\n        /* \"#utility.yul\":6901:7320   */\n    tag_72:\n      0x00\n        /* \"#utility.yul\":7105:7107   */\n      0x20\n        /* \"#utility.yul\":7094:7103   */\n      dup3\n        /* \"#utility.yul\":7090:7108   */\n      add\n        /* \"#utility.yul\":7082:7108   */\n      swap1\n      pop\n        /* \"#utility.yul\":7154:7163   */\n      dup2\n        /* \"#utility.yul\":7148:7152   */\n      dup2\n        /* \"#utility.yul\":7144:7164   */\n      sub\n        /* \"#utility.yul\":7140:7141   */\n      0x00\n        /* \"#utility.yul\":7129:7138   */\n      dup4\n        /* \"#utility.yul\":7125:7142   */\n      add\n        /* \"#utility.yul\":7118:7165   */\n      mstore\n        /* \"#utility.yul\":7182:7313   */\n      tag_177\n        /* \"#utility.yul\":7308:7312   */\n      dup2\n        /* \"#utility.yul\":7182:7313   */\n      tag_146\n      jump\t// in\n    tag_177:\n        /* \"#utility.yul\":7174:7313   */\n      swap1\n      pop\n        /* \"#utility.yul\":7072:7320   */\n      swap2\n      swap1\n      pop\n      jump\t// out\n        /* \"#utility.yul\":7326:7745   */\n    tag_97:\n      0x00\n        /* \"#utility.yul\":7530:7532   */\n      0x20\n        /* \"#utility.yul\":7519:7528   */\n      dup3\n        /* \"#utility.yul\":7515:7533   */\n      add\n        /* \"#utility.yul\":7507:7533   */\n      swap1\n      pop\n        /* \"#utility.yul\":7579:7588   */\n      dup2\n        /* \"#utility.yul\":7573:7577   */\n      dup2\n        /* \"#utility.yul\":7569:7589   */\n      sub\n        /* \"#utility.yul\":7565:7566   */\n      0x00\n        /* \"#utility.yul\":7554:7563   */\n      dup4\n        /* \"#utility.yul\":7550:7567   */\n      add\n        /* \"#utility.yul\":7543:7590   */\n      mstore\n        /* \"#utility.yul\":7607:7738   */\n      tag_179\n        /* \"#utility.yul\":7733:7737   */\n      dup2\n        /* \"#utility.yul\":7607:7738   */\n      tag_149\n      jump\t// in\n    tag_179:\n        /* \"#utility.yul\":7599:7738   */\n      swap1\n      pop\n        /* \"#utility.yul\":7497:7745   */\n      swap2\n      swap1\n      pop\n      jump\t// out\n        /* \"#utility.yul\":7751:8170   */\n    tag_67:\n      0x00\n        /* \"#utility.yul\":7955:7957   */\n      0x20\n        /* \"#utility.yul\":7944:7953   */\n      dup3\n        /* \"#utility.yul\":7940:7958   */\n      add\n        /* \"#utility.yul\":7932:7958   */\n      swap1\n      pop\n        /* \"#utility.yul\":8004:8013   */\n      dup2\n        /* \"#utility.yul\":7998:8002   */\n      dup2\n        /* \"#utility.yul\":7994:8014   */\n      sub\n        /* \"#utility.yul\":7990:7991   */\n      0x00\n        /* \"#utility.yul\":7979:7988   */\n      dup4\n        /* \"#utility.yul\":7975:7992   */\n      add\n        /* \"#utility.yul\":7968:8015   */\n      mstore\n        /* \"#utility.yul\":8032:8163   */\n      tag_181\n        /* \"#utility.yul\":8158:8162   */\n      dup2\n        /* \"#utility.yul\":8032:8163   */\n      tag_152\n      jump\t// in\n    tag_181:\n        /* \"#utility.yul\":8024:8163   */\n      swap1\n      pop\n        /* \"#utility.yul\":7922:8170   */\n      swap2\n      swap1\n      pop\n      jump\t// out\n        /* \"#utility.yul\":8176:8398   */\n    tag_32:\n      0x00\n        /* \"#utility.yul\":8307:8309   */\n      0x20\n        /* \"#utility.yul\":8296:8305   */\n      dup3\n        /* \"#utility.yul\":8292:8310   */\n      add\n        /* \"#utility.yul\":8284:8310   */\n      swap1\n      pop\n        /* \"#utility.yul\":8320:8391   */\n      tag_183\n        /* \"#utility.yul\":8388:8389   */\n      0x00\n        /* \"#utility.yul\":8377:8386   */\n      dup4\n        /* \"#utility.yul\":8373:8390   */\n      add\n        /* \"#utility.yul\":8364:8370   */\n      dup5\n        /* \"#utility.yul\":8320:8391   */\n      tag_155\n      jump\t// in\n    tag_183:\n        /* \"#utility.yul\":8274:8398   */\n      swap3\n      swap2\n      pop\n      pop\n      jump\t// out\n        /* \"#utility.yul\":8404:8945   */\n    tag_40:\n      0x00\n        /* \"#utility.yul\":8613:8616   */\n      0x80\n        /* \"#utility.yul\":8602:8611   */\n      dup3\n        /* \"#utility.yul\":8598:8617   */\n      add\n        /* \"#utility.yul\":8590:8617   */\n      swap1\n      pop\n        /* \"#utility.yul\":8627:8698   */\n      tag_185\n        /* \"#utility.yul\":8695:8696   */\n      0x00\n        /* \"#utility.yul\":8684:8693   */\n      dup4\n        /* \"#utility.yul\":8680:8697   */\n      add\n        /* \"#utility.yul\":8671:8677   */\n      dup8\n        /* \"#utility.yul\":8627:8698   */\n      tag_155\n      jump\t// in\n    tag_185:\n        /* \"#utility.yul\":8708:8774   */\n      tag_186\n        /* \"#utility.yul\":8770:8772   */\n      0x20\n        /* \"#utility.yul\":8759:8768   */\n      dup4\n        /* \"#utility.yul\":8755:8773   */\n      add\n        /* \"#utility.yul\":8746:8752   */\n      dup7\n        /* \"#utility.yul\":8708:8774   */\n      tag_122\n      jump\t// in\n    tag_186:\n        /* \"#utility.yul\":8784:8856   */\n      tag_187\n        /* \"#utility.yul\":8852:8854   */\n      0x40\n        /* \"#utility.yul\":8841:8850   */\n      dup4\n        /* \"#utility.yul\":8837:8855   */\n      add\n        /* \"#utility.yul\":8828:8834   */\n      dup6\n        /* \"#utility.yul\":8784:8856   */\n      tag_118\n      jump\t// in\n    tag_187:\n        /* \"#utility.yul\":8866:8938   */\n      tag_188\n        /* \"#utility.yul\":8934:8936   */\n      0x60\n        /* \"#utility.yul\":8923:8932   */\n      dup4\n        /* \"#utility.yul\":8919:8937   */\n      add\n        /* \"#utility.yul\":8910:8916   */\n      dup5\n        /* \"#utility.yul\":8866:8938   */\n      tag_155\n      jump\t// in\n    tag_188:\n        /* \"#utility.yul\":8580:8945   */\n      swap6\n      swap5\n      pop\n      pop\n      pop\n      pop\n      pop\n      jump\t// out\n        /* \"#utility.yul\":8951:9120   */\n    tag_133:\n      0x00\n        /* \"#utility.yul\":9069:9075   */\n      dup3\n        /* \"#utility.yul\":9064:9067   */\n      dup3\n        /* \"#utility.yul\":9057:9076   */\n      mstore\n        /* \"#utility.yul\":9109:9113   */\n      0x20\n        /* \"#utility.yul\":9104:9107   */\n      dup3\n        /* \"#utility.yul\":9100:9114   */\n      add\n        /* \"#utility.yul\":9085:9114   */\n      swap1\n      pop\n        /* \"#utility.yul\":9047:9120   */\n      swap3\n      swap2\n      pop\n      pop\n      jump\t// out\n        /* \"#utility.yul\":9126:9431   */\n    tag_55:\n      0x00\n        /* \"#utility.yul\":9185:9205   */\n      tag_191\n        /* \"#utility.yul\":9203:9204   */\n      dup3\n        /* \"#utility.yul\":9185:9205   */\n      tag_158\n      jump\t// in\n    tag_191:\n        /* \"#utility.yul\":9180:9205   */\n      swap2\n      pop\n        /* \"#utility.yul\":9219:9239   */\n      tag_192\n        /* \"#utility.yul\":9237:9238   */\n      dup4\n        /* \"#utility.yul\":9219:9239   */\n      tag_158\n      jump\t// in\n    tag_192:\n        /* \"#utility.yul\":9214:9239   */\n      swap3\n      pop\n        /* \"#utility.yul\":9373:9374   */\n      dup3\n        /* \"#utility.yul\":9305:9371   */\n      0xffffffffffffffffffffffffffffffffffffffffffffffffffffffffffffffff\n        /* \"#utility.yul\":9301:9375   */\n      sub\n        /* \"#utility.yul\":9298:9299   */\n      dup3\n        /* \"#utility.yul\":9295:9376   */\n      gt\n        /* \"#utility.yul\":9292:9294   */\n      iszero\n      tag_193\n      jumpi\n        /* \"#utility.yul\":9379:9397   */\n      tag_194\n      tag_195\n      jump\t// in\n    tag_194:\n        /* \"#utility.yul\":9292:9294   */\n    tag_193:\n        /* \"#utility.yul\":9423:9424   */\n      dup3\n        /* \"#utility.yul\":9420:9421   */\n      dup3\n        /* \"#utility.yul\":9416:9425   */\n      add\n        /* \"#utility.yul\":9409:9425   */\n      swap1\n      pop\n        /* \"#utility.yul\":9170:9431   */\n      swap3\n      swap2\n      pop\n      pop\n      jump\t// out\n        /* \"#utility.yul\":9437:9533   */\n    tag_121:\n      0x00\n        /* \"#utility.yul\":9503:9527   */\n      tag_197\n        /* \"#utility.yul\":9521:9526   */\n      dup3\n        /* \"#utility.yul\":9503:9527   */\n      tag_198\n      jump\t// in\n    tag_197:\n        /* \"#utility.yul\":9492:9527   */\n      swap1\n      pop\n        /* \"#utility.yul\":9482:9533   */\n      swap2\n      swap1\n      pop\n      jump\t// out\n        /* \"#utility.yul\":9539:9629   */\n    tag_125:\n      0x00\n        /* \"#utility.yul\":9616:9621   */\n      dup2\n        /* \"#utility.yul\":9609:9622   */\n      iszero\n        /* \"#utility.yul\":9602:9623   */\n      iszero\n        /* \"#utility.yul\":9591:9623   */\n      swap1\n      pop\n        /* \"#utility.yul\":9581:9629   */\n      swap2\n      swap1\n      pop\n      jump\t// out\n        /* \"#utility.yul\":9635:9712   */\n    tag_129:\n      0x00\n        /* \"#utility.yul\":9701:9706   */\n      dup2\n        /* \"#utility.yul\":9690:9706   */\n      swap1\n      pop\n        /* \"#utility.yul\":9680:9712   */\n      swap2\n      swap1\n      pop\n      jump\t// out\n        /* \"#utility.yul\":9718:9844   */\n    tag_198:\n      0x00\n        /* \"#utility.yul\":9795:9837   */\n      0xffffffffffffffffffffffffffffffffffffffff\n        /* \"#utility.yul\":9788:9793   */\n      dup3\n        /* \"#utility.yul\":9784:9838   */\n      and\n        /* \"#utility.yul\":9773:9838   */\n      swap1\n      pop\n        /* \"#utility.yul\":9763:9844   */\n      swap2\n      swap1\n      pop\n      jump\t// out\n        /* \"#utility.yul\":9850:9927   */\n    tag_158:\n      0x00\n        /* \"#utility.yul\":9916:9921   */\n      dup2\n        /* \"#utility.yul\":9905:9921   */\n      swap1\n      pop\n        /* \"#utility.yul\":9895:9927   */\n      swap2\n      swap1\n      pop\n      jump\t// out\n        /* \"#utility.yul\":9933:10166   */\n    tag_90:\n      0x00\n        /* \"#utility.yul\":9995:10019   */\n      tag_204\n        /* \"#utility.yul\":10013:10018   */\n      dup3\n        /* \"#utility.yul\":9995:10019   */\n      tag_158\n      jump\t// in\n    tag_204:\n        /* \"#utility.yul\":9986:10019   */\n      swap2\n      pop\n        /* \"#utility.yul\":10041:10107   */\n      0xffffffffffffffffffffffffffffffffffffffffffffffffffffffffffffffff\n        /* \"#utility.yul\":10034:10039   */\n      dup3\n        /* \"#utility.yul\":10031:10108   */\n      eq\n        /* \"#utility.yul\":10028:10030   */\n      iszero\n      tag_205\n      jumpi\n        /* \"#utility.yul\":10111:10129   */\n      tag_206\n      tag_195\n      jump\t// in\n    tag_206:\n        /* \"#utility.yul\":10028:10030   */\n    tag_205:\n        /* \"#utility.yul\":10158:10159   */\n      0x01\n        /* \"#utility.yul\":10151:10156   */\n      dup3\n        /* \"#utility.yul\":10147:10160   */\n      add\n        /* \"#utility.yul\":10140:10160   */\n      swap1\n      pop\n        /* \"#utility.yul\":9976:10166   */\n      swap2\n      swap1\n      pop\n      jump\t// out\n        /* \"#utility.yul\":10172:10352   */\n    tag_195:\n        /* \"#utility.yul\":10220:10297   */\n      0x4e487b7100000000000000000000000000000000000000000000000000000000\n        /* \"#utility.yul\":10217:10218   */\n      0x00\n        /* \"#utility.yul\":10210:10298   */\n      mstore\n        /* \"#utility.yul\":10317:10321   */\n      0x11\n        /* \"#utility.yul\":10314:10315   */\n      0x04\n        /* \"#utility.yul\":10307:10322   */\n      mstore\n        /* \"#utility.yul\":10341:10345   */\n      0x24\n        /* \"#utility.yul\":10338:10339   */\n      0x00\n        /* \"#utility.yul\":10331:10346   */\n      revert\n        /* \"#utility.yul\":10358:10480   */\n    tag_107:\n        /* \"#utility.yul\":10431:10455   */\n      tag_209\n        /* \"#utility.yul\":10449:10454   */\n      dup2\n        /* \"#utility.yul\":10431:10455   */\n      tag_121\n      jump\t// in\n    tag_209:\n        /* \"#utility.yul\":10424:10429   */\n      dup2\n        /* \"#utility.yul\":10421:10456   */\n      eq\n        /* \"#utility.yul\":10411:10413   */\n      tag_210\n      jumpi\n        /* \"#utility.yul\":10470:10471   */\n      0x00\n        /* \"#utility.yul\":10467:10468   */\n      dup1\n        /* \"#utility.yul\":10460:10472   */\n      revert\n        /* \"#utility.yul\":10411:10413   */\n    tag_210:\n        /* \"#utility.yul\":10401:10480   */\n      pop\n      jump\t// out\n        /* \"#utility.yul\":10486:10608   */\n    tag_111:\n        /* \"#utility.yul\":10559:10583   */\n      tag_212\n        /* \"#utility.yul\":10577:10582   */\n      dup2\n        /* \"#utility.yul\":10559:10583   */\n      tag_158\n      jump\t// in\n    tag_212:\n        /* \"#utility.yul\":10552:10557   */\n      dup2\n        /* \"#utility.yul\":10549:10584   */\n      eq\n        /* \"#utility.yul\":10539:10541   */\n      tag_213\n      jumpi\n        /* \"#utility.yul\":10598:10599   */\n      0x00\n        /* \"#utility.yul\":10595:10596   */\n      dup1\n        /* \"#utility.yul\":10588:10600   */\n      revert\n        /* \"#utility.yul\":10539:10541   */\n    tag_213:\n        /* \"#utility.yul\":10529:10608   */\n      pop\n      jump\t// out\n\n    auxdata: 0xa26469706673582212205c8b4773d32702528ff535897e7ca492da7c7008f21cd8e5784ac14a08b53ee264736f6c63430008000033\n}\n",
				"bytecode": {
					"linkReferences": {},
					"object": "60806040523480156200001157600080fd5b50604051620014e1380380620014e183398181016040528101906200003791906200025b565b336000806101000a81548173ffffffffffffffffffffffffffffffffffffffff021916908373ffffffffffffffffffffffffffffffffffffffff16021790555060018060008060009054906101000a900473ffffffffffffffffffffffffffffffffffffffff1673ffffffffffffffffffffffffffffffffffffffff1673ffffffffffffffffffffffffffffffffffffffff1681526020019081526020016000206000018190555060005b81518110156200019a576002604051806040016040528084848151811062000133577f4e487b7100000000000000000000000000000000000000000000000000000000600052603260045260246000fd5b6020026020010151815260200160008152509080600181540180825580915050600190039060005260206000209060020201600090919091909150600082015181600001556020820151816001015550508080620001919062000317565b915050620000e2565b5050620003dd565b6000620001b9620001b384620002d4565b620002a0565b90508083825260208201905082856020860282011115620001d957600080fd5b60005b858110156200020d5781620001f2888262000244565b845260208401935060208301925050600181019050620001dc565b5050509392505050565b600082601f8301126200022957600080fd5b81516200023b848260208601620001a2565b91505092915050565b6000815190506200025581620003c3565b92915050565b6000602082840312156200026e57600080fd5b600082015167ffffffffffffffff8111156200028957600080fd5b620002978482850162000217565b91505092915050565b6000604051905081810181811067ffffffffffffffff82111715620002ca57620002c962000394565b5b8060405250919050565b600067ffffffffffffffff821115620002f257620002f162000394565b5b602082029050602081019050919050565b6000819050919050565b6000819050919050565b600062000324826200030d565b91507fffffffffffffffffffffffffffffffffffffffffffffffffffffffffffffffff8214156200035a576200035962000365565b5b600182019050919050565b7f4e487b7100000000000000000000000000000000000000000000000000000000600052601160045260246000fd5b7f4e487b7100000000000000000000000000000000000000000000000000000000600052604160045260246000fd5b620003ce8162000303565b8114620003da57600080fd5b50565b6110f480620003ed6000396000f3fe608060405234801561001057600080fd5b50600436106100885760003560e01c8063609ff1bd1161005b578063609ff1bd146101145780639e7b8d6114610132578063a3ec138d1461014e578063e2ba53f01461018157610088565b80630121b93f1461008d578063013cf08b146100a95780632e4176cf146100da5780635c19a95c146100f8575b600080fd5b6100a760048036038101906100a29190610b15565b61019f565b005b6100c360048036038101906100be9190610b15565b61030c565b6040516100d1929190610dd6565b60405180910390f35b6100e2610340565b6040516100ef9190610da0565b60405180910390f35b610112600480360381019061010d9190610aec565b610364565b005b61011c610780565b6040516101299190610eff565b60405180910390f35b61014c60048036038101906101479190610aec565b610854565b005b61016860048036038101906101639190610aec565b610a0b565b6040516101789493929190610f1a565b60405180910390f35b610189610a68565b6040516101969190610dbb565b60405180910390f35b6000600160003373ffffffffffffffffffffffffffffffffffffffff1673ffffffffffffffffffffffffffffffffffffffff168152602001908152602001600020905060008160000154141561022a576040517f08c379a000000000000000000000000000000000000000000000000000000000815260040161022190610dff565b60405180910390fd5b8060010160009054906101000a900460ff161561027c576040517f08c379a000000000000000000000000000000000000000000000000000000000815260040161027390610e3f565b60405180910390fd5b60018160010160006101000a81548160ff0219169083151502179055508181600201819055508060000154600283815481106102e1577f4e487b7100000000000000000000000000000000000000000000000000000000600052603260045260246000fd5b906000526020600020906002020160010160008282546103019190610f70565b925050819055505050565b6002818154811061031c57600080fd5b90600052602060002090600202016000915090508060000154908060010154905082565b60008054906101000a900473ffffffffffffffffffffffffffffffffffffffff1681565b6000600160003373ffffffffffffffffffffffffffffffffffffffff1673ffffffffffffffffffffffffffffffffffffffff16815260200190815260200160002090506000816000015414156103ef576040517f08c379a00000000000000000000000000000000000000000000000000000000081526004016103e690610e1f565b60405180910390fd5b8060010160009054906101000a900460ff1615610441576040517f08c379a000000000000000000000000000000000000000000000000000000000815260040161043890610e5f565b60405180910390fd5b3373ffffffffffffffffffffffffffffffffffffffff168273ffffffffffffffffffffffffffffffffffffffff1614156104b0576040517f08c379a00000000000000000000000000000000000000000000000000000000081526004016104a790610edf565b60405180910390fd5b5b600073ffffffffffffffffffffffffffffffffffffffff16600160008473ffffffffffffffffffffffffffffffffffffffff1673ffffffffffffffffffffffffffffffffffffffff16815260200190815260200160002060010160019054906101000a900473ffffffffffffffffffffffffffffffffffffffff1673ffffffffffffffffffffffffffffffffffffffff161461062057600160008373ffffffffffffffffffffffffffffffffffffffff1673ffffffffffffffffffffffffffffffffffffffff16815260200190815260200160002060010160019054906101000a900473ffffffffffffffffffffffffffffffffffffffff1691503373ffffffffffffffffffffffffffffffffffffffff168273ffffffffffffffffffffffffffffffffffffffff16141561061b576040517f08c379a000000000000000000000000000000000000000000000000000000000815260040161061290610e9f565b60405180910390fd5b6104b1565b6000600160008473ffffffffffffffffffffffffffffffffffffffff1673ffffffffffffffffffffffffffffffffffffffff168152602001908152602001600020905060018160000154101561067557600080fd5b60018260010160006101000a81548160ff021916908315150217905550828260010160016101000a81548173ffffffffffffffffffffffffffffffffffffffff021916908373ffffffffffffffffffffffffffffffffffffffff1602179055508060010160009054906101000a900460ff161561075b578160000154600282600201548154811061072f577f4e487b7100000000000000000000000000000000000000000000000000000000600052603260045260246000fd5b9060005260206000209060020201600101600082825461074f9190610f70565b9250508190555061077b565b81600001548160000160008282546107739190610f70565b925050819055505b505050565b6000806000905060005b60028054905081101561084f5781600282815481106107d2577f4e487b7100000000000000000000000000000000000000000000000000000000600052603260045260246000fd5b906000526020600020906002020160010154111561083c5760028181548110610824577f4e487b7100000000000000000000000000000000000000000000000000000000600052603260045260246000fd5b90600052602060002090600202016001015491508092505b808061084790611018565b91505061078a565b505090565b60008054906101000a900473ffffffffffffffffffffffffffffffffffffffff1673ffffffffffffffffffffffffffffffffffffffff163373ffffffffffffffffffffffffffffffffffffffff16146108e2576040517f08c379a00000000000000000000000000000000000000000000000000000000081526004016108d990610e7f565b60405180910390fd5b600160008273ffffffffffffffffffffffffffffffffffffffff1673ffffffffffffffffffffffffffffffffffffffff16815260200190815260200160002060010160009054906101000a900460ff1615610972576040517f08c379a000000000000000000000000000000000000000000000000000000000815260040161096990610ebf565b60405180910390fd5b6000600160008373ffffffffffffffffffffffffffffffffffffffff1673ffffffffffffffffffffffffffffffffffffffff16815260200190815260200160002060000154146109c157600080fd5b60018060008373ffffffffffffffffffffffffffffffffffffffff1673ffffffffffffffffffffffffffffffffffffffff1681526020019081526020016000206000018190555050565b60016020528060005260406000206000915090508060000154908060010160009054906101000a900460ff16908060010160019054906101000a900473ffffffffffffffffffffffffffffffffffffffff16908060020154905084565b60006002610a74610780565b81548110610aab577f4e487b7100000000000000000000000000000000000000000000000000000000600052603260045260246000fd5b906000526020600020906002020160000154905090565b600081359050610ad181611090565b92915050565b600081359050610ae6816110a7565b92915050565b600060208284031215610afe57600080fd5b6000610b0c84828501610ac2565b91505092915050565b600060208284031215610b2757600080fd5b6000610b3584828501610ad7565b91505092915050565b610b4781610fc6565b82525050565b610b5681610fd8565b82525050565b610b6581610fe4565b82525050565b6000610b78601483610f5f565b91507f486173206e6f20726967687420746f20766f74650000000000000000000000006000830152602082019050919050565b6000610bb8601983610f5f565b91507f596f752068617665206e6f20726967687420746f20766f7465000000000000006000830152602082019050919050565b6000610bf8600e83610f5f565b91507f416c726561647920766f7465642e0000000000000000000000000000000000006000830152602082019050919050565b6000610c38601283610f5f565b91507f596f7520616c726561647920766f7465642e00000000000000000000000000006000830152602082019050919050565b6000610c78602883610f5f565b91507f4f6e6c79206368616972706572736f6e2063616e20676976652072696768742060008301527f746f20766f74652e0000000000000000000000000000000000000000000000006020830152604082019050919050565b6000610cde601983610f5f565b91507f466f756e64206c6f6f7020696e2064656c65676174696f6e2e000000000000006000830152602082019050919050565b6000610d1e601883610f5f565b91507f54686520766f74657220616c726561647920766f7465642e00000000000000006000830152602082019050919050565b6000610d5e601e83610f5f565b91507f53656c662d64656c65676174696f6e20697320646973616c6c6f7765642e00006000830152602082019050919050565b610d9a8161100e565b82525050565b6000602082019050610db56000830184610b3e565b92915050565b6000602082019050610dd06000830184610b5c565b92915050565b6000604082019050610deb6000830185610b5c565b610df86020830184610d91565b9392505050565b60006020820190508181036000830152610e1881610b6b565b9050919050565b60006020820190508181036000830152610e3881610bab565b9050919050565b60006020820190508181036000830152610e5881610beb565b9050919050565b60006020820190508181036000830152610e7881610c2b565b9050919050565b60006020820190508181036000830152610e9881610c6b565b9050919050565b60006020820190508181036000830152610eb881610cd1565b9050919050565b60006020820190508181036000830152610ed881610d11565b9050919050565b60006020820190508181036000830152610ef881610d51565b9050919050565b6000602082019050610f146000830184610d91565b92915050565b6000608082019050610f2f6000830187610d91565b610f3c6020830186610b4d565b610f496040830185610b3e565b610f566060830184610d91565b95945050505050565b600082825260208201905092915050565b6000610f7b8261100e565b9150610f868361100e565b9250827fffffffffffffffffffffffffffffffffffffffffffffffffffffffffffffffff03821115610fbb57610fba611061565b5b828201905092915050565b6000610fd182610fee565b9050919050565b60008115159050919050565b6000819050919050565b600073ffffffffffffffffffffffffffffffffffffffff82169050919050565b6000819050919050565b60006110238261100e565b91507fffffffffffffffffffffffffffffffffffffffffffffffffffffffffffffffff82141561105657611055611061565b5b600182019050919050565b7f4e487b7100000000000000000000000000000000000000000000000000000000600052601160045260246000fd5b61109981610fc6565b81146110a457600080fd5b50565b6110b08161100e565b81146110bb57600080fd5b5056fea26469706673582212205c8b4773d32702528ff535897e7ca492da7c7008f21cd8e5784ac14a08b53ee264736f6c63430008000033",
					"opcodes": "PUSH1 0x80 PUSH1 0x40 MSTORE CALLVALUE DUP1 ISZERO PUSH3 0x11 JUMPI PUSH1 0x0 DUP1 REVERT JUMPDEST POP PUSH1 0x40 MLOAD PUSH3 0x14E1 CODESIZE SUB DUP1 PUSH3 0x14E1 DUP4 CODECOPY DUP2 DUP2 ADD PUSH1 0x40 MSTORE DUP2 ADD SWAP1 PUSH3 0x37 SWAP2 SWAP1 PUSH3 0x25B JUMP JUMPDEST CALLER PUSH1 0x0 DUP1 PUSH2 0x100 EXP DUP2 SLOAD DUP2 PUSH20 0xFFFFFFFFFFFFFFFFFFFFFFFFFFFFFFFFFFFFFFFF MUL NOT AND SWAP1 DUP4 PUSH20 0xFFFFFFFFFFFFFFFFFFFFFFFFFFFFFFFFFFFFFFFF AND MUL OR SWAP1 SSTORE POP PUSH1 0x1 DUP1 PUSH1 0x0 DUP1 PUSH1 0x0 SWAP1 SLOAD SWAP1 PUSH2 0x100 EXP SWAP1 DIV PUSH20 0xFFFFFFFFFFFFFFFFFFFFFFFFFFFFFFFFFFFFFFFF AND PUSH20 0xFFFFFFFFFFFFFFFFFFFFFFFFFFFFFFFFFFFFFFFF AND PUSH20 0xFFFFFFFFFFFFFFFFFFFFFFFFFFFFFFFFFFFFFFFF AND DUP2 MSTORE PUSH1 0x20 ADD SWAP1 DUP2 MSTORE PUSH1 0x20 ADD PUSH1 0x0 KECCAK256 PUSH1 0x0 ADD DUP2 SWAP1 SSTORE POP PUSH1 0x0 JUMPDEST DUP2 MLOAD DUP2 LT ISZERO PUSH3 0x19A JUMPI PUSH1 0x2 PUSH1 0x40 MLOAD DUP1 PUSH1 0x40 ADD PUSH1 0x40 MSTORE DUP1 DUP5 DUP5 DUP2 MLOAD DUP2 LT PUSH3 0x133 JUMPI PUSH32 0x4E487B7100000000000000000000000000000000000000000000000000000000 PUSH1 0x0 MSTORE PUSH1 0x32 PUSH1 0x4 MSTORE PUSH1 0x24 PUSH1 0x0 REVERT JUMPDEST PUSH1 0x20 MUL PUSH1 0x20 ADD ADD MLOAD DUP2 MSTORE PUSH1 0x20 ADD PUSH1 0x0 DUP2 MSTORE POP SWAP1 DUP1 PUSH1 0x1 DUP2 SLOAD ADD DUP1 DUP3 SSTORE DUP1 SWAP2 POP POP PUSH1 0x1 SWAP1 SUB SWAP1 PUSH1 0x0 MSTORE PUSH1 0x20 PUSH1 0x0 KECCAK256 SWAP1 PUSH1 0x2 MUL ADD PUSH1 0x0 SWAP1 SWAP2 SWAP1 SWAP2 SWAP1 SWAP2 POP PUSH1 0x0 DUP3 ADD MLOAD DUP2 PUSH1 0x0 ADD SSTORE PUSH1 0x20 DUP3 ADD MLOAD DUP2 PUSH1 0x1 ADD SSTORE POP POP DUP1 DUP1 PUSH3 0x191 SWAP1 PUSH3 0x317 JUMP JUMPDEST SWAP2 POP POP PUSH3 0xE2 JUMP JUMPDEST POP POP PUSH3 0x3DD JUMP JUMPDEST PUSH1 0x0 PUSH3 0x1B9 PUSH3 0x1B3 DUP5 PUSH3 0x2D4 JUMP JUMPDEST PUSH3 0x2A0 JUMP JUMPDEST SWAP1 POP DUP1 DUP4 DUP3 MSTORE PUSH1 0x20 DUP3 ADD SWAP1 POP DUP3 DUP6 PUSH1 0x20 DUP7 MUL DUP3 ADD GT ISZERO PUSH3 0x1D9 JUMPI PUSH1 0x0 DUP1 REVERT JUMPDEST PUSH1 0x0 JUMPDEST DUP6 DUP2 LT ISZERO PUSH3 0x20D JUMPI DUP2 PUSH3 0x1F2 DUP9 DUP3 PUSH3 0x244 JUMP JUMPDEST DUP5 MSTORE PUSH1 0x20 DUP5 ADD SWAP4 POP PUSH1 0x20 DUP4 ADD SWAP3 POP POP PUSH1 0x1 DUP2 ADD SWAP1 POP PUSH3 0x1DC JUMP JUMPDEST POP POP POP SWAP4 SWAP3 POP POP POP JUMP JUMPDEST PUSH1 0x0 DUP3 PUSH1 0x1F DUP4 ADD SLT PUSH3 0x229 JUMPI PUSH1 0x0 DUP1 REVERT JUMPDEST DUP2 MLOAD PUSH3 0x23B DUP5 DUP3 PUSH1 0x20 DUP7 ADD PUSH3 0x1A2 JUMP JUMPDEST SWAP2 POP POP SWAP3 SWAP2 POP POP JUMP JUMPDEST PUSH1 0x0 DUP2 MLOAD SWAP1 POP PUSH3 0x255 DUP2 PUSH3 0x3C3 JUMP JUMPDEST SWAP3 SWAP2 POP POP JUMP JUMPDEST PUSH1 0x0 PUSH1 0x20 DUP3 DUP5 SUB SLT ISZERO PUSH3 0x26E JUMPI PUSH1 0x0 DUP1 REVERT JUMPDEST PUSH1 0x0 DUP3 ADD MLOAD PUSH8 0xFFFFFFFFFFFFFFFF DUP2 GT ISZERO PUSH3 0x289 JUMPI PUSH1 0x0 DUP1 REVERT JUMPDEST PUSH3 0x297 DUP5 DUP3 DUP6 ADD PUSH3 0x217 JUMP JUMPDEST SWAP2 POP POP SWAP3 SWAP2 POP POP JUMP JUMPDEST PUSH1 0x0 PUSH1 0x40 MLOAD SWAP1 POP DUP2 DUP2 ADD DUP2 DUP2 LT PUSH8 0xFFFFFFFFFFFFFFFF DUP3 GT OR ISZERO PUSH3 0x2CA JUMPI PUSH3 0x2C9 PUSH3 0x394 JUMP JUMPDEST JUMPDEST DUP1 PUSH1 0x40 MSTORE POP SWAP2 SWAP1 POP JUMP JUMPDEST PUSH1 0x0 PUSH8 0xFFFFFFFFFFFFFFFF DUP3 GT ISZERO PUSH3 0x2F2 JUMPI PUSH3 0x2F1 PUSH3 0x394 JUMP JUMPDEST JUMPDEST PUSH1 0x20 DUP3 MUL SWAP1 POP PUSH1 0x20 DUP2 ADD SWAP1 POP SWAP2 SWAP1 POP JUMP JUMPDEST PUSH1 0x0 DUP2 SWAP1 POP SWAP2 SWAP1 POP JUMP JUMPDEST PUSH1 0x0 DUP2 SWAP1 POP SWAP2 SWAP1 POP JUMP JUMPDEST PUSH1 0x0 PUSH3 0x324 DUP3 PUSH3 0x30D JUMP JUMPDEST SWAP2 POP PUSH32 0xFFFFFFFFFFFFFFFFFFFFFFFFFFFFFFFFFFFFFFFFFFFFFFFFFFFFFFFFFFFFFFFF DUP3 EQ ISZERO PUSH3 0x35A JUMPI PUSH3 0x359 PUSH3 0x365 JUMP JUMPDEST JUMPDEST PUSH1 0x1 DUP3 ADD SWAP1 POP SWAP2 SWAP1 POP JUMP JUMPDEST PUSH32 0x4E487B7100000000000000000000000000000000000000000000000000000000 PUSH1 0x0 MSTORE PUSH1 0x11 PUSH1 0x4 MSTORE PUSH1 0x24 PUSH1 0x0 REVERT JUMPDEST PUSH32 0x4E487B7100000000000000000000000000000000000000000000000000000000 PUSH1 0x0 MSTORE PUSH1 0x41 PUSH1 0x4 MSTORE PUSH1 0x24 PUSH1 0x0 REVERT JUMPDEST PUSH3 0x3CE DUP2 PUSH3 0x303 JUMP JUMPDEST DUP2 EQ PUSH3 0x3DA JUMPI PUSH1 0x0 DUP1 REVERT JUMPDEST POP JUMP JUMPDEST PUSH2 0x10F4 DUP1 PUSH3 0x3ED PUSH1 0x0 CODECOPY PUSH1 0x0 RETURN INVALID PUSH1 0x80 PUSH1 0x40 MSTORE CALLVALUE DUP1 ISZERO PUSH2 0x10 JUMPI PUSH1 0x0 DUP1 REVERT JUMPDEST POP PUSH1 0x4 CALLDATASIZE LT PUSH2 0x88 JUMPI PUSH1 0x0 CALLDATALOAD PUSH1 0xE0 SHR DUP1 PUSH4 0x609FF1BD GT PUSH2 0x5B JUMPI DUP1 PUSH4 0x609FF1BD EQ PUSH2 0x114 JUMPI DUP1 PUSH4 0x9E7B8D61 EQ PUSH2 0x132 JUMPI DUP1 PUSH4 0xA3EC138D EQ PUSH2 0x14E JUMPI DUP1 PUSH4 0xE2BA53F0 EQ PUSH2 0x181 JUMPI PUSH2 0x88 JUMP JUMPDEST DUP1 PUSH4 0x121B93F EQ PUSH2 0x8D JUMPI DUP1 PUSH4 0x13CF08B EQ PUSH2 0xA9 JUMPI DUP1 PUSH4 0x2E4176CF EQ PUSH2 0xDA JUMPI DUP1 PUSH4 0x5C19A95C EQ PUSH2 0xF8 JUMPI JUMPDEST PUSH1 0x0 DUP1 REVERT JUMPDEST PUSH2 0xA7 PUSH1 0x4 DUP1 CALLDATASIZE SUB DUP2 ADD SWAP1 PUSH2 0xA2 SWAP2 SWAP1 PUSH2 0xB15 JUMP JUMPDEST PUSH2 0x19F JUMP JUMPDEST STOP JUMPDEST PUSH2 0xC3 PUSH1 0x4 DUP1 CALLDATASIZE SUB DUP2 ADD SWAP1 PUSH2 0xBE SWAP2 SWAP1 PUSH2 0xB15 JUMP JUMPDEST PUSH2 0x30C JUMP JUMPDEST PUSH1 0x40 MLOAD PUSH2 0xD1 SWAP3 SWAP2 SWAP1 PUSH2 0xDD6 JUMP JUMPDEST PUSH1 0x40 MLOAD DUP1 SWAP2 SUB SWAP1 RETURN JUMPDEST PUSH2 0xE2 PUSH2 0x340 JUMP JUMPDEST PUSH1 0x40 MLOAD PUSH2 0xEF SWAP2 SWAP1 PUSH2 0xDA0 JUMP JUMPDEST PUSH1 0x40 MLOAD DUP1 SWAP2 SUB SWAP1 RETURN JUMPDEST PUSH2 0x112 PUSH1 0x4 DUP1 CALLDATASIZE SUB DUP2 ADD SWAP1 PUSH2 0x10D SWAP2 SWAP1 PUSH2 0xAEC JUMP JUMPDEST PUSH2 0x364 JUMP JUMPDEST STOP JUMPDEST PUSH2 0x11C PUSH2 0x780 JUMP JUMPDEST PUSH1 0x40 MLOAD PUSH2 0x129 SWAP2 SWAP1 PUSH2 0xEFF JUMP JUMPDEST PUSH1 0x40 MLOAD DUP1 SWAP2 SUB SWAP1 RETURN JUMPDEST PUSH2 0x14C PUSH1 0x4 DUP1 CALLDATASIZE SUB DUP2 ADD SWAP1 PUSH2 0x147 SWAP2 SWAP1 PUSH2 0xAEC JUMP JUMPDEST PUSH2 0x854 JUMP JUMPDEST STOP JUMPDEST PUSH2 0x168 PUSH1 0x4 DUP1 CALLDATASIZE SUB DUP2 ADD SWAP1 PUSH2 0x163 SWAP2 SWAP1 PUSH2 0xAEC JUMP JUMPDEST PUSH2 0xA0B JUMP JUMPDEST PUSH1 0x40 MLOAD PUSH2 0x178 SWAP5 SWAP4 SWAP3 SWAP2 SWAP1 PUSH2 0xF1A JUMP JUMPDEST PUSH1 0x40 MLOAD DUP1 SWAP2 SUB SWAP1 RETURN JUMPDEST PUSH2 0x189 PUSH2 0xA68 JUMP JUMPDEST PUSH1 0x40 MLOAD PUSH2 0x196 SWAP2 SWAP1 PUSH2 0xDBB JUMP JUMPDEST PUSH1 0x40 MLOAD DUP1 SWAP2 SUB SWAP1 RETURN JUMPDEST PUSH1 0x0 PUSH1 0x1 PUSH1 0x0 CALLER PUSH20 0xFFFFFFFFFFFFFFFFFFFFFFFFFFFFFFFFFFFFFFFF AND PUSH20 0xFFFFFFFFFFFFFFFFFFFFFFFFFFFFFFFFFFFFFFFF AND DUP2 MSTORE PUSH1 0x20 ADD SWAP1 DUP2 MSTORE PUSH1 0x20 ADD PUSH1 0x0 KECCAK256 SWAP1 POP PUSH1 0x0 DUP2 PUSH1 0x0 ADD SLOAD EQ ISZERO PUSH2 0x22A JUMPI PUSH1 0x40 MLOAD PUSH32 0x8C379A000000000000000000000000000000000000000000000000000000000 DUP2 MSTORE PUSH1 0x4 ADD PUSH2 0x221 SWAP1 PUSH2 0xDFF JUMP JUMPDEST PUSH1 0x40 MLOAD DUP1 SWAP2 SUB SWAP1 REVERT JUMPDEST DUP1 PUSH1 0x1 ADD PUSH1 0x0 SWAP1 SLOAD SWAP1 PUSH2 0x100 EXP SWAP1 DIV PUSH1 0xFF AND ISZERO PUSH2 0x27C JUMPI PUSH1 0x40 MLOAD PUSH32 0x8C379A000000000000000000000000000000000000000000000000000000000 DUP2 MSTORE PUSH1 0x4 ADD PUSH2 0x273 SWAP1 PUSH2 0xE3F JUMP JUMPDEST PUSH1 0x40 MLOAD DUP1 SWAP2 SUB SWAP1 REVERT JUMPDEST PUSH1 0x1 DUP2 PUSH1 0x1 ADD PUSH1 0x0 PUSH2 0x100 EXP DUP2 SLOAD DUP2 PUSH1 0xFF MUL NOT AND SWAP1 DUP4 ISZERO ISZERO MUL OR SWAP1 SSTORE POP DUP2 DUP2 PUSH1 0x2 ADD DUP2 SWAP1 SSTORE POP DUP1 PUSH1 0x0 ADD SLOAD PUSH1 0x2 DUP4 DUP2 SLOAD DUP2 LT PUSH2 0x2E1 JUMPI PUSH32 0x4E487B7100000000000000000000000000000000000000000000000000000000 PUSH1 0x0 MSTORE PUSH1 0x32 PUSH1 0x4 MSTORE PUSH1 0x24 PUSH1 0x0 REVERT JUMPDEST SWAP1 PUSH1 0x0 MSTORE PUSH1 0x20 PUSH1 0x0 KECCAK256 SWAP1 PUSH1 0x2 MUL ADD PUSH1 0x1 ADD PUSH1 0x0 DUP3 DUP3 SLOAD PUSH2 0x301 SWAP2 SWAP1 PUSH2 0xF70 JUMP JUMPDEST SWAP3 POP POP DUP2 SWAP1 SSTORE POP POP POP JUMP JUMPDEST PUSH1 0x2 DUP2 DUP2 SLOAD DUP2 LT PUSH2 0x31C JUMPI PUSH1 0x0 DUP1 REVERT JUMPDEST SWAP1 PUSH1 0x0 MSTORE PUSH1 0x20 PUSH1 0x0 KECCAK256 SWAP1 PUSH1 0x2 MUL ADD PUSH1 0x0 SWAP2 POP SWAP1 POP DUP1 PUSH1 0x0 ADD SLOAD SWAP1 DUP1 PUSH1 0x1 ADD SLOAD SWAP1 POP DUP3 JUMP JUMPDEST PUSH1 0x0 DUP1 SLOAD SWAP1 PUSH2 0x100 EXP SWAP1 DIV PUSH20 0xFFFFFFFFFFFFFFFFFFFFFFFFFFFFFFFFFFFFFFFF AND DUP2 JUMP JUMPDEST PUSH1 0x0 PUSH1 0x1 PUSH1 0x0 CALLER PUSH20 0xFFFFFFFFFFFFFFFFFFFFFFFFFFFFFFFFFFFFFFFF AND PUSH20 0xFFFFFFFFFFFFFFFFFFFFFFFFFFFFFFFFFFFFFFFF AND DUP2 MSTORE PUSH1 0x20 ADD SWAP1 DUP2 MSTORE PUSH1 0x20 ADD PUSH1 0x0 KECCAK256 SWAP1 POP PUSH1 0x0 DUP2 PUSH1 0x0 ADD SLOAD EQ ISZERO PUSH2 0x3EF JUMPI PUSH1 0x40 MLOAD PUSH32 0x8C379A000000000000000000000000000000000000000000000000000000000 DUP2 MSTORE PUSH1 0x4 ADD PUSH2 0x3E6 SWAP1 PUSH2 0xE1F JUMP JUMPDEST PUSH1 0x40 MLOAD DUP1 SWAP2 SUB SWAP1 REVERT JUMPDEST DUP1 PUSH1 0x1 ADD PUSH1 0x0 SWAP1 SLOAD SWAP1 PUSH2 0x100 EXP SWAP1 DIV PUSH1 0xFF AND ISZERO PUSH2 0x441 JUMPI PUSH1 0x40 MLOAD PUSH32 0x8C379A000000000000000000000000000000000000000000000000000000000 DUP2 MSTORE PUSH1 0x4 ADD PUSH2 0x438 SWAP1 PUSH2 0xE5F JUMP JUMPDEST PUSH1 0x40 MLOAD DUP1 SWAP2 SUB SWAP1 REVERT JUMPDEST CALLER PUSH20 0xFFFFFFFFFFFFFFFFFFFFFFFFFFFFFFFFFFFFFFFF AND DUP3 PUSH20 0xFFFFFFFFFFFFFFFFFFFFFFFFFFFFFFFFFFFFFFFF AND EQ ISZERO PUSH2 0x4B0 JUMPI PUSH1 0x40 MLOAD PUSH32 0x8C379A000000000000000000000000000000000000000000000000000000000 DUP2 MSTORE PUSH1 0x4 ADD PUSH2 0x4A7 SWAP1 PUSH2 0xEDF JUMP JUMPDEST PUSH1 0x40 MLOAD DUP1 SWAP2 SUB SWAP1 REVERT JUMPDEST JUMPDEST PUSH1 0x0 PUSH20 0xFFFFFFFFFFFFFFFFFFFFFFFFFFFFFFFFFFFFFFFF AND PUSH1 0x1 PUSH1 0x0 DUP5 PUSH20 0xFFFFFFFFFFFFFFFFFFFFFFFFFFFFFFFFFFFFFFFF AND PUSH20 0xFFFFFFFFFFFFFFFFFFFFFFFFFFFFFFFFFFFFFFFF AND DUP2 MSTORE PUSH1 0x20 ADD SWAP1 DUP2 MSTORE PUSH1 0x20 ADD PUSH1 0x0 KECCAK256 PUSH1 0x1 ADD PUSH1 0x1 SWAP1 SLOAD SWAP1 PUSH2 0x100 EXP SWAP1 DIV PUSH20 0xFFFFFFFFFFFFFFFFFFFFFFFFFFFFFFFFFFFFFFFF AND PUSH20 0xFFFFFFFFFFFFFFFFFFFFFFFFFFFFFFFFFFFFFFFF AND EQ PUSH2 0x620 JUMPI PUSH1 0x1 PUSH1 0x0 DUP4 PUSH20 0xFFFFFFFFFFFFFFFFFFFFFFFFFFFFFFFFFFFFFFFF AND PUSH20 0xFFFFFFFFFFFFFFFFFFFFFFFFFFFFFFFFFFFFFFFF AND DUP2 MSTORE PUSH1 0x20 ADD SWAP1 DUP2 MSTORE PUSH1 0x20 ADD PUSH1 0x0 KECCAK256 PUSH1 0x1 ADD PUSH1 0x1 SWAP1 SLOAD SWAP1 PUSH2 0x100 EXP SWAP1 DIV PUSH20 0xFFFFFFFFFFFFFFFFFFFFFFFFFFFFFFFFFFFFFFFF AND SWAP2 POP CALLER PUSH20 0xFFFFFFFFFFFFFFFFFFFFFFFFFFFFFFFFFFFFFFFF AND DUP3 PUSH20 0xFFFFFFFFFFFFFFFFFFFFFFFFFFFFFFFFFFFFFFFF AND EQ ISZERO PUSH2 0x61B JUMPI PUSH1 0x40 MLOAD PUSH32 0x8C379A000000000000000000000000000000000000000000000000000000000 DUP2 MSTORE PUSH1 0x4 ADD PUSH2 0x612 SWAP1 PUSH2 0xE9F JUMP JUMPDEST PUSH1 0x40 MLOAD DUP1 SWAP2 SUB SWAP1 REVERT JUMPDEST PUSH2 0x4B1 JUMP JUMPDEST PUSH1 0x0 PUSH1 0x1 PUSH1 0x0 DUP5 PUSH20 0xFFFFFFFFFFFFFFFFFFFFFFFFFFFFFFFFFFFFFFFF AND PUSH20 0xFFFFFFFFFFFFFFFFFFFFFFFFFFFFFFFFFFFFFFFF AND DUP2 MSTORE PUSH1 0x20 ADD SWAP1 DUP2 MSTORE PUSH1 0x20 ADD PUSH1 0x0 KECCAK256 SWAP1 POP PUSH1 0x1 DUP2 PUSH1 0x0 ADD SLOAD LT ISZERO PUSH2 0x675 JUMPI PUSH1 0x0 DUP1 REVERT JUMPDEST PUSH1 0x1 DUP3 PUSH1 0x1 ADD PUSH1 0x0 PUSH2 0x100 EXP DUP2 SLOAD DUP2 PUSH1 0xFF MUL NOT AND SWAP1 DUP4 ISZERO ISZERO MUL OR SWAP1 SSTORE POP DUP3 DUP3 PUSH1 0x1 ADD PUSH1 0x1 PUSH2 0x100 EXP DUP2 SLOAD DUP2 PUSH20 0xFFFFFFFFFFFFFFFFFFFFFFFFFFFFFFFFFFFFFFFF MUL NOT AND SWAP1 DUP4 PUSH20 0xFFFFFFFFFFFFFFFFFFFFFFFFFFFFFFFFFFFFFFFF AND MUL OR SWAP1 SSTORE POP DUP1 PUSH1 0x1 ADD PUSH1 0x0 SWAP1 SLOAD SWAP1 PUSH2 0x100 EXP SWAP1 DIV PUSH1 0xFF AND ISZERO PUSH2 0x75B JUMPI DUP2 PUSH1 0x0 ADD SLOAD PUSH1 0x2 DUP3 PUSH1 0x2 ADD SLOAD DUP2 SLOAD DUP2 LT PUSH2 0x72F JUMPI PUSH32 0x4E487B7100000000000000000000000000000000000000000000000000000000 PUSH1 0x0 MSTORE PUSH1 0x32 PUSH1 0x4 MSTORE PUSH1 0x24 PUSH1 0x0 REVERT JUMPDEST SWAP1 PUSH1 0x0 MSTORE PUSH1 0x20 PUSH1 0x0 KECCAK256 SWAP1 PUSH1 0x2 MUL ADD PUSH1 0x1 ADD PUSH1 0x0 DUP3 DUP3 SLOAD PUSH2 0x74F SWAP2 SWAP1 PUSH2 0xF70 JUMP JUMPDEST SWAP3 POP POP DUP2 SWAP1 SSTORE POP PUSH2 0x77B JUMP JUMPDEST DUP2 PUSH1 0x0 ADD SLOAD DUP2 PUSH1 0x0 ADD PUSH1 0x0 DUP3 DUP3 SLOAD PUSH2 0x773 SWAP2 SWAP1 PUSH2 0xF70 JUMP JUMPDEST SWAP3 POP POP DUP2 SWAP1 SSTORE POP JUMPDEST POP POP POP JUMP JUMPDEST PUSH1 0x0 DUP1 PUSH1 0x0 SWAP1 POP PUSH1 0x0 JUMPDEST PUSH1 0x2 DUP1 SLOAD SWAP1 POP DUP2 LT ISZERO PUSH2 0x84F JUMPI DUP2 PUSH1 0x2 DUP3 DUP2 SLOAD DUP2 LT PUSH2 0x7D2 JUMPI PUSH32 0x4E487B7100000000000000000000000000000000000000000000000000000000 PUSH1 0x0 MSTORE PUSH1 0x32 PUSH1 0x4 MSTORE PUSH1 0x24 PUSH1 0x0 REVERT JUMPDEST SWAP1 PUSH1 0x0 MSTORE PUSH1 0x20 PUSH1 0x0 KECCAK256 SWAP1 PUSH1 0x2 MUL ADD PUSH1 0x1 ADD SLOAD GT ISZERO PUSH2 0x83C JUMPI PUSH1 0x2 DUP2 DUP2 SLOAD DUP2 LT PUSH2 0x824 JUMPI PUSH32 0x4E487B7100000000000000000000000000000000000000000000000000000000 PUSH1 0x0 MSTORE PUSH1 0x32 PUSH1 0x4 MSTORE PUSH1 0x24 PUSH1 0x0 REVERT JUMPDEST SWAP1 PUSH1 0x0 MSTORE PUSH1 0x20 PUSH1 0x0 KECCAK256 SWAP1 PUSH1 0x2 MUL ADD PUSH1 0x1 ADD SLOAD SWAP2 POP DUP1 SWAP3 POP JUMPDEST DUP1 DUP1 PUSH2 0x847 SWAP1 PUSH2 0x1018 JUMP JUMPDEST SWAP2 POP POP PUSH2 0x78A JUMP JUMPDEST POP POP SWAP1 JUMP JUMPDEST PUSH1 0x0 DUP1 SLOAD SWAP1 PUSH2 0x100 EXP SWAP1 DIV PUSH20 0xFFFFFFFFFFFFFFFFFFFFFFFFFFFFFFFFFFFFFFFF AND PUSH20 0xFFFFFFFFFFFFFFFFFFFFFFFFFFFFFFFFFFFFFFFF AND CALLER PUSH20 0xFFFFFFFFFFFFFFFFFFFFFFFFFFFFFFFFFFFFFFFF AND EQ PUSH2 0x8E2 JUMPI PUSH1 0x40 MLOAD PUSH32 0x8C379A000000000000000000000000000000000000000000000000000000000 DUP2 MSTORE PUSH1 0x4 ADD PUSH2 0x8D9 SWAP1 PUSH2 0xE7F JUMP JUMPDEST PUSH1 0x40 MLOAD DUP1 SWAP2 SUB SWAP1 REVERT JUMPDEST PUSH1 0x1 PUSH1 0x0 DUP3 PUSH20 0xFFFFFFFFFFFFFFFFFFFFFFFFFFFFFFFFFFFFFFFF AND PUSH20 0xFFFFFFFFFFFFFFFFFFFFFFFFFFFFFFFFFFFFFFFF AND DUP2 MSTORE PUSH1 0x20 ADD SWAP1 DUP2 MSTORE PUSH1 0x20 ADD PUSH1 0x0 KECCAK256 PUSH1 0x1 ADD PUSH1 0x0 SWAP1 SLOAD SWAP1 PUSH2 0x100 EXP SWAP1 DIV PUSH1 0xFF AND ISZERO PUSH2 0x972 JUMPI PUSH1 0x40 MLOAD PUSH32 0x8C379A000000000000000000000000000000000000000000000000000000000 DUP2 MSTORE PUSH1 0x4 ADD PUSH2 0x969 SWAP1 PUSH2 0xEBF JUMP JUMPDEST PUSH1 0x40 MLOAD DUP1 SWAP2 SUB SWAP1 REVERT JUMPDEST PUSH1 0x0 PUSH1 0x1 PUSH1 0x0 DUP4 PUSH20 0xFFFFFFFFFFFFFFFFFFFFFFFFFFFFFFFFFFFFFFFF AND PUSH20 0xFFFFFFFFFFFFFFFFFFFFFFFFFFFFFFFFFFFFFFFF AND DUP2 MSTORE PUSH1 0x20 ADD SWAP1 DUP2 MSTORE PUSH1 0x20 ADD PUSH1 0x0 KECCAK256 PUSH1 0x0 ADD SLOAD EQ PUSH2 0x9C1 JUMPI PUSH1 0x0 DUP1 REVERT JUMPDEST PUSH1 0x1 DUP1 PUSH1 0x0 DUP4 PUSH20 0xFFFFFFFFFFFFFFFFFFFFFFFFFFFFFFFFFFFFFFFF AND PUSH20 0xFFFFFFFFFFFFFFFFFFFFFFFFFFFFFFFFFFFFFFFF AND DUP2 MSTORE PUSH1 0x20 ADD SWAP1 DUP2 MSTORE PUSH1 0x20 ADD PUSH1 0x0 KECCAK256 PUSH1 0x0 ADD DUP2 SWAP1 SSTORE POP POP JUMP JUMPDEST PUSH1 0x1 PUSH1 0x20 MSTORE DUP1 PUSH1 0x0 MSTORE PUSH1 0x40 PUSH1 0x0 KECCAK256 PUSH1 0x0 SWAP2 POP SWAP1 POP DUP1 PUSH1 0x0 ADD SLOAD SWAP1 DUP1 PUSH1 0x1 ADD PUSH1 0x0 SWAP1 SLOAD SWAP1 PUSH2 0x100 EXP SWAP1 DIV PUSH1 0xFF AND SWAP1 DUP1 PUSH1 0x1 ADD PUSH1 0x1 SWAP1 SLOAD SWAP1 PUSH2 0x100 EXP SWAP1 DIV PUSH20 0xFFFFFFFFFFFFFFFFFFFFFFFFFFFFFFFFFFFFFFFF AND SWAP1 DUP1 PUSH1 0x2 ADD SLOAD SWAP1 POP DUP5 JUMP JUMPDEST PUSH1 0x0 PUSH1 0x2 PUSH2 0xA74 PUSH2 0x780 JUMP JUMPDEST DUP2 SLOAD DUP2 LT PUSH2 0xAAB JUMPI PUSH32 0x4E487B7100000000000000000000000000000000000000000000000000000000 PUSH1 0x0 MSTORE PUSH1 0x32 PUSH1 0x4 MSTORE PUSH1 0x24 PUSH1 0x0 REVERT JUMPDEST SWAP1 PUSH1 0x0 MSTORE PUSH1 0x20 PUSH1 0x0 KECCAK256 SWAP1 PUSH1 0x2 MUL ADD PUSH1 0x0 ADD SLOAD SWAP1 POP SWAP1 JUMP JUMPDEST PUSH1 0x0 DUP2 CALLDATALOAD SWAP1 POP PUSH2 0xAD1 DUP2 PUSH2 0x1090 JUMP JUMPDEST SWAP3 SWAP2 POP POP JUMP JUMPDEST PUSH1 0x0 DUP2 CALLDATALOAD SWAP1 POP PUSH2 0xAE6 DUP2 PUSH2 0x10A7 JUMP JUMPDEST SWAP3 SWAP2 POP POP JUMP JUMPDEST PUSH1 0x0 PUSH1 0x20 DUP3 DUP5 SUB SLT ISZERO PUSH2 0xAFE JUMPI PUSH1 0x0 DUP1 REVERT JUMPDEST PUSH1 0x0 PUSH2 0xB0C DUP5 DUP3 DUP6 ADD PUSH2 0xAC2 JUMP JUMPDEST SWAP2 POP POP SWAP3 SWAP2 POP POP JUMP JUMPDEST PUSH1 0x0 PUSH1 0x20 DUP3 DUP5 SUB SLT ISZERO PUSH2 0xB27 JUMPI PUSH1 0x0 DUP1 REVERT JUMPDEST PUSH1 0x0 PUSH2 0xB35 DUP5 DUP3 DUP6 ADD PUSH2 0xAD7 JUMP JUMPDEST SWAP2 POP POP SWAP3 SWAP2 POP POP JUMP JUMPDEST PUSH2 0xB47 DUP2 PUSH2 0xFC6 JUMP JUMPDEST DUP3 MSTORE POP POP JUMP JUMPDEST PUSH2 0xB56 DUP2 PUSH2 0xFD8 JUMP JUMPDEST DUP3 MSTORE POP POP JUMP JUMPDEST PUSH2 0xB65 DUP2 PUSH2 0xFE4 JUMP JUMPDEST DUP3 MSTORE POP POP JUMP JUMPDEST PUSH1 0x0 PUSH2 0xB78 PUSH1 0x14 DUP4 PUSH2 0xF5F JUMP JUMPDEST SWAP2 POP PUSH32 0x486173206E6F20726967687420746F20766F7465000000000000000000000000 PUSH1 0x0 DUP4 ADD MSTORE PUSH1 0x20 DUP3 ADD SWAP1 POP SWAP2 SWAP1 POP JUMP JUMPDEST PUSH1 0x0 PUSH2 0xBB8 PUSH1 0x19 DUP4 PUSH2 0xF5F JUMP JUMPDEST SWAP2 POP PUSH32 0x596F752068617665206E6F20726967687420746F20766F746500000000000000 PUSH1 0x0 DUP4 ADD MSTORE PUSH1 0x20 DUP3 ADD SWAP1 POP SWAP2 SWAP1 POP JUMP JUMPDEST PUSH1 0x0 PUSH2 0xBF8 PUSH1 0xE DUP4 PUSH2 0xF5F JUMP JUMPDEST SWAP2 POP PUSH32 0x416C726561647920766F7465642E000000000000000000000000000000000000 PUSH1 0x0 DUP4 ADD MSTORE PUSH1 0x20 DUP3 ADD SWAP1 POP SWAP2 SWAP1 POP JUMP JUMPDEST PUSH1 0x0 PUSH2 0xC38 PUSH1 0x12 DUP4 PUSH2 0xF5F JUMP JUMPDEST SWAP2 POP PUSH32 0x596F7520616C726561647920766F7465642E0000000000000000000000000000 PUSH1 0x0 DUP4 ADD MSTORE PUSH1 0x20 DUP3 ADD SWAP1 POP SWAP2 SWAP1 POP JUMP JUMPDEST PUSH1 0x0 PUSH2 0xC78 PUSH1 0x28 DUP4 PUSH2 0xF5F JUMP JUMPDEST SWAP2 POP PUSH32 0x4F6E6C79206368616972706572736F6E2063616E206769766520726967687420 PUSH1 0x0 DUP4 ADD MSTORE PUSH32 0x746F20766F74652E000000000000000000000000000000000000000000000000 PUSH1 0x20 DUP4 ADD MSTORE PUSH1 0x40 DUP3 ADD SWAP1 POP SWAP2 SWAP1 POP JUMP JUMPDEST PUSH1 0x0 PUSH2 0xCDE PUSH1 0x19 DUP4 PUSH2 0xF5F JUMP JUMPDEST SWAP2 POP PUSH32 0x466F756E64206C6F6F7020696E2064656C65676174696F6E2E00000000000000 PUSH1 0x0 DUP4 ADD MSTORE PUSH1 0x20 DUP3 ADD SWAP1 POP SWAP2 SWAP1 POP JUMP JUMPDEST PUSH1 0x0 PUSH2 0xD1E PUSH1 0x18 DUP4 PUSH2 0xF5F JUMP JUMPDEST SWAP2 POP PUSH32 0x54686520766F74657220616C726561647920766F7465642E0000000000000000 PUSH1 0x0 DUP4 ADD MSTORE PUSH1 0x20 DUP3 ADD SWAP1 POP SWAP2 SWAP1 POP JUMP JUMPDEST PUSH1 0x0 PUSH2 0xD5E PUSH1 0x1E DUP4 PUSH2 0xF5F JUMP JUMPDEST SWAP2 POP PUSH32 0x53656C662D64656C65676174696F6E20697320646973616C6C6F7765642E0000 PUSH1 0x0 DUP4 ADD MSTORE PUSH1 0x20 DUP3 ADD SWAP1 POP SWAP2 SWAP1 POP JUMP JUMPDEST PUSH2 0xD9A DUP2 PUSH2 0x100E JUMP JUMPDEST DUP3 MSTORE POP POP JUMP JUMPDEST PUSH1 0x0 PUSH1 0x20 DUP3 ADD SWAP1 POP PUSH2 0xDB5 PUSH1 0x0 DUP4 ADD DUP5 PUSH2 0xB3E JUMP JUMPDEST SWAP3 SWAP2 POP POP JUMP JUMPDEST PUSH1 0x0 PUSH1 0x20 DUP3 ADD SWAP1 POP PUSH2 0xDD0 PUSH1 0x0 DUP4 ADD DUP5 PUSH2 0xB5C JUMP JUMPDEST SWAP3 SWAP2 POP POP JUMP JUMPDEST PUSH1 0x0 PUSH1 0x40 DUP3 ADD SWAP1 POP PUSH2 0xDEB PUSH1 0x0 DUP4 ADD DUP6 PUSH2 0xB5C JUMP JUMPDEST PUSH2 0xDF8 PUSH1 0x20 DUP4 ADD DUP5 PUSH2 0xD91 JUMP JUMPDEST SWAP4 SWAP3 POP POP POP JUMP JUMPDEST PUSH1 0x0 PUSH1 0x20 DUP3 ADD SWAP1 POP DUP2 DUP2 SUB PUSH1 0x0 DUP4 ADD MSTORE PUSH2 0xE18 DUP2 PUSH2 0xB6B JUMP JUMPDEST SWAP1 POP SWAP2 SWAP1 POP JUMP JUMPDEST PUSH1 0x0 PUSH1 0x20 DUP3 ADD SWAP1 POP DUP2 DUP2 SUB PUSH1 0x0 DUP4 ADD MSTORE PUSH2 0xE38 DUP2 PUSH2 0xBAB JUMP JUMPDEST SWAP1 POP SWAP2 SWAP1 POP JUMP JUMPDEST PUSH1 0x0 PUSH1 0x20 DUP3 ADD SWAP1 POP DUP2 DUP2 SUB PUSH1 0x0 DUP4 ADD MSTORE PUSH2 0xE58 DUP2 PUSH2 0xBEB JUMP JUMPDEST SWAP1 POP SWAP2 SWAP1 POP JUMP JUMPDEST PUSH1 0x0 PUSH1 0x20 DUP3 ADD SWAP1 POP DUP2 DUP2 SUB PUSH1 0x0 DUP4 ADD MSTORE PUSH2 0xE78 DUP2 PUSH2 0xC2B JUMP JUMPDEST SWAP1 POP SWAP2 SWAP1 POP JUMP JUMPDEST PUSH1 0x0 PUSH1 0x20 DUP3 ADD SWAP1 POP DUP2 DUP2 SUB PUSH1 0x0 DUP4 ADD MSTORE PUSH2 0xE98 DUP2 PUSH2 0xC6B JUMP JUMPDEST SWAP1 POP SWAP2 SWAP1 POP JUMP JUMPDEST PUSH1 0x0 PUSH1 0x20 DUP3 ADD SWAP1 POP DUP2 DUP2 SUB PUSH1 0x0 DUP4 ADD MSTORE PUSH2 0xEB8 DUP2 PUSH2 0xCD1 JUMP JUMPDEST SWAP1 POP SWAP2 SWAP1 POP JUMP JUMPDEST PUSH1 0x0 PUSH1 0x20 DUP3 ADD SWAP1 POP DUP2 DUP2 SUB PUSH1 0x0 DUP4 ADD MSTORE PUSH2 0xED8 DUP2 PUSH2 0xD11 JUMP JUMPDEST SWAP1 POP SWAP2 SWAP1 POP JUMP JUMPDEST PUSH1 0x0 PUSH1 0x20 DUP3 ADD SWAP1 POP DUP2 DUP2 SUB PUSH1 0x0 DUP4 ADD MSTORE PUSH2 0xEF8 DUP2 PUSH2 0xD51 JUMP JUMPDEST SWAP1 POP SWAP2 SWAP1 POP JUMP JUMPDEST PUSH1 0x0 PUSH1 0x20 DUP3 ADD SWAP1 POP PUSH2 0xF14 PUSH1 0x0 DUP4 ADD DUP5 PUSH2 0xD91 JUMP JUMPDEST SWAP3 SWAP2 POP POP JUMP JUMPDEST PUSH1 0x0 PUSH1 0x80 DUP3 ADD SWAP1 POP PUSH2 0xF2F PUSH1 0x0 DUP4 ADD DUP8 PUSH2 0xD91 JUMP JUMPDEST PUSH2 0xF3C PUSH1 0x20 DUP4 ADD DUP7 PUSH2 0xB4D JUMP JUMPDEST PUSH2 0xF49 PUSH1 0x40 DUP4 ADD DUP6 PUSH2 0xB3E JUMP JUMPDEST PUSH2 0xF56 PUSH1 0x60 DUP4 ADD DUP5 PUSH2 0xD91 JUMP JUMPDEST SWAP6 SWAP5 POP POP POP POP POP JUMP JUMPDEST PUSH1 0x0 DUP3 DUP3 MSTORE PUSH1 0x20 DUP3 ADD SWAP1 POP SWAP3 SWAP2 POP POP JUMP JUMPDEST PUSH1 0x0 PUSH2 0xF7B DUP3 PUSH2 0x100E JUMP JUMPDEST SWAP2 POP PUSH2 0xF86 DUP4 PUSH2 0x100E JUMP JUMPDEST SWAP3 POP DUP3 PUSH32 0xFFFFFFFFFFFFFFFFFFFFFFFFFFFFFFFFFFFFFFFFFFFFFFFFFFFFFFFFFFFFFFFF SUB DUP3 GT ISZERO PUSH2 0xFBB JUMPI PUSH2 0xFBA PUSH2 0x1061 JUMP JUMPDEST JUMPDEST DUP3 DUP3 ADD SWAP1 POP SWAP3 SWAP2 POP POP JUMP JUMPDEST PUSH1 0x0 PUSH2 0xFD1 DUP3 PUSH2 0xFEE JUMP JUMPDEST SWAP1 POP SWAP2 SWAP1 POP JUMP JUMPDEST PUSH1 0x0 DUP2 ISZERO ISZERO SWAP1 POP SWAP2 SWAP1 POP JUMP JUMPDEST PUSH1 0x0 DUP2 SWAP1 POP SWAP2 SWAP1 POP JUMP JUMPDEST PUSH1 0x0 PUSH20 0xFFFFFFFFFFFFFFFFFFFFFFFFFFFFFFFFFFFFFFFF DUP3 AND SWAP1 POP SWAP2 SWAP1 POP JUMP JUMPDEST PUSH1 0x0 DUP2 SWAP1 POP SWAP2 SWAP1 POP JUMP JUMPDEST PUSH1 0x0 PUSH2 0x1023 DUP3 PUSH2 0x100E JUMP JUMPDEST SWAP2 POP PUSH32 0xFFFFFFFFFFFFFFFFFFFFFFFFFFFFFFFFFFFFFFFFFFFFFFFFFFFFFFFFFFFFFFFF DUP3 EQ ISZERO PUSH2 0x1056 JUMPI PUSH2 0x1055 PUSH2 0x1061 JUMP JUMPDEST JUMPDEST PUSH1 0x1 DUP3 ADD SWAP1 POP SWAP2 SWAP1 POP JUMP JUMPDEST PUSH32 0x4E487B7100000000000000000000000000000000000000000000000000000000 PUSH1 0x0 MSTORE PUSH1 0x11 PUSH1 0x4 MSTORE PUSH1 0x24 PUSH1 0x0 REVERT JUMPDEST PUSH2 0x1099 DUP2 PUSH2 0xFC6 JUMP JUMPDEST DUP2 EQ PUSH2 0x10A4 JUMPI PUSH1 0x0 DUP1 REVERT JUMPDEST POP JUMP JUMPDEST PUSH2 0x10B0 DUP2 PUSH2 0x100E JUMP JUMPDEST DUP2 EQ PUSH2 0x10BB JUMPI PUSH1 0x0 DUP1 REVERT JUMPDEST POP JUMP INVALID LOG2 PUSH5 0x6970667358 0x22 SLT KECCAK256 0x5C DUP12 SELFBALANCE PUSH20 0xD32702528FF535897E7CA492DA7C7008F21CD8E5 PUSH25 0x4AC14A08B53EE264736F6C6343000800003300000000000000 "
				},
				"gasEstimates": {
					"creation": {
						"codeDepositCost": "868000",
						"executionCost": "infinite",
						"totalCost": "infinite"
					},
					"external": {
						"chairperson()": "1256",
						"delegate(address)": "infinite",
						"giveRightToVote(address)": "23325",
						"proposals(uint256)": "infinite",
						"vote(uint256)": "infinite",
						"voters(address)": "infinite",
						"winnerName()": "infinite",
						"winningProposal()": "infinite"
					}
				},
				"methodIdentifiers": {
					"chairperson()": "2e4176cf",
					"delegate(address)": "5c19a95c",
					"giveRightToVote(address)": "9e7b8d61",
					"proposals(uint256)": "013cf08b",
					"vote(uint256)": "0121b93f",
					"voters(address)": "a3ec138d",
					"winnerName()": "e2ba53f0",
					"winningProposal()": "609ff1bd"
				}
			},
			"storageLayout": {
				"storage": [
					{
						"astId": 18,
						"contract": "contracts/demo/Ballot.sol:Ballot",
						"label": "chairperson",
						"offset": 0,
						"slot": "0",
						"type": "t_address"
					},
					{
						"astId": 23,
						"contract": "contracts/demo/Ballot.sol:Ballot",
						"label": "voters",
						"offset": 0,
						"slot": "1",
						"type": "t_mapping(t_address,t_struct(Voter)11_storage)"
					},
					{
						"astId": 27,
						"contract": "contracts/demo/Ballot.sol:Ballot",
						"label": "proposals",
						"offset": 0,
						"slot": "2",
						"type": "t_array(t_struct(Proposal)16_storage)dyn_storage"
					}
				],
				"types": {
					"t_address": {
						"encoding": "inplace",
						"label": "address",
						"numberOfBytes": "20"
					},
					"t_array(t_struct(Proposal)16_storage)dyn_storage": {
						"base": "t_struct(Proposal)16_storage",
						"encoding": "dynamic_array",
						"label": "struct Ballot.Proposal[]",
						"numberOfBytes": "32"
					},
					"t_bool": {
						"encoding": "inplace",
						"label": "bool",
						"numberOfBytes": "1"
					},
					"t_bytes32": {
						"encoding": "inplace",
						"label": "bytes32",
						"numberOfBytes": "32"
					},
					"t_mapping(t_address,t_struct(Voter)11_storage)": {
						"encoding": "mapping",
						"key": "t_address",
						"label": "mapping(address => struct Ballot.Voter)",
						"numberOfBytes": "32",
						"value": "t_struct(Voter)11_storage"
					},
					"t_struct(Proposal)16_storage": {
						"encoding": "inplace",
						"label": "struct Ballot.Proposal",
						"members": [
							{
								"astId": 13,
								"contract": "contracts/demo/Ballot.sol:Ballot",
								"label": "name",
								"offset": 0,
								"slot": "0",
								"type": "t_bytes32"
							},
							{
								"astId": 15,
								"contract": "contracts/demo/Ballot.sol:Ballot",
								"label": "voteCount",
								"offset": 0,
								"slot": "1",
								"type": "t_uint256"
							}
						],
						"numberOfBytes": "64"
					},
					"t_struct(Voter)11_storage": {
						"encoding": "inplace",
						"label": "struct Ballot.Voter",
						"members": [
							{
								"astId": 4,
								"contract": "contracts/demo/Ballot.sol:Ballot",
								"label": "weight",
								"offset": 0,
								"slot": "0",
								"type": "t_uint256"
							},
							{
								"astId": 6,
								"contract": "contracts/demo/Ballot.sol:Ballot",
								"label": "voted",
								"offset": 0,
								"slot": "1",
								"type": "t_bool"
							},
							{
								"astId": 8,
								"contract": "contracts/demo/Ballot.sol:Ballot",
								"label": "delegate",
								"offset": 1,
								"slot": "1",
								"type": "t_address"
							},
							{
								"astId": 10,
								"contract": "contracts/demo/Ballot.sol:Ballot",
								"label": "vote",
								"offset": 0,
								"slot": "2",
								"type": "t_uint256"
							}
						],
						"numberOfBytes": "96"
					},
					"t_uint256": {
						"encoding": "inplace",
						"label": "uint256",
						"numberOfBytes": "32"
					}
				}
			},
			"userdoc": {
				"kind": "user",
				"methods": {
					"constructor": {
						"notice": "为 `proposalNames` 中的每个提案，创建一个新的（投票）表决"
					},
					"delegate(address)": {
						"notice": "把您的投票委托给投票者 `to`。"
					},
					"vote(uint256)": {
						"notice": "把您的票(包括委托给您的票)， 投给提案 `proposals[proposal].name`。"
					}
				},
				"notice": "它实现了一个投票合约。当然， 电子投票的主要问题是如何将投票权分配给正确的人以及如何防止人为操纵。 我们不会在这里解决所有的问题，但至少我们会展示如何进行委托投票， 与此同时，使计票是 自动且完全透明的。",
				"version": 1
			}
		}
	}
}